{
  "_format": "hh-sol-artifact-1",
  "contractName": "FutureDistribution",
  "sourceName": "contracts/FutureDistribution.sol",
  "abi": [
    {
      "inputs": [
        {
          "internalType": "string",
          "name": "name_",
          "type": "string"
        },
        {
          "internalType": "string",
          "name": "symbol_",
          "type": "string"
        },
        {
          "internalType": "uint8",
          "name": "shareDecimal_",
          "type": "uint8"
        },
        {
          "internalType": "uint256",
          "name": "targetShardSupply_",
          "type": "uint256"
        },
        {
          "internalType": "uint256",
          "name": "productNftID_",
          "type": "uint256"
        },
        {
          "internalType": "contract IProductNFT",
          "name": "productNFT_",
          "type": "address"
        },
        {
          "internalType": "address",
          "name": "rejuveAdmin_",
          "type": "address"
        },
        {
          "internalType": "uint256",
          "name": "curatorFee_",
          "type": "uint256"
        }
      ],
      "stateMutability": "nonpayable",
      "type": "constructor"
    },
    {
      "anonymous": false,
      "inputs": [
        {
          "indexed": true,
          "internalType": "address",
          "name": "owner",
          "type": "address"
        },
        {
          "indexed": true,
          "internalType": "address",
          "name": "spender",
          "type": "address"
        },
        {
          "indexed": false,
          "internalType": "uint256",
          "name": "value",
          "type": "uint256"
        }
      ],
      "name": "Approval",
      "type": "event"
    },
    {
      "anonymous": false,
      "inputs": [
        {
          "indexed": false,
          "internalType": "address",
          "name": "account",
          "type": "address"
        }
      ],
      "name": "Paused",
      "type": "event"
    },
    {
      "anonymous": false,
      "inputs": [
        {
          "indexed": false,
          "internalType": "uint256",
          "name": "productUID",
          "type": "uint256"
        },
        {
          "indexed": false,
          "internalType": "address",
          "name": "rejuve",
          "type": "address"
        },
        {
          "indexed": false,
          "internalType": "uint256",
          "name": "shardAmount",
          "type": "uint256"
        }
      ],
      "name": "RemainingShardDistributed",
      "type": "event"
    },
    {
      "anonymous": false,
      "inputs": [
        {
          "indexed": true,
          "internalType": "bytes32",
          "name": "role",
          "type": "bytes32"
        },
        {
          "indexed": true,
          "internalType": "bytes32",
          "name": "previousAdminRole",
          "type": "bytes32"
        },
        {
          "indexed": true,
          "internalType": "bytes32",
          "name": "newAdminRole",
          "type": "bytes32"
        }
      ],
      "name": "RoleAdminChanged",
      "type": "event"
    },
    {
      "anonymous": false,
      "inputs": [
        {
          "indexed": true,
          "internalType": "bytes32",
          "name": "role",
          "type": "bytes32"
        },
        {
          "indexed": true,
          "internalType": "address",
          "name": "account",
          "type": "address"
        },
        {
          "indexed": true,
          "internalType": "address",
          "name": "sender",
          "type": "address"
        }
      ],
      "name": "RoleGranted",
      "type": "event"
    },
    {
      "anonymous": false,
      "inputs": [
        {
          "indexed": true,
          "internalType": "bytes32",
          "name": "role",
          "type": "bytes32"
        },
        {
          "indexed": true,
          "internalType": "address",
          "name": "account",
          "type": "address"
        },
        {
          "indexed": true,
          "internalType": "address",
          "name": "sender",
          "type": "address"
        }
      ],
      "name": "RoleRevoked",
      "type": "event"
    },
    {
      "anonymous": false,
      "inputs": [
        {
          "indexed": false,
          "internalType": "uint256",
          "name": "productUID",
          "type": "uint256"
        },
        {
          "indexed": false,
          "internalType": "address[]",
          "name": "dataOwners",
          "type": "address[]"
        },
        {
          "indexed": false,
          "internalType": "uint256[]",
          "name": "shardAmount",
          "type": "uint256[]"
        }
      ],
      "name": "ShardDistributed",
      "type": "event"
    },
    {
      "anonymous": false,
      "inputs": [
        {
          "indexed": false,
          "internalType": "uint256",
          "name": "productUID",
          "type": "uint256"
        },
        {
          "indexed": false,
          "internalType": "address",
          "name": "lab",
          "type": "address"
        },
        {
          "indexed": false,
          "internalType": "uint256",
          "name": "amount",
          "type": "uint256"
        }
      ],
      "name": "ShardDistributedToLab",
      "type": "event"
    },
    {
      "anonymous": false,
      "inputs": [
        {
          "indexed": false,
          "internalType": "uint256",
          "name": "productUID",
          "type": "uint256"
        },
        {
          "indexed": false,
          "internalType": "address",
          "name": "rejuve",
          "type": "address"
        },
        {
          "indexed": false,
          "internalType": "uint256",
          "name": "amount",
          "type": "uint256"
        }
      ],
      "name": "ShardDistributedToRejuve",
      "type": "event"
    },
    {
      "anonymous": false,
      "inputs": [
        {
          "indexed": true,
          "internalType": "address",
          "name": "from",
          "type": "address"
        },
        {
          "indexed": true,
          "internalType": "address",
          "name": "to",
          "type": "address"
        },
        {
          "indexed": false,
          "internalType": "uint256",
          "name": "value",
          "type": "uint256"
        }
      ],
      "name": "Transfer",
      "type": "event"
    },
    {
      "anonymous": false,
      "inputs": [
        {
          "indexed": false,
          "internalType": "address",
          "name": "account",
          "type": "address"
        }
      ],
      "name": "Unpaused",
      "type": "event"
    },
    {
      "inputs": [],
      "name": "DEFAULT_ADMIN_ROLE",
      "outputs": [
        {
          "internalType": "bytes32",
          "name": "",
          "type": "bytes32"
        }
      ],
      "stateMutability": "view",
      "type": "function"
    },
    {
      "inputs": [],
      "name": "MINTER_ROLE",
      "outputs": [
        {
          "internalType": "bytes32",
          "name": "",
          "type": "bytes32"
        }
      ],
      "stateMutability": "view",
      "type": "function"
    },
    {
      "inputs": [],
      "name": "PAUSER_ROLE",
      "outputs": [
        {
          "internalType": "bytes32",
          "name": "",
          "type": "bytes32"
        }
      ],
      "stateMutability": "view",
      "type": "function"
    },
    {
      "inputs": [
        {
          "internalType": "address",
          "name": "owner",
          "type": "address"
        },
        {
          "internalType": "address",
          "name": "spender",
          "type": "address"
        }
      ],
      "name": "allowance",
      "outputs": [
        {
          "internalType": "uint256",
          "name": "",
          "type": "uint256"
        }
      ],
      "stateMutability": "view",
      "type": "function"
    },
    {
      "inputs": [
        {
          "internalType": "address",
          "name": "spender",
          "type": "address"
        },
        {
          "internalType": "uint256",
          "name": "amount",
          "type": "uint256"
        }
      ],
      "name": "approve",
      "outputs": [
        {
          "internalType": "bool",
          "name": "",
          "type": "bool"
        }
      ],
      "stateMutability": "nonpayable",
      "type": "function"
    },
    {
      "inputs": [
        {
          "internalType": "address",
          "name": "account",
          "type": "address"
        }
      ],
      "name": "balanceOf",
      "outputs": [
        {
          "internalType": "uint256",
          "name": "",
          "type": "uint256"
        }
      ],
      "stateMutability": "view",
      "type": "function"
    },
    {
      "inputs": [
        {
          "internalType": "uint256",
          "name": "_productUID",
          "type": "uint256"
        },
        {
          "internalType": "uint256",
          "name": "_futureContributorShare",
          "type": "uint256"
        },
        {
          "internalType": "uint256",
          "name": "_clinicNegotiatedCredit",
          "type": "uint256"
        },
        {
          "internalType": "address",
          "name": "_clinicShardHolder",
          "type": "address"
        }
      ],
      "name": "createFutureShards",
      "outputs": [],
      "stateMutability": "nonpayable",
      "type": "function"
    },
    {
      "inputs": [
        {
          "internalType": "uint256",
          "name": "_productUID",
          "type": "uint256"
        },
        {
          "internalType": "uint256",
          "name": "_initialContributorShare",
          "type": "uint256"
        },
        {
          "internalType": "uint256",
          "name": "_labShare",
          "type": "uint256"
        },
        {
          "internalType": "uint256",
          "name": "_rejuveShare",
          "type": "uint256"
        },
        {
          "internalType": "address",
          "name": "_labShardHolder",
          "type": "address"
        },
        {
          "internalType": "address",
          "name": "_rejuveShardHolder",
          "type": "address"
        }
      ],
      "name": "createInitialShards",
      "outputs": [],
      "stateMutability": "nonpayable",
      "type": "function"
    },
    {
      "inputs": [
        {
          "internalType": "uint256",
          "name": "_productUID",
          "type": "uint256"
        },
        {
          "internalType": "address",
          "name": "_rejuveShardHolder",
          "type": "address"
        }
      ],
      "name": "createRemainingShards",
      "outputs": [],
      "stateMutability": "nonpayable",
      "type": "function"
    },
    {
      "inputs": [],
      "name": "decimals",
      "outputs": [
        {
          "internalType": "uint8",
          "name": "",
          "type": "uint8"
        }
      ],
      "stateMutability": "view",
      "type": "function"
    },
    {
      "inputs": [
        {
          "internalType": "address",
          "name": "spender",
          "type": "address"
        },
        {
          "internalType": "uint256",
          "name": "subtractedValue",
          "type": "uint256"
        }
      ],
      "name": "decreaseAllowance",
      "outputs": [
        {
          "internalType": "bool",
          "name": "",
          "type": "bool"
        }
      ],
      "stateMutability": "nonpayable",
      "type": "function"
    },
    {
      "inputs": [
        {
          "internalType": "bytes32",
          "name": "role",
          "type": "bytes32"
        }
      ],
      "name": "getRoleAdmin",
      "outputs": [
        {
          "internalType": "bytes32",
          "name": "",
          "type": "bytes32"
        }
      ],
      "stateMutability": "view",
      "type": "function"
    },
    {
      "inputs": [],
      "name": "getTargetSupply",
      "outputs": [
        {
          "internalType": "uint256",
          "name": "",
          "type": "uint256"
        }
      ],
      "stateMutability": "view",
      "type": "function"
    },
    {
      "inputs": [
        {
          "internalType": "bytes32",
          "name": "role",
          "type": "bytes32"
        },
        {
          "internalType": "address",
          "name": "account",
          "type": "address"
        }
      ],
      "name": "grantRole",
      "outputs": [],
      "stateMutability": "nonpayable",
      "type": "function"
    },
    {
      "inputs": [
        {
          "internalType": "bytes32",
          "name": "role",
          "type": "bytes32"
        },
        {
          "internalType": "address",
          "name": "account",
          "type": "address"
        }
      ],
      "name": "hasRole",
      "outputs": [
        {
          "internalType": "bool",
          "name": "",
          "type": "bool"
        }
      ],
      "stateMutability": "view",
      "type": "function"
    },
    {
      "inputs": [
        {
          "internalType": "address",
          "name": "spender",
          "type": "address"
        },
        {
          "internalType": "uint256",
          "name": "addedValue",
          "type": "uint256"
        }
      ],
      "name": "increaseAllowance",
      "outputs": [
        {
          "internalType": "bool",
          "name": "",
          "type": "bool"
        }
      ],
      "stateMutability": "nonpayable",
      "type": "function"
    },
    {
      "inputs": [],
      "name": "name",
      "outputs": [
        {
          "internalType": "string",
          "name": "",
          "type": "string"
        }
      ],
      "stateMutability": "view",
      "type": "function"
    },
    {
      "inputs": [
        {
          "internalType": "address",
          "name": "",
          "type": "address"
        },
        {
          "internalType": "address",
          "name": "",
          "type": "address"
        },
        {
          "internalType": "uint256",
          "name": "",
          "type": "uint256"
        },
        {
          "internalType": "bytes",
          "name": "",
          "type": "bytes"
        }
      ],
      "name": "onERC721Received",
      "outputs": [
        {
          "internalType": "bytes4",
          "name": "",
          "type": "bytes4"
        }
      ],
      "stateMutability": "pure",
      "type": "function"
    },
    {
      "inputs": [],
      "name": "parentToken",
      "outputs": [
        {
          "internalType": "address",
          "name": "",
          "type": "address"
        }
      ],
      "stateMutability": "view",
      "type": "function"
    },
    {
      "inputs": [],
      "name": "parentTokenId",
      "outputs": [
        {
          "internalType": "uint256",
          "name": "",
          "type": "uint256"
        }
      ],
      "stateMutability": "view",
      "type": "function"
    },
    {
      "inputs": [],
      "name": "pause",
      "outputs": [],
      "stateMutability": "nonpayable",
      "type": "function"
    },
    {
      "inputs": [],
      "name": "paused",
      "outputs": [
        {
          "internalType": "bool",
          "name": "",
          "type": "bool"
        }
      ],
      "stateMutability": "view",
      "type": "function"
    },
    {
      "inputs": [
        {
          "internalType": "bytes32",
          "name": "role",
          "type": "bytes32"
        },
        {
          "internalType": "address",
          "name": "account",
          "type": "address"
        }
      ],
      "name": "renounceRole",
      "outputs": [],
      "stateMutability": "nonpayable",
      "type": "function"
    },
    {
      "inputs": [
        {
          "internalType": "bytes32",
          "name": "role",
          "type": "bytes32"
        },
        {
          "internalType": "address",
          "name": "account",
          "type": "address"
        }
      ],
      "name": "revokeRole",
      "outputs": [],
      "stateMutability": "nonpayable",
      "type": "function"
    },
    {
      "inputs": [
        {
          "internalType": "bytes4",
          "name": "interfaceId",
          "type": "bytes4"
        }
      ],
      "name": "supportsInterface",
      "outputs": [
        {
          "internalType": "bool",
          "name": "",
          "type": "bool"
        }
      ],
      "stateMutability": "view",
      "type": "function"
    },
    {
      "inputs": [],
      "name": "symbol",
      "outputs": [
        {
          "internalType": "string",
          "name": "",
          "type": "string"
        }
      ],
      "stateMutability": "view",
      "type": "function"
    },
    {
      "inputs": [],
      "name": "totalSupply",
      "outputs": [
        {
          "internalType": "uint256",
          "name": "",
          "type": "uint256"
        }
      ],
      "stateMutability": "view",
      "type": "function"
    },
    {
      "inputs": [
        {
          "internalType": "address",
          "name": "to",
          "type": "address"
        },
        {
          "internalType": "uint256",
          "name": "amount",
          "type": "uint256"
        }
      ],
      "name": "transfer",
      "outputs": [
        {
          "internalType": "bool",
          "name": "",
          "type": "bool"
        }
      ],
      "stateMutability": "nonpayable",
      "type": "function"
    },
    {
      "inputs": [
        {
          "internalType": "address",
          "name": "from",
          "type": "address"
        },
        {
          "internalType": "address",
          "name": "to",
          "type": "address"
        },
        {
          "internalType": "uint256",
          "name": "amount",
          "type": "uint256"
        }
      ],
      "name": "transferFrom",
      "outputs": [
        {
          "internalType": "bool",
          "name": "",
          "type": "bool"
        }
      ],
      "stateMutability": "nonpayable",
      "type": "function"
    },
    {
      "inputs": [],
      "name": "unpause",
      "outputs": [],
      "stateMutability": "nonpayable",
      "type": "function"
    }
  ],
  "bytecode": "0x60806040523480156200001157600080fd5b5060405162002e8238038062002e828339810160408190526200003491620003b6565b6001805460ff191690558787878787878786868284866200005760008462000163565b620000837f9f2df0fed2c77648de5860a4cc508cd0818c85b8b8a1ab4ceeef8d981c8956a63362000163565b620000af7f65d7a28e3265b37a6474929f336521b332c1681b933f6cb9f3376673440d862a8462000163565b600280546001600160a01b0319166001600160a01b0394851617905560018054610100600160a81b031916610100939094169290920292909217905560035581516200010390600790602085019062000226565b5080516200011990600890602084019062000226565b5050600a805460ff191660ff881690811782556200013992509062000590565b620001459085620005a5565b60095550505060119490945550620006049950505050505050505050565b6200016f828262000173565b5050565b6200017f8282620001fb565b6200016f576000828152602081815260408083206001600160a01b03851684529091529020805460ff19166001179055620001b73390565b6001600160a01b0316816001600160a01b0316837f2f8788117e7eff1d82e926ec794901d17c78024a50270940304540a733656f0d60405160405180910390a45050565b6000828152602081815260408083206001600160a01b038516845290915290205460ff165b92915050565b8280546200023490620005c7565b90600052602060002090601f016020900481019282620002585760008555620002a3565b82601f106200027357805160ff1916838001178555620002a3565b82800160010185558215620002a3579182015b82811115620002a357825182559160200191906001019062000286565b50620002b1929150620002b5565b5090565b5b80821115620002b15760008155600101620002b6565b634e487b7160e01b600052604160045260246000fd5b600082601f830112620002f457600080fd5b81516001600160401b0380821115620003115762000311620002cc565b604051601f8301601f19908116603f011681019082821181831017156200033c576200033c620002cc565b816040528381526020925086838588010111156200035957600080fd5b600091505b838210156200037d57858201830151818301840152908201906200035e565b838211156200038f5760008385830101525b9695505050505050565b80516001600160a01b0381168114620003b157600080fd5b919050565b600080600080600080600080610100898b031215620003d457600080fd5b88516001600160401b0380821115620003ec57600080fd5b620003fa8c838d01620002e2565b995060208b01519150808211156200041157600080fd5b50620004208b828c01620002e2565b975050604089015160ff811681146200043857600080fd5b60608a015160808b0151919750955093506200045760a08a0162000399565b92506200046760c08a0162000399565b915060e089015190509295985092959890939650565b634e487b7160e01b600052601160045260246000fd5b600181815b80851115620004d4578160001904821115620004b857620004b86200047d565b80851615620004c657918102915b93841c939080029062000498565b509250929050565b600082620004ed5750600162000220565b81620004fc5750600062000220565b8160018114620005155760028114620005205762000540565b600191505062000220565b60ff8411156200053457620005346200047d565b50506001821b62000220565b5060208310610133831016604e8410600b841016171562000565575081810a62000220565b62000571838362000493565b80600019048211156200058857620005886200047d565b029392505050565b60006200059e8383620004dc565b9392505050565b6000816000190483118215151615620005c257620005c26200047d565b500290565b600181811c90821680620005dc57607f821691505b60208210811415620005fe57634e487b7160e01b600052602260045260246000fd5b50919050565b61286e80620006146000396000f3fe608060405234801561001057600080fd5b50600436106101da5760003560e01c806380a5400111610104578063a9059cbb116100a2578063dc43d84011610071578063dc43d8401461040a578063dd62ed3e1461041d578063dea6aec714610456578063e63ab1e91461045e57600080fd5b8063a9059cbb146103c7578063d5391393146103da578063d547741f146103ef578063d7f083f31461040257600080fd5b806391efa8e5116100de57806391efa8e51461039157806395d89b41146103a4578063a217fddf146103ac578063a457c2d7146103b457600080fd5b806380a540011461034d5780638456cb591461037657806391d148541461037e57600080fd5b8063248a9ca31161017c578063395093511161014b57806339509351146102fe5780633f4ba83a146103115780635c975abb1461031957806370a082311461032457600080fd5b8063248a9ca3146102a05780632f2ff15d146102c3578063313ce567146102d657806336568abe146102eb57600080fd5b8063150b7a02116101b8578063150b7a021461022f57806318160ddd1461026657806322af01211461027857806323b872dd1461028d57600080fd5b806301ffc9a7146101df57806306fdde0314610207578063095ea7b31461021c575b600080fd5b6101f26101ed366004612080565b610485565b60405190151581526020015b60405180910390f35b61020f6104bc565b6040516101fe9190612102565b6101f261022a36600461212d565b61054e565b61024d61023d3660046121c8565b630a85bd0160e11b949350505050565b6040516001600160e01b031990911681526020016101fe565b6006545b6040519081526020016101fe565b61028b610286366004612277565b610566565b005b6101f261029b3660046122a7565b61069c565b61026a6102ae3660046122e8565b60009081526020819052604090206001015490565b61028b6102d1366004612277565b6106c0565b600a5460405160ff90911681526020016101fe565b61028b6102f9366004612277565b6106eb565b6101f261030c36600461212d565b610765565b61028b6107a4565b60015460ff166101f2565b61026a610332366004612301565b6001600160a01b031660009081526004602052604090205490565b60015461010090046001600160a01b03166040516001600160a01b0390911681526020016101fe565b61028b61082e565b6101f261038c366004612277565b6108bb565b61028b61039f36600461231e565b6108e4565b61020f6109bc565b61026a600081565b6101f26103c236600461212d565b6109cb565b6101f26103d536600461212d565b610a5d565b61026a60008051602061281983398151915281565b61028b6103fd366004612277565b610a6b565b60035461026a565b61028b61041836600461237c565b610a91565b61026a61042b3660046123bd565b6001600160a01b03918216600090815260056020908152604080832093909416825291909152205490565b60095461026a565b61026a7f65d7a28e3265b37a6474929f336521b332c1681b933f6cb9f3376673440d862a81565b60006001600160e01b03198216637965db0b60e01b14806104b657506301ffc9a760e01b6001600160e01b03198316145b92915050565b6060600780546104cb906123eb565b80601f01602080910402602001604051908101604052809291908181526020018280546104f7906123eb565b80156105445780601f1061051957610100808354040283529160200191610544565b820191906000526020600020905b81548152906001019060200180831161052757829003601f168201915b5050505050905090565b60003361055c818585610b6c565b5060019392505050565b61057e600080516020612819833981519152336108bb565b6105a35760405162461bcd60e51b815260040161059a90612426565b60405180910390fd5b600d5460ff166105c55760405162461bcd60e51b815260040161059a90612472565b60105460ff1661062c5760405162461bcd60e51b815260206004820152602c60248201527f52454a5556453a2046757475726520636f6e7472696275746f7273206e6f742060448201526b1c995dd85c991959081e595d60a21b606482015260840161059a565b6106368282610c90565b6106985760405162461bcd60e51b815260206004820152602d60248201527f52454a5556453a204e6f2072656d61696e696e6720736861726473206176616960448201526c1b18589b19481d1bc81b5a5b9d609a1b606482015260840161059a565b5050565b6000336106aa858285610d19565b6106b5858585610dab565b506001949350505050565b6000828152602081905260409020600101546106dc8133610f79565b6106e68383610fdd565b505050565b6001600160a01b038116331461075b5760405162461bcd60e51b815260206004820152602f60248201527f416363657373436f6e74726f6c3a2063616e206f6e6c792072656e6f756e636560448201526e103937b632b9903337b91039b2b63360891b606482015260840161059a565b6106988282611061565b3360008181526005602090815260408083206001600160a01b038716845290915281205490919061055c908290869061079f9087906124d5565b610b6c565b6107ce7f65d7a28e3265b37a6474929f336521b332c1681b933f6cb9f3376673440d862a336108bb565b6108245760405162461bcd60e51b815260206004820152602160248201527f52454a5556453a204d757374206861766520726f6c6520746f20756e706175736044820152606560f81b606482015260840161059a565b61082c6110c6565b565b6108587f65d7a28e3265b37a6474929f336521b332c1681b933f6cb9f3376673440d862a336108bb565b6108b35760405162461bcd60e51b815260206004820152602660248201527f52454a5556453a204d75737420686176652070617573657220726f6c6520746f60448201526520706175736560d01b606482015260840161059a565b61082c611159565b6000918252602082815260408084206001600160a01b0393909316845291905290205460ff1690565b60015460ff16156109075760405162461bcd60e51b815260040161059a906124ed565b600d5460ff1680156109565760405162461bcd60e51b81526020600482015260186024820152771491529555914e88105b1c9958591e4814995dd85c99195960421b604482015260640161059a565b61096e600080516020612819833981519152336108bb565b61098a5760405162461bcd60e51b815260040161059a90612426565b610993876111af565b61099d87876112e7565b6109a88786856115db565b6109b3878584611638565b50505050505050565b6060600880546104cb906123eb565b3360008181526005602090815260408083206001600160a01b038716845290915281205490919083811015610a505760405162461bcd60e51b815260206004820152602560248201527f45524332303a2064656372656173656420616c6c6f77616e63652062656c6f77604482015264207a65726f60d81b606482015260840161059a565b6106b58286868403610b6c565b60003361055c818585610dab565b600082815260208190526040902060010154610a878133610f79565b6106e68383611061565b60015460ff1615610ab45760405162461bcd60e51b815260040161059a906124ed565b60105460ff168015610b035760405162461bcd60e51b81526020600482015260186024820152771491529555914e88105b1c9958591e4814995dd85c99195960421b604482015260640161059a565b610b1b600080516020612819833981519152336108bb565b610b375760405162461bcd60e51b815260040161059a90612426565b600d5460ff16610b595760405162461bcd60e51b815260040161059a90612472565b610b6585858585611695565b5050505050565b6001600160a01b038316610bce5760405162461bcd60e51b8152602060048201526024808201527f45524332303a20617070726f76652066726f6d20746865207a65726f206164646044820152637265737360e01b606482015260840161059a565b6001600160a01b038216610c2f5760405162461bcd60e51b815260206004820152602260248201527f45524332303a20617070726f766520746f20746865207a65726f206164647265604482015261737360f01b606482015260840161059a565b6001600160a01b0383811660008181526005602090815260408083209487168084529482529182902085905590518481527f8c5be1e5ebec7d5bd14f71427d1e84f3dd0314c0f7b2291e5b200ac8c7c3b925910160405180910390a3505050565b6000806000610c9e60065490565b6009541115610cc857600654600954610cb79190612517565b9050610cc384826119a9565b600191505b604080518681526001600160a01b03861660208201529081018290527f7fd82f13f0b3200e36b2020e3aa623bb67060347d3d896ddd447e64c2574a8c19060600160405180910390a1509392505050565b6001600160a01b038381166000908152600560209081526040808320938616835292905220546000198114610da55781811015610d985760405162461bcd60e51b815260206004820152601d60248201527f45524332303a20696e73756666696369656e7420616c6c6f77616e6365000000604482015260640161059a565b610da58484848403610b6c565b50505050565b6001600160a01b038316610e0f5760405162461bcd60e51b815260206004820152602560248201527f45524332303a207472616e736665722066726f6d20746865207a65726f206164604482015264647265737360d81b606482015260840161059a565b6001600160a01b038216610e715760405162461bcd60e51b815260206004820152602360248201527f45524332303a207472616e7366657220746f20746865207a65726f206164647260448201526265737360e81b606482015260840161059a565b6001600160a01b03831660009081526004602052604090205481811015610ee95760405162461bcd60e51b815260206004820152602660248201527f45524332303a207472616e7366657220616d6f756e7420657863656564732062604482015265616c616e636560d01b606482015260840161059a565b6001600160a01b03808516600090815260046020526040808220858503905591851681529081208054849290610f209084906124d5565b92505081905550826001600160a01b0316846001600160a01b03167fddf252ad1be2c89b69c2b068fc378daa952ba7f163c4a11628f55a4df523b3ef84604051610f6c91815260200190565b60405180910390a3610da5565b610f8382826108bb565b61069857610f9b816001600160a01b03166014611a0f565b610fa6836020611a0f565b604051602001610fb792919061252e565b60408051601f198184030181529082905262461bcd60e51b825261059a91600401612102565b610fe782826108bb565b610698576000828152602081815260408083206001600160a01b03851684529091529020805460ff1916600117905561101d3390565b6001600160a01b0316816001600160a01b0316837f2f8788117e7eff1d82e926ec794901d17c78024a50270940304540a733656f0d60405160405180910390a45050565b61106b82826108bb565b15610698576000828152602081815260408083206001600160a01b0385168085529252808320805460ff1916905551339285917ff6391f5c32d9c69d2a47ea670b442974b53935d1edc7fd64eb21e047a839171b9190a45050565b60015460ff1661110f5760405162461bcd60e51b815260206004820152601460248201527314185d5cd8589b194e881b9bdd081c185d5cd95960621b604482015260640161059a565b6001805460ff191690557f5db9ee0a495bf2e6ff9c91a7834c1ba4fdd244a5e8aa4e537bd38aeae4b073aa335b6040516001600160a01b03909116815260200160405180910390a1565b60015460ff161561117c5760405162461bcd60e51b815260040161059a906124ed565b6001805460ff1916811790557f62e78cea01bee320cd4e420270b5ea74000d11b0c9f74754ebdbfc544b05a2583361113c565b60015460405163020604bf60e21b815260048101839052309161010090046001600160a01b03169063081812fc9060240160206040518083038186803b1580156111f857600080fd5b505afa15801561120c573d6000803e3d6000fd5b505050506040513d601f19601f8201168201806040525081019061123091906125a3565b6001600160a01b03161461127d5760405162461bcd60e51b81526020600482015260146024820152731491529555914e88139bdd08185c1c1c9bdd995960621b604482015260640161059a565b600154604051632142170760e11b8152336004820152306024820152604481018390526101009091046001600160a01b0316906342842e0e90606401600060405180830381600087803b1580156112d357600080fd5b505af1158015610b65573d6000803e3d6000fd5b60006112f283611bb2565b905060006112ff84611c3c565b905060005b6001546040516384ffeca560e01b8152600481018790526101009091046001600160a01b0316906384ffeca59060240160206040518083038186803b15801561134c57600080fd5b505afa158015611360573d6000803e3d6000fd5b505050506040513d601f19601f8201168201806040525081019061138491906125c0565b81101561158957600060018054906101000a90046001600160a01b03166001600160a01b03166359a96ffe8584815181106113c1576113c16125d9565b60200260200101516040518263ffffffff1660e01b81526004016113e59190612102565b60206040518083038186803b1580156113fd57600080fd5b505afa158015611411573d6000803e3d6000fd5b505050506040513d601f19601f8201168201806040525081019061143591906125a3565b905060006114ed60018054906101000a90046001600160a01b03166001600160a01b0316630e47cefa878681518110611470576114706125d9565b60200260200101518a6040518363ffffffff1660e01b81526004016114969291906125ef565b60206040518083038186803b1580156114ae57600080fd5b505afa1580156114c2573d6000803e3d6000fd5b505050506040513d601f19601f820116820180604052508101906114e691906125c0565b8588611d2d565b90506114f982826119a9565b600b805460018082019092557f0175b7a638427703f0dbe7bb9bbf987a2551717b34e79f33b5b1008d1fa01db90180546001600160a01b0319166001600160a01b039490941693909317909255600c805492830181556000527fdf6966c971051c3d54ec59162606531493a51404a002842f56009d7e5cf4a8c7909101558061158181612611565b915050611304565b50600d805460ff191660011790556040517f9c4f7932f4bf853ffa52a0f4a3147c9aae977e2252611d00187ff5bb741e1e54906115cd908690600b90600c9061262c565b60405180910390a150505050565b60006115e683611d78565b90506115f282826119a9565b604080518581526001600160a01b03841660208201529081018290527f063dca65d0ff46975ac82ef75fe476c85a89efa3972e0cd03614722f3dc40565906060016115cd565b600061164383611d78565b905061164f82826119a9565b604080518581526001600160a01b03841660208201529081018290527fb6a08d66523455633a6b93c0b9ef22953d369ddfe084ba104c4f8ed5b35fffc4906060016115cd565b60006116a085611bb2565b905060006116ad86611d95565b90506116b984826124d5565b6001546040516384ffeca560e01b8152600481018990529192506000916101009091046001600160a01b0316906384ffeca59060240160206040518083038186803b15801561170757600080fd5b505afa15801561171b573d6000803e3d6000fd5b505050506040513d601f19601f8201168201806040525081019061173f91906125c0565b90505b825181101561194957600060018054906101000a90046001600160a01b03166001600160a01b03166359a96ffe858481518110611781576117816125d9565b60200260200101516040518263ffffffff1660e01b81526004016117a59190612102565b60206040518083038186803b1580156117bd57600080fd5b505afa1580156117d1573d6000803e3d6000fd5b505050506040513d601f19601f820116820180604052508101906117f591906125a3565b905060006118ad60018054906101000a90046001600160a01b03166001600160a01b0316630e47cefa878681518110611830576118306125d9565b60200260200101518c6040518363ffffffff1660e01b81526004016118569291906125ef565b60206040518083038186803b15801561186e57600080fd5b505afa158015611882573d6000803e3d6000fd5b505050506040513d601f19601f820116820180604052508101906118a691906125c0565b858a611d2d565b90506118b982826119a9565b600e805460018082019092557fbb7b4a454dc3493923482f07822329ed19e8244eff582cc204f8554c3620c3fd0180546001600160a01b0319166001600160a01b039490941693909317909255600f805492830181556000527f8d1108e10bcb7c27dddfc02ed9d693a074039d026cf4ea4240b40f7d581ac802909101558061194181612611565b915050611742565b5061195683858388611f02565b6010805460ff191660011790556040517f9c4f7932f4bf853ffa52a0f4a3147c9aae977e2252611d00187ff5bb741e1e5490611999908890600e90600f9061262c565b60405180910390a1505050505050565b600954816119b660065490565b6119c091906124d5565b1115611a055760405162461bcd60e51b81526020600482015260146024820152731491529555914e8810d85c08195e18d95959195960621b604482015260640161059a565b6106988282611fa1565b60606000611a1e8360026126c1565b611a299060026124d5565b67ffffffffffffffff811115611a4157611a41612159565b6040519080825280601f01601f191660200182016040528015611a6b576020820181803683370190505b509050600360fc1b81600081518110611a8657611a866125d9565b60200101906001600160f81b031916908160001a905350600f60fb1b81600181518110611ab557611ab56125d9565b60200101906001600160f81b031916908160001a9053506000611ad98460026126c1565b611ae49060016124d5565b90505b6001811115611b5c576f181899199a1a9b1b9c1cb0b131b232b360811b85600f1660108110611b1857611b186125d9565b1a60f81b828281518110611b2e57611b2e6125d9565b60200101906001600160f81b031916908160001a90535060049490941c93611b55816126e0565b9050611ae7565b508315611bab5760405162461bcd60e51b815260206004820181905260248201527f537472696e67733a20686578206c656e67746820696e73756666696369656e74604482015260640161059a565b9392505050565b60015460405163c9187fe760e01b8152600481018390526060916000916101009091046001600160a01b03169063c9187fe79060240160006040518083038186803b158015611c0057600080fd5b505afa158015611c14573d6000803e3d6000fd5b505050506040513d6000823e601f3d908101601f19168201604052611bab91908101906126f7565b600080611c4883611bb2565b90506000805b8251811015611d2557600060018054906101000a90046001600160a01b03166001600160a01b0316630e47cefa858481518110611c8d57611c8d6125d9565b6020026020010151886040518363ffffffff1660e01b8152600401611cb39291906125ef565b60206040518083038186803b158015611ccb57600080fd5b505afa158015611cdf573d6000803e3d6000fd5b505050506040513d601f19601f82011682018060405250810190611d0391906125c0565b9050611d0f81846124d5565b9250508080611d1d90612611565b915050611c4e565b509392505050565b60008083611d3c8660646126c1565b611d4691906127f6565b90506000611d5384611d78565b905060006064611d6384846126c1565b611d6d91906127f6565b979650505050505050565b600080606483600954611d8b91906126c1565b611bab91906127f6565b600080611da183611bb2565b6001546040516384ffeca560e01b815260048101869052919250600091829161010090046001600160a01b0316906384ffeca59060240160206040518083038186803b158015611df057600080fd5b505afa158015611e04573d6000803e3d6000fd5b505050506040513d601f19601f82011682018060405250810190611e2891906125c0565b90505b8251811015611d2557600060018054906101000a90046001600160a01b03166001600160a01b0316630e47cefa858481518110611e6a57611e6a6125d9565b6020026020010151886040518363ffffffff1660e01b8152600401611e909291906125ef565b60206040518083038186803b158015611ea857600080fd5b505afa158015611ebc573d6000803e3d6000fd5b505050506040513d601f19601f82011682018060405250810190611ee091906125c0565b9050611eec81846124d5565b9250508080611efa90612611565b915050611e2b565b6000611f0f848484611d2d565b9050611f1b85826119a9565b600e805460018082019092557fbb7b4a454dc3493923482f07822329ed19e8244eff582cc204f8554c3620c3fd0180546001600160a01b0319166001600160a01b039790971696909617909555600f805495860181556000527f8d1108e10bcb7c27dddfc02ed9d693a074039d026cf4ea4240b40f7d581ac80290940193909355505050565b6001600160a01b038216611ff75760405162461bcd60e51b815260206004820152601f60248201527f45524332303a206d696e7420746f20746865207a65726f206164647265737300604482015260640161059a565b806006600082825461200991906124d5565b90915550506001600160a01b038216600090815260046020526040812080548392906120369084906124d5565b90915550506040518181526001600160a01b038316906000907fddf252ad1be2c89b69c2b068fc378daa952ba7f163c4a11628f55a4df523b3ef9060200160405180910390a35050565b60006020828403121561209257600080fd5b81356001600160e01b031981168114611bab57600080fd5b60005b838110156120c55781810151838201526020016120ad565b83811115610da55750506000910152565b600081518084526120ee8160208601602086016120aa565b601f01601f19169290920160200192915050565b602081526000611bab60208301846120d6565b6001600160a01b038116811461212a57600080fd5b50565b6000806040838503121561214057600080fd5b823561214b81612115565b946020939093013593505050565b634e487b7160e01b600052604160045260246000fd5b604051601f8201601f1916810167ffffffffffffffff8111828210171561219857612198612159565b604052919050565b600067ffffffffffffffff8211156121ba576121ba612159565b50601f01601f191660200190565b600080600080608085870312156121de57600080fd5b84356121e981612115565b935060208501356121f981612115565b925060408501359150606085013567ffffffffffffffff81111561221c57600080fd5b8501601f8101871361222d57600080fd5b803561224061223b826121a0565b61216f565b81815288602083850101111561225557600080fd5b8160208401602083013760006020838301015280935050505092959194509250565b6000806040838503121561228a57600080fd5b82359150602083013561229c81612115565b809150509250929050565b6000806000606084860312156122bc57600080fd5b83356122c781612115565b925060208401356122d781612115565b929592945050506040919091013590565b6000602082840312156122fa57600080fd5b5035919050565b60006020828403121561231357600080fd5b8135611bab81612115565b60008060008060008060c0878903121561233757600080fd5b86359550602087013594506040870135935060608701359250608087013561235e81612115565b915060a087013561236e81612115565b809150509295509295509295565b6000806000806080858703121561239257600080fd5b84359350602085013592506040850135915060608501356123b281612115565b939692955090935050565b600080604083850312156123d057600080fd5b82356123db81612115565b9150602083013561229c81612115565b600181811c908216806123ff57607f821691505b6020821081141561242057634e487b7160e01b600052602260045260246000fd5b50919050565b6020808252602c908201527f52454a5556453a204d7573742068617665206d696e74657220726f6c6520746f60408201526b206d696e742073686172647360a01b606082015260800190565b6020808252602d908201527f52454a5556453a20496e697469616c20636f6e7472696275746f7273206e6f7460408201526c081c995dd85c991959081e595d609a1b606082015260800190565b634e487b7160e01b600052601160045260246000fd5b600082198211156124e8576124e86124bf565b500190565b60208082526010908201526f14185d5cd8589b194e881c185d5cd95960821b604082015260600190565b600082821015612529576125296124bf565b500390565b7f416363657373436f6e74726f6c3a206163636f756e74200000000000000000008152600083516125668160178501602088016120aa565b7001034b99036b4b9b9b4b733903937b6329607d1b60179184019182015283516125978160288401602088016120aa565b01602801949350505050565b6000602082840312156125b557600080fd5b8151611bab81612115565b6000602082840312156125d257600080fd5b5051919050565b634e487b7160e01b600052603260045260246000fd5b60408152600061260260408301856120d6565b90508260208301529392505050565b6000600019821415612625576126256124bf565b5060010190565b600060608201858352602060608185015281865480845260808601915060009350878452828420845b8281101561267a5781546001600160a01b031684529284019260019182019101612655565b50505084810360408601528554808252868452828420918301905b808510156126b457825482526001948501949092019190830190612695565b5098975050505050505050565b60008160001904831182151516156126db576126db6124bf565b500290565b6000816126ef576126ef6124bf565b506000190190565b6000602080838503121561270a57600080fd5b825167ffffffffffffffff8082111561272257600080fd5b818501915085601f83011261273657600080fd5b81518181111561274857612748612159565b8060051b61275785820161216f565b918252838101850191858101908984111561277157600080fd5b86860192505b838310156127e95782518581111561278f5760008081fd5b8601603f81018b136127a15760008081fd5b8781015160406127b361223b836121a0565b8281528d828486010111156127c85760008081fd5b6127d7838c83018487016120aa565b85525050509186019190860190612777565b9998505050505050505050565b60008261281357634e487b7160e01b600052601260045260246000fd5b50049056fe9f2df0fed2c77648de5860a4cc508cd0818c85b8b8a1ab4ceeef8d981c8956a6a264697066735822122004421c255999df9aa9c0b5702acc04540602fc2afd4975649ea81ac430108e9564736f6c63430008090033",
  "linkReferences": {},
  "deployedLinkReferences": {}
}