{
  "_format": "hh-sol-artifact-1",
  "contractName": "DistributorAgreement",
  "sourceName": "contracts/DistributorAgreement.sol",
  "abi": [
    {
      "anonymous": false,
      "inputs": [
        {
          "indexed": false,
          "internalType": "address",
          "name": "distributor",
          "type": "address"
        },
        {
          "indexed": false,
          "internalType": "bytes",
          "name": "agreement",
          "type": "bytes"
        },
        {
          "indexed": false,
          "internalType": "uint256",
          "name": "productUID",
          "type": "uint256"
        },
        {
          "indexed": false,
          "internalType": "uint256",
          "name": "units",
          "type": "uint256"
        },
        {
          "indexed": false,
          "internalType": "uint256",
          "name": "unitPrice",
          "type": "uint256"
        },
        {
          "indexed": false,
          "internalType": "uint256",
          "name": "percentage",
          "type": "uint256"
        }
      ],
      "name": "DistributorCreated",
      "type": "event"
    },
    {
      "anonymous": false,
      "inputs": [
        {
          "indexed": true,
          "internalType": "address",
          "name": "previousOwner",
          "type": "address"
        },
        {
          "indexed": true,
          "internalType": "address",
          "name": "newOwner",
          "type": "address"
        }
      ],
      "name": "OwnershipTransferred",
      "type": "event"
    },
    {
      "anonymous": false,
      "inputs": [
        {
          "indexed": false,
          "internalType": "address",
          "name": "account",
          "type": "address"
        }
      ],
      "name": "Paused",
      "type": "event"
    },
    {
      "anonymous": false,
      "inputs": [
        {
          "indexed": false,
          "internalType": "address",
          "name": "account",
          "type": "address"
        }
      ],
      "name": "Unpaused",
      "type": "event"
    },
    {
      "inputs": [
        {
          "internalType": "address",
          "name": "distributor",
          "type": "address"
        },
        {
          "internalType": "bytes",
          "name": "sign",
          "type": "bytes"
        },
        {
          "internalType": "bytes",
          "name": "agreement",
          "type": "bytes"
        },
        {
          "internalType": "uint256",
          "name": "productUID",
          "type": "uint256"
        },
        {
          "internalType": "uint256",
          "name": "totalUnits",
          "type": "uint256"
        },
        {
          "internalType": "uint256",
          "name": "unitPrice",
          "type": "uint256"
        },
        {
          "internalType": "uint256",
          "name": "percentage",
          "type": "uint256"
        },
        {
          "internalType": "uint256",
          "name": "nonce",
          "type": "uint256"
        }
      ],
      "name": "createAgreement",
      "outputs": [],
      "stateMutability": "nonpayable",
      "type": "function"
    },
    {
      "inputs": [
        {
          "internalType": "address",
          "name": "distributor",
          "type": "address"
        }
      ],
      "name": "getDistributorData",
      "outputs": [
        {
          "components": [
            {
              "internalType": "bytes",
              "name": "agreement",
              "type": "bytes"
            },
            {
              "internalType": "uint256",
              "name": "productUID",
              "type": "uint256"
            },
            {
              "internalType": "uint256",
              "name": "units",
              "type": "uint256"
            },
            {
              "internalType": "uint256",
              "name": "unitPrice",
              "type": "uint256"
            },
            {
              "internalType": "uint256",
              "name": "percentage",
              "type": "uint256"
            }
          ],
          "internalType": "struct DistributorAgreement.Distributor",
          "name": "",
          "type": "tuple"
        }
      ],
      "stateMutability": "view",
      "type": "function"
    },
    {
      "inputs": [],
      "name": "owner",
      "outputs": [
        {
          "internalType": "address",
          "name": "",
          "type": "address"
        }
      ],
      "stateMutability": "view",
      "type": "function"
    },
    {
      "inputs": [],
      "name": "pause",
      "outputs": [],
      "stateMutability": "nonpayable",
      "type": "function"
    },
    {
      "inputs": [],
      "name": "paused",
      "outputs": [
        {
          "internalType": "bool",
          "name": "",
          "type": "bool"
        }
      ],
      "stateMutability": "view",
      "type": "function"
    },
    {
      "inputs": [],
      "name": "renounceOwnership",
      "outputs": [],
      "stateMutability": "nonpayable",
      "type": "function"
    },
    {
      "inputs": [
        {
          "internalType": "address",
          "name": "newOwner",
          "type": "address"
        }
      ],
      "name": "transferOwnership",
      "outputs": [],
      "stateMutability": "nonpayable",
      "type": "function"
    },
    {
      "inputs": [],
      "name": "unpause",
      "outputs": [],
      "stateMutability": "nonpayable",
      "type": "function"
    }
  ],
  "bytecode": "0x608060405234801561001057600080fd5b5061002d61002261004c60201b60201c565b61005460201b60201c565b60008060146101000a81548160ff021916908315150217905550610118565b600033905090565b60008060009054906101000a900473ffffffffffffffffffffffffffffffffffffffff169050816000806101000a81548173ffffffffffffffffffffffffffffffffffffffff021916908373ffffffffffffffffffffffffffffffffffffffff1602179055508173ffffffffffffffffffffffffffffffffffffffff168173ffffffffffffffffffffffffffffffffffffffff167f8be0079c531659141344cd1fd0a4f28419497f9722a3daafe3b4186f6b6457e060405160405180910390a35050565b61229980620001286000396000f3fe608060405234801561001057600080fd5b50600436106100885760003560e01c8063733987b51161005b578063733987b5146100ef5780638456cb591461010b5780638da5cb5b14610115578063f2fde38b1461013357610088565b8063161d5c1b1461008d5780633f4ba83a146100bd5780635c975abb146100c7578063715018a6146100e5575b600080fd5b6100a760048036038101906100a2919061124c565b61014f565b6040516100b49190611398565b60405180910390f35b6100c561029e565b005b6100cf610314565b6040516100dc91906113d5565b60405180910390f35b6100ed61032a565b005b61010960048036038101906101049190611551565b61033e565b005b6101136106d5565b005b61011d61074b565b60405161012a919061164e565b60405180910390f35b61014d6004803603810190610148919061124c565b610774565b005b6101576111ab565b61016b67fbdb4ac52262afe660c01b6107f7565b61017f676fb2b10b5a0099fe60c01b6107f7565b61019367989b935452e19f2c60c01b6107f7565b600160008373ffffffffffffffffffffffffffffffffffffffff1673ffffffffffffffffffffffffffffffffffffffff1681526020019081526020016000206040518060a00160405290816000820180546101ed90611698565b80601f016020809104026020016040519081016040528092919081815260200182805461021990611698565b80156102665780601f1061023b57610100808354040283529160200191610266565b820191906000526020600020905b81548152906001019060200180831161024957829003601f168201915b505050505081526020016001820154815260200160028201548152602001600382015481526020016004820154815250509050919050565b6102b267fbb7c6bc1fd4179560c01b6107f7565b6102ba6107fa565b6102ce67d73baa3b7f958c3c60c01b6107f7565b6102e26752208e5b2d36e2dc60c01b6107f7565b6102f667ffe77af3342bc5a160c01b6107f7565b61030a6764c1ec0e1465078b60c01b6107f7565b610312610878565b565b60008060149054906101000a900460ff16905090565b6103326107fa565b61033c60006108da565b565b61035267ff2d3c157b5d7f9160c01b6107f7565b61035a61099e565b61036e670f921473e71cab1f60c01b6107f7565b610382676dad075f8f386d0f60c01b6107f7565b61039667a5b1552521a0730460c01b6107f7565b6103aa6749d838993af649ba60c01b6107f7565b6103be67c7da39ae435efee960c01b6107f7565b600073ffffffffffffffffffffffffffffffffffffffff168873ffffffffffffffffffffffffffffffffffffffff160361042d576040517f08c379a000000000000000000000000000000000000000000000000000000000815260040161042490611726565b60405180910390fd5b61044167fefef16c73b844f160c01b6107f7565b61045567692653f9ec1927b260c01b6107f7565b610469673a0a84f3d27295a860c01b6107f7565b61047d67611a053837fcd7bf60c01b6107f7565b600084116104c0576040517f08c379a00000000000000000000000000000000000000000000000000000000081526004016104b7906117b8565b60405180910390fd5b6104d467099e953e9102ff1560c01b6107f7565b6104e867d55cf31a0e57cec560c01b6107f7565b6104fc676f6d7501149686ad60c01b6107f7565b61051067ba07770dc95ab7cf60c01b6107f7565b60008311610553576040517f08c379a000000000000000000000000000000000000000000000000000000000815260040161054a90611824565b60405180910390fd5b6105676752aac0deb684019460c01b6107f7565b61057b67148039f88b7bcf6260c01b6107f7565b61058f67cc6edf4ad0cc345b60c01b6107f7565b6105a367c6e52e1ac538191960c01b6107f7565b600082116105e6576040517f08c379a00000000000000000000000000000000000000000000000000000000081526004016105dd906118b6565b60405180910390fd5b6105fa6738ba2d1e2511fb4960c01b6107f7565b61060e67125ae4857e84044460c01b6107f7565b61062267589a45e2641db34660c01b6107f7565b61063667fe8096129b8a993960c01b6107f7565b610642888888846109e8565b610681576040517f08c379a000000000000000000000000000000000000000000000000000000000815260040161067890611922565b60405180910390fd5b610695676a63726db881424460c01b6107f7565b6106a9677e093309b1e3ed1b60c01b6107f7565b6106bd674e4786e1c1f1806060c01b6107f7565b6106cb888787878787610c7c565b5050505050505050565b6106e96795d296131dd9ecb860c01b6107f7565b6106f16107fa565b61070567b1ac033c2b27cc9760c01b6107f7565b610719673b45f45f55db35c960c01b6107f7565b61072d67c152a3652fb64d9560c01b6107f7565b6107416775bcd4669f499d1860c01b6107f7565b610749610e07565b565b60008060009054906101000a900473ffffffffffffffffffffffffffffffffffffffff16905090565b61077c6107fa565b600073ffffffffffffffffffffffffffffffffffffffff168173ffffffffffffffffffffffffffffffffffffffff16036107eb576040517f08c379a00000000000000000000000000000000000000000000000000000000081526004016107e2906119b4565b60405180910390fd5b6107f4816108da565b50565b50565b610802610e6a565b73ffffffffffffffffffffffffffffffffffffffff1661082061074b565b73ffffffffffffffffffffffffffffffffffffffff1614610876576040517f08c379a000000000000000000000000000000000000000000000000000000000815260040161086d90611a20565b60405180910390fd5b565b610880610e72565b60008060146101000a81548160ff0219169083151502179055507f5db9ee0a495bf2e6ff9c91a7834c1ba4fdd244a5e8aa4e537bd38aeae4b073aa6108c3610e6a565b6040516108d0919061164e565b60405180910390a1565b60008060009054906101000a900473ffffffffffffffffffffffffffffffffffffffff169050816000806101000a81548173ffffffffffffffffffffffffffffffffffffffff021916908373ffffffffffffffffffffffffffffffffffffffff1602179055508173ffffffffffffffffffffffffffffffffffffffff168173ffffffffffffffffffffffffffffffffffffffff167f8be0079c531659141344cd1fd0a4f28419497f9722a3daafe3b4186f6b6457e060405160405180910390a35050565b6109a6610314565b156109e6576040517f08c379a00000000000000000000000000000000000000000000000000000000081526004016109dd90611a8c565b60405180910390fd5b565b60006109fe67e98c2956e0dc497060c01b6107f7565b610a1267f09ecf6d83bcb73660c01b6107f7565b610a2667d381a6f4c629f7ef60c01b6107f7565b610a3a6707b8bfc23c22d67860c01b6107f7565b6002600083815260200190815260200160002060009054906101000a900460ff1615610a9b576040517f08c379a0000000000000000000000000000000000000000000000000000000008152600401610a9290611af8565b60405180910390fd5b610aaf67108a7bd91097c2e960c01b6107f7565b610ac367197dfb5f1317d0e460c01b6107f7565b60016002600084815260200190815260200160002060006101000a81548160ff021916908315150217905550610b036775b03934164be00e60c01b6107f7565b610b176704460041a6638e0760c01b6107f7565b600085848430604051602001610b309493929190611bbd565b604051602081830303815290604052805190602001209050610b5c67808b13692d3bf1d860c01b6107f7565b610b7067dd1a497f236e40b860c01b6107f7565b6000610b8d86610b7f84610ebb565b610eeb90919063ffffffff16565b9050610ba367951eea35882df7cf60c01b6107f7565b610bb767796548339f254f7e60c01b6107f7565b8673ffffffffffffffffffffffffffffffffffffffff168173ffffffffffffffffffffffffffffffffffffffff1603610c3157610bfe67274b2ea83b81886660c01b6107f7565b610c126790d95c6fed56224f60c01b6107f7565b610c2667642fe389aac194dc60c01b6107f7565b600192505050610c74565b610c4567f673646ae83572d260c01b6107f7565b610c59678359dd9a5602b3d060c01b6107f7565b610c6d67fb707421f7e586cd60c01b6107f7565b6000925050505b949350505050565b610c90676fb7d33ebaaa598360c01b6107f7565b610ca46799d86ea864fdfd2a60c01b6107f7565b610cb867bfddab3a132fed3e60c01b6107f7565b6000600160008873ffffffffffffffffffffffffffffffffffffffff1673ffffffffffffffffffffffffffffffffffffffff1681526020019081526020016000209050610d0f67e77c0e9b3c01d6b560c01b6107f7565b85816000019081610d209190611db3565b50610d3567f6d766c68ae9b3e260c01b6107f7565b848160010181905550610d52679ebc1a2f6b6d3d3c60c01b6107f7565b838160020181905550610d6f67c3c56bafa97098ff60c01b6107f7565b828160030181905550610d8c670bd5e9ef1c802abf60c01b6107f7565b818160040181905550610da967cc60e2878fc7eb1d60c01b6107f7565b610dbd674873c13d0c9c670060c01b6107f7565b7f3080cdf9122eaaa59ed052b8be4f19d8f6c1d6384b5d52a323bfb614f3306fd5878787878787604051610df696959493929190611ede565b60405180910390a150505050505050565b610e0f61099e565b6001600060146101000a81548160ff0219169083151502179055507f62e78cea01bee320cd4e420270b5ea74000d11b0c9f74754ebdbfc544b05a258610e53610e6a565b604051610e60919061164e565b60405180910390a1565b600033905090565b610e7a610314565b610eb9576040517f08c379a0000000000000000000000000000000000000000000000000000000008152600401610eb090611f92565b60405180910390fd5b565b600081604051602001610ece9190612034565b604051602081830303815290604052805190602001209050919050565b6000806000610efa8585610f12565b91509150610f0781610f63565b819250505092915050565b6000806041835103610f535760008060006020860151925060408601519150606086015160001a9050610f47878285856110c9565b94509450505050610f5c565b60006002915091505b9250929050565b60006004811115610f7757610f7661205a565b5b816004811115610f8a57610f8961205a565b5b03156110c65760016004811115610fa457610fa361205a565b5b816004811115610fb757610fb661205a565b5b03610ff7576040517f08c379a0000000000000000000000000000000000000000000000000000000008152600401610fee906120d5565b60405180910390fd5b6002600481111561100b5761100a61205a565b5b81600481111561101e5761101d61205a565b5b0361105e576040517f08c379a000000000000000000000000000000000000000000000000000000000815260040161105590612141565b60405180910390fd5b600360048111156110725761107161205a565b5b8160048111156110855761108461205a565b5b036110c5576040517f08c379a00000000000000000000000000000000000000000000000000000000081526004016110bc906121d3565b60405180910390fd5b5b50565b6000807f7fffffffffffffffffffffffffffffff5d576e7357a4501ddfe92f46681b20a08360001c11156111045760006003915091506111a2565b600060018787878760405160008152602001604052604051611129949392919061221e565b6020604051602081039080840390855afa15801561114b573d6000803e3d6000fd5b505050602060405103519050600073ffffffffffffffffffffffffffffffffffffffff168173ffffffffffffffffffffffffffffffffffffffff1603611199576000600192509250506111a2565b80600092509250505b94509492505050565b6040518060a0016040528060608152602001600081526020016000815260200160008152602001600081525090565b6000604051905090565b600080fd5b600080fd5b600073ffffffffffffffffffffffffffffffffffffffff82169050919050565b6000611219826111ee565b9050919050565b6112298161120e565b811461123457600080fd5b50565b60008135905061124681611220565b92915050565b600060208284031215611262576112616111e4565b5b600061127084828501611237565b91505092915050565b600081519050919050565b600082825260208201905092915050565b60005b838110156112b3578082015181840152602081019050611298565b60008484015250505050565b6000601f19601f8301169050919050565b60006112db82611279565b6112e58185611284565b93506112f5818560208601611295565b6112fe816112bf565b840191505092915050565b6000819050919050565b61131c81611309565b82525050565b600060a083016000830151848203600086015261133f82826112d0565b91505060208301516113546020860182611313565b5060408301516113676040860182611313565b50606083015161137a6060860182611313565b50608083015161138d6080860182611313565b508091505092915050565b600060208201905081810360008301526113b28184611322565b905092915050565b60008115159050919050565b6113cf816113ba565b82525050565b60006020820190506113ea60008301846113c6565b92915050565b600080fd5b600080fd5b7f4e487b7100000000000000000000000000000000000000000000000000000000600052604160045260246000fd5b611432826112bf565b810181811067ffffffffffffffff82111715611451576114506113fa565b5b80604052505050565b60006114646111da565b90506114708282611429565b919050565b600067ffffffffffffffff8211156114905761148f6113fa565b5b611499826112bf565b9050602081019050919050565b82818337600083830152505050565b60006114c86114c384611475565b61145a565b9050828152602081018484840111156114e4576114e36113f5565b5b6114ef8482856114a6565b509392505050565b600082601f83011261150c5761150b6113f0565b5b813561151c8482602086016114b5565b91505092915050565b61152e81611309565b811461153957600080fd5b50565b60008135905061154b81611525565b92915050565b600080600080600080600080610100898b031215611572576115716111e4565b5b60006115808b828c01611237565b985050602089013567ffffffffffffffff8111156115a1576115a06111e9565b5b6115ad8b828c016114f7565b975050604089013567ffffffffffffffff8111156115ce576115cd6111e9565b5b6115da8b828c016114f7565b96505060606115eb8b828c0161153c565b95505060806115fc8b828c0161153c565b94505060a061160d8b828c0161153c565b93505060c061161e8b828c0161153c565b92505060e061162f8b828c0161153c565b9150509295985092959890939650565b6116488161120e565b82525050565b6000602082019050611663600083018461163f565b92915050565b7f4e487b7100000000000000000000000000000000000000000000000000000000600052602260045260246000fd5b600060028204905060018216806116b057607f821691505b6020821081036116c3576116c2611669565b5b50919050565b600082825260208201905092915050565b7f52454a5556453a205a65726f2061646472657373000000000000000000000000600082015250565b60006117106014836116c9565b915061171b826116da565b602082019050919050565b6000602082019050818103600083015261173f81611703565b9050919050565b7f52454a5556453a20546f74616c20756e6974732063616e6e6f74206265207a6560008201527f726f000000000000000000000000000000000000000000000000000000000000602082015250565b60006117a26022836116c9565b91506117ad82611746565b604082019050919050565b600060208201905081810360008301526117d181611795565b9050919050565b7f52454a5556453a2050726963652063616e6e6f74206265207a65726f00000000600082015250565b600061180e601c836116c9565b9150611819826117d8565b602082019050919050565b6000602082019050818103600083015261183d81611801565b9050919050565b7f52454a5556453a2050657263656e746167652063616e6e6f74206265207a657260008201527f6f00000000000000000000000000000000000000000000000000000000000000602082015250565b60006118a06021836116c9565b91506118ab82611844565b604082019050919050565b600060208201905081810360008301526118cf81611893565b9050919050565b7f52454a5556453a20496e76616c6964207369676e617475726500000000000000600082015250565b600061190c6019836116c9565b9150611917826118d6565b602082019050919050565b6000602082019050818103600083015261193b816118ff565b9050919050565b7f4f776e61626c653a206e6577206f776e657220697320746865207a65726f206160008201527f6464726573730000000000000000000000000000000000000000000000000000602082015250565b600061199e6026836116c9565b91506119a982611942565b604082019050919050565b600060208201905081810360008301526119cd81611991565b9050919050565b7f4f776e61626c653a2063616c6c6572206973206e6f7420746865206f776e6572600082015250565b6000611a0a6020836116c9565b9150611a15826119d4565b602082019050919050565b60006020820190508181036000830152611a39816119fd565b9050919050565b7f5061757361626c653a2070617573656400000000000000000000000000000000600082015250565b6000611a766010836116c9565b9150611a8182611a40565b602082019050919050565b60006020820190508181036000830152611aa581611a69565b9050919050565b7f52454a5556453a204e6f6e6365207573656420616c7265616479000000000000600082015250565b6000611ae2601a836116c9565b9150611aed82611aac565b602082019050919050565b60006020820190508181036000830152611b1181611ad5565b9050919050565b60008160601b9050919050565b6000611b3082611b18565b9050919050565b6000611b4282611b25565b9050919050565b611b5a611b558261120e565b611b37565b82525050565b600081905092915050565b6000611b7682611279565b611b808185611b60565b9350611b90818560208601611295565b80840191505092915050565b6000819050919050565b611bb7611bb282611309565b611b9c565b82525050565b6000611bc98287611b49565b601482019150611bd98286611b6b565b9150611be58285611ba6565b602082019150611bf58284611b49565b60148201915081905095945050505050565b60008190508160005260206000209050919050565b60006020601f8301049050919050565b600082821b905092915050565b600060088302611c697fffffffffffffffffffffffffffffffffffffffffffffffffffffffffffffffff82611c2c565b611c738683611c2c565b95508019841693508086168417925050509392505050565b6000819050919050565b6000611cb0611cab611ca684611309565b611c8b565b611309565b9050919050565b6000819050919050565b611cca83611c95565b611cde611cd682611cb7565b848454611c39565b825550505050565b600090565b611cf3611ce6565b611cfe818484611cc1565b505050565b5b81811015611d2257611d17600082611ceb565b600181019050611d04565b5050565b601f821115611d6757611d3881611c07565b611d4184611c1c565b81016020851015611d50578190505b611d64611d5c85611c1c565b830182611d03565b50505b505050565b600082821c905092915050565b6000611d8a60001984600802611d6c565b1980831691505092915050565b6000611da38383611d79565b9150826002028217905092915050565b611dbc82611279565b67ffffffffffffffff811115611dd557611dd46113fa565b5b611ddf8254611698565b611dea828285611d26565b600060209050601f831160018114611e1d5760008415611e0b578287015190505b611e158582611d97565b865550611e7d565b601f198416611e2b86611c07565b60005b82811015611e5357848901518255600182019150602085019450602081019050611e2e565b86831015611e705784890151611e6c601f891682611d79565b8355505b6001600288020188555050505b505050505050565b600082825260208201905092915050565b6000611ea182611279565b611eab8185611e85565b9350611ebb818560208601611295565b611ec4816112bf565b840191505092915050565b611ed881611309565b82525050565b600060c082019050611ef3600083018961163f565b8181036020830152611f058188611e96565b9050611f146040830187611ecf565b611f216060830186611ecf565b611f2e6080830185611ecf565b611f3b60a0830184611ecf565b979650505050505050565b7f5061757361626c653a206e6f7420706175736564000000000000000000000000600082015250565b6000611f7c6014836116c9565b9150611f8782611f46565b602082019050919050565b60006020820190508181036000830152611fab81611f6f565b9050919050565b600081905092915050565b7f19457468657265756d205369676e6564204d6573736167653a0a333200000000600082015250565b6000611ff3601c83611fb2565b9150611ffe82611fbd565b601c82019050919050565b6000819050919050565b6000819050919050565b61202e61202982612009565b612013565b82525050565b600061203f82611fe6565b915061204b828461201d565b60208201915081905092915050565b7f4e487b7100000000000000000000000000000000000000000000000000000000600052602160045260246000fd5b7f45434453413a20696e76616c6964207369676e61747572650000000000000000600082015250565b60006120bf6018836116c9565b91506120ca82612089565b602082019050919050565b600060208201905081810360008301526120ee816120b2565b9050919050565b7f45434453413a20696e76616c6964207369676e6174757265206c656e67746800600082015250565b600061212b601f836116c9565b9150612136826120f5565b602082019050919050565b6000602082019050818103600083015261215a8161211e565b9050919050565b7f45434453413a20696e76616c6964207369676e6174757265202773272076616c60008201527f7565000000000000000000000000000000000000000000000000000000000000602082015250565b60006121bd6022836116c9565b91506121c882612161565b604082019050919050565b600060208201905081810360008301526121ec816121b0565b9050919050565b6121fc81612009565b82525050565b600060ff82169050919050565b61221881612202565b82525050565b600060808201905061223360008301876121f3565b612240602083018661220f565b61224d60408301856121f3565b61225a60608301846121f3565b9594505050505056fea264697066735822122024a6be24ee5a0746378505f9062b96eeaf13c160214a956e9a5f67faeecded5964736f6c63430008130033",
  "linkReferences": {},
  "deployedLinkReferences": {}
}