{
  "_format": "hh-sol-artifact-1",
  "contractName": "DistributorAgreement",
  "sourceName": "contracts/DistributorAgreement.sol",
  "abi": [
    {
      "anonymous": false,
      "inputs": [
        {
          "indexed": false,
          "internalType": "address",
          "name": "distributor",
          "type": "address"
        },
        {
          "indexed": false,
          "internalType": "bytes",
          "name": "agreement",
          "type": "bytes"
        },
        {
          "indexed": false,
          "internalType": "uint256",
          "name": "productUID",
          "type": "uint256"
        },
        {
          "indexed": false,
          "internalType": "uint256",
          "name": "units",
          "type": "uint256"
        },
        {
          "indexed": false,
          "internalType": "uint256",
          "name": "unitPrice",
          "type": "uint256"
        },
        {
          "indexed": false,
          "internalType": "uint256",
          "name": "percentage",
          "type": "uint256"
        }
      ],
      "name": "DistributorCreated",
      "type": "event"
    },
    {
      "anonymous": false,
      "inputs": [
        {
          "indexed": true,
          "internalType": "address",
          "name": "previousOwner",
          "type": "address"
        },
        {
          "indexed": true,
          "internalType": "address",
          "name": "newOwner",
          "type": "address"
        }
      ],
      "name": "OwnershipTransferred",
      "type": "event"
    },
    {
      "anonymous": false,
      "inputs": [
        {
          "indexed": false,
          "internalType": "address",
          "name": "account",
          "type": "address"
        }
      ],
      "name": "Paused",
      "type": "event"
    },
    {
      "anonymous": false,
      "inputs": [
        {
          "indexed": false,
          "internalType": "address",
          "name": "account",
          "type": "address"
        }
      ],
      "name": "Unpaused",
      "type": "event"
    },
    {
      "inputs": [
        {
          "internalType": "address",
          "name": "distributor",
          "type": "address"
        },
        {
          "internalType": "bytes",
          "name": "sign",
          "type": "bytes"
        },
        {
          "internalType": "bytes",
          "name": "agreement",
          "type": "bytes"
        },
        {
          "internalType": "uint256",
          "name": "productUID",
          "type": "uint256"
        },
        {
          "internalType": "uint256",
          "name": "totalUnits",
          "type": "uint256"
        },
        {
          "internalType": "uint256",
          "name": "unitPrice",
          "type": "uint256"
        },
        {
          "internalType": "uint256",
          "name": "percentage",
          "type": "uint256"
        },
        {
          "internalType": "uint256",
          "name": "nonce",
          "type": "uint256"
        }
      ],
      "name": "createAgreement",
      "outputs": [],
      "stateMutability": "nonpayable",
      "type": "function"
    },
    {
      "inputs": [
        {
          "internalType": "address",
          "name": "distributor",
          "type": "address"
        }
      ],
      "name": "getDistributorData",
      "outputs": [
        {
          "components": [
            {
              "internalType": "bytes",
              "name": "agreement",
              "type": "bytes"
            },
            {
              "internalType": "uint256",
              "name": "productUID",
              "type": "uint256"
            },
            {
              "internalType": "uint256",
              "name": "units",
              "type": "uint256"
            },
            {
              "internalType": "uint256",
              "name": "unitPrice",
              "type": "uint256"
            },
            {
              "internalType": "uint256",
              "name": "percentage",
              "type": "uint256"
            }
          ],
          "internalType": "struct DistributorAgreement.Distributor",
          "name": "",
          "type": "tuple"
        }
      ],
      "stateMutability": "view",
      "type": "function"
    },
    {
      "inputs": [],
      "name": "owner",
      "outputs": [
        {
          "internalType": "address",
          "name": "",
          "type": "address"
        }
      ],
      "stateMutability": "view",
      "type": "function"
    },
    {
      "inputs": [],
      "name": "pause",
      "outputs": [],
      "stateMutability": "nonpayable",
      "type": "function"
    },
    {
      "inputs": [],
      "name": "paused",
      "outputs": [
        {
          "internalType": "bool",
          "name": "",
          "type": "bool"
        }
      ],
      "stateMutability": "view",
      "type": "function"
    },
    {
      "inputs": [],
      "name": "renounceOwnership",
      "outputs": [],
      "stateMutability": "nonpayable",
      "type": "function"
    },
    {
      "inputs": [
        {
          "internalType": "address",
          "name": "newOwner",
          "type": "address"
        }
      ],
      "name": "transferOwnership",
      "outputs": [],
      "stateMutability": "nonpayable",
      "type": "function"
    },
    {
      "inputs": [],
      "name": "unpause",
      "outputs": [],
      "stateMutability": "nonpayable",
      "type": "function"
    }
  ],
  "bytecode": "0x608060405234801561000f575f80fd5b506100193361002a565b5f805460ff60a01b19169055610079565b5f80546001600160a01b038381166001600160a01b0319831681178455604051919092169283917f8be0079c531659141344cd1fd0a4f28419497f9722a3daafe3b4186f6b6457e09190a35050565b610ec2806100865f395ff3fe608060405234801561000f575f80fd5b5060043610610085575f3560e01c8063733987b511610058578063733987b5146100e05780638456cb59146100f35780638da5cb5b146100fb578063f2fde38b14610115575f80fd5b8063161d5c1b146100895780633f4ba83a146100b25780635c975abb146100bc578063715018a6146100d8575b5f80fd5b61009c610097366004610aaf565b610128565b6040516100a99190610b1c565b60405180910390f35b6100ba610236565b005b5f54600160a01b900460ff1660405190151581526020016100a9565b6100ba610248565b6100ba6100ee366004610c08565b610259565b6100ba610425565b5f546040516001600160a01b0390911681526020016100a9565b6100ba610123366004610aaf565b610435565b6101566040518060a00160405280606081526020015f81526020015f81526020015f81526020015f81525090565b6001600160a01b0382165f9081526001602052604090819020815160a0810190925280548290829061018790610ca3565b80601f01602080910402602001604051908101604052809291908181526020018280546101b390610ca3565b80156101fe5780601f106101d5576101008083540402835291602001916101fe565b820191905f5260205f20905b8154815290600101906020018083116101e157829003601f168201915b505050505081526020016001820154815260200160028201548152602001600382015481526020016004820154815250509050919050565b61023e6104ae565b610246610507565b565b6102506104ae565b6102465f61055b565b6102616105aa565b6001600160a01b0388166102b35760405162461bcd60e51b815260206004820152601460248201527352454a5556453a205a65726f206164647265737360601b60448201526064015b60405180910390fd5b5f841161030d5760405162461bcd60e51b815260206004820152602260248201527f52454a5556453a20546f74616c20756e6974732063616e6e6f74206265207a65604482015261726f60f01b60648201526084016102aa565b5f831161035c5760405162461bcd60e51b815260206004820152601c60248201527f52454a5556453a2050726963652063616e6e6f74206265207a65726f0000000060448201526064016102aa565b5f82116103b55760405162461bcd60e51b815260206004820152602160248201527f52454a5556453a2050657263656e746167652063616e6e6f74206265207a65726044820152606f60f81b60648201526084016102aa565b6103c1888888846105f6565b61040d5760405162461bcd60e51b815260206004820152601960248201527f52454a5556453a20496e76616c6964207369676e61747572650000000000000060448201526064016102aa565b61041b88878787878761070f565b5050505050505050565b61042d6104ae565b610246610799565b61043d6104ae565b6001600160a01b0381166104a25760405162461bcd60e51b815260206004820152602660248201527f4f776e61626c653a206e6577206f776e657220697320746865207a65726f206160448201526564647265737360d01b60648201526084016102aa565b6104ab8161055b565b50565b5f546001600160a01b031633146102465760405162461bcd60e51b815260206004820181905260248201527f4f776e61626c653a2063616c6c6572206973206e6f7420746865206f776e657260448201526064016102aa565b61050f6107db565b5f805460ff60a01b191690557f5db9ee0a495bf2e6ff9c91a7834c1ba4fdd244a5e8aa4e537bd38aeae4b073aa335b6040516001600160a01b03909116815260200160405180910390a1565b5f80546001600160a01b038381166001600160a01b0319831681178455604051919092169283917f8be0079c531659141344cd1fd0a4f28419497f9722a3daafe3b4186f6b6457e09190a35050565b5f54600160a01b900460ff16156102465760405162461bcd60e51b815260206004820152601060248201526f14185d5cd8589b194e881c185d5cd95960821b60448201526064016102aa565b5f8181526002602052604081205460ff16156106545760405162461bcd60e51b815260206004820152601a60248201527f52454a5556453a204e6f6e6365207573656420616c726561647900000000000060448201526064016102aa565b5f828152600260209081526040808320805460ff191660011790555161068291889187918791309101610cdb565b6040516020818303038152906040528051906020012090505f6106db866106d5847f19457468657265756d205369676e6564204d6573736167653a0a3332000000005f908152601c91909152603c902090565b9061082a565b9050866001600160a01b0316816001600160a01b03160361070157600192505050610707565b5f925050505b949350505050565b6001600160a01b0386165f908152600160205260409020806107318782610d74565b50600181018590556002810184905560038101839055600481018290556040517f3080cdf9122eaaa59ed052b8be4f19d8f6c1d6384b5d52a323bfb614f3306fd59061078890899089908990899089908990610e30565b60405180910390a150505050505050565b6107a16105aa565b5f805460ff60a01b1916600160a01b1790557f62e78cea01bee320cd4e420270b5ea74000d11b0c9f74754ebdbfc544b05a25861053e3390565b5f54600160a01b900460ff166102465760405162461bcd60e51b815260206004820152601460248201527314185d5cd8589b194e881b9bdd081c185d5cd95960621b60448201526064016102aa565b5f805f610837858561084c565b915091506108448161088e565b509392505050565b5f808251604103610880576020830151604084015160608501515f1a610874878285856109d7565b94509450505050610887565b505f905060025b9250929050565b5f8160048111156108a1576108a1610e78565b036108a95750565b60018160048111156108bd576108bd610e78565b0361090a5760405162461bcd60e51b815260206004820152601860248201527f45434453413a20696e76616c6964207369676e6174757265000000000000000060448201526064016102aa565b600281600481111561091e5761091e610e78565b0361096b5760405162461bcd60e51b815260206004820152601f60248201527f45434453413a20696e76616c6964207369676e6174757265206c656e6774680060448201526064016102aa565b600381600481111561097f5761097f610e78565b036104ab5760405162461bcd60e51b815260206004820152602260248201527f45434453413a20696e76616c6964207369676e6174757265202773272076616c604482015261756560f01b60648201526084016102aa565b5f807f7fffffffffffffffffffffffffffffff5d576e7357a4501ddfe92f46681b20a0831115610a0c57505f90506003610a8b565b604080515f8082526020820180845289905260ff881692820192909252606081018690526080810185905260019060a0016020604051602081039080840390855afa158015610a5d573d5f803e3d5ffd5b5050604051601f1901519150506001600160a01b038116610a85575f60019250925050610a8b565b91505f90505b94509492505050565b80356001600160a01b0381168114610aaa575f80fd5b919050565b5f60208284031215610abf575f80fd5b610ac882610a94565b9392505050565b5f5b83811015610ae9578181015183820152602001610ad1565b50505f910152565b5f8151808452610b08816020860160208601610acf565b601f01601f19169290920160200192915050565b602081525f825160a06020840152610b3760c0840182610af1565b9050602084015160408401526040840151606084015260608401516080840152608084015160a08401528091505092915050565b634e487b7160e01b5f52604160045260245ffd5b5f82601f830112610b8e575f80fd5b813567ffffffffffffffff80821115610ba957610ba9610b6b565b604051601f8301601f19908116603f01168101908282118183101715610bd157610bd1610b6b565b81604052838152866020858801011115610be9575f80fd5b836020870160208301375f602085830101528094505050505092915050565b5f805f805f805f80610100898b031215610c20575f80fd5b610c2989610a94565b9750602089013567ffffffffffffffff80821115610c45575f80fd5b610c518c838d01610b7f565b985060408b0135915080821115610c66575f80fd5b50610c738b828c01610b7f565b989b979a5097986060810135985060808101359760a0820135975060c0820135965060e090910135945092505050565b600181811c90821680610cb757607f821691505b602082108103610cd557634e487b7160e01b5f52602260045260245ffd5b50919050565b5f6bffffffffffffffffffffffff19808760601b1683528551610d05816014860160208a01610acf565b90920160148101949094525060609190911b16603482015260480192915050565b601f821115610d6f575f81815260208120601f850160051c81016020861015610d4c5750805b601f850160051c820191505b81811015610d6b57828155600101610d58565b5050505b505050565b815167ffffffffffffffff811115610d8e57610d8e610b6b565b610da281610d9c8454610ca3565b84610d26565b602080601f831160018114610dd5575f8415610dbe5750858301515b5f19600386901b1c1916600185901b178555610d6b565b5f85815260208120601f198616915b82811015610e0357888601518255948401946001909101908401610de4565b5085821015610e2057878501515f19600388901b60f8161c191681555b5050505050600190811b01905550565b6001600160a01b038716815260c0602082018190525f90610e5390830188610af1565b90508560408301528460608301528360808301528260a0830152979650505050505050565b634e487b7160e01b5f52602160045260245ffdfea2646970667358221220ba40b730c7013d7cbc177227fa521b5b1a0487111d9ad096ee47b9f2a0e5d3b664736f6c63430008140033",
  "linkReferences": {},
  "deployedLinkReferences": {}
}