{
  "_format": "hh-sol-artifact-1",
  "contractName": "DistributorAgreement",
  "sourceName": "contracts/DistributorAgreement.sol",
  "abi": [
    {
      "anonymous": false,
      "inputs": [
        {
          "indexed": false,
          "internalType": "address",
          "name": "distributor",
          "type": "address"
        },
        {
          "indexed": false,
          "internalType": "bytes",
          "name": "agreement",
          "type": "bytes"
        },
        {
          "indexed": false,
          "internalType": "uint256",
          "name": "productUID",
          "type": "uint256"
        },
        {
          "indexed": false,
          "internalType": "uint256",
          "name": "units",
          "type": "uint256"
        },
        {
          "indexed": false,
          "internalType": "uint256",
          "name": "unitPrice",
          "type": "uint256"
        },
        {
          "indexed": false,
          "internalType": "uint256",
          "name": "percentage",
          "type": "uint256"
        }
      ],
      "name": "DistributorCreated",
      "type": "event"
    },
    {
      "inputs": [
        {
          "internalType": "address",
          "name": "_distributor",
          "type": "address"
        },
        {
          "internalType": "bytes",
          "name": "_sign",
          "type": "bytes"
        },
        {
          "internalType": "bytes",
          "name": "_agreement",
          "type": "bytes"
        },
        {
          "internalType": "uint256",
          "name": "_productUID",
          "type": "uint256"
        },
        {
          "internalType": "uint256",
          "name": "_totalUnits",
          "type": "uint256"
        },
        {
          "internalType": "uint256",
          "name": "_unitPrice",
          "type": "uint256"
        },
        {
          "internalType": "uint256",
          "name": "_percentage",
          "type": "uint256"
        },
        {
          "internalType": "uint256",
          "name": "_nonce",
          "type": "uint256"
        }
      ],
      "name": "createAgreement",
      "outputs": [],
      "stateMutability": "nonpayable",
      "type": "function"
    },
    {
      "inputs": [
        {
          "internalType": "address",
          "name": "_distributor",
          "type": "address"
        }
      ],
      "name": "getDistributorData",
      "outputs": [
        {
          "components": [
            {
              "internalType": "bytes",
              "name": "agreement",
              "type": "bytes"
            },
            {
              "internalType": "uint256",
              "name": "productUID",
              "type": "uint256"
            },
            {
              "internalType": "uint256",
              "name": "units",
              "type": "uint256"
            },
            {
              "internalType": "uint256",
              "name": "unitPrice",
              "type": "uint256"
            },
            {
              "internalType": "uint256",
              "name": "percentage",
              "type": "uint256"
            }
          ],
          "internalType": "struct DistributorAgreement.Distributor",
          "name": "",
          "type": "tuple"
        }
      ],
      "stateMutability": "view",
      "type": "function"
    }
  ],
  "bytecode": "0x608060405234801561001057600080fd5b50611b13806100206000396000f3fe608060405234801561001057600080fd5b50600436106100365760003560e01c8063161d5c1b1461003b578063733987b51461006b575b600080fd5b61005560048036038101906100509190610ced565b610087565b6040516100629190610e39565b60405180910390f35b61008560048036038101906100809190610fbc565b6101d5565b005b61008f610c4c565b6100a36764c1ec0e1465078b60c01b61053c565b6100b767fbdb4ac52262afe660c01b61053c565b6100cb676fb2b10b5a0099fe60c01b61053c565b6000808373ffffffffffffffffffffffffffffffffffffffff1673ffffffffffffffffffffffffffffffffffffffff1681526020019081526020016000206040518060a0016040529081600082018054610124906110d9565b80601f0160208091040260200160405190810160405280929190818152602001828054610150906110d9565b801561019d5780601f106101725761010080835404028352916020019161019d565b820191906000526020600020905b81548152906001019060200180831161018057829003601f168201915b505050505081526020016001820154815260200160028201548152602001600382015481526020016004820154815250509050919050565b6101e967d55cf31a0e57cec560c01b61053c565b6101fd676f6d7501149686ad60c01b61053c565b61021167ba07770dc95ab7cf60c01b61053c565b6102256752aac0deb684019460c01b61053c565b600073ffffffffffffffffffffffffffffffffffffffff168873ffffffffffffffffffffffffffffffffffffffff1603610294576040517f08c379a000000000000000000000000000000000000000000000000000000000815260040161028b90611167565b60405180910390fd5b6102a867148039f88b7bcf6260c01b61053c565b6102bc67cc6edf4ad0cc345b60c01b61053c565b6102d067c6e52e1ac538191960c01b61053c565b6102e46738ba2d1e2511fb4960c01b61053c565b60008411610327576040517f08c379a000000000000000000000000000000000000000000000000000000000815260040161031e906111f9565b60405180910390fd5b61033b67125ae4857e84044460c01b61053c565b61034f67589a45e2641db34660c01b61053c565b61036367fe8096129b8a993960c01b61053c565b610377676a63726db881424460c01b61053c565b600083116103ba576040517f08c379a00000000000000000000000000000000000000000000000000000000081526004016103b190611265565b60405180910390fd5b6103ce677e093309b1e3ed1b60c01b61053c565b6103e2674e4786e1c1f1806060c01b61053c565b6103f667fd9ecc35348b4fd660c01b61053c565b61040a6754655f568ca3beab60c01b61053c565b6000821161044d576040517f08c379a0000000000000000000000000000000000000000000000000000000008152600401610444906112f7565b60405180910390fd5b610461673b45f45f55db35c960c01b61053c565b61047567c152a3652fb64d9560c01b61053c565b6104896775bcd4669f499d1860c01b61053c565b61049d67b221ad495299bb8e60c01b61053c565b6104a98888888461053f565b6104e8576040517f08c379a00000000000000000000000000000000000000000000000000000000081526004016104df90611363565b60405180910390fd5b6104fc67bbf3a6b474027b4f60c01b61053c565b6105106752208e5b2d36e2dc60c01b61053c565b61052467ffe77af3342bc5a160c01b61053c565b6105328887878787876107d2565b5050505050505050565b50565b6000610555674873c13d0c9c670060c01b61053c565b61056967e98c2956e0dc497060c01b61053c565b61057d67f09ecf6d83bcb73660c01b61053c565b61059167d381a6f4c629f7ef60c01b61053c565b6001600083815260200190815260200160002060009054906101000a900460ff16156105f2576040517f08c379a00000000000000000000000000000000000000000000000000000000081526004016105e9906113cf565b60405180910390fd5b6106066707b8bfc23c22d67860c01b61053c565b61061a67108a7bd91097c2e960c01b61053c565b600180600084815260200190815260200160002060006101000a81548160ff02191690831515021790555061065967197dfb5f1317d0e460c01b61053c565b61066d6775b03934164be00e60c01b61053c565b6000858484306040516020016106869493929190611494565b6040516020818303038152906040528051906020012090506106b26704460041a6638e0760c01b61053c565b6106c667808b13692d3bf1d860c01b61053c565b60006106e3866106d58461095c565b61098c90919063ffffffff16565b90506106f967dd1a497f236e40b860c01b61053c565b61070d67951eea35882df7cf60c01b61053c565b8673ffffffffffffffffffffffffffffffffffffffff168173ffffffffffffffffffffffffffffffffffffffff16036107875761075467796548339f254f7e60c01b61053c565b61076867274b2ea83b81886660c01b61053c565b61077c6790d95c6fed56224f60c01b61053c565b6001925050506107ca565b61079b67642fe389aac194dc60c01b61053c565b6107af67f673646ae83572d260c01b61053c565b6107c3678359dd9a5602b3d060c01b61053c565b6000925050505b949350505050565b6107e667989b935452e19f2c60c01b61053c565b6107fa676fb7d33ebaaa598360c01b61053c565b61080e6799d86ea864fdfd2a60c01b61053c565b60008060008873ffffffffffffffffffffffffffffffffffffffff1673ffffffffffffffffffffffffffffffffffffffff168152602001908152602001600020905061086467bfddab3a132fed3e60c01b61053c565b85816000019081610875919061168a565b5061088a67e77c0e9b3c01d6b560c01b61053c565b8481600101819055506108a767f6d766c68ae9b3e260c01b61053c565b8381600201819055506108c4679ebc1a2f6b6d3d3c60c01b61053c565b8281600301819055506108e167c3c56bafa97098ff60c01b61053c565b8181600401819055506108fe670bd5e9ef1c802abf60c01b61053c565b61091267cc60e2878fc7eb1d60c01b61053c565b7f3080cdf9122eaaa59ed052b8be4f19d8f6c1d6384b5d52a323bfb614f3306fd587878787878760405161094b969594939291906117c4565b60405180910390a150505050505050565b60008160405160200161096f91906118ae565b604051602081830303815290604052805190602001209050919050565b600080600061099b85856109b3565b915091506109a881610a04565b819250505092915050565b60008060418351036109f45760008060006020860151925060408601519150606086015160001a90506109e887828585610b6a565b945094505050506109fd565b60006002915091505b9250929050565b60006004811115610a1857610a176118d4565b5b816004811115610a2b57610a2a6118d4565b5b0315610b675760016004811115610a4557610a446118d4565b5b816004811115610a5857610a576118d4565b5b03610a98576040517f08c379a0000000000000000000000000000000000000000000000000000000008152600401610a8f9061194f565b60405180910390fd5b60026004811115610aac57610aab6118d4565b5b816004811115610abf57610abe6118d4565b5b03610aff576040517f08c379a0000000000000000000000000000000000000000000000000000000008152600401610af6906119bb565b60405180910390fd5b60036004811115610b1357610b126118d4565b5b816004811115610b2657610b256118d4565b5b03610b66576040517f08c379a0000000000000000000000000000000000000000000000000000000008152600401610b5d90611a4d565b60405180910390fd5b5b50565b6000807f7fffffffffffffffffffffffffffffff5d576e7357a4501ddfe92f46681b20a08360001c1115610ba5576000600391509150610c43565b600060018787878760405160008152602001604052604051610bca9493929190611a98565b6020604051602081039080840390855afa158015610bec573d6000803e3d6000fd5b505050602060405103519050600073ffffffffffffffffffffffffffffffffffffffff168173ffffffffffffffffffffffffffffffffffffffff1603610c3a57600060019250925050610c43565b80600092509250505b94509492505050565b6040518060a0016040528060608152602001600081526020016000815260200160008152602001600081525090565b6000604051905090565b600080fd5b600080fd5b600073ffffffffffffffffffffffffffffffffffffffff82169050919050565b6000610cba82610c8f565b9050919050565b610cca81610caf565b8114610cd557600080fd5b50565b600081359050610ce781610cc1565b92915050565b600060208284031215610d0357610d02610c85565b5b6000610d1184828501610cd8565b91505092915050565b600081519050919050565b600082825260208201905092915050565b60005b83811015610d54578082015181840152602081019050610d39565b60008484015250505050565b6000601f19601f8301169050919050565b6000610d7c82610d1a565b610d868185610d25565b9350610d96818560208601610d36565b610d9f81610d60565b840191505092915050565b6000819050919050565b610dbd81610daa565b82525050565b600060a0830160008301518482036000860152610de08282610d71565b9150506020830151610df56020860182610db4565b506040830151610e086040860182610db4565b506060830151610e1b6060860182610db4565b506080830151610e2e6080860182610db4565b508091505092915050565b60006020820190508181036000830152610e538184610dc3565b905092915050565b600080fd5b600080fd5b7f4e487b7100000000000000000000000000000000000000000000000000000000600052604160045260246000fd5b610e9d82610d60565b810181811067ffffffffffffffff82111715610ebc57610ebb610e65565b5b80604052505050565b6000610ecf610c7b565b9050610edb8282610e94565b919050565b600067ffffffffffffffff821115610efb57610efa610e65565b5b610f0482610d60565b9050602081019050919050565b82818337600083830152505050565b6000610f33610f2e84610ee0565b610ec5565b905082815260208101848484011115610f4f57610f4e610e60565b5b610f5a848285610f11565b509392505050565b600082601f830112610f7757610f76610e5b565b5b8135610f87848260208601610f20565b91505092915050565b610f9981610daa565b8114610fa457600080fd5b50565b600081359050610fb681610f90565b92915050565b600080600080600080600080610100898b031215610fdd57610fdc610c85565b5b6000610feb8b828c01610cd8565b985050602089013567ffffffffffffffff81111561100c5761100b610c8a565b5b6110188b828c01610f62565b975050604089013567ffffffffffffffff81111561103957611038610c8a565b5b6110458b828c01610f62565b96505060606110568b828c01610fa7565b95505060806110678b828c01610fa7565b94505060a06110788b828c01610fa7565b93505060c06110898b828c01610fa7565b92505060e061109a8b828c01610fa7565b9150509295985092959890939650565b7f4e487b7100000000000000000000000000000000000000000000000000000000600052602260045260246000fd5b600060028204905060018216806110f157607f821691505b602082108103611104576111036110aa565b5b50919050565b600082825260208201905092915050565b7f52454a5556453a205a65726f2061646472657373000000000000000000000000600082015250565b600061115160148361110a565b915061115c8261111b565b602082019050919050565b6000602082019050818103600083015261118081611144565b9050919050565b7f52454a5556453a20546f74616c20756e6974732063616e206e6f74206265207a60008201527f65726f0000000000000000000000000000000000000000000000000000000000602082015250565b60006111e360238361110a565b91506111ee82611187565b604082019050919050565b60006020820190508181036000830152611212816111d6565b9050919050565b7f52454a5556453a2050726963652063616e206e6f74206265207a65726f000000600082015250565b600061124f601d8361110a565b915061125a82611219565b602082019050919050565b6000602082019050818103600083015261127e81611242565b9050919050565b7f52454a5556453a2050657263656e746167652063616e206e6f74206265207a6560008201527f726f000000000000000000000000000000000000000000000000000000000000602082015250565b60006112e160228361110a565b91506112ec82611285565b604082019050919050565b60006020820190508181036000830152611310816112d4565b9050919050565b7f52454a5556453a20496e76616c6964207369676e617475726500000000000000600082015250565b600061134d60198361110a565b915061135882611317565b602082019050919050565b6000602082019050818103600083015261137c81611340565b9050919050565b7f52454a5556453a204e6f6e6365207573656420616c7265616479000000000000600082015250565b60006113b9601a8361110a565b91506113c482611383565b602082019050919050565b600060208201905081810360008301526113e8816113ac565b9050919050565b60008160601b9050919050565b6000611407826113ef565b9050919050565b6000611419826113fc565b9050919050565b61143161142c82610caf565b61140e565b82525050565b600081905092915050565b600061144d82610d1a565b6114578185611437565b9350611467818560208601610d36565b80840191505092915050565b6000819050919050565b61148e61148982610daa565b611473565b82525050565b60006114a08287611420565b6014820191506114b08286611442565b91506114bc828561147d565b6020820191506114cc8284611420565b60148201915081905095945050505050565b60008190508160005260206000209050919050565b60006020601f8301049050919050565b600082821b905092915050565b6000600883026115407fffffffffffffffffffffffffffffffffffffffffffffffffffffffffffffffff82611503565b61154a8683611503565b95508019841693508086168417925050509392505050565b6000819050919050565b600061158761158261157d84610daa565b611562565b610daa565b9050919050565b6000819050919050565b6115a18361156c565b6115b56115ad8261158e565b848454611510565b825550505050565b600090565b6115ca6115bd565b6115d5818484611598565b505050565b5b818110156115f9576115ee6000826115c2565b6001810190506115db565b5050565b601f82111561163e5761160f816114de565b611618846114f3565b81016020851015611627578190505b61163b611633856114f3565b8301826115da565b50505b505050565b600082821c905092915050565b600061166160001984600802611643565b1980831691505092915050565b600061167a8383611650565b9150826002028217905092915050565b61169382610d1a565b67ffffffffffffffff8111156116ac576116ab610e65565b5b6116b682546110d9565b6116c18282856115fd565b600060209050601f8311600181146116f457600084156116e2578287015190505b6116ec858261166e565b865550611754565b601f198416611702866114de565b60005b8281101561172a57848901518255600182019150602085019450602081019050611705565b868310156117475784890151611743601f891682611650565b8355505b6001600288020188555050505b505050505050565b61176581610caf565b82525050565b600082825260208201905092915050565b600061178782610d1a565b611791818561176b565b93506117a1818560208601610d36565b6117aa81610d60565b840191505092915050565b6117be81610daa565b82525050565b600060c0820190506117d9600083018961175c565b81810360208301526117eb818861177c565b90506117fa60408301876117b5565b61180760608301866117b5565b61181460808301856117b5565b61182160a08301846117b5565b979650505050505050565b600081905092915050565b7f19457468657265756d205369676e6564204d6573736167653a0a333200000000600082015250565b600061186d601c8361182c565b915061187882611837565b601c82019050919050565b6000819050919050565b6000819050919050565b6118a86118a382611883565b61188d565b82525050565b60006118b982611860565b91506118c58284611897565b60208201915081905092915050565b7f4e487b7100000000000000000000000000000000000000000000000000000000600052602160045260246000fd5b7f45434453413a20696e76616c6964207369676e61747572650000000000000000600082015250565b600061193960188361110a565b915061194482611903565b602082019050919050565b600060208201905081810360008301526119688161192c565b9050919050565b7f45434453413a20696e76616c6964207369676e6174757265206c656e67746800600082015250565b60006119a5601f8361110a565b91506119b08261196f565b602082019050919050565b600060208201905081810360008301526119d481611998565b9050919050565b7f45434453413a20696e76616c6964207369676e6174757265202773272076616c60008201527f7565000000000000000000000000000000000000000000000000000000000000602082015250565b6000611a3760228361110a565b9150611a42826119db565b604082019050919050565b60006020820190508181036000830152611a6681611a2a565b9050919050565b611a7681611883565b82525050565b600060ff82169050919050565b611a9281611a7c565b82525050565b6000608082019050611aad6000830187611a6d565b611aba6020830186611a89565b611ac76040830185611a6d565b611ad46060830184611a6d565b9594505050505056fea264697066735822122080033f36230faed7c150289324026e6ec9316d1483a5368a8fb65212a726e03964736f6c63430008120033",
  "linkReferences": {},
  "deployedLinkReferences": {}
}