{"contracts/ProfitDistribution.sol":{"ProfitDistribution":{"abi":[{"inputs":[{"internalType":"address","name":"rejuveToken_","type":"address"},{"internalType":"address","name":"productShards_","type":"address"}],"stateMutability":"nonpayable","type":"constructor"},{"anonymous":false,"inputs":[{"indexed":true,"internalType":"address","name":"previousOwner","type":"address"},{"indexed":true,"internalType":"address","name":"newOwner","type":"address"}],"name":"OwnershipTransferred","type":"event"},{"anonymous":false,"inputs":[{"indexed":false,"internalType":"address","name":"account","type":"address"}],"name":"Paused","type":"event"},{"anonymous":false,"inputs":[{"indexed":false,"internalType":"address","name":"sender","type":"address"},{"indexed":false,"internalType":"uint256","name":"productUID","type":"uint256"},{"indexed":false,"internalType":"uint256","name":"amount","type":"uint256"}],"name":"PaymentReceived","type":"event"},{"anonymous":false,"inputs":[{"indexed":false,"internalType":"address","name":"account","type":"address"}],"name":"Unpaused","type":"event"},{"anonymous":false,"inputs":[{"indexed":false,"internalType":"address","name":"holder","type":"address"},{"indexed":false,"internalType":"uint256","name":"productUID","type":"uint256"},{"indexed":false,"internalType":"uint256","name":"amount","type":"uint256"}],"name":"Withdrawal","type":"event"},{"inputs":[{"internalType":"uint256","name":"productUID","type":"uint256"}],"name":"_getShardBalance","outputs":[{"internalType":"uint256","name":"","type":"uint256"}],"stateMutability":"view","type":"function"},{"inputs":[{"internalType":"uint256","name":"productUID","type":"uint256"},{"internalType":"uint256","name":"amount","type":"uint256"}],"name":"deposit","outputs":[],"stateMutability":"nonpayable","type":"function"},{"inputs":[{"internalType":"address","name":"holder","type":"address"},{"internalType":"uint256","name":"productUID","type":"uint256"}],"name":"getHolderLastPoint","outputs":[{"internalType":"uint256","name":"","type":"uint256"}],"stateMutability":"view","type":"function"},{"inputs":[{"internalType":"uint256","name":"productUID","type":"uint256"}],"name":"getProductEarning","outputs":[{"internalType":"uint256","name":"","type":"uint256"}],"stateMutability":"view","type":"function"},{"inputs":[{"internalType":"uint256","name":"productUID","type":"uint256"}],"name":"getTotalWithdrawal","outputs":[{"internalType":"uint256","name":"","type":"uint256"}],"stateMutability":"view","type":"function"},{"inputs":[],"name":"owner","outputs":[{"internalType":"address","name":"","type":"address"}],"stateMutability":"view","type":"function"},{"inputs":[],"name":"pause","outputs":[],"stateMutability":"nonpayable","type":"function"},{"inputs":[],"name":"paused","outputs":[{"internalType":"bool","name":"","type":"bool"}],"stateMutability":"view","type":"function"},{"inputs":[],"name":"renounceOwnership","outputs":[],"stateMutability":"nonpayable","type":"function"},{"inputs":[{"internalType":"address","name":"newOwner","type":"address"}],"name":"transferOwnership","outputs":[],"stateMutability":"nonpayable","type":"function"},{"inputs":[],"name":"unpause","outputs":[],"stateMutability":"nonpayable","type":"function"},{"inputs":[{"internalType":"uint256","name":"productUID","type":"uint256"}],"name":"withdraw","outputs":[],"stateMutability":"nonpayable","type":"function"}],"evm":{"bytecode":{"linkReferences":{},"object":"608060405234801562000010575f80fd5b50604051620020e1380380620020e183398181016040528101906200003691906200027b565b620000566200004a6200014b60201b60201c565b6200015260201b60201c565b5f8060146101000a81548160ff0219169083151502179055506200008b674e3c548e331b743260c01b6200021360201b60201c565b620000a767a5d83fc4ab19d6a160c01b6200021360201b60201c565b8160015f6101000a81548173ffffffffffffffffffffffffffffffffffffffff021916908373ffffffffffffffffffffffffffffffffffffffff16021790555062000103677554ff24a8c6d5a760c01b6200021360201b60201c565b8060025f6101000a81548173ffffffffffffffffffffffffffffffffffffffff021916908373ffffffffffffffffffffffffffffffffffffffff1602179055505050620002c0565b5f33905090565b5f805f9054906101000a900473ffffffffffffffffffffffffffffffffffffffff169050815f806101000a81548173ffffffffffffffffffffffffffffffffffffffff021916908373ffffffffffffffffffffffffffffffffffffffff1602179055508173ffffffffffffffffffffffffffffffffffffffff168173ffffffffffffffffffffffffffffffffffffffff167f8be0079c531659141344cd1fd0a4f28419497f9722a3daafe3b4186f6b6457e060405160405180910390a35050565b50565b5f80fd5b5f73ffffffffffffffffffffffffffffffffffffffff82169050919050565b5f62000245826200021a565b9050919050565b620002578162000239565b811462000262575f80fd5b50565b5f8151905062000275816200024c565b92915050565b5f806040838503121562000294576200029362000216565b5b5f620002a38582860162000265565b9250506020620002b68582860162000265565b9150509250929050565b611e1380620002ce5f395ff3fe608060405234801561000f575f80fd5b50600436106100b2575f3560e01c80638456cb591161006f5780638456cb59146101645780638da5cb5b1461016e5780639734c3351461018c578063e2bbb158146101bc578063f2fde38b146101d8578063f5ed8b8a146101f4576100b2565b806327770bd0146100b65780632e1a7d4d146100e65780633f4ba83a146101025780635c975abb1461010c578063715018a61461012a57806381fdde0914610134575b5f80fd5b6100d060048036038101906100cb919061149e565b610224565b6040516100dd91906114d8565b60405180910390f35b61010060048036038101906100fb919061149e565b61027a565b005b61010a61042f565b005b6101146104a5565b604051610121919061150b565b60405180910390f35b6101326104ba565b005b61014e6004803603810190610149919061149e565b6104cd565b60405161015b91906114d8565b60405180910390f35b61016c6107e1565b005b610176610857565b6040516101839190611563565b60405180910390f35b6101a660048036038101906101a191906115a6565b61087e565b6040516101b391906114d8565b60405180910390f35b6101d660048036038101906101d191906115e4565b610910565b005b6101f260048036038101906101ed9190611622565b610a1c565b005b61020e6004803603810190610209919061149e565b610a9e565b60405161021b91906114d8565b60405180910390f35b5f610239677aae3e3557494dc460c01b610af4565b61024d67afeef850372dbf7e60c01b610af4565b610261670cd514b9f99f402860c01b610af4565b60035f8381526020019081526020015f20549050919050565b61028e6788725e5ad4ce448660c01b610af4565b610296610af7565b6102aa67cd63d18443b08b3a60c01b610af4565b6102be67a0ad96cf97ddeb1b60c01b610af4565b6102d267c32c66a18b174dea60c01b610af4565b6102e667fde9c565aed555c660c01b610af4565b6102fa6732571400a7639f1160c01b610af4565b5f60035f8381526020019081526020015f20541161034d576040517f08c379a0000000000000000000000000000000000000000000000000000000008152600401610344906116a7565b60405180910390fd5b61036167791c9499b49a8fbb60c01b610af4565b61037567ba0431ac058ce21b60c01b610af4565b61038967ee095b3ea8eb73ea60c01b610af4565b61039d670a0e9a86d0c613a660c01b610af4565b5f6103a7826104cd565b116103e7576040517f08c379a00000000000000000000000000000000000000000000000000000000081526004016103de9061170f565b60405180910390fd5b6103fb677ce01a99226266cb60c01b610af4565b61040f67bbe5a0013137574e60c01b610af4565b610423677b1b506315309cf660c01b610af4565b61042c81610b41565b50565b61044367e53aa144e1d80cea60c01b610af4565b61044b610eee565b61045f67e704b41c70ade26f60c01b610af4565b6104736745a21b4e244e05f960c01b610af4565b610487679553976d0934bd9660c01b610af4565b61049b678189e998792252a060c01b610af4565b6104a3610f6c565b565b5f8060149054906101000a900460ff16905090565b6104c2610eee565b6104cb5f610fcd565b565b5f6104e267a56b3f0757a1452060c01b610af4565b6104f667684a28b800ffa6aa60c01b610af4565b61050a670dbde54fad1acb9060c01b610af4565b5f60025f9054906101000a900473ffffffffffffffffffffffffffffffffffffffff1673ffffffffffffffffffffffffffffffffffffffff16634e57d942846040518263ffffffff1660e01b815260040161056591906114d8565b5f60405180830381865afa15801561057f573d5f803e3d5ffd5b505050506040513d5f823e3d601f19601f820116820180604052508101906105a79190611891565b90506105bd67bace745779bc6d4760c01b610af4565b6105d16709a7d17300997b0660c01b610af4565b5f60025f9054906101000a900473ffffffffffffffffffffffffffffffffffffffff1673ffffffffffffffffffffffffffffffffffffffff1662fdd58e61061661108e565b845f81518110610629576106286118d8565b5b60200260200101516040518363ffffffff1660e01b815260040161064e929190611905565b602060405180830381865afa158015610669573d5f803e3d5ffd5b505050506040513d601f19601f8201168201806040525081019061068d919061192c565b90506106a367917b596b9539e28f60c01b610af4565b6106b76757330cca85c4e5b860c01b610af4565b5f60025f9054906101000a900473ffffffffffffffffffffffffffffffffffffffff1673ffffffffffffffffffffffffffffffffffffffff1662fdd58e6106fc61108e565b856001815181106107105761070f6118d8565b5b60200260200101516040518363ffffffff1660e01b8152600401610735929190611905565b602060405180830381865afa158015610750573d5f803e3d5ffd5b505050506040513d601f19601f82011682018060405250810190610774919061192c565b905061078a673373e0da12101e7a60c01b610af4565b61079e67826b221979db966260c01b610af4565b5f81836107ab9190611984565b90506107c1673addb7b17689bc3160c01b610af4565b6107d567115aebd193feec7260c01b610af4565b80945050505050919050565b6107f567d181802db0983fba60c01b610af4565b6107fd610eee565b61081167d1e2b0c49a84fe2960c01b610af4565b61082567d4646e11500273ad60c01b610af4565b610839679a43f42eee8bdc8160c01b610af4565b61084d67944535cddd47479e60c01b610af4565b610855611095565b565b5f805f9054906101000a900473ffffffffffffffffffffffffffffffffffffffff16905090565b5f61089367de51344f08fdf1e560c01b610af4565b6108a7673a41251c312ded2360c01b610af4565b6108bb671a5b644430c5e02560c01b610af4565b60055f8473ffffffffffffffffffffffffffffffffffffffff1673ffffffffffffffffffffffffffffffffffffffff1681526020019081526020015f205f8381526020019081526020015f2054905092915050565b610924678f0e15c96b31177860c01b610af4565b61092c610af7565b61094067433fa224ca2a8d9060c01b610af4565b61095467dfda25567265612b60c01b610af4565b61096867c40433f403600fc160c01b610af4565b61097c67b0f1398298849dfe60c01b610af4565b610990672a617ce017221eea60c01b610af4565b5f81116109d2576040517f08c379a00000000000000000000000000000000000000000000000000000000081526004016109c990611a01565b60405180910390fd5b6109e6673dd900560783e53060c01b610af4565b6109fa673fa569d65c1697fb60c01b610af4565b610a0e67156de9e69f939fc960c01b610af4565b610a1882826110f7565b5050565b610a24610eee565b5f73ffffffffffffffffffffffffffffffffffffffff168173ffffffffffffffffffffffffffffffffffffffff1603610a92576040517f08c379a0000000000000000000000000000000000000000000000000000000008152600401610a8990611a8f565b60405180910390fd5b610a9b81610fcd565b50565b5f610ab3679c9f8b4cf9c0765b60c01b610af4565b610ac7679b2de7fa0f67ab4e60c01b610af4565b610adb67437b353f12b12f7160c01b610af4565b60045f8381526020019081526020015f20549050919050565b50565b610aff6104a5565b15610b3f576040517f08c379a0000000000000000000000000000000000000000000000000000000008152600401610b3690611af7565b60405180910390fd5b565b610b5567f1e57d7063bfb98960c01b610af4565b610b6967df0c39adb634018c60c01b610af4565b610b7d67d5f91120b4d62e4a60c01b610af4565b5f610b8782611282565b9050610b9d673db5f4486345c9ca60c01b610af4565b610bb1673f7fe109773699ef60c01b610af4565b5f60055f610bbd61108e565b73ffffffffffffffffffffffffffffffffffffffff1673ffffffffffffffffffffffffffffffffffffffff1681526020019081526020015f205f8481526020019081526020015f205460035f8581526020019081526020015f2054610c229190611b15565b9050610c386734eb8fa2eceeb01060c01b610af4565b610c4c678defee4abcb08a6260c01b610af4565b5f6127108284610c5c9190611b48565b610c669190611bb6565b9050610c7c6722acbfc5bb2cd45d60c01b610af4565b610c90670b97b00dd472e86e60c01b610af4565b610ca46763de5e1f4bce872c60c01b610af4565b5f8111610ce6576040517f08c379a0000000000000000000000000000000000000000000000000000000008152600401610cdd90611c30565b60405180910390fd5b610cfa67f49ff6deaa4a571460c01b610af4565b610d0e67b32413ba5e9f498860c01b610af4565b60035f8581526020019081526020015f205460055f610d2b61108e565b73ffffffffffffffffffffffffffffffffffffffff1673ffffffffffffffffffffffffffffffffffffffff1681526020019081526020015f205f8681526020019081526020015f2081905550610d8b679eb752b5ba6382fc60c01b610af4565b8060045f8681526020019081526020015f205f828254610dab9190611984565b92505081905550610dc66721a9a75dc8a4dbd760c01b610af4565b610dda679b7e5630602a9e9760c01b610af4565b7fdf273cb619d95419a9cd0ec88123a0538c85064229baa6363788f743fff90deb610e0361108e565b8583604051610e1493929190611c4e565b60405180910390a1610e30673acceb86dd25e1f060c01b610af4565b610e4467e30aacfcfbc4b12360c01b610af4565b60015f9054906101000a900473ffffffffffffffffffffffffffffffffffffffff1673ffffffffffffffffffffffffffffffffffffffff1663a9059cbb610e8961108e565b836040518363ffffffff1660e01b8152600401610ea7929190611905565b6020604051808303815f875af1158015610ec3573d5f803e3d5ffd5b505050506040513d601f19601f82011682018060405250810190610ee79190611cad565b5050505050565b610ef661108e565b73ffffffffffffffffffffffffffffffffffffffff16610f14610857565b73ffffffffffffffffffffffffffffffffffffffff1614610f6a576040517f08c379a0000000000000000000000000000000000000000000000000000000008152600401610f6190611d22565b60405180910390fd5b565b610f74611411565b5f8060146101000a81548160ff0219169083151502179055507f5db9ee0a495bf2e6ff9c91a7834c1ba4fdd244a5e8aa4e537bd38aeae4b073aa610fb661108e565b604051610fc39190611563565b60405180910390a1565b5f805f9054906101000a900473ffffffffffffffffffffffffffffffffffffffff169050815f806101000a81548173ffffffffffffffffffffffffffffffffffffffff021916908373ffffffffffffffffffffffffffffffffffffffff1602179055508173ffffffffffffffffffffffffffffffffffffffff168173ffffffffffffffffffffffffffffffffffffffff167f8be0079c531659141344cd1fd0a4f28419497f9722a3daafe3b4186f6b6457e060405160405180910390a35050565b5f33905090565b61109d610af7565b60015f60146101000a81548160ff0219169083151502179055507f62e78cea01bee320cd4e420270b5ea74000d11b0c9f74754ebdbfc544b05a2586110e061108e565b6040516110ed9190611563565b60405180910390a1565b61110b673abbc9d4334a242060c01b610af4565b61111f6725c34845c6a1c36b60c01b610af4565b8060035f8481526020019081526020015f205f82825461113f9190611984565b9250508190555061115a67a0a0de84bc9cdfbb60c01b610af4565b61116e670c285d74fb023a7560c01b610af4565b7f5677b5d4cf976ac32defbd95a6a5aaf0d1fee450a11fc26f3c11aae6e6c33d0661119761108e565b83836040516111a893929190611c4e565b60405180910390a16111c46791d22211f8598fba60c01b610af4565b6111d867b45d84b80b052be760c01b610af4565b60015f9054906101000a900473ffffffffffffffffffffffffffffffffffffffff1673ffffffffffffffffffffffffffffffffffffffff166323b872dd61121d61108e565b30846040518463ffffffff1660e01b815260040161123d93929190611d40565b6020604051808303815f875af1158015611259573d5f803e3d5ffd5b505050506040513d601f19601f8201168201806040525081019061127d9190611cad565b505050565b5f61129767f70e0922b45c254960c01b610af4565b6112ab67f10a86ab09aa44e960c01b610af4565b6112bf674839cc3d9ef3d1a860c01b610af4565b5f6112c9836104cd565b90506112df67b906fcc3a099cceb60c01b610af4565b6112f367e7f33c783b4cf9ac60c01b610af4565b5f60025f9054906101000a900473ffffffffffffffffffffffffffffffffffffffff1673ffffffffffffffffffffffffffffffffffffffff1663d6e0dbda856040518263ffffffff1660e01b815260040161134e91906114d8565b602060405180830381865afa158015611369573d5f803e3d5ffd5b505050506040513d601f19601f8201168201806040525081019061138d919061192c565b90506113a367571a9cef0a773d0660c01b610af4565b6113b767dd13ef094db2bfe260c01b610af4565b5f816064846113c69190611b48565b6113d09190611bb6565b90506113e667a92a1909472542f860c01b610af4565b6113fa67e6d050968f5f679860c01b610af4565b6064816114079190611b48565b9350505050919050565b6114196104a5565b611458576040517f08c379a000000000000000000000000000000000000000000000000000000000815260040161144f90611dbf565b60405180910390fd5b565b5f604051905090565b5f80fd5b5f80fd5b5f819050919050565b61147d8161146b565b8114611487575f80fd5b50565b5f8135905061149881611474565b92915050565b5f602082840312156114b3576114b2611463565b5b5f6114c08482850161148a565b91505092915050565b6114d28161146b565b82525050565b5f6020820190506114eb5f8301846114c9565b92915050565b5f8115159050919050565b611505816114f1565b82525050565b5f60208201905061151e5f8301846114fc565b92915050565b5f73ffffffffffffffffffffffffffffffffffffffff82169050919050565b5f61154d82611524565b9050919050565b61155d81611543565b82525050565b5f6020820190506115765f830184611554565b92915050565b61158581611543565b811461158f575f80fd5b50565b5f813590506115a08161157c565b92915050565b5f80604083850312156115bc576115bb611463565b5b5f6115c985828601611592565b92505060206115da8582860161148a565b9150509250929050565b5f80604083850312156115fa576115f9611463565b5b5f6116078582860161148a565b92505060206116188582860161148a565b9150509250929050565b5f6020828403121561163757611636611463565b5b5f61164484828501611592565b91505092915050565b5f82825260208201905092915050565b7f52454a5556453a204e6f2070726f64756374206561726e696e670000000000005f82015250565b5f611691601a8361164d565b915061169c8261165d565b602082019050919050565b5f6020820190508181035f8301526116be81611685565b9050919050565b7f52454a5556453a204e6f2073686172642062616c616e636500000000000000005f82015250565b5f6116f960188361164d565b9150611704826116c5565b602082019050919050565b5f6020820190508181035f830152611726816116ed565b9050919050565b5f80fd5b5f601f19601f8301169050919050565b7f4e487b71000000000000000000000000000000000000000000000000000000005f52604160045260245ffd5b61177782611731565b810181811067ffffffffffffffff8211171561179657611795611741565b5b80604052505050565b5f6117a861145a565b90506117b4828261176e565b919050565b5f67ffffffffffffffff8211156117d3576117d2611741565b5b602082029050602081019050919050565b5f80fd5b5f815190506117f681611474565b92915050565b5f61180e611809846117b9565b61179f565b90508083825260208201905060208402830185811115611831576118306117e4565b5b835b8181101561185a578061184688826117e8565b845260208401935050602081019050611833565b5050509392505050565b5f82601f8301126118785761187761172d565b5b81516118888482602086016117fc565b91505092915050565b5f602082840312156118a6576118a5611463565b5b5f82015167ffffffffffffffff8111156118c3576118c2611467565b5b6118cf84828501611864565b91505092915050565b7f4e487b71000000000000000000000000000000000000000000000000000000005f52603260045260245ffd5b5f6040820190506119185f830185611554565b61192560208301846114c9565b9392505050565b5f6020828403121561194157611940611463565b5b5f61194e848285016117e8565b91505092915050565b7f4e487b71000000000000000000000000000000000000000000000000000000005f52601160045260245ffd5b5f61198e8261146b565b91506119998361146b565b92508282019050808211156119b1576119b0611957565b5b92915050565b7f52454a5556453a205a65726f20616d6f756e74000000000000000000000000005f82015250565b5f6119eb60138361164d565b91506119f6826119b7565b602082019050919050565b5f6020820190508181035f830152611a18816119df565b9050919050565b7f4f776e61626c653a206e6577206f776e657220697320746865207a65726f20615f8201527f6464726573730000000000000000000000000000000000000000000000000000602082015250565b5f611a7960268361164d565b9150611a8482611a1f565b604082019050919050565b5f6020820190508181035f830152611aa681611a6d565b9050919050565b7f5061757361626c653a20706175736564000000000000000000000000000000005f82015250565b5f611ae160108361164d565b9150611aec82611aad565b602082019050919050565b5f6020820190508181035f830152611b0e81611ad5565b9050919050565b5f611b1f8261146b565b9150611b2a8361146b565b9250828203905081811115611b4257611b41611957565b5b92915050565b5f611b528261146b565b9150611b5d8361146b565b9250828202611b6b8161146b565b91508282048414831517611b8257611b81611957565b5b5092915050565b7f4e487b71000000000000000000000000000000000000000000000000000000005f52601260045260245ffd5b5f611bc08261146b565b9150611bcb8361146b565b925082611bdb57611bda611b89565b5b828204905092915050565b7f52454a5556453a204e6f2075736572206561726e696e670000000000000000005f82015250565b5f611c1a60178361164d565b9150611c2582611be6565b602082019050919050565b5f6020820190508181035f830152611c4781611c0e565b9050919050565b5f606082019050611c615f830186611554565b611c6e60208301856114c9565b611c7b60408301846114c9565b949350505050565b611c8c816114f1565b8114611c96575f80fd5b50565b5f81519050611ca781611c83565b92915050565b5f60208284031215611cc257611cc1611463565b5b5f611ccf84828501611c99565b91505092915050565b7f4f776e61626c653a2063616c6c6572206973206e6f7420746865206f776e65725f82015250565b5f611d0c60208361164d565b9150611d1782611cd8565b602082019050919050565b5f6020820190508181035f830152611d3981611d00565b9050919050565b5f606082019050611d535f830186611554565b611d606020830185611554565b611d6d60408301846114c9565b949350505050565b7f5061757361626c653a206e6f74207061757365640000000000000000000000005f82015250565b5f611da960148361164d565b9150611db482611d75565b602082019050919050565b5f6020820190508181035f830152611dd681611d9d565b905091905056fea2646970667358221220719dd87618f3842f59b08c5d56349b5a522ec3ceedfae7f554b27675497c419664736f6c63430008140033","opcodes":"PUSH1 0x80 PUSH1 0x40 MSTORE CALLVALUE DUP1 ISZERO PUSH3 0x10 JUMPI PUSH0 DUP1 REVERT JUMPDEST POP PUSH1 0x40 MLOAD PUSH3 0x20E1 CODESIZE SUB DUP1 PUSH3 0x20E1 DUP4 CODECOPY DUP2 DUP2 ADD PUSH1 0x40 MSTORE DUP2 ADD SWAP1 PUSH3 0x36 SWAP2 SWAP1 PUSH3 0x27B JUMP JUMPDEST PUSH3 0x56 PUSH3 0x4A PUSH3 0x14B PUSH1 0x20 SHL PUSH1 0x20 SHR JUMP JUMPDEST PUSH3 0x152 PUSH1 0x20 SHL PUSH1 0x20 SHR JUMP JUMPDEST PUSH0 DUP1 PUSH1 0x14 PUSH2 0x100 EXP DUP2 SLOAD DUP2 PUSH1 0xFF MUL NOT AND SWAP1 DUP4 ISZERO ISZERO MUL OR SWAP1 SSTORE POP PUSH3 0x8B PUSH8 0x4E3C548E331B7432 PUSH1 0xC0 SHL PUSH3 0x213 PUSH1 0x20 SHL PUSH1 0x20 SHR JUMP JUMPDEST PUSH3 0xA7 PUSH8 0xA5D83FC4AB19D6A1 PUSH1 0xC0 SHL PUSH3 0x213 PUSH1 0x20 SHL PUSH1 0x20 SHR JUMP JUMPDEST DUP2 PUSH1 0x1 PUSH0 PUSH2 0x100 EXP DUP2 SLOAD DUP2 PUSH20 0xFFFFFFFFFFFFFFFFFFFFFFFFFFFFFFFFFFFFFFFF MUL NOT AND SWAP1 DUP4 PUSH20 0xFFFFFFFFFFFFFFFFFFFFFFFFFFFFFFFFFFFFFFFF AND MUL OR SWAP1 SSTORE POP PUSH3 0x103 PUSH8 0x7554FF24A8C6D5A7 PUSH1 0xC0 SHL PUSH3 0x213 PUSH1 0x20 SHL PUSH1 0x20 SHR JUMP JUMPDEST DUP1 PUSH1 0x2 PUSH0 PUSH2 0x100 EXP DUP2 SLOAD DUP2 PUSH20 0xFFFFFFFFFFFFFFFFFFFFFFFFFFFFFFFFFFFFFFFF MUL NOT AND SWAP1 DUP4 PUSH20 0xFFFFFFFFFFFFFFFFFFFFFFFFFFFFFFFFFFFFFFFF AND MUL OR SWAP1 SSTORE POP POP POP PUSH3 0x2C0 JUMP JUMPDEST PUSH0 CALLER SWAP1 POP SWAP1 JUMP JUMPDEST PUSH0 DUP1 PUSH0 SWAP1 SLOAD SWAP1 PUSH2 0x100 EXP SWAP1 DIV PUSH20 0xFFFFFFFFFFFFFFFFFFFFFFFFFFFFFFFFFFFFFFFF AND SWAP1 POP DUP2 PUSH0 DUP1 PUSH2 0x100 EXP DUP2 SLOAD DUP2 PUSH20 0xFFFFFFFFFFFFFFFFFFFFFFFFFFFFFFFFFFFFFFFF MUL NOT AND SWAP1 DUP4 PUSH20 0xFFFFFFFFFFFFFFFFFFFFFFFFFFFFFFFFFFFFFFFF AND MUL OR SWAP1 SSTORE POP DUP2 PUSH20 0xFFFFFFFFFFFFFFFFFFFFFFFFFFFFFFFFFFFFFFFF AND DUP2 PUSH20 0xFFFFFFFFFFFFFFFFFFFFFFFFFFFFFFFFFFFFFFFF AND PUSH32 0x8BE0079C531659141344CD1FD0A4F28419497F9722A3DAAFE3B4186F6B6457E0 PUSH1 0x40 MLOAD PUSH1 0x40 MLOAD DUP1 SWAP2 SUB SWAP1 LOG3 POP POP JUMP JUMPDEST POP JUMP JUMPDEST PUSH0 DUP1 REVERT JUMPDEST PUSH0 PUSH20 0xFFFFFFFFFFFFFFFFFFFFFFFFFFFFFFFFFFFFFFFF DUP3 AND SWAP1 POP SWAP2 SWAP1 POP JUMP JUMPDEST PUSH0 PUSH3 0x245 DUP3 PUSH3 0x21A JUMP JUMPDEST SWAP1 POP SWAP2 SWAP1 POP JUMP JUMPDEST PUSH3 0x257 DUP2 PUSH3 0x239 JUMP JUMPDEST DUP2 EQ PUSH3 0x262 JUMPI PUSH0 DUP1 REVERT JUMPDEST POP JUMP JUMPDEST PUSH0 DUP2 MLOAD SWAP1 POP PUSH3 0x275 DUP2 PUSH3 0x24C JUMP JUMPDEST SWAP3 SWAP2 POP POP JUMP JUMPDEST PUSH0 DUP1 PUSH1 0x40 DUP4 DUP6 SUB SLT ISZERO PUSH3 0x294 JUMPI PUSH3 0x293 PUSH3 0x216 JUMP JUMPDEST JUMPDEST PUSH0 PUSH3 0x2A3 DUP6 DUP3 DUP7 ADD PUSH3 0x265 JUMP JUMPDEST SWAP3 POP POP PUSH1 0x20 PUSH3 0x2B6 DUP6 DUP3 DUP7 ADD PUSH3 0x265 JUMP JUMPDEST SWAP2 POP POP SWAP3 POP SWAP3 SWAP1 POP JUMP JUMPDEST PUSH2 0x1E13 DUP1 PUSH3 0x2CE PUSH0 CODECOPY PUSH0 RETURN INVALID PUSH1 0x80 PUSH1 0x40 MSTORE CALLVALUE DUP1 ISZERO PUSH2 0xF JUMPI PUSH0 DUP1 REVERT JUMPDEST POP PUSH1 0x4 CALLDATASIZE LT PUSH2 0xB2 JUMPI PUSH0 CALLDATALOAD PUSH1 0xE0 SHR DUP1 PUSH4 0x8456CB59 GT PUSH2 0x6F JUMPI DUP1 PUSH4 0x8456CB59 EQ PUSH2 0x164 JUMPI DUP1 PUSH4 0x8DA5CB5B EQ PUSH2 0x16E JUMPI DUP1 PUSH4 0x9734C335 EQ PUSH2 0x18C JUMPI DUP1 PUSH4 0xE2BBB158 EQ PUSH2 0x1BC JUMPI DUP1 PUSH4 0xF2FDE38B EQ PUSH2 0x1D8 JUMPI DUP1 PUSH4 0xF5ED8B8A EQ PUSH2 0x1F4 JUMPI PUSH2 0xB2 JUMP JUMPDEST DUP1 PUSH4 0x27770BD0 EQ PUSH2 0xB6 JUMPI DUP1 PUSH4 0x2E1A7D4D EQ PUSH2 0xE6 JUMPI DUP1 PUSH4 0x3F4BA83A EQ PUSH2 0x102 JUMPI DUP1 PUSH4 0x5C975ABB EQ PUSH2 0x10C JUMPI DUP1 PUSH4 0x715018A6 EQ PUSH2 0x12A JUMPI DUP1 PUSH4 0x81FDDE09 EQ PUSH2 0x134 JUMPI JUMPDEST PUSH0 DUP1 REVERT JUMPDEST PUSH2 0xD0 PUSH1 0x4 DUP1 CALLDATASIZE SUB DUP2 ADD SWAP1 PUSH2 0xCB SWAP2 SWAP1 PUSH2 0x149E JUMP JUMPDEST PUSH2 0x224 JUMP JUMPDEST PUSH1 0x40 MLOAD PUSH2 0xDD SWAP2 SWAP1 PUSH2 0x14D8 JUMP JUMPDEST PUSH1 0x40 MLOAD DUP1 SWAP2 SUB SWAP1 RETURN JUMPDEST PUSH2 0x100 PUSH1 0x4 DUP1 CALLDATASIZE SUB DUP2 ADD SWAP1 PUSH2 0xFB SWAP2 SWAP1 PUSH2 0x149E JUMP JUMPDEST PUSH2 0x27A JUMP JUMPDEST STOP JUMPDEST PUSH2 0x10A PUSH2 0x42F JUMP JUMPDEST STOP JUMPDEST PUSH2 0x114 PUSH2 0x4A5 JUMP JUMPDEST PUSH1 0x40 MLOAD PUSH2 0x121 SWAP2 SWAP1 PUSH2 0x150B JUMP JUMPDEST PUSH1 0x40 MLOAD DUP1 SWAP2 SUB SWAP1 RETURN JUMPDEST PUSH2 0x132 PUSH2 0x4BA JUMP JUMPDEST STOP JUMPDEST PUSH2 0x14E PUSH1 0x4 DUP1 CALLDATASIZE SUB DUP2 ADD SWAP1 PUSH2 0x149 SWAP2 SWAP1 PUSH2 0x149E JUMP JUMPDEST PUSH2 0x4CD JUMP JUMPDEST PUSH1 0x40 MLOAD PUSH2 0x15B SWAP2 SWAP1 PUSH2 0x14D8 JUMP JUMPDEST PUSH1 0x40 MLOAD DUP1 SWAP2 SUB SWAP1 RETURN JUMPDEST PUSH2 0x16C PUSH2 0x7E1 JUMP JUMPDEST STOP JUMPDEST PUSH2 0x176 PUSH2 0x857 JUMP JUMPDEST PUSH1 0x40 MLOAD PUSH2 0x183 SWAP2 SWAP1 PUSH2 0x1563 JUMP JUMPDEST PUSH1 0x40 MLOAD DUP1 SWAP2 SUB SWAP1 RETURN JUMPDEST PUSH2 0x1A6 PUSH1 0x4 DUP1 CALLDATASIZE SUB DUP2 ADD SWAP1 PUSH2 0x1A1 SWAP2 SWAP1 PUSH2 0x15A6 JUMP JUMPDEST PUSH2 0x87E JUMP JUMPDEST PUSH1 0x40 MLOAD PUSH2 0x1B3 SWAP2 SWAP1 PUSH2 0x14D8 JUMP JUMPDEST PUSH1 0x40 MLOAD DUP1 SWAP2 SUB SWAP1 RETURN JUMPDEST PUSH2 0x1D6 PUSH1 0x4 DUP1 CALLDATASIZE SUB DUP2 ADD SWAP1 PUSH2 0x1D1 SWAP2 SWAP1 PUSH2 0x15E4 JUMP JUMPDEST PUSH2 0x910 JUMP JUMPDEST STOP JUMPDEST PUSH2 0x1F2 PUSH1 0x4 DUP1 CALLDATASIZE SUB DUP2 ADD SWAP1 PUSH2 0x1ED SWAP2 SWAP1 PUSH2 0x1622 JUMP JUMPDEST PUSH2 0xA1C JUMP JUMPDEST STOP JUMPDEST PUSH2 0x20E PUSH1 0x4 DUP1 CALLDATASIZE SUB DUP2 ADD SWAP1 PUSH2 0x209 SWAP2 SWAP1 PUSH2 0x149E JUMP JUMPDEST PUSH2 0xA9E JUMP JUMPDEST PUSH1 0x40 MLOAD PUSH2 0x21B SWAP2 SWAP1 PUSH2 0x14D8 JUMP JUMPDEST PUSH1 0x40 MLOAD DUP1 SWAP2 SUB SWAP1 RETURN JUMPDEST PUSH0 PUSH2 0x239 PUSH8 0x7AAE3E3557494DC4 PUSH1 0xC0 SHL PUSH2 0xAF4 JUMP JUMPDEST PUSH2 0x24D PUSH8 0xAFEEF850372DBF7E PUSH1 0xC0 SHL PUSH2 0xAF4 JUMP JUMPDEST PUSH2 0x261 PUSH8 0xCD514B9F99F4028 PUSH1 0xC0 SHL PUSH2 0xAF4 JUMP JUMPDEST PUSH1 0x3 PUSH0 DUP4 DUP2 MSTORE PUSH1 0x20 ADD SWAP1 DUP2 MSTORE PUSH1 0x20 ADD PUSH0 KECCAK256 SLOAD SWAP1 POP SWAP2 SWAP1 POP JUMP JUMPDEST PUSH2 0x28E PUSH8 0x88725E5AD4CE4486 PUSH1 0xC0 SHL PUSH2 0xAF4 JUMP JUMPDEST PUSH2 0x296 PUSH2 0xAF7 JUMP JUMPDEST PUSH2 0x2AA PUSH8 0xCD63D18443B08B3A PUSH1 0xC0 SHL PUSH2 0xAF4 JUMP JUMPDEST PUSH2 0x2BE PUSH8 0xA0AD96CF97DDEB1B PUSH1 0xC0 SHL PUSH2 0xAF4 JUMP JUMPDEST PUSH2 0x2D2 PUSH8 0xC32C66A18B174DEA PUSH1 0xC0 SHL PUSH2 0xAF4 JUMP JUMPDEST PUSH2 0x2E6 PUSH8 0xFDE9C565AED555C6 PUSH1 0xC0 SHL PUSH2 0xAF4 JUMP JUMPDEST PUSH2 0x2FA PUSH8 0x32571400A7639F11 PUSH1 0xC0 SHL PUSH2 0xAF4 JUMP JUMPDEST PUSH0 PUSH1 0x3 PUSH0 DUP4 DUP2 MSTORE PUSH1 0x20 ADD SWAP1 DUP2 MSTORE PUSH1 0x20 ADD PUSH0 KECCAK256 SLOAD GT PUSH2 0x34D JUMPI PUSH1 0x40 MLOAD PUSH32 0x8C379A000000000000000000000000000000000000000000000000000000000 DUP2 MSTORE PUSH1 0x4 ADD PUSH2 0x344 SWAP1 PUSH2 0x16A7 JUMP JUMPDEST PUSH1 0x40 MLOAD DUP1 SWAP2 SUB SWAP1 REVERT JUMPDEST PUSH2 0x361 PUSH8 0x791C9499B49A8FBB PUSH1 0xC0 SHL PUSH2 0xAF4 JUMP JUMPDEST PUSH2 0x375 PUSH8 0xBA0431AC058CE21B PUSH1 0xC0 SHL PUSH2 0xAF4 JUMP JUMPDEST PUSH2 0x389 PUSH8 0xEE095B3EA8EB73EA PUSH1 0xC0 SHL PUSH2 0xAF4 JUMP JUMPDEST PUSH2 0x39D PUSH8 0xA0E9A86D0C613A6 PUSH1 0xC0 SHL PUSH2 0xAF4 JUMP JUMPDEST PUSH0 PUSH2 0x3A7 DUP3 PUSH2 0x4CD JUMP JUMPDEST GT PUSH2 0x3E7 JUMPI PUSH1 0x40 MLOAD PUSH32 0x8C379A000000000000000000000000000000000000000000000000000000000 DUP2 MSTORE PUSH1 0x4 ADD PUSH2 0x3DE SWAP1 PUSH2 0x170F JUMP JUMPDEST PUSH1 0x40 MLOAD DUP1 SWAP2 SUB SWAP1 REVERT JUMPDEST PUSH2 0x3FB PUSH8 0x7CE01A99226266CB PUSH1 0xC0 SHL PUSH2 0xAF4 JUMP JUMPDEST PUSH2 0x40F PUSH8 0xBBE5A0013137574E PUSH1 0xC0 SHL PUSH2 0xAF4 JUMP JUMPDEST PUSH2 0x423 PUSH8 0x7B1B506315309CF6 PUSH1 0xC0 SHL PUSH2 0xAF4 JUMP JUMPDEST PUSH2 0x42C DUP2 PUSH2 0xB41 JUMP JUMPDEST POP JUMP JUMPDEST PUSH2 0x443 PUSH8 0xE53AA144E1D80CEA PUSH1 0xC0 SHL PUSH2 0xAF4 JUMP JUMPDEST PUSH2 0x44B PUSH2 0xEEE JUMP JUMPDEST PUSH2 0x45F PUSH8 0xE704B41C70ADE26F PUSH1 0xC0 SHL PUSH2 0xAF4 JUMP JUMPDEST PUSH2 0x473 PUSH8 0x45A21B4E244E05F9 PUSH1 0xC0 SHL PUSH2 0xAF4 JUMP JUMPDEST PUSH2 0x487 PUSH8 0x9553976D0934BD96 PUSH1 0xC0 SHL PUSH2 0xAF4 JUMP JUMPDEST PUSH2 0x49B PUSH8 0x8189E998792252A0 PUSH1 0xC0 SHL PUSH2 0xAF4 JUMP JUMPDEST PUSH2 0x4A3 PUSH2 0xF6C JUMP JUMPDEST JUMP JUMPDEST PUSH0 DUP1 PUSH1 0x14 SWAP1 SLOAD SWAP1 PUSH2 0x100 EXP SWAP1 DIV PUSH1 0xFF AND SWAP1 POP SWAP1 JUMP JUMPDEST PUSH2 0x4C2 PUSH2 0xEEE JUMP JUMPDEST PUSH2 0x4CB PUSH0 PUSH2 0xFCD JUMP JUMPDEST JUMP JUMPDEST PUSH0 PUSH2 0x4E2 PUSH8 0xA56B3F0757A14520 PUSH1 0xC0 SHL PUSH2 0xAF4 JUMP JUMPDEST PUSH2 0x4F6 PUSH8 0x684A28B800FFA6AA PUSH1 0xC0 SHL PUSH2 0xAF4 JUMP JUMPDEST PUSH2 0x50A PUSH8 0xDBDE54FAD1ACB90 PUSH1 0xC0 SHL PUSH2 0xAF4 JUMP JUMPDEST PUSH0 PUSH1 0x2 PUSH0 SWAP1 SLOAD SWAP1 PUSH2 0x100 EXP SWAP1 DIV PUSH20 0xFFFFFFFFFFFFFFFFFFFFFFFFFFFFFFFFFFFFFFFF AND PUSH20 0xFFFFFFFFFFFFFFFFFFFFFFFFFFFFFFFFFFFFFFFF AND PUSH4 0x4E57D942 DUP5 PUSH1 0x40 MLOAD DUP3 PUSH4 0xFFFFFFFF AND PUSH1 0xE0 SHL DUP2 MSTORE PUSH1 0x4 ADD PUSH2 0x565 SWAP2 SWAP1 PUSH2 0x14D8 JUMP JUMPDEST PUSH0 PUSH1 0x40 MLOAD DUP1 DUP4 SUB DUP2 DUP7 GAS STATICCALL ISZERO DUP1 ISZERO PUSH2 0x57F JUMPI RETURNDATASIZE PUSH0 DUP1 RETURNDATACOPY RETURNDATASIZE PUSH0 REVERT JUMPDEST POP POP POP POP PUSH1 0x40 MLOAD RETURNDATASIZE PUSH0 DUP3 RETURNDATACOPY RETURNDATASIZE PUSH1 0x1F NOT PUSH1 0x1F DUP3 ADD AND DUP3 ADD DUP1 PUSH1 0x40 MSTORE POP DUP2 ADD SWAP1 PUSH2 0x5A7 SWAP2 SWAP1 PUSH2 0x1891 JUMP JUMPDEST SWAP1 POP PUSH2 0x5BD PUSH8 0xBACE745779BC6D47 PUSH1 0xC0 SHL PUSH2 0xAF4 JUMP JUMPDEST PUSH2 0x5D1 PUSH8 0x9A7D17300997B06 PUSH1 0xC0 SHL PUSH2 0xAF4 JUMP JUMPDEST PUSH0 PUSH1 0x2 PUSH0 SWAP1 SLOAD SWAP1 PUSH2 0x100 EXP SWAP1 DIV PUSH20 0xFFFFFFFFFFFFFFFFFFFFFFFFFFFFFFFFFFFFFFFF AND PUSH20 0xFFFFFFFFFFFFFFFFFFFFFFFFFFFFFFFFFFFFFFFF AND PUSH3 0xFDD58E PUSH2 0x616 PUSH2 0x108E JUMP JUMPDEST DUP5 PUSH0 DUP2 MLOAD DUP2 LT PUSH2 0x629 JUMPI PUSH2 0x628 PUSH2 0x18D8 JUMP JUMPDEST JUMPDEST PUSH1 0x20 MUL PUSH1 0x20 ADD ADD MLOAD PUSH1 0x40 MLOAD DUP4 PUSH4 0xFFFFFFFF AND PUSH1 0xE0 SHL DUP2 MSTORE PUSH1 0x4 ADD PUSH2 0x64E SWAP3 SWAP2 SWAP1 PUSH2 0x1905 JUMP JUMPDEST PUSH1 0x20 PUSH1 0x40 MLOAD DUP1 DUP4 SUB DUP2 DUP7 GAS STATICCALL ISZERO DUP1 ISZERO PUSH2 0x669 JUMPI RETURNDATASIZE PUSH0 DUP1 RETURNDATACOPY RETURNDATASIZE PUSH0 REVERT JUMPDEST POP POP POP POP PUSH1 0x40 MLOAD RETURNDATASIZE PUSH1 0x1F NOT PUSH1 0x1F DUP3 ADD AND DUP3 ADD DUP1 PUSH1 0x40 MSTORE POP DUP2 ADD SWAP1 PUSH2 0x68D SWAP2 SWAP1 PUSH2 0x192C JUMP JUMPDEST SWAP1 POP PUSH2 0x6A3 PUSH8 0x917B596B9539E28F PUSH1 0xC0 SHL PUSH2 0xAF4 JUMP JUMPDEST PUSH2 0x6B7 PUSH8 0x57330CCA85C4E5B8 PUSH1 0xC0 SHL PUSH2 0xAF4 JUMP JUMPDEST PUSH0 PUSH1 0x2 PUSH0 SWAP1 SLOAD SWAP1 PUSH2 0x100 EXP SWAP1 DIV PUSH20 0xFFFFFFFFFFFFFFFFFFFFFFFFFFFFFFFFFFFFFFFF AND PUSH20 0xFFFFFFFFFFFFFFFFFFFFFFFFFFFFFFFFFFFFFFFF AND PUSH3 0xFDD58E PUSH2 0x6FC PUSH2 0x108E JUMP JUMPDEST DUP6 PUSH1 0x1 DUP2 MLOAD DUP2 LT PUSH2 0x710 JUMPI PUSH2 0x70F PUSH2 0x18D8 JUMP JUMPDEST JUMPDEST PUSH1 0x20 MUL PUSH1 0x20 ADD ADD MLOAD PUSH1 0x40 MLOAD DUP4 PUSH4 0xFFFFFFFF AND PUSH1 0xE0 SHL DUP2 MSTORE PUSH1 0x4 ADD PUSH2 0x735 SWAP3 SWAP2 SWAP1 PUSH2 0x1905 JUMP JUMPDEST PUSH1 0x20 PUSH1 0x40 MLOAD DUP1 DUP4 SUB DUP2 DUP7 GAS STATICCALL ISZERO DUP1 ISZERO PUSH2 0x750 JUMPI RETURNDATASIZE PUSH0 DUP1 RETURNDATACOPY RETURNDATASIZE PUSH0 REVERT JUMPDEST POP POP POP POP PUSH1 0x40 MLOAD RETURNDATASIZE PUSH1 0x1F NOT PUSH1 0x1F DUP3 ADD AND DUP3 ADD DUP1 PUSH1 0x40 MSTORE POP DUP2 ADD SWAP1 PUSH2 0x774 SWAP2 SWAP1 PUSH2 0x192C JUMP JUMPDEST SWAP1 POP PUSH2 0x78A PUSH8 0x3373E0DA12101E7A PUSH1 0xC0 SHL PUSH2 0xAF4 JUMP JUMPDEST PUSH2 0x79E PUSH8 0x826B221979DB9662 PUSH1 0xC0 SHL PUSH2 0xAF4 JUMP JUMPDEST PUSH0 DUP2 DUP4 PUSH2 0x7AB SWAP2 SWAP1 PUSH2 0x1984 JUMP JUMPDEST SWAP1 POP PUSH2 0x7C1 PUSH8 0x3ADDB7B17689BC31 PUSH1 0xC0 SHL PUSH2 0xAF4 JUMP JUMPDEST PUSH2 0x7D5 PUSH8 0x115AEBD193FEEC72 PUSH1 0xC0 SHL PUSH2 0xAF4 JUMP JUMPDEST DUP1 SWAP5 POP POP POP POP POP SWAP2 SWAP1 POP JUMP JUMPDEST PUSH2 0x7F5 PUSH8 0xD181802DB0983FBA PUSH1 0xC0 SHL PUSH2 0xAF4 JUMP JUMPDEST PUSH2 0x7FD PUSH2 0xEEE JUMP JUMPDEST PUSH2 0x811 PUSH8 0xD1E2B0C49A84FE29 PUSH1 0xC0 SHL PUSH2 0xAF4 JUMP JUMPDEST PUSH2 0x825 PUSH8 0xD4646E11500273AD PUSH1 0xC0 SHL PUSH2 0xAF4 JUMP JUMPDEST PUSH2 0x839 PUSH8 0x9A43F42EEE8BDC81 PUSH1 0xC0 SHL PUSH2 0xAF4 JUMP JUMPDEST PUSH2 0x84D PUSH8 0x944535CDDD47479E PUSH1 0xC0 SHL PUSH2 0xAF4 JUMP JUMPDEST PUSH2 0x855 PUSH2 0x1095 JUMP JUMPDEST JUMP JUMPDEST PUSH0 DUP1 PUSH0 SWAP1 SLOAD SWAP1 PUSH2 0x100 EXP SWAP1 DIV PUSH20 0xFFFFFFFFFFFFFFFFFFFFFFFFFFFFFFFFFFFFFFFF AND SWAP1 POP SWAP1 JUMP JUMPDEST PUSH0 PUSH2 0x893 PUSH8 0xDE51344F08FDF1E5 PUSH1 0xC0 SHL PUSH2 0xAF4 JUMP JUMPDEST PUSH2 0x8A7 PUSH8 0x3A41251C312DED23 PUSH1 0xC0 SHL PUSH2 0xAF4 JUMP JUMPDEST PUSH2 0x8BB PUSH8 0x1A5B644430C5E025 PUSH1 0xC0 SHL PUSH2 0xAF4 JUMP JUMPDEST PUSH1 0x5 PUSH0 DUP5 PUSH20 0xFFFFFFFFFFFFFFFFFFFFFFFFFFFFFFFFFFFFFFFF AND PUSH20 0xFFFFFFFFFFFFFFFFFFFFFFFFFFFFFFFFFFFFFFFF AND DUP2 MSTORE PUSH1 0x20 ADD SWAP1 DUP2 MSTORE PUSH1 0x20 ADD PUSH0 KECCAK256 PUSH0 DUP4 DUP2 MSTORE PUSH1 0x20 ADD SWAP1 DUP2 MSTORE PUSH1 0x20 ADD PUSH0 KECCAK256 SLOAD SWAP1 POP SWAP3 SWAP2 POP POP JUMP JUMPDEST PUSH2 0x924 PUSH8 0x8F0E15C96B311778 PUSH1 0xC0 SHL PUSH2 0xAF4 JUMP JUMPDEST PUSH2 0x92C PUSH2 0xAF7 JUMP JUMPDEST PUSH2 0x940 PUSH8 0x433FA224CA2A8D90 PUSH1 0xC0 SHL PUSH2 0xAF4 JUMP JUMPDEST PUSH2 0x954 PUSH8 0xDFDA25567265612B PUSH1 0xC0 SHL PUSH2 0xAF4 JUMP JUMPDEST PUSH2 0x968 PUSH8 0xC40433F403600FC1 PUSH1 0xC0 SHL PUSH2 0xAF4 JUMP JUMPDEST PUSH2 0x97C PUSH8 0xB0F1398298849DFE PUSH1 0xC0 SHL PUSH2 0xAF4 JUMP JUMPDEST PUSH2 0x990 PUSH8 0x2A617CE017221EEA PUSH1 0xC0 SHL PUSH2 0xAF4 JUMP JUMPDEST PUSH0 DUP2 GT PUSH2 0x9D2 JUMPI PUSH1 0x40 MLOAD PUSH32 0x8C379A000000000000000000000000000000000000000000000000000000000 DUP2 MSTORE PUSH1 0x4 ADD PUSH2 0x9C9 SWAP1 PUSH2 0x1A01 JUMP JUMPDEST PUSH1 0x40 MLOAD DUP1 SWAP2 SUB SWAP1 REVERT JUMPDEST PUSH2 0x9E6 PUSH8 0x3DD900560783E530 PUSH1 0xC0 SHL PUSH2 0xAF4 JUMP JUMPDEST PUSH2 0x9FA PUSH8 0x3FA569D65C1697FB PUSH1 0xC0 SHL PUSH2 0xAF4 JUMP JUMPDEST PUSH2 0xA0E PUSH8 0x156DE9E69F939FC9 PUSH1 0xC0 SHL PUSH2 0xAF4 JUMP JUMPDEST PUSH2 0xA18 DUP3 DUP3 PUSH2 0x10F7 JUMP JUMPDEST POP POP JUMP JUMPDEST PUSH2 0xA24 PUSH2 0xEEE JUMP JUMPDEST PUSH0 PUSH20 0xFFFFFFFFFFFFFFFFFFFFFFFFFFFFFFFFFFFFFFFF AND DUP2 PUSH20 0xFFFFFFFFFFFFFFFFFFFFFFFFFFFFFFFFFFFFFFFF AND SUB PUSH2 0xA92 JUMPI PUSH1 0x40 MLOAD PUSH32 0x8C379A000000000000000000000000000000000000000000000000000000000 DUP2 MSTORE PUSH1 0x4 ADD PUSH2 0xA89 SWAP1 PUSH2 0x1A8F JUMP JUMPDEST PUSH1 0x40 MLOAD DUP1 SWAP2 SUB SWAP1 REVERT JUMPDEST PUSH2 0xA9B DUP2 PUSH2 0xFCD JUMP JUMPDEST POP JUMP JUMPDEST PUSH0 PUSH2 0xAB3 PUSH8 0x9C9F8B4CF9C0765B PUSH1 0xC0 SHL PUSH2 0xAF4 JUMP JUMPDEST PUSH2 0xAC7 PUSH8 0x9B2DE7FA0F67AB4E PUSH1 0xC0 SHL PUSH2 0xAF4 JUMP JUMPDEST PUSH2 0xADB PUSH8 0x437B353F12B12F71 PUSH1 0xC0 SHL PUSH2 0xAF4 JUMP JUMPDEST PUSH1 0x4 PUSH0 DUP4 DUP2 MSTORE PUSH1 0x20 ADD SWAP1 DUP2 MSTORE PUSH1 0x20 ADD PUSH0 KECCAK256 SLOAD SWAP1 POP SWAP2 SWAP1 POP JUMP JUMPDEST POP JUMP JUMPDEST PUSH2 0xAFF PUSH2 0x4A5 JUMP JUMPDEST ISZERO PUSH2 0xB3F JUMPI PUSH1 0x40 MLOAD PUSH32 0x8C379A000000000000000000000000000000000000000000000000000000000 DUP2 MSTORE PUSH1 0x4 ADD PUSH2 0xB36 SWAP1 PUSH2 0x1AF7 JUMP JUMPDEST PUSH1 0x40 MLOAD DUP1 SWAP2 SUB SWAP1 REVERT JUMPDEST JUMP JUMPDEST PUSH2 0xB55 PUSH8 0xF1E57D7063BFB989 PUSH1 0xC0 SHL PUSH2 0xAF4 JUMP JUMPDEST PUSH2 0xB69 PUSH8 0xDF0C39ADB634018C PUSH1 0xC0 SHL PUSH2 0xAF4 JUMP JUMPDEST PUSH2 0xB7D PUSH8 0xD5F91120B4D62E4A PUSH1 0xC0 SHL PUSH2 0xAF4 JUMP JUMPDEST PUSH0 PUSH2 0xB87 DUP3 PUSH2 0x1282 JUMP JUMPDEST SWAP1 POP PUSH2 0xB9D PUSH8 0x3DB5F4486345C9CA PUSH1 0xC0 SHL PUSH2 0xAF4 JUMP JUMPDEST PUSH2 0xBB1 PUSH8 0x3F7FE109773699EF PUSH1 0xC0 SHL PUSH2 0xAF4 JUMP JUMPDEST PUSH0 PUSH1 0x5 PUSH0 PUSH2 0xBBD PUSH2 0x108E JUMP JUMPDEST PUSH20 0xFFFFFFFFFFFFFFFFFFFFFFFFFFFFFFFFFFFFFFFF AND PUSH20 0xFFFFFFFFFFFFFFFFFFFFFFFFFFFFFFFFFFFFFFFF AND DUP2 MSTORE PUSH1 0x20 ADD SWAP1 DUP2 MSTORE PUSH1 0x20 ADD PUSH0 KECCAK256 PUSH0 DUP5 DUP2 MSTORE PUSH1 0x20 ADD SWAP1 DUP2 MSTORE PUSH1 0x20 ADD PUSH0 KECCAK256 SLOAD PUSH1 0x3 PUSH0 DUP6 DUP2 MSTORE PUSH1 0x20 ADD SWAP1 DUP2 MSTORE PUSH1 0x20 ADD PUSH0 KECCAK256 SLOAD PUSH2 0xC22 SWAP2 SWAP1 PUSH2 0x1B15 JUMP JUMPDEST SWAP1 POP PUSH2 0xC38 PUSH8 0x34EB8FA2ECEEB010 PUSH1 0xC0 SHL PUSH2 0xAF4 JUMP JUMPDEST PUSH2 0xC4C PUSH8 0x8DEFEE4ABCB08A62 PUSH1 0xC0 SHL PUSH2 0xAF4 JUMP JUMPDEST PUSH0 PUSH2 0x2710 DUP3 DUP5 PUSH2 0xC5C SWAP2 SWAP1 PUSH2 0x1B48 JUMP JUMPDEST PUSH2 0xC66 SWAP2 SWAP1 PUSH2 0x1BB6 JUMP JUMPDEST SWAP1 POP PUSH2 0xC7C PUSH8 0x22ACBFC5BB2CD45D PUSH1 0xC0 SHL PUSH2 0xAF4 JUMP JUMPDEST PUSH2 0xC90 PUSH8 0xB97B00DD472E86E PUSH1 0xC0 SHL PUSH2 0xAF4 JUMP JUMPDEST PUSH2 0xCA4 PUSH8 0x63DE5E1F4BCE872C PUSH1 0xC0 SHL PUSH2 0xAF4 JUMP JUMPDEST PUSH0 DUP2 GT PUSH2 0xCE6 JUMPI PUSH1 0x40 MLOAD PUSH32 0x8C379A000000000000000000000000000000000000000000000000000000000 DUP2 MSTORE PUSH1 0x4 ADD PUSH2 0xCDD SWAP1 PUSH2 0x1C30 JUMP JUMPDEST PUSH1 0x40 MLOAD DUP1 SWAP2 SUB SWAP1 REVERT JUMPDEST PUSH2 0xCFA PUSH8 0xF49FF6DEAA4A5714 PUSH1 0xC0 SHL PUSH2 0xAF4 JUMP JUMPDEST PUSH2 0xD0E PUSH8 0xB32413BA5E9F4988 PUSH1 0xC0 SHL PUSH2 0xAF4 JUMP JUMPDEST PUSH1 0x3 PUSH0 DUP6 DUP2 MSTORE PUSH1 0x20 ADD SWAP1 DUP2 MSTORE PUSH1 0x20 ADD PUSH0 KECCAK256 SLOAD PUSH1 0x5 PUSH0 PUSH2 0xD2B PUSH2 0x108E JUMP JUMPDEST PUSH20 0xFFFFFFFFFFFFFFFFFFFFFFFFFFFFFFFFFFFFFFFF AND PUSH20 0xFFFFFFFFFFFFFFFFFFFFFFFFFFFFFFFFFFFFFFFF AND DUP2 MSTORE PUSH1 0x20 ADD SWAP1 DUP2 MSTORE PUSH1 0x20 ADD PUSH0 KECCAK256 PUSH0 DUP7 DUP2 MSTORE PUSH1 0x20 ADD SWAP1 DUP2 MSTORE PUSH1 0x20 ADD PUSH0 KECCAK256 DUP2 SWAP1 SSTORE POP PUSH2 0xD8B PUSH8 0x9EB752B5BA6382FC PUSH1 0xC0 SHL PUSH2 0xAF4 JUMP JUMPDEST DUP1 PUSH1 0x4 PUSH0 DUP7 DUP2 MSTORE PUSH1 0x20 ADD SWAP1 DUP2 MSTORE PUSH1 0x20 ADD PUSH0 KECCAK256 PUSH0 DUP3 DUP3 SLOAD PUSH2 0xDAB SWAP2 SWAP1 PUSH2 0x1984 JUMP JUMPDEST SWAP3 POP POP DUP2 SWAP1 SSTORE POP PUSH2 0xDC6 PUSH8 0x21A9A75DC8A4DBD7 PUSH1 0xC0 SHL PUSH2 0xAF4 JUMP JUMPDEST PUSH2 0xDDA PUSH8 0x9B7E5630602A9E97 PUSH1 0xC0 SHL PUSH2 0xAF4 JUMP JUMPDEST PUSH32 0xDF273CB619D95419A9CD0EC88123A0538C85064229BAA6363788F743FFF90DEB PUSH2 0xE03 PUSH2 0x108E JUMP JUMPDEST DUP6 DUP4 PUSH1 0x40 MLOAD PUSH2 0xE14 SWAP4 SWAP3 SWAP2 SWAP1 PUSH2 0x1C4E JUMP JUMPDEST PUSH1 0x40 MLOAD DUP1 SWAP2 SUB SWAP1 LOG1 PUSH2 0xE30 PUSH8 0x3ACCEB86DD25E1F0 PUSH1 0xC0 SHL PUSH2 0xAF4 JUMP JUMPDEST PUSH2 0xE44 PUSH8 0xE30AACFCFBC4B123 PUSH1 0xC0 SHL PUSH2 0xAF4 JUMP JUMPDEST PUSH1 0x1 PUSH0 SWAP1 SLOAD SWAP1 PUSH2 0x100 EXP SWAP1 DIV PUSH20 0xFFFFFFFFFFFFFFFFFFFFFFFFFFFFFFFFFFFFFFFF AND PUSH20 0xFFFFFFFFFFFFFFFFFFFFFFFFFFFFFFFFFFFFFFFF AND PUSH4 0xA9059CBB PUSH2 0xE89 PUSH2 0x108E JUMP JUMPDEST DUP4 PUSH1 0x40 MLOAD DUP4 PUSH4 0xFFFFFFFF AND PUSH1 0xE0 SHL DUP2 MSTORE PUSH1 0x4 ADD PUSH2 0xEA7 SWAP3 SWAP2 SWAP1 PUSH2 0x1905 JUMP JUMPDEST PUSH1 0x20 PUSH1 0x40 MLOAD DUP1 DUP4 SUB DUP2 PUSH0 DUP8 GAS CALL ISZERO DUP1 ISZERO PUSH2 0xEC3 JUMPI RETURNDATASIZE PUSH0 DUP1 RETURNDATACOPY RETURNDATASIZE PUSH0 REVERT JUMPDEST POP POP POP POP PUSH1 0x40 MLOAD RETURNDATASIZE PUSH1 0x1F NOT PUSH1 0x1F DUP3 ADD AND DUP3 ADD DUP1 PUSH1 0x40 MSTORE POP DUP2 ADD SWAP1 PUSH2 0xEE7 SWAP2 SWAP1 PUSH2 0x1CAD JUMP JUMPDEST POP POP POP POP POP JUMP JUMPDEST PUSH2 0xEF6 PUSH2 0x108E JUMP JUMPDEST PUSH20 0xFFFFFFFFFFFFFFFFFFFFFFFFFFFFFFFFFFFFFFFF AND PUSH2 0xF14 PUSH2 0x857 JUMP JUMPDEST PUSH20 0xFFFFFFFFFFFFFFFFFFFFFFFFFFFFFFFFFFFFFFFF AND EQ PUSH2 0xF6A JUMPI PUSH1 0x40 MLOAD PUSH32 0x8C379A000000000000000000000000000000000000000000000000000000000 DUP2 MSTORE PUSH1 0x4 ADD PUSH2 0xF61 SWAP1 PUSH2 0x1D22 JUMP JUMPDEST PUSH1 0x40 MLOAD DUP1 SWAP2 SUB SWAP1 REVERT JUMPDEST JUMP JUMPDEST PUSH2 0xF74 PUSH2 0x1411 JUMP JUMPDEST PUSH0 DUP1 PUSH1 0x14 PUSH2 0x100 EXP DUP2 SLOAD DUP2 PUSH1 0xFF MUL NOT AND SWAP1 DUP4 ISZERO ISZERO MUL OR SWAP1 SSTORE POP PUSH32 0x5DB9EE0A495BF2E6FF9C91A7834C1BA4FDD244A5E8AA4E537BD38AEAE4B073AA PUSH2 0xFB6 PUSH2 0x108E JUMP JUMPDEST PUSH1 0x40 MLOAD PUSH2 0xFC3 SWAP2 SWAP1 PUSH2 0x1563 JUMP JUMPDEST PUSH1 0x40 MLOAD DUP1 SWAP2 SUB SWAP1 LOG1 JUMP JUMPDEST PUSH0 DUP1 PUSH0 SWAP1 SLOAD SWAP1 PUSH2 0x100 EXP SWAP1 DIV PUSH20 0xFFFFFFFFFFFFFFFFFFFFFFFFFFFFFFFFFFFFFFFF AND SWAP1 POP DUP2 PUSH0 DUP1 PUSH2 0x100 EXP DUP2 SLOAD DUP2 PUSH20 0xFFFFFFFFFFFFFFFFFFFFFFFFFFFFFFFFFFFFFFFF MUL NOT AND SWAP1 DUP4 PUSH20 0xFFFFFFFFFFFFFFFFFFFFFFFFFFFFFFFFFFFFFFFF AND MUL OR SWAP1 SSTORE POP DUP2 PUSH20 0xFFFFFFFFFFFFFFFFFFFFFFFFFFFFFFFFFFFFFFFF AND DUP2 PUSH20 0xFFFFFFFFFFFFFFFFFFFFFFFFFFFFFFFFFFFFFFFF AND PUSH32 0x8BE0079C531659141344CD1FD0A4F28419497F9722A3DAAFE3B4186F6B6457E0 PUSH1 0x40 MLOAD PUSH1 0x40 MLOAD DUP1 SWAP2 SUB SWAP1 LOG3 POP POP JUMP JUMPDEST PUSH0 CALLER SWAP1 POP SWAP1 JUMP JUMPDEST PUSH2 0x109D PUSH2 0xAF7 JUMP JUMPDEST PUSH1 0x1 PUSH0 PUSH1 0x14 PUSH2 0x100 EXP DUP2 SLOAD DUP2 PUSH1 0xFF MUL NOT AND SWAP1 DUP4 ISZERO ISZERO MUL OR SWAP1 SSTORE POP PUSH32 0x62E78CEA01BEE320CD4E420270B5EA74000D11B0C9F74754EBDBFC544B05A258 PUSH2 0x10E0 PUSH2 0x108E JUMP JUMPDEST PUSH1 0x40 MLOAD PUSH2 0x10ED SWAP2 SWAP1 PUSH2 0x1563 JUMP JUMPDEST PUSH1 0x40 MLOAD DUP1 SWAP2 SUB SWAP1 LOG1 JUMP JUMPDEST PUSH2 0x110B PUSH8 0x3ABBC9D4334A2420 PUSH1 0xC0 SHL PUSH2 0xAF4 JUMP JUMPDEST PUSH2 0x111F PUSH8 0x25C34845C6A1C36B PUSH1 0xC0 SHL PUSH2 0xAF4 JUMP JUMPDEST DUP1 PUSH1 0x3 PUSH0 DUP5 DUP2 MSTORE PUSH1 0x20 ADD SWAP1 DUP2 MSTORE PUSH1 0x20 ADD PUSH0 KECCAK256 PUSH0 DUP3 DUP3 SLOAD PUSH2 0x113F SWAP2 SWAP1 PUSH2 0x1984 JUMP JUMPDEST SWAP3 POP POP DUP2 SWAP1 SSTORE POP PUSH2 0x115A PUSH8 0xA0A0DE84BC9CDFBB PUSH1 0xC0 SHL PUSH2 0xAF4 JUMP JUMPDEST PUSH2 0x116E PUSH8 0xC285D74FB023A75 PUSH1 0xC0 SHL PUSH2 0xAF4 JUMP JUMPDEST PUSH32 0x5677B5D4CF976AC32DEFBD95A6A5AAF0D1FEE450A11FC26F3C11AAE6E6C33D06 PUSH2 0x1197 PUSH2 0x108E JUMP JUMPDEST DUP4 DUP4 PUSH1 0x40 MLOAD PUSH2 0x11A8 SWAP4 SWAP3 SWAP2 SWAP1 PUSH2 0x1C4E JUMP JUMPDEST PUSH1 0x40 MLOAD DUP1 SWAP2 SUB SWAP1 LOG1 PUSH2 0x11C4 PUSH8 0x91D22211F8598FBA PUSH1 0xC0 SHL PUSH2 0xAF4 JUMP JUMPDEST PUSH2 0x11D8 PUSH8 0xB45D84B80B052BE7 PUSH1 0xC0 SHL PUSH2 0xAF4 JUMP JUMPDEST PUSH1 0x1 PUSH0 SWAP1 SLOAD SWAP1 PUSH2 0x100 EXP SWAP1 DIV PUSH20 0xFFFFFFFFFFFFFFFFFFFFFFFFFFFFFFFFFFFFFFFF AND PUSH20 0xFFFFFFFFFFFFFFFFFFFFFFFFFFFFFFFFFFFFFFFF AND PUSH4 0x23B872DD PUSH2 0x121D PUSH2 0x108E JUMP JUMPDEST ADDRESS DUP5 PUSH1 0x40 MLOAD DUP5 PUSH4 0xFFFFFFFF AND PUSH1 0xE0 SHL DUP2 MSTORE PUSH1 0x4 ADD PUSH2 0x123D SWAP4 SWAP3 SWAP2 SWAP1 PUSH2 0x1D40 JUMP JUMPDEST PUSH1 0x20 PUSH1 0x40 MLOAD DUP1 DUP4 SUB DUP2 PUSH0 DUP8 GAS CALL ISZERO DUP1 ISZERO PUSH2 0x1259 JUMPI RETURNDATASIZE PUSH0 DUP1 RETURNDATACOPY RETURNDATASIZE PUSH0 REVERT JUMPDEST POP POP POP POP PUSH1 0x40 MLOAD RETURNDATASIZE PUSH1 0x1F NOT PUSH1 0x1F DUP3 ADD AND DUP3 ADD DUP1 PUSH1 0x40 MSTORE POP DUP2 ADD SWAP1 PUSH2 0x127D SWAP2 SWAP1 PUSH2 0x1CAD JUMP JUMPDEST POP POP POP JUMP JUMPDEST PUSH0 PUSH2 0x1297 PUSH8 0xF70E0922B45C2549 PUSH1 0xC0 SHL PUSH2 0xAF4 JUMP JUMPDEST PUSH2 0x12AB PUSH8 0xF10A86AB09AA44E9 PUSH1 0xC0 SHL PUSH2 0xAF4 JUMP JUMPDEST PUSH2 0x12BF PUSH8 0x4839CC3D9EF3D1A8 PUSH1 0xC0 SHL PUSH2 0xAF4 JUMP JUMPDEST PUSH0 PUSH2 0x12C9 DUP4 PUSH2 0x4CD JUMP JUMPDEST SWAP1 POP PUSH2 0x12DF PUSH8 0xB906FCC3A099CCEB PUSH1 0xC0 SHL PUSH2 0xAF4 JUMP JUMPDEST PUSH2 0x12F3 PUSH8 0xE7F33C783B4CF9AC PUSH1 0xC0 SHL PUSH2 0xAF4 JUMP JUMPDEST PUSH0 PUSH1 0x2 PUSH0 SWAP1 SLOAD SWAP1 PUSH2 0x100 EXP SWAP1 DIV PUSH20 0xFFFFFFFFFFFFFFFFFFFFFFFFFFFFFFFFFFFFFFFF AND PUSH20 0xFFFFFFFFFFFFFFFFFFFFFFFFFFFFFFFFFFFFFFFF AND PUSH4 0xD6E0DBDA DUP6 PUSH1 0x40 MLOAD DUP3 PUSH4 0xFFFFFFFF AND PUSH1 0xE0 SHL DUP2 MSTORE PUSH1 0x4 ADD PUSH2 0x134E SWAP2 SWAP1 PUSH2 0x14D8 JUMP JUMPDEST PUSH1 0x20 PUSH1 0x40 MLOAD DUP1 DUP4 SUB DUP2 DUP7 GAS STATICCALL ISZERO DUP1 ISZERO PUSH2 0x1369 JUMPI RETURNDATASIZE PUSH0 DUP1 RETURNDATACOPY RETURNDATASIZE PUSH0 REVERT JUMPDEST POP POP POP POP PUSH1 0x40 MLOAD RETURNDATASIZE PUSH1 0x1F NOT PUSH1 0x1F DUP3 ADD AND DUP3 ADD DUP1 PUSH1 0x40 MSTORE POP DUP2 ADD SWAP1 PUSH2 0x138D SWAP2 SWAP1 PUSH2 0x192C JUMP JUMPDEST SWAP1 POP PUSH2 0x13A3 PUSH8 0x571A9CEF0A773D06 PUSH1 0xC0 SHL PUSH2 0xAF4 JUMP JUMPDEST PUSH2 0x13B7 PUSH8 0xDD13EF094DB2BFE2 PUSH1 0xC0 SHL PUSH2 0xAF4 JUMP JUMPDEST PUSH0 DUP2 PUSH1 0x64 DUP5 PUSH2 0x13C6 SWAP2 SWAP1 PUSH2 0x1B48 JUMP JUMPDEST PUSH2 0x13D0 SWAP2 SWAP1 PUSH2 0x1BB6 JUMP JUMPDEST SWAP1 POP PUSH2 0x13E6 PUSH8 0xA92A1909472542F8 PUSH1 0xC0 SHL PUSH2 0xAF4 JUMP JUMPDEST PUSH2 0x13FA PUSH8 0xE6D050968F5F6798 PUSH1 0xC0 SHL PUSH2 0xAF4 JUMP JUMPDEST PUSH1 0x64 DUP2 PUSH2 0x1407 SWAP2 SWAP1 PUSH2 0x1B48 JUMP JUMPDEST SWAP4 POP POP POP POP SWAP2 SWAP1 POP JUMP JUMPDEST PUSH2 0x1419 PUSH2 0x4A5 JUMP JUMPDEST PUSH2 0x1458 JUMPI PUSH1 0x40 MLOAD PUSH32 0x8C379A000000000000000000000000000000000000000000000000000000000 DUP2 MSTORE PUSH1 0x4 ADD PUSH2 0x144F SWAP1 PUSH2 0x1DBF JUMP JUMPDEST PUSH1 0x40 MLOAD DUP1 SWAP2 SUB SWAP1 REVERT JUMPDEST JUMP JUMPDEST PUSH0 PUSH1 0x40 MLOAD SWAP1 POP SWAP1 JUMP JUMPDEST PUSH0 DUP1 REVERT JUMPDEST PUSH0 DUP1 REVERT JUMPDEST PUSH0 DUP2 SWAP1 POP SWAP2 SWAP1 POP JUMP JUMPDEST PUSH2 0x147D DUP2 PUSH2 0x146B JUMP JUMPDEST DUP2 EQ PUSH2 0x1487 JUMPI PUSH0 DUP1 REVERT JUMPDEST POP JUMP JUMPDEST PUSH0 DUP2 CALLDATALOAD SWAP1 POP PUSH2 0x1498 DUP2 PUSH2 0x1474 JUMP JUMPDEST SWAP3 SWAP2 POP POP JUMP JUMPDEST PUSH0 PUSH1 0x20 DUP3 DUP5 SUB SLT ISZERO PUSH2 0x14B3 JUMPI PUSH2 0x14B2 PUSH2 0x1463 JUMP JUMPDEST JUMPDEST PUSH0 PUSH2 0x14C0 DUP5 DUP3 DUP6 ADD PUSH2 0x148A JUMP JUMPDEST SWAP2 POP POP SWAP3 SWAP2 POP POP JUMP JUMPDEST PUSH2 0x14D2 DUP2 PUSH2 0x146B JUMP JUMPDEST DUP3 MSTORE POP POP JUMP JUMPDEST PUSH0 PUSH1 0x20 DUP3 ADD SWAP1 POP PUSH2 0x14EB PUSH0 DUP4 ADD DUP5 PUSH2 0x14C9 JUMP JUMPDEST SWAP3 SWAP2 POP POP JUMP JUMPDEST PUSH0 DUP2 ISZERO ISZERO SWAP1 POP SWAP2 SWAP1 POP JUMP JUMPDEST PUSH2 0x1505 DUP2 PUSH2 0x14F1 JUMP JUMPDEST DUP3 MSTORE POP POP JUMP JUMPDEST PUSH0 PUSH1 0x20 DUP3 ADD SWAP1 POP PUSH2 0x151E PUSH0 DUP4 ADD DUP5 PUSH2 0x14FC JUMP JUMPDEST SWAP3 SWAP2 POP POP JUMP JUMPDEST PUSH0 PUSH20 0xFFFFFFFFFFFFFFFFFFFFFFFFFFFFFFFFFFFFFFFF DUP3 AND SWAP1 POP SWAP2 SWAP1 POP JUMP JUMPDEST PUSH0 PUSH2 0x154D DUP3 PUSH2 0x1524 JUMP JUMPDEST SWAP1 POP SWAP2 SWAP1 POP JUMP JUMPDEST PUSH2 0x155D DUP2 PUSH2 0x1543 JUMP JUMPDEST DUP3 MSTORE POP POP JUMP JUMPDEST PUSH0 PUSH1 0x20 DUP3 ADD SWAP1 POP PUSH2 0x1576 PUSH0 DUP4 ADD DUP5 PUSH2 0x1554 JUMP JUMPDEST SWAP3 SWAP2 POP POP JUMP JUMPDEST PUSH2 0x1585 DUP2 PUSH2 0x1543 JUMP JUMPDEST DUP2 EQ PUSH2 0x158F JUMPI PUSH0 DUP1 REVERT JUMPDEST POP JUMP JUMPDEST PUSH0 DUP2 CALLDATALOAD SWAP1 POP PUSH2 0x15A0 DUP2 PUSH2 0x157C JUMP JUMPDEST SWAP3 SWAP2 POP POP JUMP JUMPDEST PUSH0 DUP1 PUSH1 0x40 DUP4 DUP6 SUB SLT ISZERO PUSH2 0x15BC JUMPI PUSH2 0x15BB PUSH2 0x1463 JUMP JUMPDEST JUMPDEST PUSH0 PUSH2 0x15C9 DUP6 DUP3 DUP7 ADD PUSH2 0x1592 JUMP JUMPDEST SWAP3 POP POP PUSH1 0x20 PUSH2 0x15DA DUP6 DUP3 DUP7 ADD PUSH2 0x148A JUMP JUMPDEST SWAP2 POP POP SWAP3 POP SWAP3 SWAP1 POP JUMP JUMPDEST PUSH0 DUP1 PUSH1 0x40 DUP4 DUP6 SUB SLT ISZERO PUSH2 0x15FA JUMPI PUSH2 0x15F9 PUSH2 0x1463 JUMP JUMPDEST JUMPDEST PUSH0 PUSH2 0x1607 DUP6 DUP3 DUP7 ADD PUSH2 0x148A JUMP JUMPDEST SWAP3 POP POP PUSH1 0x20 PUSH2 0x1618 DUP6 DUP3 DUP7 ADD PUSH2 0x148A JUMP JUMPDEST SWAP2 POP POP SWAP3 POP SWAP3 SWAP1 POP JUMP JUMPDEST PUSH0 PUSH1 0x20 DUP3 DUP5 SUB SLT ISZERO PUSH2 0x1637 JUMPI PUSH2 0x1636 PUSH2 0x1463 JUMP JUMPDEST JUMPDEST PUSH0 PUSH2 0x1644 DUP5 DUP3 DUP6 ADD PUSH2 0x1592 JUMP JUMPDEST SWAP2 POP POP SWAP3 SWAP2 POP POP JUMP JUMPDEST PUSH0 DUP3 DUP3 MSTORE PUSH1 0x20 DUP3 ADD SWAP1 POP SWAP3 SWAP2 POP POP JUMP JUMPDEST PUSH32 0x52454A5556453A204E6F2070726F64756374206561726E696E67000000000000 PUSH0 DUP3 ADD MSTORE POP JUMP JUMPDEST PUSH0 PUSH2 0x1691 PUSH1 0x1A DUP4 PUSH2 0x164D JUMP JUMPDEST SWAP2 POP PUSH2 0x169C DUP3 PUSH2 0x165D JUMP JUMPDEST PUSH1 0x20 DUP3 ADD SWAP1 POP SWAP2 SWAP1 POP JUMP JUMPDEST PUSH0 PUSH1 0x20 DUP3 ADD SWAP1 POP DUP2 DUP2 SUB PUSH0 DUP4 ADD MSTORE PUSH2 0x16BE DUP2 PUSH2 0x1685 JUMP JUMPDEST SWAP1 POP SWAP2 SWAP1 POP JUMP JUMPDEST PUSH32 0x52454A5556453A204E6F2073686172642062616C616E63650000000000000000 PUSH0 DUP3 ADD MSTORE POP JUMP JUMPDEST PUSH0 PUSH2 0x16F9 PUSH1 0x18 DUP4 PUSH2 0x164D JUMP JUMPDEST SWAP2 POP PUSH2 0x1704 DUP3 PUSH2 0x16C5 JUMP JUMPDEST PUSH1 0x20 DUP3 ADD SWAP1 POP SWAP2 SWAP1 POP JUMP JUMPDEST PUSH0 PUSH1 0x20 DUP3 ADD SWAP1 POP DUP2 DUP2 SUB PUSH0 DUP4 ADD MSTORE PUSH2 0x1726 DUP2 PUSH2 0x16ED JUMP JUMPDEST SWAP1 POP SWAP2 SWAP1 POP JUMP JUMPDEST PUSH0 DUP1 REVERT JUMPDEST PUSH0 PUSH1 0x1F NOT PUSH1 0x1F DUP4 ADD AND SWAP1 POP SWAP2 SWAP1 POP JUMP JUMPDEST PUSH32 0x4E487B7100000000000000000000000000000000000000000000000000000000 PUSH0 MSTORE PUSH1 0x41 PUSH1 0x4 MSTORE PUSH1 0x24 PUSH0 REVERT JUMPDEST PUSH2 0x1777 DUP3 PUSH2 0x1731 JUMP JUMPDEST DUP2 ADD DUP2 DUP2 LT PUSH8 0xFFFFFFFFFFFFFFFF DUP3 GT OR ISZERO PUSH2 0x1796 JUMPI PUSH2 0x1795 PUSH2 0x1741 JUMP JUMPDEST JUMPDEST DUP1 PUSH1 0x40 MSTORE POP POP POP JUMP JUMPDEST PUSH0 PUSH2 0x17A8 PUSH2 0x145A JUMP JUMPDEST SWAP1 POP PUSH2 0x17B4 DUP3 DUP3 PUSH2 0x176E JUMP JUMPDEST SWAP2 SWAP1 POP JUMP JUMPDEST PUSH0 PUSH8 0xFFFFFFFFFFFFFFFF DUP3 GT ISZERO PUSH2 0x17D3 JUMPI PUSH2 0x17D2 PUSH2 0x1741 JUMP JUMPDEST JUMPDEST PUSH1 0x20 DUP3 MUL SWAP1 POP PUSH1 0x20 DUP2 ADD SWAP1 POP SWAP2 SWAP1 POP JUMP JUMPDEST PUSH0 DUP1 REVERT JUMPDEST PUSH0 DUP2 MLOAD SWAP1 POP PUSH2 0x17F6 DUP2 PUSH2 0x1474 JUMP JUMPDEST SWAP3 SWAP2 POP POP JUMP JUMPDEST PUSH0 PUSH2 0x180E PUSH2 0x1809 DUP5 PUSH2 0x17B9 JUMP JUMPDEST PUSH2 0x179F JUMP JUMPDEST SWAP1 POP DUP1 DUP4 DUP3 MSTORE PUSH1 0x20 DUP3 ADD SWAP1 POP PUSH1 0x20 DUP5 MUL DUP4 ADD DUP6 DUP2 GT ISZERO PUSH2 0x1831 JUMPI PUSH2 0x1830 PUSH2 0x17E4 JUMP JUMPDEST JUMPDEST DUP4 JUMPDEST DUP2 DUP2 LT ISZERO PUSH2 0x185A JUMPI DUP1 PUSH2 0x1846 DUP9 DUP3 PUSH2 0x17E8 JUMP JUMPDEST DUP5 MSTORE PUSH1 0x20 DUP5 ADD SWAP4 POP POP PUSH1 0x20 DUP2 ADD SWAP1 POP PUSH2 0x1833 JUMP JUMPDEST POP POP POP SWAP4 SWAP3 POP POP POP JUMP JUMPDEST PUSH0 DUP3 PUSH1 0x1F DUP4 ADD SLT PUSH2 0x1878 JUMPI PUSH2 0x1877 PUSH2 0x172D JUMP JUMPDEST JUMPDEST DUP2 MLOAD PUSH2 0x1888 DUP5 DUP3 PUSH1 0x20 DUP7 ADD PUSH2 0x17FC JUMP JUMPDEST SWAP2 POP POP SWAP3 SWAP2 POP POP JUMP JUMPDEST PUSH0 PUSH1 0x20 DUP3 DUP5 SUB SLT ISZERO PUSH2 0x18A6 JUMPI PUSH2 0x18A5 PUSH2 0x1463 JUMP JUMPDEST JUMPDEST PUSH0 DUP3 ADD MLOAD PUSH8 0xFFFFFFFFFFFFFFFF DUP2 GT ISZERO PUSH2 0x18C3 JUMPI PUSH2 0x18C2 PUSH2 0x1467 JUMP JUMPDEST JUMPDEST PUSH2 0x18CF DUP5 DUP3 DUP6 ADD PUSH2 0x1864 JUMP JUMPDEST SWAP2 POP POP SWAP3 SWAP2 POP POP JUMP JUMPDEST PUSH32 0x4E487B7100000000000000000000000000000000000000000000000000000000 PUSH0 MSTORE PUSH1 0x32 PUSH1 0x4 MSTORE PUSH1 0x24 PUSH0 REVERT JUMPDEST PUSH0 PUSH1 0x40 DUP3 ADD SWAP1 POP PUSH2 0x1918 PUSH0 DUP4 ADD DUP6 PUSH2 0x1554 JUMP JUMPDEST PUSH2 0x1925 PUSH1 0x20 DUP4 ADD DUP5 PUSH2 0x14C9 JUMP JUMPDEST SWAP4 SWAP3 POP POP POP JUMP JUMPDEST PUSH0 PUSH1 0x20 DUP3 DUP5 SUB SLT ISZERO PUSH2 0x1941 JUMPI PUSH2 0x1940 PUSH2 0x1463 JUMP JUMPDEST JUMPDEST PUSH0 PUSH2 0x194E DUP5 DUP3 DUP6 ADD PUSH2 0x17E8 JUMP JUMPDEST SWAP2 POP POP SWAP3 SWAP2 POP POP JUMP JUMPDEST PUSH32 0x4E487B7100000000000000000000000000000000000000000000000000000000 PUSH0 MSTORE PUSH1 0x11 PUSH1 0x4 MSTORE PUSH1 0x24 PUSH0 REVERT JUMPDEST PUSH0 PUSH2 0x198E DUP3 PUSH2 0x146B JUMP JUMPDEST SWAP2 POP PUSH2 0x1999 DUP4 PUSH2 0x146B JUMP JUMPDEST SWAP3 POP DUP3 DUP3 ADD SWAP1 POP DUP1 DUP3 GT ISZERO PUSH2 0x19B1 JUMPI PUSH2 0x19B0 PUSH2 0x1957 JUMP JUMPDEST JUMPDEST SWAP3 SWAP2 POP POP JUMP JUMPDEST PUSH32 0x52454A5556453A205A65726F20616D6F756E7400000000000000000000000000 PUSH0 DUP3 ADD MSTORE POP JUMP JUMPDEST PUSH0 PUSH2 0x19EB PUSH1 0x13 DUP4 PUSH2 0x164D JUMP JUMPDEST SWAP2 POP PUSH2 0x19F6 DUP3 PUSH2 0x19B7 JUMP JUMPDEST PUSH1 0x20 DUP3 ADD SWAP1 POP SWAP2 SWAP1 POP JUMP JUMPDEST PUSH0 PUSH1 0x20 DUP3 ADD SWAP1 POP DUP2 DUP2 SUB PUSH0 DUP4 ADD MSTORE PUSH2 0x1A18 DUP2 PUSH2 0x19DF JUMP JUMPDEST SWAP1 POP SWAP2 SWAP1 POP JUMP JUMPDEST PUSH32 0x4F776E61626C653A206E6577206F776E657220697320746865207A65726F2061 PUSH0 DUP3 ADD MSTORE PUSH32 0x6464726573730000000000000000000000000000000000000000000000000000 PUSH1 0x20 DUP3 ADD MSTORE POP JUMP JUMPDEST PUSH0 PUSH2 0x1A79 PUSH1 0x26 DUP4 PUSH2 0x164D JUMP JUMPDEST SWAP2 POP PUSH2 0x1A84 DUP3 PUSH2 0x1A1F JUMP JUMPDEST PUSH1 0x40 DUP3 ADD SWAP1 POP SWAP2 SWAP1 POP JUMP JUMPDEST PUSH0 PUSH1 0x20 DUP3 ADD SWAP1 POP DUP2 DUP2 SUB PUSH0 DUP4 ADD MSTORE PUSH2 0x1AA6 DUP2 PUSH2 0x1A6D JUMP JUMPDEST SWAP1 POP SWAP2 SWAP1 POP JUMP JUMPDEST PUSH32 0x5061757361626C653A2070617573656400000000000000000000000000000000 PUSH0 DUP3 ADD MSTORE POP JUMP JUMPDEST PUSH0 PUSH2 0x1AE1 PUSH1 0x10 DUP4 PUSH2 0x164D JUMP JUMPDEST SWAP2 POP PUSH2 0x1AEC DUP3 PUSH2 0x1AAD JUMP JUMPDEST PUSH1 0x20 DUP3 ADD SWAP1 POP SWAP2 SWAP1 POP JUMP JUMPDEST PUSH0 PUSH1 0x20 DUP3 ADD SWAP1 POP DUP2 DUP2 SUB PUSH0 DUP4 ADD MSTORE PUSH2 0x1B0E DUP2 PUSH2 0x1AD5 JUMP JUMPDEST SWAP1 POP SWAP2 SWAP1 POP JUMP JUMPDEST PUSH0 PUSH2 0x1B1F DUP3 PUSH2 0x146B JUMP JUMPDEST SWAP2 POP PUSH2 0x1B2A DUP4 PUSH2 0x146B JUMP JUMPDEST SWAP3 POP DUP3 DUP3 SUB SWAP1 POP DUP2 DUP2 GT ISZERO PUSH2 0x1B42 JUMPI PUSH2 0x1B41 PUSH2 0x1957 JUMP JUMPDEST JUMPDEST SWAP3 SWAP2 POP POP JUMP JUMPDEST PUSH0 PUSH2 0x1B52 DUP3 PUSH2 0x146B JUMP JUMPDEST SWAP2 POP PUSH2 0x1B5D DUP4 PUSH2 0x146B JUMP JUMPDEST SWAP3 POP DUP3 DUP3 MUL PUSH2 0x1B6B DUP2 PUSH2 0x146B JUMP JUMPDEST SWAP2 POP DUP3 DUP3 DIV DUP5 EQ DUP4 ISZERO OR PUSH2 0x1B82 JUMPI PUSH2 0x1B81 PUSH2 0x1957 JUMP JUMPDEST JUMPDEST POP SWAP3 SWAP2 POP POP JUMP JUMPDEST PUSH32 0x4E487B7100000000000000000000000000000000000000000000000000000000 PUSH0 MSTORE PUSH1 0x12 PUSH1 0x4 MSTORE PUSH1 0x24 PUSH0 REVERT JUMPDEST PUSH0 PUSH2 0x1BC0 DUP3 PUSH2 0x146B JUMP JUMPDEST SWAP2 POP PUSH2 0x1BCB DUP4 PUSH2 0x146B JUMP JUMPDEST SWAP3 POP DUP3 PUSH2 0x1BDB JUMPI PUSH2 0x1BDA PUSH2 0x1B89 JUMP JUMPDEST JUMPDEST DUP3 DUP3 DIV SWAP1 POP SWAP3 SWAP2 POP POP JUMP JUMPDEST PUSH32 0x52454A5556453A204E6F2075736572206561726E696E67000000000000000000 PUSH0 DUP3 ADD MSTORE POP JUMP JUMPDEST PUSH0 PUSH2 0x1C1A PUSH1 0x17 DUP4 PUSH2 0x164D JUMP JUMPDEST SWAP2 POP PUSH2 0x1C25 DUP3 PUSH2 0x1BE6 JUMP JUMPDEST PUSH1 0x20 DUP3 ADD SWAP1 POP SWAP2 SWAP1 POP JUMP JUMPDEST PUSH0 PUSH1 0x20 DUP3 ADD SWAP1 POP DUP2 DUP2 SUB PUSH0 DUP4 ADD MSTORE PUSH2 0x1C47 DUP2 PUSH2 0x1C0E JUMP JUMPDEST SWAP1 POP SWAP2 SWAP1 POP JUMP JUMPDEST PUSH0 PUSH1 0x60 DUP3 ADD SWAP1 POP PUSH2 0x1C61 PUSH0 DUP4 ADD DUP7 PUSH2 0x1554 JUMP JUMPDEST PUSH2 0x1C6E PUSH1 0x20 DUP4 ADD DUP6 PUSH2 0x14C9 JUMP JUMPDEST PUSH2 0x1C7B PUSH1 0x40 DUP4 ADD DUP5 PUSH2 0x14C9 JUMP JUMPDEST SWAP5 SWAP4 POP POP POP POP JUMP JUMPDEST PUSH2 0x1C8C DUP2 PUSH2 0x14F1 JUMP JUMPDEST DUP2 EQ PUSH2 0x1C96 JUMPI PUSH0 DUP1 REVERT JUMPDEST POP JUMP JUMPDEST PUSH0 DUP2 MLOAD SWAP1 POP PUSH2 0x1CA7 DUP2 PUSH2 0x1C83 JUMP JUMPDEST SWAP3 SWAP2 POP POP JUMP JUMPDEST PUSH0 PUSH1 0x20 DUP3 DUP5 SUB SLT ISZERO PUSH2 0x1CC2 JUMPI PUSH2 0x1CC1 PUSH2 0x1463 JUMP JUMPDEST JUMPDEST PUSH0 PUSH2 0x1CCF DUP5 DUP3 DUP6 ADD PUSH2 0x1C99 JUMP JUMPDEST SWAP2 POP POP SWAP3 SWAP2 POP POP JUMP JUMPDEST PUSH32 0x4F776E61626C653A2063616C6C6572206973206E6F7420746865206F776E6572 PUSH0 DUP3 ADD MSTORE POP JUMP JUMPDEST PUSH0 PUSH2 0x1D0C PUSH1 0x20 DUP4 PUSH2 0x164D JUMP JUMPDEST SWAP2 POP PUSH2 0x1D17 DUP3 PUSH2 0x1CD8 JUMP JUMPDEST PUSH1 0x20 DUP3 ADD SWAP1 POP SWAP2 SWAP1 POP JUMP JUMPDEST PUSH0 PUSH1 0x20 DUP3 ADD SWAP1 POP DUP2 DUP2 SUB PUSH0 DUP4 ADD MSTORE PUSH2 0x1D39 DUP2 PUSH2 0x1D00 JUMP JUMPDEST SWAP1 POP SWAP2 SWAP1 POP JUMP JUMPDEST PUSH0 PUSH1 0x60 DUP3 ADD SWAP1 POP PUSH2 0x1D53 PUSH0 DUP4 ADD DUP7 PUSH2 0x1554 JUMP JUMPDEST PUSH2 0x1D60 PUSH1 0x20 DUP4 ADD DUP6 PUSH2 0x1554 JUMP JUMPDEST PUSH2 0x1D6D PUSH1 0x40 DUP4 ADD DUP5 PUSH2 0x14C9 JUMP JUMPDEST SWAP5 SWAP4 POP POP POP POP JUMP JUMPDEST PUSH32 0x5061757361626C653A206E6F7420706175736564000000000000000000000000 PUSH0 DUP3 ADD MSTORE POP JUMP JUMPDEST PUSH0 PUSH2 0x1DA9 PUSH1 0x14 DUP4 PUSH2 0x164D JUMP JUMPDEST SWAP2 POP PUSH2 0x1DB4 DUP3 PUSH2 0x1D75 JUMP JUMPDEST PUSH1 0x20 DUP3 ADD SWAP1 POP SWAP2 SWAP1 POP JUMP JUMPDEST PUSH0 PUSH1 0x20 DUP3 ADD SWAP1 POP DUP2 DUP2 SUB PUSH0 DUP4 ADD MSTORE PUSH2 0x1DD6 DUP2 PUSH2 0x1D9D JUMP JUMPDEST SWAP1 POP SWAP2 SWAP1 POP JUMP INVALID LOG2 PUSH5 0x6970667358 0x22 SLT KECCAK256 PUSH18 0x9DD87618F3842F59B08C5D56349B5A522EC3 0xCE 0xED STATICCALL 0xE7 CREATE2 SLOAD 0xB2 PUSH23 0x75497C419664736F6C6343000814003300000000000000 "},"methodIdentifiers":{"_getShardBalance(uint256)":"81fdde09","deposit(uint256,uint256)":"e2bbb158","getHolderLastPoint(address,uint256)":"9734c335","getProductEarning(uint256)":"27770bd0","getTotalWithdrawal(uint256)":"f5ed8b8a","owner()":"8da5cb5b","pause()":"8456cb59","paused()":"5c975abb","renounceOwnership()":"715018a6","transferOwnership(address)":"f2fde38b","unpause()":"3f4ba83a","withdraw(uint256)":"2e1a7d4d"}}}}}