{
  "_format": "hh-sol-artifact-1",
  "contractName": "ShardAdministration",
  "sourceName": "contracts/ShardAdministration.sol",
  "abi": [
    {
      "inputs": [
        {
          "internalType": "address",
          "name": "rejuveAdmin_",
          "type": "address"
        },
        {
          "internalType": "contract IProductNFT",
          "name": "productNFT_",
          "type": "address"
        },
        {
          "internalType": "uint256",
          "name": "productNftID_",
          "type": "uint256"
        }
      ],
      "stateMutability": "nonpayable",
      "type": "constructor"
    },
    {
      "anonymous": false,
      "inputs": [
        {
          "indexed": false,
          "internalType": "address",
          "name": "account",
          "type": "address"
        }
      ],
      "name": "Paused",
      "type": "event"
    },
    {
      "anonymous": false,
      "inputs": [
        {
          "indexed": true,
          "internalType": "bytes32",
          "name": "role",
          "type": "bytes32"
        },
        {
          "indexed": true,
          "internalType": "bytes32",
          "name": "previousAdminRole",
          "type": "bytes32"
        },
        {
          "indexed": true,
          "internalType": "bytes32",
          "name": "newAdminRole",
          "type": "bytes32"
        }
      ],
      "name": "RoleAdminChanged",
      "type": "event"
    },
    {
      "anonymous": false,
      "inputs": [
        {
          "indexed": true,
          "internalType": "bytes32",
          "name": "role",
          "type": "bytes32"
        },
        {
          "indexed": true,
          "internalType": "address",
          "name": "account",
          "type": "address"
        },
        {
          "indexed": true,
          "internalType": "address",
          "name": "sender",
          "type": "address"
        }
      ],
      "name": "RoleGranted",
      "type": "event"
    },
    {
      "anonymous": false,
      "inputs": [
        {
          "indexed": true,
          "internalType": "bytes32",
          "name": "role",
          "type": "bytes32"
        },
        {
          "indexed": true,
          "internalType": "address",
          "name": "account",
          "type": "address"
        },
        {
          "indexed": true,
          "internalType": "address",
          "name": "sender",
          "type": "address"
        }
      ],
      "name": "RoleRevoked",
      "type": "event"
    },
    {
      "anonymous": false,
      "inputs": [
        {
          "indexed": false,
          "internalType": "address",
          "name": "account",
          "type": "address"
        }
      ],
      "name": "Unpaused",
      "type": "event"
    },
    {
      "inputs": [],
      "name": "DEFAULT_ADMIN_ROLE",
      "outputs": [
        {
          "internalType": "bytes32",
          "name": "",
          "type": "bytes32"
        }
      ],
      "stateMutability": "view",
      "type": "function"
    },
    {
      "inputs": [],
      "name": "MINTER_ROLE",
      "outputs": [
        {
          "internalType": "bytes32",
          "name": "",
          "type": "bytes32"
        }
      ],
      "stateMutability": "view",
      "type": "function"
    },
    {
      "inputs": [],
      "name": "PAUSER_ROLE",
      "outputs": [
        {
          "internalType": "bytes32",
          "name": "",
          "type": "bytes32"
        }
      ],
      "stateMutability": "view",
      "type": "function"
    },
    {
      "inputs": [
        {
          "internalType": "bytes32",
          "name": "role",
          "type": "bytes32"
        }
      ],
      "name": "getRoleAdmin",
      "outputs": [
        {
          "internalType": "bytes32",
          "name": "",
          "type": "bytes32"
        }
      ],
      "stateMutability": "view",
      "type": "function"
    },
    {
      "inputs": [
        {
          "internalType": "bytes32",
          "name": "role",
          "type": "bytes32"
        },
        {
          "internalType": "address",
          "name": "account",
          "type": "address"
        }
      ],
      "name": "grantRole",
      "outputs": [],
      "stateMutability": "nonpayable",
      "type": "function"
    },
    {
      "inputs": [
        {
          "internalType": "bytes32",
          "name": "role",
          "type": "bytes32"
        },
        {
          "internalType": "address",
          "name": "account",
          "type": "address"
        }
      ],
      "name": "hasRole",
      "outputs": [
        {
          "internalType": "bool",
          "name": "",
          "type": "bool"
        }
      ],
      "stateMutability": "view",
      "type": "function"
    },
    {
      "inputs": [],
      "name": "pause",
      "outputs": [],
      "stateMutability": "nonpayable",
      "type": "function"
    },
    {
      "inputs": [],
      "name": "paused",
      "outputs": [
        {
          "internalType": "bool",
          "name": "",
          "type": "bool"
        }
      ],
      "stateMutability": "view",
      "type": "function"
    },
    {
      "inputs": [
        {
          "internalType": "bytes32",
          "name": "role",
          "type": "bytes32"
        },
        {
          "internalType": "address",
          "name": "account",
          "type": "address"
        }
      ],
      "name": "renounceRole",
      "outputs": [],
      "stateMutability": "nonpayable",
      "type": "function"
    },
    {
      "inputs": [
        {
          "internalType": "bytes32",
          "name": "role",
          "type": "bytes32"
        },
        {
          "internalType": "address",
          "name": "account",
          "type": "address"
        }
      ],
      "name": "revokeRole",
      "outputs": [],
      "stateMutability": "nonpayable",
      "type": "function"
    },
    {
      "inputs": [
        {
          "internalType": "bytes4",
          "name": "interfaceId",
          "type": "bytes4"
        }
      ],
      "name": "supportsInterface",
      "outputs": [
        {
          "internalType": "bool",
          "name": "",
          "type": "bool"
        }
      ],
      "stateMutability": "view",
      "type": "function"
    },
    {
      "inputs": [],
      "name": "unpause",
      "outputs": [],
      "stateMutability": "nonpayable",
      "type": "function"
    }
  ],
  "bytecode": "0x608060405234801561001057600080fd5b50604051610c27380380610c2783398101604081905261002f916101a0565b6001805460ff191690556100446000846100dc565b61006e7f9f2df0fed2c77648de5860a4cc508cd0818c85b8b8a1ab4ceeef8d981c8956a6336100dc565b6100987f65d7a28e3265b37a6474929f336521b332c1681b933f6cb9f3376673440d862a846100dc565b600280546001600160a01b0319166001600160a01b0394851617905560018054610100600160a81b03191661010093909416929092029290921790556003556101e3565b6100e682826100ea565b5050565b6000828152602081815260408083206001600160a01b038516845290915290205460ff166100e6576000828152602081815260408083206001600160a01b03851684529091529020805460ff191660011790556101443390565b6001600160a01b0316816001600160a01b0316837f2f8788117e7eff1d82e926ec794901d17c78024a50270940304540a733656f0d60405160405180910390a45050565b6001600160a01b038116811461019d57600080fd5b50565b6000806000606084860312156101b557600080fd5b83516101c081610188565b60208501519093506101d181610188565b80925050604084015190509250925092565b610a35806101f26000396000f3fe608060405234801561001057600080fd5b50600436106100b45760003560e01c80638456cb59116100715780638456cb591461014d57806391d1485414610155578063a217fddf14610168578063d539139314610170578063d547741f14610197578063e63ab1e9146101aa57600080fd5b806301ffc9a7146100b9578063248a9ca3146100e15780632f2ff15d1461011257806336568abe146101275780633f4ba83a1461013a5780635c975abb14610142575b600080fd5b6100cc6100c7366004610818565b6101d1565b60405190151581526020015b60405180910390f35b6101046100ef366004610842565b60009081526020819052604090206001015490565b6040519081526020016100d8565b61012561012036600461085b565b610208565b005b61012561013536600461085b565b610233565b6101256102b6565b60015460ff166100cc565b610125610340565b6100cc61016336600461085b565b6103cd565b610104600081565b6101047f9f2df0fed2c77648de5860a4cc508cd0818c85b8b8a1ab4ceeef8d981c8956a681565b6101256101a536600461085b565b6103f6565b6101047f65d7a28e3265b37a6474929f336521b332c1681b933f6cb9f3376673440d862a81565b60006001600160e01b03198216637965db0b60e01b148061020257506301ffc9a760e01b6001600160e01b03198316145b92915050565b600082815260208190526040902060010154610224813361041c565b61022e8383610480565b505050565b6001600160a01b03811633146102a85760405162461bcd60e51b815260206004820152602f60248201527f416363657373436f6e74726f6c3a2063616e206f6e6c792072656e6f756e636560448201526e103937b632b9903337b91039b2b63360891b60648201526084015b60405180910390fd5b6102b28282610504565b5050565b6102e07f65d7a28e3265b37a6474929f336521b332c1681b933f6cb9f3376673440d862a336103cd565b6103365760405162461bcd60e51b815260206004820152602160248201527f52454a5556453a204d757374206861766520726f6c6520746f20756e706175736044820152606560f81b606482015260840161029f565b61033e610569565b565b61036a7f65d7a28e3265b37a6474929f336521b332c1681b933f6cb9f3376673440d862a336103cd565b6103c55760405162461bcd60e51b815260206004820152602660248201527f52454a5556453a204d75737420686176652070617573657220726f6c6520746f60448201526520706175736560d01b606482015260840161029f565b61033e6105fc565b6000918252602082815260408084206001600160a01b0393909316845291905290205460ff1690565b600082815260208190526040902060010154610412813361041c565b61022e8383610504565b61042682826103cd565b6102b25761043e816001600160a01b03166014610675565b610449836020610675565b60405160200161045a9291906108c7565b60408051601f198184030181529082905262461bcd60e51b825261029f9160040161093c565b61048a82826103cd565b6102b2576000828152602081815260408083206001600160a01b03851684529091529020805460ff191660011790556104c03390565b6001600160a01b0316816001600160a01b0316837f2f8788117e7eff1d82e926ec794901d17c78024a50270940304540a733656f0d60405160405180910390a45050565b61050e82826103cd565b156102b2576000828152602081815260408083206001600160a01b0385168085529252808320805460ff1916905551339285917ff6391f5c32d9c69d2a47ea670b442974b53935d1edc7fd64eb21e047a839171b9190a45050565b60015460ff166105b25760405162461bcd60e51b815260206004820152601460248201527314185d5cd8589b194e881b9bdd081c185d5cd95960621b604482015260640161029f565b6001805460ff191690557f5db9ee0a495bf2e6ff9c91a7834c1ba4fdd244a5e8aa4e537bd38aeae4b073aa335b6040516001600160a01b03909116815260200160405180910390a1565b60015460ff16156106425760405162461bcd60e51b815260206004820152601060248201526f14185d5cd8589b194e881c185d5cd95960821b604482015260640161029f565b6001805460ff1916811790557f62e78cea01bee320cd4e420270b5ea74000d11b0c9f74754ebdbfc544b05a258336105df565b60606000610684836002610985565b61068f9060026109a4565b67ffffffffffffffff8111156106a7576106a76109bc565b6040519080825280601f01601f1916602001820160405280156106d1576020820181803683370190505b509050600360fc1b816000815181106106ec576106ec6109d2565b60200101906001600160f81b031916908160001a905350600f60fb1b8160018151811061071b5761071b6109d2565b60200101906001600160f81b031916908160001a905350600061073f846002610985565b61074a9060016109a4565b90505b60018111156107c2576f181899199a1a9b1b9c1cb0b131b232b360811b85600f166010811061077e5761077e6109d2565b1a60f81b828281518110610794576107946109d2565b60200101906001600160f81b031916908160001a90535060049490941c936107bb816109e8565b905061074d565b5083156108115760405162461bcd60e51b815260206004820181905260248201527f537472696e67733a20686578206c656e67746820696e73756666696369656e74604482015260640161029f565b9392505050565b60006020828403121561082a57600080fd5b81356001600160e01b03198116811461081157600080fd5b60006020828403121561085457600080fd5b5035919050565b6000806040838503121561086e57600080fd5b8235915060208301356001600160a01b038116811461088c57600080fd5b809150509250929050565b60005b838110156108b257818101518382015260200161089a565b838111156108c1576000848401525b50505050565b7f416363657373436f6e74726f6c3a206163636f756e74200000000000000000008152600083516108ff816017850160208801610897565b7001034b99036b4b9b9b4b733903937b6329607d1b6017918401918201528351610930816028840160208801610897565b01602801949350505050565b602081526000825180602084015261095b816040850160208701610897565b601f01601f19169190910160400192915050565b634e487b7160e01b600052601160045260246000fd5b600081600019048311821515161561099f5761099f61096f565b500290565b600082198211156109b7576109b761096f565b500190565b634e487b7160e01b600052604160045260246000fd5b634e487b7160e01b600052603260045260246000fd5b6000816109f7576109f761096f565b50600019019056fea2646970667358221220cabc84d806cd0bc845e83018252ebbe3b1ca4759fe4255f07b56514fce37541b64736f6c63430008090033",
  "linkReferences": {},
  "deployedLinkReferences": {}
}