{
  "_format": "hh-sol-artifact-1",
  "contractName": "IdentityToken",
  "sourceName": "contracts/Done/IdentityToken.sol",
  "abi": [
    {
      "inputs": [
        {
          "internalType": "string",
          "name": "_name",
          "type": "string"
        },
        {
          "internalType": "string",
          "name": "_symbol",
          "type": "string"
        }
      ],
      "stateMutability": "nonpayable",
      "type": "constructor"
    },
    {
      "anonymous": false,
      "inputs": [
        {
          "indexed": true,
          "internalType": "address",
          "name": "owner",
          "type": "address"
        },
        {
          "indexed": true,
          "internalType": "address",
          "name": "approved",
          "type": "address"
        },
        {
          "indexed": true,
          "internalType": "uint256",
          "name": "tokenId",
          "type": "uint256"
        }
      ],
      "name": "Approval",
      "type": "event"
    },
    {
      "anonymous": false,
      "inputs": [
        {
          "indexed": true,
          "internalType": "address",
          "name": "owner",
          "type": "address"
        },
        {
          "indexed": true,
          "internalType": "address",
          "name": "operator",
          "type": "address"
        },
        {
          "indexed": false,
          "internalType": "bool",
          "name": "approved",
          "type": "bool"
        }
      ],
      "name": "ApprovalForAll",
      "type": "event"
    },
    {
      "anonymous": false,
      "inputs": [
        {
          "indexed": true,
          "internalType": "address",
          "name": "from",
          "type": "address"
        },
        {
          "indexed": true,
          "internalType": "address",
          "name": "to",
          "type": "address"
        },
        {
          "indexed": true,
          "internalType": "uint256",
          "name": "tokenId",
          "type": "uint256"
        }
      ],
      "name": "Transfer",
      "type": "event"
    },
    {
      "inputs": [
        {
          "internalType": "address",
          "name": "to",
          "type": "address"
        },
        {
          "internalType": "uint256",
          "name": "tokenId",
          "type": "uint256"
        }
      ],
      "name": "approve",
      "outputs": [],
      "stateMutability": "nonpayable",
      "type": "function"
    },
    {
      "inputs": [
        {
          "internalType": "address",
          "name": "owner",
          "type": "address"
        }
      ],
      "name": "balanceOf",
      "outputs": [
        {
          "internalType": "uint256",
          "name": "",
          "type": "uint256"
        }
      ],
      "stateMutability": "view",
      "type": "function"
    },
    {
      "inputs": [
        {
          "internalType": "uint256",
          "name": "_tokenId",
          "type": "uint256"
        }
      ],
      "name": "burnIdentity",
      "outputs": [],
      "stateMutability": "nonpayable",
      "type": "function"
    },
    {
      "inputs": [],
      "name": "createIdentityToken",
      "outputs": [],
      "stateMutability": "nonpayable",
      "type": "function"
    },
    {
      "inputs": [
        {
          "internalType": "uint256",
          "name": "tokenId",
          "type": "uint256"
        }
      ],
      "name": "getApproved",
      "outputs": [
        {
          "internalType": "address",
          "name": "",
          "type": "address"
        }
      ],
      "stateMutability": "view",
      "type": "function"
    },
    {
      "inputs": [
        {
          "internalType": "address",
          "name": "_owner",
          "type": "address"
        }
      ],
      "name": "getOwnerId",
      "outputs": [
        {
          "internalType": "uint256",
          "name": "",
          "type": "uint256"
        }
      ],
      "stateMutability": "view",
      "type": "function"
    },
    {
      "inputs": [
        {
          "internalType": "address",
          "name": "owner",
          "type": "address"
        },
        {
          "internalType": "address",
          "name": "operator",
          "type": "address"
        }
      ],
      "name": "isApprovedForAll",
      "outputs": [
        {
          "internalType": "bool",
          "name": "",
          "type": "bool"
        }
      ],
      "stateMutability": "view",
      "type": "function"
    },
    {
      "inputs": [],
      "name": "name",
      "outputs": [
        {
          "internalType": "string",
          "name": "",
          "type": "string"
        }
      ],
      "stateMutability": "view",
      "type": "function"
    },
    {
      "inputs": [
        {
          "internalType": "uint256",
          "name": "tokenId",
          "type": "uint256"
        }
      ],
      "name": "ownerOf",
      "outputs": [
        {
          "internalType": "address",
          "name": "",
          "type": "address"
        }
      ],
      "stateMutability": "view",
      "type": "function"
    },
    {
      "inputs": [
        {
          "internalType": "address",
          "name": "",
          "type": "address"
        }
      ],
      "name": "ownerToToken",
      "outputs": [
        {
          "internalType": "uint256",
          "name": "",
          "type": "uint256"
        }
      ],
      "stateMutability": "view",
      "type": "function"
    },
    {
      "inputs": [
        {
          "internalType": "address",
          "name": "",
          "type": "address"
        }
      ],
      "name": "registrations",
      "outputs": [
        {
          "internalType": "enum IdentityToken.UserStatus",
          "name": "",
          "type": "uint8"
        }
      ],
      "stateMutability": "view",
      "type": "function"
    },
    {
      "inputs": [
        {
          "internalType": "address",
          "name": "from",
          "type": "address"
        },
        {
          "internalType": "address",
          "name": "to",
          "type": "address"
        },
        {
          "internalType": "uint256",
          "name": "tokenId",
          "type": "uint256"
        }
      ],
      "name": "safeTransferFrom",
      "outputs": [],
      "stateMutability": "nonpayable",
      "type": "function"
    },
    {
      "inputs": [
        {
          "internalType": "address",
          "name": "from",
          "type": "address"
        },
        {
          "internalType": "address",
          "name": "to",
          "type": "address"
        },
        {
          "internalType": "uint256",
          "name": "tokenId",
          "type": "uint256"
        },
        {
          "internalType": "bytes",
          "name": "_data",
          "type": "bytes"
        }
      ],
      "name": "safeTransferFrom",
      "outputs": [],
      "stateMutability": "nonpayable",
      "type": "function"
    },
    {
      "inputs": [
        {
          "internalType": "address",
          "name": "operator",
          "type": "address"
        },
        {
          "internalType": "bool",
          "name": "approved",
          "type": "bool"
        }
      ],
      "name": "setApprovalForAll",
      "outputs": [],
      "stateMutability": "nonpayable",
      "type": "function"
    },
    {
      "inputs": [
        {
          "internalType": "bytes4",
          "name": "interfaceId",
          "type": "bytes4"
        }
      ],
      "name": "supportsInterface",
      "outputs": [
        {
          "internalType": "bool",
          "name": "",
          "type": "bool"
        }
      ],
      "stateMutability": "view",
      "type": "function"
    },
    {
      "inputs": [],
      "name": "symbol",
      "outputs": [
        {
          "internalType": "string",
          "name": "",
          "type": "string"
        }
      ],
      "stateMutability": "view",
      "type": "function"
    },
    {
      "inputs": [
        {
          "internalType": "uint256",
          "name": "tokenId",
          "type": "uint256"
        }
      ],
      "name": "tokenURI",
      "outputs": [
        {
          "internalType": "string",
          "name": "",
          "type": "string"
        }
      ],
      "stateMutability": "view",
      "type": "function"
    },
    {
      "inputs": [
        {
          "internalType": "address",
          "name": "from",
          "type": "address"
        },
        {
          "internalType": "address",
          "name": "to",
          "type": "address"
        },
        {
          "internalType": "uint256",
          "name": "tokenId",
          "type": "uint256"
        }
      ],
      "name": "transferFrom",
      "outputs": [],
      "stateMutability": "nonpayable",
      "type": "function"
    }
  ],
  "bytecode": "0x60806040523480156200001157600080fd5b50604051620019b9380380620019b9833981016040819052620000349162000201565b8151829082906200004d9060009060208501906200008e565b508051620000639060019060208401906200008e565b5050506200007d60066200008560201b6200092a1760201c565b5050620002a8565b80546001019055565b8280546200009c906200026b565b90600052602060002090601f016020900481019282620000c057600085556200010b565b82601f10620000db57805160ff19168380011785556200010b565b828001600101855582156200010b579182015b828111156200010b578251825591602001919060010190620000ee565b50620001199291506200011d565b5090565b5b808211156200011957600081556001016200011e565b634e487b7160e01b600052604160045260246000fd5b600082601f8301126200015c57600080fd5b81516001600160401b038082111562000179576200017962000134565b604051601f8301601f19908116603f01168101908282118183101715620001a457620001a462000134565b81604052838152602092508683858801011115620001c157600080fd5b600091505b83821015620001e55785820183015181830184015290820190620001c6565b83821115620001f75760008385830101525b9695505050505050565b600080604083850312156200021557600080fd5b82516001600160401b03808211156200022d57600080fd5b6200023b868387016200014a565b935060208501519150808211156200025257600080fd5b5062000261858286016200014a565b9150509250929050565b600181811c908216806200028057607f821691505b60208210811415620002a257634e487b7160e01b600052602260045260246000fd5b50919050565b61170180620002b86000396000f3fe608060405234801561001057600080fd5b50600436106101165760003560e01c806375f577fb116100a2578063b88d4fde11610071578063b88d4fde14610265578063c5d56ec714610278578063c87b56dd1461028b578063e985e9c51461029e578063ef4a7203146102da57600080fd5b806375f577fb14610212578063942e6bcf1461021a57806395d89b411461024a578063a22cb4651461025257600080fd5b80630ce5aeef116100e95780630ce5aeef1461019857806323b872dd146101c657806342842e0e146101d95780636352211e146101ec57806370a08231146101ff57600080fd5b806301ffc9a71461011b57806306fdde0314610143578063081812fc14610158578063095ea7b314610183575b600080fd5b61012e6101293660046111d3565b610303565b60405190151581526020015b60405180910390f35b61014b610355565b60405161013a9190611248565b61016b61016636600461125b565b6103e7565b6040516001600160a01b03909116815260200161013a565b610196610191366004611290565b610481565b005b6101b86101a63660046112ba565b60076020526000908152604090205481565b60405190815260200161013a565b6101966101d43660046112d5565b610597565b6101966101e73660046112d5565b6105c8565b61016b6101fa36600461125b565b6105e3565b6101b861020d3660046112ba565b61065a565b6101966106e1565b61023d6102283660046112ba565b60086020526000908152604090205460ff1681565b60405161013a9190611327565b61014b61075d565b61019661026036600461134f565b61076c565b6101966102733660046113a1565b61077b565b61019661028636600461125b565b6107b3565b61014b61029936600461125b565b610842565b61012e6102ac36600461147d565b6001600160a01b03918216600090815260056020908152604080832093909416825291909152205460ff1690565b6101b86102e83660046112ba565b6001600160a01b031660009081526007602052604090205490565b60006001600160e01b031982166380ac58cd60e01b148061033457506001600160e01b03198216635b5e139f60e01b145b8061034f57506301ffc9a760e01b6001600160e01b03198316145b92915050565b606060008054610364906114b0565b80601f0160208091040260200160405190810160405280929190818152602001828054610390906114b0565b80156103dd5780601f106103b2576101008083540402835291602001916103dd565b820191906000526020600020905b8154815290600101906020018083116103c057829003601f168201915b5050505050905090565b6000818152600260205260408120546001600160a01b03166104655760405162461bcd60e51b815260206004820152602c60248201527f4552433732313a20617070726f76656420717565727920666f72206e6f6e657860448201526b34b9ba32b73a103a37b5b2b760a11b60648201526084015b60405180910390fd5b506000908152600460205260409020546001600160a01b031690565b600061048c826105e3565b9050806001600160a01b0316836001600160a01b031614156104fa5760405162461bcd60e51b815260206004820152602160248201527f4552433732313a20617070726f76616c20746f2063757272656e74206f776e656044820152603960f91b606482015260840161045c565b336001600160a01b0382161480610516575061051681336102ac565b6105885760405162461bcd60e51b815260206004820152603860248201527f4552433732313a20617070726f76652063616c6c6572206973206e6f74206f7760448201527f6e6572206e6f7220617070726f76656420666f7220616c6c0000000000000000606482015260840161045c565b6105928383610933565b505050565b6105a133826109a1565b6105bd5760405162461bcd60e51b815260040161045c906114eb565b610592838383610a98565b6105928383836040518060200160405280600081525061077b565b6000818152600260205260408120546001600160a01b03168061034f5760405162461bcd60e51b815260206004820152602960248201527f4552433732313a206f776e657220717565727920666f72206e6f6e657869737460448201526832b73a103a37b5b2b760b91b606482015260840161045c565b60006001600160a01b0382166106c55760405162461bcd60e51b815260206004820152602a60248201527f4552433732313a2062616c616e636520717565727920666f7220746865207a65604482015269726f206164647265737360b01b606482015260840161045c565b506001600160a01b031660009081526003602052604090205490565b3360009081526008602052604081205460ff16600181111561070557610705611311565b146107525760405162461bcd60e51b815260206004820152601d60248201527f52454a5556453a204f6e65206964656e74697479207065722075736572000000604482015260640161045c565b61075a610c34565b50565b606060018054610364906114b0565b610777338383610c86565b5050565b61078533836109a1565b6107a15760405162461bcd60e51b815260040161045c906114eb565b6107ad84848484610d55565b50505050565b33600090815260076020526040902054819081146108135760405162461bcd60e51b815260206004820152601b60248201527f52454a5556453a204f6e6c79204964656e74697479204f776e65720000000000604482015260640161045c565b61081c82610d88565b5050336000908152600860209081526040808320805460ff191690556007909152812055565b6000818152600260205260409020546060906001600160a01b03166108c15760405162461bcd60e51b815260206004820152602f60248201527f4552433732314d657461646174613a2055524920717565727920666f72206e6f60448201526e3732bc34b9ba32b73a103a37b5b2b760891b606482015260840161045c565b60006108d860408051602081019091526000815290565b905060008151116108f85760405180602001604052806000815250610923565b8061090284610e23565b60405160200161091392919061153c565b6040516020818303038152906040525b9392505050565b80546001019055565b600081815260046020526040902080546001600160a01b0319166001600160a01b0384169081179091558190610968826105e3565b6001600160a01b03167f8c5be1e5ebec7d5bd14f71427d1e84f3dd0314c0f7b2291e5b200ac8c7c3b92560405160405180910390a45050565b6000818152600260205260408120546001600160a01b0316610a1a5760405162461bcd60e51b815260206004820152602c60248201527f4552433732313a206f70657261746f7220717565727920666f72206e6f6e657860448201526b34b9ba32b73a103a37b5b2b760a11b606482015260840161045c565b6000610a25836105e3565b9050806001600160a01b0316846001600160a01b03161480610a605750836001600160a01b0316610a55846103e7565b6001600160a01b0316145b80610a9057506001600160a01b0380821660009081526005602090815260408083209388168352929052205460ff165b949350505050565b826001600160a01b0316610aab826105e3565b6001600160a01b031614610b0f5760405162461bcd60e51b815260206004820152602560248201527f4552433732313a207472616e736665722066726f6d20696e636f72726563742060448201526437bbb732b960d91b606482015260840161045c565b6001600160a01b038216610b715760405162461bcd60e51b8152602060048201526024808201527f4552433732313a207472616e7366657220746f20746865207a65726f206164646044820152637265737360e01b606482015260840161045c565b610b7c600082610933565b6001600160a01b0383166000908152600360205260408120805460019290610ba5908490611581565b90915550506001600160a01b0382166000908152600360205260408120805460019290610bd3908490611598565b909155505060008181526002602052604080822080546001600160a01b0319166001600160a01b0386811691821790925591518493918716917fddf252ad1be2c89b69c2b068fc378daa952ba7f163c4a11628f55a4df523b3ef91a4505050565b600080610c4060065490565b9050610c50600680546001019055565b610c5a3382610f21565b33600090815260076020908152604080832084905560089091529020805460ff19166001179055919050565b816001600160a01b0316836001600160a01b03161415610ce85760405162461bcd60e51b815260206004820152601960248201527f4552433732313a20617070726f766520746f2063616c6c657200000000000000604482015260640161045c565b6001600160a01b03838116600081815260056020908152604080832094871680845294825291829020805460ff191686151590811790915591519182527f17307eab39ab6107e8899845ad3d59bd9653f200f220920489ca2b5937696c31910160405180910390a3505050565b610d60848484610a98565b610d6c84848484610f3b565b6107ad5760405162461bcd60e51b815260040161045c906115b0565b6000610d93826105e3565b9050610da0600083610933565b6001600160a01b0381166000908152600360205260408120805460019290610dc9908490611581565b909155505060008281526002602052604080822080546001600160a01b0319169055518391906001600160a01b038416907fddf252ad1be2c89b69c2b068fc378daa952ba7f163c4a11628f55a4df523b3ef908390a45050565b606081610e475750506040805180820190915260018152600360fc1b602082015290565b8160005b8115610e715780610e5b81611602565b9150610e6a9050600a83611633565b9150610e4b565b60008167ffffffffffffffff811115610e8c57610e8c61138b565b6040519080825280601f01601f191660200182016040528015610eb6576020820181803683370190505b5090505b8415610a9057610ecb600183611581565b9150610ed8600a86611647565b610ee3906030611598565b60f81b818381518110610ef857610ef861165b565b60200101906001600160f81b031916908160001a905350610f1a600a86611633565b9450610eba565b610777828260405180602001604052806000815250611048565b60006001600160a01b0384163b1561103d57604051630a85bd0160e11b81526001600160a01b0385169063150b7a0290610f7f903390899088908890600401611671565b602060405180830381600087803b158015610f9957600080fd5b505af1925050508015610fc9575060408051601f3d908101601f19168201909252610fc6918101906116ae565b60015b611023573d808015610ff7576040519150601f19603f3d011682016040523d82523d6000602084013e610ffc565b606091505b50805161101b5760405162461bcd60e51b815260040161045c906115b0565b805181602001fd5b6001600160e01b031916630a85bd0160e11b149050610a90565b506001949350505050565b611052838361107b565b61105f6000848484610f3b565b6105925760405162461bcd60e51b815260040161045c906115b0565b6001600160a01b0382166110d15760405162461bcd60e51b815260206004820181905260248201527f4552433732313a206d696e7420746f20746865207a65726f2061646472657373604482015260640161045c565b6000818152600260205260409020546001600160a01b0316156111365760405162461bcd60e51b815260206004820152601c60248201527f4552433732313a20746f6b656e20616c7265616479206d696e74656400000000604482015260640161045c565b6001600160a01b038216600090815260036020526040812080546001929061115f908490611598565b909155505060008181526002602052604080822080546001600160a01b0319166001600160a01b03861690811790915590518392907fddf252ad1be2c89b69c2b068fc378daa952ba7f163c4a11628f55a4df523b3ef908290a45050565b6001600160e01b03198116811461075a57600080fd5b6000602082840312156111e557600080fd5b8135610923816111bd565b60005b8381101561120b5781810151838201526020016111f3565b838111156107ad5750506000910152565b600081518084526112348160208601602086016111f0565b601f01601f19169290920160200192915050565b602081526000610923602083018461121c565b60006020828403121561126d57600080fd5b5035919050565b80356001600160a01b038116811461128b57600080fd5b919050565b600080604083850312156112a357600080fd5b6112ac83611274565b946020939093013593505050565b6000602082840312156112cc57600080fd5b61092382611274565b6000806000606084860312156112ea57600080fd5b6112f384611274565b925061130160208501611274565b9150604084013590509250925092565b634e487b7160e01b600052602160045260246000fd5b602081016002831061134957634e487b7160e01b600052602160045260246000fd5b91905290565b6000806040838503121561136257600080fd5b61136b83611274565b91506020830135801515811461138057600080fd5b809150509250929050565b634e487b7160e01b600052604160045260246000fd5b600080600080608085870312156113b757600080fd5b6113c085611274565b93506113ce60208601611274565b925060408501359150606085013567ffffffffffffffff808211156113f257600080fd5b818701915087601f83011261140657600080fd5b8135818111156114185761141861138b565b604051601f8201601f19908116603f011681019083821181831017156114405761144061138b565b816040528281528a602084870101111561145957600080fd5b82602086016020830137600060208483010152809550505050505092959194509250565b6000806040838503121561149057600080fd5b61149983611274565b91506114a760208401611274565b90509250929050565b600181811c908216806114c457607f821691505b602082108114156114e557634e487b7160e01b600052602260045260246000fd5b50919050565b60208082526031908201527f4552433732313a207472616e736665722063616c6c6572206973206e6f74206f6040820152701ddb995c881b9bdc88185c1c1c9bdd9959607a1b606082015260800190565b6000835161154e8184602088016111f0565b8351908301906115628183602088016111f0565b01949350505050565b634e487b7160e01b600052601160045260246000fd5b6000828210156115935761159361156b565b500390565b600082198211156115ab576115ab61156b565b500190565b60208082526032908201527f4552433732313a207472616e7366657220746f206e6f6e20455243373231526560408201527131b2b4bb32b91034b6b83632b6b2b73a32b960711b606082015260800190565b60006000198214156116165761161661156b565b5060010190565b634e487b7160e01b600052601260045260246000fd5b6000826116425761164261161d565b500490565b6000826116565761165661161d565b500690565b634e487b7160e01b600052603260045260246000fd5b6001600160a01b03858116825284166020820152604081018390526080606082018190526000906116a49083018461121c565b9695505050505050565b6000602082840312156116c057600080fd5b8151610923816111bd56fea26469706673582212202f1c0a42c5deee43826724352998b0c548ab7aae95757b68c018cc74e8bc920064736f6c63430008090033",
  "linkReferences": {},
  "deployedLinkReferences": {}
}