{
  "_format": "hh-sol-artifact-1",
  "contractName": "DataSubmission",
  "sourceName": "contracts/Done/DataSubmission.sol",
  "abi": [
    {
      "inputs": [
        {
          "internalType": "string",
          "name": "_name",
          "type": "string"
        },
        {
          "internalType": "string",
          "name": "_symbol",
          "type": "string"
        }
      ],
      "stateMutability": "nonpayable",
      "type": "constructor"
    },
    {
      "anonymous": false,
      "inputs": [
        {
          "indexed": true,
          "internalType": "address",
          "name": "owner",
          "type": "address"
        },
        {
          "indexed": true,
          "internalType": "address",
          "name": "approved",
          "type": "address"
        },
        {
          "indexed": true,
          "internalType": "uint256",
          "name": "tokenId",
          "type": "uint256"
        }
      ],
      "name": "Approval",
      "type": "event"
    },
    {
      "anonymous": false,
      "inputs": [
        {
          "indexed": true,
          "internalType": "address",
          "name": "owner",
          "type": "address"
        },
        {
          "indexed": true,
          "internalType": "address",
          "name": "operator",
          "type": "address"
        },
        {
          "indexed": false,
          "internalType": "bool",
          "name": "approved",
          "type": "bool"
        }
      ],
      "name": "ApprovalForAll",
      "type": "event"
    },
    {
      "anonymous": false,
      "inputs": [
        {
          "indexed": false,
          "internalType": "bytes32",
          "name": "",
          "type": "bytes32"
        }
      ],
      "name": "PermissionGranted",
      "type": "event"
    },
    {
      "anonymous": false,
      "inputs": [
        {
          "indexed": false,
          "internalType": "uint256",
          "name": "",
          "type": "uint256"
        },
        {
          "indexed": false,
          "internalType": "bytes32",
          "name": "",
          "type": "bytes32"
        },
        {
          "indexed": false,
          "internalType": "uint256",
          "name": "",
          "type": "uint256"
        }
      ],
      "name": "PermissionRequested",
      "type": "event"
    },
    {
      "anonymous": false,
      "inputs": [
        {
          "indexed": true,
          "internalType": "address",
          "name": "from",
          "type": "address"
        },
        {
          "indexed": true,
          "internalType": "address",
          "name": "to",
          "type": "address"
        },
        {
          "indexed": true,
          "internalType": "uint256",
          "name": "tokenId",
          "type": "uint256"
        }
      ],
      "name": "Transfer",
      "type": "event"
    },
    {
      "inputs": [
        {
          "internalType": "address",
          "name": "to",
          "type": "address"
        },
        {
          "internalType": "uint256",
          "name": "tokenId",
          "type": "uint256"
        }
      ],
      "name": "approve",
      "outputs": [],
      "stateMutability": "nonpayable",
      "type": "function"
    },
    {
      "inputs": [
        {
          "internalType": "address",
          "name": "owner",
          "type": "address"
        }
      ],
      "name": "balanceOf",
      "outputs": [
        {
          "internalType": "uint256",
          "name": "",
          "type": "uint256"
        }
      ],
      "stateMutability": "view",
      "type": "function"
    },
    {
      "inputs": [
        {
          "internalType": "uint256",
          "name": "_tokenId",
          "type": "uint256"
        }
      ],
      "name": "burnIdentity",
      "outputs": [],
      "stateMutability": "nonpayable",
      "type": "function"
    },
    {
      "inputs": [],
      "name": "createIdentityToken",
      "outputs": [],
      "stateMutability": "nonpayable",
      "type": "function"
    },
    {
      "inputs": [
        {
          "internalType": "uint256",
          "name": "tokenId",
          "type": "uint256"
        }
      ],
      "name": "getApproved",
      "outputs": [
        {
          "internalType": "address",
          "name": "",
          "type": "address"
        }
      ],
      "stateMutability": "view",
      "type": "function"
    },
    {
      "inputs": [
        {
          "internalType": "uint256",
          "name": "_tokenId",
          "type": "uint256"
        },
        {
          "internalType": "uint256",
          "name": "_index",
          "type": "uint256"
        }
      ],
      "name": "getDataByTokenId",
      "outputs": [
        {
          "internalType": "bytes32",
          "name": "",
          "type": "bytes32"
        }
      ],
      "stateMutability": "view",
      "type": "function"
    },
    {
      "inputs": [
        {
          "internalType": "address",
          "name": "_owner",
          "type": "address"
        }
      ],
      "name": "getOwnerId",
      "outputs": [
        {
          "internalType": "uint256",
          "name": "",
          "type": "uint256"
        }
      ],
      "stateMutability": "view",
      "type": "function"
    },
    {
      "inputs": [
        {
          "internalType": "uint256",
          "name": "_labId",
          "type": "uint256"
        },
        {
          "internalType": "bytes32",
          "name": "_dHash",
          "type": "bytes32"
        },
        {
          "internalType": "uint256",
          "name": "_nextProductUid",
          "type": "uint256"
        }
      ],
      "name": "grantPermission",
      "outputs": [],
      "stateMutability": "nonpayable",
      "type": "function"
    },
    {
      "inputs": [
        {
          "internalType": "address",
          "name": "owner",
          "type": "address"
        },
        {
          "internalType": "address",
          "name": "operator",
          "type": "address"
        }
      ],
      "name": "isApprovedForAll",
      "outputs": [
        {
          "internalType": "bool",
          "name": "",
          "type": "bool"
        }
      ],
      "stateMutability": "view",
      "type": "function"
    },
    {
      "inputs": [],
      "name": "name",
      "outputs": [
        {
          "internalType": "string",
          "name": "",
          "type": "string"
        }
      ],
      "stateMutability": "view",
      "type": "function"
    },
    {
      "inputs": [
        {
          "internalType": "uint256",
          "name": "tokenId",
          "type": "uint256"
        }
      ],
      "name": "ownerOf",
      "outputs": [
        {
          "internalType": "address",
          "name": "",
          "type": "address"
        }
      ],
      "stateMutability": "view",
      "type": "function"
    },
    {
      "inputs": [
        {
          "internalType": "address",
          "name": "",
          "type": "address"
        }
      ],
      "name": "ownerToToken",
      "outputs": [
        {
          "internalType": "uint256",
          "name": "",
          "type": "uint256"
        }
      ],
      "stateMutability": "view",
      "type": "function"
    },
    {
      "inputs": [
        {
          "internalType": "address",
          "name": "",
          "type": "address"
        }
      ],
      "name": "registrations",
      "outputs": [
        {
          "internalType": "enum IdentityToken.UserStatus",
          "name": "",
          "type": "uint8"
        }
      ],
      "stateMutability": "view",
      "type": "function"
    },
    {
      "inputs": [
        {
          "internalType": "uint256",
          "name": "_labId",
          "type": "uint256"
        },
        {
          "internalType": "bytes32",
          "name": "_dHash",
          "type": "bytes32"
        },
        {
          "internalType": "uint256",
          "name": "_nextProductUid",
          "type": "uint256"
        }
      ],
      "name": "requestPermission",
      "outputs": [],
      "stateMutability": "payable",
      "type": "function"
    },
    {
      "inputs": [
        {
          "internalType": "address",
          "name": "from",
          "type": "address"
        },
        {
          "internalType": "address",
          "name": "to",
          "type": "address"
        },
        {
          "internalType": "uint256",
          "name": "tokenId",
          "type": "uint256"
        }
      ],
      "name": "safeTransferFrom",
      "outputs": [],
      "stateMutability": "nonpayable",
      "type": "function"
    },
    {
      "inputs": [
        {
          "internalType": "address",
          "name": "from",
          "type": "address"
        },
        {
          "internalType": "address",
          "name": "to",
          "type": "address"
        },
        {
          "internalType": "uint256",
          "name": "tokenId",
          "type": "uint256"
        },
        {
          "internalType": "bytes",
          "name": "_data",
          "type": "bytes"
        }
      ],
      "name": "safeTransferFrom",
      "outputs": [],
      "stateMutability": "nonpayable",
      "type": "function"
    },
    {
      "inputs": [
        {
          "internalType": "address",
          "name": "operator",
          "type": "address"
        },
        {
          "internalType": "bool",
          "name": "approved",
          "type": "bool"
        }
      ],
      "name": "setApprovalForAll",
      "outputs": [],
      "stateMutability": "nonpayable",
      "type": "function"
    },
    {
      "inputs": [
        {
          "internalType": "string",
          "name": "_dHash",
          "type": "string"
        }
      ],
      "name": "submitData",
      "outputs": [],
      "stateMutability": "nonpayable",
      "type": "function"
    },
    {
      "inputs": [
        {
          "internalType": "bytes4",
          "name": "interfaceId",
          "type": "bytes4"
        }
      ],
      "name": "supportsInterface",
      "outputs": [
        {
          "internalType": "bool",
          "name": "",
          "type": "bool"
        }
      ],
      "stateMutability": "view",
      "type": "function"
    },
    {
      "inputs": [],
      "name": "symbol",
      "outputs": [
        {
          "internalType": "string",
          "name": "",
          "type": "string"
        }
      ],
      "stateMutability": "view",
      "type": "function"
    },
    {
      "inputs": [
        {
          "internalType": "uint256",
          "name": "tokenId",
          "type": "uint256"
        }
      ],
      "name": "tokenURI",
      "outputs": [
        {
          "internalType": "string",
          "name": "",
          "type": "string"
        }
      ],
      "stateMutability": "view",
      "type": "function"
    },
    {
      "inputs": [
        {
          "internalType": "address",
          "name": "from",
          "type": "address"
        },
        {
          "internalType": "address",
          "name": "to",
          "type": "address"
        },
        {
          "internalType": "uint256",
          "name": "tokenId",
          "type": "uint256"
        }
      ],
      "name": "transferFrom",
      "outputs": [],
      "stateMutability": "nonpayable",
      "type": "function"
    }
  ],
  "bytecode": "0x60806040523480156200001157600080fd5b5060405162001ffd38038062001ffd833981016040819052620000349162000206565b8181818181600090805190602001906200005092919062000093565b5080516200006690600190602084019062000093565b5050506200008060066200008a60201b62000d381760201c565b50505050620002ad565b80546001019055565b828054620000a19062000270565b90600052602060002090601f016020900481019282620000c5576000855562000110565b82601f10620000e057805160ff191683800117855562000110565b8280016001018555821562000110579182015b8281111562000110578251825591602001919060010190620000f3565b506200011e92915062000122565b5090565b5b808211156200011e576000815560010162000123565b634e487b7160e01b600052604160045260246000fd5b600082601f8301126200016157600080fd5b81516001600160401b03808211156200017e576200017e62000139565b604051601f8301601f19908116603f01168101908282118183101715620001a957620001a962000139565b81604052838152602092508683858801011115620001c657600080fd5b600091505b83821015620001ea5785820183015181830184015290820190620001cb565b83821115620001fc5760008385830101525b9695505050505050565b600080604083850312156200021a57600080fd5b82516001600160401b03808211156200023257600080fd5b62000240868387016200014f565b935060208501519150808211156200025757600080fd5b5062000266858286016200014f565b9150509250929050565b600181811c908216806200028557607f821691505b60208210811415620002a757634e487b7160e01b600052602260045260246000fd5b50919050565b611d4080620002bd6000396000f3fe6080604052600436106101355760003560e01c806391f8b695116100ab578063b88d4fde1161006f578063b88d4fde14610380578063bcc5060a146103a0578063c5d56ec7146103c0578063c87b56dd146103e0578063e985e9c514610400578063ef4a72031461044957600080fd5b806391f8b695146102db578063942e6bcf146102ee57806395d89b411461032b578063a22cb46514610340578063a2aac7ab1461036057600080fd5b806323b872dd116100fd57806323b872dd1461022657806342842e0e146102465780636352211e146102665780636439b3ca1461028657806370a08231146102a657806375f577fb146102c657600080fd5b806301ffc9a71461013a57806306fdde031461016f578063081812fc14610191578063095ea7b3146101c95780630ce5aeef146101eb575b600080fd5b34801561014657600080fd5b5061015a610155366004611719565b61047f565b60405190151581526020015b60405180910390f35b34801561017b57600080fd5b506101846104d1565b604051610166919061178e565b34801561019d57600080fd5b506101b16101ac3660046117a1565b610563565b6040516001600160a01b039091168152602001610166565b3480156101d557600080fd5b506101e96101e43660046117d6565b6105fd565b005b3480156101f757600080fd5b50610218610206366004611800565b60076020526000908152604090205481565b604051908152602001610166565b34801561023257600080fd5b506101e961024136600461181b565b610713565b34801561025257600080fd5b506101e961026136600461181b565b610744565b34801561027257600080fd5b506101b16102813660046117a1565b61075f565b34801561029257600080fd5b506102186102a1366004611857565b6107d6565b3480156102b257600080fd5b506102186102c1366004611800565b61082d565b3480156102d257600080fd5b506101e96108b4565b6101e96102e9366004611879565b610930565b3480156102fa57600080fd5b5061031e610309366004611800565b60086020526000908152604090205460ff1681565b60405161016691906118bb565b34801561033757600080fd5b50610184610a30565b34801561034c57600080fd5b506101e961035b3660046118e3565b610a3f565b34801561036c57600080fd5b506101e961037b3660046119ab565b610a4e565b34801561038c57600080fd5b506101e961039b3660046119f4565b610ac5565b3480156103ac57600080fd5b506101e96103bb366004611879565b610afd565b3480156103cc57600080fd5b506101e96103db3660046117a1565b610bc1565b3480156103ec57600080fd5b506101846103fb3660046117a1565b610c50565b34801561040c57600080fd5b5061015a61041b366004611a70565b6001600160a01b03918216600090815260056020908152604080832093909416825291909152205460ff1690565b34801561045557600080fd5b50610218610464366004611800565b6001600160a01b031660009081526007602052604090205490565b60006001600160e01b031982166380ac58cd60e01b14806104b057506001600160e01b03198216635b5e139f60e01b145b806104cb57506301ffc9a760e01b6001600160e01b03198316145b92915050565b6060600080546104e090611aa3565b80601f016020809104026020016040519081016040528092919081815260200182805461050c90611aa3565b80156105595780601f1061052e57610100808354040283529160200191610559565b820191906000526020600020905b81548152906001019060200180831161053c57829003601f168201915b5050505050905090565b6000818152600260205260408120546001600160a01b03166105e15760405162461bcd60e51b815260206004820152602c60248201527f4552433732313a20617070726f76656420717565727920666f72206e6f6e657860448201526b34b9ba32b73a103a37b5b2b760a11b60648201526084015b60405180910390fd5b506000908152600460205260409020546001600160a01b031690565b60006106088261075f565b9050806001600160a01b0316836001600160a01b031614156106765760405162461bcd60e51b815260206004820152602160248201527f4552433732313a20617070726f76616c20746f2063757272656e74206f776e656044820152603960f91b60648201526084016105d8565b336001600160a01b03821614806106925750610692813361041b565b6107045760405162461bcd60e51b815260206004820152603860248201527f4552433732313a20617070726f76652063616c6c6572206973206e6f74206f7760448201527f6e6572206e6f7220617070726f76656420666f7220616c6c000000000000000060648201526084016105d8565b61070e8383610d41565b505050565b61071d3382610daf565b6107395760405162461bcd60e51b81526004016105d890611ade565b61070e838383610ea6565b61070e83838360405180602001604052806000815250610ac5565b6000818152600260205260408120546001600160a01b0316806104cb5760405162461bcd60e51b815260206004820152602960248201527f4552433732313a206f776e657220717565727920666f72206e6f6e657869737460448201526832b73a103a37b5b2b760b91b60648201526084016105d8565b6000828152600c602052604081208054829190849081106107f9576107f9611b2f565b90600052602060002001549050600e818154811061081957610819611b2f565b906000526020600020015491505092915050565b60006001600160a01b0382166108985760405162461bcd60e51b815260206004820152602a60248201527f4552433732313a2062616c616e636520717565727920666f7220746865207a65604482015269726f206164647265737360b01b60648201526084016105d8565b506001600160a01b031660009081526003602052604090205490565b3360009081526008602052604081205460ff1660018111156108d8576108d86118a5565b146109255760405162461bcd60e51b815260206004820152601d60248201527f52454a5556453a204f6e65206964656e7469747920706572207573657200000060448201526064016105d8565b61092d611042565b50565b60013360009081526008602052604090205460ff166001811115610956576109566118a5565b146109735760405162461bcd60e51b81526004016105d890611b45565b61097c8361075f565b6001600160a01b0316336001600160a01b0316146109ea5760405162461bcd60e51b815260206004820152602560248201527f52454a5556453a2043616c6c6572206973206e6f74206f776e6572206f66204c604482015264185888125160da1b60648201526084016105d8565b60408051848152602081018490529081018290527f510e852b17b79f6282c2d20611b138322b036171eedc658841fcc0d2403d53bb9060600160405180910390a1505050565b6060600180546104e090611aa3565b610a4a338383611094565b5050565b60013360009081526008602052604090205460ff166001811115610a7457610a746118a5565b14610a915760405162461bcd60e51b81526004016105d890611b45565b600081604051602001610aa49190611b75565b604051602081830303815290604052805190602001209050610a4a81611163565b610acf3383610daf565b610aeb5760405162461bcd60e51b81526004016105d890611ade565b610af7848484846111e9565b50505050565b60013360009081526008602052604090205460ff166001811115610b2357610b236118a5565b14610b405760405162461bcd60e51b81526004016105d890611b45565b6000828152600a60209081526040808320543384526007909252909120548391908114610baf5760405162461bcd60e51b815260206004820152601760248201527f52454a5556453a204f6e6c792044617461204f776e657200000000000000000060448201526064016105d8565b610bba85858561121c565b5050505050565b3360009081526007602052604090205481908114610c215760405162461bcd60e51b815260206004820152601b60248201527f52454a5556453a204f6e6c79204964656e74697479204f776e6572000000000060448201526064016105d8565b610c2a826112ce565b5050336000908152600860209081526040808320805460ff191690556007909152812055565b6000818152600260205260409020546060906001600160a01b0316610ccf5760405162461bcd60e51b815260206004820152602f60248201527f4552433732314d657461646174613a2055524920717565727920666f72206e6f60448201526e3732bc34b9ba32b73a103a37b5b2b760891b60648201526084016105d8565b6000610ce660408051602081019091526000815290565b90506000815111610d065760405180602001604052806000815250610d31565b80610d1084611369565b604051602001610d21929190611b91565b6040516020818303038152906040525b9392505050565b80546001019055565b600081815260046020526040902080546001600160a01b0319166001600160a01b0384169081179091558190610d768261075f565b6001600160a01b03167f8c5be1e5ebec7d5bd14f71427d1e84f3dd0314c0f7b2291e5b200ac8c7c3b92560405160405180910390a45050565b6000818152600260205260408120546001600160a01b0316610e285760405162461bcd60e51b815260206004820152602c60248201527f4552433732313a206f70657261746f7220717565727920666f72206e6f6e657860448201526b34b9ba32b73a103a37b5b2b760a11b60648201526084016105d8565b6000610e338361075f565b9050806001600160a01b0316846001600160a01b03161480610e6e5750836001600160a01b0316610e6384610563565b6001600160a01b0316145b80610e9e57506001600160a01b0380821660009081526005602090815260408083209388168352929052205460ff165b949350505050565b826001600160a01b0316610eb98261075f565b6001600160a01b031614610f1d5760405162461bcd60e51b815260206004820152602560248201527f4552433732313a207472616e736665722066726f6d20696e636f72726563742060448201526437bbb732b960d91b60648201526084016105d8565b6001600160a01b038216610f7f5760405162461bcd60e51b8152602060048201526024808201527f4552433732313a207472616e7366657220746f20746865207a65726f206164646044820152637265737360e01b60648201526084016105d8565b610f8a600082610d41565b6001600160a01b0383166000908152600360205260408120805460019290610fb3908490611bd6565b90915550506001600160a01b0382166000908152600360205260408120805460019290610fe1908490611bed565b909155505060008181526002602052604080822080546001600160a01b0319166001600160a01b0386811691821790925591518493918716917fddf252ad1be2c89b69c2b068fc378daa952ba7f163c4a11628f55a4df523b3ef91a4505050565b60008061104e60065490565b905061105e600680546001019055565b6110683382611467565b33600090815260076020908152604080832084905560089091529020805460ff19166001179055919050565b816001600160a01b0316836001600160a01b031614156110f65760405162461bcd60e51b815260206004820152601960248201527f4552433732313a20617070726f766520746f2063616c6c65720000000000000060448201526064016105d8565b6001600160a01b03838116600081815260056020908152604080832094871680845294825291829020805460ff191686151590811790915591519182527f17307eab39ab6107e8899845ad3d59bd9653f200f220920489ca2b5937696c31910160405180910390a3505050565b600e80546001818101835560008381527fbb7b4a454dc3493923482f07822329ed19e8244eff582cc204f8554c3620c3fd909201849055915490916111a791611bd6565b33600090815260076020908152604080832054808452600c835281842080546001810182559085528385200194909455948252600a9052929092209190915550565b6111f4848484610ea6565b61120084848484611481565b610af75760405162461bcd60e51b81526004016105d890611c05565b6040805160208082018690528183018590526060808301859052835180840390910181526080830180855281519183019190912033600090815260078452858120548152600b845285812080546001808201835591835285832001839055888252600d8552868220888352909452859020805460ff191690931790925581905291517fa3d61b9cdf744675cae28d310353843537e9170210b3511e84bfe222b01b40ee9181900360a00190a150505050565b60006112d98261075f565b90506112e6600083610d41565b6001600160a01b038116600090815260036020526040812080546001929061130f908490611bd6565b909155505060008281526002602052604080822080546001600160a01b0319169055518391906001600160a01b038416907fddf252ad1be2c89b69c2b068fc378daa952ba7f163c4a11628f55a4df523b3ef908390a45050565b60608161138d5750506040805180820190915260018152600360fc1b602082015290565b8160005b81156113b757806113a181611c57565b91506113b09050600a83611c88565b9150611391565b60008167ffffffffffffffff8111156113d2576113d261191f565b6040519080825280601f01601f1916602001820160405280156113fc576020820181803683370190505b5090505b8415610e9e57611411600183611bd6565b915061141e600a86611c9c565b611429906030611bed565b60f81b81838151811061143e5761143e611b2f565b60200101906001600160f81b031916908160001a905350611460600a86611c88565b9450611400565b610a4a82826040518060200160405280600081525061158e565b60006001600160a01b0384163b1561158357604051630a85bd0160e11b81526001600160a01b0385169063150b7a02906114c5903390899088908890600401611cb0565b602060405180830381600087803b1580156114df57600080fd5b505af192505050801561150f575060408051601f3d908101601f1916820190925261150c91810190611ced565b60015b611569573d80801561153d576040519150601f19603f3d011682016040523d82523d6000602084013e611542565b606091505b5080516115615760405162461bcd60e51b81526004016105d890611c05565b805181602001fd5b6001600160e01b031916630a85bd0160e11b149050610e9e565b506001949350505050565b61159883836115c1565b6115a56000848484611481565b61070e5760405162461bcd60e51b81526004016105d890611c05565b6001600160a01b0382166116175760405162461bcd60e51b815260206004820181905260248201527f4552433732313a206d696e7420746f20746865207a65726f206164647265737360448201526064016105d8565b6000818152600260205260409020546001600160a01b03161561167c5760405162461bcd60e51b815260206004820152601c60248201527f4552433732313a20746f6b656e20616c7265616479206d696e7465640000000060448201526064016105d8565b6001600160a01b03821660009081526003602052604081208054600192906116a5908490611bed565b909155505060008181526002602052604080822080546001600160a01b0319166001600160a01b03861690811790915590518392907fddf252ad1be2c89b69c2b068fc378daa952ba7f163c4a11628f55a4df523b3ef908290a45050565b6001600160e01b03198116811461092d57600080fd5b60006020828403121561172b57600080fd5b8135610d3181611703565b60005b83811015611751578181015183820152602001611739565b83811115610af75750506000910152565b6000815180845261177a816020860160208601611736565b601f01601f19169290920160200192915050565b602081526000610d316020830184611762565b6000602082840312156117b357600080fd5b5035919050565b80356001600160a01b03811681146117d157600080fd5b919050565b600080604083850312156117e957600080fd5b6117f2836117ba565b946020939093013593505050565b60006020828403121561181257600080fd5b610d31826117ba565b60008060006060848603121561183057600080fd5b611839846117ba565b9250611847602085016117ba565b9150604084013590509250925092565b6000806040838503121561186a57600080fd5b50508035926020909101359150565b60008060006060848603121561188e57600080fd5b505081359360208301359350604090920135919050565b634e487b7160e01b600052602160045260246000fd5b60208101600283106118dd57634e487b7160e01b600052602160045260246000fd5b91905290565b600080604083850312156118f657600080fd5b6118ff836117ba565b91506020830135801515811461191457600080fd5b809150509250929050565b634e487b7160e01b600052604160045260246000fd5b600067ffffffffffffffff808411156119505761195061191f565b604051601f8501601f19908116603f011681019082821181831017156119785761197861191f565b8160405280935085815286868601111561199157600080fd5b858560208301376000602087830101525050509392505050565b6000602082840312156119bd57600080fd5b813567ffffffffffffffff8111156119d457600080fd5b8201601f810184136119e557600080fd5b610e9e84823560208401611935565b60008060008060808587031215611a0a57600080fd5b611a13856117ba565b9350611a21602086016117ba565b925060408501359150606085013567ffffffffffffffff811115611a4457600080fd5b8501601f81018713611a5557600080fd5b611a6487823560208401611935565b91505092959194509250565b60008060408385031215611a8357600080fd5b611a8c836117ba565b9150611a9a602084016117ba565b90509250929050565b600181811c90821680611ab757607f821691505b60208210811415611ad857634e487b7160e01b600052602260045260246000fd5b50919050565b60208082526031908201527f4552433732313a207472616e736665722063616c6c6572206973206e6f74206f6040820152701ddb995c881b9bdc88185c1c1c9bdd9959607a1b606082015260800190565b634e487b7160e01b600052603260045260246000fd5b6020808252601690820152751491529555914e88139bdd08149959da5cdd195c995960521b604082015260600190565b60008251611b87818460208701611736565b9190910192915050565b60008351611ba3818460208801611736565b835190830190611bb7818360208801611736565b01949350505050565b634e487b7160e01b600052601160045260246000fd5b600082821015611be857611be8611bc0565b500390565b60008219821115611c0057611c00611bc0565b500190565b60208082526032908201527f4552433732313a207472616e7366657220746f206e6f6e20455243373231526560408201527131b2b4bb32b91034b6b83632b6b2b73a32b960711b606082015260800190565b6000600019821415611c6b57611c6b611bc0565b5060010190565b634e487b7160e01b600052601260045260246000fd5b600082611c9757611c97611c72565b500490565b600082611cab57611cab611c72565b500690565b6001600160a01b0385811682528416602082015260408101839052608060608201819052600090611ce390830184611762565b9695505050505050565b600060208284031215611cff57600080fd5b8151610d318161170356fea2646970667358221220d37120c317afa8282c3aeee2892aa0d262f4d083f696ec3673de438218cdd6b464736f6c63430008090033",
  "linkReferences": {},
  "deployedLinkReferences": {}
}