{
    "contractName": "DataManagement",
    "abi": [
        {
            "inputs": [
                {
                    "internalType": "contract IdentityToken",
                    "name": "identityToken_",
                    "type": "address"
                },
                {
                    "internalType": "contract IERC20",
                    "name": "rejuveToken_",
                    "type": "address"
                }
            ],
            "stateMutability": "nonpayable",
            "type": "constructor"
        },
        {
            "anonymous": false,
            "inputs": [
                {
                    "indexed": false,
                    "internalType": "address",
                    "name": "dataOwner",
                    "type": "address"
                },
                {
                    "indexed": false,
                    "internalType": "uint256",
                    "name": "dataOwnerId",
                    "type": "uint256"
                },
                {
                    "indexed": false,
                    "internalType": "bytes32",
                    "name": "dataHash",
                    "type": "bytes32"
                }
            ],
            "name": "DataSubmitted",
            "type": "event"
        },
        {
            "anonymous": false,
            "inputs": [
                {
                    "indexed": false,
                    "internalType": "uint256",
                    "name": "requesterId",
                    "type": "uint256"
                },
                {
                    "indexed": false,
                    "internalType": "bytes32",
                    "name": "dataHash",
                    "type": "bytes32"
                },
                {
                    "indexed": false,
                    "internalType": "uint256",
                    "name": "nextProductUID",
                    "type": "uint256"
                },
                {
                    "indexed": false,
                    "internalType": "bytes32",
                    "name": "permissionHash",
                    "type": "bytes32"
                }
            ],
            "name": "PermissionGranted",
            "type": "event"
        },
        {
            "anonymous": false,
            "inputs": [
                {
                    "indexed": false,
                    "internalType": "uint256",
                    "name": "requesterId",
                    "type": "uint256"
                },
                {
                    "indexed": false,
                    "internalType": "bytes32",
                    "name": "dataHash",
                    "type": "bytes32"
                },
                {
                    "indexed": false,
                    "internalType": "uint256",
                    "name": "nextProductUID",
                    "type": "uint256"
                }
            ],
            "name": "PermissionRequested",
            "type": "event"
        },
        {
            "inputs": [
                {
                    "internalType": "uint256",
                    "name": "_tokenId",
                    "type": "uint256"
                },
                {
                    "internalType": "uint256",
                    "name": "_index",
                    "type": "uint256"
                }
            ],
            "name": "getDataByTokenId",
            "outputs": [
                {
                    "internalType": "bytes32",
                    "name": "",
                    "type": "bytes32"
                }
            ],
            "stateMutability": "view",
            "type": "function"
        },
        {
            "inputs": [
                {
                    "internalType": "bytes32",
                    "name": "_dHash",
                    "type": "bytes32"
                }
            ],
            "name": "getDataOwnerId",
            "outputs": [
                {
                    "internalType": "uint256",
                    "name": "",
                    "type": "uint256"
                }
            ],
            "stateMutability": "view",
            "type": "function"
        },
        {
            "inputs": [
                {
                    "internalType": "bytes32",
                    "name": "_dHash",
                    "type": "bytes32"
                },
                {
                    "internalType": "uint256",
                    "name": "_productUID",
                    "type": "uint256"
                }
            ],
            "name": "getPermissionStatus",
            "outputs": [
                {
                    "internalType": "uint8",
                    "name": "",
                    "type": "uint8"
                }
            ],
            "stateMutability": "view",
            "type": "function"
        },
        {
            "inputs": [
                {
                    "internalType": "uint256",
                    "name": "_requesterId",
                    "type": "uint256"
                },
                {
                    "internalType": "bytes32",
                    "name": "_dHash",
                    "type": "bytes32"
                },
                {
                    "internalType": "uint256",
                    "name": "_nextProductUID",
                    "type": "uint256"
                }
            ],
            "name": "grantPermission",
            "outputs": [],
            "stateMutability": "nonpayable",
            "type": "function"
        },
        {
            "inputs": [
                {
                    "internalType": "uint256",
                    "name": "_requesterId",
                    "type": "uint256"
                },
                {
                    "internalType": "bytes32",
                    "name": "_dHash",
                    "type": "bytes32"
                },
                {
                    "internalType": "uint256",
                    "name": "_nextProductUID",
                    "type": "uint256"
                }
            ],
            "name": "requestPermission",
            "outputs": [],
            "stateMutability": "nonpayable",
            "type": "function"
        },
        {
            "inputs": [
                {
                    "internalType": "bytes32",
                    "name": "_dHash",
                    "type": "bytes32"
                }
            ],
            "name": "submitData",
            "outputs": [],
            "stateMutability": "nonpayable",
            "type": "function"
        }
    ],
    "bytecode": "608060405234801561001057600080fd5b50604051610b0b380380610b0b83398101604081905261002f91610078565b600080546001600160a01b039384166001600160a01b031991821617909155600180549290931691161790556100b2565b6001600160a01b038116811461007557600080fd5b50565b6000806040838503121561008b57600080fd5b825161009681610060565b60208401519092506100a781610060565b809150509250929050565b610a4a806100c16000396000f3fe608060405234801561001057600080fd5b50600436106100625760003560e01c80636439b3ca1461006757806391f8b6951461008d578063b472810b146100a2578063bb985d7d146100c7578063bcc5060a146100da578063d77a84f7146100ed575b600080fd5b61007a6100753660046108c7565b61010d565b6040519081526020015b60405180910390f35b6100a061009b3660046108e9565b610164565b005b6100b56100b03660046108c7565b6103b6565b60405160ff9091168152602001610084565b6100a06100d5366004610915565b6103eb565b6100a06100e83660046108e9565b610485565b61007a6100fb366004610915565b60009081526002602052604090205490565b60008281526004602052604081208054829190849081106101305761013061092e565b90600052602060002001549050600781815481106101505761015061092e565b906000526020600020015491505092915050565b6000546040516325aabec560e11b81523360048201526001600160a01b0390911690634b557d8a90602401602060405180830381865afa1580156101ac573d6000803e3d6000fd5b505050506040513d601f19601f820116820180604052508101906101d09190610944565b60ff166001146101fb5760405162461bcd60e51b81526004016101f290610967565b60405180910390fd5b6000546040516331a9108f60e11b8152600481018590526001600160a01b0390911690636352211e90602401602060405180830381865afa158015610244573d6000803e3d6000fd5b505050506040513d601f19601f820116820180604052508101906102689190610997565b6001600160a01b0316336001600160a01b0316146102d25760405162461bcd60e51b815260206004820152602160248201527f52454a5556453a2043616c6c6572206973206e6f74206f776e6572206f6620496044820152601160fa1b60648201526084016101f2565b600082815260056020908152604080832084845290915281205460ff166001811115610300576103006109c0565b1461034d5760405162461bcd60e51b815260206004820152601e60248201527f52454a5556453a20446174612072657175657374656420616c7265616479000060448201526064016101f2565b6000828152600560209081526040808320848452825291829020805460ff1916600117905581518581529081018490529081018290527f510e852b17b79f6282c2d20611b138322b036171eedc658841fcc0d2403d53bb906060015b60405180910390a1505050565b600082815260066020908152604080832084845290915281205460ff1660018111156103e4576103e46109c0565b9392505050565b6000546040516325aabec560e11b81523360048201526001600160a01b0390911690634b557d8a90602401602060405180830381865afa158015610433573d6000803e3d6000fd5b505050506040513d601f19601f820116820180604052508101906104579190610944565b60ff166001146104795760405162461bcd60e51b81526004016101f290610967565b6104828161066b565b50565b6000546040516325aabec560e11b81523360048201526001600160a01b0390911690634b557d8a90602401602060405180830381865afa1580156104cd573d6000803e3d6000fd5b505050506040513d601f19601f820116820180604052508101906104f19190610944565b60ff166001146105135760405162461bcd60e51b81526004016101f290610967565b600082815260026020526040808220549154905163ea32fff760e01b81523360048201528492916001600160a01b03169063ea32fff790602401602060405180830381865afa15801561056a573d6000803e3d6000fd5b505050506040513d601f19601f8201168201806040525081019061058e91906109d6565b81146105dc5760405162461bcd60e51b815260206004820152601760248201527f52454a5556453a204f6e6c792044617461204f776e657200000000000000000060448201526064016101f2565b6001600085815260056020908152604080832087845290915290205460ff16600181111561060c5761060c6109c0565b146106595760405162461bcd60e51b815260206004820152601a60248201527f52454a5556453a2044617461206e6f742072657175657374656400000000000060448201526064016101f2565b610664858585610790565b5050505050565b600780546001818101835560008381527fa66cc928b5edb82af9bd49922954155ab7b0942694bea4ce44661d9a8736c688909201849055915490916106af916109ef565b6000805460405163ea32fff760e01b815233600482015292935090916001600160a01b039091169063ea32fff790602401602060405180830381865afa1580156106fd573d6000803e3d6000fd5b505050506040513d601f19601f8201168201806040525081019061072191906109d6565b6000818152600460209081526040808320805460018101825590845282842001869055868352600282529182902083905581513381529081018390529081018590529091507f56c8117577772d9e0b5a9defcb9f18039012aeb804da4a40d3767a7686f24b95906060016103a9565b604080516020808201869052818301859052606080830185905283518084039091018152608090920190925280519101206000906000805460405163ea32fff760e01b81523360048201529293506003926001600160a01b039091169063ea32fff790602401602060405180830381865afa158015610813573d6000803e3d6000fd5b505050506040513d601f19601f8201168201806040525081019061083791906109d6565b8152602080820192909252604090810160009081208054600180820183559183528483200185905586825260068452828220868352845290829020805460ff1916909117905580518681529182018590528101839052606081018290527f328b299a91452ae75f772ce43b4ed479b1a06ca94ed7b7a0cd331a908da07c759060800160405180910390a150505050565b600080604083850312156108da57600080fd5b50508035926020909101359150565b6000806000606084860312156108fe57600080fd5b505081359360208301359350604090920135919050565b60006020828403121561092757600080fd5b5035919050565b634e487b7160e01b600052603260045260246000fd5b60006020828403121561095657600080fd5b815160ff811681146103e457600080fd5b6020808252601690820152751491529555914e88139bdd08149959da5cdd195c995960521b604082015260600190565b6000602082840312156109a957600080fd5b81516001600160a01b03811681146103e457600080fd5b634e487b7160e01b600052602160045260246000fd5b6000602082840312156109e857600080fd5b5051919050565b600082821015610a0f57634e487b7160e01b600052601160045260246000fd5b50039056fea264697066735822122039af0a6bc4090d66bb719d3c3e7d5ab2a00b852372095debee5b37b4b2d1de6d64736f6c634300080e0033",
    "sourcePath": "/home/bushra/Documents/SNET/Rejuve/Blockchain/rejuve-platform-contracts/contracts/DataManagement.sol",
    "compiler": {
        "name": "solc",
        "version": "0.8.14+commit.80d49f37"
    },
    "functionHashes": {
        "getDataByTokenId(uint256,uint256)": "6439b3ca",
        "getDataOwnerId(bytes32)": "d77a84f7",
        "getPermissionStatus(bytes32,uint256)": "b472810b",
        "grantPermission(uint256,bytes32,uint256)": "bcc5060a",
        "requestPermission(uint256,bytes32,uint256)": "91f8b695",
        "submitData(bytes32)": "bb985d7d"
    },
    "gasEstimates": {
        "creation": {
            "codeDepositCost": "526800",
            "executionCost": "infinite",
            "totalCost": "infinite"
        },
        "external": {
            "getDataByTokenId(uint256,uint256)": "8934",
            "getDataOwnerId(bytes32)": "2515",
            "getPermissionStatus(bytes32,uint256)": "2617",
            "grantPermission(uint256,bytes32,uint256)": "infinite",
            "requestPermission(uint256,bytes32,uint256)": "infinite",
            "submitData(bytes32)": "infinite"
        },
        "internal": {
            "_generatePermissionHash(uint256,bytes32,uint256)": "infinite",
            "_grantPermission(uint256,bytes32,uint256)": "infinite",
            "_submitData(bytes32)": "infinite"
        }
    }
}