{
    "contractName": "ShardDistribution",
    "abi": [
        {
            "inputs": [
                {
                    "internalType": "string",
                    "name": "name_",
                    "type": "string"
                },
                {
                    "internalType": "string",
                    "name": "symbol_",
                    "type": "string"
                },
                {
                    "internalType": "uint256",
                    "name": "cap_",
                    "type": "uint256"
                },
                {
                    "internalType": "uint8",
                    "name": "shareDecimal_",
                    "type": "uint8"
                },
                {
                    "internalType": "uint256",
                    "name": "productNftID_",
                    "type": "uint256"
                },
                {
                    "internalType": "contract IProductNFT",
                    "name": "productNFT_",
                    "type": "address"
                },
                {
                    "internalType": "address",
                    "name": "rejuveAdmin_",
                    "type": "address"
                },
                {
                    "internalType": "uint256",
                    "name": "initialContributorShare_",
                    "type": "uint256"
                },
                {
                    "internalType": "uint256",
                    "name": "futureContributorShare_",
                    "type": "uint256"
                },
                {
                    "internalType": "uint256",
                    "name": "rejuveShare_",
                    "type": "uint256"
                },
                {
                    "internalType": "uint256",
                    "name": "curatorFee_",
                    "type": "uint256"
                }
            ],
            "stateMutability": "nonpayable",
            "type": "constructor"
        },
        {
            "anonymous": false,
            "inputs": [
                {
                    "indexed": true,
                    "internalType": "address",
                    "name": "owner",
                    "type": "address"
                },
                {
                    "indexed": true,
                    "internalType": "address",
                    "name": "spender",
                    "type": "address"
                },
                {
                    "indexed": false,
                    "internalType": "uint256",
                    "name": "value",
                    "type": "uint256"
                }
            ],
            "name": "Approval",
            "type": "event"
        },
        {
            "anonymous": false,
            "inputs": [
                {
                    "indexed": false,
                    "internalType": "address",
                    "name": "account",
                    "type": "address"
                }
            ],
            "name": "Paused",
            "type": "event"
        },
        {
            "anonymous": false,
            "inputs": [
                {
                    "indexed": true,
                    "internalType": "bytes32",
                    "name": "role",
                    "type": "bytes32"
                },
                {
                    "indexed": true,
                    "internalType": "bytes32",
                    "name": "previousAdminRole",
                    "type": "bytes32"
                },
                {
                    "indexed": true,
                    "internalType": "bytes32",
                    "name": "newAdminRole",
                    "type": "bytes32"
                }
            ],
            "name": "RoleAdminChanged",
            "type": "event"
        },
        {
            "anonymous": false,
            "inputs": [
                {
                    "indexed": true,
                    "internalType": "bytes32",
                    "name": "role",
                    "type": "bytes32"
                },
                {
                    "indexed": true,
                    "internalType": "address",
                    "name": "account",
                    "type": "address"
                },
                {
                    "indexed": true,
                    "internalType": "address",
                    "name": "sender",
                    "type": "address"
                }
            ],
            "name": "RoleGranted",
            "type": "event"
        },
        {
            "anonymous": false,
            "inputs": [
                {
                    "indexed": true,
                    "internalType": "bytes32",
                    "name": "role",
                    "type": "bytes32"
                },
                {
                    "indexed": true,
                    "internalType": "address",
                    "name": "account",
                    "type": "address"
                },
                {
                    "indexed": true,
                    "internalType": "address",
                    "name": "sender",
                    "type": "address"
                }
            ],
            "name": "RoleRevoked",
            "type": "event"
        },
        {
            "anonymous": false,
            "inputs": [
                {
                    "indexed": false,
                    "internalType": "uint256",
                    "name": "productUID",
                    "type": "uint256"
                },
                {
                    "indexed": false,
                    "internalType": "address",
                    "name": "dataOwner",
                    "type": "address"
                },
                {
                    "indexed": false,
                    "internalType": "uint256",
                    "name": "share",
                    "type": "uint256"
                }
            ],
            "name": "ShardDistributed",
            "type": "event"
        },
        {
            "anonymous": false,
            "inputs": [
                {
                    "indexed": true,
                    "internalType": "address",
                    "name": "from",
                    "type": "address"
                },
                {
                    "indexed": true,
                    "internalType": "address",
                    "name": "to",
                    "type": "address"
                },
                {
                    "indexed": false,
                    "internalType": "uint256",
                    "name": "value",
                    "type": "uint256"
                }
            ],
            "name": "Transfer",
            "type": "event"
        },
        {
            "anonymous": false,
            "inputs": [
                {
                    "indexed": false,
                    "internalType": "address",
                    "name": "account",
                    "type": "address"
                }
            ],
            "name": "Unpaused",
            "type": "event"
        },
        {
            "inputs": [],
            "name": "DEFAULT_ADMIN_ROLE",
            "outputs": [
                {
                    "internalType": "bytes32",
                    "name": "",
                    "type": "bytes32"
                }
            ],
            "stateMutability": "view",
            "type": "function"
        },
        {
            "inputs": [],
            "name": "MINTER_ROLE",
            "outputs": [
                {
                    "internalType": "bytes32",
                    "name": "",
                    "type": "bytes32"
                }
            ],
            "stateMutability": "view",
            "type": "function"
        },
        {
            "inputs": [],
            "name": "PAUSER_ROLE",
            "outputs": [
                {
                    "internalType": "bytes32",
                    "name": "",
                    "type": "bytes32"
                }
            ],
            "stateMutability": "view",
            "type": "function"
        },
        {
            "inputs": [
                {
                    "internalType": "address",
                    "name": "owner",
                    "type": "address"
                },
                {
                    "internalType": "address",
                    "name": "spender",
                    "type": "address"
                }
            ],
            "name": "allowance",
            "outputs": [
                {
                    "internalType": "uint256",
                    "name": "",
                    "type": "uint256"
                }
            ],
            "stateMutability": "view",
            "type": "function"
        },
        {
            "inputs": [
                {
                    "internalType": "address",
                    "name": "spender",
                    "type": "address"
                },
                {
                    "internalType": "uint256",
                    "name": "amount",
                    "type": "uint256"
                }
            ],
            "name": "approve",
            "outputs": [
                {
                    "internalType": "bool",
                    "name": "",
                    "type": "bool"
                }
            ],
            "stateMutability": "nonpayable",
            "type": "function"
        },
        {
            "inputs": [
                {
                    "internalType": "address",
                    "name": "account",
                    "type": "address"
                }
            ],
            "name": "balanceOf",
            "outputs": [
                {
                    "internalType": "uint256",
                    "name": "",
                    "type": "uint256"
                }
            ],
            "stateMutability": "view",
            "type": "function"
        },
        {
            "inputs": [],
            "name": "cap",
            "outputs": [
                {
                    "internalType": "uint256",
                    "name": "",
                    "type": "uint256"
                }
            ],
            "stateMutability": "view",
            "type": "function"
        },
        {
            "inputs": [
                {
                    "internalType": "uint256",
                    "name": "_productUID",
                    "type": "uint256"
                }
            ],
            "name": "createShardsByAdmin",
            "outputs": [],
            "stateMutability": "nonpayable",
            "type": "function"
        },
        {
            "inputs": [],
            "name": "decimals",
            "outputs": [
                {
                    "internalType": "uint8",
                    "name": "",
                    "type": "uint8"
                }
            ],
            "stateMutability": "view",
            "type": "function"
        },
        {
            "inputs": [
                {
                    "internalType": "address",
                    "name": "spender",
                    "type": "address"
                },
                {
                    "internalType": "uint256",
                    "name": "subtractedValue",
                    "type": "uint256"
                }
            ],
            "name": "decreaseAllowance",
            "outputs": [
                {
                    "internalType": "bool",
                    "name": "",
                    "type": "bool"
                }
            ],
            "stateMutability": "nonpayable",
            "type": "function"
        },
        {
            "inputs": [
                {
                    "internalType": "bytes32",
                    "name": "role",
                    "type": "bytes32"
                }
            ],
            "name": "getRoleAdmin",
            "outputs": [
                {
                    "internalType": "bytes32",
                    "name": "",
                    "type": "bytes32"
                }
            ],
            "stateMutability": "view",
            "type": "function"
        },
        {
            "inputs": [
                {
                    "internalType": "bytes32",
                    "name": "role",
                    "type": "bytes32"
                },
                {
                    "internalType": "address",
                    "name": "account",
                    "type": "address"
                }
            ],
            "name": "grantRole",
            "outputs": [],
            "stateMutability": "nonpayable",
            "type": "function"
        },
        {
            "inputs": [
                {
                    "internalType": "bytes32",
                    "name": "role",
                    "type": "bytes32"
                },
                {
                    "internalType": "address",
                    "name": "account",
                    "type": "address"
                }
            ],
            "name": "hasRole",
            "outputs": [
                {
                    "internalType": "bool",
                    "name": "",
                    "type": "bool"
                }
            ],
            "stateMutability": "view",
            "type": "function"
        },
        {
            "inputs": [
                {
                    "internalType": "address",
                    "name": "spender",
                    "type": "address"
                },
                {
                    "internalType": "uint256",
                    "name": "addedValue",
                    "type": "uint256"
                }
            ],
            "name": "increaseAllowance",
            "outputs": [
                {
                    "internalType": "bool",
                    "name": "",
                    "type": "bool"
                }
            ],
            "stateMutability": "nonpayable",
            "type": "function"
        },
        {
            "inputs": [],
            "name": "name",
            "outputs": [
                {
                    "internalType": "string",
                    "name": "",
                    "type": "string"
                }
            ],
            "stateMutability": "view",
            "type": "function"
        },
        {
            "inputs": [
                {
                    "internalType": "address",
                    "name": "",
                    "type": "address"
                },
                {
                    "internalType": "address",
                    "name": "",
                    "type": "address"
                },
                {
                    "internalType": "uint256",
                    "name": "",
                    "type": "uint256"
                },
                {
                    "internalType": "bytes",
                    "name": "",
                    "type": "bytes"
                }
            ],
            "name": "onERC721Received",
            "outputs": [
                {
                    "internalType": "bytes4",
                    "name": "",
                    "type": "bytes4"
                }
            ],
            "stateMutability": "pure",
            "type": "function"
        },
        {
            "inputs": [],
            "name": "parentToken",
            "outputs": [
                {
                    "internalType": "address",
                    "name": "_parentToken",
                    "type": "address"
                }
            ],
            "stateMutability": "view",
            "type": "function"
        },
        {
            "inputs": [],
            "name": "parentTokenId",
            "outputs": [
                {
                    "internalType": "uint256",
                    "name": "_parentTokenId",
                    "type": "uint256"
                }
            ],
            "stateMutability": "view",
            "type": "function"
        },
        {
            "inputs": [],
            "name": "pause",
            "outputs": [],
            "stateMutability": "nonpayable",
            "type": "function"
        },
        {
            "inputs": [],
            "name": "paused",
            "outputs": [
                {
                    "internalType": "bool",
                    "name": "",
                    "type": "bool"
                }
            ],
            "stateMutability": "view",
            "type": "function"
        },
        {
            "inputs": [
                {
                    "internalType": "bytes32",
                    "name": "role",
                    "type": "bytes32"
                },
                {
                    "internalType": "address",
                    "name": "account",
                    "type": "address"
                }
            ],
            "name": "renounceRole",
            "outputs": [],
            "stateMutability": "nonpayable",
            "type": "function"
        },
        {
            "inputs": [
                {
                    "internalType": "bytes32",
                    "name": "role",
                    "type": "bytes32"
                },
                {
                    "internalType": "address",
                    "name": "account",
                    "type": "address"
                }
            ],
            "name": "revokeRole",
            "outputs": [],
            "stateMutability": "nonpayable",
            "type": "function"
        },
        {
            "inputs": [
                {
                    "internalType": "bytes4",
                    "name": "interfaceId",
                    "type": "bytes4"
                }
            ],
            "name": "supportsInterface",
            "outputs": [
                {
                    "internalType": "bool",
                    "name": "",
                    "type": "bool"
                }
            ],
            "stateMutability": "view",
            "type": "function"
        },
        {
            "inputs": [],
            "name": "symbol",
            "outputs": [
                {
                    "internalType": "string",
                    "name": "",
                    "type": "string"
                }
            ],
            "stateMutability": "view",
            "type": "function"
        },
        {
            "inputs": [],
            "name": "totalSupply",
            "outputs": [
                {
                    "internalType": "uint256",
                    "name": "",
                    "type": "uint256"
                }
            ],
            "stateMutability": "view",
            "type": "function"
        },
        {
            "inputs": [
                {
                    "internalType": "address",
                    "name": "to",
                    "type": "address"
                },
                {
                    "internalType": "uint256",
                    "name": "amount",
                    "type": "uint256"
                }
            ],
            "name": "transfer",
            "outputs": [
                {
                    "internalType": "bool",
                    "name": "",
                    "type": "bool"
                }
            ],
            "stateMutability": "nonpayable",
            "type": "function"
        },
        {
            "inputs": [
                {
                    "internalType": "address",
                    "name": "from",
                    "type": "address"
                },
                {
                    "internalType": "address",
                    "name": "to",
                    "type": "address"
                },
                {
                    "internalType": "uint256",
                    "name": "amount",
                    "type": "uint256"
                }
            ],
            "name": "transferFrom",
            "outputs": [
                {
                    "internalType": "bool",
                    "name": "",
                    "type": "bool"
                }
            ],
            "stateMutability": "nonpayable",
            "type": "function"
        },
        {
            "inputs": [],
            "name": "unpause",
            "outputs": [],
            "stateMutability": "nonpayable",
            "type": "function"
        }
    ],
    "bytecode": "60a06040523480156200001157600080fd5b50604051620020c3380380620020c3833981016040819052620000349162000329565b6001805460ff19169055888b8b87898b620000516000846200017d565b6200007d7f9f2df0fed2c77648de5860a4cc508cd0818c85b8b8a1ab4ceeef8d981c8956a6336200017d565b620000a97f65d7a28e3265b37a6474929f336521b332c1681b933f6cb9f3376673440d862a846200017d565b600180546001600160a01b0390931661010002610100600160a81b031990931692909217909155600255506006620000e283826200049d565b506007620000f182826200049d565b50505060008111620001495760405162461bcd60e51b815260206004820152601560248201527f45524332304361707065643a2063617020697320300000000000000000000000604482015260640160405180910390fd5b6080526008805460ff191660ff9990991698909817909755600992909255600a55600b55505050600c555062000569915050565b6200018982826200018d565b5050565b6000828152602081815260408083206001600160a01b038516845290915290205460ff1662000189576000828152602081815260408083206001600160a01b03851684529091529020805460ff19166001179055620001e93390565b6001600160a01b0316816001600160a01b0316837f2f8788117e7eff1d82e926ec794901d17c78024a50270940304540a733656f0d60405160405180910390a45050565b634e487b7160e01b600052604160045260246000fd5b600082601f8301126200025557600080fd5b81516001600160401b03808211156200027257620002726200022d565b604051601f8301601f19908116603f011681019082821181831017156200029d576200029d6200022d565b81604052838152602092508683858801011115620002ba57600080fd5b600091505b83821015620002de5785820183015181830184015290820190620002bf565b83821115620002f05760008385830101525b9695505050505050565b805160ff811681146200030c57600080fd5b919050565b80516001600160a01b03811681146200030c57600080fd5b60008060008060008060008060008060006101608c8e0312156200034c57600080fd5b8b516001600160401b038111156200036357600080fd5b620003718e828f0162000243565b60208e0151909c5090506001600160401b038111156200039057600080fd5b6200039e8e828f0162000243565b9a505060408c01519850620003b660608d01620002fa565b975060808c01519650620003cd60a08d0162000311565b9550620003dd60c08d0162000311565b945060e08c015193506101008c015192506101208c015191506101408c015190509295989b509295989b9093969950565b600181811c908216806200042357607f821691505b6020821081036200044457634e487b7160e01b600052602260045260246000fd5b50919050565b601f8211156200049857600081815260208120601f850160051c81016020861015620004735750805b601f850160051c820191505b8181101562000494578281556001016200047f565b5050505b505050565b81516001600160401b03811115620004b957620004b96200022d565b620004d181620004ca84546200040e565b846200044a565b602080601f831160018114620005095760008415620004f05750858301515b600019600386901b1c1916600185901b17855562000494565b600085815260208120601f198616915b828110156200053a5788860151825594840194600190910190840162000519565b5085821015620005595787850151600019600388901b60f8161c191681555b5050505050600190811b01905550565b608051611b3062000593600039600081816102c4015281816113b301526114370152611b306000f3fe608060405234801561001057600080fd5b50600436106101c45760003560e01c806370a08231116100f9578063a9059cbb11610097578063d547741f11610071578063d547741f146103fe578063d7f083f314610411578063dd62ed3e14610419578063e63ab1e91461045257600080fd5b8063a9059cbb146103b1578063aa1b5627146103c4578063d5391393146103d757600080fd5b806391d14854116100d357806391d148541461037b57806395d89b411461038e578063a217fddf14610396578063a457c2d71461039e57600080fd5b806370a082311461032157806380a540011461034a5780638456cb591461037357600080fd5b80632f2ff15d1161016657806336568abe1161014057806336568abe146102e857806339509351146102fb5780633f4ba83a1461030e5780635c975abb1461031657600080fd5b80632f2ff15d14610298578063313ce567146102ad578063355274ea146102c257600080fd5b8063150b7a02116101a2578063150b7a021461021957806318160ddd1461025057806323b872dd14610262578063248a9ca31461027557600080fd5b806301ffc9a7146101c957806306fdde03146101f1578063095ea7b314610206575b600080fd5b6101dc6101d7366004611598565b610479565b60405190151581526020015b60405180910390f35b6101f96104b0565b6040516101e8919061161a565b6101dc610214366004611642565b610542565b6102376102273660046116dd565b630a85bd0160e11b949350505050565b6040516001600160e01b031990911681526020016101e8565b6005545b6040519081526020016101e8565b6101dc61027036600461178c565b61055a565b6102546102833660046117cd565b60009081526020819052604090206001015490565b6102ab6102a63660046117e6565b61057e565b005b60085460405160ff90911681526020016101e8565b7f0000000000000000000000000000000000000000000000000000000000000000610254565b6102ab6102f63660046117e6565b6105a9565b6101dc610309366004611642565b61062c565b6102ab61066b565b60015460ff166101dc565b61025461032f366004611816565b6001600160a01b031660009081526003602052604090205490565b60015461010090046001600160a01b03166040516001600160a01b0390911681526020016101e8565b6102ab6106f5565b6101dc6103893660046117e6565b610782565b6101f96107ab565b610254600081565b6101dc6103ac366004611642565b6107ba565b6101dc6103bf366004611642565b61084c565b6102ab6103d23660046117cd565b61085a565b6102547f9f2df0fed2c77648de5860a4cc508cd0818c85b8b8a1ab4ceeef8d981c8956a681565b6102ab61040c3660046117e6565b610940565b600254610254565b610254610427366004611833565b6001600160a01b03918216600090815260046020908152604080832093909416825291909152205490565b6102547f65d7a28e3265b37a6474929f336521b332c1681b933f6cb9f3376673440d862a81565b60006001600160e01b03198216637965db0b60e01b14806104aa57506301ffc9a760e01b6001600160e01b03198316145b92915050565b6060600680546104bf90611861565b80601f01602080910402602001604051908101604052809291908181526020018280546104eb90611861565b80156105385780601f1061050d57610100808354040283529160200191610538565b820191906000526020600020905b81548152906001019060200180831161051b57829003601f168201915b5050505050905090565b600033610550818585610966565b5060019392505050565b600033610568858285610a8a565b610573858585610b1c565b506001949350505050565b60008281526020819052604090206001015461059a8133610cea565b6105a48383610d4e565b505050565b6001600160a01b038116331461061e5760405162461bcd60e51b815260206004820152602f60248201527f416363657373436f6e74726f6c3a2063616e206f6e6c792072656e6f756e636560448201526e103937b632b9903337b91039b2b63360891b60648201526084015b60405180910390fd5b6106288282610dd2565b5050565b3360008181526004602090815260408083206001600160a01b038716845290915281205490919061055090829086906106669087906118b1565b610966565b6106957f65d7a28e3265b37a6474929f336521b332c1681b933f6cb9f3376673440d862a33610782565b6106eb5760405162461bcd60e51b815260206004820152602160248201527f52454a5556453a204d757374206861766520726f6c6520746f20756e706175736044820152606560f81b6064820152608401610615565b6106f3610e37565b565b61071f7f65d7a28e3265b37a6474929f336521b332c1681b933f6cb9f3376673440d862a33610782565b61077a5760405162461bcd60e51b815260206004820152602660248201527f52454a5556453a204d75737420686176652070617573657220726f6c6520746f60448201526520706175736560d01b6064820152608401610615565b6106f3610eca565b6000918252602082815260408084206001600160a01b0393909316845291905290205460ff1690565b6060600780546104bf90611861565b3360008181526004602090815260408083206001600160a01b03871684529091528120549091908381101561083f5760405162461bcd60e51b815260206004820152602560248201527f45524332303a2064656372656173656420616c6c6f77616e63652062656c6f77604482015264207a65726f60d81b6064820152608401610615565b6105738286868403610966565b600033610550818585610b1c565b60015460ff16156108a05760405162461bcd60e51b815260206004820152601060248201526f14185d5cd8589b194e881c185d5cd95960821b6044820152606401610615565b6108ca7f9f2df0fed2c77648de5860a4cc508cd0818c85b8b8a1ab4ceeef8d981c8956a633610782565b61092b5760405162461bcd60e51b815260206004820152602c60248201527f52454a5556453a204d7573742068617665206d696e74657220726f6c6520746f60448201526b206d696e742073686172647360a01b6064820152608401610615565b61093481610f43565b61093d81610fb4565b50565b60008281526020819052604090206001015461095c8133610cea565b6105a48383610dd2565b6001600160a01b0383166109c85760405162461bcd60e51b8152602060048201526024808201527f45524332303a20617070726f76652066726f6d20746865207a65726f206164646044820152637265737360e01b6064820152608401610615565b6001600160a01b038216610a295760405162461bcd60e51b815260206004820152602260248201527f45524332303a20617070726f766520746f20746865207a65726f206164647265604482015261737360f01b6064820152608401610615565b6001600160a01b0383811660008181526004602090815260408083209487168084529482529182902085905590518481527f8c5be1e5ebec7d5bd14f71427d1e84f3dd0314c0f7b2291e5b200ac8c7c3b925910160405180910390a3505050565b6001600160a01b038381166000908152600460209081526040808320938616835292905220546000198114610b165781811015610b095760405162461bcd60e51b815260206004820152601d60248201527f45524332303a20696e73756666696369656e7420616c6c6f77616e63650000006044820152606401610615565b610b168484848403610966565b50505050565b6001600160a01b038316610b805760405162461bcd60e51b815260206004820152602560248201527f45524332303a207472616e736665722066726f6d20746865207a65726f206164604482015264647265737360d81b6064820152608401610615565b6001600160a01b038216610be25760405162461bcd60e51b815260206004820152602360248201527f45524332303a207472616e7366657220746f20746865207a65726f206164647260448201526265737360e81b6064820152608401610615565b6001600160a01b03831660009081526003602052604090205481811015610c5a5760405162461bcd60e51b815260206004820152602660248201527f45524332303a207472616e7366657220616d6f756e7420657863656564732062604482015265616c616e636560d01b6064820152608401610615565b6001600160a01b03808516600090815260036020526040808220858503905591851681529081208054849290610c919084906118b1565b92505081905550826001600160a01b0316846001600160a01b03167fddf252ad1be2c89b69c2b068fc378daa952ba7f163c4a11628f55a4df523b3ef84604051610cdd91815260200190565b60405180910390a3610b16565b610cf48282610782565b61062857610d0c816001600160a01b03166014611193565b610d17836020611193565b604051602001610d289291906118c9565b60408051601f198184030181529082905262461bcd60e51b82526106159160040161161a565b610d588282610782565b610628576000828152602081815260408083206001600160a01b03851684529091529020805460ff19166001179055610d8e3390565b6001600160a01b0316816001600160a01b0316837f2f8788117e7eff1d82e926ec794901d17c78024a50270940304540a733656f0d60405160405180910390a45050565b610ddc8282610782565b15610628576000828152602081815260408083206001600160a01b0385168085529252808320805460ff1916905551339285917ff6391f5c32d9c69d2a47ea670b442974b53935d1edc7fd64eb21e047a839171b9190a45050565b60015460ff16610e805760405162461bcd60e51b815260206004820152601460248201527314185d5cd8589b194e881b9bdd081c185d5cd95960621b6044820152606401610615565b6001805460ff191690557f5db9ee0a495bf2e6ff9c91a7834c1ba4fdd244a5e8aa4e537bd38aeae4b073aa335b6040516001600160a01b03909116815260200160405180910390a1565b60015460ff1615610f105760405162461bcd60e51b815260206004820152601060248201526f14185d5cd8589b194e881c185d5cd95960821b6044820152606401610615565b6001805460ff1916811790557f62e78cea01bee320cd4e420270b5ea74000d11b0c9f74754ebdbfc544b05a25833610ead565b600154604051632142170760e11b8152336004820152306024820152604481018390526101009091046001600160a01b0316906342842e0e90606401600060405180830381600087803b158015610f9957600080fd5b505af1158015610fad573d6000803e3d6000fd5b5050505050565b6000610fbf82611336565b905060005b81518110156105a457600060018054906101000a90046001600160a01b03166001600160a01b03166359a96ffe8484815181106110035761100361193e565b60200260200101516040518263ffffffff1660e01b8152600401611027919061161a565b602060405180830381865afa158015611044573d6000803e3d6000fd5b505050506040513d601f19601f820116820180604052508101906110689190611954565b9050600061110d60018054906101000a90046001600160a01b03166001600160a01b0316630e47cefa8686815181106110a3576110a361193e565b6020026020010151886040518363ffffffff1660e01b81526004016110c9929190611971565b602060405180830381865afa1580156110e6573d6000803e3d6000fd5b505050506040513d601f19601f8201168201806040525081019061110a9190611993565b90565b905061111982826113b1565b6001600160a01b0382166000818152600d6020908152604091829020805460ff1916600117905581518881529081019290925281018290527f7fe515693bf29d2bbd9d4e37a709d2027086b404ebfdd3f3de3acc05817152749060600160405180910390a15050808061118b906119ac565b915050610fc4565b606060006111a28360026119c5565b6111ad9060026118b1565b67ffffffffffffffff8111156111c5576111c561166e565b6040519080825280601f01601f1916602001820160405280156111ef576020820181803683370190505b509050600360fc1b8160008151811061120a5761120a61193e565b60200101906001600160f81b031916908160001a905350600f60fb1b816001815181106112395761123961193e565b60200101906001600160f81b031916908160001a905350600061125d8460026119c5565b6112689060016118b1565b90505b60018111156112e0576f181899199a1a9b1b9c1cb0b131b232b360811b85600f166010811061129c5761129c61193e565b1a60f81b8282815181106112b2576112b261193e565b60200101906001600160f81b031916908160001a90535060049490941c936112d9816119e4565b905061126b565b50831561132f5760405162461bcd60e51b815260206004820181905260248201527f537472696e67733a20686578206c656e67746820696e73756666696369656e746044820152606401610615565b9392505050565b60015460405163c9187fe760e01b8152600481018390526060916000916101009091046001600160a01b03169063c9187fe790602401600060405180830381865afa158015611389573d6000803e3d6000fd5b505050506040513d6000823e601f3d908101601f1916820160405261132f91908101906119fb565b7f0000000000000000000000000000000000000000000000000000000000000000816113dc60055490565b6113e691906118b1565b11156114305760405162461bcd60e51b8152602060048201526019602482015278115490cc8c10d85c1c19590e8818d85c08195e18d959591959603a1b6044820152606401610615565b61062882827f00000000000000000000000000000000000000000000000000000000000000008161146060055490565b61146a91906118b1565b11156114b45760405162461bcd60e51b8152602060048201526019602482015278115490cc8c10d85c1c19590e8818d85c08195e18d959591959603a1b6044820152606401610615565b61062882826001600160a01b03821661150f5760405162461bcd60e51b815260206004820152601f60248201527f45524332303a206d696e7420746f20746865207a65726f2061646472657373006044820152606401610615565b806005600082825461152191906118b1565b90915550506001600160a01b0382166000908152600360205260408120805483929061154e9084906118b1565b90915550506040518181526001600160a01b038316906000907fddf252ad1be2c89b69c2b068fc378daa952ba7f163c4a11628f55a4df523b3ef9060200160405180910390a35050565b6000602082840312156115aa57600080fd5b81356001600160e01b03198116811461132f57600080fd5b60005b838110156115dd5781810151838201526020016115c5565b83811115610b165750506000910152565b600081518084526116068160208601602086016115c2565b601f01601f19169290920160200192915050565b60208152600061132f60208301846115ee565b6001600160a01b038116811461093d57600080fd5b6000806040838503121561165557600080fd5b82356116608161162d565b946020939093013593505050565b634e487b7160e01b600052604160045260246000fd5b604051601f8201601f1916810167ffffffffffffffff811182821017156116ad576116ad61166e565b604052919050565b600067ffffffffffffffff8211156116cf576116cf61166e565b50601f01601f191660200190565b600080600080608085870312156116f357600080fd5b84356116fe8161162d565b9350602085013561170e8161162d565b925060408501359150606085013567ffffffffffffffff81111561173157600080fd5b8501601f8101871361174257600080fd5b8035611755611750826116b5565b611684565b81815288602083850101111561176a57600080fd5b8160208401602083013760006020838301015280935050505092959194509250565b6000806000606084860312156117a157600080fd5b83356117ac8161162d565b925060208401356117bc8161162d565b929592945050506040919091013590565b6000602082840312156117df57600080fd5b5035919050565b600080604083850312156117f957600080fd5b82359150602083013561180b8161162d565b809150509250929050565b60006020828403121561182857600080fd5b813561132f8161162d565b6000806040838503121561184657600080fd5b82356118518161162d565b9150602083013561180b8161162d565b600181811c9082168061187557607f821691505b60208210810361189557634e487b7160e01b600052602260045260246000fd5b50919050565b634e487b7160e01b600052601160045260246000fd5b600082198211156118c4576118c461189b565b500190565b7f416363657373436f6e74726f6c3a206163636f756e74200000000000000000008152600083516119018160178501602088016115c2565b7001034b99036b4b9b9b4b733903937b6329607d1b60179184019182015283516119328160288401602088016115c2565b01602801949350505050565b634e487b7160e01b600052603260045260246000fd5b60006020828403121561196657600080fd5b815161132f8161162d565b60408152600061198460408301856115ee565b90508260208301529392505050565b6000602082840312156119a557600080fd5b5051919050565b6000600182016119be576119be61189b565b5060010190565b60008160001904831182151516156119df576119df61189b565b500290565b6000816119f3576119f361189b565b506000190190565b60006020808385031215611a0e57600080fd5b825167ffffffffffffffff80821115611a2657600080fd5b818501915085601f830112611a3a57600080fd5b815181811115611a4c57611a4c61166e565b8060051b611a5b858201611684565b9182528381018501918581019089841115611a7557600080fd5b86860192505b83831015611aed57825185811115611a935760008081fd5b8601603f81018b13611aa55760008081fd5b878101516040611ab7611750836116b5565b8281528d82848601011115611acc5760008081fd5b611adb838c83018487016115c2565b85525050509186019190860190611a7b565b999850505050505050505056fea2646970667358221220cfcbf5c923e9acdcd47ee9ee5bfa7627727c4018734b6b2abaa2a16f91986f4264736f6c634300080f0033",
    "sourcePath": "/home/bushra/Documents/SNET/Rejuve/Blockchain/rejuve-platform-contracts/contracts/ShardDistribution.sol",
    "compiler": {
        "name": "solc",
        "version": "0.8.15+commit.e14f2714"
    },
    "functionHashes": {
        "DEFAULT_ADMIN_ROLE()": "a217fddf",
        "MINTER_ROLE()": "d5391393",
        "PAUSER_ROLE()": "e63ab1e9",
        "allowance(address,address)": "dd62ed3e",
        "approve(address,uint256)": "095ea7b3",
        "balanceOf(address)": "70a08231",
        "cap()": "355274ea",
        "createShardsByAdmin(uint256)": "aa1b5627",
        "decimals()": "313ce567",
        "decreaseAllowance(address,uint256)": "a457c2d7",
        "getRoleAdmin(bytes32)": "248a9ca3",
        "grantRole(bytes32,address)": "2f2ff15d",
        "hasRole(bytes32,address)": "91d14854",
        "increaseAllowance(address,uint256)": "39509351",
        "name()": "06fdde03",
        "onERC721Received(address,address,uint256,bytes)": "150b7a02",
        "parentToken()": "80a54001",
        "parentTokenId()": "d7f083f3",
        "pause()": "8456cb59",
        "paused()": "5c975abb",
        "renounceRole(bytes32,address)": "36568abe",
        "revokeRole(bytes32,address)": "d547741f",
        "supportsInterface(bytes4)": "01ffc9a7",
        "symbol()": "95d89b41",
        "totalSupply()": "18160ddd",
        "transfer(address,uint256)": "a9059cbb",
        "transferFrom(address,address,uint256)": "23b872dd",
        "unpause()": "3f4ba83a"
    },
    "gasEstimates": {
        "creation": {
            "codeDepositCost": "1392000",
            "executionCost": "infinite",
            "totalCost": "infinite"
        },
        "external": {
            "DEFAULT_ADMIN_ROLE()": "284",
            "MINTER_ROLE()": "284",
            "PAUSER_ROLE()": "305",
            "allowance(address,address)": "infinite",
            "approve(address,uint256)": "24675",
            "balanceOf(address)": "2577",
            "cap()": "infinite",
            "createShardsByAdmin(uint256)": "infinite",
            "decimals()": "2357",
            "decreaseAllowance(address,uint256)": "26994",
            "getRoleAdmin(bytes32)": "2559",
            "grantRole(bytes32,address)": "infinite",
            "hasRole(bytes32,address)": "2695",
            "increaseAllowance(address,uint256)": "26995",
            "name()": "infinite",
            "onERC721Received(address,address,uint256,bytes)": "infinite",
            "parentToken()": "2398",
            "parentTokenId()": "2358",
            "pause()": "30011",
            "paused()": "2404",
            "renounceRole(bytes32,address)": "29039",
            "revokeRole(bytes32,address)": "infinite",
            "supportsInterface(bytes4)": "473",
            "symbol()": "infinite",
            "totalSupply()": "2349",
            "transfer(address,uint256)": "51204",
            "transferFrom(address,address,uint256)": "infinite",
            "unpause()": "29990"
        },
        "internal": {
            "_calculateContributorShards(uint256,uint256)": "infinite",
            "_calculateShareAmount(uint256)": "infinite",
            "_calculateTotalShards(uint256)": "infinite",
            "_createInitialShards(uint256)": "infinite",
            "_mint(address,uint256)": "infinite",
            "_transferNFTownership(uint256)": "infinite",
            "getData(uint256)": "infinite"
        }
    }
}