{
  "_format": "hh-sol-artifact-1",
  "contractName": "ShardsTrading",
  "sourceName": "contracts/ShardsTrading.sol",
  "abi": [
    {
      "inputs": [
        {
          "internalType": "contract IERC20",
          "name": "rejuveToken_",
          "type": "address"
        },
        {
          "internalType": "contract IProductShards",
          "name": "productShards_",
          "type": "address"
        }
      ],
      "stateMutability": "nonpayable",
      "type": "constructor"
    },
    {
      "anonymous": false,
      "inputs": [
        {
          "indexed": false,
          "internalType": "uint256",
          "name": "tokenAmount",
          "type": "uint256"
        },
        {
          "indexed": false,
          "internalType": "uint256",
          "name": "purchaseAmount",
          "type": "uint256"
        },
        {
          "indexed": false,
          "internalType": "address",
          "name": "owner",
          "type": "address"
        },
        {
          "indexed": false,
          "internalType": "address",
          "name": "buyer",
          "type": "address"
        }
      ],
      "name": "buy",
      "type": "event"
    },
    {
      "inputs": [
        {
          "internalType": "address",
          "name": "_buyer",
          "type": "address"
        },
        {
          "internalType": "address",
          "name": "_shardSeller",
          "type": "address"
        },
        {
          "internalType": "uint256",
          "name": "_shardAmount",
          "type": "uint256"
        }
      ],
      "name": "buyShare",
      "outputs": [],
      "stateMutability": "nonpayable",
      "type": "function"
    }
  ],
  "bytecode": "0x608060405234801561001057600080fd5b506040516106a43803806106a483398101604081905261002f91610078565b600080546001600160a01b039384166001600160a01b031991821617909155600180549290931691161790556100b2565b6001600160a01b038116811461007557600080fd5b50565b6000806040838503121561008b57600080fd5b825161009681610060565b60208401519092506100a781610060565b809150509250929050565b6105e3806100c16000396000f3fe608060405234801561001057600080fd5b506004361061002b5760003560e01c80635f9fbc2d14610030575b600080fd5b61004361003e366004610509565b610045565b005b6001546040516370a0823160e01b81526001600160a01b038481166004830152909116906370a082319060240160206040518083038186803b15801561008a57600080fd5b505afa15801561009e573d6000803e3d6000fd5b505050506040513d601f19601f820116820180604052508101906100c29190610545565b8111156101165760405162461bcd60e51b815260206004820152601b60248201527f52454a5556453a20496e73756666696369656e7420536861726473000000000060448201526064015b60405180910390fd5b600061012182610453565b600054604051636eb1769f60e11b81526001600160a01b03878116600483015230602483015292935091169063dd62ed3e9060440160206040518083038186803b15801561016e57600080fd5b505afa158015610182573d6000803e3d6000fd5b505050506040513d601f19601f820116820180604052508101906101a69190610545565b8111156102015760405162461bcd60e51b8152602060048201526024808201527f52454a5556453a20496e737566666963656e742052656a75766520416c6c6f77604482015263616e636560e01b606482015260840161010d565b6000546040516323b872dd60e01b81526001600160a01b038681166004830152858116602483015260448201849052909116906323b872dd90606401602060405180830381600087803b15801561025757600080fd5b505af115801561026b573d6000803e3d6000fd5b505050506040513d601f19601f8201168201806040525081019061028f919061055e565b50600154604051636eb1769f60e11b81526001600160a01b0385811660048301523060248301529091169063dd62ed3e9060440160206040518083038186803b1580156102db57600080fd5b505afa1580156102ef573d6000803e3d6000fd5b505050506040513d601f19601f820116820180604052508101906103139190610545565b82111561036e5760405162461bcd60e51b815260206004820152602360248201527f52454a5556453a20496e737566666963656e7420536861726420416c6c6f77616044820152626e636560e81b606482015260840161010d565b6001546040516323b872dd60e01b81526001600160a01b038581166004830152868116602483015260448201859052909116906323b872dd90606401602060405180830381600087803b1580156103c457600080fd5b505af11580156103d8573d6000803e3d6000fd5b505050506040513d601f19601f820116820180604052508101906103fc919061055e565b5060408051828152602081018490526001600160a01b03858116828401528616606082015290517f82b2a559457a8dc8a2198820ca24216d6860b146933c6b94f616d3f68c19750c9181900360800190a150505050565b600080600160009054906101000a90046001600160a01b03166001600160a01b0316635b1dac606040518163ffffffff1660e01b815260040160206040518083038186803b1580156104a457600080fd5b505afa1580156104b8573d6000803e3d6000fd5b505050506040513d601f19601f820116820180604052508101906104dc9190610545565b6104e69084610580565b9392505050565b80356001600160a01b038116811461050457600080fd5b919050565b60008060006060848603121561051e57600080fd5b610527846104ed565b9250610535602085016104ed565b9150604084013590509250925092565b60006020828403121561055757600080fd5b5051919050565b60006020828403121561057057600080fd5b815180151581146104e657600080fd5b60008160001904831182151516156105a857634e487b7160e01b600052601160045260246000fd5b50029056fea2646970667358221220d82a4ae6518cf3ef1c8310f6cb6e72630aab713547ec233a2cddb50dc142556c64736f6c63430008090033",
  "linkReferences": {},
  "deployedLinkReferences": {}
}