{
  "_format": "hh-sol-artifact-1",
  "contractName": "ProductShards",
  "sourceName": "contracts/ProductShards.sol",
  "abi": [
    {
      "inputs": [
        {
          "internalType": "string",
          "name": "uri_",
          "type": "string"
        },
        {
          "internalType": "address",
          "name": "productNFT_",
          "type": "address"
        }
      ],
      "stateMutability": "nonpayable",
      "type": "constructor"
    },
    {
      "anonymous": false,
      "inputs": [
        {
          "indexed": true,
          "internalType": "address",
          "name": "account",
          "type": "address"
        },
        {
          "indexed": true,
          "internalType": "address",
          "name": "operator",
          "type": "address"
        },
        {
          "indexed": false,
          "internalType": "bool",
          "name": "approved",
          "type": "bool"
        }
      ],
      "name": "ApprovalForAll",
      "type": "event"
    },
    {
      "anonymous": false,
      "inputs": [
        {
          "indexed": false,
          "internalType": "uint256",
          "name": "productUID",
          "type": "uint256"
        },
        {
          "indexed": false,
          "internalType": "address[]",
          "name": "initialContributors",
          "type": "address[]"
        },
        {
          "indexed": false,
          "internalType": "uint256[]",
          "name": "shardAmount",
          "type": "uint256[]"
        }
      ],
      "name": "InitialShardDistributed",
      "type": "event"
    },
    {
      "anonymous": false,
      "inputs": [
        {
          "indexed": true,
          "internalType": "address",
          "name": "previousOwner",
          "type": "address"
        },
        {
          "indexed": true,
          "internalType": "address",
          "name": "newOwner",
          "type": "address"
        }
      ],
      "name": "OwnershipTransferred",
      "type": "event"
    },
    {
      "anonymous": false,
      "inputs": [
        {
          "indexed": false,
          "internalType": "address",
          "name": "account",
          "type": "address"
        }
      ],
      "name": "Paused",
      "type": "event"
    },
    {
      "anonymous": false,
      "inputs": [
        {
          "indexed": true,
          "internalType": "address",
          "name": "operator",
          "type": "address"
        },
        {
          "indexed": true,
          "internalType": "address",
          "name": "from",
          "type": "address"
        },
        {
          "indexed": true,
          "internalType": "address",
          "name": "to",
          "type": "address"
        },
        {
          "indexed": false,
          "internalType": "uint256[]",
          "name": "ids",
          "type": "uint256[]"
        },
        {
          "indexed": false,
          "internalType": "uint256[]",
          "name": "values",
          "type": "uint256[]"
        }
      ],
      "name": "TransferBatch",
      "type": "event"
    },
    {
      "anonymous": false,
      "inputs": [
        {
          "indexed": true,
          "internalType": "address",
          "name": "operator",
          "type": "address"
        },
        {
          "indexed": true,
          "internalType": "address",
          "name": "from",
          "type": "address"
        },
        {
          "indexed": true,
          "internalType": "address",
          "name": "to",
          "type": "address"
        },
        {
          "indexed": false,
          "internalType": "uint256",
          "name": "id",
          "type": "uint256"
        },
        {
          "indexed": false,
          "internalType": "uint256",
          "name": "value",
          "type": "uint256"
        }
      ],
      "name": "TransferSingle",
      "type": "event"
    },
    {
      "anonymous": false,
      "inputs": [
        {
          "indexed": false,
          "internalType": "string",
          "name": "value",
          "type": "string"
        },
        {
          "indexed": true,
          "internalType": "uint256",
          "name": "id",
          "type": "uint256"
        }
      ],
      "name": "URI",
      "type": "event"
    },
    {
      "anonymous": false,
      "inputs": [
        {
          "indexed": false,
          "internalType": "address",
          "name": "account",
          "type": "address"
        }
      ],
      "name": "Unpaused",
      "type": "event"
    },
    {
      "inputs": [
        {
          "internalType": "address",
          "name": "account",
          "type": "address"
        },
        {
          "internalType": "uint256",
          "name": "id",
          "type": "uint256"
        }
      ],
      "name": "balanceOf",
      "outputs": [
        {
          "internalType": "uint256",
          "name": "",
          "type": "uint256"
        }
      ],
      "stateMutability": "view",
      "type": "function"
    },
    {
      "inputs": [
        {
          "internalType": "address[]",
          "name": "accounts",
          "type": "address[]"
        },
        {
          "internalType": "uint256[]",
          "name": "ids",
          "type": "uint256[]"
        }
      ],
      "name": "balanceOfBatch",
      "outputs": [
        {
          "internalType": "uint256[]",
          "name": "",
          "type": "uint256[]"
        }
      ],
      "stateMutability": "view",
      "type": "function"
    },
    {
      "inputs": [
        {
          "internalType": "uint256",
          "name": "productUID",
          "type": "uint256"
        },
        {
          "internalType": "uint256",
          "name": "targetSupply_",
          "type": "uint256"
        },
        {
          "internalType": "uint256",
          "name": "labCredit",
          "type": "uint256"
        },
        {
          "internalType": "uint256",
          "name": "lockPeriod",
          "type": "uint256"
        },
        {
          "internalType": "uint8",
          "name": "initialPercent",
          "type": "uint8"
        },
        {
          "internalType": "uint8",
          "name": "rejuvePercent",
          "type": "uint8"
        },
        {
          "internalType": "address",
          "name": "lab",
          "type": "address"
        },
        {
          "internalType": "address",
          "name": "rejuve",
          "type": "address"
        },
        {
          "internalType": "string[]",
          "name": "uris",
          "type": "string[]"
        }
      ],
      "name": "distributeInitialShards",
      "outputs": [],
      "stateMutability": "nonpayable",
      "type": "function"
    },
    {
      "inputs": [
        {
          "internalType": "uint256",
          "name": "productUID",
          "type": "uint256"
        }
      ],
      "name": "getInitialContributorShards",
      "outputs": [
        {
          "internalType": "uint256[]",
          "name": "",
          "type": "uint256[]"
        }
      ],
      "stateMutability": "view",
      "type": "function"
    },
    {
      "inputs": [
        {
          "internalType": "uint256",
          "name": "productUID",
          "type": "uint256"
        }
      ],
      "name": "getInitialContributors",
      "outputs": [
        {
          "internalType": "address[]",
          "name": "",
          "type": "address[]"
        }
      ],
      "stateMutability": "view",
      "type": "function"
    },
    {
      "inputs": [
        {
          "internalType": "uint256",
          "name": "productUID",
          "type": "uint256"
        }
      ],
      "name": "getInitialDistributionStatus",
      "outputs": [
        {
          "internalType": "bool",
          "name": "",
          "type": "bool"
        }
      ],
      "stateMutability": "view",
      "type": "function"
    },
    {
      "inputs": [
        {
          "internalType": "uint256",
          "name": "productUID",
          "type": "uint256"
        }
      ],
      "name": "getProductIDs",
      "outputs": [
        {
          "internalType": "uint256[]",
          "name": "",
          "type": "uint256[]"
        }
      ],
      "stateMutability": "view",
      "type": "function"
    },
    {
      "inputs": [
        {
          "internalType": "uint256",
          "name": "productUID",
          "type": "uint256"
        }
      ],
      "name": "getShardsConfig",
      "outputs": [
        {
          "internalType": "uint256",
          "name": "",
          "type": "uint256"
        },
        {
          "internalType": "uint8",
          "name": "",
          "type": "uint8"
        },
        {
          "internalType": "uint8",
          "name": "",
          "type": "uint8"
        },
        {
          "internalType": "uint8",
          "name": "",
          "type": "uint8"
        }
      ],
      "stateMutability": "view",
      "type": "function"
    },
    {
      "inputs": [
        {
          "internalType": "address",
          "name": "account",
          "type": "address"
        },
        {
          "internalType": "address",
          "name": "operator",
          "type": "address"
        }
      ],
      "name": "isApprovedForAll",
      "outputs": [
        {
          "internalType": "bool",
          "name": "",
          "type": "bool"
        }
      ],
      "stateMutability": "view",
      "type": "function"
    },
    {
      "inputs": [],
      "name": "owner",
      "outputs": [
        {
          "internalType": "address",
          "name": "",
          "type": "address"
        }
      ],
      "stateMutability": "view",
      "type": "function"
    },
    {
      "inputs": [],
      "name": "paused",
      "outputs": [
        {
          "internalType": "bool",
          "name": "",
          "type": "bool"
        }
      ],
      "stateMutability": "view",
      "type": "function"
    },
    {
      "inputs": [],
      "name": "renounceOwnership",
      "outputs": [],
      "stateMutability": "nonpayable",
      "type": "function"
    },
    {
      "inputs": [
        {
          "internalType": "address",
          "name": "from",
          "type": "address"
        },
        {
          "internalType": "address",
          "name": "to",
          "type": "address"
        },
        {
          "internalType": "uint256[]",
          "name": "ids",
          "type": "uint256[]"
        },
        {
          "internalType": "uint256[]",
          "name": "amounts",
          "type": "uint256[]"
        },
        {
          "internalType": "bytes",
          "name": "data",
          "type": "bytes"
        }
      ],
      "name": "safeBatchTransferFrom",
      "outputs": [],
      "stateMutability": "nonpayable",
      "type": "function"
    },
    {
      "inputs": [
        {
          "internalType": "address",
          "name": "from",
          "type": "address"
        },
        {
          "internalType": "address",
          "name": "to",
          "type": "address"
        },
        {
          "internalType": "uint256",
          "name": "id",
          "type": "uint256"
        },
        {
          "internalType": "uint256",
          "name": "amount",
          "type": "uint256"
        },
        {
          "internalType": "bytes",
          "name": "data",
          "type": "bytes"
        }
      ],
      "name": "safeTransferFrom",
      "outputs": [],
      "stateMutability": "nonpayable",
      "type": "function"
    },
    {
      "inputs": [
        {
          "internalType": "address",
          "name": "operator",
          "type": "address"
        },
        {
          "internalType": "bool",
          "name": "approved",
          "type": "bool"
        }
      ],
      "name": "setApprovalForAll",
      "outputs": [],
      "stateMutability": "nonpayable",
      "type": "function"
    },
    {
      "inputs": [
        {
          "internalType": "bytes4",
          "name": "interfaceId",
          "type": "bytes4"
        }
      ],
      "name": "supportsInterface",
      "outputs": [
        {
          "internalType": "bool",
          "name": "",
          "type": "bool"
        }
      ],
      "stateMutability": "view",
      "type": "function"
    },
    {
      "inputs": [
        {
          "internalType": "uint256",
          "name": "productUID",
          "type": "uint256"
        }
      ],
      "name": "targetSupply",
      "outputs": [
        {
          "internalType": "uint256",
          "name": "",
          "type": "uint256"
        }
      ],
      "stateMutability": "view",
      "type": "function"
    },
    {
      "inputs": [
        {
          "internalType": "uint256",
          "name": "productUID",
          "type": "uint256"
        }
      ],
      "name": "totalShardSupply",
      "outputs": [
        {
          "internalType": "uint256",
          "name": "",
          "type": "uint256"
        }
      ],
      "stateMutability": "view",
      "type": "function"
    },
    {
      "inputs": [
        {
          "internalType": "address",
          "name": "newOwner",
          "type": "address"
        }
      ],
      "name": "transferOwnership",
      "outputs": [],
      "stateMutability": "nonpayable",
      "type": "function"
    },
    {
      "inputs": [
        {
          "internalType": "uint256",
          "name": "id",
          "type": "uint256"
        }
      ],
      "name": "uri",
      "outputs": [
        {
          "internalType": "string",
          "name": "",
          "type": "string"
        }
      ],
      "stateMutability": "view",
      "type": "function"
    }
  ],
  "bytecode": "0x60806040523480156200001157600080fd5b5060405162006a4d38038062006a4d8339818101604052810190620000379190620003e1565b81620000586200004c6200010560201b60201c565b6200010d60201b60201c565b60008060146101000a81548160ff0219169083151502179055506200008381620001d160201b60201c565b50620000a067dfa48286744d8f7660c01b620001e660201b60201c565b620000bc67c46ad85b656cd16860c01b620001e660201b60201c565b80600460006101000a81548173ffffffffffffffffffffffffffffffffffffffff021916908373ffffffffffffffffffffffffffffffffffffffff160217905550505062000779565b600033905090565b60008060009054906101000a900473ffffffffffffffffffffffffffffffffffffffff169050816000806101000a81548173ffffffffffffffffffffffffffffffffffffffff021916908373ffffffffffffffffffffffffffffffffffffffff1602179055508173ffffffffffffffffffffffffffffffffffffffff168173ffffffffffffffffffffffffffffffffffffffff167f8be0079c531659141344cd1fd0a4f28419497f9722a3daafe3b4186f6b6457e060405160405180910390a35050565b8060039081620001e2919062000692565b5050565b50565b6000604051905090565b600080fd5b600080fd5b600080fd5b600080fd5b6000601f19601f8301169050919050565b7f4e487b7100000000000000000000000000000000000000000000000000000000600052604160045260246000fd5b620002528262000207565b810181811067ffffffffffffffff8211171562000274576200027362000218565b5b80604052505050565b600062000289620001e9565b905062000297828262000247565b919050565b600067ffffffffffffffff821115620002ba57620002b962000218565b5b620002c58262000207565b9050602081019050919050565b60005b83811015620002f2578082015181840152602081019050620002d5565b60008484015250505050565b6000620003156200030f846200029c565b6200027d565b90508281526020810184848401111562000334576200033362000202565b5b62000341848285620002d2565b509392505050565b600082601f830112620003615762000360620001fd565b5b815162000373848260208601620002fe565b91505092915050565b600073ffffffffffffffffffffffffffffffffffffffff82169050919050565b6000620003a9826200037c565b9050919050565b620003bb816200039c565b8114620003c757600080fd5b50565b600081519050620003db81620003b0565b92915050565b60008060408385031215620003fb57620003fa620001f3565b5b600083015167ffffffffffffffff8111156200041c576200041b620001f8565b5b6200042a8582860162000349565b92505060206200043d85828601620003ca565b9150509250929050565b600081519050919050565b7f4e487b7100000000000000000000000000000000000000000000000000000000600052602260045260246000fd5b600060028204905060018216806200049a57607f821691505b602082108103620004b057620004af62000452565b5b50919050565b60008190508160005260206000209050919050565b60006020601f8301049050919050565b600082821b905092915050565b6000600883026200051a7fffffffffffffffffffffffffffffffffffffffffffffffffffffffffffffffff82620004db565b620005268683620004db565b95508019841693508086168417925050509392505050565b6000819050919050565b6000819050919050565b6000620005736200056d62000567846200053e565b62000548565b6200053e565b9050919050565b6000819050919050565b6200058f8362000552565b620005a76200059e826200057a565b848454620004e8565b825550505050565b600090565b620005be620005af565b620005cb81848462000584565b505050565b5b81811015620005f357620005e7600082620005b4565b600181019050620005d1565b5050565b601f82111562000642576200060c81620004b6565b6200061784620004cb565b8101602085101562000627578190505b6200063f6200063685620004cb565b830182620005d0565b50505b505050565b600082821c905092915050565b6000620006676000198460080262000647565b1980831691505092915050565b600062000682838362000654565b9150826002028217905092915050565b6200069d8262000447565b67ffffffffffffffff811115620006b957620006b862000218565b5b620006c5825462000481565b620006d2828285620005f7565b600060209050601f8311600181146200070a5760008415620006f5578287015190505b62000701858262000674565b86555062000771565b601f1984166200071a86620004b6565b60005b8281101562000744578489015182556001820191506020850194506020810190506200071d565b8683101562000764578489015162000760601f89168262000654565b8355505b6001600288020188555050505b505050505050565b6162c480620007896000396000f3fe608060405234801561001057600080fd5b506004361061012b5760003560e01c8063936906f1116100ad578063e985e9c511610071578063e985e9c51461037a578063f242432a146103aa578063f2fde38b146103c6578063f395f9da146103e2578063fac795c0146104125761012b565b8063936906f1146102b2578063a22cb465146102e2578063b881501e146102fe578063d429c7581461032e578063d6e0dbda1461034a5761012b565b80634e57d942116100f45780634e57d9421461020c5780635c975abb1461023c578063715018a61461025a5780638be2cf9c146102645780638da5cb5b146102945761012b565b8062fdd58e1461013057806301ffc9a7146101605780630e89341c146101905780632eb2c2d6146101c05780634e1273f4146101dc575b600080fd5b61014a60048036038101906101459190613e5b565b610445565b6040516101579190613eaa565b60405180910390f35b61017a60048036038101906101759190613f1d565b61050e565b6040516101879190613f65565b60405180910390f35b6101aa60048036038101906101a59190613f80565b6105f0565b6040516101b7919061403d565b60405180910390f35b6101da60048036038101906101d5919061425c565b6106d1565b005b6101f660048036038101906101f191906143ee565b610772565b6040516102039190614524565b60405180910390f35b61022660048036038101906102219190613f80565b61088b565b6040516102339190614524565b60405180910390f35b610244610932565b6040516102519190613f65565b60405180910390f35b610262610948565b005b61027e60048036038101906102799190613f80565b61095c565b60405161028b9190614604565b60405180910390f35b61029c610a39565b6040516102a99190614635565b60405180910390f35b6102cc60048036038101906102c79190613f80565b610a62565b6040516102d99190613eaa565b60405180910390f35b6102fc60048036038101906102f7919061467c565b610abe565b005b61031860048036038101906103139190613f80565b610ad4565b6040516103259190613f65565b60405180910390f35b61034860048036038101906103439190614877565b610b3a565b005b610364600480360381019061035f9190613f80565b610cdb565b6040516103719190613eaa565b60405180910390f35b610394600480360381019061038f919061495d565b610d37565b6040516103a19190613f65565b60405180910390f35b6103c460048036038101906103bf919061499d565b610dcb565b005b6103e060048036038101906103db9190614a34565b610e6c565b005b6103fc60048036038101906103f79190613f80565b610eef565b6040516104099190614524565b60405180910390f35b61042c60048036038101906104279190613f80565b610f96565b60405161043c9493929190614a70565b60405180910390f35b60008073ffffffffffffffffffffffffffffffffffffffff168373ffffffffffffffffffffffffffffffffffffffff16036104b5576040517f08c379a00000000000000000000000000000000000000000000000000000000081526004016104ac90614b27565b60405180910390fd5b6001600083815260200190815260200160002060008473ffffffffffffffffffffffffffffffffffffffff1673ffffffffffffffffffffffffffffffffffffffff16815260200190815260200160002054905092915050565b60007fd9b67a26000000000000000000000000000000000000000000000000000000007bffffffffffffffffffffffffffffffffffffffffffffffffffffffff1916827bffffffffffffffffffffffffffffffffffffffffffffffffffffffff191614806105d957507f0e89341c000000000000000000000000000000000000000000000000000000007bffffffffffffffffffffffffffffffffffffffffffffffffffffffff1916827bffffffffffffffffffffffffffffffffffffffffffffffffffffffff1916145b806105e957506105e88261106a565b5b9050919050565b60606106066736b16238ef581a9060c01b6110d4565b61061a67da2d526aeaabbfb860c01b6110d4565b61062e67682b6ae52cb5793860c01b6110d4565b600e6000838152602001908152602001600020805461064c90614b76565b80601f016020809104026020016040519081016040528092919081815260200182805461067890614b76565b80156106c55780601f1061069a576101008083540402835291602001916106c5565b820191906000526020600020905b8154815290600101906020018083116106a857829003601f168201915b50505050509050919050565b6106d96110d7565b73ffffffffffffffffffffffffffffffffffffffff168573ffffffffffffffffffffffffffffffffffffffff16148061071f575061071e856107196110d7565b610d37565b5b61075e576040517f08c379a000000000000000000000000000000000000000000000000000000000815260040161075590614c19565b60405180910390fd5b61076b85858585856110df565b5050505050565b606081518351146107b8576040517f08c379a00000000000000000000000000000000000000000000000000000000081526004016107af90614cab565b60405180910390fd5b6000835167ffffffffffffffff8111156107d5576107d4614064565b5b6040519080825280602002602001820160405280156108035781602001602082028036833780820191505090505b50905060005b84518110156108805761085085828151811061082857610827614ccb565b5b602002602001015185838151811061084357610842614ccb565b5b6020026020010151610445565b82828151811061086357610862614ccb565b5b6020026020010181815250508061087990614d29565b9050610809565b508091505092915050565b60606108a1671a52cad882febbe560c01b6110d4565b6108b56753843b645b3502c860c01b6110d4565b6108c967fa664f9525e30c8560c01b6110d4565b600a600083815260200190815260200160002080548060200260200160405190810160405280929190818152602001828054801561092657602002820191906000526020600020905b815481526020019060010190808311610912575b50505050509050919050565b60008060149054906101000a900460ff16905090565b610950611403565b61095a6000611481565b565b60606109726736979b05c888cc4860c01b6110d4565b610986674dd863445411a08360c01b6110d4565b61099a6762c8bbcf4670b71560c01b6110d4565b60066000838152602001908152602001600020805480602002602001604051908101604052809291908181526020018280548015610a2d57602002820191906000526020600020905b8160009054906101000a900473ffffffffffffffffffffffffffffffffffffffff1673ffffffffffffffffffffffffffffffffffffffff16815260200190600101908083116109e3575b50505050509050919050565b60008060009054906101000a900473ffffffffffffffffffffffffffffffffffffffff16905090565b6000610a786707f64cd5d8a8a14b60c01b6110d4565b610a8c67c7e7b490dce49f4760c01b6110d4565b610aa067bfd9e3862eb4776060c01b6110d4565b60096000838152602001908152602001600020600101549050919050565b610ad0610ac96110d7565b8383611545565b5050565b6000610aea67ea7c555c1627c5b460c01b6110d4565b610afe67075dd45acf7f45b460c01b6110d4565b610b126769ee3657da5a777760c01b6110d4565b6008600083815260200190815260200160002060009054906101000a900460ff169050919050565b610b4e675915ba407d5ebe2d60c01b6110d4565b610b56611403565b610b6a672e7b7c5dea2f9d2360c01b6110d4565b610b7e6786c56dc1a8fcaab960c01b6110d4565b610b866116b1565b610b9a67f7f118b95d401be060c01b6110d4565b610bae670bfd8c9ebc971e9160c01b6110d4565b610bc267c2487208f02e5b7d60c01b6110d4565b610bd667b471c7639203569360c01b6110d4565b610bea67c88c99ee34baa7e260c01b6110d4565b600860008a815260200190815260200160002060009054906101000a900460ff1615610c4b576040517f08c379a0000000000000000000000000000000000000000000000000000000008152600401610c4290614de3565b60405180910390fd5b610c5f677c1040b489d8c4bc60c01b6110d4565b610c736709fb7b6874720e7460c01b6110d4565b610c876741d7c644d6c1137e60c01b6110d4565b610c9788888888888888886116fb565b610cab677b423b725a31991a60c01b6110d4565b610cbf670b4e50dac4514d9d60c01b6110d4565b610cd0898989898989898989611c10565b505050505050505050565b6000610cf1671ae678a1deee0bee60c01b6110d4565b610d05675852be98b37791b860c01b6110d4565b610d1967ae1ae54ea648585460c01b6110d4565b60096000838152602001908152602001600020600201549050919050565b6000600260008473ffffffffffffffffffffffffffffffffffffffff1673ffffffffffffffffffffffffffffffffffffffff16815260200190815260200160002060008373ffffffffffffffffffffffffffffffffffffffff1673ffffffffffffffffffffffffffffffffffffffff16815260200190815260200160002060009054906101000a900460ff16905092915050565b610dd36110d7565b73ffffffffffffffffffffffffffffffffffffffff168573ffffffffffffffffffffffffffffffffffffffff161480610e195750610e1885610e136110d7565b610d37565b5b610e58576040517f08c379a0000000000000000000000000000000000000000000000000000000008152600401610e4f90614c19565b60405180910390fd5b610e658585858585611e10565b5050505050565b610e74611403565b600073ffffffffffffffffffffffffffffffffffffffff168173ffffffffffffffffffffffffffffffffffffffff1603610ee3576040517f08c379a0000000000000000000000000000000000000000000000000000000008152600401610eda90614e75565b60405180910390fd5b610eec81611481565b50565b6060610f056736368329c295060360c01b6110d4565b610f196742706690e6df758760c01b6110d4565b610f2d67b7ac7c37d8beec1c60c01b6110d4565b60076000838152602001908152602001600020805480602002602001604051908101604052809291908181526020018280548015610f8a57602002820191906000526020600020905b815481526020019060010190808311610f76575b50505050509050919050565b600080600080610fb067ea1c3c4218d2232960c01b6110d4565b610fc467dde84d19e3f7778860c01b6110d4565b610fd867987f91efaf68632660c01b6110d4565b60096000868152602001908152602001600020600301546009600087815260200190815260200160002060040160009054906101000a900460ff166009600088815260200190815260200160002060040160029054906101000a900460ff166009600089815260200190815260200160002060040160019054906101000a900460ff1693509350935093509193509193565b60007f01ffc9a7000000000000000000000000000000000000000000000000000000007bffffffffffffffffffffffffffffffffffffffffffffffffffffffff1916827bffffffffffffffffffffffffffffffffffffffffffffffffffffffff1916149050919050565b50565b600033905090565b8151835114611123576040517f08c379a000000000000000000000000000000000000000000000000000000000815260040161111a90614f07565b60405180910390fd5b600073ffffffffffffffffffffffffffffffffffffffff168473ffffffffffffffffffffffffffffffffffffffff1603611192576040517f08c379a000000000000000000000000000000000000000000000000000000000815260040161118990614f99565b60405180910390fd5b600061119c6110d7565b90506111ac8187878787876120ae565b60005b84518110156113605760008582815181106111cd576111cc614ccb565b5b6020026020010151905060008583815181106111ec576111eb614ccb565b5b6020026020010151905060006001600084815260200190815260200160002060008b73ffffffffffffffffffffffffffffffffffffffff1673ffffffffffffffffffffffffffffffffffffffff1681526020019081526020016000205490508181101561128e576040517f08c379a00000000000000000000000000000000000000000000000000000000081526004016112859061502b565b60405180910390fd5b8181036001600085815260200190815260200160002060008c73ffffffffffffffffffffffffffffffffffffffff1673ffffffffffffffffffffffffffffffffffffffff16815260200190815260200160002081905550816001600085815260200190815260200160002060008b73ffffffffffffffffffffffffffffffffffffffff1673ffffffffffffffffffffffffffffffffffffffff1681526020019081526020016000206000828254611345919061504b565b925050819055505050508061135990614d29565b90506111af565b508473ffffffffffffffffffffffffffffffffffffffff168673ffffffffffffffffffffffffffffffffffffffff168273ffffffffffffffffffffffffffffffffffffffff167f4a39dc06d4c0dbc64b70af90fd698a233a518aa5d07e595d983b8c0526c8f7fb87876040516113d792919061507f565b60405180910390a46113ed8187878787876120b6565b6113fb8187878787876120be565b505050505050565b61140b6110d7565b73ffffffffffffffffffffffffffffffffffffffff16611429610a39565b73ffffffffffffffffffffffffffffffffffffffff161461147f576040517f08c379a000000000000000000000000000000000000000000000000000000000815260040161147690615102565b60405180910390fd5b565b60008060009054906101000a900473ffffffffffffffffffffffffffffffffffffffff169050816000806101000a81548173ffffffffffffffffffffffffffffffffffffffff021916908373ffffffffffffffffffffffffffffffffffffffff1602179055508173ffffffffffffffffffffffffffffffffffffffff168173ffffffffffffffffffffffffffffffffffffffff167f8be0079c531659141344cd1fd0a4f28419497f9722a3daafe3b4186f6b6457e060405160405180910390a35050565b8173ffffffffffffffffffffffffffffffffffffffff168373ffffffffffffffffffffffffffffffffffffffff16036115b3576040517f08c379a00000000000000000000000000000000000000000000000000000000081526004016115aa90615194565b60405180910390fd5b80600260008573ffffffffffffffffffffffffffffffffffffffff1673ffffffffffffffffffffffffffffffffffffffff16815260200190815260200160002060008473ffffffffffffffffffffffffffffffffffffffff1673ffffffffffffffffffffffffffffffffffffffff16815260200190815260200160002060006101000a81548160ff0219169083151502179055508173ffffffffffffffffffffffffffffffffffffffff168373ffffffffffffffffffffffffffffffffffffffff167f17307eab39ab6107e8899845ad3d59bd9653f200f220920489ca2b5937696c31836040516116a49190613f65565b60405180910390a3505050565b6116b9610932565b156116f9576040517f08c379a00000000000000000000000000000000000000000000000000000000081526004016116f090615200565b60405180910390fd5b565b61170f6713c89eb54e90a7fa60c01b6110d4565b611723670538d94f7b882e3e60c01b6110d4565b611737674c29204f2887057860c01b6110d4565b61174b678468081c1b1357ac60c01b6110d4565b6000881161178e576040517f08c379a000000000000000000000000000000000000000000000000000000000815260040161178590615292565b60405180910390fd5b6117a2676e3ef9774a73e81360c01b6110d4565b6117b66792491d56385ecc7c60c01b6110d4565b6117ca67671c0c4d2fe650b160c01b6110d4565b6117de67659d0174fa4f0bff60c01b6110d4565b60008711611821576040517f08c379a000000000000000000000000000000000000000000000000000000000815260040161181890615324565b60405180910390fd5b61183567cdbe933b2af6fb5960c01b6110d4565b6118496755bc71e6e7ae880b60c01b6110d4565b61185d6723a1143aabdc8dbf60c01b6110d4565b611871671c4fadc21c9a16a260c01b6110d4565b600086116118b4576040517f08c379a00000000000000000000000000000000000000000000000000000000081526004016118ab906153b6565b60405180910390fd5b6118c867cab08564ce9e7e9a60c01b6110d4565b6118dc672886f1eb74b2daa260c01b6110d4565b6118f06707c35272e207b50160c01b6110d4565b611904674a0d05ec507fb2d260c01b6110d4565b60008560ff161161194a576040517f08c379a000000000000000000000000000000000000000000000000000000000815260040161194190615448565b60405180910390fd5b61195e67984913895d1ff70f60c01b6110d4565b6119726722604be50b9f041660c01b6110d4565b61198667a6f1c1f3f7bd99ce60c01b6110d4565b61199a67cda8f5d3e2f487d460c01b6110d4565b60008460ff16116119e0576040517f08c379a00000000000000000000000000000000000000000000000000000000081526004016119d7906154da565b60405180910390fd5b6119f467aebe2a23261a44c960c01b6110d4565b611a0867ce7e659afee2fd0960c01b6110d4565b611a1c67fbc6b03b75f5137360c01b6110d4565b611a3067c9a103043bcc7b8360c01b6110d4565b600073ffffffffffffffffffffffffffffffffffffffff168373ffffffffffffffffffffffffffffffffffffffff1603611a9f576040517f08c379a0000000000000000000000000000000000000000000000000000000008152600401611a969061556c565b60405180910390fd5b611ab3671b6a37f959dc428460c01b6110d4565b611ac7679a0b07648b2b751060c01b6110d4565b611adb6791ebf62c0998828060c01b6110d4565b611aef674027c85802a7ec6f60c01b6110d4565b600073ffffffffffffffffffffffffffffffffffffffff168273ffffffffffffffffffffffffffffffffffffffff1603611b5e576040517f08c379a0000000000000000000000000000000000000000000000000000000008152600401611b55906155fe565b60405180910390fd5b611b72673292f22b29e3e13960c01b6110d4565b611b86672e395931805b912360c01b6110d4565b611b9a67584a79cf25f6ffa160c01b6110d4565b611bae6749fd754833b329c860c01b6110d4565b6000815111611bf2576040517f08c379a0000000000000000000000000000000000000000000000000000000008152600401611be990615690565b60405180910390fd5b611c0667ef9e355a2508b68b60c01b6110d4565b5050505050505050565b611c246774921bc0b184a2ab60c01b6110d4565b611c386733dcf64edbe3045860c01b6110d4565b611c4c67b1fd9cdd613809dc60c01b6110d4565b611c568987612295565b611c6a672fddcd765c8c3ad960c01b6110d4565b611c7e6798163f36f092930e60c01b6110d4565b611c9e8989600b60008d81526020019081526020016000205488886122fb565b611cb2678fe8f4d30402328560c01b6110d4565b611cc667b21755b43570590b60c01b6110d4565b611cd0898261240f565b611ce4677f4706c2f467027060c01b6110d4565b611cf8677a03b4ce36669adc60c01b6110d4565b611d07898660ff168986612769565b611d1b6792aa9b72430d24e360c01b6110d4565b611d2f67f9ccfcc82c13a16360c01b6110d4565b611d3e89898660ff1685612f62565b611d5267a3673a6118727ba760c01b6110d4565b611d6667ed6acc35e994de7260c01b6110d4565b7fb79a1263d65160537b9075e0e4747a6007a82fb191be4435b4c508c431920b8989600660008c8152602001908152602001600020600760008d8152602001908152602001600020604051611dbd93929190615865565b60405180910390a1611dd967841cbd88491e871360c01b6110d4565b6001600860008b815260200190815260200160002060006101000a81548160ff021916908315150217905550505050505050505050565b600073ffffffffffffffffffffffffffffffffffffffff168473ffffffffffffffffffffffffffffffffffffffff1603611e7f576040517f08c379a0000000000000000000000000000000000000000000000000000000008152600401611e7690614f99565b60405180910390fd5b6000611e896110d7565b90506000611e968561322b565b90506000611ea38561322b565b9050611eb38389898585896120ae565b60006001600088815260200190815260200160002060008a73ffffffffffffffffffffffffffffffffffffffff1673ffffffffffffffffffffffffffffffffffffffff16815260200190815260200160002054905085811015611f4b576040517f08c379a0000000000000000000000000000000000000000000000000000000008152600401611f429061502b565b60405180910390fd5b8581036001600089815260200190815260200160002060008b73ffffffffffffffffffffffffffffffffffffffff1673ffffffffffffffffffffffffffffffffffffffff16815260200190815260200160002081905550856001600089815260200190815260200160002060008a73ffffffffffffffffffffffffffffffffffffffff1673ffffffffffffffffffffffffffffffffffffffff1681526020019081526020016000206000828254612002919061504b565b925050819055508773ffffffffffffffffffffffffffffffffffffffff168973ffffffffffffffffffffffffffffffffffffffff168573ffffffffffffffffffffffffffffffffffffffff167fc3d58168c5ae7397731d063d5bbf3d657854427343f4c083240f7aacaa2d0f628a8a60405161207f9291906158aa565b60405180910390a4612095848a8a86868a6120b6565b6120a3848a8a8a8a8a6132a5565b505050505050505050565b505050505050565b505050505050565b6120dd8473ffffffffffffffffffffffffffffffffffffffff1661347c565b1561228d578373ffffffffffffffffffffffffffffffffffffffff1663bc197c8187878686866040518663ffffffff1660e01b8152600401612123959493929190615928565b6020604051808303816000875af192505050801561215f57506040513d601f19601f8201168201806040525081019061215c91906159a5565b60015b6122045761216b6159df565b806308c379a0036121c7575061217f615a01565b8061218a57506121c9565b806040517f08c379a00000000000000000000000000000000000000000000000000000000081526004016121be919061403d565b60405180910390fd5b505b6040517f08c379a00000000000000000000000000000000000000000000000000000000081526004016121fb90615b03565b60405180910390fd5b63bc197c8160e01b7bffffffffffffffffffffffffffffffffffffffffffffffffffffffff1916817bffffffffffffffffffffffffffffffffffffffffffffffffffffffff19161461228b576040517f08c379a000000000000000000000000000000000000000000000000000000000815260040161228290615b95565b60405180910390fd5b505b505050505050565b6122a967dce291d7e010780b60c01b6110d4565b6122bd670bb7a6e407efc47660c01b6110d4565b42816122c9919061504b565b90506122df6757aa5249488aa45960c01b6110d4565b80600b6000848152602001908152602001600020819055505050565b61230f674c743fd509e13ca260c01b6110d4565b612323671cd8bc8308ca09a860c01b6110d4565b61233767e1d00c6ecef3e63660c01b6110d4565b60006009600087815260200190815260200160002090506123626717d03e45f5f4711a60c01b6110d4565b85816000018190555061237f670ca5aa0b5928e3a760c01b6110d4565b84816001018190555061239c67af293111d99b85f060c01b6110d4565b8381600301819055506123b967737010027b8cc44960c01b6110d4565b828160040160006101000a81548160ff021916908360ff1602179055506123ea674ce0dec13bc3579160c01b6110d4565b818160040160016101000a81548160ff021916908360ff160217905550505050505050565b61242367a280eebeed42d79c60c01b6110d4565b61243767b89870c028d633d260c01b6110d4565b61244b67efc7430a0cf44b0d60c01b6110d4565b6000600267ffffffffffffffff81111561246857612467614064565b5b6040519080825280602002602001820160405280156124965781602001602082028036833780820191505090505b5090506124ad672618d4ee2346949b60c01b6110d4565b7f4c4f434b45440000000000000000000000000000000000000000000000000000816000815181106124e2576124e1614ccb565b5b60200260200101818152505061250267c7b765deef0d18fe60c01b6110d4565b7f54524144454400000000000000000000000000000000000000000000000000008160018151811061253757612536614ccb565b5b602002602001018181525050612557679811dc976b1c36f160c01b6110d4565b61256b67ab8aed532df2d76b60c01b6110d4565b60005b81518160ff1610156127635761258e67bba17983cdabd13360c01b6110d4565b6125a267e7524e6bb510413060c01b6110d4565b6005828260ff16815181106125ba576125b9614ccb565b5b602002602001015190806001815401808255809150506001900390600052602060002001600090919091909150556125fc6717ecefd70aa16eab60c01b6110d4565b61261067bafb3e51f464f8c660c01b6110d4565b600060016005805490506126249190615bb5565b905061263a67dc33db0eb21ed9a060c01b6110d4565b61264e67661787d79f638ca760c01b6110d4565b600a600086815260200190815260200160002081908060018154018082558091505060019003906000526020600020016000909190919091505561269c67f29e927760c91b4660c01b6110d4565b828260ff16815181106126b2576126b1614ccb565b5b6020026020010151600d6000838152602001908152602001600020819055506126e567ee28653b3a46f48c60c01b6110d4565b84600c60008381526020019081526020016000208190555061271167f83095505e1071c960c01b6110d4565b838260ff168151811061272757612726614ccb565b5b6020026020010151600e6000838152602001908152602001600020908161274e9190615d95565b5050808061275b90615e67565b91505061256e565b50505050565b61277d67836d83570f0cd3a660c01b6110d4565b61279167be97bdc86a34d4c960c01b6110d4565b6127a466fa7258db33e83660c01b6110d4565b6000600460009054906101000a900473ffffffffffffffffffffffffffffffffffffffff1673ffffffffffffffffffffffffffffffffffffffff1663c9187fe7866040518263ffffffff1660e01b81526004016128019190613eaa565b600060405180830381865afa15801561281e573d6000803e3d6000fd5b505050506040513d6000823e3d601f19601f820116820180604052508101906128479190615fe1565b905061285d67132444359128480360c01b6110d4565b61287167815d296fbc8b093960c01b6110d4565b600061287c8661349f565b9050612892670a27e4cbcfee6d1b60c01b6110d4565b6128a667864422b3f98b08ae60c01b6110d4565b60006009600088815260200190815260200160002090506128d1677052205b98ca125960c01b6110d4565b84826128dd919061504b565b91506128f36786208709abf5bb9960c01b6110d4565b612907674a524ba9e578aed560c01b6110d4565b6000600460009054906101000a900473ffffffffffffffffffffffffffffffffffffffff1673ffffffffffffffffffffffffffffffffffffffff166384ffeca5896040518263ffffffff1660e01b81526004016129649190613eaa565b602060405180830381865afa158015612981573d6000803e3d6000fd5b505050506040513d601f19601f820116820180604052508101906129a5919061603f565b90506129bb675f8a21eb0406262860c01b6110d4565b6129cf67a889e1f5f41711fd60c01b6110d4565b60005b81811015612dee576129ee67e683444f23e6b69060c01b6110d4565b612a0267164ea45f6885c7da60c01b6110d4565b6000600460009054906101000a900473ffffffffffffffffffffffffffffffffffffffff1673ffffffffffffffffffffffffffffffffffffffff166359a96ffe878481518110612a5557612a54614ccb565b5b60200260200101516040518263ffffffff1660e01b8152600401612a79919061606c565b602060405180830381865afa158015612a96573d6000803e3d6000fd5b505050506040513d601f19601f82011682018060405250810190612aba91906160a3565b9050612ad067280eb10e9a4788dc60c01b6110d4565b612ae467b0f0eb068548dd0b60c01b6110d4565b6000612bad600460009054906101000a900473ffffffffffffffffffffffffffffffffffffffff1673ffffffffffffffffffffffffffffffffffffffff16630e47cefa898681518110612b3a57612b39614ccb565b5b60200260200101518e6040518363ffffffff1660e01b8152600401612b609291906160d0565b602060405180830381865afa158015612b7d573d6000803e3d6000fd5b505050506040513d601f19601f82011682018060405250810190612ba1919061603f565b878c886001015461375b565b9050612bc3674dcdc93d427b393b60c01b6110d4565b612bd767dc0d4903f60c679c60c01b6110d4565b6000612be282613873565b9050612bf867394c1c981265dfc360c01b6110d4565b612c0c67c92669fdf108cc6660c01b6110d4565b612cae83600a60008f8152602001908152602001600020805480602002602001604051908101604052809291908181526020018280548015612c6d57602002820191906000526020600020905b815481526020019060010190808311612c59575b5050505050836040518060400160405280600481526020017f3078303000000000000000000000000000000000000000000000000000000000815250613a02565b612cc267aa3daad0320177c160c01b6110d4565b818660020154612cd2919061504b565b8660020181905550612cee670f7ec44c50154f7e60c01b6110d4565b612d0267374d4e255ee5e29860c01b6110d4565b600660008d8152602001908152602001600020839080600181540180825580915050600190039060005260206000200160009091909190916101000a81548173ffffffffffffffffffffffffffffffffffffffff021916908373ffffffffffffffffffffffffffffffffffffffff160217905550612d8a675ac26f54ed569cd260c01b6110d4565b612d9e67c24312526bd0b5e960c01b6110d4565b600760008d81526020019081526020016000208290806001815401808255809150506001900390600052602060002001600090919091909150555050508080612de690614d29565b9150506129d2565b50612e0367edd6d4270faa2cde60c01b6110d4565b612e17676e37652b8ffc91d360c01b6110d4565b6000612e2b8988868b87600101548b613c2f565b9050612e4167e143cfc2d6d9cb4760c01b6110d4565b808360020154612e51919061504b565b8360020181905550612e6d67a003bbf89cef951f60c01b6110d4565b612e8167063692a633bfde5b60c01b6110d4565b600660008a8152602001908152602001600020869080600181540180825580915050600190039060005260206000200160009091909190916101000a81548173ffffffffffffffffffffffffffffffffffffffff021916908373ffffffffffffffffffffffffffffffffffffffff160217905550612f0967c1c67836722281c260c01b6110d4565b612f1d67d9d2ecffbb1397cf60c01b6110d4565b600760008a8152602001908152602001600020819080600181540180825580915050600190039060005260206000200160009091909190915055505050505050505050565b612f7667ea653bc968bdc6d960c01b6110d4565b612f8a674b4422bc7d0c22d960c01b6110d4565b612f9e67ed359cbd189201d560c01b6110d4565b6000600960008681526020019081526020016000209050612fc9675a24d7626b21999d60c01b6110d4565b612fdd67313ea1a32143e5a760c01b6110d4565b600060648486612fed9190616100565b612ff79190616171565b905061300d6715046cf8a2f961cc60c01b6110d4565b80826002015461301d919061504b565b826002018190555061303967b4a4140a349190b560c01b6110d4565b61304d67fc966f584759813a60c01b6110d4565b600061305882613873565b905061306e67a9f4de7961c386c360c01b6110d4565b6130826747ce4a0ce045f63260c01b6110d4565b60066000888152602001908152602001600020849080600181540180825580915050600190039060005260206000200160009091909190916101000a81548173ffffffffffffffffffffffffffffffffffffffff021916908373ffffffffffffffffffffffffffffffffffffffff16021790555061310a6706897d58a8ffa43160c01b6110d4565b61311e6788b7ad33a34493af60c01b6110d4565b6007600088815260200190815260200160002082908060018154018082558091505060019003906000526020600020016000909190919091505561316c677d6c90c8c295f84260c01b6110d4565b6131806782cc11fbdff9205960c01b6110d4565b61322284600a60008a81526020019081526020016000208054806020026020016040519081016040528092919081815260200182805480156131e157602002820191906000526020600020905b8154815260200190600101908083116131cd575b5050505050836040518060400160405280600481526020017f3078303000000000000000000000000000000000000000000000000000000000815250613a02565b50505050505050565b60606000600167ffffffffffffffff81111561324a57613249614064565b5b6040519080825280602002602001820160405280156132785781602001602082028036833780820191505090505b50905082816000815181106132905761328f614ccb565b5b60200260200101818152505080915050919050565b6132c48473ffffffffffffffffffffffffffffffffffffffff1661347c565b15613474578373ffffffffffffffffffffffffffffffffffffffff1663f23a6e6187878686866040518663ffffffff1660e01b815260040161330a9594939291906161a2565b6020604051808303816000875af192505050801561334657506040513d601f19601f8201168201806040525081019061334391906159a5565b60015b6133eb576133526159df565b806308c379a0036133ae5750613366615a01565b8061337157506133b0565b806040517f08c379a00000000000000000000000000000000000000000000000000000000081526004016133a5919061403d565b60405180910390fd5b505b6040517f08c379a00000000000000000000000000000000000000000000000000000000081526004016133e290615b03565b60405180910390fd5b63f23a6e6160e01b7bffffffffffffffffffffffffffffffffffffffffffffffffffffffff1916817bffffffffffffffffffffffffffffffffffffffffffffffffffffffff191614613472576040517f08c379a000000000000000000000000000000000000000000000000000000000815260040161346990615b95565b60405180910390fd5b505b505050505050565b6000808273ffffffffffffffffffffffffffffffffffffffff163b119050919050565b60006134b567db6891394d62f65060c01b6110d4565b6134c967a9747bd63961f6a760c01b6110d4565b6134dd676b356cb0aadede3d60c01b6110d4565b6000600460009054906101000a900473ffffffffffffffffffffffffffffffffffffffff1673ffffffffffffffffffffffffffffffffffffffff1663c9187fe7846040518263ffffffff1660e01b815260040161353a9190613eaa565b600060405180830381865afa158015613557573d6000803e3d6000fd5b505050506040513d6000823e3d601f19601f820116820180604052508101906135809190615fe1565b90506135966758e7482b5844cc7d60c01b6110d4565b6135aa672fcc187a6eb9bd5d60c01b6110d4565b60006135c0676d8cba0421998ff760c01b6110d4565b6135d467fc9c9548ccd49e2960c01b6110d4565b6000825190506135ee6791fd09e3ba4dc57f60c01b6110d4565b61360267c19ee0d0340bdf1960c01b6110d4565b60005b81811015613727576136216755ef1202937c189860c01b6110d4565b613635679b8635bababd7cd560c01b6110d4565b6000600460009054906101000a900473ffffffffffffffffffffffffffffffffffffffff1673ffffffffffffffffffffffffffffffffffffffff16630e47cefa86848151811061368857613687614ccb565b5b6020026020010151896040518363ffffffff1660e01b81526004016136ae9291906160d0565b602060405180830381865afa1580156136cb573d6000803e3d6000fd5b505050506040513d601f19601f820116820180604052508101906136ef919061603f565b9050613705673713c0cb0f3a7a0960c01b6110d4565b8084613711919061504b565b935050808061371f90614d29565b915050613605565b5061373c6752b1ed2d46c8304c60c01b6110d4565b613750676e8fb6e8d40efa7360c01b6110d4565b819350505050919050565b600061377167f81d2d9027c7f4e060c01b6110d4565b61378567282dd1c25857bea260c01b6110d4565b61379967d934ebf585d9a65f60c01b6110d4565b6000848660646137a99190616100565b6137b39190616171565b90506137c9678e5410372587b53560c01b6110d4565b6137dd6797e22fe287306ce860c01b6110d4565b6000606485856137ed9190616100565b6137f79190616171565b905061380d6740718e5977e2a44b60c01b6110d4565b61382167deeb2c8c301154fb60c01b6110d4565b6000606483836138319190616100565b61383b9190616171565b9050613851672c7af22f7e784dd760c01b6110d4565b61386567860a72ea0645479c60c01b6110d4565b809350505050949350505050565b606061388967abc3f5eadc84f3d860c01b6110d4565b61389d676f9e021a4bf51efb60c01b6110d4565b6138b167319d86bc25e5766360c01b6110d4565b6000600267ffffffffffffffff8111156138ce576138cd614064565b5b6040519080825280602002602001820160405280156138fc5781602001602082028036833780820191505090505b509050613913678329589373de574460c01b6110d4565b61392767c04ccf8b496e238b60c01b6110d4565b600060646032856139389190616100565b6139429190616171565b905061395867c1ef19729354386e60c01b6110d4565b808260008151811061396d5761396c614ccb565b5b60200260200101818152505061398d67d03ce72e0e171e8460c01b6110d4565b80846139999190615bb5565b93506139af679bf6fa4a2bfb7d8860c01b6110d4565b83826001815181106139c4576139c3614ccb565b5b6020026020010181815250506139e467d369b1ae4aaf4d5c60c01b6110d4565b6139f86795d810699789d02660c01b6110d4565b8192505050919050565b600073ffffffffffffffffffffffffffffffffffffffff168473ffffffffffffffffffffffffffffffffffffffff1603613a71576040517f08c379a0000000000000000000000000000000000000000000000000000000008152600401613a689061626e565b60405180910390fd5b8151835114613ab5576040517f08c379a0000000000000000000000000000000000000000000000000000000008152600401613aac90614f07565b60405180910390fd5b6000613abf6110d7565b9050613ad0816000878787876120ae565b60005b8451811015613b8a57838181518110613aef57613aee614ccb565b5b602002602001015160016000878481518110613b0e57613b0d614ccb565b5b6020026020010151815260200190815260200160002060008873ffffffffffffffffffffffffffffffffffffffff1673ffffffffffffffffffffffffffffffffffffffff1681526020019081526020016000206000828254613b70919061504b565b925050819055508080613b8290614d29565b915050613ad3565b508473ffffffffffffffffffffffffffffffffffffffff16600073ffffffffffffffffffffffffffffffffffffffff168273ffffffffffffffffffffffffffffffffffffffff167f4a39dc06d4c0dbc64b70af90fd698a233a518aa5d07e595d983b8c0526c8f7fb8787604051613c0292919061507f565b60405180910390a4613c19816000878787876120b6565b613c28816000878787876120be565b5050505050565b6000613c4567ae9084963bc3455a60c01b6110d4565b613c5967b9a5b29730f2e2b260c01b6110d4565b613c6d671fe0275ae3c5ecd960c01b6110d4565b6000613c7b8787878761375b565b9050613c91678b282cad192c5fb360c01b6110d4565b613ca5678419153d5d05889460c01b6110d4565b6000613cb082613873565b9050613cc6670191dd807a806c5f60c01b6110d4565b613cda67ff432fe7bf83145f60c01b6110d4565b613d7c84600a60008c8152602001908152602001600020805480602002602001604051908101604052809291908181526020018280548015613d3b57602002820191906000526020600020905b815481526020019060010190808311613d27575b5050505050836040518060400160405280600481526020017f3078303000000000000000000000000000000000000000000000000000000000815250613a02565b613d90671a13af6cfe9d6d6060c01b6110d4565b613da46762c98aafb53f225060c01b6110d4565b81925050509695505050505050565b6000604051905090565b600080fd5b600080fd5b600073ffffffffffffffffffffffffffffffffffffffff82169050919050565b6000613df282613dc7565b9050919050565b613e0281613de7565b8114613e0d57600080fd5b50565b600081359050613e1f81613df9565b92915050565b6000819050919050565b613e3881613e25565b8114613e4357600080fd5b50565b600081359050613e5581613e2f565b92915050565b60008060408385031215613e7257613e71613dbd565b5b6000613e8085828601613e10565b9250506020613e9185828601613e46565b9150509250929050565b613ea481613e25565b82525050565b6000602082019050613ebf6000830184613e9b565b92915050565b60007fffffffff0000000000000000000000000000000000000000000000000000000082169050919050565b613efa81613ec5565b8114613f0557600080fd5b50565b600081359050613f1781613ef1565b92915050565b600060208284031215613f3357613f32613dbd565b5b6000613f4184828501613f08565b91505092915050565b60008115159050919050565b613f5f81613f4a565b82525050565b6000602082019050613f7a6000830184613f56565b92915050565b600060208284031215613f9657613f95613dbd565b5b6000613fa484828501613e46565b91505092915050565b600081519050919050565b600082825260208201905092915050565b60005b83811015613fe7578082015181840152602081019050613fcc565b60008484015250505050565b6000601f19601f8301169050919050565b600061400f82613fad565b6140198185613fb8565b9350614029818560208601613fc9565b61403281613ff3565b840191505092915050565b600060208201905081810360008301526140578184614004565b905092915050565b600080fd5b7f4e487b7100000000000000000000000000000000000000000000000000000000600052604160045260246000fd5b61409c82613ff3565b810181811067ffffffffffffffff821117156140bb576140ba614064565b5b80604052505050565b60006140ce613db3565b90506140da8282614093565b919050565b600067ffffffffffffffff8211156140fa576140f9614064565b5b602082029050602081019050919050565b600080fd5b600061412361411e846140df565b6140c4565b905080838252602082019050602084028301858111156141465761414561410b565b5b835b8181101561416f578061415b8882613e46565b845260208401935050602081019050614148565b5050509392505050565b600082601f83011261418e5761418d61405f565b5b813561419e848260208601614110565b91505092915050565b600080fd5b600067ffffffffffffffff8211156141c7576141c6614064565b5b6141d082613ff3565b9050602081019050919050565b82818337600083830152505050565b60006141ff6141fa846141ac565b6140c4565b90508281526020810184848401111561421b5761421a6141a7565b5b6142268482856141dd565b509392505050565b600082601f8301126142435761424261405f565b5b81356142538482602086016141ec565b91505092915050565b600080600080600060a0868803121561427857614277613dbd565b5b600061428688828901613e10565b955050602061429788828901613e10565b945050604086013567ffffffffffffffff8111156142b8576142b7613dc2565b5b6142c488828901614179565b935050606086013567ffffffffffffffff8111156142e5576142e4613dc2565b5b6142f188828901614179565b925050608086013567ffffffffffffffff81111561431257614311613dc2565b5b61431e8882890161422e565b9150509295509295909350565b600067ffffffffffffffff82111561434657614345614064565b5b602082029050602081019050919050565b600061436a6143658461432b565b6140c4565b9050808382526020820190506020840283018581111561438d5761438c61410b565b5b835b818110156143b657806143a28882613e10565b84526020840193505060208101905061438f565b5050509392505050565b600082601f8301126143d5576143d461405f565b5b81356143e5848260208601614357565b91505092915050565b6000806040838503121561440557614404613dbd565b5b600083013567ffffffffffffffff81111561442357614422613dc2565b5b61442f858286016143c0565b925050602083013567ffffffffffffffff8111156144505761444f613dc2565b5b61445c85828601614179565b9150509250929050565b600081519050919050565b600082825260208201905092915050565b6000819050602082019050919050565b61449b81613e25565b82525050565b60006144ad8383614492565b60208301905092915050565b6000602082019050919050565b60006144d182614466565b6144db8185614471565b93506144e683614482565b8060005b838110156145175781516144fe88826144a1565b9750614509836144b9565b9250506001810190506144ea565b5085935050505092915050565b6000602082019050818103600083015261453e81846144c6565b905092915050565b600081519050919050565b600082825260208201905092915050565b6000819050602082019050919050565b61457b81613de7565b82525050565b600061458d8383614572565b60208301905092915050565b6000602082019050919050565b60006145b182614546565b6145bb8185614551565b93506145c683614562565b8060005b838110156145f75781516145de8882614581565b97506145e983614599565b9250506001810190506145ca565b5085935050505092915050565b6000602082019050818103600083015261461e81846145a6565b905092915050565b61462f81613de7565b82525050565b600060208201905061464a6000830184614626565b92915050565b61465981613f4a565b811461466457600080fd5b50565b60008135905061467681614650565b92915050565b6000806040838503121561469357614692613dbd565b5b60006146a185828601613e10565b92505060206146b285828601614667565b9150509250929050565b600060ff82169050919050565b6146d2816146bc565b81146146dd57600080fd5b50565b6000813590506146ef816146c9565b92915050565b600067ffffffffffffffff8211156147105761470f614064565b5b602082029050602081019050919050565b600067ffffffffffffffff82111561473c5761473b614064565b5b61474582613ff3565b9050602081019050919050565b600061476561476084614721565b6140c4565b905082815260208101848484011115614781576147806141a7565b5b61478c8482856141dd565b509392505050565b600082601f8301126147a9576147a861405f565b5b81356147b9848260208601614752565b91505092915050565b60006147d56147d0846146f5565b6140c4565b905080838252602082019050602084028301858111156147f8576147f761410b565b5b835b8181101561483f57803567ffffffffffffffff81111561481d5761481c61405f565b5b80860161482a8982614794565b855260208501945050506020810190506147fa565b5050509392505050565b600082601f83011261485e5761485d61405f565b5b813561486e8482602086016147c2565b91505092915050565b60008060008060008060008060006101208a8c03121561489a57614899613dbd565b5b60006148a88c828d01613e46565b99505060206148b98c828d01613e46565b98505060406148ca8c828d01613e46565b97505060606148db8c828d01613e46565b96505060806148ec8c828d016146e0565b95505060a06148fd8c828d016146e0565b94505060c061490e8c828d01613e10565b93505060e061491f8c828d01613e10565b9250506101008a013567ffffffffffffffff81111561494157614940613dc2565b5b61494d8c828d01614849565b9150509295985092959850929598565b6000806040838503121561497457614973613dbd565b5b600061498285828601613e10565b925050602061499385828601613e10565b9150509250929050565b600080600080600060a086880312156149b9576149b8613dbd565b5b60006149c788828901613e10565b95505060206149d888828901613e10565b94505060406149e988828901613e46565b93505060606149fa88828901613e46565b925050608086013567ffffffffffffffff811115614a1b57614a1a613dc2565b5b614a278882890161422e565b9150509295509295909350565b600060208284031215614a4a57614a49613dbd565b5b6000614a5884828501613e10565b91505092915050565b614a6a816146bc565b82525050565b6000608082019050614a856000830187613e9b565b614a926020830186614a61565b614a9f6040830185614a61565b614aac6060830184614a61565b95945050505050565b7f455243313135353a2061646472657373207a65726f206973206e6f742061207660008201527f616c6964206f776e657200000000000000000000000000000000000000000000602082015250565b6000614b11602a83613fb8565b9150614b1c82614ab5565b604082019050919050565b60006020820190508181036000830152614b4081614b04565b9050919050565b7f4e487b7100000000000000000000000000000000000000000000000000000000600052602260045260246000fd5b60006002820490506001821680614b8e57607f821691505b602082108103614ba157614ba0614b47565b5b50919050565b7f455243313135353a2063616c6c6572206973206e6f7420746f6b656e206f776e60008201527f6572206f7220617070726f766564000000000000000000000000000000000000602082015250565b6000614c03602e83613fb8565b9150614c0e82614ba7565b604082019050919050565b60006020820190508181036000830152614c3281614bf6565b9050919050565b7f455243313135353a206163636f756e747320616e6420696473206c656e67746860008201527f206d69736d617463680000000000000000000000000000000000000000000000602082015250565b6000614c95602983613fb8565b9150614ca082614c39565b604082019050919050565b60006020820190508181036000830152614cc481614c88565b9050919050565b7f4e487b7100000000000000000000000000000000000000000000000000000000600052603260045260246000fd5b7f4e487b7100000000000000000000000000000000000000000000000000000000600052601160045260246000fd5b6000614d3482613e25565b91507fffffffffffffffffffffffffffffffffffffffffffffffffffffffffffffffff8203614d6657614d65614cfa565b5b600182019050919050565b7f52454a5556453a20496e697469616c207368617264732064697374726962757460008201527f656420616c726561647900000000000000000000000000000000000000000000602082015250565b6000614dcd602a83613fb8565b9150614dd882614d71565b604082019050919050565b60006020820190508181036000830152614dfc81614dc0565b9050919050565b7f4f776e61626c653a206e6577206f776e657220697320746865207a65726f206160008201527f6464726573730000000000000000000000000000000000000000000000000000602082015250565b6000614e5f602683613fb8565b9150614e6a82614e03565b604082019050919050565b60006020820190508181036000830152614e8e81614e52565b9050919050565b7f455243313135353a2069647320616e6420616d6f756e7473206c656e6774682060008201527f6d69736d61746368000000000000000000000000000000000000000000000000602082015250565b6000614ef1602883613fb8565b9150614efc82614e95565b604082019050919050565b60006020820190508181036000830152614f2081614ee4565b9050919050565b7f455243313135353a207472616e7366657220746f20746865207a65726f20616460008201527f6472657373000000000000000000000000000000000000000000000000000000602082015250565b6000614f83602583613fb8565b9150614f8e82614f27565b604082019050919050565b60006020820190508181036000830152614fb281614f76565b9050919050565b7f455243313135353a20696e73756666696369656e742062616c616e636520666f60008201527f72207472616e7366657200000000000000000000000000000000000000000000602082015250565b6000615015602a83613fb8565b915061502082614fb9565b604082019050919050565b6000602082019050818103600083015261504481615008565b9050919050565b600061505682613e25565b915061506183613e25565b925082820190508082111561507957615078614cfa565b5b92915050565b6000604082019050818103600083015261509981856144c6565b905081810360208301526150ad81846144c6565b90509392505050565b7f4f776e61626c653a2063616c6c6572206973206e6f7420746865206f776e6572600082015250565b60006150ec602083613fb8565b91506150f7826150b6565b602082019050919050565b6000602082019050818103600083015261511b816150df565b9050919050565b7f455243313135353a2073657474696e6720617070726f76616c2073746174757360008201527f20666f722073656c660000000000000000000000000000000000000000000000602082015250565b600061517e602983613fb8565b915061518982615122565b604082019050919050565b600060208201905081810360008301526151ad81615171565b9050919050565b7f5061757361626c653a2070617573656400000000000000000000000000000000600082015250565b60006151ea601083613fb8565b91506151f5826151b4565b602082019050919050565b60006020820190508181036000830152615219816151dd565b9050919050565b7f52454a5556453a2054617267657420737570706c792063616e6e6f742062652060008201527f7a65726f00000000000000000000000000000000000000000000000000000000602082015250565b600061527c602483613fb8565b915061528782615220565b604082019050919050565b600060208201905081810360008301526152ab8161526f565b9050919050565b7f52454a5556453a204c6162206372656469742063616e6e6f74206265207a657260008201527f6f00000000000000000000000000000000000000000000000000000000000000602082015250565b600061530e602183613fb8565b9150615319826152b2565b604082019050919050565b6000602082019050818103600083015261533d81615301565b9050919050565b7f52454a5556453a204c6f636b20706572696f642063616e6e6f74206265207a6560008201527f726f000000000000000000000000000000000000000000000000000000000000602082015250565b60006153a0602283613fb8565b91506153ab82615344565b604082019050919050565b600060208201905081810360008301526153cf81615393565b9050919050565b7f52454a5556453a20496e697469616c2070657263656e742063616e6e6f74206260008201527f65207a65726f0000000000000000000000000000000000000000000000000000602082015250565b6000615432602683613fb8565b915061543d826153d6565b604082019050919050565b6000602082019050818103600083015261546181615425565b9050919050565b7f52454a5556453a2052656a7576652070657263656e742063616e6e6f7420626560008201527f207a65726f000000000000000000000000000000000000000000000000000000602082015250565b60006154c4602583613fb8565b91506154cf82615468565b604082019050919050565b600060208201905081810360008301526154f3816154b7565b9050919050565b7f52454a5556453a204c616220616464726573732063616e6e6f74206265207a6560008201527f726f000000000000000000000000000000000000000000000000000000000000602082015250565b6000615556602283613fb8565b9150615561826154fa565b604082019050919050565b6000602082019050818103600083015261558581615549565b9050919050565b7f52454a5556453a2052656a75766520616464726573732063616e6e6f7420626560008201527f207a65726f000000000000000000000000000000000000000000000000000000602082015250565b60006155e8602583613fb8565b91506155f38261558c565b604082019050919050565b60006020820190508181036000830152615617816155db565b9050919050565b7f52454a5556453a2055524973206c656e6774682063616e6e6f74206265207a6560008201527f726f000000000000000000000000000000000000000000000000000000000000602082015250565b600061567a602283613fb8565b91506156858261561e565b604082019050919050565b600060208201905081810360008301526156a98161566d565b9050919050565b600081549050919050565b60008190508160005260206000209050919050565b60008160001c9050919050565b600073ffffffffffffffffffffffffffffffffffffffff82169050919050565b600061571061570b836156d0565b6156dd565b9050919050565b600061572382546156fd565b9050919050565b6000600182019050919050565b6000615742826156b0565b61574c8185614551565b9350615757836156bb565b8060005b8381101561578f5761576c82615717565b6157768882614581565b97506157818361572a565b92505060018101905061575b565b5085935050505092915050565b600081549050919050565b60008190508160005260206000209050919050565b6000819050919050565b60006157d96157d4836156d0565b6157bc565b9050919050565b60006157ec82546157c6565b9050919050565b6000600182019050919050565b600061580b8261579c565b6158158185614471565b9350615820836157a7565b8060005b8381101561585857615835826157e0565b61583f88826144a1565b975061584a836157f3565b925050600181019050615824565b5085935050505092915050565b600060608201905061587a6000830186613e9b565b818103602083015261588c8185615737565b905081810360408301526158a08184615800565b9050949350505050565b60006040820190506158bf6000830185613e9b565b6158cc6020830184613e9b565b9392505050565b600081519050919050565b600082825260208201905092915050565b60006158fa826158d3565b61590481856158de565b9350615914818560208601613fc9565b61591d81613ff3565b840191505092915050565b600060a08201905061593d6000830188614626565b61594a6020830187614626565b818103604083015261595c81866144c6565b9050818103606083015261597081856144c6565b9050818103608083015261598481846158ef565b90509695505050505050565b60008151905061599f81613ef1565b92915050565b6000602082840312156159bb576159ba613dbd565b5b60006159c984828501615990565b91505092915050565b60008160e01c9050919050565b600060033d11156159fe5760046000803e6159fb6000516159d2565b90505b90565b600060443d10615a8e57615a13613db3565b60043d036004823e80513d602482011167ffffffffffffffff82111715615a3b575050615a8e565b808201805167ffffffffffffffff811115615a595750505050615a8e565b80602083010160043d038501811115615a76575050505050615a8e565b615a8582602001850186614093565b82955050505050505b90565b7f455243313135353a207472616e7366657220746f206e6f6e2d4552433131353560008201527f526563656976657220696d706c656d656e746572000000000000000000000000602082015250565b6000615aed603483613fb8565b9150615af882615a91565b604082019050919050565b60006020820190508181036000830152615b1c81615ae0565b9050919050565b7f455243313135353a204552433131353552656365697665722072656a6563746560008201527f6420746f6b656e73000000000000000000000000000000000000000000000000602082015250565b6000615b7f602883613fb8565b9150615b8a82615b23565b604082019050919050565b60006020820190508181036000830152615bae81615b72565b9050919050565b6000615bc082613e25565b9150615bcb83613e25565b9250828203905081811115615be357615be2614cfa565b5b92915050565b60008190508160005260206000209050919050565b60006020601f8301049050919050565b600082821b905092915050565b600060088302615c4b7fffffffffffffffffffffffffffffffffffffffffffffffffffffffffffffffff82615c0e565b615c558683615c0e565b95508019841693508086168417925050509392505050565b6000819050919050565b6000615c92615c8d615c8884613e25565b615c6d565b613e25565b9050919050565b6000819050919050565b615cac83615c77565b615cc0615cb882615c99565b848454615c1b565b825550505050565b600090565b615cd5615cc8565b615ce0818484615ca3565b505050565b5b81811015615d0457615cf9600082615ccd565b600181019050615ce6565b5050565b601f821115615d4957615d1a81615be9565b615d2384615bfe565b81016020851015615d32578190505b615d46615d3e85615bfe565b830182615ce5565b50505b505050565b600082821c905092915050565b6000615d6c60001984600802615d4e565b1980831691505092915050565b6000615d858383615d5b565b9150826002028217905092915050565b615d9e82613fad565b67ffffffffffffffff811115615db757615db6614064565b5b615dc18254614b76565b615dcc828285615d08565b600060209050601f831160018114615dff5760008415615ded578287015190505b615df78582615d79565b865550615e5f565b601f198416615e0d86615be9565b60005b82811015615e3557848901518255600182019150602085019450602081019050615e10565b86831015615e525784890151615e4e601f891682615d5b565b8355505b6001600288020188555050505b505050505050565b6000615e72826146bc565b915060ff8203615e8557615e84614cfa565b5b600182019050919050565b600067ffffffffffffffff821115615eab57615eaa614064565b5b602082029050602081019050919050565b6000615ecf615eca846141ac565b6140c4565b905082815260208101848484011115615eeb57615eea6141a7565b5b615ef6848285613fc9565b509392505050565b600082601f830112615f1357615f1261405f565b5b8151615f23848260208601615ebc565b91505092915050565b6000615f3f615f3a84615e90565b6140c4565b90508083825260208201905060208402830185811115615f6257615f6161410b565b5b835b81811015615fa957805167ffffffffffffffff811115615f8757615f8661405f565b5b808601615f948982615efe565b85526020850194505050602081019050615f64565b5050509392505050565b600082601f830112615fc857615fc761405f565b5b8151615fd8848260208601615f2c565b91505092915050565b600060208284031215615ff757615ff6613dbd565b5b600082015167ffffffffffffffff81111561601557616014613dc2565b5b61602184828501615fb3565b91505092915050565b60008151905061603981613e2f565b92915050565b60006020828403121561605557616054613dbd565b5b60006160638482850161602a565b91505092915050565b6000602082019050818103600083015261608681846158ef565b905092915050565b60008151905061609d81613df9565b92915050565b6000602082840312156160b9576160b8613dbd565b5b60006160c78482850161608e565b91505092915050565b600060408201905081810360008301526160ea81856158ef565b90506160f96020830184613e9b565b9392505050565b600061610b82613e25565b915061611683613e25565b925082820261612481613e25565b9150828204841483151761613b5761613a614cfa565b5b5092915050565b7f4e487b7100000000000000000000000000000000000000000000000000000000600052601260045260246000fd5b600061617c82613e25565b915061618783613e25565b92508261619757616196616142565b5b828204905092915050565b600060a0820190506161b76000830188614626565b6161c46020830187614626565b6161d16040830186613e9b565b6161de6060830185613e9b565b81810360808301526161f081846158ef565b90509695505050505050565b7f455243313135353a206d696e7420746f20746865207a65726f2061646472657360008201527f7300000000000000000000000000000000000000000000000000000000000000602082015250565b6000616258602183613fb8565b9150616263826161fc565b604082019050919050565b600060208201905081810360008301526162878161624b565b905091905056fea2646970667358221220c206b9d91907b9ae42055ef5a83405fec56dc9830a0720e2d4eff84db0e810d364736f6c63430008130033",
  "linkReferences": {},
  "deployedLinkReferences": {}
}