{
  "_format": "hh-sol-artifact-1",
  "contractName": "ProductShards",
  "sourceName": "contracts/ProductShards.sol",
  "abi": [
    {
      "inputs": [
        {
          "internalType": "string",
          "name": "uri_",
          "type": "string"
        },
        {
          "internalType": "address",
          "name": "productNFT_",
          "type": "address"
        }
      ],
      "stateMutability": "nonpayable",
      "type": "constructor"
    },
    {
      "anonymous": false,
      "inputs": [
        {
          "indexed": true,
          "internalType": "address",
          "name": "account",
          "type": "address"
        },
        {
          "indexed": true,
          "internalType": "address",
          "name": "operator",
          "type": "address"
        },
        {
          "indexed": false,
          "internalType": "bool",
          "name": "approved",
          "type": "bool"
        }
      ],
      "name": "ApprovalForAll",
      "type": "event"
    },
    {
      "anonymous": false,
      "inputs": [
        {
          "indexed": false,
          "internalType": "uint256",
          "name": "productUID",
          "type": "uint256"
        },
        {
          "indexed": false,
          "internalType": "address[]",
          "name": "dataOwners",
          "type": "address[]"
        },
        {
          "indexed": false,
          "internalType": "uint256[]",
          "name": "shardAmount",
          "type": "uint256[]"
        }
      ],
      "name": "InitialShardDistributed",
      "type": "event"
    },
    {
      "anonymous": false,
      "inputs": [
        {
          "indexed": true,
          "internalType": "address",
          "name": "previousOwner",
          "type": "address"
        },
        {
          "indexed": true,
          "internalType": "address",
          "name": "newOwner",
          "type": "address"
        }
      ],
      "name": "OwnershipTransferred",
      "type": "event"
    },
    {
      "anonymous": false,
      "inputs": [
        {
          "indexed": false,
          "internalType": "address",
          "name": "account",
          "type": "address"
        }
      ],
      "name": "Paused",
      "type": "event"
    },
    {
      "anonymous": false,
      "inputs": [
        {
          "indexed": true,
          "internalType": "address",
          "name": "operator",
          "type": "address"
        },
        {
          "indexed": true,
          "internalType": "address",
          "name": "from",
          "type": "address"
        },
        {
          "indexed": true,
          "internalType": "address",
          "name": "to",
          "type": "address"
        },
        {
          "indexed": false,
          "internalType": "uint256[]",
          "name": "ids",
          "type": "uint256[]"
        },
        {
          "indexed": false,
          "internalType": "uint256[]",
          "name": "values",
          "type": "uint256[]"
        }
      ],
      "name": "TransferBatch",
      "type": "event"
    },
    {
      "anonymous": false,
      "inputs": [
        {
          "indexed": true,
          "internalType": "address",
          "name": "operator",
          "type": "address"
        },
        {
          "indexed": true,
          "internalType": "address",
          "name": "from",
          "type": "address"
        },
        {
          "indexed": true,
          "internalType": "address",
          "name": "to",
          "type": "address"
        },
        {
          "indexed": false,
          "internalType": "uint256",
          "name": "id",
          "type": "uint256"
        },
        {
          "indexed": false,
          "internalType": "uint256",
          "name": "value",
          "type": "uint256"
        }
      ],
      "name": "TransferSingle",
      "type": "event"
    },
    {
      "anonymous": false,
      "inputs": [
        {
          "indexed": false,
          "internalType": "string",
          "name": "value",
          "type": "string"
        },
        {
          "indexed": true,
          "internalType": "uint256",
          "name": "id",
          "type": "uint256"
        }
      ],
      "name": "URI",
      "type": "event"
    },
    {
      "anonymous": false,
      "inputs": [
        {
          "indexed": false,
          "internalType": "address",
          "name": "account",
          "type": "address"
        }
      ],
      "name": "Unpaused",
      "type": "event"
    },
    {
      "inputs": [
        {
          "internalType": "address",
          "name": "account",
          "type": "address"
        },
        {
          "internalType": "uint256",
          "name": "id",
          "type": "uint256"
        }
      ],
      "name": "balanceOf",
      "outputs": [
        {
          "internalType": "uint256",
          "name": "",
          "type": "uint256"
        }
      ],
      "stateMutability": "view",
      "type": "function"
    },
    {
      "inputs": [
        {
          "internalType": "address[]",
          "name": "accounts",
          "type": "address[]"
        },
        {
          "internalType": "uint256[]",
          "name": "ids",
          "type": "uint256[]"
        }
      ],
      "name": "balanceOfBatch",
      "outputs": [
        {
          "internalType": "uint256[]",
          "name": "",
          "type": "uint256[]"
        }
      ],
      "stateMutability": "view",
      "type": "function"
    },
    {
      "inputs": [
        {
          "internalType": "uint256",
          "name": "productUID",
          "type": "uint256"
        },
        {
          "internalType": "uint256",
          "name": "targetSupply_",
          "type": "uint256"
        },
        {
          "internalType": "uint256",
          "name": "labCredit",
          "type": "uint256"
        },
        {
          "internalType": "uint256",
          "name": "lockPeriod",
          "type": "uint256"
        },
        {
          "internalType": "uint8",
          "name": "initialPercent",
          "type": "uint8"
        },
        {
          "internalType": "uint8",
          "name": "rejuvePercent",
          "type": "uint8"
        },
        {
          "internalType": "address",
          "name": "lab",
          "type": "address"
        },
        {
          "internalType": "address",
          "name": "rejuve",
          "type": "address"
        },
        {
          "internalType": "string[]",
          "name": "uris",
          "type": "string[]"
        }
      ],
      "name": "distributeInitialShards",
      "outputs": [],
      "stateMutability": "nonpayable",
      "type": "function"
    },
    {
      "inputs": [
        {
          "internalType": "uint256",
          "name": "productUID",
          "type": "uint256"
        }
      ],
      "name": "getProductIDs",
      "outputs": [
        {
          "internalType": "uint256[]",
          "name": "",
          "type": "uint256[]"
        }
      ],
      "stateMutability": "view",
      "type": "function"
    },
    {
      "inputs": [
        {
          "internalType": "uint256",
          "name": "productUID",
          "type": "uint256"
        }
      ],
      "name": "getShardsConfig",
      "outputs": [
        {
          "internalType": "uint256",
          "name": "",
          "type": "uint256"
        },
        {
          "internalType": "uint8",
          "name": "",
          "type": "uint8"
        },
        {
          "internalType": "uint8",
          "name": "",
          "type": "uint8"
        },
        {
          "internalType": "uint8",
          "name": "",
          "type": "uint8"
        }
      ],
      "stateMutability": "view",
      "type": "function"
    },
    {
      "inputs": [
        {
          "internalType": "address",
          "name": "account",
          "type": "address"
        },
        {
          "internalType": "address",
          "name": "operator",
          "type": "address"
        }
      ],
      "name": "isApprovedForAll",
      "outputs": [
        {
          "internalType": "bool",
          "name": "",
          "type": "bool"
        }
      ],
      "stateMutability": "view",
      "type": "function"
    },
    {
      "inputs": [],
      "name": "owner",
      "outputs": [
        {
          "internalType": "address",
          "name": "",
          "type": "address"
        }
      ],
      "stateMutability": "view",
      "type": "function"
    },
    {
      "inputs": [],
      "name": "paused",
      "outputs": [
        {
          "internalType": "bool",
          "name": "",
          "type": "bool"
        }
      ],
      "stateMutability": "view",
      "type": "function"
    },
    {
      "inputs": [],
      "name": "renounceOwnership",
      "outputs": [],
      "stateMutability": "nonpayable",
      "type": "function"
    },
    {
      "inputs": [
        {
          "internalType": "address",
          "name": "from",
          "type": "address"
        },
        {
          "internalType": "address",
          "name": "to",
          "type": "address"
        },
        {
          "internalType": "uint256[]",
          "name": "ids",
          "type": "uint256[]"
        },
        {
          "internalType": "uint256[]",
          "name": "amounts",
          "type": "uint256[]"
        },
        {
          "internalType": "bytes",
          "name": "data",
          "type": "bytes"
        }
      ],
      "name": "safeBatchTransferFrom",
      "outputs": [],
      "stateMutability": "nonpayable",
      "type": "function"
    },
    {
      "inputs": [
        {
          "internalType": "address",
          "name": "from",
          "type": "address"
        },
        {
          "internalType": "address",
          "name": "to",
          "type": "address"
        },
        {
          "internalType": "uint256",
          "name": "id",
          "type": "uint256"
        },
        {
          "internalType": "uint256",
          "name": "amount",
          "type": "uint256"
        },
        {
          "internalType": "bytes",
          "name": "data",
          "type": "bytes"
        }
      ],
      "name": "safeTransferFrom",
      "outputs": [],
      "stateMutability": "nonpayable",
      "type": "function"
    },
    {
      "inputs": [
        {
          "internalType": "address",
          "name": "operator",
          "type": "address"
        },
        {
          "internalType": "bool",
          "name": "approved",
          "type": "bool"
        }
      ],
      "name": "setApprovalForAll",
      "outputs": [],
      "stateMutability": "nonpayable",
      "type": "function"
    },
    {
      "inputs": [
        {
          "internalType": "bytes4",
          "name": "interfaceId",
          "type": "bytes4"
        }
      ],
      "name": "supportsInterface",
      "outputs": [
        {
          "internalType": "bool",
          "name": "",
          "type": "bool"
        }
      ],
      "stateMutability": "view",
      "type": "function"
    },
    {
      "inputs": [
        {
          "internalType": "uint256",
          "name": "productUID",
          "type": "uint256"
        }
      ],
      "name": "targetSupply",
      "outputs": [
        {
          "internalType": "uint256",
          "name": "",
          "type": "uint256"
        }
      ],
      "stateMutability": "view",
      "type": "function"
    },
    {
      "inputs": [
        {
          "internalType": "uint256",
          "name": "productUID",
          "type": "uint256"
        }
      ],
      "name": "totalShardSupply",
      "outputs": [
        {
          "internalType": "uint256",
          "name": "",
          "type": "uint256"
        }
      ],
      "stateMutability": "view",
      "type": "function"
    },
    {
      "inputs": [
        {
          "internalType": "address",
          "name": "newOwner",
          "type": "address"
        }
      ],
      "name": "transferOwnership",
      "outputs": [],
      "stateMutability": "nonpayable",
      "type": "function"
    },
    {
      "inputs": [
        {
          "internalType": "uint256",
          "name": "id",
          "type": "uint256"
        }
      ],
      "name": "uri",
      "outputs": [
        {
          "internalType": "string",
          "name": "",
          "type": "string"
        }
      ],
      "stateMutability": "view",
      "type": "function"
    }
  ],
  "bytecode": "0x60806040523480156200001157600080fd5b50604051620060b4380380620060b48339818101604052810190620000379190620003e1565b81620000586200004c6200010560201b60201c565b6200010d60201b60201c565b60008060146101000a81548160ff0219169083151502179055506200008381620001d160201b60201c565b50620000a0678e5410372587b53560c01b620001e660201b60201c565b620000bc6797e22fe287306ce860c01b620001e660201b60201c565b80600460006101000a81548173ffffffffffffffffffffffffffffffffffffffff021916908373ffffffffffffffffffffffffffffffffffffffff160217905550505062000779565b600033905090565b60008060009054906101000a900473ffffffffffffffffffffffffffffffffffffffff169050816000806101000a81548173ffffffffffffffffffffffffffffffffffffffff021916908373ffffffffffffffffffffffffffffffffffffffff1602179055508173ffffffffffffffffffffffffffffffffffffffff168173ffffffffffffffffffffffffffffffffffffffff167f8be0079c531659141344cd1fd0a4f28419497f9722a3daafe3b4186f6b6457e060405160405180910390a35050565b8060039081620001e2919062000692565b5050565b50565b6000604051905090565b600080fd5b600080fd5b600080fd5b600080fd5b6000601f19601f8301169050919050565b7f4e487b7100000000000000000000000000000000000000000000000000000000600052604160045260246000fd5b620002528262000207565b810181811067ffffffffffffffff8211171562000274576200027362000218565b5b80604052505050565b600062000289620001e9565b905062000297828262000247565b919050565b600067ffffffffffffffff821115620002ba57620002b962000218565b5b620002c58262000207565b9050602081019050919050565b60005b83811015620002f2578082015181840152602081019050620002d5565b60008484015250505050565b6000620003156200030f846200029c565b6200027d565b90508281526020810184848401111562000334576200033362000202565b5b62000341848285620002d2565b509392505050565b600082601f830112620003615762000360620001fd565b5b815162000373848260208601620002fe565b91505092915050565b600073ffffffffffffffffffffffffffffffffffffffff82169050919050565b6000620003a9826200037c565b9050919050565b620003bb816200039c565b8114620003c757600080fd5b50565b600081519050620003db81620003b0565b92915050565b60008060408385031215620003fb57620003fa620001f3565b5b600083015167ffffffffffffffff8111156200041c576200041b620001f8565b5b6200042a8582860162000349565b92505060206200043d85828601620003ca565b9150509250929050565b600081519050919050565b7f4e487b7100000000000000000000000000000000000000000000000000000000600052602260045260246000fd5b600060028204905060018216806200049a57607f821691505b602082108103620004b057620004af62000452565b5b50919050565b60008190508160005260206000209050919050565b60006020601f8301049050919050565b600082821b905092915050565b6000600883026200051a7fffffffffffffffffffffffffffffffffffffffffffffffffffffffffffffffff82620004db565b620005268683620004db565b95508019841693508086168417925050509392505050565b6000819050919050565b6000819050919050565b6000620005736200056d62000567846200053e565b62000548565b6200053e565b9050919050565b6000819050919050565b6200058f8362000552565b620005a76200059e826200057a565b848454620004e8565b825550505050565b600090565b620005be620005af565b620005cb81848462000584565b505050565b5b81811015620005f357620005e7600082620005b4565b600181019050620005d1565b5050565b601f82111562000642576200060c81620004b6565b6200061784620004cb565b8101602085101562000627578190505b6200063f6200063685620004cb565b830182620005d0565b50505b505050565b600082821c905092915050565b6000620006676000198460080262000647565b1980831691505092915050565b600062000682838362000654565b9150826002028217905092915050565b6200069d8262000447565b67ffffffffffffffff811115620006b957620006b862000218565b5b620006c5825462000481565b620006d2828285620005f7565b600060209050601f8311600181146200070a5760008415620006f5578287015190505b62000701858262000674565b86555062000771565b601f1984166200071a86620004b6565b60005b8281101562000744578489015182556001820191506020850194506020810190506200071d565b8683101562000764578489015162000760601f89168262000654565b8355505b6001600288020188555050505b505050505050565b61592b80620007896000396000f3fe608060405234801561001057600080fd5b506004361061010a5760003560e01c80638da5cb5b116100a2578063d6e0dbda11610071578063d6e0dbda146102c9578063e985e9c5146102f9578063f242432a14610329578063f2fde38b14610345578063fac795c0146103615761010a565b80638da5cb5b14610243578063936906f114610261578063a22cb46514610291578063d429c758146102ad5761010a565b80634e1273f4116100de5780634e1273f4146101bb5780634e57d942146101eb5780635c975abb1461021b578063715018a6146102395761010a565b8062fdd58e1461010f57806301ffc9a71461013f5780630e89341c1461016f5780632eb2c2d61461019f575b600080fd5b610129600480360381019061012491906138d6565b610394565b6040516101369190613925565b60405180910390f35b61015960048036038101906101549190613998565b61045d565b60405161016691906139e0565b60405180910390f35b610189600480360381019061018491906139fb565b61053f565b6040516101969190613ab8565b60405180910390f35b6101b960048036038101906101b49190613cd7565b610620565b005b6101d560048036038101906101d09190613e69565b6106c1565b6040516101e29190613f9f565b60405180910390f35b610205600480360381019061020091906139fb565b6107da565b6040516102129190613f9f565b60405180910390f35b610223610881565b60405161023091906139e0565b60405180910390f35b610241610897565b005b61024b6108ab565b6040516102589190613fd0565b60405180910390f35b61027b600480360381019061027691906139fb565b6108d4565b6040516102889190613925565b60405180910390f35b6102ab60048036038101906102a69190614017565b610930565b005b6102c760048036038101906102c29190614212565b610946565b005b6102e360048036038101906102de91906139fb565b6109fe565b6040516102f09190613925565b60405180910390f35b610313600480360381019061030e91906142f8565b610a5a565b60405161032091906139e0565b60405180910390f35b610343600480360381019061033e9190614338565b610aee565b005b61035f600480360381019061035a91906143cf565b610b8f565b005b61037b600480360381019061037691906139fb565b610c12565b60405161038b949392919061440b565b60405180910390f35b60008073ffffffffffffffffffffffffffffffffffffffff168373ffffffffffffffffffffffffffffffffffffffff1603610404576040517f08c379a00000000000000000000000000000000000000000000000000000000081526004016103fb906144c2565b60405180910390fd5b6001600083815260200190815260200160002060008473ffffffffffffffffffffffffffffffffffffffff1673ffffffffffffffffffffffffffffffffffffffff16815260200190815260200160002054905092915050565b60007fd9b67a26000000000000000000000000000000000000000000000000000000007bffffffffffffffffffffffffffffffffffffffffffffffffffffffff1916827bffffffffffffffffffffffffffffffffffffffffffffffffffffffff1916148061052857507f0e89341c000000000000000000000000000000000000000000000000000000007bffffffffffffffffffffffffffffffffffffffffffffffffffffffff1916827bffffffffffffffffffffffffffffffffffffffffffffffffffffffff1916145b80610538575061053782610ce6565b5b9050919050565b60606105556792491d56385ecc7c60c01b610d50565b61056967671c0c4d2fe650b160c01b610d50565b61057d67659d0174fa4f0bff60c01b610d50565b600e6000838152602001908152602001600020805461059b90614511565b80601f01602080910402602001604051908101604052809291908181526020018280546105c790614511565b80156106145780601f106105e957610100808354040283529160200191610614565b820191906000526020600020905b8154815290600101906020018083116105f757829003601f168201915b50505050509050919050565b610628610d53565b73ffffffffffffffffffffffffffffffffffffffff168573ffffffffffffffffffffffffffffffffffffffff16148061066e575061066d85610668610d53565b610a5a565b5b6106ad576040517f08c379a00000000000000000000000000000000000000000000000000000000081526004016106a4906145b4565b60405180910390fd5b6106ba8585858585610d5b565b5050505050565b60608151835114610707576040517f08c379a00000000000000000000000000000000000000000000000000000000081526004016106fe90614646565b60405180910390fd5b6000835167ffffffffffffffff81111561072457610723613adf565b5b6040519080825280602002602001820160405280156107525781602001602082028036833780820191505090505b50905060005b84518110156107cf5761079f85828151811061077757610776614666565b5b602002602001015185838151811061079257610791614666565b5b6020026020010151610394565b8282815181106107b2576107b1614666565b5b602002602001018181525050806107c8906146c4565b9050610758565b508091505092915050565b60606107f0674c29204f2887057860c01b610d50565b610804678468081c1b1357ac60c01b610d50565b610818676e3ef9774a73e81360c01b610d50565b600a600083815260200190815260200160002080548060200260200160405190810160405280929190818152602001828054801561087557602002820191906000526020600020905b815481526020019060010190808311610861575b50505050509050919050565b60008060149054906101000a900460ff16905090565b61089f61107f565b6108a960006110fd565b565b60008060009054906101000a900473ffffffffffffffffffffffffffffffffffffffff16905090565b60006108ea67d03ce72e0e171e8460c01b610d50565b6108fe679bf6fa4a2bfb7d8860c01b610d50565b61091267d369b1ae4aaf4d5c60c01b610d50565b60096000838152602001908152602001600020600101549050919050565b61094261093b610d53565b83836111c1565b5050565b61095a671be144ebbf61276260c01b610d50565b61096261107f565b610976671f51a46f850d1fcb60c01b610d50565b61098a67179c09469441424d60c01b610d50565b61099261132d565b6109a667668b44a8be02e7d260c01b610d50565b6109ba67abc3f5eadc84f3d860c01b610d50565b6109ce676f9e021a4bf51efb60c01b610d50565b6109e267319d86bc25e5766360c01b610d50565b6109f3898989898989898989611377565b505050505050505050565b6000610a14678329589373de574460c01b610d50565b610a2867c04ccf8b496e238b60c01b610d50565b610a3c67c1ef19729354386e60c01b610d50565b60096000838152602001908152602001600020600201549050919050565b6000600260008473ffffffffffffffffffffffffffffffffffffffff1673ffffffffffffffffffffffffffffffffffffffff16815260200190815260200160002060008373ffffffffffffffffffffffffffffffffffffffff1673ffffffffffffffffffffffffffffffffffffffff16815260200190815260200160002060009054906101000a900460ff16905092915050565b610af6610d53565b73ffffffffffffffffffffffffffffffffffffffff168573ffffffffffffffffffffffffffffffffffffffff161480610b3c5750610b3b85610b36610d53565b610a5a565b5b610b7b576040517f08c379a0000000000000000000000000000000000000000000000000000000008152600401610b72906145b4565b60405180910390fd5b610b888585858585611545565b5050505050565b610b9761107f565b600073ffffffffffffffffffffffffffffffffffffffff168173ffffffffffffffffffffffffffffffffffffffff1603610c06576040517f08c379a0000000000000000000000000000000000000000000000000000000008152600401610bfd9061477e565b60405180910390fd5b610c0f816110fd565b50565b600080600080610c2c6795d810699789d02660c01b610d50565b610c406713c89eb54e90a7fa60c01b610d50565b610c54670538d94f7b882e3e60c01b610d50565b60096000868152602001908152602001600020600301546009600087815260200190815260200160002060040160009054906101000a900460ff166009600088815260200190815260200160002060040160029054906101000a900460ff166009600089815260200190815260200160002060040160019054906101000a900460ff1693509350935093509193509193565b60007f01ffc9a7000000000000000000000000000000000000000000000000000000007bffffffffffffffffffffffffffffffffffffffffffffffffffffffff1916827bffffffffffffffffffffffffffffffffffffffffffffffffffffffff1916149050919050565b50565b600033905090565b8151835114610d9f576040517f08c379a0000000000000000000000000000000000000000000000000000000008152600401610d9690614810565b60405180910390fd5b600073ffffffffffffffffffffffffffffffffffffffff168473ffffffffffffffffffffffffffffffffffffffff1603610e0e576040517f08c379a0000000000000000000000000000000000000000000000000000000008152600401610e05906148a2565b60405180910390fd5b6000610e18610d53565b9050610e288187878787876117e3565b60005b8451811015610fdc576000858281518110610e4957610e48614666565b5b602002602001015190506000858381518110610e6857610e67614666565b5b6020026020010151905060006001600084815260200190815260200160002060008b73ffffffffffffffffffffffffffffffffffffffff1673ffffffffffffffffffffffffffffffffffffffff16815260200190815260200160002054905081811015610f0a576040517f08c379a0000000000000000000000000000000000000000000000000000000008152600401610f0190614934565b60405180910390fd5b8181036001600085815260200190815260200160002060008c73ffffffffffffffffffffffffffffffffffffffff1673ffffffffffffffffffffffffffffffffffffffff16815260200190815260200160002081905550816001600085815260200190815260200160002060008b73ffffffffffffffffffffffffffffffffffffffff1673ffffffffffffffffffffffffffffffffffffffff1681526020019081526020016000206000828254610fc19190614954565b9250508190555050505080610fd5906146c4565b9050610e2b565b508473ffffffffffffffffffffffffffffffffffffffff168673ffffffffffffffffffffffffffffffffffffffff168273ffffffffffffffffffffffffffffffffffffffff167f4a39dc06d4c0dbc64b70af90fd698a233a518aa5d07e595d983b8c0526c8f7fb8787604051611053929190614988565b60405180910390a46110698187878787876117eb565b6110778187878787876117f3565b505050505050565b611087610d53565b73ffffffffffffffffffffffffffffffffffffffff166110a56108ab565b73ffffffffffffffffffffffffffffffffffffffff16146110fb576040517f08c379a00000000000000000000000000000000000000000000000000000000081526004016110f290614a0b565b60405180910390fd5b565b60008060009054906101000a900473ffffffffffffffffffffffffffffffffffffffff169050816000806101000a81548173ffffffffffffffffffffffffffffffffffffffff021916908373ffffffffffffffffffffffffffffffffffffffff1602179055508173ffffffffffffffffffffffffffffffffffffffff168173ffffffffffffffffffffffffffffffffffffffff167f8be0079c531659141344cd1fd0a4f28419497f9722a3daafe3b4186f6b6457e060405160405180910390a35050565b8173ffffffffffffffffffffffffffffffffffffffff168373ffffffffffffffffffffffffffffffffffffffff160361122f576040517f08c379a000000000000000000000000000000000000000000000000000000000815260040161122690614a9d565b60405180910390fd5b80600260008573ffffffffffffffffffffffffffffffffffffffff1673ffffffffffffffffffffffffffffffffffffffff16815260200190815260200160002060008473ffffffffffffffffffffffffffffffffffffffff1673ffffffffffffffffffffffffffffffffffffffff16815260200190815260200160002060006101000a81548160ff0219169083151502179055508173ffffffffffffffffffffffffffffffffffffffff168373ffffffffffffffffffffffffffffffffffffffff167f17307eab39ab6107e8899845ad3d59bd9653f200f220920489ca2b5937696c318360405161132091906139e0565b60405180910390a3505050565b611335610881565b15611375576040517f08c379a000000000000000000000000000000000000000000000000000000000815260040161136c90614b09565b60405180910390fd5b565b61138b674027c85802a7ec6f60c01b610d50565b61139f673292f22b29e3e13960c01b610d50565b6113b3672e395931805b912360c01b610d50565b6113bd89876119ca565b6113d167584a79cf25f6ffa160c01b610d50565b6113e56749fd754833b329c860c01b610d50565b6114058989600b60008d8152602001908152602001600020548888611ac3565b61141967ef9e355a2508b68b60c01b610d50565b61142d6774921bc0b184a2ab60c01b610d50565b6114378982611d00565b61144b6733dcf64edbe3045860c01b610d50565b61145f67b1fd9cdd613809dc60c01b610d50565b61146f89898760ff168a8761209b565b611483672fddcd765c8c3ad960c01b610d50565b6114976798163f36f092930e60c01b610d50565b6114a68989848760ff1661281c565b6114ba678fe8f4d30402328560c01b610d50565b6114ce67b21755b43570590b60c01b610d50565b7fb79a1263d65160537b9075e0e4747a6007a82fb191be4435b4c508c431920b89896006600760405161150393929190614d16565b60405180910390a161151f677f4706c2f467027060c01b610d50565b6001600860006101000a81548160ff021916908315150217905550505050505050505050565b600073ffffffffffffffffffffffffffffffffffffffff168473ffffffffffffffffffffffffffffffffffffffff16036115b4576040517f08c379a00000000000000000000000000000000000000000000000000000000081526004016115ab906148a2565b60405180910390fd5b60006115be610d53565b905060006115cb85612af3565b905060006115d885612af3565b90506115e88389898585896117e3565b60006001600088815260200190815260200160002060008a73ffffffffffffffffffffffffffffffffffffffff1673ffffffffffffffffffffffffffffffffffffffff16815260200190815260200160002054905085811015611680576040517f08c379a000000000000000000000000000000000000000000000000000000000815260040161167790614934565b60405180910390fd5b8581036001600089815260200190815260200160002060008b73ffffffffffffffffffffffffffffffffffffffff1673ffffffffffffffffffffffffffffffffffffffff16815260200190815260200160002081905550856001600089815260200190815260200160002060008a73ffffffffffffffffffffffffffffffffffffffff1673ffffffffffffffffffffffffffffffffffffffff16815260200190815260200160002060008282546117379190614954565b925050819055508773ffffffffffffffffffffffffffffffffffffffff168973ffffffffffffffffffffffffffffffffffffffff168573ffffffffffffffffffffffffffffffffffffffff167fc3d58168c5ae7397731d063d5bbf3d657854427343f4c083240f7aacaa2d0f628a8a6040516117b4929190614d5b565b60405180910390a46117ca848a8a86868a6117eb565b6117d8848a8a8a8a8a612b6d565b505050505050505050565b505050505050565b505050505050565b6118128473ffffffffffffffffffffffffffffffffffffffff16612d44565b156119c2578373ffffffffffffffffffffffffffffffffffffffff1663bc197c8187878686866040518663ffffffff1660e01b8152600401611858959493929190614dd9565b6020604051808303816000875af192505050801561189457506040513d601f19601f820116820180604052508101906118919190614e56565b60015b611939576118a0614e90565b806308c379a0036118fc57506118b4614eb2565b806118bf57506118fe565b806040517f08c379a00000000000000000000000000000000000000000000000000000000081526004016118f39190613ab8565b60405180910390fd5b505b6040517f08c379a000000000000000000000000000000000000000000000000000000000815260040161193090614fb4565b60405180910390fd5b63bc197c8160e01b7bffffffffffffffffffffffffffffffffffffffffffffffffffffffff1916817bffffffffffffffffffffffffffffffffffffffffffffffffffffffff1916146119c0576040517f08c379a00000000000000000000000000000000000000000000000000000000081526004016119b790615046565b60405180910390fd5b505b505050505050565b6119de677a03b4ce36669adc60c01b610d50565b6119f26792aa9b72430d24e360c01b610d50565b611a0667f9ccfcc82c13a16360c01b610d50565b611a1a67a3673a6118727ba760c01b610d50565b60008103611a5d576040517f08c379a0000000000000000000000000000000000000000000000000000000008152600401611a54906150d8565b60405180910390fd5b611a7167ed6acc35e994de7260c01b610d50565b611a8567841cbd88491e871360c01b610d50565b4281611a919190614954565b9050611aa767dce291d7e010780b60c01b610d50565b80600b6000848152602001908152602001600020819055505050565b611ad7670bb7a6e407efc47660c01b610d50565b611aeb6757aa5249488aa45960c01b610d50565b611aff674c743fd509e13ca260c01b610d50565b611b13671cd8bc8308ca09a860c01b610d50565b60008403611b56576040517f08c379a0000000000000000000000000000000000000000000000000000000008152600401611b4d9061516a565b60405180910390fd5b611b6a67e1d00c6ecef3e63660c01b610d50565b611b7e6717d03e45f5f4711a60c01b610d50565b611b92670ca5aa0b5928e3a760c01b610d50565b611ba667af293111d99b85f060c01b610d50565b60008260ff1603611bec576040517f08c379a0000000000000000000000000000000000000000000000000000000008152600401611be3906151fc565b60405180910390fd5b611c0067737010027b8cc44960c01b610d50565b611c14674ce0dec13bc3579160c01b610d50565b611c2867a280eebeed42d79c60c01b610d50565b6000600960008781526020019081526020016000209050611c5367b89870c028d633d260c01b610d50565b858160000181905550611c7067efc7430a0cf44b0d60c01b610d50565b848160010181905550611c8d672618d4ee2346949b60c01b610d50565b838160030181905550611caa67c7b765deef0d18fe60c01b610d50565b828160040160006101000a81548160ff021916908360ff160217905550611cdb679811dc976b1c36f160c01b610d50565b818160040160016101000a81548160ff021916908360ff160217905550505050505050565b611d1467ab8aed532df2d76b60c01b610d50565b611d2867bba17983cdabd13360c01b610d50565b611d3c67e7524e6bb510413060c01b610d50565b6000600267ffffffffffffffff811115611d5957611d58613adf565b5b604051908082528060200260200182016040528015611d8c57816020015b6060815260200190600190039081611d775790505b509050611da36717ecefd70aa16eab60c01b610d50565b6040518060400160405280600681526020017f4c4f434b4544000000000000000000000000000000000000000000000000000081525081600081518110611ded57611dec614666565b5b6020026020010181905250611e0c67bafb3e51f464f8c660c01b610d50565b6040518060400160405280600681526020017f545241444544000000000000000000000000000000000000000000000000000081525081600181518110611e5657611e55614666565b5b6020026020010181905250611e7567dc33db0eb21ed9a060c01b610d50565b611e8967661787d79f638ca760c01b610d50565b60005b81518160ff16101561209557611eac67f29e927760c91b4660c01b610d50565b611ec067ee28653b3a46f48c60c01b610d50565b6005828260ff1681518110611ed857611ed7614666565b5b6020026020010151908060018154018082558091505060019003906000526020600020016000909190919091509081611f1191906153c8565b50611f2667f83095505e1071c960c01b610d50565b611f3a67836d83570f0cd3a660c01b610d50565b60006001600580549050611f4e919061549a565b9050611f6467be97bdc86a34d4c960c01b610d50565b611f7766fa7258db33e83660c01b610d50565b600a6000868152602001908152602001600020819080600181540180825580915050600190039060005260206000200160009091909190915055611fc567132444359128480360c01b610d50565b828260ff1681518110611fdb57611fda614666565b5b6020026020010151600d6000838152602001908152602001600020908161200291906153c8565b5061201767815d296fbc8b093960c01b610d50565b84600c600083815260200190815260200160002081905550612043670a27e4cbcfee6d1b60c01b610d50565b838260ff168151811061205957612058614666565b5b6020026020010151600e6000838152602001908152602001600020908161208091906153c8565b5050808061208d906154ce565b915050611e8c565b50505050565b6120af67864422b3f98b08ae60c01b610d50565b6120c3677052205b98ca125960c01b610d50565b6120d76786208709abf5bb9960c01b610d50565b6000600460009054906101000a900473ffffffffffffffffffffffffffffffffffffffff1673ffffffffffffffffffffffffffffffffffffffff1663c9187fe7876040518263ffffffff1660e01b81526004016121349190613925565b600060405180830381865afa158015612151573d6000803e3d6000fd5b505050506040513d6000823e3d601f19601f8201168201806040525081019061217a9190615648565b9050612190674a524ba9e578aed560c01b610d50565b6121a4675f8a21eb0406262860c01b610d50565b60006121af87612d67565b90506121c567a889e1f5f41711fd60c01b610d50565b6121d967e683444f23e6b69060c01b610d50565b600060096000898152602001908152602001600020905061220467164ea45f6885c7da60c01b610d50565b84826122109190614954565b915061222667280eb10e9a4788dc60c01b610d50565b61223a67b0f0eb068548dd0b60c01b610d50565b60005b600460009054906101000a900473ffffffffffffffffffffffffffffffffffffffff1673ffffffffffffffffffffffffffffffffffffffff166384ffeca58a6040518263ffffffff1660e01b81526004016122989190613925565b602060405180830381865afa1580156122b5573d6000803e3d6000fd5b505050506040513d601f19601f820116820180604052508101906122d991906156a6565b8110156126ce576122f4674dcdc93d427b393b60c01b610d50565b61230867dc0d4903f60c679c60c01b610d50565b6000600460009054906101000a900473ffffffffffffffffffffffffffffffffffffffff1673ffffffffffffffffffffffffffffffffffffffff166359a96ffe86848151811061235b5761235a614666565b5b60200260200101516040518263ffffffff1660e01b815260040161237f91906156d3565b602060405180830381865afa15801561239c573d6000803e3d6000fd5b505050506040513d601f19601f820116820180604052508101906123c0919061570a565b90506123d667394c1c981265dfc360c01b610d50565b6123ea67c92669fdf108cc6660c01b610d50565b60006124af600460009054906101000a900473ffffffffffffffffffffffffffffffffffffffff1673ffffffffffffffffffffffffffffffffffffffff16630e47cefa8886815181106124405761243f614666565b5b60200260200101518e6040518363ffffffff1660e01b8152600401612466929190615737565b602060405180830381865afa158015612483573d6000803e3d6000fd5b505050506040513d601f19601f820116820180604052508101906124a791906156a6565b868b8d612ff5565b90506124c567aa3daad0320177c160c01b610d50565b6124d9670f7ec44c50154f7e60c01b610d50565b60006124e48261310d565b90506124fa67374d4e255ee5e29860c01b610d50565b61250e675ac26f54ed569cd260c01b610d50565b6125b083600a60008f815260200190815260200160002080548060200260200160405190810160405280929190818152602001828054801561256f57602002820191906000526020600020905b81548152602001906001019080831161255b575b5050505050836040518060400160405280600481526020017f307830300000000000000000000000000000000000000000000000000000000081525061329c565b6125c467c24312526bd0b5e960c01b610d50565b8185600201546125d49190614954565b85600201819055506125f067edd6d4270faa2cde60c01b610d50565b612604676e37652b8ffc91d360c01b610d50565b6006839080600181540180825580915050600190039060005260206000200160009091909190916101000a81548173ffffffffffffffffffffffffffffffffffffffff021916908373ffffffffffffffffffffffffffffffffffffffff16021790555061267b67e143cfc2d6d9cb4760c01b610d50565b61268f67a003bbf89cef951f60c01b610d50565b600782908060018154018082558091505060019003906000526020600020016000909190919091505550505080806126c6906146c4565b91505061223d565b506126e367063692a633bfde5b60c01b610d50565b6126f767c1c67836722281c260c01b610d50565b6000612707898688868b8d6134c9565b905061271d67d9d2ecffbb1397cf60c01b610d50565b80826002015461272d9190614954565b826002018190555061274967ea653bc968bdc6d960c01b610d50565b61275d674b4422bc7d0c22d960c01b610d50565b6006859080600181540180825580915050600190039060005260206000200160009091909190916101000a81548173ffffffffffffffffffffffffffffffffffffffff021916908373ffffffffffffffffffffffffffffffffffffffff1602179055506127d467ed359cbd189201d560c01b610d50565b6127e8675a24d7626b21999d60c01b610d50565b6007819080600181540180825580915050600190039060005260206000200160009091909190915055505050505050505050565b61283067313ea1a32143e5a760c01b610d50565b6128446715046cf8a2f961cc60c01b610d50565b61285867b4a4140a349190b560c01b610d50565b600060096000868152602001908152602001600020905061288367fc966f584759813a60c01b610d50565b61289767a9f4de7961c386c360c01b610d50565b6000606483866128a79190615767565b6128b191906157d8565b90506128c76747ce4a0ce045f63260c01b610d50565b8082600201546128d79190614954565b82600201819055506128f36706897d58a8ffa43160c01b610d50565b6129076788b7ad33a34493af60c01b610d50565b60006129128261310d565b9050612928677d6c90c8c295f84260c01b610d50565b61293c6782cc11fbdff9205960c01b610d50565b60005b8151811015612a0d5761295c67ae9084963bc3455a60c01b610d50565b61297067b9a5b29730f2e2b260c01b610d50565b6129fa86600a60008b8152602001908152602001600020838154811061299957612998614666565b5b90600052602060002001548484815181106129b7576129b6614666565b5b60200260200101516040518060400160405280600481526020017f307830300000000000000000000000000000000000000000000000000000000081525061367d565b8080612a05906146c4565b91505061293f565b50612a22671fe0275ae3c5ecd960c01b610d50565b612a36678b282cad192c5fb360c01b610d50565b6006859080600181540180825580915050600190039060005260206000200160009091909190916101000a81548173ffffffffffffffffffffffffffffffffffffffff021916908373ffffffffffffffffffffffffffffffffffffffff160217905550612aad678419153d5d05889460c01b610d50565b612ac1670191dd807a806c5f60c01b610d50565b600782908060018154018082558091505060019003906000526020600020016000909190919091505550505050505050565b60606000600167ffffffffffffffff811115612b1257612b11613adf565b5b604051908082528060200260200182016040528015612b405781602001602082028036833780820191505090505b5090508281600081518110612b5857612b57614666565b5b60200260200101818152505080915050919050565b612b8c8473ffffffffffffffffffffffffffffffffffffffff16612d44565b15612d3c578373ffffffffffffffffffffffffffffffffffffffff1663f23a6e6187878686866040518663ffffffff1660e01b8152600401612bd2959493929190615809565b6020604051808303816000875af1925050508015612c0e57506040513d601f19601f82011682018060405250810190612c0b9190614e56565b60015b612cb357612c1a614e90565b806308c379a003612c765750612c2e614eb2565b80612c395750612c78565b806040517f08c379a0000000000000000000000000000000000000000000000000000000008152600401612c6d9190613ab8565b60405180910390fd5b505b6040517f08c379a0000000000000000000000000000000000000000000000000000000008152600401612caa90614fb4565b60405180910390fd5b63f23a6e6160e01b7bffffffffffffffffffffffffffffffffffffffffffffffffffffffff1916817bffffffffffffffffffffffffffffffffffffffffffffffffffffffff191614612d3a576040517f08c379a0000000000000000000000000000000000000000000000000000000008152600401612d3190615046565b60405180910390fd5b505b505050505050565b6000808273ffffffffffffffffffffffffffffffffffffffff163b119050919050565b6000612d7d67c19ee0d0340bdf1960c01b610d50565b612d916755ef1202937c189860c01b610d50565b612da5679b8635bababd7cd560c01b610d50565b6000600460009054906101000a900473ffffffffffffffffffffffffffffffffffffffff1673ffffffffffffffffffffffffffffffffffffffff1663c9187fe7846040518263ffffffff1660e01b8152600401612e029190613925565b600060405180830381865afa158015612e1f573d6000803e3d6000fd5b505050506040513d6000823e3d601f19601f82011682018060405250810190612e489190615648565b9050612e5e673713c0cb0f3a7a0960c01b610d50565b612e726752b1ed2d46c8304c60c01b610d50565b6000612e88676e8fb6e8d40efa7360c01b610d50565b612e9c670cd78e9f5a999f1660c01b610d50565b60005b8251811015612fc257612ebc6748fd522b50d7e93a60c01b610d50565b612ed0679405af8bf489d1df60c01b610d50565b6000600460009054906101000a900473ffffffffffffffffffffffffffffffffffffffff1673ffffffffffffffffffffffffffffffffffffffff16630e47cefa858481518110612f2357612f22614666565b5b6020026020010151886040518363ffffffff1660e01b8152600401612f49929190615737565b602060405180830381865afa158015612f66573d6000803e3d6000fd5b505050506040513d601f19601f82011682018060405250810190612f8a91906156a6565b9050612fa067d50a6a82e38f0ae860c01b610d50565b8083612fac9190614954565b9250508080612fba906146c4565b915050612e9f565b50612fd767a849e5d0fec51c8b60c01b610d50565b612feb679e6b8b233c65619060c01b610d50565b8092505050919050565b600061300b67cdbe933b2af6fb5960c01b610d50565b61301f6755bc71e6e7ae880b60c01b610d50565b6130336723a1143aabdc8dbf60c01b610d50565b6000848660646130439190615767565b61304d91906157d8565b9050613063671c4fadc21c9a16a260c01b610d50565b61307767cab08564ce9e7e9a60c01b610d50565b6000606485856130879190615767565b61309191906157d8565b90506130a7672886f1eb74b2daa260c01b610d50565b6130bb6707c35272e207b50160c01b610d50565b6000606483836130cb9190615767565b6130d591906157d8565b90506130eb674a0d05ec507fb2d260c01b610d50565b6130ff67984913895d1ff70f60c01b610d50565b809350505050949350505050565b60606131236722604be50b9f041660c01b610d50565b61313767a6f1c1f3f7bd99ce60c01b610d50565b61314b67cda8f5d3e2f487d460c01b610d50565b6000600267ffffffffffffffff81111561316857613167613adf565b5b6040519080825280602002602001820160405280156131965781602001602082028036833780820191505090505b5090506131ad67aebe2a23261a44c960c01b610d50565b6131c167ce7e659afee2fd0960c01b610d50565b600060646032856131d29190615767565b6131dc91906157d8565b90506131f267fbc6b03b75f5137360c01b610d50565b808260008151811061320757613206614666565b5b60200260200101818152505061322767c9a103043bcc7b8360c01b610d50565b8084613233919061549a565b9350613249671b6a37f959dc428460c01b610d50565b838260018151811061325e5761325d614666565b5b60200260200101818152505061327e679a0b07648b2b751060c01b610d50565b6132926791ebf62c0998828060c01b610d50565b8192505050919050565b600073ffffffffffffffffffffffffffffffffffffffff168473ffffffffffffffffffffffffffffffffffffffff160361330b576040517f08c379a0000000000000000000000000000000000000000000000000000000008152600401613302906158d5565b60405180910390fd5b815183511461334f576040517f08c379a000000000000000000000000000000000000000000000000000000000815260040161334690614810565b60405180910390fd5b6000613359610d53565b905061336a816000878787876117e3565b60005b84518110156134245783818151811061338957613388614666565b5b6020026020010151600160008784815181106133a8576133a7614666565b5b6020026020010151815260200190815260200160002060008873ffffffffffffffffffffffffffffffffffffffff1673ffffffffffffffffffffffffffffffffffffffff168152602001908152602001600020600082825461340a9190614954565b92505081905550808061341c906146c4565b91505061336d565b508473ffffffffffffffffffffffffffffffffffffffff16600073ffffffffffffffffffffffffffffffffffffffff168273ffffffffffffffffffffffffffffffffffffffff167f4a39dc06d4c0dbc64b70af90fd698a233a518aa5d07e595d983b8c0526c8f7fb878760405161349c929190614988565b60405180910390a46134b3816000878787876117eb565b6134c2816000878787876117f3565b5050505050565b60006134df67ff432fe7bf83145f60c01b610d50565b6134f3671a13af6cfe9d6d6060c01b610d50565b6135076762c98aafb53f225060c01b610d50565b600061351586868686612ff5565b905061352b67db6891394d62f65060c01b610d50565b61353f67a9747bd63961f6a760c01b610d50565b600061354a8261310d565b9050613560676b356cb0aadede3d60c01b610d50565b6135746758e7482b5844cc7d60c01b610d50565b60005b815181101561364557613594672fcc187a6eb9bd5d60c01b610d50565b6135a8676d8cba0421998ff760c01b610d50565b61363289600a60008d815260200190815260200160002083815481106135d1576135d0614666565b5b90600052602060002001548484815181106135ef576135ee614666565b5b60200260200101516040518060400160405280600481526020017f307830300000000000000000000000000000000000000000000000000000000081525061367d565b808061363d906146c4565b915050613577565b5061365a67fc9c9548ccd49e2960c01b610d50565b61366e6791fd09e3ba4dc57f60c01b610d50565b81925050509695505050505050565b600073ffffffffffffffffffffffffffffffffffffffff168473ffffffffffffffffffffffffffffffffffffffff16036136ec576040517f08c379a00000000000000000000000000000000000000000000000000000000081526004016136e3906158d5565b60405180910390fd5b60006136f6610d53565b9050600061370385612af3565b9050600061371085612af3565b9050613721836000898585896117e3565b846001600088815260200190815260200160002060008973ffffffffffffffffffffffffffffffffffffffff1673ffffffffffffffffffffffffffffffffffffffff16815260200190815260200160002060008282546137819190614954565b925050819055508673ffffffffffffffffffffffffffffffffffffffff16600073ffffffffffffffffffffffffffffffffffffffff168473ffffffffffffffffffffffffffffffffffffffff167fc3d58168c5ae7397731d063d5bbf3d657854427343f4c083240f7aacaa2d0f6289896040516137ff929190614d5b565b60405180910390a4613816836000898585896117eb565b61382583600089898989612b6d565b50505050505050565b6000604051905090565b600080fd5b600080fd5b600073ffffffffffffffffffffffffffffffffffffffff82169050919050565b600061386d82613842565b9050919050565b61387d81613862565b811461388857600080fd5b50565b60008135905061389a81613874565b92915050565b6000819050919050565b6138b3816138a0565b81146138be57600080fd5b50565b6000813590506138d0816138aa565b92915050565b600080604083850312156138ed576138ec613838565b5b60006138fb8582860161388b565b925050602061390c858286016138c1565b9150509250929050565b61391f816138a0565b82525050565b600060208201905061393a6000830184613916565b92915050565b60007fffffffff0000000000000000000000000000000000000000000000000000000082169050919050565b61397581613940565b811461398057600080fd5b50565b6000813590506139928161396c565b92915050565b6000602082840312156139ae576139ad613838565b5b60006139bc84828501613983565b91505092915050565b60008115159050919050565b6139da816139c5565b82525050565b60006020820190506139f560008301846139d1565b92915050565b600060208284031215613a1157613a10613838565b5b6000613a1f848285016138c1565b91505092915050565b600081519050919050565b600082825260208201905092915050565b60005b83811015613a62578082015181840152602081019050613a47565b60008484015250505050565b6000601f19601f8301169050919050565b6000613a8a82613a28565b613a948185613a33565b9350613aa4818560208601613a44565b613aad81613a6e565b840191505092915050565b60006020820190508181036000830152613ad28184613a7f565b905092915050565b600080fd5b7f4e487b7100000000000000000000000000000000000000000000000000000000600052604160045260246000fd5b613b1782613a6e565b810181811067ffffffffffffffff82111715613b3657613b35613adf565b5b80604052505050565b6000613b4961382e565b9050613b558282613b0e565b919050565b600067ffffffffffffffff821115613b7557613b74613adf565b5b602082029050602081019050919050565b600080fd5b6000613b9e613b9984613b5a565b613b3f565b90508083825260208201905060208402830185811115613bc157613bc0613b86565b5b835b81811015613bea5780613bd688826138c1565b845260208401935050602081019050613bc3565b5050509392505050565b600082601f830112613c0957613c08613ada565b5b8135613c19848260208601613b8b565b91505092915050565b600080fd5b600067ffffffffffffffff821115613c4257613c41613adf565b5b613c4b82613a6e565b9050602081019050919050565b82818337600083830152505050565b6000613c7a613c7584613c27565b613b3f565b905082815260208101848484011115613c9657613c95613c22565b5b613ca1848285613c58565b509392505050565b600082601f830112613cbe57613cbd613ada565b5b8135613cce848260208601613c67565b91505092915050565b600080600080600060a08688031215613cf357613cf2613838565b5b6000613d018882890161388b565b9550506020613d128882890161388b565b945050604086013567ffffffffffffffff811115613d3357613d3261383d565b5b613d3f88828901613bf4565b935050606086013567ffffffffffffffff811115613d6057613d5f61383d565b5b613d6c88828901613bf4565b925050608086013567ffffffffffffffff811115613d8d57613d8c61383d565b5b613d9988828901613ca9565b9150509295509295909350565b600067ffffffffffffffff821115613dc157613dc0613adf565b5b602082029050602081019050919050565b6000613de5613de084613da6565b613b3f565b90508083825260208201905060208402830185811115613e0857613e07613b86565b5b835b81811015613e315780613e1d888261388b565b845260208401935050602081019050613e0a565b5050509392505050565b600082601f830112613e5057613e4f613ada565b5b8135613e60848260208601613dd2565b91505092915050565b60008060408385031215613e8057613e7f613838565b5b600083013567ffffffffffffffff811115613e9e57613e9d61383d565b5b613eaa85828601613e3b565b925050602083013567ffffffffffffffff811115613ecb57613eca61383d565b5b613ed785828601613bf4565b9150509250929050565b600081519050919050565b600082825260208201905092915050565b6000819050602082019050919050565b613f16816138a0565b82525050565b6000613f288383613f0d565b60208301905092915050565b6000602082019050919050565b6000613f4c82613ee1565b613f568185613eec565b9350613f6183613efd565b8060005b83811015613f92578151613f798882613f1c565b9750613f8483613f34565b925050600181019050613f65565b5085935050505092915050565b60006020820190508181036000830152613fb98184613f41565b905092915050565b613fca81613862565b82525050565b6000602082019050613fe56000830184613fc1565b92915050565b613ff4816139c5565b8114613fff57600080fd5b50565b60008135905061401181613feb565b92915050565b6000806040838503121561402e5761402d613838565b5b600061403c8582860161388b565b925050602061404d85828601614002565b9150509250929050565b600060ff82169050919050565b61406d81614057565b811461407857600080fd5b50565b60008135905061408a81614064565b92915050565b600067ffffffffffffffff8211156140ab576140aa613adf565b5b602082029050602081019050919050565b600067ffffffffffffffff8211156140d7576140d6613adf565b5b6140e082613a6e565b9050602081019050919050565b60006141006140fb846140bc565b613b3f565b90508281526020810184848401111561411c5761411b613c22565b5b614127848285613c58565b509392505050565b600082601f83011261414457614143613ada565b5b81356141548482602086016140ed565b91505092915050565b600061417061416b84614090565b613b3f565b9050808382526020820190506020840283018581111561419357614192613b86565b5b835b818110156141da57803567ffffffffffffffff8111156141b8576141b7613ada565b5b8086016141c5898261412f565b85526020850194505050602081019050614195565b5050509392505050565b600082601f8301126141f9576141f8613ada565b5b813561420984826020860161415d565b91505092915050565b60008060008060008060008060006101208a8c03121561423557614234613838565b5b60006142438c828d016138c1565b99505060206142548c828d016138c1565b98505060406142658c828d016138c1565b97505060606142768c828d016138c1565b96505060806142878c828d0161407b565b95505060a06142988c828d0161407b565b94505060c06142a98c828d0161388b565b93505060e06142ba8c828d0161388b565b9250506101008a013567ffffffffffffffff8111156142dc576142db61383d565b5b6142e88c828d016141e4565b9150509295985092959850929598565b6000806040838503121561430f5761430e613838565b5b600061431d8582860161388b565b925050602061432e8582860161388b565b9150509250929050565b600080600080600060a0868803121561435457614353613838565b5b60006143628882890161388b565b95505060206143738882890161388b565b9450506040614384888289016138c1565b9350506060614395888289016138c1565b925050608086013567ffffffffffffffff8111156143b6576143b561383d565b5b6143c288828901613ca9565b9150509295509295909350565b6000602082840312156143e5576143e4613838565b5b60006143f38482850161388b565b91505092915050565b61440581614057565b82525050565b60006080820190506144206000830187613916565b61442d60208301866143fc565b61443a60408301856143fc565b61444760608301846143fc565b95945050505050565b7f455243313135353a2061646472657373207a65726f206973206e6f742061207660008201527f616c6964206f776e657200000000000000000000000000000000000000000000602082015250565b60006144ac602a83613a33565b91506144b782614450565b604082019050919050565b600060208201905081810360008301526144db8161449f565b9050919050565b7f4e487b7100000000000000000000000000000000000000000000000000000000600052602260045260246000fd5b6000600282049050600182168061452957607f821691505b60208210810361453c5761453b6144e2565b5b50919050565b7f455243313135353a2063616c6c6572206973206e6f7420746f6b656e206f776e60008201527f6572206f7220617070726f766564000000000000000000000000000000000000602082015250565b600061459e602e83613a33565b91506145a982614542565b604082019050919050565b600060208201905081810360008301526145cd81614591565b9050919050565b7f455243313135353a206163636f756e747320616e6420696473206c656e67746860008201527f206d69736d617463680000000000000000000000000000000000000000000000602082015250565b6000614630602983613a33565b915061463b826145d4565b604082019050919050565b6000602082019050818103600083015261465f81614623565b9050919050565b7f4e487b7100000000000000000000000000000000000000000000000000000000600052603260045260246000fd5b7f4e487b7100000000000000000000000000000000000000000000000000000000600052601160045260246000fd5b60006146cf826138a0565b91507fffffffffffffffffffffffffffffffffffffffffffffffffffffffffffffffff820361470157614700614695565b5b600182019050919050565b7f4f776e61626c653a206e6577206f776e657220697320746865207a65726f206160008201527f6464726573730000000000000000000000000000000000000000000000000000602082015250565b6000614768602683613a33565b91506147738261470c565b604082019050919050565b600060208201905081810360008301526147978161475b565b9050919050565b7f455243313135353a2069647320616e6420616d6f756e7473206c656e6774682060008201527f6d69736d61746368000000000000000000000000000000000000000000000000602082015250565b60006147fa602883613a33565b91506148058261479e565b604082019050919050565b60006020820190508181036000830152614829816147ed565b9050919050565b7f455243313135353a207472616e7366657220746f20746865207a65726f20616460008201527f6472657373000000000000000000000000000000000000000000000000000000602082015250565b600061488c602583613a33565b915061489782614830565b604082019050919050565b600060208201905081810360008301526148bb8161487f565b9050919050565b7f455243313135353a20696e73756666696369656e742062616c616e636520666f60008201527f72207472616e7366657200000000000000000000000000000000000000000000602082015250565b600061491e602a83613a33565b9150614929826148c2565b604082019050919050565b6000602082019050818103600083015261494d81614911565b9050919050565b600061495f826138a0565b915061496a836138a0565b925082820190508082111561498257614981614695565b5b92915050565b600060408201905081810360008301526149a28185613f41565b905081810360208301526149b68184613f41565b90509392505050565b7f4f776e61626c653a2063616c6c6572206973206e6f7420746865206f776e6572600082015250565b60006149f5602083613a33565b9150614a00826149bf565b602082019050919050565b60006020820190508181036000830152614a24816149e8565b9050919050565b7f455243313135353a2073657474696e6720617070726f76616c2073746174757360008201527f20666f722073656c660000000000000000000000000000000000000000000000602082015250565b6000614a87602983613a33565b9150614a9282614a2b565b604082019050919050565b60006020820190508181036000830152614ab681614a7a565b9050919050565b7f5061757361626c653a2070617573656400000000000000000000000000000000600082015250565b6000614af3601083613a33565b9150614afe82614abd565b602082019050919050565b60006020820190508181036000830152614b2281614ae6565b9050919050565b600081549050919050565b600082825260208201905092915050565b60008190508160005260206000209050919050565b614b6381613862565b82525050565b6000614b758383614b5a565b60208301905092915050565b60008160001c9050919050565b600073ffffffffffffffffffffffffffffffffffffffff82169050919050565b6000614bc1614bbc83614b81565b614b8e565b9050919050565b6000614bd48254614bae565b9050919050565b6000600182019050919050565b6000614bf382614b29565b614bfd8185614b34565b9350614c0883614b45565b8060005b83811015614c4057614c1d82614bc8565b614c278882614b69565b9750614c3283614bdb565b925050600181019050614c0c565b5085935050505092915050565b600081549050919050565b60008190508160005260206000209050919050565b6000819050919050565b6000614c8a614c8583614b81565b614c6d565b9050919050565b6000614c9d8254614c77565b9050919050565b6000600182019050919050565b6000614cbc82614c4d565b614cc68185613eec565b9350614cd183614c58565b8060005b83811015614d0957614ce682614c91565b614cf08882613f1c565b9750614cfb83614ca4565b925050600181019050614cd5565b5085935050505092915050565b6000606082019050614d2b6000830186613916565b8181036020830152614d3d8185614be8565b90508181036040830152614d518184614cb1565b9050949350505050565b6000604082019050614d706000830185613916565b614d7d6020830184613916565b9392505050565b600081519050919050565b600082825260208201905092915050565b6000614dab82614d84565b614db58185614d8f565b9350614dc5818560208601613a44565b614dce81613a6e565b840191505092915050565b600060a082019050614dee6000830188613fc1565b614dfb6020830187613fc1565b8181036040830152614e0d8186613f41565b90508181036060830152614e218185613f41565b90508181036080830152614e358184614da0565b90509695505050505050565b600081519050614e508161396c565b92915050565b600060208284031215614e6c57614e6b613838565b5b6000614e7a84828501614e41565b91505092915050565b60008160e01c9050919050565b600060033d1115614eaf5760046000803e614eac600051614e83565b90505b90565b600060443d10614f3f57614ec461382e565b60043d036004823e80513d602482011167ffffffffffffffff82111715614eec575050614f3f565b808201805167ffffffffffffffff811115614f0a5750505050614f3f565b80602083010160043d038501811115614f27575050505050614f3f565b614f3682602001850186613b0e565b82955050505050505b90565b7f455243313135353a207472616e7366657220746f206e6f6e2d4552433131353560008201527f526563656976657220696d706c656d656e746572000000000000000000000000602082015250565b6000614f9e603483613a33565b9150614fa982614f42565b604082019050919050565b60006020820190508181036000830152614fcd81614f91565b9050919050565b7f455243313135353a204552433131353552656365697665722072656a6563746560008201527f6420746f6b656e73000000000000000000000000000000000000000000000000602082015250565b6000615030602883613a33565b915061503b82614fd4565b604082019050919050565b6000602082019050818103600083015261505f81615023565b9050919050565b7f52454a5556453a204c6f636b20706572696f642063616e6e6f74206265207a6560008201527f726f000000000000000000000000000000000000000000000000000000000000602082015250565b60006150c2602283613a33565b91506150cd82615066565b604082019050919050565b600060208201905081810360008301526150f1816150b5565b9050919050565b7f52454a5556453a2054617267657420737570706c792063616e6e6f742062652060008201527f3000000000000000000000000000000000000000000000000000000000000000602082015250565b6000615154602183613a33565b915061515f826150f8565b604082019050919050565b6000602082019050818103600083015261518381615147565b9050919050565b7f52454a5556453a20496e697469616c20636f6e7472696275746f72732070657260008201527f63656e742063616e6e6f74206265203000000000000000000000000000000000602082015250565b60006151e6603083613a33565b91506151f18261518a565b604082019050919050565b60006020820190508181036000830152615215816151d9565b9050919050565b60008190508160005260206000209050919050565b60006020601f8301049050919050565b600082821b905092915050565b60006008830261527e7fffffffffffffffffffffffffffffffffffffffffffffffffffffffffffffffff82615241565b6152888683615241565b95508019841693508086168417925050509392505050565b6000819050919050565b60006152c56152c06152bb846138a0565b6152a0565b6138a0565b9050919050565b6000819050919050565b6152df836152aa565b6152f36152eb826152cc565b84845461524e565b825550505050565b600090565b6153086152fb565b6153138184846152d6565b505050565b5b818110156153375761532c600082615300565b600181019050615319565b5050565b601f82111561537c5761534d8161521c565b61535684615231565b81016020851015615365578190505b61537961537185615231565b830182615318565b50505b505050565b600082821c905092915050565b600061539f60001984600802615381565b1980831691505092915050565b60006153b8838361538e565b9150826002028217905092915050565b6153d182613a28565b67ffffffffffffffff8111156153ea576153e9613adf565b5b6153f48254614511565b6153ff82828561533b565b600060209050601f8311600181146154325760008415615420578287015190505b61542a85826153ac565b865550615492565b601f1984166154408661521c565b60005b8281101561546857848901518255600182019150602085019450602081019050615443565b868310156154855784890151615481601f89168261538e565b8355505b6001600288020188555050505b505050505050565b60006154a5826138a0565b91506154b0836138a0565b92508282039050818111156154c8576154c7614695565b5b92915050565b60006154d982614057565b915060ff82036154ec576154eb614695565b5b600182019050919050565b600067ffffffffffffffff82111561551257615511613adf565b5b602082029050602081019050919050565b600061553661553184613c27565b613b3f565b90508281526020810184848401111561555257615551613c22565b5b61555d848285613a44565b509392505050565b600082601f83011261557a57615579613ada565b5b815161558a848260208601615523565b91505092915050565b60006155a66155a1846154f7565b613b3f565b905080838252602082019050602084028301858111156155c9576155c8613b86565b5b835b8181101561561057805167ffffffffffffffff8111156155ee576155ed613ada565b5b8086016155fb8982615565565b855260208501945050506020810190506155cb565b5050509392505050565b600082601f83011261562f5761562e613ada565b5b815161563f848260208601615593565b91505092915050565b60006020828403121561565e5761565d613838565b5b600082015167ffffffffffffffff81111561567c5761567b61383d565b5b6156888482850161561a565b91505092915050565b6000815190506156a0816138aa565b92915050565b6000602082840312156156bc576156bb613838565b5b60006156ca84828501615691565b91505092915050565b600060208201905081810360008301526156ed8184614da0565b905092915050565b60008151905061570481613874565b92915050565b6000602082840312156157205761571f613838565b5b600061572e848285016156f5565b91505092915050565b600060408201905081810360008301526157518185614da0565b90506157606020830184613916565b9392505050565b6000615772826138a0565b915061577d836138a0565b925082820261578b816138a0565b915082820484148315176157a2576157a1614695565b5b5092915050565b7f4e487b7100000000000000000000000000000000000000000000000000000000600052601260045260246000fd5b60006157e3826138a0565b91506157ee836138a0565b9250826157fe576157fd6157a9565b5b828204905092915050565b600060a08201905061581e6000830188613fc1565b61582b6020830187613fc1565b6158386040830186613916565b6158456060830185613916565b81810360808301526158578184614da0565b90509695505050505050565b7f455243313135353a206d696e7420746f20746865207a65726f2061646472657360008201527f7300000000000000000000000000000000000000000000000000000000000000602082015250565b60006158bf602183613a33565b91506158ca82615863565b604082019050919050565b600060208201905081810360008301526158ee816158b2565b905091905056fea2646970667358221220945c8464fd5ca4a9515f3f67ab1d075e1a87898ae8d28aabf91ccd78bac7b80764736f6c63430008120033",
  "linkReferences": {},
  "deployedLinkReferences": {}
}