{
  "_format": "hh-sol-artifact-1",
  "contractName": "ProductShards",
  "sourceName": "contracts/ProductShards.sol",
  "abi": [
    {
      "inputs": [
        {
          "internalType": "string",
          "name": "uri_",
          "type": "string"
        },
        {
          "internalType": "address",
          "name": "productNFT_",
          "type": "address"
        }
      ],
      "stateMutability": "nonpayable",
      "type": "constructor"
    },
    {
      "anonymous": false,
      "inputs": [
        {
          "indexed": true,
          "internalType": "address",
          "name": "account",
          "type": "address"
        },
        {
          "indexed": true,
          "internalType": "address",
          "name": "operator",
          "type": "address"
        },
        {
          "indexed": false,
          "internalType": "bool",
          "name": "approved",
          "type": "bool"
        }
      ],
      "name": "ApprovalForAll",
      "type": "event"
    },
    {
      "anonymous": false,
      "inputs": [
        {
          "indexed": false,
          "internalType": "uint256",
          "name": "productUID",
          "type": "uint256"
        },
        {
          "indexed": false,
          "internalType": "address[]",
          "name": "dataOwners",
          "type": "address[]"
        },
        {
          "indexed": false,
          "internalType": "uint256[]",
          "name": "shardAmount",
          "type": "uint256[]"
        }
      ],
      "name": "InitialShardDistributed",
      "type": "event"
    },
    {
      "anonymous": false,
      "inputs": [
        {
          "indexed": true,
          "internalType": "address",
          "name": "previousOwner",
          "type": "address"
        },
        {
          "indexed": true,
          "internalType": "address",
          "name": "newOwner",
          "type": "address"
        }
      ],
      "name": "OwnershipTransferred",
      "type": "event"
    },
    {
      "anonymous": false,
      "inputs": [
        {
          "indexed": false,
          "internalType": "address",
          "name": "account",
          "type": "address"
        }
      ],
      "name": "Paused",
      "type": "event"
    },
    {
      "anonymous": false,
      "inputs": [
        {
          "indexed": true,
          "internalType": "address",
          "name": "operator",
          "type": "address"
        },
        {
          "indexed": true,
          "internalType": "address",
          "name": "from",
          "type": "address"
        },
        {
          "indexed": true,
          "internalType": "address",
          "name": "to",
          "type": "address"
        },
        {
          "indexed": false,
          "internalType": "uint256[]",
          "name": "ids",
          "type": "uint256[]"
        },
        {
          "indexed": false,
          "internalType": "uint256[]",
          "name": "values",
          "type": "uint256[]"
        }
      ],
      "name": "TransferBatch",
      "type": "event"
    },
    {
      "anonymous": false,
      "inputs": [
        {
          "indexed": true,
          "internalType": "address",
          "name": "operator",
          "type": "address"
        },
        {
          "indexed": true,
          "internalType": "address",
          "name": "from",
          "type": "address"
        },
        {
          "indexed": true,
          "internalType": "address",
          "name": "to",
          "type": "address"
        },
        {
          "indexed": false,
          "internalType": "uint256",
          "name": "id",
          "type": "uint256"
        },
        {
          "indexed": false,
          "internalType": "uint256",
          "name": "value",
          "type": "uint256"
        }
      ],
      "name": "TransferSingle",
      "type": "event"
    },
    {
      "anonymous": false,
      "inputs": [
        {
          "indexed": false,
          "internalType": "string",
          "name": "value",
          "type": "string"
        },
        {
          "indexed": true,
          "internalType": "uint256",
          "name": "id",
          "type": "uint256"
        }
      ],
      "name": "URI",
      "type": "event"
    },
    {
      "anonymous": false,
      "inputs": [
        {
          "indexed": false,
          "internalType": "address",
          "name": "account",
          "type": "address"
        }
      ],
      "name": "Unpaused",
      "type": "event"
    },
    {
      "inputs": [
        {
          "internalType": "address",
          "name": "account",
          "type": "address"
        },
        {
          "internalType": "uint256",
          "name": "id",
          "type": "uint256"
        }
      ],
      "name": "balanceOf",
      "outputs": [
        {
          "internalType": "uint256",
          "name": "",
          "type": "uint256"
        }
      ],
      "stateMutability": "view",
      "type": "function"
    },
    {
      "inputs": [
        {
          "internalType": "address[]",
          "name": "accounts",
          "type": "address[]"
        },
        {
          "internalType": "uint256[]",
          "name": "ids",
          "type": "uint256[]"
        }
      ],
      "name": "balanceOfBatch",
      "outputs": [
        {
          "internalType": "uint256[]",
          "name": "",
          "type": "uint256[]"
        }
      ],
      "stateMutability": "view",
      "type": "function"
    },
    {
      "inputs": [
        {
          "internalType": "uint256",
          "name": "_productUID",
          "type": "uint256"
        },
        {
          "internalType": "uint256",
          "name": "_targetSupply",
          "type": "uint256"
        },
        {
          "internalType": "uint256",
          "name": "_labCredit",
          "type": "uint256"
        },
        {
          "internalType": "uint256",
          "name": "_lockPeriod",
          "type": "uint256"
        },
        {
          "internalType": "uint8",
          "name": "_initialPercent",
          "type": "uint8"
        },
        {
          "internalType": "uint8",
          "name": "_rejuvePercent",
          "type": "uint8"
        },
        {
          "internalType": "address",
          "name": "_lab",
          "type": "address"
        },
        {
          "internalType": "address",
          "name": "_rejuve",
          "type": "address"
        },
        {
          "internalType": "string[]",
          "name": "_uris",
          "type": "string[]"
        }
      ],
      "name": "distributeInitialShards",
      "outputs": [],
      "stateMutability": "nonpayable",
      "type": "function"
    },
    {
      "inputs": [
        {
          "internalType": "uint256",
          "name": "_productUID",
          "type": "uint256"
        }
      ],
      "name": "getShardsConfig",
      "outputs": [
        {
          "internalType": "uint256",
          "name": "",
          "type": "uint256"
        },
        {
          "internalType": "uint8",
          "name": "",
          "type": "uint8"
        },
        {
          "internalType": "uint8",
          "name": "",
          "type": "uint8"
        },
        {
          "internalType": "uint8",
          "name": "",
          "type": "uint8"
        }
      ],
      "stateMutability": "view",
      "type": "function"
    },
    {
      "inputs": [
        {
          "internalType": "address",
          "name": "account",
          "type": "address"
        },
        {
          "internalType": "address",
          "name": "operator",
          "type": "address"
        }
      ],
      "name": "isApprovedForAll",
      "outputs": [
        {
          "internalType": "bool",
          "name": "",
          "type": "bool"
        }
      ],
      "stateMutability": "view",
      "type": "function"
    },
    {
      "inputs": [],
      "name": "owner",
      "outputs": [
        {
          "internalType": "address",
          "name": "",
          "type": "address"
        }
      ],
      "stateMutability": "view",
      "type": "function"
    },
    {
      "inputs": [],
      "name": "paused",
      "outputs": [
        {
          "internalType": "bool",
          "name": "",
          "type": "bool"
        }
      ],
      "stateMutability": "view",
      "type": "function"
    },
    {
      "inputs": [],
      "name": "renounceOwnership",
      "outputs": [],
      "stateMutability": "nonpayable",
      "type": "function"
    },
    {
      "inputs": [
        {
          "internalType": "address",
          "name": "from",
          "type": "address"
        },
        {
          "internalType": "address",
          "name": "to",
          "type": "address"
        },
        {
          "internalType": "uint256[]",
          "name": "ids",
          "type": "uint256[]"
        },
        {
          "internalType": "uint256[]",
          "name": "amounts",
          "type": "uint256[]"
        },
        {
          "internalType": "bytes",
          "name": "data",
          "type": "bytes"
        }
      ],
      "name": "safeBatchTransferFrom",
      "outputs": [],
      "stateMutability": "nonpayable",
      "type": "function"
    },
    {
      "inputs": [
        {
          "internalType": "address",
          "name": "from",
          "type": "address"
        },
        {
          "internalType": "address",
          "name": "to",
          "type": "address"
        },
        {
          "internalType": "uint256",
          "name": "id",
          "type": "uint256"
        },
        {
          "internalType": "uint256",
          "name": "amount",
          "type": "uint256"
        },
        {
          "internalType": "bytes",
          "name": "data",
          "type": "bytes"
        }
      ],
      "name": "safeTransferFrom",
      "outputs": [],
      "stateMutability": "nonpayable",
      "type": "function"
    },
    {
      "inputs": [
        {
          "internalType": "address",
          "name": "operator",
          "type": "address"
        },
        {
          "internalType": "bool",
          "name": "approved",
          "type": "bool"
        }
      ],
      "name": "setApprovalForAll",
      "outputs": [],
      "stateMutability": "nonpayable",
      "type": "function"
    },
    {
      "inputs": [
        {
          "internalType": "bytes4",
          "name": "interfaceId",
          "type": "bytes4"
        }
      ],
      "name": "supportsInterface",
      "outputs": [
        {
          "internalType": "bool",
          "name": "",
          "type": "bool"
        }
      ],
      "stateMutability": "view",
      "type": "function"
    },
    {
      "inputs": [
        {
          "internalType": "uint256",
          "name": "_productUID",
          "type": "uint256"
        }
      ],
      "name": "targetSupply",
      "outputs": [
        {
          "internalType": "uint256",
          "name": "",
          "type": "uint256"
        }
      ],
      "stateMutability": "view",
      "type": "function"
    },
    {
      "inputs": [
        {
          "internalType": "uint256",
          "name": "_productUID",
          "type": "uint256"
        }
      ],
      "name": "totalShardSupply",
      "outputs": [
        {
          "internalType": "uint256",
          "name": "",
          "type": "uint256"
        }
      ],
      "stateMutability": "view",
      "type": "function"
    },
    {
      "inputs": [
        {
          "internalType": "address",
          "name": "newOwner",
          "type": "address"
        }
      ],
      "name": "transferOwnership",
      "outputs": [],
      "stateMutability": "nonpayable",
      "type": "function"
    },
    {
      "inputs": [
        {
          "internalType": "uint256",
          "name": "_id",
          "type": "uint256"
        }
      ],
      "name": "uri",
      "outputs": [
        {
          "internalType": "string",
          "name": "",
          "type": "string"
        }
      ],
      "stateMutability": "view",
      "type": "function"
    }
  ],
  "bytecode": "0x60806040523480156200001157600080fd5b5060405162002dbb38038062002dbb833981016040819052620000349162000115565b81620000403362000080565b6000805460ff60a01b191690556200005881620000d0565b50600480546001600160a01b0319166001600160a01b03929092169190911790555062000358565b600080546001600160a01b038381166001600160a01b0319831681178455604051919092169283917f8be0079c531659141344cd1fd0a4f28419497f9722a3daafe3b4186f6b6457e09190a35050565b6003620000de82826200028c565b5050565b634e487b7160e01b600052604160045260246000fd5b80516001600160a01b03811681146200011057600080fd5b919050565b600080604083850312156200012957600080fd5b82516001600160401b03808211156200014157600080fd5b818501915085601f8301126200015657600080fd5b8151818111156200016b576200016b620000e2565b604051601f8201601f19908116603f01168101908382118183101715620001965762000196620000e2565b81604052828152602093508884848701011115620001b357600080fd5b600091505b82821015620001d75784820184015181830185015290830190620001b8565b6000848483010152809650505050620001f2818601620000f8565b925050509250929050565b600181811c908216806200021257607f821691505b6020821081036200023357634e487b7160e01b600052602260045260246000fd5b50919050565b601f8211156200028757600081815260208120601f850160051c81016020861015620002625750805b601f850160051c820191505b8181101562000283578281556001016200026e565b5050505b505050565b81516001600160401b03811115620002a857620002a8620000e2565b620002c081620002b98454620001fd565b8462000239565b602080601f831160018114620002f85760008415620002df5750858301515b600019600386901b1c1916600185901b17855562000283565b600085815260208120601f198616915b82811015620003295788860151825594840194600190910190840162000308565b5085821015620003485787850151600019600388901b60f8161c191681555b5050505050600190811b01905550565b612a5380620003686000396000f3fe608060405234801561001057600080fd5b50600436106100ff5760003560e01c8063936906f111610097578063e985e9c511610066578063e985e9c514610243578063f242432a1461027f578063f2fde38b14610292578063fac795c0146102a557600080fd5b8063936906f1146101d7578063a22cb465146101fa578063d429c7581461020d578063d6e0dbda1461022057600080fd5b80634e1273f4116100d35780634e1273f4146101825780635c975abb146101a2578063715018a6146101b45780638da5cb5b146101bc57600080fd5b8062fdd58e1461010457806301ffc9a71461012a5780630e89341c1461014d5780632eb2c2d61461016d575b600080fd5b610117610112366004611c79565b610312565b6040519081526020015b60405180910390f35b61013d610138366004611cbb565b6103ad565b6040519015158152602001610121565b61016061015b366004611cdf565b6103fd565b6040516101219190611d48565b61018061017b366004611ec1565b61049f565b005b610195610190366004611f6f565b6104eb565b6040516101219190612077565b600054600160a01b900460ff1661013d565b610180610615565b6000546040516001600160a01b039091168152602001610121565b6101176101e5366004611cdf565b60009081526009602052604090206001015490565b61018061020836600461208a565b610629565b61018061021b3660046120de565b610638565b61011761022e366004611cdf565b60009081526009602052604090206002015490565b61013d61025136600461223b565b6001600160a01b03918216600090815260026020908152604080832093909416825291909152205460ff1690565b61018061028d366004612269565b610664565b6101806102a03660046122d2565b6106a9565b6102e96102b3366004611cdf565b6000818152600960205260409020600381015460049091015460ff80821691620100008104821691610100909104169193509193565b6040805194855260ff938416602086015291831691840191909152166060820152608001610121565b60006001600160a01b0383166103825760405162461bcd60e51b815260206004820152602a60248201527f455243313135353a2061646472657373207a65726f206973206e6f742061207660448201526930b634b21037bbb732b960b11b60648201526084015b60405180910390fd5b5060008181526001602090815260408083206001600160a01b03861684529091529020545b92915050565b60006001600160e01b03198216636cdb3d1360e11b14806103de57506001600160e01b031982166303a24d0760e21b145b806103a757506301ffc9a760e01b6001600160e01b03198316146103a7565b6000818152600e6020526040902080546060919061041a906122ef565b80601f0160208091040260200160405190810160405280929190818152602001828054610446906122ef565b80156104935780601f1061046857610100808354040283529160200191610493565b820191906000526020600020905b81548152906001019060200180831161047657829003601f168201915b50505050509050919050565b6001600160a01b0385163314806104bb57506104bb8533610251565b6104d75760405162461bcd60e51b815260040161037990612329565b6104e48585858585610722565b5050505050565b606081518351146105505760405162461bcd60e51b815260206004820152602960248201527f455243313135353a206163636f756e747320616e6420696473206c656e677468604482015268040dad2e6dac2e8c6d60bb1b6064820152608401610379565b6000835167ffffffffffffffff81111561056c5761056c611d5b565b604051908082528060200260200182016040528015610595578160200160208202803683370190505b50905060005b845181101561060d576105e08582815181106105b9576105b9612377565b60200260200101518583815181106105d3576105d3612377565b6020026020010151610312565b8282815181106105f2576105f2612377565b6020908102919091010152610606816123a3565b905061059b565b509392505050565b61061d6108c1565b610627600061091b565b565b61063433838361096b565b5050565b6106406108c1565b610648610a4b565b610659898989898989898989610a98565b505050505050505050565b6001600160a01b03851633148061068057506106808533610251565b61069c5760405162461bcd60e51b815260040161037990612329565b6104e48585858585610b3e565b6106b16108c1565b6001600160a01b0381166107165760405162461bcd60e51b815260206004820152602660248201527f4f776e61626c653a206e6577206f776e657220697320746865207a65726f206160448201526564647265737360d01b6064820152608401610379565b61071f8161091b565b50565b81518351146107435760405162461bcd60e51b8152600401610379906123bc565b6001600160a01b0384166107695760405162461bcd60e51b815260040161037990612404565b3360005b845181101561085357600085828151811061078a5761078a612377565b6020026020010151905060008583815181106107a8576107a8612377565b60209081029190910181015160008481526001835260408082206001600160a01b038e1683529093529190912054909150818110156107f95760405162461bcd60e51b815260040161037990612449565b60008381526001602090815260408083206001600160a01b038e8116855292528083208585039055908b16825281208054849290610838908490612493565b925050819055505050508061084c906123a3565b905061076d565b50846001600160a01b0316866001600160a01b0316826001600160a01b03167f4a39dc06d4c0dbc64b70af90fd698a233a518aa5d07e595d983b8c0526c8f7fb87876040516108a39291906124a6565b60405180910390a46108b9818787878787610c61565b505050505050565b6000546001600160a01b031633146106275760405162461bcd60e51b815260206004820181905260248201527f4f776e61626c653a2063616c6c6572206973206e6f7420746865206f776e65726044820152606401610379565b600080546001600160a01b038381166001600160a01b0319831681178455604051919092169283917f8be0079c531659141344cd1fd0a4f28419497f9722a3daafe3b4186f6b6457e09190a35050565b816001600160a01b0316836001600160a01b0316036109de5760405162461bcd60e51b815260206004820152602960248201527f455243313135353a2073657474696e6720617070726f76616c20737461747573604482015268103337b91039b2b63360b91b6064820152608401610379565b6001600160a01b03838116600081815260026020908152604080832094871680845294825291829020805460ff191686151590811790915591519182527f17307eab39ab6107e8899845ad3d59bd9653f200f220920489ca2b5937696c31910160405180910390a3505050565b600054600160a01b900460ff16156106275760405162461bcd60e51b815260206004820152601060248201526f14185d5cd8589b194e881c185d5cd95960821b6044820152606401610379565b610aa28987610dc5565b6000898152600b6020526040902054610ac0908a908a908888610e40565b610aca8982610f4b565b610ada89898760ff168a87611123565b610ae98989848760ff16611552565b7fb79a1263d65160537b9075e0e4747a6007a82fb191be4435b4c508c431920b898960066007604051610b1e939291906124d4565b60405180910390a150506008805460ff1916600117905550505050505050565b6001600160a01b038416610b645760405162461bcd60e51b815260040161037990612404565b336000610b70856116af565b90506000610b7d856116af565b905060008681526001602090815260408083206001600160a01b038c16845290915290205485811015610bc25760405162461bcd60e51b815260040161037990612449565b60008781526001602090815260408083206001600160a01b038d8116855292528083208985039055908a16825281208054889290610c01908490612493565b909155505060408051888152602081018890526001600160a01b03808b16928c821692918816917fc3d58168c5ae7397731d063d5bbf3d657854427343f4c083240f7aacaa2d0f62910160405180910390a4610659848a8a8a8a8a6116fa565b6001600160a01b0384163b156108b95760405163bc197c8160e01b81526001600160a01b0385169063bc197c8190610ca59089908990889088908890600401612569565b6020604051808303816000875af1925050508015610ce0575060408051601f3d908101601f19168201909252610cdd918101906125bb565b60015b610d8c57610cec6125d8565b806308c379a003610d255750610d006125f4565b80610d0b5750610d27565b8060405162461bcd60e51b81526004016103799190611d48565b505b60405162461bcd60e51b815260206004820152603460248201527f455243313135353a207472616e7366657220746f206e6f6e2d455243313135356044820152732932b1b2b4bb32b91034b6b83632b6b2b73a32b960611b6064820152608401610379565b6001600160e01b0319811663bc197c8160e01b14610dbc5760405162461bcd60e51b81526004016103799061267e565b50505050505050565b80600003610e205760405162461bcd60e51b815260206004820152602260248201527f52454a5556453a204c6f636b20706572696f642063616e6e6f74206265207a65604482015261726f60f01b6064820152608401610379565b610e2a4282612493565b6000928352600b60205260409092209190915550565b83600003610e9a5760405162461bcd60e51b815260206004820152602160248201527f52454a5556453a2054617267657420737570706c792063616e6e6f74206265206044820152600360fc1b6064820152608401610379565b8160ff16600003610f065760405162461bcd60e51b815260206004820152603060248201527f52454a5556453a20496e697469616c20636f6e7472696275746f72732070657260448201526f063656e742063616e6e6f7420626520360841b6064820152608401610379565b6000858152600960205260409020948555600185019390935560038401919091556004909201805460ff93841661ffff19909116176101009390921692909202179055565b60408051600280825260608201909252600091816020015b6060815260200190600190039081610f63579050509050604051806040016040528060068152602001651313d0d2d15160d21b81525081600081518110610fac57610fac612377565b60200260200101819052506040518060400160405280600681526020016515149051115160d21b81525081600181518110610fe957610fe9612377565b602002602001018190525060005b81518160ff16101561111d576005828260ff168151811061101a5761101a612377565b602090810291909101810151825460018101845560009384529190922001906110439082612711565b50600554600090611056906001906127d1565b6000868152600a60209081526040822080546001810182559083529120018190558351909150839060ff841690811061109157611091612377565b6020026020010151600d600083815260200190815260200160002090816110b89190612711565b506000818152600c602052604090208590558351849060ff84169081106110e1576110e1612377565b6020026020010151600e600083815260200190815260200160002090816111089190612711565b50508080611115906127e4565b915050610ff7565b50505050565b6004805460405163c9187fe760e01b81529182018790526000916001600160a01b039091169063c9187fe790602401600060405180830381865afa15801561116f573d6000803e3d6000fd5b505050506040513d6000823e601f3d908101601f191682016040526111979190810190612803565b905060006111a4876117b5565b60008881526009602052604090209091506111bf8583612493565b915060005b600480546040516384ffeca560e01b81529182018b90526001600160a01b0316906384ffeca590602401602060405180830381865afa15801561120b573d6000803e3d6000fd5b505050506040513d601f19601f8201168201806040525081019061122f9190612906565b81101561149c5760045484516000916001600160a01b0316906359a96ffe9087908590811061126057611260612377565b60200260200101516040518263ffffffff1660e01b81526004016112849190611d48565b602060405180830381865afa1580156112a1573d6000803e3d6000fd5b505050506040513d601f19601f820116820180604052508101906112c5919061291f565b6004548651919250600091611365916001600160a01b031690630e47cefa908990879081106112f6576112f6612377565b60200260200101518e6040518363ffffffff1660e01b815260040161131c92919061293c565b602060405180830381865afa158015611339573d6000803e3d6000fd5b505050506040513d601f19601f8201168201806040525081019061135d9190612906565b868b8d6118eb565b9050600061137282611944565b60008d8152600a602090815260409182902080548351818402810184019094528084529394506113f6938793928301828280156113ce57602002820191906000526020600020905b8154815260200190600101908083116113ba575b505050505083604051806040016040528060048152602001630307830360e41b8152506119d5565b8185600201546114069190612493565b6002860155506006805460018082019092557ff652222313e28459528d920b65115c16c04f3efc82aaedc97be59f3f377c0d3f0180546001600160a01b0319166001600160a01b0394909416939093179092556007805492830181556000527fa66cc928b5edb82af9bd49922954155ab7b0942694bea4ce44661d9a8736c6889091015580611494816123a3565b9150506111c4565b5060006114ad898688868b8d611b21565b90508082600201546114bf9190612493565b6002909201919091556006805460018181019092557ff652222313e28459528d920b65115c16c04f3efc82aaedc97be59f3f377c0d3f0180546001600160a01b039096166001600160a01b0319909616959095179094556007805494850181556000527fa66cc928b5edb82af9bd49922954155ab7b0942694bea4ce44661d9a8736c68890930192909255505050505050565b600084815260096020526040812090606461156d848761295e565b6115779190612975565b90508082600201546115899190612493565b6002830155600061159982611944565b905060005b8151811015611626576000888152600a602052604090208054611614918891849081106115cd576115cd612377565b90600052602060002001548484815181106115ea576115ea612377565b6020026020010151604051806040016040528060048152602001630307830360e41b815250611b91565b8061161e816123a3565b91505061159e565b50506006805460018082019092557ff652222313e28459528d920b65115c16c04f3efc82aaedc97be59f3f377c0d3f0180546001600160a01b0319166001600160a01b0396909616959095179094556007805494850181556000527fa66cc928b5edb82af9bd49922954155ab7b0942694bea4ce44661d9a8736c6889093019290925550505050565b604080516001808252818301909252606091600091906020808301908036833701905050905082816000815181106116e9576116e9612377565b602090810291909101015292915050565b6001600160a01b0384163b156108b95760405163f23a6e6160e01b81526001600160a01b0385169063f23a6e619061173e9089908990889088908890600401612997565b6020604051808303816000875af1925050508015611779575060408051601f3d908101601f19168201909252611776918101906125bb565b60015b61178557610cec6125d8565b6001600160e01b0319811663f23a6e6160e01b14610dbc5760405162461bcd60e51b81526004016103799061267e565b6004805460405163c9187fe760e01b815291820183905260009182916001600160a01b03169063c9187fe790602401600060405180830381865afa158015611801573d6000803e3d6000fd5b505050506040513d6000823e601f3d908101601f191682016040526118299190810190612803565b90506000805b825181101561060d5760045483516000916001600160a01b031690630e47cefa9086908590811061186257611862612377565b6020026020010151886040518363ffffffff1660e01b815260040161188892919061293c565b602060405180830381865afa1580156118a5573d6000803e3d6000fd5b505050506040513d601f19601f820116820180604052508101906118c99190612906565b90506118d58184612493565b92505080806118e3906123a3565b91505061182f565b600080846118fa87606461295e565b6119049190612975565b905060006064611914868661295e565b61191e9190612975565b90506000606461192e848461295e565b6119389190612975565b98975050505050505050565b604080516002808252606080830184529260009291906020830190803683370190505090506000606461197885603261295e565b6119829190612975565b9050808260008151811061199857611998612377565b60209081029190910101526119ad81856127d1565b935083826001815181106119c3576119c3612377565b60209081029190910101525092915050565b6001600160a01b0384166119fb5760405162461bcd60e51b8152600401610379906129dc565b8151835114611a1c5760405162461bcd60e51b8152600401610379906123bc565b3360005b8451811015611ab957838181518110611a3b57611a3b612377565b602002602001015160016000878481518110611a5957611a59612377565b602002602001015181526020019081526020016000206000886001600160a01b03166001600160a01b031681526020019081526020016000206000828254611aa19190612493565b90915550819050611ab1816123a3565b915050611a20565b50846001600160a01b031660006001600160a01b0316826001600160a01b03167f4a39dc06d4c0dbc64b70af90fd698a233a518aa5d07e595d983b8c0526c8f7fb8787604051611b0a9291906124a6565b60405180910390a46104e481600087878787610c61565b600080611b30868686866118eb565b90506000611b3d82611944565b905060005b8151811015611b835760008a8152600a602052604090208054611b71918b91849081106115cd576115cd612377565b80611b7b816123a3565b915050611b42565b509098975050505050505050565b6001600160a01b038416611bb75760405162461bcd60e51b8152600401610379906129dc565b336000611bc3856116af565b90506000611bd0856116af565b905060008681526001602090815260408083206001600160a01b038b16845290915281208054879290611c04908490612493565b909155505060408051878152602081018790526001600160a01b03808a1692600092918716917fc3d58168c5ae7397731d063d5bbf3d657854427343f4c083240f7aacaa2d0f62910160405180910390a4610dbc836000898989896116fa565b6001600160a01b038116811461071f57600080fd5b60008060408385031215611c8c57600080fd5b8235611c9781611c64565b946020939093013593505050565b6001600160e01b03198116811461071f57600080fd5b600060208284031215611ccd57600080fd5b8135611cd881611ca5565b9392505050565b600060208284031215611cf157600080fd5b5035919050565b60005b83811015611d13578181015183820152602001611cfb565b50506000910152565b60008151808452611d34816020860160208601611cf8565b601f01601f19169290920160200192915050565b602081526000611cd86020830184611d1c565b634e487b7160e01b600052604160045260246000fd5b601f8201601f1916810167ffffffffffffffff81118282101715611d9757611d97611d5b565b6040525050565b600067ffffffffffffffff821115611db857611db8611d5b565b5060051b60200190565b600082601f830112611dd357600080fd5b81356020611de082611d9e565b604051611ded8282611d71565b83815260059390931b8501820192828101915086841115611e0d57600080fd5b8286015b84811015611e285780358352918301918301611e11565b509695505050505050565b600067ffffffffffffffff821115611e4d57611e4d611d5b565b50601f01601f191660200190565b6000611e6683611e33565b604051611e738282611d71565b809250848152858585011115611e8857600080fd5b8484602083013760006020868301015250509392505050565b600082601f830112611eb257600080fd5b611cd883833560208501611e5b565b600080600080600060a08688031215611ed957600080fd5b8535611ee481611c64565b94506020860135611ef481611c64565b9350604086013567ffffffffffffffff80821115611f1157600080fd5b611f1d89838a01611dc2565b94506060880135915080821115611f3357600080fd5b611f3f89838a01611dc2565b93506080880135915080821115611f5557600080fd5b50611f6288828901611ea1565b9150509295509295909350565b60008060408385031215611f8257600080fd5b823567ffffffffffffffff80821115611f9a57600080fd5b818501915085601f830112611fae57600080fd5b81356020611fbb82611d9e565b604051611fc88282611d71565b83815260059390931b8501820192828101915089841115611fe857600080fd5b948201945b8386101561200f57853561200081611c64565b82529482019490820190611fed565b9650508601359250508082111561202557600080fd5b5061203285828601611dc2565b9150509250929050565b600081518084526020808501945080840160005b8381101561206c57815187529582019590820190600101612050565b509495945050505050565b602081526000611cd8602083018461203c565b6000806040838503121561209d57600080fd5b82356120a881611c64565b9150602083013580151581146120bd57600080fd5b809150509250929050565b803560ff811681146120d957600080fd5b919050565b60008060008060008060008060006101208a8c0312156120fd57600080fd5b8935985060208a0135975060408a0135965060608a0135955061212260808b016120c8565b945061213060a08b016120c8565b935061213f60c08b0135611c64565b60c08a0135925061215360e08b0135611c64565b60e08a0135915067ffffffffffffffff6101008b0135111561217457600080fd5b6101008a01358a018b601f82011261218b57600080fd5b6121958135611d9e565b6040516121a28282611d71565b809150823581526020810191508d6020843560051b85010111156121c557600080fd5b602083015b6020843560051b8501018110156122275767ffffffffffffffff813511156121f157600080fd5b8e603f82358601011261220357600080fd5b6122198f82358601602081013590604001611e5b565b8352602092830192016121ca565b508093505050509295985092959850929598565b6000806040838503121561224e57600080fd5b823561225981611c64565b915060208301356120bd81611c64565b600080600080600060a0868803121561228157600080fd5b853561228c81611c64565b9450602086013561229c81611c64565b93506040860135925060608601359150608086013567ffffffffffffffff8111156122c657600080fd5b611f6288828901611ea1565b6000602082840312156122e457600080fd5b8135611cd881611c64565b600181811c9082168061230357607f821691505b60208210810361232357634e487b7160e01b600052602260045260246000fd5b50919050565b6020808252602e908201527f455243313135353a2063616c6c6572206973206e6f7420746f6b656e206f776e60408201526d195c881bdc88185c1c1c9bdd995960921b606082015260800190565b634e487b7160e01b600052603260045260246000fd5b634e487b7160e01b600052601160045260246000fd5b6000600182016123b5576123b561238d565b5060010190565b60208082526028908201527f455243313135353a2069647320616e6420616d6f756e7473206c656e677468206040820152670dad2e6dac2e8c6d60c31b606082015260800190565b60208082526025908201527f455243313135353a207472616e7366657220746f20746865207a65726f206164604082015264647265737360d81b606082015260800190565b6020808252602a908201527f455243313135353a20696e73756666696369656e742062616c616e636520666f60408201526939103a3930b739b332b960b11b606082015260800190565b808201808211156103a7576103a761238d565b6040815260006124b9604083018561203c565b82810360208401526124cb818561203c565b95945050505050565b600060608201858352602060608185015281865480845260808601915060009350878452828420845b828110156125225781546001600160a01b0316845292840192600191820191016124fd565b50505084810360408601528554808252868452828420918301905b8085101561255c5782548252600194850194909201919083019061253d565b5098975050505050505050565b6001600160a01b0386811682528516602082015260a0604082018190526000906125959083018661203c565b82810360608401526125a7818661203c565b905082810360808401526119388185611d1c565b6000602082840312156125cd57600080fd5b8151611cd881611ca5565b600060033d11156125f15760046000803e5060005160e01c5b90565b600060443d10156126025790565b6040516003193d81016004833e81513d67ffffffffffffffff816024840111818411171561263257505050505090565b828501915081518181111561264a5750505050505090565b843d87010160208285010111156126645750505050505090565b61267360208286010187611d71565b509095945050505050565b60208082526028908201527f455243313135353a204552433131353552656365697665722072656a656374656040820152676420746f6b656e7360c01b606082015260800190565b601f82111561270c57600081815260208120601f850160051c810160208610156126ed5750805b601f850160051c820191505b818110156108b9578281556001016126f9565b505050565b815167ffffffffffffffff81111561272b5761272b611d5b565b61273f8161273984546122ef565b846126c6565b602080601f831160018114612774576000841561275c5750858301515b600019600386901b1c1916600185901b1785556108b9565b600085815260208120601f198616915b828110156127a357888601518255948401946001909101908401612784565b50858210156127c15787850151600019600388901b60f8161c191681555b5050505050600190811b01905550565b818103818111156103a7576103a761238d565b600060ff821660ff81036127fa576127fa61238d565b60010192915050565b6000602080838503121561281657600080fd5b825167ffffffffffffffff8082111561282e57600080fd5b818501915085601f83011261284257600080fd5b815161284d81611d9e565b6040805161285b8382611d71565b83815260059390931b850186019286810192508984111561287b57600080fd5b8686015b848110156128f8578051868111156128975760008081fd5b8701603f81018c136128a95760008081fd5b888101516128b681611e33565b85516128c28282611d71565b8281528e878486010111156128d957600091508182fd5b6128e8838d8301898701611cf8565b875250505092870192870161287f565b509998505050505050505050565b60006020828403121561291857600080fd5b5051919050565b60006020828403121561293157600080fd5b8151611cd881611c64565b60408152600061294f6040830185611d1c565b90508260208301529392505050565b80820281158282048414176103a7576103a761238d565b60008261299257634e487b7160e01b600052601260045260246000fd5b500490565b6001600160a01b03868116825285166020820152604081018490526060810183905260a0608082018190526000906129d190830184611d1c565b979650505050505050565b60208082526021908201527f455243313135353a206d696e7420746f20746865207a65726f206164647265736040820152607360f81b60608201526080019056fea26469706673582212209924163b3bb0847d805d0e24c5d4fb84902e4d60d4e87b024d8d1e61bb85ed9364736f6c63430008110033",
  "linkReferences": {},
  "deployedLinkReferences": {}
}