{
  "_format": "hh-sol-artifact-1",
  "contractName": "ProductShards",
  "sourceName": "contracts/ProductShards.sol",
  "abi": [
    {
      "inputs": [
        {
          "internalType": "string",
          "name": "uri_",
          "type": "string"
        },
        {
          "internalType": "address",
          "name": "productNFT_",
          "type": "address"
        }
      ],
      "stateMutability": "nonpayable",
      "type": "constructor"
    },
    {
      "anonymous": false,
      "inputs": [
        {
          "indexed": true,
          "internalType": "address",
          "name": "account",
          "type": "address"
        },
        {
          "indexed": true,
          "internalType": "address",
          "name": "operator",
          "type": "address"
        },
        {
          "indexed": false,
          "internalType": "bool",
          "name": "approved",
          "type": "bool"
        }
      ],
      "name": "ApprovalForAll",
      "type": "event"
    },
    {
      "anonymous": false,
      "inputs": [
        {
          "indexed": false,
          "internalType": "uint256",
          "name": "productUID",
          "type": "uint256"
        },
        {
          "indexed": false,
          "internalType": "address[]",
          "name": "dataOwners",
          "type": "address[]"
        },
        {
          "indexed": false,
          "internalType": "uint256[]",
          "name": "shardAmount",
          "type": "uint256[]"
        }
      ],
      "name": "FutureShardDistributed",
      "type": "event"
    },
    {
      "anonymous": false,
      "inputs": [
        {
          "indexed": false,
          "internalType": "uint256",
          "name": "productUID",
          "type": "uint256"
        },
        {
          "indexed": false,
          "internalType": "address[]",
          "name": "dataOwners",
          "type": "address[]"
        },
        {
          "indexed": false,
          "internalType": "uint256[]",
          "name": "shardAmount",
          "type": "uint256[]"
        }
      ],
      "name": "InitialShardDistributed",
      "type": "event"
    },
    {
      "anonymous": false,
      "inputs": [
        {
          "indexed": true,
          "internalType": "address",
          "name": "previousOwner",
          "type": "address"
        },
        {
          "indexed": true,
          "internalType": "address",
          "name": "newOwner",
          "type": "address"
        }
      ],
      "name": "OwnershipTransferred",
      "type": "event"
    },
    {
      "anonymous": false,
      "inputs": [
        {
          "indexed": false,
          "internalType": "address",
          "name": "account",
          "type": "address"
        }
      ],
      "name": "Paused",
      "type": "event"
    },
    {
      "anonymous": false,
      "inputs": [
        {
          "indexed": false,
          "internalType": "uint256",
          "name": "productUID",
          "type": "uint256"
        },
        {
          "indexed": false,
          "internalType": "address",
          "name": "rejuve",
          "type": "address"
        },
        {
          "indexed": false,
          "internalType": "uint256",
          "name": "shardAmount",
          "type": "uint256"
        }
      ],
      "name": "RemainingShardAssigned",
      "type": "event"
    },
    {
      "anonymous": false,
      "inputs": [
        {
          "indexed": true,
          "internalType": "address",
          "name": "operator",
          "type": "address"
        },
        {
          "indexed": true,
          "internalType": "address",
          "name": "from",
          "type": "address"
        },
        {
          "indexed": true,
          "internalType": "address",
          "name": "to",
          "type": "address"
        },
        {
          "indexed": false,
          "internalType": "uint256[]",
          "name": "ids",
          "type": "uint256[]"
        },
        {
          "indexed": false,
          "internalType": "uint256[]",
          "name": "values",
          "type": "uint256[]"
        }
      ],
      "name": "TransferBatch",
      "type": "event"
    },
    {
      "anonymous": false,
      "inputs": [
        {
          "indexed": true,
          "internalType": "address",
          "name": "operator",
          "type": "address"
        },
        {
          "indexed": true,
          "internalType": "address",
          "name": "from",
          "type": "address"
        },
        {
          "indexed": true,
          "internalType": "address",
          "name": "to",
          "type": "address"
        },
        {
          "indexed": false,
          "internalType": "uint256",
          "name": "id",
          "type": "uint256"
        },
        {
          "indexed": false,
          "internalType": "uint256",
          "name": "value",
          "type": "uint256"
        }
      ],
      "name": "TransferSingle",
      "type": "event"
    },
    {
      "anonymous": false,
      "inputs": [
        {
          "indexed": false,
          "internalType": "string",
          "name": "value",
          "type": "string"
        },
        {
          "indexed": true,
          "internalType": "uint256",
          "name": "id",
          "type": "uint256"
        }
      ],
      "name": "URI",
      "type": "event"
    },
    {
      "anonymous": false,
      "inputs": [
        {
          "indexed": false,
          "internalType": "address",
          "name": "account",
          "type": "address"
        }
      ],
      "name": "Unpaused",
      "type": "event"
    },
    {
      "inputs": [
        {
          "internalType": "address",
          "name": "account",
          "type": "address"
        },
        {
          "internalType": "uint256",
          "name": "id",
          "type": "uint256"
        }
      ],
      "name": "balanceOf",
      "outputs": [
        {
          "internalType": "uint256",
          "name": "",
          "type": "uint256"
        }
      ],
      "stateMutability": "view",
      "type": "function"
    },
    {
      "inputs": [
        {
          "internalType": "address[]",
          "name": "accounts",
          "type": "address[]"
        },
        {
          "internalType": "uint256[]",
          "name": "ids",
          "type": "uint256[]"
        }
      ],
      "name": "balanceOfBatch",
      "outputs": [
        {
          "internalType": "uint256[]",
          "name": "",
          "type": "uint256[]"
        }
      ],
      "stateMutability": "view",
      "type": "function"
    },
    {
      "inputs": [
        {
          "internalType": "uint256",
          "name": "_productUID",
          "type": "uint256"
        },
        {
          "internalType": "uint8",
          "name": "_futurePercent",
          "type": "uint8"
        },
        {
          "internalType": "uint256[]",
          "name": "_credits",
          "type": "uint256[]"
        },
        {
          "internalType": "address[]",
          "name": "_futureContributors",
          "type": "address[]"
        }
      ],
      "name": "distributeFutureShards",
      "outputs": [],
      "stateMutability": "nonpayable",
      "type": "function"
    },
    {
      "inputs": [
        {
          "internalType": "uint256",
          "name": "_productUID",
          "type": "uint256"
        },
        {
          "internalType": "uint256",
          "name": "_targetSupply",
          "type": "uint256"
        },
        {
          "internalType": "uint256",
          "name": "_labCredit",
          "type": "uint256"
        },
        {
          "internalType": "uint256",
          "name": "_lockPeriod",
          "type": "uint256"
        },
        {
          "internalType": "uint8",
          "name": "_initialPercent",
          "type": "uint8"
        },
        {
          "internalType": "uint8",
          "name": "_rejuvePercent",
          "type": "uint8"
        },
        {
          "internalType": "address",
          "name": "_lab",
          "type": "address"
        },
        {
          "internalType": "address",
          "name": "_rejuve",
          "type": "address"
        }
      ],
      "name": "distributeInitialShards",
      "outputs": [],
      "stateMutability": "nonpayable",
      "type": "function"
    },
    {
      "inputs": [
        {
          "internalType": "uint256",
          "name": "_productUID",
          "type": "uint256"
        }
      ],
      "name": "futurePercent",
      "outputs": [
        {
          "internalType": "uint8",
          "name": "",
          "type": "uint8"
        }
      ],
      "stateMutability": "view",
      "type": "function"
    },
    {
      "inputs": [
        {
          "internalType": "uint256",
          "name": "_productUID",
          "type": "uint256"
        }
      ],
      "name": "initialPercent",
      "outputs": [
        {
          "internalType": "uint8",
          "name": "",
          "type": "uint8"
        }
      ],
      "stateMutability": "view",
      "type": "function"
    },
    {
      "inputs": [
        {
          "internalType": "address",
          "name": "account",
          "type": "address"
        },
        {
          "internalType": "address",
          "name": "operator",
          "type": "address"
        }
      ],
      "name": "isApprovedForAll",
      "outputs": [
        {
          "internalType": "bool",
          "name": "",
          "type": "bool"
        }
      ],
      "stateMutability": "view",
      "type": "function"
    },
    {
      "inputs": [
        {
          "internalType": "uint256",
          "name": "_productUID",
          "type": "uint256"
        }
      ],
      "name": "lockPeriod",
      "outputs": [
        {
          "internalType": "uint256",
          "name": "",
          "type": "uint256"
        }
      ],
      "stateMutability": "view",
      "type": "function"
    },
    {
      "inputs": [
        {
          "internalType": "uint256",
          "name": "_productUID",
          "type": "uint256"
        },
        {
          "internalType": "address",
          "name": "_holder",
          "type": "address"
        }
      ],
      "name": "mintRemainingShards",
      "outputs": [],
      "stateMutability": "nonpayable",
      "type": "function"
    },
    {
      "inputs": [],
      "name": "owner",
      "outputs": [
        {
          "internalType": "address",
          "name": "",
          "type": "address"
        }
      ],
      "stateMutability": "view",
      "type": "function"
    },
    {
      "inputs": [],
      "name": "pause",
      "outputs": [],
      "stateMutability": "nonpayable",
      "type": "function"
    },
    {
      "inputs": [],
      "name": "paused",
      "outputs": [
        {
          "internalType": "bool",
          "name": "",
          "type": "bool"
        }
      ],
      "stateMutability": "view",
      "type": "function"
    },
    {
      "inputs": [
        {
          "internalType": "uint256",
          "name": "_productUID",
          "type": "uint256"
        }
      ],
      "name": "rejuvePercent",
      "outputs": [
        {
          "internalType": "uint8",
          "name": "",
          "type": "uint8"
        }
      ],
      "stateMutability": "view",
      "type": "function"
    },
    {
      "inputs": [],
      "name": "renounceOwnership",
      "outputs": [],
      "stateMutability": "nonpayable",
      "type": "function"
    },
    {
      "inputs": [
        {
          "internalType": "address",
          "name": "from",
          "type": "address"
        },
        {
          "internalType": "address",
          "name": "to",
          "type": "address"
        },
        {
          "internalType": "uint256[]",
          "name": "ids",
          "type": "uint256[]"
        },
        {
          "internalType": "uint256[]",
          "name": "amounts",
          "type": "uint256[]"
        },
        {
          "internalType": "bytes",
          "name": "data",
          "type": "bytes"
        }
      ],
      "name": "safeBatchTransferFrom",
      "outputs": [],
      "stateMutability": "nonpayable",
      "type": "function"
    },
    {
      "inputs": [
        {
          "internalType": "address",
          "name": "from",
          "type": "address"
        },
        {
          "internalType": "address",
          "name": "to",
          "type": "address"
        },
        {
          "internalType": "uint256",
          "name": "id",
          "type": "uint256"
        },
        {
          "internalType": "uint256",
          "name": "amount",
          "type": "uint256"
        },
        {
          "internalType": "bytes",
          "name": "data",
          "type": "bytes"
        }
      ],
      "name": "safeTransferFrom",
      "outputs": [],
      "stateMutability": "nonpayable",
      "type": "function"
    },
    {
      "inputs": [
        {
          "internalType": "address",
          "name": "operator",
          "type": "address"
        },
        {
          "internalType": "bool",
          "name": "approved",
          "type": "bool"
        }
      ],
      "name": "setApprovalForAll",
      "outputs": [],
      "stateMutability": "nonpayable",
      "type": "function"
    },
    {
      "inputs": [
        {
          "internalType": "bytes4",
          "name": "interfaceId",
          "type": "bytes4"
        }
      ],
      "name": "supportsInterface",
      "outputs": [
        {
          "internalType": "bool",
          "name": "",
          "type": "bool"
        }
      ],
      "stateMutability": "view",
      "type": "function"
    },
    {
      "inputs": [
        {
          "internalType": "uint256",
          "name": "_productUID",
          "type": "uint256"
        }
      ],
      "name": "targetSupply",
      "outputs": [
        {
          "internalType": "uint256",
          "name": "",
          "type": "uint256"
        }
      ],
      "stateMutability": "view",
      "type": "function"
    },
    {
      "inputs": [
        {
          "internalType": "uint256",
          "name": "_productUID",
          "type": "uint256"
        }
      ],
      "name": "totalShardSupply",
      "outputs": [
        {
          "internalType": "uint256",
          "name": "",
          "type": "uint256"
        }
      ],
      "stateMutability": "view",
      "type": "function"
    },
    {
      "inputs": [
        {
          "internalType": "address",
          "name": "newOwner",
          "type": "address"
        }
      ],
      "name": "transferOwnership",
      "outputs": [],
      "stateMutability": "nonpayable",
      "type": "function"
    },
    {
      "inputs": [],
      "name": "unpause",
      "outputs": [],
      "stateMutability": "nonpayable",
      "type": "function"
    },
    {
      "inputs": [
        {
          "internalType": "uint256",
          "name": "",
          "type": "uint256"
        }
      ],
      "name": "uri",
      "outputs": [
        {
          "internalType": "string",
          "name": "",
          "type": "string"
        }
      ],
      "stateMutability": "view",
      "type": "function"
    }
  ],
  "bytecode": "0x60806040523480156200001157600080fd5b506040516200956a3803806200956a833981810160405281019062000037919062000445565b81620000586200004c6200016960201b60201c565b6200017160201b60201c565b60008060146101000a81548160ff02191690831515021790555062000083816200023560201b60201c565b50620000b87fbff1c91a53687dcf06aebc068429a78eb298e478b2d2f7c210a64c62b90b7dda60001b6200024a60201b60201c565b620000ec7f6c36cebbe02c8514735bcdbe6e9e224ad17fb0b5b7d930a1a5fca9917a79c8ed60001b6200024a60201b60201c565b620001207f199fa82a0077d3ffcdca2dcbd00b1ed9793efa231038157b86e0c0bd093fcfb960001b6200024a60201b60201c565b80600460006101000a81548173ffffffffffffffffffffffffffffffffffffffff021916908373ffffffffffffffffffffffffffffffffffffffff1602179055505050620007dd565b600033905090565b60008060009054906101000a900473ffffffffffffffffffffffffffffffffffffffff169050816000806101000a81548173ffffffffffffffffffffffffffffffffffffffff021916908373ffffffffffffffffffffffffffffffffffffffff1602179055508173ffffffffffffffffffffffffffffffffffffffff168173ffffffffffffffffffffffffffffffffffffffff167f8be0079c531659141344cd1fd0a4f28419497f9722a3daafe3b4186f6b6457e060405160405180910390a35050565b8060039081620002469190620006f6565b5050565b50565b6000604051905090565b600080fd5b600080fd5b600080fd5b600080fd5b6000601f19601f8301169050919050565b7f4e487b7100000000000000000000000000000000000000000000000000000000600052604160045260246000fd5b620002b6826200026b565b810181811067ffffffffffffffff82111715620002d857620002d76200027c565b5b80604052505050565b6000620002ed6200024d565b9050620002fb8282620002ab565b919050565b600067ffffffffffffffff8211156200031e576200031d6200027c565b5b62000329826200026b565b9050602081019050919050565b60005b838110156200035657808201518184015260208101905062000339565b60008484015250505050565b600062000379620003738462000300565b620002e1565b90508281526020810184848401111562000398576200039762000266565b5b620003a584828562000336565b509392505050565b600082601f830112620003c557620003c462000261565b5b8151620003d784826020860162000362565b91505092915050565b600073ffffffffffffffffffffffffffffffffffffffff82169050919050565b60006200040d82620003e0565b9050919050565b6200041f8162000400565b81146200042b57600080fd5b50565b6000815190506200043f8162000414565b92915050565b600080604083850312156200045f576200045e62000257565b5b600083015167ffffffffffffffff81111562000480576200047f6200025c565b5b6200048e85828601620003ad565b9250506020620004a1858286016200042e565b9150509250929050565b600081519050919050565b7f4e487b7100000000000000000000000000000000000000000000000000000000600052602260045260246000fd5b60006002820490506001821680620004fe57607f821691505b602082108103620005145762000513620004b6565b5b50919050565b60008190508160005260206000209050919050565b60006020601f8301049050919050565b600082821b905092915050565b6000600883026200057e7fffffffffffffffffffffffffffffffffffffffffffffffffffffffffffffffff826200053f565b6200058a86836200053f565b95508019841693508086168417925050509392505050565b6000819050919050565b6000819050919050565b6000620005d7620005d1620005cb84620005a2565b620005ac565b620005a2565b9050919050565b6000819050919050565b620005f383620005b6565b6200060b6200060282620005de565b8484546200054c565b825550505050565b600090565b6200062262000613565b6200062f818484620005e8565b505050565b5b8181101562000657576200064b60008262000618565b60018101905062000635565b5050565b601f821115620006a65762000670816200051a565b6200067b846200052f565b810160208510156200068b578190505b620006a36200069a856200052f565b83018262000634565b50505b505050565b600082821c905092915050565b6000620006cb60001984600802620006ab565b1980831691505092915050565b6000620006e68383620006b8565b9150826002028217905092915050565b6200070182620004ab565b67ffffffffffffffff8111156200071d576200071c6200027c565b5b620007298254620004e5565b620007368282856200065b565b600060209050601f8311600181146200076e576000841562000759578287015190505b620007658582620006d8565b865550620007d5565b601f1984166200077e866200051a565b60005b82811015620007a85784890151825560018201915060208501945060208101905062000781565b86831015620007c85784890151620007c4601f891682620006b8565b8355505b6001600288020188555050505b505050505050565b618d7d80620007ed6000396000f3fe608060405234801561001057600080fd5b506004361061014c5760003560e01c80635c975abb116100c3578063a22cb4651161007c578063a22cb4651461039b578063d6e0dbda146103b7578063e985e9c5146103e7578063ef27c77314610417578063f242432a14610447578063f2fde38b146104635761014c565b80635c975abb146102ff578063715018a61461031d5780638456cb59146103275780638da5cb5b14610331578063936906f11461034f578063a07b4d901461037f5761014c565b806334e1f1ca1161011557806334e1f1ca146102195780633df835fb146102495780633f4ba83a146102795780634567db03146102835780634e1273f41461029f5780634e90e0f5146102cf5761014c565b8062fdd58e1461015157806301ffc9a7146101815780630e89341c146101b157806325d845db146101e15780632eb2c2d6146101fd575b600080fd5b61016b60048036038101906101669190616949565b61047f565b6040516101789190616998565b60405180910390f35b61019b60048036038101906101969190616a0b565b610548565b6040516101a89190616a53565b60405180910390f35b6101cb60048036038101906101c69190616a6e565b61062a565b6040516101d89190616b2b565b60405180910390f35b6101fb60048036038101906101f69190616b4d565b6106be565b005b61021760048036038101906102129190616d8a565b610814565b005b610233600480360381019061022e9190616a6e565b6108b5565b6040516102409190616e75565b60405180910390f35b610263600480360381019061025e9190616a6e565b610966565b6040516102709190616e75565b60405180910390f35b610281610a17565b005b61029d60048036038101906102989190616f7f565b610b21565b005b6102b960048036038101906102b4919061701e565b610c7b565b6040516102c69190617154565b60405180910390f35b6102e960048036038101906102e49190616a6e565b610d94565b6040516102f69190616e75565b60405180910390f35b610307610e45565b6040516103149190616a53565b60405180910390f35b610325610e5b565b005b61032f610ee3565b005b610339610fed565b6040516103469190617185565b60405180910390f35b61036960048036038101906103649190616a6e565b611016565b6040516103769190616998565b60405180910390f35b610399600480360381019061039491906171a0565b6110ba565b005b6103b560048036038101906103b09190617282565b61121c565b005b6103d160048036038101906103cc9190616a6e565b611232565b6040516103de9190616998565b60405180910390f35b61040160048036038101906103fc91906172c2565b6112d6565b60405161040e9190616a53565b60405180910390f35b610431600480360381019061042c9190616a6e565b61136a565b60405161043e9190616998565b60405180910390f35b610461600480360381019061045c9190617302565b61140e565b005b61047d60048036038101906104789190617399565b611743565b005b60008073ffffffffffffffffffffffffffffffffffffffff168373ffffffffffffffffffffffffffffffffffffffff16036104ef576040517f08c379a00000000000000000000000000000000000000000000000000000000081526004016104e690617438565b60405180910390fd5b6001600083815260200190815260200160002060008473ffffffffffffffffffffffffffffffffffffffff1673ffffffffffffffffffffffffffffffffffffffff16815260200190815260200160002054905092915050565b60007fd9b67a26000000000000000000000000000000000000000000000000000000007bffffffffffffffffffffffffffffffffffffffffffffffffffffffff1916827bffffffffffffffffffffffffffffffffffffffffffffffffffffffff1916148061061357507f0e89341c000000000000000000000000000000000000000000000000000000007bffffffffffffffffffffffffffffffffffffffffffffffffffffffff1916827bffffffffffffffffffffffffffffffffffffffffffffffffffffffff1916145b8061062357506106228261183a565b5b9050919050565b60606003805461063990617487565b80601f016020809104026020016040519081016040528092919081815260200182805461066590617487565b80156106b25780601f10610687576101008083540402835291602001916106b2565b820191906000526020600020905b81548152906001019060200180831161069557829003601f168201915b50505050509050919050565b6106c66118a4565b73ffffffffffffffffffffffffffffffffffffffff166106e4610fed565b73ffffffffffffffffffffffffffffffffffffffff161461073a576040517f08c379a000000000000000000000000000000000000000000000000000000000815260040161073190617504565b60405180910390fd5b610742610e45565b15610782576040517f08c379a000000000000000000000000000000000000000000000000000000000815260040161077990617570565b60405180910390fd5b6107ae7fe4abbc8d62b3e2fc2628e21f0fd280f76c7decc8de7320ffcf7bcc89bee5f2c760001b6118ac565b6107da7f724c49ee079368a4883c78c20c035e4bcea9f88d0d7061ace157ba1951f0edfb60001b6118ac565b6108067f452dfdf7358daed83af683ac519992bc357f169588b9d34f116c373e35c7550060001b6118ac565b61081082826118af565b5050565b61081c6118a4565b73ffffffffffffffffffffffffffffffffffffffff168573ffffffffffffffffffffffffffffffffffffffff16148061086257506108618561085c6118a4565b6112d6565b5b6108a1576040517f08c379a000000000000000000000000000000000000000000000000000000000815260040161089890617602565b60405180910390fd5b6108ae8585858585611e58565b5050505050565b60006108e37f6a064d2b9bd310689d8d1d0d1d6db5be425f1256325e5da0b2bb63d79e139cf160001b6118ac565b61090f7fd2ea5dbf5aad16d1ee2ef407eee280ba5ed5ea38bdfa350082c627532646288d60001b6118ac565b61093b7fcc3c16dd5e2c840e79edb026c51f28798e1ca97fd863579c67ec6f17d84a6ba160001b6118ac565b600a600083815260200190815260200160002060040160029054906101000a900460ff169050919050565b60006109947f67e850db3ddf9a5a5f60802a6d85f6c83bb90cac0b11b5f32f2b2485e3d4894660001b6118ac565b6109c07f8e0795589ed4e4990fe50f63ed202f970da1b67493903b37c529089ac840d05160001b6118ac565b6109ec7f171e1042ebeab8a8cb3d9e7c5973d49966e357fee22b26fba6e13a64237d4d9060001b6118ac565b600a600083815260200190815260200160002060040160019054906101000a900460ff169050919050565b610a1f6118a4565b73ffffffffffffffffffffffffffffffffffffffff16610a3d610fed565b73ffffffffffffffffffffffffffffffffffffffff1614610a93576040517f08c379a0000000000000000000000000000000000000000000000000000000008152600401610a8a90617504565b60405180910390fd5b610abf7f9df523f8f438368777e40b999534696efdc76441cbe020ec8f9ca92a9bbd257260001b6118ac565b610aeb7f529d514f7a6f25dfa57e69da622d37d6be052121e27eda80a0b2dbe880758de160001b6118ac565b610b177f786be1a8591e35ea2294cfc0ab1ca3dac59246eba6194471ffafe6924e52ba4560001b6118ac565b610b1f61216e565b565b610b296118a4565b73ffffffffffffffffffffffffffffffffffffffff16610b47610fed565b73ffffffffffffffffffffffffffffffffffffffff1614610b9d576040517f08c379a0000000000000000000000000000000000000000000000000000000008152600401610b9490617504565b60405180910390fd5b610ba5610e45565b15610be5576040517f08c379a0000000000000000000000000000000000000000000000000000000008152600401610bdc90617570565b60405180910390fd5b610c117fa87cdd4ecdecc66d3e6b5324516fc1f096684be1c7ccb5a15a9f3719f369a8d860001b6118ac565b610c3d7fe01b8c4c3be93692e1a4909171f7c4a4ba4cb904bae350c08ff628322c95572d60001b6118ac565b610c697f2b633343fd0372ae5ee1e049ea7aa6bc4eeb8efa18e6fab6ad394eeca5fca38160001b6118ac565b610c758484848461220f565b50505050565b60608151835114610cc1576040517f08c379a0000000000000000000000000000000000000000000000000000000008152600401610cb890617694565b60405180910390fd5b6000835167ffffffffffffffff811115610cde57610cdd616b92565b5b604051908082528060200260200182016040528015610d0c5781602001602082028036833780820191505090505b50905060005b8451811015610d8957610d59858281518110610d3157610d306176b4565b5b6020026020010151858381518110610d4c57610d4b6176b4565b5b602002602001015161047f565b828281518110610d6c57610d6b6176b4565b5b60200260200101818152505080610d8290617712565b9050610d12565b508091505092915050565b6000610dc27fc56ea76e867ae8da8e70e37b52b6f93bdcd5f919bb2be5587c9541128889f17560001b6118ac565b610dee7f7f668e05c906ab137d06d0380c55137b22f281f80437648d58ee54d4754d993e60001b6118ac565b610e1a7f41a58ccc9af9766b301751b033e47d410b613ffe1cfd1fd6579164e7b2c2719060001b6118ac565b600a600083815260200190815260200160002060040160009054906101000a900460ff169050919050565b60008060149054906101000a900460ff16905090565b610e636118a4565b73ffffffffffffffffffffffffffffffffffffffff16610e81610fed565b73ffffffffffffffffffffffffffffffffffffffff1614610ed7576040517f08c379a0000000000000000000000000000000000000000000000000000000008152600401610ece90617504565b60405180910390fd5b610ee160006129ea565b565b610eeb6118a4565b73ffffffffffffffffffffffffffffffffffffffff16610f09610fed565b73ffffffffffffffffffffffffffffffffffffffff1614610f5f576040517f08c379a0000000000000000000000000000000000000000000000000000000008152600401610f5690617504565b60405180910390fd5b610f8b7f8f02db683748957931025416a8afc8ae16925cf181e823258fda4f9378dba60d60001b6118ac565b610fb77ffc16084791083af607cb5d146bce0106461638eab5536902eb7cbb7ca3cd3fad60001b6118ac565b610fe37fcfb413bcb5de8c8188fc7be43d1033e58e4f84a4372baed63c0f59b02119468660001b6118ac565b610feb612aae565b565b60008060009054906101000a900473ffffffffffffffffffffffffffffffffffffffff16905090565b60006110447f46141f9cd177b46868a58ea94df2f498c646b2050fa547fcf9151adbcf4593d860001b6118ac565b6110707fcbf222fc3fbed846c6652a257c6b86135f3486a8f4172bd6ae602a82ae58aa0960001b6118ac565b61109c7f55c6ae9a758186976c22653fdaf1872536248f37c3e6ca542527df2393767d7460001b6118ac565b600a6000838152602001908152602001600020600101549050919050565b6110c26118a4565b73ffffffffffffffffffffffffffffffffffffffff166110e0610fed565b73ffffffffffffffffffffffffffffffffffffffff1614611136576040517f08c379a000000000000000000000000000000000000000000000000000000000815260040161112d90617504565b60405180910390fd5b61113e610e45565b1561117e576040517f08c379a000000000000000000000000000000000000000000000000000000000815260040161117590617570565b60405180910390fd5b6111aa7f057311ae69ca5649df8711a0971525ffc1624e0df69c46db8973509845b204e860001b6118ac565b6111d67fa0f33cdc948f4ae54913d3309bcaae8faa5d5ade3299ce4dc640038456b86f2960001b6118ac565b6112027f30dbcfd7e4cdd0a3aba62d3a19aed905d246e6b7aa025dd2be2768ed43e1fb6a60001b6118ac565b6112128888888888888888612b51565b5050505050505050565b61122e6112276118a4565b8383612e99565b5050565b60006112607fac68171a4ef5847ee8bfaa2202dc2b1bef07ed4513dda520d3c509e24f06e74560001b6118ac565b61128c7f8bb605d2c94272547773262d7a7d4e5f4b437bd3196b501096ea3f7ed34d5d7660001b6118ac565b6112b87ff9cfbbc206f738b0400897ce2ebe75f6083f04ac5ccff96684675fbf365569ac60001b6118ac565b600a6000838152602001908152602001600020600201549050919050565b6000600260008473ffffffffffffffffffffffffffffffffffffffff1673ffffffffffffffffffffffffffffffffffffffff16815260200190815260200160002060008373ffffffffffffffffffffffffffffffffffffffff1673ffffffffffffffffffffffffffffffffffffffff16815260200190815260200160002060009054906101000a900460ff16905092915050565b60006113987f0fafbe61660917665b529da9433f2791e389133c18ba09379cc9fe32e905e4f360001b6118ac565b6113c47fedb3fbb34c635caa2e3f18c4c0e0ad33f13772292e0598c43f18cb3d8b0d22df60001b6118ac565b6113f07fbdc64eb5137200608f028f2db004b4f00b42f5287981d19aabb1780e1e5ee8c060001b6118ac565b600a6000838152602001908152602001600020600301549050919050565b61143a7f0e3de759074a935ed34435c5271e806ef29c942777a222ee1a97e57afa00d76760001b6118ac565b6114667ffc5a0bf8a9e7f3d8c7c289f56380ea1087565155812d3c118d013fbbeb600b7260001b6118ac565b6114927fa484aa484b15827892d1e0af9779d58880c3dd4391ba270a37a1842f66d7f65560001b6118ac565b6040518060400160405280600681526020017f4c4f434b4544000000000000000000000000000000000000000000000000000081525080519060200120600e60008581526020019081526020016000206040516114ef91906177fd565b6040518091039020036116aa576115287f3248e450ba53684070adabdb0a69848aa95b6a1d4a75dc21199d7ed78c4ad51d60001b6118ac565b6115547f43c61ff77be2c54a4d78474bc790475a9afb567426d5d6ab474b42b98fe3553760001b6118ac565b6115807fbe7a4c32fa37f94a37052185771d882fbbb009fbe2e1184cef7983e26b32836760001b6118ac565b6115ac7f9d6e82f1478f70467ed58b15fff3ff80b2219ab7384de4f26de2740ed6c26baa60001b6118ac565b600c6000600d6000868152602001908152602001600020548152602001908152602001600020544211611614576040517f08c379a000000000000000000000000000000000000000000000000000000000815260040161160b90617886565b60405180910390fd5b6116407f547e7ff4be17748ffb9d8473557f168b67cb4556b20a1fcd95e071b32578604660001b6118ac565b61166c7f859246e0de807bd1e4f62c0eb32b2635796b3e45ecd3abedf42d8dafc956b54260001b6118ac565b6116987fe4abef476e19a1900eda85de6727a1cf3e87c579bdd521d4f7ddb7b22f2cd54460001b6118ac565b6116a58585858585613005565b61173c565b6116d67fdc8eadbe78caba6d027080e0b15e32737e53131f9a43f437958a114246c2102e60001b6118ac565b6117027f74684bd3b144fb74d3ba60017b70f65ca8163d2a6623682c7f234603d864286060001b6118ac565b61172e7f133b618e5317133020183e4fd09a254e2fed53db941d4fffd0bfb9c5748c2b6760001b6118ac565b61173b8585858585613005565b5b5050505050565b61174b6118a4565b73ffffffffffffffffffffffffffffffffffffffff16611769610fed565b73ffffffffffffffffffffffffffffffffffffffff16146117bf576040517f08c379a00000000000000000000000000000000000000000000000000000000081526004016117b690617504565b60405180910390fd5b600073ffffffffffffffffffffffffffffffffffffffff168173ffffffffffffffffffffffffffffffffffffffff160361182e576040517f08c379a000000000000000000000000000000000000000000000000000000000815260040161182590617918565b60405180910390fd5b611837816129ea565b50565b60007f01ffc9a7000000000000000000000000000000000000000000000000000000007bffffffffffffffffffffffffffffffffffffffffffffffffffffffff1916827bffffffffffffffffffffffffffffffffffffffffffffffffffffffff1916149050919050565b600033905090565b50565b6118db7fc76acd65626377f3c69f8c8872a74398847e60d193759cc0b576effcbbdefb0460001b6118ac565b6119077f86e8ec8b4b8df7ec15a7759d9057c0f255ba4be17e76522e72e742e806a1632960001b6118ac565b6119337f1cde3608884cfe46bece9a6d3cbde23c99825b51b155c987b8cd73b47f22075460001b6118ac565b61195f7f6e9c6377f00f5bbb17fc93e5d05d5d40b610cd9121b1c2eb47c9dbb60ef5aa6d60001b6118ac565b600960009054906101000a900460ff1680156119875750600960019054906101000a900460ff165b6119c6576040517f08c379a00000000000000000000000000000000000000000000000000000000081526004016119bd906179aa565b60405180910390fd5b6119f27f078833307a71b2bb95210a2a601d20512deac97da057a8fe59a1083dc922dd3360001b6118ac565b611a1e7f07c62ebaa2fe2918b24c59bb409c4bb00f0ea2770a6d6993a3ee4182967e7c0f60001b6118ac565b611a4a7fbd8e4998bf94c87b2e185159ddb74caf35e8d8e76742d1a5318bc13ae3bb554c60001b6118ac565b6000600a60008481526020019081526020016000209050611a8d7ff9450a09747c6bc8a4d63c9590f293b509efdfac15de542ae0fe77824d6ab80760001b6118ac565b611ab97fc3bf5bce8ed8392e0edd32668b4dc32bc7fea741291005f4ca1d64ea7ea49f4a60001b6118ac565b600081600201548260010154611acf91906179ca565b9050611afd7f02a5cc15e2159373b919880dcb23bc7d6ec43d3abd60408135544fbbdca94ec860001b6118ac565b611b297f6b23f72428f05a5a8893afed121025bd3d640098b4256f1cf554609ff213ce5860001b6118ac565b60008114611e2557611b5d7fa59371748f2bd5fe0f739025be33c12b2169a1bf7d2bb68463b0e2d6201b1fc960001b6118ac565b611b897fbc6890b52ec8a6b037fa66eb5ec8f0828cf86c1234d1e8044f09c581ff04b95a60001b6118ac565b611bb57f73de934dc15708a5ed300ecffb529934163d4d59fde93202c865fefd7e4b710460001b6118ac565b808260020154611bc591906179fe565b8260020181905550611bf97f2847b80c7e3ea41272686835455c7978af0e43e6df8fc7b0c8e97ae104dd5d6860001b6118ac565b611c257fc5a21a14d2cdc6a8a47a42c8f56102ff7e3475db4520f0d7bf5f6844f8d9bb7260001b6118ac565b6000611c3082613222565b9050611c5e7f24dd14c856dc5b6e84ac9d8875c576382d8a82b1d26077129ffe0c2cdb1816cd60001b6118ac565b611c8a7fb232bb1808c68891497891dd5ec0c4b2e3852d377ad8b5d406202cf019b632d860001b6118ac565b60005b8151811015611d8b57611cc27ffdbbb9fc42fb32646dcb55b87adbb0c95c3bc4b45fade7eec13c686374e2391760001b6118ac565b611cee7fadcc73e70c461e266f3479f1f9cb2af80a574c0f03bb360ee313cb22a7a9a31360001b6118ac565b611d7885600b60008981526020019081526020016000208381548110611d1757611d166176b4565b5b9060005260206000200154848481518110611d3557611d346176b4565b5b60200260200101516040518060400160405280600481526020017f3078303000000000000000000000000000000000000000000000000000000000815250613515565b8080611d8390617712565b915050611c8d565b50611db87f37697edf57872b42dc2ad135aed46d650264d1fbea85bc461e1c229fa392bb3060001b6118ac565b611de47f1484be4f5545900a2d0e8b9885e7a2db70eb1a7126023c8227469066270b47d360001b6118ac565b7ffadbf7e144501599e9af4378b9f7ace20f5f3f72e8b225a8a713e092cf7bd231858584604051611e1793929190617a32565b60405180910390a150611e52565b611e517fc2e136710984dc79325b3908eaf3eb3a767a83d6f1cf4ab1feac9627b821553260001b6118ac565b5b50505050565b8151835114611e9c576040517f08c379a0000000000000000000000000000000000000000000000000000000008152600401611e9390617adb565b60405180910390fd5b600073ffffffffffffffffffffffffffffffffffffffff168473ffffffffffffffffffffffffffffffffffffffff1603611f0b576040517f08c379a0000000000000000000000000000000000000000000000000000000008152600401611f0290617b6d565b60405180910390fd5b6000611f156118a4565b9050611f258187878787876136ab565b60005b84518110156120d9576000858281518110611f4657611f456176b4565b5b602002602001015190506000858381518110611f6557611f646176b4565b5b6020026020010151905060006001600084815260200190815260200160002060008b73ffffffffffffffffffffffffffffffffffffffff1673ffffffffffffffffffffffffffffffffffffffff16815260200190815260200160002054905081811015612007576040517f08c379a0000000000000000000000000000000000000000000000000000000008152600401611ffe90617bff565b60405180910390fd5b8181036001600085815260200190815260200160002060008c73ffffffffffffffffffffffffffffffffffffffff1673ffffffffffffffffffffffffffffffffffffffff16815260200190815260200160002081905550816001600085815260200190815260200160002060008b73ffffffffffffffffffffffffffffffffffffffff1673ffffffffffffffffffffffffffffffffffffffff16815260200190815260200160002060008282546120be91906179fe565b92505081905550505050806120d290617712565b9050611f28565b508473ffffffffffffffffffffffffffffffffffffffff168673ffffffffffffffffffffffffffffffffffffffff168273ffffffffffffffffffffffffffffffffffffffff167f4a39dc06d4c0dbc64b70af90fd698a233a518aa5d07e595d983b8c0526c8f7fb8787604051612150929190617c1f565b60405180910390a46121668187878787876136b3565b505050505050565b612176610e45565b6121b5576040517f08c379a00000000000000000000000000000000000000000000000000000000081526004016121ac90617ca2565b60405180910390fd5b60008060146101000a81548160ff0219169083151502179055507f5db9ee0a495bf2e6ff9c91a7834c1ba4fdd244a5e8aa4e537bd38aeae4b073aa6121f86118a4565b6040516122059190617185565b60405180910390a1565b61223b7f846bc1235520cee3028c2722f700814db680fb61dffa90587a93cf628c18f56e60001b6118ac565b6122677fc0bd86553dc9dcf759cbb15c7ba393866c77c6da1aa1ceb181a1330f5dd20fa360001b6118ac565b6122937ff13bac2db8aadd9d269aef740295afefed1d0d2b2e005f30abcbb325daf9334460001b6118ac565b6122bf7fb04d8f64400656c414ac401fcc450e9b3bde28c607eba7821aebbccdfd4b8a0e60001b6118ac565b8151815114612303576040517f08c379a00000000000000000000000000000000000000000000000000000000081526004016122fa90617d0e565b60405180910390fd5b61232f7fd187e030dcab719bcfe88d8d660c0fc359190a9b64d64a4d984189538855fb8360001b6118ac565b61235b7fe899675b913e526b964e50cd417e0fb23a32e900206b3033c477c9dacc53c75e60001b6118ac565b6123877fdc78ce2d2d268da73d04e29c2fe315ef466f2a5c24c5e993dcb12c19a07d2a4e60001b6118ac565b6123b37fb96e33ed7c183fbaf657b049a3f21f7a5264e1c7c887e468324d3fd36d66910160001b6118ac565b60008360ff16036123f9576040517f08c379a00000000000000000000000000000000000000000000000000000000081526004016123f090617da0565b60405180910390fd5b6124257f70bc9304bfb857ee068748a84ae254a8d722b4d7061208ef1d80f214773d88ee60001b6118ac565b6124517fb973c3dc08e485baecf5b336c0d22d36e79876d98565db9ffe8544d640a48b0d60001b6118ac565b61247d7f962e4a2c0fb2b9c0844861b1509179e9ff40964b682ebb94656b93a2115e7a0c60001b6118ac565b6000600a600086815260200190815260200160002090506124c07fb3bb2928ea0a04150a43fe73815469ece42a902e66acb4486195d1b1620ff16160001b6118ac565b6124ec7f9896bbb6856bb8ed95813675cc1ac53fce428177acd57ca50b56462fe791eb7160001b6118ac565b838160040160026101000a81548160ff021916908360ff1602179055506125357fb12fa4d579689896b4043ed9c6c8f7ac4997b09509739b1157aaca2c9046e83e60001b6118ac565b6125617f50dad8eadf8b14b5d1ac60faf971f2c2ead5494fa129cbd7e845cc27ce59cdb460001b6118ac565b600061256c8461388a565b905061259a7fbfbc053d5f05103ec1c7e8efc054a07161d9b694721eacd8201d87471eae0a0d60001b6118ac565b6125c67f1abb5488a40b0f4e5ac5faefea05f0c113c1948ccabef1c4ca026bbd26bd78a460001b6118ac565b60005b83518110156128da576125fe7f27a6e5d3e438f69cb5842adc4dd2956b9b9e11fce07f8d11dad27ab45e736e0d60001b6118ac565b61262a7f1413fb46e77f556384a693e9a8c51f386e833ff54485b61db162b1b80b7a19c160001b6118ac565b6000612659868381518110612642576126416176b4565b5b6020026020010151848960ff168760010154613a6b565b90506126877fb0e8f4295db6a90e82e08d1463e45a76882d3430e454a03145ee38873814c71d60001b6118ac565b6126b37f045313701da356e6601fded86aaea7d81a9292d3b4035a4d73898df805abc0d160001b6118ac565b60006126be82613222565b90506126ec7f0517a1a70bb277607e10da040907891bdd7fcfd433014a45a829611590c8741d60001b6118ac565b6127187f345b0fdf86d69292e86dabb023438bcb1ba59e887121c3c32fd39f7e472758d660001b6118ac565b6127d486848151811061272e5761272d6176b4565b5b6020026020010151600b60008c815260200190815260200160002080548060200260200160405190810160405280929190818152602001828054801561279357602002820191906000526020600020905b81548152602001906001019080831161277f575b5050505050836040518060400160405280600481526020017f3078303000000000000000000000000000000000000000000000000000000000815250613c4d565b6128007f2934a6251d8e8526d7e190ce351f0eb02c2bfcec39faab97af5e564421e12c6260001b6118ac565b61282c7f5c04d6536ef8d16392324b6198638cd600961a35d49f45c2de0b8cd6a573693660001b6118ac565b81856002015461283c91906179fe565b85600201819055506128707f7d88d199e0e2b064eced3e2c94b211e30c1f023c075136c036bb4023c48b9b2660001b6118ac565b61289c7fc8dfcc39a53df7a6b8c24d1574a6355bed11ebc0232ad07b149ae0d8691374de60001b6118ac565b6008829080600181540180825580915050600190039060005260206000200160009091909190915055505080806128d290617712565b9150506125c9565b506129077f68107ca27c935b2913af9dad30a71f83cc4ff81af8be1045b56d000106cd2a1460001b6118ac565b6129337fdaabc1d6724462b2e73502cf65f8948237b3617130b61b4dfd6621887dffc1e060001b6118ac565b7f621e1a59d70685f53a28114e1229586ecd6908416f6bfaee0e147c3d34f398458684600860405161296793929190617f54565b60405180910390a161299b7f43c1416d1eb3456828e0c812f4bcd2ce46eb02a0280f0dfbd950dc254cdcbd6560001b6118ac565b6129c77f298474e82d9cf27a824a016958fc3b0084cc72461cac2b42183f6fa8fbdd59ba60001b6118ac565b6001600960016101000a81548160ff021916908315150217905550505050505050565b60008060009054906101000a900473ffffffffffffffffffffffffffffffffffffffff169050816000806101000a81548173ffffffffffffffffffffffffffffffffffffffff021916908373ffffffffffffffffffffffffffffffffffffffff1602179055508173ffffffffffffffffffffffffffffffffffffffff168173ffffffffffffffffffffffffffffffffffffffff167f8be0079c531659141344cd1fd0a4f28419497f9722a3daafe3b4186f6b6457e060405160405180910390a35050565b612ab6610e45565b15612af6576040517f08c379a0000000000000000000000000000000000000000000000000000000008152600401612aed90617570565b60405180910390fd5b6001600060146101000a81548160ff0219169083151502179055507f62e78cea01bee320cd4e420270b5ea74000d11b0c9f74754ebdbfc544b05a258612b3a6118a4565b604051612b479190617185565b60405180910390a1565b612b7d7f383f2996af6f94c3a8d02f75971ec9eaf883858e74b2acd2c737635d6cdcf58f60001b6118ac565b612ba97f04fcf9ac29be32a2070ec52a55f9f486047c99ff663f0d1926c3a8f8b410b54760001b6118ac565b612bd57f069282c7fed63f68b0a7c00ba743dc34eb78ab556287ad5a78434306681bc99560001b6118ac565b612bdf8886613e6b565b612c0b7f1abb541d33240f1fa5786cd6376bd82dfdf12a86d0fd481390798e42bb1effef60001b6118ac565b612c377f22d3f89d22f549c8dc22593c233ee6e836997391a0845df137ebaa44e9cd7add60001b6118ac565b612c578888600c60008c8152602001908152602001600020548787614064565b612c837f39a566f98f3913296f0bb9729f1d7069262eb47eda1c1adbc50c967b1fe8adf160001b6118ac565b612caf7f4fa10780e05f81333d745f2f9cae5f20df34cb58204a18c1e5923732e601520460001b6118ac565b612cb888614376565b612ce47f96510fef43565d063dd389bc67e61e09b10560121a765786e6947b51dbd34d7760001b6118ac565b612d107f167c80ee4c7570ba56d4c71706d1e9f1ca53d593e38617755769aa27c9a51b1560001b6118ac565b612d2088888660ff1689866146a5565b612d4c7f33ea72b6af6495af504740dbf689ced827033ad38d013ee64d6f242623cc451660001b6118ac565b612d787f493357078ae76e6dc0742b49693432e4d432b76aa794ab4ad9556a64713086e360001b6118ac565b612d878888838660ff166150e2565b612db37f5845920bfb995b60f8e3570822783f1cccb002b54bfedaa7b29db103ce9d674c60001b6118ac565b612ddf7f7c2173065874bc9e7e5536fc605d2fd0712d6398e0cb3ad7fe54c0a83866d26660001b6118ac565b7fb79a1263d65160537b9075e0e4747a6007a82fb191be4435b4c508c431920b898860066007604051612e1493929190618078565b60405180910390a1612e487f33c24754921799411c719259ef8c1f23d445cd73e8e90f6dd702a4b9038d501360001b6118ac565b612e747f2a36b9ee82fe8326f0118bdd8778aea62449ba9b2a32c3f0b99f15135b3c703860001b6118ac565b6001600960006101000a81548160ff0219169083151502179055505050505050505050565b8173ffffffffffffffffffffffffffffffffffffffff168373ffffffffffffffffffffffffffffffffffffffff1603612f07576040517f08c379a0000000000000000000000000000000000000000000000000000000008152600401612efe9061812f565b60405180910390fd5b80600260008573ffffffffffffffffffffffffffffffffffffffff1673ffffffffffffffffffffffffffffffffffffffff16815260200190815260200160002060008473ffffffffffffffffffffffffffffffffffffffff1673ffffffffffffffffffffffffffffffffffffffff16815260200190815260200160002060006101000a81548160ff0219169083151502179055508173ffffffffffffffffffffffffffffffffffffffff168373ffffffffffffffffffffffffffffffffffffffff167f17307eab39ab6107e8899845ad3d59bd9653f200f220920489ca2b5937696c3183604051612ff89190616a53565b60405180910390a3505050565b61300d610e45565b1561304d576040517f08c379a000000000000000000000000000000000000000000000000000000000815260040161304490617570565b60405180910390fd5b6130797f167a72d3b0d25628d8c527722e53c6e751c46ab242c3cf23436403d687c0e02460001b6118ac565b6130a57f758283d16593171bc22dbd3e4381aafdd9ba9a403b224d20bc357ecee1c6162160001b6118ac565b6130d17f3ce451fc100cc99f50ff9989988a7d4ff4e2b5854b329341c8d5d99f749f8ff560001b6118ac565b6130fd7f14a6ff16609b9d68395e02c696e8d33b0c85d9558ef57857b160cada09e1440660001b6118ac565b6131056118a4565b73ffffffffffffffffffffffffffffffffffffffff168573ffffffffffffffffffffffffffffffffffffffff16148061314b575061314a856131456118a4565b6112d6565b5b61318a576040517f08c379a0000000000000000000000000000000000000000000000000000000008152600401613181906181c1565b60405180910390fd5b6131b67f57b99847a7ec5e5ec1c36c43250fda37700d6ca043672f3f4da53f1779c588c360001b6118ac565b6131e27f206206fa2e419f1407d696bacdde625d478de9946b5f9e8f1acf3adea9d5bcf560001b6118ac565b61320e7f3f291170fc720421f197d81388dc6c16fd79054af016d14195e713a83397890260001b6118ac565b61321b8585858585615557565b5050505050565b60606132507f77c1ba054f48f48b4be3a9a21446c697cc2cefebb5fbd5dfcefa942b6e4cbd5960001b6118ac565b61327c7fce20c8d1d2958cc52c3c4b5c96792efa57ca23a306718c1799bf67d1958de68b60001b6118ac565b6132a87fdc57d3fcffe39ff01a426755f8ede94ecaa3533dd70f83ae18bc5902b130c1f360001b6118ac565b6000600267ffffffffffffffff8111156132c5576132c4616b92565b5b6040519080825280602002602001820160405280156132f35781602001602082028036833780820191505090505b5090506133227f637e84f25ed808e134f7bf7003b84eeafe42d93fcb54cb211c8b7df968ee719a60001b6118ac565b61334e7f5977232f73e5deda579ececc1930253c7cc1c224ceda07b538d21e6fe272f5d760001b6118ac565b6000613359846157db565b90506133877fad2175d6396b87ebeb8057b89703aa68c975964e1b3580b8099d07fa25a51b1660001b6118ac565b6133b37f3ac95cfcbcac712f1139cc51b38cc0c224ad902a08197db773237516278bde6260001b6118ac565b80826000815181106133c8576133c76176b4565b5b6020026020010181815250506134007f8447ae7f097045b9c24a40c2c050040febaa7e588f14f39d4208d409e84e015060001b6118ac565b61342c7f6086b27a5c0f8da5136ef4a69ca5cfbd717d18dd459451300fc25100905d822d60001b6118ac565b808461343891906179ca565b93506134667fd87a642c1b46b026013bc08a1d73a2cd27b65c401d9e4addd64f1fc35231b82160001b6118ac565b6134927fbc5738f3d1fa483c085d5cf5fb2421546e25e0595ccd72e677f065415deb12a760001b6118ac565b83826001815181106134a7576134a66176b4565b5b6020026020010181815250506134df7f71f1639cfc5a58c453d4268b7e8fceac88288f7bd014097d781dd0009b17029460001b6118ac565b61350b7f59b7c100d1ab2d3d1b622975b5e13a8f17be38b28aedeece7d9cd61e1309ca9360001b6118ac565b8192505050919050565b600073ffffffffffffffffffffffffffffffffffffffff168473ffffffffffffffffffffffffffffffffffffffff1603613584576040517f08c379a000000000000000000000000000000000000000000000000000000000815260040161357b90618253565b60405180910390fd5b600061358e6118a4565b90506135af816000876135a0886158df565b6135a9886158df565b876136ab565b826001600086815260200190815260200160002060008773ffffffffffffffffffffffffffffffffffffffff1673ffffffffffffffffffffffffffffffffffffffff168152602001908152602001600020600082825461360f91906179fe565b925050819055508473ffffffffffffffffffffffffffffffffffffffff16600073ffffffffffffffffffffffffffffffffffffffff168273ffffffffffffffffffffffffffffffffffffffff167fc3d58168c5ae7397731d063d5bbf3d657854427343f4c083240f7aacaa2d0f62878760405161368d929190618273565b60405180910390a46136a481600087878787615959565b5050505050565b505050505050565b6136d28473ffffffffffffffffffffffffffffffffffffffff16615b30565b15613882578373ffffffffffffffffffffffffffffffffffffffff1663bc197c8187878686866040518663ffffffff1660e01b81526004016137189594939291906182f1565b6020604051808303816000875af192505050801561375457506040513d601f19601f82011682018060405250810190613751919061836e565b60015b6137f9576137606183a8565b806308c379a0036137bc57506137746183ca565b8061377f57506137be565b806040517f08c379a00000000000000000000000000000000000000000000000000000000081526004016137b39190616b2b565b60405180910390fd5b505b6040517f08c379a00000000000000000000000000000000000000000000000000000000081526004016137f0906184cc565b60405180910390fd5b63bc197c8160e01b7bffffffffffffffffffffffffffffffffffffffffffffffffffffffff1916817bffffffffffffffffffffffffffffffffffffffffffffffffffffffff191614613880576040517f08c379a00000000000000000000000000000000000000000000000000000000081526004016138779061855e565b60405180910390fd5b505b505050505050565b60006138b87fa675361b6e7c2b37f9a561c6aeb0c91fb9102ab9ede4e3b7be109711febf8c0c60001b6118ac565b6138e47ffeaa9ee6209a4519f27891a1a399cc3e22ac5cce4e30ca4ac69b1a7458ee58f460001b6118ac565b6139107fff023f53d72851e014263be42582742d04a132661fa829a057681f3a025125b360001b6118ac565b600061393e7f36de3cfe9a1e207ea6c471ee524a3a474cdb800575200d4532752716ce42b12b60001b6118ac565b61396a7f70a24ff0d1562836a77a9d3d1e9745b489824cd2217bb543d0e0014b4584d9e260001b6118ac565b60005b8351811015613a09576139a27fadb0429e4fd7c2cd8934673b2dbaad29d94ee32dcb0f3ccde8dc76e9ff5dc94360001b6118ac565b6139ce7f6c23c9a479fcdb8cc7422300aef5fcf1a30466bd0eee7f4aa8261fc484b7c50c60001b6118ac565b8381815181106139e1576139e06176b4565b5b6020026020010151826139f491906179fe565b91508080613a0190617712565b91505061396d565b50613a367f8bd02573d346036be5f7afe3417cce9aefabaf9763df5e3a977521f47df6ccf760001b6118ac565b613a627f1489703b5a4b55a7cac302a2470105c75654c9da188a4d113649569b23c3ba4a60001b6118ac565b80915050919050565b6000613a997f4a97a0d12e76ffd05a5d3a8419c2d34187632a9a385927f572918b07f22f3c3660001b6118ac565b613ac57f34ecffa34985ab95693a12d15fe4b074566bb085c3e6f0c2c37440ce4086b0cb60001b6118ac565b613af17f5a2dd2e03d00ff80d5947e364ce3b84c17569d0849ffe28c6fcd2212d1b4f66460001b6118ac565b600084866064613b01919061857e565b613b0b91906185ef565b9050613b397f547fc6f5e138ebfbd8578d78095afa2296cb1269ce3d14287db558939c2ebf7060001b6118ac565b613b657fa31e9406161fe75429c8d08710f7b30821a9176f24aa952656516d6cf93f7a8160001b6118ac565b6000613b718486615b53565b9050613b9f7ffa99f4e7822c914fd7f2b90ca2af2a11f6b5fed99f5448f1ada376dbf8e4a1f460001b6118ac565b613bcb7fc4d1905ea152a59902ac3b2b3817113a1ca69437f7c14f1d1732b95eb920ead760001b6118ac565b600060648383613bdb919061857e565b613be591906185ef565b9050613c137f0847fd7d62de483bcc01efe380f3fe0a6fc5e7cddbbb447cf421c0a158dd36b160001b6118ac565b613c3f7f106e43bc23f86de3064c8abd5fc6f0b481e3403fe30c2829e5d99dbe7e0ee6da60001b6118ac565b809350505050949350505050565b600073ffffffffffffffffffffffffffffffffffffffff168473ffffffffffffffffffffffffffffffffffffffff1603613cbc576040517f08c379a0000000000000000000000000000000000000000000000000000000008152600401613cb390618253565b60405180910390fd5b8151835114613d00576040517f08c379a0000000000000000000000000000000000000000000000000000000008152600401613cf790617adb565b60405180910390fd5b6000613d0a6118a4565b9050613d1b816000878787876136ab565b60005b8451811015613dd557838181518110613d3a57613d396176b4565b5b602002602001015160016000878481518110613d5957613d586176b4565b5b6020026020010151815260200190815260200160002060008873ffffffffffffffffffffffffffffffffffffffff1673ffffffffffffffffffffffffffffffffffffffff1681526020019081526020016000206000828254613dbb91906179fe565b925050819055508080613dcd90617712565b915050613d1e565b508473ffffffffffffffffffffffffffffffffffffffff16600073ffffffffffffffffffffffffffffffffffffffff168273ffffffffffffffffffffffffffffffffffffffff167f4a39dc06d4c0dbc64b70af90fd698a233a518aa5d07e595d983b8c0526c8f7fb8787604051613e4d929190617c1f565b60405180910390a4613e64816000878787876136b3565b5050505050565b613e977fd9ff3d2085ab30c7025f7437bcd376843ce6d3aa7dad1b87249de6ef8dbabfe860001b6118ac565b613ec37f46071a432c7044860ef4928faf15cb1ff25744de57bbad2bda5d09afb851e7df60001b6118ac565b613eef7faeb12c3867abcc4935de3def43ca5affb79a446b6d66ec8f6bbaf2000ea5248160001b6118ac565b613f1b7f7488655232596c33dbe18b6a60cab218ae005dc638749788f31a479b21281ccc60001b6118ac565b60008103613f5e576040517f08c379a0000000000000000000000000000000000000000000000000000000008152600401613f5590618692565b60405180910390fd5b613f8a7f974f61c1a94e89f3b1bd58fab89ef5a5134af4f011f4770163cbbfc30f34133b60001b6118ac565b613fb67faf55825f5d88e83ecaa4507856818100aae20c6e3b551fbe7ac76316871c3f8660001b6118ac565b613fe27f6a0caf1b0b1d58c51d876961eaee3ce90370f3c70bd269df8cc0e1f2f6717f6a60001b6118ac565b4281613fee91906179fe565b905061401c7f931b8fab2e2e3416c113617ad254fe241e2ab456423254e5892ddcc33575692b60001b6118ac565b6140487f2ecb136fb131368fa4cbd7f2ea2fd2a8ca5d13403a47b98f2790d7ec3dbb838460001b6118ac565b80600c6000848152602001908152602001600020819055505050565b6140907fc392474f025a3d352c1efa69b6b4a499d41e780b0c3a55172391b6735caf353860001b6118ac565b6140bc7f8163818a3fb367a1bdf5e215c9d58b2b137630efef3ecbd791b9058233aebbb860001b6118ac565b6140e87ff0d37fd730e6881ead9024e4b4c782677499c4b7501518c894e1896b7df4ecd260001b6118ac565b6140f28483615c57565b61411e7fe5e3622a920e1a42d24dbb62b6ad33ae832ed1302a5ab3fe498c797a2df323b060001b6118ac565b61414a7fb1a8938d01f7436e866bd33ebc00ada389d40a69252f518656b72a9691dfdf4860001b6118ac565b6000600a6000878152602001908152602001600020905061418d7ff4f3abecf973e088d54ef120380e62fbe3139d05046ae945d7d9c4915a3f1a3660001b6118ac565b6141b97fbe574b27fb55a57a9e80d01b4a48e9c0f2fcce145e2c5666cdf2e2569c2376e760001b6118ac565b8581600001819055506141ee7f8401be69987213a82a9234a1de507316511228cfac1e3e9b2c65f72363d9a6da60001b6118ac565b61421a7fc9878488e1fae71be772cbac8306887aa8255eb4004725a6fb01c6855e4eb86760001b6118ac565b84816001018190555061424f7fc436369b5f81c65489c2cdbe34b9e8b52f9dab4b22ab90c177d5cbaf6aa8f93660001b6118ac565b61427b7f247ffd0afc1e03278075ccb8871f6ce1b1c3dd0f3ab6c0089a95f1828c09d1a260001b6118ac565b8381600301819055506142b07ffd6f85f10dad3d04a5c133f954768c05334a815a9139fe044018569ce3fedb5f60001b6118ac565b6142dc7f6eb7ab485d6c19144aff059d2d12cac4665f8bebb13c6daa26080af6035dd30e60001b6118ac565b828160040160006101000a81548160ff021916908360ff1602179055506143257f54908a8c1019c94f405d3fa507a51f154fe93ca9818d657a941a2ba4e2c1787f60001b6118ac565b6143517f91f75e7a46a3ef7af9f64de09cb1ca253ef3e33dab98e7621cfba44c648f6d4b60001b6118ac565b818160040160016101000a81548160ff021916908360ff160217905550505050505050565b6143a27f20778797eb25370da6ae58a2da0d5fa432181389f74ac26fc62a316b9c0d1fc160001b6118ac565b6143ce7fde5ca9facffdbe917e64d62e7b110ea6a191442d1e36f4b37ddb264b45aed5e260001b6118ac565b6143fa7f90a0f3ef8d64fb8f7a6017ffd7c77b9ba099cc194d1a10414c405e3f80b4909360001b6118ac565b6000600267ffffffffffffffff81111561441757614416616b92565b5b60405190808252806020026020018201604052801561444a57816020015b60608152602001906001900390816144355790505b5090506144797fd40dffc99e9e9933c447f7876a4d04de9348be4f3bfa3270e16185665ecd6ffb60001b6118ac565b6144a57fdf77498792cf7dcda24d8666eba8b8b8b45b3f021e245822cdf3a684697596fb60001b6118ac565b6040518060400160405280600681526020017f4c4f434b45440000000000000000000000000000000000000000000000000000815250816000815181106144ef576144ee6176b4565b5b60200260200101819052506145267f51326b59044d941d5860d519d9e27ba2517139e5f1fbc7b8875ba9d8b35493b660001b6118ac565b6145527f64165cf48e0795aa0ebb14371846c92557162ef32830fab47288ec2bbc8a5f7d60001b6118ac565b6040518060400160405280600681526020017f54524144454400000000000000000000000000000000000000000000000000008152508160018151811061459c5761459b6176b4565b5b60200260200101819052506145d37fda14215600237b8017b5351f0d7046be7141242b9e2bd394f7c3e2b3bf1a0ad560001b6118ac565b6145ff7fe0cb465402ef0db696dd633d4b807bd38c5096c7af532d0daf6e6b71ce302e2860001b6118ac565b60005b81518160ff1610156146a05761463a7f536bdbe8838f5563614fec550d17571e3fa4c7410298f64483c971efbf45153f60001b6118ac565b6146667fcd3c16253d96418972fce2ae9f28c282719d907b9e9ff82a4b58e188f5038f0460001b6118ac565b61468d83838360ff16815181106146805761467f6176b4565b5b6020026020010151615e70565b8080614698906186b2565b915050614602565b505050565b6146d17f91e64534b1cd3ed252f39448664058e3f9e8a33de305eb9fbf31f66ec7ed927c60001b6118ac565b6146fd7fca1bf8ac3c5f0e6f44a6794e2e90a6a225e16a6ba395bf0d2a3406221d71583e60001b6118ac565b6147297f5e10a89e86ee66a2643eeae25feba597cad2c541670469d09a06c52a3fce7f5760001b6118ac565b600061473486616117565b90506147627f869b1ebf9911403d78fa8cab4c08de4a1d68647272729402ceff3c290ca8558660001b6118ac565b61478e7f9116c85051d9dd55673593cec30e0b3121b68953637edc76cc48a4a6db899b1e60001b6118ac565b6000614799876162a3565b90506147c77f1d36beafa45c2723dece5cb6eb8fd32d99e137dbd79efcfea79664a67eb6fa2460001b6118ac565b6147f37f709c5ed10e37177f6f7e5ca0a1af98d4c844a22957571418e8f83ed20521432960001b6118ac565b6000600a600089815260200190815260200160002090506148367fb1b3c0f643e8aef1be67b70041f7d7d3c8340fb81f83f474b465c085e73fd31e60001b6118ac565b6148627f1ba265ed56cff630d580928c4dbc49e539a45ab971ab9481c01438c3df7de7be60001b6118ac565b848261486e91906179fe565b915061489c7f06b017567703b4bfa3202d3ac1830aa7f696ca5e720fdb61a32ba9b066c38e7960001b6118ac565b6148c87f6373306cf80355fc4d8b8485134da8e1dee4273046ae43e4a65aae214e41129860001b6118ac565b60005b600460009054906101000a900473ffffffffffffffffffffffffffffffffffffffff1673ffffffffffffffffffffffffffffffffffffffff166384ffeca58a6040518263ffffffff1660e01b81526004016149269190616998565b602060405180830381865afa158015614943573d6000803e3d6000fd5b505050506040513d601f19601f8201168201806040525081019061496791906186f0565b811015614ec05761499a7fdba4bb17d0eb8a419daad397f66fa9f6e88a86d97b7edb5b0a078dbec3d3a9f260001b6118ac565b6149c67fefd497b8f5407f80f7c54558566b15c1852d477892e0aef12e5622fe5d3cd3e260001b6118ac565b6000600460009054906101000a900473ffffffffffffffffffffffffffffffffffffffff1673ffffffffffffffffffffffffffffffffffffffff166359a96ffe868481518110614a1957614a186176b4565b5b60200260200101516040518263ffffffff1660e01b8152600401614a3d919061871d565b602060405180830381865afa158015614a5a573d6000803e3d6000fd5b505050506040513d601f19601f82011682018060405250810190614a7e9190618754565b9050614aac7fc0eacc1cba0b450fd7ef6a85f9b6cd81e4e5acdc4c48440150995041a290ca4860001b6118ac565b614ad87fe3787bfd21fcac85b9dd552e75d0c94708bb99fd2de10c8ad7ce73a023ec3b2360001b6118ac565b6000614b9d600460009054906101000a900473ffffffffffffffffffffffffffffffffffffffff1673ffffffffffffffffffffffffffffffffffffffff16630e47cefa888681518110614b2e57614b2d6176b4565b5b60200260200101518e6040518363ffffffff1660e01b8152600401614b54929190618781565b602060405180830381865afa158015614b71573d6000803e3d6000fd5b505050506040513d601f19601f82011682018060405250810190614b9591906186f0565b868b8d613a6b565b9050614bcb7ffa0d10fb46e34813048735044bacf6f432a9d13999dbccdc81074d28b0367ac560001b6118ac565b614bf77ffb9e2596c88c5ec232f849a8b835707ea6b960c0e26c66899fe60a962f65430c60001b6118ac565b6000614c0282613222565b9050614c307f81e89710a47ef99c3cd25a1c4fe81e42098fd2d62781bab227a80630640c033160001b6118ac565b614c5c7fb9550541abcf3c1aaa8fdc5f5956c808730ce6428e191826ec077fc331ae7ab260001b6118ac565b614cfe83600b60008f8152602001908152602001600020805480602002602001604051908101604052809291908181526020018280548015614cbd57602002820191906000526020600020905b815481526020019060010190808311614ca9575b5050505050836040518060400160405280600481526020017f3078303000000000000000000000000000000000000000000000000000000000815250613c4d565b614d2a7f5203e27cb0b9f17bbdc4ea3a8adc640f26816635d2b7166c71b93b077831681760001b6118ac565b614d567fddddbb65675b1ca90dc5d2005c51164c279e938730b8308783113ce43a5d033260001b6118ac565b818560020154614d6691906179fe565b8560020181905550614d9a7f1c23b30664196bb8064e512f757f53729e43f132a53e6d57f8e4be3b2c8c987360001b6118ac565b614dc67f7716a208e4d4aff830d997708df6c6461821b29abea09b39302c567249aba29960001b6118ac565b6006839080600181540180825580915050600190039060005260206000200160009091909190916101000a81548173ffffffffffffffffffffffffffffffffffffffff021916908373ffffffffffffffffffffffffffffffffffffffff160217905550614e557f9c5be580aff81570aeeb29eec462027eb70202740180ec9af123cc65750c34e460001b6118ac565b614e817fa40a084a2f77ceb80889960d45f235835c2ea786a2710034663909788c4e54f160001b6118ac565b60078290806001815401808255809150506001900390600052602060002001600090919091909150555050508080614eb890617712565b9150506148cb565b50614eed7f2500ba4af42ce6ab251f3420b6ea302848c1d04b29b68fe25041ea68e290c4a160001b6118ac565b614f197f02e97f6716fe1e50f5027163fe78b6a96b4af98e04a0847df30503285e4d41b860001b6118ac565b6000614f29898688868b8d6165e5565b9050614f577f925278c2e8dc4b6dfedde8105293f3671ba73d458910f0eeb1262edfe394882a60001b6118ac565b614f837fce47f549ca2ac6250f9f2cdd9313bbdde6f7dab356e1d1dbb6996d49b720ab5660001b6118ac565b808260020154614f9391906179fe565b8260020181905550614fc77f8418c57d606467d779e54b77eab39183bda6f45483011ccfce3c0b39bb53105a60001b6118ac565b614ff37f53ea471b208b1feb8e9ac0f2c4072f8cb6288c40f457918192a6d4daa0808fd360001b6118ac565b6006859080600181540180825580915050600190039060005260206000200160009091909190916101000a81548173ffffffffffffffffffffffffffffffffffffffff021916908373ffffffffffffffffffffffffffffffffffffffff1602179055506150827f93b402b60ed69df665086564601a1014450cbd86c1544f092331711f506df00360001b6118ac565b6150ae7f1995d4a32c1853d78551e575fc568e2a9311ab33f93244114decc909f3a5c6d560001b6118ac565b6007819080600181540180825580915050600190039060005260206000200160009091909190915055505050505050505050565b61510e7f8fa697afb24900b43954f1a539c754082f2b0bf4419c700f6d36bf1c2e09532d60001b6118ac565b61513a7fb48d6e401c6c4c50acdd8c199cf714dfc1e5870a953031066c0a802591530cf660001b6118ac565b6151667f8539d20c68087c7976657f894e26ca870d173e187155d765aa47831f43ec648060001b6118ac565b6000600a600086815260200190815260200160002090506151a97f79c5a977f48d2c9298a5fbfd05fc59b08dd754c847e68deab670a4921755cab560001b6118ac565b6151d57fed6f11cec03a659df5c5de0cbe46c0d0b2f7e7d4e1caee7df459eb638e50f8b960001b6118ac565b60006151e18584615b53565b905061520f7fdcf7076f445f86dea753365247ec0b3d5fce6a19f56ebe33ad47289d9b4513d460001b6118ac565b61523b7f99456268be9ca2ab5bbd32c990c312da2749b63f4348175d12b2d66cb3b95e9560001b6118ac565b80826002015461524b91906179fe565b826002018190555061527f7f1c3ec0d0aa4275e2504e8059b21fd2bc7c6a14bb279e64b07b44e8537eb98d3160001b6118ac565b6152ab7f2397560cdade6ce90ab9e350fc4d835e71d00a02a06cc54321f249412f648b5660001b6118ac565b60006152b682613222565b90506152e47f803778389d2790ab48bbc1977bbe50201b69531d266425ed8df910487e84030760001b6118ac565b6153107f932c30032ac58a3a26a73f8f91d02ba97733c2edf2d91d6fa87f2d092da7ed9c60001b6118ac565b60005b8151811015615411576153487fb38a387a3cce1705435e4a3588a7ccf124b7de2fb89b9f7be0fa5b99afaf4e1e60001b6118ac565b6153747fc297d28d9f8cda80b06ed2238d7ef61ebda3cfc96e7dc36c99cf4370afa14c6360001b6118ac565b6153fe86600b60008b8152602001908152602001600020838154811061539d5761539c6176b4565b5b90600052602060002001548484815181106153bb576153ba6176b4565b5b60200260200101516040518060400160405280600481526020017f3078303000000000000000000000000000000000000000000000000000000000815250613515565b808061540990617712565b915050615313565b5061543e7f2204b13d5444ba525fbb96e2372aa157d8b8e5d8557c2118a3c3d2a95092caf660001b6118ac565b61546a7f9b9717fb5ab36466a0392fcbbbaf62004f8d2390131ec32a7bc10d77e7cbbc4560001b6118ac565b6006859080600181540180825580915050600190039060005260206000200160009091909190916101000a81548173ffffffffffffffffffffffffffffffffffffffff021916908373ffffffffffffffffffffffffffffffffffffffff1602179055506154f97fefb20c519b10d04a1def9e85abf9fd085a52c704533b416487547317cfc532f760001b6118ac565b6155257f0f37f0a4032d456f6a603f5f4aea7dedc1c48a196abe35c509b41a95dda265e360001b6118ac565b600782908060018154018082558091505060019003906000526020600020016000909190919091505550505050505050565b600073ffffffffffffffffffffffffffffffffffffffff168473ffffffffffffffffffffffffffffffffffffffff16036155c6576040517f08c379a00000000000000000000000000000000000000000000000000000000081526004016155bd90617b6d565b60405180910390fd5b60006155d06118a4565b90506155f08187876155e1886158df565b6155ea886158df565b876136ab565b60006001600086815260200190815260200160002060008873ffffffffffffffffffffffffffffffffffffffff1673ffffffffffffffffffffffffffffffffffffffff16815260200190815260200160002054905083811015615688576040517f08c379a000000000000000000000000000000000000000000000000000000000815260040161567f90617bff565b60405180910390fd5b8381036001600087815260200190815260200160002060008973ffffffffffffffffffffffffffffffffffffffff1673ffffffffffffffffffffffffffffffffffffffff16815260200190815260200160002081905550836001600087815260200190815260200160002060008873ffffffffffffffffffffffffffffffffffffffff1673ffffffffffffffffffffffffffffffffffffffff168152602001908152602001600020600082825461573f91906179fe565b925050819055508573ffffffffffffffffffffffffffffffffffffffff168773ffffffffffffffffffffffffffffffffffffffff168373ffffffffffffffffffffffffffffffffffffffff167fc3d58168c5ae7397731d063d5bbf3d657854427343f4c083240f7aacaa2d0f6288886040516157bc929190618273565b60405180910390a46157d2828888888888615959565b50505050505050565b60006158097f0f906ba911a11b351249db65d5f6ce24eeacc79d54942aa5b0b891d79fe4ff2260001b6118ac565b6158357fd4e24b1ef910bd5ab975682f0ad8728dd9f6c201bc55719d1e431b5d548c995960001b6118ac565b6158617fa8219f544da8828f354c560b1b81fdd1945a21c419d6cf2fb6f7c10ee89d55f760001b6118ac565b60006064603284615872919061857e565b61587c91906185ef565b90506158aa7f0304cc6df500d0a6fe7077bc387db3ed3eed66b0619f1a92c533044c61ea9d9a60001b6118ac565b6158d67f30c563c8d06e607268fd5a8ed363152bb00e111e04f6f063a977dfc129d7e7c360001b6118ac565b80915050919050565b60606000600167ffffffffffffffff8111156158fe576158fd616b92565b5b60405190808252806020026020018201604052801561592c5781602001602082028036833780820191505090505b5090508281600081518110615944576159436176b4565b5b60200260200101818152505080915050919050565b6159788473ffffffffffffffffffffffffffffffffffffffff16615b30565b15615b28578373ffffffffffffffffffffffffffffffffffffffff1663f23a6e6187878686866040518663ffffffff1660e01b81526004016159be9594939291906187b1565b6020604051808303816000875af19250505080156159fa57506040513d601f19601f820116820180604052508101906159f7919061836e565b60015b615a9f57615a066183a8565b806308c379a003615a625750615a1a6183ca565b80615a255750615a64565b806040517f08c379a0000000000000000000000000000000000000000000000000000000008152600401615a599190616b2b565b60405180910390fd5b505b6040517f08c379a0000000000000000000000000000000000000000000000000000000008152600401615a96906184cc565b60405180910390fd5b63f23a6e6160e01b7bffffffffffffffffffffffffffffffffffffffffffffffffffffffff1916817bffffffffffffffffffffffffffffffffffffffffffffffffffffffff191614615b26576040517f08c379a0000000000000000000000000000000000000000000000000000000008152600401615b1d9061855e565b60405180910390fd5b505b505050505050565b6000808273ffffffffffffffffffffffffffffffffffffffff163b119050919050565b6000615b817f635cc8a954a346a023bd7d4925ee24e8ccbe127d2182564cea8e71bb9fa18a3960001b6118ac565b615bad7ffada4ae4316e6b6a1300ac38aaf8411a7fa0f1ea010df72263b14ca559c98c0960001b6118ac565b615bd97fd993b9ce46ac691fc8b89a588ab371b57ae38bd72c537c0edd8740ad836d71f160001b6118ac565b600060648385615be9919061857e565b615bf391906185ef565b9050615c217f412cd8ccba638cbc657980c49ccfd7b0036fcfb66c7af305f30cd4ddfbcab73760001b6118ac565b615c4d7fa8f432adcb4e9a2f5154687583639d5e792d2290f6cfc0316b9f18c1f2258b4160001b6118ac565b8091505092915050565b615c837f012fa19c938b3591f31fac0ff389399c6cc11644db9fe4503ec15370e976bbed60001b6118ac565b615caf7faf9b502e9c703984a99e4d088193ba894a941a7972a1dff93852486210166d1360001b6118ac565b615cdb7f5744503e708f16c1d73451a1f6aef7334fe92a3a402f5c486498e6f39552008460001b6118ac565b615d077f1da8ef058d6c5037b393e2a90f85e753d3824c6311369d704b850cb0f65cf1b660001b6118ac565b60008203615d4a576040517f08c379a0000000000000000000000000000000000000000000000000000000008152600401615d419061887d565b60405180910390fd5b615d767fa5b3fd9ff7835fea05d024d3e0c904d2c40738b7e89494e6017432e1fad96bd260001b6118ac565b615da27f277731e8ce87ced753ba676f0e741400637c83b3b51442d3206159d45869f84360001b6118ac565b615dce7fe09f8e6cace6d61afc3575d644c1706e18b6626454f0bae4b1104fc7eae8149b60001b6118ac565b615dfa7f5282ae3de3563888a148a1ea07c5d9b718615179ef82fe965e6d41029f6e72ee60001b6118ac565b60008160ff1603615e40576040517f08c379a0000000000000000000000000000000000000000000000000000000008152600401615e379061890f565b60405180910390fd5b615e6c7fd9f58ed4fb543cc2d93724ab384be8af22d36e6e9658b0ce9118d32ff515318f60001b6118ac565b5050565b615e9c7f945ef7ad247f279da2c0d33c52f4fe565501f530b116063f41b8a9f63e94af5160001b6118ac565b615ec87f47f4e0e4494f6d2cd0f0a0ae1e4db5741c2bb12143ebb012b45673807705bf3d60001b6118ac565b615ef47f5833b3f4f7e065fdf57fadac68c0a7db6e7c0cb091a3b8b0aa743af4ee42aac460001b6118ac565b600581908060018154018082558091505060019003906000526020600020016000909190919091509081615f289190618adb565b50615f557fe2f0babc0643e0417fbd0bb934a61e1a9882c06eaf789737109510725a1b46e960001b6118ac565b615f817f9f50db0bb3b5ee211778c36bfeb2a840c6c45f10570834dd1215f42a1199b55d60001b6118ac565b60006001600580549050615f9591906179ca565b9050615fc37fae783a74a6cd10f0eb49002ec47bf0d8725dcfd1dbb9000db226ececdc6f843e60001b6118ac565b615fef7fd314fd925d3dd6394b523a68f57c102162c7bf01ce0f271b3a1ae320e28fee8b60001b6118ac565b600b60008481526020019081526020016000208190806001815401808255809150506001900390600052602060002001600090919091909150556160557f0953279c73b38b2c114748956f2d41e6e30c7cf21027e6b7c7bff457228dd0db60001b6118ac565b6160817fb616a4caaf67dbf5fdb1590075517914556723040bec104fbbd4a4b94bccb12960001b6118ac565b81600e600083815260200190815260200160002090816160a19190618adb565b506160ce7f57ded35bf6198fa75010bae02aa56b520305206d69665585e05e09141578cbf360001b6118ac565b6160fa7f156cb5c163ce3ce2a0eb597829e7ae7eac7a5775b3e5f91adbc97be004edadf460001b6118ac565b82600d600083815260200190815260200160002081905550505050565b60606161457fd6005b678d9749f6ebd7ac8017fbc2d2eb7f1bf126f5b19d5e61dc8cbe650a9860001b6118ac565b6161717f02b75492a1b34a7fa250b80439bb15f277ac237b3f3107f144a75fe7cf2df32d60001b6118ac565b61619d7f7c5b129985f47bcccaeab6cb2df13d261aca62daa0508deeb1dfbcb1f855d7d760001b6118ac565b6000600460009054906101000a900473ffffffffffffffffffffffffffffffffffffffff1673ffffffffffffffffffffffffffffffffffffffff1663c9187fe7846040518263ffffffff1660e01b81526004016161fa9190616998565b600060405180830381865afa158015616217573d6000803e3d6000fd5b505050506040513d6000823e3d601f19601f820116820180604052508101906162409190618cfe565b905061626e7f2c6819c5bebe33a32971eb5116c67a16e46e0d8aa88c5c12bf60bc69f745e5e260001b6118ac565b61629a7f1a836f853aa3b44886ccf16f5471726249d8701e712991ee66bfc28baa6a859260001b6118ac565b80915050919050565b60006162d17f3254f52eb1de72588b7fa5fe553c0749f91433beb92322e7e795babaf275348c60001b6118ac565b6162fd7f84d5ee1d4cc84d2456f10cbb8f2bce7235e661b88a16b5e1163393e4c2b7637f60001b6118ac565b6163297fbd404d06df137781c460534003898fd8fae00205b311a1e4a0d8fecb55aedc8f60001b6118ac565b600061633483616117565b90506163627fa4f7fe031fb8ed7d519d3bb60a35fb962cd0856b3b86bb1f3d4bb3ab4c7b5e1360001b6118ac565b61638e7fae391e989b4a03ba1aded0f9b09939bc7a52816e4b274f9d9b735b66ca1febed60001b6118ac565b60006163bc7f9e06a83d93bc2f8891e92d1fcefb199b5cce793968de835540cf5370134c413060001b6118ac565b6163e87fb563ad5da1c70dcc16e4f0888813ed4777eee90ca6bb263194bf49ba957b109b60001b6118ac565b60005b8251811015616582576164207f40777ed528dd9ca15fb011c9bfa44059749cb9c11fe7fa4760aee86bd69668dc60001b6118ac565b61644c7f16d17b922d2c973a8495d8ad98e2afbd1fe2c76778539c014f34e706e7a7241860001b6118ac565b6000600460009054906101000a900473ffffffffffffffffffffffffffffffffffffffff1673ffffffffffffffffffffffffffffffffffffffff16630e47cefa85848151811061649f5761649e6176b4565b5b6020026020010151886040518363ffffffff1660e01b81526004016164c5929190618781565b602060405180830381865afa1580156164e2573d6000803e3d6000fd5b505050506040513d601f19601f8201168201806040525081019061650691906186f0565b90506165347f6e782f2066b7ad42aecb29bdca66e0e0bd3620b4b63206338c6ad49f89a91c4160001b6118ac565b6165607fb7fa318c309f3185aedc848eae1eba986b58f3a200d86ddffd0efb5f6e957b9860001b6118ac565b808361656c91906179fe565b925050808061657a90617712565b9150506163eb565b506165af7f1d9a1323c71f554830e7136a7b8282756c32d4f35d8318e8a837a82b71afc11960001b6118ac565b6165db7fa50e55cae01604733d12f5e9ab11fd0378ca9195558c33b928ac180ec18e398560001b6118ac565b8092505050919050565b60006166137f6a769173c402d68a564225ce14b0ac285a072b53049f9526201099e6816e3c7660001b6118ac565b61663f7f55405816fa78bd6b2dc6d533fcf3df6615c464d253217a2945115c3665ef068b60001b6118ac565b61666b7fdeee20499c9486715d82bb8ce01174a82f90f5ade933d8fd231898f7385c915060001b6118ac565b600061667986868686613a6b565b90506166a77f380c3c4663ccfbc3805c542c0efd6b2268b0159b443d1a1881e996064db6c83c60001b6118ac565b6166d37fd139987b51bccb03cf9f917124968208703bf7dfa92e8bc33a1229d2dbdb307060001b6118ac565b60006166de82613222565b905061670c7f8052946a1399526064a298b514d035d023655a642b51a362432fd7fc569dfd8e60001b6118ac565b6167387f3c1ea4870e330b69853be11ccdaf5d43ea11cb16520db0d556e525b9bb2f11c160001b6118ac565b60005b8151811015616839576167707f129edb1b7578e3cc428cdb49044d12c5894e4d3a95140b905702d54daa24d65260001b6118ac565b61679c7fba5d695fea6f128695dc01ed15ff83d577baee242e778c8b9c202c2ac38f48c260001b6118ac565b61682689600b60008d815260200190815260200160002083815481106167c5576167c46176b4565b5b90600052602060002001548484815181106167e3576167e26176b4565b5b60200260200101516040518060400160405280600481526020017f3078303000000000000000000000000000000000000000000000000000000000815250613515565b808061683190617712565b91505061673b565b506168667f8b89ab6769667662dde33895ff6e58e2d246f4d5b9e32b9f41d37a9603b9dc1c60001b6118ac565b6168927f3f4ff6db59ff17a091c8ebc35113c0f3f1559997162cd4b420cd402fc6ddd7b960001b6118ac565b81925050509695505050505050565b6000604051905090565b600080fd5b600080fd5b600073ffffffffffffffffffffffffffffffffffffffff82169050919050565b60006168e0826168b5565b9050919050565b6168f0816168d5565b81146168fb57600080fd5b50565b60008135905061690d816168e7565b92915050565b6000819050919050565b61692681616913565b811461693157600080fd5b50565b6000813590506169438161691d565b92915050565b600080604083850312156169605761695f6168ab565b5b600061696e858286016168fe565b925050602061697f85828601616934565b9150509250929050565b61699281616913565b82525050565b60006020820190506169ad6000830184616989565b92915050565b60007fffffffff0000000000000000000000000000000000000000000000000000000082169050919050565b6169e8816169b3565b81146169f357600080fd5b50565b600081359050616a05816169df565b92915050565b600060208284031215616a2157616a206168ab565b5b6000616a2f848285016169f6565b91505092915050565b60008115159050919050565b616a4d81616a38565b82525050565b6000602082019050616a686000830184616a44565b92915050565b600060208284031215616a8457616a836168ab565b5b6000616a9284828501616934565b91505092915050565b600081519050919050565b600082825260208201905092915050565b60005b83811015616ad5578082015181840152602081019050616aba565b60008484015250505050565b6000601f19601f8301169050919050565b6000616afd82616a9b565b616b078185616aa6565b9350616b17818560208601616ab7565b616b2081616ae1565b840191505092915050565b60006020820190508181036000830152616b458184616af2565b905092915050565b60008060408385031215616b6457616b636168ab565b5b6000616b7285828601616934565b9250506020616b83858286016168fe565b9150509250929050565b600080fd5b7f4e487b7100000000000000000000000000000000000000000000000000000000600052604160045260246000fd5b616bca82616ae1565b810181811067ffffffffffffffff82111715616be957616be8616b92565b5b80604052505050565b6000616bfc6168a1565b9050616c088282616bc1565b919050565b600067ffffffffffffffff821115616c2857616c27616b92565b5b602082029050602081019050919050565b600080fd5b6000616c51616c4c84616c0d565b616bf2565b90508083825260208201905060208402830185811115616c7457616c73616c39565b5b835b81811015616c9d5780616c898882616934565b845260208401935050602081019050616c76565b5050509392505050565b600082601f830112616cbc57616cbb616b8d565b5b8135616ccc848260208601616c3e565b91505092915050565b600080fd5b600067ffffffffffffffff821115616cf557616cf4616b92565b5b616cfe82616ae1565b9050602081019050919050565b82818337600083830152505050565b6000616d2d616d2884616cda565b616bf2565b905082815260208101848484011115616d4957616d48616cd5565b5b616d54848285616d0b565b509392505050565b600082601f830112616d7157616d70616b8d565b5b8135616d81848260208601616d1a565b91505092915050565b600080600080600060a08688031215616da657616da56168ab565b5b6000616db4888289016168fe565b9550506020616dc5888289016168fe565b945050604086013567ffffffffffffffff811115616de657616de56168b0565b5b616df288828901616ca7565b935050606086013567ffffffffffffffff811115616e1357616e126168b0565b5b616e1f88828901616ca7565b925050608086013567ffffffffffffffff811115616e4057616e3f6168b0565b5b616e4c88828901616d5c565b9150509295509295909350565b600060ff82169050919050565b616e6f81616e59565b82525050565b6000602082019050616e8a6000830184616e66565b92915050565b616e9981616e59565b8114616ea457600080fd5b50565b600081359050616eb681616e90565b92915050565b600067ffffffffffffffff821115616ed757616ed6616b92565b5b602082029050602081019050919050565b6000616efb616ef684616ebc565b616bf2565b90508083825260208201905060208402830185811115616f1e57616f1d616c39565b5b835b81811015616f475780616f3388826168fe565b845260208401935050602081019050616f20565b5050509392505050565b600082601f830112616f6657616f65616b8d565b5b8135616f76848260208601616ee8565b91505092915050565b60008060008060808587031215616f9957616f986168ab565b5b6000616fa787828801616934565b9450506020616fb887828801616ea7565b935050604085013567ffffffffffffffff811115616fd957616fd86168b0565b5b616fe587828801616ca7565b925050606085013567ffffffffffffffff811115617006576170056168b0565b5b61701287828801616f51565b91505092959194509250565b60008060408385031215617035576170346168ab565b5b600083013567ffffffffffffffff811115617053576170526168b0565b5b61705f85828601616f51565b925050602083013567ffffffffffffffff8111156170805761707f6168b0565b5b61708c85828601616ca7565b9150509250929050565b600081519050919050565b600082825260208201905092915050565b6000819050602082019050919050565b6170cb81616913565b82525050565b60006170dd83836170c2565b60208301905092915050565b6000602082019050919050565b600061710182617096565b61710b81856170a1565b9350617116836170b2565b8060005b8381101561714757815161712e88826170d1565b9750617139836170e9565b92505060018101905061711a565b5085935050505092915050565b6000602082019050818103600083015261716e81846170f6565b905092915050565b61717f816168d5565b82525050565b600060208201905061719a6000830184617176565b92915050565b600080600080600080600080610100898b0312156171c1576171c06168ab565b5b60006171cf8b828c01616934565b98505060206171e08b828c01616934565b97505060406171f18b828c01616934565b96505060606172028b828c01616934565b95505060806172138b828c01616ea7565b94505060a06172248b828c01616ea7565b93505060c06172358b828c016168fe565b92505060e06172468b828c016168fe565b9150509295985092959890939650565b61725f81616a38565b811461726a57600080fd5b50565b60008135905061727c81617256565b92915050565b60008060408385031215617299576172986168ab565b5b60006172a7858286016168fe565b92505060206172b88582860161726d565b9150509250929050565b600080604083850312156172d9576172d86168ab565b5b60006172e7858286016168fe565b92505060206172f8858286016168fe565b9150509250929050565b600080600080600060a0868803121561731e5761731d6168ab565b5b600061732c888289016168fe565b955050602061733d888289016168fe565b945050604061734e88828901616934565b935050606061735f88828901616934565b925050608086013567ffffffffffffffff8111156173805761737f6168b0565b5b61738c88828901616d5c565b9150509295509295909350565b6000602082840312156173af576173ae6168ab565b5b60006173bd848285016168fe565b91505092915050565b7f455243313135353a2062616c616e636520717565727920666f7220746865207a60008201527f65726f2061646472657373000000000000000000000000000000000000000000602082015250565b6000617422602b83616aa6565b915061742d826173c6565b604082019050919050565b6000602082019050818103600083015261745181617415565b9050919050565b7f4e487b7100000000000000000000000000000000000000000000000000000000600052602260045260246000fd5b6000600282049050600182168061749f57607f821691505b6020821081036174b2576174b1617458565b5b50919050565b7f4f776e61626c653a2063616c6c6572206973206e6f7420746865206f776e6572600082015250565b60006174ee602083616aa6565b91506174f9826174b8565b602082019050919050565b6000602082019050818103600083015261751d816174e1565b9050919050565b7f5061757361626c653a2070617573656400000000000000000000000000000000600082015250565b600061755a601083616aa6565b915061756582617524565b602082019050919050565b600060208201905081810360008301526175898161754d565b9050919050565b7f455243313135353a207472616e736665722063616c6c6572206973206e6f742060008201527f6f776e6572206e6f7220617070726f7665640000000000000000000000000000602082015250565b60006175ec603283616aa6565b91506175f782617590565b604082019050919050565b6000602082019050818103600083015261761b816175df565b9050919050565b7f455243313135353a206163636f756e747320616e6420696473206c656e67746860008201527f206d69736d617463680000000000000000000000000000000000000000000000602082015250565b600061767e602983616aa6565b915061768982617622565b604082019050919050565b600060208201905081810360008301526176ad81617671565b9050919050565b7f4e487b7100000000000000000000000000000000000000000000000000000000600052603260045260246000fd5b7f4e487b7100000000000000000000000000000000000000000000000000000000600052601160045260246000fd5b600061771d82616913565b91507fffffffffffffffffffffffffffffffffffffffffffffffffffffffffffffffff820361774f5761774e6176e3565b5b600182019050919050565b600081905092915050565b60008190508160005260206000209050919050565b6000815461778781617487565b617791818661775a565b945060018216600081146177ac57600181146177c1576177f4565b60ff19831686528115158202860193506177f4565b6177ca85617765565b60005b838110156177ec578154818901526001820191506020810190506177cd565b838801955050505b50505092915050565b6000617809828461777a565b915081905092915050565b7f52454a5556453a2043616e6e6f742073616c6520353025206f6620736861726460008201527f73206265666f7265206c6f636b696e6720706572696f64000000000000000000602082015250565b6000617870603783616aa6565b915061787b82617814565b604082019050919050565b6000602082019050818103600083015261789f81617863565b9050919050565b7f4f776e61626c653a206e6577206f776e657220697320746865207a65726f206160008201527f6464726573730000000000000000000000000000000000000000000000000000602082015250565b6000617902602683616aa6565b915061790d826178a6565b604082019050919050565b60006020820190508181036000830152617931816178f5565b9050919050565b7f52454a5556453a2043616e6e6f74206d696e74206265666f726520696e69746960008201527f616c20262066757475726520646973747269627574696f6e2000000000000000602082015250565b6000617994603983616aa6565b915061799f82617938565b604082019050919050565b600060208201905081810360008301526179c381617987565b9050919050565b60006179d582616913565b91506179e083616913565b92508282039050818111156179f8576179f76176e3565b5b92915050565b6000617a0982616913565b9150617a1483616913565b9250828201905080821115617a2c57617a2b6176e3565b5b92915050565b6000606082019050617a476000830186616989565b617a546020830185617176565b617a616040830184616989565b949350505050565b7f455243313135353a2069647320616e6420616d6f756e7473206c656e6774682060008201527f6d69736d61746368000000000000000000000000000000000000000000000000602082015250565b6000617ac5602883616aa6565b9150617ad082617a69565b604082019050919050565b60006020820190508181036000830152617af481617ab8565b9050919050565b7f455243313135353a207472616e7366657220746f20746865207a65726f20616460008201527f6472657373000000000000000000000000000000000000000000000000000000602082015250565b6000617b57602583616aa6565b9150617b6282617afb565b604082019050919050565b60006020820190508181036000830152617b8681617b4a565b9050919050565b7f455243313135353a20696e73756666696369656e742062616c616e636520666f60008201527f72207472616e7366657200000000000000000000000000000000000000000000602082015250565b6000617be9602a83616aa6565b9150617bf482617b8d565b604082019050919050565b60006020820190508181036000830152617c1881617bdc565b9050919050565b60006040820190508181036000830152617c3981856170f6565b90508181036020830152617c4d81846170f6565b90509392505050565b7f5061757361626c653a206e6f7420706175736564000000000000000000000000600082015250565b6000617c8c601483616aa6565b9150617c9782617c56565b602082019050919050565b60006020820190508181036000830152617cbb81617c7f565b9050919050565b7f52454a5556453a204e6f7420657175616c206c656e6774680000000000000000600082015250565b6000617cf8601883616aa6565b9150617d0382617cc2565b602082019050919050565b60006020820190508181036000830152617d2781617ceb565b9050919050565b7f52454a5556453a204675747572652070657263656e746167652073686172652060008201527f63616e6e6f74206265207a65726f000000000000000000000000000000000000602082015250565b6000617d8a602e83616aa6565b9150617d9582617d2e565b604082019050919050565b60006020820190508181036000830152617db981617d7d565b9050919050565b600081519050919050565b600082825260208201905092915050565b6000819050602082019050919050565b617df5816168d5565b82525050565b6000617e078383617dec565b60208301905092915050565b6000602082019050919050565b6000617e2b82617dc0565b617e358185617dcb565b9350617e4083617ddc565b8060005b83811015617e71578151617e588882617dfb565b9750617e6383617e13565b925050600181019050617e44565b5085935050505092915050565b600081549050919050565b60008190508160005260206000209050919050565b60008160001c9050919050565b6000819050919050565b6000617ec8617ec383617e9e565b617eab565b9050919050565b6000617edb8254617eb5565b9050919050565b6000600182019050919050565b6000617efa82617e7e565b617f0481856170a1565b9350617f0f83617e89565b8060005b83811015617f4757617f2482617ecf565b617f2e88826170d1565b9750617f3983617ee2565b925050600181019050617f13565b5085935050505092915050565b6000606082019050617f696000830186616989565b8181036020830152617f7b8185617e20565b90508181036040830152617f8f8184617eef565b9050949350505050565b600081549050919050565b60008190508160005260206000209050919050565b600073ffffffffffffffffffffffffffffffffffffffff82169050919050565b6000617fec617fe783617e9e565b617fb9565b9050919050565b6000617fff8254617fd9565b9050919050565b6000600182019050919050565b600061801e82617f99565b6180288185617dcb565b935061803383617fa4565b8060005b8381101561806b5761804882617ff3565b6180528882617dfb565b975061805d83618006565b925050600181019050618037565b5085935050505092915050565b600060608201905061808d6000830186616989565b818103602083015261809f8185618013565b905081810360408301526180b38184617eef565b9050949350505050565b7f455243313135353a2073657474696e6720617070726f76616c2073746174757360008201527f20666f722073656c660000000000000000000000000000000000000000000000602082015250565b6000618119602983616aa6565b9150618124826180bd565b604082019050919050565b600060208201905081810360008301526181488161810c565b9050919050565b7f455243313135353a2063616c6c6572206973206e6f74206f776e6572206e6f7260008201527f20617070726f7665640000000000000000000000000000000000000000000000602082015250565b60006181ab602983616aa6565b91506181b68261814f565b604082019050919050565b600060208201905081810360008301526181da8161819e565b9050919050565b7f455243313135353a206d696e7420746f20746865207a65726f2061646472657360008201527f7300000000000000000000000000000000000000000000000000000000000000602082015250565b600061823d602183616aa6565b9150618248826181e1565b604082019050919050565b6000602082019050818103600083015261826c81618230565b9050919050565b60006040820190506182886000830185616989565b6182956020830184616989565b9392505050565b600081519050919050565b600082825260208201905092915050565b60006182c38261829c565b6182cd81856182a7565b93506182dd818560208601616ab7565b6182e681616ae1565b840191505092915050565b600060a0820190506183066000830188617176565b6183136020830187617176565b818103604083015261832581866170f6565b9050818103606083015261833981856170f6565b9050818103608083015261834d81846182b8565b90509695505050505050565b600081519050618368816169df565b92915050565b600060208284031215618384576183836168ab565b5b600061839284828501618359565b91505092915050565b60008160e01c9050919050565b600060033d11156183c75760046000803e6183c460005161839b565b90505b90565b600060443d10618457576183dc6168a1565b60043d036004823e80513d602482011167ffffffffffffffff82111715618404575050618457565b808201805167ffffffffffffffff8111156184225750505050618457565b80602083010160043d03850181111561843f575050505050618457565b61844e82602001850186616bc1565b82955050505050505b90565b7f455243313135353a207472616e7366657220746f206e6f6e204552433131353560008201527f526563656976657220696d706c656d656e746572000000000000000000000000602082015250565b60006184b6603483616aa6565b91506184c18261845a565b604082019050919050565b600060208201905081810360008301526184e5816184a9565b9050919050565b7f455243313135353a204552433131353552656365697665722072656a6563746560008201527f6420746f6b656e73000000000000000000000000000000000000000000000000602082015250565b6000618548602883616aa6565b9150618553826184ec565b604082019050919050565b600060208201905081810360008301526185778161853b565b9050919050565b600061858982616913565b915061859483616913565b92508282026185a281616913565b915082820484148315176185b9576185b86176e3565b5b5092915050565b7f4e487b7100000000000000000000000000000000000000000000000000000000600052601260045260246000fd5b60006185fa82616913565b915061860583616913565b925082618615576186146185c0565b5b828204905092915050565b7f52454a5556453a204c6f636b20706572696f642063616e6e6f74206265207a6560008201527f726f000000000000000000000000000000000000000000000000000000000000602082015250565b600061867c602283616aa6565b915061868782618620565b604082019050919050565b600060208201905081810360008301526186ab8161866f565b9050919050565b60006186bd82616e59565b915060ff82036186d0576186cf6176e3565b5b600182019050919050565b6000815190506186ea8161691d565b92915050565b600060208284031215618706576187056168ab565b5b6000618714848285016186db565b91505092915050565b6000602082019050818103600083015261873781846182b8565b905092915050565b60008151905061874e816168e7565b92915050565b60006020828403121561876a576187696168ab565b5b60006187788482850161873f565b91505092915050565b6000604082019050818103600083015261879b81856182b8565b90506187aa6020830184616989565b9392505050565b600060a0820190506187c66000830188617176565b6187d36020830187617176565b6187e06040830186616989565b6187ed6060830185616989565b81810360808301526187ff81846182b8565b90509695505050505050565b7f52454a5556453a2054617267657420737570706c792063616e206e6f7420626560008201527f2030000000000000000000000000000000000000000000000000000000000000602082015250565b6000618867602283616aa6565b91506188728261880b565b604082019050919050565b600060208201905081810360008301526188968161885a565b9050919050565b7f52454a5556453a20496e697469616c20636f6e7472696275746f72732070657260008201527f63656e742063616e206e6f742062652030000000000000000000000000000000602082015250565b60006188f9603183616aa6565b91506189048261889d565b604082019050919050565b60006020820190508181036000830152618928816188ec565b9050919050565b60008190508160005260206000209050919050565b60006020601f8301049050919050565b600082821b905092915050565b6000600883026189917fffffffffffffffffffffffffffffffffffffffffffffffffffffffffffffffff82618954565b61899b8683618954565b95508019841693508086168417925050509392505050565b6000819050919050565b60006189d86189d36189ce84616913565b6189b3565b616913565b9050919050565b6000819050919050565b6189f2836189bd565b618a066189fe826189df565b848454618961565b825550505050565b600090565b618a1b618a0e565b618a268184846189e9565b505050565b5b81811015618a4a57618a3f600082618a13565b600181019050618a2c565b5050565b601f821115618a8f57618a608161892f565b618a6984618944565b81016020851015618a78578190505b618a8c618a8485618944565b830182618a2b565b50505b505050565b600082821c905092915050565b6000618ab260001984600802618a94565b1980831691505092915050565b6000618acb8383618aa1565b9150826002028217905092915050565b618ae482616a9b565b67ffffffffffffffff811115618afd57618afc616b92565b5b618b078254617487565b618b12828285618a4e565b600060209050601f831160018114618b455760008415618b33578287015190505b618b3d8582618abf565b865550618ba5565b601f198416618b538661892f565b60005b82811015618b7b57848901518255600182019150602085019450602081019050618b56565b86831015618b985784890151618b94601f891682618aa1565b8355505b6001600288020188555050505b505050505050565b600067ffffffffffffffff821115618bc857618bc7616b92565b5b602082029050602081019050919050565b6000618bec618be784616cda565b616bf2565b905082815260208101848484011115618c0857618c07616cd5565b5b618c13848285616ab7565b509392505050565b600082601f830112618c3057618c2f616b8d565b5b8151618c40848260208601618bd9565b91505092915050565b6000618c5c618c5784618bad565b616bf2565b90508083825260208201905060208402830185811115618c7f57618c7e616c39565b5b835b81811015618cc657805167ffffffffffffffff811115618ca457618ca3616b8d565b5b808601618cb18982618c1b565b85526020850194505050602081019050618c81565b5050509392505050565b600082601f830112618ce557618ce4616b8d565b5b8151618cf5848260208601618c49565b91505092915050565b600060208284031215618d1457618d136168ab565b5b600082015167ffffffffffffffff811115618d3257618d316168b0565b5b618d3e84828501618cd0565b9150509291505056fea26469706673582212205cfa55ddf9dddcad027b765cd14a7aab64e2e48c6ac5752cd88c3b3d485ba90564736f6c63430008110033",
  "linkReferences": {},
  "deployedLinkReferences": {}
}