{
  "_format": "hh-sol-artifact-1",
  "contractName": "ProductShards",
  "sourceName": "contracts/ProductShards.sol",
  "abi": [
    {
      "inputs": [
        {
          "internalType": "string",
          "name": "uri_",
          "type": "string"
        },
        {
          "internalType": "address",
          "name": "productNFT_",
          "type": "address"
        }
      ],
      "stateMutability": "nonpayable",
      "type": "constructor"
    },
    {
      "anonymous": false,
      "inputs": [
        {
          "indexed": true,
          "internalType": "address",
          "name": "account",
          "type": "address"
        },
        {
          "indexed": true,
          "internalType": "address",
          "name": "operator",
          "type": "address"
        },
        {
          "indexed": false,
          "internalType": "bool",
          "name": "approved",
          "type": "bool"
        }
      ],
      "name": "ApprovalForAll",
      "type": "event"
    },
    {
      "anonymous": false,
      "inputs": [
        {
          "indexed": false,
          "internalType": "uint256",
          "name": "productUID",
          "type": "uint256"
        },
        {
          "indexed": false,
          "internalType": "address[]",
          "name": "dataOwners",
          "type": "address[]"
        },
        {
          "indexed": false,
          "internalType": "uint256[]",
          "name": "shardAmount",
          "type": "uint256[]"
        }
      ],
      "name": "FutureShardDistributed",
      "type": "event"
    },
    {
      "anonymous": false,
      "inputs": [
        {
          "indexed": false,
          "internalType": "uint256",
          "name": "productUID",
          "type": "uint256"
        },
        {
          "indexed": false,
          "internalType": "address[]",
          "name": "dataOwners",
          "type": "address[]"
        },
        {
          "indexed": false,
          "internalType": "uint256[]",
          "name": "shardAmount",
          "type": "uint256[]"
        }
      ],
      "name": "InitialShardDistributed",
      "type": "event"
    },
    {
      "anonymous": false,
      "inputs": [
        {
          "indexed": true,
          "internalType": "address",
          "name": "previousOwner",
          "type": "address"
        },
        {
          "indexed": true,
          "internalType": "address",
          "name": "newOwner",
          "type": "address"
        }
      ],
      "name": "OwnershipTransferred",
      "type": "event"
    },
    {
      "anonymous": false,
      "inputs": [
        {
          "indexed": false,
          "internalType": "address",
          "name": "account",
          "type": "address"
        }
      ],
      "name": "Paused",
      "type": "event"
    },
    {
      "anonymous": false,
      "inputs": [
        {
          "indexed": false,
          "internalType": "uint256",
          "name": "productUID",
          "type": "uint256"
        },
        {
          "indexed": false,
          "internalType": "address",
          "name": "rejuve",
          "type": "address"
        },
        {
          "indexed": false,
          "internalType": "uint256",
          "name": "shardAmount",
          "type": "uint256"
        }
      ],
      "name": "RemainingShardAssigned",
      "type": "event"
    },
    {
      "anonymous": false,
      "inputs": [
        {
          "indexed": true,
          "internalType": "address",
          "name": "operator",
          "type": "address"
        },
        {
          "indexed": true,
          "internalType": "address",
          "name": "from",
          "type": "address"
        },
        {
          "indexed": true,
          "internalType": "address",
          "name": "to",
          "type": "address"
        },
        {
          "indexed": false,
          "internalType": "uint256[]",
          "name": "ids",
          "type": "uint256[]"
        },
        {
          "indexed": false,
          "internalType": "uint256[]",
          "name": "values",
          "type": "uint256[]"
        }
      ],
      "name": "TransferBatch",
      "type": "event"
    },
    {
      "anonymous": false,
      "inputs": [
        {
          "indexed": true,
          "internalType": "address",
          "name": "operator",
          "type": "address"
        },
        {
          "indexed": true,
          "internalType": "address",
          "name": "from",
          "type": "address"
        },
        {
          "indexed": true,
          "internalType": "address",
          "name": "to",
          "type": "address"
        },
        {
          "indexed": false,
          "internalType": "uint256",
          "name": "id",
          "type": "uint256"
        },
        {
          "indexed": false,
          "internalType": "uint256",
          "name": "value",
          "type": "uint256"
        }
      ],
      "name": "TransferSingle",
      "type": "event"
    },
    {
      "anonymous": false,
      "inputs": [
        {
          "indexed": false,
          "internalType": "string",
          "name": "value",
          "type": "string"
        },
        {
          "indexed": true,
          "internalType": "uint256",
          "name": "id",
          "type": "uint256"
        }
      ],
      "name": "URI",
      "type": "event"
    },
    {
      "anonymous": false,
      "inputs": [
        {
          "indexed": false,
          "internalType": "address",
          "name": "account",
          "type": "address"
        }
      ],
      "name": "Unpaused",
      "type": "event"
    },
    {
      "inputs": [
        {
          "internalType": "address",
          "name": "account",
          "type": "address"
        },
        {
          "internalType": "uint256",
          "name": "id",
          "type": "uint256"
        }
      ],
      "name": "balanceOf",
      "outputs": [
        {
          "internalType": "uint256",
          "name": "",
          "type": "uint256"
        }
      ],
      "stateMutability": "view",
      "type": "function"
    },
    {
      "inputs": [
        {
          "internalType": "address[]",
          "name": "accounts",
          "type": "address[]"
        },
        {
          "internalType": "uint256[]",
          "name": "ids",
          "type": "uint256[]"
        }
      ],
      "name": "balanceOfBatch",
      "outputs": [
        {
          "internalType": "uint256[]",
          "name": "",
          "type": "uint256[]"
        }
      ],
      "stateMutability": "view",
      "type": "function"
    },
    {
      "inputs": [
        {
          "internalType": "uint256",
          "name": "_productUID",
          "type": "uint256"
        },
        {
          "internalType": "uint8",
          "name": "_futurePercent",
          "type": "uint8"
        },
        {
          "internalType": "uint256[]",
          "name": "_credits",
          "type": "uint256[]"
        },
        {
          "internalType": "address[]",
          "name": "_futureContributors",
          "type": "address[]"
        }
      ],
      "name": "distributeFutureShards",
      "outputs": [],
      "stateMutability": "nonpayable",
      "type": "function"
    },
    {
      "inputs": [
        {
          "internalType": "uint256",
          "name": "_productUID",
          "type": "uint256"
        },
        {
          "internalType": "uint256",
          "name": "_targetSupply",
          "type": "uint256"
        },
        {
          "internalType": "uint256",
          "name": "_labCredit",
          "type": "uint256"
        },
        {
          "internalType": "uint256",
          "name": "_lockPeriod",
          "type": "uint256"
        },
        {
          "internalType": "uint8",
          "name": "_initialPercent",
          "type": "uint8"
        },
        {
          "internalType": "uint8",
          "name": "_rejuvePercent",
          "type": "uint8"
        },
        {
          "internalType": "address",
          "name": "_lab",
          "type": "address"
        },
        {
          "internalType": "address",
          "name": "_rejuve",
          "type": "address"
        }
      ],
      "name": "distributeInitialShards",
      "outputs": [],
      "stateMutability": "nonpayable",
      "type": "function"
    },
    {
      "inputs": [
        {
          "internalType": "uint256",
          "name": "_productUID",
          "type": "uint256"
        }
      ],
      "name": "futurePercent",
      "outputs": [
        {
          "internalType": "uint8",
          "name": "",
          "type": "uint8"
        }
      ],
      "stateMutability": "view",
      "type": "function"
    },
    {
      "inputs": [
        {
          "internalType": "uint256",
          "name": "_productUID",
          "type": "uint256"
        }
      ],
      "name": "initialPercent",
      "outputs": [
        {
          "internalType": "uint8",
          "name": "",
          "type": "uint8"
        }
      ],
      "stateMutability": "view",
      "type": "function"
    },
    {
      "inputs": [
        {
          "internalType": "address",
          "name": "account",
          "type": "address"
        },
        {
          "internalType": "address",
          "name": "operator",
          "type": "address"
        }
      ],
      "name": "isApprovedForAll",
      "outputs": [
        {
          "internalType": "bool",
          "name": "",
          "type": "bool"
        }
      ],
      "stateMutability": "view",
      "type": "function"
    },
    {
      "inputs": [
        {
          "internalType": "uint256",
          "name": "_productUID",
          "type": "uint256"
        }
      ],
      "name": "lockPeriod",
      "outputs": [
        {
          "internalType": "uint256",
          "name": "",
          "type": "uint256"
        }
      ],
      "stateMutability": "view",
      "type": "function"
    },
    {
      "inputs": [
        {
          "internalType": "uint256",
          "name": "_productUID",
          "type": "uint256"
        },
        {
          "internalType": "address",
          "name": "_holder",
          "type": "address"
        }
      ],
      "name": "mintRemainingShards",
      "outputs": [],
      "stateMutability": "nonpayable",
      "type": "function"
    },
    {
      "inputs": [],
      "name": "owner",
      "outputs": [
        {
          "internalType": "address",
          "name": "",
          "type": "address"
        }
      ],
      "stateMutability": "view",
      "type": "function"
    },
    {
      "inputs": [],
      "name": "pause",
      "outputs": [],
      "stateMutability": "nonpayable",
      "type": "function"
    },
    {
      "inputs": [],
      "name": "paused",
      "outputs": [
        {
          "internalType": "bool",
          "name": "",
          "type": "bool"
        }
      ],
      "stateMutability": "view",
      "type": "function"
    },
    {
      "inputs": [
        {
          "internalType": "uint256",
          "name": "_productUID",
          "type": "uint256"
        }
      ],
      "name": "rejuvePercent",
      "outputs": [
        {
          "internalType": "uint8",
          "name": "",
          "type": "uint8"
        }
      ],
      "stateMutability": "view",
      "type": "function"
    },
    {
      "inputs": [],
      "name": "renounceOwnership",
      "outputs": [],
      "stateMutability": "nonpayable",
      "type": "function"
    },
    {
      "inputs": [
        {
          "internalType": "address",
          "name": "from",
          "type": "address"
        },
        {
          "internalType": "address",
          "name": "to",
          "type": "address"
        },
        {
          "internalType": "uint256[]",
          "name": "ids",
          "type": "uint256[]"
        },
        {
          "internalType": "uint256[]",
          "name": "amounts",
          "type": "uint256[]"
        },
        {
          "internalType": "bytes",
          "name": "data",
          "type": "bytes"
        }
      ],
      "name": "safeBatchTransferFrom",
      "outputs": [],
      "stateMutability": "nonpayable",
      "type": "function"
    },
    {
      "inputs": [
        {
          "internalType": "address",
          "name": "from",
          "type": "address"
        },
        {
          "internalType": "address",
          "name": "to",
          "type": "address"
        },
        {
          "internalType": "uint256",
          "name": "id",
          "type": "uint256"
        },
        {
          "internalType": "uint256",
          "name": "amount",
          "type": "uint256"
        },
        {
          "internalType": "bytes",
          "name": "data",
          "type": "bytes"
        }
      ],
      "name": "safeTransferFrom",
      "outputs": [],
      "stateMutability": "nonpayable",
      "type": "function"
    },
    {
      "inputs": [
        {
          "internalType": "address",
          "name": "operator",
          "type": "address"
        },
        {
          "internalType": "bool",
          "name": "approved",
          "type": "bool"
        }
      ],
      "name": "setApprovalForAll",
      "outputs": [],
      "stateMutability": "nonpayable",
      "type": "function"
    },
    {
      "inputs": [
        {
          "internalType": "bytes4",
          "name": "interfaceId",
          "type": "bytes4"
        }
      ],
      "name": "supportsInterface",
      "outputs": [
        {
          "internalType": "bool",
          "name": "",
          "type": "bool"
        }
      ],
      "stateMutability": "view",
      "type": "function"
    },
    {
      "inputs": [
        {
          "internalType": "uint256",
          "name": "_productUID",
          "type": "uint256"
        }
      ],
      "name": "targetSupply",
      "outputs": [
        {
          "internalType": "uint256",
          "name": "",
          "type": "uint256"
        }
      ],
      "stateMutability": "view",
      "type": "function"
    },
    {
      "inputs": [
        {
          "internalType": "uint256",
          "name": "_productUID",
          "type": "uint256"
        }
      ],
      "name": "totalShardSupply",
      "outputs": [
        {
          "internalType": "uint256",
          "name": "",
          "type": "uint256"
        }
      ],
      "stateMutability": "view",
      "type": "function"
    },
    {
      "inputs": [
        {
          "internalType": "address",
          "name": "newOwner",
          "type": "address"
        }
      ],
      "name": "transferOwnership",
      "outputs": [],
      "stateMutability": "nonpayable",
      "type": "function"
    },
    {
      "inputs": [],
      "name": "unpause",
      "outputs": [],
      "stateMutability": "nonpayable",
      "type": "function"
    },
    {
      "inputs": [
        {
          "internalType": "uint256",
          "name": "",
          "type": "uint256"
        }
      ],
      "name": "uri",
      "outputs": [
        {
          "internalType": "string",
          "name": "",
          "type": "string"
        }
      ],
      "stateMutability": "view",
      "type": "function"
    }
  ],
  "bytecode": "0x60806040523480156200001157600080fd5b506040516200369138038062003691833981016040819052620000349162000115565b81620000403362000080565b6000805460ff60a01b191690556200005881620000d0565b50600480546001600160a01b0319166001600160a01b03929092169190911790555062000358565b600080546001600160a01b038381166001600160a01b0319831681178455604051919092169283917f8be0079c531659141344cd1fd0a4f28419497f9722a3daafe3b4186f6b6457e09190a35050565b6003620000de82826200028c565b5050565b634e487b7160e01b600052604160045260246000fd5b80516001600160a01b03811681146200011057600080fd5b919050565b600080604083850312156200012957600080fd5b82516001600160401b03808211156200014157600080fd5b818501915085601f8301126200015657600080fd5b8151818111156200016b576200016b620000e2565b604051601f8201601f19908116603f01168101908382118183101715620001965762000196620000e2565b81604052828152602093508884848701011115620001b357600080fd5b600091505b82821015620001d75784820184015181830185015290830190620001b8565b6000848483010152809650505050620001f2818601620000f8565b925050509250929050565b600181811c908216806200021257607f821691505b6020821081036200023357634e487b7160e01b600052602260045260246000fd5b50919050565b601f8211156200028757600081815260208120601f850160051c81016020861015620002625750805b601f850160051c820191505b8181101562000283578281556001016200026e565b5050505b505050565b81516001600160401b03811115620002a857620002a8620000e2565b620002c081620002b98454620001fd565b8462000239565b602080601f831160018114620002f85760008415620002df5750858301515b600019600386901b1c1916600185901b17855562000283565b600085815260208120601f198616915b82811015620003295788860151825594840194600190910190840162000308565b5085821015620003485787850151600019600388901b60f8161c191681555b5050505050600190811b01905550565b61332980620003686000396000f3fe608060405234801561001057600080fd5b506004361061014c5760003560e01c80635c975abb116100c3578063a22cb4651161007c578063a22cb4651461031f578063d6e0dbda14610332578063e985e9c514610355578063ef27c77314610391578063f242432a146103b4578063f2fde38b146103c757600080fd5b80635c975abb146102ac578063715018a6146102be5780638456cb59146102c65780638da5cb5b146102ce578063936906f1146102e9578063a07b4d901461030c57600080fd5b806334e1f1ca1161011557806334e1f1ca146101e25780633df835fb146102205780633f4ba83a1461024b5780634567db03146102535780634e1273f4146102665780634e90e0f51461028657600080fd5b8062fdd58e1461015157806301ffc9a7146101775780630e89341c1461019a57806325d845db146101ba5780632eb2c2d6146101cf575b600080fd5b61016461015f3660046124c4565b6103da565b6040519081526020015b60405180910390f35b61018a610185366004612506565b610476565b604051901515815260200161016e565b6101ad6101a8366004612523565b6104c6565b60405161016e919061258c565b6101cd6101c836600461259f565b61055a565b005b6101cd6101dd36600461272b565b6105bc565b61020e6101f0366004612523565b6000908152600a602052604090206004015462010000900460ff1690565b60405160ff909116815260200161016e565b61020e61022e366004612523565b6000908152600a6020526040902060040154610100900460ff1690565b6101cd610653565b6101cd61026136600461285e565b610687565b6102796102743660046128dc565b6106ed565b60405161016e919061297b565b61020e610294366004612523565b6000908152600a602052604090206004015460ff1690565b600054600160a01b900460ff1661018a565b6101cd610817565b6101cd61084b565b6000546040516001600160a01b03909116815260200161016e565b6101646102f7366004612523565b6000908152600a602052604090206001015490565b6101cd61031a36600461298e565b61087d565b6101cd61032d366004612a0f565b6108eb565b610164610340366004612523565b6000908152600a602052604090206002015490565b61018a610363366004612a42565b6001600160a01b03918216600090815260026020908152604080832093909416825291909152205460ff1690565b61016461039f366004612523565b6000908152600a602052604090206003015490565b6101cd6103c2366004612a70565b6108f6565b6101cd6103d5366004612ad9565b610a09565b60006001600160a01b03831661044b5760405162461bcd60e51b815260206004820152602b60248201527f455243313135353a2062616c616e636520717565727920666f7220746865207a60448201526a65726f206164647265737360a81b60648201526084015b60405180910390fd5b5060008181526001602090815260408083206001600160a01b03861684529091529020545b92915050565b60006001600160e01b03198216636cdb3d1360e11b14806104a757506001600160e01b031982166303a24d0760e21b145b8061047057506301ffc9a760e01b6001600160e01b0319831614610470565b6060600380546104d590612af6565b80601f016020809104026020016040519081016040528092919081815260200182805461050190612af6565b801561054e5780601f106105235761010080835404028352916020019161054e565b820191906000526020600020905b81548152906001019060200180831161053157829003601f168201915b50505050509050919050565b6000546001600160a01b031633146105845760405162461bcd60e51b815260040161044290612b30565b600054600160a01b900460ff16156105ae5760405162461bcd60e51b815260040161044290612b65565b6105b88282610aa4565b5050565b6001600160a01b0385163314806105d857506105d88533610363565b61063f5760405162461bcd60e51b815260206004820152603260248201527f455243313135353a207472616e736665722063616c6c6572206973206e6f74206044820152711bdddb995c881b9bdc88185c1c1c9bdd995960721b6064820152608401610442565b61064c8585858585610c5a565b5050505050565b6000546001600160a01b0316331461067d5760405162461bcd60e51b815260040161044290612b30565b610685610df9565b565b6000546001600160a01b031633146106b15760405162461bcd60e51b815260040161044290612b30565b600054600160a01b900460ff16156106db5760405162461bcd60e51b815260040161044290612b65565b6106e784848484610e96565b50505050565b606081518351146107525760405162461bcd60e51b815260206004820152602960248201527f455243313135353a206163636f756e747320616e6420696473206c656e677468604482015268040dad2e6dac2e8c6d60bb1b6064820152608401610442565b6000835167ffffffffffffffff81111561076e5761076e6125cf565b604051908082528060200260200182016040528015610797578160200160208202803683370190505b50905060005b845181101561080f576107e28582815181106107bb576107bb612b8f565b60200260200101518583815181106107d5576107d5612b8f565b60200260200101516103da565b8282815181106107f4576107f4612b8f565b602090810291909101015261080881612bbb565b905061079d565b509392505050565b6000546001600160a01b031633146108415760405162461bcd60e51b815260040161044290612b30565b610685600061111d565b6000546001600160a01b031633146108755760405162461bcd60e51b815260040161044290612b30565b61068561116d565b6000546001600160a01b031633146108a75760405162461bcd60e51b815260040161044290612b30565b600054600160a01b900460ff16156108d15760405162461bcd60e51b815260040161044290612b65565b6108e188888888888888886111d2565b5050505050505050565b6105b8338383611276565b60408051808201825260068152651313d0d2d15160d21b6020918201526000858152600e90915281902090517feb4a01a12a4bbfa1bc780c16c5b2b6720cdf4f3c29cabd8c0f76fec3a575096b9161094d91612bd4565b6040518091039020036109fc576000838152600d60209081526040808320548352600c90915290205442116109ea5760405162461bcd60e51b815260206004820152603760248201527f52454a5556453a2043616e6e6f742073616c6520353025206f6620736861726460448201527f73206265666f7265206c6f636b696e6720706572696f640000000000000000006064820152608401610442565b6109f78585858585611356565b61064c565b61064c8585858585611356565b6000546001600160a01b03163314610a335760405162461bcd60e51b815260040161044290612b30565b6001600160a01b038116610a985760405162461bcd60e51b815260206004820152602660248201527f4f776e61626c653a206e6577206f776e657220697320746865207a65726f206160448201526564647265737360d01b6064820152608401610442565b610aa18161111d565b50565b60095460ff168015610abd5750600954610100900460ff165b610b2f5760405162461bcd60e51b815260206004820152603960248201527f52454a5556453a2043616e6e6f74206d696e74206265666f726520696e69746960448201527f616c20262066757475726520646973747269627574696f6e20000000000000006064820152608401610442565b6000828152600a6020526040812060028101546001820154919291610b549190612c4a565b905080156106e757808260020154610b6c9190612c5d565b60028301556000610b7c82611407565b905060005b8151811015610c09576000868152600b602052604090208054610bf791879184908110610bb057610bb0612b8f565b9060005260206000200154848481518110610bcd57610bcd612b8f565b6020026020010151604051806040016040528060048152602001630307830360e41b81525061148a565b80610c0181612bbb565b915050610b81565b50604080518681526001600160a01b03861660208201529081018390527ffadbf7e144501599e9af4378b9f7ace20f5f3f72e8b225a8a713e092cf7bd2319060600160405180910390a15050505050565b8151835114610c7b5760405162461bcd60e51b815260040161044290612c70565b6001600160a01b038416610ca15760405162461bcd60e51b815260040161044290612cb8565b3360005b8451811015610d8b576000858281518110610cc257610cc2612b8f565b602002602001015190506000858381518110610ce057610ce0612b8f565b60209081029190910181015160008481526001835260408082206001600160a01b038e168352909352919091205490915081811015610d315760405162461bcd60e51b815260040161044290612cfd565b60008381526001602090815260408083206001600160a01b038e8116855292528083208585039055908b16825281208054849290610d70908490612c5d565b9250508190555050505080610d8490612bbb565b9050610ca5565b50846001600160a01b0316866001600160a01b0316826001600160a01b03167f4a39dc06d4c0dbc64b70af90fd698a233a518aa5d07e595d983b8c0526c8f7fb8787604051610ddb929190612d47565b60405180910390a4610df181878787878761155c565b505050505050565b600054600160a01b900460ff16610e495760405162461bcd60e51b815260206004820152601460248201527314185d5cd8589b194e881b9bdd081c185d5cd95960621b6044820152606401610442565b6000805460ff60a01b191690557f5db9ee0a495bf2e6ff9c91a7834c1ba4fdd244a5e8aa4e537bd38aeae4b073aa335b6040516001600160a01b03909116815260200160405180910390a1565b8151815114610ee75760405162461bcd60e51b815260206004820152601860248201527f52454a5556453a204e6f7420657175616c206c656e67746800000000000000006044820152606401610442565b8260ff16600003610f515760405162461bcd60e51b815260206004820152602e60248201527f52454a5556453a204675747572652070657263656e746167652073686172652060448201526d63616e6e6f74206265207a65726f60901b6064820152608401610442565b6000848152600a6020526040812060048101805462ff000019166201000060ff88160217905590610f81846116c0565b905060005b83518110156110c9576000610fbd868381518110610fa657610fa6612b8f565b6020026020010151848960ff16876001015461170f565b90506000610fca82611407565b905061106e868481518110610fe157610fe1612b8f565b6020026020010151600b60008c815260200190815260200160002080548060200260200160405190810160405280929190818152602001828054801561104657602002820191906000526020600020905b815481526020019060010190808311611032575b505050505083604051806040016040528060048152602001630307830360e41b81525061175c565b81856002015461107e9190612c5d565b600286015550600880546001810182556000919091527ff3f7a9fe364faab93b216da50a3214154f22a0a2b415b23a84c8169e8b636ee30155806110c181612bbb565b915050610f86565b507f621e1a59d70685f53a28114e1229586ecd6908416f6bfaee0e147c3d34f39845868460086040516110fe93929190612daa565b60405180910390a150506009805461ff00191661010017905550505050565b600080546001600160a01b038381166001600160a01b0319831681178455604051919092169283917f8be0079c531659141344cd1fd0a4f28419497f9722a3daafe3b4186f6b6457e09190a35050565b600054600160a01b900460ff16156111975760405162461bcd60e51b815260040161044290612b65565b6000805460ff60a01b1916600160a01b1790557f62e78cea01bee320cd4e420270b5ea74000d11b0c9f74754ebdbfc544b05a258610e793390565b6111dc88866118a8565b6000888152600c60205260409020546111fa90899089908787611923565b61120388611972565b61121388888660ff168986611a67565b6112228888838660ff16611e2b565b7fb79a1263d65160537b9075e0e4747a6007a82fb191be4435b4c508c431920b89886006600760405161125793929190612e08565b60405180910390a150506009805460ff19166001179055505050505050565b816001600160a01b0316836001600160a01b0316036112e95760405162461bcd60e51b815260206004820152602960248201527f455243313135353a2073657474696e6720617070726f76616c20737461747573604482015268103337b91039b2b63360b91b6064820152608401610442565b6001600160a01b03838116600081815260026020908152604080832094871680845294825291829020805460ff191686151590811790915591519182527f17307eab39ab6107e8899845ad3d59bd9653f200f220920489ca2b5937696c31910160405180910390a3505050565b600054600160a01b900460ff16156113805760405162461bcd60e51b815260040161044290612b65565b6001600160a01b03851633148061139c575061139c8533610363565b6113fa5760405162461bcd60e51b815260206004820152602960248201527f455243313135353a2063616c6c6572206973206e6f74206f776e6572206e6f7260448201526808185c1c1c9bdd995960ba1b6064820152608401610442565b61064c8585858585611f35565b6040805160028082526060808301845292600092919060208301908036833701905050905060006114378461204d565b9050808260008151811061144d5761144d612b8f565b60209081029190910101526114628185612c4a565b9350838260018151811061147857611478612b8f565b60209081029190910101525092915050565b6001600160a01b0384166114b05760405162461bcd60e51b815260040161044290612e57565b336114ca816000876114c18861206e565b61064c8861206e565b60008481526001602090815260408083206001600160a01b0389168452909152812080548592906114fc908490612c5d565b909155505060408051858152602081018590526001600160a01b0380881692600092918516917fc3d58168c5ae7397731d063d5bbf3d657854427343f4c083240f7aacaa2d0f62910160405180910390a461064c816000878787876120b9565b6001600160a01b0384163b15610df15760405163bc197c8160e01b81526001600160a01b0385169063bc197c81906115a09089908990889088908890600401612e98565b6020604051808303816000875af19250505080156115db575060408051601f3d908101601f191682019092526115d891810190612eea565b60015b611687576115e7612f07565b806308c379a00361162057506115fb612f23565b806116065750611622565b8060405162461bcd60e51b8152600401610442919061258c565b505b60405162461bcd60e51b815260206004820152603460248201527f455243313135353a207472616e7366657220746f206e6f6e20455243313135356044820152732932b1b2b4bb32b91034b6b83632b6b2b73a32b960611b6064820152608401610442565b6001600160e01b0319811663bc197c8160e01b146116b75760405162461bcd60e51b815260040161044290612fad565b50505050505050565b60008060005b8351811015611708578381815181106116e1576116e1612b8f565b6020026020010151826116f49190612c5d565b91508061170081612bbb565b9150506116c6565b5092915050565b6000808461171e876064612ff5565b611728919061300c565b905060006117368486612174565b9050600060646117468484612ff5565b611750919061300c565b98975050505050505050565b6001600160a01b0384166117825760405162461bcd60e51b815260040161044290612e57565b81518351146117a35760405162461bcd60e51b815260040161044290612c70565b3360005b8451811015611840578381815181106117c2576117c2612b8f565b6020026020010151600160008784815181106117e0576117e0612b8f565b602002602001015181526020019081526020016000206000886001600160a01b03166001600160a01b0316815260200190815260200160002060008282546118289190612c5d565b9091555081905061183881612bbb565b9150506117a7565b50846001600160a01b031660006001600160a01b0316826001600160a01b03167f4a39dc06d4c0dbc64b70af90fd698a233a518aa5d07e595d983b8c0526c8f7fb8787604051611891929190612d47565b60405180910390a461064c8160008787878761155c565b806000036119035760405162461bcd60e51b815260206004820152602260248201527f52454a5556453a204c6f636b20706572696f642063616e6e6f74206265207a65604482015261726f60f01b6064820152608401610442565b61190d4282612c5d565b6000928352600c60205260409092209190915550565b61192d8483612195565b6000858152600a60205260409020948555600185019390935560038401919091556004909201805460ff93841661ffff19909116176101009390921692909202179055565b60408051600280825260608201909252600091816020015b606081526020019060019003908161198a579050509050604051806040016040528060068152602001651313d0d2d15160d21b815250816000815181106119d3576119d3612b8f565b60200260200101819052506040518060400160405280600681526020016515149051115160d21b81525081600181518110611a1057611a10612b8f565b602002602001018190525060005b81518160ff161015611a6257611a5083838360ff1681518110611a4357611a43612b8f565b602002602001015161225d565b80611a5a8161302e565b915050611a1e565b505050565b6000611a72866122fc565b90506000611a7f87612371565b6000888152600a60205260409020909150611a9a8583612c5d565b915060005b600480546040516384ffeca560e01b81529182018b90526001600160a01b0316906384ffeca590602401602060405180830381865afa158015611ae6573d6000803e3d6000fd5b505050506040513d601f19601f82011682018060405250810190611b0a919061304d565b811015611d755760045484516000916001600160a01b0316906359a96ffe90879085908110611b3b57611b3b612b8f565b60200260200101516040518263ffffffff1660e01b8152600401611b5f919061258c565b602060405180830381865afa158015611b7c573d6000803e3d6000fd5b505050506040513d601f19601f82011682018060405250810190611ba09190613066565b6004548651919250600091611c40916001600160a01b031690630e47cefa90899087908110611bd157611bd1612b8f565b60200260200101518e6040518363ffffffff1660e01b8152600401611bf7929190613083565b602060405180830381865afa158015611c14573d6000803e3d6000fd5b505050506040513d601f19601f82011682018060405250810190611c38919061304d565b868b8d61170f565b90506000611c4d82611407565b60008d8152600b60209081526040918290208054835181840281018401909452808452939450611ccf93879392830182828015611046576020028201919060005260206000209081548152602001906001019080831161103257505050505083604051806040016040528060048152602001630307830360e41b81525061175c565b818560020154611cdf9190612c5d565b6002860155506006805460018082019092557ff652222313e28459528d920b65115c16c04f3efc82aaedc97be59f3f377c0d3f0180546001600160a01b0319166001600160a01b0394909416939093179092556007805492830181556000527fa66cc928b5edb82af9bd49922954155ab7b0942694bea4ce44661d9a8736c6889091015580611d6d81612bbb565b915050611a9f565b506000611d86898688868b8d61243f565b9050808260020154611d989190612c5d565b6002909201919091556006805460018181019092557ff652222313e28459528d920b65115c16c04f3efc82aaedc97be59f3f377c0d3f0180546001600160a01b039096166001600160a01b0319909616959095179094556007805494850181556000527fa66cc928b5edb82af9bd49922954155ab7b0942694bea4ce44661d9a8736c68890930192909255505050505050565b6000848152600a6020526040812090611e448584612174565b9050808260020154611e569190612c5d565b60028301556000611e6682611407565b905060005b8151811015611eac576000888152600b602052604090208054611e9a91889184908110610bb057610bb0612b8f565b80611ea481612bbb565b915050611e6b565b50506006805460018082019092557ff652222313e28459528d920b65115c16c04f3efc82aaedc97be59f3f377c0d3f0180546001600160a01b0319166001600160a01b0396909616959095179094556007805494850181556000527fa66cc928b5edb82af9bd49922954155ab7b0942694bea4ce44661d9a8736c6889093019290925550505050565b6001600160a01b038416611f5b5760405162461bcd60e51b815260040161044290612cb8565b33611f6b8187876114c18861206e565b60008481526001602090815260408083206001600160a01b038a16845290915290205483811015611fae5760405162461bcd60e51b815260040161044290612cfd565b60008581526001602090815260408083206001600160a01b038b8116855292528083208785039055908816825281208054869290611fed908490612c5d565b909155505060408051868152602081018690526001600160a01b03808916928a821692918616917fc3d58168c5ae7397731d063d5bbf3d657854427343f4c083240f7aacaa2d0f62910160405180910390a46116b78288888888886120b9565b600080606461205d846032612ff5565b612067919061300c565b9392505050565b604080516001808252818301909252606091600091906020808301908036833701905050905082816000815181106120a8576120a8612b8f565b602090810291909101015292915050565b6001600160a01b0384163b15610df15760405163f23a6e6160e01b81526001600160a01b0385169063f23a6e61906120fd90899089908890889088906004016130a5565b6020604051808303816000875af1925050508015612138575060408051601f3d908101601f1916820190925261213591810190612eea565b60015b612144576115e7612f07565b6001600160e01b0319811663f23a6e6160e01b146116b75760405162461bcd60e51b815260040161044290612fad565b60008060646121838486612ff5565b61218d919061300c565b949350505050565b816000036121f05760405162461bcd60e51b815260206004820152602260248201527f52454a5556453a2054617267657420737570706c792063616e206e6f74206265604482015261020360f41b6064820152608401610442565b8060ff166000036105b85760405162461bcd60e51b815260206004820152603160248201527f52454a5556453a20496e697469616c20636f6e7472696275746f727320706572604482015270063656e742063616e206e6f74206265203607c1b6064820152608401610442565b600580546001810182556000919091527f036b6384b5eca791c62761152d0c79bb0604c104a5fb6f4eb0703f3154bb3db0016122998282613130565b506005546000906122ac90600190612c4a565b6000848152600b60209081526040808320805460018101825590845282842001849055838352600e90915290209091506122e68382613130565b506000908152600d602052604090209190915550565b6004805460405163c9187fe760e01b81529182018390526060916000916001600160a01b03169063c9187fe790602401600060405180830381865afa158015612349573d6000803e3d6000fd5b505050506040513d6000823e601f3d908101601f1916820160405261206791908101906131f0565b60008061237d836122fc565b90506000805b825181101561080f5760045483516000916001600160a01b031690630e47cefa908690859081106123b6576123b6612b8f565b6020026020010151886040518363ffffffff1660e01b81526004016123dc929190613083565b602060405180830381865afa1580156123f9573d6000803e3d6000fd5b505050506040513d601f19601f8201168201806040525081019061241d919061304d565b90506124298184612c5d565b925050808061243790612bbb565b915050612383565b60008061244e8686868661170f565b9050600061245b82611407565b905060005b81518110156124a15760008a8152600b60205260409020805461248f918b9184908110610bb057610bb0612b8f565b8061249981612bbb565b915050612460565b509098975050505050505050565b6001600160a01b0381168114610aa157600080fd5b600080604083850312156124d757600080fd5b82356124e2816124af565b946020939093013593505050565b6001600160e01b031981168114610aa157600080fd5b60006020828403121561251857600080fd5b8135612067816124f0565b60006020828403121561253557600080fd5b5035919050565b60005b8381101561255757818101518382015260200161253f565b50506000910152565b6000815180845261257881602086016020860161253c565b601f01601f19169290920160200192915050565b6020815260006120676020830184612560565b600080604083850312156125b257600080fd5b8235915060208301356125c4816124af565b809150509250929050565b634e487b7160e01b600052604160045260246000fd5b601f8201601f1916810167ffffffffffffffff8111828210171561260b5761260b6125cf565b6040525050565b600067ffffffffffffffff82111561262c5761262c6125cf565b5060051b60200190565b600082601f83011261264757600080fd5b8135602061265482612612565b60405161266182826125e5565b83815260059390931b850182019282810191508684111561268157600080fd5b8286015b8481101561269c5780358352918301918301612685565b509695505050505050565b600067ffffffffffffffff8211156126c1576126c16125cf565b50601f01601f191660200190565b600082601f8301126126e057600080fd5b81356126eb816126a7565b6040516126f882826125e5565b82815285602084870101111561270d57600080fd5b82602086016020830137600092810160200192909252509392505050565b600080600080600060a0868803121561274357600080fd5b853561274e816124af565b9450602086013561275e816124af565b9350604086013567ffffffffffffffff8082111561277b57600080fd5b61278789838a01612636565b9450606088013591508082111561279d57600080fd5b6127a989838a01612636565b935060808801359150808211156127bf57600080fd5b506127cc888289016126cf565b9150509295509295909350565b803560ff811681146127ea57600080fd5b919050565b600082601f83011261280057600080fd5b8135602061280d82612612565b60405161281a82826125e5565b83815260059390931b850182019282810191508684111561283a57600080fd5b8286015b8481101561269c578035612851816124af565b835291830191830161283e565b6000806000806080858703121561287457600080fd5b84359350612884602086016127d9565b9250604085013567ffffffffffffffff808211156128a157600080fd5b6128ad88838901612636565b935060608701359150808211156128c357600080fd5b506128d0878288016127ef565b91505092959194509250565b600080604083850312156128ef57600080fd5b823567ffffffffffffffff8082111561290757600080fd5b612913868387016127ef565b9350602085013591508082111561292957600080fd5b5061293685828601612636565b9150509250929050565b600081518084526020808501945080840160005b8381101561297057815187529582019590820190600101612954565b509495945050505050565b6020815260006120676020830184612940565b600080600080600080600080610100898b0312156129ab57600080fd5b883597506020890135965060408901359550606089013594506129d060808a016127d9565b93506129de60a08a016127d9565b925060c08901356129ee816124af565b915060e08901356129fe816124af565b809150509295985092959890939650565b60008060408385031215612a2257600080fd5b8235612a2d816124af565b9150602083013580151581146125c457600080fd5b60008060408385031215612a5557600080fd5b8235612a60816124af565b915060208301356125c4816124af565b600080600080600060a08688031215612a8857600080fd5b8535612a93816124af565b94506020860135612aa3816124af565b93506040860135925060608601359150608086013567ffffffffffffffff811115612acd57600080fd5b6127cc888289016126cf565b600060208284031215612aeb57600080fd5b8135612067816124af565b600181811c90821680612b0a57607f821691505b602082108103612b2a57634e487b7160e01b600052602260045260246000fd5b50919050565b6020808252818101527f4f776e61626c653a2063616c6c6572206973206e6f7420746865206f776e6572604082015260600190565b60208082526010908201526f14185d5cd8589b194e881c185d5cd95960821b604082015260600190565b634e487b7160e01b600052603260045260246000fd5b634e487b7160e01b600052601160045260246000fd5b600060018201612bcd57612bcd612ba5565b5060010190565b6000808354612be281612af6565b60018281168015612bfa5760018114612c0f57612c3e565b60ff1984168752821515830287019450612c3e565b8760005260208060002060005b85811015612c355781548a820152908401908201612c1c565b50505082870194505b50929695505050505050565b8181038181111561047057610470612ba5565b8082018082111561047057610470612ba5565b60208082526028908201527f455243313135353a2069647320616e6420616d6f756e7473206c656e677468206040820152670dad2e6dac2e8c6d60c31b606082015260800190565b60208082526025908201527f455243313135353a207472616e7366657220746f20746865207a65726f206164604082015264647265737360d81b606082015260800190565b6020808252602a908201527f455243313135353a20696e73756666696369656e742062616c616e636520666f60408201526939103a3930b739b332b960b11b606082015260800190565b604081526000612d5a6040830185612940565b8281036020840152612d6c8185612940565b95945050505050565b6000815480845260208085019450836000528060002060005b8381101561297057815487529582019560019182019101612d8e565b6000606082018583526020606081850152818651808452608086019150828801935060005b81811015612df45784516001600160a01b031683529383019391830191600101612dcf565b505084810360408601526117508187612d75565b60006060820185835260206060818501528186548084526080860191508760005282600020935060005b81811015612df45784546001600160a01b031683526001948501949284019201612e32565b60208082526021908201527f455243313135353a206d696e7420746f20746865207a65726f206164647265736040820152607360f81b606082015260800190565b6001600160a01b0386811682528516602082015260a060408201819052600090612ec490830186612940565b8281036060840152612ed68186612940565b905082810360808401526117508185612560565b600060208284031215612efc57600080fd5b8151612067816124f0565b600060033d1115612f205760046000803e5060005160e01c5b90565b600060443d1015612f315790565b6040516003193d81016004833e81513d67ffffffffffffffff8160248401118184111715612f6157505050505090565b8285019150815181811115612f795750505050505090565b843d8701016020828501011115612f935750505050505090565b612fa2602082860101876125e5565b509095945050505050565b60208082526028908201527f455243313135353a204552433131353552656365697665722072656a656374656040820152676420746f6b656e7360c01b606082015260800190565b808202811582820484141761047057610470612ba5565b60008261302957634e487b7160e01b600052601260045260246000fd5b500490565b600060ff821660ff810361304457613044612ba5565b60010192915050565b60006020828403121561305f57600080fd5b5051919050565b60006020828403121561307857600080fd5b8151612067816124af565b6040815260006130966040830185612560565b90508260208301529392505050565b6001600160a01b03868116825285166020820152604081018490526060810183905260a0608082018190526000906130df90830184612560565b979650505050505050565b601f821115611a6257600081815260208120601f850160051c810160208610156131115750805b601f850160051c820191505b81811015610df15782815560010161311d565b815167ffffffffffffffff81111561314a5761314a6125cf565b61315e816131588454612af6565b846130ea565b602080601f831160018114613193576000841561317b5750858301515b600019600386901b1c1916600185901b178555610df1565b600085815260208120601f198616915b828110156131c2578886015182559484019460019091019084016131a3565b50858210156131e05787850151600019600388901b60f8161c191681555b5050505050600190811b01905550565b6000602080838503121561320357600080fd5b825167ffffffffffffffff8082111561321b57600080fd5b818501915085601f83011261322f57600080fd5b815161323a81612612565b6040805161324883826125e5565b83815260059390931b850186019286810192508984111561326857600080fd5b8686015b848110156132e5578051868111156132845760008081fd5b8701603f81018c136132965760008081fd5b888101516132a3816126a7565b85516132af82826125e5565b8281528e878486010111156132c657600091508182fd5b6132d5838d830189870161253c565b875250505092870192870161326c565b50999850505050505050505056fea2646970667358221220b4b2dbfacdb6ab470ffc550fadf7554ceae3c9d9dd291886df411f48892b344764736f6c63430008110033",
  "linkReferences": {},
  "deployedLinkReferences": {}
}