{
  "_format": "hh-sol-artifact-1",
  "contractName": "ProductShards",
  "sourceName": "contracts/ProductShards.sol",
  "abi": [
    {
      "inputs": [
        {
          "internalType": "string",
          "name": "_name",
          "type": "string"
        },
        {
          "internalType": "string",
          "name": "_symbol",
          "type": "string"
        },
        {
          "internalType": "address",
          "name": "_nftAddress",
          "type": "address"
        },
        {
          "internalType": "uint256",
          "name": "_nftId",
          "type": "uint256"
        },
        {
          "internalType": "uint256",
          "name": "_shareSupply",
          "type": "uint256"
        },
        {
          "internalType": "uint256",
          "name": "_sharePrice",
          "type": "uint256"
        }
      ],
      "stateMutability": "nonpayable",
      "type": "constructor"
    },
    {
      "anonymous": false,
      "inputs": [
        {
          "indexed": true,
          "internalType": "address",
          "name": "owner",
          "type": "address"
        },
        {
          "indexed": true,
          "internalType": "address",
          "name": "spender",
          "type": "address"
        },
        {
          "indexed": false,
          "internalType": "uint256",
          "name": "value",
          "type": "uint256"
        }
      ],
      "name": "Approval",
      "type": "event"
    },
    {
      "anonymous": false,
      "inputs": [
        {
          "indexed": true,
          "internalType": "address",
          "name": "from",
          "type": "address"
        },
        {
          "indexed": true,
          "internalType": "address",
          "name": "to",
          "type": "address"
        },
        {
          "indexed": false,
          "internalType": "uint256",
          "name": "value",
          "type": "uint256"
        }
      ],
      "name": "Transfer",
      "type": "event"
    },
    {
      "inputs": [],
      "name": "ProductNftID",
      "outputs": [
        {
          "internalType": "uint256",
          "name": "",
          "type": "uint256"
        }
      ],
      "stateMutability": "view",
      "type": "function"
    },
    {
      "inputs": [
        {
          "internalType": "address",
          "name": "owner",
          "type": "address"
        },
        {
          "internalType": "address",
          "name": "spender",
          "type": "address"
        }
      ],
      "name": "allowance",
      "outputs": [
        {
          "internalType": "uint256",
          "name": "",
          "type": "uint256"
        }
      ],
      "stateMutability": "view",
      "type": "function"
    },
    {
      "inputs": [
        {
          "internalType": "address",
          "name": "spender",
          "type": "address"
        },
        {
          "internalType": "uint256",
          "name": "amount",
          "type": "uint256"
        }
      ],
      "name": "approve",
      "outputs": [
        {
          "internalType": "bool",
          "name": "",
          "type": "bool"
        }
      ],
      "stateMutability": "nonpayable",
      "type": "function"
    },
    {
      "inputs": [
        {
          "internalType": "address",
          "name": "account",
          "type": "address"
        }
      ],
      "name": "balanceOf",
      "outputs": [
        {
          "internalType": "uint256",
          "name": "",
          "type": "uint256"
        }
      ],
      "stateMutability": "view",
      "type": "function"
    },
    {
      "inputs": [
        {
          "internalType": "uint256",
          "name": "_buyAmount",
          "type": "uint256"
        },
        {
          "internalType": "uint256",
          "name": "_productUID",
          "type": "uint256"
        }
      ],
      "name": "buyShare",
      "outputs": [],
      "stateMutability": "payable",
      "type": "function"
    },
    {
      "inputs": [],
      "name": "decimals",
      "outputs": [
        {
          "internalType": "uint8",
          "name": "",
          "type": "uint8"
        }
      ],
      "stateMutability": "view",
      "type": "function"
    },
    {
      "inputs": [
        {
          "internalType": "address",
          "name": "spender",
          "type": "address"
        },
        {
          "internalType": "uint256",
          "name": "subtractedValue",
          "type": "uint256"
        }
      ],
      "name": "decreaseAllowance",
      "outputs": [
        {
          "internalType": "bool",
          "name": "",
          "type": "bool"
        }
      ],
      "stateMutability": "nonpayable",
      "type": "function"
    },
    {
      "inputs": [
        {
          "internalType": "address",
          "name": "spender",
          "type": "address"
        },
        {
          "internalType": "uint256",
          "name": "addedValue",
          "type": "uint256"
        }
      ],
      "name": "increaseAllowance",
      "outputs": [
        {
          "internalType": "bool",
          "name": "",
          "type": "bool"
        }
      ],
      "stateMutability": "nonpayable",
      "type": "function"
    },
    {
      "inputs": [],
      "name": "name",
      "outputs": [
        {
          "internalType": "string",
          "name": "",
          "type": "string"
        }
      ],
      "stateMutability": "view",
      "type": "function"
    },
    {
      "inputs": [],
      "name": "nft",
      "outputs": [
        {
          "internalType": "contract IERC721",
          "name": "",
          "type": "address"
        }
      ],
      "stateMutability": "view",
      "type": "function"
    },
    {
      "inputs": [
        {
          "internalType": "address",
          "name": "",
          "type": "address"
        },
        {
          "internalType": "address",
          "name": "",
          "type": "address"
        },
        {
          "internalType": "uint256",
          "name": "",
          "type": "uint256"
        },
        {
          "internalType": "bytes",
          "name": "",
          "type": "bytes"
        }
      ],
      "name": "onERC721Received",
      "outputs": [
        {
          "internalType": "bytes4",
          "name": "",
          "type": "bytes4"
        }
      ],
      "stateMutability": "nonpayable",
      "type": "function"
    },
    {
      "inputs": [],
      "name": "parentToken",
      "outputs": [
        {
          "internalType": "address",
          "name": "_parentToken",
          "type": "address"
        }
      ],
      "stateMutability": "view",
      "type": "function"
    },
    {
      "inputs": [],
      "name": "parentTokenId",
      "outputs": [
        {
          "internalType": "uint256",
          "name": "_parentTokenId",
          "type": "uint256"
        }
      ],
      "stateMutability": "view",
      "type": "function"
    },
    {
      "inputs": [],
      "name": "productShareSupply",
      "outputs": [
        {
          "internalType": "uint256",
          "name": "",
          "type": "uint256"
        }
      ],
      "stateMutability": "view",
      "type": "function"
    },
    {
      "inputs": [],
      "name": "sharePrice",
      "outputs": [
        {
          "internalType": "uint256",
          "name": "",
          "type": "uint256"
        }
      ],
      "stateMutability": "view",
      "type": "function"
    },
    {
      "inputs": [],
      "name": "symbol",
      "outputs": [
        {
          "internalType": "string",
          "name": "",
          "type": "string"
        }
      ],
      "stateMutability": "view",
      "type": "function"
    },
    {
      "inputs": [],
      "name": "totalSupply",
      "outputs": [
        {
          "internalType": "uint256",
          "name": "",
          "type": "uint256"
        }
      ],
      "stateMutability": "view",
      "type": "function"
    },
    {
      "inputs": [
        {
          "internalType": "address",
          "name": "to",
          "type": "address"
        },
        {
          "internalType": "uint256",
          "name": "amount",
          "type": "uint256"
        }
      ],
      "name": "transfer",
      "outputs": [
        {
          "internalType": "bool",
          "name": "",
          "type": "bool"
        }
      ],
      "stateMutability": "nonpayable",
      "type": "function"
    },
    {
      "inputs": [
        {
          "internalType": "address",
          "name": "from",
          "type": "address"
        },
        {
          "internalType": "address",
          "name": "to",
          "type": "address"
        },
        {
          "internalType": "uint256",
          "name": "amount",
          "type": "uint256"
        }
      ],
      "name": "transferFrom",
      "outputs": [
        {
          "internalType": "bool",
          "name": "",
          "type": "bool"
        }
      ],
      "stateMutability": "nonpayable",
      "type": "function"
    },
    {
      "inputs": [
        {
          "internalType": "uint256",
          "name": "_tokenId",
          "type": "uint256"
        }
      ],
      "name": "transferNFTownership",
      "outputs": [],
      "stateMutability": "nonpayable",
      "type": "function"
    }
  ],
  "bytecode": "0x60806040523480156200001157600080fd5b506040516200114d3803806200114d83398101604081905262000034916200020f565b8551869086906200004d9060039060208501906200009c565b508051620000639060049060208401906200009c565b5050600880546001600160a01b0319166001600160a01b03969096169590951790945560079290925560055560065550620002f5915050565b828054620000aa90620002b8565b90600052602060002090601f016020900481019282620000ce576000855562000119565b82601f10620000e957805160ff191683800117855562000119565b8280016001018555821562000119579182015b8281111562000119578251825591602001919060010190620000fc565b50620001279291506200012b565b5090565b5b808211156200012757600081556001016200012c565b634e487b7160e01b600052604160045260246000fd5b600082601f8301126200016a57600080fd5b81516001600160401b038082111562000187576200018762000142565b604051601f8301601f19908116603f01168101908282118183101715620001b257620001b262000142565b81604052838152602092508683858801011115620001cf57600080fd5b600091505b83821015620001f35785820183015181830184015290820190620001d4565b83821115620002055760008385830101525b9695505050505050565b60008060008060008060c087890312156200022957600080fd5b86516001600160401b03808211156200024157600080fd5b6200024f8a838b0162000158565b975060208901519150808211156200026657600080fd5b506200027589828a0162000158565b604089015190965090506001600160a01b03811681146200029557600080fd5b80945050606087015192506080870151915060a087015190509295509295509295565b600181811c90821680620002cd57607f821691505b60208210811415620002ef57634e487b7160e01b600052602260045260246000fd5b50919050565b610e4880620003056000396000f3fe60806040526004361061011f5760003560e01c806370a08231116100a0578063a9059cbb11610064578063a9059cbb1461034d578063aca75a521461036d578063d7f083f314610380578063da7ee0b314610395578063dd62ed3e146103ab57600080fd5b806370a08231146102ae57806380a54001146102e4578063872697291461030257806395d89b4114610318578063a457c2d71461032d57600080fd5b8063313ce567116100e7578063313ce56714610202578063395093511461021e57806339e8c7bb1461023e57806346e186e91461026057806347ccca021461027657600080fd5b806306fdde0314610124578063095ea7b31461014f578063150b7a021461017f57806318160ddd146101c357806323b872dd146101e2575b600080fd5b34801561013057600080fd5b506101396103f1565b6040516101469190610b38565b60405180910390f35b34801561015b57600080fd5b5061016f61016a366004610ba9565b610483565b6040519015158152602001610146565b34801561018b57600080fd5b506101aa61019a366004610be9565b630a85bd0160e11b949350505050565b6040516001600160e01b03199091168152602001610146565b3480156101cf57600080fd5b506005545b604051908152602001610146565b3480156101ee57600080fd5b5061016f6101fd366004610cc5565b61049b565b34801561020e57600080fd5b5060405160128152602001610146565b34801561022a57600080fd5b5061016f610239366004610ba9565b6104bf565b34801561024a57600080fd5b5061025e610259366004610d01565b6104fe565b005b34801561026c57600080fd5b506101d460055481565b34801561028257600080fd5b50600854610296906001600160a01b031681565b6040516001600160a01b039091168152602001610146565b3480156102ba57600080fd5b506101d46102c9366004610d1a565b6001600160a01b031660009081526020819052604090205490565b3480156102f057600080fd5b506008546001600160a01b0316610296565b34801561030e57600080fd5b506101d460065481565b34801561032457600080fd5b5061013961056b565b34801561033957600080fd5b5061016f610348366004610ba9565b61057a565b34801561035957600080fd5b5061016f610368366004610ba9565b610611565b61025e61037b366004610d35565b61061f565b34801561038c57600080fd5b506007546101d4565b3480156103a157600080fd5b506101d460075481565b3480156103b757600080fd5b506101d46103c6366004610d57565b6001600160a01b03918216600090815260016020908152604080832093909416825291909152205490565b60606003805461040090610d8a565b80601f016020809104026020016040519081016040528092919081815260200182805461042c90610d8a565b80156104795780601f1061044e57610100808354040283529160200191610479565b820191906000526020600020905b81548152906001019060200180831161045c57829003601f168201915b5050505050905090565b60003361049181858561068e565b5060019392505050565b6000336104a98582856107b2565b6104b485858561083e565b506001949350505050565b3360008181526001602090815260408083206001600160a01b038716845290915281205490919061049190829086906104f9908790610ddb565b61068e565b600854604051632142170760e11b8152336004820152306024820152604481018390526001600160a01b03909116906342842e0e90606401600060405180830381600087803b15801561055057600080fd5b505af1158015610564573d6000803e3d6000fd5b5050505050565b60606004805461040090610d8a565b3360008181526001602090815260408083206001600160a01b0387168452909152812054909190838110156106045760405162461bcd60e51b815260206004820152602560248201527f45524332303a2064656372656173656420616c6c6f77616e63652062656c6f77604482015264207a65726f60d81b60648201526084015b60405180910390fd5b6104b4828686840361068e565b60003361049181858561083e565b34600061062b84610a0c565b90508082101561067d5760405162461bcd60e51b815260206004820152601960248201527f52454a5556453a204e6f7420456e6f75676820416d6f756e740000000000000060448201526064016105fb565b610688338585610a24565b50505050565b6001600160a01b0383166106f05760405162461bcd60e51b8152602060048201526024808201527f45524332303a20617070726f76652066726f6d20746865207a65726f206164646044820152637265737360e01b60648201526084016105fb565b6001600160a01b0382166107515760405162461bcd60e51b815260206004820152602260248201527f45524332303a20617070726f766520746f20746865207a65726f206164647265604482015261737360f01b60648201526084016105fb565b6001600160a01b0383811660008181526001602090815260408083209487168084529482529182902085905590518481527f8c5be1e5ebec7d5bd14f71427d1e84f3dd0314c0f7b2291e5b200ac8c7c3b925910160405180910390a3505050565b6001600160a01b03838116600090815260016020908152604080832093861683529290522054600019811461068857818110156108315760405162461bcd60e51b815260206004820152601d60248201527f45524332303a20696e73756666696369656e7420616c6c6f77616e636500000060448201526064016105fb565b610688848484840361068e565b6001600160a01b0383166108a25760405162461bcd60e51b815260206004820152602560248201527f45524332303a207472616e736665722066726f6d20746865207a65726f206164604482015264647265737360d81b60648201526084016105fb565b6001600160a01b0382166109045760405162461bcd60e51b815260206004820152602360248201527f45524332303a207472616e7366657220746f20746865207a65726f206164647260448201526265737360e81b60648201526084016105fb565b6001600160a01b0383166000908152602081905260409020548181101561097c5760405162461bcd60e51b815260206004820152602660248201527f45524332303a207472616e7366657220616d6f756e7420657863656564732062604482015265616c616e636560d01b60648201526084016105fb565b6001600160a01b038085166000908152602081905260408082208585039055918516815290812080548492906109b3908490610ddb565b92505081905550826001600160a01b0316846001600160a01b03167fddf252ad1be2c89b69c2b068fc378daa952ba7f163c4a11628f55a4df523b3ef846040516109ff91815260200190565b60405180910390a3610688565b60008060065483610a1d9190610df3565b9392505050565b6001600160a01b03831660009081526009602090815260408083208484529091529020829055610a548383610a59565b505050565b6001600160a01b038216610aaf5760405162461bcd60e51b815260206004820152601f60248201527f45524332303a206d696e7420746f20746865207a65726f20616464726573730060448201526064016105fb565b8060026000828254610ac19190610ddb565b90915550506001600160a01b03821660009081526020819052604081208054839290610aee908490610ddb565b90915550506040518181526001600160a01b038316906000907fddf252ad1be2c89b69c2b068fc378daa952ba7f163c4a11628f55a4df523b3ef9060200160405180910390a35050565b600060208083528351808285015260005b81811015610b6557858101830151858201604001528201610b49565b81811115610b77576000604083870101525b50601f01601f1916929092016040019392505050565b80356001600160a01b0381168114610ba457600080fd5b919050565b60008060408385031215610bbc57600080fd5b610bc583610b8d565b946020939093013593505050565b634e487b7160e01b600052604160045260246000fd5b60008060008060808587031215610bff57600080fd5b610c0885610b8d565b9350610c1660208601610b8d565b925060408501359150606085013567ffffffffffffffff80821115610c3a57600080fd5b818701915087601f830112610c4e57600080fd5b813581811115610c6057610c60610bd3565b604051601f8201601f19908116603f01168101908382118183101715610c8857610c88610bd3565b816040528281528a6020848701011115610ca157600080fd5b82602086016020830137600060208483010152809550505050505092959194509250565b600080600060608486031215610cda57600080fd5b610ce384610b8d565b9250610cf160208501610b8d565b9150604084013590509250925092565b600060208284031215610d1357600080fd5b5035919050565b600060208284031215610d2c57600080fd5b610a1d82610b8d565b60008060408385031215610d4857600080fd5b50508035926020909101359150565b60008060408385031215610d6a57600080fd5b610d7383610b8d565b9150610d8160208401610b8d565b90509250929050565b600181811c90821680610d9e57607f821691505b60208210811415610dbf57634e487b7160e01b600052602260045260246000fd5b50919050565b634e487b7160e01b600052601160045260246000fd5b60008219821115610dee57610dee610dc5565b500190565b6000816000190483118215151615610e0d57610e0d610dc5565b50029056fea2646970667358221220765f3ae3430ac541c77d8ff73c86c133062f2780776705af46081843607a9d0064736f6c63430008090033",
  "linkReferences": {},
  "deployedLinkReferences": {}
}