{
  "_format": "hh-sol-artifact-1",
  "contractName": "ProductShards",
  "sourceName": "contracts/ProductShards.sol",
  "abi": [
    {
      "inputs": [
        {
          "internalType": "string",
          "name": "uri_",
          "type": "string"
        },
        {
          "internalType": "address",
          "name": "productNFT_",
          "type": "address"
        }
      ],
      "stateMutability": "nonpayable",
      "type": "constructor"
    },
    {
      "anonymous": false,
      "inputs": [
        {
          "indexed": true,
          "internalType": "address",
          "name": "account",
          "type": "address"
        },
        {
          "indexed": true,
          "internalType": "address",
          "name": "operator",
          "type": "address"
        },
        {
          "indexed": false,
          "internalType": "bool",
          "name": "approved",
          "type": "bool"
        }
      ],
      "name": "ApprovalForAll",
      "type": "event"
    },
    {
      "anonymous": false,
      "inputs": [
        {
          "indexed": false,
          "internalType": "uint256",
          "name": "productUID",
          "type": "uint256"
        },
        {
          "indexed": false,
          "internalType": "address[]",
          "name": "initialContributors",
          "type": "address[]"
        },
        {
          "indexed": false,
          "internalType": "uint256[]",
          "name": "shardAmount",
          "type": "uint256[]"
        }
      ],
      "name": "InitialShardDistributed",
      "type": "event"
    },
    {
      "anonymous": false,
      "inputs": [
        {
          "indexed": true,
          "internalType": "address",
          "name": "previousOwner",
          "type": "address"
        },
        {
          "indexed": true,
          "internalType": "address",
          "name": "newOwner",
          "type": "address"
        }
      ],
      "name": "OwnershipTransferred",
      "type": "event"
    },
    {
      "anonymous": false,
      "inputs": [
        {
          "indexed": false,
          "internalType": "address",
          "name": "account",
          "type": "address"
        }
      ],
      "name": "Paused",
      "type": "event"
    },
    {
      "anonymous": false,
      "inputs": [
        {
          "indexed": true,
          "internalType": "address",
          "name": "operator",
          "type": "address"
        },
        {
          "indexed": true,
          "internalType": "address",
          "name": "from",
          "type": "address"
        },
        {
          "indexed": true,
          "internalType": "address",
          "name": "to",
          "type": "address"
        },
        {
          "indexed": false,
          "internalType": "uint256[]",
          "name": "ids",
          "type": "uint256[]"
        },
        {
          "indexed": false,
          "internalType": "uint256[]",
          "name": "values",
          "type": "uint256[]"
        }
      ],
      "name": "TransferBatch",
      "type": "event"
    },
    {
      "anonymous": false,
      "inputs": [
        {
          "indexed": true,
          "internalType": "address",
          "name": "operator",
          "type": "address"
        },
        {
          "indexed": true,
          "internalType": "address",
          "name": "from",
          "type": "address"
        },
        {
          "indexed": true,
          "internalType": "address",
          "name": "to",
          "type": "address"
        },
        {
          "indexed": false,
          "internalType": "uint256",
          "name": "id",
          "type": "uint256"
        },
        {
          "indexed": false,
          "internalType": "uint256",
          "name": "value",
          "type": "uint256"
        }
      ],
      "name": "TransferSingle",
      "type": "event"
    },
    {
      "anonymous": false,
      "inputs": [
        {
          "indexed": false,
          "internalType": "string",
          "name": "value",
          "type": "string"
        },
        {
          "indexed": true,
          "internalType": "uint256",
          "name": "id",
          "type": "uint256"
        }
      ],
      "name": "URI",
      "type": "event"
    },
    {
      "anonymous": false,
      "inputs": [
        {
          "indexed": false,
          "internalType": "address",
          "name": "account",
          "type": "address"
        }
      ],
      "name": "Unpaused",
      "type": "event"
    },
    {
      "inputs": [
        {
          "internalType": "address",
          "name": "account",
          "type": "address"
        },
        {
          "internalType": "uint256",
          "name": "id",
          "type": "uint256"
        }
      ],
      "name": "balanceOf",
      "outputs": [
        {
          "internalType": "uint256",
          "name": "",
          "type": "uint256"
        }
      ],
      "stateMutability": "view",
      "type": "function"
    },
    {
      "inputs": [
        {
          "internalType": "address[]",
          "name": "accounts",
          "type": "address[]"
        },
        {
          "internalType": "uint256[]",
          "name": "ids",
          "type": "uint256[]"
        }
      ],
      "name": "balanceOfBatch",
      "outputs": [
        {
          "internalType": "uint256[]",
          "name": "",
          "type": "uint256[]"
        }
      ],
      "stateMutability": "view",
      "type": "function"
    },
    {
      "inputs": [
        {
          "internalType": "uint256",
          "name": "productUID",
          "type": "uint256"
        },
        {
          "internalType": "uint256",
          "name": "targetSupply_",
          "type": "uint256"
        },
        {
          "internalType": "uint256",
          "name": "labCredit",
          "type": "uint256"
        },
        {
          "internalType": "uint256",
          "name": "lockPeriod",
          "type": "uint256"
        },
        {
          "internalType": "uint8",
          "name": "initialPercent",
          "type": "uint8"
        },
        {
          "internalType": "uint8",
          "name": "rejuvePercent",
          "type": "uint8"
        },
        {
          "internalType": "address",
          "name": "lab",
          "type": "address"
        },
        {
          "internalType": "address",
          "name": "rejuve",
          "type": "address"
        },
        {
          "internalType": "string[]",
          "name": "uris",
          "type": "string[]"
        }
      ],
      "name": "distributeInitialShards",
      "outputs": [],
      "stateMutability": "nonpayable",
      "type": "function"
    },
    {
      "inputs": [
        {
          "internalType": "uint256",
          "name": "productUID",
          "type": "uint256"
        }
      ],
      "name": "getInitialContributorShards",
      "outputs": [
        {
          "internalType": "uint256[]",
          "name": "",
          "type": "uint256[]"
        }
      ],
      "stateMutability": "view",
      "type": "function"
    },
    {
      "inputs": [
        {
          "internalType": "uint256",
          "name": "productUID",
          "type": "uint256"
        }
      ],
      "name": "getInitialContributors",
      "outputs": [
        {
          "internalType": "address[]",
          "name": "",
          "type": "address[]"
        }
      ],
      "stateMutability": "view",
      "type": "function"
    },
    {
      "inputs": [
        {
          "internalType": "uint256",
          "name": "productUID",
          "type": "uint256"
        }
      ],
      "name": "getInitialDistributionStatus",
      "outputs": [
        {
          "internalType": "bool",
          "name": "",
          "type": "bool"
        }
      ],
      "stateMutability": "view",
      "type": "function"
    },
    {
      "inputs": [
        {
          "internalType": "uint256",
          "name": "productUID",
          "type": "uint256"
        }
      ],
      "name": "getProductIDs",
      "outputs": [
        {
          "internalType": "uint256[]",
          "name": "",
          "type": "uint256[]"
        }
      ],
      "stateMutability": "view",
      "type": "function"
    },
    {
      "inputs": [
        {
          "internalType": "uint256",
          "name": "productUID",
          "type": "uint256"
        }
      ],
      "name": "getShardsConfig",
      "outputs": [
        {
          "internalType": "uint256",
          "name": "",
          "type": "uint256"
        },
        {
          "internalType": "uint8",
          "name": "",
          "type": "uint8"
        },
        {
          "internalType": "uint8",
          "name": "",
          "type": "uint8"
        },
        {
          "internalType": "uint8",
          "name": "",
          "type": "uint8"
        }
      ],
      "stateMutability": "view",
      "type": "function"
    },
    {
      "inputs": [
        {
          "internalType": "address",
          "name": "account",
          "type": "address"
        },
        {
          "internalType": "address",
          "name": "operator",
          "type": "address"
        }
      ],
      "name": "isApprovedForAll",
      "outputs": [
        {
          "internalType": "bool",
          "name": "",
          "type": "bool"
        }
      ],
      "stateMutability": "view",
      "type": "function"
    },
    {
      "inputs": [],
      "name": "owner",
      "outputs": [
        {
          "internalType": "address",
          "name": "",
          "type": "address"
        }
      ],
      "stateMutability": "view",
      "type": "function"
    },
    {
      "inputs": [],
      "name": "paused",
      "outputs": [
        {
          "internalType": "bool",
          "name": "",
          "type": "bool"
        }
      ],
      "stateMutability": "view",
      "type": "function"
    },
    {
      "inputs": [],
      "name": "renounceOwnership",
      "outputs": [],
      "stateMutability": "nonpayable",
      "type": "function"
    },
    {
      "inputs": [
        {
          "internalType": "address",
          "name": "from",
          "type": "address"
        },
        {
          "internalType": "address",
          "name": "to",
          "type": "address"
        },
        {
          "internalType": "uint256[]",
          "name": "ids",
          "type": "uint256[]"
        },
        {
          "internalType": "uint256[]",
          "name": "amounts",
          "type": "uint256[]"
        },
        {
          "internalType": "bytes",
          "name": "data",
          "type": "bytes"
        }
      ],
      "name": "safeBatchTransferFrom",
      "outputs": [],
      "stateMutability": "nonpayable",
      "type": "function"
    },
    {
      "inputs": [
        {
          "internalType": "address",
          "name": "from",
          "type": "address"
        },
        {
          "internalType": "address",
          "name": "to",
          "type": "address"
        },
        {
          "internalType": "uint256",
          "name": "id",
          "type": "uint256"
        },
        {
          "internalType": "uint256",
          "name": "amount",
          "type": "uint256"
        },
        {
          "internalType": "bytes",
          "name": "data",
          "type": "bytes"
        }
      ],
      "name": "safeTransferFrom",
      "outputs": [],
      "stateMutability": "nonpayable",
      "type": "function"
    },
    {
      "inputs": [
        {
          "internalType": "address",
          "name": "operator",
          "type": "address"
        },
        {
          "internalType": "bool",
          "name": "approved",
          "type": "bool"
        }
      ],
      "name": "setApprovalForAll",
      "outputs": [],
      "stateMutability": "nonpayable",
      "type": "function"
    },
    {
      "inputs": [
        {
          "internalType": "bytes4",
          "name": "interfaceId",
          "type": "bytes4"
        }
      ],
      "name": "supportsInterface",
      "outputs": [
        {
          "internalType": "bool",
          "name": "",
          "type": "bool"
        }
      ],
      "stateMutability": "view",
      "type": "function"
    },
    {
      "inputs": [
        {
          "internalType": "uint256",
          "name": "productUID",
          "type": "uint256"
        }
      ],
      "name": "targetSupply",
      "outputs": [
        {
          "internalType": "uint256",
          "name": "",
          "type": "uint256"
        }
      ],
      "stateMutability": "view",
      "type": "function"
    },
    {
      "inputs": [
        {
          "internalType": "uint256",
          "name": "productUID",
          "type": "uint256"
        }
      ],
      "name": "totalShardSupply",
      "outputs": [
        {
          "internalType": "uint256",
          "name": "",
          "type": "uint256"
        }
      ],
      "stateMutability": "view",
      "type": "function"
    },
    {
      "inputs": [
        {
          "internalType": "address",
          "name": "newOwner",
          "type": "address"
        }
      ],
      "name": "transferOwnership",
      "outputs": [],
      "stateMutability": "nonpayable",
      "type": "function"
    },
    {
      "inputs": [
        {
          "internalType": "uint256",
          "name": "id",
          "type": "uint256"
        }
      ],
      "name": "uri",
      "outputs": [
        {
          "internalType": "string",
          "name": "",
          "type": "string"
        }
      ],
      "stateMutability": "view",
      "type": "function"
    }
  ],
  "bytecode": "0x608060405234801562000010575f80fd5b5060405162002fc938038062002fc983398101604081905262000033916200010f565b816200003f336200007e565b5f805460ff60a01b191690556200005681620000cd565b50600480546001600160a01b0319166001600160a01b03929092169190911790555062000344565b5f80546001600160a01b038381166001600160a01b0319831681178455604051919092169283917f8be0079c531659141344cd1fd0a4f28419497f9722a3daafe3b4186f6b6457e09190a35050565b6003620000db82826200027c565b5050565b634e487b7160e01b5f52604160045260245ffd5b80516001600160a01b03811681146200010a575f80fd5b919050565b5f806040838503121562000121575f80fd5b82516001600160401b038082111562000138575f80fd5b818501915085601f8301126200014c575f80fd5b815181811115620001615762000161620000df565b604051601f8201601f19908116603f011681019083821181831017156200018c576200018c620000df565b81604052828152602093508884848701011115620001a8575f80fd5b5f91505b82821015620001cb5784820184015181830185015290830190620001ac565b5f848483010152809650505050620001e5818601620000f3565b925050509250929050565b600181811c908216806200020557607f821691505b6020821081036200022457634e487b7160e01b5f52602260045260245ffd5b50919050565b601f82111562000277575f81815260208120601f850160051c81016020861015620002525750805b601f850160051c820191505b8181101562000273578281556001016200025e565b5050505b505050565b81516001600160401b03811115620002985762000298620000df565b620002b081620002a98454620001f0565b846200022a565b602080601f831160018114620002e6575f8415620002ce5750858301515b5f19600386901b1c1916600185901b17855562000273565b5f85815260208120601f198616915b828110156200031657888601518255948401946001909101908401620002f5565b50858210156200033457878501515f19600388901b60f8161c191681555b5050505050600190811b01905550565b612c7780620003525f395ff3fe608060405234801561000f575f80fd5b5060043610610126575f3560e01c8063936906f1116100a9578063e985e9c51161006e578063e985e9c5146102ba578063f242432a146102f5578063f2fde38b14610308578063f395f9da1461031b578063fac795c01461032e575f80fd5b8063936906f11461022e578063a22cb46514610250578063b881501e14610263578063d429c75814610285578063d6e0dbda14610298575f80fd5b80634e57d942116100ef5780634e57d942146101c85780635c975abb146101db578063715018a6146101ec5780638be2cf9c146101f45780638da5cb5b14610214575f80fd5b8062fdd58e1461012a57806301ffc9a7146101505780630e89341c146101735780632eb2c2d6146101935780634e1273f4146101a8575b5f80fd5b61013d610138366004611ef9565b61039a565b6040519081526020015b60405180910390f35b61016361015e366004611f38565b610433565b6040519015158152602001610147565b610186610181366004611f5a565b610482565b6040516101479190611fbe565b6101a66101a136600461212a565b610521565b005b6101bb6101b63660046121d1565b61056d565b60405161014791906122d1565b6101bb6101d6366004611f5a565b610695565b5f54600160a01b900460ff16610163565b6101a66106f3565b610207610202366004611f5a565b610706565b60405161014791906122e3565b5f546040516001600160a01b039091168152602001610147565b61013d61023c366004611f5a565b5f9081526009602052604090206001015490565b6101a661025e36600461232f565b61076e565b610163610271366004611f5a565b5f9081526008602052604090205460ff1690565b6101a661029336600461237f565b61077d565b61013d6102a6366004611f5a565b5f9081526009602052604090206002015490565b6101636102c83660046124d1565b6001600160a01b039182165f90815260026020908152604080832093909416825291909152205460ff1690565b6101a66103033660046124fd565b61082a565b6101a6610316366004612561565b61086f565b6101bb610329366004611f5a565b6108e8565b61037161033c366004611f5a565b5f818152600960205260409020600381015460049091015460ff80821691620100008104821691610100909104169193509193565b6040805194855260ff938416602086015291831691840191909152166060820152608001610147565b5f6001600160a01b0383166104095760405162461bcd60e51b815260206004820152602a60248201527f455243313135353a2061646472657373207a65726f206973206e6f742061207660448201526930b634b21037bbb732b960b11b60648201526084015b60405180910390fd5b505f8181526001602090815260408083206001600160a01b03861684529091529020545b92915050565b5f6001600160e01b03198216636cdb3d1360e11b148061046357506001600160e01b031982166303a24d0760e21b145b8061042d57506301ffc9a760e01b6001600160e01b031983161461042d565b5f818152600e6020526040902080546060919061049e9061257c565b80601f01602080910402602001604051908101604052809291908181526020018280546104ca9061257c565b80156105155780601f106104ec57610100808354040283529160200191610515565b820191905f5260205f20905b8154815290600101906020018083116104f857829003601f168201915b50505050509050919050565b6001600160a01b03851633148061053d575061053d85336102c8565b6105595760405162461bcd60e51b8152600401610400906125b4565b6105668585858585610945565b5050505050565b606081518351146105d25760405162461bcd60e51b815260206004820152602960248201527f455243313135353a206163636f756e747320616e6420696473206c656e677468604482015268040dad2e6dac2e8c6d60bb1b6064820152608401610400565b5f835167ffffffffffffffff8111156105ed576105ed611fd0565b604051908082528060200260200182016040528015610616578160200160208202803683370190505b5090505f5b845181101561068d5761066085828151811061063957610639612602565b602002602001015185838151811061065357610653612602565b602002602001015161039a565b82828151811061067257610672612602565b60209081029190910101526106868161262a565b905061061b565b509392505050565b5f818152600a602090815260409182902080548351818402810184019094528084526060939283018282801561051557602002820191905f5260205f20905b8154815260200190600101908083116106d45750505050509050919050565b6106fb610adf565b6107045f610b38565b565b5f8181526006602090815260409182902080548351818402810184019094528084526060939283018282801561051557602002820191905f5260205f20905b81546001600160a01b031681526001909101906020018083116107455750505050509050919050565b610779338383610b87565b5050565b610785610adf565b61078d610c66565b5f8981526008602052604090205460ff16156107fe5760405162461bcd60e51b815260206004820152602a60248201527f52454a5556453a20496e697469616c2073686172647320646973747269627574604482015269656420616c726561647960b01b6064820152608401610400565b61080e8888888888888888610cb2565b61081f898989898989898989610fab565b505050505050505050565b6001600160a01b038516331480610846575061084685336102c8565b6108625760405162461bcd60e51b8152600401610400906125b4565b610566858585858561109a565b610877610adf565b6001600160a01b0381166108dc5760405162461bcd60e51b815260206004820152602660248201527f4f776e61626c653a206e6577206f776e657220697320746865207a65726f206160448201526564647265737360d01b6064820152608401610400565b6108e581610b38565b50565b5f8181526007602090815260409182902080548351818402810184019094528084526060939283018282801561051557602002820191905f5260205f20908154815260200190600101908083116106d45750505050509050919050565b81518351146109665760405162461bcd60e51b815260040161040090612642565b6001600160a01b03841661098c5760405162461bcd60e51b81526004016104009061268a565b335f5b8451811015610a71575f8582815181106109ab576109ab612602565b602002602001015190505f8583815181106109c8576109c8612602565b6020908102919091018101515f8481526001835260408082206001600160a01b038e168352909352919091205490915081811015610a185760405162461bcd60e51b8152600401610400906126cf565b5f8381526001602090815260408083206001600160a01b038e8116855292528083208585039055908b16825281208054849290610a56908490612719565b9250508190555050505080610a6a9061262a565b905061098f565b50846001600160a01b0316866001600160a01b0316826001600160a01b03167f4a39dc06d4c0dbc64b70af90fd698a233a518aa5d07e595d983b8c0526c8f7fb8787604051610ac192919061272c565b60405180910390a4610ad78187878787876111b9565b505050505050565b5f546001600160a01b031633146107045760405162461bcd60e51b815260206004820181905260248201527f4f776e61626c653a2063616c6c6572206973206e6f7420746865206f776e65726044820152606401610400565b5f80546001600160a01b038381166001600160a01b0319831681178455604051919092169283917f8be0079c531659141344cd1fd0a4f28419497f9722a3daafe3b4186f6b6457e09190a35050565b816001600160a01b0316836001600160a01b031603610bfa5760405162461bcd60e51b815260206004820152602960248201527f455243313135353a2073657474696e6720617070726f76616c20737461747573604482015268103337b91039b2b63360b91b6064820152608401610400565b6001600160a01b038381165f81815260026020908152604080832094871680845294825291829020805460ff191686151590811790915591519182527f17307eab39ab6107e8899845ad3d59bd9653f200f220920489ca2b5937696c31910160405180910390a3505050565b5f54600160a01b900460ff16156107045760405162461bcd60e51b815260206004820152601060248201526f14185d5cd8589b194e881c185d5cd95960821b6044820152606401610400565b5f8811610d0d5760405162461bcd60e51b8152602060048201526024808201527f52454a5556453a2054617267657420737570706c792063616e6e6f74206265206044820152637a65726f60e01b6064820152608401610400565b5f8711610d665760405162461bcd60e51b815260206004820152602160248201527f52454a5556453a204c6162206372656469742063616e6e6f74206265207a65726044820152606f60f81b6064820152608401610400565b5f8611610dc05760405162461bcd60e51b815260206004820152602260248201527f52454a5556453a204c6f636b20706572696f642063616e6e6f74206265207a65604482015261726f60f01b6064820152608401610400565b5f8560ff1611610e215760405162461bcd60e51b815260206004820152602660248201527f52454a5556453a20496e697469616c2070657263656e742063616e6e6f74206260448201526565207a65726f60d01b6064820152608401610400565b5f8460ff1611610e815760405162461bcd60e51b815260206004820152602560248201527f52454a5556453a2052656a7576652070657263656e742063616e6e6f74206265604482015264207a65726f60d81b6064820152608401610400565b6001600160a01b038316610ee25760405162461bcd60e51b815260206004820152602260248201527f52454a5556453a204c616220616464726573732063616e6e6f74206265207a65604482015261726f60f01b6064820152608401610400565b6001600160a01b038216610f465760405162461bcd60e51b815260206004820152602560248201527f52454a5556453a2052656a75766520616464726573732063616e6e6f74206265604482015264207a65726f60d81b6064820152608401610400565b5f815111610fa15760405162461bcd60e51b815260206004820152602260248201527f52454a5556453a2055524973206c656e6774682063616e6e6f74206265207a65604482015261726f60f01b6064820152608401610400565b5050505050505050565b610fb5898761131c565b5f898152600b602090815260408083205460099092529091208a8155600181018a90556003810191909155600401805460ff8681166101000261ffff1990921690881617179055611006898261133b565b611015898660ff1689866114b4565b61102489898660ff1685611890565b5f89815260066020908152604080832060079092529182902091517fb79a1263d65160537b9075e0e4747a6007a82fb191be4435b4c508c431920b899261106f928d92909190612759565b60405180910390a15050505f9586525050600860205250506040909120805460ff1916600117905550565b6001600160a01b0384166110c05760405162461bcd60e51b81526004016104009061268a565b335f6110cb856119a1565b90505f6110d7856119a1565b90505f8681526001602090815260408083206001600160a01b038c1684529091529020548581101561111b5760405162461bcd60e51b8152600401610400906126cf565b5f8781526001602090815260408083206001600160a01b038d8116855292528083208985039055908a16825281208054889290611159908490612719565b909155505060408051888152602081018890526001600160a01b03808b16928c821692918816917fc3d58168c5ae7397731d063d5bbf3d657854427343f4c083240f7aacaa2d0f62910160405180910390a461081f848a8a8a8a8a6119ea565b6001600160a01b0384163b15610ad75760405163bc197c8160e01b81526001600160a01b0385169063bc197c81906111fd90899089908890889088906004016127ec565b6020604051808303815f875af1925050508015611237575060408051601f3d908101601f191682019092526112349181019061283d565b60015b6112e357611243612858565b806308c379a00361127c5750611257612871565b80611262575061127e565b8060405162461bcd60e51b81526004016104009190611fbe565b505b60405162461bcd60e51b815260206004820152603460248201527f455243313135353a207472616e7366657220746f206e6f6e2d455243313135356044820152732932b1b2b4bb32b91034b6b83632b6b2b73a32b960611b6064820152608401610400565b6001600160e01b0319811663bc197c8160e01b146113135760405162461bcd60e51b8152600401610400906128fa565b50505050505050565b6113264282612719565b5f928352600b60205260409092209190915550565b6040805160028082526060820183525f92602083019080368337019050509050651313d0d2d15160d21b815f8151811061137757611377612602565b6020026020010181815250506515149051115160d21b816001815181106113a0576113a0612602565b6020026020010181815250505f5b81518160ff1610156114ae576005828260ff16815181106113d1576113d1612602565b6020908102919091018101518254600181810185555f94855292842001556005546113fc9190612942565b5f868152600a60209081526040822080546001810182559083529120018190558351909150839060ff841690811061143657611436612602565b6020908102919091018101515f838152600d8352604080822092909255600c90925290208590558351849060ff841690811061147457611474612602565b6020026020010151600e5f8381526020019081526020015f209081611499919061299f565b505080806114a690612a5b565b9150506113ae565b50505050565b6004805460405163c9187fe760e01b81529182018690525f916001600160a01b039091169063c9187fe7906024015f60405180830381865afa1580156114fc573d5f803e3d5ffd5b505050506040513d5f823e601f3d908101601f191682016040526115239190810190612a79565b90505f61152f86611aa4565b5f8781526009602052604090209091506115498583612719565b600480546040516384ffeca560e01b81529182018a90529193505f916001600160a01b0316906384ffeca590602401602060405180830381865afa158015611593573d5f803e3d5ffd5b505050506040513d601f19601f820116820180604052508101906115b79190612b74565b90505f5b818110156117fc5760045485515f916001600160a01b0316906359a96ffe908890859081106115ec576115ec612602565b60200260200101516040518263ffffffff1660e01b81526004016116109190611fbe565b602060405180830381865afa15801561162b573d5f803e3d5ffd5b505050506040513d601f19601f8201168201806040525081019061164f9190612b8b565b60045487519192505f916116f0916001600160a01b031690630e47cefa908a908790811061167f5761167f612602565b60200260200101518e6040518363ffffffff1660e01b81526004016116a5929190612ba6565b602060405180830381865afa1580156116c0573d5f803e3d5ffd5b505050506040513d601f19601f820116820180604052508101906116e49190612b74565b878c8860010154611bde565b90505f6116fc82611c34565b5f8d8152600a6020908152604091829020805483518184028101840190945280845293945061177d9387939283018282801561175557602002820191905f5260205f20905b815481526020019060010190808311611741575b505050505083604051806040016040528060048152602001630307830360e41b815250611cc2565b81866002015461178d9190612719565b6002870155505f8b81526006602090815260408083208054600180820183559185528385200180546001600160a01b0319166001600160a01b0397909716969096179095558d8352600782528220805494850181558252902090910155806117f48161262a565b9150506115bb565b505f6118108988868b87600101548b611e40565b90508083600201546118229190612719565b600290930192909255505f8781526006602090815260408083208054600181810183559185528385200180546001600160a01b039099166001600160a01b03199099169890981790975598825260078152978120805495860181558152969096209092019490945550505050565b5f8481526009602052604081209060646118aa8587612bc7565b6118b49190612bde565b90508082600201546118c69190612719565b60028301555f6118d582611c34565b5f8881526006602090815260408083208054600180820183559185528385200180546001600160a01b0319166001600160a01b038b161790558b845260078352818420805491820181558452828420018690558a8352600a82529182902080548351818402810184019094528084529394506113139388939283018282801561175557602002820191905f5260205f209081548152602001906001019080831161174157505050505083604051806040016040528060048152602001630307830360e41b815250611cc2565b6040805160018082528183019092526060915f91906020808301908036833701905050905082815f815181106119d9576119d9612602565b602090810291909101015292915050565b6001600160a01b0384163b15610ad75760405163f23a6e6160e01b81526001600160a01b0385169063f23a6e6190611a2e9089908990889088908890600401612bfd565b6020604051808303815f875af1925050508015611a68575060408051601f3d908101601f19168201909252611a659181019061283d565b60015b611a7457611243612858565b6001600160e01b0319811663f23a6e6160e01b146113135760405162461bcd60e51b8152600401610400906128fa565b6004805460405163c9187fe760e01b81529182018390525f9182916001600160a01b03169063c9187fe7906024015f60405180830381865afa158015611aec573d5f803e3d5ffd5b505050506040513d5f823e601f3d908101601f19168201604052611b139190810190612a79565b80519091505f90815b81811015611bd45760045484515f916001600160a01b031690630e47cefa90879085908110611b4d57611b4d612602565b6020026020010151896040518363ffffffff1660e01b8152600401611b73929190612ba6565b602060405180830381865afa158015611b8e573d5f803e3d5ffd5b505050506040513d601f19601f82011682018060405250810190611bb29190612b74565b9050611bbe8185612719565b9350508080611bcc9061262a565b915050611b1c565b5090949350505050565b5f8084611bec876064612bc7565b611bf69190612bde565b90505f6064611c058686612bc7565b611c0f9190612bde565b90505f6064611c1e8484612bc7565b611c289190612bde565b98975050505050505050565b60408051600280825260608083018452925f9291906020830190803683370190505090505f6064611c66856032612bc7565b611c709190612bde565b905080825f81518110611c8557611c85612602565b6020908102919091010152611c9a8185612942565b93508382600181518110611cb057611cb0612602565b60209081029190910101525092915050565b6001600160a01b038416611d225760405162461bcd60e51b815260206004820152602160248201527f455243313135353a206d696e7420746f20746865207a65726f206164647265736044820152607360f81b6064820152608401610400565b8151835114611d435760405162461bcd60e51b815260040161040090612642565b335f5b8451811015611dda57838181518110611d6157611d61612602565b602002602001015160015f878481518110611d7e57611d7e612602565b602002602001015181526020019081526020015f205f886001600160a01b03166001600160a01b031681526020019081526020015f205f828254611dc29190612719565b90915550819050611dd28161262a565b915050611d46565b50846001600160a01b03165f6001600160a01b0316826001600160a01b03167f4a39dc06d4c0dbc64b70af90fd698a233a518aa5d07e595d983b8c0526c8f7fb8787604051611e2a92919061272c565b60405180910390a4610566815f878787876111b9565b5f80611e4e87878787611bde565b90505f611e5a82611c34565b5f8a8152600a60209081526040918290208054835181840281018401909452808452939450611ed99388939283018282801561175557602002820191905f5260205f209081548152602001906001019080831161174157505050505083604051806040016040528060048152602001630307830360e41b815250611cc2565b50979650505050505050565b6001600160a01b03811681146108e5575f80fd5b5f8060408385031215611f0a575f80fd5b8235611f1581611ee5565b946020939093013593505050565b6001600160e01b0319811681146108e5575f80fd5b5f60208284031215611f48575f80fd5b8135611f5381611f23565b9392505050565b5f60208284031215611f6a575f80fd5b5035919050565b5f5b83811015611f8b578181015183820152602001611f73565b50505f910152565b5f8151808452611faa816020860160208601611f71565b601f01601f19169290920160200192915050565b602081525f611f536020830184611f93565b634e487b7160e01b5f52604160045260245ffd5b601f8201601f1916810167ffffffffffffffff8111828210171561200a5761200a611fd0565b6040525050565b5f67ffffffffffffffff82111561202a5761202a611fd0565b5060051b60200190565b5f82601f830112612043575f80fd5b8135602061205082612011565b60405161205d8282611fe4565b83815260059390931b850182019282810191508684111561207c575f80fd5b8286015b848110156120975780358352918301918301612080565b509695505050505050565b5f67ffffffffffffffff8211156120bb576120bb611fd0565b50601f01601f191660200190565b5f6120d3836120a2565b6040516120e08282611fe4565b8092508481528585850111156120f4575f80fd5b848460208301375f6020868301015250509392505050565b5f82601f83011261211b575f80fd5b611f53838335602085016120c9565b5f805f805f60a0868803121561213e575f80fd5b853561214981611ee5565b9450602086013561215981611ee5565b9350604086013567ffffffffffffffff80821115612175575f80fd5b61218189838a01612034565b94506060880135915080821115612196575f80fd5b6121a289838a01612034565b935060808801359150808211156121b7575f80fd5b506121c48882890161210c565b9150509295509295909350565b5f80604083850312156121e2575f80fd5b823567ffffffffffffffff808211156121f9575f80fd5b818501915085601f83011261220c575f80fd5b8135602061221982612011565b6040516122268282611fe4565b83815260059390931b8501820192828101915089841115612245575f80fd5b948201945b8386101561226c57853561225d81611ee5565b8252948201949082019061224a565b96505086013592505080821115612281575f80fd5b5061228e85828601612034565b9150509250929050565b5f8151808452602080850194508084015f5b838110156122c6578151875295820195908201906001016122aa565b509495945050505050565b602081525f611f536020830184612298565b602080825282518282018190525f9190848201906040850190845b818110156123235783516001600160a01b0316835292840192918401916001016122fe565b50909695505050505050565b5f8060408385031215612340575f80fd5b823561234b81611ee5565b91506020830135801515811461235f575f80fd5b809150509250929050565b803560ff8116811461237a575f80fd5b919050565b5f805f805f805f805f6101208a8c031215612398575f80fd5b8935985060208a0135975060408a0135965060608a013595506123bd60808b0161236a565b94506123cb60a08b0161236a565b93506123da60c08b0135611ee5565b60c08a013592506123ee60e08b0135611ee5565b60e08a0135915067ffffffffffffffff6101008b0135111561240e575f80fd5b6101008a01358a018b601f820112612424575f80fd5b61242e8135612011565b60405161243b8282611fe4565b809150823581526020810191508d6020843560051b850101111561245d575f80fd5b602083015b6020843560051b8501018110156124bd5767ffffffffffffffff81351115612488575f80fd5b8e603f823586010112612499575f80fd5b6124af8f823586016020810135906040016120c9565b835260209283019201612462565b508093505050509295985092959850929598565b5f80604083850312156124e2575f80fd5b82356124ed81611ee5565b9150602083013561235f81611ee5565b5f805f805f60a08688031215612511575f80fd5b853561251c81611ee5565b9450602086013561252c81611ee5565b93506040860135925060608601359150608086013567ffffffffffffffff811115612555575f80fd5b6121c48882890161210c565b5f60208284031215612571575f80fd5b8135611f5381611ee5565b600181811c9082168061259057607f821691505b6020821081036125ae57634e487b7160e01b5f52602260045260245ffd5b50919050565b6020808252602e908201527f455243313135353a2063616c6c6572206973206e6f7420746f6b656e206f776e60408201526d195c881bdc88185c1c1c9bdd995960921b606082015260800190565b634e487b7160e01b5f52603260045260245ffd5b634e487b7160e01b5f52601160045260245ffd5b5f6001820161263b5761263b612616565b5060010190565b60208082526028908201527f455243313135353a2069647320616e6420616d6f756e7473206c656e677468206040820152670dad2e6dac2e8c6d60c31b606082015260800190565b60208082526025908201527f455243313135353a207472616e7366657220746f20746865207a65726f206164604082015264647265737360d81b606082015260800190565b6020808252602a908201527f455243313135353a20696e73756666696369656e742062616c616e636520666f60408201526939103a3930b739b332b960b11b606082015260800190565b8082018082111561042d5761042d612616565b604081525f61273e6040830185612298565b82810360208401526127508185612298565b95945050505050565b5f6060820185835260206060818501528186548084526080860191505f9350878452828420845b828110156127a55781546001600160a01b031684529284019260019182019101612780565b50505084810360408601528554808252868452828420918301905b808510156127df578254825260019485019490920191908301906127c0565b5098975050505050505050565b6001600160a01b0386811682528516602082015260a0604082018190525f9061281790830186612298565b82810360608401526128298186612298565b90508281036080840152611c288185611f93565b5f6020828403121561284d575f80fd5b8151611f5381611f23565b5f60033d111561286e5760045f803e505f5160e01c5b90565b5f60443d101561287e5790565b6040516003193d81016004833e81513d67ffffffffffffffff81602484011181841117156128ae57505050505090565b82850191508151818111156128c65750505050505090565b843d87010160208285010111156128e05750505050505090565b6128ef60208286010187611fe4565b509095945050505050565b60208082526028908201527f455243313135353a204552433131353552656365697665722072656a656374656040820152676420746f6b656e7360c01b606082015260800190565b8181038181111561042d5761042d612616565b601f82111561299a575f81815260208120601f850160051c8101602086101561297b5750805b601f850160051c820191505b81811015610ad757828155600101612987565b505050565b815167ffffffffffffffff8111156129b9576129b9611fd0565b6129cd816129c7845461257c565b84612955565b602080601f831160018114612a00575f84156129e95750858301515b5f19600386901b1c1916600185901b178555610ad7565b5f85815260208120601f198616915b82811015612a2e57888601518255948401946001909101908401612a0f565b5085821015612a4b57878501515f19600388901b60f8161c191681555b5050505050600190811b01905550565b5f60ff821660ff8103612a7057612a70612616565b60010192915050565b5f6020808385031215612a8a575f80fd5b825167ffffffffffffffff80821115612aa1575f80fd5b818501915085601f830112612ab4575f80fd5b8151612abf81612011565b60408051612acd8382611fe4565b83815260059390931b8501860192868101925089841115612aec575f80fd5b8686015b84811015612b6657805186811115612b07575f8081fd5b8701603f81018c13612b18575f8081fd5b88810151612b25816120a2565b8551612b318282611fe4565b8281528e87848601011115612b47575f91508182fd5b612b56838d8301898701611f71565b8752505050928701928701612af0565b509998505050505050505050565b5f60208284031215612b84575f80fd5b5051919050565b5f60208284031215612b9b575f80fd5b8151611f5381611ee5565b604081525f612bb86040830185611f93565b90508260208301529392505050565b808202811582820484141761042d5761042d612616565b5f82612bf857634e487b7160e01b5f52601260045260245ffd5b500490565b6001600160a01b03868116825285166020820152604081018490526060810183905260a0608082018190525f90612c3690830184611f93565b97965050505050505056fea264697066735822122020f6ae16d94fa96baef3111a65548ac6ff8cd532dc35da31612f914a56ea0b3964736f6c63430008140033",
  "linkReferences": {},
  "deployedLinkReferences": {}
}