{
  "_format": "hh-sol-artifact-1",
  "contractName": "ProductShards",
  "sourceName": "contracts/ProductShards.sol",
  "abi": [
    {
      "inputs": [
        {
          "internalType": "string",
          "name": "uri_",
          "type": "string"
        },
        {
          "internalType": "address",
          "name": "productNFT_",
          "type": "address"
        }
      ],
      "stateMutability": "nonpayable",
      "type": "constructor"
    },
    {
      "anonymous": false,
      "inputs": [
        {
          "indexed": true,
          "internalType": "address",
          "name": "account",
          "type": "address"
        },
        {
          "indexed": true,
          "internalType": "address",
          "name": "operator",
          "type": "address"
        },
        {
          "indexed": false,
          "internalType": "bool",
          "name": "approved",
          "type": "bool"
        }
      ],
      "name": "ApprovalForAll",
      "type": "event"
    },
    {
      "anonymous": false,
      "inputs": [
        {
          "indexed": false,
          "internalType": "uint256",
          "name": "productUID",
          "type": "uint256"
        },
        {
          "indexed": false,
          "internalType": "address[]",
          "name": "dataOwners",
          "type": "address[]"
        },
        {
          "indexed": false,
          "internalType": "uint256[]",
          "name": "shardAmount",
          "type": "uint256[]"
        }
      ],
      "name": "InitialShardDistributed",
      "type": "event"
    },
    {
      "anonymous": false,
      "inputs": [
        {
          "indexed": true,
          "internalType": "address",
          "name": "previousOwner",
          "type": "address"
        },
        {
          "indexed": true,
          "internalType": "address",
          "name": "newOwner",
          "type": "address"
        }
      ],
      "name": "OwnershipTransferred",
      "type": "event"
    },
    {
      "anonymous": false,
      "inputs": [
        {
          "indexed": false,
          "internalType": "address",
          "name": "account",
          "type": "address"
        }
      ],
      "name": "Paused",
      "type": "event"
    },
    {
      "anonymous": false,
      "inputs": [
        {
          "indexed": true,
          "internalType": "address",
          "name": "operator",
          "type": "address"
        },
        {
          "indexed": true,
          "internalType": "address",
          "name": "from",
          "type": "address"
        },
        {
          "indexed": true,
          "internalType": "address",
          "name": "to",
          "type": "address"
        },
        {
          "indexed": false,
          "internalType": "uint256[]",
          "name": "ids",
          "type": "uint256[]"
        },
        {
          "indexed": false,
          "internalType": "uint256[]",
          "name": "values",
          "type": "uint256[]"
        }
      ],
      "name": "TransferBatch",
      "type": "event"
    },
    {
      "anonymous": false,
      "inputs": [
        {
          "indexed": true,
          "internalType": "address",
          "name": "operator",
          "type": "address"
        },
        {
          "indexed": true,
          "internalType": "address",
          "name": "from",
          "type": "address"
        },
        {
          "indexed": true,
          "internalType": "address",
          "name": "to",
          "type": "address"
        },
        {
          "indexed": false,
          "internalType": "uint256",
          "name": "id",
          "type": "uint256"
        },
        {
          "indexed": false,
          "internalType": "uint256",
          "name": "value",
          "type": "uint256"
        }
      ],
      "name": "TransferSingle",
      "type": "event"
    },
    {
      "anonymous": false,
      "inputs": [
        {
          "indexed": false,
          "internalType": "string",
          "name": "value",
          "type": "string"
        },
        {
          "indexed": true,
          "internalType": "uint256",
          "name": "id",
          "type": "uint256"
        }
      ],
      "name": "URI",
      "type": "event"
    },
    {
      "anonymous": false,
      "inputs": [
        {
          "indexed": false,
          "internalType": "address",
          "name": "account",
          "type": "address"
        }
      ],
      "name": "Unpaused",
      "type": "event"
    },
    {
      "inputs": [
        {
          "internalType": "address",
          "name": "account",
          "type": "address"
        },
        {
          "internalType": "uint256",
          "name": "id",
          "type": "uint256"
        }
      ],
      "name": "balanceOf",
      "outputs": [
        {
          "internalType": "uint256",
          "name": "",
          "type": "uint256"
        }
      ],
      "stateMutability": "view",
      "type": "function"
    },
    {
      "inputs": [
        {
          "internalType": "address[]",
          "name": "accounts",
          "type": "address[]"
        },
        {
          "internalType": "uint256[]",
          "name": "ids",
          "type": "uint256[]"
        }
      ],
      "name": "balanceOfBatch",
      "outputs": [
        {
          "internalType": "uint256[]",
          "name": "",
          "type": "uint256[]"
        }
      ],
      "stateMutability": "view",
      "type": "function"
    },
    {
      "inputs": [
        {
          "internalType": "uint256",
          "name": "_productUID",
          "type": "uint256"
        },
        {
          "internalType": "uint256",
          "name": "_targetSupply",
          "type": "uint256"
        },
        {
          "internalType": "uint256",
          "name": "_labCredit",
          "type": "uint256"
        },
        {
          "internalType": "uint256",
          "name": "_lockPeriod",
          "type": "uint256"
        },
        {
          "internalType": "uint8",
          "name": "_initialPercent",
          "type": "uint8"
        },
        {
          "internalType": "uint8",
          "name": "_rejuvePercent",
          "type": "uint8"
        },
        {
          "internalType": "address",
          "name": "_lab",
          "type": "address"
        },
        {
          "internalType": "address",
          "name": "_rejuve",
          "type": "address"
        },
        {
          "internalType": "string[]",
          "name": "_uris",
          "type": "string[]"
        }
      ],
      "name": "distributeInitialShards",
      "outputs": [],
      "stateMutability": "nonpayable",
      "type": "function"
    },
    {
      "inputs": [
        {
          "internalType": "uint256",
          "name": "_productUID",
          "type": "uint256"
        }
      ],
      "name": "getShardsConfig",
      "outputs": [
        {
          "internalType": "uint256",
          "name": "",
          "type": "uint256"
        },
        {
          "internalType": "uint8",
          "name": "",
          "type": "uint8"
        },
        {
          "internalType": "uint8",
          "name": "",
          "type": "uint8"
        },
        {
          "internalType": "uint8",
          "name": "",
          "type": "uint8"
        }
      ],
      "stateMutability": "view",
      "type": "function"
    },
    {
      "inputs": [
        {
          "internalType": "address",
          "name": "account",
          "type": "address"
        },
        {
          "internalType": "address",
          "name": "operator",
          "type": "address"
        }
      ],
      "name": "isApprovedForAll",
      "outputs": [
        {
          "internalType": "bool",
          "name": "",
          "type": "bool"
        }
      ],
      "stateMutability": "view",
      "type": "function"
    },
    {
      "inputs": [],
      "name": "owner",
      "outputs": [
        {
          "internalType": "address",
          "name": "",
          "type": "address"
        }
      ],
      "stateMutability": "view",
      "type": "function"
    },
    {
      "inputs": [],
      "name": "paused",
      "outputs": [
        {
          "internalType": "bool",
          "name": "",
          "type": "bool"
        }
      ],
      "stateMutability": "view",
      "type": "function"
    },
    {
      "inputs": [],
      "name": "renounceOwnership",
      "outputs": [],
      "stateMutability": "nonpayable",
      "type": "function"
    },
    {
      "inputs": [
        {
          "internalType": "address",
          "name": "from",
          "type": "address"
        },
        {
          "internalType": "address",
          "name": "to",
          "type": "address"
        },
        {
          "internalType": "uint256[]",
          "name": "ids",
          "type": "uint256[]"
        },
        {
          "internalType": "uint256[]",
          "name": "amounts",
          "type": "uint256[]"
        },
        {
          "internalType": "bytes",
          "name": "data",
          "type": "bytes"
        }
      ],
      "name": "safeBatchTransferFrom",
      "outputs": [],
      "stateMutability": "nonpayable",
      "type": "function"
    },
    {
      "inputs": [
        {
          "internalType": "address",
          "name": "from",
          "type": "address"
        },
        {
          "internalType": "address",
          "name": "to",
          "type": "address"
        },
        {
          "internalType": "uint256",
          "name": "id",
          "type": "uint256"
        },
        {
          "internalType": "uint256",
          "name": "amount",
          "type": "uint256"
        },
        {
          "internalType": "bytes",
          "name": "data",
          "type": "bytes"
        }
      ],
      "name": "safeTransferFrom",
      "outputs": [],
      "stateMutability": "nonpayable",
      "type": "function"
    },
    {
      "inputs": [
        {
          "internalType": "address",
          "name": "operator",
          "type": "address"
        },
        {
          "internalType": "bool",
          "name": "approved",
          "type": "bool"
        }
      ],
      "name": "setApprovalForAll",
      "outputs": [],
      "stateMutability": "nonpayable",
      "type": "function"
    },
    {
      "inputs": [
        {
          "internalType": "bytes4",
          "name": "interfaceId",
          "type": "bytes4"
        }
      ],
      "name": "supportsInterface",
      "outputs": [
        {
          "internalType": "bool",
          "name": "",
          "type": "bool"
        }
      ],
      "stateMutability": "view",
      "type": "function"
    },
    {
      "inputs": [
        {
          "internalType": "uint256",
          "name": "_productUID",
          "type": "uint256"
        }
      ],
      "name": "targetSupply",
      "outputs": [
        {
          "internalType": "uint256",
          "name": "",
          "type": "uint256"
        }
      ],
      "stateMutability": "view",
      "type": "function"
    },
    {
      "inputs": [
        {
          "internalType": "uint256",
          "name": "_productUID",
          "type": "uint256"
        }
      ],
      "name": "totalShardSupply",
      "outputs": [
        {
          "internalType": "uint256",
          "name": "",
          "type": "uint256"
        }
      ],
      "stateMutability": "view",
      "type": "function"
    },
    {
      "inputs": [
        {
          "internalType": "address",
          "name": "newOwner",
          "type": "address"
        }
      ],
      "name": "transferOwnership",
      "outputs": [],
      "stateMutability": "nonpayable",
      "type": "function"
    },
    {
      "inputs": [
        {
          "internalType": "uint256",
          "name": "_id",
          "type": "uint256"
        }
      ],
      "name": "uri",
      "outputs": [
        {
          "internalType": "string",
          "name": "",
          "type": "string"
        }
      ],
      "stateMutability": "view",
      "type": "function"
    }
  ],
  "bytecode": "0x60806040523480156200001157600080fd5b5060405162005fd338038062005fd38339818101604052810190620000379190620003e1565b81620000586200004c6200010560201b60201c565b6200010d60201b60201c565b60008060146101000a81548160ff0219169083151502179055506200008381620001d160201b60201c565b50620000a067859246e0de807bd160c01b620001e660201b60201c565b620000bc67e4abef476e19a19060c01b620001e660201b60201c565b80600460006101000a81548173ffffffffffffffffffffffffffffffffffffffff021916908373ffffffffffffffffffffffffffffffffffffffff160217905550505062000779565b600033905090565b60008060009054906101000a900473ffffffffffffffffffffffffffffffffffffffff169050816000806101000a81548173ffffffffffffffffffffffffffffffffffffffff021916908373ffffffffffffffffffffffffffffffffffffffff1602179055508173ffffffffffffffffffffffffffffffffffffffff168173ffffffffffffffffffffffffffffffffffffffff167f8be0079c531659141344cd1fd0a4f28419497f9722a3daafe3b4186f6b6457e060405160405180910390a35050565b8060039081620001e2919062000692565b5050565b50565b6000604051905090565b600080fd5b600080fd5b600080fd5b600080fd5b6000601f19601f8301169050919050565b7f4e487b7100000000000000000000000000000000000000000000000000000000600052604160045260246000fd5b620002528262000207565b810181811067ffffffffffffffff8211171562000274576200027362000218565b5b80604052505050565b600062000289620001e9565b905062000297828262000247565b919050565b600067ffffffffffffffff821115620002ba57620002b962000218565b5b620002c58262000207565b9050602081019050919050565b60005b83811015620002f2578082015181840152602081019050620002d5565b60008484015250505050565b6000620003156200030f846200029c565b6200027d565b90508281526020810184848401111562000334576200033362000202565b5b62000341848285620002d2565b509392505050565b600082601f830112620003615762000360620001fd565b5b815162000373848260208601620002fe565b91505092915050565b600073ffffffffffffffffffffffffffffffffffffffff82169050919050565b6000620003a9826200037c565b9050919050565b620003bb816200039c565b8114620003c757600080fd5b50565b600081519050620003db81620003b0565b92915050565b60008060408385031215620003fb57620003fa620001f3565b5b600083015167ffffffffffffffff8111156200041c576200041b620001f8565b5b6200042a8582860162000349565b92505060206200043d85828601620003ca565b9150509250929050565b600081519050919050565b7f4e487b7100000000000000000000000000000000000000000000000000000000600052602260045260246000fd5b600060028204905060018216806200049a57607f821691505b602082108103620004b057620004af62000452565b5b50919050565b60008190508160005260206000209050919050565b60006020601f8301049050919050565b600082821b905092915050565b6000600883026200051a7fffffffffffffffffffffffffffffffffffffffffffffffffffffffffffffffff82620004db565b620005268683620004db565b95508019841693508086168417925050509392505050565b6000819050919050565b6000819050919050565b6000620005736200056d62000567846200053e565b62000548565b6200053e565b9050919050565b6000819050919050565b6200058f8362000552565b620005a76200059e826200057a565b848454620004e8565b825550505050565b600090565b620005be620005af565b620005cb81848462000584565b505050565b5b81811015620005f357620005e7600082620005b4565b600181019050620005d1565b5050565b601f82111562000642576200060c81620004b6565b6200061784620004cb565b8101602085101562000627578190505b6200063f6200063685620004cb565b830182620005d0565b50505b505050565b600082821c905092915050565b6000620006676000198460080262000647565b1980831691505092915050565b600062000682838362000654565b9150826002028217905092915050565b6200069d8262000447565b67ffffffffffffffff811115620006b957620006b862000218565b5b620006c5825462000481565b620006d2828285620005f7565b600060209050601f8311600181146200070a5760008415620006f5578287015190505b62000701858262000674565b86555062000771565b601f1984166200071a86620004b6565b60005b8281101562000744578489015182556001820191506020850194506020810190506200071d565b8683101562000764578489015162000760601f89168262000654565b8355505b6001600288020188555050505b505050505050565b61584a80620007896000396000f3fe608060405234801561001057600080fd5b50600436106100ff5760003560e01c8063936906f111610097578063e985e9c511610066578063e985e9c5146102be578063f242432a146102ee578063f2fde38b1461030a578063fac795c014610326576100ff565b8063936906f114610226578063a22cb46514610256578063d429c75814610272578063d6e0dbda1461028e576100ff565b80634e1273f4116100d35780634e1273f4146101b05780635c975abb146101e0578063715018a6146101fe5780638da5cb5b14610208576100ff565b8062fdd58e1461010457806301ffc9a7146101345780630e89341c146101645780632eb2c2d614610194575b600080fd5b61011e600480360381019061011991906137f5565b610359565b60405161012b9190613844565b60405180910390f35b61014e600480360381019061014991906138b7565b610422565b60405161015b91906138ff565b60405180910390f35b61017e6004803603810190610179919061391a565b610504565b60405161018b91906139d7565b60405180910390f35b6101ae60048036038101906101a99190613bf6565b6105e5565b005b6101ca60048036038101906101c59190613d88565b610686565b6040516101d79190613ebe565b60405180910390f35b6101e861079f565b6040516101f591906138ff565b60405180910390f35b6102066107b5565b005b6102106107c9565b60405161021d9190613eef565b60405180910390f35b610240600480360381019061023b919061391a565b6107f2565b60405161024d9190613844565b60405180910390f35b610270600480360381019061026b9190613f36565b61084e565b005b61028c60048036038101906102879190614131565b610864565b005b6102a860048036038101906102a3919061391a565b61091c565b6040516102b59190613844565b60405180910390f35b6102d860048036038101906102d39190614217565b610978565b6040516102e591906138ff565b60405180910390f35b61030860048036038101906103039190614257565b610a0c565b005b610324600480360381019061031f91906142ee565b610aad565b005b610340600480360381019061033b919061391a565b610b30565b604051610350949392919061432a565b60405180910390f35b60008073ffffffffffffffffffffffffffffffffffffffff168373ffffffffffffffffffffffffffffffffffffffff16036103c9576040517f08c379a00000000000000000000000000000000000000000000000000000000081526004016103c0906143e1565b60405180910390fd5b6001600083815260200190815260200160002060008473ffffffffffffffffffffffffffffffffffffffff1673ffffffffffffffffffffffffffffffffffffffff16815260200190815260200160002054905092915050565b60007fd9b67a26000000000000000000000000000000000000000000000000000000007bffffffffffffffffffffffffffffffffffffffffffffffffffffffff1916827bffffffffffffffffffffffffffffffffffffffffffffffffffffffff191614806104ed57507f0e89341c000000000000000000000000000000000000000000000000000000007bffffffffffffffffffffffffffffffffffffffffffffffffffffffff1916827bffffffffffffffffffffffffffffffffffffffffffffffffffffffff1916145b806104fd57506104fc82610c04565b5b9050919050565b606061051a6733c247549217994160c01b610c6e565b61052e672a36b9ee82fe832660c01b610c6e565b61054267846bc1235520cee360c01b610c6e565b600e6000838152602001908152602001600020805461056090614430565b80601f016020809104026020016040519081016040528092919081815260200182805461058c90614430565b80156105d95780601f106105ae576101008083540402835291602001916105d9565b820191906000526020600020905b8154815290600101906020018083116105bc57829003601f168201915b50505050509050919050565b6105ed610c71565b73ffffffffffffffffffffffffffffffffffffffff168573ffffffffffffffffffffffffffffffffffffffff16148061063357506106328561062d610c71565b610978565b5b610672576040517f08c379a0000000000000000000000000000000000000000000000000000000008152600401610669906144d3565b60405180910390fd5b61067f8585858585610c79565b5050505050565b606081518351146106cc576040517f08c379a00000000000000000000000000000000000000000000000000000000081526004016106c390614565565b60405180910390fd5b6000835167ffffffffffffffff8111156106e9576106e86139fe565b5b6040519080825280602002602001820160405280156107175781602001602082028036833780820191505090505b50905060005b84518110156107945761076485828151811061073c5761073b614585565b5b602002602001015185838151811061075757610756614585565b5b6020026020010151610359565b82828151811061077757610776614585565b5b6020026020010181815250508061078d906145e3565b905061071d565b508091505092915050565b60008060149054906101000a900460ff16905090565b6107bd610f9d565b6107c7600061101b565b565b60008060009054906101000a900473ffffffffffffffffffffffffffffffffffffffff16905090565b60006108086796510fef43565d0660c01b610c6e565b61081c67167c80ee4c7570ba60c01b610c6e565b6108306733ea72b6af6495af60c01b610c6e565b60096000838152602001908152602001600020600101549050919050565b610860610859610c71565b83836110df565b5050565b610878678c5ca474efc46e4560c01b610c6e565b610880610f9d565b610894673453d00545214d2a60c01b610c6e565b6108a867c2de39fcf433350260c01b610c6e565b6108b061124b565b6108c46770975fbaa28b9b8460c01b610c6e565b6108d86704fcf9ac29be32a260c01b610c6e565b6108ec67069282c7fed63f6860c01b610c6e565b610900671abb541d33240f1f60c01b610c6e565b610911898989898989898989611295565b505050505050505050565b60006109326722d3f89d22f549c860c01b610c6e565b6109466739a566f98f39132960c01b610c6e565b61095a674fa10780e05f813360c01b610c6e565b60096000838152602001908152602001600020600201549050919050565b6000600260008473ffffffffffffffffffffffffffffffffffffffff1673ffffffffffffffffffffffffffffffffffffffff16815260200190815260200160002060008373ffffffffffffffffffffffffffffffffffffffff1673ffffffffffffffffffffffffffffffffffffffff16815260200190815260200160002060009054906101000a900460ff16905092915050565b610a14610c71565b73ffffffffffffffffffffffffffffffffffffffff168573ffffffffffffffffffffffffffffffffffffffff161480610a5a5750610a5985610a54610c71565b610978565b5b610a99576040517f08c379a0000000000000000000000000000000000000000000000000000000008152600401610a90906144d3565b60405180910390fd5b610aa68585858585611463565b5050505050565b610ab5610f9d565b600073ffffffffffffffffffffffffffffffffffffffff168173ffffffffffffffffffffffffffffffffffffffff1603610b24576040517f08c379a0000000000000000000000000000000000000000000000000000000008152600401610b1b9061469d565b60405180910390fd5b610b2d8161101b565b50565b600080600080610b4a67493357078ae76e6d60c01b610c6e565b610b5e675845920bfb995b6060c01b610c6e565b610b72677c2173065874bc9e60c01b610c6e565b60096000868152602001908152602001600020600301546009600087815260200190815260200160002060040160009054906101000a900460ff166009600088815260200190815260200160002060040160029054906101000a900460ff166009600089815260200190815260200160002060040160019054906101000a900460ff1693509350935093509193509193565b60007f01ffc9a7000000000000000000000000000000000000000000000000000000007bffffffffffffffffffffffffffffffffffffffffffffffffffffffff1916827bffffffffffffffffffffffffffffffffffffffffffffffffffffffff1916149050919050565b50565b600033905090565b8151835114610cbd576040517f08c379a0000000000000000000000000000000000000000000000000000000008152600401610cb49061472f565b60405180910390fd5b600073ffffffffffffffffffffffffffffffffffffffff168473ffffffffffffffffffffffffffffffffffffffff1603610d2c576040517f08c379a0000000000000000000000000000000000000000000000000000000008152600401610d23906147c1565b60405180910390fd5b6000610d36610c71565b9050610d46818787878787611701565b60005b8451811015610efa576000858281518110610d6757610d66614585565b5b602002602001015190506000858381518110610d8657610d85614585565b5b6020026020010151905060006001600084815260200190815260200160002060008b73ffffffffffffffffffffffffffffffffffffffff1673ffffffffffffffffffffffffffffffffffffffff16815260200190815260200160002054905081811015610e28576040517f08c379a0000000000000000000000000000000000000000000000000000000008152600401610e1f90614853565b60405180910390fd5b8181036001600085815260200190815260200160002060008c73ffffffffffffffffffffffffffffffffffffffff1673ffffffffffffffffffffffffffffffffffffffff16815260200190815260200160002081905550816001600085815260200190815260200160002060008b73ffffffffffffffffffffffffffffffffffffffff1673ffffffffffffffffffffffffffffffffffffffff1681526020019081526020016000206000828254610edf9190614873565b9250508190555050505080610ef3906145e3565b9050610d49565b508473ffffffffffffffffffffffffffffffffffffffff168673ffffffffffffffffffffffffffffffffffffffff168273ffffffffffffffffffffffffffffffffffffffff167f4a39dc06d4c0dbc64b70af90fd698a233a518aa5d07e595d983b8c0526c8f7fb8787604051610f719291906148a7565b60405180910390a4610f87818787878787611709565b610f95818787878787611711565b505050505050565b610fa5610c71565b73ffffffffffffffffffffffffffffffffffffffff16610fc36107c9565b73ffffffffffffffffffffffffffffffffffffffff1614611019576040517f08c379a00000000000000000000000000000000000000000000000000000000081526004016110109061492a565b60405180910390fd5b565b60008060009054906101000a900473ffffffffffffffffffffffffffffffffffffffff169050816000806101000a81548173ffffffffffffffffffffffffffffffffffffffff021916908373ffffffffffffffffffffffffffffffffffffffff1602179055508173ffffffffffffffffffffffffffffffffffffffff168173ffffffffffffffffffffffffffffffffffffffff167f8be0079c531659141344cd1fd0a4f28419497f9722a3daafe3b4186f6b6457e060405160405180910390a35050565b8173ffffffffffffffffffffffffffffffffffffffff168373ffffffffffffffffffffffffffffffffffffffff160361114d576040517f08c379a0000000000000000000000000000000000000000000000000000000008152600401611144906149bc565b60405180910390fd5b80600260008573ffffffffffffffffffffffffffffffffffffffff1673ffffffffffffffffffffffffffffffffffffffff16815260200190815260200160002060008473ffffffffffffffffffffffffffffffffffffffff1673ffffffffffffffffffffffffffffffffffffffff16815260200190815260200160002060006101000a81548160ff0219169083151502179055508173ffffffffffffffffffffffffffffffffffffffff168373ffffffffffffffffffffffffffffffffffffffff167f17307eab39ab6107e8899845ad3d59bd9653f200f220920489ca2b5937696c318360405161123e91906138ff565b60405180910390a3505050565b61125361079f565b15611293576040517f08c379a000000000000000000000000000000000000000000000000000000000815260040161128a90614a28565b60405180910390fd5b565b6112a967045313701da356e660c01b610c6e565b6112bd670517a1a70bb2776060c01b610c6e565b6112d167345b0fdf86d6929260c01b610c6e565b6112db89876118e8565b6112ef672934a6251d8e852660c01b610c6e565b611303675c04d6536ef8d16360c01b610c6e565b6113238989600b60008d81526020019081526020016000205488886119e1565b611337677d88d199e0e2b06460c01b610c6e565b61134b67c8dfcc39a53df7a660c01b610c6e565b6113558982611c1e565b6113696768107ca27c935b2960c01b610c6e565b61137d67daabc1d6724462b260c01b610c6e565b61138d89898760ff168a87611fba565b6113a16743c1416d1eb3456860c01b610c6e565b6113b567298474e82d9cf27a60c01b610c6e565b6113c48989848760ff1661273b565b6113d867c76acd65626377f360c01b610c6e565b6113ec6786e8ec8b4b8df7ec60c01b610c6e565b7fb79a1263d65160537b9075e0e4747a6007a82fb191be4435b4c508c431920b89896006600760405161142193929190614c35565b60405180910390a161143d671cde3608884cfe4660c01b610c6e565b6001600860006101000a81548160ff021916908315150217905550505050505050505050565b600073ffffffffffffffffffffffffffffffffffffffff168473ffffffffffffffffffffffffffffffffffffffff16036114d2576040517f08c379a00000000000000000000000000000000000000000000000000000000081526004016114c9906147c1565b60405180910390fd5b60006114dc610c71565b905060006114e985612a12565b905060006114f685612a12565b9050611506838989858589611701565b60006001600088815260200190815260200160002060008a73ffffffffffffffffffffffffffffffffffffffff1673ffffffffffffffffffffffffffffffffffffffff1681526020019081526020016000205490508581101561159e576040517f08c379a000000000000000000000000000000000000000000000000000000000815260040161159590614853565b60405180910390fd5b8581036001600089815260200190815260200160002060008b73ffffffffffffffffffffffffffffffffffffffff1673ffffffffffffffffffffffffffffffffffffffff16815260200190815260200160002081905550856001600089815260200190815260200160002060008a73ffffffffffffffffffffffffffffffffffffffff1673ffffffffffffffffffffffffffffffffffffffff16815260200190815260200160002060008282546116559190614873565b925050819055508773ffffffffffffffffffffffffffffffffffffffff168973ffffffffffffffffffffffffffffffffffffffff168573ffffffffffffffffffffffffffffffffffffffff167fc3d58168c5ae7397731d063d5bbf3d657854427343f4c083240f7aacaa2d0f628a8a6040516116d2929190614c7a565b60405180910390a46116e8848a8a86868a611709565b6116f6848a8a8a8a8a612a8c565b505050505050505050565b505050505050565b505050505050565b6117308473ffffffffffffffffffffffffffffffffffffffff16612c63565b156118e0578373ffffffffffffffffffffffffffffffffffffffff1663bc197c8187878686866040518663ffffffff1660e01b8152600401611776959493929190614cf8565b6020604051808303816000875af19250505080156117b257506040513d601f19601f820116820180604052508101906117af9190614d75565b60015b611857576117be614daf565b806308c379a00361181a57506117d2614dd1565b806117dd575061181c565b806040517f08c379a000000000000000000000000000000000000000000000000000000000815260040161181191906139d7565b60405180910390fd5b505b6040517f08c379a000000000000000000000000000000000000000000000000000000000815260040161184e90614ed3565b60405180910390fd5b63bc197c8160e01b7bffffffffffffffffffffffffffffffffffffffffffffffffffffffff1916817bffffffffffffffffffffffffffffffffffffffffffffffffffffffff1916146118de576040517f08c379a00000000000000000000000000000000000000000000000000000000081526004016118d590614f65565b60405180910390fd5b505b505050505050565b6118fc676e9c6377f00f5bbb60c01b610c6e565b61191067078833307a71b2bb60c01b610c6e565b6119246707c62ebaa2fe291860c01b610c6e565b61193867bd8e4998bf94c87b60c01b610c6e565b6000810361197b576040517f08c379a000000000000000000000000000000000000000000000000000000000815260040161197290614ff7565b60405180910390fd5b61198f67f9450a09747c6bc860c01b610c6e565b6119a367c3bf5bce8ed8392e60c01b610c6e565b42816119af9190614873565b90506119c56702a5cc15e215937360c01b610c6e565b80600b6000848152602001908152602001600020819055505050565b6119f5676b23f72428f05a5a60c01b610c6e565b611a0967a59371748f2bd5fe60c01b610c6e565b611a1d67bc6890b52ec8a6b060c01b610c6e565b611a316773de934dc15708a560c01b610c6e565b60008403611a74576040517f08c379a0000000000000000000000000000000000000000000000000000000008152600401611a6b90615089565b60405180910390fd5b611a88672847b80c7e3ea41260c01b610c6e565b611a9c67c5a21a14d2cdc6a860c01b610c6e565b611ab06724dd14c856dc5b6e60c01b610c6e565b611ac467b232bb1808c6889160c01b610c6e565b60008260ff1603611b0a576040517f08c379a0000000000000000000000000000000000000000000000000000000008152600401611b019061511b565b60405180910390fd5b611b1e67fdbbb9fc42fb326460c01b610c6e565b611b3267adcc73e70c461e2660c01b610c6e565b611b466737697edf57872b4260c01b610c6e565b6000600960008781526020019081526020016000209050611b71671484be4f5545900a60c01b610c6e565b858160000181905550611b8e67c2e136710984dc7960c01b610c6e565b848160010181905550611bab67c392474f025a3d3560c01b610c6e565b838160030181905550611bc8678163818a3fb367a160c01b610c6e565b828160040160006101000a81548160ff021916908360ff160217905550611bf967f0d37fd730e6881e60c01b610c6e565b818160040160016101000a81548160ff021916908360ff160217905550505050505050565b611c3267e5e3622a920e1a4260c01b610c6e565b611c4667b1a8938d01f7436e60c01b610c6e565b611c5a67f4f3abecf973e08860c01b610c6e565b6000600267ffffffffffffffff811115611c7757611c766139fe565b5b604051908082528060200260200182016040528015611caa57816020015b6060815260200190600190039081611c955790505b509050611cc167be574b27fb55a57a60c01b610c6e565b6040518060400160405280600681526020017f4c4f434b4544000000000000000000000000000000000000000000000000000081525081600081518110611d0b57611d0a614585565b5b6020026020010181905250611d2a678401be69987213a860c01b610c6e565b6040518060400160405280600681526020017f545241444544000000000000000000000000000000000000000000000000000081525081600181518110611d7457611d73614585565b5b6020026020010181905250611d9367c9878488e1fae71b60c01b610c6e565b611da767c436369b5f81c65460c01b610c6e565b60005b81518160ff161015611fb457611dca67247ffd0afc1e032760c01b610c6e565b611dde67fd6f85f10dad3d0460c01b610c6e565b6005828260ff1681518110611df657611df5614585565b5b6020026020010151908060018154018082558091505060019003906000526020600020016000909190919091509081611e2f91906152e7565b50611e44676eb7ab485d6c191460c01b610c6e565b611e586754908a8c1019c94f60c01b610c6e565b60006001600580549050611e6c91906153b9565b9050611e826791f75e7a46a3ef7a60c01b610c6e565b611e966720778797eb25370d60c01b610c6e565b600a6000868152602001908152602001600020819080600181540180825580915050600190039060005260206000200160009091909190915055611ee467de5ca9facffdbe9160c01b610c6e565b828260ff1681518110611efa57611ef9614585565b5b6020026020010151600d60008381526020019081526020016000209081611f2191906152e7565b50611f366790a0f3ef8d64fb8f60c01b610c6e565b84600c600083815260200190815260200160002081905550611f6267d40dffc99e9e993360c01b610c6e565b838260ff1681518110611f7857611f77614585565b5b6020026020010151600e60008381526020019081526020016000209081611f9f91906152e7565b50508080611fac906153ed565b915050611daa565b50505050565b611fce67df77498792cf7dcd60c01b610c6e565b611fe26751326b59044d941d60c01b610c6e565b611ff66764165cf48e0795aa60c01b610c6e565b6000600460009054906101000a900473ffffffffffffffffffffffffffffffffffffffff1673ffffffffffffffffffffffffffffffffffffffff1663c9187fe7876040518263ffffffff1660e01b81526004016120539190613844565b600060405180830381865afa158015612070573d6000803e3d6000fd5b505050506040513d6000823e3d601f19601f820116820180604052508101906120999190615567565b90506120af67da14215600237b8060c01b610c6e565b6120c367e0cb465402ef0db660c01b610c6e565b60006120ce87612c86565b90506120e467536bdbe8838f556360c01b610c6e565b6120f867cd3c16253d96418960c01b610c6e565b60006009600089815260200190815260200160002090506121236791e64534b1cd3ed260c01b610c6e565b848261212f9190614873565b915061214567ca1bf8ac3c5f0e6f60c01b610c6e565b612159675e10a89e86ee66a260c01b610c6e565b60005b600460009054906101000a900473ffffffffffffffffffffffffffffffffffffffff1673ffffffffffffffffffffffffffffffffffffffff166384ffeca58a6040518263ffffffff1660e01b81526004016121b79190613844565b602060405180830381865afa1580156121d4573d6000803e3d6000fd5b505050506040513d601f19601f820116820180604052508101906121f891906155c5565b8110156125ed5761221367869b1ebf9911403d60c01b610c6e565b612227679116c85051d9dd5560c01b610c6e565b6000600460009054906101000a900473ffffffffffffffffffffffffffffffffffffffff1673ffffffffffffffffffffffffffffffffffffffff166359a96ffe86848151811061227a57612279614585565b5b60200260200101516040518263ffffffff1660e01b815260040161229e91906155f2565b602060405180830381865afa1580156122bb573d6000803e3d6000fd5b505050506040513d601f19601f820116820180604052508101906122df9190615629565b90506122f5671d36beafa45c272360c01b610c6e565b61230967709c5ed10e37177f60c01b610c6e565b60006123ce600460009054906101000a900473ffffffffffffffffffffffffffffffffffffffff1673ffffffffffffffffffffffffffffffffffffffff16630e47cefa88868151811061235f5761235e614585565b5b60200260200101518e6040518363ffffffff1660e01b8152600401612385929190615656565b602060405180830381865afa1580156123a2573d6000803e3d6000fd5b505050506040513d601f19601f820116820180604052508101906123c691906155c5565b868b8d612f14565b90506123e467b1b3c0f643e8aef160c01b610c6e565b6123f8671ba265ed56cff63060c01b610c6e565b60006124038261302c565b90506124196706b017567703b4bf60c01b610c6e565b61242d676373306cf80355fc60c01b610c6e565b6124cf83600a60008f815260200190815260200160002080548060200260200160405190810160405280929190818152602001828054801561248e57602002820191906000526020600020905b81548152602001906001019080831161247a575b5050505050836040518060400160405280600481526020017f30783030000000000000000000000000000000000000000000000000000000008152506131bb565b6124e367dba4bb17d0eb8a4160c01b610c6e565b8185600201546124f39190614873565b856002018190555061250f67efd497b8f5407f8060c01b610c6e565b61252367c0eacc1cba0b450f60c01b610c6e565b6006839080600181540180825580915050600190039060005260206000200160009091909190916101000a81548173ffffffffffffffffffffffffffffffffffffffff021916908373ffffffffffffffffffffffffffffffffffffffff16021790555061259a67e3787bfd21fcac8560c01b610c6e565b6125ae67fa0d10fb46e3481360c01b610c6e565b600782908060018154018082558091505060019003906000526020600020016000909190919091505550505080806125e5906145e3565b91505061215c565b5061260267fb9e2596c88c5ec260c01b610c6e565b6126166781e89710a47ef99c60c01b610c6e565b6000612626898688868b8d6133e8565b905061263c67b9550541abcf3c1a60c01b610c6e565b80826002015461264c9190614873565b8260020181905550612668675203e27cb0b9f17b60c01b610c6e565b61267c67ddddbb65675b1ca960c01b610c6e565b6006859080600181540180825580915050600190039060005260206000200160009091909190916101000a81548173ffffffffffffffffffffffffffffffffffffffff021916908373ffffffffffffffffffffffffffffffffffffffff1602179055506126f3671c23b30664196bb860c01b610c6e565b612707677716a208e4d4aff860c01b610c6e565b6007819080600181540180825580915050600190039060005260206000200160009091909190915055505050505050505050565b61274f679c5be580aff8157060c01b610c6e565b61276367a40a084a2f77ceb860c01b610c6e565b612777672500ba4af42ce6ab60c01b610c6e565b60006009600086815260200190815260200160002090506127a26702e97f6716fe1e5060c01b610c6e565b6127b667925278c2e8dc4b6d60c01b610c6e565b6000606483866127c69190615686565b6127d091906156f7565b90506127e667ce47f549ca2ac62560c01b610c6e565b8082600201546127f69190614873565b8260020181905550612812678418c57d606467d760c01b610c6e565b6128266753ea471b208b1feb60c01b610c6e565b60006128318261302c565b90506128476793b402b60ed69df660c01b610c6e565b61285b671995d4a32c1853d760c01b610c6e565b60005b815181101561292c5761287b678fa697afb24900b460c01b610c6e565b61288f67b48d6e401c6c4c5060c01b610c6e565b61291986600a60008b815260200190815260200160002083815481106128b8576128b7614585565b5b90600052602060002001548484815181106128d6576128d5614585565b5b60200260200101516040518060400160405280600481526020017f307830300000000000000000000000000000000000000000000000000000000081525061359c565b8080612924906145e3565b91505061285e565b50612941678539d20c68087c7960c01b610c6e565b6129556779c5a977f48d2c9260c01b610c6e565b6006859080600181540180825580915050600190039060005260206000200160009091909190916101000a81548173ffffffffffffffffffffffffffffffffffffffff021916908373ffffffffffffffffffffffffffffffffffffffff1602179055506129cc67ed6f11cec03a659d60c01b610c6e565b6129e067dcf7076f445f86de60c01b610c6e565b600782908060018154018082558091505060019003906000526020600020016000909190919091505550505050505050565b60606000600167ffffffffffffffff811115612a3157612a306139fe565b5b604051908082528060200260200182016040528015612a5f5781602001602082028036833780820191505090505b5090508281600081518110612a7757612a76614585565b5b60200260200101818152505080915050919050565b612aab8473ffffffffffffffffffffffffffffffffffffffff16612c63565b15612c5b578373ffffffffffffffffffffffffffffffffffffffff1663f23a6e6187878686866040518663ffffffff1660e01b8152600401612af1959493929190615728565b6020604051808303816000875af1925050508015612b2d57506040513d601f19601f82011682018060405250810190612b2a9190614d75565b60015b612bd257612b39614daf565b806308c379a003612b955750612b4d614dd1565b80612b585750612b97565b806040517f08c379a0000000000000000000000000000000000000000000000000000000008152600401612b8c91906139d7565b60405180910390fd5b505b6040517f08c379a0000000000000000000000000000000000000000000000000000000008152600401612bc990614ed3565b60405180910390fd5b63f23a6e6160e01b7bffffffffffffffffffffffffffffffffffffffffffffffffffffffff1916817bffffffffffffffffffffffffffffffffffffffffffffffffffffffff191614612c59576040517f08c379a0000000000000000000000000000000000000000000000000000000008152600401612c5090614f65565b60405180910390fd5b505b505050505050565b6000808273ffffffffffffffffffffffffffffffffffffffff163b119050919050565b6000612c9c67d9ff3d2085ab30c760c01b610c6e565b612cb06746071a432c70448660c01b610c6e565b612cc467aeb12c3867abcc4960c01b610c6e565b6000600460009054906101000a900473ffffffffffffffffffffffffffffffffffffffff1673ffffffffffffffffffffffffffffffffffffffff1663c9187fe7846040518263ffffffff1660e01b8152600401612d219190613844565b600060405180830381865afa158015612d3e573d6000803e3d6000fd5b505050506040513d6000823e3d601f19601f82011682018060405250810190612d679190615567565b9050612d7d677488655232596c3360c01b610c6e565b612d9167974f61c1a94e89f360c01b610c6e565b6000612da767af55825f5d88e83e60c01b610c6e565b612dbb676a0caf1b0b1d58c560c01b610c6e565b60005b8251811015612ee157612ddb67931b8fab2e2e341660c01b610c6e565b612def672ecb136fb131368f60c01b610c6e565b6000600460009054906101000a900473ffffffffffffffffffffffffffffffffffffffff1673ffffffffffffffffffffffffffffffffffffffff16630e47cefa858481518110612e4257612e41614585565b5b6020026020010151886040518363ffffffff1660e01b8152600401612e68929190615656565b602060405180830381865afa158015612e85573d6000803e3d6000fd5b505050506040513d601f19601f82011682018060405250810190612ea991906155c5565b9050612ebf67167a72d3b0d2562860c01b610c6e565b8083612ecb9190614873565b9250508080612ed9906145e3565b915050612dbe565b50612ef667758283d16593171b60c01b610c6e565b612f0a673ce451fc100cc99f60c01b610c6e565b8092505050919050565b6000612f2a67c0bd86553dc9dcf760c01b610c6e565b612f3e67f13bac2db8aadd9d60c01b610c6e565b612f5267b04d8f64400656c460c01b610c6e565b600084866064612f629190615686565b612f6c91906156f7565b9050612f8267d187e030dcab719b60c01b610c6e565b612f9667e899675b913e526b60c01b610c6e565b600060648585612fa69190615686565b612fb091906156f7565b9050612fc667dc78ce2d2d268da760c01b610c6e565b612fda67b96e33ed7c183fba60c01b610c6e565b600060648383612fea9190615686565b612ff491906156f7565b905061300a6770bc9304bfb857ee60c01b610c6e565b61301e67b973c3dc08e485ba60c01b610c6e565b809350505050949350505050565b606061304267962e4a2c0fb2b9c060c01b610c6e565b61305667b3bb2928ea0a041560c01b610c6e565b61306a679896bbb6856bb8ed60c01b610c6e565b6000600267ffffffffffffffff811115613087576130866139fe565b5b6040519080825280602002602001820160405280156130b55781602001602082028036833780820191505090505b5090506130cc67b12fa4d57968989660c01b610c6e565b6130e06750dad8eadf8b14b560c01b610c6e565b600060646032856130f19190615686565b6130fb91906156f7565b905061311167bfbc053d5f05103e60c01b610c6e565b808260008151811061312657613125614585565b5b602002602001018181525050613146671abb5488a40b0f4e60c01b610c6e565b808461315291906153b9565b93506131686727a6e5d3e438f69c60c01b610c6e565b838260018151811061317d5761317c614585565b5b60200260200101818152505061319d671413fb46e77f556360c01b610c6e565b6131b167b0e8f4295db6a90e60c01b610c6e565b8192505050919050565b600073ffffffffffffffffffffffffffffffffffffffff168473ffffffffffffffffffffffffffffffffffffffff160361322a576040517f08c379a0000000000000000000000000000000000000000000000000000000008152600401613221906157f4565b60405180910390fd5b815183511461326e576040517f08c379a00000000000000000000000000000000000000000000000000000000081526004016132659061472f565b60405180910390fd5b6000613278610c71565b905061328981600087878787611701565b60005b8451811015613343578381815181106132a8576132a7614585565b5b6020026020010151600160008784815181106132c7576132c6614585565b5b6020026020010151815260200190815260200160002060008873ffffffffffffffffffffffffffffffffffffffff1673ffffffffffffffffffffffffffffffffffffffff16815260200190815260200160002060008282546133299190614873565b92505081905550808061333b906145e3565b91505061328c565b508473ffffffffffffffffffffffffffffffffffffffff16600073ffffffffffffffffffffffffffffffffffffffff168273ffffffffffffffffffffffffffffffffffffffff167f4a39dc06d4c0dbc64b70af90fd698a233a518aa5d07e595d983b8c0526c8f7fb87876040516133bb9291906148a7565b60405180910390a46133d281600087878787611709565b6133e181600087878787611711565b5050505050565b60006133fe6799456268be9ca2ab60c01b610c6e565b613412671c3ec0d0aa4275e260c01b610c6e565b613426672397560cdade6ce960c01b610c6e565b600061343486868686612f14565b905061344a67803778389d2790ab60c01b610c6e565b61345e67932c30032ac58a3a60c01b610c6e565b60006134698261302c565b905061347f67b38a387a3cce170560c01b610c6e565b61349367c297d28d9f8cda8060c01b610c6e565b60005b8151811015613564576134b3672204b13d5444ba5260c01b610c6e565b6134c7679b9717fb5ab3646660c01b610c6e565b61355189600a60008d815260200190815260200160002083815481106134f0576134ef614585565b5b906000526020600020015484848151811061350e5761350d614585565b5b60200260200101516040518060400160405280600481526020017f307830300000000000000000000000000000000000000000000000000000000081525061359c565b808061355c906145e3565b915050613496565b5061357967efb20c519b10d04a60c01b610c6e565b61358d670f37f0a4032d456f60c01b610c6e565b81925050509695505050505050565b600073ffffffffffffffffffffffffffffffffffffffff168473ffffffffffffffffffffffffffffffffffffffff160361360b576040517f08c379a0000000000000000000000000000000000000000000000000000000008152600401613602906157f4565b60405180910390fd5b6000613615610c71565b9050600061362285612a12565b9050600061362f85612a12565b905061364083600089858589611701565b846001600088815260200190815260200160002060008973ffffffffffffffffffffffffffffffffffffffff1673ffffffffffffffffffffffffffffffffffffffff16815260200190815260200160002060008282546136a09190614873565b925050819055508673ffffffffffffffffffffffffffffffffffffffff16600073ffffffffffffffffffffffffffffffffffffffff168473ffffffffffffffffffffffffffffffffffffffff167fc3d58168c5ae7397731d063d5bbf3d657854427343f4c083240f7aacaa2d0f62898960405161371e929190614c7a565b60405180910390a461373583600089858589611709565b61374483600089898989612a8c565b50505050505050565b6000604051905090565b600080fd5b600080fd5b600073ffffffffffffffffffffffffffffffffffffffff82169050919050565b600061378c82613761565b9050919050565b61379c81613781565b81146137a757600080fd5b50565b6000813590506137b981613793565b92915050565b6000819050919050565b6137d2816137bf565b81146137dd57600080fd5b50565b6000813590506137ef816137c9565b92915050565b6000806040838503121561380c5761380b613757565b5b600061381a858286016137aa565b925050602061382b858286016137e0565b9150509250929050565b61383e816137bf565b82525050565b60006020820190506138596000830184613835565b92915050565b60007fffffffff0000000000000000000000000000000000000000000000000000000082169050919050565b6138948161385f565b811461389f57600080fd5b50565b6000813590506138b18161388b565b92915050565b6000602082840312156138cd576138cc613757565b5b60006138db848285016138a2565b91505092915050565b60008115159050919050565b6138f9816138e4565b82525050565b600060208201905061391460008301846138f0565b92915050565b6000602082840312156139305761392f613757565b5b600061393e848285016137e0565b91505092915050565b600081519050919050565b600082825260208201905092915050565b60005b83811015613981578082015181840152602081019050613966565b60008484015250505050565b6000601f19601f8301169050919050565b60006139a982613947565b6139b38185613952565b93506139c3818560208601613963565b6139cc8161398d565b840191505092915050565b600060208201905081810360008301526139f1818461399e565b905092915050565b600080fd5b7f4e487b7100000000000000000000000000000000000000000000000000000000600052604160045260246000fd5b613a368261398d565b810181811067ffffffffffffffff82111715613a5557613a546139fe565b5b80604052505050565b6000613a6861374d565b9050613a748282613a2d565b919050565b600067ffffffffffffffff821115613a9457613a936139fe565b5b602082029050602081019050919050565b600080fd5b6000613abd613ab884613a79565b613a5e565b90508083825260208201905060208402830185811115613ae057613adf613aa5565b5b835b81811015613b095780613af588826137e0565b845260208401935050602081019050613ae2565b5050509392505050565b600082601f830112613b2857613b276139f9565b5b8135613b38848260208601613aaa565b91505092915050565b600080fd5b600067ffffffffffffffff821115613b6157613b606139fe565b5b613b6a8261398d565b9050602081019050919050565b82818337600083830152505050565b6000613b99613b9484613b46565b613a5e565b905082815260208101848484011115613bb557613bb4613b41565b5b613bc0848285613b77565b509392505050565b600082601f830112613bdd57613bdc6139f9565b5b8135613bed848260208601613b86565b91505092915050565b600080600080600060a08688031215613c1257613c11613757565b5b6000613c20888289016137aa565b9550506020613c31888289016137aa565b945050604086013567ffffffffffffffff811115613c5257613c5161375c565b5b613c5e88828901613b13565b935050606086013567ffffffffffffffff811115613c7f57613c7e61375c565b5b613c8b88828901613b13565b925050608086013567ffffffffffffffff811115613cac57613cab61375c565b5b613cb888828901613bc8565b9150509295509295909350565b600067ffffffffffffffff821115613ce057613cdf6139fe565b5b602082029050602081019050919050565b6000613d04613cff84613cc5565b613a5e565b90508083825260208201905060208402830185811115613d2757613d26613aa5565b5b835b81811015613d505780613d3c88826137aa565b845260208401935050602081019050613d29565b5050509392505050565b600082601f830112613d6f57613d6e6139f9565b5b8135613d7f848260208601613cf1565b91505092915050565b60008060408385031215613d9f57613d9e613757565b5b600083013567ffffffffffffffff811115613dbd57613dbc61375c565b5b613dc985828601613d5a565b925050602083013567ffffffffffffffff811115613dea57613de961375c565b5b613df685828601613b13565b9150509250929050565b600081519050919050565b600082825260208201905092915050565b6000819050602082019050919050565b613e35816137bf565b82525050565b6000613e478383613e2c565b60208301905092915050565b6000602082019050919050565b6000613e6b82613e00565b613e758185613e0b565b9350613e8083613e1c565b8060005b83811015613eb1578151613e988882613e3b565b9750613ea383613e53565b925050600181019050613e84565b5085935050505092915050565b60006020820190508181036000830152613ed88184613e60565b905092915050565b613ee981613781565b82525050565b6000602082019050613f046000830184613ee0565b92915050565b613f13816138e4565b8114613f1e57600080fd5b50565b600081359050613f3081613f0a565b92915050565b60008060408385031215613f4d57613f4c613757565b5b6000613f5b858286016137aa565b9250506020613f6c85828601613f21565b9150509250929050565b600060ff82169050919050565b613f8c81613f76565b8114613f9757600080fd5b50565b600081359050613fa981613f83565b92915050565b600067ffffffffffffffff821115613fca57613fc96139fe565b5b602082029050602081019050919050565b600067ffffffffffffffff821115613ff657613ff56139fe565b5b613fff8261398d565b9050602081019050919050565b600061401f61401a84613fdb565b613a5e565b90508281526020810184848401111561403b5761403a613b41565b5b614046848285613b77565b509392505050565b600082601f830112614063576140626139f9565b5b813561407384826020860161400c565b91505092915050565b600061408f61408a84613faf565b613a5e565b905080838252602082019050602084028301858111156140b2576140b1613aa5565b5b835b818110156140f957803567ffffffffffffffff8111156140d7576140d66139f9565b5b8086016140e4898261404e565b855260208501945050506020810190506140b4565b5050509392505050565b600082601f830112614118576141176139f9565b5b813561412884826020860161407c565b91505092915050565b60008060008060008060008060006101208a8c03121561415457614153613757565b5b60006141628c828d016137e0565b99505060206141738c828d016137e0565b98505060406141848c828d016137e0565b97505060606141958c828d016137e0565b96505060806141a68c828d01613f9a565b95505060a06141b78c828d01613f9a565b94505060c06141c88c828d016137aa565b93505060e06141d98c828d016137aa565b9250506101008a013567ffffffffffffffff8111156141fb576141fa61375c565b5b6142078c828d01614103565b9150509295985092959850929598565b6000806040838503121561422e5761422d613757565b5b600061423c858286016137aa565b925050602061424d858286016137aa565b9150509250929050565b600080600080600060a0868803121561427357614272613757565b5b6000614281888289016137aa565b9550506020614292888289016137aa565b94505060406142a3888289016137e0565b93505060606142b4888289016137e0565b925050608086013567ffffffffffffffff8111156142d5576142d461375c565b5b6142e188828901613bc8565b9150509295509295909350565b60006020828403121561430457614303613757565b5b6000614312848285016137aa565b91505092915050565b61432481613f76565b82525050565b600060808201905061433f6000830187613835565b61434c602083018661431b565b614359604083018561431b565b614366606083018461431b565b95945050505050565b7f455243313135353a2061646472657373207a65726f206973206e6f742061207660008201527f616c6964206f776e657200000000000000000000000000000000000000000000602082015250565b60006143cb602a83613952565b91506143d68261436f565b604082019050919050565b600060208201905081810360008301526143fa816143be565b9050919050565b7f4e487b7100000000000000000000000000000000000000000000000000000000600052602260045260246000fd5b6000600282049050600182168061444857607f821691505b60208210810361445b5761445a614401565b5b50919050565b7f455243313135353a2063616c6c6572206973206e6f7420746f6b656e206f776e60008201527f6572206f7220617070726f766564000000000000000000000000000000000000602082015250565b60006144bd602e83613952565b91506144c882614461565b604082019050919050565b600060208201905081810360008301526144ec816144b0565b9050919050565b7f455243313135353a206163636f756e747320616e6420696473206c656e67746860008201527f206d69736d617463680000000000000000000000000000000000000000000000602082015250565b600061454f602983613952565b915061455a826144f3565b604082019050919050565b6000602082019050818103600083015261457e81614542565b9050919050565b7f4e487b7100000000000000000000000000000000000000000000000000000000600052603260045260246000fd5b7f4e487b7100000000000000000000000000000000000000000000000000000000600052601160045260246000fd5b60006145ee826137bf565b91507fffffffffffffffffffffffffffffffffffffffffffffffffffffffffffffffff82036146205761461f6145b4565b5b600182019050919050565b7f4f776e61626c653a206e6577206f776e657220697320746865207a65726f206160008201527f6464726573730000000000000000000000000000000000000000000000000000602082015250565b6000614687602683613952565b91506146928261462b565b604082019050919050565b600060208201905081810360008301526146b68161467a565b9050919050565b7f455243313135353a2069647320616e6420616d6f756e7473206c656e6774682060008201527f6d69736d61746368000000000000000000000000000000000000000000000000602082015250565b6000614719602883613952565b9150614724826146bd565b604082019050919050565b600060208201905081810360008301526147488161470c565b9050919050565b7f455243313135353a207472616e7366657220746f20746865207a65726f20616460008201527f6472657373000000000000000000000000000000000000000000000000000000602082015250565b60006147ab602583613952565b91506147b68261474f565b604082019050919050565b600060208201905081810360008301526147da8161479e565b9050919050565b7f455243313135353a20696e73756666696369656e742062616c616e636520666f60008201527f72207472616e7366657200000000000000000000000000000000000000000000602082015250565b600061483d602a83613952565b9150614848826147e1565b604082019050919050565b6000602082019050818103600083015261486c81614830565b9050919050565b600061487e826137bf565b9150614889836137bf565b92508282019050808211156148a1576148a06145b4565b5b92915050565b600060408201905081810360008301526148c18185613e60565b905081810360208301526148d58184613e60565b90509392505050565b7f4f776e61626c653a2063616c6c6572206973206e6f7420746865206f776e6572600082015250565b6000614914602083613952565b915061491f826148de565b602082019050919050565b6000602082019050818103600083015261494381614907565b9050919050565b7f455243313135353a2073657474696e6720617070726f76616c2073746174757360008201527f20666f722073656c660000000000000000000000000000000000000000000000602082015250565b60006149a6602983613952565b91506149b18261494a565b604082019050919050565b600060208201905081810360008301526149d581614999565b9050919050565b7f5061757361626c653a2070617573656400000000000000000000000000000000600082015250565b6000614a12601083613952565b9150614a1d826149dc565b602082019050919050565b60006020820190508181036000830152614a4181614a05565b9050919050565b600081549050919050565b600082825260208201905092915050565b60008190508160005260206000209050919050565b614a8281613781565b82525050565b6000614a948383614a79565b60208301905092915050565b60008160001c9050919050565b600073ffffffffffffffffffffffffffffffffffffffff82169050919050565b6000614ae0614adb83614aa0565b614aad565b9050919050565b6000614af38254614acd565b9050919050565b6000600182019050919050565b6000614b1282614a48565b614b1c8185614a53565b9350614b2783614a64565b8060005b83811015614b5f57614b3c82614ae7565b614b468882614a88565b9750614b5183614afa565b925050600181019050614b2b565b5085935050505092915050565b600081549050919050565b60008190508160005260206000209050919050565b6000819050919050565b6000614ba9614ba483614aa0565b614b8c565b9050919050565b6000614bbc8254614b96565b9050919050565b6000600182019050919050565b6000614bdb82614b6c565b614be58185613e0b565b9350614bf083614b77565b8060005b83811015614c2857614c0582614bb0565b614c0f8882613e3b565b9750614c1a83614bc3565b925050600181019050614bf4565b5085935050505092915050565b6000606082019050614c4a6000830186613835565b8181036020830152614c5c8185614b07565b90508181036040830152614c708184614bd0565b9050949350505050565b6000604082019050614c8f6000830185613835565b614c9c6020830184613835565b9392505050565b600081519050919050565b600082825260208201905092915050565b6000614cca82614ca3565b614cd48185614cae565b9350614ce4818560208601613963565b614ced8161398d565b840191505092915050565b600060a082019050614d0d6000830188613ee0565b614d1a6020830187613ee0565b8181036040830152614d2c8186613e60565b90508181036060830152614d408185613e60565b90508181036080830152614d548184614cbf565b90509695505050505050565b600081519050614d6f8161388b565b92915050565b600060208284031215614d8b57614d8a613757565b5b6000614d9984828501614d60565b91505092915050565b60008160e01c9050919050565b600060033d1115614dce5760046000803e614dcb600051614da2565b90505b90565b600060443d10614e5e57614de361374d565b60043d036004823e80513d602482011167ffffffffffffffff82111715614e0b575050614e5e565b808201805167ffffffffffffffff811115614e295750505050614e5e565b80602083010160043d038501811115614e46575050505050614e5e565b614e5582602001850186613a2d565b82955050505050505b90565b7f455243313135353a207472616e7366657220746f206e6f6e2d4552433131353560008201527f526563656976657220696d706c656d656e746572000000000000000000000000602082015250565b6000614ebd603483613952565b9150614ec882614e61565b604082019050919050565b60006020820190508181036000830152614eec81614eb0565b9050919050565b7f455243313135353a204552433131353552656365697665722072656a6563746560008201527f6420746f6b656e73000000000000000000000000000000000000000000000000602082015250565b6000614f4f602883613952565b9150614f5a82614ef3565b604082019050919050565b60006020820190508181036000830152614f7e81614f42565b9050919050565b7f52454a5556453a204c6f636b20706572696f642063616e6e6f74206265207a6560008201527f726f000000000000000000000000000000000000000000000000000000000000602082015250565b6000614fe1602283613952565b9150614fec82614f85565b604082019050919050565b6000602082019050818103600083015261501081614fd4565b9050919050565b7f52454a5556453a2054617267657420737570706c792063616e6e6f742062652060008201527f3000000000000000000000000000000000000000000000000000000000000000602082015250565b6000615073602183613952565b915061507e82615017565b604082019050919050565b600060208201905081810360008301526150a281615066565b9050919050565b7f52454a5556453a20496e697469616c20636f6e7472696275746f72732070657260008201527f63656e742063616e6e6f74206265203000000000000000000000000000000000602082015250565b6000615105603083613952565b9150615110826150a9565b604082019050919050565b60006020820190508181036000830152615134816150f8565b9050919050565b60008190508160005260206000209050919050565b60006020601f8301049050919050565b600082821b905092915050565b60006008830261519d7fffffffffffffffffffffffffffffffffffffffffffffffffffffffffffffffff82615160565b6151a78683615160565b95508019841693508086168417925050509392505050565b6000819050919050565b60006151e46151df6151da846137bf565b6151bf565b6137bf565b9050919050565b6000819050919050565b6151fe836151c9565b61521261520a826151eb565b84845461516d565b825550505050565b600090565b61522761521a565b6152328184846151f5565b505050565b5b818110156152565761524b60008261521f565b600181019050615238565b5050565b601f82111561529b5761526c8161513b565b61527584615150565b81016020851015615284578190505b61529861529085615150565b830182615237565b50505b505050565b600082821c905092915050565b60006152be600019846008026152a0565b1980831691505092915050565b60006152d783836152ad565b9150826002028217905092915050565b6152f082613947565b67ffffffffffffffff811115615309576153086139fe565b5b6153138254614430565b61531e82828561525a565b600060209050601f831160018114615351576000841561533f578287015190505b61534985826152cb565b8655506153b1565b601f19841661535f8661513b565b60005b8281101561538757848901518255600182019150602085019450602081019050615362565b868310156153a457848901516153a0601f8916826152ad565b8355505b6001600288020188555050505b505050505050565b60006153c4826137bf565b91506153cf836137bf565b92508282039050818111156153e7576153e66145b4565b5b92915050565b60006153f882613f76565b915060ff820361540b5761540a6145b4565b5b600182019050919050565b600067ffffffffffffffff821115615431576154306139fe565b5b602082029050602081019050919050565b600061545561545084613b46565b613a5e565b90508281526020810184848401111561547157615470613b41565b5b61547c848285613963565b509392505050565b600082601f830112615499576154986139f9565b5b81516154a9848260208601615442565b91505092915050565b60006154c56154c084615416565b613a5e565b905080838252602082019050602084028301858111156154e8576154e7613aa5565b5b835b8181101561552f57805167ffffffffffffffff81111561550d5761550c6139f9565b5b80860161551a8982615484565b855260208501945050506020810190506154ea565b5050509392505050565b600082601f83011261554e5761554d6139f9565b5b815161555e8482602086016154b2565b91505092915050565b60006020828403121561557d5761557c613757565b5b600082015167ffffffffffffffff81111561559b5761559a61375c565b5b6155a784828501615539565b91505092915050565b6000815190506155bf816137c9565b92915050565b6000602082840312156155db576155da613757565b5b60006155e9848285016155b0565b91505092915050565b6000602082019050818103600083015261560c8184614cbf565b905092915050565b60008151905061562381613793565b92915050565b60006020828403121561563f5761563e613757565b5b600061564d84828501615614565b91505092915050565b600060408201905081810360008301526156708185614cbf565b905061567f6020830184613835565b9392505050565b6000615691826137bf565b915061569c836137bf565b92508282026156aa816137bf565b915082820484148315176156c1576156c06145b4565b5b5092915050565b7f4e487b7100000000000000000000000000000000000000000000000000000000600052601260045260246000fd5b6000615702826137bf565b915061570d836137bf565b92508261571d5761571c6156c8565b5b828204905092915050565b600060a08201905061573d6000830188613ee0565b61574a6020830187613ee0565b6157576040830186613835565b6157646060830185613835565b81810360808301526157768184614cbf565b90509695505050505050565b7f455243313135353a206d696e7420746f20746865207a65726f2061646472657360008201527f7300000000000000000000000000000000000000000000000000000000000000602082015250565b60006157de602183613952565b91506157e982615782565b604082019050919050565b6000602082019050818103600083015261580d816157d1565b905091905056fea2646970667358221220f4c28667317bc766afdd1680e2dd5c0d0e01123dbe56d11ebba20b1a2267f1c064736f6c63430008110033",
  "linkReferences": {},
  "deployedLinkReferences": {}
}