{
  "_format": "hh-sol-artifact-1",
  "contractName": "ProductShards",
  "sourceName": "contracts/ProductShards.sol",
  "abi": [
    {
      "inputs": [
        {
          "internalType": "string",
          "name": "uri_",
          "type": "string"
        },
        {
          "internalType": "address",
          "name": "productNFT_",
          "type": "address"
        }
      ],
      "stateMutability": "nonpayable",
      "type": "constructor"
    },
    {
      "anonymous": false,
      "inputs": [
        {
          "indexed": true,
          "internalType": "address",
          "name": "account",
          "type": "address"
        },
        {
          "indexed": true,
          "internalType": "address",
          "name": "operator",
          "type": "address"
        },
        {
          "indexed": false,
          "internalType": "bool",
          "name": "approved",
          "type": "bool"
        }
      ],
      "name": "ApprovalForAll",
      "type": "event"
    },
    {
      "anonymous": false,
      "inputs": [
        {
          "indexed": false,
          "internalType": "uint256",
          "name": "productUID",
          "type": "uint256"
        },
        {
          "indexed": false,
          "internalType": "address[]",
          "name": "dataOwners",
          "type": "address[]"
        },
        {
          "indexed": false,
          "internalType": "uint256[]",
          "name": "shardAmount",
          "type": "uint256[]"
        }
      ],
      "name": "InitialShardDistributed",
      "type": "event"
    },
    {
      "anonymous": false,
      "inputs": [
        {
          "indexed": true,
          "internalType": "address",
          "name": "previousOwner",
          "type": "address"
        },
        {
          "indexed": true,
          "internalType": "address",
          "name": "newOwner",
          "type": "address"
        }
      ],
      "name": "OwnershipTransferred",
      "type": "event"
    },
    {
      "anonymous": false,
      "inputs": [
        {
          "indexed": false,
          "internalType": "address",
          "name": "account",
          "type": "address"
        }
      ],
      "name": "Paused",
      "type": "event"
    },
    {
      "anonymous": false,
      "inputs": [
        {
          "indexed": true,
          "internalType": "address",
          "name": "operator",
          "type": "address"
        },
        {
          "indexed": true,
          "internalType": "address",
          "name": "from",
          "type": "address"
        },
        {
          "indexed": true,
          "internalType": "address",
          "name": "to",
          "type": "address"
        },
        {
          "indexed": false,
          "internalType": "uint256[]",
          "name": "ids",
          "type": "uint256[]"
        },
        {
          "indexed": false,
          "internalType": "uint256[]",
          "name": "values",
          "type": "uint256[]"
        }
      ],
      "name": "TransferBatch",
      "type": "event"
    },
    {
      "anonymous": false,
      "inputs": [
        {
          "indexed": true,
          "internalType": "address",
          "name": "operator",
          "type": "address"
        },
        {
          "indexed": true,
          "internalType": "address",
          "name": "from",
          "type": "address"
        },
        {
          "indexed": true,
          "internalType": "address",
          "name": "to",
          "type": "address"
        },
        {
          "indexed": false,
          "internalType": "uint256",
          "name": "id",
          "type": "uint256"
        },
        {
          "indexed": false,
          "internalType": "uint256",
          "name": "value",
          "type": "uint256"
        }
      ],
      "name": "TransferSingle",
      "type": "event"
    },
    {
      "anonymous": false,
      "inputs": [
        {
          "indexed": false,
          "internalType": "string",
          "name": "value",
          "type": "string"
        },
        {
          "indexed": true,
          "internalType": "uint256",
          "name": "id",
          "type": "uint256"
        }
      ],
      "name": "URI",
      "type": "event"
    },
    {
      "anonymous": false,
      "inputs": [
        {
          "indexed": false,
          "internalType": "address",
          "name": "account",
          "type": "address"
        }
      ],
      "name": "Unpaused",
      "type": "event"
    },
    {
      "inputs": [
        {
          "internalType": "address",
          "name": "account",
          "type": "address"
        },
        {
          "internalType": "uint256",
          "name": "id",
          "type": "uint256"
        }
      ],
      "name": "balanceOf",
      "outputs": [
        {
          "internalType": "uint256",
          "name": "",
          "type": "uint256"
        }
      ],
      "stateMutability": "view",
      "type": "function"
    },
    {
      "inputs": [
        {
          "internalType": "address[]",
          "name": "accounts",
          "type": "address[]"
        },
        {
          "internalType": "uint256[]",
          "name": "ids",
          "type": "uint256[]"
        }
      ],
      "name": "balanceOfBatch",
      "outputs": [
        {
          "internalType": "uint256[]",
          "name": "",
          "type": "uint256[]"
        }
      ],
      "stateMutability": "view",
      "type": "function"
    },
    {
      "inputs": [
        {
          "internalType": "uint256",
          "name": "productUID",
          "type": "uint256"
        },
        {
          "internalType": "uint256",
          "name": "targetSupply_",
          "type": "uint256"
        },
        {
          "internalType": "uint256",
          "name": "labCredit",
          "type": "uint256"
        },
        {
          "internalType": "uint256",
          "name": "lockPeriod",
          "type": "uint256"
        },
        {
          "internalType": "uint8",
          "name": "initialPercent",
          "type": "uint8"
        },
        {
          "internalType": "uint8",
          "name": "rejuvePercent",
          "type": "uint8"
        },
        {
          "internalType": "address",
          "name": "lab",
          "type": "address"
        },
        {
          "internalType": "address",
          "name": "rejuve",
          "type": "address"
        },
        {
          "internalType": "string[]",
          "name": "uris",
          "type": "string[]"
        }
      ],
      "name": "distributeInitialShards",
      "outputs": [],
      "stateMutability": "nonpayable",
      "type": "function"
    },
    {
      "inputs": [
        {
          "internalType": "uint256",
          "name": "productUID",
          "type": "uint256"
        }
      ],
      "name": "getProductIDs",
      "outputs": [
        {
          "internalType": "uint256[]",
          "name": "",
          "type": "uint256[]"
        }
      ],
      "stateMutability": "view",
      "type": "function"
    },
    {
      "inputs": [
        {
          "internalType": "uint256",
          "name": "productUID",
          "type": "uint256"
        }
      ],
      "name": "getShardsConfig",
      "outputs": [
        {
          "internalType": "uint256",
          "name": "",
          "type": "uint256"
        },
        {
          "internalType": "uint8",
          "name": "",
          "type": "uint8"
        },
        {
          "internalType": "uint8",
          "name": "",
          "type": "uint8"
        },
        {
          "internalType": "uint8",
          "name": "",
          "type": "uint8"
        }
      ],
      "stateMutability": "view",
      "type": "function"
    },
    {
      "inputs": [
        {
          "internalType": "address",
          "name": "account",
          "type": "address"
        },
        {
          "internalType": "address",
          "name": "operator",
          "type": "address"
        }
      ],
      "name": "isApprovedForAll",
      "outputs": [
        {
          "internalType": "bool",
          "name": "",
          "type": "bool"
        }
      ],
      "stateMutability": "view",
      "type": "function"
    },
    {
      "inputs": [],
      "name": "owner",
      "outputs": [
        {
          "internalType": "address",
          "name": "",
          "type": "address"
        }
      ],
      "stateMutability": "view",
      "type": "function"
    },
    {
      "inputs": [],
      "name": "paused",
      "outputs": [
        {
          "internalType": "bool",
          "name": "",
          "type": "bool"
        }
      ],
      "stateMutability": "view",
      "type": "function"
    },
    {
      "inputs": [],
      "name": "renounceOwnership",
      "outputs": [],
      "stateMutability": "nonpayable",
      "type": "function"
    },
    {
      "inputs": [
        {
          "internalType": "address",
          "name": "from",
          "type": "address"
        },
        {
          "internalType": "address",
          "name": "to",
          "type": "address"
        },
        {
          "internalType": "uint256[]",
          "name": "ids",
          "type": "uint256[]"
        },
        {
          "internalType": "uint256[]",
          "name": "amounts",
          "type": "uint256[]"
        },
        {
          "internalType": "bytes",
          "name": "data",
          "type": "bytes"
        }
      ],
      "name": "safeBatchTransferFrom",
      "outputs": [],
      "stateMutability": "nonpayable",
      "type": "function"
    },
    {
      "inputs": [
        {
          "internalType": "address",
          "name": "from",
          "type": "address"
        },
        {
          "internalType": "address",
          "name": "to",
          "type": "address"
        },
        {
          "internalType": "uint256",
          "name": "id",
          "type": "uint256"
        },
        {
          "internalType": "uint256",
          "name": "amount",
          "type": "uint256"
        },
        {
          "internalType": "bytes",
          "name": "data",
          "type": "bytes"
        }
      ],
      "name": "safeTransferFrom",
      "outputs": [],
      "stateMutability": "nonpayable",
      "type": "function"
    },
    {
      "inputs": [
        {
          "internalType": "address",
          "name": "operator",
          "type": "address"
        },
        {
          "internalType": "bool",
          "name": "approved",
          "type": "bool"
        }
      ],
      "name": "setApprovalForAll",
      "outputs": [],
      "stateMutability": "nonpayable",
      "type": "function"
    },
    {
      "inputs": [
        {
          "internalType": "bytes4",
          "name": "interfaceId",
          "type": "bytes4"
        }
      ],
      "name": "supportsInterface",
      "outputs": [
        {
          "internalType": "bool",
          "name": "",
          "type": "bool"
        }
      ],
      "stateMutability": "view",
      "type": "function"
    },
    {
      "inputs": [
        {
          "internalType": "uint256",
          "name": "productUID",
          "type": "uint256"
        }
      ],
      "name": "targetSupply",
      "outputs": [
        {
          "internalType": "uint256",
          "name": "",
          "type": "uint256"
        }
      ],
      "stateMutability": "view",
      "type": "function"
    },
    {
      "inputs": [
        {
          "internalType": "uint256",
          "name": "productUID",
          "type": "uint256"
        }
      ],
      "name": "totalShardSupply",
      "outputs": [
        {
          "internalType": "uint256",
          "name": "",
          "type": "uint256"
        }
      ],
      "stateMutability": "view",
      "type": "function"
    },
    {
      "inputs": [
        {
          "internalType": "address",
          "name": "newOwner",
          "type": "address"
        }
      ],
      "name": "transferOwnership",
      "outputs": [],
      "stateMutability": "nonpayable",
      "type": "function"
    },
    {
      "inputs": [
        {
          "internalType": "uint256",
          "name": "id",
          "type": "uint256"
        }
      ],
      "name": "uri",
      "outputs": [
        {
          "internalType": "string",
          "name": "",
          "type": "string"
        }
      ],
      "stateMutability": "view",
      "type": "function"
    }
  ],
  "bytecode": "0x60806040523480156200001157600080fd5b506040516200671f3803806200671f8339818101604052810190620000379190620003e1565b81620000586200004c6200010560201b60201c565b6200010d60201b60201c565b60008060146101000a81548160ff0219169083151502179055506200008381620001d160201b60201c565b50620000a0679bf6fa4a2bfb7d8860c01b620001e660201b60201c565b620000bc67d369b1ae4aaf4d5c60c01b620001e660201b60201c565b80600460006101000a81548173ffffffffffffffffffffffffffffffffffffffff021916908373ffffffffffffffffffffffffffffffffffffffff160217905550505062000779565b600033905090565b60008060009054906101000a900473ffffffffffffffffffffffffffffffffffffffff169050816000806101000a81548173ffffffffffffffffffffffffffffffffffffffff021916908373ffffffffffffffffffffffffffffffffffffffff1602179055508173ffffffffffffffffffffffffffffffffffffffff168173ffffffffffffffffffffffffffffffffffffffff167f8be0079c531659141344cd1fd0a4f28419497f9722a3daafe3b4186f6b6457e060405160405180910390a35050565b8060039081620001e2919062000692565b5050565b50565b6000604051905090565b600080fd5b600080fd5b600080fd5b600080fd5b6000601f19601f8301169050919050565b7f4e487b7100000000000000000000000000000000000000000000000000000000600052604160045260246000fd5b620002528262000207565b810181811067ffffffffffffffff8211171562000274576200027362000218565b5b80604052505050565b600062000289620001e9565b905062000297828262000247565b919050565b600067ffffffffffffffff821115620002ba57620002b962000218565b5b620002c58262000207565b9050602081019050919050565b60005b83811015620002f2578082015181840152602081019050620002d5565b60008484015250505050565b6000620003156200030f846200029c565b6200027d565b90508281526020810184848401111562000334576200033362000202565b5b62000341848285620002d2565b509392505050565b600082601f830112620003615762000360620001fd565b5b815162000373848260208601620002fe565b91505092915050565b600073ffffffffffffffffffffffffffffffffffffffff82169050919050565b6000620003a9826200037c565b9050919050565b620003bb816200039c565b8114620003c757600080fd5b50565b600081519050620003db81620003b0565b92915050565b60008060408385031215620003fb57620003fa620001f3565b5b600083015167ffffffffffffffff8111156200041c576200041b620001f8565b5b6200042a8582860162000349565b92505060206200043d85828601620003ca565b9150509250929050565b600081519050919050565b7f4e487b7100000000000000000000000000000000000000000000000000000000600052602260045260246000fd5b600060028204905060018216806200049a57607f821691505b602082108103620004b057620004af62000452565b5b50919050565b60008190508160005260206000209050919050565b60006020601f8301049050919050565b600082821b905092915050565b6000600883026200051a7fffffffffffffffffffffffffffffffffffffffffffffffffffffffffffffffff82620004db565b620005268683620004db565b95508019841693508086168417925050509392505050565b6000819050919050565b6000819050919050565b6000620005736200056d62000567846200053e565b62000548565b6200053e565b9050919050565b6000819050919050565b6200058f8362000552565b620005a76200059e826200057a565b848454620004e8565b825550505050565b600090565b620005be620005af565b620005cb81848462000584565b505050565b5b81811015620005f357620005e7600082620005b4565b600181019050620005d1565b5050565b601f82111562000642576200060c81620004b6565b6200061784620004cb565b8101602085101562000627578190505b6200063f6200063685620004cb565b830182620005d0565b50505b505050565b600082821c905092915050565b6000620006676000198460080262000647565b1980831691505092915050565b600062000682838362000654565b9150826002028217905092915050565b6200069d8262000447565b67ffffffffffffffff811115620006b957620006b862000218565b5b620006c5825462000481565b620006d2828285620005f7565b600060209050601f8311600181146200070a5760008415620006f5578287015190505b62000701858262000674565b86555062000771565b601f1984166200071a86620004b6565b60005b8281101562000744578489015182556001820191506020850194506020810190506200071d565b8683101562000764578489015162000760601f89168262000654565b8355505b6001600288020188555050505b505050505050565b615f9680620007896000396000f3fe608060405234801561001057600080fd5b506004361061010a5760003560e01c80638da5cb5b116100a2578063d6e0dbda11610071578063d6e0dbda146102c9578063e985e9c5146102f9578063f242432a14610329578063f2fde38b14610345578063fac795c0146103615761010a565b80638da5cb5b14610243578063936906f114610261578063a22cb46514610291578063d429c758146102ad5761010a565b80634e1273f4116100de5780634e1273f4146101bb5780634e57d942146101eb5780635c975abb1461021b578063715018a6146102395761010a565b8062fdd58e1461010f57806301ffc9a71461013f5780630e89341c1461016f5780632eb2c2d61461019f575b600080fd5b61012960048036038101906101249190613c67565b610394565b6040516101369190613cb6565b60405180910390f35b61015960048036038101906101549190613d29565b61045d565b6040516101669190613d71565b60405180910390f35b61018960048036038101906101849190613d8c565b61053f565b6040516101969190613e49565b60405180910390f35b6101b960048036038101906101b49190614068565b610620565b005b6101d560048036038101906101d091906141fa565b6106c1565b6040516101e29190614330565b60405180910390f35b61020560048036038101906102009190613d8c565b6107da565b6040516102129190614330565b60405180910390f35b610223610881565b6040516102309190613d71565b60405180910390f35b610241610897565b005b61024b6108ab565b6040516102589190614361565b60405180910390f35b61027b60048036038101906102769190613d8c565b6108d4565b6040516102889190613cb6565b60405180910390f35b6102ab60048036038101906102a691906143a8565b610930565b005b6102c760048036038101906102c291906145a3565b610946565b005b6102e360048036038101906102de9190613d8c565b610a36565b6040516102f09190613cb6565b60405180910390f35b610313600480360381019061030e9190614689565b610a92565b6040516103209190613d71565b60405180910390f35b610343600480360381019061033e91906146c9565b610b26565b005b61035f600480360381019061035a9190614760565b610bc7565b005b61037b60048036038101906103769190613d8c565b610c4a565b60405161038b949392919061479c565b60405180910390f35b60008073ffffffffffffffffffffffffffffffffffffffff168373ffffffffffffffffffffffffffffffffffffffff1603610404576040517f08c379a00000000000000000000000000000000000000000000000000000000081526004016103fb90614853565b60405180910390fd5b6001600083815260200190815260200160002060008473ffffffffffffffffffffffffffffffffffffffff1673ffffffffffffffffffffffffffffffffffffffff16815260200190815260200160002054905092915050565b60007fd9b67a26000000000000000000000000000000000000000000000000000000007bffffffffffffffffffffffffffffffffffffffffffffffffffffffff1916827bffffffffffffffffffffffffffffffffffffffffffffffffffffffff1916148061052857507f0e89341c000000000000000000000000000000000000000000000000000000007bffffffffffffffffffffffffffffffffffffffffffffffffffffffff1916827bffffffffffffffffffffffffffffffffffffffffffffffffffffffff1916145b80610538575061053782610d1e565b5b9050919050565b606061055567aebe2a23261a44c960c01b610d88565b61056967ce7e659afee2fd0960c01b610d88565b61057d67fbc6b03b75f5137360c01b610d88565b600e6000838152602001908152602001600020805461059b906148a2565b80601f01602080910402602001604051908101604052809291908181526020018280546105c7906148a2565b80156106145780601f106105e957610100808354040283529160200191610614565b820191906000526020600020905b8154815290600101906020018083116105f757829003601f168201915b50505050509050919050565b610628610d8b565b73ffffffffffffffffffffffffffffffffffffffff168573ffffffffffffffffffffffffffffffffffffffff16148061066e575061066d85610668610d8b565b610a92565b5b6106ad576040517f08c379a00000000000000000000000000000000000000000000000000000000081526004016106a490614945565b60405180910390fd5b6106ba8585858585610d93565b5050505050565b60608151835114610707576040517f08c379a00000000000000000000000000000000000000000000000000000000081526004016106fe906149d7565b60405180910390fd5b6000835167ffffffffffffffff81111561072457610723613e70565b5b6040519080825280602002602001820160405280156107525781602001602082028036833780820191505090505b50905060005b84518110156107cf5761079f858281518110610777576107766149f7565b5b6020026020010151858381518110610792576107916149f7565b5b6020026020010151610394565b8282815181106107b2576107b16149f7565b5b602002602001018181525050806107c890614a55565b9050610758565b508091505092915050565b60606107f06722604be50b9f041660c01b610d88565b61080467a6f1c1f3f7bd99ce60c01b610d88565b61081867cda8f5d3e2f487d460c01b610d88565b600a600083815260200190815260200160002080548060200260200160405190810160405280929190818152602001828054801561087557602002820191906000526020600020905b815481526020019060010190808311610861575b50505050509050919050565b60008060149054906101000a900460ff16905090565b61089f6110b7565b6108a96000611135565b565b60008060009054906101000a900473ffffffffffffffffffffffffffffffffffffffff16905090565b60006108ea671c4fadc21c9a16a260c01b610d88565b6108fe67cab08564ce9e7e9a60c01b610d88565b610912672886f1eb74b2daa260c01b610d88565b60096000838152602001908152602001600020600101549050919050565b61094261093b610d8b565b83836111f9565b5050565b61095a67b342c3f70da31b7d60c01b610d88565b6109626110b7565b610976679f9dc97fb189442060c01b610d88565b61098a676fd38ff7e78a1d3f60c01b610d88565b610992611365565b6109a6677fddb75df20bea7f60c01b610d88565b6109ba678468081c1b1357ac60c01b610d88565b6109ce676e3ef9774a73e81360c01b610d88565b6109e26792491d56385ecc7c60c01b610d88565b6109f288888888888888886113af565b610a0667671c0c4d2fe650b160c01b610d88565b610a1a67659d0174fa4f0bff60c01b610d88565b610a2b8989898989898989896118c4565b505050505050505050565b6000610a4c67cdbe933b2af6fb5960c01b610d88565b610a606755bc71e6e7ae880b60c01b610d88565b610a746723a1143aabdc8dbf60c01b610d88565b60096000838152602001908152602001600020600201549050919050565b6000600260008473ffffffffffffffffffffffffffffffffffffffff1673ffffffffffffffffffffffffffffffffffffffff16815260200190815260200160002060008373ffffffffffffffffffffffffffffffffffffffff1673ffffffffffffffffffffffffffffffffffffffff16815260200190815260200160002060009054906101000a900460ff16905092915050565b610b2e610d8b565b73ffffffffffffffffffffffffffffffffffffffff168573ffffffffffffffffffffffffffffffffffffffff161480610b745750610b7385610b6e610d8b565b610a92565b5b610bb3576040517f08c379a0000000000000000000000000000000000000000000000000000000008152600401610baa90614945565b60405180910390fd5b610bc08585858585611a91565b5050505050565b610bcf6110b7565b600073ffffffffffffffffffffffffffffffffffffffff168173ffffffffffffffffffffffffffffffffffffffff1603610c3e576040517f08c379a0000000000000000000000000000000000000000000000000000000008152600401610c3590614b0f565b60405180910390fd5b610c4781611135565b50565b600080600080610c646707c35272e207b50160c01b610d88565b610c78674a0d05ec507fb2d260c01b610d88565b610c8c67984913895d1ff70f60c01b610d88565b60096000868152602001908152602001600020600301546009600087815260200190815260200160002060040160009054906101000a900460ff166009600088815260200190815260200160002060040160029054906101000a900460ff166009600089815260200190815260200160002060040160019054906101000a900460ff1693509350935093509193509193565b60007f01ffc9a7000000000000000000000000000000000000000000000000000000007bffffffffffffffffffffffffffffffffffffffffffffffffffffffff1916827bffffffffffffffffffffffffffffffffffffffffffffffffffffffff1916149050919050565b50565b600033905090565b8151835114610dd7576040517f08c379a0000000000000000000000000000000000000000000000000000000008152600401610dce90614ba1565b60405180910390fd5b600073ffffffffffffffffffffffffffffffffffffffff168473ffffffffffffffffffffffffffffffffffffffff1603610e46576040517f08c379a0000000000000000000000000000000000000000000000000000000008152600401610e3d90614c33565b60405180910390fd5b6000610e50610d8b565b9050610e60818787878787611d2f565b60005b8451811015611014576000858281518110610e8157610e806149f7565b5b602002602001015190506000858381518110610ea057610e9f6149f7565b5b6020026020010151905060006001600084815260200190815260200160002060008b73ffffffffffffffffffffffffffffffffffffffff1673ffffffffffffffffffffffffffffffffffffffff16815260200190815260200160002054905081811015610f42576040517f08c379a0000000000000000000000000000000000000000000000000000000008152600401610f3990614cc5565b60405180910390fd5b8181036001600085815260200190815260200160002060008c73ffffffffffffffffffffffffffffffffffffffff1673ffffffffffffffffffffffffffffffffffffffff16815260200190815260200160002081905550816001600085815260200190815260200160002060008b73ffffffffffffffffffffffffffffffffffffffff1673ffffffffffffffffffffffffffffffffffffffff1681526020019081526020016000206000828254610ff99190614ce5565b925050819055505050508061100d90614a55565b9050610e63565b508473ffffffffffffffffffffffffffffffffffffffff168673ffffffffffffffffffffffffffffffffffffffff168273ffffffffffffffffffffffffffffffffffffffff167f4a39dc06d4c0dbc64b70af90fd698a233a518aa5d07e595d983b8c0526c8f7fb878760405161108b929190614d19565b60405180910390a46110a1818787878787611d37565b6110af818787878787611d3f565b505050505050565b6110bf610d8b565b73ffffffffffffffffffffffffffffffffffffffff166110dd6108ab565b73ffffffffffffffffffffffffffffffffffffffff1614611133576040517f08c379a000000000000000000000000000000000000000000000000000000000815260040161112a90614d9c565b60405180910390fd5b565b60008060009054906101000a900473ffffffffffffffffffffffffffffffffffffffff169050816000806101000a81548173ffffffffffffffffffffffffffffffffffffffff021916908373ffffffffffffffffffffffffffffffffffffffff1602179055508173ffffffffffffffffffffffffffffffffffffffff168173ffffffffffffffffffffffffffffffffffffffff167f8be0079c531659141344cd1fd0a4f28419497f9722a3daafe3b4186f6b6457e060405160405180910390a35050565b8173ffffffffffffffffffffffffffffffffffffffff168373ffffffffffffffffffffffffffffffffffffffff1603611267576040517f08c379a000000000000000000000000000000000000000000000000000000000815260040161125e90614e2e565b60405180910390fd5b80600260008573ffffffffffffffffffffffffffffffffffffffff1673ffffffffffffffffffffffffffffffffffffffff16815260200190815260200160002060008473ffffffffffffffffffffffffffffffffffffffff1673ffffffffffffffffffffffffffffffffffffffff16815260200190815260200160002060006101000a81548160ff0219169083151502179055508173ffffffffffffffffffffffffffffffffffffffff168373ffffffffffffffffffffffffffffffffffffffff167f17307eab39ab6107e8899845ad3d59bd9653f200f220920489ca2b5937696c31836040516113589190613d71565b60405180910390a3505050565b61136d610881565b156113ad576040517f08c379a00000000000000000000000000000000000000000000000000000000081526004016113a490614e9a565b60405180910390fd5b565b6113c36792aa9b72430d24e360c01b610d88565b6113d767f9ccfcc82c13a16360c01b610d88565b6113eb67a3673a6118727ba760c01b610d88565b6113ff67ed6acc35e994de7260c01b610d88565b60008811611442576040517f08c379a000000000000000000000000000000000000000000000000000000000815260040161143990614f2c565b60405180910390fd5b61145667841cbd88491e871360c01b610d88565b61146a67dce291d7e010780b60c01b610d88565b61147e670bb7a6e407efc47660c01b610d88565b6114926757aa5249488aa45960c01b610d88565b600087116114d5576040517f08c379a00000000000000000000000000000000000000000000000000000000081526004016114cc90614fbe565b60405180910390fd5b6114e9674c743fd509e13ca260c01b610d88565b6114fd671cd8bc8308ca09a860c01b610d88565b61151167e1d00c6ecef3e63660c01b610d88565b6115256717d03e45f5f4711a60c01b610d88565b60008611611568576040517f08c379a000000000000000000000000000000000000000000000000000000000815260040161155f90615050565b60405180910390fd5b61157c670ca5aa0b5928e3a760c01b610d88565b61159067af293111d99b85f060c01b610d88565b6115a467737010027b8cc44960c01b610d88565b6115b8674ce0dec13bc3579160c01b610d88565b60008560ff16116115fe576040517f08c379a00000000000000000000000000000000000000000000000000000000081526004016115f5906150e2565b60405180910390fd5b61161267a280eebeed42d79c60c01b610d88565b61162667b89870c028d633d260c01b610d88565b61163a67efc7430a0cf44b0d60c01b610d88565b61164e672618d4ee2346949b60c01b610d88565b60008460ff1611611694576040517f08c379a000000000000000000000000000000000000000000000000000000000815260040161168b90615174565b60405180910390fd5b6116a867c7b765deef0d18fe60c01b610d88565b6116bc679811dc976b1c36f160c01b610d88565b6116d067ab8aed532df2d76b60c01b610d88565b6116e467bba17983cdabd13360c01b610d88565b600073ffffffffffffffffffffffffffffffffffffffff168373ffffffffffffffffffffffffffffffffffffffff1603611753576040517f08c379a000000000000000000000000000000000000000000000000000000000815260040161174a90615206565b60405180910390fd5b61176767e7524e6bb510413060c01b610d88565b61177b6717ecefd70aa16eab60c01b610d88565b61178f67bafb3e51f464f8c660c01b610d88565b6117a367dc33db0eb21ed9a060c01b610d88565b600073ffffffffffffffffffffffffffffffffffffffff168273ffffffffffffffffffffffffffffffffffffffff1603611812576040517f08c379a000000000000000000000000000000000000000000000000000000000815260040161180990615298565b60405180910390fd5b61182667661787d79f638ca760c01b610d88565b61183a67f29e927760c91b4660c01b610d88565b61184e67ee28653b3a46f48c60c01b610d88565b61186267f83095505e1071c960c01b610d88565b60008151116118a6576040517f08c379a000000000000000000000000000000000000000000000000000000000815260040161189d9061532a565b60405180910390fd5b6118ba67836d83570f0cd3a660c01b610d88565b5050505050505050565b6118d867be97bdc86a34d4c960c01b610d88565b6118eb66fa7258db33e83660c01b610d88565b6118ff67132444359128480360c01b610d88565b6119098987611f16565b61191d67815d296fbc8b093960c01b610d88565b611931670a27e4cbcfee6d1b60c01b610d88565b6119518989600b60008d8152602001908152602001600020548888611f7c565b61196567864422b3f98b08ae60c01b610d88565b611979677052205b98ca125960c01b610d88565b6119838982612090565b6119976786208709abf5bb9960c01b610d88565b6119ab674a524ba9e578aed560c01b610d88565b6119bb89898760ff168a8761242c565b6119cf675f8a21eb0406262860c01b610d88565b6119e367a889e1f5f41711fd60c01b610d88565b6119f28989848760ff16612bad565b611a0667e683444f23e6b69060c01b610d88565b611a1a67164ea45f6885c7da60c01b610d88565b7fb79a1263d65160537b9075e0e4747a6007a82fb191be4435b4c508c431920b898960066007604051611a4f93929190615537565b60405180910390a1611a6b67280eb10e9a4788dc60c01b610d88565b6001600860006101000a81548160ff021916908315150217905550505050505050505050565b600073ffffffffffffffffffffffffffffffffffffffff168473ffffffffffffffffffffffffffffffffffffffff1603611b00576040517f08c379a0000000000000000000000000000000000000000000000000000000008152600401611af790614c33565b60405180910390fd5b6000611b0a610d8b565b90506000611b1785612e84565b90506000611b2485612e84565b9050611b34838989858589611d2f565b60006001600088815260200190815260200160002060008a73ffffffffffffffffffffffffffffffffffffffff1673ffffffffffffffffffffffffffffffffffffffff16815260200190815260200160002054905085811015611bcc576040517f08c379a0000000000000000000000000000000000000000000000000000000008152600401611bc390614cc5565b60405180910390fd5b8581036001600089815260200190815260200160002060008b73ffffffffffffffffffffffffffffffffffffffff1673ffffffffffffffffffffffffffffffffffffffff16815260200190815260200160002081905550856001600089815260200190815260200160002060008a73ffffffffffffffffffffffffffffffffffffffff1673ffffffffffffffffffffffffffffffffffffffff1681526020019081526020016000206000828254611c839190614ce5565b925050819055508773ffffffffffffffffffffffffffffffffffffffff168973ffffffffffffffffffffffffffffffffffffffff168573ffffffffffffffffffffffffffffffffffffffff167fc3d58168c5ae7397731d063d5bbf3d657854427343f4c083240f7aacaa2d0f628a8a604051611d0092919061557c565b60405180910390a4611d16848a8a86868a611d37565b611d24848a8a8a8a8a612efe565b505050505050505050565b505050505050565b505050505050565b611d5e8473ffffffffffffffffffffffffffffffffffffffff166130d5565b15611f0e578373ffffffffffffffffffffffffffffffffffffffff1663bc197c8187878686866040518663ffffffff1660e01b8152600401611da49594939291906155fa565b6020604051808303816000875af1925050508015611de057506040513d601f19601f82011682018060405250810190611ddd9190615677565b60015b611e8557611dec6156b1565b806308c379a003611e485750611e006156d3565b80611e0b5750611e4a565b806040517f08c379a0000000000000000000000000000000000000000000000000000000008152600401611e3f9190613e49565b60405180910390fd5b505b6040517f08c379a0000000000000000000000000000000000000000000000000000000008152600401611e7c906157d5565b60405180910390fd5b63bc197c8160e01b7bffffffffffffffffffffffffffffffffffffffffffffffffffffffff1916817bffffffffffffffffffffffffffffffffffffffffffffffffffffffff191614611f0c576040517f08c379a0000000000000000000000000000000000000000000000000000000008152600401611f0390615867565b60405180910390fd5b505b505050505050565b611f2a67b0f0eb068548dd0b60c01b610d88565b611f3e674dcdc93d427b393b60c01b610d88565b4281611f4a9190614ce5565b9050611f6067dc0d4903f60c679c60c01b610d88565b80600b6000848152602001908152602001600020819055505050565b611f9067394c1c981265dfc360c01b610d88565b611fa467c92669fdf108cc6660c01b610d88565b611fb867aa3daad0320177c160c01b610d88565b6000600960008781526020019081526020016000209050611fe3670f7ec44c50154f7e60c01b610d88565b85816000018190555061200067374d4e255ee5e29860c01b610d88565b84816001018190555061201d675ac26f54ed569cd260c01b610d88565b83816003018190555061203a67c24312526bd0b5e960c01b610d88565b828160040160006101000a81548160ff021916908360ff16021790555061206b67edd6d4270faa2cde60c01b610d88565b818160040160016101000a81548160ff021916908360ff160217905550505050505050565b6120a4676e37652b8ffc91d360c01b610d88565b6120b867e143cfc2d6d9cb4760c01b610d88565b6120cc67a003bbf89cef951f60c01b610d88565b6000600267ffffffffffffffff8111156120e9576120e8613e70565b5b60405190808252806020026020018201604052801561211c57816020015b60608152602001906001900390816121075790505b50905061213367063692a633bfde5b60c01b610d88565b6040518060400160405280600681526020017f4c4f434b454400000000000000000000000000000000000000000000000000008152508160008151811061217d5761217c6149f7565b5b602002602001018190525061219c67c1c67836722281c260c01b610d88565b6040518060400160405280600681526020017f5452414445440000000000000000000000000000000000000000000000000000815250816001815181106121e6576121e56149f7565b5b602002602001018190525061220567d9d2ecffbb1397cf60c01b610d88565b61221967ea653bc968bdc6d960c01b610d88565b60005b81518160ff1610156124265761223c674b4422bc7d0c22d960c01b610d88565b61225067ed359cbd189201d560c01b610d88565b6005828260ff1681518110612268576122676149f7565b5b60200260200101519080600181540180825580915050600190039060005260206000200160009091909190915090816122a19190615a33565b506122b6675a24d7626b21999d60c01b610d88565b6122ca67313ea1a32143e5a760c01b610d88565b600060016005805490506122de9190615b05565b90506122f46715046cf8a2f961cc60c01b610d88565b61230867b4a4140a349190b560c01b610d88565b600a600086815260200190815260200160002081908060018154018082558091505060019003906000526020600020016000909190919091505561235667fc966f584759813a60c01b610d88565b828260ff168151811061236c5761236b6149f7565b5b6020026020010151600d600083815260200190815260200160002090816123939190615a33565b506123a867a9f4de7961c386c360c01b610d88565b84600c6000838152602001908152602001600020819055506123d46747ce4a0ce045f63260c01b610d88565b838260ff16815181106123ea576123e96149f7565b5b6020026020010151600e600083815260200190815260200160002090816124119190615a33565b5050808061241e90615b39565b91505061221c565b50505050565b6124406706897d58a8ffa43160c01b610d88565b6124546788b7ad33a34493af60c01b610d88565b612468677d6c90c8c295f84260c01b610d88565b6000600460009054906101000a900473ffffffffffffffffffffffffffffffffffffffff1673ffffffffffffffffffffffffffffffffffffffff1663c9187fe7876040518263ffffffff1660e01b81526004016124c59190613cb6565b600060405180830381865afa1580156124e2573d6000803e3d6000fd5b505050506040513d6000823e3d601f19601f8201168201806040525081019061250b9190615cb3565b90506125216782cc11fbdff9205960c01b610d88565b61253567ae9084963bc3455a60c01b610d88565b6000612540876130f8565b905061255667b9a5b29730f2e2b260c01b610d88565b61256a671fe0275ae3c5ecd960c01b610d88565b6000600960008981526020019081526020016000209050612595678b282cad192c5fb360c01b610d88565b84826125a19190614ce5565b91506125b7678419153d5d05889460c01b610d88565b6125cb670191dd807a806c5f60c01b610d88565b60005b600460009054906101000a900473ffffffffffffffffffffffffffffffffffffffff1673ffffffffffffffffffffffffffffffffffffffff166384ffeca58a6040518263ffffffff1660e01b81526004016126299190613cb6565b602060405180830381865afa158015612646573d6000803e3d6000fd5b505050506040513d601f19601f8201168201806040525081019061266a9190615d11565b811015612a5f5761268567ff432fe7bf83145f60c01b610d88565b612699671a13af6cfe9d6d6060c01b610d88565b6000600460009054906101000a900473ffffffffffffffffffffffffffffffffffffffff1673ffffffffffffffffffffffffffffffffffffffff166359a96ffe8684815181106126ec576126eb6149f7565b5b60200260200101516040518263ffffffff1660e01b81526004016127109190615d3e565b602060405180830381865afa15801561272d573d6000803e3d6000fd5b505050506040513d601f19601f820116820180604052508101906127519190615d75565b90506127676762c98aafb53f225060c01b610d88565b61277b67db6891394d62f65060c01b610d88565b6000612840600460009054906101000a900473ffffffffffffffffffffffffffffffffffffffff1673ffffffffffffffffffffffffffffffffffffffff16630e47cefa8886815181106127d1576127d06149f7565b5b60200260200101518e6040518363ffffffff1660e01b81526004016127f7929190615da2565b602060405180830381865afa158015612814573d6000803e3d6000fd5b505050506040513d601f19601f820116820180604052508101906128389190615d11565b868b8d613386565b905061285667a9747bd63961f6a760c01b610d88565b61286a676b356cb0aadede3d60c01b610d88565b60006128758261349e565b905061288b6758e7482b5844cc7d60c01b610d88565b61289f672fcc187a6eb9bd5d60c01b610d88565b61294183600a60008f815260200190815260200160002080548060200260200160405190810160405280929190818152602001828054801561290057602002820191906000526020600020905b8154815260200190600101908083116128ec575b5050505050836040518060400160405280600481526020017f307830300000000000000000000000000000000000000000000000000000000081525061362d565b612955676d8cba0421998ff760c01b610d88565b8185600201546129659190614ce5565b856002018190555061298167fc9c9548ccd49e2960c01b610d88565b6129956791fd09e3ba4dc57f60c01b610d88565b6006839080600181540180825580915050600190039060005260206000200160009091909190916101000a81548173ffffffffffffffffffffffffffffffffffffffff021916908373ffffffffffffffffffffffffffffffffffffffff160217905550612a0c67c19ee0d0340bdf1960c01b610d88565b612a206755ef1202937c189860c01b610d88565b60078290806001815401808255809150506001900390600052602060002001600090919091909150555050508080612a5790614a55565b9150506125ce565b50612a74679b8635bababd7cd560c01b610d88565b612a88673713c0cb0f3a7a0960c01b610d88565b6000612a98898688868b8d61385a565b9050612aae6752b1ed2d46c8304c60c01b610d88565b808260020154612abe9190614ce5565b8260020181905550612ada676e8fb6e8d40efa7360c01b610d88565b612aee670cd78e9f5a999f1660c01b610d88565b6006859080600181540180825580915050600190039060005260206000200160009091909190916101000a81548173ffffffffffffffffffffffffffffffffffffffff021916908373ffffffffffffffffffffffffffffffffffffffff160217905550612b656748fd522b50d7e93a60c01b610d88565b612b79679405af8bf489d1df60c01b610d88565b6007819080600181540180825580915050600190039060005260206000200160009091909190915055505050505050505050565b612bc167d50a6a82e38f0ae860c01b610d88565b612bd567a849e5d0fec51c8b60c01b610d88565b612be9679e6b8b233c65619060c01b610d88565b6000600960008681526020019081526020016000209050612c1467a762246bbb298fbf60c01b610d88565b612c2867f6c09da02b024fa060c01b610d88565b600060648386612c389190615dd2565b612c429190615e43565b9050612c5867440a40fdb651c7cb60c01b610d88565b808260020154612c689190614ce5565b8260020181905550612c8467de7d8de574a6960060c01b610d88565b612c98672a9700fbb945b2d560c01b610d88565b6000612ca38261349e565b9050612cb9675919556a7031f09360c01b610d88565b612ccd671215593410eb914660c01b610d88565b60005b8151811015612d9e57612ced67586ce8aab79611b860c01b610d88565b612d0167f80d7bdb95ea127260c01b610d88565b612d8b86600a60008b81526020019081526020016000208381548110612d2a57612d296149f7565b5b9060005260206000200154848481518110612d4857612d476149f7565b5b60200260200101516040518060400160405280600481526020017f3078303000000000000000000000000000000000000000000000000000000000815250613a0e565b8080612d9690614a55565b915050612cd0565b50612db367ca06a99daba0358060c01b610d88565b612dc7670eb12f7111c6328560c01b610d88565b6006859080600181540180825580915050600190039060005260206000200160009091909190916101000a81548173ffffffffffffffffffffffffffffffffffffffff021916908373ffffffffffffffffffffffffffffffffffffffff160217905550612e3e6752bc33f74706f7fa60c01b610d88565b612e5267efabc781498895d060c01b610d88565b600782908060018154018082558091505060019003906000526020600020016000909190919091505550505050505050565b60606000600167ffffffffffffffff811115612ea357612ea2613e70565b5b604051908082528060200260200182016040528015612ed15781602001602082028036833780820191505090505b5090508281600081518110612ee957612ee86149f7565b5b60200260200101818152505080915050919050565b612f1d8473ffffffffffffffffffffffffffffffffffffffff166130d5565b156130cd578373ffffffffffffffffffffffffffffffffffffffff1663f23a6e6187878686866040518663ffffffff1660e01b8152600401612f63959493929190615e74565b6020604051808303816000875af1925050508015612f9f57506040513d601f19601f82011682018060405250810190612f9c9190615677565b60015b61304457612fab6156b1565b806308c379a0036130075750612fbf6156d3565b80612fca5750613009565b806040517f08c379a0000000000000000000000000000000000000000000000000000000008152600401612ffe9190613e49565b60405180910390fd5b505b6040517f08c379a000000000000000000000000000000000000000000000000000000000815260040161303b906157d5565b60405180910390fd5b63f23a6e6160e01b7bffffffffffffffffffffffffffffffffffffffffffffffffffffffff1916817bffffffffffffffffffffffffffffffffffffffffffffffffffffffff1916146130cb576040517f08c379a00000000000000000000000000000000000000000000000000000000081526004016130c290615867565b60405180910390fd5b505b505050505050565b6000808273ffffffffffffffffffffffffffffffffffffffff163b119050919050565b600061310e676d417d1ac480303d60c01b610d88565b613122671b9026c1c545e95060c01b610d88565b613136672441fabeacd7a75f60c01b610d88565b6000600460009054906101000a900473ffffffffffffffffffffffffffffffffffffffff1673ffffffffffffffffffffffffffffffffffffffff1663c9187fe7846040518263ffffffff1660e01b81526004016131939190613cb6565b600060405180830381865afa1580156131b0573d6000803e3d6000fd5b505050506040513d6000823e3d601f19601f820116820180604052508101906131d99190615cb3565b90506131ef67df0f1789440d4ed960c01b610d88565b613203670647c96e2fed176260c01b610d88565b600061321967064019b6bc19187260c01b610d88565b61322d67763a47099aab437a60c01b610d88565b60005b82518110156133535761324d671d40d5267617e55360c01b610d88565b6132616735dff5d51c82861060c01b610d88565b6000600460009054906101000a900473ffffffffffffffffffffffffffffffffffffffff1673ffffffffffffffffffffffffffffffffffffffff16630e47cefa8584815181106132b4576132b36149f7565b5b6020026020010151886040518363ffffffff1660e01b81526004016132da929190615da2565b602060405180830381865afa1580156132f7573d6000803e3d6000fd5b505050506040513d601f19601f8201168201806040525081019061331b9190615d11565b905061333167e9e09391de2f90b160c01b610d88565b808361333d9190614ce5565b925050808061334b90614a55565b915050613230565b50613368673f7c6b562d42adb760c01b610d88565b61337c67e072ba4402919e9360c01b610d88565b8092505050919050565b600061339c67c9a103043bcc7b8360c01b610d88565b6133b0671b6a37f959dc428460c01b610d88565b6133c4679a0b07648b2b751060c01b610d88565b6000848660646133d49190615dd2565b6133de9190615e43565b90506133f46791ebf62c0998828060c01b610d88565b613408674027c85802a7ec6f60c01b610d88565b6000606485856134189190615dd2565b6134229190615e43565b9050613438673292f22b29e3e13960c01b610d88565b61344c672e395931805b912360c01b610d88565b60006064838361345c9190615dd2565b6134669190615e43565b905061347c67584a79cf25f6ffa160c01b610d88565b6134906749fd754833b329c860c01b610d88565b809350505050949350505050565b60606134b467ef9e355a2508b68b60c01b610d88565b6134c86774921bc0b184a2ab60c01b610d88565b6134dc6733dcf64edbe3045860c01b610d88565b6000600267ffffffffffffffff8111156134f9576134f8613e70565b5b6040519080825280602002602001820160405280156135275781602001602082028036833780820191505090505b50905061353e67b1fd9cdd613809dc60c01b610d88565b613552672fddcd765c8c3ad960c01b610d88565b600060646032856135639190615dd2565b61356d9190615e43565b90506135836798163f36f092930e60c01b610d88565b8082600081518110613598576135976149f7565b5b6020026020010181815250506135b8678fe8f4d30402328560c01b610d88565b80846135c49190615b05565b93506135da67b21755b43570590b60c01b610d88565b83826001815181106135ef576135ee6149f7565b5b60200260200101818152505061360f677f4706c2f467027060c01b610d88565b613623677a03b4ce36669adc60c01b610d88565b8192505050919050565b600073ffffffffffffffffffffffffffffffffffffffff168473ffffffffffffffffffffffffffffffffffffffff160361369c576040517f08c379a000000000000000000000000000000000000000000000000000000000815260040161369390615f40565b60405180910390fd5b81518351146136e0576040517f08c379a00000000000000000000000000000000000000000000000000000000081526004016136d790614ba1565b60405180910390fd5b60006136ea610d8b565b90506136fb81600087878787611d2f565b60005b84518110156137b55783818151811061371a576137196149f7565b5b602002602001015160016000878481518110613739576137386149f7565b5b6020026020010151815260200190815260200160002060008873ffffffffffffffffffffffffffffffffffffffff1673ffffffffffffffffffffffffffffffffffffffff168152602001908152602001600020600082825461379b9190614ce5565b9250508190555080806137ad90614a55565b9150506136fe565b508473ffffffffffffffffffffffffffffffffffffffff16600073ffffffffffffffffffffffffffffffffffffffff168273ffffffffffffffffffffffffffffffffffffffff167f4a39dc06d4c0dbc64b70af90fd698a233a518aa5d07e595d983b8c0526c8f7fb878760405161382d929190614d19565b60405180910390a461384481600087878787611d37565b61385381600087878787611d3f565b5050505050565b600061387067a2d99f38a39e824d60c01b610d88565b61388467c6eb8b249001c86560c01b610d88565b613898672f8a1fc15cadb42760c01b610d88565b60006138a686868686613386565b90506138bc6728ae0dfe9fbdb0ed60c01b610d88565b6138d067d3316e9ec077426960c01b610d88565b60006138db8261349e565b90506138f167119a7054fdb365d760c01b610d88565b61390567dbf17aae431488dd60c01b610d88565b60005b81518110156139d657613925676af46d40f234ad6560c01b610d88565b61393967b29b7f372f8e2e8160c01b610d88565b6139c389600a60008d81526020019081526020016000208381548110613962576139616149f7565b5b90600052602060002001548484815181106139805761397f6149f7565b5b60200260200101516040518060400160405280600481526020017f3078303000000000000000000000000000000000000000000000000000000000815250613a0e565b80806139ce90614a55565b915050613908565b506139eb6766fa695ffbe4e63960c01b610d88565b6139ff6795e55a408623e2f760c01b610d88565b81925050509695505050505050565b600073ffffffffffffffffffffffffffffffffffffffff168473ffffffffffffffffffffffffffffffffffffffff1603613a7d576040517f08c379a0000000000000000000000000000000000000000000000000000000008152600401613a7490615f40565b60405180910390fd5b6000613a87610d8b565b90506000613a9485612e84565b90506000613aa185612e84565b9050613ab283600089858589611d2f565b846001600088815260200190815260200160002060008973ffffffffffffffffffffffffffffffffffffffff1673ffffffffffffffffffffffffffffffffffffffff1681526020019081526020016000206000828254613b129190614ce5565b925050819055508673ffffffffffffffffffffffffffffffffffffffff16600073ffffffffffffffffffffffffffffffffffffffff168473ffffffffffffffffffffffffffffffffffffffff167fc3d58168c5ae7397731d063d5bbf3d657854427343f4c083240f7aacaa2d0f628989604051613b9092919061557c565b60405180910390a4613ba783600089858589611d37565b613bb683600089898989612efe565b50505050505050565b6000604051905090565b600080fd5b600080fd5b600073ffffffffffffffffffffffffffffffffffffffff82169050919050565b6000613bfe82613bd3565b9050919050565b613c0e81613bf3565b8114613c1957600080fd5b50565b600081359050613c2b81613c05565b92915050565b6000819050919050565b613c4481613c31565b8114613c4f57600080fd5b50565b600081359050613c6181613c3b565b92915050565b60008060408385031215613c7e57613c7d613bc9565b5b6000613c8c85828601613c1c565b9250506020613c9d85828601613c52565b9150509250929050565b613cb081613c31565b82525050565b6000602082019050613ccb6000830184613ca7565b92915050565b60007fffffffff0000000000000000000000000000000000000000000000000000000082169050919050565b613d0681613cd1565b8114613d1157600080fd5b50565b600081359050613d2381613cfd565b92915050565b600060208284031215613d3f57613d3e613bc9565b5b6000613d4d84828501613d14565b91505092915050565b60008115159050919050565b613d6b81613d56565b82525050565b6000602082019050613d866000830184613d62565b92915050565b600060208284031215613da257613da1613bc9565b5b6000613db084828501613c52565b91505092915050565b600081519050919050565b600082825260208201905092915050565b60005b83811015613df3578082015181840152602081019050613dd8565b60008484015250505050565b6000601f19601f8301169050919050565b6000613e1b82613db9565b613e258185613dc4565b9350613e35818560208601613dd5565b613e3e81613dff565b840191505092915050565b60006020820190508181036000830152613e638184613e10565b905092915050565b600080fd5b7f4e487b7100000000000000000000000000000000000000000000000000000000600052604160045260246000fd5b613ea882613dff565b810181811067ffffffffffffffff82111715613ec757613ec6613e70565b5b80604052505050565b6000613eda613bbf565b9050613ee68282613e9f565b919050565b600067ffffffffffffffff821115613f0657613f05613e70565b5b602082029050602081019050919050565b600080fd5b6000613f2f613f2a84613eeb565b613ed0565b90508083825260208201905060208402830185811115613f5257613f51613f17565b5b835b81811015613f7b5780613f678882613c52565b845260208401935050602081019050613f54565b5050509392505050565b600082601f830112613f9a57613f99613e6b565b5b8135613faa848260208601613f1c565b91505092915050565b600080fd5b600067ffffffffffffffff821115613fd357613fd2613e70565b5b613fdc82613dff565b9050602081019050919050565b82818337600083830152505050565b600061400b61400684613fb8565b613ed0565b90508281526020810184848401111561402757614026613fb3565b5b614032848285613fe9565b509392505050565b600082601f83011261404f5761404e613e6b565b5b813561405f848260208601613ff8565b91505092915050565b600080600080600060a0868803121561408457614083613bc9565b5b600061409288828901613c1c565b95505060206140a388828901613c1c565b945050604086013567ffffffffffffffff8111156140c4576140c3613bce565b5b6140d088828901613f85565b935050606086013567ffffffffffffffff8111156140f1576140f0613bce565b5b6140fd88828901613f85565b925050608086013567ffffffffffffffff81111561411e5761411d613bce565b5b61412a8882890161403a565b9150509295509295909350565b600067ffffffffffffffff82111561415257614151613e70565b5b602082029050602081019050919050565b600061417661417184614137565b613ed0565b9050808382526020820190506020840283018581111561419957614198613f17565b5b835b818110156141c257806141ae8882613c1c565b84526020840193505060208101905061419b565b5050509392505050565b600082601f8301126141e1576141e0613e6b565b5b81356141f1848260208601614163565b91505092915050565b6000806040838503121561421157614210613bc9565b5b600083013567ffffffffffffffff81111561422f5761422e613bce565b5b61423b858286016141cc565b925050602083013567ffffffffffffffff81111561425c5761425b613bce565b5b61426885828601613f85565b9150509250929050565b600081519050919050565b600082825260208201905092915050565b6000819050602082019050919050565b6142a781613c31565b82525050565b60006142b9838361429e565b60208301905092915050565b6000602082019050919050565b60006142dd82614272565b6142e7818561427d565b93506142f28361428e565b8060005b8381101561432357815161430a88826142ad565b9750614315836142c5565b9250506001810190506142f6565b5085935050505092915050565b6000602082019050818103600083015261434a81846142d2565b905092915050565b61435b81613bf3565b82525050565b60006020820190506143766000830184614352565b92915050565b61438581613d56565b811461439057600080fd5b50565b6000813590506143a28161437c565b92915050565b600080604083850312156143bf576143be613bc9565b5b60006143cd85828601613c1c565b92505060206143de85828601614393565b9150509250929050565b600060ff82169050919050565b6143fe816143e8565b811461440957600080fd5b50565b60008135905061441b816143f5565b92915050565b600067ffffffffffffffff82111561443c5761443b613e70565b5b602082029050602081019050919050565b600067ffffffffffffffff82111561446857614467613e70565b5b61447182613dff565b9050602081019050919050565b600061449161448c8461444d565b613ed0565b9050828152602081018484840111156144ad576144ac613fb3565b5b6144b8848285613fe9565b509392505050565b600082601f8301126144d5576144d4613e6b565b5b81356144e584826020860161447e565b91505092915050565b60006145016144fc84614421565b613ed0565b9050808382526020820190506020840283018581111561452457614523613f17565b5b835b8181101561456b57803567ffffffffffffffff81111561454957614548613e6b565b5b80860161455689826144c0565b85526020850194505050602081019050614526565b5050509392505050565b600082601f83011261458a57614589613e6b565b5b813561459a8482602086016144ee565b91505092915050565b60008060008060008060008060006101208a8c0312156145c6576145c5613bc9565b5b60006145d48c828d01613c52565b99505060206145e58c828d01613c52565b98505060406145f68c828d01613c52565b97505060606146078c828d01613c52565b96505060806146188c828d0161440c565b95505060a06146298c828d0161440c565b94505060c061463a8c828d01613c1c565b93505060e061464b8c828d01613c1c565b9250506101008a013567ffffffffffffffff81111561466d5761466c613bce565b5b6146798c828d01614575565b9150509295985092959850929598565b600080604083850312156146a05761469f613bc9565b5b60006146ae85828601613c1c565b92505060206146bf85828601613c1c565b9150509250929050565b600080600080600060a086880312156146e5576146e4613bc9565b5b60006146f388828901613c1c565b955050602061470488828901613c1c565b945050604061471588828901613c52565b935050606061472688828901613c52565b925050608086013567ffffffffffffffff81111561474757614746613bce565b5b6147538882890161403a565b9150509295509295909350565b60006020828403121561477657614775613bc9565b5b600061478484828501613c1c565b91505092915050565b614796816143e8565b82525050565b60006080820190506147b16000830187613ca7565b6147be602083018661478d565b6147cb604083018561478d565b6147d8606083018461478d565b95945050505050565b7f455243313135353a2061646472657373207a65726f206973206e6f742061207660008201527f616c6964206f776e657200000000000000000000000000000000000000000000602082015250565b600061483d602a83613dc4565b9150614848826147e1565b604082019050919050565b6000602082019050818103600083015261486c81614830565b9050919050565b7f4e487b7100000000000000000000000000000000000000000000000000000000600052602260045260246000fd5b600060028204905060018216806148ba57607f821691505b6020821081036148cd576148cc614873565b5b50919050565b7f455243313135353a2063616c6c6572206973206e6f7420746f6b656e206f776e60008201527f6572206f7220617070726f766564000000000000000000000000000000000000602082015250565b600061492f602e83613dc4565b915061493a826148d3565b604082019050919050565b6000602082019050818103600083015261495e81614922565b9050919050565b7f455243313135353a206163636f756e747320616e6420696473206c656e67746860008201527f206d69736d617463680000000000000000000000000000000000000000000000602082015250565b60006149c1602983613dc4565b91506149cc82614965565b604082019050919050565b600060208201905081810360008301526149f0816149b4565b9050919050565b7f4e487b7100000000000000000000000000000000000000000000000000000000600052603260045260246000fd5b7f4e487b7100000000000000000000000000000000000000000000000000000000600052601160045260246000fd5b6000614a6082613c31565b91507fffffffffffffffffffffffffffffffffffffffffffffffffffffffffffffffff8203614a9257614a91614a26565b5b600182019050919050565b7f4f776e61626c653a206e6577206f776e657220697320746865207a65726f206160008201527f6464726573730000000000000000000000000000000000000000000000000000602082015250565b6000614af9602683613dc4565b9150614b0482614a9d565b604082019050919050565b60006020820190508181036000830152614b2881614aec565b9050919050565b7f455243313135353a2069647320616e6420616d6f756e7473206c656e6774682060008201527f6d69736d61746368000000000000000000000000000000000000000000000000602082015250565b6000614b8b602883613dc4565b9150614b9682614b2f565b604082019050919050565b60006020820190508181036000830152614bba81614b7e565b9050919050565b7f455243313135353a207472616e7366657220746f20746865207a65726f20616460008201527f6472657373000000000000000000000000000000000000000000000000000000602082015250565b6000614c1d602583613dc4565b9150614c2882614bc1565b604082019050919050565b60006020820190508181036000830152614c4c81614c10565b9050919050565b7f455243313135353a20696e73756666696369656e742062616c616e636520666f60008201527f72207472616e7366657200000000000000000000000000000000000000000000602082015250565b6000614caf602a83613dc4565b9150614cba82614c53565b604082019050919050565b60006020820190508181036000830152614cde81614ca2565b9050919050565b6000614cf082613c31565b9150614cfb83613c31565b9250828201905080821115614d1357614d12614a26565b5b92915050565b60006040820190508181036000830152614d3381856142d2565b90508181036020830152614d4781846142d2565b90509392505050565b7f4f776e61626c653a2063616c6c6572206973206e6f7420746865206f776e6572600082015250565b6000614d86602083613dc4565b9150614d9182614d50565b602082019050919050565b60006020820190508181036000830152614db581614d79565b9050919050565b7f455243313135353a2073657474696e6720617070726f76616c2073746174757360008201527f20666f722073656c660000000000000000000000000000000000000000000000602082015250565b6000614e18602983613dc4565b9150614e2382614dbc565b604082019050919050565b60006020820190508181036000830152614e4781614e0b565b9050919050565b7f5061757361626c653a2070617573656400000000000000000000000000000000600082015250565b6000614e84601083613dc4565b9150614e8f82614e4e565b602082019050919050565b60006020820190508181036000830152614eb381614e77565b9050919050565b7f52454a5556453a2054617267657420737570706c792063616e6e6f742062652060008201527f7a65726f00000000000000000000000000000000000000000000000000000000602082015250565b6000614f16602483613dc4565b9150614f2182614eba565b604082019050919050565b60006020820190508181036000830152614f4581614f09565b9050919050565b7f52454a5556453a204c6162206372656469742063616e6e6f74206265207a657260008201527f6f00000000000000000000000000000000000000000000000000000000000000602082015250565b6000614fa8602183613dc4565b9150614fb382614f4c565b604082019050919050565b60006020820190508181036000830152614fd781614f9b565b9050919050565b7f52454a5556453a204c6f636b20706572696f642063616e6e6f74206265207a6560008201527f726f000000000000000000000000000000000000000000000000000000000000602082015250565b600061503a602283613dc4565b915061504582614fde565b604082019050919050565b600060208201905081810360008301526150698161502d565b9050919050565b7f52454a5556453a20496e697469616c2070657263656e742063616e6e6f74206260008201527f65207a65726f0000000000000000000000000000000000000000000000000000602082015250565b60006150cc602683613dc4565b91506150d782615070565b604082019050919050565b600060208201905081810360008301526150fb816150bf565b9050919050565b7f52454a5556453a2052656a7576652070657263656e742063616e6e6f7420626560008201527f207a65726f000000000000000000000000000000000000000000000000000000602082015250565b600061515e602583613dc4565b915061516982615102565b604082019050919050565b6000602082019050818103600083015261518d81615151565b9050919050565b7f52454a5556453a204c616220616464726573732063616e6e6f74206265207a6560008201527f726f000000000000000000000000000000000000000000000000000000000000602082015250565b60006151f0602283613dc4565b91506151fb82615194565b604082019050919050565b6000602082019050818103600083015261521f816151e3565b9050919050565b7f52454a5556453a2052656a75766520616464726573732063616e6e6f7420626560008201527f207a65726f000000000000000000000000000000000000000000000000000000602082015250565b6000615282602583613dc4565b915061528d82615226565b604082019050919050565b600060208201905081810360008301526152b181615275565b9050919050565b7f52454a5556453a2055524973206c656e6774682063616e6e6f74206265207a6560008201527f726f000000000000000000000000000000000000000000000000000000000000602082015250565b6000615314602283613dc4565b915061531f826152b8565b604082019050919050565b6000602082019050818103600083015261534381615307565b9050919050565b600081549050919050565b600082825260208201905092915050565b60008190508160005260206000209050919050565b61538481613bf3565b82525050565b6000615396838361537b565b60208301905092915050565b60008160001c9050919050565b600073ffffffffffffffffffffffffffffffffffffffff82169050919050565b60006153e26153dd836153a2565b6153af565b9050919050565b60006153f582546153cf565b9050919050565b6000600182019050919050565b60006154148261534a565b61541e8185615355565b935061542983615366565b8060005b838110156154615761543e826153e9565b615448888261538a565b9750615453836153fc565b92505060018101905061542d565b5085935050505092915050565b600081549050919050565b60008190508160005260206000209050919050565b6000819050919050565b60006154ab6154a6836153a2565b61548e565b9050919050565b60006154be8254615498565b9050919050565b6000600182019050919050565b60006154dd8261546e565b6154e7818561427d565b93506154f283615479565b8060005b8381101561552a57615507826154b2565b61551188826142ad565b975061551c836154c5565b9250506001810190506154f6565b5085935050505092915050565b600060608201905061554c6000830186613ca7565b818103602083015261555e8185615409565b9050818103604083015261557281846154d2565b9050949350505050565b60006040820190506155916000830185613ca7565b61559e6020830184613ca7565b9392505050565b600081519050919050565b600082825260208201905092915050565b60006155cc826155a5565b6155d681856155b0565b93506155e6818560208601613dd5565b6155ef81613dff565b840191505092915050565b600060a08201905061560f6000830188614352565b61561c6020830187614352565b818103604083015261562e81866142d2565b9050818103606083015261564281856142d2565b9050818103608083015261565681846155c1565b90509695505050505050565b60008151905061567181613cfd565b92915050565b60006020828403121561568d5761568c613bc9565b5b600061569b84828501615662565b91505092915050565b60008160e01c9050919050565b600060033d11156156d05760046000803e6156cd6000516156a4565b90505b90565b600060443d10615760576156e5613bbf565b60043d036004823e80513d602482011167ffffffffffffffff8211171561570d575050615760565b808201805167ffffffffffffffff81111561572b5750505050615760565b80602083010160043d038501811115615748575050505050615760565b61575782602001850186613e9f565b82955050505050505b90565b7f455243313135353a207472616e7366657220746f206e6f6e2d4552433131353560008201527f526563656976657220696d706c656d656e746572000000000000000000000000602082015250565b60006157bf603483613dc4565b91506157ca82615763565b604082019050919050565b600060208201905081810360008301526157ee816157b2565b9050919050565b7f455243313135353a204552433131353552656365697665722072656a6563746560008201527f6420746f6b656e73000000000000000000000000000000000000000000000000602082015250565b6000615851602883613dc4565b915061585c826157f5565b604082019050919050565b6000602082019050818103600083015261588081615844565b9050919050565b60008190508160005260206000209050919050565b60006020601f8301049050919050565b600082821b905092915050565b6000600883026158e97fffffffffffffffffffffffffffffffffffffffffffffffffffffffffffffffff826158ac565b6158f386836158ac565b95508019841693508086168417925050509392505050565b6000819050919050565b600061593061592b61592684613c31565b61590b565b613c31565b9050919050565b6000819050919050565b61594a83615915565b61595e61595682615937565b8484546158b9565b825550505050565b600090565b615973615966565b61597e818484615941565b505050565b5b818110156159a25761599760008261596b565b600181019050615984565b5050565b601f8211156159e7576159b881615887565b6159c18461589c565b810160208510156159d0578190505b6159e46159dc8561589c565b830182615983565b50505b505050565b600082821c905092915050565b6000615a0a600019846008026159ec565b1980831691505092915050565b6000615a2383836159f9565b9150826002028217905092915050565b615a3c82613db9565b67ffffffffffffffff811115615a5557615a54613e70565b5b615a5f82546148a2565b615a6a8282856159a6565b600060209050601f831160018114615a9d5760008415615a8b578287015190505b615a958582615a17565b865550615afd565b601f198416615aab86615887565b60005b82811015615ad357848901518255600182019150602085019450602081019050615aae565b86831015615af05784890151615aec601f8916826159f9565b8355505b6001600288020188555050505b505050505050565b6000615b1082613c31565b9150615b1b83613c31565b9250828203905081811115615b3357615b32614a26565b5b92915050565b6000615b44826143e8565b915060ff8203615b5757615b56614a26565b5b600182019050919050565b600067ffffffffffffffff821115615b7d57615b7c613e70565b5b602082029050602081019050919050565b6000615ba1615b9c84613fb8565b613ed0565b905082815260208101848484011115615bbd57615bbc613fb3565b5b615bc8848285613dd5565b509392505050565b600082601f830112615be557615be4613e6b565b5b8151615bf5848260208601615b8e565b91505092915050565b6000615c11615c0c84615b62565b613ed0565b90508083825260208201905060208402830185811115615c3457615c33613f17565b5b835b81811015615c7b57805167ffffffffffffffff811115615c5957615c58613e6b565b5b808601615c668982615bd0565b85526020850194505050602081019050615c36565b5050509392505050565b600082601f830112615c9a57615c99613e6b565b5b8151615caa848260208601615bfe565b91505092915050565b600060208284031215615cc957615cc8613bc9565b5b600082015167ffffffffffffffff811115615ce757615ce6613bce565b5b615cf384828501615c85565b91505092915050565b600081519050615d0b81613c3b565b92915050565b600060208284031215615d2757615d26613bc9565b5b6000615d3584828501615cfc565b91505092915050565b60006020820190508181036000830152615d5881846155c1565b905092915050565b600081519050615d6f81613c05565b92915050565b600060208284031215615d8b57615d8a613bc9565b5b6000615d9984828501615d60565b91505092915050565b60006040820190508181036000830152615dbc81856155c1565b9050615dcb6020830184613ca7565b9392505050565b6000615ddd82613c31565b9150615de883613c31565b9250828202615df681613c31565b91508282048414831517615e0d57615e0c614a26565b5b5092915050565b7f4e487b7100000000000000000000000000000000000000000000000000000000600052601260045260246000fd5b6000615e4e82613c31565b9150615e5983613c31565b925082615e6957615e68615e14565b5b828204905092915050565b600060a082019050615e896000830188614352565b615e966020830187614352565b615ea36040830186613ca7565b615eb06060830185613ca7565b8181036080830152615ec281846155c1565b90509695505050505050565b7f455243313135353a206d696e7420746f20746865207a65726f2061646472657360008201527f7300000000000000000000000000000000000000000000000000000000000000602082015250565b6000615f2a602183613dc4565b9150615f3582615ece565b604082019050919050565b60006020820190508181036000830152615f5981615f1d565b905091905056fea264697066735822122011a28e0af8408afdc06f7a19d4954eef66a7b30fa4d51c9384fb2d6609a3a7e364736f6c63430008130033",
  "linkReferences": {},
  "deployedLinkReferences": {}
}