{
  "_format": "hh-sol-artifact-1",
  "contractName": "DataManagement",
  "sourceName": "contracts/DataManagement.sol",
  "abi": [
    {
      "inputs": [
        {
          "internalType": "contract IIdentityToken",
          "name": "identityToken_",
          "type": "address"
        }
      ],
      "stateMutability": "nonpayable",
      "type": "constructor"
    },
    {
      "anonymous": false,
      "inputs": [
        {
          "indexed": false,
          "internalType": "address",
          "name": "dataOwner",
          "type": "address"
        },
        {
          "indexed": false,
          "internalType": "uint256",
          "name": "dataOwnerId",
          "type": "uint256"
        },
        {
          "indexed": false,
          "internalType": "bytes",
          "name": "dataHash",
          "type": "bytes"
        }
      ],
      "name": "DataSubmitted",
      "type": "event"
    },
    {
      "anonymous": false,
      "inputs": [
        {
          "indexed": true,
          "internalType": "address",
          "name": "previousOwner",
          "type": "address"
        },
        {
          "indexed": true,
          "internalType": "address",
          "name": "newOwner",
          "type": "address"
        }
      ],
      "name": "OwnershipTransferred",
      "type": "event"
    },
    {
      "anonymous": false,
      "inputs": [
        {
          "indexed": false,
          "internalType": "address",
          "name": "account",
          "type": "address"
        }
      ],
      "name": "Paused",
      "type": "event"
    },
    {
      "anonymous": false,
      "inputs": [
        {
          "indexed": false,
          "internalType": "uint256",
          "name": "dataOwnerId",
          "type": "uint256"
        },
        {
          "indexed": false,
          "internalType": "uint256",
          "name": "requesterId",
          "type": "uint256"
        },
        {
          "indexed": false,
          "internalType": "uint256",
          "name": "nextProductUID",
          "type": "uint256"
        },
        {
          "indexed": false,
          "internalType": "bytes",
          "name": "dataHash",
          "type": "bytes"
        },
        {
          "indexed": false,
          "internalType": "bytes32",
          "name": "permissionHash",
          "type": "bytes32"
        }
      ],
      "name": "PermissionGranted",
      "type": "event"
    },
    {
      "anonymous": false,
      "inputs": [
        {
          "indexed": false,
          "internalType": "address",
          "name": "account",
          "type": "address"
        }
      ],
      "name": "Unpaused",
      "type": "event"
    },
    {
      "inputs": [
        {
          "internalType": "uint256",
          "name": "tokenId",
          "type": "uint256"
        },
        {
          "internalType": "uint256",
          "name": "index",
          "type": "uint256"
        }
      ],
      "name": "getDataByTokenId",
      "outputs": [
        {
          "internalType": "bytes",
          "name": "",
          "type": "bytes"
        }
      ],
      "stateMutability": "view",
      "type": "function"
    },
    {
      "inputs": [
        {
          "internalType": "bytes",
          "name": "dHash",
          "type": "bytes"
        }
      ],
      "name": "getDataOwnerId",
      "outputs": [
        {
          "internalType": "uint256",
          "name": "",
          "type": "uint256"
        }
      ],
      "stateMutability": "view",
      "type": "function"
    },
    {
      "inputs": [
        {
          "internalType": "address",
          "name": "signer",
          "type": "address"
        },
        {
          "internalType": "bytes",
          "name": "signature",
          "type": "bytes"
        },
        {
          "internalType": "bytes",
          "name": "dHash",
          "type": "bytes"
        },
        {
          "internalType": "uint256",
          "name": "nextProductUID",
          "type": "uint256"
        },
        {
          "internalType": "uint256",
          "name": "nonce",
          "type": "uint256"
        },
        {
          "internalType": "uint256",
          "name": "expiration",
          "type": "uint256"
        }
      ],
      "name": "getPermission",
      "outputs": [],
      "stateMutability": "nonpayable",
      "type": "function"
    },
    {
      "inputs": [
        {
          "internalType": "bytes",
          "name": "dHash",
          "type": "bytes"
        },
        {
          "internalType": "uint256",
          "name": "nextProductUID",
          "type": "uint256"
        }
      ],
      "name": "getPermissionDeadline",
      "outputs": [
        {
          "internalType": "uint256",
          "name": "",
          "type": "uint256"
        }
      ],
      "stateMutability": "view",
      "type": "function"
    },
    {
      "inputs": [
        {
          "internalType": "address",
          "name": "owner",
          "type": "address"
        }
      ],
      "name": "getPermissionHashes",
      "outputs": [
        {
          "internalType": "bytes32[]",
          "name": "",
          "type": "bytes32[]"
        }
      ],
      "stateMutability": "view",
      "type": "function"
    },
    {
      "inputs": [
        {
          "internalType": "bytes",
          "name": "dHash",
          "type": "bytes"
        },
        {
          "internalType": "uint256",
          "name": "productUID",
          "type": "uint256"
        }
      ],
      "name": "getPermissionStatus",
      "outputs": [
        {
          "internalType": "uint8",
          "name": "",
          "type": "uint8"
        }
      ],
      "stateMutability": "view",
      "type": "function"
    },
    {
      "inputs": [],
      "name": "owner",
      "outputs": [
        {
          "internalType": "address",
          "name": "",
          "type": "address"
        }
      ],
      "stateMutability": "view",
      "type": "function"
    },
    {
      "inputs": [],
      "name": "pause",
      "outputs": [],
      "stateMutability": "nonpayable",
      "type": "function"
    },
    {
      "inputs": [],
      "name": "paused",
      "outputs": [
        {
          "internalType": "bool",
          "name": "",
          "type": "bool"
        }
      ],
      "stateMutability": "view",
      "type": "function"
    },
    {
      "inputs": [],
      "name": "renounceOwnership",
      "outputs": [],
      "stateMutability": "nonpayable",
      "type": "function"
    },
    {
      "inputs": [
        {
          "internalType": "address",
          "name": "signer",
          "type": "address"
        },
        {
          "internalType": "bytes",
          "name": "signature",
          "type": "bytes"
        },
        {
          "internalType": "bytes",
          "name": "dHash",
          "type": "bytes"
        },
        {
          "internalType": "uint256",
          "name": "nonce",
          "type": "uint256"
        }
      ],
      "name": "submitData",
      "outputs": [],
      "stateMutability": "nonpayable",
      "type": "function"
    },
    {
      "inputs": [
        {
          "internalType": "address",
          "name": "newOwner",
          "type": "address"
        }
      ],
      "name": "transferOwnership",
      "outputs": [],
      "stateMutability": "nonpayable",
      "type": "function"
    },
    {
      "inputs": [],
      "name": "unpause",
      "outputs": [],
      "stateMutability": "nonpayable",
      "type": "function"
    }
  ],
  "bytecode": "0x60806040523480156200001157600080fd5b50604051620036773803806200367783398181016040528101906200003791906200023e565b620000576200004b620000f160201b60201c565b620000f960201b60201c565b60008060146101000a81548160ff0219169083151502179055506200008d67630bfe3d6bd3b12b60c01b620001bd60201b60201c565b620000a967b5ae5f0383f34cfc60c01b620001bd60201b60201c565b80600160006101000a81548173ffffffffffffffffffffffffffffffffffffffff021916908373ffffffffffffffffffffffffffffffffffffffff1602179055505062000270565b600033905090565b60008060009054906101000a900473ffffffffffffffffffffffffffffffffffffffff169050816000806101000a81548173ffffffffffffffffffffffffffffffffffffffff021916908373ffffffffffffffffffffffffffffffffffffffff1602179055508173ffffffffffffffffffffffffffffffffffffffff168173ffffffffffffffffffffffffffffffffffffffff167f8be0079c531659141344cd1fd0a4f28419497f9722a3daafe3b4186f6b6457e060405160405180910390a35050565b50565b600080fd5b600073ffffffffffffffffffffffffffffffffffffffff82169050919050565b6000620001f282620001c5565b9050919050565b60006200020682620001e5565b9050919050565b6200021881620001f9565b81146200022457600080fd5b50565b60008151905062000238816200020d565b92915050565b600060208284031215620002575762000256620001c0565b5b6000620002678482850162000227565b91505092915050565b6133f780620002806000396000f3fe608060405234801561001057600080fd5b50600436106100cf5760003560e01c8063715018a61161008c5780638da5cb5b116100665780638da5cb5b146101ec578063a3085ce81461020a578063a44106751461023a578063f2fde38b14610256576100cf565b8063715018a6146101bc5780637b2a9613146101c65780638456cb59146101e2576100cf565b80631370fb87146100d4578063335ce372146101045780633f4ba83a146101345780635c975abb1461013e5780635f233dab1461015c5780636439b3ca1461018c575b600080fd5b6100ee60048036038101906100e991906121ec565b610272565b6040516100fb9190612257565b60405180910390f35b61011e600480360381019061011991906122d0565b6102e8565b60405161012b91906123c5565b60405180910390f35b61013c61042a565b005b6101466104a0565b6040516101539190612402565b60405180910390f35b610176600480360381019061017191906121ec565b6104b6565b6040516101839190612439565b60405180910390f35b6101a660048036038101906101a19190612454565b61054b565b6040516101b39190612513565b60405180910390f35b6101c4610695565b005b6101e060048036038101906101db9190612535565b6106a9565b005b6101ea610942565b005b6101f46109b8565b60405161020191906125e3565b60405180910390f35b610224600480360381019061021f91906125fe565b6109e1565b6040516102319190612257565b60405180910390f35b610254600480360381019061024f9190612647565b610a45565b005b610270600480360381019061026b91906122d0565b610bd5565b005b6000610288677f6cdcd71ec3622a60c01b610c58565b61029c6772b9e9efbcc0908360c01b610c58565b6102b0672c24dfc9032f36a560c01b610c58565b6007836040516102c09190612748565b9081526020016040518091039020600083815260200190815260200160002054905092915050565b60606102fe67d2a926f1c9153b9e60c01b610c58565b61031267123b4a71f91c715d60c01b610c58565b610326676ad4f834660545db60c01b610c58565b60046000600160009054906101000a900473ffffffffffffffffffffffffffffffffffffffff1673ffffffffffffffffffffffffffffffffffffffff1663ea32fff7856040518263ffffffff1660e01b815260040161038591906125e3565b602060405180830381865afa1580156103a2573d6000803e3d6000fd5b505050506040513d601f19601f820116820180604052508101906103c69190612774565b815260200190815260200160002080548060200260200160405190810160405280929190818152602001828054801561041e57602002820191906000526020600020905b81548152602001906001019080831161040a575b50505050509050919050565b61043e670d6a07c1fe138b5060c01b610c58565b610446610c5b565b61045a67310051df636952b160c01b610c58565b61046e67306691c08e4577a860c01b610c58565b6104826722fca51f3856cafb60c01b610c58565b61049667083d12b7b0cb8cc760c01b610c58565b61049e610cd9565b565b60008060149054906101000a900460ff16905090565b60006104cc678e3c14ef7b1f472260c01b610c58565b6104e067b028d4de9564767460c01b610c58565b6104f467f05313b6d2d042c860c01b610c58565b6006836040516105049190612748565b9081526020016040518091039020600083815260200190815260200160002060009054906101000a900460ff166001811115610543576105426127a1565b5b905092915050565b606061056167e616e3cc57a65c5d60c01b610c58565b6105756715b7928dbd0503b860c01b610c58565b61058967eba3b59336f812f960c01b610c58565b60006005600085815260200190815260200160002083815481106105b0576105af6127d0565b5b906000526020600020015490506105d16727921e8a2a41d3d560c01b610c58565b6105e567f6c63b9a47a1d8eb60c01b610c58565b600281815481106105f9576105f86127d0565b5b90600052602060002001805461060e9061282e565b80601f016020809104026020016040519081016040528092919081815260200182805461063a9061282e565b80156106875780601f1061065c57610100808354040283529160200191610687565b820191906000526020600020905b81548152906001019060200180831161066a57829003601f168201915b505050505091505092915050565b61069d610c5b565b6106a76000610d3b565b565b6106bd67cd470bb19fa5c8aa60c01b610c58565b6106c5610dff565b6106d967c1249e196c7c573060c01b610c58565b6106ed67ec9b6a66067ec31a60c01b610c58565b8361070267d2c55440c8ca81d960c01b610c58565b610716675b60b23431f35b0c60c01b610c58565b61072a672524bb691e2b8b1960c01b610c58565b61073e67132c280c276ade5f60c01b610c58565b60018060009054906101000a900473ffffffffffffffffffffffffffffffffffffffff1673ffffffffffffffffffffffffffffffffffffffff16634b557d8a836040518263ffffffff1660e01b815260040161079a91906125e3565b602060405180830381865afa1580156107b7573d6000803e3d6000fd5b505050506040513d601f19601f820116820180604052508101906107db919061288b565b60ff161461081e576040517f08c379a000000000000000000000000000000000000000000000000000000000815260040161081590612915565b60405180910390fd5b610832673dce9b6179236cfa60c01b610c58565b610846672ab40ffa3b71cbf160c01b610c58565b61085a67d4c8d55d613d5b8660c01b610c58565b61086e67f5dc4e5223ba101760c01b610c58565b610882671293da8b6d1f0f9260c01b610c58565b610896676251e848b688ed1b60c01b610c58565b6108aa67ab359551e91debe060c01b610c58565b6108b684868585610e49565b6108f5576040517f08c379a00000000000000000000000000000000000000000000000000000000081526004016108ec90612981565b60405180910390fd5b61090967f73bc2afeb9ccc5860c01b610c58565b61091d67106429b961b4f49660c01b610c58565b6109316740bac49193206b1660c01b610c58565b61093b858461109b565b5050505050565b61095667c7dec06e0257eb0560c01b610c58565b61095e610c5b565b610972676e87e28cde1d47ec60c01b610c58565b61098667ef21273e02648c9760c01b610c58565b61099a67dfe382666488acd160c01b610c58565b6109ae67e5f0a9fc6128df9160c01b610c58565b6109b6611314565b565b60008060009054906101000a900473ffffffffffffffffffffffffffffffffffffffff16905090565b60006109f7673ad14159a400409260c01b610c58565b610a0b6759aa53148781535660c01b610c58565b610a1f6727af6115fc8e9f2260c01b610c58565b600382604051610a2f9190612748565b9081526020016040518091039020549050919050565b610a596718d281aed5e81bca60c01b610c58565b610a61610dff565b610a75679e48648ce0292c0460c01b610c58565b610a89671f449d7897323e7060c01b610c58565b610a9d674f60138202caa8d360c01b610c58565b610ab167b01630c3e712fccf60c01b610c58565b6000600160009054906101000a900473ffffffffffffffffffffffffffffffffffffffff1673ffffffffffffffffffffffffffffffffffffffff1663ea32fff7610af9611377565b6040518263ffffffff1660e01b8152600401610b1591906125e3565b602060405180830381865afa158015610b32573d6000803e3d6000fd5b505050506040513d601f19601f82011682018060405250810190610b569190612774565b9050610b6c6760de6d59bfbee54560c01b610c58565b610b8067b9a61bc17abcafb460c01b610c58565b610b97610b8b611377565b8888888589898961137f565b610bab67ea944e5bfca8c81060c01b610c58565b610bbf67ccf73b618ab45c7860c01b610c58565b610bcc8786838786611736565b50505050505050565b610bdd610c5b565b600073ffffffffffffffffffffffffffffffffffffffff168173ffffffffffffffffffffffffffffffffffffffff1603610c4c576040517f08c379a0000000000000000000000000000000000000000000000000000000008152600401610c4390612a13565b60405180910390fd5b610c5581610d3b565b50565b50565b610c63611377565b73ffffffffffffffffffffffffffffffffffffffff16610c816109b8565b73ffffffffffffffffffffffffffffffffffffffff1614610cd7576040517f08c379a0000000000000000000000000000000000000000000000000000000008152600401610cce90612a7f565b60405180910390fd5b565b610ce16119d7565b60008060146101000a81548160ff0219169083151502179055507f5db9ee0a495bf2e6ff9c91a7834c1ba4fdd244a5e8aa4e537bd38aeae4b073aa610d24611377565b604051610d3191906125e3565b60405180910390a1565b60008060009054906101000a900473ffffffffffffffffffffffffffffffffffffffff169050816000806101000a81548173ffffffffffffffffffffffffffffffffffffffff021916908373ffffffffffffffffffffffffffffffffffffffff1602179055508173ffffffffffffffffffffffffffffffffffffffff168173ffffffffffffffffffffffffffffffffffffffff167f8be0079c531659141344cd1fd0a4f28419497f9722a3daafe3b4186f6b6457e060405160405180910390a35050565b610e076104a0565b15610e47576040517f08c379a0000000000000000000000000000000000000000000000000000000008152600401610e3e90612aeb565b60405180910390fd5b565b6000610e5f67bf2f6b277aadbc1660c01b610c58565b610e736787df166deb73b6bf60c01b610c58565b610e876735c0ac2ebbe8d80f60c01b610c58565b610e9b67868905dad04442f960c01b610c58565b6008600083815260200190815260200160002060009054906101000a900460ff1615610efc576040517f08c379a0000000000000000000000000000000000000000000000000000000008152600401610ef390612b57565b60405180910390fd5b610f1067d281fe235615b58b60c01b610c58565b610f2467c82682153bc442aa60c01b610c58565b60016008600084815260200190815260200160002060006101000a81548160ff021916908315150217905550610f6467ab938e4c4e19318860c01b610c58565b610f7867ee1aeea907f48af360c01b610c58565b600084848430604051602001610f919493929190612be0565b604051602081830303815290604052805190602001209050610fbd6763dc83078e74842560c01b610c58565b610fd1679b2d063777c9ce9f60c01b610c58565b6000610fee87610fe084611a20565b611a5090919063ffffffff16565b9050611004673eb93f9a0389e53060c01b610c58565b61101867b573f96cf6f970df60c01b610c58565b8073ffffffffffffffffffffffffffffffffffffffff168673ffffffffffffffffffffffffffffffffffffffff160361107c5761105f67ed8b8fdc756ab87260c01b610c58565b61107367b8c627d19274304b60c01b610c58565b60019250611091565b6110906763e6acd37422d2c960c01b610c58565b5b5050949350505050565b6110af671b1ef2acc25fa5e760c01b610c58565b6110c367c4643e7a9025ca8a60c01b610c58565b6110d767074bb47416f36d8a60c01b610c58565b60028190806001815401808255809150506001900390600052602060002001600090919091909150908161110b9190612dd6565b5061112067ee873c2ff4074e8b60c01b610c58565b61113467234ba3935ae8b3a460c01b610c58565b600060016002805490506111489190612ed7565b905061115e67d0240e50570b504560c01b610c58565b611172678c4079df612cb96560c01b610c58565b6000600160009054906101000a900473ffffffffffffffffffffffffffffffffffffffff1673ffffffffffffffffffffffffffffffffffffffff1663ea32fff7856040518263ffffffff1660e01b81526004016111cf91906125e3565b602060405180830381865afa1580156111ec573d6000803e3d6000fd5b505050506040513d601f19601f820116820180604052508101906112109190612774565b905061122667228156057c68845960c01b610c58565b61123a67c79f2b346f8b0e3860c01b610c58565b6005600082815260200190815260200160002082908060018154018082558091505060019003906000526020600020016000909190919091505561128867581f107c9bb6172160c01b610c58565b806003846040516112999190612748565b9081526020016040518091039020819055506112bf67b31cec072fb81daa60c01b610c58565b6112d3670abd58fd33d634f960c01b610c58565b7f61c9805cf401b606419b3679e7abe7e7cd2c70612e477fad927b57cd793c4c6484828560405161130693929190612f0b565b60405180910390a150505050565b61131c610dff565b6001600060146101000a81548160ff0219169083151502179055507f62e78cea01bee320cd4e420270b5ea74000d11b0c9f74754ebdbfc544b05a258611360611377565b60405161136d91906125e3565b60405180910390a1565b600033905090565b611393670d694908485faa8660c01b610c58565b876113a867d2c55440c8ca81d960c01b610c58565b6113bc675b60b23431f35b0c60c01b610c58565b6113d0672524bb691e2b8b1960c01b610c58565b6113e467132c280c276ade5f60c01b610c58565b60018060009054906101000a900473ffffffffffffffffffffffffffffffffffffffff1673ffffffffffffffffffffffffffffffffffffffff16634b557d8a836040518263ffffffff1660e01b815260040161144091906125e3565b602060405180830381865afa15801561145d573d6000803e3d6000fd5b505050506040513d601f19601f82011682018060405250810190611481919061288b565b60ff16146114c4576040517f08c379a00000000000000000000000000000000000000000000000000000000081526004016114bb90612915565b60405180910390fd5b6114d8673dce9b6179236cfa60c01b610c58565b6114ec672ab40ffa3b71cbf160c01b610c58565b61150067b20ea16ad0a0ef7660c01b610c58565b61151467e75aeb76b487f5e360c01b610c58565b6115286765e82816c666154b60c01b610c58565b61153c67ee818ef61454ad9f60c01b610c58565b600060038760405161154e9190612748565b908152602001604051809103902054905061157367534b797fc835133660c01b610c58565b61158767deb1f3efeeb805eb60c01b610c58565b61159b67192d9d4ab3faa16960c01b610c58565b600160009054906101000a900473ffffffffffffffffffffffffffffffffffffffff1673ffffffffffffffffffffffffffffffffffffffff1663ea32fff78a6040518263ffffffff1660e01b81526004016115f691906125e3565b602060405180830381865afa158015611613573d6000803e3d6000fd5b505050506040513d601f19601f820116820180604052508101906116379190612774565b8114611678576040517f08c379a000000000000000000000000000000000000000000000000000000000815260040161166f90612f95565b60405180910390fd5b61168c67046174382de5504860c01b610c58565b6116a067297090448e02adff60c01b610c58565b6116b4675bdc9ec27387f1e860c01b610c58565b6116c867787b1244fc26a66d60c01b610c58565b6116d7888a888a898989611a77565b611716576040517f08c379a000000000000000000000000000000000000000000000000000000000815260040161170d90612981565b60405180910390fd5b61172a670d9c45e06205c74860c01b610c58565b50505050505050505050565b61174a6759cc83cd48cb981160c01b610c58565b61175e679386ddfd1127ea6860c01b610c58565b611772673c6e50b62e35017e60c01b610c58565b600061177f848685611cd2565b905061179567bad4fd53758518a960c01b610c58565b6117a9673f2a477fad8f068f60c01b610c58565b6000600160009054906101000a900473ffffffffffffffffffffffffffffffffffffffff1673ffffffffffffffffffffffffffffffffffffffff1663ea32fff7886040518263ffffffff1660e01b815260040161180691906125e3565b602060405180830381865afa158015611823573d6000803e3d6000fd5b505050506040513d601f19601f820116820180604052508101906118479190612774565b905061185d67e137307e420f186e60c01b610c58565b611871674dcdfab58eb5cde360c01b610c58565b600460008281526020019081526020016000208290806001815401808255809150506001900390600052602060002001600090919091909150556118bf67722539dac9302e4360c01b610c58565b60016006876040516118d19190612748565b9081526020016040518091039020600086815260200190815260200160002060006101000a81548160ff02191690836001811115611912576119116127a1565b5b021790555061192b6784052e5960f396e360c01b610c58565b61193483611d44565b6007876040516119449190612748565b908152602001604051809103902060008681526020019081526020016000208190555061197b672a5eacaeda044afb60c01b610c58565b61198f67b946a32579f02f2860c01b610c58565b7f9d432c508a63a5706050fbd1cc156de901f2ce70149295334f1ea503168f843481868689866040516119c6959493929190612fc4565b60405180910390a150505050505050565b6119df6104a0565b611a1e576040517f08c379a0000000000000000000000000000000000000000000000000000000008152600401611a159061306a565b60405180910390fd5b565b600081604051602001611a339190613102565b604051602081830303815290604052805190602001209050919050565b6000806000611a5f8585611dc3565b91509150611a6c81611e14565b819250505092915050565b6000611a8d67ffd7c1ea711d6ee760c01b610c58565b611aa167c016ce92b863422b60c01b610c58565b611ab5673de737f30718bfad60c01b610c58565b611ac9671b1429ebde6b8c7760c01b610c58565b6008600084815260200190815260200160002060009054906101000a900460ff1615611b2a576040517f08c379a0000000000000000000000000000000000000000000000000000000008152600401611b2190612b57565b60405180910390fd5b611b3e67cc1697d9a769ca2060c01b610c58565b611b52679e30a9d05eeff6d460c01b610c58565b60016008600085815260200190815260200160002060006101000a81548160ff021916908315150217905550611b926770fa7adc426bc5e860c01b610c58565b611ba667581e65203cad676160c01b610c58565b600087878787878730604051602001611bc59796959493929190613128565b604051602081830303815290604052805190602001209050611bf167954061ab244c065260c01b610c58565b611c056766d25c479d36cb8d60c01b610c58565b6000611c228a611c1484611a20565b611a5090919063ffffffff16565b9050611c38679d84c919f1eeb00f60c01b610c58565b611c4c67cedd8154e90f60ae60c01b610c58565b8073ffffffffffffffffffffffffffffffffffffffff168973ffffffffffffffffffffffffffffffffffffffff1603611cb057611c9367d4919f2d93d3e99660c01b610c58565b611ca76715925e7d4bd5d48260c01b610c58565b60019250611cc5565b611cc467a6937fec55225c4860c01b610c58565b5b5050979650505050505050565b6000611ce8674573deca6dc890e660c01b610c58565b611cfc67aad12cd361e3c6d260c01b610c58565b611d1067ede428e9f70ae1a860c01b610c58565b838383604051602001611d25939291906131a5565b6040516020818303038152906040528051906020012090509392505050565b6000611d5a678a31a31edae7b7f860c01b610c58565b611d6e6770f8a4134eea9bd260c01b610c58565b611d8267936e30792ad1057a60c01b610c58565b60008242611d9091906131de565b9050611da66792c62b8f5e5be74960c01b610c58565b611dba672b20987a1e3790e260c01b610c58565b80915050919050565b6000806041835103611e045760008060006020860151925060408601519150606086015160001a9050611df887828585611f7a565b94509450505050611e0d565b60006002915091505b9250929050565b60006004811115611e2857611e276127a1565b5b816004811115611e3b57611e3a6127a1565b5b0315611f775760016004811115611e5557611e546127a1565b5b816004811115611e6857611e676127a1565b5b03611ea8576040517f08c379a0000000000000000000000000000000000000000000000000000000008152600401611e9f9061325e565b60405180910390fd5b60026004811115611ebc57611ebb6127a1565b5b816004811115611ecf57611ece6127a1565b5b03611f0f576040517f08c379a0000000000000000000000000000000000000000000000000000000008152600401611f06906132ca565b60405180910390fd5b60036004811115611f2357611f226127a1565b5b816004811115611f3657611f356127a1565b5b03611f76576040517f08c379a0000000000000000000000000000000000000000000000000000000008152600401611f6d9061335c565b60405180910390fd5b5b50565b6000807f7fffffffffffffffffffffffffffffff5d576e7357a4501ddfe92f46681b20a08360001c1115611fb5576000600391509150612053565b600060018787878760405160008152602001604052604051611fda949392919061337c565b6020604051602081039080840390855afa158015611ffc573d6000803e3d6000fd5b505050602060405103519050600073ffffffffffffffffffffffffffffffffffffffff168173ffffffffffffffffffffffffffffffffffffffff160361204a57600060019250925050612053565b80600092509250505b94509492505050565b6000604051905090565b600080fd5b600080fd5b600080fd5b600080fd5b6000601f19601f8301169050919050565b7f4e487b7100000000000000000000000000000000000000000000000000000000600052604160045260246000fd5b6120c38261207a565b810181811067ffffffffffffffff821117156120e2576120e161208b565b5b80604052505050565b60006120f561205c565b905061210182826120ba565b919050565b600067ffffffffffffffff8211156121215761212061208b565b5b61212a8261207a565b9050602081019050919050565b82818337600083830152505050565b600061215961215484612106565b6120eb565b90508281526020810184848401111561217557612174612075565b5b612180848285612137565b509392505050565b600082601f83011261219d5761219c612070565b5b81356121ad848260208601612146565b91505092915050565b6000819050919050565b6121c9816121b6565b81146121d457600080fd5b50565b6000813590506121e6816121c0565b92915050565b6000806040838503121561220357612202612066565b5b600083013567ffffffffffffffff8111156122215761222061206b565b5b61222d85828601612188565b925050602061223e858286016121d7565b9150509250929050565b612251816121b6565b82525050565b600060208201905061226c6000830184612248565b92915050565b600073ffffffffffffffffffffffffffffffffffffffff82169050919050565b600061229d82612272565b9050919050565b6122ad81612292565b81146122b857600080fd5b50565b6000813590506122ca816122a4565b92915050565b6000602082840312156122e6576122e5612066565b5b60006122f4848285016122bb565b91505092915050565b600081519050919050565b600082825260208201905092915050565b6000819050602082019050919050565b6000819050919050565b61233c81612329565b82525050565b600061234e8383612333565b60208301905092915050565b6000602082019050919050565b6000612372826122fd565b61237c8185612308565b935061238783612319565b8060005b838110156123b857815161239f8882612342565b97506123aa8361235a565b92505060018101905061238b565b5085935050505092915050565b600060208201905081810360008301526123df8184612367565b905092915050565b60008115159050919050565b6123fc816123e7565b82525050565b600060208201905061241760008301846123f3565b92915050565b600060ff82169050919050565b6124338161241d565b82525050565b600060208201905061244e600083018461242a565b92915050565b6000806040838503121561246b5761246a612066565b5b6000612479858286016121d7565b925050602061248a858286016121d7565b9150509250929050565b600081519050919050565b600082825260208201905092915050565b60005b838110156124ce5780820151818401526020810190506124b3565b60008484015250505050565b60006124e582612494565b6124ef818561249f565b93506124ff8185602086016124b0565b6125088161207a565b840191505092915050565b6000602082019050818103600083015261252d81846124da565b905092915050565b6000806000806080858703121561254f5761254e612066565b5b600061255d878288016122bb565b945050602085013567ffffffffffffffff81111561257e5761257d61206b565b5b61258a87828801612188565b935050604085013567ffffffffffffffff8111156125ab576125aa61206b565b5b6125b787828801612188565b92505060606125c8878288016121d7565b91505092959194509250565b6125dd81612292565b82525050565b60006020820190506125f860008301846125d4565b92915050565b60006020828403121561261457612613612066565b5b600082013567ffffffffffffffff8111156126325761263161206b565b5b61263e84828501612188565b91505092915050565b60008060008060008060c0878903121561266457612663612066565b5b600061267289828a016122bb565b965050602087013567ffffffffffffffff8111156126935761269261206b565b5b61269f89828a01612188565b955050604087013567ffffffffffffffff8111156126c0576126bf61206b565b5b6126cc89828a01612188565b94505060606126dd89828a016121d7565b93505060806126ee89828a016121d7565b92505060a06126ff89828a016121d7565b9150509295509295509295565b600081905092915050565b600061272282612494565b61272c818561270c565b935061273c8185602086016124b0565b80840191505092915050565b60006127548284612717565b915081905092915050565b60008151905061276e816121c0565b92915050565b60006020828403121561278a57612789612066565b5b60006127988482850161275f565b91505092915050565b7f4e487b7100000000000000000000000000000000000000000000000000000000600052602160045260246000fd5b7f4e487b7100000000000000000000000000000000000000000000000000000000600052603260045260246000fd5b7f4e487b7100000000000000000000000000000000000000000000000000000000600052602260045260246000fd5b6000600282049050600182168061284657607f821691505b602082108103612859576128586127ff565b5b50919050565b6128688161241d565b811461287357600080fd5b50565b6000815190506128858161285f565b92915050565b6000602082840312156128a1576128a0612066565b5b60006128af84828501612876565b91505092915050565b600082825260208201905092915050565b7f52454a5556453a204e6f74205265676973746572656400000000000000000000600082015250565b60006128ff6016836128b8565b915061290a826128c9565b602082019050919050565b6000602082019050818103600083015261292e816128f2565b9050919050565b7f52454a5556453a20496e76616c6964205369676e617475726500000000000000600082015250565b600061296b6019836128b8565b915061297682612935565b602082019050919050565b6000602082019050818103600083015261299a8161295e565b9050919050565b7f4f776e61626c653a206e6577206f776e657220697320746865207a65726f206160008201527f6464726573730000000000000000000000000000000000000000000000000000602082015250565b60006129fd6026836128b8565b9150612a08826129a1565b604082019050919050565b60006020820190508181036000830152612a2c816129f0565b9050919050565b7f4f776e61626c653a2063616c6c6572206973206e6f7420746865206f776e6572600082015250565b6000612a696020836128b8565b9150612a7482612a33565b602082019050919050565b60006020820190508181036000830152612a9881612a5c565b9050919050565b7f5061757361626c653a2070617573656400000000000000000000000000000000600082015250565b6000612ad56010836128b8565b9150612ae082612a9f565b602082019050919050565b60006020820190508181036000830152612b0481612ac8565b9050919050565b7f52454a5556453a205369676e6174757265207573656420616c72656164790000600082015250565b6000612b41601e836128b8565b9150612b4c82612b0b565b602082019050919050565b60006020820190508181036000830152612b7081612b34565b9050919050565b60008160601b9050919050565b6000612b8f82612b77565b9050919050565b6000612ba182612b84565b9050919050565b612bb9612bb482612292565b612b96565b82525050565b6000819050919050565b612bda612bd5826121b6565b612bbf565b82525050565b6000612bec8287612ba8565b601482019150612bfc8286612717565b9150612c088285612bc9565b602082019150612c188284612ba8565b60148201915081905095945050505050565b60008190508160005260206000209050919050565b60006020601f8301049050919050565b600082821b905092915050565b600060088302612c8c7fffffffffffffffffffffffffffffffffffffffffffffffffffffffffffffffff82612c4f565b612c968683612c4f565b95508019841693508086168417925050509392505050565b6000819050919050565b6000612cd3612cce612cc9846121b6565b612cae565b6121b6565b9050919050565b6000819050919050565b612ced83612cb8565b612d01612cf982612cda565b848454612c5c565b825550505050565b600090565b612d16612d09565b612d21818484612ce4565b505050565b5b81811015612d4557612d3a600082612d0e565b600181019050612d27565b5050565b601f821115612d8a57612d5b81612c2a565b612d6484612c3f565b81016020851015612d73578190505b612d87612d7f85612c3f565b830182612d26565b50505b505050565b600082821c905092915050565b6000612dad60001984600802612d8f565b1980831691505092915050565b6000612dc68383612d9c565b9150826002028217905092915050565b612ddf82612494565b67ffffffffffffffff811115612df857612df761208b565b5b612e02825461282e565b612e0d828285612d49565b600060209050601f831160018114612e405760008415612e2e578287015190505b612e388582612dba565b865550612ea0565b601f198416612e4e86612c2a565b60005b82811015612e7657848901518255600182019150602085019450602081019050612e51565b86831015612e935784890151612e8f601f891682612d9c565b8355505b6001600288020188555050505b505050505050565b7f4e487b7100000000000000000000000000000000000000000000000000000000600052601160045260246000fd5b6000612ee2826121b6565b9150612eed836121b6565b9250828203905081811115612f0557612f04612ea8565b5b92915050565b6000606082019050612f2060008301866125d4565b612f2d6020830185612248565b8181036040830152612f3f81846124da565b9050949350505050565b7f52454a5556453a204e6f7420612044617461204f776e65720000000000000000600082015250565b6000612f7f6018836128b8565b9150612f8a82612f49565b602082019050919050565b60006020820190508181036000830152612fae81612f72565b9050919050565b612fbe81612329565b82525050565b600060a082019050612fd96000830188612248565b612fe66020830187612248565b612ff36040830186612248565b818103606083015261300581856124da565b90506130146080830184612fb5565b9695505050505050565b7f5061757361626c653a206e6f7420706175736564000000000000000000000000600082015250565b60006130546014836128b8565b915061305f8261301e565b602082019050919050565b6000602082019050818103600083015261308381613047565b9050919050565b600081905092915050565b7f19457468657265756d205369676e6564204d6573736167653a0a333200000000600082015250565b60006130cb601c8361308a565b91506130d682613095565b601c82019050919050565b6000819050919050565b6130fc6130f782612329565b6130e1565b82525050565b600061310d826130be565b915061311982846130eb565b60208201915081905092915050565b6000613134828a612ba8565b6014820191506131448289612bc9565b6020820191506131548288612717565b91506131608287612bc9565b6020820191506131708286612bc9565b6020820191506131808285612bc9565b6020820191506131908284612ba8565b60148201915081905098975050505050505050565b60006131b18286612bc9565b6020820191506131c18285612717565b91506131cd8284612bc9565b602082019150819050949350505050565b60006131e9826121b6565b91506131f4836121b6565b925082820190508082111561320c5761320b612ea8565b5b92915050565b7f45434453413a20696e76616c6964207369676e61747572650000000000000000600082015250565b60006132486018836128b8565b915061325382613212565b602082019050919050565b600060208201905081810360008301526132778161323b565b9050919050565b7f45434453413a20696e76616c6964207369676e6174757265206c656e67746800600082015250565b60006132b4601f836128b8565b91506132bf8261327e565b602082019050919050565b600060208201905081810360008301526132e3816132a7565b9050919050565b7f45434453413a20696e76616c6964207369676e6174757265202773272076616c60008201527f7565000000000000000000000000000000000000000000000000000000000000602082015250565b60006133466022836128b8565b9150613351826132ea565b604082019050919050565b6000602082019050818103600083015261337581613339565b9050919050565b60006080820190506133916000830187612fb5565b61339e602083018661242a565b6133ab6040830185612fb5565b6133b86060830184612fb5565b9594505050505056fea2646970667358221220fb1cbaa9ecdbef2fa9c6a42a86b0ff72ffb3521d021d375249decddac3d291a564736f6c63430008130033",
  "linkReferences": {},
  "deployedLinkReferences": {}
}