{
  "_format": "hh-sol-artifact-1",
  "contractName": "DataManagement",
  "sourceName": "contracts/DataManagement.sol",
  "abi": [
    {
      "inputs": [
        {
          "internalType": "contract IIdentityToken",
          "name": "identityToken_",
          "type": "address"
        }
      ],
      "stateMutability": "nonpayable",
      "type": "constructor"
    },
    {
      "anonymous": false,
      "inputs": [
        {
          "indexed": false,
          "internalType": "address",
          "name": "dataOwner",
          "type": "address"
        },
        {
          "indexed": false,
          "internalType": "uint256",
          "name": "dataOwnerId",
          "type": "uint256"
        },
        {
          "indexed": false,
          "internalType": "bytes",
          "name": "dataHash",
          "type": "bytes"
        }
      ],
      "name": "DataSubmitted",
      "type": "event"
    },
    {
      "anonymous": false,
      "inputs": [
        {
          "indexed": true,
          "internalType": "address",
          "name": "previousOwner",
          "type": "address"
        },
        {
          "indexed": true,
          "internalType": "address",
          "name": "newOwner",
          "type": "address"
        }
      ],
      "name": "OwnershipTransferred",
      "type": "event"
    },
    {
      "anonymous": false,
      "inputs": [
        {
          "indexed": false,
          "internalType": "address",
          "name": "account",
          "type": "address"
        }
      ],
      "name": "Paused",
      "type": "event"
    },
    {
      "anonymous": false,
      "inputs": [
        {
          "indexed": false,
          "internalType": "uint256",
          "name": "dataOwnerId",
          "type": "uint256"
        },
        {
          "indexed": false,
          "internalType": "uint256",
          "name": "requesterId",
          "type": "uint256"
        },
        {
          "indexed": false,
          "internalType": "uint256",
          "name": "nextProductUID",
          "type": "uint256"
        },
        {
          "indexed": false,
          "internalType": "bytes",
          "name": "dataHash",
          "type": "bytes"
        },
        {
          "indexed": false,
          "internalType": "bytes32",
          "name": "permissionHash",
          "type": "bytes32"
        }
      ],
      "name": "PermissionGranted",
      "type": "event"
    },
    {
      "anonymous": false,
      "inputs": [
        {
          "indexed": false,
          "internalType": "address",
          "name": "account",
          "type": "address"
        }
      ],
      "name": "Unpaused",
      "type": "event"
    },
    {
      "inputs": [
        {
          "internalType": "uint256",
          "name": "tokenId",
          "type": "uint256"
        },
        {
          "internalType": "uint256",
          "name": "index",
          "type": "uint256"
        }
      ],
      "name": "getDataByTokenId",
      "outputs": [
        {
          "internalType": "bytes",
          "name": "",
          "type": "bytes"
        }
      ],
      "stateMutability": "view",
      "type": "function"
    },
    {
      "inputs": [
        {
          "internalType": "bytes",
          "name": "dHash",
          "type": "bytes"
        }
      ],
      "name": "getDataOwnerId",
      "outputs": [
        {
          "internalType": "uint256",
          "name": "",
          "type": "uint256"
        }
      ],
      "stateMutability": "view",
      "type": "function"
    },
    {
      "inputs": [
        {
          "internalType": "address",
          "name": "signer",
          "type": "address"
        },
        {
          "internalType": "bytes",
          "name": "signature",
          "type": "bytes"
        },
        {
          "internalType": "bytes",
          "name": "dHash",
          "type": "bytes"
        },
        {
          "internalType": "uint256",
          "name": "nextProductUID",
          "type": "uint256"
        },
        {
          "internalType": "uint256",
          "name": "nonce",
          "type": "uint256"
        },
        {
          "internalType": "uint256",
          "name": "expiration",
          "type": "uint256"
        }
      ],
      "name": "getPermission",
      "outputs": [],
      "stateMutability": "nonpayable",
      "type": "function"
    },
    {
      "inputs": [
        {
          "internalType": "bytes",
          "name": "dHash",
          "type": "bytes"
        },
        {
          "internalType": "uint256",
          "name": "nextProductUID",
          "type": "uint256"
        }
      ],
      "name": "getPermissionDeadline",
      "outputs": [
        {
          "internalType": "uint256",
          "name": "",
          "type": "uint256"
        }
      ],
      "stateMutability": "view",
      "type": "function"
    },
    {
      "inputs": [
        {
          "internalType": "address",
          "name": "owner",
          "type": "address"
        }
      ],
      "name": "getPermissionHashes",
      "outputs": [
        {
          "internalType": "bytes32[]",
          "name": "",
          "type": "bytes32[]"
        }
      ],
      "stateMutability": "view",
      "type": "function"
    },
    {
      "inputs": [
        {
          "internalType": "bytes",
          "name": "dHash",
          "type": "bytes"
        },
        {
          "internalType": "uint256",
          "name": "productUID",
          "type": "uint256"
        }
      ],
      "name": "getPermissionStatus",
      "outputs": [
        {
          "internalType": "uint8",
          "name": "",
          "type": "uint8"
        }
      ],
      "stateMutability": "view",
      "type": "function"
    },
    {
      "inputs": [],
      "name": "owner",
      "outputs": [
        {
          "internalType": "address",
          "name": "",
          "type": "address"
        }
      ],
      "stateMutability": "view",
      "type": "function"
    },
    {
      "inputs": [],
      "name": "pause",
      "outputs": [],
      "stateMutability": "nonpayable",
      "type": "function"
    },
    {
      "inputs": [],
      "name": "paused",
      "outputs": [
        {
          "internalType": "bool",
          "name": "",
          "type": "bool"
        }
      ],
      "stateMutability": "view",
      "type": "function"
    },
    {
      "inputs": [],
      "name": "renounceOwnership",
      "outputs": [],
      "stateMutability": "nonpayable",
      "type": "function"
    },
    {
      "inputs": [
        {
          "internalType": "address",
          "name": "signer",
          "type": "address"
        },
        {
          "internalType": "bytes",
          "name": "signature",
          "type": "bytes"
        },
        {
          "internalType": "bytes",
          "name": "dHash",
          "type": "bytes"
        },
        {
          "internalType": "uint256",
          "name": "nonce",
          "type": "uint256"
        }
      ],
      "name": "submitData",
      "outputs": [],
      "stateMutability": "nonpayable",
      "type": "function"
    },
    {
      "inputs": [
        {
          "internalType": "address",
          "name": "newOwner",
          "type": "address"
        }
      ],
      "name": "transferOwnership",
      "outputs": [],
      "stateMutability": "nonpayable",
      "type": "function"
    },
    {
      "inputs": [],
      "name": "unpause",
      "outputs": [],
      "stateMutability": "nonpayable",
      "type": "function"
    }
  ],
  "bytecode": "0x608060405234801562000010575f80fd5b50604051620034b5380380620034b5833981810160405281019062000036919062000231565b620000566200004a620000ee60201b60201c565b620000f560201b60201c565b5f8060146101000a81548160ff0219169083151502179055506200008b67630bfe3d6bd3b12b60c01b620001b660201b60201c565b620000a767b5ae5f0383f34cfc60c01b620001b660201b60201c565b8060015f6101000a81548173ffffffffffffffffffffffffffffffffffffffff021916908373ffffffffffffffffffffffffffffffffffffffff1602179055505062000261565b5f33905090565b5f805f9054906101000a900473ffffffffffffffffffffffffffffffffffffffff169050815f806101000a81548173ffffffffffffffffffffffffffffffffffffffff021916908373ffffffffffffffffffffffffffffffffffffffff1602179055508173ffffffffffffffffffffffffffffffffffffffff168173ffffffffffffffffffffffffffffffffffffffff167f8be0079c531659141344cd1fd0a4f28419497f9722a3daafe3b4186f6b6457e060405160405180910390a35050565b50565b5f80fd5b5f73ffffffffffffffffffffffffffffffffffffffff82169050919050565b5f620001e882620001bd565b9050919050565b5f620001fb82620001dc565b9050919050565b6200020d81620001ef565b811462000218575f80fd5b50565b5f815190506200022b8162000202565b92915050565b5f60208284031215620002495762000248620001b9565b5b5f62000258848285016200021b565b91505092915050565b613246806200026f5f395ff3fe608060405234801561000f575f80fd5b50600436106100cd575f3560e01c8063715018a61161008a5780638da5cb5b116100645780638da5cb5b146101e9578063a3085ce814610207578063a441067514610237578063f2fde38b14610253576100cd565b8063715018a6146101b95780637b2a9613146101c35780638456cb59146101df576100cd565b80631370fb87146100d1578063335ce372146101015780633f4ba83a146101315780635c975abb1461013b5780635f233dab146101595780636439b3ca14610189575b5f80fd5b6100eb60048036038101906100e69190612168565b61026f565b6040516100f891906121d1565b60405180910390f35b61011b60048036038101906101169190612244565b6102e2565b604051610128919061232f565b60405180910390f35b61013961041d565b005b610143610493565b6040516101509190612369565b60405180910390f35b610173600480360381019061016e9190612168565b6104a8565b604051610180919061239d565b60405180910390f35b6101a3600480360381019061019e91906123b6565b610539565b6040516101b0919061246e565b60405180910390f35b6101c161067a565b005b6101dd60048036038101906101d8919061248e565b61068d565b005b6101e7610923565b005b6101f1610999565b6040516101fe9190612539565b60405180910390f35b610221600480360381019061021c9190612552565b6109c0565b60405161022e91906121d1565b60405180910390f35b610251600480360381019061024c9190612599565b610a23565b005b61026d60048036038101906102689190612244565b610baf565b005b5f610284677f6cdcd71ec3622a60c01b610c31565b6102986772b9e9efbcc0908360c01b610c31565b6102ac672c24dfc9032f36a560c01b610c31565b6007836040516102bc9190612694565b90815260200160405180910390205f8381526020019081526020015f2054905092915050565b60606102f867d2a926f1c9153b9e60c01b610c31565b61030c67123b4a71f91c715d60c01b610c31565b610320676ad4f834660545db60c01b610c31565b60045f60015f9054906101000a900473ffffffffffffffffffffffffffffffffffffffff1673ffffffffffffffffffffffffffffffffffffffff1663ea32fff7856040518263ffffffff1660e01b815260040161037d9190612539565b602060405180830381865afa158015610398573d5f803e3d5ffd5b505050506040513d601f19601f820116820180604052508101906103bc91906126be565b81526020019081526020015f2080548060200260200160405190810160405280929190818152602001828054801561041157602002820191905f5260205f20905b8154815260200190600101908083116103fd575b50505050509050919050565b610431670d6a07c1fe138b5060c01b610c31565b610439610c34565b61044d67310051df636952b160c01b610c31565b61046167306691c08e4577a860c01b610c31565b6104756722fca51f3856cafb60c01b610c31565b61048967083d12b7b0cb8cc760c01b610c31565b610491610cb2565b565b5f8060149054906101000a900460ff16905090565b5f6104bd678e3c14ef7b1f472260c01b610c31565b6104d167b028d4de9564767460c01b610c31565b6104e567f05313b6d2d042c860c01b610c31565b6006836040516104f59190612694565b90815260200160405180910390205f8381526020019081526020015f205f9054906101000a900460ff166001811115610531576105306126e9565b5b905092915050565b606061054f67e616e3cc57a65c5d60c01b610c31565b6105636715b7928dbd0503b860c01b610c31565b61057767eba3b59336f812f960c01b610c31565b5f60055f8581526020019081526020015f20838154811061059b5761059a612716565b5b905f5260205f20015490506105ba6727921e8a2a41d3d560c01b610c31565b6105ce67f6c63b9a47a1d8eb60c01b610c31565b600281815481106105e2576105e1612716565b5b905f5260205f200180546105f590612770565b80601f016020809104026020016040519081016040528092919081815260200182805461062190612770565b801561066c5780601f106106435761010080835404028352916020019161066c565b820191905f5260205f20905b81548152906001019060200180831161064f57829003601f168201915b505050505091505092915050565b610682610c34565b61068b5f610d13565b565b6106a167cd470bb19fa5c8aa60c01b610c31565b6106a9610dd4565b6106bd67c1249e196c7c573060c01b610c31565b6106d167ec9b6a66067ec31a60c01b610c31565b836106e667d2c55440c8ca81d960c01b610c31565b6106fa675b60b23431f35b0c60c01b610c31565b61070e672524bb691e2b8b1960c01b610c31565b61072267132c280c276ade5f60c01b610c31565b6001805f9054906101000a900473ffffffffffffffffffffffffffffffffffffffff1673ffffffffffffffffffffffffffffffffffffffff16634b557d8a836040518263ffffffff1660e01b815260040161077d9190612539565b602060405180830381865afa158015610798573d5f803e3d5ffd5b505050506040513d601f19601f820116820180604052508101906107bc91906127ca565b60ff16146107ff576040517f08c379a00000000000000000000000000000000000000000000000000000000081526004016107f69061284f565b60405180910390fd5b610813673dce9b6179236cfa60c01b610c31565b610827672ab40ffa3b71cbf160c01b610c31565b61083b67d4c8d55d613d5b8660c01b610c31565b61084f67f5dc4e5223ba101760c01b610c31565b610863671293da8b6d1f0f9260c01b610c31565b610877676251e848b688ed1b60c01b610c31565b61088b67ab359551e91debe060c01b610c31565b61089784868585610e1e565b6108d6576040517f08c379a00000000000000000000000000000000000000000000000000000000081526004016108cd906128b7565b60405180910390fd5b6108ea67f73bc2afeb9ccc5860c01b610c31565b6108fe67106429b961b4f49660c01b610c31565b6109126740bac49193206b1660c01b610c31565b61091c8584611067565b5050505050565b61093767c7dec06e0257eb0560c01b610c31565b61093f610c34565b610953676e87e28cde1d47ec60c01b610c31565b61096767ef21273e02648c9760c01b610c31565b61097b67dfe382666488acd160c01b610c31565b61098f67e5f0a9fc6128df9160c01b610c31565b6109976112d3565b565b5f805f9054906101000a900473ffffffffffffffffffffffffffffffffffffffff16905090565b5f6109d5673ad14159a400409260c01b610c31565b6109e96759aa53148781535660c01b610c31565b6109fd6727af6115fc8e9f2260c01b610c31565b600382604051610a0d9190612694565b9081526020016040518091039020549050919050565b610a376718d281aed5e81bca60c01b610c31565b610a3f610dd4565b610a53679e48648ce0292c0460c01b610c31565b610a67671f449d7897323e7060c01b610c31565b610a7b674f60138202caa8d360c01b610c31565b610a8f67b01630c3e712fccf60c01b610c31565b5f60015f9054906101000a900473ffffffffffffffffffffffffffffffffffffffff1673ffffffffffffffffffffffffffffffffffffffff1663ea32fff7610ad5611335565b6040518263ffffffff1660e01b8152600401610af19190612539565b602060405180830381865afa158015610b0c573d5f803e3d5ffd5b505050506040513d601f19601f82011682018060405250810190610b3091906126be565b9050610b466760de6d59bfbee54560c01b610c31565b610b5a67b9a61bc17abcafb460c01b610c31565b610b71610b65611335565b8888888589898961133c565b610b8567ea944e5bfca8c81060c01b610c31565b610b9967ccf73b618ab45c7860c01b610c31565b610ba687868387866116ec565b50505050505050565b610bb7610c34565b5f73ffffffffffffffffffffffffffffffffffffffff168173ffffffffffffffffffffffffffffffffffffffff1603610c25576040517f08c379a0000000000000000000000000000000000000000000000000000000008152600401610c1c90612945565b60405180910390fd5b610c2e81610d13565b50565b50565b610c3c611335565b73ffffffffffffffffffffffffffffffffffffffff16610c5a610999565b73ffffffffffffffffffffffffffffffffffffffff1614610cb0576040517f08c379a0000000000000000000000000000000000000000000000000000000008152600401610ca7906129ad565b60405180910390fd5b565b610cba61197e565b5f8060146101000a81548160ff0219169083151502179055507f5db9ee0a495bf2e6ff9c91a7834c1ba4fdd244a5e8aa4e537bd38aeae4b073aa610cfc611335565b604051610d099190612539565b60405180910390a1565b5f805f9054906101000a900473ffffffffffffffffffffffffffffffffffffffff169050815f806101000a81548173ffffffffffffffffffffffffffffffffffffffff021916908373ffffffffffffffffffffffffffffffffffffffff1602179055508173ffffffffffffffffffffffffffffffffffffffff168173ffffffffffffffffffffffffffffffffffffffff167f8be0079c531659141344cd1fd0a4f28419497f9722a3daafe3b4186f6b6457e060405160405180910390a35050565b610ddc610493565b15610e1c576040517f08c379a0000000000000000000000000000000000000000000000000000000008152600401610e1390612a15565b60405180910390fd5b565b5f610e3367bf2f6b277aadbc1660c01b610c31565b610e476787df166deb73b6bf60c01b610c31565b610e5b6735c0ac2ebbe8d80f60c01b610c31565b610e6f67868905dad04442f960c01b610c31565b60085f8381526020019081526020015f205f9054906101000a900460ff1615610ecd576040517f08c379a0000000000000000000000000000000000000000000000000000000008152600401610ec490612a7d565b60405180910390fd5b610ee167d281fe235615b58b60c01b610c31565b610ef567c82682153bc442aa60c01b610c31565b600160085f8481526020019081526020015f205f6101000a81548160ff021916908315150217905550610f3267ab938e4c4e19318860c01b610c31565b610f4667ee1aeea907f48af360c01b610c31565b5f84848430604051602001610f5e9493929190612b00565b604051602081830303815290604052805190602001209050610f8a6763dc83078e74842560c01b610c31565b610f9e679b2d063777c9ce9f60c01b610c31565b5f610fba87610fac846119c7565b6119fa90919063ffffffff16565b9050610fd0673eb93f9a0389e53060c01b610c31565b610fe467b573f96cf6f970df60c01b610c31565b8073ffffffffffffffffffffffffffffffffffffffff168673ffffffffffffffffffffffffffffffffffffffff16036110485761102b67ed8b8fdc756ab87260c01b610c31565b61103f67b8c627d19274304b60c01b610c31565b6001925061105d565b61105c6763e6acd37422d2c960c01b610c31565b5b5050949350505050565b61107b671b1ef2acc25fa5e760c01b610c31565b61108f67c4643e7a9025ca8a60c01b610c31565b6110a367074bb47416f36d8a60c01b610c31565b600281908060018154018082558091505060019003905f5260205f20015f9091909190915090816110d49190612ce6565b506110e967ee873c2ff4074e8b60c01b610c31565b6110fd67234ba3935ae8b3a460c01b610c31565b5f60016002805490506111109190612de2565b905061112667d0240e50570b504560c01b610c31565b61113a678c4079df612cb96560c01b610c31565b5f60015f9054906101000a900473ffffffffffffffffffffffffffffffffffffffff1673ffffffffffffffffffffffffffffffffffffffff1663ea32fff7856040518263ffffffff1660e01b81526004016111959190612539565b602060405180830381865afa1580156111b0573d5f803e3d5ffd5b505050506040513d601f19601f820116820180604052508101906111d491906126be565b90506111ea67228156057c68845960c01b610c31565b6111fe67c79f2b346f8b0e3860c01b610c31565b60055f8281526020019081526020015f2082908060018154018082558091505060019003905f5260205f20015f909190919091505561124767581f107c9bb6172160c01b610c31565b806003846040516112589190612694565b90815260200160405180910390208190555061127e67b31cec072fb81daa60c01b610c31565b611292670abd58fd33d634f960c01b610c31565b7f61c9805cf401b606419b3679e7abe7e7cd2c70612e477fad927b57cd793c4c648482856040516112c593929190612e15565b60405180910390a150505050565b6112db610dd4565b60015f60146101000a81548160ff0219169083151502179055507f62e78cea01bee320cd4e420270b5ea74000d11b0c9f74754ebdbfc544b05a25861131e611335565b60405161132b9190612539565b60405180910390a1565b5f33905090565b611350670d694908485faa8660c01b610c31565b8761136567d2c55440c8ca81d960c01b610c31565b611379675b60b23431f35b0c60c01b610c31565b61138d672524bb691e2b8b1960c01b610c31565b6113a167132c280c276ade5f60c01b610c31565b6001805f9054906101000a900473ffffffffffffffffffffffffffffffffffffffff1673ffffffffffffffffffffffffffffffffffffffff16634b557d8a836040518263ffffffff1660e01b81526004016113fc9190612539565b602060405180830381865afa158015611417573d5f803e3d5ffd5b505050506040513d601f19601f8201168201806040525081019061143b91906127ca565b60ff161461147e576040517f08c379a00000000000000000000000000000000000000000000000000000000081526004016114759061284f565b60405180910390fd5b611492673dce9b6179236cfa60c01b610c31565b6114a6672ab40ffa3b71cbf160c01b610c31565b6114ba67b20ea16ad0a0ef7660c01b610c31565b6114ce67e75aeb76b487f5e360c01b610c31565b6114e26765e82816c666154b60c01b610c31565b6114f667ee818ef61454ad9f60c01b610c31565b5f6003876040516115079190612694565b908152602001604051809103902054905061152c67534b797fc835133660c01b610c31565b61154067deb1f3efeeb805eb60c01b610c31565b61155467192d9d4ab3faa16960c01b610c31565b60015f9054906101000a900473ffffffffffffffffffffffffffffffffffffffff1673ffffffffffffffffffffffffffffffffffffffff1663ea32fff78a6040518263ffffffff1660e01b81526004016115ae9190612539565b602060405180830381865afa1580156115c9573d5f803e3d5ffd5b505050506040513d601f19601f820116820180604052508101906115ed91906126be565b811461162e576040517f08c379a000000000000000000000000000000000000000000000000000000000815260040161162590612e9b565b60405180910390fd5b61164267046174382de5504860c01b610c31565b61165667297090448e02adff60c01b610c31565b61166a675bdc9ec27387f1e860c01b610c31565b61167e67787b1244fc26a66d60c01b610c31565b61168d888a888a898989611a1f565b6116cc576040517f08c379a00000000000000000000000000000000000000000000000000000000081526004016116c3906128b7565b60405180910390fd5b6116e0670d9c45e06205c74860c01b610c31565b50505050505050505050565b6117006759cc83cd48cb981160c01b610c31565b611714679386ddfd1127ea6860c01b610c31565b611728673c6e50b62e35017e60c01b610c31565b5f611734848685611c71565b905061174a67bad4fd53758518a960c01b610c31565b61175e673f2a477fad8f068f60c01b610c31565b5f60015f9054906101000a900473ffffffffffffffffffffffffffffffffffffffff1673ffffffffffffffffffffffffffffffffffffffff1663ea32fff7886040518263ffffffff1660e01b81526004016117b99190612539565b602060405180830381865afa1580156117d4573d5f803e3d5ffd5b505050506040513d601f19601f820116820180604052508101906117f891906126be565b905061180e67e137307e420f186e60c01b610c31565b611822674dcdfab58eb5cde360c01b610c31565b60045f8281526020019081526020015f2082908060018154018082558091505060019003905f5260205f20015f909190919091505561186b67722539dac9302e4360c01b610c31565b600160068760405161187d9190612694565b90815260200160405180910390205f8681526020019081526020015f205f6101000a81548160ff021916908360018111156118bb576118ba6126e9565b5b02179055506118d46784052e5960f396e360c01b610c31565b6118dd83611ce2565b6007876040516118ed9190612694565b90815260200160405180910390205f8681526020019081526020015f2081905550611922672a5eacaeda044afb60c01b610c31565b61193667b946a32579f02f2860c01b610c31565b7f9d432c508a63a5706050fbd1cc156de901f2ce70149295334f1ea503168f8434818686898660405161196d959493929190612ec8565b60405180910390a150505050505050565b611986610493565b6119c5576040517f08c379a00000000000000000000000000000000000000000000000000000000081526004016119bc90612f6a565b60405180910390fd5b565b5f7f19457468657265756d205369676e6564204d6573736167653a0a3332000000005f5281601c52603c5f209050919050565b5f805f611a078585611d5f565b91509150611a1481611dab565b819250505092915050565b5f611a3467ffd7c1ea711d6ee760c01b610c31565b611a4867c016ce92b863422b60c01b610c31565b611a5c673de737f30718bfad60c01b610c31565b611a70671b1429ebde6b8c7760c01b610c31565b60085f8481526020019081526020015f205f9054906101000a900460ff1615611ace576040517f08c379a0000000000000000000000000000000000000000000000000000000008152600401611ac590612a7d565b60405180910390fd5b611ae267cc1697d9a769ca2060c01b610c31565b611af6679e30a9d05eeff6d460c01b610c31565b600160085f8581526020019081526020015f205f6101000a81548160ff021916908315150217905550611b336770fa7adc426bc5e860c01b610c31565b611b4767581e65203cad676160c01b610c31565b5f87878787878730604051602001611b659796959493929190612f88565b604051602081830303815290604052805190602001209050611b9167954061ab244c065260c01b610c31565b611ba56766d25c479d36cb8d60c01b610c31565b5f611bc18a611bb3846119c7565b6119fa90919063ffffffff16565b9050611bd7679d84c919f1eeb00f60c01b610c31565b611beb67cedd8154e90f60ae60c01b610c31565b8073ffffffffffffffffffffffffffffffffffffffff168973ffffffffffffffffffffffffffffffffffffffff1603611c4f57611c3267d4919f2d93d3e99660c01b610c31565b611c466715925e7d4bd5d48260c01b610c31565b60019250611c64565b611c6367a6937fec55225c4860c01b610c31565b5b5050979650505050505050565b5f611c86674573deca6dc890e660c01b610c31565b611c9a67aad12cd361e3c6d260c01b610c31565b611cae67ede428e9f70ae1a860c01b610c31565b838383604051602001611cc393929190613004565b6040516020818303038152906040528051906020012090509392505050565b5f611cf7678a31a31edae7b7f860c01b610c31565b611d0b6770f8a4134eea9bd260c01b610c31565b611d1f67936e30792ad1057a60c01b610c31565b5f8242611d2c919061303c565b9050611d426792c62b8f5e5be74960c01b610c31565b611d56672b20987a1e3790e260c01b610c31565b80915050919050565b5f806041835103611d9c575f805f602086015192506040860151915060608601515f1a9050611d9087828585611f10565b94509450505050611da4565b5f6002915091505b9250929050565b5f6004811115611dbe57611dbd6126e9565b5b816004811115611dd157611dd06126e9565b5b0315611f0d5760016004811115611deb57611dea6126e9565b5b816004811115611dfe57611dfd6126e9565b5b03611e3e576040517f08c379a0000000000000000000000000000000000000000000000000000000008152600401611e35906130b9565b60405180910390fd5b60026004811115611e5257611e516126e9565b5b816004811115611e6557611e646126e9565b5b03611ea5576040517f08c379a0000000000000000000000000000000000000000000000000000000008152600401611e9c90613121565b60405180910390fd5b60036004811115611eb957611eb86126e9565b5b816004811115611ecc57611ecb6126e9565b5b03611f0c576040517f08c379a0000000000000000000000000000000000000000000000000000000008152600401611f03906131af565b60405180910390fd5b5b50565b5f807f7fffffffffffffffffffffffffffffff5d576e7357a4501ddfe92f46681b20a0835f1c1115611f48575f600391509150611fdf565b5f6001878787876040515f8152602001604052604051611f6b94939291906131cd565b6020604051602081039080840390855afa158015611f8b573d5f803e3d5ffd5b5050506020604051035190505f73ffffffffffffffffffffffffffffffffffffffff168173ffffffffffffffffffffffffffffffffffffffff1603611fd7575f60019250925050611fdf565b805f92509250505b94509492505050565b5f604051905090565b5f80fd5b5f80fd5b5f80fd5b5f80fd5b5f601f19601f8301169050919050565b7f4e487b71000000000000000000000000000000000000000000000000000000005f52604160045260245ffd5b61204782612001565b810181811067ffffffffffffffff8211171561206657612065612011565b5b80604052505050565b5f612078611fe8565b9050612084828261203e565b919050565b5f67ffffffffffffffff8211156120a3576120a2612011565b5b6120ac82612001565b9050602081019050919050565b828183375f83830152505050565b5f6120d96120d484612089565b61206f565b9050828152602081018484840111156120f5576120f4611ffd565b5b6121008482856120b9565b509392505050565b5f82601f83011261211c5761211b611ff9565b5b813561212c8482602086016120c7565b91505092915050565b5f819050919050565b61214781612135565b8114612151575f80fd5b50565b5f813590506121628161213e565b92915050565b5f806040838503121561217e5761217d611ff1565b5b5f83013567ffffffffffffffff81111561219b5761219a611ff5565b5b6121a785828601612108565b92505060206121b885828601612154565b9150509250929050565b6121cb81612135565b82525050565b5f6020820190506121e45f8301846121c2565b92915050565b5f73ffffffffffffffffffffffffffffffffffffffff82169050919050565b5f612213826121ea565b9050919050565b61222381612209565b811461222d575f80fd5b50565b5f8135905061223e8161221a565b92915050565b5f6020828403121561225957612258611ff1565b5b5f61226684828501612230565b91505092915050565b5f81519050919050565b5f82825260208201905092915050565b5f819050602082019050919050565b5f819050919050565b6122aa81612298565b82525050565b5f6122bb83836122a1565b60208301905092915050565b5f602082019050919050565b5f6122dd8261226f565b6122e78185612279565b93506122f283612289565b805f5b8381101561232257815161230988826122b0565b9750612314836122c7565b9250506001810190506122f5565b5085935050505092915050565b5f6020820190508181035f83015261234781846122d3565b905092915050565b5f8115159050919050565b6123638161234f565b82525050565b5f60208201905061237c5f83018461235a565b92915050565b5f60ff82169050919050565b61239781612382565b82525050565b5f6020820190506123b05f83018461238e565b92915050565b5f80604083850312156123cc576123cb611ff1565b5b5f6123d985828601612154565b92505060206123ea85828601612154565b9150509250929050565b5f81519050919050565b5f82825260208201905092915050565b5f5b8381101561242b578082015181840152602081019050612410565b5f8484015250505050565b5f612440826123f4565b61244a81856123fe565b935061245a81856020860161240e565b61246381612001565b840191505092915050565b5f6020820190508181035f8301526124868184612436565b905092915050565b5f805f80608085870312156124a6576124a5611ff1565b5b5f6124b387828801612230565b945050602085013567ffffffffffffffff8111156124d4576124d3611ff5565b5b6124e087828801612108565b935050604085013567ffffffffffffffff81111561250157612500611ff5565b5b61250d87828801612108565b925050606061251e87828801612154565b91505092959194509250565b61253381612209565b82525050565b5f60208201905061254c5f83018461252a565b92915050565b5f6020828403121561256757612566611ff1565b5b5f82013567ffffffffffffffff81111561258457612583611ff5565b5b61259084828501612108565b91505092915050565b5f805f805f8060c087890312156125b3576125b2611ff1565b5b5f6125c089828a01612230565b965050602087013567ffffffffffffffff8111156125e1576125e0611ff5565b5b6125ed89828a01612108565b955050604087013567ffffffffffffffff81111561260e5761260d611ff5565b5b61261a89828a01612108565b945050606061262b89828a01612154565b935050608061263c89828a01612154565b92505060a061264d89828a01612154565b9150509295509295509295565b5f81905092915050565b5f61266e826123f4565b612678818561265a565b935061268881856020860161240e565b80840191505092915050565b5f61269f8284612664565b915081905092915050565b5f815190506126b88161213e565b92915050565b5f602082840312156126d3576126d2611ff1565b5b5f6126e0848285016126aa565b91505092915050565b7f4e487b71000000000000000000000000000000000000000000000000000000005f52602160045260245ffd5b7f4e487b71000000000000000000000000000000000000000000000000000000005f52603260045260245ffd5b7f4e487b71000000000000000000000000000000000000000000000000000000005f52602260045260245ffd5b5f600282049050600182168061278757607f821691505b60208210810361279a57612799612743565b5b50919050565b6127a981612382565b81146127b3575f80fd5b50565b5f815190506127c4816127a0565b92915050565b5f602082840312156127df576127de611ff1565b5b5f6127ec848285016127b6565b91505092915050565b5f82825260208201905092915050565b7f52454a5556453a204e6f742052656769737465726564000000000000000000005f82015250565b5f6128396016836127f5565b915061284482612805565b602082019050919050565b5f6020820190508181035f8301526128668161282d565b9050919050565b7f52454a5556453a20496e76616c6964205369676e6174757265000000000000005f82015250565b5f6128a16019836127f5565b91506128ac8261286d565b602082019050919050565b5f6020820190508181035f8301526128ce81612895565b9050919050565b7f4f776e61626c653a206e6577206f776e657220697320746865207a65726f20615f8201527f6464726573730000000000000000000000000000000000000000000000000000602082015250565b5f61292f6026836127f5565b915061293a826128d5565b604082019050919050565b5f6020820190508181035f83015261295c81612923565b9050919050565b7f4f776e61626c653a2063616c6c6572206973206e6f7420746865206f776e65725f82015250565b5f6129976020836127f5565b91506129a282612963565b602082019050919050565b5f6020820190508181035f8301526129c48161298b565b9050919050565b7f5061757361626c653a20706175736564000000000000000000000000000000005f82015250565b5f6129ff6010836127f5565b9150612a0a826129cb565b602082019050919050565b5f6020820190508181035f830152612a2c816129f3565b9050919050565b7f52454a5556453a205369676e6174757265207573656420616c726561647900005f82015250565b5f612a67601e836127f5565b9150612a7282612a33565b602082019050919050565b5f6020820190508181035f830152612a9481612a5b565b9050919050565b5f8160601b9050919050565b5f612ab182612a9b565b9050919050565b5f612ac282612aa7565b9050919050565b612ada612ad582612209565b612ab8565b82525050565b5f819050919050565b612afa612af582612135565b612ae0565b82525050565b5f612b0b8287612ac9565b601482019150612b1b8286612664565b9150612b278285612ae9565b602082019150612b378284612ac9565b60148201915081905095945050505050565b5f819050815f5260205f209050919050565b5f6020601f8301049050919050565b5f82821b905092915050565b5f60088302612ba57fffffffffffffffffffffffffffffffffffffffffffffffffffffffffffffffff82612b6a565b612baf8683612b6a565b95508019841693508086168417925050509392505050565b5f819050919050565b5f612bea612be5612be084612135565b612bc7565b612135565b9050919050565b5f819050919050565b612c0383612bd0565b612c17612c0f82612bf1565b848454612b76565b825550505050565b5f90565b612c2b612c1f565b612c36818484612bfa565b505050565b5b81811015612c5957612c4e5f82612c23565b600181019050612c3c565b5050565b601f821115612c9e57612c6f81612b49565b612c7884612b5b565b81016020851015612c87578190505b612c9b612c9385612b5b565b830182612c3b565b50505b505050565b5f82821c905092915050565b5f612cbe5f1984600802612ca3565b1980831691505092915050565b5f612cd68383612caf565b9150826002028217905092915050565b612cef826123f4565b67ffffffffffffffff811115612d0857612d07612011565b5b612d128254612770565b612d1d828285612c5d565b5f60209050601f831160018114612d4e575f8415612d3c578287015190505b612d468582612ccb565b865550612dad565b601f198416612d5c86612b49565b5f5b82811015612d8357848901518255600182019150602085019450602081019050612d5e565b86831015612da05784890151612d9c601f891682612caf565b8355505b6001600288020188555050505b505050505050565b7f4e487b71000000000000000000000000000000000000000000000000000000005f52601160045260245ffd5b5f612dec82612135565b9150612df783612135565b9250828203905081811115612e0f57612e0e612db5565b5b92915050565b5f606082019050612e285f83018661252a565b612e3560208301856121c2565b8181036040830152612e478184612436565b9050949350505050565b7f52454a5556453a204e6f7420612044617461204f776e657200000000000000005f82015250565b5f612e856018836127f5565b9150612e9082612e51565b602082019050919050565b5f6020820190508181035f830152612eb281612e79565b9050919050565b612ec281612298565b82525050565b5f60a082019050612edb5f8301886121c2565b612ee860208301876121c2565b612ef560408301866121c2565b8181036060830152612f078185612436565b9050612f166080830184612eb9565b9695505050505050565b7f5061757361626c653a206e6f74207061757365640000000000000000000000005f82015250565b5f612f546014836127f5565b9150612f5f82612f20565b602082019050919050565b5f6020820190508181035f830152612f8181612f48565b9050919050565b5f612f93828a612ac9565b601482019150612fa38289612ae9565b602082019150612fb38288612664565b9150612fbf8287612ae9565b602082019150612fcf8286612ae9565b602082019150612fdf8285612ae9565b602082019150612fef8284612ac9565b60148201915081905098975050505050505050565b5f61300f8286612ae9565b60208201915061301f8285612664565b915061302b8284612ae9565b602082019150819050949350505050565b5f61304682612135565b915061305183612135565b925082820190508082111561306957613068612db5565b5b92915050565b7f45434453413a20696e76616c6964207369676e617475726500000000000000005f82015250565b5f6130a36018836127f5565b91506130ae8261306f565b602082019050919050565b5f6020820190508181035f8301526130d081613097565b9050919050565b7f45434453413a20696e76616c6964207369676e6174757265206c656e677468005f82015250565b5f61310b601f836127f5565b9150613116826130d7565b602082019050919050565b5f6020820190508181035f830152613138816130ff565b9050919050565b7f45434453413a20696e76616c6964207369676e6174757265202773272076616c5f8201527f7565000000000000000000000000000000000000000000000000000000000000602082015250565b5f6131996022836127f5565b91506131a48261313f565b604082019050919050565b5f6020820190508181035f8301526131c68161318d565b9050919050565b5f6080820190506131e05f830187612eb9565b6131ed602083018661238e565b6131fa6040830185612eb9565b6132076060830184612eb9565b9594505050505056fea264697066735822122078f56dd2da9431de53b19ee30c357845396d897e0cdc7a862844c50330bdf1db64736f6c63430008140033",
  "linkReferences": {},
  "deployedLinkReferences": {}
}