{
  "_format": "hh-sol-artifact-1",
  "contractName": "DataManagement",
  "sourceName": "contracts/DataManagement.sol",
  "abi": [
    {
      "inputs": [
        {
          "internalType": "contract IIdentityToken",
          "name": "identityToken_",
          "type": "address"
        }
      ],
      "stateMutability": "nonpayable",
      "type": "constructor"
    },
    {
      "anonymous": false,
      "inputs": [
        {
          "indexed": false,
          "internalType": "address",
          "name": "dataOwner",
          "type": "address"
        },
        {
          "indexed": false,
          "internalType": "uint256",
          "name": "dataOwnerId",
          "type": "uint256"
        },
        {
          "indexed": false,
          "internalType": "bytes",
          "name": "dataHash",
          "type": "bytes"
        }
      ],
      "name": "DataSubmitted",
      "type": "event"
    },
    {
      "anonymous": false,
      "inputs": [
        {
          "indexed": true,
          "internalType": "address",
          "name": "previousOwner",
          "type": "address"
        },
        {
          "indexed": true,
          "internalType": "address",
          "name": "newOwner",
          "type": "address"
        }
      ],
      "name": "OwnershipTransferred",
      "type": "event"
    },
    {
      "anonymous": false,
      "inputs": [
        {
          "indexed": false,
          "internalType": "address",
          "name": "account",
          "type": "address"
        }
      ],
      "name": "Paused",
      "type": "event"
    },
    {
      "anonymous": false,
      "inputs": [
        {
          "indexed": false,
          "internalType": "uint256",
          "name": "dataOwnerId",
          "type": "uint256"
        },
        {
          "indexed": false,
          "internalType": "uint256",
          "name": "requesterId",
          "type": "uint256"
        },
        {
          "indexed": false,
          "internalType": "bytes",
          "name": "dataHash",
          "type": "bytes"
        },
        {
          "indexed": false,
          "internalType": "uint256",
          "name": "nextProductUID",
          "type": "uint256"
        },
        {
          "indexed": false,
          "internalType": "bytes32",
          "name": "permissionHash",
          "type": "bytes32"
        }
      ],
      "name": "PermissionGranted",
      "type": "event"
    },
    {
      "anonymous": false,
      "inputs": [
        {
          "indexed": false,
          "internalType": "address",
          "name": "account",
          "type": "address"
        }
      ],
      "name": "Unpaused",
      "type": "event"
    },
    {
      "inputs": [
        {
          "internalType": "uint256",
          "name": "_tokenId",
          "type": "uint256"
        },
        {
          "internalType": "uint256",
          "name": "_index",
          "type": "uint256"
        }
      ],
      "name": "getDataByTokenId",
      "outputs": [
        {
          "internalType": "bytes",
          "name": "",
          "type": "bytes"
        }
      ],
      "stateMutability": "view",
      "type": "function"
    },
    {
      "inputs": [
        {
          "internalType": "bytes",
          "name": "_dHash",
          "type": "bytes"
        }
      ],
      "name": "getDataOwnerId",
      "outputs": [
        {
          "internalType": "uint256",
          "name": "",
          "type": "uint256"
        }
      ],
      "stateMutability": "view",
      "type": "function"
    },
    {
      "inputs": [
        {
          "internalType": "address",
          "name": "_signer",
          "type": "address"
        },
        {
          "internalType": "bytes",
          "name": "_signature",
          "type": "bytes"
        },
        {
          "internalType": "bytes",
          "name": "_dHash",
          "type": "bytes"
        },
        {
          "internalType": "uint256",
          "name": "_requesterId",
          "type": "uint256"
        },
        {
          "internalType": "uint256",
          "name": "_nextProductUID",
          "type": "uint256"
        },
        {
          "internalType": "uint256",
          "name": "_nonce",
          "type": "uint256"
        },
        {
          "internalType": "uint256",
          "name": "_expiration",
          "type": "uint256"
        }
      ],
      "name": "getPermission",
      "outputs": [],
      "stateMutability": "nonpayable",
      "type": "function"
    },
    {
      "inputs": [
        {
          "internalType": "bytes",
          "name": "_dHash",
          "type": "bytes"
        },
        {
          "internalType": "uint256",
          "name": "_nextProductUID",
          "type": "uint256"
        }
      ],
      "name": "getPermissionDeadline",
      "outputs": [
        {
          "internalType": "uint256",
          "name": "",
          "type": "uint256"
        }
      ],
      "stateMutability": "view",
      "type": "function"
    },
    {
      "inputs": [
        {
          "internalType": "bytes",
          "name": "_dHash",
          "type": "bytes"
        },
        {
          "internalType": "uint256",
          "name": "_productUID",
          "type": "uint256"
        }
      ],
      "name": "getPermissionStatus",
      "outputs": [
        {
          "internalType": "uint8",
          "name": "",
          "type": "uint8"
        }
      ],
      "stateMutability": "view",
      "type": "function"
    },
    {
      "inputs": [],
      "name": "owner",
      "outputs": [
        {
          "internalType": "address",
          "name": "",
          "type": "address"
        }
      ],
      "stateMutability": "view",
      "type": "function"
    },
    {
      "inputs": [],
      "name": "pause",
      "outputs": [],
      "stateMutability": "nonpayable",
      "type": "function"
    },
    {
      "inputs": [],
      "name": "paused",
      "outputs": [
        {
          "internalType": "bool",
          "name": "",
          "type": "bool"
        }
      ],
      "stateMutability": "view",
      "type": "function"
    },
    {
      "inputs": [],
      "name": "renounceOwnership",
      "outputs": [],
      "stateMutability": "nonpayable",
      "type": "function"
    },
    {
      "inputs": [
        {
          "internalType": "address",
          "name": "_signer",
          "type": "address"
        },
        {
          "internalType": "bytes",
          "name": "_signature",
          "type": "bytes"
        },
        {
          "internalType": "bytes",
          "name": "_dHash",
          "type": "bytes"
        },
        {
          "internalType": "uint256",
          "name": "_nonce",
          "type": "uint256"
        }
      ],
      "name": "submitData",
      "outputs": [],
      "stateMutability": "nonpayable",
      "type": "function"
    },
    {
      "inputs": [
        {
          "internalType": "address",
          "name": "newOwner",
          "type": "address"
        }
      ],
      "name": "transferOwnership",
      "outputs": [],
      "stateMutability": "nonpayable",
      "type": "function"
    },
    {
      "inputs": [],
      "name": "unpause",
      "outputs": [],
      "stateMutability": "nonpayable",
      "type": "function"
    }
  ],
  "bytecode": "0x60806040523480156200001157600080fd5b506040516200424d3803806200424d8339818101604052810190620000379190620002a2565b620000576200004b6200015560201b60201c565b6200015d60201b60201c565b60008060146101000a81548160ff021916908315150217905550620000a57fb73542ecf905f76734ddd753e5872996b05d8368de6b29505aceadf6eeeb78d560001b6200022160201b60201c565b620000d97f4cb2439b76d7448b1910de12650a47bdc160f481da6c174f6fc8457f16fe3b2760001b6200022160201b60201c565b6200010d7f55df6e06cc1bd39adfb6b661c333a8cf0a93f583839ccd699fbd2e481f4e951860001b6200022160201b60201c565b80600160006101000a81548173ffffffffffffffffffffffffffffffffffffffff021916908373ffffffffffffffffffffffffffffffffffffffff16021790555050620002d4565b600033905090565b60008060009054906101000a900473ffffffffffffffffffffffffffffffffffffffff169050816000806101000a81548173ffffffffffffffffffffffffffffffffffffffff021916908373ffffffffffffffffffffffffffffffffffffffff1602179055508173ffffffffffffffffffffffffffffffffffffffff168173ffffffffffffffffffffffffffffffffffffffff167f8be0079c531659141344cd1fd0a4f28419497f9722a3daafe3b4186f6b6457e060405160405180910390a35050565b50565b600080fd5b600073ffffffffffffffffffffffffffffffffffffffff82169050919050565b6000620002568262000229565b9050919050565b60006200026a8262000249565b9050919050565b6200027c816200025d565b81146200028857600080fd5b50565b6000815190506200029c8162000271565b92915050565b600060208284031215620002bb57620002ba62000224565b5b6000620002cb848285016200028b565b91505092915050565b613f6980620002e46000396000f3fe608060405234801561001057600080fd5b50600436106100b45760003560e01c80637b2a9613116100715780637b2a96131461017b5780638456cb59146101975780638da5cb5b146101a1578063a3085ce8146101bf578063d02bb7ad146101ef578063f2fde38b1461020b576100b4565b80631370fb87146100b95780633f4ba83a146100e95780635c975abb146100f35780635f233dab146101115780636439b3ca14610141578063715018a614610171575b600080fd5b6100d360048036038101906100ce9190612d97565b610227565b6040516100e09190612e02565b60405180910390f35b6100f16102e5565b005b6100fb6103ef565b6040516101089190612e38565b60405180910390f35b61012b60048036038101906101269190612d97565b610405565b6040516101389190612e6f565b60405180910390f35b61015b60048036038101906101569190612e8a565b6104e2565b6040516101689190612f49565b60405180910390f35b6101796106a4565b005b61019560048036038101906101909190612fc9565b61072c565b005b61019f610b4d565b005b6101a9610c57565b6040516101b69190613077565b60405180910390f35b6101d960048036038101906101d49190613092565b610c80565b6040516101e69190612e02565b60405180910390f35b610209600480360381019061020491906130db565b610d2c565b005b610225600480360381019061022091906131b5565b610e7d565b005b60006102557fabdaeca32eb9b5819370c414736ade9faaa38c3f1f2ba3c218856bec0e2ee0eb60001b610f74565b6102817fc43644c06d2ececa2799db7e3ead5889d440ac5d341801ca9cce8a8f5a5283d060001b610f74565b6102ad7f25a4400b35323d737759548cabfc67c157326168450b161aa3ccae47d8f5cbf860001b610f74565b6006836040516102bd919061321e565b9081526020016040518091039020600083815260200190815260200160002054905092915050565b6102ed610f77565b73ffffffffffffffffffffffffffffffffffffffff1661030b610c57565b73ffffffffffffffffffffffffffffffffffffffff1614610361576040517f08c379a000000000000000000000000000000000000000000000000000000000815260040161035890613292565b60405180910390fd5b61038d7fc7f6f03cfc569bef3621cc0383930b93905291a2a40daa5718cca318790b0e5660001b610f74565b6103b97ff76467fb11451ce0c706fa4f213cb9ea40d316a311694ca37b593f2547da3a2c60001b610f74565b6103e57faf5bb07db41f80f7783fe074beafda39f54c13b3e6e4764ad0684d7f615401af60001b610f74565b6103ed610f7f565b565b60008060149054906101000a900460ff16905090565b60006104337f9a956f2595756d25c5aa830aee43397cb362964b5d54bf719a4c4ffa360c192e60001b610f74565b61045f7f2169e4e2a6ab0c0fe572539922f407995f1cf4baa807fdf93677ff91bdd5cab560001b610f74565b61048b7fcf7ae81c7c99fc2eb6756f8dfd47418e52861fc1f34d7e14c55ad0101576384260001b610f74565b60058360405161049b919061321e565b9081526020016040518091039020600083815260200190815260200160002060009054906101000a900460ff1660018111156104da576104d96132b2565b5b905092915050565b60606105107f1dcabaf7f598d79b387664621b0644ac99ff7a7381a00623837b33b896ac39a260001b610f74565b61053c7f3004050afeae3e52ab203e599d02c695e3e608cc4f69091936dee624ab8c752660001b610f74565b6105687fd10af36e8b55969f75dc0f8fbb37029513da2f78ed4388c72bcca31d38b651d560001b610f74565b600060046000858152602001908152602001600020838154811061058f5761058e6132e1565b5b906000526020600020015490506105c87fe174a2b5ec94c55fde3fe4e4ca22e4982e7b3218f5440d3f209dae0acfe80c0460001b610f74565b6105f47fe81dc60f510c551c7d97f71870d90e9cb6ed6503511f74e433de2ccb5e52056b60001b610f74565b60088181548110610608576106076132e1565b5b90600052602060002001805461061d9061333f565b80601f01602080910402602001604051908101604052809291908181526020018280546106499061333f565b80156106965780601f1061066b57610100808354040283529160200191610696565b820191906000526020600020905b81548152906001019060200180831161067957829003601f168201915b505050505091505092915050565b6106ac610f77565b73ffffffffffffffffffffffffffffffffffffffff166106ca610c57565b73ffffffffffffffffffffffffffffffffffffffff1614610720576040517f08c379a000000000000000000000000000000000000000000000000000000000815260040161071790613292565b60405180910390fd5b61072a6000611020565b565b6107346103ef565b15610774576040517f08c379a000000000000000000000000000000000000000000000000000000000815260040161076b906133bc565b60405180910390fd5b836107a17fbdff9102ba74802f057ca1687036012218563f2cbbb1e023ea9665a459dada8860001b610f74565b6107cd7f686864d46879a028fab688457d1653ec4d4a8979b71cc9c58d08faa92e8d061e60001b610f74565b6107f97fc434ace11a0551a29ebbea38a3bd90d5120684516ae1ae697cd4285122d1886260001b610f74565b6108257fe72ef540b0f408fdf1fce6dd4a88fa63037965f869d77256d42cb4b24c09c0f360001b610f74565b60018060009054906101000a900473ffffffffffffffffffffffffffffffffffffffff1673ffffffffffffffffffffffffffffffffffffffff16634b557d8a836040518263ffffffff1660e01b81526004016108819190613077565b602060405180830381865afa15801561089e573d6000803e3d6000fd5b505050506040513d601f19601f820116820180604052508101906108c29190613408565b60ff1614610905576040517f08c379a00000000000000000000000000000000000000000000000000000000081526004016108fc90613481565b60405180910390fd5b6109317fe3bb5012ba6463d8790bbfb700d73de40e4ec04c80a6223872055d9aa3a6bbad60001b610f74565b61095d7fed8c806b3ee4983d51b5f357e3e247b66de78d41708d9ea284acf35d2b1a17fb60001b610f74565b8484848461098d7f4b99a95139610875702763d2c5b2837da74f012d66192105d2bdfbb36aac35d260001b610f74565b6109b97f578a6f2bc1a323e5906011cdfd6d870d8621d087c1481785bd99e4e394aa1c9260001b610f74565b6109e57f38de8fdc50a48f5f7275c91d9230c4b53a207d896b83d412365af2ecbec55c6b60001b610f74565b610a117f0401439f8c8d799b9e143e77caa2450e3c13e826839aba9030241e9d295ad79c60001b610f74565b610a1d838584846110e4565b610a5c576040517f08c379a0000000000000000000000000000000000000000000000000000000008152600401610a53906134ed565b60405180910390fd5b610a887f114ecc401d91f2e99f093d77b6908bb5aecc8a9cd20d203b36572b42b7e64ac560001b610f74565b610ab47f29e0e308dfaecc45d191acb05520adec50250e0aceb6504847f51052ab367ead60001b610f74565b610ae07f5d07b505ae374daf6133a9d1f2799102eaac382b0e3728eaa0c1c97015452d0e60001b610f74565b610b0c7fff05a366c7057cb51ac70a4eda5354621bc37236d4619b6d690f157c6ba37bd960001b610f74565b610b387f03825ab199f75ad7fcdf3195557f338d7ae34bd3acbef95cf0f256659d55a49c60001b610f74565b610b4289886114f6565b505050505050505050565b610b55610f77565b73ffffffffffffffffffffffffffffffffffffffff16610b73610c57565b73ffffffffffffffffffffffffffffffffffffffff1614610bc9576040517f08c379a0000000000000000000000000000000000000000000000000000000008152600401610bc090613292565b60405180910390fd5b610bf57fe9204c21029c9b1087aff14e002a7299d4fed32966c77d69a4735c8cacd4473960001b610f74565b610c217fc1cc3812a84ce0f312c62a0dbc9d8f48d052cec2495429538e1479dad999d22760001b610f74565b610c4d7f242376abe5c0b069c9377f1a2408f021891b731e6eefc7d1b236f07a3aaad02260001b610f74565b610c556118bb565b565b60008060009054906101000a900473ffffffffffffffffffffffffffffffffffffffff16905090565b6000610cae7f60c9b459ce247a80cdc37f53012a09afaa67a2feaf5ae4bb5cef07aadd726dd260001b610f74565b610cda7ff2e392855c9b6f2ad4a9dd46bc1f7e5d03afc1b35c9ea7eae1a23e6c72256ca660001b610f74565b610d067f2ebe7f1dbd16ee9b1b41930c9ad616d720255e20e18ad5ff3cf3b37a7f2a63ab60001b610f74565b600282604051610d16919061321e565b9081526020016040518091039020549050919050565b610d346103ef565b15610d74576040517f08c379a0000000000000000000000000000000000000000000000000000000008152600401610d6b906133bc565b60405180910390fd5b610da07f35cd3c0ce77afa44824a8b4b58abdbc640de186a3668c84fbb2fbe399771de0060001b610f74565b610dcc7f1e3fefdbd70408f31859c7d3a69945cc9fac6c1e6e04a0b646c251f5c99b6b8d60001b610f74565b610df87f713871da15a4908f799eb67134ed2f0f4d818fbcea40767fb75a7378e92ac41f60001b610f74565b610e0f610e03610f77565b8888888888888861195e565b610e3b7f84503afcf9f5621ecf191b6a630519529589cdea5068728a8b44badfd818437a60001b610f74565b610e677f7e02433cbb8abcd90e66fc5dc89564e52d4e612ebd9827bf945f085f21f4c94660001b610f74565b610e748786868685611e2b565b50505050505050565b610e85610f77565b73ffffffffffffffffffffffffffffffffffffffff16610ea3610c57565b73ffffffffffffffffffffffffffffffffffffffff1614610ef9576040517f08c379a0000000000000000000000000000000000000000000000000000000008152600401610ef090613292565b60405180910390fd5b600073ffffffffffffffffffffffffffffffffffffffff168173ffffffffffffffffffffffffffffffffffffffff1603610f68576040517f08c379a0000000000000000000000000000000000000000000000000000000008152600401610f5f9061357f565b60405180910390fd5b610f7181611020565b50565b50565b600033905090565b610f876103ef565b610fc6576040517f08c379a0000000000000000000000000000000000000000000000000000000008152600401610fbd906135eb565b60405180910390fd5b60008060146101000a81548160ff0219169083151502179055507f5db9ee0a495bf2e6ff9c91a7834c1ba4fdd244a5e8aa4e537bd38aeae4b073aa611009610f77565b6040516110169190613077565b60405180910390a1565b60008060009054906101000a900473ffffffffffffffffffffffffffffffffffffffff169050816000806101000a81548173ffffffffffffffffffffffffffffffffffffffff021916908373ffffffffffffffffffffffffffffffffffffffff1602179055508173ffffffffffffffffffffffffffffffffffffffff168173ffffffffffffffffffffffffffffffffffffffff167f8be0079c531659141344cd1fd0a4f28419497f9722a3daafe3b4186f6b6457e060405160405180910390a35050565b60006111127f58e95cc05ba00da3049b7ecac476b439422dc57b617100676824950a35376b2a60001b610f74565b61113e7ff749d0f971dfd673d063922534218ab3801ef6a0ac27f3c5c8c944a80590a1aa60001b610f74565b61116a7fabd00d0ceef597eab1307cb1f4612337d333d1e4863424be2000e8f23e4c8f7960001b610f74565b6111967f297f0125b161f7e38548de940498943caf7aa145b87c442854daccf45229ccb060001b610f74565b6007600083815260200190815260200160002060009054906101000a900460ff16156111f7576040517f08c379a00000000000000000000000000000000000000000000000000000000081526004016111ee90613657565b60405180910390fd5b6112237fcfb59971d238232a164f1cdbaa881eaefd64b07391b10d37196c17b8d5b1695760001b610f74565b61124f7f6dfd9e8c021c577bc2fa67eb2a6a1474df8a6d03fb10cc01911800d8776ca1b560001b610f74565b61127b7f97e5cb1533f8ccdf35949faef8505b53d9c45cb6ccb2a4ed7336be4e50c07f2160001b610f74565b60016007600084815260200190815260200160002060006101000a81548160ff0219169083151502179055506112d37f202014e95ef7cd32e4af2a04a2e6f04f9c3078dd3e4e150f67ebab3bd0d98f0960001b610f74565b6112ff7fb3125768d9e0c88e3fbb673a97cb302c889a778a8a7f423edbc0e5cdd48e929260001b610f74565b60008484843060405160200161131894939291906136e0565b60405160208183030381529060405280519060200120905061135c7f8a8df975b5c51c40e9d31c3d628041255c253874df231a0988c7b55992eccfd460001b610f74565b6113887ff23a445755f67a46c1544b50ca063c7f8380bad023c0ac412cc32419b14d73b560001b610f74565b60006113a5876113978461222c565b61225c90919063ffffffff16565b90506113d37fda6320b76bdfe93196a49f24d15401081641203a3c70dcb1808689eb90f984cb60001b610f74565b6113ff7fbe49333279aae810355034182d13fae2f140fd00ebbbf1f4ed8bf7ea6fabfa9b60001b610f74565b8073ffffffffffffffffffffffffffffffffffffffff168673ffffffffffffffffffffffffffffffffffffffff16036114bf5761145e7fcd3a9ff13c56e54f0162fc911274f545cda71ce4d9c5a0f8b017091a05c3574060001b610f74565b61148a7fe6d010e8684d0082be802775ca81ee1d187bf7efb26d2de0379a36ba1d7b3bde60001b610f74565b6114b67fd6dec578f2eea08ceed7ae76626b765123d21f3f13bc732f206bdf26cc6abc5a60001b610f74565b600192506114ec565b6114eb7f233dd1f2cfdc8097ce8ed6cba3be18d334a993cf2bf36c718b035ba48852e44060001b610f74565b5b5050949350505050565b6115227f880d6024b6908c61af41a4bb16837480bdbd35425dcfe0b5f67380634dcbd03160001b610f74565b61154e7f49fbd2d3013a9bc2ceca9c00ba2a198cc668515df3eb5c58d2031e3cb73c195360001b610f74565b61157a7f2f6496f2dafc3ce68ef7438a4a3973cd7a06c842c1f145414cc27ea19d121f0b60001b610f74565b6008819080600181540180825580915050600190039060005260206000200160009091909190915090816115ae91906138d6565b506115db7f9528b0f789e88534d0f801b2aac464d0c4d365beb0276d6fd950d0c16c0ed7d860001b610f74565b6116077f994203dfd5ed6daf4c051a8a0fa35853e61fc0421e507d6d3271a36913a0045260001b610f74565b6000600160088054905061161b91906139d7565b90506116497f35e607f4d839bb549c6ebb2dd7bcb5fb055d3bff5f6a856dabd02e83aa5337ca60001b610f74565b6116757f1349620eb30b9ee6c73f646e8c19d5bd8cce6a2e9a43deaed0221a7d3d00992d60001b610f74565b6000600160009054906101000a900473ffffffffffffffffffffffffffffffffffffffff1673ffffffffffffffffffffffffffffffffffffffff1663ea32fff7856040518263ffffffff1660e01b81526004016116d29190613077565b602060405180830381865afa1580156116ef573d6000803e3d6000fd5b505050506040513d601f19601f820116820180604052508101906117139190613a20565b90506117417fd2a28f40b9109ade9878afb4ddadea22862b0310734289a5b73e7a45d5c585f560001b610f74565b61176d7f3c1251a20896f5b03d75710717da5af76f17966e7fa9dc42e8bb679c6a2f5a9b60001b610f74565b600460008281526020019081526020016000208290806001815401808255809150506001900390600052602060002001600090919091909150556117d37f6b2e1709e4a48be0310547c518e5fd490a83d86f5d9e0ccb1c3b2fe7cc89040460001b610f74565b6117ff7fa679f3b827cbc1f11154a1153b4d4071b982013d99bff2f8598e1f943432128c60001b610f74565b80600284604051611810919061321e565b90815260200160405180910390208190555061184e7f735a53fc6b96a87296ef34aed63c0564c384cfb838ea9b9b75fc9f6c466bf37b60001b610f74565b61187a7ff8f606f5f593a7398aabc64c7508cbe8053e279a50e10e669a971c1558045c2b60001b610f74565b7f61c9805cf401b606419b3679e7abe7e7cd2c70612e477fad927b57cd793c4c648482856040516118ad93929190613a4d565b60405180910390a150505050565b6118c36103ef565b15611903576040517f08c379a00000000000000000000000000000000000000000000000000000000081526004016118fa906133bc565b60405180910390fd5b6001600060146101000a81548160ff0219169083151502179055507f62e78cea01bee320cd4e420270b5ea74000d11b0c9f74754ebdbfc544b05a258611947610f77565b6040516119549190613077565b60405180910390a1565b61198a7f2dd332cd189f06a5be69f4337a34aca6cd906056688e60328b88735537ad22e860001b610f74565b6119b67fca6e9a74d3d038edb3e9edb40f0f72c196cb3acc6b4b79b82d3a0610bd8c933e60001b610f74565b6119e27f231f8ebbe2e682306ee0f3bb0d5d93970241f6ba18796663e56bd13b3e4c270860001b610f74565b611a0e7fdba65cfe377b534ac293844b79e1df04628595a27a5c86e4c27b34f083b800c060001b610f74565b60018060009054906101000a900473ffffffffffffffffffffffffffffffffffffffff1673ffffffffffffffffffffffffffffffffffffffff16634b557d8a8a6040518263ffffffff1660e01b8152600401611a6a9190613077565b602060405180830381865afa158015611a87573d6000803e3d6000fd5b505050506040513d601f19601f82011682018060405250810190611aab9190613408565b60ff1614611aee576040517f08c379a0000000000000000000000000000000000000000000000000000000008152600401611ae590613481565b60405180910390fd5b611b1a7ff42938bbfd8a3e5348e98cb6d73dfcc7c10bbc1471283e704ee766da81a698f860001b610f74565b611b467f25f0114f5f6bec81cea8c51962486e773fad2a8f23e14b63b83703ff24674c2960001b610f74565b611b727f4111d2725bed27a5fafff9c31775e1dbc7d599d658bff4cad61b3599db2f884360001b610f74565b6000600286604051611b84919061321e565b9081526020016040518091039020549050611bc17f957b9984d87838e86fe34c975c08f819eac29079e09a687ddbab72908aabbbcc60001b610f74565b611bed7fc58d96a35809ede4b74d5d2684bbeb41fa3d6bd4ba8e68f6453aea8b8bdd818760001b610f74565b611c197fca9652d3ea1b2bc1fdf2748f1c12303efbfda73abb7c3e999045c6783a61658f60001b610f74565b600160009054906101000a900473ffffffffffffffffffffffffffffffffffffffff1673ffffffffffffffffffffffffffffffffffffffff1663ea32fff7896040518263ffffffff1660e01b8152600401611c749190613077565b602060405180830381865afa158015611c91573d6000803e3d6000fd5b505050506040513d601f19601f82011682018060405250810190611cb59190613a20565b8114611cf6576040517f08c379a0000000000000000000000000000000000000000000000000000000008152600401611ced90613ad7565b60405180910390fd5b611d227f402a3027bb1e536008457dcee9d60f196450a17f84aa622d5c4f387f0ec8e43260001b610f74565b611d4e7f9f7691ebd2024c2fa53a1ffa8fec4f9f45d7200da4859fefe29476bcb368e30060001b610f74565b611d7a7ff650b12c2ded28cecdff45bb6fa5fbc11eed8db2a0d2f03d98a62a332fc7e97760001b610f74565b611da67fbc6a54373f14a958995b975d1ac5e0f54dd559dbd890b9281df2d7211121bdd160001b610f74565b611db587898789888888612283565b611df4576040517f08c379a0000000000000000000000000000000000000000000000000000000008152600401611deb906134ed565b60405180910390fd5b611e207fd3d11b13dd2cc6c0a9851fb6a4254bbbb94aca218e9c1831479942b71d0739d160001b610f74565b505050505050505050565b611e577f3862dd4f714ffb32c017a8bec250f1359a0b2030763d43c45ee003549e841cf860001b610f74565b611e837f448d588357c18cf1e18a121191aedbc944d1c4127ef837638016a0ae8657261960001b610f74565b611eaf7f766767ae9d116ee6606836111b0ea072bad4fb00154f16b194bbe252639a87e260001b610f74565b6000611ebc84868561269e565b9050611eea7f719fd416b5cc50398673e952af60de0611459fa4c6e717ac380c1f26e21ec45c60001b610f74565b611f167f1cb4ec4215464c801406b346ac17bb283e67e684c58b25eb3981a8c047cafada60001b610f74565b6000600160009054906101000a900473ffffffffffffffffffffffffffffffffffffffff1673ffffffffffffffffffffffffffffffffffffffff1663ea32fff7886040518263ffffffff1660e01b8152600401611f739190613077565b602060405180830381865afa158015611f90573d6000803e3d6000fd5b505050506040513d601f19601f82011682018060405250810190611fb49190613a20565b9050611fe27f69d50d03e70725e7588e6201e6e8288cc0e818f29636db0c2c48722f888ef02760001b610f74565b61200e7fd648400e9ba5742ed690d8ecfbcfcd7501fd790b85ba8455c3a14fc9a354d4a860001b610f74565b600360008281526020019081526020016000208290806001815401808255809150506001900390600052602060002001600090919091909150556120747fe8f555a02a3b40a436c484b7e864c7c0a25085561a14226d448c6a5fed79981d60001b610f74565b6120a07fa134339e89f4615265d0d3dfca445d0ef5ca38a9768f626b35a216e13a6a03ad60001b610f74565b60016005876040516120b2919061321e565b9081526020016040518091039020600086815260200190815260200160002060006101000a81548160ff021916908360018111156120f3576120f26132b2565b5b02179055506121247fa3389b0b0ad92329617ad484c38a39b0135d392fdae7ed90b8dd552399318d4560001b610f74565b6121507fbb99facf985670c03e17a641cb224d2410136d02d7ec639a64879a1921321ea860001b610f74565b61215983612758565b600687604051612169919061321e565b90815260200160405180910390206000868152602001908152602001600020819055506121b87f5406c58d4f9b6d01a847c2c8b457f6dee2f768242c9bd4b51ccdbc416c7625aa60001b610f74565b6121e47f5f15684708c483e8cd6e1060b63f2ea0d3962be4659b2afd594ce265a52e127560001b610f74565b7f74a812264709f95a96c54b21cedc219217441999a56052b5b7ba4a2365bfcaf6818688878660405161221b959493929190613b10565b60405180910390a150505050505050565b60008160405160200161223f9190613be2565b604051602081830303815290604052805190602001209050919050565b600080600061226b858561284f565b91509150612278816128d0565b819250505092915050565b60006122b17fe424ed29b5b5c6fa6b4e16d7ceebba744252ea4218b2de92c54b4e0536e2232460001b610f74565b6122dd7f949412c1b419c373cc3791cd5311ded72f32af6ec4f7d8746292a434caeb136660001b610f74565b6123097f5b21a74cb9f5f0e9f154232d7f9f0de143832940fb5c04abbcd9b31876bd8a0f60001b610f74565b6123357ff705b7b3846d4ad0bfd3aeca91cfd498695496c526506ece1dae56b323e5c07e60001b610f74565b6007600084815260200190815260200160002060009054906101000a900460ff1615612396576040517f08c379a000000000000000000000000000000000000000000000000000000000815260040161238d90613657565b60405180910390fd5b6123c27f8b296fe3e5d8631f0472d514929d30ec40388c369cdbbe5d02a06e1be04e23ca60001b610f74565b6123ee7ffb7654ba09c2bc2077da4e684cd92bbafd08bee694e337092679aa1b7e5a1a2860001b610f74565b61241a7f73894b7e00e3b6a404d2cef6780c940d68b56aa5792fb01c3a0d89b4cd6e9ea660001b610f74565b60016007600085815260200190815260200160002060006101000a81548160ff0219169083151502179055506124727f16350f878dc031b13cafb790e2bafb9203d5a16cd050c6d77ebafb16668df92f60001b610f74565b61249e7f3fffa73afb9cd120bbde8db31c16447d9b9f4c73d97cdf59b7f0b59b45ba6fe460001b610f74565b6000878787878787306040516020016124bd9796959493929190613c08565b6040516020818303038152906040528051906020012090506125017f0ed89ef234ac7f31579439eb1970eef6bb3cf3acecef964b27dc1382642ac2ff60001b610f74565b61252d7f267193faa71a09e3fda926cffc9ff459b7253e4df899bb8581832d0414f3c18660001b610f74565b600061254a8a61253c8461222c565b61225c90919063ffffffff16565b90506125787f781ce1c1789208ca1d94e787ce9b4736870b8d89ecc6c8f4464999c57e84db5d60001b610f74565b6125a47f8e0f1d33f83d1b831c45ca1586294d8d31f39b2d4ebf01f17e8746643b6a201560001b610f74565b8073ffffffffffffffffffffffffffffffffffffffff168973ffffffffffffffffffffffffffffffffffffffff1603612664576126037f4c36526891a33e8dc4441dd957869d9fb1221887dc2b0213b4e54a925047b49e60001b610f74565b61262f7f935e8c4f434ffd46bf24995aa4e94b6f4f53819cf5bf27bf0a0439ac78c905b260001b610f74565b61265b7f169e820cbaa12c8f5df9f29b7683bfc29c1cd738d0e63e004982573516e81bd760001b610f74565b60019250612691565b6126907fc767729bfd98037665a7644e907afe0e044cef42a9dd1b895fbf15c7a2b5fd8c60001b610f74565b5b5050979650505050505050565b60006126cc7fbc50001eecfc64be503c73567e42cd128ce96a218392d1ce9ea2a88977c88cbe60001b610f74565b6126f87f1dbad12e71e559b094250123eb1a8f05b5dcb4498098b6665cea6e7e39331b1260001b610f74565b6127247f1497604378d79108cebab5308571b51ab15fcc1470a0caefb952a2db9efcca1560001b610f74565b83838360405160200161273993929190613c85565b6040516020818303038152906040528051906020012090509392505050565b60006127867f109488a28e506708850374331cf8d3537cfaeec6e5c16b45006201a2f278e9ea60001b610f74565b6127b27f241edeb12a490f9026fb87c67fb61f3d6ecfef41a73d066ba5d6a15e0bc3ea9d60001b610f74565b6127de7f244e7e5a9ef585b9409139b02eec33a54785b873180a9c91d033e12ecaf4d5c460001b610f74565b600082426127ec9190613cbe565b905061281a7f032d88d764094b623cb0e3f57bb5a766816ce5c210d36f205c8ae1b64ba2150e60001b610f74565b6128467f0e2cca6a175c004074530982bd27edb8df04b3bf83441d8d792433732aec578260001b610f74565b80915050919050565b60008060418351036128905760008060006020860151925060408601519150606086015160001a905061288487828585612a9c565b945094505050506128c9565b60408351036128c05760008060208501519150604085015190506128b5868383612ba8565b9350935050506128c9565b60006002915091505b9250929050565b600060048111156128e4576128e36132b2565b5b8160048111156128f7576128f66132b2565b5b0315612a995760016004811115612911576129106132b2565b5b816004811115612924576129236132b2565b5b03612964576040517f08c379a000000000000000000000000000000000000000000000000000000000815260040161295b90613d3e565b60405180910390fd5b60026004811115612978576129776132b2565b5b81600481111561298b5761298a6132b2565b5b036129cb576040517f08c379a00000000000000000000000000000000000000000000000000000000081526004016129c290613daa565b60405180910390fd5b600360048111156129df576129de6132b2565b5b8160048111156129f2576129f16132b2565b5b03612a32576040517f08c379a0000000000000000000000000000000000000000000000000000000008152600401612a2990613e3c565b60405180910390fd5b600480811115612a4557612a446132b2565b5b816004811115612a5857612a576132b2565b5b03612a98576040517f08c379a0000000000000000000000000000000000000000000000000000000008152600401612a8f90613ece565b60405180910390fd5b5b50565b6000807f7fffffffffffffffffffffffffffffff5d576e7357a4501ddfe92f46681b20a08360001c1115612ad7576000600391509150612b9f565b601b8560ff1614158015612aef5750601c8560ff1614155b15612b01576000600491509150612b9f565b600060018787878760405160008152602001604052604051612b269493929190613eee565b6020604051602081039080840390855afa158015612b48573d6000803e3d6000fd5b505050602060405103519050600073ffffffffffffffffffffffffffffffffffffffff168173ffffffffffffffffffffffffffffffffffffffff1603612b9657600060019250925050612b9f565b80600092509250505b94509492505050565b60008060007f7fffffffffffffffffffffffffffffffffffffffffffffffffffffffffffffff60001b841690506000601b60ff8660001c901c612beb9190613cbe565b9050612bf987828885612a9c565b935093505050935093915050565b6000604051905090565b600080fd5b600080fd5b600080fd5b600080fd5b6000601f19601f8301169050919050565b7f4e487b7100000000000000000000000000000000000000000000000000000000600052604160045260246000fd5b612c6e82612c25565b810181811067ffffffffffffffff82111715612c8d57612c8c612c36565b5b80604052505050565b6000612ca0612c07565b9050612cac8282612c65565b919050565b600067ffffffffffffffff821115612ccc57612ccb612c36565b5b612cd582612c25565b9050602081019050919050565b82818337600083830152505050565b6000612d04612cff84612cb1565b612c96565b905082815260208101848484011115612d2057612d1f612c20565b5b612d2b848285612ce2565b509392505050565b600082601f830112612d4857612d47612c1b565b5b8135612d58848260208601612cf1565b91505092915050565b6000819050919050565b612d7481612d61565b8114612d7f57600080fd5b50565b600081359050612d9181612d6b565b92915050565b60008060408385031215612dae57612dad612c11565b5b600083013567ffffffffffffffff811115612dcc57612dcb612c16565b5b612dd885828601612d33565b9250506020612de985828601612d82565b9150509250929050565b612dfc81612d61565b82525050565b6000602082019050612e176000830184612df3565b92915050565b60008115159050919050565b612e3281612e1d565b82525050565b6000602082019050612e4d6000830184612e29565b92915050565b600060ff82169050919050565b612e6981612e53565b82525050565b6000602082019050612e846000830184612e60565b92915050565b60008060408385031215612ea157612ea0612c11565b5b6000612eaf85828601612d82565b9250506020612ec085828601612d82565b9150509250929050565b600081519050919050565b600082825260208201905092915050565b60005b83811015612f04578082015181840152602081019050612ee9565b60008484015250505050565b6000612f1b82612eca565b612f258185612ed5565b9350612f35818560208601612ee6565b612f3e81612c25565b840191505092915050565b60006020820190508181036000830152612f638184612f10565b905092915050565b600073ffffffffffffffffffffffffffffffffffffffff82169050919050565b6000612f9682612f6b565b9050919050565b612fa681612f8b565b8114612fb157600080fd5b50565b600081359050612fc381612f9d565b92915050565b60008060008060808587031215612fe357612fe2612c11565b5b6000612ff187828801612fb4565b945050602085013567ffffffffffffffff81111561301257613011612c16565b5b61301e87828801612d33565b935050604085013567ffffffffffffffff81111561303f5761303e612c16565b5b61304b87828801612d33565b925050606061305c87828801612d82565b91505092959194509250565b61307181612f8b565b82525050565b600060208201905061308c6000830184613068565b92915050565b6000602082840312156130a8576130a7612c11565b5b600082013567ffffffffffffffff8111156130c6576130c5612c16565b5b6130d284828501612d33565b91505092915050565b600080600080600080600060e0888a0312156130fa576130f9612c11565b5b60006131088a828b01612fb4565b975050602088013567ffffffffffffffff81111561312957613128612c16565b5b6131358a828b01612d33565b965050604088013567ffffffffffffffff81111561315657613155612c16565b5b6131628a828b01612d33565b95505060606131738a828b01612d82565b94505060806131848a828b01612d82565b93505060a06131958a828b01612d82565b92505060c06131a68a828b01612d82565b91505092959891949750929550565b6000602082840312156131cb576131ca612c11565b5b60006131d984828501612fb4565b91505092915050565b600081905092915050565b60006131f882612eca565b61320281856131e2565b9350613212818560208601612ee6565b80840191505092915050565b600061322a82846131ed565b915081905092915050565b600082825260208201905092915050565b7f4f776e61626c653a2063616c6c6572206973206e6f7420746865206f776e6572600082015250565b600061327c602083613235565b915061328782613246565b602082019050919050565b600060208201905081810360008301526132ab8161326f565b9050919050565b7f4e487b7100000000000000000000000000000000000000000000000000000000600052602160045260246000fd5b7f4e487b7100000000000000000000000000000000000000000000000000000000600052603260045260246000fd5b7f4e487b7100000000000000000000000000000000000000000000000000000000600052602260045260246000fd5b6000600282049050600182168061335757607f821691505b60208210810361336a57613369613310565b5b50919050565b7f5061757361626c653a2070617573656400000000000000000000000000000000600082015250565b60006133a6601083613235565b91506133b182613370565b602082019050919050565b600060208201905081810360008301526133d581613399565b9050919050565b6133e581612e53565b81146133f057600080fd5b50565b600081519050613402816133dc565b92915050565b60006020828403121561341e5761341d612c11565b5b600061342c848285016133f3565b91505092915050565b7f52454a5556453a204e6f74205265676973746572656400000000000000000000600082015250565b600061346b601683613235565b915061347682613435565b602082019050919050565b6000602082019050818103600083015261349a8161345e565b9050919050565b7f52454a5556453a20496e76616c6964205369676e617475726500000000000000600082015250565b60006134d7601983613235565b91506134e2826134a1565b602082019050919050565b60006020820190508181036000830152613506816134ca565b9050919050565b7f4f776e61626c653a206e6577206f776e657220697320746865207a65726f206160008201527f6464726573730000000000000000000000000000000000000000000000000000602082015250565b6000613569602683613235565b91506135748261350d565b604082019050919050565b600060208201905081810360008301526135988161355c565b9050919050565b7f5061757361626c653a206e6f7420706175736564000000000000000000000000600082015250565b60006135d5601483613235565b91506135e08261359f565b602082019050919050565b60006020820190508181036000830152613604816135c8565b9050919050565b7f52454a5556453a205369676e6174757265207573656420616c72656164790000600082015250565b6000613641601e83613235565b915061364c8261360b565b602082019050919050565b6000602082019050818103600083015261367081613634565b9050919050565b60008160601b9050919050565b600061368f82613677565b9050919050565b60006136a182613684565b9050919050565b6136b96136b482612f8b565b613696565b82525050565b6000819050919050565b6136da6136d582612d61565b6136bf565b82525050565b60006136ec82876136a8565b6014820191506136fc82866131ed565b915061370882856136c9565b60208201915061371882846136a8565b60148201915081905095945050505050565b60008190508160005260206000209050919050565b60006020601f8301049050919050565b600082821b905092915050565b60006008830261378c7fffffffffffffffffffffffffffffffffffffffffffffffffffffffffffffffff8261374f565b613796868361374f565b95508019841693508086168417925050509392505050565b6000819050919050565b60006137d36137ce6137c984612d61565b6137ae565b612d61565b9050919050565b6000819050919050565b6137ed836137b8565b6138016137f9826137da565b84845461375c565b825550505050565b600090565b613816613809565b6138218184846137e4565b505050565b5b818110156138455761383a60008261380e565b600181019050613827565b5050565b601f82111561388a5761385b8161372a565b6138648461373f565b81016020851015613873578190505b61388761387f8561373f565b830182613826565b50505b505050565b600082821c905092915050565b60006138ad6000198460080261388f565b1980831691505092915050565b60006138c6838361389c565b9150826002028217905092915050565b6138df82612eca565b67ffffffffffffffff8111156138f8576138f7612c36565b5b613902825461333f565b61390d828285613849565b600060209050601f831160018114613940576000841561392e578287015190505b61393885826138ba565b8655506139a0565b601f19841661394e8661372a565b60005b8281101561397657848901518255600182019150602085019450602081019050613951565b86831015613993578489015161398f601f89168261389c565b8355505b6001600288020188555050505b505050505050565b7f4e487b7100000000000000000000000000000000000000000000000000000000600052601160045260246000fd5b60006139e282612d61565b91506139ed83612d61565b9250828203905081811115613a0557613a046139a8565b5b92915050565b600081519050613a1a81612d6b565b92915050565b600060208284031215613a3657613a35612c11565b5b6000613a4484828501613a0b565b91505092915050565b6000606082019050613a626000830186613068565b613a6f6020830185612df3565b8181036040830152613a818184612f10565b9050949350505050565b7f52454a5556453a204e6f7420612044617461204f776e65720000000000000000600082015250565b6000613ac1601883613235565b9150613acc82613a8b565b602082019050919050565b60006020820190508181036000830152613af081613ab4565b9050919050565b6000819050919050565b613b0a81613af7565b82525050565b600060a082019050613b256000830188612df3565b613b326020830187612df3565b8181036040830152613b448186612f10565b9050613b536060830185612df3565b613b606080830184613b01565b9695505050505050565b600081905092915050565b7f19457468657265756d205369676e6564204d6573736167653a0a333200000000600082015250565b6000613bab601c83613b6a565b9150613bb682613b75565b601c82019050919050565b6000819050919050565b613bdc613bd782613af7565b613bc1565b82525050565b6000613bed82613b9e565b9150613bf98284613bcb565b60208201915081905092915050565b6000613c14828a6136a8565b601482019150613c2482896136c9565b602082019150613c3482886131ed565b9150613c4082876136c9565b602082019150613c5082866136c9565b602082019150613c6082856136c9565b602082019150613c7082846136a8565b60148201915081905098975050505050505050565b6000613c9182866136c9565b602082019150613ca182856131ed565b9150613cad82846136c9565b602082019150819050949350505050565b6000613cc982612d61565b9150613cd483612d61565b9250828201905080821115613cec57613ceb6139a8565b5b92915050565b7f45434453413a20696e76616c6964207369676e61747572650000000000000000600082015250565b6000613d28601883613235565b9150613d3382613cf2565b602082019050919050565b60006020820190508181036000830152613d5781613d1b565b9050919050565b7f45434453413a20696e76616c6964207369676e6174757265206c656e67746800600082015250565b6000613d94601f83613235565b9150613d9f82613d5e565b602082019050919050565b60006020820190508181036000830152613dc381613d87565b9050919050565b7f45434453413a20696e76616c6964207369676e6174757265202773272076616c60008201527f7565000000000000000000000000000000000000000000000000000000000000602082015250565b6000613e26602283613235565b9150613e3182613dca565b604082019050919050565b60006020820190508181036000830152613e5581613e19565b9050919050565b7f45434453413a20696e76616c6964207369676e6174757265202776272076616c60008201527f7565000000000000000000000000000000000000000000000000000000000000602082015250565b6000613eb8602283613235565b9150613ec382613e5c565b604082019050919050565b60006020820190508181036000830152613ee781613eab565b9050919050565b6000608082019050613f036000830187613b01565b613f106020830186612e60565b613f1d6040830185613b01565b613f2a6060830184613b01565b9594505050505056fea2646970667358221220d9e2883cd5754b03268e8c61193eddede0615d0c04af83db7218bab7e7dadb7864736f6c63430008110033",
  "linkReferences": {},
  "deployedLinkReferences": {}
}