{
  "_format": "hh-sol-artifact-1",
  "contractName": "DataManagement",
  "sourceName": "contracts/DataManagement.sol",
  "abi": [
    {
      "inputs": [
        {
          "internalType": "contract IIdentityToken",
          "name": "identityToken_",
          "type": "address"
        }
      ],
      "stateMutability": "nonpayable",
      "type": "constructor"
    },
    {
      "anonymous": false,
      "inputs": [
        {
          "indexed": false,
          "internalType": "address",
          "name": "dataOwner",
          "type": "address"
        },
        {
          "indexed": false,
          "internalType": "uint256",
          "name": "dataOwnerId",
          "type": "uint256"
        },
        {
          "indexed": false,
          "internalType": "bytes",
          "name": "dataHash",
          "type": "bytes"
        }
      ],
      "name": "DataSubmitted",
      "type": "event"
    },
    {
      "anonymous": false,
      "inputs": [
        {
          "indexed": true,
          "internalType": "address",
          "name": "previousOwner",
          "type": "address"
        },
        {
          "indexed": true,
          "internalType": "address",
          "name": "newOwner",
          "type": "address"
        }
      ],
      "name": "OwnershipTransferred",
      "type": "event"
    },
    {
      "anonymous": false,
      "inputs": [
        {
          "indexed": false,
          "internalType": "address",
          "name": "account",
          "type": "address"
        }
      ],
      "name": "Paused",
      "type": "event"
    },
    {
      "anonymous": false,
      "inputs": [
        {
          "indexed": false,
          "internalType": "uint256",
          "name": "dataOwnerId",
          "type": "uint256"
        },
        {
          "indexed": false,
          "internalType": "uint256",
          "name": "requesterId",
          "type": "uint256"
        },
        {
          "indexed": false,
          "internalType": "bytes",
          "name": "dataHash",
          "type": "bytes"
        },
        {
          "indexed": false,
          "internalType": "uint256",
          "name": "nextProductUID",
          "type": "uint256"
        },
        {
          "indexed": false,
          "internalType": "bytes32",
          "name": "permissionHash",
          "type": "bytes32"
        }
      ],
      "name": "PermissionGranted",
      "type": "event"
    },
    {
      "anonymous": false,
      "inputs": [
        {
          "indexed": false,
          "internalType": "address",
          "name": "account",
          "type": "address"
        }
      ],
      "name": "Unpaused",
      "type": "event"
    },
    {
      "inputs": [
        {
          "internalType": "uint256",
          "name": "_tokenId",
          "type": "uint256"
        },
        {
          "internalType": "uint256",
          "name": "_index",
          "type": "uint256"
        }
      ],
      "name": "getDataByTokenId",
      "outputs": [
        {
          "internalType": "bytes",
          "name": "",
          "type": "bytes"
        }
      ],
      "stateMutability": "view",
      "type": "function"
    },
    {
      "inputs": [
        {
          "internalType": "bytes",
          "name": "_dHash",
          "type": "bytes"
        }
      ],
      "name": "getDataOwnerId",
      "outputs": [
        {
          "internalType": "uint256",
          "name": "",
          "type": "uint256"
        }
      ],
      "stateMutability": "view",
      "type": "function"
    },
    {
      "inputs": [
        {
          "internalType": "address",
          "name": "_signer",
          "type": "address"
        },
        {
          "internalType": "bytes",
          "name": "_signature",
          "type": "bytes"
        },
        {
          "internalType": "bytes",
          "name": "_dHash",
          "type": "bytes"
        },
        {
          "internalType": "uint256",
          "name": "_requesterId",
          "type": "uint256"
        },
        {
          "internalType": "uint256",
          "name": "_nextProductUID",
          "type": "uint256"
        },
        {
          "internalType": "uint256",
          "name": "_nonce",
          "type": "uint256"
        },
        {
          "internalType": "uint256",
          "name": "_expiration",
          "type": "uint256"
        }
      ],
      "name": "getPermission",
      "outputs": [],
      "stateMutability": "nonpayable",
      "type": "function"
    },
    {
      "inputs": [
        {
          "internalType": "bytes",
          "name": "_dHash",
          "type": "bytes"
        },
        {
          "internalType": "uint256",
          "name": "_nextProductUID",
          "type": "uint256"
        }
      ],
      "name": "getPermissionDeadline",
      "outputs": [
        {
          "internalType": "uint256",
          "name": "",
          "type": "uint256"
        }
      ],
      "stateMutability": "view",
      "type": "function"
    },
    {
      "inputs": [
        {
          "internalType": "bytes",
          "name": "_dHash",
          "type": "bytes"
        },
        {
          "internalType": "uint256",
          "name": "_productUID",
          "type": "uint256"
        }
      ],
      "name": "getPermissionStatus",
      "outputs": [
        {
          "internalType": "uint8",
          "name": "",
          "type": "uint8"
        }
      ],
      "stateMutability": "view",
      "type": "function"
    },
    {
      "inputs": [],
      "name": "owner",
      "outputs": [
        {
          "internalType": "address",
          "name": "",
          "type": "address"
        }
      ],
      "stateMutability": "view",
      "type": "function"
    },
    {
      "inputs": [],
      "name": "pause",
      "outputs": [],
      "stateMutability": "nonpayable",
      "type": "function"
    },
    {
      "inputs": [],
      "name": "paused",
      "outputs": [
        {
          "internalType": "bool",
          "name": "",
          "type": "bool"
        }
      ],
      "stateMutability": "view",
      "type": "function"
    },
    {
      "inputs": [],
      "name": "renounceOwnership",
      "outputs": [],
      "stateMutability": "nonpayable",
      "type": "function"
    },
    {
      "inputs": [
        {
          "internalType": "address",
          "name": "_signer",
          "type": "address"
        },
        {
          "internalType": "bytes",
          "name": "_signature",
          "type": "bytes"
        },
        {
          "internalType": "bytes",
          "name": "_dHash",
          "type": "bytes"
        },
        {
          "internalType": "uint256",
          "name": "_nonce",
          "type": "uint256"
        }
      ],
      "name": "submitData",
      "outputs": [],
      "stateMutability": "nonpayable",
      "type": "function"
    },
    {
      "inputs": [
        {
          "internalType": "address",
          "name": "newOwner",
          "type": "address"
        }
      ],
      "name": "transferOwnership",
      "outputs": [],
      "stateMutability": "nonpayable",
      "type": "function"
    },
    {
      "inputs": [],
      "name": "unpause",
      "outputs": [],
      "stateMutability": "nonpayable",
      "type": "function"
    }
  ],
  "bytecode": "0x608060405234801561001057600080fd5b506040516119c23803806119c283398101604081905261002f916100ba565b6100383361006a565b6000805460ff60a01b19169055600180546001600160a01b0319166001600160a01b03929092169190911790556100ea565b600080546001600160a01b038381166001600160a01b0319831681178455604051919092169283917f8be0079c531659141344cd1fd0a4f28419497f9722a3daafe3b4186f6b6457e09190a35050565b6000602082840312156100cc57600080fd5b81516001600160a01b03811681146100e357600080fd5b9392505050565b6118c9806100f96000396000f3fe608060405234801561001057600080fd5b50600436106100b45760003560e01c80637b2a9613116100715780637b2a9613146101535780638456cb59146101665780638da5cb5b1461016e578063a3085ce814610189578063d02bb7ad1461019c578063f2fde38b146101af57600080fd5b80631370fb87146100b95780633f4ba83a146100df5780635c975abb146100e95780635f233dab146101065780636439b3ca1461012b578063715018a61461014b575b600080fd5b6100cc6100c736600461129c565b6101c2565b6040519081526020015b60405180910390f35b6100e76101fd565b005b600054600160a01b900460ff1660405190151581526020016100d6565b61011961011436600461129c565b61023a565b60405160ff90911681526020016100d6565b61013e6101393660046112e1565b610282565b6040516100d69190611353565b6100e7610363565b6100e7610161366004611382565b610397565b6100e76104e7565b6000546040516001600160a01b0390911681526020016100d6565b6100cc6101973660046113fe565b610519565b6100e76101aa36600461143b565b610541565b6100e76101bd3660046114d4565b610591565b60006006836040516101d491906114ef565b908152602001604051809103902060008381526020019081526020016000205490505b92915050565b6000546001600160a01b031633146102305760405162461bcd60e51b81526004016102279061150b565b60405180910390fd5b61023861062c565b565b600060058360405161024c91906114ef565b90815260408051602092819003830190206000858152925290205460ff16600181111561027b5761027b611540565b9392505050565b600082815260046020526040812080546060929190849081106102a7576102a7611556565b90600052602060002001549050600881815481106102c7576102c7611556565b9060005260206000200180546102dc9061156c565b80601f01602080910402602001604051908101604052809291908181526020018280546103089061156c565b80156103555780601f1061032a57610100808354040283529160200191610355565b820191906000526020600020905b81548152906001019060200180831161033857829003601f168201915b505050505091505092915050565b6000546001600160a01b0316331461038d5760405162461bcd60e51b81526004016102279061150b565b61023860006106c9565b600054600160a01b900460ff16156103c15760405162461bcd60e51b8152600401610227906115a6565b6001546040516325aabec560e11b81526001600160a01b03808716600483015286921690634b557d8a90602401602060405180830381865afa15801561040b573d6000803e3d6000fd5b505050506040513d601f19601f8201168201806040525081019061042f91906115d0565b60ff1660011461047a5760405162461bcd60e51b81526020600482015260166024820152751491529555914e88139bdd08149959da5cdd195c995960521b6044820152606401610227565b8484848461048a83858484610719565b6104d25760405162461bcd60e51b815260206004820152601960248201527852454a5556453a20496e76616c6964205369676e617475726560381b6044820152606401610227565b6104dc89886107fe565b505050505050505050565b6000546001600160a01b031633146105115760405162461bcd60e51b81526004016102279061150b565b61023861094c565b600060028260405161052b91906114ef565b9081526020016040518091039020549050919050565b600054600160a01b900460ff161561056b5760405162461bcd60e51b8152600401610227906115a6565b61057b33888888888888886109b1565b6105888786868685610b9d565b50505050505050565b6000546001600160a01b031633146105bb5760405162461bcd60e51b81526004016102279061150b565b6001600160a01b0381166106205760405162461bcd60e51b815260206004820152602660248201527f4f776e61626c653a206e6577206f776e657220697320746865207a65726f206160448201526564647265737360d01b6064820152608401610227565b610629816106c9565b50565b600054600160a01b900460ff1661067c5760405162461bcd60e51b815260206004820152601460248201527314185d5cd8589b194e881b9bdd081c185d5cd95960621b6044820152606401610227565b6000805460ff60a01b191690557f5db9ee0a495bf2e6ff9c91a7834c1ba4fdd244a5e8aa4e537bd38aeae4b073aa335b6040516001600160a01b03909116815260200160405180910390a1565b600080546001600160a01b038381166001600160a01b0319831681178455604051919092169283917f8be0079c531659141344cd1fd0a4f28419497f9722a3daafe3b4186f6b6457e09190a35050565b60008181526007602052604081205460ff16156107785760405162461bcd60e51b815260206004820152601e60248201527f52454a5556453a205369676e6174757265207573656420616c726561647900006044820152606401610227565b6000828152600760209081526040808320805460ff19166001179055516107a7918791879187913091016115f3565b60405160208183030381529060405280519060200120905060006107d4876107ce84610d0d565b90610d60565b9050806001600160a01b0316866001600160a01b0316036107f457600192505b5050949350505050565b600880546001810182556000919091527ff3f7a9fe364faab93b216da50a3214154f22a0a2b415b23a84c8169e8b636ee30161083a828261168e565b5060085460009061084d90600190611764565b60015460405163ea32fff760e01b81526001600160a01b0386811660048301529293506000929091169063ea32fff790602401602060405180830381865afa15801561089d573d6000803e3d6000fd5b505050506040513d601f19601f820116820180604052508101906108c19190611777565b6000818152600460209081526040808320805460018101825590845291909220018490555190915081906002906108f99086906114ef565b9081526020016040518091039020819055507f61c9805cf401b606419b3679e7abe7e7cd2c70612e477fad927b57cd793c4c6484828560405161093e93929190611790565b60405180910390a150505050565b600054600160a01b900460ff16156109765760405162461bcd60e51b8152600401610227906115a6565b6000805460ff60a01b1916600160a01b1790557f62e78cea01bee320cd4e420270b5ea74000d11b0c9f74754ebdbfc544b05a2586106ac3390565b6001546040516325aabec560e11b81526001600160a01b038a8116600483015290911690634b557d8a90602401602060405180830381865afa1580156109fb573d6000803e3d6000fd5b505050506040513d601f19601f82011682018060405250810190610a1f91906115d0565b60ff16600114610a6a5760405162461bcd60e51b81526020600482015260166024820152751491529555914e88139bdd08149959da5cdd195c995960521b6044820152606401610227565b6000600286604051610a7c91906114ef565b9081526040519081900360200181205460015463ea32fff760e01b83526001600160a01b038b81166004850152919350169063ea32fff790602401602060405180830381865afa158015610ad4573d6000803e3d6000fd5b505050506040513d601f19601f82011682018060405250810190610af89190611777565b8114610b465760405162461bcd60e51b815260206004820152601860248201527f52454a5556453a204e6f7420612044617461204f776e657200000000000000006044820152606401610227565b610b5587898789888888610d84565b6104dc5760405162461bcd60e51b815260206004820152601960248201527852454a5556453a20496e76616c6964205369676e617475726560381b6044820152606401610227565b6000610baa848685610e6c565b60015460405163ea32fff760e01b81526001600160a01b0389811660048301529293506000929091169063ea32fff790602401602060405180830381865afa158015610bfa573d6000803e3d6000fd5b505050506040513d601f19601f82011682018060405250810190610c1e9190611777565b6000818152600360209081526040808320805460018181018355918552929093209091018590555191925090600590610c589089906114ef565b9081526040805160209281900383019020600088815292529020805460ff191660018381811115610c8b57610c8b611540565b0217905550610c9983610ea2565b600687604051610ca991906114ef565b9081526040805191829003602090810183206000898152915220919091557f74a812264709f95a96c54b21cedc219217441999a56052b5b7ba4a2365bfcaf690610cfc90839088908a90899088906117c0565b60405180910390a150505050505050565b6040517f19457468657265756d205369676e6564204d6573736167653a0a3332000000006020820152603c8101829052600090605c01604051602081830303815290604052805190602001209050919050565b6000806000610d6f8585610eaf565b91509150610d7c81610f1d565b509392505050565b60008281526007602052604081205460ff1615610de35760405162461bcd60e51b815260206004820152601e60248201527f52454a5556453a205369676e6174757265207573656420616c726561647900006044820152606401610227565b6000838152600760209081526040808320805460ff1916600117905551610e18918a918a918a918a918a918a913091016117f3565b6040516020818303038152906040528051906020012090506000610e3f8a6107ce84610d0d565b9050806001600160a01b0316896001600160a01b031603610e5f57600192505b5050979650505050505050565b6000838383604051602001610e8393929190611853565b6040516020818303038152906040528051906020012090509392505050565b60008061027b8342611880565b6000808251604103610ee55760208301516040840151606085015160001a610ed9878285856110d3565b94509450505050610f16565b8251604003610f0e5760208301516040840151610f038683836111c0565b935093505050610f16565b506000905060025b9250929050565b6000816004811115610f3157610f31611540565b03610f395750565b6001816004811115610f4d57610f4d611540565b03610f9a5760405162461bcd60e51b815260206004820152601860248201527f45434453413a20696e76616c6964207369676e617475726500000000000000006044820152606401610227565b6002816004811115610fae57610fae611540565b03610ffb5760405162461bcd60e51b815260206004820152601f60248201527f45434453413a20696e76616c6964207369676e6174757265206c656e677468006044820152606401610227565b600381600481111561100f5761100f611540565b036110675760405162461bcd60e51b815260206004820152602260248201527f45434453413a20696e76616c6964207369676e6174757265202773272076616c604482015261756560f01b6064820152608401610227565b600481600481111561107b5761107b611540565b036106295760405162461bcd60e51b815260206004820152602260248201527f45434453413a20696e76616c6964207369676e6174757265202776272076616c604482015261756560f01b6064820152608401610227565b6000807f7fffffffffffffffffffffffffffffff5d576e7357a4501ddfe92f46681b20a083111561110a57506000905060036111b7565b8460ff16601b1415801561112257508460ff16601c14155b1561113357506000905060046111b7565b6040805160008082526020820180845289905260ff881692820192909252606081018690526080810185905260019060a0016020604051602081039080840390855afa158015611187573d6000803e3d6000fd5b5050604051601f1901519150506001600160a01b0381166111b0576000600192509250506111b7565b9150600090505b94509492505050565b6000806001600160ff1b038316816111dd60ff86901c601b611880565b90506111eb878288856110d3565b935093505050935093915050565b634e487b7160e01b600052604160045260246000fd5b600082601f83011261122057600080fd5b813567ffffffffffffffff8082111561123b5761123b6111f9565b604051601f8301601f19908116603f01168101908282118183101715611263576112636111f9565b8160405283815286602085880101111561127c57600080fd5b836020870160208301376000602085830101528094505050505092915050565b600080604083850312156112af57600080fd5b823567ffffffffffffffff8111156112c657600080fd5b6112d28582860161120f565b95602094909401359450505050565b600080604083850312156112f457600080fd5b50508035926020909101359150565b60005b8381101561131e578181015183820152602001611306565b50506000910152565b6000815180845261133f816020860160208601611303565b601f01601f19169290920160200192915050565b60208152600061027b6020830184611327565b80356001600160a01b038116811461137d57600080fd5b919050565b6000806000806080858703121561139857600080fd5b6113a185611366565b9350602085013567ffffffffffffffff808211156113be57600080fd5b6113ca8883890161120f565b945060408701359150808211156113e057600080fd5b506113ed8782880161120f565b949793965093946060013593505050565b60006020828403121561141057600080fd5b813567ffffffffffffffff81111561142757600080fd5b6114338482850161120f565b949350505050565b600080600080600080600060e0888a03121561145657600080fd5b61145f88611366565b9650602088013567ffffffffffffffff8082111561147c57600080fd5b6114888b838c0161120f565b975060408a013591508082111561149e57600080fd5b506114ab8a828b0161120f565b979a96995096976060810135975060808101359660a0820135965060c090910135945092505050565b6000602082840312156114e657600080fd5b61027b82611366565b60008251611501818460208701611303565b9190910192915050565b6020808252818101527f4f776e61626c653a2063616c6c6572206973206e6f7420746865206f776e6572604082015260600190565b634e487b7160e01b600052602160045260246000fd5b634e487b7160e01b600052603260045260246000fd5b600181811c9082168061158057607f821691505b6020821081036115a057634e487b7160e01b600052602260045260246000fd5b50919050565b60208082526010908201526f14185d5cd8589b194e881c185d5cd95960821b604082015260600190565b6000602082840312156115e257600080fd5b815160ff8116811461027b57600080fd5b60006bffffffffffffffffffffffff19808760601b168352855161161e816014860160208a01611303565b90920160148101949094525060609190911b16603482015260480192915050565b601f82111561168957600081815260208120601f850160051c810160208610156116665750805b601f850160051c820191505b8181101561168557828155600101611672565b5050505b505050565b815167ffffffffffffffff8111156116a8576116a86111f9565b6116bc816116b6845461156c565b8461163f565b602080601f8311600181146116f157600084156116d95750858301515b600019600386901b1c1916600185901b178555611685565b600085815260208120601f198616915b8281101561172057888601518255948401946001909101908401611701565b508582101561173e5787850151600019600388901b60f8161c191681555b5050505050600190811b01905550565b634e487b7160e01b600052601160045260246000fd5b818103818111156101f7576101f761174e565b60006020828403121561178957600080fd5b5051919050565b60018060a01b03841681528260208201526060604082015260006117b76060830184611327565b95945050505050565b85815284602082015260a0604082015260006117df60a0830186611327565b606083019490945250608001529392505050565b60006bffffffffffffffffffffffff19808a60601b1683528860148401528751611824816034860160208c01611303565b9092016034810196909652506054850193909352607484019190915260601b16609482015260a8019392505050565b8381526000835161186b816020850160208801611303565b60209201918201929092526040019392505050565b808201808211156101f7576101f761174e56fea264697066735822122049a5cc099da6bcda37a7d0cd285144fa5fd1fb93689def10c2896acc10894f5e64736f6c63430008110033",
  "linkReferences": {},
  "deployedLinkReferences": {}
}