{
  "_format": "hh-sol-artifact-1",
  "contractName": "ShardMarketplace",
  "sourceName": "contracts/ShardMarketplace.sol",
  "abi": [
    {
      "inputs": [
        {
          "internalType": "contract IProductShards",
          "name": "productShard_",
          "type": "address"
        },
        {
          "internalType": "contract IRejuveToken",
          "name": "rejuveToken_",
          "type": "address"
        }
      ],
      "stateMutability": "nonpayable",
      "type": "constructor"
    },
    {
      "anonymous": false,
      "inputs": [
        {
          "indexed": false,
          "internalType": "address",
          "name": "holder",
          "type": "address"
        },
        {
          "indexed": false,
          "internalType": "uint256",
          "name": "productUID",
          "type": "uint256"
        }
      ],
      "name": "CancelList",
      "type": "event"
    },
    {
      "anonymous": false,
      "inputs": [
        {
          "indexed": false,
          "internalType": "address",
          "name": "holder",
          "type": "address"
        },
        {
          "indexed": false,
          "internalType": "uint256",
          "name": "productUID",
          "type": "uint256"
        },
        {
          "indexed": false,
          "internalType": "uint256",
          "name": "newPrice",
          "type": "uint256"
        }
      ],
      "name": "ListUpdated",
      "type": "event"
    },
    {
      "anonymous": false,
      "inputs": [
        {
          "indexed": false,
          "internalType": "address",
          "name": "holder",
          "type": "address"
        },
        {
          "indexed": false,
          "internalType": "uint256",
          "name": "productUID",
          "type": "uint256"
        },
        {
          "indexed": false,
          "internalType": "uint256",
          "name": "amount",
          "type": "uint256"
        },
        {
          "indexed": false,
          "internalType": "uint256",
          "name": "price",
          "type": "uint256"
        }
      ],
      "name": "Listed",
      "type": "event"
    },
    {
      "anonymous": false,
      "inputs": [
        {
          "indexed": true,
          "internalType": "address",
          "name": "previousOwner",
          "type": "address"
        },
        {
          "indexed": true,
          "internalType": "address",
          "name": "newOwner",
          "type": "address"
        }
      ],
      "name": "OwnershipTransferred",
      "type": "event"
    },
    {
      "anonymous": false,
      "inputs": [
        {
          "indexed": false,
          "internalType": "address",
          "name": "account",
          "type": "address"
        }
      ],
      "name": "Paused",
      "type": "event"
    },
    {
      "anonymous": false,
      "inputs": [
        {
          "indexed": false,
          "internalType": "address",
          "name": "seller",
          "type": "address"
        },
        {
          "indexed": false,
          "internalType": "address",
          "name": "buyer",
          "type": "address"
        },
        {
          "indexed": false,
          "internalType": "uint256",
          "name": "productUID",
          "type": "uint256"
        },
        {
          "indexed": false,
          "internalType": "uint256",
          "name": "shardAmount",
          "type": "uint256"
        },
        {
          "indexed": false,
          "internalType": "uint256",
          "name": "unitPrice",
          "type": "uint256"
        }
      ],
      "name": "Sold",
      "type": "event"
    },
    {
      "anonymous": false,
      "inputs": [
        {
          "indexed": false,
          "internalType": "address",
          "name": "account",
          "type": "address"
        }
      ],
      "name": "Unpaused",
      "type": "event"
    },
    {
      "inputs": [
        {
          "internalType": "uint256",
          "name": "productUID",
          "type": "uint256"
        },
        {
          "internalType": "uint256",
          "name": "shardAmount",
          "type": "uint256"
        },
        {
          "internalType": "uint256",
          "name": "id",
          "type": "uint256"
        },
        {
          "internalType": "uint256",
          "name": "coupon",
          "type": "uint256"
        },
        {
          "internalType": "uint256",
          "name": "nonce",
          "type": "uint256"
        },
        {
          "internalType": "address",
          "name": "seller",
          "type": "address"
        },
        {
          "internalType": "bytes",
          "name": "signature",
          "type": "bytes"
        }
      ],
      "name": "buy",
      "outputs": [],
      "stateMutability": "nonpayable",
      "type": "function"
    },
    {
      "inputs": [
        {
          "internalType": "uint256",
          "name": "productUID",
          "type": "uint256"
        }
      ],
      "name": "cancelList",
      "outputs": [],
      "stateMutability": "nonpayable",
      "type": "function"
    },
    {
      "inputs": [
        {
          "internalType": "address",
          "name": "holder",
          "type": "address"
        },
        {
          "internalType": "uint256",
          "name": "productUID",
          "type": "uint256"
        }
      ],
      "name": "getLisitingStatus",
      "outputs": [
        {
          "internalType": "enum ShardMarketplace.ListingStatus",
          "name": "",
          "type": "uint8"
        }
      ],
      "stateMutability": "view",
      "type": "function"
    },
    {
      "inputs": [
        {
          "internalType": "address",
          "name": "holder",
          "type": "address"
        },
        {
          "internalType": "uint256",
          "name": "productUID",
          "type": "uint256"
        }
      ],
      "name": "getShardPrice",
      "outputs": [
        {
          "internalType": "uint256",
          "name": "",
          "type": "uint256"
        }
      ],
      "stateMutability": "view",
      "type": "function"
    },
    {
      "inputs": [
        {
          "internalType": "uint256",
          "name": "productUID",
          "type": "uint256"
        },
        {
          "internalType": "uint256",
          "name": "shardPrice",
          "type": "uint256"
        },
        {
          "internalType": "uint256",
          "name": "id",
          "type": "uint256"
        }
      ],
      "name": "listShard",
      "outputs": [],
      "stateMutability": "nonpayable",
      "type": "function"
    },
    {
      "inputs": [],
      "name": "owner",
      "outputs": [
        {
          "internalType": "address",
          "name": "",
          "type": "address"
        }
      ],
      "stateMutability": "view",
      "type": "function"
    },
    {
      "inputs": [],
      "name": "pause",
      "outputs": [],
      "stateMutability": "nonpayable",
      "type": "function"
    },
    {
      "inputs": [],
      "name": "paused",
      "outputs": [
        {
          "internalType": "bool",
          "name": "",
          "type": "bool"
        }
      ],
      "stateMutability": "view",
      "type": "function"
    },
    {
      "inputs": [],
      "name": "renounceOwnership",
      "outputs": [],
      "stateMutability": "nonpayable",
      "type": "function"
    },
    {
      "inputs": [
        {
          "internalType": "address",
          "name": "newOwner",
          "type": "address"
        }
      ],
      "name": "transferOwnership",
      "outputs": [],
      "stateMutability": "nonpayable",
      "type": "function"
    },
    {
      "inputs": [],
      "name": "unpause",
      "outputs": [],
      "stateMutability": "nonpayable",
      "type": "function"
    },
    {
      "inputs": [
        {
          "internalType": "uint256",
          "name": "productUID",
          "type": "uint256"
        },
        {
          "internalType": "uint256",
          "name": "newPrice",
          "type": "uint256"
        }
      ],
      "name": "updateList",
      "outputs": [],
      "stateMutability": "nonpayable",
      "type": "function"
    }
  ],
  "bytecode": "0x608060405234801562000010575f80fd5b5060405162003a2a38038062003a2a8339818101604052810190620000369190620002d0565b620000566200004a6200014b60201b60201c565b6200015260201b60201c565b5f8060146101000a81548160ff0219169083151502179055506200008b67a9daa621df12dbc060c01b6200021360201b60201c565b620000a767f690396194a4894660c01b6200021360201b60201c565b8160015f6101000a81548173ffffffffffffffffffffffffffffffffffffffff021916908373ffffffffffffffffffffffffffffffffffffffff1602179055506200010367223261355044511d60c01b6200021360201b60201c565b8060025f6101000a81548173ffffffffffffffffffffffffffffffffffffffff021916908373ffffffffffffffffffffffffffffffffffffffff160217905550505062000315565b5f33905090565b5f805f9054906101000a900473ffffffffffffffffffffffffffffffffffffffff169050815f806101000a81548173ffffffffffffffffffffffffffffffffffffffff021916908373ffffffffffffffffffffffffffffffffffffffff1602179055508173ffffffffffffffffffffffffffffffffffffffff168173ffffffffffffffffffffffffffffffffffffffff167f8be0079c531659141344cd1fd0a4f28419497f9722a3daafe3b4186f6b6457e060405160405180910390a35050565b50565b5f80fd5b5f73ffffffffffffffffffffffffffffffffffffffff82169050919050565b5f62000245826200021a565b9050919050565b5f620002588262000239565b9050919050565b6200026a816200024c565b811462000275575f80fd5b50565b5f8151905062000288816200025f565b92915050565b5f6200029a8262000239565b9050919050565b620002ac816200028e565b8114620002b7575f80fd5b50565b5f81519050620002ca81620002a1565b92915050565b5f8060408385031215620002e957620002e862000216565b5b5f620002f88582860162000278565b92505060206200030b85828601620002ba565b9150509250929050565b61370780620003235f395ff3fe608060405234801561000f575f80fd5b50600436106100b2575f3560e01c80638456cb591161006f5780638456cb59146101505780638da5cb5b1461015a57806398438e2014610178578063a1a611cb146101a8578063c9c9d2d8146101c4578063f2fde38b146101e0576100b2565b80630327e0b6146100b65780633b30ce40146100d25780633f4ba83a14610102578063554b4f0f1461010c5780635c975abb14610128578063715018a614610146575b5f80fd5b6100d060048036038101906100cb9190612621565b6101fc565b005b6100ec60048036038101906100e791906126cb565b6106fe565b6040516100f9919061277c565b60405180910390f35b61010a61079c565b005b610126600480360381019061012191906128d1565b610812565b005b610130610bb6565b60405161013d91906129a4565b60405180910390f35b61014e610bcb565b005b610158610bde565b005b610162610c54565b60405161016f91906129cc565b60405180910390f35b610192600480360381019061018d91906126cb565b610c7b565b60405161019f91906129f4565b60405180910390f35b6101c260048036038101906101bd9190612a0d565b610d0d565b005b6101de60048036038101906101d99190612a4b565b610f82565b005b6101fa60048036038101906101f59190612a76565b611163565b005b61021067d76a7e4c468bd74460c01b6111e5565b6102246765803db1840a40ca60c01b6111e5565b610237668786795960733260c01b6111e5565b61024b67bc0b0ce0eaea582860c01b6111e5565b61025f67e1b20f1ac70274b760c01b6111e5565b60015f9054906101000a900473ffffffffffffffffffffffffffffffffffffffff1673ffffffffffffffffffffffffffffffffffffffff1663e985e9c56102a46111e8565b306040518363ffffffff1660e01b81526004016102c2929190612aa1565b602060405180830381865afa1580156102dd573d5f803e3d5ffd5b505050506040513d601f19601f820116820180604052508101906103019190612af2565b610340576040517f08c379a000000000000000000000000000000000000000000000000000000000815260040161033790612b77565b60405180910390fd5b61035467943f9f4beaa747c460c01b6111e5565b6103686797002b966a4c3cef60c01b6111e5565b61037c67bd0780ea27a60e6660c01b6111e5565b6103906707f4b2a71c72b4bd60c01b6111e5565b6103986111ef565b6103ac677e6f0bee7d1028b460c01b6111e5565b6103c06708358299efa276b960c01b6111e5565b6103d4679766f8973826357360c01b6111e5565b6103e8676a382d9e6969c67960c01b6111e5565b6103fc67d36be1027aa8f38760c01b6111e5565b5f600181111561040f5761040e612709565b5b60035f61041a6111e8565b73ffffffffffffffffffffffffffffffffffffffff1673ffffffffffffffffffffffffffffffffffffffff1681526020019081526020015f205f8581526020019081526020015f205f9054906101000a900460ff16600181111561048157610480612709565b5b146104c1576040517f08c379a00000000000000000000000000000000000000000000000000000000081526004016104b890612bdf565b60405180910390fd5b6104d567599727c7a18a438c60c01b6111e5565b6104e967a4c92eff5de70ab260c01b6111e5565b6104fd673ae100cecc4deeaf60c01b6111e5565b610511670fc36748e6a4ce6060c01b6111e5565b5f8211610553576040517f08c379a000000000000000000000000000000000000000000000000000000000815260040161054a90612c47565b60405180910390fd5b610567671e96cea0315bed3860c01b6111e5565b61057b676793739525e080f260c01b6111e5565b61058f678b0e989c73dff6d060c01b6111e5565b5f60015f9054906101000a900473ffffffffffffffffffffffffffffffffffffffff1673ffffffffffffffffffffffffffffffffffffffff1662fdd58e6105d46111e8565b846040518363ffffffff1660e01b81526004016105f2929190612c65565b602060405180830381865afa15801561060d573d5f803e3d5ffd5b505050506040513d601f19601f820116820180604052508101906106319190612ca0565b9050610647679515190386fafc8160c01b6111e5565b61065b677a37a6a97f713f3260c01b6111e5565b61066f674f68ff4c3f10d1f060c01b6111e5565b5f81116106b1576040517f08c379a00000000000000000000000000000000000000000000000000000000081526004016106a890612d15565b60405180910390fd5b6106c567eb7f40803d0d600c60c01b6111e5565b6106d967a0371ce6d546c9ad60c01b6111e5565b6106ed673da443ff81d1113660c01b6111e5565b6106f8848483611239565b50505050565b5f61071367f5b32dcc83e9c8a660c01b6111e5565b61072767afcba945e9be436260c01b6111e5565b61073b670664e7b9a205bcd060c01b6111e5565b60035f8473ffffffffffffffffffffffffffffffffffffffff1673ffffffffffffffffffffffffffffffffffffffff1681526020019081526020015f205f8381526020019081526020015f205f9054906101000a900460ff16905092915050565b6107b0679d7c558709ccf5d360c01b6111e5565b6107b86113b9565b6107cc67899b7945551d675560c01b6111e5565b6107e0677694daf77cd6fd5260c01b6111e5565b6107f4676e5f7fffa83a0f7d60c01b6111e5565b61080867e650a3591b0cc2b560c01b6111e5565b610810611437565b565b61082667f41e2712bc7e190a60c01b6111e5565b868261083c67aa25827e862f04dd60c01b6111e5565b61085067c50376da5d1433bc60c01b6111e5565b610864677df7ba0d1c41017760c01b6111e5565b61087867f6126a0314573ebe60c01b6111e5565b60018081111561088b5761088a612709565b5b60035f8373ffffffffffffffffffffffffffffffffffffffff1673ffffffffffffffffffffffffffffffffffffffff1681526020019081526020015f205f8481526020019081526020015f205f9054906101000a900460ff1660018111156108f6576108f5612709565b5b14610936576040517f08c379a000000000000000000000000000000000000000000000000000000000815260040161092d90612d7d565b60405180910390fd5b61094a67e6fe8e2db0c4c8ac60c01b6111e5565b61095e679039febba5649c1c60c01b6111e5565b610972676db62fa0240bfaae60c01b6111e5565b61098667987be7b038fc29c660c01b6111e5565b61098e6111ef565b6109a267c1b1e0eff10ef44660c01b6111e5565b6109b66732b0a9a34d570c1860c01b6111e5565b6109ca676b1e1e520c53f2c260c01b6111e5565b6109de67afb676aa58aeb47960c01b6111e5565b6109f267f7d35e99642db75160c01b6111e5565b5f8811610a34576040517f08c379a0000000000000000000000000000000000000000000000000000000008152600401610a2b90612e0b565b60405180910390fd5b610a48672889fb193d064df060c01b6111e5565b610a5c678f6340aba1c9b75460c01b6111e5565b610a7067440fa24bc0fa6c5c60c01b6111e5565b610a84675ef19e77d228815360c01b6111e5565b60015f9054906101000a900473ffffffffffffffffffffffffffffffffffffffff1673ffffffffffffffffffffffffffffffffffffffff1662fdd58e85896040518363ffffffff1660e01b8152600401610adf929190612c65565b602060405180830381865afa158015610afa573d5f803e3d5ffd5b505050506040513d601f19601f82011682018060405250810190610b1e9190612ca0565b881115610b60576040517f08c379a0000000000000000000000000000000000000000000000000000000008152600401610b5790612e99565b60405180910390fd5b610b7467b3fc61bf8337ecd860c01b6111e5565b610b8867b9f610774dcbd5b260c01b6111e5565b610b9c67dbb095a02a7c9e9060c01b6111e5565b610bab89898989898989611498565b505050505050505050565b5f8060149054906101000a900460ff16905090565b610bd36113b9565b610bdc5f611725565b565b610bf2670c3e444bd02a81af60c01b6111e5565b610bfa6113b9565b610c0e67a86668bdd102c1d460c01b6111e5565b610c22677f0eb50b86f9fe2d60c01b6111e5565b610c3667f05b1da61899a2d660c01b6111e5565b610c4a676d89669f1e1d3a1c60c01b6111e5565b610c526117e6565b565b5f805f9054906101000a900473ffffffffffffffffffffffffffffffffffffffff16905090565b5f610c9067497e0ea0d02e8d9a60c01b6111e5565b610ca46792490dcd5a772fc160c01b6111e5565b610cb86795979e96da89f5f760c01b6111e5565b60045f8473ffffffffffffffffffffffffffffffffffffffff1673ffffffffffffffffffffffffffffffffffffffff1681526020019081526020015f205f8381526020019081526020015f2054905092915050565b610d216769ddc314dce8640760c01b6111e5565b81610d2a6111e8565b610d3e67aa25827e862f04dd60c01b6111e5565b610d5267c50376da5d1433bc60c01b6111e5565b610d66677df7ba0d1c41017760c01b6111e5565b610d7a67f6126a0314573ebe60c01b6111e5565b600180811115610d8d57610d8c612709565b5b60035f8373ffffffffffffffffffffffffffffffffffffffff1673ffffffffffffffffffffffffffffffffffffffff1681526020019081526020015f205f8481526020019081526020015f205f9054906101000a900460ff166001811115610df857610df7612709565b5b14610e38576040517f08c379a0000000000000000000000000000000000000000000000000000000008152600401610e2f90612d7d565b60405180910390fd5b610e4c67e6fe8e2db0c4c8ac60c01b6111e5565b610e60679039febba5649c1c60c01b6111e5565b610e7467eeae83cb86c0204260c01b6111e5565b610e886712d393a3cd5877de60c01b6111e5565b610e906111ef565b610ea4676230e8016f893e5960c01b6111e5565b610eb86768e149e72739424e60c01b6111e5565b610ecc6746ced85aa5143cb460c01b6111e5565b610ee06733ede212f57ee85360c01b6111e5565b610ef467a9b7f58451c7ed8d60c01b6111e5565b5f8311610f36576040517f08c379a0000000000000000000000000000000000000000000000000000000008152600401610f2d90612f01565b60405180910390fd5b610f4a6785460e5bfbbe554560c01b6111e5565b610f5e67783b3cb9ac336a7d60c01b6111e5565b610f7267de97105815b00c9660c01b6111e5565b610f7c8484611848565b50505050565b610f9667f956ebb6f0d0b40560c01b6111e5565b80610f9f6111e8565b610fb367aa25827e862f04dd60c01b6111e5565b610fc767c50376da5d1433bc60c01b6111e5565b610fdb677df7ba0d1c41017760c01b6111e5565b610fef67f6126a0314573ebe60c01b6111e5565b60018081111561100257611001612709565b5b60035f8373ffffffffffffffffffffffffffffffffffffffff1673ffffffffffffffffffffffffffffffffffffffff1681526020019081526020015f205f8481526020019081526020015f205f9054906101000a900460ff16600181111561106d5761106c612709565b5b146110ad576040517f08c379a00000000000000000000000000000000000000000000000000000000081526004016110a490612d7d565b60405180910390fd5b6110c167e6fe8e2db0c4c8ac60c01b6111e5565b6110d5679039febba5649c1c60c01b6111e5565b6110e9676417507d671a81ca60c01b6111e5565b6110fd677c5a6dfd252cb9c160c01b6111e5565b6111056111ef565b61111967c71e51f4cf2a879a60c01b6111e5565b61112d67228725e7eb99893160c01b6111e5565b611141678f7fd92a1056c5a860c01b6111e5565b611155678c25b8b277d4815460c01b6111e5565b61115e83611936565b505050565b61116b6113b9565b5f73ffffffffffffffffffffffffffffffffffffffff168173ffffffffffffffffffffffffffffffffffffffff16036111d9576040517f08c379a00000000000000000000000000000000000000000000000000000000081526004016111d090612f8f565b60405180910390fd5b6111e281611725565b50565b50565b5f33905090565b6111f7610bb6565b15611237576040517f08c379a000000000000000000000000000000000000000000000000000000000815260040161122e90612ff7565b60405180910390fd5b565b61124d679f04e170e083998c60c01b6111e5565b611261679bccc9f6a3e0e6d760c01b6111e5565b600160035f61126e6111e8565b73ffffffffffffffffffffffffffffffffffffffff1673ffffffffffffffffffffffffffffffffffffffff1681526020019081526020015f205f8581526020019081526020015f205f6101000a81548160ff021916908360018111156112d7576112d6612709565b5b02179055506112f067095568ba2082af8260c01b6111e5565b8160045f6112fc6111e8565b73ffffffffffffffffffffffffffffffffffffffff1673ffffffffffffffffffffffffffffffffffffffff1681526020019081526020015f205f8581526020019081526020015f208190555061135c6787dafcb3f3c23e5e60c01b6111e5565b61137067485a79448b8224bf60c01b6111e5565b7f03dec9cb5eb28fc88294be525eef5c4e1c3f2ca49fbe9c31a5ae6f11945aaec16113996111e8565b8483856040516113ac9493929190613015565b60405180910390a1505050565b6113c16111e8565b73ffffffffffffffffffffffffffffffffffffffff166113df610c54565b73ffffffffffffffffffffffffffffffffffffffff1614611435576040517f08c379a000000000000000000000000000000000000000000000000000000000815260040161142c906130a2565b60405180910390fd5b565b61143f611aaf565b5f8060146101000a81548160ff0219169083151502179055507f5db9ee0a495bf2e6ff9c91a7834c1ba4fdd244a5e8aa4e537bd38aeae4b073aa6114816111e8565b60405161148e91906129cc565b60405180910390a1565b6114ac67e4abe9b509f52d4c60c01b6111e5565b6114c06731c97f31bbead80060c01b6111e5565b6114d467ffcb3666168165be60c01b6111e5565b5f6114df8389610c7b565b90506114f5670d1cf4f92618d4c560c01b6111e5565b6115096709d22bca9a872c5160c01b6111e5565b5f818861151691906130ed565b905061152c67a2a5665de9adbee760c01b6111e5565b61154067a6445b4836c1734860c01b6111e5565b61154b838787611af8565b156116cf57611564672e2af40fcae53e9160c01b6111e5565b611578678d474966ffa7bc4e60c01b6111e5565b61158c67c4ee1c3fb37d7c8560c01b6111e5565b5f611598848888611be3565b90506115ae67b67a981f748207ad60c01b6111e5565b6115c26705d2cd1226ac097760c01b6111e5565b801561167e576115dc67ada475ac07a7b55660c01b6111e5565b6115f0679213f51186f11dab60c01b6111e5565b6116046772b088afe3db5dcb60c01b6111e5565b5f612710838961161491906130ed565b61161e919061315b565b90506116346704eff72110842fa360c01b6111e5565b8083611640919061318b565b9250611656678f6047f758d268b160c01b6111e5565b61166a676566c76f3f3dbede60c01b6111e5565b611678868c86868d8f611e82565b506116c9565b611692677a91228d08fe758d60c01b6111e5565b6116a667864b2d443205000760c01b6111e5565b6116ba676cf3c1859691021260c01b6111e5565b6116c8858b85858c8e611e82565b5b5061171a565b6116e36772acdc5692fa9a6360c01b6111e5565b6116f767c51b7e44d7b174b260c01b6111e5565b61170b672be908fa40d4b4cb60c01b6111e5565b611719848a84848b8d611e82565b5b505050505050505050565b5f805f9054906101000a900473ffffffffffffffffffffffffffffffffffffffff169050815f806101000a81548173ffffffffffffffffffffffffffffffffffffffff021916908373ffffffffffffffffffffffffffffffffffffffff1602179055508173ffffffffffffffffffffffffffffffffffffffff168173ffffffffffffffffffffffffffffffffffffffff167f8be0079c531659141344cd1fd0a4f28419497f9722a3daafe3b4186f6b6457e060405160405180910390a35050565b6117ee6111ef565b60015f60146101000a81548160ff0219169083151502179055507f62e78cea01bee320cd4e420270b5ea74000d11b0c9f74754ebdbfc544b05a2586118316111e8565b60405161183e91906129cc565b60405180910390a1565b61185c6738b4cf391dc8617a60c01b6111e5565b611870674567414656e1afe760c01b6111e5565b8060045f61187c6111e8565b73ffffffffffffffffffffffffffffffffffffffff1673ffffffffffffffffffffffffffffffffffffffff1681526020019081526020015f205f8481526020019081526020015f20819055506118dc671907f0895919ed5d60c01b6111e5565b6118f067d5bba21a06799dd260c01b6111e5565b7ffc9d2807c85b7a265486ebc35d06f40a061b70e147d78e07cb99f887e4e9d8846119196111e8565b838360405161192a939291906131be565b60405180910390a15050565b61194a67cabbfc1a08a315c160c01b6111e5565b61195e678957bbe9310e7c2f60c01b6111e5565b5f60035f61196a6111e8565b73ffffffffffffffffffffffffffffffffffffffff1673ffffffffffffffffffffffffffffffffffffffff1681526020019081526020015f205f8381526020019081526020015f205f6101000a81548160ff021916908360018111156119d3576119d2612709565b5b02179055506119ec677e4a93eea53e002960c01b6111e5565b5f60045f6119f86111e8565b73ffffffffffffffffffffffffffffffffffffffff1673ffffffffffffffffffffffffffffffffffffffff1681526020019081526020015f205f8381526020019081526020015f2081905550611a5867795e7cad7e87d15460c01b6111e5565b611a6c67931956004f2628ab60c01b6111e5565b7f01d61dfd5197b0d775d02d8c8c234a82371b737d15012d195c885d0a59da7475611a956111e8565b82604051611aa4929190612c65565b60405180910390a150565b611ab7610bb6565b611af6576040517f08c379a0000000000000000000000000000000000000000000000000000000008152600401611aed9061323d565b60405180910390fd5b565b5f611b0d67cea47d749861a83260c01b6111e5565b611b2167fd38876e63043a5d60c01b6111e5565b611b3567219e7413b1c1818c60c01b6111e5565b5f8314158015611b4657505f845114155b8015611b5257505f8214155b15611b9c57611b6b6756bf5367b69a5a3960c01b6111e5565b611b7f672501a82a0a9381fe60c01b6111e5565b611b93678bd034786abedc0a60c01b6111e5565b60019050611bdc565b611bb067429f8944090186e060c01b6111e5565b611bc46722076ffde228401060c01b6111e5565b611bd86793f46dd7d648020060c01b6111e5565b5f90505b9392505050565b5f611bf8673e685b11b22fa07560c01b6111e5565b611c0c6746d92fef055326bc60c01b6111e5565b611c2067a4f7eed970a27ac660c01b6111e5565b611c3467db44cd8675098fd160c01b6111e5565b60055f8381526020019081526020015f205f9054906101000a900460ff1615611c92576040517f08c379a0000000000000000000000000000000000000000000000000000000008152600401611c89906132a5565b60405180910390fd5b611ca6672e0089b42dbb0c9d60c01b6111e5565b611cba67ff197657f6b3036a60c01b6111e5565b600160055f8481526020019081526020015f205f6101000a81548160ff021916908315150217905550611cf76723ba7e20c095161060c01b6111e5565b611d0a66208d1b903bdb1c60c01b6111e5565b5f611d13610c54565b611d1b6111e8565b308686604051602001611d32959493929190613328565b604051602081830303815290604052805190602001209050611d5e673bdb8ee37432404160c01b6111e5565b611d7267389321991b38ed9260c01b6111e5565b5f611d8e86611d80846122fc565b61232f90919063ffffffff16565b9050611da467bf7ebde954a92a2260c01b6111e5565b611db8677ff34b27c9d60cb160c01b6111e5565b8073ffffffffffffffffffffffffffffffffffffffff16611dd7610c54565b73ffffffffffffffffffffffffffffffffffffffff1603611e3957611e0667dd93a48630ddf35160c01b6111e5565b611e1a67c8694d5308f3766160c01b6111e5565b611e2e6720f1d74e8c70ff1d60c01b6111e5565b600192505050611e7b565b611e4d67930a7ef095f017e160c01b6111e5565b611e6167e1f6eae4115a9b0a60c01b6111e5565b611e75679a025bc7a61f700560c01b6111e5565b5f925050505b9392505050565b611e9667fe0cfd43a08471ae60c01b6111e5565b611eaa67814bb1aeba8b335160c01b6111e5565b611ebe67b1f3b28b51d1d62c60c01b6111e5565b611ed267c879db560c31604b60c01b6111e5565b8260025f9054906101000a900473ffffffffffffffffffffffffffffffffffffffff1673ffffffffffffffffffffffffffffffffffffffff166370a08231611f186111e8565b6040518263ffffffff1660e01b8152600401611f3491906129cc565b602060405180830381865afa158015611f4f573d5f803e3d5ffd5b505050506040513d601f19601f82011682018060405250810190611f739190612ca0565b1015611fb4576040517f08c379a0000000000000000000000000000000000000000000000000000000008152600401611fab906133d0565b60405180910390fd5b611fc86715657a353f9f5bdb60c01b6111e5565b611fdc67d90ac63d8fd73d8560c01b6111e5565b611ff0673f6c159bd3a222ab60c01b6111e5565b61200467e2bbec5256b06ae560c01b6111e5565b8260025f9054906101000a900473ffffffffffffffffffffffffffffffffffffffff1673ffffffffffffffffffffffffffffffffffffffff1663dd62ed3e61204a6111e8565b306040518363ffffffff1660e01b8152600401612068929190612aa1565b602060405180830381865afa158015612083573d5f803e3d5ffd5b505050506040513d601f19601f820116820180604052508101906120a79190612ca0565b10156120e8576040517f08c379a00000000000000000000000000000000000000000000000000000000081526004016120df90612b77565b60405180910390fd5b6120fc678b37df426c691aa460c01b6111e5565b61211067ecd1dcb3c38302db60c01b6111e5565b61212467de363bd846790e0660c01b6111e5565b7f9be8a5ca22b7e6e81f04b5879f0248227bb770114291bd47dfaee4c3a82ad60e8661214e6111e8565b8784886040516121629594939291906133ee565b60405180910390a161217e67c48f204034b4ed2b60c01b6111e5565b61219267ed30f39342c2aada60c01b6111e5565b60025f9054906101000a900473ffffffffffffffffffffffffffffffffffffffff1673ffffffffffffffffffffffffffffffffffffffff166323b872dd6121d76111e8565b88866040518463ffffffff1660e01b81526004016121f79392919061343f565b6020604051808303815f875af1158015612213573d5f803e3d5ffd5b505050506040513d601f19601f820116820180604052508101906122379190612af2565b5061224c672b1226f6d6cf220860c01b6111e5565b61226067f12c5d8f5d0d60b360c01b6111e5565b60015f9054906101000a900473ffffffffffffffffffffffffffffffffffffffff1673ffffffffffffffffffffffffffffffffffffffff1663f242432a876122a66111e8565b85856040518563ffffffff1660e01b81526004016122c794939291906134a7565b5f604051808303815f87803b1580156122de575f80fd5b505af11580156122f0573d5f803e3d5ffd5b50505050505050505050565b5f7f19457468657265756d205369676e6564204d6573736167653a0a3332000000005f5281601c52603c5f209050919050565b5f805f61233c8585612354565b91509150612349816123a0565b819250505092915050565b5f806041835103612391575f805f602086015192506040860151915060608601515f1a905061238587828585612505565b94509450505050612399565b5f6002915091505b9250929050565b5f60048111156123b3576123b2612709565b5b8160048111156123c6576123c5612709565b5b031561250257600160048111156123e0576123df612709565b5b8160048111156123f3576123f2612709565b5b03612433576040517f08c379a000000000000000000000000000000000000000000000000000000000815260040161242a90613547565b60405180910390fd5b6002600481111561244757612446612709565b5b81600481111561245a57612459612709565b5b0361249a576040517f08c379a0000000000000000000000000000000000000000000000000000000008152600401612491906135af565b60405180910390fd5b600360048111156124ae576124ad612709565b5b8160048111156124c1576124c0612709565b5b03612501576040517f08c379a00000000000000000000000000000000000000000000000000000000081526004016124f89061363d565b60405180910390fd5b5b50565b5f807f7fffffffffffffffffffffffffffffff5d576e7357a4501ddfe92f46681b20a0835f1c111561253d575f6003915091506125d4565b5f6001878787876040515f8152602001604052604051612560949392919061368e565b6020604051602081039080840390855afa158015612580573d5f803e3d5ffd5b5050506020604051035190505f73ffffffffffffffffffffffffffffffffffffffff168173ffffffffffffffffffffffffffffffffffffffff16036125cc575f600192509250506125d4565b805f92509250505b94509492505050565b5f604051905090565b5f80fd5b5f80fd5b5f819050919050565b612600816125ee565b811461260a575f80fd5b50565b5f8135905061261b816125f7565b92915050565b5f805f60608486031215612638576126376125e6565b5b5f6126458682870161260d565b93505060206126568682870161260d565b92505060406126678682870161260d565b9150509250925092565b5f73ffffffffffffffffffffffffffffffffffffffff82169050919050565b5f61269a82612671565b9050919050565b6126aa81612690565b81146126b4575f80fd5b50565b5f813590506126c5816126a1565b92915050565b5f80604083850312156126e1576126e06125e6565b5b5f6126ee858286016126b7565b92505060206126ff8582860161260d565b9150509250929050565b7f4e487b71000000000000000000000000000000000000000000000000000000005f52602160045260245ffd5b6002811061274757612746612709565b5b50565b5f81905061275782612736565b919050565b5f6127668261274a565b9050919050565b6127768161275c565b82525050565b5f60208201905061278f5f83018461276d565b92915050565b5f80fd5b5f80fd5b5f601f19601f8301169050919050565b7f4e487b71000000000000000000000000000000000000000000000000000000005f52604160045260245ffd5b6127e38261279d565b810181811067ffffffffffffffff82111715612802576128016127ad565b5b80604052505050565b5f6128146125dd565b905061282082826127da565b919050565b5f67ffffffffffffffff82111561283f5761283e6127ad565b5b6128488261279d565b9050602081019050919050565b828183375f83830152505050565b5f61287561287084612825565b61280b565b90508281526020810184848401111561289157612890612799565b5b61289c848285612855565b509392505050565b5f82601f8301126128b8576128b7612795565b5b81356128c8848260208601612863565b91505092915050565b5f805f805f805f60e0888a0312156128ec576128eb6125e6565b5b5f6128f98a828b0161260d565b975050602061290a8a828b0161260d565b965050604061291b8a828b0161260d565b955050606061292c8a828b0161260d565b945050608061293d8a828b0161260d565b93505060a061294e8a828b016126b7565b92505060c088013567ffffffffffffffff81111561296f5761296e6125ea565b5b61297b8a828b016128a4565b91505092959891949750929550565b5f8115159050919050565b61299e8161298a565b82525050565b5f6020820190506129b75f830184612995565b92915050565b6129c681612690565b82525050565b5f6020820190506129df5f8301846129bd565b92915050565b6129ee816125ee565b82525050565b5f602082019050612a075f8301846129e5565b92915050565b5f8060408385031215612a2357612a226125e6565b5b5f612a308582860161260d565b9250506020612a418582860161260d565b9150509250929050565b5f60208284031215612a6057612a5f6125e6565b5b5f612a6d8482850161260d565b91505092915050565b5f60208284031215612a8b57612a8a6125e6565b5b5f612a98848285016126b7565b91505092915050565b5f604082019050612ab45f8301856129bd565b612ac160208301846129bd565b9392505050565b612ad18161298a565b8114612adb575f80fd5b50565b5f81519050612aec81612ac8565b92915050565b5f60208284031215612b0757612b066125e6565b5b5f612b1484828501612ade565b91505092915050565b5f82825260208201905092915050565b7f52454a5556453a204e6f7420617070726f7665640000000000000000000000005f82015250565b5f612b61601483612b1d565b9150612b6c82612b2d565b602082019050919050565b5f6020820190508181035f830152612b8e81612b55565b9050919050565b7f52454a5556453a204c697374656420616c7265616479000000000000000000005f82015250565b5f612bc9601683612b1d565b9150612bd482612b95565b602082019050919050565b5f6020820190508181035f830152612bf681612bbd565b9050919050565b7f52656a7576653a2050726963652063616e6e6f74206265207a65726f000000005f82015250565b5f612c31601c83612b1d565b9150612c3c82612bfd565b602082019050919050565b5f6020820190508181035f830152612c5e81612c25565b9050919050565b5f604082019050612c785f8301856129bd565b612c8560208301846129e5565b9392505050565b5f81519050612c9a816125f7565b92915050565b5f60208284031215612cb557612cb46125e6565b5b5f612cc284828501612c8c565b91505092915050565b7f52454a5556453a20496e737566666963656e742062616c616e636500000000005f82015250565b5f612cff601b83612b1d565b9150612d0a82612ccb565b602082019050919050565b5f6020820190508181035f830152612d2c81612cf3565b9050919050565b7f52454a5556453a204e6f74206c697374656400000000000000000000000000005f82015250565b5f612d67601283612b1d565b9150612d7282612d33565b602082019050919050565b5f6020820190508181035f830152612d9481612d5b565b9050919050565b7f52454a5556453a20536861726420616d6f756e742063616e6e6f74206265207a5f8201527f65726f0000000000000000000000000000000000000000000000000000000000602082015250565b5f612df5602383612b1d565b9150612e0082612d9b565b604082019050919050565b5f6020820190508181035f830152612e2281612de9565b9050919050565b7f52454a5556453a20496e73756666696369656e7420736861726420616d6f756e5f8201527f7400000000000000000000000000000000000000000000000000000000000000602082015250565b5f612e83602183612b1d565b9150612e8e82612e29565b604082019050919050565b5f6020820190508181035f830152612eb081612e77565b9050919050565b7f52454a5556453a2050726963652063616e6e6f74206265207a65726f000000005f82015250565b5f612eeb601c83612b1d565b9150612ef682612eb7565b602082019050919050565b5f6020820190508181035f830152612f1881612edf565b9050919050565b7f4f776e61626c653a206e6577206f776e657220697320746865207a65726f20615f8201527f6464726573730000000000000000000000000000000000000000000000000000602082015250565b5f612f79602683612b1d565b9150612f8482612f1f565b604082019050919050565b5f6020820190508181035f830152612fa681612f6d565b9050919050565b7f5061757361626c653a20706175736564000000000000000000000000000000005f82015250565b5f612fe1601083612b1d565b9150612fec82612fad565b602082019050919050565b5f6020820190508181035f83015261300e81612fd5565b9050919050565b5f6080820190506130285f8301876129bd565b61303560208301866129e5565b61304260408301856129e5565b61304f60608301846129e5565b95945050505050565b7f4f776e61626c653a2063616c6c6572206973206e6f7420746865206f776e65725f82015250565b5f61308c602083612b1d565b915061309782613058565b602082019050919050565b5f6020820190508181035f8301526130b981613080565b9050919050565b7f4e487b71000000000000000000000000000000000000000000000000000000005f52601160045260245ffd5b5f6130f7826125ee565b9150613102836125ee565b9250828202613110816125ee565b91508282048414831517613127576131266130c0565b5b5092915050565b7f4e487b71000000000000000000000000000000000000000000000000000000005f52601260045260245ffd5b5f613165826125ee565b9150613170836125ee565b9250826131805761317f61312e565b5b828204905092915050565b5f613195826125ee565b91506131a0836125ee565b92508282039050818111156131b8576131b76130c0565b5b92915050565b5f6060820190506131d15f8301866129bd565b6131de60208301856129e5565b6131eb60408301846129e5565b949350505050565b7f5061757361626c653a206e6f74207061757365640000000000000000000000005f82015250565b5f613227601483612b1d565b9150613232826131f3565b602082019050919050565b5f6020820190508181035f8301526132548161321b565b9050919050565b7f52454a5556453a205369676e6174757265207573656420616c726561647900005f82015250565b5f61328f601e83612b1d565b915061329a8261325b565b602082019050919050565b5f6020820190508181035f8301526132bc81613283565b9050919050565b5f8160601b9050919050565b5f6132d9826132c3565b9050919050565b5f6132ea826132cf565b9050919050565b6133026132fd82612690565b6132e0565b82525050565b5f819050919050565b61332261331d826125ee565b613308565b82525050565b5f61333382886132f1565b60148201915061334382876132f1565b60148201915061335382866132f1565b6014820191506133638285613311565b6020820191506133738284613311565b6020820191508190509695505050505050565b7f52454a55564520496e7375666669656e7420524a562062616c616e63650000005f82015250565b5f6133ba601d83612b1d565b91506133c582613386565b602082019050919050565b5f6020820190508181035f8301526133e7816133ae565b9050919050565b5f60a0820190506134015f8301886129bd565b61340e60208301876129bd565b61341b60408301866129e5565b61342860608301856129e5565b61343560808301846129e5565b9695505050505050565b5f6060820190506134525f8301866129bd565b61345f60208301856129bd565b61346c60408301846129e5565b949350505050565b5f82825260208201905092915050565b50565b5f6134925f83613474565b915061349d82613484565b5f82019050919050565b5f60a0820190506134ba5f8301876129bd565b6134c760208301866129bd565b6134d460408301856129e5565b6134e160608301846129e5565b81810360808301526134f281613487565b905095945050505050565b7f45434453413a20696e76616c6964207369676e617475726500000000000000005f82015250565b5f613531601883612b1d565b915061353c826134fd565b602082019050919050565b5f6020820190508181035f83015261355e81613525565b9050919050565b7f45434453413a20696e76616c6964207369676e6174757265206c656e677468005f82015250565b5f613599601f83612b1d565b91506135a482613565565b602082019050919050565b5f6020820190508181035f8301526135c68161358d565b9050919050565b7f45434453413a20696e76616c6964207369676e6174757265202773272076616c5f8201527f7565000000000000000000000000000000000000000000000000000000000000602082015250565b5f613627602283612b1d565b9150613632826135cd565b604082019050919050565b5f6020820190508181035f8301526136548161361b565b9050919050565b5f819050919050565b61366d8161365b565b82525050565b5f60ff82169050919050565b61368881613673565b82525050565b5f6080820190506136a15f830187613664565b6136ae602083018661367f565b6136bb6040830185613664565b6136c86060830184613664565b9594505050505056fea2646970667358221220b0df1c914ad00e97f30b7dcba03ce7e17a9c24daf03dc3b17cc7caa4842c163c64736f6c63430008140033",
  "linkReferences": {},
  "deployedLinkReferences": {}
}