{
  "_format": "hh-sol-artifact-1",
  "contractName": "ShardMarketplace",
  "sourceName": "contracts/ShardMarketplace.sol",
  "abi": [
    {
      "inputs": [
        {
          "internalType": "contract IProductShards",
          "name": "productShard_",
          "type": "address"
        },
        {
          "internalType": "contract IRejuveToken",
          "name": "rejuveToken_",
          "type": "address"
        }
      ],
      "stateMutability": "nonpayable",
      "type": "constructor"
    },
    {
      "anonymous": false,
      "inputs": [
        {
          "indexed": false,
          "internalType": "address",
          "name": "holder",
          "type": "address"
        },
        {
          "indexed": false,
          "internalType": "uint256",
          "name": "productUID",
          "type": "uint256"
        }
      ],
      "name": "CancelList",
      "type": "event"
    },
    {
      "anonymous": false,
      "inputs": [
        {
          "indexed": false,
          "internalType": "address",
          "name": "holder",
          "type": "address"
        },
        {
          "indexed": false,
          "internalType": "uint256",
          "name": "productUID",
          "type": "uint256"
        },
        {
          "indexed": false,
          "internalType": "uint256",
          "name": "newPrice",
          "type": "uint256"
        }
      ],
      "name": "ListUpdated",
      "type": "event"
    },
    {
      "anonymous": false,
      "inputs": [
        {
          "indexed": false,
          "internalType": "address",
          "name": "holder",
          "type": "address"
        },
        {
          "indexed": false,
          "internalType": "uint256",
          "name": "productUID",
          "type": "uint256"
        },
        {
          "indexed": false,
          "internalType": "uint256",
          "name": "amount",
          "type": "uint256"
        },
        {
          "indexed": false,
          "internalType": "uint256",
          "name": "price",
          "type": "uint256"
        }
      ],
      "name": "Listed",
      "type": "event"
    },
    {
      "anonymous": false,
      "inputs": [
        {
          "indexed": true,
          "internalType": "address",
          "name": "previousOwner",
          "type": "address"
        },
        {
          "indexed": true,
          "internalType": "address",
          "name": "newOwner",
          "type": "address"
        }
      ],
      "name": "OwnershipTransferred",
      "type": "event"
    },
    {
      "anonymous": false,
      "inputs": [
        {
          "indexed": false,
          "internalType": "address",
          "name": "account",
          "type": "address"
        }
      ],
      "name": "Paused",
      "type": "event"
    },
    {
      "anonymous": false,
      "inputs": [
        {
          "indexed": false,
          "internalType": "address",
          "name": "seller",
          "type": "address"
        },
        {
          "indexed": false,
          "internalType": "address",
          "name": "buyer",
          "type": "address"
        },
        {
          "indexed": false,
          "internalType": "uint256",
          "name": "productUID",
          "type": "uint256"
        },
        {
          "indexed": false,
          "internalType": "uint256",
          "name": "shardAmount",
          "type": "uint256"
        },
        {
          "indexed": false,
          "internalType": "uint256",
          "name": "unitPrice",
          "type": "uint256"
        }
      ],
      "name": "Sold",
      "type": "event"
    },
    {
      "anonymous": false,
      "inputs": [
        {
          "indexed": false,
          "internalType": "address",
          "name": "account",
          "type": "address"
        }
      ],
      "name": "Unpaused",
      "type": "event"
    },
    {
      "inputs": [
        {
          "internalType": "uint256",
          "name": "productUID",
          "type": "uint256"
        },
        {
          "internalType": "uint256",
          "name": "shardAmount",
          "type": "uint256"
        },
        {
          "internalType": "uint256",
          "name": "id",
          "type": "uint256"
        },
        {
          "internalType": "uint256",
          "name": "coupon",
          "type": "uint256"
        },
        {
          "internalType": "uint256",
          "name": "nonce",
          "type": "uint256"
        },
        {
          "internalType": "address",
          "name": "seller",
          "type": "address"
        },
        {
          "internalType": "bytes",
          "name": "signature",
          "type": "bytes"
        }
      ],
      "name": "buy",
      "outputs": [],
      "stateMutability": "nonpayable",
      "type": "function"
    },
    {
      "inputs": [
        {
          "internalType": "uint256",
          "name": "productUID",
          "type": "uint256"
        }
      ],
      "name": "cancelList",
      "outputs": [],
      "stateMutability": "nonpayable",
      "type": "function"
    },
    {
      "inputs": [
        {
          "internalType": "address",
          "name": "holder",
          "type": "address"
        },
        {
          "internalType": "uint256",
          "name": "productUID",
          "type": "uint256"
        }
      ],
      "name": "getLisitingStatus",
      "outputs": [
        {
          "internalType": "enum ShardMarketplace.ListingStatus",
          "name": "",
          "type": "uint8"
        }
      ],
      "stateMutability": "view",
      "type": "function"
    },
    {
      "inputs": [
        {
          "internalType": "address",
          "name": "holder",
          "type": "address"
        },
        {
          "internalType": "uint256",
          "name": "productUID",
          "type": "uint256"
        }
      ],
      "name": "getShardPrice",
      "outputs": [
        {
          "internalType": "uint256",
          "name": "",
          "type": "uint256"
        }
      ],
      "stateMutability": "view",
      "type": "function"
    },
    {
      "inputs": [
        {
          "internalType": "uint256",
          "name": "productUID",
          "type": "uint256"
        },
        {
          "internalType": "uint256",
          "name": "shardPrice",
          "type": "uint256"
        },
        {
          "internalType": "uint256",
          "name": "id",
          "type": "uint256"
        }
      ],
      "name": "listShard",
      "outputs": [],
      "stateMutability": "nonpayable",
      "type": "function"
    },
    {
      "inputs": [],
      "name": "owner",
      "outputs": [
        {
          "internalType": "address",
          "name": "",
          "type": "address"
        }
      ],
      "stateMutability": "view",
      "type": "function"
    },
    {
      "inputs": [],
      "name": "pause",
      "outputs": [],
      "stateMutability": "nonpayable",
      "type": "function"
    },
    {
      "inputs": [],
      "name": "paused",
      "outputs": [
        {
          "internalType": "bool",
          "name": "",
          "type": "bool"
        }
      ],
      "stateMutability": "view",
      "type": "function"
    },
    {
      "inputs": [],
      "name": "renounceOwnership",
      "outputs": [],
      "stateMutability": "nonpayable",
      "type": "function"
    },
    {
      "inputs": [
        {
          "internalType": "address",
          "name": "newOwner",
          "type": "address"
        }
      ],
      "name": "transferOwnership",
      "outputs": [],
      "stateMutability": "nonpayable",
      "type": "function"
    },
    {
      "inputs": [],
      "name": "unpause",
      "outputs": [],
      "stateMutability": "nonpayable",
      "type": "function"
    },
    {
      "inputs": [
        {
          "internalType": "uint256",
          "name": "productUID",
          "type": "uint256"
        },
        {
          "internalType": "uint256",
          "name": "newPrice",
          "type": "uint256"
        }
      ],
      "name": "updateList",
      "outputs": [],
      "stateMutability": "nonpayable",
      "type": "function"
    }
  ],
  "bytecode": "0x60806040523480156200001157600080fd5b5060405162003ba638038062003ba68339818101604052810190620000379190620002e0565b620000576200004b6200014e60201b60201c565b6200015660201b60201c565b60008060146101000a81548160ff0219169083151502179055506200008d6723ba7e20c095161060c01b6200021a60201b60201c565b620000a866208d1b903bdb1c60c01b6200021a60201b60201c565b81600160006101000a81548173ffffffffffffffffffffffffffffffffffffffff021916908373ffffffffffffffffffffffffffffffffffffffff16021790555062000105673bdb8ee37432404160c01b6200021a60201b60201c565b80600260006101000a81548173ffffffffffffffffffffffffffffffffffffffff021916908373ffffffffffffffffffffffffffffffffffffffff160217905550505062000327565b600033905090565b60008060009054906101000a900473ffffffffffffffffffffffffffffffffffffffff169050816000806101000a81548173ffffffffffffffffffffffffffffffffffffffff021916908373ffffffffffffffffffffffffffffffffffffffff1602179055508173ffffffffffffffffffffffffffffffffffffffff168173ffffffffffffffffffffffffffffffffffffffff167f8be0079c531659141344cd1fd0a4f28419497f9722a3daafe3b4186f6b6457e060405160405180910390a35050565b50565b600080fd5b600073ffffffffffffffffffffffffffffffffffffffff82169050919050565b60006200024f8262000222565b9050919050565b6000620002638262000242565b9050919050565b620002758162000256565b81146200028157600080fd5b50565b60008151905062000295816200026a565b92915050565b6000620002a88262000242565b9050919050565b620002ba816200029b565b8114620002c657600080fd5b50565b600081519050620002da81620002af565b92915050565b60008060408385031215620002fa57620002f96200021d565b5b60006200030a8582860162000284565b92505060206200031d85828601620002c9565b9150509250929050565b61386f80620003376000396000f3fe608060405234801561001057600080fd5b50600436106100b45760003560e01c80638456cb59116100715780638456cb59146101535780638da5cb5b1461015d57806398438e201461017b578063a1a611cb146101ab578063c9c9d2d8146101c7578063f2fde38b146101e3576100b4565b80630327e0b6146100b95780633b30ce40146100d55780633f4ba83a14610105578063554b4f0f1461010f5780635c975abb1461012b578063715018a614610149575b600080fd5b6100d360048036038101906100ce9190612652565b6101ff565b005b6100ef60048036038101906100ea9190612703565b610711565b6040516100fc91906127ba565b60405180910390f35b61010d6107b5565b005b6101296004803603810190610124919061291b565b61082a565b005b610133610e7c565b60405161014091906129f4565b60405180910390f35b610151610e92565b005b61015b610ea6565b005b610165610f1c565b6040516101729190612a1e565b60405180910390f35b61019560048036038101906101909190612703565b610f45565b6040516101a29190612a48565b60405180910390f35b6101c560048036038101906101c09190612a63565b610fdc565b005b6101e160048036038101906101dc9190612aa3565b611257565b005b6101fd60048036038101906101f89190612ad0565b61143d565b005b610213677aa87a71bd2a3c6d60c01b6114c0565b61022767d5bba21a06799dd260c01b6114c0565b61023b67cabbfc1a08a315c160c01b6114c0565b61024f678957bbe9310e7c2f60c01b6114c0565b610263677e4a93eea53e002960c01b6114c0565b600160009054906101000a900473ffffffffffffffffffffffffffffffffffffffff1673ffffffffffffffffffffffffffffffffffffffff1663e985e9c56102a96114c3565b306040518363ffffffff1660e01b81526004016102c7929190612afd565b602060405180830381865afa1580156102e4573d6000803e3d6000fd5b505050506040513d601f19601f820116820180604052508101906103089190612b52565b610347576040517f08c379a000000000000000000000000000000000000000000000000000000000815260040161033e90612bdc565b60405180910390fd5b61035b67795e7cad7e87d15460c01b6114c0565b61036f67931956004f2628ab60c01b6114c0565b6103836746cf784314870b2560c01b6114c0565b6103976707691121b9b6af6d60c01b6114c0565b61039f6114cb565b6103b3670b77d27bad12706560c01b6114c0565b6103c767c8694d5308f3766160c01b6114c0565b6103db6720f1d74e8c70ff1d60c01b6114c0565b6103ef67930a7ef095f017e160c01b6114c0565b61040367e1f6eae4115a9b0a60c01b6114c0565b6000600181111561041757610416612743565b5b600360006104236114c3565b73ffffffffffffffffffffffffffffffffffffffff1673ffffffffffffffffffffffffffffffffffffffff168152602001908152602001600020600085815260200190815260200160002060009054906101000a900460ff16600181111561048e5761048d612743565b5b146104ce576040517f08c379a00000000000000000000000000000000000000000000000000000000081526004016104c590612c48565b60405180910390fd5b6104e2679a025bc7a61f700560c01b6114c0565b6104f667e4abe9b509f52d4c60c01b6114c0565b61050a6731c97f31bbead80060c01b6114c0565b61051e67ffcb3666168165be60c01b6114c0565b60008211610561576040517f08c379a000000000000000000000000000000000000000000000000000000000815260040161055890612cb4565b60405180910390fd5b610575670d1cf4f92618d4c560c01b6114c0565b6105896709d22bca9a872c5160c01b6114c0565b61059d67a2a5665de9adbee760c01b6114c0565b6000600160009054906101000a900473ffffffffffffffffffffffffffffffffffffffff1673ffffffffffffffffffffffffffffffffffffffff1662fdd58e6105e46114c3565b846040518363ffffffff1660e01b8152600401610602929190612cd4565b602060405180830381865afa15801561061f573d6000803e3d6000fd5b505050506040513d601f19601f820116820180604052508101906106439190612d12565b905061065967a6445b4836c1734860c01b6114c0565b61066d672e2af40fcae53e9160c01b6114c0565b610681678d474966ffa7bc4e60c01b6114c0565b600081116106c4576040517f08c379a00000000000000000000000000000000000000000000000000000000081526004016106bb90612d8b565b60405180910390fd5b6106d867c4ee1c3fb37d7c8560c01b6114c0565b6106ec67b67a981f748207ad60c01b6114c0565b6107006705d2cd1226ac097760c01b6114c0565b61070b848483611515565b50505050565b60006107276773fc980d5054a21360c01b6114c0565b61073b6798bb7c7311b8eef260c01b6114c0565b61074f67dd0f1068b07a6cdb60c01b6114c0565b600360008473ffffffffffffffffffffffffffffffffffffffff1673ffffffffffffffffffffffffffffffffffffffff168152602001908152602001600020600083815260200190815260200160002060009054906101000a900460ff16905092915050565b6107c9677735efeee3af996060c01b6114c0565b6107d161169e565b6107e567570b2fdd006a98a460c01b6114c0565b6107f967df6f3ce428d832e360c01b6114c0565b61080c66cffb3e4240557360c01b6114c0565b6108206739b4e0935b0a3f2060c01b6114c0565b61082861171c565b565b61083e67d63ca9f58879684b60c01b6114c0565b8682610854673e685b11b22fa07560c01b6114c0565b6108686746d92fef055326bc60c01b6114c0565b61087c67a4f7eed970a27ac660c01b6114c0565b61089067db44cd8675098fd160c01b6114c0565b6001808111156108a3576108a2612743565b5b600360008373ffffffffffffffffffffffffffffffffffffffff1673ffffffffffffffffffffffffffffffffffffffff168152602001908152602001600020600084815260200190815260200160002060009054906101000a900460ff16600181111561091357610912612743565b5b14610953576040517f08c379a000000000000000000000000000000000000000000000000000000000815260040161094a90612df7565b60405180910390fd5b610967672e0089b42dbb0c9d60c01b6114c0565b61097b67ff197657f6b3036a60c01b6114c0565b61098f67dc04c407fe22cfc960c01b6114c0565b6109a367127d8caaa5a4cde660c01b6114c0565b6109ab6114cb565b6109bf67cf69059edd4a3cfd60c01b6114c0565b6109d367de363bd846790e0660c01b6114c0565b6109e767c48f204034b4ed2b60c01b6114c0565b6109fb67ed30f39342c2aada60c01b6114c0565b610a0f672b1226f6d6cf220860c01b6114c0565b60008811610a52576040517f08c379a0000000000000000000000000000000000000000000000000000000008152600401610a4990612e89565b60405180910390fd5b610a6667f12c5d8f5d0d60b360c01b6114c0565b610a7a67cea47d749861a83260c01b6114c0565b610a8e67fd38876e63043a5d60c01b6114c0565b610aa267219e7413b1c1818c60c01b6114c0565b600160009054906101000a900473ffffffffffffffffffffffffffffffffffffffff1673ffffffffffffffffffffffffffffffffffffffff1662fdd58e85896040518363ffffffff1660e01b8152600401610afe929190612cd4565b602060405180830381865afa158015610b1b573d6000803e3d6000fd5b505050506040513d601f19601f82011682018060405250810190610b3f9190612d12565b881115610b81576040517f08c379a0000000000000000000000000000000000000000000000000000000008152600401610b7890612f1b565b60405180910390fd5b610b956756bf5367b69a5a3960c01b6114c0565b610ba9672501a82a0a9381fe60c01b6114c0565b610bbd678bd034786abedc0a60c01b6114c0565b6000610bc9858b610f45565b9050610bdf67429f8944090186e060c01b6114c0565b610bf36722076ffde228401060c01b6114c0565b6000818a610c019190612f6a565b9050610c176793f46dd7d648020060c01b6114c0565b610c2b67892c4d24c8f6c69e60c01b6114c0565b610c3685898961177e565b15610db857610c4f67c797056c2917c54c60c01b6114c0565b610c636751ea2f260e1ec34060c01b6114c0565b610c7767b7977ffd3ff6ccd160c01b6114c0565b6000610c84868a8a61186e565b9050610c9a67a22992c02d5e793260c01b6114c0565b610cae678c7d89b2e58e4def60c01b6114c0565b8015610d6957610cc867ff4797fe68765e2e60c01b6114c0565b610cdc6750fc08c69de8fd0b60c01b6114c0565b610cf0670e7ea228f60bb57660c01b6114c0565b6000612710838b610d019190612f6a565b610d0b9190612fdb565b9050610d216765aeb4872c75a04c60c01b6114c0565b8083610d2d919061300c565b9250610d43678700630515c4b14160c01b6114c0565b610d5767e0b630478db00cc860c01b6114c0565b610d6388848d8f611b18565b50610db2565b610d7d67999257e3ed03b7e360c01b6114c0565b610d9167e7732cad3ee7206d60c01b6114c0565b610da567af5a6ea2805f1f1160c01b6114c0565b610db187838c8e611b18565b5b50610e01565b610dcc6795d58398eaa33d6a60c01b6114c0565b610de0670f028af672a4a6a260c01b6114c0565b610df467493be318659c8b2360c01b6114c0565b610e0086828b8d611b18565b5b610e1567c63947a2510d6c6360c01b6114c0565b610e2967e69b368d4caed87960c01b6114c0565b7f9be8a5ca22b7e6e81f04b5879f0248227bb770114291bd47dfaee4c3a82ad60e86610e536114c3565b8d8d86604051610e67959493929190613040565b60405180910390a15050505050505050505050565b60008060149054906101000a900460ff16905090565b610e9a61169e565b610ea46000611f32565b565b610eba67ff1444755521623860c01b6114c0565b610ec261169e565b610ed66715fd9cf4a5c5eccc60c01b6114c0565b610eea6774ae47d82a47d35460c01b6114c0565b610efe6707a9489adce29b2060c01b6114c0565b610f1267fce3f563f6b0fcf460c01b6114c0565b610f1a611ff6565b565b60008060009054906101000a900473ffffffffffffffffffffffffffffffffffffffff16905090565b6000610f5b67d6ec54bbbbb9496860c01b6114c0565b610f6f67c6a37d2fbe43f0d260c01b6114c0565b610f83672dd777136094048960c01b6114c0565b600460008473ffffffffffffffffffffffffffffffffffffffff1673ffffffffffffffffffffffffffffffffffffffff168152602001908152602001600020600083815260200190815260200160002054905092915050565b610ff0674cf582043d42852b60c01b6114c0565b81610ff96114c3565b61100d673e685b11b22fa07560c01b6114c0565b6110216746d92fef055326bc60c01b6114c0565b61103567a4f7eed970a27ac660c01b6114c0565b61104967db44cd8675098fd160c01b6114c0565b60018081111561105c5761105b612743565b5b600360008373ffffffffffffffffffffffffffffffffffffffff1673ffffffffffffffffffffffffffffffffffffffff168152602001908152602001600020600084815260200190815260200160002060009054906101000a900460ff1660018111156110cc576110cb612743565b5b1461110c576040517f08c379a000000000000000000000000000000000000000000000000000000000815260040161110390612df7565b60405180910390fd5b611120672e0089b42dbb0c9d60c01b6114c0565b61113467ff197657f6b3036a60c01b6114c0565b6111486788950af71715ea5b60c01b6114c0565b61115c6770c7116aec92505b60c01b6114c0565b6111646114cb565b61117867d13c4b7add0e67a160c01b6114c0565b61118c678f6047f758d268b160c01b6114c0565b6111a0676566c76f3f3dbede60c01b6114c0565b6111b4677a91228d08fe758d60c01b6114c0565b6111c867864b2d443205000760c01b6114c0565b6000831161120b576040517f08c379a0000000000000000000000000000000000000000000000000000000008152600401611202906130df565b60405180910390fd5b61121f676cf3c1859691021260c01b6114c0565b6112336772acdc5692fa9a6360c01b6114c0565b61124767c51b7e44d7b174b260c01b6114c0565b6112518484612059565b50505050565b61126b678b27f5dc650e411f60c01b6114c0565b806112746114c3565b611288673e685b11b22fa07560c01b6114c0565b61129c6746d92fef055326bc60c01b6114c0565b6112b067a4f7eed970a27ac660c01b6114c0565b6112c467db44cd8675098fd160c01b6114c0565b6001808111156112d7576112d6612743565b5b600360008373ffffffffffffffffffffffffffffffffffffffff1673ffffffffffffffffffffffffffffffffffffffff168152602001908152602001600020600084815260200190815260200160002060009054906101000a900460ff16600181111561134757611346612743565b5b14611387576040517f08c379a000000000000000000000000000000000000000000000000000000000815260040161137e90612df7565b60405180910390fd5b61139b672e0089b42dbb0c9d60c01b6114c0565b6113af67ff197657f6b3036a60c01b6114c0565b6113c36762670d42ea01cd6060c01b6114c0565b6113d7678bdb8d47b5b6aa8460c01b6114c0565b6113df6114cb565b6113f36786676f0cd1f91c7660c01b6114c0565b61140767c879db560c31604b60c01b6114c0565b61141b6715657a353f9f5bdb60c01b6114c0565b61142f67d90ac63d8fd73d8560c01b6114c0565b6114388361214b565b505050565b61144561169e565b600073ffffffffffffffffffffffffffffffffffffffff168173ffffffffffffffffffffffffffffffffffffffff16036114b4576040517f08c379a00000000000000000000000000000000000000000000000000000000081526004016114ab90613171565b60405180910390fd5b6114bd81611f32565b50565b50565b600033905090565b6114d3610e7c565b15611513576040517f08c379a000000000000000000000000000000000000000000000000000000000815260040161150a906131dd565b60405180910390fd5b565b611529676a1ddba0d36da15b60c01b6114c0565b61153d6789e5433aa19b48bd60c01b6114c0565b60016003600061154b6114c3565b73ffffffffffffffffffffffffffffffffffffffff1673ffffffffffffffffffffffffffffffffffffffff168152602001908152602001600020600085815260200190815260200160002060006101000a81548160ff021916908360018111156115b8576115b7612743565b5b02179055506115d167c6d3d50a98ac07dc60c01b6114c0565b81600460006115de6114c3565b73ffffffffffffffffffffffffffffffffffffffff1673ffffffffffffffffffffffffffffffffffffffff168152602001908152602001600020600085815260200190815260200160002081905550611641670a08707e0870f89160c01b6114c0565b611655678da0658119d57fac60c01b6114c0565b7f03dec9cb5eb28fc88294be525eef5c4e1c3f2ca49fbe9c31a5ae6f11945aaec161167e6114c3565b84838560405161169194939291906131fd565b60405180910390a1505050565b6116a66114c3565b73ffffffffffffffffffffffffffffffffffffffff166116c4610f1c565b73ffffffffffffffffffffffffffffffffffffffff161461171a576040517f08c379a00000000000000000000000000000000000000000000000000000000081526004016117119061328e565b60405180910390fd5b565b6117246122cf565b60008060146101000a81548160ff0219169083151502179055507f5db9ee0a495bf2e6ff9c91a7834c1ba4fdd244a5e8aa4e537bd38aeae4b073aa6117676114c3565b6040516117749190612a1e565b60405180910390a1565b60006117946764a16103fd925a3260c01b6114c0565b6117a867bd42b6e64c040c1260c01b6114c0565b6117bc67517d81cd9f213f0660c01b6114c0565b600083141580156117cf57506000845114155b80156117dc575060008214155b15611826576117f567dd4fe9d12c8317ff60c01b6114c0565b6118096721cf0bed5e9f3c7060c01b6114c0565b61181d67b6b8758fadec96d660c01b6114c0565b60019050611867565b61183a670a017a1bcded387560c01b6114c0565b61184e67e02675fe9a89ad9260c01b6114c0565b6118626722830cd7e57b096860c01b6114c0565b600090505b9392505050565b600061188467714ac01fe3c378a560c01b6114c0565b611898671d663255bf04f54f60c01b6114c0565b6118ac67c999e3ca08b6c12960c01b6114c0565b6118c0672695e82375dc529960c01b6114c0565b6005600083815260200190815260200160002060009054906101000a900460ff1615611921576040517f08c379a0000000000000000000000000000000000000000000000000000000008152600401611918906132fa565b60405180910390fd5b611935672ba1f36494ab1e8d60c01b6114c0565b61194967f7fd1bf6f942461560c01b6114c0565b60016005600084815260200190815260200160002060006101000a81548160ff021916908315150217905550611989670714c0ed833b80d460c01b6114c0565b61199d67f70e1a63890fa51960c01b6114c0565b60006119a7610f1c565b6119af6114c3565b3086866040516020016119c6959493929190613383565b6040516020818303038152906040528051906020012090506119f267492c562b3ee4633d60c01b6114c0565b611a0667cfd35db7eb9b07c960c01b6114c0565b6000611a2386611a1584612318565b61234890919063ffffffff16565b9050611a39679210b304f68f232a60c01b6114c0565b611a4d67b49bd1b1d215dad160c01b6114c0565b8073ffffffffffffffffffffffffffffffffffffffff16611a6c610f1c565b73ffffffffffffffffffffffffffffffffffffffff1603611ace57611a9b67c3445a7c01074bf460c01b6114c0565b611aaf676353678ce50ef2c160c01b6114c0565b611ac367eee6ec3d20f7d64f60c01b6114c0565b600192505050611b11565b611ae26756389742b98e00d260c01b6114c0565b611af66767f1e271c0c61b3b60c01b6114c0565b611b0a678e3441854af66a0f60c01b6114c0565b6000925050505b9392505050565b611b2c67493af3954679506560c01b6114c0565b611b4067a7faad441e9169c460c01b6114c0565b611b546780c83deea01cec6c60c01b6114c0565b611b6867a93387eefdab9f1c60c01b6114c0565b82600260009054906101000a900473ffffffffffffffffffffffffffffffffffffffff1673ffffffffffffffffffffffffffffffffffffffff166370a08231611baf6114c3565b6040518263ffffffff1660e01b8152600401611bcb9190612a1e565b602060405180830381865afa158015611be8573d6000803e3d6000fd5b505050506040513d601f19601f82011682018060405250810190611c0c9190612d12565b1015611c4d576040517f08c379a0000000000000000000000000000000000000000000000000000000008152600401611c449061342e565b60405180910390fd5b611c616728deac0b251880a960c01b6114c0565b611c75676c50d7c7a0de8d6060c01b6114c0565b611c89672d283816c370d70d60c01b6114c0565b611c9d67cabc0e4d6351543e60c01b6114c0565b82600260009054906101000a900473ffffffffffffffffffffffffffffffffffffffff1673ffffffffffffffffffffffffffffffffffffffff1663dd62ed3e611ce46114c3565b306040518363ffffffff1660e01b8152600401611d02929190612afd565b602060405180830381865afa158015611d1f573d6000803e3d6000fd5b505050506040513d601f19601f82011682018060405250810190611d439190612d12565b1015611d84576040517f08c379a0000000000000000000000000000000000000000000000000000000008152600401611d7b90612bdc565b60405180910390fd5b611d9867a872633ad081e21b60c01b6114c0565b611dac6746dd752b678d60f260c01b6114c0565b611dc067f93596ae8005d90b60c01b6114c0565b600260009054906101000a900473ffffffffffffffffffffffffffffffffffffffff1673ffffffffffffffffffffffffffffffffffffffff166323b872dd611e066114c3565b86866040518463ffffffff1660e01b8152600401611e269392919061344e565b6020604051808303816000875af1158015611e45573d6000803e3d6000fd5b505050506040513d601f19601f82011682018060405250810190611e699190612b52565b50611e7e67b5d59940214dd8f860c01b6114c0565b611e92673649f4e406f1526360c01b6114c0565b600160009054906101000a900473ffffffffffffffffffffffffffffffffffffffff1673ffffffffffffffffffffffffffffffffffffffff1663f242432a85611ed96114c3565b85856040518563ffffffff1660e01b8152600401611efa94939291906134bc565b600060405180830381600087803b158015611f1457600080fd5b505af1158015611f28573d6000803e3d6000fd5b5050505050505050565b60008060009054906101000a900473ffffffffffffffffffffffffffffffffffffffff169050816000806101000a81548173ffffffffffffffffffffffffffffffffffffffff021916908373ffffffffffffffffffffffffffffffffffffffff1602179055508173ffffffffffffffffffffffffffffffffffffffff168173ffffffffffffffffffffffffffffffffffffffff167f8be0079c531659141344cd1fd0a4f28419497f9722a3daafe3b4186f6b6457e060405160405180910390a35050565b611ffe6114cb565b6001600060146101000a81548160ff0219169083151502179055507f62e78cea01bee320cd4e420270b5ea74000d11b0c9f74754ebdbfc544b05a2586120426114c3565b60405161204f9190612a1e565b60405180910390a1565b61206d67af5356d5e14d115e60c01b6114c0565b61208167a3267145069fb01560c01b6114c0565b806004600061208e6114c3565b73ffffffffffffffffffffffffffffffffffffffff1673ffffffffffffffffffffffffffffffffffffffff1681526020019081526020016000206000848152602001908152602001600020819055506120f1673317fe195dd43b3b60c01b6114c0565b61210567da485d8fe30791f260c01b6114c0565b7ffc9d2807c85b7a265486ebc35d06f40a061b70e147d78e07cb99f887e4e9d88461212e6114c3565b838360405161213f93929190613514565b60405180910390a15050565b61215f67a5179620db8a5adf60c01b6114c0565b612173670f39f0df0ef308a560c01b6114c0565b6000600360006121816114c3565b73ffffffffffffffffffffffffffffffffffffffff1673ffffffffffffffffffffffffffffffffffffffff168152602001908152602001600020600083815260200190815260200160002060006101000a81548160ff021916908360018111156121ee576121ed612743565b5b021790555061220767d8f93e14fe51f6a260c01b6114c0565b6000600460006122156114c3565b73ffffffffffffffffffffffffffffffffffffffff1673ffffffffffffffffffffffffffffffffffffffff1681526020019081526020016000206000838152602001908152602001600020819055506122786762a62d47e779876d60c01b6114c0565b61228c67d451a828455eccde60c01b6114c0565b7f01d61dfd5197b0d775d02d8c8c234a82371b737d15012d195c885d0a59da74756122b56114c3565b826040516122c4929190612cd4565b60405180910390a150565b6122d7610e7c565b612316576040517f08c379a000000000000000000000000000000000000000000000000000000000815260040161230d90613597565b60405180910390fd5b565b60008160405160200161232b9190613639565b604051602081830303815290604052805190602001209050919050565b6000806000612357858561236f565b91509150612364816123c0565b819250505092915050565b60008060418351036123b05760008060006020860151925060408601519150606086015160001a90506123a487828585612526565b945094505050506123b9565b60006002915091505b9250929050565b600060048111156123d4576123d3612743565b5b8160048111156123e7576123e6612743565b5b0315612523576001600481111561240157612400612743565b5b81600481111561241457612413612743565b5b03612454576040517f08c379a000000000000000000000000000000000000000000000000000000000815260040161244b906136ab565b60405180910390fd5b6002600481111561246857612467612743565b5b81600481111561247b5761247a612743565b5b036124bb576040517f08c379a00000000000000000000000000000000000000000000000000000000081526004016124b290613717565b60405180910390fd5b600360048111156124cf576124ce612743565b5b8160048111156124e2576124e1612743565b5b03612522576040517f08c379a0000000000000000000000000000000000000000000000000000000008152600401612519906137a9565b60405180910390fd5b5b50565b6000807f7fffffffffffffffffffffffffffffff5d576e7357a4501ddfe92f46681b20a08360001c11156125615760006003915091506125ff565b60006001878787876040516000815260200160405260405161258694939291906137f4565b6020604051602081039080840390855afa1580156125a8573d6000803e3d6000fd5b505050602060405103519050600073ffffffffffffffffffffffffffffffffffffffff168173ffffffffffffffffffffffffffffffffffffffff16036125f6576000600192509250506125ff565b80600092509250505b94509492505050565b6000604051905090565b600080fd5b600080fd5b6000819050919050565b61262f8161261c565b811461263a57600080fd5b50565b60008135905061264c81612626565b92915050565b60008060006060848603121561266b5761266a612612565b5b60006126798682870161263d565b935050602061268a8682870161263d565b925050604061269b8682870161263d565b9150509250925092565b600073ffffffffffffffffffffffffffffffffffffffff82169050919050565b60006126d0826126a5565b9050919050565b6126e0816126c5565b81146126eb57600080fd5b50565b6000813590506126fd816126d7565b92915050565b6000806040838503121561271a57612719612612565b5b6000612728858286016126ee565b92505060206127398582860161263d565b9150509250929050565b7f4e487b7100000000000000000000000000000000000000000000000000000000600052602160045260246000fd5b6002811061278357612782612743565b5b50565b600081905061279482612772565b919050565b60006127a482612786565b9050919050565b6127b481612799565b82525050565b60006020820190506127cf60008301846127ab565b92915050565b600080fd5b600080fd5b6000601f19601f8301169050919050565b7f4e487b7100000000000000000000000000000000000000000000000000000000600052604160045260246000fd5b612828826127df565b810181811067ffffffffffffffff82111715612847576128466127f0565b5b80604052505050565b600061285a612608565b9050612866828261281f565b919050565b600067ffffffffffffffff821115612886576128856127f0565b5b61288f826127df565b9050602081019050919050565b82818337600083830152505050565b60006128be6128b98461286b565b612850565b9050828152602081018484840111156128da576128d96127da565b5b6128e584828561289c565b509392505050565b600082601f830112612902576129016127d5565b5b81356129128482602086016128ab565b91505092915050565b600080600080600080600060e0888a03121561293a57612939612612565b5b60006129488a828b0161263d565b97505060206129598a828b0161263d565b965050604061296a8a828b0161263d565b955050606061297b8a828b0161263d565b945050608061298c8a828b0161263d565b93505060a061299d8a828b016126ee565b92505060c088013567ffffffffffffffff8111156129be576129bd612617565b5b6129ca8a828b016128ed565b91505092959891949750929550565b60008115159050919050565b6129ee816129d9565b82525050565b6000602082019050612a0960008301846129e5565b92915050565b612a18816126c5565b82525050565b6000602082019050612a336000830184612a0f565b92915050565b612a428161261c565b82525050565b6000602082019050612a5d6000830184612a39565b92915050565b60008060408385031215612a7a57612a79612612565b5b6000612a888582860161263d565b9250506020612a998582860161263d565b9150509250929050565b600060208284031215612ab957612ab8612612565b5b6000612ac78482850161263d565b91505092915050565b600060208284031215612ae657612ae5612612565b5b6000612af4848285016126ee565b91505092915050565b6000604082019050612b126000830185612a0f565b612b1f6020830184612a0f565b9392505050565b612b2f816129d9565b8114612b3a57600080fd5b50565b600081519050612b4c81612b26565b92915050565b600060208284031215612b6857612b67612612565b5b6000612b7684828501612b3d565b91505092915050565b600082825260208201905092915050565b7f52454a5556453a204e6f7420617070726f766564000000000000000000000000600082015250565b6000612bc6601483612b7f565b9150612bd182612b90565b602082019050919050565b60006020820190508181036000830152612bf581612bb9565b9050919050565b7f52454a5556453a204c697374656420616c726561647900000000000000000000600082015250565b6000612c32601683612b7f565b9150612c3d82612bfc565b602082019050919050565b60006020820190508181036000830152612c6181612c25565b9050919050565b7f52656a7576653a2050726963652063616e6e6f74206265207a65726f00000000600082015250565b6000612c9e601c83612b7f565b9150612ca982612c68565b602082019050919050565b60006020820190508181036000830152612ccd81612c91565b9050919050565b6000604082019050612ce96000830185612a0f565b612cf66020830184612a39565b9392505050565b600081519050612d0c81612626565b92915050565b600060208284031215612d2857612d27612612565b5b6000612d3684828501612cfd565b91505092915050565b7f52454a5556453a20496e737566666963656e742062616c616e63650000000000600082015250565b6000612d75601b83612b7f565b9150612d8082612d3f565b602082019050919050565b60006020820190508181036000830152612da481612d68565b9050919050565b7f52454a5556453a204e6f74206c69737465640000000000000000000000000000600082015250565b6000612de1601283612b7f565b9150612dec82612dab565b602082019050919050565b60006020820190508181036000830152612e1081612dd4565b9050919050565b7f52454a5556453a20536861726420616d6f756e742063616e6e6f74206265207a60008201527f65726f0000000000000000000000000000000000000000000000000000000000602082015250565b6000612e73602383612b7f565b9150612e7e82612e17565b604082019050919050565b60006020820190508181036000830152612ea281612e66565b9050919050565b7f52454a5556453a20496e73756666696369656e7420736861726420616d6f756e60008201527f7400000000000000000000000000000000000000000000000000000000000000602082015250565b6000612f05602183612b7f565b9150612f1082612ea9565b604082019050919050565b60006020820190508181036000830152612f3481612ef8565b9050919050565b7f4e487b7100000000000000000000000000000000000000000000000000000000600052601160045260246000fd5b6000612f758261261c565b9150612f808361261c565b9250828202612f8e8161261c565b91508282048414831517612fa557612fa4612f3b565b5b5092915050565b7f4e487b7100000000000000000000000000000000000000000000000000000000600052601260045260246000fd5b6000612fe68261261c565b9150612ff18361261c565b92508261300157613000612fac565b5b828204905092915050565b60006130178261261c565b91506130228361261c565b925082820390508181111561303a57613039612f3b565b5b92915050565b600060a0820190506130556000830188612a0f565b6130626020830187612a0f565b61306f6040830186612a39565b61307c6060830185612a39565b6130896080830184612a39565b9695505050505050565b7f52454a5556453a2050726963652063616e6e6f74206265207a65726f00000000600082015250565b60006130c9601c83612b7f565b91506130d482613093565b602082019050919050565b600060208201905081810360008301526130f8816130bc565b9050919050565b7f4f776e61626c653a206e6577206f776e657220697320746865207a65726f206160008201527f6464726573730000000000000000000000000000000000000000000000000000602082015250565b600061315b602683612b7f565b9150613166826130ff565b604082019050919050565b6000602082019050818103600083015261318a8161314e565b9050919050565b7f5061757361626c653a2070617573656400000000000000000000000000000000600082015250565b60006131c7601083612b7f565b91506131d282613191565b602082019050919050565b600060208201905081810360008301526131f6816131ba565b9050919050565b60006080820190506132126000830187612a0f565b61321f6020830186612a39565b61322c6040830185612a39565b6132396060830184612a39565b95945050505050565b7f4f776e61626c653a2063616c6c6572206973206e6f7420746865206f776e6572600082015250565b6000613278602083612b7f565b915061328382613242565b602082019050919050565b600060208201905081810360008301526132a78161326b565b9050919050565b7f52454a5556453a205369676e6174757265207573656420616c72656164790000600082015250565b60006132e4601e83612b7f565b91506132ef826132ae565b602082019050919050565b60006020820190508181036000830152613313816132d7565b9050919050565b60008160601b9050919050565b60006133328261331a565b9050919050565b600061334482613327565b9050919050565b61335c613357826126c5565b613339565b82525050565b6000819050919050565b61337d6133788261261c565b613362565b82525050565b600061338f828861334b565b60148201915061339f828761334b565b6014820191506133af828661334b565b6014820191506133bf828561336c565b6020820191506133cf828461336c565b6020820191508190509695505050505050565b7f52454a55564520496e7375666669656e7420524a562062616c616e6365000000600082015250565b6000613418601d83612b7f565b9150613423826133e2565b602082019050919050565b600060208201905081810360008301526134478161340b565b9050919050565b60006060820190506134636000830186612a0f565b6134706020830185612a0f565b61347d6040830184612a39565b949350505050565b600082825260208201905092915050565b50565b60006134a6600083613485565b91506134b182613496565b600082019050919050565b600060a0820190506134d16000830187612a0f565b6134de6020830186612a0f565b6134eb6040830185612a39565b6134f86060830184612a39565b818103608083015261350981613499565b905095945050505050565b60006060820190506135296000830186612a0f565b6135366020830185612a39565b6135436040830184612a39565b949350505050565b7f5061757361626c653a206e6f7420706175736564000000000000000000000000600082015250565b6000613581601483612b7f565b915061358c8261354b565b602082019050919050565b600060208201905081810360008301526135b081613574565b9050919050565b600081905092915050565b7f19457468657265756d205369676e6564204d6573736167653a0a333200000000600082015250565b60006135f8601c836135b7565b9150613603826135c2565b601c82019050919050565b6000819050919050565b6000819050919050565b61363361362e8261360e565b613618565b82525050565b6000613644826135eb565b91506136508284613622565b60208201915081905092915050565b7f45434453413a20696e76616c6964207369676e61747572650000000000000000600082015250565b6000613695601883612b7f565b91506136a08261365f565b602082019050919050565b600060208201905081810360008301526136c481613688565b9050919050565b7f45434453413a20696e76616c6964207369676e6174757265206c656e67746800600082015250565b6000613701601f83612b7f565b915061370c826136cb565b602082019050919050565b60006020820190508181036000830152613730816136f4565b9050919050565b7f45434453413a20696e76616c6964207369676e6174757265202773272076616c60008201527f7565000000000000000000000000000000000000000000000000000000000000602082015250565b6000613793602283612b7f565b915061379e82613737565b604082019050919050565b600060208201905081810360008301526137c281613786565b9050919050565b6137d28161360e565b82525050565b600060ff82169050919050565b6137ee816137d8565b82525050565b600060808201905061380960008301876137c9565b61381660208301866137e5565b61382360408301856137c9565b61383060608301846137c9565b9594505050505056fea26469706673582212200830309a05e32ef0bc6732090f568ea6ab1dc25549abcf58b69baa2d6350cdc064736f6c63430008120033",
  "linkReferences": {},
  "deployedLinkReferences": {}
}