{
  "_format": "hh-sol-artifact-1",
  "contractName": "ProfitDistribution",
  "sourceName": "contracts/ProfitDistribution.sol",
  "abi": [
    {
      "inputs": [
        {
          "internalType": "address",
          "name": "rejuveToken_",
          "type": "address"
        },
        {
          "internalType": "address",
          "name": "productShards_",
          "type": "address"
        }
      ],
      "stateMutability": "nonpayable",
      "type": "constructor"
    },
    {
      "anonymous": false,
      "inputs": [
        {
          "indexed": true,
          "internalType": "address",
          "name": "previousOwner",
          "type": "address"
        },
        {
          "indexed": true,
          "internalType": "address",
          "name": "newOwner",
          "type": "address"
        }
      ],
      "name": "OwnershipTransferred",
      "type": "event"
    },
    {
      "anonymous": false,
      "inputs": [
        {
          "indexed": false,
          "internalType": "address",
          "name": "account",
          "type": "address"
        }
      ],
      "name": "Paused",
      "type": "event"
    },
    {
      "anonymous": false,
      "inputs": [
        {
          "indexed": false,
          "internalType": "address",
          "name": "sender",
          "type": "address"
        },
        {
          "indexed": false,
          "internalType": "uint256",
          "name": "productUID",
          "type": "uint256"
        },
        {
          "indexed": false,
          "internalType": "uint256",
          "name": "amount",
          "type": "uint256"
        }
      ],
      "name": "PaymentReceived",
      "type": "event"
    },
    {
      "anonymous": false,
      "inputs": [
        {
          "indexed": false,
          "internalType": "address",
          "name": "account",
          "type": "address"
        }
      ],
      "name": "Unpaused",
      "type": "event"
    },
    {
      "anonymous": false,
      "inputs": [
        {
          "indexed": false,
          "internalType": "address",
          "name": "holder",
          "type": "address"
        },
        {
          "indexed": false,
          "internalType": "uint256",
          "name": "productUID",
          "type": "uint256"
        },
        {
          "indexed": false,
          "internalType": "uint256",
          "name": "amount",
          "type": "uint256"
        }
      ],
      "name": "Withdrawal",
      "type": "event"
    },
    {
      "inputs": [
        {
          "internalType": "uint256",
          "name": "productUID",
          "type": "uint256"
        }
      ],
      "name": "_getShardBalance",
      "outputs": [
        {
          "internalType": "uint256",
          "name": "",
          "type": "uint256"
        }
      ],
      "stateMutability": "view",
      "type": "function"
    },
    {
      "inputs": [
        {
          "internalType": "uint256",
          "name": "productUID",
          "type": "uint256"
        },
        {
          "internalType": "uint256",
          "name": "amount",
          "type": "uint256"
        }
      ],
      "name": "deposit",
      "outputs": [],
      "stateMutability": "nonpayable",
      "type": "function"
    },
    {
      "inputs": [
        {
          "internalType": "address",
          "name": "holder",
          "type": "address"
        },
        {
          "internalType": "uint256",
          "name": "productUID",
          "type": "uint256"
        }
      ],
      "name": "getHolderLastPoint",
      "outputs": [
        {
          "internalType": "uint256",
          "name": "",
          "type": "uint256"
        }
      ],
      "stateMutability": "view",
      "type": "function"
    },
    {
      "inputs": [
        {
          "internalType": "uint256",
          "name": "productUID",
          "type": "uint256"
        }
      ],
      "name": "getProductEarning",
      "outputs": [
        {
          "internalType": "uint256",
          "name": "",
          "type": "uint256"
        }
      ],
      "stateMutability": "view",
      "type": "function"
    },
    {
      "inputs": [
        {
          "internalType": "uint256",
          "name": "productUID",
          "type": "uint256"
        }
      ],
      "name": "getTotalWithdrawal",
      "outputs": [
        {
          "internalType": "uint256",
          "name": "",
          "type": "uint256"
        }
      ],
      "stateMutability": "view",
      "type": "function"
    },
    {
      "inputs": [],
      "name": "owner",
      "outputs": [
        {
          "internalType": "address",
          "name": "",
          "type": "address"
        }
      ],
      "stateMutability": "view",
      "type": "function"
    },
    {
      "inputs": [],
      "name": "pause",
      "outputs": [],
      "stateMutability": "nonpayable",
      "type": "function"
    },
    {
      "inputs": [],
      "name": "paused",
      "outputs": [
        {
          "internalType": "bool",
          "name": "",
          "type": "bool"
        }
      ],
      "stateMutability": "view",
      "type": "function"
    },
    {
      "inputs": [],
      "name": "renounceOwnership",
      "outputs": [],
      "stateMutability": "nonpayable",
      "type": "function"
    },
    {
      "inputs": [
        {
          "internalType": "address",
          "name": "newOwner",
          "type": "address"
        }
      ],
      "name": "transferOwnership",
      "outputs": [],
      "stateMutability": "nonpayable",
      "type": "function"
    },
    {
      "inputs": [],
      "name": "unpause",
      "outputs": [],
      "stateMutability": "nonpayable",
      "type": "function"
    },
    {
      "inputs": [
        {
          "internalType": "uint256",
          "name": "productUID",
          "type": "uint256"
        }
      ],
      "name": "withdraw",
      "outputs": [],
      "stateMutability": "nonpayable",
      "type": "function"
    }
  ],
  "bytecode": "0x608060405234801562000010575f80fd5b50604051620020e1380380620020e183398181016040528101906200003691906200027b565b620000566200004a6200014b60201b60201c565b6200015260201b60201c565b5f8060146101000a81548160ff0219169083151502179055506200008b674e3c548e331b743260c01b6200021360201b60201c565b620000a767a5d83fc4ab19d6a160c01b6200021360201b60201c565b8160015f6101000a81548173ffffffffffffffffffffffffffffffffffffffff021916908373ffffffffffffffffffffffffffffffffffffffff16021790555062000103677554ff24a8c6d5a760c01b6200021360201b60201c565b8060025f6101000a81548173ffffffffffffffffffffffffffffffffffffffff021916908373ffffffffffffffffffffffffffffffffffffffff1602179055505050620002c0565b5f33905090565b5f805f9054906101000a900473ffffffffffffffffffffffffffffffffffffffff169050815f806101000a81548173ffffffffffffffffffffffffffffffffffffffff021916908373ffffffffffffffffffffffffffffffffffffffff1602179055508173ffffffffffffffffffffffffffffffffffffffff168173ffffffffffffffffffffffffffffffffffffffff167f8be0079c531659141344cd1fd0a4f28419497f9722a3daafe3b4186f6b6457e060405160405180910390a35050565b50565b5f80fd5b5f73ffffffffffffffffffffffffffffffffffffffff82169050919050565b5f62000245826200021a565b9050919050565b620002578162000239565b811462000262575f80fd5b50565b5f8151905062000275816200024c565b92915050565b5f806040838503121562000294576200029362000216565b5b5f620002a38582860162000265565b9250506020620002b68582860162000265565b9150509250929050565b611e1380620002ce5f395ff3fe608060405234801561000f575f80fd5b50600436106100b2575f3560e01c80638456cb591161006f5780638456cb59146101645780638da5cb5b1461016e5780639734c3351461018c578063e2bbb158146101bc578063f2fde38b146101d8578063f5ed8b8a146101f4576100b2565b806327770bd0146100b65780632e1a7d4d146100e65780633f4ba83a146101025780635c975abb1461010c578063715018a61461012a57806381fdde0914610134575b5f80fd5b6100d060048036038101906100cb919061149e565b610224565b6040516100dd91906114d8565b60405180910390f35b61010060048036038101906100fb919061149e565b61027a565b005b61010a61042f565b005b6101146104a5565b604051610121919061150b565b60405180910390f35b6101326104ba565b005b61014e6004803603810190610149919061149e565b6104cd565b60405161015b91906114d8565b60405180910390f35b61016c6107e1565b005b610176610857565b6040516101839190611563565b60405180910390f35b6101a660048036038101906101a191906115a6565b61087e565b6040516101b391906114d8565b60405180910390f35b6101d660048036038101906101d191906115e4565b610910565b005b6101f260048036038101906101ed9190611622565b610a1c565b005b61020e6004803603810190610209919061149e565b610a9e565b60405161021b91906114d8565b60405180910390f35b5f610239677aae3e3557494dc460c01b610af4565b61024d67afeef850372dbf7e60c01b610af4565b610261670cd514b9f99f402860c01b610af4565b60035f8381526020019081526020015f20549050919050565b61028e6788725e5ad4ce448660c01b610af4565b610296610af7565b6102aa67cd63d18443b08b3a60c01b610af4565b6102be67a0ad96cf97ddeb1b60c01b610af4565b6102d267c32c66a18b174dea60c01b610af4565b6102e667fde9c565aed555c660c01b610af4565b6102fa6732571400a7639f1160c01b610af4565b5f60035f8381526020019081526020015f20541161034d576040517f08c379a0000000000000000000000000000000000000000000000000000000008152600401610344906116a7565b60405180910390fd5b61036167791c9499b49a8fbb60c01b610af4565b61037567ba0431ac058ce21b60c01b610af4565b61038967ee095b3ea8eb73ea60c01b610af4565b61039d670a0e9a86d0c613a660c01b610af4565b5f6103a7826104cd565b116103e7576040517f08c379a00000000000000000000000000000000000000000000000000000000081526004016103de9061170f565b60405180910390fd5b6103fb677ce01a99226266cb60c01b610af4565b61040f67bbe5a0013137574e60c01b610af4565b610423677b1b506315309cf660c01b610af4565b61042c81610b41565b50565b61044367e53aa144e1d80cea60c01b610af4565b61044b610eee565b61045f67e704b41c70ade26f60c01b610af4565b6104736745a21b4e244e05f960c01b610af4565b610487679553976d0934bd9660c01b610af4565b61049b678189e998792252a060c01b610af4565b6104a3610f6c565b565b5f8060149054906101000a900460ff16905090565b6104c2610eee565b6104cb5f610fcd565b565b5f6104e267a56b3f0757a1452060c01b610af4565b6104f667684a28b800ffa6aa60c01b610af4565b61050a670dbde54fad1acb9060c01b610af4565b5f60025f9054906101000a900473ffffffffffffffffffffffffffffffffffffffff1673ffffffffffffffffffffffffffffffffffffffff16634e57d942846040518263ffffffff1660e01b815260040161056591906114d8565b5f60405180830381865afa15801561057f573d5f803e3d5ffd5b505050506040513d5f823e3d601f19601f820116820180604052508101906105a79190611891565b90506105bd67bace745779bc6d4760c01b610af4565b6105d16709a7d17300997b0660c01b610af4565b5f60025f9054906101000a900473ffffffffffffffffffffffffffffffffffffffff1673ffffffffffffffffffffffffffffffffffffffff1662fdd58e61061661108e565b845f81518110610629576106286118d8565b5b60200260200101516040518363ffffffff1660e01b815260040161064e929190611905565b602060405180830381865afa158015610669573d5f803e3d5ffd5b505050506040513d601f19601f8201168201806040525081019061068d919061192c565b90506106a367917b596b9539e28f60c01b610af4565b6106b76757330cca85c4e5b860c01b610af4565b5f60025f9054906101000a900473ffffffffffffffffffffffffffffffffffffffff1673ffffffffffffffffffffffffffffffffffffffff1662fdd58e6106fc61108e565b856001815181106107105761070f6118d8565b5b60200260200101516040518363ffffffff1660e01b8152600401610735929190611905565b602060405180830381865afa158015610750573d5f803e3d5ffd5b505050506040513d601f19601f82011682018060405250810190610774919061192c565b905061078a673373e0da12101e7a60c01b610af4565b61079e67826b221979db966260c01b610af4565b5f81836107ab9190611984565b90506107c1673addb7b17689bc3160c01b610af4565b6107d567115aebd193feec7260c01b610af4565b80945050505050919050565b6107f567d181802db0983fba60c01b610af4565b6107fd610eee565b61081167d1e2b0c49a84fe2960c01b610af4565b61082567d4646e11500273ad60c01b610af4565b610839679a43f42eee8bdc8160c01b610af4565b61084d67944535cddd47479e60c01b610af4565b610855611095565b565b5f805f9054906101000a900473ffffffffffffffffffffffffffffffffffffffff16905090565b5f61089367de51344f08fdf1e560c01b610af4565b6108a7673a41251c312ded2360c01b610af4565b6108bb671a5b644430c5e02560c01b610af4565b60055f8473ffffffffffffffffffffffffffffffffffffffff1673ffffffffffffffffffffffffffffffffffffffff1681526020019081526020015f205f8381526020019081526020015f2054905092915050565b610924678f0e15c96b31177860c01b610af4565b61092c610af7565b61094067433fa224ca2a8d9060c01b610af4565b61095467dfda25567265612b60c01b610af4565b61096867c40433f403600fc160c01b610af4565b61097c67b0f1398298849dfe60c01b610af4565b610990672a617ce017221eea60c01b610af4565b5f81116109d2576040517f08c379a00000000000000000000000000000000000000000000000000000000081526004016109c990611a01565b60405180910390fd5b6109e6673dd900560783e53060c01b610af4565b6109fa673fa569d65c1697fb60c01b610af4565b610a0e67156de9e69f939fc960c01b610af4565b610a1882826110f7565b5050565b610a24610eee565b5f73ffffffffffffffffffffffffffffffffffffffff168173ffffffffffffffffffffffffffffffffffffffff1603610a92576040517f08c379a0000000000000000000000000000000000000000000000000000000008152600401610a8990611a8f565b60405180910390fd5b610a9b81610fcd565b50565b5f610ab3679c9f8b4cf9c0765b60c01b610af4565b610ac7679b2de7fa0f67ab4e60c01b610af4565b610adb67437b353f12b12f7160c01b610af4565b60045f8381526020019081526020015f20549050919050565b50565b610aff6104a5565b15610b3f576040517f08c379a0000000000000000000000000000000000000000000000000000000008152600401610b3690611af7565b60405180910390fd5b565b610b5567f1e57d7063bfb98960c01b610af4565b610b6967df0c39adb634018c60c01b610af4565b610b7d67d5f91120b4d62e4a60c01b610af4565b5f610b8782611282565b9050610b9d673db5f4486345c9ca60c01b610af4565b610bb1673f7fe109773699ef60c01b610af4565b5f60055f610bbd61108e565b73ffffffffffffffffffffffffffffffffffffffff1673ffffffffffffffffffffffffffffffffffffffff1681526020019081526020015f205f8481526020019081526020015f205460035f8581526020019081526020015f2054610c229190611b15565b9050610c386734eb8fa2eceeb01060c01b610af4565b610c4c678defee4abcb08a6260c01b610af4565b5f6127108284610c5c9190611b48565b610c669190611bb6565b9050610c7c6722acbfc5bb2cd45d60c01b610af4565b610c90670b97b00dd472e86e60c01b610af4565b610ca46763de5e1f4bce872c60c01b610af4565b5f8111610ce6576040517f08c379a0000000000000000000000000000000000000000000000000000000008152600401610cdd90611c30565b60405180910390fd5b610cfa67f49ff6deaa4a571460c01b610af4565b610d0e67b32413ba5e9f498860c01b610af4565b60035f8581526020019081526020015f205460055f610d2b61108e565b73ffffffffffffffffffffffffffffffffffffffff1673ffffffffffffffffffffffffffffffffffffffff1681526020019081526020015f205f8681526020019081526020015f2081905550610d8b679eb752b5ba6382fc60c01b610af4565b8060045f8681526020019081526020015f205f828254610dab9190611984565b92505081905550610dc66721a9a75dc8a4dbd760c01b610af4565b610dda679b7e5630602a9e9760c01b610af4565b7fdf273cb619d95419a9cd0ec88123a0538c85064229baa6363788f743fff90deb610e0361108e565b8583604051610e1493929190611c4e565b60405180910390a1610e30673acceb86dd25e1f060c01b610af4565b610e4467e30aacfcfbc4b12360c01b610af4565b60015f9054906101000a900473ffffffffffffffffffffffffffffffffffffffff1673ffffffffffffffffffffffffffffffffffffffff1663a9059cbb610e8961108e565b836040518363ffffffff1660e01b8152600401610ea7929190611905565b6020604051808303815f875af1158015610ec3573d5f803e3d5ffd5b505050506040513d601f19601f82011682018060405250810190610ee79190611cad565b5050505050565b610ef661108e565b73ffffffffffffffffffffffffffffffffffffffff16610f14610857565b73ffffffffffffffffffffffffffffffffffffffff1614610f6a576040517f08c379a0000000000000000000000000000000000000000000000000000000008152600401610f6190611d22565b60405180910390fd5b565b610f74611411565b5f8060146101000a81548160ff0219169083151502179055507f5db9ee0a495bf2e6ff9c91a7834c1ba4fdd244a5e8aa4e537bd38aeae4b073aa610fb661108e565b604051610fc39190611563565b60405180910390a1565b5f805f9054906101000a900473ffffffffffffffffffffffffffffffffffffffff169050815f806101000a81548173ffffffffffffffffffffffffffffffffffffffff021916908373ffffffffffffffffffffffffffffffffffffffff1602179055508173ffffffffffffffffffffffffffffffffffffffff168173ffffffffffffffffffffffffffffffffffffffff167f8be0079c531659141344cd1fd0a4f28419497f9722a3daafe3b4186f6b6457e060405160405180910390a35050565b5f33905090565b61109d610af7565b60015f60146101000a81548160ff0219169083151502179055507f62e78cea01bee320cd4e420270b5ea74000d11b0c9f74754ebdbfc544b05a2586110e061108e565b6040516110ed9190611563565b60405180910390a1565b61110b673abbc9d4334a242060c01b610af4565b61111f6725c34845c6a1c36b60c01b610af4565b8060035f8481526020019081526020015f205f82825461113f9190611984565b9250508190555061115a67a0a0de84bc9cdfbb60c01b610af4565b61116e670c285d74fb023a7560c01b610af4565b7f5677b5d4cf976ac32defbd95a6a5aaf0d1fee450a11fc26f3c11aae6e6c33d0661119761108e565b83836040516111a893929190611c4e565b60405180910390a16111c46791d22211f8598fba60c01b610af4565b6111d867b45d84b80b052be760c01b610af4565b60015f9054906101000a900473ffffffffffffffffffffffffffffffffffffffff1673ffffffffffffffffffffffffffffffffffffffff166323b872dd61121d61108e565b30846040518463ffffffff1660e01b815260040161123d93929190611d40565b6020604051808303815f875af1158015611259573d5f803e3d5ffd5b505050506040513d601f19601f8201168201806040525081019061127d9190611cad565b505050565b5f61129767f70e0922b45c254960c01b610af4565b6112ab67f10a86ab09aa44e960c01b610af4565b6112bf674839cc3d9ef3d1a860c01b610af4565b5f6112c9836104cd565b90506112df67b906fcc3a099cceb60c01b610af4565b6112f367e7f33c783b4cf9ac60c01b610af4565b5f60025f9054906101000a900473ffffffffffffffffffffffffffffffffffffffff1673ffffffffffffffffffffffffffffffffffffffff1663d6e0dbda856040518263ffffffff1660e01b815260040161134e91906114d8565b602060405180830381865afa158015611369573d5f803e3d5ffd5b505050506040513d601f19601f8201168201806040525081019061138d919061192c565b90506113a367571a9cef0a773d0660c01b610af4565b6113b767dd13ef094db2bfe260c01b610af4565b5f816064846113c69190611b48565b6113d09190611bb6565b90506113e667a92a1909472542f860c01b610af4565b6113fa67e6d050968f5f679860c01b610af4565b6064816114079190611b48565b9350505050919050565b6114196104a5565b611458576040517f08c379a000000000000000000000000000000000000000000000000000000000815260040161144f90611dbf565b60405180910390fd5b565b5f604051905090565b5f80fd5b5f80fd5b5f819050919050565b61147d8161146b565b8114611487575f80fd5b50565b5f8135905061149881611474565b92915050565b5f602082840312156114b3576114b2611463565b5b5f6114c08482850161148a565b91505092915050565b6114d28161146b565b82525050565b5f6020820190506114eb5f8301846114c9565b92915050565b5f8115159050919050565b611505816114f1565b82525050565b5f60208201905061151e5f8301846114fc565b92915050565b5f73ffffffffffffffffffffffffffffffffffffffff82169050919050565b5f61154d82611524565b9050919050565b61155d81611543565b82525050565b5f6020820190506115765f830184611554565b92915050565b61158581611543565b811461158f575f80fd5b50565b5f813590506115a08161157c565b92915050565b5f80604083850312156115bc576115bb611463565b5b5f6115c985828601611592565b92505060206115da8582860161148a565b9150509250929050565b5f80604083850312156115fa576115f9611463565b5b5f6116078582860161148a565b92505060206116188582860161148a565b9150509250929050565b5f6020828403121561163757611636611463565b5b5f61164484828501611592565b91505092915050565b5f82825260208201905092915050565b7f52454a5556453a204e6f2070726f64756374206561726e696e670000000000005f82015250565b5f611691601a8361164d565b915061169c8261165d565b602082019050919050565b5f6020820190508181035f8301526116be81611685565b9050919050565b7f52454a5556453a204e6f2073686172642062616c616e636500000000000000005f82015250565b5f6116f960188361164d565b9150611704826116c5565b602082019050919050565b5f6020820190508181035f830152611726816116ed565b9050919050565b5f80fd5b5f601f19601f8301169050919050565b7f4e487b71000000000000000000000000000000000000000000000000000000005f52604160045260245ffd5b61177782611731565b810181811067ffffffffffffffff8211171561179657611795611741565b5b80604052505050565b5f6117a861145a565b90506117b4828261176e565b919050565b5f67ffffffffffffffff8211156117d3576117d2611741565b5b602082029050602081019050919050565b5f80fd5b5f815190506117f681611474565b92915050565b5f61180e611809846117b9565b61179f565b90508083825260208201905060208402830185811115611831576118306117e4565b5b835b8181101561185a578061184688826117e8565b845260208401935050602081019050611833565b5050509392505050565b5f82601f8301126118785761187761172d565b5b81516118888482602086016117fc565b91505092915050565b5f602082840312156118a6576118a5611463565b5b5f82015167ffffffffffffffff8111156118c3576118c2611467565b5b6118cf84828501611864565b91505092915050565b7f4e487b71000000000000000000000000000000000000000000000000000000005f52603260045260245ffd5b5f6040820190506119185f830185611554565b61192560208301846114c9565b9392505050565b5f6020828403121561194157611940611463565b5b5f61194e848285016117e8565b91505092915050565b7f4e487b71000000000000000000000000000000000000000000000000000000005f52601160045260245ffd5b5f61198e8261146b565b91506119998361146b565b92508282019050808211156119b1576119b0611957565b5b92915050565b7f52454a5556453a205a65726f20616d6f756e74000000000000000000000000005f82015250565b5f6119eb60138361164d565b91506119f6826119b7565b602082019050919050565b5f6020820190508181035f830152611a18816119df565b9050919050565b7f4f776e61626c653a206e6577206f776e657220697320746865207a65726f20615f8201527f6464726573730000000000000000000000000000000000000000000000000000602082015250565b5f611a7960268361164d565b9150611a8482611a1f565b604082019050919050565b5f6020820190508181035f830152611aa681611a6d565b9050919050565b7f5061757361626c653a20706175736564000000000000000000000000000000005f82015250565b5f611ae160108361164d565b9150611aec82611aad565b602082019050919050565b5f6020820190508181035f830152611b0e81611ad5565b9050919050565b5f611b1f8261146b565b9150611b2a8361146b565b9250828203905081811115611b4257611b41611957565b5b92915050565b5f611b528261146b565b9150611b5d8361146b565b9250828202611b6b8161146b565b91508282048414831517611b8257611b81611957565b5b5092915050565b7f4e487b71000000000000000000000000000000000000000000000000000000005f52601260045260245ffd5b5f611bc08261146b565b9150611bcb8361146b565b925082611bdb57611bda611b89565b5b828204905092915050565b7f52454a5556453a204e6f2075736572206561726e696e670000000000000000005f82015250565b5f611c1a60178361164d565b9150611c2582611be6565b602082019050919050565b5f6020820190508181035f830152611c4781611c0e565b9050919050565b5f606082019050611c615f830186611554565b611c6e60208301856114c9565b611c7b60408301846114c9565b949350505050565b611c8c816114f1565b8114611c96575f80fd5b50565b5f81519050611ca781611c83565b92915050565b5f60208284031215611cc257611cc1611463565b5b5f611ccf84828501611c99565b91505092915050565b7f4f776e61626c653a2063616c6c6572206973206e6f7420746865206f776e65725f82015250565b5f611d0c60208361164d565b9150611d1782611cd8565b602082019050919050565b5f6020820190508181035f830152611d3981611d00565b9050919050565b5f606082019050611d535f830186611554565b611d606020830185611554565b611d6d60408301846114c9565b949350505050565b7f5061757361626c653a206e6f74207061757365640000000000000000000000005f82015250565b5f611da960148361164d565b9150611db482611d75565b602082019050919050565b5f6020820190508181035f830152611dd681611d9d565b905091905056fea2646970667358221220719dd87618f3842f59b08c5d56349b5a522ec3ceedfae7f554b27675497c419664736f6c63430008140033",
  "linkReferences": {},
  "deployedLinkReferences": {}
}