{
  "_format": "hh-sol-artifact-1",
  "contractName": "ProfitDistribution",
  "sourceName": "contracts/ProfitDistribution.sol",
  "abi": [
    {
      "inputs": [
        {
          "internalType": "address",
          "name": "rejuveToken_",
          "type": "address"
        },
        {
          "internalType": "address",
          "name": "productShards_",
          "type": "address"
        }
      ],
      "stateMutability": "nonpayable",
      "type": "constructor"
    },
    {
      "anonymous": false,
      "inputs": [
        {
          "indexed": false,
          "internalType": "address",
          "name": "sender",
          "type": "address"
        },
        {
          "indexed": false,
          "internalType": "uint256",
          "name": "productUID",
          "type": "uint256"
        },
        {
          "indexed": false,
          "internalType": "uint256",
          "name": "amount",
          "type": "uint256"
        }
      ],
      "name": "PaymentReceived",
      "type": "event"
    },
    {
      "anonymous": false,
      "inputs": [
        {
          "indexed": false,
          "internalType": "address",
          "name": "holder",
          "type": "address"
        },
        {
          "indexed": false,
          "internalType": "uint256",
          "name": "productUID",
          "type": "uint256"
        },
        {
          "indexed": false,
          "internalType": "uint256",
          "name": "amount",
          "type": "uint256"
        }
      ],
      "name": "Withdrawal",
      "type": "event"
    },
    {
      "inputs": [
        {
          "internalType": "uint256",
          "name": "_productUID",
          "type": "uint256"
        }
      ],
      "name": "_getShardBalance",
      "outputs": [
        {
          "internalType": "uint256",
          "name": "",
          "type": "uint256"
        }
      ],
      "stateMutability": "view",
      "type": "function"
    },
    {
      "inputs": [
        {
          "internalType": "uint256",
          "name": "_productUID",
          "type": "uint256"
        },
        {
          "internalType": "uint256",
          "name": "_amount",
          "type": "uint256"
        }
      ],
      "name": "deposit",
      "outputs": [],
      "stateMutability": "nonpayable",
      "type": "function"
    },
    {
      "inputs": [
        {
          "internalType": "address",
          "name": "_holder",
          "type": "address"
        },
        {
          "internalType": "uint256",
          "name": "_productUID",
          "type": "uint256"
        }
      ],
      "name": "getHolderLastPoint",
      "outputs": [
        {
          "internalType": "uint256",
          "name": "",
          "type": "uint256"
        }
      ],
      "stateMutability": "view",
      "type": "function"
    },
    {
      "inputs": [
        {
          "internalType": "uint256",
          "name": "productUID",
          "type": "uint256"
        }
      ],
      "name": "getProductEarning",
      "outputs": [
        {
          "internalType": "uint256",
          "name": "",
          "type": "uint256"
        }
      ],
      "stateMutability": "view",
      "type": "function"
    },
    {
      "inputs": [
        {
          "internalType": "uint256",
          "name": "_productUID",
          "type": "uint256"
        }
      ],
      "name": "getTotalWithdrawal",
      "outputs": [
        {
          "internalType": "uint256",
          "name": "",
          "type": "uint256"
        }
      ],
      "stateMutability": "view",
      "type": "function"
    },
    {
      "inputs": [
        {
          "internalType": "uint256",
          "name": "_productUID",
          "type": "uint256"
        },
        {
          "internalType": "uint256",
          "name": "contributionPoints",
          "type": "uint256"
        }
      ],
      "name": "withdraw",
      "outputs": [],
      "stateMutability": "nonpayable",
      "type": "function"
    }
  ],
  "bytecode": "0x608060405234801561001057600080fd5b50604051610a02380380610a0283398101604081905261002f9161007c565b600080546001600160a01b039384166001600160a01b031991821617909155600180549290931691161790556100af565b80516001600160a01b038116811461007757600080fd5b919050565b6000806040838503121561008f57600080fd5b61009883610060565b91506100a660208401610060565b90509250929050565b610944806100be6000396000f3fe608060405234801561001057600080fd5b50600436106100625760003560e01c806327770bd014610067578063441a3e701461009957806381fdde09146100ae5780639734c335146100c1578063e2bbb158146100d4578063f5ed8b8a146100e7575b600080fd5b6100876100753660046106fa565b60009081526002602052604090205490565b60405190815260200160405180910390f35b6100ac6100a7366004610713565b610107565b005b6100876100bc3660046106fa565b61021d565b6100876100cf366004610735565b6103f3565b6100ac6100e2366004610713565b61041e565b6100876100f53660046106fa565b60009081526003602052604090205490565b6000811161015c5760405162461bcd60e51b815260206004820152601960248201527f52454a5556453a205a65726f20636f6e747269627574696f6e0000000000000060448201526064015b60405180910390fd5b6000828152600260205260409020546101b75760405162461bcd60e51b815260206004820152601a60248201527f52454a5556453a204e6f2070726f64756374206561726e696e670000000000006044820152606401610153565b60006101c28361021d565b1161020f5760405162461bcd60e51b815260206004820152601860248201527f52454a5556453a204e6f2073686172642062616c616e636500000000000000006044820152606401610153565b6102198282610555565b5050565b60015460405163272beca160e11b81526004810183905260009182916001600160a01b0390911690634e57d94290602401600060405180830381865afa15801561026b573d6000803e3d6000fd5b505050506040513d6000823e601f3d908101601f191682016040526102939190810190610783565b6001549091506000906001600160a01b031662fdd58e33846000815181106102bd576102bd610841565b60200260200101516040518363ffffffff1660e01b81526004016102f69291906001600160a01b03929092168252602082015260400190565b602060405180830381865afa158015610313573d6000803e3d6000fd5b505050506040513d601f19601f820116820180604052508101906103379190610857565b6001549091506000906001600160a01b031662fdd58e338560018151811061036157610361610841565b60200260200101516040518363ffffffff1660e01b815260040161039a9291906001600160a01b03929092168252602082015260400190565b602060405180830381865afa1580156103b7573d6000803e3d6000fd5b505050506040513d601f19601f820116820180604052508101906103db9190610857565b905060006103e98284610886565b9695505050505050565b6001600160a01b03821660009081526004602090815260408083208484529091529020545b92915050565b600081116104645760405162461bcd60e51b81526020600482015260136024820152721491529555914e8816995c9bc8185b5bdd5b9d606a1b6044820152606401610153565b6000546001600160a01b03166323b872dd336040516001600160e01b031960e084901b1681526001600160a01b039091166004820152306024820152604481018490526064016020604051808303816000875af11580156104c9573d6000803e3d6000fd5b505050506040513d601f19601f820116820180604052508101906104ed9190610899565b506000828152600260205260408120805483929061050c908490610886565b9091555050604080513381526020810184905280820183905290517f5677b5d4cf976ac32defbd95a6a5aaf0d1fee450a11fc26f3c11aae6e6c33d069181900360600190a15050565b336000908152600460209081526040808320858452825280832054600290925282205461058291906108c2565b9050600061271061059383856108d5565b61059d91906108ec565b9050600081116105ef5760405162461bcd60e51b815260206004820152601760248201527f52454a5556453a204e6f2075736572206561726e696e670000000000000000006044820152606401610153565b6000848152600260209081526040808320543384526004835281842088855283528184205560039091528120805483929061062b908490610886565b90915550506000546001600160a01b031663a9059cbb336040516001600160e01b031960e084901b1681526001600160a01b039091166004820152602481018490526044016020604051808303816000875af115801561068f573d6000803e3d6000fd5b505050506040513d601f19601f820116820180604052508101906106b39190610899565b50604080513381526020810186905280820183905290517fdf273cb619d95419a9cd0ec88123a0538c85064229baa6363788f743fff90deb9181900360600190a150505050565b60006020828403121561070c57600080fd5b5035919050565b6000806040838503121561072657600080fd5b50508035926020909101359150565b6000806040838503121561074857600080fd5b82356001600160a01b038116811461075f57600080fd5b946020939093013593505050565b634e487b7160e01b600052604160045260246000fd5b6000602080838503121561079657600080fd5b825167ffffffffffffffff808211156107ae57600080fd5b818501915085601f8301126107c257600080fd5b8151818111156107d4576107d461076d565b8060051b604051601f19603f830116810181811085821117156107f9576107f961076d565b60405291825284820192508381018501918883111561081757600080fd5b938501935b828510156108355784518452938501939285019261081c565b98975050505050505050565b634e487b7160e01b600052603260045260246000fd5b60006020828403121561086957600080fd5b5051919050565b634e487b7160e01b600052601160045260246000fd5b8082018082111561041857610418610870565b6000602082840312156108ab57600080fd5b815180151581146108bb57600080fd5b9392505050565b8181038181111561041857610418610870565b808202811582820484141761041857610418610870565b60008261090957634e487b7160e01b600052601260045260246000fd5b50049056fea2646970667358221220065a45bc9b1e2d94c65093e0639cfbb878351370b01e7df6c22158a8f90b784764736f6c63430008120033",
  "linkReferences": {},
  "deployedLinkReferences": {}
}