{
  "_format": "hh-sol-artifact-1",
  "contractName": "ProfitDistribution",
  "sourceName": "contracts/ProfitDistribution.sol",
  "abi": [
    {
      "inputs": [
        {
          "internalType": "address",
          "name": "rejuveToken_",
          "type": "address"
        },
        {
          "internalType": "address",
          "name": "productShards_",
          "type": "address"
        }
      ],
      "stateMutability": "nonpayable",
      "type": "constructor"
    },
    {
      "anonymous": false,
      "inputs": [
        {
          "indexed": false,
          "internalType": "address",
          "name": "sender",
          "type": "address"
        },
        {
          "indexed": false,
          "internalType": "uint256",
          "name": "productUID",
          "type": "uint256"
        },
        {
          "indexed": false,
          "internalType": "uint256",
          "name": "amount",
          "type": "uint256"
        }
      ],
      "name": "PaymentReceived",
      "type": "event"
    },
    {
      "anonymous": false,
      "inputs": [
        {
          "indexed": false,
          "internalType": "address",
          "name": "holder",
          "type": "address"
        },
        {
          "indexed": false,
          "internalType": "uint256",
          "name": "productUID",
          "type": "uint256"
        },
        {
          "indexed": false,
          "internalType": "uint256",
          "name": "amount",
          "type": "uint256"
        }
      ],
      "name": "Withdrawal",
      "type": "event"
    },
    {
      "inputs": [
        {
          "internalType": "uint256",
          "name": "_productUID",
          "type": "uint256"
        }
      ],
      "name": "_getShardBalance",
      "outputs": [
        {
          "internalType": "uint256",
          "name": "",
          "type": "uint256"
        }
      ],
      "stateMutability": "view",
      "type": "function"
    },
    {
      "inputs": [
        {
          "internalType": "uint256",
          "name": "_productUID",
          "type": "uint256"
        },
        {
          "internalType": "uint256",
          "name": "_amount",
          "type": "uint256"
        }
      ],
      "name": "deposit",
      "outputs": [],
      "stateMutability": "nonpayable",
      "type": "function"
    },
    {
      "inputs": [
        {
          "internalType": "address",
          "name": "_holder",
          "type": "address"
        },
        {
          "internalType": "uint256",
          "name": "_productUID",
          "type": "uint256"
        }
      ],
      "name": "getHolderLastPoint",
      "outputs": [
        {
          "internalType": "uint256",
          "name": "",
          "type": "uint256"
        }
      ],
      "stateMutability": "view",
      "type": "function"
    },
    {
      "inputs": [
        {
          "internalType": "uint256",
          "name": "productUID",
          "type": "uint256"
        }
      ],
      "name": "getProductEarning",
      "outputs": [
        {
          "internalType": "uint256",
          "name": "",
          "type": "uint256"
        }
      ],
      "stateMutability": "view",
      "type": "function"
    },
    {
      "inputs": [
        {
          "internalType": "uint256",
          "name": "_productUID",
          "type": "uint256"
        }
      ],
      "name": "getTotalWithdrawal",
      "outputs": [
        {
          "internalType": "uint256",
          "name": "",
          "type": "uint256"
        }
      ],
      "stateMutability": "view",
      "type": "function"
    },
    {
      "inputs": [
        {
          "internalType": "uint256",
          "name": "_productUID",
          "type": "uint256"
        },
        {
          "internalType": "uint256",
          "name": "contributionPoints",
          "type": "uint256"
        }
      ],
      "name": "withdraw",
      "outputs": [],
      "stateMutability": "nonpayable",
      "type": "function"
    }
  ],
  "bytecode": "0x60806040523480156200001157600080fd5b50604051620017b6380380620017b6833981810160405281019062000037919062000181565b620000536744cde020b914fe1860c01b6200011460201b60201c565b6200006f67dcce4f9530b5aaec60c01b6200011460201b60201c565b816000806101000a81548173ffffffffffffffffffffffffffffffffffffffff021916908373ffffffffffffffffffffffffffffffffffffffff160217905550620000cb6784b41a37e5a8f2b560c01b6200011460201b60201c565b80600160006101000a81548173ffffffffffffffffffffffffffffffffffffffff021916908373ffffffffffffffffffffffffffffffffffffffff1602179055505050620001c8565b50565b600080fd5b600073ffffffffffffffffffffffffffffffffffffffff82169050919050565b600062000149826200011c565b9050919050565b6200015b816200013c565b81146200016757600080fd5b50565b6000815190506200017b8162000150565b92915050565b600080604083850312156200019b576200019a62000117565b5b6000620001ab858286016200016a565b9250506020620001be858286016200016a565b9150509250929050565b6115de80620001d86000396000f3fe608060405234801561001057600080fd5b50600436106100625760003560e01c806327770bd014610067578063441a3e701461009757806381fdde09146100b35780639734c335146100e3578063e2bbb15814610113578063f5ed8b8a1461012f575b600080fd5b610081600480360381019061007c9190610def565b61015f565b60405161008e9190610e2b565b60405180910390f35b6100b160048036038101906100ac9190610e46565b6101b8565b005b6100cd60048036038101906100c89190610def565b6103d5565b6040516100da9190610e2b565b60405180910390f35b6100fd60048036038101906100f89190610ee4565b6106fa565b60405161010a9190610e2b565b60405180910390f35b61012d60048036038101906101289190610e46565b610791565b005b61014960048036038101906101449190610def565b6109b4565b6040516101569190610e2b565b60405180910390f35b600061017567faa38421c0a27ba560c01b610a0d565b61018967d9a3008624304c9e60c01b610a0d565b61019d673f433e8d013df0b860c01b610a0d565b60026000838152602001908152602001600020549050919050565b6101cc67b791284d8bb7fcec60c01b610a0d565b6101e0674811ad7861fc0c4560c01b610a0d565b6101f46785e93829fa87501660c01b610a0d565b61020867db99c236d9c83a4f60c01b610a0d565b6000811161024b576040517f08c379a000000000000000000000000000000000000000000000000000000000815260040161024290610f81565b60405180910390fd5b61025f67efaddc4114983b3860c01b610a0d565b610273671e9bfc0d5012236260c01b610a0d565b610287677e929f5e2443eae760c01b610a0d565b61029a66356452a64b74dc60c01b610a0d565b60006002600084815260200190815260200160002054116102f0576040517f08c379a00000000000000000000000000000000000000000000000000000000081526004016102e790610fed565b60405180910390fd5b61030467850566c33386331c60c01b610a0d565b61031867767ea827889f26c060c01b610a0d565b61032c67035083c0bbc2b3c560c01b610a0d565b61034067a25933a5f89317f360c01b610a0d565b600061034b836103d5565b1161038b576040517f08c379a000000000000000000000000000000000000000000000000000000000815260040161038290611059565b60405180910390fd5b61039f676c0e8a16ce09f26860c01b610a0d565b6103b3675e496a8433a9b8f860c01b610a0d565b6103c7671fd4f0fcef9cb3e260c01b610a0d565b6103d18282610a10565b5050565b60006103eb670957bffe9ee92eeb60c01b610a0d565b6103ff678fdcc1c352ce494860c01b610a0d565b6104136779b38923664a3ebd60c01b610a0d565b6000600160009054906101000a900473ffffffffffffffffffffffffffffffffffffffff1673ffffffffffffffffffffffffffffffffffffffff16634e57d942846040518263ffffffff1660e01b81526004016104709190610e2b565b600060405180830381865afa15801561048d573d6000803e3d6000fd5b505050506040513d6000823e3d601f19601f820116820180604052508101906104b691906111e7565b90506104cc67d7a16ddcff2f959a60c01b610a0d565b6104e0670b50d948374cf22f60c01b610a0d565b6000600160009054906101000a900473ffffffffffffffffffffffffffffffffffffffff1673ffffffffffffffffffffffffffffffffffffffff1662fdd58e610527610d9d565b8460008151811061053b5761053a611230565b5b60200260200101516040518363ffffffff1660e01b815260040161056092919061126e565b602060405180830381865afa15801561057d573d6000803e3d6000fd5b505050506040513d601f19601f820116820180604052508101906105a19190611297565b90506105b767747985343a27eb0560c01b610a0d565b6105cb67f25e0ad538913ba560c01b610a0d565b6000600160009054906101000a900473ffffffffffffffffffffffffffffffffffffffff1673ffffffffffffffffffffffffffffffffffffffff1662fdd58e610612610d9d565b8560018151811061062657610625611230565b5b60200260200101516040518363ffffffff1660e01b815260040161064b92919061126e565b602060405180830381865afa158015610668573d6000803e3d6000fd5b505050506040513d601f19601f8201168201806040525081019061068c9190611297565b90506106a2671ffa697d8f21a20060c01b610a0d565b6106b667cfd1f7510d9cf19060c01b610a0d565b600081836106c491906112f3565b90506106da6710305032d9fc123160c01b610a0d565b6106ee67ed44116cff01c7ce60c01b610a0d565b80945050505050919050565b600061071067adc6ba27b29b928760c01b610a0d565b610724677ed8cc879225173960c01b610a0d565b6107386775c5c663f4b86b7960c01b610a0d565b600460008473ffffffffffffffffffffffffffffffffffffffff1673ffffffffffffffffffffffffffffffffffffffff168152602001908152602001600020600083815260200190815260200160002054905092915050565b6107a5674325d75e11adacce60c01b610a0d565b6107b967601f7aee6534a87f60c01b610a0d565b6107cd67e98f2c688fb6512260c01b610a0d565b6107e167f35a41b1918e7f7e60c01b610a0d565b60008111610824576040517f08c379a000000000000000000000000000000000000000000000000000000000815260040161081b90611373565b60405180910390fd5b610838675ab75aec4f2ddec360c01b610a0d565b61084c67cfe1136df218649060c01b610a0d565b6108606742d2e7e00483960160c01b610a0d565b60008054906101000a900473ffffffffffffffffffffffffffffffffffffffff1673ffffffffffffffffffffffffffffffffffffffff166323b872dd6108a4610d9d565b30846040518463ffffffff1660e01b81526004016108c493929190611393565b6020604051808303816000875af11580156108e3573d6000803e3d6000fd5b505050506040513d601f19601f820116820180604052508101906109079190611402565b5061091c67bc15fc4b94a80ca560c01b610a0d565b8060026000848152602001908152602001600020600082825461093f91906112f3565b9250508190555061095a672d20c82dbc98c27f60c01b610a0d565b61096e67b4c9e3111b255c5560c01b610a0d565b7f5677b5d4cf976ac32defbd95a6a5aaf0d1fee450a11fc26f3c11aae6e6c33d06610997610d9d565b83836040516109a89392919061142f565b60405180910390a15050565b60006109ca6788d817a3e2cc0f8760c01b610a0d565b6109de678ca35f72118fe72b60c01b610a0d565b6109f2679786938afe87246360c01b610a0d565b60036000838152602001908152602001600020549050919050565b50565b610a24671404eee8bc90fda060c01b610a0d565b610a386733d6e5c22819f90860c01b610a0d565b610a4c678b5638f7d5354e6960c01b610a0d565b600060046000610a5a610d9d565b73ffffffffffffffffffffffffffffffffffffffff1673ffffffffffffffffffffffffffffffffffffffff1681526020019081526020016000206000848152602001908152602001600020546002600085815260200190815260200160002054610ac49190611466565b9050610ada67bf60a4f9d3e13d5860c01b610a0d565b610aee6768f56d7a6734a2cb60c01b610a0d565b60006127108284610aff919061149a565b610b09919061150b565b9050610b1f679f075ab1b9791d8a60c01b610a0d565b610b336789bdad522fae228560c01b610a0d565b610b4767372afb55b03b94b260c01b610a0d565b60008111610b8a576040517f08c379a0000000000000000000000000000000000000000000000000000000008152600401610b8190611588565b60405180910390fd5b610b9e67a19d32a9a06d982260c01b610a0d565b610bb267db783f64de848f7460c01b610a0d565b600260008581526020019081526020016000205460046000610bd2610d9d565b73ffffffffffffffffffffffffffffffffffffffff1673ffffffffffffffffffffffffffffffffffffffff168152602001908152602001600020600086815260200190815260200160002081905550610c356744f7eb38354eff3c60c01b610a0d565b80600360008681526020019081526020016000206000828254610c5891906112f3565b92505081905550610c736711e5637dd386dbac60c01b610a0d565b610c8767dabc8738e3e52d2960c01b610a0d565b60008054906101000a900473ffffffffffffffffffffffffffffffffffffffff1673ffffffffffffffffffffffffffffffffffffffff1663a9059cbb610ccb610d9d565b836040518363ffffffff1660e01b8152600401610ce992919061126e565b6020604051808303816000875af1158015610d08573d6000803e3d6000fd5b505050506040513d601f19601f82011682018060405250810190610d2c9190611402565b50610d4167a08e190352e287ff60c01b610a0d565b610d5567fe06ce4873b9f12360c01b610a0d565b7fdf273cb619d95419a9cd0ec88123a0538c85064229baa6363788f743fff90deb610d7e610d9d565b8583604051610d8f9392919061142f565b60405180910390a150505050565b600033905090565b6000604051905090565b600080fd5b600080fd5b6000819050919050565b610dcc81610db9565b8114610dd757600080fd5b50565b600081359050610de981610dc3565b92915050565b600060208284031215610e0557610e04610daf565b5b6000610e1384828501610dda565b91505092915050565b610e2581610db9565b82525050565b6000602082019050610e406000830184610e1c565b92915050565b60008060408385031215610e5d57610e5c610daf565b5b6000610e6b85828601610dda565b9250506020610e7c85828601610dda565b9150509250929050565b600073ffffffffffffffffffffffffffffffffffffffff82169050919050565b6000610eb182610e86565b9050919050565b610ec181610ea6565b8114610ecc57600080fd5b50565b600081359050610ede81610eb8565b92915050565b60008060408385031215610efb57610efa610daf565b5b6000610f0985828601610ecf565b9250506020610f1a85828601610dda565b9150509250929050565b600082825260208201905092915050565b7f52454a5556453a205a65726f20636f6e747269627574696f6e00000000000000600082015250565b6000610f6b601983610f24565b9150610f7682610f35565b602082019050919050565b60006020820190508181036000830152610f9a81610f5e565b9050919050565b7f52454a5556453a204e6f2070726f64756374206561726e696e67000000000000600082015250565b6000610fd7601a83610f24565b9150610fe282610fa1565b602082019050919050565b6000602082019050818103600083015261100681610fca565b9050919050565b7f52454a5556453a204e6f2073686172642062616c616e63650000000000000000600082015250565b6000611043601883610f24565b915061104e8261100d565b602082019050919050565b6000602082019050818103600083015261107281611036565b9050919050565b600080fd5b6000601f19601f8301169050919050565b7f4e487b7100000000000000000000000000000000000000000000000000000000600052604160045260246000fd5b6110c78261107e565b810181811067ffffffffffffffff821117156110e6576110e561108f565b5b80604052505050565b60006110f9610da5565b905061110582826110be565b919050565b600067ffffffffffffffff8211156111255761112461108f565b5b602082029050602081019050919050565b600080fd5b60008151905061114a81610dc3565b92915050565b600061116361115e8461110a565b6110ef565b9050808382526020820190506020840283018581111561118657611185611136565b5b835b818110156111af578061119b888261113b565b845260208401935050602081019050611188565b5050509392505050565b600082601f8301126111ce576111cd611079565b5b81516111de848260208601611150565b91505092915050565b6000602082840312156111fd576111fc610daf565b5b600082015167ffffffffffffffff81111561121b5761121a610db4565b5b611227848285016111b9565b91505092915050565b7f4e487b7100000000000000000000000000000000000000000000000000000000600052603260045260246000fd5b61126881610ea6565b82525050565b6000604082019050611283600083018561125f565b6112906020830184610e1c565b9392505050565b6000602082840312156112ad576112ac610daf565b5b60006112bb8482850161113b565b91505092915050565b7f4e487b7100000000000000000000000000000000000000000000000000000000600052601160045260246000fd5b60006112fe82610db9565b915061130983610db9565b9250828201905080821115611321576113206112c4565b5b92915050565b7f52454a5556453a205a65726f20616d6f756e7400000000000000000000000000600082015250565b600061135d601383610f24565b915061136882611327565b602082019050919050565b6000602082019050818103600083015261138c81611350565b9050919050565b60006060820190506113a8600083018661125f565b6113b5602083018561125f565b6113c26040830184610e1c565b949350505050565b60008115159050919050565b6113df816113ca565b81146113ea57600080fd5b50565b6000815190506113fc816113d6565b92915050565b60006020828403121561141857611417610daf565b5b6000611426848285016113ed565b91505092915050565b6000606082019050611444600083018661125f565b6114516020830185610e1c565b61145e6040830184610e1c565b949350505050565b600061147182610db9565b915061147c83610db9565b9250828203905081811115611494576114936112c4565b5b92915050565b60006114a582610db9565b91506114b083610db9565b92508282026114be81610db9565b915082820484148315176114d5576114d46112c4565b5b5092915050565b7f4e487b7100000000000000000000000000000000000000000000000000000000600052601260045260246000fd5b600061151682610db9565b915061152183610db9565b925082611531576115306114dc565b5b828204905092915050565b7f52454a5556453a204e6f2075736572206561726e696e67000000000000000000600082015250565b6000611572601783610f24565b915061157d8261153c565b602082019050919050565b600060208201905081810360008301526115a181611565565b905091905056fea2646970667358221220b2678b319df28caadafc61eae1d138b89d1a0888663bce16cb11d56ceb35511a64736f6c63430008120033",
  "linkReferences": {},
  "deployedLinkReferences": {}
}