{
  "_format": "hh-sol-artifact-1",
  "contractName": "ProfitDistribution",
  "sourceName": "contracts/ProfitDistribution.sol",
  "abi": [
    {
      "inputs": [
        {
          "internalType": "address",
          "name": "rejuveToken_",
          "type": "address"
        },
        {
          "internalType": "address",
          "name": "productShards_",
          "type": "address"
        }
      ],
      "stateMutability": "nonpayable",
      "type": "constructor"
    },
    {
      "anonymous": false,
      "inputs": [
        {
          "indexed": true,
          "internalType": "address",
          "name": "previousOwner",
          "type": "address"
        },
        {
          "indexed": true,
          "internalType": "address",
          "name": "newOwner",
          "type": "address"
        }
      ],
      "name": "OwnershipTransferred",
      "type": "event"
    },
    {
      "anonymous": false,
      "inputs": [
        {
          "indexed": false,
          "internalType": "address",
          "name": "account",
          "type": "address"
        }
      ],
      "name": "Paused",
      "type": "event"
    },
    {
      "anonymous": false,
      "inputs": [
        {
          "indexed": false,
          "internalType": "address",
          "name": "sender",
          "type": "address"
        },
        {
          "indexed": false,
          "internalType": "uint256",
          "name": "productUID",
          "type": "uint256"
        },
        {
          "indexed": false,
          "internalType": "uint256",
          "name": "amount",
          "type": "uint256"
        }
      ],
      "name": "PaymentReceived",
      "type": "event"
    },
    {
      "anonymous": false,
      "inputs": [
        {
          "indexed": false,
          "internalType": "address",
          "name": "account",
          "type": "address"
        }
      ],
      "name": "Unpaused",
      "type": "event"
    },
    {
      "anonymous": false,
      "inputs": [
        {
          "indexed": false,
          "internalType": "address",
          "name": "holder",
          "type": "address"
        },
        {
          "indexed": false,
          "internalType": "uint256",
          "name": "productUID",
          "type": "uint256"
        },
        {
          "indexed": false,
          "internalType": "uint256",
          "name": "amount",
          "type": "uint256"
        }
      ],
      "name": "Withdrawal",
      "type": "event"
    },
    {
      "inputs": [
        {
          "internalType": "uint256",
          "name": "productUID",
          "type": "uint256"
        }
      ],
      "name": "_getShardBalance",
      "outputs": [
        {
          "internalType": "uint256",
          "name": "",
          "type": "uint256"
        }
      ],
      "stateMutability": "view",
      "type": "function"
    },
    {
      "inputs": [
        {
          "internalType": "uint256",
          "name": "productUID",
          "type": "uint256"
        },
        {
          "internalType": "uint256",
          "name": "amount",
          "type": "uint256"
        }
      ],
      "name": "deposit",
      "outputs": [],
      "stateMutability": "nonpayable",
      "type": "function"
    },
    {
      "inputs": [
        {
          "internalType": "address",
          "name": "holder",
          "type": "address"
        },
        {
          "internalType": "uint256",
          "name": "productUID",
          "type": "uint256"
        }
      ],
      "name": "getHolderLastPoint",
      "outputs": [
        {
          "internalType": "uint256",
          "name": "",
          "type": "uint256"
        }
      ],
      "stateMutability": "view",
      "type": "function"
    },
    {
      "inputs": [
        {
          "internalType": "uint256",
          "name": "productUID",
          "type": "uint256"
        }
      ],
      "name": "getProductEarning",
      "outputs": [
        {
          "internalType": "uint256",
          "name": "",
          "type": "uint256"
        }
      ],
      "stateMutability": "view",
      "type": "function"
    },
    {
      "inputs": [
        {
          "internalType": "uint256",
          "name": "productUID",
          "type": "uint256"
        }
      ],
      "name": "getTotalWithdrawal",
      "outputs": [
        {
          "internalType": "uint256",
          "name": "",
          "type": "uint256"
        }
      ],
      "stateMutability": "view",
      "type": "function"
    },
    {
      "inputs": [],
      "name": "owner",
      "outputs": [
        {
          "internalType": "address",
          "name": "",
          "type": "address"
        }
      ],
      "stateMutability": "view",
      "type": "function"
    },
    {
      "inputs": [],
      "name": "pause",
      "outputs": [],
      "stateMutability": "nonpayable",
      "type": "function"
    },
    {
      "inputs": [],
      "name": "paused",
      "outputs": [
        {
          "internalType": "bool",
          "name": "",
          "type": "bool"
        }
      ],
      "stateMutability": "view",
      "type": "function"
    },
    {
      "inputs": [],
      "name": "renounceOwnership",
      "outputs": [],
      "stateMutability": "nonpayable",
      "type": "function"
    },
    {
      "inputs": [
        {
          "internalType": "address",
          "name": "newOwner",
          "type": "address"
        }
      ],
      "name": "transferOwnership",
      "outputs": [],
      "stateMutability": "nonpayable",
      "type": "function"
    },
    {
      "inputs": [],
      "name": "unpause",
      "outputs": [],
      "stateMutability": "nonpayable",
      "type": "function"
    },
    {
      "inputs": [
        {
          "internalType": "uint256",
          "name": "productUID",
          "type": "uint256"
        },
        {
          "internalType": "uint256",
          "name": "contributionPoints",
          "type": "uint256"
        }
      ],
      "name": "withdraw",
      "outputs": [],
      "stateMutability": "nonpayable",
      "type": "function"
    }
  ],
  "bytecode": "0x608060405234801562000010575f80fd5b506040516200201a3803806200201a83398181016040528101906200003691906200027b565b620000566200004a6200014b60201b60201c565b6200015260201b60201c565b5f8060146101000a81548160ff0219169083151502179055506200008b67b0f1398298849dfe60c01b6200021360201b60201c565b620000a7672a617ce017221eea60c01b6200021360201b60201c565b8160015f6101000a81548173ffffffffffffffffffffffffffffffffffffffff021916908373ffffffffffffffffffffffffffffffffffffffff16021790555062000103673dd900560783e53060c01b6200021360201b60201c565b8060025f6101000a81548173ffffffffffffffffffffffffffffffffffffffff021916908373ffffffffffffffffffffffffffffffffffffffff1602179055505050620002c0565b5f33905090565b5f805f9054906101000a900473ffffffffffffffffffffffffffffffffffffffff169050815f806101000a81548173ffffffffffffffffffffffffffffffffffffffff021916908373ffffffffffffffffffffffffffffffffffffffff1602179055508173ffffffffffffffffffffffffffffffffffffffff168173ffffffffffffffffffffffffffffffffffffffff167f8be0079c531659141344cd1fd0a4f28419497f9722a3daafe3b4186f6b6457e060405160405180910390a35050565b50565b5f80fd5b5f73ffffffffffffffffffffffffffffffffffffffff82169050919050565b5f62000245826200021a565b9050919050565b620002578162000239565b811462000262575f80fd5b50565b5f8151905062000275816200024c565b92915050565b5f806040838503121562000294576200029362000216565b5b5f620002a38582860162000265565b9250506020620002b68582860162000265565b9150509250929050565b611d4c80620002ce5f395ff3fe608060405234801561000f575f80fd5b50600436106100b2575f3560e01c80638456cb591161006f5780638456cb59146101645780638da5cb5b1461016e5780639734c3351461018c578063e2bbb158146101bc578063f2fde38b146101d8578063f5ed8b8a146101f4576100b2565b806327770bd0146100b65780633f4ba83a146100e6578063441a3e70146100f05780635c975abb1461010c578063715018a61461012a57806381fdde0914610134575b5f80fd5b6100d060048036038101906100cb919061136f565b610224565b6040516100dd91906113a9565b60405180910390f35b6100ee61027a565b005b61010a600480360381019061010591906113c2565b6102f0565b005b610114610539565b604051610121919061141a565b60405180910390f35b61013261054e565b005b61014e6004803603810190610149919061136f565b610561565b60405161015b91906113a9565b60405180910390f35b61016c610875565b005b6101766108eb565b6040516101839190611472565b60405180910390f35b6101a660048036038101906101a191906114b5565b610912565b6040516101b391906113a9565b60405180910390f35b6101d660048036038101906101d191906113c2565b6109a4565b005b6101f260048036038101906101ed91906114f3565b610ab0565b005b61020e6004803603810190610209919061136f565b610b32565b60405161021b91906113a9565b60405180910390f35b5f610239670dbde54fad1acb9060c01b610b88565b61024d67bace745779bc6d4760c01b610b88565b6102616709a7d17300997b0660c01b610b88565b60035f8381526020019081526020015f20549050919050565b61028e67fbf68451749abe2a60c01b610b88565b610296610b8b565b6102aa677fd6a90e3eb15d9360c01b610b88565b6102be671a5b644430c5e02560c01b610b88565b6102d267a56b3f0757a1452060c01b610b88565b6102e667684a28b800ffa6aa60c01b610b88565b6102ee610c09565b565b6103046743e77b44e13eede160c01b610b88565b61030c610c6a565b61032067c273f5b51293ad0760c01b610b88565b610334670a0e9a86d0c613a660c01b610b88565b610348677ce01a99226266cb60c01b610b88565b61035c67bbe5a0013137574e60c01b610b88565b610370677b1b506315309cf660c01b610b88565b5f81116103b2576040517f08c379a00000000000000000000000000000000000000000000000000000000081526004016103a990611578565b60405180910390fd5b6103c6675e3738937c2b4dde60c01b610b88565b6103da673e3ebdb05f87788960c01b610b88565b6103ee67d4646e11500273ad60c01b610b88565b610402679a43f42eee8bdc8160c01b610b88565b5f60035f8481526020019081526020015f205411610455576040517f08c379a000000000000000000000000000000000000000000000000000000000815260040161044c906115e0565b60405180910390fd5b61046967944535cddd47479e60c01b610b88565b61047d67365b247a05f100d160c01b610b88565b6104916717ca0228de3f95e760c01b610b88565b6104a56745a21b4e244e05f960c01b610b88565b5f6104af83610561565b116104ef576040517f08c379a00000000000000000000000000000000000000000000000000000000081526004016104e690611648565b60405180910390fd5b610503679553976d0934bd9660c01b610b88565b610517678189e998792252a060c01b610b88565b61052b677aae3e3557494dc460c01b610b88565b6105358282610cb4565b5050565b5f8060149054906101000a900460ff16905090565b610556610b8b565b61055f5f61102d565b565b5f610576673abbc9d4334a242060c01b610b88565b61058a6725c34845c6a1c36b60c01b610b88565b61059e67a0a0de84bc9cdfbb60c01b610b88565b5f60025f9054906101000a900473ffffffffffffffffffffffffffffffffffffffff1673ffffffffffffffffffffffffffffffffffffffff16634e57d942846040518263ffffffff1660e01b81526004016105f991906113a9565b5f60405180830381865afa158015610613573d5f803e3d5ffd5b505050506040513d5f823e3d601f19601f8201168201806040525081019061063b91906117ca565b9050610651670c285d74fb023a7560c01b610b88565b6106656791d22211f8598fba60c01b610b88565b5f60025f9054906101000a900473ffffffffffffffffffffffffffffffffffffffff1673ffffffffffffffffffffffffffffffffffffffff1662fdd58e6106aa6110ee565b845f815181106106bd576106bc611811565b5b60200260200101516040518363ffffffff1660e01b81526004016106e292919061183e565b602060405180830381865afa1580156106fd573d5f803e3d5ffd5b505050506040513d601f19601f820116820180604052508101906107219190611865565b905061073767b45d84b80b052be760c01b610b88565b61074b67f1e57d7063bfb98960c01b610b88565b5f60025f9054906101000a900473ffffffffffffffffffffffffffffffffffffffff1673ffffffffffffffffffffffffffffffffffffffff1662fdd58e6107906110ee565b856001815181106107a4576107a3611811565b5b60200260200101516040518363ffffffff1660e01b81526004016107c992919061183e565b602060405180830381865afa1580156107e4573d5f803e3d5ffd5b505050506040513d601f19601f820116820180604052508101906108089190611865565b905061081e67df0c39adb634018c60c01b610b88565b61083267d5f91120b4d62e4a60c01b610b88565b5f818361083f91906118bd565b9050610855673db5f4486345c9ca60c01b610b88565b610869673f7fe109773699ef60c01b610b88565b80945050505050919050565b6108896740260bcec8aa39e060c01b610b88565b610891610b8b565b6108a567ab41d2395337cac060c01b610b88565b6108b9679c9f8b4cf9c0765b60c01b610b88565b6108cd679b2de7fa0f67ab4e60c01b610b88565b6108e167437b353f12b12f7160c01b610b88565b6108e96110f5565b565b5f805f9054906101000a900473ffffffffffffffffffffffffffffffffffffffff16905090565b5f61092767826b221979db966260c01b610b88565b61093b673addb7b17689bc3160c01b610b88565b61094f67115aebd193feec7260c01b610b88565b60055f8473ffffffffffffffffffffffffffffffffffffffff1673ffffffffffffffffffffffffffffffffffffffff1681526020019081526020015f205f8381526020019081526020015f2054905092915050565b6109b8679b6926af31be842c60c01b610b88565b6109c0610c6a565b6109d467cfa11358901f86f760c01b610b88565b6109e867f195618935c4905e60c01b610b88565b6109fc67cb25420b9caffda960c01b610b88565b610a1067a0ad96cf97ddeb1b60c01b610b88565b610a2467c32c66a18b174dea60c01b610b88565b5f8111610a66576040517f08c379a0000000000000000000000000000000000000000000000000000000008152600401610a5d9061193a565b60405180910390fd5b610a7a67fde9c565aed555c660c01b610b88565b610a8e6732571400a7639f1160c01b610b88565b610aa267791c9499b49a8fbb60c01b610b88565b610aac8282611157565b5050565b610ab8610b8b565b5f73ffffffffffffffffffffffffffffffffffffffff168173ffffffffffffffffffffffffffffffffffffffff1603610b26576040517f08c379a0000000000000000000000000000000000000000000000000000000008152600401610b1d906119c8565b60405180910390fd5b610b2f8161102d565b50565b5f610b4767917b596b9539e28f60c01b610b88565b610b5b6757330cca85c4e5b860c01b610b88565b610b6f673373e0da12101e7a60c01b610b88565b60045f8381526020019081526020015f20549050919050565b50565b610b936110ee565b73ffffffffffffffffffffffffffffffffffffffff16610bb16108eb565b73ffffffffffffffffffffffffffffffffffffffff1614610c07576040517f08c379a0000000000000000000000000000000000000000000000000000000008152600401610bfe90611a30565b60405180910390fd5b565b610c116112e2565b5f8060146101000a81548160ff0219169083151502179055507f5db9ee0a495bf2e6ff9c91a7834c1ba4fdd244a5e8aa4e537bd38aeae4b073aa610c536110ee565b604051610c609190611472565b60405180910390a1565b610c72610539565b15610cb2576040517f08c379a0000000000000000000000000000000000000000000000000000000008152600401610ca990611a98565b60405180910390fd5b565b610cc867b32413ba5e9f498860c01b610b88565b610cdc679eb752b5ba6382fc60c01b610b88565b610cf06721a9a75dc8a4dbd760c01b610b88565b5f60055f610cfc6110ee565b73ffffffffffffffffffffffffffffffffffffffff1673ffffffffffffffffffffffffffffffffffffffff1681526020019081526020015f205f8481526020019081526020015f205460035f8581526020019081526020015f2054610d619190611ab6565b9050610d77679b7e5630602a9e9760c01b610b88565b610d8b673acceb86dd25e1f060c01b610b88565b5f6127108284610d9b9190611ae9565b610da59190611b57565b9050610dbb67e30aacfcfbc4b12360c01b610b88565b610dcf67f70e0922b45c254960c01b610b88565b610de367f10a86ab09aa44e960c01b610b88565b5f8111610e25576040517f08c379a0000000000000000000000000000000000000000000000000000000008152600401610e1c90611bd1565b60405180910390fd5b610e39674839cc3d9ef3d1a860c01b610b88565b610e4d67b906fcc3a099cceb60c01b610b88565b60035f8581526020019081526020015f205460055f610e6a6110ee565b73ffffffffffffffffffffffffffffffffffffffff1673ffffffffffffffffffffffffffffffffffffffff1681526020019081526020015f205f8681526020019081526020015f2081905550610eca67e7f33c783b4cf9ac60c01b610b88565b8060045f8681526020019081526020015f205f828254610eea91906118bd565b92505081905550610f0567571a9cef0a773d0660c01b610b88565b610f1967dd13ef094db2bfe260c01b610b88565b7fdf273cb619d95419a9cd0ec88123a0538c85064229baa6363788f743fff90deb610f426110ee565b8583604051610f5393929190611bef565b60405180910390a1610f6f67a92a1909472542f860c01b610b88565b610f8367e6d050968f5f679860c01b610b88565b60015f9054906101000a900473ffffffffffffffffffffffffffffffffffffffff1673ffffffffffffffffffffffffffffffffffffffff1663a9059cbb610fc86110ee565b836040518363ffffffff1660e01b8152600401610fe692919061183e565b6020604051808303815f875af1158015611002573d5f803e3d5ffd5b505050506040513d601f19601f820116820180604052508101906110269190611c4e565b5050505050565b5f805f9054906101000a900473ffffffffffffffffffffffffffffffffffffffff169050815f806101000a81548173ffffffffffffffffffffffffffffffffffffffff021916908373ffffffffffffffffffffffffffffffffffffffff1602179055508173ffffffffffffffffffffffffffffffffffffffff168173ffffffffffffffffffffffffffffffffffffffff167f8be0079c531659141344cd1fd0a4f28419497f9722a3daafe3b4186f6b6457e060405160405180910390a35050565b5f33905090565b6110fd610c6a565b60015f60146101000a81548160ff0219169083151502179055507f62e78cea01bee320cd4e420270b5ea74000d11b0c9f74754ebdbfc544b05a2586111406110ee565b60405161114d9190611472565b60405180910390a1565b61116b6734eb8fa2eceeb01060c01b610b88565b61117f678defee4abcb08a6260c01b610b88565b8060035f8481526020019081526020015f205f82825461119f91906118bd565b925050819055506111ba6722acbfc5bb2cd45d60c01b610b88565b6111ce670b97b00dd472e86e60c01b610b88565b7f5677b5d4cf976ac32defbd95a6a5aaf0d1fee450a11fc26f3c11aae6e6c33d066111f76110ee565b838360405161120893929190611bef565b60405180910390a16112246763de5e1f4bce872c60c01b610b88565b61123867f49ff6deaa4a571460c01b610b88565b60015f9054906101000a900473ffffffffffffffffffffffffffffffffffffffff1673ffffffffffffffffffffffffffffffffffffffff166323b872dd61127d6110ee565b30846040518463ffffffff1660e01b815260040161129d93929190611c79565b6020604051808303815f875af11580156112b9573d5f803e3d5ffd5b505050506040513d601f19601f820116820180604052508101906112dd9190611c4e565b505050565b6112ea610539565b611329576040517f08c379a000000000000000000000000000000000000000000000000000000000815260040161132090611cf8565b60405180910390fd5b565b5f604051905090565b5f80fd5b5f80fd5b5f819050919050565b61134e8161133c565b8114611358575f80fd5b50565b5f8135905061136981611345565b92915050565b5f6020828403121561138457611383611334565b5b5f6113918482850161135b565b91505092915050565b6113a38161133c565b82525050565b5f6020820190506113bc5f83018461139a565b92915050565b5f80604083850312156113d8576113d7611334565b5b5f6113e58582860161135b565b92505060206113f68582860161135b565b9150509250929050565b5f8115159050919050565b61141481611400565b82525050565b5f60208201905061142d5f83018461140b565b92915050565b5f73ffffffffffffffffffffffffffffffffffffffff82169050919050565b5f61145c82611433565b9050919050565b61146c81611452565b82525050565b5f6020820190506114855f830184611463565b92915050565b61149481611452565b811461149e575f80fd5b50565b5f813590506114af8161148b565b92915050565b5f80604083850312156114cb576114ca611334565b5b5f6114d8858286016114a1565b92505060206114e98582860161135b565b9150509250929050565b5f6020828403121561150857611507611334565b5b5f611515848285016114a1565b91505092915050565b5f82825260208201905092915050565b7f52454a5556453a205a65726f20636f6e747269627574696f6e000000000000005f82015250565b5f61156260198361151e565b915061156d8261152e565b602082019050919050565b5f6020820190508181035f83015261158f81611556565b9050919050565b7f52454a5556453a204e6f2070726f64756374206561726e696e670000000000005f82015250565b5f6115ca601a8361151e565b91506115d582611596565b602082019050919050565b5f6020820190508181035f8301526115f7816115be565b9050919050565b7f52454a5556453a204e6f2073686172642062616c616e636500000000000000005f82015250565b5f61163260188361151e565b915061163d826115fe565b602082019050919050565b5f6020820190508181035f83015261165f81611626565b9050919050565b5f80fd5b5f601f19601f8301169050919050565b7f4e487b71000000000000000000000000000000000000000000000000000000005f52604160045260245ffd5b6116b08261166a565b810181811067ffffffffffffffff821117156116cf576116ce61167a565b5b80604052505050565b5f6116e161132b565b90506116ed82826116a7565b919050565b5f67ffffffffffffffff82111561170c5761170b61167a565b5b602082029050602081019050919050565b5f80fd5b5f8151905061172f81611345565b92915050565b5f611747611742846116f2565b6116d8565b9050808382526020820190506020840283018581111561176a5761176961171d565b5b835b81811015611793578061177f8882611721565b84526020840193505060208101905061176c565b5050509392505050565b5f82601f8301126117b1576117b0611666565b5b81516117c1848260208601611735565b91505092915050565b5f602082840312156117df576117de611334565b5b5f82015167ffffffffffffffff8111156117fc576117fb611338565b5b6118088482850161179d565b91505092915050565b7f4e487b71000000000000000000000000000000000000000000000000000000005f52603260045260245ffd5b5f6040820190506118515f830185611463565b61185e602083018461139a565b9392505050565b5f6020828403121561187a57611879611334565b5b5f61188784828501611721565b91505092915050565b7f4e487b71000000000000000000000000000000000000000000000000000000005f52601160045260245ffd5b5f6118c78261133c565b91506118d28361133c565b92508282019050808211156118ea576118e9611890565b5b92915050565b7f52454a5556453a205a65726f20616d6f756e74000000000000000000000000005f82015250565b5f61192460138361151e565b915061192f826118f0565b602082019050919050565b5f6020820190508181035f83015261195181611918565b9050919050565b7f4f776e61626c653a206e6577206f776e657220697320746865207a65726f20615f8201527f6464726573730000000000000000000000000000000000000000000000000000602082015250565b5f6119b260268361151e565b91506119bd82611958565b604082019050919050565b5f6020820190508181035f8301526119df816119a6565b9050919050565b7f4f776e61626c653a2063616c6c6572206973206e6f7420746865206f776e65725f82015250565b5f611a1a60208361151e565b9150611a25826119e6565b602082019050919050565b5f6020820190508181035f830152611a4781611a0e565b9050919050565b7f5061757361626c653a20706175736564000000000000000000000000000000005f82015250565b5f611a8260108361151e565b9150611a8d82611a4e565b602082019050919050565b5f6020820190508181035f830152611aaf81611a76565b9050919050565b5f611ac08261133c565b9150611acb8361133c565b9250828203905081811115611ae357611ae2611890565b5b92915050565b5f611af38261133c565b9150611afe8361133c565b9250828202611b0c8161133c565b91508282048414831517611b2357611b22611890565b5b5092915050565b7f4e487b71000000000000000000000000000000000000000000000000000000005f52601260045260245ffd5b5f611b618261133c565b9150611b6c8361133c565b925082611b7c57611b7b611b2a565b5b828204905092915050565b7f52454a5556453a204e6f2075736572206561726e696e670000000000000000005f82015250565b5f611bbb60178361151e565b9150611bc682611b87565b602082019050919050565b5f6020820190508181035f830152611be881611baf565b9050919050565b5f606082019050611c025f830186611463565b611c0f602083018561139a565b611c1c604083018461139a565b949350505050565b611c2d81611400565b8114611c37575f80fd5b50565b5f81519050611c4881611c24565b92915050565b5f60208284031215611c6357611c62611334565b5b5f611c7084828501611c3a565b91505092915050565b5f606082019050611c8c5f830186611463565b611c996020830185611463565b611ca6604083018461139a565b949350505050565b7f5061757361626c653a206e6f74207061757365640000000000000000000000005f82015250565b5f611ce260148361151e565b9150611ced82611cae565b602082019050919050565b5f6020820190508181035f830152611d0f81611cd6565b905091905056fea2646970667358221220fd7e29c9a62b09af2e0cf4995da2df9e551d463d9d6ca026af82108c5839ebc664736f6c63430008140033",
  "linkReferences": {},
  "deployedLinkReferences": {}
}