{
  "_format": "hh-sol-artifact-1",
  "contractName": "ProfitDistribution",
  "sourceName": "contracts/ProfitDistribution.sol",
  "abi": [
    {
      "inputs": [
        {
          "internalType": "address",
          "name": "rejuveToken_",
          "type": "address"
        },
        {
          "internalType": "address",
          "name": "productShards_",
          "type": "address"
        }
      ],
      "stateMutability": "nonpayable",
      "type": "constructor"
    },
    {
      "anonymous": false,
      "inputs": [
        {
          "indexed": true,
          "internalType": "address",
          "name": "previousOwner",
          "type": "address"
        },
        {
          "indexed": true,
          "internalType": "address",
          "name": "newOwner",
          "type": "address"
        }
      ],
      "name": "OwnershipTransferred",
      "type": "event"
    },
    {
      "anonymous": false,
      "inputs": [
        {
          "indexed": false,
          "internalType": "address",
          "name": "account",
          "type": "address"
        }
      ],
      "name": "Paused",
      "type": "event"
    },
    {
      "anonymous": false,
      "inputs": [
        {
          "indexed": false,
          "internalType": "address",
          "name": "sender",
          "type": "address"
        },
        {
          "indexed": false,
          "internalType": "uint256",
          "name": "productUID",
          "type": "uint256"
        },
        {
          "indexed": false,
          "internalType": "uint256",
          "name": "amount",
          "type": "uint256"
        }
      ],
      "name": "PaymentReceived",
      "type": "event"
    },
    {
      "anonymous": false,
      "inputs": [
        {
          "indexed": false,
          "internalType": "address",
          "name": "account",
          "type": "address"
        }
      ],
      "name": "Unpaused",
      "type": "event"
    },
    {
      "anonymous": false,
      "inputs": [
        {
          "indexed": false,
          "internalType": "address",
          "name": "holder",
          "type": "address"
        },
        {
          "indexed": false,
          "internalType": "uint256",
          "name": "productUID",
          "type": "uint256"
        },
        {
          "indexed": false,
          "internalType": "uint256",
          "name": "amount",
          "type": "uint256"
        }
      ],
      "name": "Withdrawal",
      "type": "event"
    },
    {
      "inputs": [
        {
          "internalType": "uint256",
          "name": "productUID",
          "type": "uint256"
        }
      ],
      "name": "_getShardBalance",
      "outputs": [
        {
          "internalType": "uint256",
          "name": "",
          "type": "uint256"
        }
      ],
      "stateMutability": "view",
      "type": "function"
    },
    {
      "inputs": [
        {
          "internalType": "uint256",
          "name": "productUID",
          "type": "uint256"
        },
        {
          "internalType": "uint256",
          "name": "amount",
          "type": "uint256"
        }
      ],
      "name": "deposit",
      "outputs": [],
      "stateMutability": "nonpayable",
      "type": "function"
    },
    {
      "inputs": [
        {
          "internalType": "address",
          "name": "holder",
          "type": "address"
        },
        {
          "internalType": "uint256",
          "name": "productUID",
          "type": "uint256"
        }
      ],
      "name": "getHolderLastPoint",
      "outputs": [
        {
          "internalType": "uint256",
          "name": "",
          "type": "uint256"
        }
      ],
      "stateMutability": "view",
      "type": "function"
    },
    {
      "inputs": [
        {
          "internalType": "uint256",
          "name": "productUID",
          "type": "uint256"
        }
      ],
      "name": "getProductEarning",
      "outputs": [
        {
          "internalType": "uint256",
          "name": "",
          "type": "uint256"
        }
      ],
      "stateMutability": "view",
      "type": "function"
    },
    {
      "inputs": [
        {
          "internalType": "uint256",
          "name": "productUID",
          "type": "uint256"
        }
      ],
      "name": "getTotalWithdrawal",
      "outputs": [
        {
          "internalType": "uint256",
          "name": "",
          "type": "uint256"
        }
      ],
      "stateMutability": "view",
      "type": "function"
    },
    {
      "inputs": [],
      "name": "owner",
      "outputs": [
        {
          "internalType": "address",
          "name": "",
          "type": "address"
        }
      ],
      "stateMutability": "view",
      "type": "function"
    },
    {
      "inputs": [],
      "name": "pause",
      "outputs": [],
      "stateMutability": "nonpayable",
      "type": "function"
    },
    {
      "inputs": [],
      "name": "paused",
      "outputs": [
        {
          "internalType": "bool",
          "name": "",
          "type": "bool"
        }
      ],
      "stateMutability": "view",
      "type": "function"
    },
    {
      "inputs": [],
      "name": "renounceOwnership",
      "outputs": [],
      "stateMutability": "nonpayable",
      "type": "function"
    },
    {
      "inputs": [
        {
          "internalType": "address",
          "name": "newOwner",
          "type": "address"
        }
      ],
      "name": "transferOwnership",
      "outputs": [],
      "stateMutability": "nonpayable",
      "type": "function"
    },
    {
      "inputs": [],
      "name": "unpause",
      "outputs": [],
      "stateMutability": "nonpayable",
      "type": "function"
    },
    {
      "inputs": [
        {
          "internalType": "uint256",
          "name": "productUID",
          "type": "uint256"
        },
        {
          "internalType": "uint256",
          "name": "contributionPoints",
          "type": "uint256"
        }
      ],
      "name": "withdraw",
      "outputs": [],
      "stateMutability": "nonpayable",
      "type": "function"
    }
  ],
  "bytecode": "0x60806040523480156200001157600080fd5b50604051620020d7380380620020d7833981810160405281019062000037919062000288565b620000576200004b6200014f60201b60201c565b6200015760201b60201c565b60008060146101000a81548160ff0219169083151502179055506200008d6709fc4eec1bf4de1d60c01b6200021b60201b60201c565b620000a9675c4690c38d868f7060c01b6200021b60201b60201c565b81600160006101000a81548173ffffffffffffffffffffffffffffffffffffffff021916908373ffffffffffffffffffffffffffffffffffffffff1602179055506200010667dfe1f1e42e42877960c01b6200021b60201b60201c565b80600260006101000a81548173ffffffffffffffffffffffffffffffffffffffff021916908373ffffffffffffffffffffffffffffffffffffffff1602179055505050620002cf565b600033905090565b60008060009054906101000a900473ffffffffffffffffffffffffffffffffffffffff169050816000806101000a81548173ffffffffffffffffffffffffffffffffffffffff021916908373ffffffffffffffffffffffffffffffffffffffff1602179055508173ffffffffffffffffffffffffffffffffffffffff168173ffffffffffffffffffffffffffffffffffffffff167f8be0079c531659141344cd1fd0a4f28419497f9722a3daafe3b4186f6b6457e060405160405180910390a35050565b50565b600080fd5b600073ffffffffffffffffffffffffffffffffffffffff82169050919050565b6000620002508262000223565b9050919050565b620002628162000243565b81146200026e57600080fd5b50565b600081519050620002828162000257565b92915050565b60008060408385031215620002a257620002a16200021e565b5b6000620002b28582860162000271565b9250506020620002c58582860162000271565b9150509250929050565b611df880620002df6000396000f3fe608060405234801561001057600080fd5b50600436106100b45760003560e01c80638456cb59116100715780638456cb59146101675780638da5cb5b146101715780639734c3351461018f578063e2bbb158146101bf578063f2fde38b146101db578063f5ed8b8a146101f7576100b4565b806327770bd0146100b95780633f4ba83a146100e9578063441a3e70146100f35780635c975abb1461010f578063715018a61461012d57806381fdde0914610137575b600080fd5b6100d360048036038101906100ce91906113c1565b610227565b6040516100e091906113fd565b60405180910390f35b6100f1610280565b005b61010d60048036038101906101089190611418565b6102f6565b005b610117610544565b6040516101249190611473565b60405180910390f35b61013561055a565b005b610151600480360381019061014c91906113c1565b61056e565b60405161015e91906113fd565b60405180910390f35b61016f610892565b005b610179610908565b60405161018691906114cf565b60405180910390f35b6101a960048036038101906101a49190611516565b610931565b6040516101b691906113fd565b60405180910390f35b6101d960048036038101906101d49190611418565b6109c8565b005b6101f560048036038101906101f09190611556565b610ad5565b005b610211600480360381019061020c91906113c1565b610b58565b60405161021e91906113fd565b60405180910390f35b600061023d67601f7aee6534a87f60c01b610bb1565b61025167e98f2c688fb6512260c01b610bb1565b61026567f35a41b1918e7f7e60c01b610bb1565b60036000838152602001908152602001600020549050919050565b61029467ddeb6d24752f24ea60c01b610bb1565b61029c610bb4565b6102b067fec3d91bc0cc525160c01b610bb1565b6102c467dcce4f9530b5aaec60c01b610bb1565b6102d86784b41a37e5a8f2b560c01b610bb1565b6102ec674325d75e11adacce60c01b610bb1565b6102f4610c32565b565b61030a678a58a1b9096caea260c01b610bb1565b610312610c94565b6103266773c877feb6e9031360c01b610bb1565b61033a67c6e9071446e4409160c01b610bb1565b61034e6782f37b422fd6004060c01b610bb1565b61036267b3829d23818fe47060c01b610bb1565b610376677a6d56cd92adb02f60c01b610bb1565b600081116103b9576040517f08c379a00000000000000000000000000000000000000000000000000000000081526004016103b0906115e0565b60405180910390fd5b6103cd674fd66e311c0ed85760c01b610bb1565b6103e167bdbd6fdb91d777d060c01b610bb1565b6103f5675a9ec6fd0018c60760c01b610bb1565b610409673bedee1b4009c8fd60c01b610bb1565b600060036000848152602001908152602001600020541161045f576040517f08c379a00000000000000000000000000000000000000000000000000000000081526004016104569061164c565b60405180910390fd5b61047367224c5654f3af829060c01b610bb1565b6104876738c1cf02bfb83f4e60c01b610bb1565b61049b67e7c854fb9b21ec6f60c01b610bb1565b6104af67f7f99aa84f6a32e060c01b610bb1565b60006104ba8361056e565b116104fa576040517f08c379a00000000000000000000000000000000000000000000000000000000081526004016104f1906116b8565b60405180910390fd5b61050e67aa601e7ab67e3fa660c01b610bb1565b61052267043ced2eff6dec9c60c01b610bb1565b6105366731e4eef7e1361f6560c01b610bb1565b6105408282610cde565b5050565b60008060149054906101000a900460ff16905090565b610562610bb4565b61056c600061106d565b565b600061058467b791284d8bb7fcec60c01b610bb1565b610598674811ad7861fc0c4560c01b610bb1565b6105ac6785e93829fa87501660c01b610bb1565b6000600260009054906101000a900473ffffffffffffffffffffffffffffffffffffffff1673ffffffffffffffffffffffffffffffffffffffff16634e57d942846040518263ffffffff1660e01b815260040161060991906113fd565b600060405180830381865afa158015610626573d6000803e3d6000fd5b505050506040513d6000823e3d601f19601f8201168201806040525081019061064f9190611846565b905061066567db99c236d9c83a4f60c01b610bb1565b61067967efaddc4114983b3860c01b610bb1565b6000600260009054906101000a900473ffffffffffffffffffffffffffffffffffffffff1673ffffffffffffffffffffffffffffffffffffffff1662fdd58e6106c0611131565b846000815181106106d4576106d361188f565b5b60200260200101516040518363ffffffff1660e01b81526004016106f99291906118be565b602060405180830381865afa158015610716573d6000803e3d6000fd5b505050506040513d601f19601f8201168201806040525081019061073a91906118e7565b9050610750671e9bfc0d5012236260c01b610bb1565b610764677e929f5e2443eae760c01b610bb1565b6000600260009054906101000a900473ffffffffffffffffffffffffffffffffffffffff1673ffffffffffffffffffffffffffffffffffffffff1662fdd58e6107ab611131565b856001815181106107bf576107be61188f565b5b60200260200101516040518363ffffffff1660e01b81526004016107e49291906118be565b602060405180830381865afa158015610801573d6000803e3d6000fd5b505050506040513d601f19601f8201168201806040525081019061082591906118e7565b905061083a66356452a64b74dc60c01b610bb1565b61084e67850566c33386331c60c01b610bb1565b6000818361085c9190611943565b905061087267767ea827889f26c060c01b610bb1565b61088667035083c0bbc2b3c560c01b610bb1565b80945050505050919050565b6108a667f2ef1cbe6ec9e36760c01b610bb1565b6108ae610bb4565b6108c26718c8cd98fe2b615560c01b610bb1565b6108d667713271781e645e3060c01b610bb1565b6108ea672a267663f6c7068a60c01b610bb1565b6108fe67d4c371c58d6a47cb60c01b610bb1565b610906611139565b565b60008060009054906101000a900473ffffffffffffffffffffffffffffffffffffffff16905090565b600061094767bc15fc4b94a80ca560c01b610bb1565b61095b672d20c82dbc98c27f60c01b610bb1565b61096f67b4c9e3111b255c5560c01b610bb1565b600560008473ffffffffffffffffffffffffffffffffffffffff1673ffffffffffffffffffffffffffffffffffffffff168152602001908152602001600020600083815260200190815260200160002054905092915050565b6109dc672158121f42d2507f60c01b610bb1565b6109e4610c94565b6109f86726df088436f3069f60c01b610bb1565b610a0c67ce0321615a52d10360c01b610bb1565b610a2067d0f80ccd0c2ce0f460c01b610bb1565b610a3467e7165c1ce2097d4060c01b610bb1565b610a4867b0e4359b64bf178360c01b610bb1565b60008111610a8b576040517f08c379a0000000000000000000000000000000000000000000000000000000008152600401610a82906119c3565b60405180910390fd5b610a9f6706d6e8bb055627d660c01b610bb1565b610ab3678ca1bb4fc0f7bbf360c01b610bb1565b610ac767df79c48f9200673060c01b610bb1565b610ad1828261119c565b5050565b610add610bb4565b600073ffffffffffffffffffffffffffffffffffffffff168173ffffffffffffffffffffffffffffffffffffffff1603610b4c576040517f08c379a0000000000000000000000000000000000000000000000000000000008152600401610b4390611a55565b60405180910390fd5b610b558161106d565b50565b6000610b6e675ab75aec4f2ddec360c01b610bb1565b610b8267cfe1136df218649060c01b610bb1565b610b966742d2e7e00483960160c01b610bb1565b60046000838152602001908152602001600020549050919050565b50565b610bbc611131565b73ffffffffffffffffffffffffffffffffffffffff16610bda610908565b73ffffffffffffffffffffffffffffffffffffffff1614610c30576040517f08c379a0000000000000000000000000000000000000000000000000000000008152600401610c2790611ac1565b60405180910390fd5b565b610c3a61132e565b60008060146101000a81548160ff0219169083151502179055507f5db9ee0a495bf2e6ff9c91a7834c1ba4fdd244a5e8aa4e537bd38aeae4b073aa610c7d611131565b604051610c8a91906114cf565b60405180910390a1565b610c9c610544565b15610cdc576040517f08c379a0000000000000000000000000000000000000000000000000000000008152600401610cd390611b2d565b60405180910390fd5b565b610cf2673f433e8d013df0b860c01b610bb1565b610d066788d817a3e2cc0f8760c01b610bb1565b610d1a678ca35f72118fe72b60c01b610bb1565b600060056000610d28611131565b73ffffffffffffffffffffffffffffffffffffffff1673ffffffffffffffffffffffffffffffffffffffff1681526020019081526020016000206000848152602001908152602001600020546003600085815260200190815260200160002054610d929190611b4d565b9050610da8679786938afe87246360c01b610bb1565b610dbc67adc6ba27b29b928760c01b610bb1565b60006127108284610dcd9190611b81565b610dd79190611bf2565b9050610ded677ed8cc879225173960c01b610bb1565b610e016775c5c663f4b86b7960c01b610bb1565b610e15670957bffe9ee92eeb60c01b610bb1565b60008111610e58576040517f08c379a0000000000000000000000000000000000000000000000000000000008152600401610e4f90611c6f565b60405180910390fd5b610e6c678fdcc1c352ce494860c01b610bb1565b610e806779b38923664a3ebd60c01b610bb1565b600360008581526020019081526020016000205460056000610ea0611131565b73ffffffffffffffffffffffffffffffffffffffff1673ffffffffffffffffffffffffffffffffffffffff168152602001908152602001600020600086815260200190815260200160002081905550610f0367d7a16ddcff2f959a60c01b610bb1565b80600460008681526020019081526020016000206000828254610f269190611943565b92505081905550610f41670b50d948374cf22f60c01b610bb1565b610f5567747985343a27eb0560c01b610bb1565b600160009054906101000a900473ffffffffffffffffffffffffffffffffffffffff1673ffffffffffffffffffffffffffffffffffffffff1663a9059cbb610f9b611131565b836040518363ffffffff1660e01b8152600401610fb99291906118be565b6020604051808303816000875af1158015610fd8573d6000803e3d6000fd5b505050506040513d601f19601f82011682018060405250810190610ffc9190611cbb565b5061101167f25e0ad538913ba560c01b610bb1565b611025671ffa697d8f21a20060c01b610bb1565b7fdf273cb619d95419a9cd0ec88123a0538c85064229baa6363788f743fff90deb61104e611131565b858360405161105f93929190611ce8565b60405180910390a150505050565b60008060009054906101000a900473ffffffffffffffffffffffffffffffffffffffff169050816000806101000a81548173ffffffffffffffffffffffffffffffffffffffff021916908373ffffffffffffffffffffffffffffffffffffffff1602179055508173ffffffffffffffffffffffffffffffffffffffff168173ffffffffffffffffffffffffffffffffffffffff167f8be0079c531659141344cd1fd0a4f28419497f9722a3daafe3b4186f6b6457e060405160405180910390a35050565b600033905090565b611141610c94565b6001600060146101000a81548160ff0219169083151502179055507f62e78cea01bee320cd4e420270b5ea74000d11b0c9f74754ebdbfc544b05a258611185611131565b60405161119291906114cf565b60405180910390a1565b6111b067a25933a5f89317f360c01b610bb1565b6111c4676c0e8a16ce09f26860c01b610bb1565b6111d8675e496a8433a9b8f860c01b610bb1565b600160009054906101000a900473ffffffffffffffffffffffffffffffffffffffff1673ffffffffffffffffffffffffffffffffffffffff166323b872dd61121e611131565b30846040518463ffffffff1660e01b815260040161123e93929190611d1f565b6020604051808303816000875af115801561125d573d6000803e3d6000fd5b505050506040513d601f19601f820116820180604052508101906112819190611cbb565b50611296671fd4f0fcef9cb3e260c01b610bb1565b806003600084815260200190815260200160002060008282546112b99190611943565b925050819055506112d467faa38421c0a27ba560c01b610bb1565b6112e867d9a3008624304c9e60c01b610bb1565b7f5677b5d4cf976ac32defbd95a6a5aaf0d1fee450a11fc26f3c11aae6e6c33d06611311611131565b838360405161132293929190611ce8565b60405180910390a15050565b611336610544565b611375576040517f08c379a000000000000000000000000000000000000000000000000000000000815260040161136c90611da2565b60405180910390fd5b565b6000604051905090565b600080fd5b600080fd5b6000819050919050565b61139e8161138b565b81146113a957600080fd5b50565b6000813590506113bb81611395565b92915050565b6000602082840312156113d7576113d6611381565b5b60006113e5848285016113ac565b91505092915050565b6113f78161138b565b82525050565b600060208201905061141260008301846113ee565b92915050565b6000806040838503121561142f5761142e611381565b5b600061143d858286016113ac565b925050602061144e858286016113ac565b9150509250929050565b60008115159050919050565b61146d81611458565b82525050565b60006020820190506114886000830184611464565b92915050565b600073ffffffffffffffffffffffffffffffffffffffff82169050919050565b60006114b98261148e565b9050919050565b6114c9816114ae565b82525050565b60006020820190506114e460008301846114c0565b92915050565b6114f3816114ae565b81146114fe57600080fd5b50565b600081359050611510816114ea565b92915050565b6000806040838503121561152d5761152c611381565b5b600061153b85828601611501565b925050602061154c858286016113ac565b9150509250929050565b60006020828403121561156c5761156b611381565b5b600061157a84828501611501565b91505092915050565b600082825260208201905092915050565b7f52454a5556453a205a65726f20636f6e747269627574696f6e00000000000000600082015250565b60006115ca601983611583565b91506115d582611594565b602082019050919050565b600060208201905081810360008301526115f9816115bd565b9050919050565b7f52454a5556453a204e6f2070726f64756374206561726e696e67000000000000600082015250565b6000611636601a83611583565b915061164182611600565b602082019050919050565b6000602082019050818103600083015261166581611629565b9050919050565b7f52454a5556453a204e6f2073686172642062616c616e63650000000000000000600082015250565b60006116a2601883611583565b91506116ad8261166c565b602082019050919050565b600060208201905081810360008301526116d181611695565b9050919050565b600080fd5b6000601f19601f8301169050919050565b7f4e487b7100000000000000000000000000000000000000000000000000000000600052604160045260246000fd5b611726826116dd565b810181811067ffffffffffffffff82111715611745576117446116ee565b5b80604052505050565b6000611758611377565b9050611764828261171d565b919050565b600067ffffffffffffffff821115611784576117836116ee565b5b602082029050602081019050919050565b600080fd5b6000815190506117a981611395565b92915050565b60006117c26117bd84611769565b61174e565b905080838252602082019050602084028301858111156117e5576117e4611795565b5b835b8181101561180e57806117fa888261179a565b8452602084019350506020810190506117e7565b5050509392505050565b600082601f83011261182d5761182c6116d8565b5b815161183d8482602086016117af565b91505092915050565b60006020828403121561185c5761185b611381565b5b600082015167ffffffffffffffff81111561187a57611879611386565b5b61188684828501611818565b91505092915050565b7f4e487b7100000000000000000000000000000000000000000000000000000000600052603260045260246000fd5b60006040820190506118d360008301856114c0565b6118e060208301846113ee565b9392505050565b6000602082840312156118fd576118fc611381565b5b600061190b8482850161179a565b91505092915050565b7f4e487b7100000000000000000000000000000000000000000000000000000000600052601160045260246000fd5b600061194e8261138b565b91506119598361138b565b925082820190508082111561197157611970611914565b5b92915050565b7f52454a5556453a205a65726f20616d6f756e7400000000000000000000000000600082015250565b60006119ad601383611583565b91506119b882611977565b602082019050919050565b600060208201905081810360008301526119dc816119a0565b9050919050565b7f4f776e61626c653a206e6577206f776e657220697320746865207a65726f206160008201527f6464726573730000000000000000000000000000000000000000000000000000602082015250565b6000611a3f602683611583565b9150611a4a826119e3565b604082019050919050565b60006020820190508181036000830152611a6e81611a32565b9050919050565b7f4f776e61626c653a2063616c6c6572206973206e6f7420746865206f776e6572600082015250565b6000611aab602083611583565b9150611ab682611a75565b602082019050919050565b60006020820190508181036000830152611ada81611a9e565b9050919050565b7f5061757361626c653a2070617573656400000000000000000000000000000000600082015250565b6000611b17601083611583565b9150611b2282611ae1565b602082019050919050565b60006020820190508181036000830152611b4681611b0a565b9050919050565b6000611b588261138b565b9150611b638361138b565b9250828203905081811115611b7b57611b7a611914565b5b92915050565b6000611b8c8261138b565b9150611b978361138b565b9250828202611ba58161138b565b91508282048414831517611bbc57611bbb611914565b5b5092915050565b7f4e487b7100000000000000000000000000000000000000000000000000000000600052601260045260246000fd5b6000611bfd8261138b565b9150611c088361138b565b925082611c1857611c17611bc3565b5b828204905092915050565b7f52454a5556453a204e6f2075736572206561726e696e67000000000000000000600082015250565b6000611c59601783611583565b9150611c6482611c23565b602082019050919050565b60006020820190508181036000830152611c8881611c4c565b9050919050565b611c9881611458565b8114611ca357600080fd5b50565b600081519050611cb581611c8f565b92915050565b600060208284031215611cd157611cd0611381565b5b6000611cdf84828501611ca6565b91505092915050565b6000606082019050611cfd60008301866114c0565b611d0a60208301856113ee565b611d1760408301846113ee565b949350505050565b6000606082019050611d3460008301866114c0565b611d4160208301856114c0565b611d4e60408301846113ee565b949350505050565b7f5061757361626c653a206e6f7420706175736564000000000000000000000000600082015250565b6000611d8c601483611583565b9150611d9782611d56565b602082019050919050565b60006020820190508181036000830152611dbb81611d7f565b905091905056fea26469706673582212208c94612633a3410959f84f42d05149a75963da607bd277826c923a7599df386f64736f6c63430008120033",
  "linkReferences": {},
  "deployedLinkReferences": {}
}