{
  "_format": "hh-sol-artifact-1",
  "contractName": "ConfirmRFT",
  "sourceName": "contracts/utils/ConfirmRFT.sol",
  "abi": [
    {
      "inputs": [
        {
          "internalType": "address",
          "name": "_RFT",
          "type": "address"
        }
      ],
      "name": "confirmRFT",
      "outputs": [
        {
          "internalType": "bool",
          "name": "",
          "type": "bool"
        }
      ],
      "stateMutability": "view",
      "type": "function"
    }
  ],
  "bytecode": "0x608060405234801561001057600080fd5b50610322806100206000396000f3fe608060405234801561001057600080fd5b506004361061002b5760003560e01c80632746640014610030575b600080fd5b61004361003e366004610270565b610057565b604051901515815260200160405180910390f35b600080826001600160a01b03166380a540016040518163ffffffff1660e01b815260040160206040518083038186803b15801561009357600080fd5b505afa1580156100a7573d6000803e3d6000fd5b505050506040513d601f19601f820116820180604052508101906100cb9190610294565b90506000836001600160a01b031663d7f083f36040518163ffffffff1660e01b815260040160206040518083038186803b15801561010857600080fd5b505afa15801561011c573d6000803e3d6000fd5b505050506040513d601f19601f8201168201806040525081019061014091906102b1565b6040516301ffc9a760e01b81526380ac58cd60e01b60048201529091506001600160a01b038316906301ffc9a79060240160206040518083038186803b15801561018957600080fd5b505afa15801561019d573d6000803e3d6000fd5b505050506040513d601f19601f820116820180604052508101906101c191906102ca565b801561025057506040516331a9108f60e11b8152600481018290526001600160a01b038086169190841690636352211e9060240160206040518083038186803b15801561020d57600080fd5b505afa158015610221573d6000803e3d6000fd5b505050506040513d601f19601f820116820180604052508101906102459190610294565b6001600160a01b0316145b949350505050565b6001600160a01b038116811461026d57600080fd5b50565b60006020828403121561028257600080fd5b813561028d81610258565b9392505050565b6000602082840312156102a657600080fd5b815161028d81610258565b6000602082840312156102c357600080fd5b5051919050565b6000602082840312156102dc57600080fd5b8151801515811461028d57600080fdfea264697066735822122002008920e5b4ebbb4f4fa0189d6a88f7417c618c3b4768baec541fbd3d6ddd3a64736f6c63430008090033",
  "linkReferences": {},
  "deployedLinkReferences": {}
}