{
  "_format": "hh-sol-artifact-1",
  "contractName": "TransferShards",
  "sourceName": "contracts/TransferShards.sol",
  "abi": [
    {
      "inputs": [
        {
          "internalType": "string",
          "name": "uri",
          "type": "string"
        },
        {
          "internalType": "address",
          "name": "productNFT",
          "type": "address"
        }
      ],
      "stateMutability": "nonpayable",
      "type": "constructor"
    },
    {
      "anonymous": false,
      "inputs": [
        {
          "indexed": true,
          "internalType": "address",
          "name": "account",
          "type": "address"
        },
        {
          "indexed": true,
          "internalType": "address",
          "name": "operator",
          "type": "address"
        },
        {
          "indexed": false,
          "internalType": "bool",
          "name": "approved",
          "type": "bool"
        }
      ],
      "name": "ApprovalForAll",
      "type": "event"
    },
    {
      "anonymous": false,
      "inputs": [
        {
          "indexed": false,
          "internalType": "uint256",
          "name": "productUID",
          "type": "uint256"
        },
        {
          "indexed": false,
          "internalType": "address[]",
          "name": "dataOwners",
          "type": "address[]"
        },
        {
          "indexed": false,
          "internalType": "uint256[]",
          "name": "shardAmount",
          "type": "uint256[]"
        }
      ],
      "name": "FutureShardDistributed",
      "type": "event"
    },
    {
      "anonymous": false,
      "inputs": [
        {
          "indexed": false,
          "internalType": "uint256",
          "name": "productUID",
          "type": "uint256"
        },
        {
          "indexed": false,
          "internalType": "address[]",
          "name": "initialContributors",
          "type": "address[]"
        },
        {
          "indexed": false,
          "internalType": "uint256[]",
          "name": "shardAmount",
          "type": "uint256[]"
        }
      ],
      "name": "InitialShardDistributed",
      "type": "event"
    },
    {
      "anonymous": false,
      "inputs": [
        {
          "indexed": true,
          "internalType": "address",
          "name": "previousOwner",
          "type": "address"
        },
        {
          "indexed": true,
          "internalType": "address",
          "name": "newOwner",
          "type": "address"
        }
      ],
      "name": "OwnershipTransferred",
      "type": "event"
    },
    {
      "anonymous": false,
      "inputs": [
        {
          "indexed": false,
          "internalType": "address",
          "name": "account",
          "type": "address"
        }
      ],
      "name": "Paused",
      "type": "event"
    },
    {
      "anonymous": false,
      "inputs": [
        {
          "indexed": true,
          "internalType": "address",
          "name": "operator",
          "type": "address"
        },
        {
          "indexed": true,
          "internalType": "address",
          "name": "from",
          "type": "address"
        },
        {
          "indexed": true,
          "internalType": "address",
          "name": "to",
          "type": "address"
        },
        {
          "indexed": false,
          "internalType": "uint256[]",
          "name": "ids",
          "type": "uint256[]"
        },
        {
          "indexed": false,
          "internalType": "uint256[]",
          "name": "values",
          "type": "uint256[]"
        }
      ],
      "name": "TransferBatch",
      "type": "event"
    },
    {
      "anonymous": false,
      "inputs": [
        {
          "indexed": true,
          "internalType": "address",
          "name": "operator",
          "type": "address"
        },
        {
          "indexed": true,
          "internalType": "address",
          "name": "from",
          "type": "address"
        },
        {
          "indexed": true,
          "internalType": "address",
          "name": "to",
          "type": "address"
        },
        {
          "indexed": false,
          "internalType": "uint256",
          "name": "id",
          "type": "uint256"
        },
        {
          "indexed": false,
          "internalType": "uint256",
          "name": "value",
          "type": "uint256"
        }
      ],
      "name": "TransferSingle",
      "type": "event"
    },
    {
      "anonymous": false,
      "inputs": [
        {
          "indexed": false,
          "internalType": "string",
          "name": "value",
          "type": "string"
        },
        {
          "indexed": true,
          "internalType": "uint256",
          "name": "id",
          "type": "uint256"
        }
      ],
      "name": "URI",
      "type": "event"
    },
    {
      "anonymous": false,
      "inputs": [
        {
          "indexed": false,
          "internalType": "address",
          "name": "account",
          "type": "address"
        }
      ],
      "name": "Unpaused",
      "type": "event"
    },
    {
      "inputs": [
        {
          "internalType": "address",
          "name": "account",
          "type": "address"
        },
        {
          "internalType": "uint256",
          "name": "id",
          "type": "uint256"
        }
      ],
      "name": "balanceOf",
      "outputs": [
        {
          "internalType": "uint256",
          "name": "",
          "type": "uint256"
        }
      ],
      "stateMutability": "view",
      "type": "function"
    },
    {
      "inputs": [
        {
          "internalType": "address[]",
          "name": "accounts",
          "type": "address[]"
        },
        {
          "internalType": "uint256[]",
          "name": "ids",
          "type": "uint256[]"
        }
      ],
      "name": "balanceOfBatch",
      "outputs": [
        {
          "internalType": "uint256[]",
          "name": "",
          "type": "uint256[]"
        }
      ],
      "stateMutability": "view",
      "type": "function"
    },
    {
      "inputs": [
        {
          "internalType": "uint256",
          "name": "productUID",
          "type": "uint256"
        },
        {
          "internalType": "uint8",
          "name": "futurePercent",
          "type": "uint8"
        },
        {
          "internalType": "uint256[]",
          "name": "credits",
          "type": "uint256[]"
        },
        {
          "internalType": "address[]",
          "name": "futureContributors",
          "type": "address[]"
        }
      ],
      "name": "distributeFutureShards",
      "outputs": [],
      "stateMutability": "nonpayable",
      "type": "function"
    },
    {
      "inputs": [
        {
          "internalType": "uint256",
          "name": "productUID",
          "type": "uint256"
        },
        {
          "internalType": "uint256",
          "name": "targetSupply_",
          "type": "uint256"
        },
        {
          "internalType": "uint256",
          "name": "labCredit",
          "type": "uint256"
        },
        {
          "internalType": "uint256",
          "name": "lockPeriod",
          "type": "uint256"
        },
        {
          "internalType": "uint8",
          "name": "initialPercent",
          "type": "uint8"
        },
        {
          "internalType": "uint8",
          "name": "rejuvePercent",
          "type": "uint8"
        },
        {
          "internalType": "address",
          "name": "lab",
          "type": "address"
        },
        {
          "internalType": "address",
          "name": "rejuve",
          "type": "address"
        },
        {
          "internalType": "string[]",
          "name": "uris",
          "type": "string[]"
        }
      ],
      "name": "distributeInitialShards",
      "outputs": [],
      "stateMutability": "nonpayable",
      "type": "function"
    },
    {
      "inputs": [
        {
          "internalType": "uint256",
          "name": "productUID",
          "type": "uint256"
        }
      ],
      "name": "getFutureContributorShards",
      "outputs": [
        {
          "internalType": "uint256[]",
          "name": "",
          "type": "uint256[]"
        }
      ],
      "stateMutability": "view",
      "type": "function"
    },
    {
      "inputs": [
        {
          "internalType": "uint256",
          "name": "productUID",
          "type": "uint256"
        }
      ],
      "name": "getFutureContributors",
      "outputs": [
        {
          "internalType": "address[]",
          "name": "",
          "type": "address[]"
        }
      ],
      "stateMutability": "view",
      "type": "function"
    },
    {
      "inputs": [
        {
          "internalType": "uint256",
          "name": "productUID",
          "type": "uint256"
        }
      ],
      "name": "getFutureDistributionStatus",
      "outputs": [
        {
          "internalType": "bool",
          "name": "",
          "type": "bool"
        }
      ],
      "stateMutability": "view",
      "type": "function"
    },
    {
      "inputs": [
        {
          "internalType": "uint256",
          "name": "productUID",
          "type": "uint256"
        }
      ],
      "name": "getInitialContributorShards",
      "outputs": [
        {
          "internalType": "uint256[]",
          "name": "",
          "type": "uint256[]"
        }
      ],
      "stateMutability": "view",
      "type": "function"
    },
    {
      "inputs": [
        {
          "internalType": "uint256",
          "name": "productUID",
          "type": "uint256"
        }
      ],
      "name": "getInitialContributors",
      "outputs": [
        {
          "internalType": "address[]",
          "name": "",
          "type": "address[]"
        }
      ],
      "stateMutability": "view",
      "type": "function"
    },
    {
      "inputs": [
        {
          "internalType": "uint256",
          "name": "productUID",
          "type": "uint256"
        }
      ],
      "name": "getInitialDistributionStatus",
      "outputs": [
        {
          "internalType": "bool",
          "name": "",
          "type": "bool"
        }
      ],
      "stateMutability": "view",
      "type": "function"
    },
    {
      "inputs": [
        {
          "internalType": "uint256",
          "name": "productUID",
          "type": "uint256"
        }
      ],
      "name": "getProductIDs",
      "outputs": [
        {
          "internalType": "uint256[]",
          "name": "",
          "type": "uint256[]"
        }
      ],
      "stateMutability": "view",
      "type": "function"
    },
    {
      "inputs": [
        {
          "internalType": "uint256",
          "name": "productUID",
          "type": "uint256"
        }
      ],
      "name": "getShardsConfig",
      "outputs": [
        {
          "internalType": "uint256",
          "name": "",
          "type": "uint256"
        },
        {
          "internalType": "uint8",
          "name": "",
          "type": "uint8"
        },
        {
          "internalType": "uint8",
          "name": "",
          "type": "uint8"
        },
        {
          "internalType": "uint8",
          "name": "",
          "type": "uint8"
        }
      ],
      "stateMutability": "view",
      "type": "function"
    },
    {
      "inputs": [
        {
          "internalType": "address",
          "name": "account",
          "type": "address"
        },
        {
          "internalType": "address",
          "name": "operator",
          "type": "address"
        }
      ],
      "name": "isApprovedForAll",
      "outputs": [
        {
          "internalType": "bool",
          "name": "",
          "type": "bool"
        }
      ],
      "stateMutability": "view",
      "type": "function"
    },
    {
      "inputs": [],
      "name": "owner",
      "outputs": [
        {
          "internalType": "address",
          "name": "",
          "type": "address"
        }
      ],
      "stateMutability": "view",
      "type": "function"
    },
    {
      "inputs": [],
      "name": "pause",
      "outputs": [],
      "stateMutability": "nonpayable",
      "type": "function"
    },
    {
      "inputs": [],
      "name": "paused",
      "outputs": [
        {
          "internalType": "bool",
          "name": "",
          "type": "bool"
        }
      ],
      "stateMutability": "view",
      "type": "function"
    },
    {
      "inputs": [],
      "name": "renounceOwnership",
      "outputs": [],
      "stateMutability": "nonpayable",
      "type": "function"
    },
    {
      "inputs": [
        {
          "internalType": "address",
          "name": "from",
          "type": "address"
        },
        {
          "internalType": "address",
          "name": "to",
          "type": "address"
        },
        {
          "internalType": "uint256[]",
          "name": "ids",
          "type": "uint256[]"
        },
        {
          "internalType": "uint256[]",
          "name": "amounts",
          "type": "uint256[]"
        },
        {
          "internalType": "bytes",
          "name": "data",
          "type": "bytes"
        }
      ],
      "name": "safeBatchTransferFrom",
      "outputs": [],
      "stateMutability": "nonpayable",
      "type": "function"
    },
    {
      "inputs": [
        {
          "internalType": "address",
          "name": "from",
          "type": "address"
        },
        {
          "internalType": "address",
          "name": "to",
          "type": "address"
        },
        {
          "internalType": "uint256",
          "name": "id",
          "type": "uint256"
        },
        {
          "internalType": "uint256",
          "name": "amount",
          "type": "uint256"
        },
        {
          "internalType": "bytes",
          "name": "data",
          "type": "bytes"
        }
      ],
      "name": "safeTransferFrom",
      "outputs": [],
      "stateMutability": "nonpayable",
      "type": "function"
    },
    {
      "inputs": [
        {
          "internalType": "address",
          "name": "operator",
          "type": "address"
        },
        {
          "internalType": "bool",
          "name": "approved",
          "type": "bool"
        }
      ],
      "name": "setApprovalForAll",
      "outputs": [],
      "stateMutability": "nonpayable",
      "type": "function"
    },
    {
      "inputs": [
        {
          "internalType": "bytes4",
          "name": "interfaceId",
          "type": "bytes4"
        }
      ],
      "name": "supportsInterface",
      "outputs": [
        {
          "internalType": "bool",
          "name": "",
          "type": "bool"
        }
      ],
      "stateMutability": "view",
      "type": "function"
    },
    {
      "inputs": [
        {
          "internalType": "uint256",
          "name": "productUID",
          "type": "uint256"
        }
      ],
      "name": "targetSupply",
      "outputs": [
        {
          "internalType": "uint256",
          "name": "",
          "type": "uint256"
        }
      ],
      "stateMutability": "view",
      "type": "function"
    },
    {
      "inputs": [
        {
          "internalType": "uint256",
          "name": "productUID",
          "type": "uint256"
        }
      ],
      "name": "totalShardSupply",
      "outputs": [
        {
          "internalType": "uint256",
          "name": "",
          "type": "uint256"
        }
      ],
      "stateMutability": "view",
      "type": "function"
    },
    {
      "inputs": [
        {
          "internalType": "address",
          "name": "newOwner",
          "type": "address"
        }
      ],
      "name": "transferOwnership",
      "outputs": [],
      "stateMutability": "nonpayable",
      "type": "function"
    },
    {
      "inputs": [],
      "name": "unpause",
      "outputs": [],
      "stateMutability": "nonpayable",
      "type": "function"
    },
    {
      "inputs": [
        {
          "internalType": "uint256",
          "name": "id",
          "type": "uint256"
        }
      ],
      "name": "uri",
      "outputs": [
        {
          "internalType": "string",
          "name": "",
          "type": "string"
        }
      ],
      "stateMutability": "view",
      "type": "function"
    }
  ],
  "bytecode": "0x608060405234801562000010575f80fd5b506040516200389438038062003894833981016040819052620000339162000118565b8181818181620000433362000087565b5f805460ff60a01b191690556200005a81620000d6565b50600480546001600160a01b0319166001600160a01b0392909216919091179055506200034d9350505050565b5f80546001600160a01b038381166001600160a01b0319831681178455604051919092169283917f8be0079c531659141344cd1fd0a4f28419497f9722a3daafe3b4186f6b6457e09190a35050565b6003620000e4828262000285565b5050565b634e487b7160e01b5f52604160045260245ffd5b80516001600160a01b038116811462000113575f80fd5b919050565b5f80604083850312156200012a575f80fd5b82516001600160401b038082111562000141575f80fd5b818501915085601f83011262000155575f80fd5b8151818111156200016a576200016a620000e8565b604051601f8201601f19908116603f01168101908382118183101715620001955762000195620000e8565b81604052828152602093508884848701011115620001b1575f80fd5b5f91505b82821015620001d45784820184015181830185015290830190620001b5565b5f848483010152809650505050620001ee818601620000fc565b925050509250929050565b600181811c908216806200020e57607f821691505b6020821081036200022d57634e487b7160e01b5f52602260045260245ffd5b50919050565b601f82111562000280575f81815260208120601f850160051c810160208610156200025b5750805b601f850160051c820191505b818110156200027c5782815560010162000267565b5050505b505050565b81516001600160401b03811115620002a157620002a1620000e8565b620002b981620002b28454620001f9565b8462000233565b602080601f831160018114620002ef575f8415620002d75750858301515b5f19600386901b1c1916600185901b1785556200027c565b5f85815260208120601f198616915b828110156200031f57888601518255948401946001909101908401620002fe565b50858210156200033d57878501515f19600388901b60f8161c191681555b5050505050600190811b01905550565b613539806200035b5f395ff3fe608060405234801561000f575f80fd5b5060043610610186575f3560e01c80638da5cb5b116100d9578063d6e0dbda11610093578063f242432a1161006e578063f242432a146103c0578063f2fde38b146103d3578063f395f9da146103e6578063fac795c0146103f9575f80fd5b8063d6e0dbda14610350578063db05979f14610372578063e985e9c514610385575f80fd5b80638da5cb5b146102aa578063936906f1146102c4578063a22cb465146102e6578063b881501e146102f9578063d429c7581461031b578063d4e1872c1461032e575f80fd5b80634567db03116101445780635c975abb1161011f5780635c975abb14610269578063715018a61461027a5780638456cb59146102825780638be2cf9c1461028a575f80fd5b80634567db03146102305780634e1273f4146102435780634e57d94214610256575f80fd5b8062fdd58e1461018a57806301ffc9a7146101b05780630e89341c146101d35780631e68ca89146101f35780632eb2c2d6146102135780633f4ba83a14610228575b5f80fd5b61019d610198366004612765565b610465565b6040519081526020015b60405180910390f35b6101c36101be3660046127a4565b6104fe565b60405190151581526020016101a7565b6101e66101e13660046127c6565b61054d565b6040516101a7919061282a565b6102066102013660046127c6565b6105ec565b6040516101a79190612875565b6102266102213660046129de565b61064a565b005b6102266106dd565b61022661023e366004612b05565b6106ef565b610206610251366004612b7d565b610926565b6102066102643660046127c6565b610a4d565b5f54600160a01b900460ff166101c3565b610226610aaa565b610226610abb565b61029d6102983660046127c6565b610acb565b6040516101a79190612bdc565b5f546040516001600160a01b0390911681526020016101a7565b61019d6102d23660046127c6565b5f9081526009602052604090206001015490565b6102266102f4366004612c28565b610b33565b6101c36103073660046127c6565b5f9081526008602052604090205460ff1690565b610226610329366004612c63565b610b42565b6101c361033c3660046127c6565b5f9081526011602052604090205460ff1690565b61019d61035e3660046127c6565b5f9081526009602052604090206002015490565b61029d6103803660046127c6565b610bef565b6101c3610393366004612db3565b6001600160a01b039182165f90815260026020908152604080832093909416825291909152205460ff1690565b6102266103ce366004612ddf565b610c56565b6102266103e1366004612e42565b610d21565b6102066103f43660046127c6565b610d9a565b61043c6104073660046127c6565b5f818152600960205260409020600381015460049091015460ff80821691620100008104821691610100909104169193509193565b6040805194855260ff9384166020860152918316918401919091521660608201526080016101a7565b5f6001600160a01b0383166104d45760405162461bcd60e51b815260206004820152602a60248201527f455243313135353a2061646472657373207a65726f206973206e6f742061207660448201526930b634b21037bbb732b960b11b60648201526084015b60405180910390fd5b505f8181526001602090815260408083206001600160a01b03861684529091529020545b92915050565b5f6001600160e01b03198216636cdb3d1360e11b148061052e57506001600160e01b031982166303a24d0760e21b145b806104f857506301ffc9a760e01b6001600160e01b03198316146104f8565b5f818152600e6020526040902080546060919061056990612e5d565b80601f016020809104026020016040519081016040528092919081815260200182805461059590612e5d565b80156105e05780601f106105b7576101008083540402835291602001916105e0565b820191905f5260205f20905b8154815290600101906020018083116105c357829003601f168201915b50505050509050919050565b5f818152601060209081526040918290208054835181840281018401909452808452606093928301828280156105e057602002820191905f5260205f20905b81548152602001906001019080831161062b5750505050509050919050565b6001600160a01b03851633148061066657506106668533610393565b6106c95760405162461bcd60e51b815260206004820152602e60248201527f455243313135353a2063616c6c6572206973206e6f7420746f6b656e206f776e60448201526d195c881bdc88185c1c1c9bdd995960921b60648201526084016104cb565b6106d68585858585610df7565b5050505050565b6106e5610f89565b6106ed610fe2565b565b6106f7610f89565b6106ff611036565b5f8481526011602052604090205460ff161561076f5760405162461bcd60e51b815260206004820152602960248201527f52454a5556453a204675747572652073686172647320646973747269627574656044820152686420616c726561647960b81b60648201526084016104cb565b5f8360ff16116107cf5760405162461bcd60e51b815260206004820152602560248201527f52454a5556453a204675747572652070657263656e742063616e6e6f74206265604482015264207a65726f60d81b60648201526084016104cb565b5f848152600960209081526040808320815160e08101835281548152600182015493810193909352600281015491830191909152600381015460608301526004015460ff808216608084018190526101008304821660a085018190526201000090930490911660c08401529192916108479190612ea9565b610852906064612ec2565b60ff169050808560ff1611156108c15760405162461bcd60e51b815260206004820152602e60248201527f52454a5556453a204675747572652070657263656e742065786365656473206160448201526d1d985a5b18589b19481b1a5b5a5d60921b60648201526084016104cb565b83518351146109125760405162461bcd60e51b815260206004820152601860248201527f52454a5556453a204e6f7420657175616c206c656e677468000000000000000060448201526064016104cb565b61091e86868686611082565b505050505050565b6060815183511461098b5760405162461bcd60e51b815260206004820152602960248201527f455243313135353a206163636f756e747320616e6420696473206c656e677468604482015268040dad2e6dac2e8c6d60bb1b60648201526084016104cb565b5f83516001600160401b038111156109a5576109a5612887565b6040519080825280602002602001820160405280156109ce578160200160208202803683370190505b5090505f5b8451811015610a4557610a188582815181106109f1576109f1612edb565b6020026020010151858381518110610a0b57610a0b612edb565b6020026020010151610465565b828281518110610a2a57610a2a612edb565b6020908102919091010152610a3e81612eef565b90506109d3565b509392505050565b5f818152600a60209081526040918290208054835181840281018401909452808452606093928301828280156105e057602002820191905f5260205f209081548152602001906001019080831161062b5750505050509050919050565b610ab2610f89565b6106ed5f61128a565b610ac3610f89565b6106ed6112d9565b5f818152600660209081526040918290208054835181840281018401909452808452606093928301828280156105e057602002820191905f5260205f20905b81546001600160a01b03168152600190910190602001808311610b0a5750505050509050919050565b610b3e33838361131b565b5050565b610b4a610f89565b610b52611036565b5f8981526008602052604090205460ff1615610bc35760405162461bcd60e51b815260206004820152602a60248201527f52454a5556453a20496e697469616c2073686172647320646973747269627574604482015269656420616c726561647960b01b60648201526084016104cb565b610bd388888888888888886113fa565b610be48989898989898989896116f3565b505050505050505050565b5f818152600f60209081526040918290208054835181840281018401909452808452606093928301828280156105e057602002820191905f5260205f209081546001600160a01b03168152600190910190602001808311610b0a5750505050509050919050565b5f838152600d6020526040902054652cec2f2d2eaf60d21b01610d14575f838152600c60209081526040808320548352600b9091529020544211610d025760405162461bcd60e51b815260206004820152603760248201527f52454a5556453a2043616e6e6f742073616c6520353025206f6620736861726460448201527f73206265666f7265206c6f636b696e6720706572696f6400000000000000000060648201526084016104cb565b610d0f85858585856117e2565b6106d6565b6106d685858585856117e2565b610d29610f89565b6001600160a01b038116610d8e5760405162461bcd60e51b815260206004820152602660248201527f4f776e61626c653a206e6577206f776e657220697320746865207a65726f206160448201526564647265737360d01b60648201526084016104cb565b610d978161128a565b50565b5f818152600760209081526040918290208054835181840281018401909452808452606093928301828280156105e057602002820191905f5260205f209081548152602001906001019080831161062b5750505050509050919050565b8151835114610e185760405162461bcd60e51b81526004016104cb90612f07565b6001600160a01b038416610e3e5760405162461bcd60e51b81526004016104cb90612f4f565b335f5b8451811015610f23575f858281518110610e5d57610e5d612edb565b602002602001015190505f858381518110610e7a57610e7a612edb565b6020908102919091018101515f8481526001835260408082206001600160a01b038e168352909352919091205490915081811015610eca5760405162461bcd60e51b81526004016104cb90612f94565b5f8381526001602090815260408083206001600160a01b038e8116855292528083208585039055908b16825281208054849290610f08908490612fde565b9250508190555050505080610f1c90612eef565b9050610e41565b50846001600160a01b0316866001600160a01b0316826001600160a01b03167f4a39dc06d4c0dbc64b70af90fd698a233a518aa5d07e595d983b8c0526c8f7fb8787604051610f73929190612ff1565b60405180910390a461091e818787878787611871565b5f546001600160a01b031633146106ed5760405162461bcd60e51b815260206004820181905260248201527f4f776e61626c653a2063616c6c6572206973206e6f7420746865206f776e657260448201526064016104cb565b610fea6119d4565b5f805460ff60a01b191690557f5db9ee0a495bf2e6ff9c91a7834c1ba4fdd244a5e8aa4e537bd38aeae4b073aa335b6040516001600160a01b03909116815260200160405180910390a1565b5f54600160a01b900460ff16156106ed5760405162461bcd60e51b815260206004820152601060248201526f14185d5cd8589b194e881c185d5cd95960821b60448201526064016104cb565b5f84815260096020526040812060048101805462ff000019166201000060ff881602179055906110b184611a23565b83519091505f5b81811015611216575f8582815181106110d3576110d3612edb565b602002602001015190505f61110a8884815181106110f3576110f3612edb565b6020026020010151868b60ff168960010154611a6b565b90505f61111682611ac1565b5f8c8152600a602090815260409182902080548351818402810184019094528084529394506111979387939283018282801561116f57602002820191905f5260205f20905b81548152602001906001019080831161115b575b505050505083604051806040016040528060048152602001630307830360e41b815250611b4f565b8187600201546111a79190612fde565b6002880155505f8a8152600f602090815260408083208054600180820183559185528385200180546001600160a01b0319166001600160a01b0397909716969096179095558c83526010825282208054948501815582529020909101558061120e81612eef565b9150506110b8565b505f878152600f6020908152604080832060109092529182902091517f621e1a59d70685f53a28114e1229586ecd6908416f6bfaee0e147c3d34f3984592611262928b9290919061301e565b60405180910390a15050505f938452505060116020525060409020805460ff19166001179055565b5f80546001600160a01b038381166001600160a01b0319831681178455604051919092169283917f8be0079c531659141344cd1fd0a4f28419497f9722a3daafe3b4186f6b6457e09190a35050565b6112e1611036565b5f805460ff60a01b1916600160a01b1790557f62e78cea01bee320cd4e420270b5ea74000d11b0c9f74754ebdbfc544b05a2586110193390565b816001600160a01b0316836001600160a01b03160361138e5760405162461bcd60e51b815260206004820152602960248201527f455243313135353a2073657474696e6720617070726f76616c20737461747573604482015268103337b91039b2b63360b91b60648201526084016104cb565b6001600160a01b038381165f81815260026020908152604080832094871680845294825291829020805460ff191686151590811790915591519182527f17307eab39ab6107e8899845ad3d59bd9653f200f220920489ca2b5937696c31910160405180910390a3505050565b5f88116114555760405162461bcd60e51b8152602060048201526024808201527f52454a5556453a2054617267657420737570706c792063616e6e6f74206265206044820152637a65726f60e01b60648201526084016104cb565b5f87116114ae5760405162461bcd60e51b815260206004820152602160248201527f52454a5556453a204c6162206372656469742063616e6e6f74206265207a65726044820152606f60f81b60648201526084016104cb565b5f86116115085760405162461bcd60e51b815260206004820152602260248201527f52454a5556453a204c6f636b20706572696f642063616e6e6f74206265207a65604482015261726f60f01b60648201526084016104cb565b5f8560ff16116115695760405162461bcd60e51b815260206004820152602660248201527f52454a5556453a20496e697469616c2070657263656e742063616e6e6f74206260448201526565207a65726f60d01b60648201526084016104cb565b5f8460ff16116115c95760405162461bcd60e51b815260206004820152602560248201527f52454a5556453a2052656a7576652070657263656e742063616e6e6f74206265604482015264207a65726f60d81b60648201526084016104cb565b6001600160a01b03831661162a5760405162461bcd60e51b815260206004820152602260248201527f52454a5556453a204c616220616464726573732063616e6e6f74206265207a65604482015261726f60f01b60648201526084016104cb565b6001600160a01b03821661168e5760405162461bcd60e51b815260206004820152602560248201527f52454a5556453a2052656a75766520616464726573732063616e6e6f74206265604482015264207a65726f60d81b60648201526084016104cb565b5f8151116116e95760405162461bcd60e51b815260206004820152602260248201527f52454a5556453a2055524973206c656e6774682063616e6e6f74206265207a65604482015261726f60f01b60648201526084016104cb565b5050505050505050565b6116fd8987611ccd565b5f898152600b602090815260408083205460099092529091208a8155600181018a90556003810191909155600401805460ff8681166101000261ffff199092169088161717905561174e8982611cec565b61175d898660ff168986611e65565b61176c89898660ff168561223f565b5f89815260066020908152604080832060079092529182902091517fb79a1263d65160537b9075e0e4747a6007a82fb191be4435b4c508c431920b89926117b7928d9290919061301e565b60405180910390a15050505f9586525050600860205250506040909120805460ff1916600117905550565b6117ea611036565b6001600160a01b03851633148061180657506118068533610393565b6118645760405162461bcd60e51b815260206004820152602960248201527f455243313135353a2063616c6c6572206973206e6f74206f776e6572206e6f7260448201526808185c1c1c9bdd995960ba1b60648201526084016104cb565b6106d68585858585612350565b6001600160a01b0384163b1561091e5760405163bc197c8160e01b81526001600160a01b0385169063bc197c81906118b590899089908890889088906004016130b1565b6020604051808303815f875af19250505080156118ef575060408051601f3d908101601f191682019092526118ec91810190613102565b60015b61199b576118fb61311d565b806308c379a003611934575061190f613136565b8061191a5750611936565b8060405162461bcd60e51b81526004016104cb919061282a565b505b60405162461bcd60e51b815260206004820152603460248201527f455243313135353a207472616e7366657220746f206e6f6e2d455243313135356044820152732932b1b2b4bb32b91034b6b83632b6b2b73a32b960611b60648201526084016104cb565b6001600160e01b0319811663bc197c8160e01b146119cb5760405162461bcd60e51b81526004016104cb906131be565b50505050505050565b5f54600160a01b900460ff166106ed5760405162461bcd60e51b815260206004820152601460248201527314185d5cd8589b194e881b9bdd081c185d5cd95960621b60448201526064016104cb565b80515f9081805b82811015610a4557848181518110611a4457611a44612edb565b602002602001015182611a579190612fde565b915080611a6381612eef565b915050611a2a565b5f8084611a79876064613206565b611a83919061321d565b90505f6064611a928686613206565b611a9c919061321d565b90505f6064611aab8484613206565b611ab5919061321d565b98975050505050505050565b60408051600280825260608083018452925f9291906020830190803683370190505090505f6064611af3856032613206565b611afd919061321d565b905080825f81518110611b1257611b12612edb565b6020908102919091010152611b27818561323c565b93508382600181518110611b3d57611b3d612edb565b60209081029190910101525092915050565b6001600160a01b038416611baf5760405162461bcd60e51b815260206004820152602160248201527f455243313135353a206d696e7420746f20746865207a65726f206164647265736044820152607360f81b60648201526084016104cb565b8151835114611bd05760405162461bcd60e51b81526004016104cb90612f07565b335f5b8451811015611c6757838181518110611bee57611bee612edb565b602002602001015160015f878481518110611c0b57611c0b612edb565b602002602001015181526020019081526020015f205f886001600160a01b03166001600160a01b031681526020019081526020015f205f828254611c4f9190612fde565b90915550819050611c5f81612eef565b915050611bd3565b50846001600160a01b03165f6001600160a01b0316826001600160a01b03167f4a39dc06d4c0dbc64b70af90fd698a233a518aa5d07e595d983b8c0526c8f7fb8787604051611cb7929190612ff1565b60405180910390a46106d6815f87878787611871565b611cd74282612fde565b5f928352600b60205260409092209190915550565b6040805160028082526060820183525f92602083019080368337019050509050651313d0d2d15160d21b815f81518110611d2857611d28612edb565b6020026020010181815250506515149051115160d21b81600181518110611d5157611d51612edb565b6020026020010181815250505f5b81518160ff161015611e5f576005828260ff1681518110611d8257611d82612edb565b6020908102919091018101518254600181810185555f9485529284200155600554611dad919061323c565b5f868152600a60209081526040822080546001810182559083529120018190558351909150839060ff8416908110611de757611de7612edb565b6020908102919091018101515f838152600d8352604080822092909255600c90925290208590558351849060ff8416908110611e2557611e25612edb565b6020026020010151600e5f8381526020019081526020015f209081611e4a9190613299565b50508080611e5790613354565b915050611d5f565b50505050565b6004805460405163c9187fe760e01b81529182018690525f916001600160a01b039091169063c9187fe7906024015f60405180830381865afa158015611ead573d5f803e3d5ffd5b505050506040513d5f823e601f3d908101601f19168201604052611ed49190810190613372565b90505f611ee08661246f565b5f878152600960205260409020909150611efa8583612fde565b600480546040516384ffeca560e01b81529182018a90529193505f916001600160a01b0316906384ffeca590602401602060405180830381865afa158015611f44573d5f803e3d5ffd5b505050506040513d601f19601f82011682018060405250810190611f68919061346c565b90505f5b818110156121ab5760045485515f916001600160a01b0316906359a96ffe90889085908110611f9d57611f9d612edb565b60200260200101516040518263ffffffff1660e01b8152600401611fc1919061282a565b602060405180830381865afa158015611fdc573d5f803e3d5ffd5b505050506040513d601f19601f820116820180604052508101906120009190613483565b60045487519192505f916120a1916001600160a01b031690630e47cefa908a908790811061203057612030612edb565b60200260200101518e6040518363ffffffff1660e01b815260040161205692919061349e565b602060405180830381865afa158015612071573d5f803e3d5ffd5b505050506040513d601f19601f82011682018060405250810190612095919061346c565b878c8860010154611a6b565b90505f6120ad82611ac1565b5f8d8152600a6020908152604091829020805483518184028101840190945280845293945061212c9387939283018282801561116f57602002820191905f5260205f209081548152602001906001019080831161115b57505050505083604051806040016040528060048152602001630307830360e41b815250611b4f565b81866002015461213c9190612fde565b6002870155505f8b81526006602090815260408083208054600180820183559185528385200180546001600160a01b0319166001600160a01b0397909716969096179095558d8352600782528220805494850181558252902090910155806121a381612eef565b915050611f6c565b505f6121bf8988868b87600101548b6125a9565b90508083600201546121d19190612fde565b600290930192909255505f8781526006602090815260408083208054600181810183559185528385200180546001600160a01b039099166001600160a01b03199099169890981790975598825260078152978120805495860181558152969096209092019490945550505050565b5f8481526009602052604081209060646122598587613206565b612263919061321d565b90508082600201546122759190612fde565b60028301555f61228482611ac1565b5f8881526006602090815260408083208054600180820183559185528385200180546001600160a01b0319166001600160a01b038b161790558b845260078352818420805491820181558452828420018690558a8352600a82529182902080548351818402810184019094528084529394506119cb9388939283018282801561116f57602002820191905f5260205f209081548152602001906001019080831161115b57505050505083604051806040016040528060048152602001630307830360e41b815250611b4f565b6001600160a01b0384166123765760405162461bcd60e51b81526004016104cb90612f4f565b335f6123818561264e565b90505f61238d8561264e565b90505f8681526001602090815260408083206001600160a01b038c168452909152902054858110156123d15760405162461bcd60e51b81526004016104cb90612f94565b5f8781526001602090815260408083206001600160a01b038d8116855292528083208985039055908a1682528120805488929061240f908490612fde565b909155505060408051888152602081018890526001600160a01b03808b16928c821692918816917fc3d58168c5ae7397731d063d5bbf3d657854427343f4c083240f7aacaa2d0f62910160405180910390a4610be4848a8a8a8a8a612697565b6004805460405163c9187fe760e01b81529182018390525f9182916001600160a01b03169063c9187fe7906024015f60405180830381865afa1580156124b7573d5f803e3d5ffd5b505050506040513d5f823e601f3d908101601f191682016040526124de9190810190613372565b80519091505f90815b8181101561259f5760045484515f916001600160a01b031690630e47cefa9087908590811061251857612518612edb565b6020026020010151896040518363ffffffff1660e01b815260040161253e92919061349e565b602060405180830381865afa158015612559573d5f803e3d5ffd5b505050506040513d601f19601f8201168201806040525081019061257d919061346c565b90506125898185612fde565b935050808061259790612eef565b9150506124e7565b5090949350505050565b5f806125b787878787611a6b565b90505f6125c382611ac1565b5f8a8152600a602090815260409182902080548351818402810184019094528084529394506126429388939283018282801561116f57602002820191905f5260205f209081548152602001906001019080831161115b57505050505083604051806040016040528060048152602001630307830360e41b815250611b4f565b50979650505050505050565b6040805160018082528183019092526060915f91906020808301908036833701905050905082815f8151811061268657612686612edb565b602090810291909101015292915050565b6001600160a01b0384163b1561091e5760405163f23a6e6160e01b81526001600160a01b0385169063f23a6e61906126db90899089908890889088906004016134bf565b6020604051808303815f875af1925050508015612715575060408051601f3d908101601f1916820190925261271291810190613102565b60015b612721576118fb61311d565b6001600160e01b0319811663f23a6e6160e01b146119cb5760405162461bcd60e51b81526004016104cb906131be565b6001600160a01b0381168114610d97575f80fd5b5f8060408385031215612776575f80fd5b823561278181612751565b946020939093013593505050565b6001600160e01b031981168114610d97575f80fd5b5f602082840312156127b4575f80fd5b81356127bf8161278f565b9392505050565b5f602082840312156127d6575f80fd5b5035919050565b5f5b838110156127f75781810151838201526020016127df565b50505f910152565b5f81518084526128168160208601602086016127dd565b601f01601f19169290920160200192915050565b602081525f6127bf60208301846127ff565b5f8151808452602080850194508084015f5b8381101561286a5781518752958201959082019060010161284e565b509495945050505050565b602081525f6127bf602083018461283c565b634e487b7160e01b5f52604160045260245ffd5b601f8201601f191681016001600160401b03811182821017156128c0576128c0612887565b6040525050565b5f6001600160401b038211156128df576128df612887565b5060051b60200190565b5f82601f8301126128f8575f80fd5b81356020612905826128c7565b604051612912828261289b565b83815260059390931b8501820192828101915086841115612931575f80fd5b8286015b8481101561294c5780358352918301918301612935565b509695505050505050565b5f6001600160401b0382111561296f5761296f612887565b50601f01601f191660200190565b5f61298783612957565b604051612994828261289b565b8092508481528585850111156129a8575f80fd5b848460208301375f6020868301015250509392505050565b5f82601f8301126129cf575f80fd5b6127bf8383356020850161297d565b5f805f805f60a086880312156129f2575f80fd5b85356129fd81612751565b94506020860135612a0d81612751565b935060408601356001600160401b0380821115612a28575f80fd5b612a3489838a016128e9565b94506060880135915080821115612a49575f80fd5b612a5589838a016128e9565b93506080880135915080821115612a6a575f80fd5b50612a77888289016129c0565b9150509295509295909350565b803560ff81168114612a94575f80fd5b919050565b5f82601f830112612aa8575f80fd5b81356020612ab5826128c7565b604051612ac2828261289b565b83815260059390931b8501820192828101915086841115612ae1575f80fd5b8286015b8481101561294c578035612af881612751565b8352918301918301612ae5565b5f805f8060808587031215612b18575f80fd5b84359350612b2860208601612a84565b925060408501356001600160401b0380821115612b43575f80fd5b612b4f888389016128e9565b93506060870135915080821115612b64575f80fd5b50612b7187828801612a99565b91505092959194509250565b5f8060408385031215612b8e575f80fd5b82356001600160401b0380821115612ba4575f80fd5b612bb086838701612a99565b93506020850135915080821115612bc5575f80fd5b50612bd2858286016128e9565b9150509250929050565b602080825282518282018190525f9190848201906040850190845b81811015612c1c5783516001600160a01b031683529284019291840191600101612bf7565b50909695505050505050565b5f8060408385031215612c39575f80fd5b8235612c4481612751565b915060208301358015158114612c58575f80fd5b809150509250929050565b5f805f805f805f805f6101208a8c031215612c7c575f80fd5b8935985060208a0135975060408a0135965060608a01359550612ca160808b01612a84565b9450612caf60a08b01612a84565b9350612cbe60c08b0135612751565b60c08a01359250612cd260e08b0135612751565b60e08a013591506001600160401b036101008b01351115612cf1575f80fd5b6101008a01358a018b601f820112612d07575f80fd5b612d1181356128c7565b604051612d1e828261289b565b809150823581526020810191508d6020843560051b8501011115612d40575f80fd5b602083015b6020843560051b850101811015612d9f576001600160401b0381351115612d6a575f80fd5b8e603f823586010112612d7b575f80fd5b612d918f8235860160208101359060400161297d565b835260209283019201612d45565b508093505050509295985092959850929598565b5f8060408385031215612dc4575f80fd5b8235612dcf81612751565b91506020830135612c5881612751565b5f805f805f60a08688031215612df3575f80fd5b8535612dfe81612751565b94506020860135612e0e81612751565b9350604086013592506060860135915060808601356001600160401b03811115612e36575f80fd5b612a77888289016129c0565b5f60208284031215612e52575f80fd5b81356127bf81612751565b600181811c90821680612e7157607f821691505b602082108103612e8f57634e487b7160e01b5f52602260045260245ffd5b50919050565b634e487b7160e01b5f52601160045260245ffd5b60ff81811683821601908111156104f8576104f8612e95565b60ff82811682821603908111156104f8576104f8612e95565b634e487b7160e01b5f52603260045260245ffd5b5f60018201612f0057612f00612e95565b5060010190565b60208082526028908201527f455243313135353a2069647320616e6420616d6f756e7473206c656e677468206040820152670dad2e6dac2e8c6d60c31b606082015260800190565b60208082526025908201527f455243313135353a207472616e7366657220746f20746865207a65726f206164604082015264647265737360d81b606082015260800190565b6020808252602a908201527f455243313135353a20696e73756666696369656e742062616c616e636520666f60408201526939103a3930b739b332b960b11b606082015260800190565b808201808211156104f8576104f8612e95565b604081525f613003604083018561283c565b8281036020840152613015818561283c565b95945050505050565b5f6060820185835260206060818501528186548084526080860191505f9350878452828420845b8281101561306a5781546001600160a01b031684529284019260019182019101613045565b50505084810360408601528554808252868452828420918301905b808510156130a457825482526001948501949092019190830190613085565b5098975050505050505050565b6001600160a01b0386811682528516602082015260a0604082018190525f906130dc9083018661283c565b82810360608401526130ee818661283c565b90508281036080840152611ab581856127ff565b5f60208284031215613112575f80fd5b81516127bf8161278f565b5f60033d11156131335760045f803e505f5160e01c5b90565b5f60443d10156131435790565b6040516003193d81016004833e81513d6001600160401b03816024840111818411171561317257505050505090565b828501915081518181111561318a5750505050505090565b843d87010160208285010111156131a45750505050505090565b6131b36020828601018761289b565b509095945050505050565b60208082526028908201527f455243313135353a204552433131353552656365697665722072656a656374656040820152676420746f6b656e7360c01b606082015260800190565b80820281158282048414176104f8576104f8612e95565b5f8261323757634e487b7160e01b5f52601260045260245ffd5b500490565b818103818111156104f8576104f8612e95565b601f821115613294575f81815260208120601f850160051c810160208610156132755750805b601f850160051c820191505b8181101561091e57828155600101613281565b505050565b81516001600160401b038111156132b2576132b2612887565b6132c6816132c08454612e5d565b8461324f565b602080601f8311600181146132f9575f84156132e25750858301515b5f19600386901b1c1916600185901b17855561091e565b5f85815260208120601f198616915b8281101561332757888601518255948401946001909101908401613308565b508582101561334457878501515f19600388901b60f8161c191681555b5050505050600190811b01905550565b5f60ff821660ff810361336957613369612e95565b60010192915050565b5f6020808385031215613383575f80fd5b82516001600160401b0380821115613399575f80fd5b818501915085601f8301126133ac575f80fd5b81516133b7816128c7565b604080516133c5838261289b565b83815260059390931b85018601928681019250898411156133e4575f80fd5b8686015b8481101561345e578051868111156133ff575f8081fd5b8701603f81018c13613410575f8081fd5b8881015161341d81612957565b8551613429828261289b565b8281528e8784860101111561343f575f91508182fd5b61344e838d83018987016127dd565b87525050509287019287016133e8565b509998505050505050505050565b5f6020828403121561347c575f80fd5b5051919050565b5f60208284031215613493575f80fd5b81516127bf81612751565b604081525f6134b060408301856127ff565b90508260208301529392505050565b6001600160a01b03868116825285166020820152604081018490526060810183905260a0608082018190525f906134f8908301846127ff565b97965050505050505056fea264697066735822122080d2bf16c432591fd364ad9e5bb667f165c45b8979b57d9874cec29e94a3782464736f6c63430008140033",
  "linkReferences": {},
  "deployedLinkReferences": {}
}