{
  "_format": "hh-sol-artifact-1",
  "contractName": "TransferShards",
  "sourceName": "contracts/TransferShards.sol",
  "abi": [
    {
      "inputs": [
        {
          "internalType": "string",
          "name": "uri",
          "type": "string"
        },
        {
          "internalType": "address",
          "name": "productNFT",
          "type": "address"
        }
      ],
      "stateMutability": "nonpayable",
      "type": "constructor"
    },
    {
      "anonymous": false,
      "inputs": [
        {
          "indexed": true,
          "internalType": "address",
          "name": "account",
          "type": "address"
        },
        {
          "indexed": true,
          "internalType": "address",
          "name": "operator",
          "type": "address"
        },
        {
          "indexed": false,
          "internalType": "bool",
          "name": "approved",
          "type": "bool"
        }
      ],
      "name": "ApprovalForAll",
      "type": "event"
    },
    {
      "anonymous": false,
      "inputs": [
        {
          "indexed": false,
          "internalType": "uint256",
          "name": "productUID",
          "type": "uint256"
        },
        {
          "indexed": false,
          "internalType": "address[]",
          "name": "dataOwners",
          "type": "address[]"
        },
        {
          "indexed": false,
          "internalType": "uint256[]",
          "name": "shardAmount",
          "type": "uint256[]"
        }
      ],
      "name": "FutureShardDistributed",
      "type": "event"
    },
    {
      "anonymous": false,
      "inputs": [
        {
          "indexed": false,
          "internalType": "uint256",
          "name": "productUID",
          "type": "uint256"
        },
        {
          "indexed": false,
          "internalType": "address[]",
          "name": "initialContributors",
          "type": "address[]"
        },
        {
          "indexed": false,
          "internalType": "uint256[]",
          "name": "shardAmount",
          "type": "uint256[]"
        }
      ],
      "name": "InitialShardDistributed",
      "type": "event"
    },
    {
      "anonymous": false,
      "inputs": [
        {
          "indexed": true,
          "internalType": "address",
          "name": "previousOwner",
          "type": "address"
        },
        {
          "indexed": true,
          "internalType": "address",
          "name": "newOwner",
          "type": "address"
        }
      ],
      "name": "OwnershipTransferred",
      "type": "event"
    },
    {
      "anonymous": false,
      "inputs": [
        {
          "indexed": false,
          "internalType": "address",
          "name": "account",
          "type": "address"
        }
      ],
      "name": "Paused",
      "type": "event"
    },
    {
      "anonymous": false,
      "inputs": [
        {
          "indexed": true,
          "internalType": "address",
          "name": "operator",
          "type": "address"
        },
        {
          "indexed": true,
          "internalType": "address",
          "name": "from",
          "type": "address"
        },
        {
          "indexed": true,
          "internalType": "address",
          "name": "to",
          "type": "address"
        },
        {
          "indexed": false,
          "internalType": "uint256[]",
          "name": "ids",
          "type": "uint256[]"
        },
        {
          "indexed": false,
          "internalType": "uint256[]",
          "name": "values",
          "type": "uint256[]"
        }
      ],
      "name": "TransferBatch",
      "type": "event"
    },
    {
      "anonymous": false,
      "inputs": [
        {
          "indexed": true,
          "internalType": "address",
          "name": "operator",
          "type": "address"
        },
        {
          "indexed": true,
          "internalType": "address",
          "name": "from",
          "type": "address"
        },
        {
          "indexed": true,
          "internalType": "address",
          "name": "to",
          "type": "address"
        },
        {
          "indexed": false,
          "internalType": "uint256",
          "name": "id",
          "type": "uint256"
        },
        {
          "indexed": false,
          "internalType": "uint256",
          "name": "value",
          "type": "uint256"
        }
      ],
      "name": "TransferSingle",
      "type": "event"
    },
    {
      "anonymous": false,
      "inputs": [
        {
          "indexed": false,
          "internalType": "string",
          "name": "value",
          "type": "string"
        },
        {
          "indexed": true,
          "internalType": "uint256",
          "name": "id",
          "type": "uint256"
        }
      ],
      "name": "URI",
      "type": "event"
    },
    {
      "anonymous": false,
      "inputs": [
        {
          "indexed": false,
          "internalType": "address",
          "name": "account",
          "type": "address"
        }
      ],
      "name": "Unpaused",
      "type": "event"
    },
    {
      "inputs": [
        {
          "internalType": "address",
          "name": "account",
          "type": "address"
        },
        {
          "internalType": "uint256",
          "name": "id",
          "type": "uint256"
        }
      ],
      "name": "balanceOf",
      "outputs": [
        {
          "internalType": "uint256",
          "name": "",
          "type": "uint256"
        }
      ],
      "stateMutability": "view",
      "type": "function"
    },
    {
      "inputs": [
        {
          "internalType": "address[]",
          "name": "accounts",
          "type": "address[]"
        },
        {
          "internalType": "uint256[]",
          "name": "ids",
          "type": "uint256[]"
        }
      ],
      "name": "balanceOfBatch",
      "outputs": [
        {
          "internalType": "uint256[]",
          "name": "",
          "type": "uint256[]"
        }
      ],
      "stateMutability": "view",
      "type": "function"
    },
    {
      "inputs": [
        {
          "internalType": "uint256",
          "name": "productUID",
          "type": "uint256"
        },
        {
          "internalType": "uint8",
          "name": "futurePercent",
          "type": "uint8"
        },
        {
          "internalType": "uint256[]",
          "name": "credits",
          "type": "uint256[]"
        },
        {
          "internalType": "address[]",
          "name": "futureContributors",
          "type": "address[]"
        }
      ],
      "name": "distributeFutureShards",
      "outputs": [],
      "stateMutability": "nonpayable",
      "type": "function"
    },
    {
      "inputs": [
        {
          "internalType": "uint256",
          "name": "productUID",
          "type": "uint256"
        },
        {
          "internalType": "uint256",
          "name": "targetSupply_",
          "type": "uint256"
        },
        {
          "internalType": "uint256",
          "name": "labCredit",
          "type": "uint256"
        },
        {
          "internalType": "uint256",
          "name": "lockPeriod",
          "type": "uint256"
        },
        {
          "internalType": "uint8",
          "name": "initialPercent",
          "type": "uint8"
        },
        {
          "internalType": "uint8",
          "name": "rejuvePercent",
          "type": "uint8"
        },
        {
          "internalType": "address",
          "name": "lab",
          "type": "address"
        },
        {
          "internalType": "address",
          "name": "rejuve",
          "type": "address"
        },
        {
          "internalType": "string[]",
          "name": "uris",
          "type": "string[]"
        }
      ],
      "name": "distributeInitialShards",
      "outputs": [],
      "stateMutability": "nonpayable",
      "type": "function"
    },
    {
      "inputs": [
        {
          "internalType": "uint256",
          "name": "productUID",
          "type": "uint256"
        }
      ],
      "name": "getFutureContributorShards",
      "outputs": [
        {
          "internalType": "uint256[]",
          "name": "",
          "type": "uint256[]"
        }
      ],
      "stateMutability": "view",
      "type": "function"
    },
    {
      "inputs": [
        {
          "internalType": "uint256",
          "name": "productUID",
          "type": "uint256"
        }
      ],
      "name": "getFutureContributors",
      "outputs": [
        {
          "internalType": "address[]",
          "name": "",
          "type": "address[]"
        }
      ],
      "stateMutability": "view",
      "type": "function"
    },
    {
      "inputs": [
        {
          "internalType": "uint256",
          "name": "productUID",
          "type": "uint256"
        }
      ],
      "name": "getFutureDistributionStatus",
      "outputs": [
        {
          "internalType": "bool",
          "name": "",
          "type": "bool"
        }
      ],
      "stateMutability": "view",
      "type": "function"
    },
    {
      "inputs": [
        {
          "internalType": "uint256",
          "name": "productUID",
          "type": "uint256"
        }
      ],
      "name": "getInitialContributorShards",
      "outputs": [
        {
          "internalType": "uint256[]",
          "name": "",
          "type": "uint256[]"
        }
      ],
      "stateMutability": "view",
      "type": "function"
    },
    {
      "inputs": [
        {
          "internalType": "uint256",
          "name": "productUID",
          "type": "uint256"
        }
      ],
      "name": "getInitialContributors",
      "outputs": [
        {
          "internalType": "address[]",
          "name": "",
          "type": "address[]"
        }
      ],
      "stateMutability": "view",
      "type": "function"
    },
    {
      "inputs": [
        {
          "internalType": "uint256",
          "name": "productUID",
          "type": "uint256"
        }
      ],
      "name": "getInitialDistributionStatus",
      "outputs": [
        {
          "internalType": "bool",
          "name": "",
          "type": "bool"
        }
      ],
      "stateMutability": "view",
      "type": "function"
    },
    {
      "inputs": [
        {
          "internalType": "uint256",
          "name": "productUID",
          "type": "uint256"
        }
      ],
      "name": "getProductIDs",
      "outputs": [
        {
          "internalType": "uint256[]",
          "name": "",
          "type": "uint256[]"
        }
      ],
      "stateMutability": "view",
      "type": "function"
    },
    {
      "inputs": [
        {
          "internalType": "uint256",
          "name": "productUID",
          "type": "uint256"
        }
      ],
      "name": "getShardsConfig",
      "outputs": [
        {
          "internalType": "uint256",
          "name": "",
          "type": "uint256"
        },
        {
          "internalType": "uint8",
          "name": "",
          "type": "uint8"
        },
        {
          "internalType": "uint8",
          "name": "",
          "type": "uint8"
        },
        {
          "internalType": "uint8",
          "name": "",
          "type": "uint8"
        }
      ],
      "stateMutability": "view",
      "type": "function"
    },
    {
      "inputs": [
        {
          "internalType": "address",
          "name": "account",
          "type": "address"
        },
        {
          "internalType": "address",
          "name": "operator",
          "type": "address"
        }
      ],
      "name": "isApprovedForAll",
      "outputs": [
        {
          "internalType": "bool",
          "name": "",
          "type": "bool"
        }
      ],
      "stateMutability": "view",
      "type": "function"
    },
    {
      "inputs": [],
      "name": "owner",
      "outputs": [
        {
          "internalType": "address",
          "name": "",
          "type": "address"
        }
      ],
      "stateMutability": "view",
      "type": "function"
    },
    {
      "inputs": [],
      "name": "pause",
      "outputs": [],
      "stateMutability": "nonpayable",
      "type": "function"
    },
    {
      "inputs": [],
      "name": "paused",
      "outputs": [
        {
          "internalType": "bool",
          "name": "",
          "type": "bool"
        }
      ],
      "stateMutability": "view",
      "type": "function"
    },
    {
      "inputs": [],
      "name": "renounceOwnership",
      "outputs": [],
      "stateMutability": "nonpayable",
      "type": "function"
    },
    {
      "inputs": [
        {
          "internalType": "address",
          "name": "from",
          "type": "address"
        },
        {
          "internalType": "address",
          "name": "to",
          "type": "address"
        },
        {
          "internalType": "uint256[]",
          "name": "ids",
          "type": "uint256[]"
        },
        {
          "internalType": "uint256[]",
          "name": "amounts",
          "type": "uint256[]"
        },
        {
          "internalType": "bytes",
          "name": "data",
          "type": "bytes"
        }
      ],
      "name": "safeBatchTransferFrom",
      "outputs": [],
      "stateMutability": "nonpayable",
      "type": "function"
    },
    {
      "inputs": [
        {
          "internalType": "address",
          "name": "from",
          "type": "address"
        },
        {
          "internalType": "address",
          "name": "to",
          "type": "address"
        },
        {
          "internalType": "uint256",
          "name": "id",
          "type": "uint256"
        },
        {
          "internalType": "uint256",
          "name": "amount",
          "type": "uint256"
        },
        {
          "internalType": "bytes",
          "name": "data",
          "type": "bytes"
        }
      ],
      "name": "safeTransferFrom",
      "outputs": [],
      "stateMutability": "nonpayable",
      "type": "function"
    },
    {
      "inputs": [
        {
          "internalType": "address",
          "name": "operator",
          "type": "address"
        },
        {
          "internalType": "bool",
          "name": "approved",
          "type": "bool"
        }
      ],
      "name": "setApprovalForAll",
      "outputs": [],
      "stateMutability": "nonpayable",
      "type": "function"
    },
    {
      "inputs": [
        {
          "internalType": "bytes4",
          "name": "interfaceId",
          "type": "bytes4"
        }
      ],
      "name": "supportsInterface",
      "outputs": [
        {
          "internalType": "bool",
          "name": "",
          "type": "bool"
        }
      ],
      "stateMutability": "view",
      "type": "function"
    },
    {
      "inputs": [
        {
          "internalType": "uint256",
          "name": "productUID",
          "type": "uint256"
        }
      ],
      "name": "targetSupply",
      "outputs": [
        {
          "internalType": "uint256",
          "name": "",
          "type": "uint256"
        }
      ],
      "stateMutability": "view",
      "type": "function"
    },
    {
      "inputs": [
        {
          "internalType": "uint256",
          "name": "productUID",
          "type": "uint256"
        }
      ],
      "name": "totalShardSupply",
      "outputs": [
        {
          "internalType": "uint256",
          "name": "",
          "type": "uint256"
        }
      ],
      "stateMutability": "view",
      "type": "function"
    },
    {
      "inputs": [
        {
          "internalType": "address",
          "name": "newOwner",
          "type": "address"
        }
      ],
      "name": "transferOwnership",
      "outputs": [],
      "stateMutability": "nonpayable",
      "type": "function"
    },
    {
      "inputs": [],
      "name": "unpause",
      "outputs": [],
      "stateMutability": "nonpayable",
      "type": "function"
    },
    {
      "inputs": [
        {
          "internalType": "uint256",
          "name": "id",
          "type": "uint256"
        }
      ],
      "name": "uri",
      "outputs": [
        {
          "internalType": "string",
          "name": "",
          "type": "string"
        }
      ],
      "stateMutability": "view",
      "type": "function"
    }
  ],
  "bytecode": "0x60806040523480156200001157600080fd5b506040516200814c3803806200814c833981810160405281019062000037919062000427565b81818181816200005c620000506200014560201b60201c565b6200014d60201b60201c565b60008060146101000a81548160ff02191690831515021790555062000087816200021160201b60201c565b50620000a467dfa48286744d8f7660c01b6200022660201b60201c565b620000c067c46ad85b656cd16860c01b6200022660201b60201c565b80600460006101000a81548173ffffffffffffffffffffffffffffffffffffffff021916908373ffffffffffffffffffffffffffffffffffffffff16021790555050506200011f674747a263a5a4f22760c01b6200022960201b60201c565b50506200013d67b4200cc98ee14da160c01b6200022c60201b60201c565b5050620007bf565b600033905090565b60008060009054906101000a900473ffffffffffffffffffffffffffffffffffffffff169050816000806101000a81548173ffffffffffffffffffffffffffffffffffffffff021916908373ffffffffffffffffffffffffffffffffffffffff1602179055508173ffffffffffffffffffffffffffffffffffffffff168173ffffffffffffffffffffffffffffffffffffffff167f8be0079c531659141344cd1fd0a4f28419497f9722a3daafe3b4186f6b6457e060405160405180910390a35050565b8060039081620002229190620006d8565b5050565b50565b50565b50565b6000604051905090565b600080fd5b600080fd5b600080fd5b600080fd5b6000601f19601f8301169050919050565b7f4e487b7100000000000000000000000000000000000000000000000000000000600052604160045260246000fd5b62000298826200024d565b810181811067ffffffffffffffff82111715620002ba57620002b96200025e565b5b80604052505050565b6000620002cf6200022f565b9050620002dd82826200028d565b919050565b600067ffffffffffffffff8211156200030057620002ff6200025e565b5b6200030b826200024d565b9050602081019050919050565b60005b83811015620003385780820151818401526020810190506200031b565b60008484015250505050565b60006200035b6200035584620002e2565b620002c3565b9050828152602081018484840111156200037a576200037962000248565b5b6200038784828562000318565b509392505050565b600082601f830112620003a757620003a662000243565b5b8151620003b984826020860162000344565b91505092915050565b600073ffffffffffffffffffffffffffffffffffffffff82169050919050565b6000620003ef82620003c2565b9050919050565b6200040181620003e2565b81146200040d57600080fd5b50565b6000815190506200042181620003f6565b92915050565b6000806040838503121562000441576200044062000239565b5b600083015167ffffffffffffffff8111156200046257620004616200023e565b5b62000470858286016200038f565b9250506020620004838582860162000410565b9150509250929050565b600081519050919050565b7f4e487b7100000000000000000000000000000000000000000000000000000000600052602260045260246000fd5b60006002820490506001821680620004e057607f821691505b602082108103620004f657620004f562000498565b5b50919050565b60008190508160005260206000209050919050565b60006020601f8301049050919050565b600082821b905092915050565b600060088302620005607fffffffffffffffffffffffffffffffffffffffffffffffffffffffffffffffff8262000521565b6200056c868362000521565b95508019841693508086168417925050509392505050565b6000819050919050565b6000819050919050565b6000620005b9620005b3620005ad8462000584565b6200058e565b62000584565b9050919050565b6000819050919050565b620005d58362000598565b620005ed620005e482620005c0565b8484546200052e565b825550505050565b600090565b62000604620005f5565b62000611818484620005ca565b505050565b5b8181101562000639576200062d600082620005fa565b60018101905062000617565b5050565b601f82111562000688576200065281620004fc565b6200065d8462000511565b810160208510156200066d578190505b620006856200067c8562000511565b83018262000616565b50505b505050565b600082821c905092915050565b6000620006ad600019846008026200068d565b1980831691505092915050565b6000620006c883836200069a565b9150826002028217905092915050565b620006e3826200048d565b67ffffffffffffffff811115620006ff57620006fe6200025e565b5b6200070b8254620004c7565b620007188282856200063d565b600060209050601f8311600181146200075057600084156200073b578287015190505b620007478582620006ba565b865550620007b7565b601f1984166200076086620004fc565b60005b828110156200078a5784890151825560018201915060208501945060208101905062000763565b86831015620007aa5784890151620007a6601f8916826200069a565b8355505b6001600288020188555050505b505050505050565b61797d80620007cf6000396000f3fe608060405234801561001057600080fd5b506004361061018d5760003560e01c80638da5cb5b116100de578063d6e0dbda11610097578063f242432a11610071578063f242432a146104cc578063f2fde38b146104e8578063f395f9da14610504578063fac795c0146105345761018d565b8063d6e0dbda1461043c578063db05979f1461046c578063e985e9c51461049c5761018d565b80638da5cb5b14610356578063936906f114610374578063a22cb465146103a4578063b881501e146103c0578063d429c758146103f0578063d4e1872c1461040c5761018d565b80634567db031161014b5780635c975abb116101255780635c975abb146102f4578063715018a6146103125780638456cb591461031c5780638be2cf9c146103265761018d565b80634567db03146102785780634e1273f4146102945780634e57d942146102c45761018d565b8062fdd58e1461019257806301ffc9a7146101c25780630e89341c146101f25780631e68ca89146102225780632eb2c2d6146102525780633f4ba83a1461026e575b600080fd5b6101ac60048036038101906101a79190615059565b610567565b6040516101b991906150a8565b60405180910390f35b6101dc60048036038101906101d7919061511b565b610630565b6040516101e99190615163565b60405180910390f35b61020c6004803603810190610207919061517e565b610712565b604051610219919061523b565b60405180910390f35b61023c6004803603810190610237919061517e565b6107f3565b604051610249919061531b565b60405180910390f35b61026c6004803603810190610267919061553a565b61089a565b005b61027661093b565b005b610292600480360381019061028d9190615705565b6109b1565b005b6102ae60048036038101906102a991906157a4565b610dea565b6040516102bb919061531b565b60405180910390f35b6102de60048036038101906102d9919061517e565b610f03565b6040516102eb919061531b565b60405180910390f35b6102fc610faa565b6040516103099190615163565b60405180910390f35b61031a610fc0565b005b610324610fd4565b005b610340600480360381019061033b919061517e565b61104a565b60405161034d91906158da565b60405180910390f35b61035e611127565b60405161036b919061590b565b60405180910390f35b61038e6004803603810190610389919061517e565b611150565b60405161039b91906150a8565b60405180910390f35b6103be60048036038101906103b99190615952565b6111ac565b005b6103da60048036038101906103d5919061517e565b6111c2565b6040516103e79190615163565b60405180910390f35b61040a60048036038101906104059190615b14565b611228565b005b6104266004803603810190610421919061517e565b6113c9565b6040516104339190615163565b60405180910390f35b6104566004803603810190610451919061517e565b61142f565b60405161046391906150a8565b60405180910390f35b6104866004803603810190610481919061517e565b61148b565b60405161049391906158da565b60405180910390f35b6104b660048036038101906104b19190615bfa565b611568565b6040516104c39190615163565b60405180910390f35b6104e660048036038101906104e19190615c3a565b6115fc565b005b61050260048036038101906104fd9190615cd1565b6117c9565b005b61051e6004803603810190610519919061517e565b61184c565b60405161052b919061531b565b60405180910390f35b61054e6004803603810190610549919061517e565b6118f3565b60405161055e9493929190615d0d565b60405180910390f35b60008073ffffffffffffffffffffffffffffffffffffffff168373ffffffffffffffffffffffffffffffffffffffff16036105d7576040517f08c379a00000000000000000000000000000000000000000000000000000000081526004016105ce90615dc4565b60405180910390fd5b6001600083815260200190815260200160002060008473ffffffffffffffffffffffffffffffffffffffff1673ffffffffffffffffffffffffffffffffffffffff16815260200190815260200160002054905092915050565b60007fd9b67a26000000000000000000000000000000000000000000000000000000007bffffffffffffffffffffffffffffffffffffffffffffffffffffffff1916827bffffffffffffffffffffffffffffffffffffffffffffffffffffffff191614806106fb57507f0e89341c000000000000000000000000000000000000000000000000000000007bffffffffffffffffffffffffffffffffffffffffffffffffffffffff1916827bffffffffffffffffffffffffffffffffffffffffffffffffffffffff1916145b8061070b575061070a826119c7565b5b9050919050565b60606107286736b16238ef581a9060c01b611a31565b61073c67da2d526aeaabbfb860c01b611a31565b61075067682b6ae52cb5793860c01b611a31565b600e6000838152602001908152602001600020805461076e90615e13565b80601f016020809104026020016040519081016040528092919081815260200182805461079a90615e13565b80156107e75780601f106107bc576101008083540402835291602001916107e7565b820191906000526020600020905b8154815290600101906020018083116107ca57829003601f168201915b50505050509050919050565b606061080967d66158b3e5e020e360c01b611a34565b61081d67bd95b5778a2bd55060c01b611a34565b610831677a1c716cd3b9cef160c01b611a34565b6010600083815260200190815260200160002080548060200260200160405190810160405280929190818152602001828054801561088e57602002820191906000526020600020905b81548152602001906001019080831161087a575b50505050509050919050565b6108a2611a37565b73ffffffffffffffffffffffffffffffffffffffff168573ffffffffffffffffffffffffffffffffffffffff1614806108e857506108e7856108e2611a37565b611568565b5b610927576040517f08c379a000000000000000000000000000000000000000000000000000000000815260040161091e90615eb6565b60405180910390fd5b6109348585858585611a3f565b5050505050565b61094f674c269e182196a92260c01b611d63565b610957611d66565b61096b67813e5fbeb6af858960c01b611d63565b61097f67f3ed285f04889deb60c01b611d63565b61099367bcc387a9e524a16e60c01b611d63565b6109a7679d8f5d5c05261c1460c01b611d63565b6109af611de4565b565b6109c567cfb4c8c4470da68b60c01b611a34565b6109cd611d66565b6109e167ef4ccdd4aa0cf6a160c01b611a34565b6109f567a3ca558112dab58160c01b611a34565b6109fd611e46565b610a1167f95e83369657db3a60c01b611a34565b610a256786d9288bbd2dd15660c01b611a34565b610a3967d499caeb8356a4ef60c01b611a34565b610a4d671fadaba13f151e8160c01b611a34565b610a61675f758e6d1f9a8fb860c01b611a34565b6011600085815260200190815260200160002060009054906101000a900460ff1615610ac2576040517f08c379a0000000000000000000000000000000000000000000000000000000008152600401610ab990615f48565b60405180910390fd5b610ad66754df606ef7d0f33260c01b611a34565b610aea67ceb84efdaa4b55e060c01b611a34565b610afe67130f936bfef3a2a860c01b611a34565b610b1267fcfd628b281fcd4860c01b611a34565b60008360ff1611610b58576040517f08c379a0000000000000000000000000000000000000000000000000000000008152600401610b4f90615fda565b60405180910390fd5b610b6c67fb14737364a1b81360c01b611a34565b610b8067664741974ee8e7ed60c01b611a34565b610b9467d91dc263d92d9a0c60c01b611a34565b6000600960008681526020019081526020016000206040518060e0016040529081600082015481526020016001820154815260200160028201548152602001600382015481526020016004820160009054906101000a900460ff1660ff1660ff1681526020016004820160019054906101000a900460ff1660ff1660ff1681526020016004820160029054906101000a900460ff1660ff1660ff16815250509050610c4967d7fe9aa052d8568660c01b611a34565b610c5d679bf10551ab3a3bd660c01b611a34565b60008160a001518260800151610c739190616029565b6064610c7f919061605e565b60ff169050610c9867f711d5fb9da6193860c01b611a34565b610cac67605b0d7c4373b5d160c01b611a34565b610cc0674bf1a3ffb1f6c6ec60c01b611a34565b808560ff161115610d06576040517f08c379a0000000000000000000000000000000000000000000000000000000008152600401610cfd90616105565b60405180910390fd5b610d1a67acf60d204203ffc960c01b611a34565b610d2e6797d662984a030b7f60c01b611a34565b610d4267c35b2b7c6545503160c01b611a34565b610d566742bda0a31f5806cc60c01b611a34565b8351835114610d9a576040517f08c379a0000000000000000000000000000000000000000000000000000000008152600401610d9190616171565b60405180910390fd5b610dae6715bc0db15e406cb760c01b611a34565b610dc26737c7e5826ef4b87360c01b611a34565b610dd6676b870d2d6f7d60cf60c01b611a34565b610de286868686611e90565b505050505050565b60608151835114610e30576040517f08c379a0000000000000000000000000000000000000000000000000000000008152600401610e2790616203565b60405180910390fd5b6000835167ffffffffffffffff811115610e4d57610e4c615342565b5b604051908082528060200260200182016040528015610e7b5781602001602082028036833780820191505090505b50905060005b8451811015610ef857610ec8858281518110610ea057610e9f616223565b5b6020026020010151858381518110610ebb57610eba616223565b5b6020026020010151610567565b828281518110610edb57610eda616223565b5b60200260200101818152505080610ef190616252565b9050610e81565b508091505092915050565b6060610f19671a52cad882febbe560c01b611a31565b610f2d6753843b645b3502c860c01b611a31565b610f4167fa664f9525e30c8560c01b611a31565b600a6000838152602001908152602001600020805480602002602001604051908101604052809291908181526020018280548015610f9e57602002820191906000526020600020905b815481526020019060010190808311610f8a575b50505050509050919050565b60008060149054906101000a900460ff16905090565b610fc8611d66565b610fd2600061235a565b565b610fe867289a6c09ae22551960c01b611d63565b610ff0611d66565b6110046792fe4fb2956b008960c01b611d63565b61101867031fac5a1b3e264460c01b611d63565b61102c67dc99da3ac773dbff60c01b611d63565b611040678605a9f96b41cf1260c01b611d63565b61104861241e565b565b60606110606736979b05c888cc4860c01b611a31565b611074674dd863445411a08360c01b611a31565b6110886762c8bbcf4670b71560c01b611a31565b6006600083815260200190815260200160002080548060200260200160405190810160405280929190818152602001828054801561111b57602002820191906000526020600020905b8160009054906101000a900473ffffffffffffffffffffffffffffffffffffffff1673ffffffffffffffffffffffffffffffffffffffff16815260200190600101908083116110d1575b50505050509050919050565b60008060009054906101000a900473ffffffffffffffffffffffffffffffffffffffff16905090565b60006111666707f64cd5d8a8a14b60c01b611a31565b61117a67c7e7b490dce49f4760c01b611a31565b61118e67bfd9e3862eb4776060c01b611a31565b60096000838152602001908152602001600020600101549050919050565b6111be6111b7611a37565b8383612481565b5050565b60006111d867ea7c555c1627c5b460c01b611a31565b6111ec67075dd45acf7f45b460c01b611a31565b6112006769ee3657da5a777760c01b611a31565b6008600083815260200190815260200160002060009054906101000a900460ff169050919050565b61123c675915ba407d5ebe2d60c01b611a31565b611244611d66565b611258672e7b7c5dea2f9d2360c01b611a31565b61126c6786c56dc1a8fcaab960c01b611a31565b611274611e46565b61128867f7f118b95d401be060c01b611a31565b61129c670bfd8c9ebc971e9160c01b611a31565b6112b067c2487208f02e5b7d60c01b611a31565b6112c467b471c7639203569360c01b611a31565b6112d867c88c99ee34baa7e260c01b611a31565b600860008a815260200190815260200160002060009054906101000a900460ff1615611339576040517f08c379a00000000000000000000000000000000000000000000000000000000081526004016113309061630c565b60405180910390fd5b61134d677c1040b489d8c4bc60c01b611a31565b6113616709fb7b6874720e7460c01b611a31565b6113756741d7c644d6c1137e60c01b611a31565b61138588888888888888886125ed565b611399677b423b725a31991a60c01b611a31565b6113ad670b4e50dac4514d9d60c01b611a31565b6113be898989898989898989612b02565b505050505050505050565b60006113df670e6eb32b63a03df360c01b611a34565b6113f36786a35b6505343a0960c01b611a34565b611407671f872b911a5011e160c01b611a34565b6011600083815260200190815260200160002060009054906101000a900460ff169050919050565b6000611445671ae678a1deee0bee60c01b611a31565b611459675852be98b37791b860c01b611a31565b61146d67ae1ae54ea648585460c01b611a31565b60096000838152602001908152602001600020600201549050919050565b60606114a1679bf2858bd7626ad260c01b611a34565b6114b567a36350cc947ff39160c01b611a34565b6114c96721570f91a1ddb85860c01b611a34565b600f600083815260200190815260200160002080548060200260200160405190810160405280929190818152602001828054801561155c57602002820191906000526020600020905b8160009054906101000a900473ffffffffffffffffffffffffffffffffffffffff1673ffffffffffffffffffffffffffffffffffffffff1681526020019060010190808311611512575b50505050509050919050565b6000600260008473ffffffffffffffffffffffffffffffffffffffff1673ffffffffffffffffffffffffffffffffffffffff16815260200190815260200160002060008373ffffffffffffffffffffffffffffffffffffffff1673ffffffffffffffffffffffffffffffffffffffff16815260200190815260200160002060009054906101000a900460ff16905092915050565b61161067c17f6577ca03be2d60c01b611d63565b6116246768ba04c51a9bccc360c01b611d63565b6116386799b3aba0d37826de60c01b611d63565b7f4c4f434b45440000000000000000000000000000000000000000000000000000600d600085815260200190815260200160002054036117785761168667a84db6e640ed066260c01b611d63565b61169a675f690dd95b7048ad60c01b611d63565b6116ae673da3195373c3839160c01b611d63565b6116c2671c9c410fe416031260c01b611d63565b600b6000600c600086815260200190815260200160002054815260200190815260200160002054421161172a576040517f08c379a00000000000000000000000000000000000000000000000000000000081526004016117219061639e565b60405180910390fd5b61173e67d3cf0afc3a518cde60c01b611d63565b611752677f1094c66941f40360c01b611d63565b61176667c539f742d98a7dd660c01b611d63565b6117738585858585612d02565b6117c2565b61178c67605b421a4b67a4ae60c01b611d63565b6117a067e856e8c5a110b64060c01b611d63565b6117b4673de6c0881834456860c01b611d63565b6117c18585858585612d02565b5b5050505050565b6117d1611d66565b600073ffffffffffffffffffffffffffffffffffffffff168173ffffffffffffffffffffffffffffffffffffffff1603611840576040517f08c379a000000000000000000000000000000000000000000000000000000000815260040161183790616430565b60405180910390fd5b6118498161235a565b50565b60606118626736368329c295060360c01b611a31565b6118766742706690e6df758760c01b611a31565b61188a67b7ac7c37d8beec1c60c01b611a31565b600760008381526020019081526020016000208054806020026020016040519081016040528092919081815260200182805480156118e757602002820191906000526020600020905b8154815260200190600101908083116118d3575b50505050509050919050565b60008060008061190d67ea1c3c4218d2232960c01b611a31565b61192167dde84d19e3f7778860c01b611a31565b61193567987f91efaf68632660c01b611a31565b60096000868152602001908152602001600020600301546009600087815260200190815260200160002060040160009054906101000a900460ff166009600088815260200190815260200160002060040160029054906101000a900460ff166009600089815260200190815260200160002060040160019054906101000a900460ff1693509350935093509193509193565b60007f01ffc9a7000000000000000000000000000000000000000000000000000000007bffffffffffffffffffffffffffffffffffffffffffffffffffffffff1916827bffffffffffffffffffffffffffffffffffffffffffffffffffffffff1916149050919050565b50565b50565b600033905090565b8151835114611a83576040517f08c379a0000000000000000000000000000000000000000000000000000000008152600401611a7a906164c2565b60405180910390fd5b600073ffffffffffffffffffffffffffffffffffffffff168473ffffffffffffffffffffffffffffffffffffffff1603611af2576040517f08c379a0000000000000000000000000000000000000000000000000000000008152600401611ae990616554565b60405180910390fd5b6000611afc611a37565b9050611b0c818787878787612e97565b60005b8451811015611cc0576000858281518110611b2d57611b2c616223565b5b602002602001015190506000858381518110611b4c57611b4b616223565b5b6020026020010151905060006001600084815260200190815260200160002060008b73ffffffffffffffffffffffffffffffffffffffff1673ffffffffffffffffffffffffffffffffffffffff16815260200190815260200160002054905081811015611bee576040517f08c379a0000000000000000000000000000000000000000000000000000000008152600401611be5906165e6565b60405180910390fd5b8181036001600085815260200190815260200160002060008c73ffffffffffffffffffffffffffffffffffffffff1673ffffffffffffffffffffffffffffffffffffffff16815260200190815260200160002081905550816001600085815260200190815260200160002060008b73ffffffffffffffffffffffffffffffffffffffff1673ffffffffffffffffffffffffffffffffffffffff1681526020019081526020016000206000828254611ca59190616606565b9250508190555050505080611cb990616252565b9050611b0f565b508473ffffffffffffffffffffffffffffffffffffffff168673ffffffffffffffffffffffffffffffffffffffff168273ffffffffffffffffffffffffffffffffffffffff167f4a39dc06d4c0dbc64b70af90fd698a233a518aa5d07e595d983b8c0526c8f7fb8787604051611d3792919061663a565b60405180910390a4611d4d818787878787612e9f565b611d5b818787878787612ea7565b505050505050565b50565b611d6e611a37565b73ffffffffffffffffffffffffffffffffffffffff16611d8c611127565b73ffffffffffffffffffffffffffffffffffffffff1614611de2576040517f08c379a0000000000000000000000000000000000000000000000000000000008152600401611dd9906166bd565b60405180910390fd5b565b611dec61307e565b60008060146101000a81548160ff0219169083151502179055507f5db9ee0a495bf2e6ff9c91a7834c1ba4fdd244a5e8aa4e537bd38aeae4b073aa611e2f611a37565b604051611e3c919061590b565b60405180910390a1565b611e4e610faa565b15611e8e576040517f08c379a0000000000000000000000000000000000000000000000000000000008152600401611e8590616729565b60405180910390fd5b565b611ea46711921b58f580e26e60c01b611a34565b611eb867dac7cdab4a8d133e60c01b611a34565b611ecc6762b01d14b3fe498b60c01b611a34565b6000600960008681526020019081526020016000209050611ef7677c5b2bceb7e2acfb60c01b611a34565b838160040160026101000a81548160ff021916908360ff160217905550611f2867533bf9c37d0b988a60c01b611a34565b611f3c67652cd17eb7a0202a60c01b611a34565b6000611f47846130c7565b9050611f5d6790c152e4b92fc7aa60c01b611a34565b611f716781586f0a898de0f960c01b611a34565b600083519050611f8b67a6a0ecddc878f43f60c01b611a34565b611f9f67ebb2c6301f3574f560c01b611a34565b60005b8181101561228957611fbe670eaeb8e1594b741a60c01b611a34565b611fd267c8c135c23763939460c01b611a34565b6000858281518110611fe757611fe6616223565b5b602002602001015190506120056787939176ec5c68ce60c01b611a34565b61201967ca904eb40a8a5e8160c01b611a34565b600061204888848151811061203157612030616223565b5b6020026020010151868b60ff1689600101546131ea565b905061205e67d272ab39f7ebe03260c01b611a34565b6120726715bb95e89cc0740660c01b611a34565b600061207d82613302565b905061209367960ce4cc78d094f560c01b611a34565b6120a7676ba29e2eb5c1e03260c01b611a34565b61214983600a60008e815260200190815260200160002080548060200260200160405190810160405280929190818152602001828054801561210857602002820191906000526020600020905b8154815260200190600101908083116120f4575b5050505050836040518060400160405280600481526020017f3078303000000000000000000000000000000000000000000000000000000000815250613491565b61215d67afc3d419495d802560c01b611a34565b81876002015461216d9190616606565b8760020181905550612189679a5ec14ad3f8ace860c01b611a34565b61219d6746b810f4220f89e760c01b611a34565b600f60008c8152602001908152602001600020839080600181540180825580915050600190039060005260206000200160009091909190916101000a81548173ffffffffffffffffffffffffffffffffffffffff021916908373ffffffffffffffffffffffffffffffffffffffff1602179055506122256720d6b1425ac26f6a60c01b611a34565b61223967e8505f32451b4cc860c01b611a34565b601060008c8152602001908152602001600020829080600181540180825580915050600190039060005260206000200160009091909190915055505050808061228190616252565b915050611fa2565b5061229e671d64548f02b1f43460c01b611a34565b6122b2677c171f77e704781860c01b611a34565b7f621e1a59d70685f53a28114e1229586ecd6908416f6bfaee0e147c3d34f3984587600f60008a8152602001908152602001600020601060008b8152602001908152602001600020604051612309939291906168fe565b60405180910390a161232567f0b6553bda0cc9d160c01b611a34565b60016011600089815260200190815260200160002060006101000a81548160ff02191690831515021790555050505050505050565b60008060009054906101000a900473ffffffffffffffffffffffffffffffffffffffff169050816000806101000a81548173ffffffffffffffffffffffffffffffffffffffff021916908373ffffffffffffffffffffffffffffffffffffffff1602179055508173ffffffffffffffffffffffffffffffffffffffff168173ffffffffffffffffffffffffffffffffffffffff167f8be0079c531659141344cd1fd0a4f28419497f9722a3daafe3b4186f6b6457e060405160405180910390a35050565b612426611e46565b6001600060146101000a81548160ff0219169083151502179055507f62e78cea01bee320cd4e420270b5ea74000d11b0c9f74754ebdbfc544b05a25861246a611a37565b604051612477919061590b565b60405180910390a1565b8173ffffffffffffffffffffffffffffffffffffffff168373ffffffffffffffffffffffffffffffffffffffff16036124ef576040517f08c379a00000000000000000000000000000000000000000000000000000000081526004016124e6906169b5565b60405180910390fd5b80600260008573ffffffffffffffffffffffffffffffffffffffff1673ffffffffffffffffffffffffffffffffffffffff16815260200190815260200160002060008473ffffffffffffffffffffffffffffffffffffffff1673ffffffffffffffffffffffffffffffffffffffff16815260200190815260200160002060006101000a81548160ff0219169083151502179055508173ffffffffffffffffffffffffffffffffffffffff168373ffffffffffffffffffffffffffffffffffffffff167f17307eab39ab6107e8899845ad3d59bd9653f200f220920489ca2b5937696c31836040516125e09190615163565b60405180910390a3505050565b6126016713c89eb54e90a7fa60c01b611a31565b612615670538d94f7b882e3e60c01b611a31565b612629674c29204f2887057860c01b611a31565b61263d678468081c1b1357ac60c01b611a31565b60008811612680576040517f08c379a000000000000000000000000000000000000000000000000000000000815260040161267790616a47565b60405180910390fd5b612694676e3ef9774a73e81360c01b611a31565b6126a86792491d56385ecc7c60c01b611a31565b6126bc67671c0c4d2fe650b160c01b611a31565b6126d067659d0174fa4f0bff60c01b611a31565b60008711612713576040517f08c379a000000000000000000000000000000000000000000000000000000000815260040161270a90616ad9565b60405180910390fd5b61272767cdbe933b2af6fb5960c01b611a31565b61273b6755bc71e6e7ae880b60c01b611a31565b61274f6723a1143aabdc8dbf60c01b611a31565b612763671c4fadc21c9a16a260c01b611a31565b600086116127a6576040517f08c379a000000000000000000000000000000000000000000000000000000000815260040161279d90616b6b565b60405180910390fd5b6127ba67cab08564ce9e7e9a60c01b611a31565b6127ce672886f1eb74b2daa260c01b611a31565b6127e26707c35272e207b50160c01b611a31565b6127f6674a0d05ec507fb2d260c01b611a31565b60008560ff161161283c576040517f08c379a000000000000000000000000000000000000000000000000000000000815260040161283390616bfd565b60405180910390fd5b61285067984913895d1ff70f60c01b611a31565b6128646722604be50b9f041660c01b611a31565b61287867a6f1c1f3f7bd99ce60c01b611a31565b61288c67cda8f5d3e2f487d460c01b611a31565b60008460ff16116128d2576040517f08c379a00000000000000000000000000000000000000000000000000000000081526004016128c990616c8f565b60405180910390fd5b6128e667aebe2a23261a44c960c01b611a31565b6128fa67ce7e659afee2fd0960c01b611a31565b61290e67fbc6b03b75f5137360c01b611a31565b61292267c9a103043bcc7b8360c01b611a31565b600073ffffffffffffffffffffffffffffffffffffffff168373ffffffffffffffffffffffffffffffffffffffff1603612991576040517f08c379a000000000000000000000000000000000000000000000000000000000815260040161298890616d21565b60405180910390fd5b6129a5671b6a37f959dc428460c01b611a31565b6129b9679a0b07648b2b751060c01b611a31565b6129cd6791ebf62c0998828060c01b611a31565b6129e1674027c85802a7ec6f60c01b611a31565b600073ffffffffffffffffffffffffffffffffffffffff168273ffffffffffffffffffffffffffffffffffffffff1603612a50576040517f08c379a0000000000000000000000000000000000000000000000000000000008152600401612a4790616db3565b60405180910390fd5b612a64673292f22b29e3e13960c01b611a31565b612a78672e395931805b912360c01b611a31565b612a8c67584a79cf25f6ffa160c01b611a31565b612aa06749fd754833b329c860c01b611a31565b6000815111612ae4576040517f08c379a0000000000000000000000000000000000000000000000000000000008152600401612adb90616e45565b60405180910390fd5b612af867ef9e355a2508b68b60c01b611a31565b5050505050505050565b612b166774921bc0b184a2ab60c01b611a31565b612b2a6733dcf64edbe3045860c01b611a31565b612b3e67b1fd9cdd613809dc60c01b611a31565b612b4889876136be565b612b5c672fddcd765c8c3ad960c01b611a31565b612b706798163f36f092930e60c01b611a31565b612b908989600b60008d8152602001908152602001600020548888613724565b612ba4678fe8f4d30402328560c01b611a31565b612bb867b21755b43570590b60c01b611a31565b612bc28982613838565b612bd6677f4706c2f467027060c01b611a31565b612bea677a03b4ce36669adc60c01b611a31565b612bf9898660ff168986613b92565b612c0d6792aa9b72430d24e360c01b611a31565b612c2167f9ccfcc82c13a16360c01b611a31565b612c3089898660ff168561438b565b612c4467a3673a6118727ba760c01b611a31565b612c5867ed6acc35e994de7260c01b611a31565b7fb79a1263d65160537b9075e0e4747a6007a82fb191be4435b4c508c431920b8989600660008c8152602001908152602001600020600760008d8152602001908152602001600020604051612caf939291906168fe565b60405180910390a1612ccb67841cbd88491e871360c01b611a31565b6001600860008b815260200190815260200160002060006101000a81548160ff021916908315150217905550505050505050505050565b612d16672bf3faa6f8b71cc360c01b611d63565b612d1e611e46565b612d3267c8f34301746c47fe60c01b611d63565b612d4667c45e4b36c67638f060c01b611d63565b612d5a676e5feb0de615cb2660c01b611d63565b612d6e672c7c121c3b46056360c01b611d63565b612d8267402603d75cf3c92560c01b611d63565b612d8a611a37565b73ffffffffffffffffffffffffffffffffffffffff168573ffffffffffffffffffffffffffffffffffffffff16148015612dd45750612dd36716762cd385b4531060c01b614654565b5b80612e085750612deb85612de6611a37565b611568565b8015612e075750612e0667359de63640710e5960c01b614654565b5b5b612e47576040517f08c379a0000000000000000000000000000000000000000000000000000000008152600401612e3e90616ed7565b60405180910390fd5b612e5b6771b50be218da5a6960c01b611d63565b612e6f678d374fd96089569760c01b611d63565b612e83673a96c4113e6d79c560c01b611d63565b612e90858585858561465f565b5050505050565b505050505050565b505050505050565b612ec68473ffffffffffffffffffffffffffffffffffffffff166148fd565b15613076578373ffffffffffffffffffffffffffffffffffffffff1663bc197c8187878686866040518663ffffffff1660e01b8152600401612f0c959493929190616f4c565b6020604051808303816000875af1925050508015612f4857506040513d601f19601f82011682018060405250810190612f459190616fc9565b60015b612fed57612f54617003565b806308c379a003612fb05750612f68617025565b80612f735750612fb2565b806040517f08c379a0000000000000000000000000000000000000000000000000000000008152600401612fa7919061523b565b60405180910390fd5b505b6040517f08c379a0000000000000000000000000000000000000000000000000000000008152600401612fe490617127565b60405180910390fd5b63bc197c8160e01b7bffffffffffffffffffffffffffffffffffffffffffffffffffffffff1916817bffffffffffffffffffffffffffffffffffffffffffffffffffffffff191614613074576040517f08c379a000000000000000000000000000000000000000000000000000000000815260040161306b906171b9565b60405180910390fd5b505b505050505050565b613086610faa565b6130c5576040517f08c379a00000000000000000000000000000000000000000000000000000000081526004016130bc90617225565b60405180910390fd5b565b60006130dd67aab39f32f9f049ab60c01b611a34565b6130f167887dde395f1d522e60c01b611a34565b613105674caa06e818c245c160c01b611a34565b60008251905061311f67ed549561336349ec60c01b611a34565b613133671296c055a742b59860c01b611a34565b600061314967cbd325f4ff70088460c01b611a34565b61315d67b3e48c32bad79f0260c01b611a34565b60005b828110156131b75761317c67aa564919c913c37660c01b611a34565b84818151811061318f5761318e616223565b5b6020026020010151826131a29190616606565b915080806131af90616252565b915050613160565b506131cc674cd240c926a7be1560c01b611a34565b6131e067b9c58cd24731482960c01b611a34565b8092505050919050565b600061320067f81d2d9027c7f4e060c01b611a31565b61321467282dd1c25857bea260c01b611a31565b61322867d934ebf585d9a65f60c01b611a31565b6000848660646132389190617245565b61324291906172b6565b9050613258678e5410372587b53560c01b611a31565b61326c6797e22fe287306ce860c01b611a31565b60006064858561327c9190617245565b61328691906172b6565b905061329c6740718e5977e2a44b60c01b611a31565b6132b067deeb2c8c301154fb60c01b611a31565b6000606483836132c09190617245565b6132ca91906172b6565b90506132e0672c7af22f7e784dd760c01b611a31565b6132f467860a72ea0645479c60c01b611a31565b809350505050949350505050565b606061331867abc3f5eadc84f3d860c01b611a31565b61332c676f9e021a4bf51efb60c01b611a31565b61334067319d86bc25e5766360c01b611a31565b6000600267ffffffffffffffff81111561335d5761335c615342565b5b60405190808252806020026020018201604052801561338b5781602001602082028036833780820191505090505b5090506133a2678329589373de574460c01b611a31565b6133b667c04ccf8b496e238b60c01b611a31565b600060646032856133c79190617245565b6133d191906172b6565b90506133e767c1ef19729354386e60c01b611a31565b80826000815181106133fc576133fb616223565b5b60200260200101818152505061341c67d03ce72e0e171e8460c01b611a31565b808461342891906172e7565b935061343e679bf6fa4a2bfb7d8860c01b611a31565b838260018151811061345357613452616223565b5b60200260200101818152505061347367d369b1ae4aaf4d5c60c01b611a31565b6134876795d810699789d02660c01b611a31565b8192505050919050565b600073ffffffffffffffffffffffffffffffffffffffff168473ffffffffffffffffffffffffffffffffffffffff1603613500576040517f08c379a00000000000000000000000000000000000000000000000000000000081526004016134f79061738d565b60405180910390fd5b8151835114613544576040517f08c379a000000000000000000000000000000000000000000000000000000000815260040161353b906164c2565b60405180910390fd5b600061354e611a37565b905061355f81600087878787612e97565b60005b84518110156136195783818151811061357e5761357d616223565b5b60200260200101516001600087848151811061359d5761359c616223565b5b6020026020010151815260200190815260200160002060008873ffffffffffffffffffffffffffffffffffffffff1673ffffffffffffffffffffffffffffffffffffffff16815260200190815260200160002060008282546135ff9190616606565b92505081905550808061361190616252565b915050613562565b508473ffffffffffffffffffffffffffffffffffffffff16600073ffffffffffffffffffffffffffffffffffffffff168273ffffffffffffffffffffffffffffffffffffffff167f4a39dc06d4c0dbc64b70af90fd698a233a518aa5d07e595d983b8c0526c8f7fb878760405161369192919061663a565b60405180910390a46136a881600087878787612e9f565b6136b781600087878787612ea7565b5050505050565b6136d267dce291d7e010780b60c01b611a31565b6136e6670bb7a6e407efc47660c01b611a31565b42816136f29190616606565b90506137086757aa5249488aa45960c01b611a31565b80600b6000848152602001908152602001600020819055505050565b613738674c743fd509e13ca260c01b611a31565b61374c671cd8bc8308ca09a860c01b611a31565b61376067e1d00c6ecef3e63660c01b611a31565b600060096000878152602001908152602001600020905061378b6717d03e45f5f4711a60c01b611a31565b8581600001819055506137a8670ca5aa0b5928e3a760c01b611a31565b8481600101819055506137c567af293111d99b85f060c01b611a31565b8381600301819055506137e267737010027b8cc44960c01b611a31565b828160040160006101000a81548160ff021916908360ff160217905550613813674ce0dec13bc3579160c01b611a31565b818160040160016101000a81548160ff021916908360ff160217905550505050505050565b61384c67a280eebeed42d79c60c01b611a31565b61386067b89870c028d633d260c01b611a31565b61387467efc7430a0cf44b0d60c01b611a31565b6000600267ffffffffffffffff81111561389157613890615342565b5b6040519080825280602002602001820160405280156138bf5781602001602082028036833780820191505090505b5090506138d6672618d4ee2346949b60c01b611a31565b7f4c4f434b454400000000000000000000000000000000000000000000000000008160008151811061390b5761390a616223565b5b60200260200101818152505061392b67c7b765deef0d18fe60c01b611a31565b7f5452414445440000000000000000000000000000000000000000000000000000816001815181106139605761395f616223565b5b602002602001018181525050613980679811dc976b1c36f160c01b611a31565b61399467ab8aed532df2d76b60c01b611a31565b60005b81518160ff161015613b8c576139b767bba17983cdabd13360c01b611a31565b6139cb67e7524e6bb510413060c01b611a31565b6005828260ff16815181106139e3576139e2616223565b5b60200260200101519080600181540180825580915050600190039060005260206000200160009091909190915055613a256717ecefd70aa16eab60c01b611a31565b613a3967bafb3e51f464f8c660c01b611a31565b60006001600580549050613a4d91906172e7565b9050613a6367dc33db0eb21ed9a060c01b611a31565b613a7767661787d79f638ca760c01b611a31565b600a6000868152602001908152602001600020819080600181540180825580915050600190039060005260206000200160009091909190915055613ac567f29e927760c91b4660c01b611a31565b828260ff1681518110613adb57613ada616223565b5b6020026020010151600d600083815260200190815260200160002081905550613b0e67ee28653b3a46f48c60c01b611a31565b84600c600083815260200190815260200160002081905550613b3a67f83095505e1071c960c01b611a31565b838260ff1681518110613b5057613b4f616223565b5b6020026020010151600e60008381526020019081526020016000209081613b779190617559565b50508080613b849061762b565b915050613997565b50505050565b613ba667836d83570f0cd3a660c01b611a31565b613bba67be97bdc86a34d4c960c01b611a31565b613bcd66fa7258db33e83660c01b611a31565b6000600460009054906101000a900473ffffffffffffffffffffffffffffffffffffffff1673ffffffffffffffffffffffffffffffffffffffff1663c9187fe7866040518263ffffffff1660e01b8152600401613c2a91906150a8565b600060405180830381865afa158015613c47573d6000803e3d6000fd5b505050506040513d6000823e3d601f19601f82011682018060405250810190613c7091906177a5565b9050613c8667132444359128480360c01b611a31565b613c9a67815d296fbc8b093960c01b611a31565b6000613ca586614920565b9050613cbb670a27e4cbcfee6d1b60c01b611a31565b613ccf67864422b3f98b08ae60c01b611a31565b6000600960008881526020019081526020016000209050613cfa677052205b98ca125960c01b611a31565b8482613d069190616606565b9150613d1c6786208709abf5bb9960c01b611a31565b613d30674a524ba9e578aed560c01b611a31565b6000600460009054906101000a900473ffffffffffffffffffffffffffffffffffffffff1673ffffffffffffffffffffffffffffffffffffffff166384ffeca5896040518263ffffffff1660e01b8152600401613d8d91906150a8565b602060405180830381865afa158015613daa573d6000803e3d6000fd5b505050506040513d601f19601f82011682018060405250810190613dce9190617803565b9050613de4675f8a21eb0406262860c01b611a31565b613df867a889e1f5f41711fd60c01b611a31565b60005b8181101561421757613e1767e683444f23e6b69060c01b611a31565b613e2b67164ea45f6885c7da60c01b611a31565b6000600460009054906101000a900473ffffffffffffffffffffffffffffffffffffffff1673ffffffffffffffffffffffffffffffffffffffff166359a96ffe878481518110613e7e57613e7d616223565b5b60200260200101516040518263ffffffff1660e01b8152600401613ea29190617830565b602060405180830381865afa158015613ebf573d6000803e3d6000fd5b505050506040513d601f19601f82011682018060405250810190613ee39190617867565b9050613ef967280eb10e9a4788dc60c01b611a31565b613f0d67b0f0eb068548dd0b60c01b611a31565b6000613fd6600460009054906101000a900473ffffffffffffffffffffffffffffffffffffffff1673ffffffffffffffffffffffffffffffffffffffff16630e47cefa898681518110613f6357613f62616223565b5b60200260200101518e6040518363ffffffff1660e01b8152600401613f89929190617894565b602060405180830381865afa158015613fa6573d6000803e3d6000fd5b505050506040513d601f19601f82011682018060405250810190613fca9190617803565b878c88600101546131ea565b9050613fec674dcdc93d427b393b60c01b611a31565b61400067dc0d4903f60c679c60c01b611a31565b600061400b82613302565b905061402167394c1c981265dfc360c01b611a31565b61403567c92669fdf108cc6660c01b611a31565b6140d783600a60008f815260200190815260200160002080548060200260200160405190810160405280929190818152602001828054801561409657602002820191906000526020600020905b815481526020019060010190808311614082575b5050505050836040518060400160405280600481526020017f3078303000000000000000000000000000000000000000000000000000000000815250613491565b6140eb67aa3daad0320177c160c01b611a31565b8186600201546140fb9190616606565b8660020181905550614117670f7ec44c50154f7e60c01b611a31565b61412b67374d4e255ee5e29860c01b611a31565b600660008d8152602001908152602001600020839080600181540180825580915050600190039060005260206000200160009091909190916101000a81548173ffffffffffffffffffffffffffffffffffffffff021916908373ffffffffffffffffffffffffffffffffffffffff1602179055506141b3675ac26f54ed569cd260c01b611a31565b6141c767c24312526bd0b5e960c01b611a31565b600760008d8152602001908152602001600020829080600181540180825580915050600190039060005260206000200160009091909190915055505050808061420f90616252565b915050613dfb565b5061422c67edd6d4270faa2cde60c01b611a31565b614240676e37652b8ffc91d360c01b611a31565b60006142548988868b87600101548b614bdc565b905061426a67e143cfc2d6d9cb4760c01b611a31565b80836002015461427a9190616606565b836002018190555061429667a003bbf89cef951f60c01b611a31565b6142aa67063692a633bfde5b60c01b611a31565b600660008a8152602001908152602001600020869080600181540180825580915050600190039060005260206000200160009091909190916101000a81548173ffffffffffffffffffffffffffffffffffffffff021916908373ffffffffffffffffffffffffffffffffffffffff16021790555061433267c1c67836722281c260c01b611a31565b61434667d9d2ecffbb1397cf60c01b611a31565b600760008a8152602001908152602001600020819080600181540180825580915050600190039060005260206000200160009091909190915055505050505050505050565b61439f67ea653bc968bdc6d960c01b611a31565b6143b3674b4422bc7d0c22d960c01b611a31565b6143c767ed359cbd189201d560c01b611a31565b60006009600086815260200190815260200160002090506143f2675a24d7626b21999d60c01b611a31565b61440667313ea1a32143e5a760c01b611a31565b6000606484866144169190617245565b61442091906172b6565b90506144366715046cf8a2f961cc60c01b611a31565b8082600201546144469190616606565b826002018190555061446267b4a4140a349190b560c01b611a31565b61447667fc966f584759813a60c01b611a31565b600061448182613302565b905061449767a9f4de7961c386c360c01b611a31565b6144ab6747ce4a0ce045f63260c01b611a31565b60066000888152602001908152602001600020849080600181540180825580915050600190039060005260206000200160009091909190916101000a81548173ffffffffffffffffffffffffffffffffffffffff021916908373ffffffffffffffffffffffffffffffffffffffff1602179055506145336706897d58a8ffa43160c01b611a31565b6145476788b7ad33a34493af60c01b611a31565b60076000888152602001908152602001600020829080600181540180825580915050600190039060005260206000200160009091909190915055614595677d6c90c8c295f84260c01b611a31565b6145a96782cc11fbdff9205960c01b611a31565b61464b84600a60008a815260200190815260200160002080548060200260200160405190810160405280929190818152602001828054801561460a57602002820191906000526020600020905b8154815260200190600101908083116145f6575b5050505050836040518060400160405280600481526020017f3078303000000000000000000000000000000000000000000000000000000000815250613491565b50505050505050565b600060019050919050565b600073ffffffffffffffffffffffffffffffffffffffff168473ffffffffffffffffffffffffffffffffffffffff16036146ce576040517f08c379a00000000000000000000000000000000000000000000000000000000081526004016146c590616554565b60405180910390fd5b60006146d8611a37565b905060006146e585614d60565b905060006146f285614d60565b9050614702838989858589612e97565b60006001600088815260200190815260200160002060008a73ffffffffffffffffffffffffffffffffffffffff1673ffffffffffffffffffffffffffffffffffffffff1681526020019081526020016000205490508581101561479a576040517f08c379a0000000000000000000000000000000000000000000000000000000008152600401614791906165e6565b60405180910390fd5b8581036001600089815260200190815260200160002060008b73ffffffffffffffffffffffffffffffffffffffff1673ffffffffffffffffffffffffffffffffffffffff16815260200190815260200160002081905550856001600089815260200190815260200160002060008a73ffffffffffffffffffffffffffffffffffffffff1673ffffffffffffffffffffffffffffffffffffffff16815260200190815260200160002060008282546148519190616606565b925050819055508773ffffffffffffffffffffffffffffffffffffffff168973ffffffffffffffffffffffffffffffffffffffff168573ffffffffffffffffffffffffffffffffffffffff167fc3d58168c5ae7397731d063d5bbf3d657854427343f4c083240f7aacaa2d0f628a8a6040516148ce9291906178c4565b60405180910390a46148e4848a8a86868a612e9f565b6148f2848a8a8a8a8a614dda565b505050505050505050565b6000808273ffffffffffffffffffffffffffffffffffffffff163b119050919050565b600061493667db6891394d62f65060c01b611a31565b61494a67a9747bd63961f6a760c01b611a31565b61495e676b356cb0aadede3d60c01b611a31565b6000600460009054906101000a900473ffffffffffffffffffffffffffffffffffffffff1673ffffffffffffffffffffffffffffffffffffffff1663c9187fe7846040518263ffffffff1660e01b81526004016149bb91906150a8565b600060405180830381865afa1580156149d8573d6000803e3d6000fd5b505050506040513d6000823e3d601f19601f82011682018060405250810190614a0191906177a5565b9050614a176758e7482b5844cc7d60c01b611a31565b614a2b672fcc187a6eb9bd5d60c01b611a31565b6000614a41676d8cba0421998ff760c01b611a31565b614a5567fc9c9548ccd49e2960c01b611a31565b600082519050614a6f6791fd09e3ba4dc57f60c01b611a31565b614a8367c19ee0d0340bdf1960c01b611a31565b60005b81811015614ba857614aa26755ef1202937c189860c01b611a31565b614ab6679b8635bababd7cd560c01b611a31565b6000600460009054906101000a900473ffffffffffffffffffffffffffffffffffffffff1673ffffffffffffffffffffffffffffffffffffffff16630e47cefa868481518110614b0957614b08616223565b5b6020026020010151896040518363ffffffff1660e01b8152600401614b2f929190617894565b602060405180830381865afa158015614b4c573d6000803e3d6000fd5b505050506040513d601f19601f82011682018060405250810190614b709190617803565b9050614b86673713c0cb0f3a7a0960c01b611a31565b8084614b929190616606565b9350508080614ba090616252565b915050614a86565b50614bbd6752b1ed2d46c8304c60c01b611a31565b614bd1676e8fb6e8d40efa7360c01b611a31565b819350505050919050565b6000614bf267ae9084963bc3455a60c01b611a31565b614c0667b9a5b29730f2e2b260c01b611a31565b614c1a671fe0275ae3c5ecd960c01b611a31565b6000614c28878787876131ea565b9050614c3e678b282cad192c5fb360c01b611a31565b614c52678419153d5d05889460c01b611a31565b6000614c5d82613302565b9050614c73670191dd807a806c5f60c01b611a31565b614c8767ff432fe7bf83145f60c01b611a31565b614d2984600a60008c8152602001908152602001600020805480602002602001604051908101604052809291908181526020018280548015614ce857602002820191906000526020600020905b815481526020019060010190808311614cd4575b5050505050836040518060400160405280600481526020017f3078303000000000000000000000000000000000000000000000000000000000815250613491565b614d3d671a13af6cfe9d6d6060c01b611a31565b614d516762c98aafb53f225060c01b611a31565b81925050509695505050505050565b60606000600167ffffffffffffffff811115614d7f57614d7e615342565b5b604051908082528060200260200182016040528015614dad5781602001602082028036833780820191505090505b5090508281600081518110614dc557614dc4616223565b5b60200260200101818152505080915050919050565b614df98473ffffffffffffffffffffffffffffffffffffffff166148fd565b15614fa9578373ffffffffffffffffffffffffffffffffffffffff1663f23a6e6187878686866040518663ffffffff1660e01b8152600401614e3f9594939291906178ed565b6020604051808303816000875af1925050508015614e7b57506040513d601f19601f82011682018060405250810190614e789190616fc9565b60015b614f2057614e87617003565b806308c379a003614ee35750614e9b617025565b80614ea65750614ee5565b806040517f08c379a0000000000000000000000000000000000000000000000000000000008152600401614eda919061523b565b60405180910390fd5b505b6040517f08c379a0000000000000000000000000000000000000000000000000000000008152600401614f1790617127565b60405180910390fd5b63f23a6e6160e01b7bffffffffffffffffffffffffffffffffffffffffffffffffffffffff1916817bffffffffffffffffffffffffffffffffffffffffffffffffffffffff191614614fa7576040517f08c379a0000000000000000000000000000000000000000000000000000000008152600401614f9e906171b9565b60405180910390fd5b505b505050505050565b6000604051905090565b600080fd5b600080fd5b600073ffffffffffffffffffffffffffffffffffffffff82169050919050565b6000614ff082614fc5565b9050919050565b61500081614fe5565b811461500b57600080fd5b50565b60008135905061501d81614ff7565b92915050565b6000819050919050565b61503681615023565b811461504157600080fd5b50565b6000813590506150538161502d565b92915050565b600080604083850312156150705761506f614fbb565b5b600061507e8582860161500e565b925050602061508f85828601615044565b9150509250929050565b6150a281615023565b82525050565b60006020820190506150bd6000830184615099565b92915050565b60007fffffffff0000000000000000000000000000000000000000000000000000000082169050919050565b6150f8816150c3565b811461510357600080fd5b50565b600081359050615115816150ef565b92915050565b60006020828403121561513157615130614fbb565b5b600061513f84828501615106565b91505092915050565b60008115159050919050565b61515d81615148565b82525050565b60006020820190506151786000830184615154565b92915050565b60006020828403121561519457615193614fbb565b5b60006151a284828501615044565b91505092915050565b600081519050919050565b600082825260208201905092915050565b60005b838110156151e55780820151818401526020810190506151ca565b60008484015250505050565b6000601f19601f8301169050919050565b600061520d826151ab565b61521781856151b6565b93506152278185602086016151c7565b615230816151f1565b840191505092915050565b600060208201905081810360008301526152558184615202565b905092915050565b600081519050919050565b600082825260208201905092915050565b6000819050602082019050919050565b61529281615023565b82525050565b60006152a48383615289565b60208301905092915050565b6000602082019050919050565b60006152c88261525d565b6152d28185615268565b93506152dd83615279565b8060005b8381101561530e5781516152f58882615298565b9750615300836152b0565b9250506001810190506152e1565b5085935050505092915050565b6000602082019050818103600083015261533581846152bd565b905092915050565b600080fd5b7f4e487b7100000000000000000000000000000000000000000000000000000000600052604160045260246000fd5b61537a826151f1565b810181811067ffffffffffffffff8211171561539957615398615342565b5b80604052505050565b60006153ac614fb1565b90506153b88282615371565b919050565b600067ffffffffffffffff8211156153d8576153d7615342565b5b602082029050602081019050919050565b600080fd5b60006154016153fc846153bd565b6153a2565b90508083825260208201905060208402830185811115615424576154236153e9565b5b835b8181101561544d57806154398882615044565b845260208401935050602081019050615426565b5050509392505050565b600082601f83011261546c5761546b61533d565b5b813561547c8482602086016153ee565b91505092915050565b600080fd5b600067ffffffffffffffff8211156154a5576154a4615342565b5b6154ae826151f1565b9050602081019050919050565b82818337600083830152505050565b60006154dd6154d88461548a565b6153a2565b9050828152602081018484840111156154f9576154f8615485565b5b6155048482856154bb565b509392505050565b600082601f8301126155215761552061533d565b5b81356155318482602086016154ca565b91505092915050565b600080600080600060a0868803121561555657615555614fbb565b5b60006155648882890161500e565b95505060206155758882890161500e565b945050604086013567ffffffffffffffff81111561559657615595614fc0565b5b6155a288828901615457565b935050606086013567ffffffffffffffff8111156155c3576155c2614fc0565b5b6155cf88828901615457565b925050608086013567ffffffffffffffff8111156155f0576155ef614fc0565b5b6155fc8882890161550c565b9150509295509295909350565b600060ff82169050919050565b61561f81615609565b811461562a57600080fd5b50565b60008135905061563c81615616565b92915050565b600067ffffffffffffffff82111561565d5761565c615342565b5b602082029050602081019050919050565b600061568161567c84615642565b6153a2565b905080838252602082019050602084028301858111156156a4576156a36153e9565b5b835b818110156156cd57806156b9888261500e565b8452602084019350506020810190506156a6565b5050509392505050565b600082601f8301126156ec576156eb61533d565b5b81356156fc84826020860161566e565b91505092915050565b6000806000806080858703121561571f5761571e614fbb565b5b600061572d87828801615044565b945050602061573e8782880161562d565b935050604085013567ffffffffffffffff81111561575f5761575e614fc0565b5b61576b87828801615457565b925050606085013567ffffffffffffffff81111561578c5761578b614fc0565b5b615798878288016156d7565b91505092959194509250565b600080604083850312156157bb576157ba614fbb565b5b600083013567ffffffffffffffff8111156157d9576157d8614fc0565b5b6157e5858286016156d7565b925050602083013567ffffffffffffffff81111561580657615805614fc0565b5b61581285828601615457565b9150509250929050565b600081519050919050565b600082825260208201905092915050565b6000819050602082019050919050565b61585181614fe5565b82525050565b60006158638383615848565b60208301905092915050565b6000602082019050919050565b60006158878261581c565b6158918185615827565b935061589c83615838565b8060005b838110156158cd5781516158b48882615857565b97506158bf8361586f565b9250506001810190506158a0565b5085935050505092915050565b600060208201905081810360008301526158f4818461587c565b905092915050565b61590581614fe5565b82525050565b600060208201905061592060008301846158fc565b92915050565b61592f81615148565b811461593a57600080fd5b50565b60008135905061594c81615926565b92915050565b6000806040838503121561596957615968614fbb565b5b60006159778582860161500e565b92505060206159888582860161593d565b9150509250929050565b600067ffffffffffffffff8211156159ad576159ac615342565b5b602082029050602081019050919050565b600067ffffffffffffffff8211156159d9576159d8615342565b5b6159e2826151f1565b9050602081019050919050565b6000615a026159fd846159be565b6153a2565b905082815260208101848484011115615a1e57615a1d615485565b5b615a298482856154bb565b509392505050565b600082601f830112615a4657615a4561533d565b5b8135615a568482602086016159ef565b91505092915050565b6000615a72615a6d84615992565b6153a2565b90508083825260208201905060208402830185811115615a9557615a946153e9565b5b835b81811015615adc57803567ffffffffffffffff811115615aba57615ab961533d565b5b808601615ac78982615a31565b85526020850194505050602081019050615a97565b5050509392505050565b600082601f830112615afb57615afa61533d565b5b8135615b0b848260208601615a5f565b91505092915050565b60008060008060008060008060006101208a8c031215615b3757615b36614fbb565b5b6000615b458c828d01615044565b9950506020615b568c828d01615044565b9850506040615b678c828d01615044565b9750506060615b788c828d01615044565b9650506080615b898c828d0161562d565b95505060a0615b9a8c828d0161562d565b94505060c0615bab8c828d0161500e565b93505060e0615bbc8c828d0161500e565b9250506101008a013567ffffffffffffffff811115615bde57615bdd614fc0565b5b615bea8c828d01615ae6565b9150509295985092959850929598565b60008060408385031215615c1157615c10614fbb565b5b6000615c1f8582860161500e565b9250506020615c308582860161500e565b9150509250929050565b600080600080600060a08688031215615c5657615c55614fbb565b5b6000615c648882890161500e565b9550506020615c758882890161500e565b9450506040615c8688828901615044565b9350506060615c9788828901615044565b925050608086013567ffffffffffffffff811115615cb857615cb7614fc0565b5b615cc48882890161550c565b9150509295509295909350565b600060208284031215615ce757615ce6614fbb565b5b6000615cf58482850161500e565b91505092915050565b615d0781615609565b82525050565b6000608082019050615d226000830187615099565b615d2f6020830186615cfe565b615d3c6040830185615cfe565b615d496060830184615cfe565b95945050505050565b7f455243313135353a2061646472657373207a65726f206973206e6f742061207660008201527f616c6964206f776e657200000000000000000000000000000000000000000000602082015250565b6000615dae602a836151b6565b9150615db982615d52565b604082019050919050565b60006020820190508181036000830152615ddd81615da1565b9050919050565b7f4e487b7100000000000000000000000000000000000000000000000000000000600052602260045260246000fd5b60006002820490506001821680615e2b57607f821691505b602082108103615e3e57615e3d615de4565b5b50919050565b7f455243313135353a2063616c6c6572206973206e6f7420746f6b656e206f776e60008201527f6572206f7220617070726f766564000000000000000000000000000000000000602082015250565b6000615ea0602e836151b6565b9150615eab82615e44565b604082019050919050565b60006020820190508181036000830152615ecf81615e93565b9050919050565b7f52454a5556453a2046757475726520736861726473206469737472696275746560008201527f6420616c72656164790000000000000000000000000000000000000000000000602082015250565b6000615f326029836151b6565b9150615f3d82615ed6565b604082019050919050565b60006020820190508181036000830152615f6181615f25565b9050919050565b7f52454a5556453a204675747572652070657263656e742063616e6e6f7420626560008201527f207a65726f000000000000000000000000000000000000000000000000000000602082015250565b6000615fc46025836151b6565b9150615fcf82615f68565b604082019050919050565b60006020820190508181036000830152615ff381615fb7565b9050919050565b7f4e487b7100000000000000000000000000000000000000000000000000000000600052601160045260246000fd5b600061603482615609565b915061603f83615609565b9250828201905060ff81111561605857616057615ffa565b5b92915050565b600061606982615609565b915061607483615609565b9250828203905060ff81111561608d5761608c615ffa565b5b92915050565b7f52454a5556453a204675747572652070657263656e742065786365656473206160008201527f7661696c61626c65206c696d6974000000000000000000000000000000000000602082015250565b60006160ef602e836151b6565b91506160fa82616093565b604082019050919050565b6000602082019050818103600083015261611e816160e2565b9050919050565b7f52454a5556453a204e6f7420657175616c206c656e6774680000000000000000600082015250565b600061615b6018836151b6565b915061616682616125565b602082019050919050565b6000602082019050818103600083015261618a8161614e565b9050919050565b7f455243313135353a206163636f756e747320616e6420696473206c656e67746860008201527f206d69736d617463680000000000000000000000000000000000000000000000602082015250565b60006161ed6029836151b6565b91506161f882616191565b604082019050919050565b6000602082019050818103600083015261621c816161e0565b9050919050565b7f4e487b7100000000000000000000000000000000000000000000000000000000600052603260045260246000fd5b600061625d82615023565b91507fffffffffffffffffffffffffffffffffffffffffffffffffffffffffffffffff820361628f5761628e615ffa565b5b600182019050919050565b7f52454a5556453a20496e697469616c207368617264732064697374726962757460008201527f656420616c726561647900000000000000000000000000000000000000000000602082015250565b60006162f6602a836151b6565b91506163018261629a565b604082019050919050565b60006020820190508181036000830152616325816162e9565b9050919050565b7f52454a5556453a2043616e6e6f742073616c6520353025206f6620736861726460008201527f73206265666f7265206c6f636b696e6720706572696f64000000000000000000602082015250565b60006163886037836151b6565b91506163938261632c565b604082019050919050565b600060208201905081810360008301526163b78161637b565b9050919050565b7f4f776e61626c653a206e6577206f776e657220697320746865207a65726f206160008201527f6464726573730000000000000000000000000000000000000000000000000000602082015250565b600061641a6026836151b6565b9150616425826163be565b604082019050919050565b600060208201905081810360008301526164498161640d565b9050919050565b7f455243313135353a2069647320616e6420616d6f756e7473206c656e6774682060008201527f6d69736d61746368000000000000000000000000000000000000000000000000602082015250565b60006164ac6028836151b6565b91506164b782616450565b604082019050919050565b600060208201905081810360008301526164db8161649f565b9050919050565b7f455243313135353a207472616e7366657220746f20746865207a65726f20616460008201527f6472657373000000000000000000000000000000000000000000000000000000602082015250565b600061653e6025836151b6565b9150616549826164e2565b604082019050919050565b6000602082019050818103600083015261656d81616531565b9050919050565b7f455243313135353a20696e73756666696369656e742062616c616e636520666f60008201527f72207472616e7366657200000000000000000000000000000000000000000000602082015250565b60006165d0602a836151b6565b91506165db82616574565b604082019050919050565b600060208201905081810360008301526165ff816165c3565b9050919050565b600061661182615023565b915061661c83615023565b925082820190508082111561663457616633615ffa565b5b92915050565b6000604082019050818103600083015261665481856152bd565b9050818103602083015261666881846152bd565b90509392505050565b7f4f776e61626c653a2063616c6c6572206973206e6f7420746865206f776e6572600082015250565b60006166a76020836151b6565b91506166b282616671565b602082019050919050565b600060208201905081810360008301526166d68161669a565b9050919050565b7f5061757361626c653a2070617573656400000000000000000000000000000000600082015250565b60006167136010836151b6565b915061671e826166dd565b602082019050919050565b6000602082019050818103600083015261674281616706565b9050919050565b600081549050919050565b60008190508160005260206000209050919050565b60008160001c9050919050565b600073ffffffffffffffffffffffffffffffffffffffff82169050919050565b60006167a96167a483616769565b616776565b9050919050565b60006167bc8254616796565b9050919050565b6000600182019050919050565b60006167db82616749565b6167e58185615827565b93506167f083616754565b8060005b8381101561682857616805826167b0565b61680f8882615857565b975061681a836167c3565b9250506001810190506167f4565b5085935050505092915050565b600081549050919050565b60008190508160005260206000209050919050565b6000819050919050565b600061687261686d83616769565b616855565b9050919050565b6000616885825461685f565b9050919050565b6000600182019050919050565b60006168a482616835565b6168ae8185615268565b93506168b983616840565b8060005b838110156168f1576168ce82616879565b6168d88882615298565b97506168e38361688c565b9250506001810190506168bd565b5085935050505092915050565b60006060820190506169136000830186615099565b818103602083015261692581856167d0565b905081810360408301526169398184616899565b9050949350505050565b7f455243313135353a2073657474696e6720617070726f76616c2073746174757360008201527f20666f722073656c660000000000000000000000000000000000000000000000602082015250565b600061699f6029836151b6565b91506169aa82616943565b604082019050919050565b600060208201905081810360008301526169ce81616992565b9050919050565b7f52454a5556453a2054617267657420737570706c792063616e6e6f742062652060008201527f7a65726f00000000000000000000000000000000000000000000000000000000602082015250565b6000616a316024836151b6565b9150616a3c826169d5565b604082019050919050565b60006020820190508181036000830152616a6081616a24565b9050919050565b7f52454a5556453a204c6162206372656469742063616e6e6f74206265207a657260008201527f6f00000000000000000000000000000000000000000000000000000000000000602082015250565b6000616ac36021836151b6565b9150616ace82616a67565b604082019050919050565b60006020820190508181036000830152616af281616ab6565b9050919050565b7f52454a5556453a204c6f636b20706572696f642063616e6e6f74206265207a6560008201527f726f000000000000000000000000000000000000000000000000000000000000602082015250565b6000616b556022836151b6565b9150616b6082616af9565b604082019050919050565b60006020820190508181036000830152616b8481616b48565b9050919050565b7f52454a5556453a20496e697469616c2070657263656e742063616e6e6f74206260008201527f65207a65726f0000000000000000000000000000000000000000000000000000602082015250565b6000616be76026836151b6565b9150616bf282616b8b565b604082019050919050565b60006020820190508181036000830152616c1681616bda565b9050919050565b7f52454a5556453a2052656a7576652070657263656e742063616e6e6f7420626560008201527f207a65726f000000000000000000000000000000000000000000000000000000602082015250565b6000616c796025836151b6565b9150616c8482616c1d565b604082019050919050565b60006020820190508181036000830152616ca881616c6c565b9050919050565b7f52454a5556453a204c616220616464726573732063616e6e6f74206265207a6560008201527f726f000000000000000000000000000000000000000000000000000000000000602082015250565b6000616d0b6022836151b6565b9150616d1682616caf565b604082019050919050565b60006020820190508181036000830152616d3a81616cfe565b9050919050565b7f52454a5556453a2052656a75766520616464726573732063616e6e6f7420626560008201527f207a65726f000000000000000000000000000000000000000000000000000000602082015250565b6000616d9d6025836151b6565b9150616da882616d41565b604082019050919050565b60006020820190508181036000830152616dcc81616d90565b9050919050565b7f52454a5556453a2055524973206c656e6774682063616e6e6f74206265207a6560008201527f726f000000000000000000000000000000000000000000000000000000000000602082015250565b6000616e2f6022836151b6565b9150616e3a82616dd3565b604082019050919050565b60006020820190508181036000830152616e5e81616e22565b9050919050565b7f455243313135353a2063616c6c6572206973206e6f74206f776e6572206e6f7260008201527f20617070726f7665640000000000000000000000000000000000000000000000602082015250565b6000616ec16029836151b6565b9150616ecc82616e65565b604082019050919050565b60006020820190508181036000830152616ef081616eb4565b9050919050565b600081519050919050565b600082825260208201905092915050565b6000616f1e82616ef7565b616f288185616f02565b9350616f388185602086016151c7565b616f41816151f1565b840191505092915050565b600060a082019050616f6160008301886158fc565b616f6e60208301876158fc565b8181036040830152616f8081866152bd565b90508181036060830152616f9481856152bd565b90508181036080830152616fa88184616f13565b90509695505050505050565b600081519050616fc3816150ef565b92915050565b600060208284031215616fdf57616fde614fbb565b5b6000616fed84828501616fb4565b91505092915050565b60008160e01c9050919050565b600060033d11156170225760046000803e61701f600051616ff6565b90505b90565b600060443d106170b257617037614fb1565b60043d036004823e80513d602482011167ffffffffffffffff8211171561705f5750506170b2565b808201805167ffffffffffffffff81111561707d57505050506170b2565b80602083010160043d03850181111561709a5750505050506170b2565b6170a982602001850186615371565b82955050505050505b90565b7f455243313135353a207472616e7366657220746f206e6f6e2d4552433131353560008201527f526563656976657220696d706c656d656e746572000000000000000000000000602082015250565b60006171116034836151b6565b915061711c826170b5565b604082019050919050565b6000602082019050818103600083015261714081617104565b9050919050565b7f455243313135353a204552433131353552656365697665722072656a6563746560008201527f6420746f6b656e73000000000000000000000000000000000000000000000000602082015250565b60006171a36028836151b6565b91506171ae82617147565b604082019050919050565b600060208201905081810360008301526171d281617196565b9050919050565b7f5061757361626c653a206e6f7420706175736564000000000000000000000000600082015250565b600061720f6014836151b6565b915061721a826171d9565b602082019050919050565b6000602082019050818103600083015261723e81617202565b9050919050565b600061725082615023565b915061725b83615023565b925082820261726981615023565b915082820484148315176172805761727f615ffa565b5b5092915050565b7f4e487b7100000000000000000000000000000000000000000000000000000000600052601260045260246000fd5b60006172c182615023565b91506172cc83615023565b9250826172dc576172db617287565b5b828204905092915050565b60006172f282615023565b91506172fd83615023565b925082820390508181111561731557617314615ffa565b5b92915050565b7f455243313135353a206d696e7420746f20746865207a65726f2061646472657360008201527f7300000000000000000000000000000000000000000000000000000000000000602082015250565b60006173776021836151b6565b91506173828261731b565b604082019050919050565b600060208201905081810360008301526173a68161736a565b9050919050565b60008190508160005260206000209050919050565b60006020601f8301049050919050565b600082821b905092915050565b60006008830261740f7fffffffffffffffffffffffffffffffffffffffffffffffffffffffffffffffff826173d2565b61741986836173d2565b95508019841693508086168417925050509392505050565b6000819050919050565b600061745661745161744c84615023565b617431565b615023565b9050919050565b6000819050919050565b6174708361743b565b61748461747c8261745d565b8484546173df565b825550505050565b600090565b61749961748c565b6174a4818484617467565b505050565b5b818110156174c8576174bd600082617491565b6001810190506174aa565b5050565b601f82111561750d576174de816173ad565b6174e7846173c2565b810160208510156174f6578190505b61750a617502856173c2565b8301826174a9565b50505b505050565b600082821c905092915050565b600061753060001984600802617512565b1980831691505092915050565b6000617549838361751f565b9150826002028217905092915050565b617562826151ab565b67ffffffffffffffff81111561757b5761757a615342565b5b6175858254615e13565b6175908282856174cc565b600060209050601f8311600181146175c357600084156175b1578287015190505b6175bb858261753d565b865550617623565b601f1984166175d1866173ad565b60005b828110156175f9578489015182556001820191506020850194506020810190506175d4565b868310156176165784890151617612601f89168261751f565b8355505b6001600288020188555050505b505050505050565b600061763682615609565b915060ff820361764957617648615ffa565b5b600182019050919050565b600067ffffffffffffffff82111561766f5761766e615342565b5b602082029050602081019050919050565b600061769361768e8461548a565b6153a2565b9050828152602081018484840111156176af576176ae615485565b5b6176ba8482856151c7565b509392505050565b600082601f8301126176d7576176d661533d565b5b81516176e7848260208601617680565b91505092915050565b60006177036176fe84617654565b6153a2565b90508083825260208201905060208402830185811115617726576177256153e9565b5b835b8181101561776d57805167ffffffffffffffff81111561774b5761774a61533d565b5b80860161775889826176c2565b85526020850194505050602081019050617728565b5050509392505050565b600082601f83011261778c5761778b61533d565b5b815161779c8482602086016176f0565b91505092915050565b6000602082840312156177bb576177ba614fbb565b5b600082015167ffffffffffffffff8111156177d9576177d8614fc0565b5b6177e584828501617777565b91505092915050565b6000815190506177fd8161502d565b92915050565b60006020828403121561781957617818614fbb565b5b6000617827848285016177ee565b91505092915050565b6000602082019050818103600083015261784a8184616f13565b905092915050565b60008151905061786181614ff7565b92915050565b60006020828403121561787d5761787c614fbb565b5b600061788b84828501617852565b91505092915050565b600060408201905081810360008301526178ae8185616f13565b90506178bd6020830184615099565b9392505050565b60006040820190506178d96000830185615099565b6178e66020830184615099565b9392505050565b600060a08201905061790260008301886158fc565b61790f60208301876158fc565b61791c6040830186615099565b6179296060830185615099565b818103608083015261793b8184616f13565b9050969550505050505056fea2646970667358221220866df5276183c0af1991106f4833d8ad885f5bb8e6e5e6c4c0e8dcd3bad08b8c64736f6c63430008130033",
  "linkReferences": {},
  "deployedLinkReferences": {}
}