{
  "_format": "hh-sol-artifact-1",
  "contractName": "TransferShards",
  "sourceName": "contracts/TransferShards.sol",
  "abi": [
    {
      "inputs": [
        {
          "internalType": "string",
          "name": "uri",
          "type": "string"
        },
        {
          "internalType": "address",
          "name": "productNFT",
          "type": "address"
        }
      ],
      "stateMutability": "nonpayable",
      "type": "constructor"
    },
    {
      "anonymous": false,
      "inputs": [
        {
          "indexed": true,
          "internalType": "address",
          "name": "account",
          "type": "address"
        },
        {
          "indexed": true,
          "internalType": "address",
          "name": "operator",
          "type": "address"
        },
        {
          "indexed": false,
          "internalType": "bool",
          "name": "approved",
          "type": "bool"
        }
      ],
      "name": "ApprovalForAll",
      "type": "event"
    },
    {
      "anonymous": false,
      "inputs": [
        {
          "indexed": false,
          "internalType": "uint256",
          "name": "productUID",
          "type": "uint256"
        },
        {
          "indexed": false,
          "internalType": "address[]",
          "name": "dataOwners",
          "type": "address[]"
        },
        {
          "indexed": false,
          "internalType": "uint256[]",
          "name": "shardAmount",
          "type": "uint256[]"
        }
      ],
      "name": "FutureShardDistributed",
      "type": "event"
    },
    {
      "anonymous": false,
      "inputs": [
        {
          "indexed": false,
          "internalType": "uint256",
          "name": "productUID",
          "type": "uint256"
        },
        {
          "indexed": false,
          "internalType": "address[]",
          "name": "dataOwners",
          "type": "address[]"
        },
        {
          "indexed": false,
          "internalType": "uint256[]",
          "name": "shardAmount",
          "type": "uint256[]"
        }
      ],
      "name": "InitialShardDistributed",
      "type": "event"
    },
    {
      "anonymous": false,
      "inputs": [
        {
          "indexed": true,
          "internalType": "address",
          "name": "previousOwner",
          "type": "address"
        },
        {
          "indexed": true,
          "internalType": "address",
          "name": "newOwner",
          "type": "address"
        }
      ],
      "name": "OwnershipTransferred",
      "type": "event"
    },
    {
      "anonymous": false,
      "inputs": [
        {
          "indexed": false,
          "internalType": "address",
          "name": "account",
          "type": "address"
        }
      ],
      "name": "Paused",
      "type": "event"
    },
    {
      "anonymous": false,
      "inputs": [
        {
          "indexed": false,
          "internalType": "uint256",
          "name": "productUID",
          "type": "uint256"
        },
        {
          "indexed": false,
          "internalType": "address",
          "name": "rejuve",
          "type": "address"
        },
        {
          "indexed": false,
          "internalType": "uint256",
          "name": "shardAmount",
          "type": "uint256"
        }
      ],
      "name": "RemainingShardAllocated",
      "type": "event"
    },
    {
      "anonymous": false,
      "inputs": [
        {
          "indexed": true,
          "internalType": "address",
          "name": "operator",
          "type": "address"
        },
        {
          "indexed": true,
          "internalType": "address",
          "name": "from",
          "type": "address"
        },
        {
          "indexed": true,
          "internalType": "address",
          "name": "to",
          "type": "address"
        },
        {
          "indexed": false,
          "internalType": "uint256[]",
          "name": "ids",
          "type": "uint256[]"
        },
        {
          "indexed": false,
          "internalType": "uint256[]",
          "name": "values",
          "type": "uint256[]"
        }
      ],
      "name": "TransferBatch",
      "type": "event"
    },
    {
      "anonymous": false,
      "inputs": [
        {
          "indexed": true,
          "internalType": "address",
          "name": "operator",
          "type": "address"
        },
        {
          "indexed": true,
          "internalType": "address",
          "name": "from",
          "type": "address"
        },
        {
          "indexed": true,
          "internalType": "address",
          "name": "to",
          "type": "address"
        },
        {
          "indexed": false,
          "internalType": "uint256",
          "name": "id",
          "type": "uint256"
        },
        {
          "indexed": false,
          "internalType": "uint256",
          "name": "value",
          "type": "uint256"
        }
      ],
      "name": "TransferSingle",
      "type": "event"
    },
    {
      "anonymous": false,
      "inputs": [
        {
          "indexed": false,
          "internalType": "string",
          "name": "value",
          "type": "string"
        },
        {
          "indexed": true,
          "internalType": "uint256",
          "name": "id",
          "type": "uint256"
        }
      ],
      "name": "URI",
      "type": "event"
    },
    {
      "anonymous": false,
      "inputs": [
        {
          "indexed": false,
          "internalType": "address",
          "name": "account",
          "type": "address"
        }
      ],
      "name": "Unpaused",
      "type": "event"
    },
    {
      "inputs": [
        {
          "internalType": "address",
          "name": "account",
          "type": "address"
        },
        {
          "internalType": "uint256",
          "name": "id",
          "type": "uint256"
        }
      ],
      "name": "balanceOf",
      "outputs": [
        {
          "internalType": "uint256",
          "name": "",
          "type": "uint256"
        }
      ],
      "stateMutability": "view",
      "type": "function"
    },
    {
      "inputs": [
        {
          "internalType": "address[]",
          "name": "accounts",
          "type": "address[]"
        },
        {
          "internalType": "uint256[]",
          "name": "ids",
          "type": "uint256[]"
        }
      ],
      "name": "balanceOfBatch",
      "outputs": [
        {
          "internalType": "uint256[]",
          "name": "",
          "type": "uint256[]"
        }
      ],
      "stateMutability": "view",
      "type": "function"
    },
    {
      "inputs": [
        {
          "internalType": "uint256",
          "name": "productUID",
          "type": "uint256"
        },
        {
          "internalType": "uint8",
          "name": "futurePercent",
          "type": "uint8"
        },
        {
          "internalType": "uint256[]",
          "name": "credits",
          "type": "uint256[]"
        },
        {
          "internalType": "address[]",
          "name": "futureContributors",
          "type": "address[]"
        }
      ],
      "name": "distributeFutureShards",
      "outputs": [],
      "stateMutability": "nonpayable",
      "type": "function"
    },
    {
      "inputs": [
        {
          "internalType": "uint256",
          "name": "productUID",
          "type": "uint256"
        },
        {
          "internalType": "uint256",
          "name": "targetSupply_",
          "type": "uint256"
        },
        {
          "internalType": "uint256",
          "name": "labCredit",
          "type": "uint256"
        },
        {
          "internalType": "uint256",
          "name": "lockPeriod",
          "type": "uint256"
        },
        {
          "internalType": "uint8",
          "name": "initialPercent",
          "type": "uint8"
        },
        {
          "internalType": "uint8",
          "name": "rejuvePercent",
          "type": "uint8"
        },
        {
          "internalType": "address",
          "name": "lab",
          "type": "address"
        },
        {
          "internalType": "address",
          "name": "rejuve",
          "type": "address"
        },
        {
          "internalType": "string[]",
          "name": "uris",
          "type": "string[]"
        }
      ],
      "name": "distributeInitialShards",
      "outputs": [],
      "stateMutability": "nonpayable",
      "type": "function"
    },
    {
      "inputs": [
        {
          "internalType": "uint256",
          "name": "productUID",
          "type": "uint256"
        }
      ],
      "name": "getProductIDs",
      "outputs": [
        {
          "internalType": "uint256[]",
          "name": "",
          "type": "uint256[]"
        }
      ],
      "stateMutability": "view",
      "type": "function"
    },
    {
      "inputs": [
        {
          "internalType": "uint256",
          "name": "productUID",
          "type": "uint256"
        }
      ],
      "name": "getShardsConfig",
      "outputs": [
        {
          "internalType": "uint256",
          "name": "",
          "type": "uint256"
        },
        {
          "internalType": "uint8",
          "name": "",
          "type": "uint8"
        },
        {
          "internalType": "uint8",
          "name": "",
          "type": "uint8"
        },
        {
          "internalType": "uint8",
          "name": "",
          "type": "uint8"
        }
      ],
      "stateMutability": "view",
      "type": "function"
    },
    {
      "inputs": [
        {
          "internalType": "address",
          "name": "account",
          "type": "address"
        },
        {
          "internalType": "address",
          "name": "operator",
          "type": "address"
        }
      ],
      "name": "isApprovedForAll",
      "outputs": [
        {
          "internalType": "bool",
          "name": "",
          "type": "bool"
        }
      ],
      "stateMutability": "view",
      "type": "function"
    },
    {
      "inputs": [],
      "name": "owner",
      "outputs": [
        {
          "internalType": "address",
          "name": "",
          "type": "address"
        }
      ],
      "stateMutability": "view",
      "type": "function"
    },
    {
      "inputs": [],
      "name": "pause",
      "outputs": [],
      "stateMutability": "nonpayable",
      "type": "function"
    },
    {
      "inputs": [],
      "name": "paused",
      "outputs": [
        {
          "internalType": "bool",
          "name": "",
          "type": "bool"
        }
      ],
      "stateMutability": "view",
      "type": "function"
    },
    {
      "inputs": [],
      "name": "renounceOwnership",
      "outputs": [],
      "stateMutability": "nonpayable",
      "type": "function"
    },
    {
      "inputs": [
        {
          "internalType": "address",
          "name": "from",
          "type": "address"
        },
        {
          "internalType": "address",
          "name": "to",
          "type": "address"
        },
        {
          "internalType": "uint256[]",
          "name": "ids",
          "type": "uint256[]"
        },
        {
          "internalType": "uint256[]",
          "name": "amounts",
          "type": "uint256[]"
        },
        {
          "internalType": "bytes",
          "name": "data",
          "type": "bytes"
        }
      ],
      "name": "safeBatchTransferFrom",
      "outputs": [],
      "stateMutability": "nonpayable",
      "type": "function"
    },
    {
      "inputs": [
        {
          "internalType": "address",
          "name": "from",
          "type": "address"
        },
        {
          "internalType": "address",
          "name": "to",
          "type": "address"
        },
        {
          "internalType": "uint256",
          "name": "id",
          "type": "uint256"
        },
        {
          "internalType": "uint256",
          "name": "amount",
          "type": "uint256"
        },
        {
          "internalType": "bytes",
          "name": "data",
          "type": "bytes"
        }
      ],
      "name": "safeTransferFrom",
      "outputs": [],
      "stateMutability": "nonpayable",
      "type": "function"
    },
    {
      "inputs": [
        {
          "internalType": "address",
          "name": "operator",
          "type": "address"
        },
        {
          "internalType": "bool",
          "name": "approved",
          "type": "bool"
        }
      ],
      "name": "setApprovalForAll",
      "outputs": [],
      "stateMutability": "nonpayable",
      "type": "function"
    },
    {
      "inputs": [
        {
          "internalType": "bytes4",
          "name": "interfaceId",
          "type": "bytes4"
        }
      ],
      "name": "supportsInterface",
      "outputs": [
        {
          "internalType": "bool",
          "name": "",
          "type": "bool"
        }
      ],
      "stateMutability": "view",
      "type": "function"
    },
    {
      "inputs": [
        {
          "internalType": "uint256",
          "name": "productUID",
          "type": "uint256"
        }
      ],
      "name": "targetSupply",
      "outputs": [
        {
          "internalType": "uint256",
          "name": "",
          "type": "uint256"
        }
      ],
      "stateMutability": "view",
      "type": "function"
    },
    {
      "inputs": [
        {
          "internalType": "uint256",
          "name": "productUID",
          "type": "uint256"
        }
      ],
      "name": "totalShardSupply",
      "outputs": [
        {
          "internalType": "uint256",
          "name": "",
          "type": "uint256"
        }
      ],
      "stateMutability": "view",
      "type": "function"
    },
    {
      "inputs": [
        {
          "internalType": "address",
          "name": "newOwner",
          "type": "address"
        }
      ],
      "name": "transferOwnership",
      "outputs": [],
      "stateMutability": "nonpayable",
      "type": "function"
    },
    {
      "inputs": [],
      "name": "unpause",
      "outputs": [],
      "stateMutability": "nonpayable",
      "type": "function"
    },
    {
      "inputs": [
        {
          "internalType": "uint256",
          "name": "id",
          "type": "uint256"
        }
      ],
      "name": "uri",
      "outputs": [
        {
          "internalType": "string",
          "name": "",
          "type": "string"
        }
      ],
      "stateMutability": "view",
      "type": "function"
    }
  ],
  "bytecode": "0x60806040523480156200001157600080fd5b506040516200715238038062007152833981810160405281019062000037919062000427565b81818181816200005c620000506200014560201b60201c565b6200014d60201b60201c565b60008060146101000a81548160ff02191690831515021790555062000087816200021160201b60201c565b50620000a4678e5410372587b53560c01b6200022660201b60201c565b620000c06797e22fe287306ce860c01b6200022660201b60201c565b80600460006101000a81548173ffffffffffffffffffffffffffffffffffffffff021916908373ffffffffffffffffffffffffffffffffffffffff16021790555050506200011f670e6eb32b63a03df360c01b6200022960201b60201c565b50506200013d670c51cbb88dd0989c60c01b6200022c60201b60201c565b5050620007bf565b600033905090565b60008060009054906101000a900473ffffffffffffffffffffffffffffffffffffffff169050816000806101000a81548173ffffffffffffffffffffffffffffffffffffffff021916908373ffffffffffffffffffffffffffffffffffffffff1602179055508173ffffffffffffffffffffffffffffffffffffffff168173ffffffffffffffffffffffffffffffffffffffff167f8be0079c531659141344cd1fd0a4f28419497f9722a3daafe3b4186f6b6457e060405160405180910390a35050565b8060039081620002229190620006d8565b5050565b50565b50565b50565b6000604051905090565b600080fd5b600080fd5b600080fd5b600080fd5b6000601f19601f8301169050919050565b7f4e487b7100000000000000000000000000000000000000000000000000000000600052604160045260246000fd5b62000298826200024d565b810181811067ffffffffffffffff82111715620002ba57620002b96200025e565b5b80604052505050565b6000620002cf6200022f565b9050620002dd82826200028d565b919050565b600067ffffffffffffffff8211156200030057620002ff6200025e565b5b6200030b826200024d565b9050602081019050919050565b60005b83811015620003385780820151818401526020810190506200031b565b60008484015250505050565b60006200035b6200035584620002e2565b620002c3565b9050828152602081018484840111156200037a576200037962000248565b5b6200038784828562000318565b509392505050565b600082601f830112620003a757620003a662000243565b5b8151620003b984826020860162000344565b91505092915050565b600073ffffffffffffffffffffffffffffffffffffffff82169050919050565b6000620003ef82620003c2565b9050919050565b6200040181620003e2565b81146200040d57600080fd5b50565b6000815190506200042181620003f6565b92915050565b6000806040838503121562000441576200044062000239565b5b600083015167ffffffffffffffff8111156200046257620004616200023e565b5b62000470858286016200038f565b9250506020620004838582860162000410565b9150509250929050565b600081519050919050565b7f4e487b7100000000000000000000000000000000000000000000000000000000600052602260045260246000fd5b60006002820490506001821680620004e057607f821691505b602082108103620004f657620004f562000498565b5b50919050565b60008190508160005260206000209050919050565b60006020601f8301049050919050565b600082821b905092915050565b600060088302620005607fffffffffffffffffffffffffffffffffffffffffffffffffffffffffffffffff8262000521565b6200056c868362000521565b95508019841693508086168417925050509392505050565b6000819050919050565b6000819050919050565b6000620005b9620005b3620005ad8462000584565b6200058e565b62000584565b9050919050565b6000819050919050565b620005d58362000598565b620005ed620005e482620005c0565b8484546200052e565b825550505050565b600090565b62000604620005f5565b62000611818484620005ca565b505050565b5b8181101562000639576200062d600082620005fa565b60018101905062000617565b5050565b601f82111562000688576200065281620004fc565b6200065d8462000511565b810160208510156200066d578190505b620006856200067c8562000511565b83018262000616565b50505b505050565b600082821c905092915050565b6000620006ad600019846008026200068d565b1980831691505092915050565b6000620006c883836200069a565b9150826002028217905092915050565b620006e3826200048d565b67ffffffffffffffff811115620006ff57620006fe6200025e565b5b6200070b8254620004c7565b620007188282856200063d565b600060209050601f8311600181146200075057600084156200073b578287015190505b620007478582620006ba565b865550620007b7565b601f1984166200076086620004fc565b60005b828110156200078a5784890151825560018201915060208501945060208101905062000763565b86831015620007aa5784890151620007a6601f8916826200069a565b8355505b6001600288020188555050505b505050505050565b61698380620007cf6000396000f3fe608060405234801561001057600080fd5b506004361061012b5760003560e01c80638456cb59116100ad578063d6e0dbda11610071578063d6e0dbda1461031a578063e985e9c51461034a578063f242432a1461037a578063f2fde38b14610396578063fac795c0146103b25761012b565b80638456cb591461028a5780638da5cb5b14610294578063936906f1146102b2578063a22cb465146102e2578063d429c758146102fe5761012b565b80634567db03116100f45780634567db03146101e65780634e1273f4146102025780634e57d942146102325780635c975abb14610262578063715018a6146102805761012b565b8062fdd58e1461013057806301ffc9a7146101605780630e89341c146101905780632eb2c2d6146101c05780633f4ba83a146101dc575b600080fd5b61014a6004803603810190610145919061447c565b6103e5565b60405161015791906144cb565b60405180910390f35b61017a6004803603810190610175919061453e565b6104ae565b6040516101879190614586565b60405180910390f35b6101aa60048036038101906101a591906145a1565b610590565b6040516101b7919061465e565b60405180910390f35b6101da60048036038101906101d5919061487d565b610671565b005b6101e4610712565b005b61020060048036038101906101fb9190614a48565b610788565b005b61021c60048036038101906102179190614ae7565b610836565b6040516102299190614c1d565b60405180910390f35b61024c600480360381019061024791906145a1565b61094f565b6040516102599190614c1d565b60405180910390f35b61026a6109f6565b6040516102779190614586565b60405180910390f35b610288610a0c565b005b610292610a20565b005b61029c610a96565b6040516102a99190614c4e565b60405180910390f35b6102cc60048036038101906102c791906145a1565b610abf565b6040516102d991906144cb565b60405180910390f35b6102fc60048036038101906102f79190614c95565b610b1b565b005b61031860048036038101906103139190614e57565b610b31565b005b610334600480360381019061032f91906145a1565b610be9565b60405161034191906144cb565b60405180910390f35b610364600480360381019061035f9190614f3d565b610c45565b6040516103719190614586565b60405180910390f35b610394600480360381019061038f9190614f7d565b610cd9565b005b6103b060048036038101906103ab9190615014565b610ed5565b005b6103cc60048036038101906103c791906145a1565b610f58565b6040516103dc9493929190615050565b60405180910390f35b60008073ffffffffffffffffffffffffffffffffffffffff168373ffffffffffffffffffffffffffffffffffffffff1603610455576040517f08c379a000000000000000000000000000000000000000000000000000000000815260040161044c90615107565b60405180910390fd5b6001600083815260200190815260200160002060008473ffffffffffffffffffffffffffffffffffffffff1673ffffffffffffffffffffffffffffffffffffffff16815260200190815260200160002054905092915050565b60007fd9b67a26000000000000000000000000000000000000000000000000000000007bffffffffffffffffffffffffffffffffffffffffffffffffffffffff1916827bffffffffffffffffffffffffffffffffffffffffffffffffffffffff1916148061057957507f0e89341c000000000000000000000000000000000000000000000000000000007bffffffffffffffffffffffffffffffffffffffffffffffffffffffff1916827bffffffffffffffffffffffffffffffffffffffffffffffffffffffff1916145b8061058957506105888261102c565b5b9050919050565b60606105a66792491d56385ecc7c60c01b611096565b6105ba67671c0c4d2fe650b160c01b611096565b6105ce67659d0174fa4f0bff60c01b611096565b600e600083815260200190815260200160002080546105ec90615156565b80601f016020809104026020016040519081016040528092919081815260200182805461061890615156565b80156106655780601f1061063a57610100808354040283529160200191610665565b820191906000526020600020905b81548152906001019060200180831161064857829003601f168201915b50505050509050919050565b610679611099565b73ffffffffffffffffffffffffffffffffffffffff168573ffffffffffffffffffffffffffffffffffffffff1614806106bf57506106be856106b9611099565b610c45565b5b6106fe576040517f08c379a00000000000000000000000000000000000000000000000000000000081526004016106f5906151f9565b60405180910390fd5b61070b85858585856110a1565b5050505050565b6107266703dcd63bcac3d6d960c01b6113c5565b61072e6113c8565b61074267734d8a883ac8e7bc60c01b6113c5565b6107566711a1f85a3fa257d760c01b6113c5565b61076a67b6548cd813109fdd60c01b6113c5565b61077e676e061b537a642aa660c01b6113c5565b610786611446565b565b61079c6777163ddb96db0fb060c01b6114a8565b6107a46113c8565b6107b8678c02df74edc9cb4060c01b6114a8565b6107cc674bd0ae3d30e743ca60c01b6114a8565b6107d46114ab565b6107e867888518877d6dc32d60c01b6114a8565b6107fc6721570f91a1ddb85860c01b6114a8565b61081067d66158b3e5e020e360c01b6114a8565b61082467bd95b5778a2bd55060c01b6114a8565b610830848484846114f5565b50505050565b6060815183511461087c576040517f08c379a00000000000000000000000000000000000000000000000000000000081526004016108739061528b565b60405180910390fd5b6000835167ffffffffffffffff81111561089957610898614685565b5b6040519080825280602002602001820160405280156108c75781602001602082028036833780820191505090505b50905060005b8451811015610944576109148582815181106108ec576108eb6152ab565b5b6020026020010151858381518110610907576109066152ab565b5b60200260200101516103e5565b828281518110610927576109266152ab565b5b6020026020010181815250508061093d90615309565b90506108cd565b508091505092915050565b6060610965674c29204f2887057860c01b611096565b610979678468081c1b1357ac60c01b611096565b61098d676e3ef9774a73e81360c01b611096565b600a60008381526020019081526020016000208054806020026020016040519081016040528092919081815260200182805480156109ea57602002820191906000526020600020905b8154815260200190600101908083116109d6575b50505050509050919050565b60008060149054906101000a900460ff16905090565b610a146113c8565b610a1e60006119ac565b565b610a3467605b663d358b335360c01b6113c5565b610a3c6113c8565b610a5067b24036a5e72c6b2760c01b6113c5565b610a6467cfe049d6afbeb16460c01b6113c5565b610a7867c782c36710d0f82560c01b6113c5565b610a8c67cda47d58326f32d960c01b6113c5565b610a94611a70565b565b60008060009054906101000a900473ffffffffffffffffffffffffffffffffffffffff16905090565b6000610ad567d03ce72e0e171e8460c01b611096565b610ae9679bf6fa4a2bfb7d8860c01b611096565b610afd67d369b1ae4aaf4d5c60c01b611096565b60096000838152602001908152602001600020600101549050919050565b610b2d610b26611099565b8383611ad3565b5050565b610b45671be144ebbf61276260c01b611096565b610b4d6113c8565b610b61671f51a46f850d1fcb60c01b611096565b610b7567179c09469441424d60c01b611096565b610b7d6114ab565b610b9167668b44a8be02e7d260c01b611096565b610ba567abc3f5eadc84f3d860c01b611096565b610bb9676f9e021a4bf51efb60c01b611096565b610bcd67319d86bc25e5766360c01b611096565b610bde898989898989898989611c3f565b505050505050505050565b6000610bff678329589373de574460c01b611096565b610c1367c04ccf8b496e238b60c01b611096565b610c2767c1ef19729354386e60c01b611096565b60096000838152602001908152602001600020600201549050919050565b6000600260008473ffffffffffffffffffffffffffffffffffffffff1673ffffffffffffffffffffffffffffffffffffffff16815260200190815260200160002060008373ffffffffffffffffffffffffffffffffffffffff1673ffffffffffffffffffffffffffffffffffffffff16815260200190815260200160002060009054906101000a900460ff16905092915050565b610ced6776088c9760b77b2a60c01b6113c5565b610d0167be38f22c0251520460c01b6113c5565b610d15675d7bc23e000ced9660c01b6113c5565b6040518060400160405280600681526020017f4c4f434b4544000000000000000000000000000000000000000000000000000081525080519060200120600d6000858152602001908152602001600020604051610d7291906153f4565b604051809103902003610e8557610d9367b9c32d53b08fa59260c01b6113c5565b610da767cd7ef6684239c05c60c01b6113c5565b610dbb67c8e58d8d9226155260c01b6113c5565b610dcf67f0f70e36b2aa535160c01b6113c5565b600b6000600c6000868152602001908152602001600020548152602001908152602001600020544211610e37576040517f08c379a0000000000000000000000000000000000000000000000000000000008152600401610e2e9061547d565b60405180910390fd5b610e4b679a1f8e8463d552cf60c01b6113c5565b610e5f6739cf575ee59d915360c01b6113c5565b610e73673741768c5277189d60c01b6113c5565b610e808585858585611e0d565b610ece565b610e99679e37fb71653580bf60c01b6113c5565b610eac6694ff07b9254ab160c01b6113c5565b610ec067f88b04d2ba5382aa60c01b6113c5565b610ecd8585858585611e0d565b5b5050505050565b610edd6113c8565b600073ffffffffffffffffffffffffffffffffffffffff168173ffffffffffffffffffffffffffffffffffffffff1603610f4c576040517f08c379a0000000000000000000000000000000000000000000000000000000008152600401610f439061550f565b60405180910390fd5b610f55816119ac565b50565b600080600080610f726795d810699789d02660c01b611096565b610f866713c89eb54e90a7fa60c01b611096565b610f9a670538d94f7b882e3e60c01b611096565b60096000868152602001908152602001600020600301546009600087815260200190815260200160002060040160009054906101000a900460ff166009600088815260200190815260200160002060040160029054906101000a900460ff166009600089815260200190815260200160002060040160019054906101000a900460ff1693509350935093509193509193565b60007f01ffc9a7000000000000000000000000000000000000000000000000000000007bffffffffffffffffffffffffffffffffffffffffffffffffffffffff1916827bffffffffffffffffffffffffffffffffffffffffffffffffffffffff1916149050919050565b50565b600033905090565b81518351146110e5576040517f08c379a00000000000000000000000000000000000000000000000000000000081526004016110dc906155a1565b60405180910390fd5b600073ffffffffffffffffffffffffffffffffffffffff168473ffffffffffffffffffffffffffffffffffffffff1603611154576040517f08c379a000000000000000000000000000000000000000000000000000000000815260040161114b90615633565b60405180910390fd5b600061115e611099565b905061116e818787878787611fa2565b60005b845181101561132257600085828151811061118f5761118e6152ab565b5b6020026020010151905060008583815181106111ae576111ad6152ab565b5b6020026020010151905060006001600084815260200190815260200160002060008b73ffffffffffffffffffffffffffffffffffffffff1673ffffffffffffffffffffffffffffffffffffffff16815260200190815260200160002054905081811015611250576040517f08c379a0000000000000000000000000000000000000000000000000000000008152600401611247906156c5565b60405180910390fd5b8181036001600085815260200190815260200160002060008c73ffffffffffffffffffffffffffffffffffffffff1673ffffffffffffffffffffffffffffffffffffffff16815260200190815260200160002081905550816001600085815260200190815260200160002060008b73ffffffffffffffffffffffffffffffffffffffff1673ffffffffffffffffffffffffffffffffffffffff168152602001908152602001600020600082825461130791906156e5565b925050819055505050508061131b90615309565b9050611171565b508473ffffffffffffffffffffffffffffffffffffffff168673ffffffffffffffffffffffffffffffffffffffff168273ffffffffffffffffffffffffffffffffffffffff167f4a39dc06d4c0dbc64b70af90fd698a233a518aa5d07e595d983b8c0526c8f7fb8787604051611399929190615719565b60405180910390a46113af818787878787611faa565b6113bd818787878787611fb2565b505050505050565b50565b6113d0611099565b73ffffffffffffffffffffffffffffffffffffffff166113ee610a96565b73ffffffffffffffffffffffffffffffffffffffff1614611444576040517f08c379a000000000000000000000000000000000000000000000000000000000815260040161143b9061579c565b60405180910390fd5b565b61144e612189565b60008060146101000a81548160ff0219169083151502179055507f5db9ee0a495bf2e6ff9c91a7834c1ba4fdd244a5e8aa4e537bd38aeae4b073aa611491611099565b60405161149e9190614c4e565b60405180910390a1565b50565b6114b36109f6565b156114f3576040517f08c379a00000000000000000000000000000000000000000000000000000000081526004016114ea90615808565b60405180910390fd5b565b611509677a1c716cd3b9cef160c01b6114a8565b61151d6711921b58f580e26e60c01b6114a8565b61153167dac7cdab4a8d133e60c01b6114a8565b6115456762b01d14b3fe498b60c01b6114a8565b8151815114611589576040517f08c379a000000000000000000000000000000000000000000000000000000000815260040161158090615874565b60405180910390fd5b61159d677c5b2bceb7e2acfb60c01b6114a8565b6115b167533bf9c37d0b988a60c01b6114a8565b6115c567652cd17eb7a0202a60c01b6114a8565b6115d96790c152e4b92fc7aa60c01b6114a8565b60008360ff160361161f576040517f08c379a000000000000000000000000000000000000000000000000000000000815260040161161690615906565b60405180910390fd5b6116336781586f0a898de0f960c01b6114a8565b61164767a6a0ecddc878f43f60c01b6114a8565b61165b67ebb2c6301f3574f560c01b6114a8565b6000600960008681526020019081526020016000209050611686670eaeb8e1594b741a60c01b6114a8565b838160040160026101000a81548160ff021916908360ff1602179055506116b767c8c135c23763939460c01b6114a8565b6116cb6787939176ec5c68ce60c01b6114a8565b60006116d6846121d2565b90506116ec67ca904eb40a8a5e8160c01b6114a8565b61170067d272ab39f7ebe03260c01b6114a8565b60005b8351811015611910576117206715bb95e89cc0740660c01b6114a8565b61173467960ce4cc78d094f560c01b6114a8565b600061176386838151811061174c5761174b6152ab565b5b6020026020010151848960ff1687600101546122c7565b9050611779676ba29e2eb5c1e03260c01b6114a8565b61178d67afc3d419495d802560c01b6114a8565b6000611798826123df565b90506117ae679a5ec14ad3f8ace860c01b6114a8565b6117c26746b810f4220f89e760c01b6114a8565b61187e8684815181106117d8576117d76152ab565b5b6020026020010151600a60008c815260200190815260200160002080548060200260200160405190810160405280929190818152602001828054801561183d57602002820191906000526020600020905b815481526020019060010190808311611829575b5050505050836040518060400160405280600481526020017f307830300000000000000000000000000000000000000000000000000000000081525061256e565b6118926720d6b1425ac26f6a60c01b6114a8565b8185600201546118a291906156e5565b85600201819055506118be67e8505f32451b4cc860c01b6114a8565b6118d2671d64548f02b1f43460c01b6114a8565b60108290806001815401808255809150506001900390600052602060002001600090919091909150555050808061190890615309565b915050611703565b50611925677c171f77e704781860c01b6114a8565b61193967f0b6553bda0cc9d160c01b6114a8565b7f621e1a59d70685f53a28114e1229586ecd6908416f6bfaee0e147c3d34f398458684601060405161196d93929190615aba565b60405180910390a161198967aab39f32f9f049ab60c01b6114a8565b6001600f60006101000a81548160ff021916908315150217905550505050505050565b60008060009054906101000a900473ffffffffffffffffffffffffffffffffffffffff169050816000806101000a81548173ffffffffffffffffffffffffffffffffffffffff021916908373ffffffffffffffffffffffffffffffffffffffff1602179055508173ffffffffffffffffffffffffffffffffffffffff168173ffffffffffffffffffffffffffffffffffffffff167f8be0079c531659141344cd1fd0a4f28419497f9722a3daafe3b4186f6b6457e060405160405180910390a35050565b611a786114ab565b6001600060146101000a81548160ff0219169083151502179055507f62e78cea01bee320cd4e420270b5ea74000d11b0c9f74754ebdbfc544b05a258611abc611099565b604051611ac99190614c4e565b60405180910390a1565b8173ffffffffffffffffffffffffffffffffffffffff168373ffffffffffffffffffffffffffffffffffffffff1603611b41576040517f08c379a0000000000000000000000000000000000000000000000000000000008152600401611b3890615b71565b60405180910390fd5b80600260008573ffffffffffffffffffffffffffffffffffffffff1673ffffffffffffffffffffffffffffffffffffffff16815260200190815260200160002060008473ffffffffffffffffffffffffffffffffffffffff1673ffffffffffffffffffffffffffffffffffffffff16815260200190815260200160002060006101000a81548160ff0219169083151502179055508173ffffffffffffffffffffffffffffffffffffffff168373ffffffffffffffffffffffffffffffffffffffff167f17307eab39ab6107e8899845ad3d59bd9653f200f220920489ca2b5937696c3183604051611c329190614586565b60405180910390a3505050565b611c53674027c85802a7ec6f60c01b611096565b611c67673292f22b29e3e13960c01b611096565b611c7b672e395931805b912360c01b611096565b611c85898761279b565b611c9967584a79cf25f6ffa160c01b611096565b611cad6749fd754833b329c860c01b611096565b611ccd8989600b60008d8152602001908152602001600020548888612894565b611ce167ef9e355a2508b68b60c01b611096565b611cf56774921bc0b184a2ab60c01b611096565b611cff8982612ad1565b611d136733dcf64edbe3045860c01b611096565b611d2767b1fd9cdd613809dc60c01b611096565b611d3789898760ff168a87612e6c565b611d4b672fddcd765c8c3ad960c01b611096565b611d5f6798163f36f092930e60c01b611096565b611d6e8989848760ff166135ed565b611d82678fe8f4d30402328560c01b611096565b611d9667b21755b43570590b60c01b611096565b7fb79a1263d65160537b9075e0e4747a6007a82fb191be4435b4c508c431920b898960066007604051611dcb93929190615c70565b60405180910390a1611de7677f4706c2f467027060c01b611096565b6001600860006101000a81548160ff021916908315150217905550505050505050505050565b611e2167eb8cd1016619e63360c01b6113c5565b611e296114ab565b611e3d67075910b078780a4060c01b6113c5565b611e51670e57f831d7ce68ee60c01b6113c5565b611e65678c258ac9f7ba5b5660c01b6113c5565b611e7967b81c7816f8fb090f60c01b6113c5565b611e8d67db69701ee873e22960c01b6113c5565b611e95611099565b73ffffffffffffffffffffffffffffffffffffffff168573ffffffffffffffffffffffffffffffffffffffff16148015611edf5750611ede67a6fe153decb6eec960c01b6138c4565b5b80611f135750611ef685611ef1611099565b610c45565b8015611f125750611f1167a5827ffb8896776760c01b6138c4565b5b5b611f52576040517f08c379a0000000000000000000000000000000000000000000000000000000008152600401611f4990615d27565b60405180910390fd5b611f6667a48178795f1708b660c01b6113c5565b611f7a67663fd50bfa6d255560c01b6113c5565b611f8e6710148d7c2d47b1e460c01b6113c5565b611f9b85858585856138cf565b5050505050565b505050505050565b505050505050565b611fd18473ffffffffffffffffffffffffffffffffffffffff16613b6d565b15612181578373ffffffffffffffffffffffffffffffffffffffff1663bc197c8187878686866040518663ffffffff1660e01b8152600401612017959493929190615d9c565b6020604051808303816000875af192505050801561205357506040513d601f19601f820116820180604052508101906120509190615e19565b60015b6120f85761205f615e53565b806308c379a0036120bb5750612073615e75565b8061207e57506120bd565b806040517f08c379a00000000000000000000000000000000000000000000000000000000081526004016120b2919061465e565b60405180910390fd5b505b6040517f08c379a00000000000000000000000000000000000000000000000000000000081526004016120ef90615f77565b60405180910390fd5b63bc197c8160e01b7bffffffffffffffffffffffffffffffffffffffffffffffffffffffff1916817bffffffffffffffffffffffffffffffffffffffffffffffffffffffff19161461217f576040517f08c379a000000000000000000000000000000000000000000000000000000000815260040161217690616009565b60405180910390fd5b505b505050505050565b6121916109f6565b6121d0576040517f08c379a00000000000000000000000000000000000000000000000000000000081526004016121c790616075565b60405180910390fd5b565b60006121e867887dde395f1d522e60c01b6114a8565b6121fc674caa06e818c245c160c01b6114a8565b61221067ed549561336349ec60c01b6114a8565b6000612226671296c055a742b59860c01b6114a8565b61223a67cbd325f4ff70088460c01b6114a8565b60005b83518110156122955761225a67b3e48c32bad79f0260c01b6114a8565b83818151811061226d5761226c6152ab565b5b60200260200101518261228091906156e5565b9150808061228d90615309565b91505061223d565b506122aa67aa564919c913c37660c01b6114a8565b6122be674cd240c926a7be1560c01b6114a8565b80915050919050565b60006122dd67cdbe933b2af6fb5960c01b611096565b6122f16755bc71e6e7ae880b60c01b611096565b6123056723a1143aabdc8dbf60c01b611096565b6000848660646123159190616095565b61231f9190616106565b9050612335671c4fadc21c9a16a260c01b611096565b61234967cab08564ce9e7e9a60c01b611096565b6000606485856123599190616095565b6123639190616106565b9050612379672886f1eb74b2daa260c01b611096565b61238d6707c35272e207b50160c01b611096565b60006064838361239d9190616095565b6123a79190616106565b90506123bd674a0d05ec507fb2d260c01b611096565b6123d167984913895d1ff70f60c01b611096565b809350505050949350505050565b60606123f56722604be50b9f041660c01b611096565b61240967a6f1c1f3f7bd99ce60c01b611096565b61241d67cda8f5d3e2f487d460c01b611096565b6000600267ffffffffffffffff81111561243a57612439614685565b5b6040519080825280602002602001820160405280156124685781602001602082028036833780820191505090505b50905061247f67aebe2a23261a44c960c01b611096565b61249367ce7e659afee2fd0960c01b611096565b600060646032856124a49190616095565b6124ae9190616106565b90506124c467fbc6b03b75f5137360c01b611096565b80826000815181106124d9576124d86152ab565b5b6020026020010181815250506124f967c9a103043bcc7b8360c01b611096565b80846125059190616137565b935061251b671b6a37f959dc428460c01b611096565b83826001815181106125305761252f6152ab565b5b602002602001018181525050612550679a0b07648b2b751060c01b611096565b6125646791ebf62c0998828060c01b611096565b8192505050919050565b600073ffffffffffffffffffffffffffffffffffffffff168473ffffffffffffffffffffffffffffffffffffffff16036125dd576040517f08c379a00000000000000000000000000000000000000000000000000000000081526004016125d4906161dd565b60405180910390fd5b8151835114612621576040517f08c379a0000000000000000000000000000000000000000000000000000000008152600401612618906155a1565b60405180910390fd5b600061262b611099565b905061263c81600087878787611fa2565b60005b84518110156126f65783818151811061265b5761265a6152ab565b5b60200260200101516001600087848151811061267a576126796152ab565b5b6020026020010151815260200190815260200160002060008873ffffffffffffffffffffffffffffffffffffffff1673ffffffffffffffffffffffffffffffffffffffff16815260200190815260200160002060008282546126dc91906156e5565b9250508190555080806126ee90615309565b91505061263f565b508473ffffffffffffffffffffffffffffffffffffffff16600073ffffffffffffffffffffffffffffffffffffffff168273ffffffffffffffffffffffffffffffffffffffff167f4a39dc06d4c0dbc64b70af90fd698a233a518aa5d07e595d983b8c0526c8f7fb878760405161276e929190615719565b60405180910390a461278581600087878787611faa565b61279481600087878787611fb2565b5050505050565b6127af677a03b4ce36669adc60c01b611096565b6127c36792aa9b72430d24e360c01b611096565b6127d767f9ccfcc82c13a16360c01b611096565b6127eb67a3673a6118727ba760c01b611096565b6000810361282e576040517f08c379a00000000000000000000000000000000000000000000000000000000081526004016128259061626f565b60405180910390fd5b61284267ed6acc35e994de7260c01b611096565b61285667841cbd88491e871360c01b611096565b428161286291906156e5565b905061287867dce291d7e010780b60c01b611096565b80600b6000848152602001908152602001600020819055505050565b6128a8670bb7a6e407efc47660c01b611096565b6128bc6757aa5249488aa45960c01b611096565b6128d0674c743fd509e13ca260c01b611096565b6128e4671cd8bc8308ca09a860c01b611096565b60008403612927576040517f08c379a000000000000000000000000000000000000000000000000000000000815260040161291e90616301565b60405180910390fd5b61293b67e1d00c6ecef3e63660c01b611096565b61294f6717d03e45f5f4711a60c01b611096565b612963670ca5aa0b5928e3a760c01b611096565b61297767af293111d99b85f060c01b611096565b60008260ff16036129bd576040517f08c379a00000000000000000000000000000000000000000000000000000000081526004016129b490616393565b60405180910390fd5b6129d167737010027b8cc44960c01b611096565b6129e5674ce0dec13bc3579160c01b611096565b6129f967a280eebeed42d79c60c01b611096565b6000600960008781526020019081526020016000209050612a2467b89870c028d633d260c01b611096565b858160000181905550612a4167efc7430a0cf44b0d60c01b611096565b848160010181905550612a5e672618d4ee2346949b60c01b611096565b838160030181905550612a7b67c7b765deef0d18fe60c01b611096565b828160040160006101000a81548160ff021916908360ff160217905550612aac679811dc976b1c36f160c01b611096565b818160040160016101000a81548160ff021916908360ff160217905550505050505050565b612ae567ab8aed532df2d76b60c01b611096565b612af967bba17983cdabd13360c01b611096565b612b0d67e7524e6bb510413060c01b611096565b6000600267ffffffffffffffff811115612b2a57612b29614685565b5b604051908082528060200260200182016040528015612b5d57816020015b6060815260200190600190039081612b485790505b509050612b746717ecefd70aa16eab60c01b611096565b6040518060400160405280600681526020017f4c4f434b4544000000000000000000000000000000000000000000000000000081525081600081518110612bbe57612bbd6152ab565b5b6020026020010181905250612bdd67bafb3e51f464f8c660c01b611096565b6040518060400160405280600681526020017f545241444544000000000000000000000000000000000000000000000000000081525081600181518110612c2757612c266152ab565b5b6020026020010181905250612c4667dc33db0eb21ed9a060c01b611096565b612c5a67661787d79f638ca760c01b611096565b60005b81518160ff161015612e6657612c7d67f29e927760c91b4660c01b611096565b612c9167ee28653b3a46f48c60c01b611096565b6005828260ff1681518110612ca957612ca86152ab565b5b6020026020010151908060018154018082558091505060019003906000526020600020016000909190919091509081612ce2919061655f565b50612cf767f83095505e1071c960c01b611096565b612d0b67836d83570f0cd3a660c01b611096565b60006001600580549050612d1f9190616137565b9050612d3567be97bdc86a34d4c960c01b611096565b612d4866fa7258db33e83660c01b611096565b600a6000868152602001908152602001600020819080600181540180825580915050600190039060005260206000200160009091909190915055612d9667132444359128480360c01b611096565b828260ff1681518110612dac57612dab6152ab565b5b6020026020010151600d60008381526020019081526020016000209081612dd3919061655f565b50612de867815d296fbc8b093960c01b611096565b84600c600083815260200190815260200160002081905550612e14670a27e4cbcfee6d1b60c01b611096565b838260ff1681518110612e2a57612e296152ab565b5b6020026020010151600e60008381526020019081526020016000209081612e51919061655f565b50508080612e5e90616631565b915050612c5d565b50505050565b612e8067864422b3f98b08ae60c01b611096565b612e94677052205b98ca125960c01b611096565b612ea86786208709abf5bb9960c01b611096565b6000600460009054906101000a900473ffffffffffffffffffffffffffffffffffffffff1673ffffffffffffffffffffffffffffffffffffffff1663c9187fe7876040518263ffffffff1660e01b8152600401612f0591906144cb565b600060405180830381865afa158015612f22573d6000803e3d6000fd5b505050506040513d6000823e3d601f19601f82011682018060405250810190612f4b91906167ab565b9050612f61674a524ba9e578aed560c01b611096565b612f75675f8a21eb0406262860c01b611096565b6000612f8087613b90565b9050612f9667a889e1f5f41711fd60c01b611096565b612faa67e683444f23e6b69060c01b611096565b6000600960008981526020019081526020016000209050612fd567164ea45f6885c7da60c01b611096565b8482612fe191906156e5565b9150612ff767280eb10e9a4788dc60c01b611096565b61300b67b0f0eb068548dd0b60c01b611096565b60005b600460009054906101000a900473ffffffffffffffffffffffffffffffffffffffff1673ffffffffffffffffffffffffffffffffffffffff166384ffeca58a6040518263ffffffff1660e01b815260040161306991906144cb565b602060405180830381865afa158015613086573d6000803e3d6000fd5b505050506040513d601f19601f820116820180604052508101906130aa9190616809565b81101561349f576130c5674dcdc93d427b393b60c01b611096565b6130d967dc0d4903f60c679c60c01b611096565b6000600460009054906101000a900473ffffffffffffffffffffffffffffffffffffffff1673ffffffffffffffffffffffffffffffffffffffff166359a96ffe86848151811061312c5761312b6152ab565b5b60200260200101516040518263ffffffff1660e01b81526004016131509190616836565b602060405180830381865afa15801561316d573d6000803e3d6000fd5b505050506040513d601f19601f82011682018060405250810190613191919061686d565b90506131a767394c1c981265dfc360c01b611096565b6131bb67c92669fdf108cc6660c01b611096565b6000613280600460009054906101000a900473ffffffffffffffffffffffffffffffffffffffff1673ffffffffffffffffffffffffffffffffffffffff16630e47cefa888681518110613211576132106152ab565b5b60200260200101518e6040518363ffffffff1660e01b815260040161323792919061689a565b602060405180830381865afa158015613254573d6000803e3d6000fd5b505050506040513d601f19601f820116820180604052508101906132789190616809565b868b8d6122c7565b905061329667aa3daad0320177c160c01b611096565b6132aa670f7ec44c50154f7e60c01b611096565b60006132b5826123df565b90506132cb67374d4e255ee5e29860c01b611096565b6132df675ac26f54ed569cd260c01b611096565b61338183600a60008f815260200190815260200160002080548060200260200160405190810160405280929190818152602001828054801561334057602002820191906000526020600020905b81548152602001906001019080831161332c575b5050505050836040518060400160405280600481526020017f307830300000000000000000000000000000000000000000000000000000000081525061256e565b61339567c24312526bd0b5e960c01b611096565b8185600201546133a591906156e5565b85600201819055506133c167edd6d4270faa2cde60c01b611096565b6133d5676e37652b8ffc91d360c01b611096565b6006839080600181540180825580915050600190039060005260206000200160009091909190916101000a81548173ffffffffffffffffffffffffffffffffffffffff021916908373ffffffffffffffffffffffffffffffffffffffff16021790555061344c67e143cfc2d6d9cb4760c01b611096565b61346067a003bbf89cef951f60c01b611096565b6007829080600181540180825580915050600190039060005260206000200160009091909190915055505050808061349790615309565b91505061300e565b506134b467063692a633bfde5b60c01b611096565b6134c867c1c67836722281c260c01b611096565b60006134d8898688868b8d613e1e565b90506134ee67d9d2ecffbb1397cf60c01b611096565b8082600201546134fe91906156e5565b826002018190555061351a67ea653bc968bdc6d960c01b611096565b61352e674b4422bc7d0c22d960c01b611096565b6006859080600181540180825580915050600190039060005260206000200160009091909190916101000a81548173ffffffffffffffffffffffffffffffffffffffff021916908373ffffffffffffffffffffffffffffffffffffffff1602179055506135a567ed359cbd189201d560c01b611096565b6135b9675a24d7626b21999d60c01b611096565b6007819080600181540180825580915050600190039060005260206000200160009091909190915055505050505050505050565b61360167313ea1a32143e5a760c01b611096565b6136156715046cf8a2f961cc60c01b611096565b61362967b4a4140a349190b560c01b611096565b600060096000868152602001908152602001600020905061365467fc966f584759813a60c01b611096565b61366867a9f4de7961c386c360c01b611096565b6000606483866136789190616095565b6136829190616106565b90506136986747ce4a0ce045f63260c01b611096565b8082600201546136a891906156e5565b82600201819055506136c46706897d58a8ffa43160c01b611096565b6136d86788b7ad33a34493af60c01b611096565b60006136e3826123df565b90506136f9677d6c90c8c295f84260c01b611096565b61370d6782cc11fbdff9205960c01b611096565b60005b81518110156137de5761372d67ae9084963bc3455a60c01b611096565b61374167b9a5b29730f2e2b260c01b611096565b6137cb86600a60008b8152602001908152602001600020838154811061376a576137696152ab565b5b9060005260206000200154848481518110613788576137876152ab565b5b60200260200101516040518060400160405280600481526020017f3078303000000000000000000000000000000000000000000000000000000000815250613fd2565b80806137d690615309565b915050613710565b506137f3671fe0275ae3c5ecd960c01b611096565b613807678b282cad192c5fb360c01b611096565b6006859080600181540180825580915050600190039060005260206000200160009091909190916101000a81548173ffffffffffffffffffffffffffffffffffffffff021916908373ffffffffffffffffffffffffffffffffffffffff16021790555061387e678419153d5d05889460c01b611096565b613892670191dd807a806c5f60c01b611096565b600782908060018154018082558091505060019003906000526020600020016000909190919091505550505050505050565b600060019050919050565b600073ffffffffffffffffffffffffffffffffffffffff168473ffffffffffffffffffffffffffffffffffffffff160361393e576040517f08c379a000000000000000000000000000000000000000000000000000000000815260040161393590615633565b60405180910390fd5b6000613948611099565b9050600061395585614183565b9050600061396285614183565b9050613972838989858589611fa2565b60006001600088815260200190815260200160002060008a73ffffffffffffffffffffffffffffffffffffffff1673ffffffffffffffffffffffffffffffffffffffff16815260200190815260200160002054905085811015613a0a576040517f08c379a0000000000000000000000000000000000000000000000000000000008152600401613a01906156c5565b60405180910390fd5b8581036001600089815260200190815260200160002060008b73ffffffffffffffffffffffffffffffffffffffff1673ffffffffffffffffffffffffffffffffffffffff16815260200190815260200160002081905550856001600089815260200190815260200160002060008a73ffffffffffffffffffffffffffffffffffffffff1673ffffffffffffffffffffffffffffffffffffffff1681526020019081526020016000206000828254613ac191906156e5565b925050819055508773ffffffffffffffffffffffffffffffffffffffff168973ffffffffffffffffffffffffffffffffffffffff168573ffffffffffffffffffffffffffffffffffffffff167fc3d58168c5ae7397731d063d5bbf3d657854427343f4c083240f7aacaa2d0f628a8a604051613b3e9291906168ca565b60405180910390a4613b54848a8a86868a611faa565b613b62848a8a8a8a8a6141fd565b505050505050505050565b6000808273ffffffffffffffffffffffffffffffffffffffff163b119050919050565b6000613ba667c19ee0d0340bdf1960c01b611096565b613bba6755ef1202937c189860c01b611096565b613bce679b8635bababd7cd560c01b611096565b6000600460009054906101000a900473ffffffffffffffffffffffffffffffffffffffff1673ffffffffffffffffffffffffffffffffffffffff1663c9187fe7846040518263ffffffff1660e01b8152600401613c2b91906144cb565b600060405180830381865afa158015613c48573d6000803e3d6000fd5b505050506040513d6000823e3d601f19601f82011682018060405250810190613c7191906167ab565b9050613c87673713c0cb0f3a7a0960c01b611096565b613c9b6752b1ed2d46c8304c60c01b611096565b6000613cb1676e8fb6e8d40efa7360c01b611096565b613cc5670cd78e9f5a999f1660c01b611096565b60005b8251811015613deb57613ce56748fd522b50d7e93a60c01b611096565b613cf9679405af8bf489d1df60c01b611096565b6000600460009054906101000a900473ffffffffffffffffffffffffffffffffffffffff1673ffffffffffffffffffffffffffffffffffffffff16630e47cefa858481518110613d4c57613d4b6152ab565b5b6020026020010151886040518363ffffffff1660e01b8152600401613d7292919061689a565b602060405180830381865afa158015613d8f573d6000803e3d6000fd5b505050506040513d601f19601f82011682018060405250810190613db39190616809565b9050613dc967d50a6a82e38f0ae860c01b611096565b8083613dd591906156e5565b9250508080613de390615309565b915050613cc8565b50613e0067a849e5d0fec51c8b60c01b611096565b613e14679e6b8b233c65619060c01b611096565b8092505050919050565b6000613e3467ff432fe7bf83145f60c01b611096565b613e48671a13af6cfe9d6d6060c01b611096565b613e5c6762c98aafb53f225060c01b611096565b6000613e6a868686866122c7565b9050613e8067db6891394d62f65060c01b611096565b613e9467a9747bd63961f6a760c01b611096565b6000613e9f826123df565b9050613eb5676b356cb0aadede3d60c01b611096565b613ec96758e7482b5844cc7d60c01b611096565b60005b8151811015613f9a57613ee9672fcc187a6eb9bd5d60c01b611096565b613efd676d8cba0421998ff760c01b611096565b613f8789600a60008d81526020019081526020016000208381548110613f2657613f256152ab565b5b9060005260206000200154848481518110613f4457613f436152ab565b5b60200260200101516040518060400160405280600481526020017f3078303000000000000000000000000000000000000000000000000000000000815250613fd2565b8080613f9290615309565b915050613ecc565b50613faf67fc9c9548ccd49e2960c01b611096565b613fc36791fd09e3ba4dc57f60c01b611096565b81925050509695505050505050565b600073ffffffffffffffffffffffffffffffffffffffff168473ffffffffffffffffffffffffffffffffffffffff1603614041576040517f08c379a0000000000000000000000000000000000000000000000000000000008152600401614038906161dd565b60405180910390fd5b600061404b611099565b9050600061405885614183565b9050600061406585614183565b905061407683600089858589611fa2565b846001600088815260200190815260200160002060008973ffffffffffffffffffffffffffffffffffffffff1673ffffffffffffffffffffffffffffffffffffffff16815260200190815260200160002060008282546140d691906156e5565b925050819055508673ffffffffffffffffffffffffffffffffffffffff16600073ffffffffffffffffffffffffffffffffffffffff168473ffffffffffffffffffffffffffffffffffffffff167fc3d58168c5ae7397731d063d5bbf3d657854427343f4c083240f7aacaa2d0f6289896040516141549291906168ca565b60405180910390a461416b83600089858589611faa565b61417a836000898989896141fd565b50505050505050565b60606000600167ffffffffffffffff8111156141a2576141a1614685565b5b6040519080825280602002602001820160405280156141d05781602001602082028036833780820191505090505b50905082816000815181106141e8576141e76152ab565b5b60200260200101818152505080915050919050565b61421c8473ffffffffffffffffffffffffffffffffffffffff16613b6d565b156143cc578373ffffffffffffffffffffffffffffffffffffffff1663f23a6e6187878686866040518663ffffffff1660e01b81526004016142629594939291906168f3565b6020604051808303816000875af192505050801561429e57506040513d601f19601f8201168201806040525081019061429b9190615e19565b60015b614343576142aa615e53565b806308c379a00361430657506142be615e75565b806142c95750614308565b806040517f08c379a00000000000000000000000000000000000000000000000000000000081526004016142fd919061465e565b60405180910390fd5b505b6040517f08c379a000000000000000000000000000000000000000000000000000000000815260040161433a90615f77565b60405180910390fd5b63f23a6e6160e01b7bffffffffffffffffffffffffffffffffffffffffffffffffffffffff1916817bffffffffffffffffffffffffffffffffffffffffffffffffffffffff1916146143ca576040517f08c379a00000000000000000000000000000000000000000000000000000000081526004016143c190616009565b60405180910390fd5b505b505050505050565b6000604051905090565b600080fd5b600080fd5b600073ffffffffffffffffffffffffffffffffffffffff82169050919050565b6000614413826143e8565b9050919050565b61442381614408565b811461442e57600080fd5b50565b6000813590506144408161441a565b92915050565b6000819050919050565b61445981614446565b811461446457600080fd5b50565b60008135905061447681614450565b92915050565b60008060408385031215614493576144926143de565b5b60006144a185828601614431565b92505060206144b285828601614467565b9150509250929050565b6144c581614446565b82525050565b60006020820190506144e060008301846144bc565b92915050565b60007fffffffff0000000000000000000000000000000000000000000000000000000082169050919050565b61451b816144e6565b811461452657600080fd5b50565b60008135905061453881614512565b92915050565b600060208284031215614554576145536143de565b5b600061456284828501614529565b91505092915050565b60008115159050919050565b6145808161456b565b82525050565b600060208201905061459b6000830184614577565b92915050565b6000602082840312156145b7576145b66143de565b5b60006145c584828501614467565b91505092915050565b600081519050919050565b600082825260208201905092915050565b60005b838110156146085780820151818401526020810190506145ed565b60008484015250505050565b6000601f19601f8301169050919050565b6000614630826145ce565b61463a81856145d9565b935061464a8185602086016145ea565b61465381614614565b840191505092915050565b600060208201905081810360008301526146788184614625565b905092915050565b600080fd5b7f4e487b7100000000000000000000000000000000000000000000000000000000600052604160045260246000fd5b6146bd82614614565b810181811067ffffffffffffffff821117156146dc576146db614685565b5b80604052505050565b60006146ef6143d4565b90506146fb82826146b4565b919050565b600067ffffffffffffffff82111561471b5761471a614685565b5b602082029050602081019050919050565b600080fd5b600061474461473f84614700565b6146e5565b905080838252602082019050602084028301858111156147675761476661472c565b5b835b81811015614790578061477c8882614467565b845260208401935050602081019050614769565b5050509392505050565b600082601f8301126147af576147ae614680565b5b81356147bf848260208601614731565b91505092915050565b600080fd5b600067ffffffffffffffff8211156147e8576147e7614685565b5b6147f182614614565b9050602081019050919050565b82818337600083830152505050565b600061482061481b846147cd565b6146e5565b90508281526020810184848401111561483c5761483b6147c8565b5b6148478482856147fe565b509392505050565b600082601f83011261486457614863614680565b5b813561487484826020860161480d565b91505092915050565b600080600080600060a08688031215614899576148986143de565b5b60006148a788828901614431565b95505060206148b888828901614431565b945050604086013567ffffffffffffffff8111156148d9576148d86143e3565b5b6148e58882890161479a565b935050606086013567ffffffffffffffff811115614906576149056143e3565b5b6149128882890161479a565b925050608086013567ffffffffffffffff811115614933576149326143e3565b5b61493f8882890161484f565b9150509295509295909350565b600060ff82169050919050565b6149628161494c565b811461496d57600080fd5b50565b60008135905061497f81614959565b92915050565b600067ffffffffffffffff8211156149a05761499f614685565b5b602082029050602081019050919050565b60006149c46149bf84614985565b6146e5565b905080838252602082019050602084028301858111156149e7576149e661472c565b5b835b81811015614a1057806149fc8882614431565b8452602084019350506020810190506149e9565b5050509392505050565b600082601f830112614a2f57614a2e614680565b5b8135614a3f8482602086016149b1565b91505092915050565b60008060008060808587031215614a6257614a616143de565b5b6000614a7087828801614467565b9450506020614a8187828801614970565b935050604085013567ffffffffffffffff811115614aa257614aa16143e3565b5b614aae8782880161479a565b925050606085013567ffffffffffffffff811115614acf57614ace6143e3565b5b614adb87828801614a1a565b91505092959194509250565b60008060408385031215614afe57614afd6143de565b5b600083013567ffffffffffffffff811115614b1c57614b1b6143e3565b5b614b2885828601614a1a565b925050602083013567ffffffffffffffff811115614b4957614b486143e3565b5b614b558582860161479a565b9150509250929050565b600081519050919050565b600082825260208201905092915050565b6000819050602082019050919050565b614b9481614446565b82525050565b6000614ba68383614b8b565b60208301905092915050565b6000602082019050919050565b6000614bca82614b5f565b614bd48185614b6a565b9350614bdf83614b7b565b8060005b83811015614c10578151614bf78882614b9a565b9750614c0283614bb2565b925050600181019050614be3565b5085935050505092915050565b60006020820190508181036000830152614c378184614bbf565b905092915050565b614c4881614408565b82525050565b6000602082019050614c636000830184614c3f565b92915050565b614c728161456b565b8114614c7d57600080fd5b50565b600081359050614c8f81614c69565b92915050565b60008060408385031215614cac57614cab6143de565b5b6000614cba85828601614431565b9250506020614ccb85828601614c80565b9150509250929050565b600067ffffffffffffffff821115614cf057614cef614685565b5b602082029050602081019050919050565b600067ffffffffffffffff821115614d1c57614d1b614685565b5b614d2582614614565b9050602081019050919050565b6000614d45614d4084614d01565b6146e5565b905082815260208101848484011115614d6157614d606147c8565b5b614d6c8482856147fe565b509392505050565b600082601f830112614d8957614d88614680565b5b8135614d99848260208601614d32565b91505092915050565b6000614db5614db084614cd5565b6146e5565b90508083825260208201905060208402830185811115614dd857614dd761472c565b5b835b81811015614e1f57803567ffffffffffffffff811115614dfd57614dfc614680565b5b808601614e0a8982614d74565b85526020850194505050602081019050614dda565b5050509392505050565b600082601f830112614e3e57614e3d614680565b5b8135614e4e848260208601614da2565b91505092915050565b60008060008060008060008060006101208a8c031215614e7a57614e796143de565b5b6000614e888c828d01614467565b9950506020614e998c828d01614467565b9850506040614eaa8c828d01614467565b9750506060614ebb8c828d01614467565b9650506080614ecc8c828d01614970565b95505060a0614edd8c828d01614970565b94505060c0614eee8c828d01614431565b93505060e0614eff8c828d01614431565b9250506101008a013567ffffffffffffffff811115614f2157614f206143e3565b5b614f2d8c828d01614e29565b9150509295985092959850929598565b60008060408385031215614f5457614f536143de565b5b6000614f6285828601614431565b9250506020614f7385828601614431565b9150509250929050565b600080600080600060a08688031215614f9957614f986143de565b5b6000614fa788828901614431565b9550506020614fb888828901614431565b9450506040614fc988828901614467565b9350506060614fda88828901614467565b925050608086013567ffffffffffffffff811115614ffb57614ffa6143e3565b5b6150078882890161484f565b9150509295509295909350565b60006020828403121561502a576150296143de565b5b600061503884828501614431565b91505092915050565b61504a8161494c565b82525050565b600060808201905061506560008301876144bc565b6150726020830186615041565b61507f6040830185615041565b61508c6060830184615041565b95945050505050565b7f455243313135353a2061646472657373207a65726f206973206e6f742061207660008201527f616c6964206f776e657200000000000000000000000000000000000000000000602082015250565b60006150f1602a836145d9565b91506150fc82615095565b604082019050919050565b60006020820190508181036000830152615120816150e4565b9050919050565b7f4e487b7100000000000000000000000000000000000000000000000000000000600052602260045260246000fd5b6000600282049050600182168061516e57607f821691505b60208210810361518157615180615127565b5b50919050565b7f455243313135353a2063616c6c6572206973206e6f7420746f6b656e206f776e60008201527f6572206f7220617070726f766564000000000000000000000000000000000000602082015250565b60006151e3602e836145d9565b91506151ee82615187565b604082019050919050565b60006020820190508181036000830152615212816151d6565b9050919050565b7f455243313135353a206163636f756e747320616e6420696473206c656e67746860008201527f206d69736d617463680000000000000000000000000000000000000000000000602082015250565b60006152756029836145d9565b915061528082615219565b604082019050919050565b600060208201905081810360008301526152a481615268565b9050919050565b7f4e487b7100000000000000000000000000000000000000000000000000000000600052603260045260246000fd5b7f4e487b7100000000000000000000000000000000000000000000000000000000600052601160045260246000fd5b600061531482614446565b91507fffffffffffffffffffffffffffffffffffffffffffffffffffffffffffffffff8203615346576153456152da565b5b600182019050919050565b600081905092915050565b60008190508160005260206000209050919050565b6000815461537e81615156565b6153888186615351565b945060018216600081146153a357600181146153b8576153eb565b60ff19831686528115158202860193506153eb565b6153c18561535c565b60005b838110156153e3578154818901526001820191506020810190506153c4565b838801955050505b50505092915050565b60006154008284615371565b915081905092915050565b7f52454a5556453a2043616e6e6f742073616c6520353025206f6620736861726460008201527f73206265666f7265206c6f636b696e6720706572696f64000000000000000000602082015250565b60006154676037836145d9565b91506154728261540b565b604082019050919050565b600060208201905081810360008301526154968161545a565b9050919050565b7f4f776e61626c653a206e6577206f776e657220697320746865207a65726f206160008201527f6464726573730000000000000000000000000000000000000000000000000000602082015250565b60006154f96026836145d9565b91506155048261549d565b604082019050919050565b60006020820190508181036000830152615528816154ec565b9050919050565b7f455243313135353a2069647320616e6420616d6f756e7473206c656e6774682060008201527f6d69736d61746368000000000000000000000000000000000000000000000000602082015250565b600061558b6028836145d9565b91506155968261552f565b604082019050919050565b600060208201905081810360008301526155ba8161557e565b9050919050565b7f455243313135353a207472616e7366657220746f20746865207a65726f20616460008201527f6472657373000000000000000000000000000000000000000000000000000000602082015250565b600061561d6025836145d9565b9150615628826155c1565b604082019050919050565b6000602082019050818103600083015261564c81615610565b9050919050565b7f455243313135353a20696e73756666696369656e742062616c616e636520666f60008201527f72207472616e7366657200000000000000000000000000000000000000000000602082015250565b60006156af602a836145d9565b91506156ba82615653565b604082019050919050565b600060208201905081810360008301526156de816156a2565b9050919050565b60006156f082614446565b91506156fb83614446565b9250828201905080821115615713576157126152da565b5b92915050565b600060408201905081810360008301526157338185614bbf565b905081810360208301526157478184614bbf565b90509392505050565b7f4f776e61626c653a2063616c6c6572206973206e6f7420746865206f776e6572600082015250565b60006157866020836145d9565b915061579182615750565b602082019050919050565b600060208201905081810360008301526157b581615779565b9050919050565b7f5061757361626c653a2070617573656400000000000000000000000000000000600082015250565b60006157f26010836145d9565b91506157fd826157bc565b602082019050919050565b60006020820190508181036000830152615821816157e5565b9050919050565b7f52454a5556453a204e6f7420657175616c206c656e6774680000000000000000600082015250565b600061585e6018836145d9565b915061586982615828565b602082019050919050565b6000602082019050818103600083015261588d81615851565b9050919050565b7f52454a5556453a204675747572652070657263656e746167652073686172652060008201527f63616e6e6f74206265207a65726f000000000000000000000000000000000000602082015250565b60006158f0602e836145d9565b91506158fb82615894565b604082019050919050565b6000602082019050818103600083015261591f816158e3565b9050919050565b600081519050919050565b600082825260208201905092915050565b6000819050602082019050919050565b61595b81614408565b82525050565b600061596d8383615952565b60208301905092915050565b6000602082019050919050565b600061599182615926565b61599b8185615931565b93506159a683615942565b8060005b838110156159d75781516159be8882615961565b97506159c983615979565b9250506001810190506159aa565b5085935050505092915050565b600081549050919050565b60008190508160005260206000209050919050565b60008160001c9050919050565b6000819050919050565b6000615a2e615a2983615a04565b615a11565b9050919050565b6000615a418254615a1b565b9050919050565b6000600182019050919050565b6000615a60826159e4565b615a6a8185614b6a565b9350615a75836159ef565b8060005b83811015615aad57615a8a82615a35565b615a948882614b9a565b9750615a9f83615a48565b925050600181019050615a79565b5085935050505092915050565b6000606082019050615acf60008301866144bc565b8181036020830152615ae18185615986565b90508181036040830152615af58184615a55565b9050949350505050565b7f455243313135353a2073657474696e6720617070726f76616c2073746174757360008201527f20666f722073656c660000000000000000000000000000000000000000000000602082015250565b6000615b5b6029836145d9565b9150615b6682615aff565b604082019050919050565b60006020820190508181036000830152615b8a81615b4e565b9050919050565b600081549050919050565b60008190508160005260206000209050919050565b600073ffffffffffffffffffffffffffffffffffffffff82169050919050565b6000615be4615bdf83615a04565b615bb1565b9050919050565b6000615bf78254615bd1565b9050919050565b6000600182019050919050565b6000615c1682615b91565b615c208185615931565b9350615c2b83615b9c565b8060005b83811015615c6357615c4082615beb565b615c4a8882615961565b9750615c5583615bfe565b925050600181019050615c2f565b5085935050505092915050565b6000606082019050615c8560008301866144bc565b8181036020830152615c978185615c0b565b90508181036040830152615cab8184615a55565b9050949350505050565b7f455243313135353a2063616c6c6572206973206e6f74206f776e6572206e6f7260008201527f20617070726f7665640000000000000000000000000000000000000000000000602082015250565b6000615d116029836145d9565b9150615d1c82615cb5565b604082019050919050565b60006020820190508181036000830152615d4081615d04565b9050919050565b600081519050919050565b600082825260208201905092915050565b6000615d6e82615d47565b615d788185615d52565b9350615d888185602086016145ea565b615d9181614614565b840191505092915050565b600060a082019050615db16000830188614c3f565b615dbe6020830187614c3f565b8181036040830152615dd08186614bbf565b90508181036060830152615de48185614bbf565b90508181036080830152615df88184615d63565b90509695505050505050565b600081519050615e1381614512565b92915050565b600060208284031215615e2f57615e2e6143de565b5b6000615e3d84828501615e04565b91505092915050565b60008160e01c9050919050565b600060033d1115615e725760046000803e615e6f600051615e46565b90505b90565b600060443d10615f0257615e876143d4565b60043d036004823e80513d602482011167ffffffffffffffff82111715615eaf575050615f02565b808201805167ffffffffffffffff811115615ecd5750505050615f02565b80602083010160043d038501811115615eea575050505050615f02565b615ef9826020018501866146b4565b82955050505050505b90565b7f455243313135353a207472616e7366657220746f206e6f6e2d4552433131353560008201527f526563656976657220696d706c656d656e746572000000000000000000000000602082015250565b6000615f616034836145d9565b9150615f6c82615f05565b604082019050919050565b60006020820190508181036000830152615f9081615f54565b9050919050565b7f455243313135353a204552433131353552656365697665722072656a6563746560008201527f6420746f6b656e73000000000000000000000000000000000000000000000000602082015250565b6000615ff36028836145d9565b9150615ffe82615f97565b604082019050919050565b6000602082019050818103600083015261602281615fe6565b9050919050565b7f5061757361626c653a206e6f7420706175736564000000000000000000000000600082015250565b600061605f6014836145d9565b915061606a82616029565b602082019050919050565b6000602082019050818103600083015261608e81616052565b9050919050565b60006160a082614446565b91506160ab83614446565b92508282026160b981614446565b915082820484148315176160d0576160cf6152da565b5b5092915050565b7f4e487b7100000000000000000000000000000000000000000000000000000000600052601260045260246000fd5b600061611182614446565b915061611c83614446565b92508261612c5761612b6160d7565b5b828204905092915050565b600061614282614446565b915061614d83614446565b9250828203905081811115616165576161646152da565b5b92915050565b7f455243313135353a206d696e7420746f20746865207a65726f2061646472657360008201527f7300000000000000000000000000000000000000000000000000000000000000602082015250565b60006161c76021836145d9565b91506161d28261616b565b604082019050919050565b600060208201905081810360008301526161f6816161ba565b9050919050565b7f52454a5556453a204c6f636b20706572696f642063616e6e6f74206265207a6560008201527f726f000000000000000000000000000000000000000000000000000000000000602082015250565b60006162596022836145d9565b9150616264826161fd565b604082019050919050565b600060208201905081810360008301526162888161624c565b9050919050565b7f52454a5556453a2054617267657420737570706c792063616e6e6f742062652060008201527f3000000000000000000000000000000000000000000000000000000000000000602082015250565b60006162eb6021836145d9565b91506162f68261628f565b604082019050919050565b6000602082019050818103600083015261631a816162de565b9050919050565b7f52454a5556453a20496e697469616c20636f6e7472696275746f72732070657260008201527f63656e742063616e6e6f74206265203000000000000000000000000000000000602082015250565b600061637d6030836145d9565b915061638882616321565b604082019050919050565b600060208201905081810360008301526163ac81616370565b9050919050565b60008190508160005260206000209050919050565b60006020601f8301049050919050565b600082821b905092915050565b6000600883026164157fffffffffffffffffffffffffffffffffffffffffffffffffffffffffffffffff826163d8565b61641f86836163d8565b95508019841693508086168417925050509392505050565b6000819050919050565b600061645c61645761645284614446565b616437565b614446565b9050919050565b6000819050919050565b61647683616441565b61648a61648282616463565b8484546163e5565b825550505050565b600090565b61649f616492565b6164aa81848461646d565b505050565b5b818110156164ce576164c3600082616497565b6001810190506164b0565b5050565b601f821115616513576164e4816163b3565b6164ed846163c8565b810160208510156164fc578190505b616510616508856163c8565b8301826164af565b50505b505050565b600082821c905092915050565b600061653660001984600802616518565b1980831691505092915050565b600061654f8383616525565b9150826002028217905092915050565b616568826145ce565b67ffffffffffffffff81111561658157616580614685565b5b61658b8254615156565b6165968282856164d2565b600060209050601f8311600181146165c957600084156165b7578287015190505b6165c18582616543565b865550616629565b601f1984166165d7866163b3565b60005b828110156165ff578489015182556001820191506020850194506020810190506165da565b8683101561661c5784890151616618601f891682616525565b8355505b6001600288020188555050505b505050505050565b600061663c8261494c565b915060ff820361664f5761664e6152da565b5b600182019050919050565b600067ffffffffffffffff82111561667557616674614685565b5b602082029050602081019050919050565b6000616699616694846147cd565b6146e5565b9050828152602081018484840111156166b5576166b46147c8565b5b6166c08482856145ea565b509392505050565b600082601f8301126166dd576166dc614680565b5b81516166ed848260208601616686565b91505092915050565b60006167096167048461665a565b6146e5565b9050808382526020820190506020840283018581111561672c5761672b61472c565b5b835b8181101561677357805167ffffffffffffffff81111561675157616750614680565b5b80860161675e89826166c8565b8552602085019450505060208101905061672e565b5050509392505050565b600082601f83011261679257616791614680565b5b81516167a28482602086016166f6565b91505092915050565b6000602082840312156167c1576167c06143de565b5b600082015167ffffffffffffffff8111156167df576167de6143e3565b5b6167eb8482850161677d565b91505092915050565b60008151905061680381614450565b92915050565b60006020828403121561681f5761681e6143de565b5b600061682d848285016167f4565b91505092915050565b600060208201905081810360008301526168508184615d63565b905092915050565b6000815190506168678161441a565b92915050565b600060208284031215616883576168826143de565b5b600061689184828501616858565b91505092915050565b600060408201905081810360008301526168b48185615d63565b90506168c360208301846144bc565b9392505050565b60006040820190506168df60008301856144bc565b6168ec60208301846144bc565b9392505050565b600060a0820190506169086000830188614c3f565b6169156020830187614c3f565b61692260408301866144bc565b61692f60608301856144bc565b81810360808301526169418184615d63565b9050969550505050505056fea26469706673582212202adeacd21df94e416ea63883d1271e8371c9891f79467dd2618aea46ef89eb1a64736f6c63430008120033",
  "linkReferences": {},
  "deployedLinkReferences": {}
}