{
  "_format": "hh-sol-artifact-1",
  "contractName": "TransferShards",
  "sourceName": "contracts/TransferShards.sol",
  "abi": [
    {
      "inputs": [
        {
          "internalType": "string",
          "name": "uri_",
          "type": "string"
        },
        {
          "internalType": "address",
          "name": "productNFT_",
          "type": "address"
        }
      ],
      "stateMutability": "nonpayable",
      "type": "constructor"
    },
    {
      "anonymous": false,
      "inputs": [
        {
          "indexed": true,
          "internalType": "address",
          "name": "account",
          "type": "address"
        },
        {
          "indexed": true,
          "internalType": "address",
          "name": "operator",
          "type": "address"
        },
        {
          "indexed": false,
          "internalType": "bool",
          "name": "approved",
          "type": "bool"
        }
      ],
      "name": "ApprovalForAll",
      "type": "event"
    },
    {
      "anonymous": false,
      "inputs": [
        {
          "indexed": false,
          "internalType": "uint256",
          "name": "productUID",
          "type": "uint256"
        },
        {
          "indexed": false,
          "internalType": "address[]",
          "name": "dataOwners",
          "type": "address[]"
        },
        {
          "indexed": false,
          "internalType": "uint256[]",
          "name": "shardAmount",
          "type": "uint256[]"
        }
      ],
      "name": "FutureShardDistributed",
      "type": "event"
    },
    {
      "anonymous": false,
      "inputs": [
        {
          "indexed": false,
          "internalType": "uint256",
          "name": "productUID",
          "type": "uint256"
        },
        {
          "indexed": false,
          "internalType": "address[]",
          "name": "dataOwners",
          "type": "address[]"
        },
        {
          "indexed": false,
          "internalType": "uint256[]",
          "name": "shardAmount",
          "type": "uint256[]"
        }
      ],
      "name": "InitialShardDistributed",
      "type": "event"
    },
    {
      "anonymous": false,
      "inputs": [
        {
          "indexed": true,
          "internalType": "address",
          "name": "previousOwner",
          "type": "address"
        },
        {
          "indexed": true,
          "internalType": "address",
          "name": "newOwner",
          "type": "address"
        }
      ],
      "name": "OwnershipTransferred",
      "type": "event"
    },
    {
      "anonymous": false,
      "inputs": [
        {
          "indexed": false,
          "internalType": "address",
          "name": "account",
          "type": "address"
        }
      ],
      "name": "Paused",
      "type": "event"
    },
    {
      "anonymous": false,
      "inputs": [
        {
          "indexed": false,
          "internalType": "uint256",
          "name": "productUID",
          "type": "uint256"
        },
        {
          "indexed": false,
          "internalType": "address",
          "name": "rejuve",
          "type": "address"
        },
        {
          "indexed": false,
          "internalType": "uint256",
          "name": "shardAmount",
          "type": "uint256"
        }
      ],
      "name": "RemainingShardAllocated",
      "type": "event"
    },
    {
      "anonymous": false,
      "inputs": [
        {
          "indexed": true,
          "internalType": "address",
          "name": "operator",
          "type": "address"
        },
        {
          "indexed": true,
          "internalType": "address",
          "name": "from",
          "type": "address"
        },
        {
          "indexed": true,
          "internalType": "address",
          "name": "to",
          "type": "address"
        },
        {
          "indexed": false,
          "internalType": "uint256[]",
          "name": "ids",
          "type": "uint256[]"
        },
        {
          "indexed": false,
          "internalType": "uint256[]",
          "name": "values",
          "type": "uint256[]"
        }
      ],
      "name": "TransferBatch",
      "type": "event"
    },
    {
      "anonymous": false,
      "inputs": [
        {
          "indexed": true,
          "internalType": "address",
          "name": "operator",
          "type": "address"
        },
        {
          "indexed": true,
          "internalType": "address",
          "name": "from",
          "type": "address"
        },
        {
          "indexed": true,
          "internalType": "address",
          "name": "to",
          "type": "address"
        },
        {
          "indexed": false,
          "internalType": "uint256",
          "name": "id",
          "type": "uint256"
        },
        {
          "indexed": false,
          "internalType": "uint256",
          "name": "value",
          "type": "uint256"
        }
      ],
      "name": "TransferSingle",
      "type": "event"
    },
    {
      "anonymous": false,
      "inputs": [
        {
          "indexed": false,
          "internalType": "string",
          "name": "value",
          "type": "string"
        },
        {
          "indexed": true,
          "internalType": "uint256",
          "name": "id",
          "type": "uint256"
        }
      ],
      "name": "URI",
      "type": "event"
    },
    {
      "anonymous": false,
      "inputs": [
        {
          "indexed": false,
          "internalType": "address",
          "name": "account",
          "type": "address"
        }
      ],
      "name": "Unpaused",
      "type": "event"
    },
    {
      "inputs": [
        {
          "internalType": "address",
          "name": "account",
          "type": "address"
        },
        {
          "internalType": "uint256",
          "name": "id",
          "type": "uint256"
        }
      ],
      "name": "balanceOf",
      "outputs": [
        {
          "internalType": "uint256",
          "name": "",
          "type": "uint256"
        }
      ],
      "stateMutability": "view",
      "type": "function"
    },
    {
      "inputs": [
        {
          "internalType": "address[]",
          "name": "accounts",
          "type": "address[]"
        },
        {
          "internalType": "uint256[]",
          "name": "ids",
          "type": "uint256[]"
        }
      ],
      "name": "balanceOfBatch",
      "outputs": [
        {
          "internalType": "uint256[]",
          "name": "",
          "type": "uint256[]"
        }
      ],
      "stateMutability": "view",
      "type": "function"
    },
    {
      "inputs": [
        {
          "internalType": "uint256",
          "name": "_productUID",
          "type": "uint256"
        },
        {
          "internalType": "uint8",
          "name": "_futurePercent",
          "type": "uint8"
        },
        {
          "internalType": "uint256[]",
          "name": "_credits",
          "type": "uint256[]"
        },
        {
          "internalType": "address[]",
          "name": "_futureContributors",
          "type": "address[]"
        }
      ],
      "name": "distributeFutureShards",
      "outputs": [],
      "stateMutability": "nonpayable",
      "type": "function"
    },
    {
      "inputs": [
        {
          "internalType": "uint256",
          "name": "_productUID",
          "type": "uint256"
        },
        {
          "internalType": "uint256",
          "name": "_targetSupply",
          "type": "uint256"
        },
        {
          "internalType": "uint256",
          "name": "_labCredit",
          "type": "uint256"
        },
        {
          "internalType": "uint256",
          "name": "_lockPeriod",
          "type": "uint256"
        },
        {
          "internalType": "uint8",
          "name": "_initialPercent",
          "type": "uint8"
        },
        {
          "internalType": "uint8",
          "name": "_rejuvePercent",
          "type": "uint8"
        },
        {
          "internalType": "address",
          "name": "_lab",
          "type": "address"
        },
        {
          "internalType": "address",
          "name": "_rejuve",
          "type": "address"
        },
        {
          "internalType": "string[]",
          "name": "_uris",
          "type": "string[]"
        }
      ],
      "name": "distributeInitialShards",
      "outputs": [],
      "stateMutability": "nonpayable",
      "type": "function"
    },
    {
      "inputs": [
        {
          "internalType": "uint256",
          "name": "_productUID",
          "type": "uint256"
        }
      ],
      "name": "getShardsConfig",
      "outputs": [
        {
          "internalType": "uint256",
          "name": "",
          "type": "uint256"
        },
        {
          "internalType": "uint8",
          "name": "",
          "type": "uint8"
        },
        {
          "internalType": "uint8",
          "name": "",
          "type": "uint8"
        },
        {
          "internalType": "uint8",
          "name": "",
          "type": "uint8"
        }
      ],
      "stateMutability": "view",
      "type": "function"
    },
    {
      "inputs": [
        {
          "internalType": "address",
          "name": "account",
          "type": "address"
        },
        {
          "internalType": "address",
          "name": "operator",
          "type": "address"
        }
      ],
      "name": "isApprovedForAll",
      "outputs": [
        {
          "internalType": "bool",
          "name": "",
          "type": "bool"
        }
      ],
      "stateMutability": "view",
      "type": "function"
    },
    {
      "inputs": [],
      "name": "owner",
      "outputs": [
        {
          "internalType": "address",
          "name": "",
          "type": "address"
        }
      ],
      "stateMutability": "view",
      "type": "function"
    },
    {
      "inputs": [],
      "name": "pause",
      "outputs": [],
      "stateMutability": "nonpayable",
      "type": "function"
    },
    {
      "inputs": [],
      "name": "paused",
      "outputs": [
        {
          "internalType": "bool",
          "name": "",
          "type": "bool"
        }
      ],
      "stateMutability": "view",
      "type": "function"
    },
    {
      "inputs": [],
      "name": "renounceOwnership",
      "outputs": [],
      "stateMutability": "nonpayable",
      "type": "function"
    },
    {
      "inputs": [
        {
          "internalType": "address",
          "name": "from",
          "type": "address"
        },
        {
          "internalType": "address",
          "name": "to",
          "type": "address"
        },
        {
          "internalType": "uint256[]",
          "name": "ids",
          "type": "uint256[]"
        },
        {
          "internalType": "uint256[]",
          "name": "amounts",
          "type": "uint256[]"
        },
        {
          "internalType": "bytes",
          "name": "data",
          "type": "bytes"
        }
      ],
      "name": "safeBatchTransferFrom",
      "outputs": [],
      "stateMutability": "nonpayable",
      "type": "function"
    },
    {
      "inputs": [
        {
          "internalType": "address",
          "name": "from",
          "type": "address"
        },
        {
          "internalType": "address",
          "name": "to",
          "type": "address"
        },
        {
          "internalType": "uint256",
          "name": "id",
          "type": "uint256"
        },
        {
          "internalType": "uint256",
          "name": "amount",
          "type": "uint256"
        },
        {
          "internalType": "bytes",
          "name": "data",
          "type": "bytes"
        }
      ],
      "name": "safeTransferFrom",
      "outputs": [],
      "stateMutability": "nonpayable",
      "type": "function"
    },
    {
      "inputs": [
        {
          "internalType": "address",
          "name": "operator",
          "type": "address"
        },
        {
          "internalType": "bool",
          "name": "approved",
          "type": "bool"
        }
      ],
      "name": "setApprovalForAll",
      "outputs": [],
      "stateMutability": "nonpayable",
      "type": "function"
    },
    {
      "inputs": [
        {
          "internalType": "bytes4",
          "name": "interfaceId",
          "type": "bytes4"
        }
      ],
      "name": "supportsInterface",
      "outputs": [
        {
          "internalType": "bool",
          "name": "",
          "type": "bool"
        }
      ],
      "stateMutability": "view",
      "type": "function"
    },
    {
      "inputs": [
        {
          "internalType": "uint256",
          "name": "_productUID",
          "type": "uint256"
        }
      ],
      "name": "targetSupply",
      "outputs": [
        {
          "internalType": "uint256",
          "name": "",
          "type": "uint256"
        }
      ],
      "stateMutability": "view",
      "type": "function"
    },
    {
      "inputs": [
        {
          "internalType": "uint256",
          "name": "_productUID",
          "type": "uint256"
        }
      ],
      "name": "totalShardSupply",
      "outputs": [
        {
          "internalType": "uint256",
          "name": "",
          "type": "uint256"
        }
      ],
      "stateMutability": "view",
      "type": "function"
    },
    {
      "inputs": [
        {
          "internalType": "address",
          "name": "newOwner",
          "type": "address"
        }
      ],
      "name": "transferOwnership",
      "outputs": [],
      "stateMutability": "nonpayable",
      "type": "function"
    },
    {
      "inputs": [],
      "name": "unpause",
      "outputs": [],
      "stateMutability": "nonpayable",
      "type": "function"
    },
    {
      "inputs": [
        {
          "internalType": "uint256",
          "name": "_id",
          "type": "uint256"
        }
      ],
      "name": "uri",
      "outputs": [
        {
          "internalType": "string",
          "name": "",
          "type": "string"
        }
      ],
      "stateMutability": "view",
      "type": "function"
    }
  ],
  "bytecode": "0x60806040523480156200001157600080fd5b506040516200707238038062007072833981810160405281019062000037919062000427565b81818181816200005c620000506200014560201b60201c565b6200014d60201b60201c565b60008060146101000a81548160ff02191690831515021790555062000087816200021160201b60201c565b50620000a467859246e0de807bd160c01b6200022660201b60201c565b620000c067e4abef476e19a19060c01b6200022660201b60201c565b80600460006101000a81548173ffffffffffffffffffffffffffffffffffffffff021916908373ffffffffffffffffffffffffffffffffffffffff16021790555050506200011f671af0266312c6f25e60c01b6200022960201b60201c565b50506200013d67e3d22c30b971127360c01b6200022c60201b60201c565b5050620007bf565b600033905090565b60008060009054906101000a900473ffffffffffffffffffffffffffffffffffffffff169050816000806101000a81548173ffffffffffffffffffffffffffffffffffffffff021916908373ffffffffffffffffffffffffffffffffffffffff1602179055508173ffffffffffffffffffffffffffffffffffffffff168173ffffffffffffffffffffffffffffffffffffffff167f8be0079c531659141344cd1fd0a4f28419497f9722a3daafe3b4186f6b6457e060405160405180910390a35050565b8060039081620002229190620006d8565b5050565b50565b50565b50565b6000604051905090565b600080fd5b600080fd5b600080fd5b600080fd5b6000601f19601f8301169050919050565b7f4e487b7100000000000000000000000000000000000000000000000000000000600052604160045260246000fd5b62000298826200024d565b810181811067ffffffffffffffff82111715620002ba57620002b96200025e565b5b80604052505050565b6000620002cf6200022f565b9050620002dd82826200028d565b919050565b600067ffffffffffffffff8211156200030057620002ff6200025e565b5b6200030b826200024d565b9050602081019050919050565b60005b83811015620003385780820151818401526020810190506200031b565b60008484015250505050565b60006200035b6200035584620002e2565b620002c3565b9050828152602081018484840111156200037a576200037962000248565b5b6200038784828562000318565b509392505050565b600082601f830112620003a757620003a662000243565b5b8151620003b984826020860162000344565b91505092915050565b600073ffffffffffffffffffffffffffffffffffffffff82169050919050565b6000620003ef82620003c2565b9050919050565b6200040181620003e2565b81146200040d57600080fd5b50565b6000815190506200042181620003f6565b92915050565b6000806040838503121562000441576200044062000239565b5b600083015167ffffffffffffffff8111156200046257620004616200023e565b5b62000470858286016200038f565b9250506020620004838582860162000410565b9150509250929050565b600081519050919050565b7f4e487b7100000000000000000000000000000000000000000000000000000000600052602260045260246000fd5b60006002820490506001821680620004e057607f821691505b602082108103620004f657620004f562000498565b5b50919050565b60008190508160005260206000209050919050565b60006020601f8301049050919050565b600082821b905092915050565b600060088302620005607fffffffffffffffffffffffffffffffffffffffffffffffffffffffffffffffff8262000521565b6200056c868362000521565b95508019841693508086168417925050509392505050565b6000819050919050565b6000819050919050565b6000620005b9620005b3620005ad8462000584565b6200058e565b62000584565b9050919050565b6000819050919050565b620005d58362000598565b620005ed620005e482620005c0565b8484546200052e565b825550505050565b600090565b62000604620005f5565b62000611818484620005ca565b505050565b5b8181101562000639576200062d600082620005fa565b60018101905062000617565b5050565b601f82111562000688576200065281620004fc565b6200065d8462000511565b810160208510156200066d578190505b620006856200067c8562000511565b83018262000616565b50505b505050565b600082821c905092915050565b6000620006ad600019846008026200068d565b1980831691505092915050565b6000620006c883836200069a565b9150826002028217905092915050565b620006e3826200048d565b67ffffffffffffffff811115620006ff57620006fe6200025e565b5b6200070b8254620004c7565b620007188282856200063d565b600060209050601f8311600181146200075057600084156200073b578287015190505b620007478582620006ba565b865550620007b7565b601f1984166200076086620004fc565b60005b828110156200078a5784890151825560018201915060208501945060208101905062000763565b86831015620007aa5784890151620007a6601f8916826200069a565b8355505b6001600288020188555050505b505050505050565b6168a380620007cf6000396000f3fe608060405234801561001057600080fd5b50600436106101205760003560e01c80638456cb59116100ad578063d6e0dbda11610071578063d6e0dbda146102df578063e985e9c51461030f578063f242432a1461033f578063f2fde38b1461035b578063fac795c01461037757610120565b80638456cb591461024f5780638da5cb5b14610259578063936906f114610277578063a22cb465146102a7578063d429c758146102c357610120565b80633f4ba83a116100f45780633f4ba83a146101d15780634567db03146101db5780634e1273f4146101f75780635c975abb14610227578063715018a61461024557610120565b8062fdd58e1461012557806301ffc9a7146101555780630e89341c146101855780632eb2c2d6146101b5575b600080fd5b61013f600480360381019061013a919061439c565b6103aa565b60405161014c91906143eb565b60405180910390f35b61016f600480360381019061016a919061445e565b610473565b60405161017c91906144a6565b60405180910390f35b61019f600480360381019061019a91906144c1565b610555565b6040516101ac919061457e565b60405180910390f35b6101cf60048036038101906101ca919061479d565b610636565b005b6101d96106d7565b005b6101f560048036038101906101f09190614968565b61074d565b005b610211600480360381019061020c9190614a07565b6107fb565b60405161021e9190614b3d565b60405180910390f35b61022f610914565b60405161023c91906144a6565b60405180910390f35b61024d61092a565b005b61025761093e565b005b6102616109b4565b60405161026e9190614b6e565b60405180910390f35b610291600480360381019061028c91906144c1565b6109dd565b60405161029e91906143eb565b60405180910390f35b6102c160048036038101906102bc9190614bb5565b610a39565b005b6102dd60048036038101906102d89190614d77565b610a4f565b005b6102f960048036038101906102f491906144c1565b610b07565b60405161030691906143eb565b60405180910390f35b61032960048036038101906103249190614e5d565b610b63565b60405161033691906144a6565b60405180910390f35b61035960048036038101906103549190614e9d565b610bf7565b005b61037560048036038101906103709190614f34565b610df4565b005b610391600480360381019061038c91906144c1565b610e77565b6040516103a19493929190614f70565b60405180910390f35b60008073ffffffffffffffffffffffffffffffffffffffff168373ffffffffffffffffffffffffffffffffffffffff160361041a576040517f08c379a000000000000000000000000000000000000000000000000000000000815260040161041190615027565b60405180910390fd5b6001600083815260200190815260200160002060008473ffffffffffffffffffffffffffffffffffffffff1673ffffffffffffffffffffffffffffffffffffffff16815260200190815260200160002054905092915050565b60007fd9b67a26000000000000000000000000000000000000000000000000000000007bffffffffffffffffffffffffffffffffffffffffffffffffffffffff1916827bffffffffffffffffffffffffffffffffffffffffffffffffffffffff1916148061053e57507f0e89341c000000000000000000000000000000000000000000000000000000007bffffffffffffffffffffffffffffffffffffffffffffffffffffffff1916827bffffffffffffffffffffffffffffffffffffffffffffffffffffffff1916145b8061054e575061054d82610f4b565b5b9050919050565b606061056b6733c247549217994160c01b610fb5565b61057f672a36b9ee82fe832660c01b610fb5565b61059367846bc1235520cee360c01b610fb5565b600e600083815260200190815260200160002080546105b190615076565b80601f01602080910402602001604051908101604052809291908181526020018280546105dd90615076565b801561062a5780601f106105ff5761010080835404028352916020019161062a565b820191906000526020600020905b81548152906001019060200180831161060d57829003601f168201915b50505050509050919050565b61063e610fb8565b73ffffffffffffffffffffffffffffffffffffffff168573ffffffffffffffffffffffffffffffffffffffff16148061068457506106838561067e610fb8565b610b63565b5b6106c3576040517f08c379a00000000000000000000000000000000000000000000000000000000081526004016106ba90615119565b60405180910390fd5b6106d08585858585610fc0565b5050505050565b6106eb676a12e624fa24d23660c01b6112e4565b6106f36112e7565b61070767e701a7aded49b74b60c01b6112e4565b61071b6746185d1bb86d4dc760c01b6112e4565b61072f67861aee905d7752c260c01b6112e4565b6107436732a264c0b736866e60c01b6112e4565b61074b611365565b565b6107616767aad1b2798fc6f560c01b6113c7565b6107696112e7565b61077d6780682632ee1fe66360c01b6113c7565b610791670531c431bb17906760c01b6113c7565b6107996113ca565b6107ad67d8b0bb1384175c8660c01b6113c7565b6107c1676e2b184017ae30ac60c01b6113c7565b6107d56772b8a76ce152627260c01b6113c7565b6107e9673f233388610ca4fa60c01b6113c7565b6107f584848484611414565b50505050565b60608151835114610841576040517f08c379a0000000000000000000000000000000000000000000000000000000008152600401610838906151ab565b60405180910390fd5b6000835167ffffffffffffffff81111561085e5761085d6145a5565b5b60405190808252806020026020018201604052801561088c5781602001602082028036833780820191505090505b50905060005b8451811015610909576108d98582815181106108b1576108b06151cb565b5b60200260200101518583815181106108cc576108cb6151cb565b5b60200260200101516103aa565b8282815181106108ec576108eb6151cb565b5b6020026020010181815250508061090290615229565b9050610892565b508091505092915050565b60008060149054906101000a900460ff16905090565b6109326112e7565b61093c60006118cb565b565b61095267b2f3fb813fa19f1960c01b6112e4565b61095a6112e7565b61096e67dea190d1aa5d73a260c01b6112e4565b610982673e76b99b5e641bb360c01b6112e4565b61099667f45789158f54ca3360c01b6112e4565b6109aa67c4f1b3416a263da060c01b6112e4565b6109b261198f565b565b60008060009054906101000a900473ffffffffffffffffffffffffffffffffffffffff16905090565b60006109f36796510fef43565d0660c01b610fb5565b610a0767167c80ee4c7570ba60c01b610fb5565b610a1b6733ea72b6af6495af60c01b610fb5565b60096000838152602001908152602001600020600101549050919050565b610a4b610a44610fb8565b83836119f2565b5050565b610a63678c5ca474efc46e4560c01b610fb5565b610a6b6112e7565b610a7f673453d00545214d2a60c01b610fb5565b610a9367c2de39fcf433350260c01b610fb5565b610a9b6113ca565b610aaf6770975fbaa28b9b8460c01b610fb5565b610ac36704fcf9ac29be32a260c01b610fb5565b610ad767069282c7fed63f6860c01b610fb5565b610aeb671abb541d33240f1f60c01b610fb5565b610afc898989898989898989611b5e565b505050505050505050565b6000610b1d6722d3f89d22f549c860c01b610fb5565b610b316739a566f98f39132960c01b610fb5565b610b45674fa10780e05f813360c01b610fb5565b60096000838152602001908152602001600020600201549050919050565b6000600260008473ffffffffffffffffffffffffffffffffffffffff1673ffffffffffffffffffffffffffffffffffffffff16815260200190815260200160002060008373ffffffffffffffffffffffffffffffffffffffff1673ffffffffffffffffffffffffffffffffffffffff16815260200190815260200160002060009054906101000a900460ff16905092915050565b610c0b67d8f202edaef0715960c01b6112e4565b610c1f6790f3c7b6aac9bbd660c01b6112e4565b610c3367b5f06095d4f0d70260c01b6112e4565b6040518060400160405280600681526020017f4c4f434b4544000000000000000000000000000000000000000000000000000081525080519060200120600d6000858152602001908152602001600020604051610c909190615314565b604051809103902003610da357610cb167bd512f64712f657560c01b6112e4565b610cc567360cd2990ffec41160c01b6112e4565b610cd967ca41cd8a7fd8498a60c01b6112e4565b610ced67208fecdd445e46bc60c01b6112e4565b600b6000600c6000868152602001908152602001600020548152602001908152602001600020544211610d55576040517f08c379a0000000000000000000000000000000000000000000000000000000008152600401610d4c9061539d565b60405180910390fd5b610d696706f4ca28c5d2ae1e60c01b6112e4565b610d7d670e0d12f47e6404c560c01b6112e4565b610d9167db38456c5c0a2e2a60c01b6112e4565b610d9e8585858585611d2c565b610ded565b610db767990d2240fd0def7160c01b6112e4565b610dcb670d366ad7a34bda2660c01b6112e4565b610ddf673687496eca79408060c01b6112e4565b610dec8585858585611d2c565b5b5050505050565b610dfc6112e7565b600073ffffffffffffffffffffffffffffffffffffffff168173ffffffffffffffffffffffffffffffffffffffff1603610e6b576040517f08c379a0000000000000000000000000000000000000000000000000000000008152600401610e629061542f565b60405180910390fd5b610e74816118cb565b50565b600080600080610e9167493357078ae76e6d60c01b610fb5565b610ea5675845920bfb995b6060c01b610fb5565b610eb9677c2173065874bc9e60c01b610fb5565b60096000868152602001908152602001600020600301546009600087815260200190815260200160002060040160009054906101000a900460ff166009600088815260200190815260200160002060040160029054906101000a900460ff166009600089815260200190815260200160002060040160019054906101000a900460ff1693509350935093509193509193565b60007f01ffc9a7000000000000000000000000000000000000000000000000000000007bffffffffffffffffffffffffffffffffffffffffffffffffffffffff1916827bffffffffffffffffffffffffffffffffffffffffffffffffffffffff1916149050919050565b50565b600033905090565b8151835114611004576040517f08c379a0000000000000000000000000000000000000000000000000000000008152600401610ffb906154c1565b60405180910390fd5b600073ffffffffffffffffffffffffffffffffffffffff168473ffffffffffffffffffffffffffffffffffffffff1603611073576040517f08c379a000000000000000000000000000000000000000000000000000000000815260040161106a90615553565b60405180910390fd5b600061107d610fb8565b905061108d818787878787611ec1565b60005b84518110156112415760008582815181106110ae576110ad6151cb565b5b6020026020010151905060008583815181106110cd576110cc6151cb565b5b6020026020010151905060006001600084815260200190815260200160002060008b73ffffffffffffffffffffffffffffffffffffffff1673ffffffffffffffffffffffffffffffffffffffff1681526020019081526020016000205490508181101561116f576040517f08c379a0000000000000000000000000000000000000000000000000000000008152600401611166906155e5565b60405180910390fd5b8181036001600085815260200190815260200160002060008c73ffffffffffffffffffffffffffffffffffffffff1673ffffffffffffffffffffffffffffffffffffffff16815260200190815260200160002081905550816001600085815260200190815260200160002060008b73ffffffffffffffffffffffffffffffffffffffff1673ffffffffffffffffffffffffffffffffffffffff16815260200190815260200160002060008282546112269190615605565b925050819055505050508061123a90615229565b9050611090565b508473ffffffffffffffffffffffffffffffffffffffff168673ffffffffffffffffffffffffffffffffffffffff168273ffffffffffffffffffffffffffffffffffffffff167f4a39dc06d4c0dbc64b70af90fd698a233a518aa5d07e595d983b8c0526c8f7fb87876040516112b8929190615639565b60405180910390a46112ce818787878787611ec9565b6112dc818787878787611ed1565b505050505050565b50565b6112ef610fb8565b73ffffffffffffffffffffffffffffffffffffffff1661130d6109b4565b73ffffffffffffffffffffffffffffffffffffffff1614611363576040517f08c379a000000000000000000000000000000000000000000000000000000000815260040161135a906156bc565b60405180910390fd5b565b61136d6120a8565b60008060146101000a81548160ff0219169083151502179055507f5db9ee0a495bf2e6ff9c91a7834c1ba4fdd244a5e8aa4e537bd38aeae4b073aa6113b0610fb8565b6040516113bd9190614b6e565b60405180910390a1565b50565b6113d2610914565b15611412576040517f08c379a000000000000000000000000000000000000000000000000000000000815260040161140990615728565b60405180910390fd5b565b61142867e9d0bf7c11cae1c660c01b6113c7565b61143c6711031ce3a99aa42960c01b6113c7565b61145067280864ed16b7cfdb60c01b6113c7565b61146467d8de2a245ef03c1660c01b6113c7565b81518151146114a8576040517f08c379a000000000000000000000000000000000000000000000000000000000815260040161149f90615794565b60405180910390fd5b6114bc67c8d7f5213c517d1360c01b6113c7565b6114d0675eba1dd8503092e560c01b6113c7565b6114e46787f68b397761480c60c01b6113c7565b6114f86706654fff5933890060c01b6113c7565b60008360ff160361153e576040517f08c379a000000000000000000000000000000000000000000000000000000000815260040161153590615826565b60405180910390fd5b61155267c62669daa3cdb37c60c01b6113c7565b61156667f7fcd25599e3bc5060c01b6113c7565b61157a6723dda01cf1fb6a4860c01b6113c7565b60006009600086815260200190815260200160002090506115a5677601bf881dcb463a60c01b6113c7565b838160040160026101000a81548160ff021916908360ff1602179055506115d667967efc50f2b183a960c01b6113c7565b6115ea67702cfb3e44416c4960c01b6113c7565b60006115f5846120f1565b905061160b67b7eacdd91cf82c6a60c01b6113c7565b61161f67b1c1e8a1056a6cf960c01b6113c7565b60005b835181101561182f5761163f6706e00fc1e068e66060c01b6113c7565b61165367c2c0c47ecac4fb6a60c01b6113c7565b600061168286838151811061166b5761166a6151cb565b5b6020026020010151848960ff1687600101546121e6565b9050611698674d77642179810afe60c01b6113c7565b6116ac6703b25512f0ad5e1960c01b6113c7565b60006116b7826122fe565b90506116cd67ef7fcef14ef6632160c01b6113c7565b6116e1676d7c48ea2805d7a260c01b6113c7565b61179d8684815181106116f7576116f66151cb565b5b6020026020010151600a60008c815260200190815260200160002080548060200260200160405190810160405280929190818152602001828054801561175c57602002820191906000526020600020905b815481526020019060010190808311611748575b5050505050836040518060400160405280600481526020017f307830300000000000000000000000000000000000000000000000000000000081525061248d565b6117b1671b8ce1f0fd2eb22460c01b6113c7565b8185600201546117c19190615605565b85600201819055506117dd67148bc2a8e7fc4c5f60c01b6113c7565b6117f16786ce439af18282c460c01b6113c7565b600f8290806001815401808255809150506001900390600052602060002001600090919091909150555050808061182790615229565b915050611622565b5061184467eca428717619180060c01b6113c7565b6118586723d8591771e2add360c01b6113c7565b7f621e1a59d70685f53a28114e1229586ecd6908416f6bfaee0e147c3d34f398458684600f60405161188c939291906159da565b60405180910390a16118a86763ddb3cdf63509cd60c01b6113c7565b6001601060006101000a81548160ff021916908315150217905550505050505050565b60008060009054906101000a900473ffffffffffffffffffffffffffffffffffffffff169050816000806101000a81548173ffffffffffffffffffffffffffffffffffffffff021916908373ffffffffffffffffffffffffffffffffffffffff1602179055508173ffffffffffffffffffffffffffffffffffffffff168173ffffffffffffffffffffffffffffffffffffffff167f8be0079c531659141344cd1fd0a4f28419497f9722a3daafe3b4186f6b6457e060405160405180910390a35050565b6119976113ca565b6001600060146101000a81548160ff0219169083151502179055507f62e78cea01bee320cd4e420270b5ea74000d11b0c9f74754ebdbfc544b05a2586119db610fb8565b6040516119e89190614b6e565b60405180910390a1565b8173ffffffffffffffffffffffffffffffffffffffff168373ffffffffffffffffffffffffffffffffffffffff1603611a60576040517f08c379a0000000000000000000000000000000000000000000000000000000008152600401611a5790615a91565b60405180910390fd5b80600260008573ffffffffffffffffffffffffffffffffffffffff1673ffffffffffffffffffffffffffffffffffffffff16815260200190815260200160002060008473ffffffffffffffffffffffffffffffffffffffff1673ffffffffffffffffffffffffffffffffffffffff16815260200190815260200160002060006101000a81548160ff0219169083151502179055508173ffffffffffffffffffffffffffffffffffffffff168373ffffffffffffffffffffffffffffffffffffffff167f17307eab39ab6107e8899845ad3d59bd9653f200f220920489ca2b5937696c3183604051611b5191906144a6565b60405180910390a3505050565b611b7267045313701da356e660c01b610fb5565b611b86670517a1a70bb2776060c01b610fb5565b611b9a67345b0fdf86d6929260c01b610fb5565b611ba489876126ba565b611bb8672934a6251d8e852660c01b610fb5565b611bcc675c04d6536ef8d16360c01b610fb5565b611bec8989600b60008d81526020019081526020016000205488886127b3565b611c00677d88d199e0e2b06460c01b610fb5565b611c1467c8dfcc39a53df7a660c01b610fb5565b611c1e89826129f0565b611c326768107ca27c935b2960c01b610fb5565b611c4667daabc1d6724462b260c01b610fb5565b611c5689898760ff168a87612d8c565b611c6a6743c1416d1eb3456860c01b610fb5565b611c7e67298474e82d9cf27a60c01b610fb5565b611c8d8989848760ff1661350d565b611ca167c76acd65626377f360c01b610fb5565b611cb56786e8ec8b4b8df7ec60c01b610fb5565b7fb79a1263d65160537b9075e0e4747a6007a82fb191be4435b4c508c431920b898960066007604051611cea93929190615b90565b60405180910390a1611d06671cde3608884cfe4660c01b610fb5565b6001600860006101000a81548160ff021916908315150217905550505050505050505050565b611d4067f49affb0afa4c16e60c01b6112e4565b611d486113ca565b611d5c67acdac6a97baea32760c01b6112e4565b611d7067f612a606651c060560c01b6112e4565b611d8467e995089f4380bb8360c01b6112e4565b611d98674d0d05d2f6f3ec7260c01b6112e4565b611dac6741839ef0cd43ae9b60c01b6112e4565b611db4610fb8565b73ffffffffffffffffffffffffffffffffffffffff168573ffffffffffffffffffffffffffffffffffffffff16148015611dfe5750611dfd6726a8e9fea800d2b160c01b6137e4565b5b80611e325750611e1585611e10610fb8565b610b63565b8015611e315750611e3067c3adcd2d10079d0860c01b6137e4565b5b5b611e71576040517f08c379a0000000000000000000000000000000000000000000000000000000008152600401611e6890615c47565b60405180910390fd5b611e856723e0d8ea2d06375960c01b6112e4565b611e9967434c889f758c21fb60c01b6112e4565b611ead67526f2788403f886c60c01b6112e4565b611eba85858585856137ef565b5050505050565b505050505050565b505050505050565b611ef08473ffffffffffffffffffffffffffffffffffffffff16613a8d565b156120a0578373ffffffffffffffffffffffffffffffffffffffff1663bc197c8187878686866040518663ffffffff1660e01b8152600401611f36959493929190615cbc565b6020604051808303816000875af1925050508015611f7257506040513d601f19601f82011682018060405250810190611f6f9190615d39565b60015b61201757611f7e615d73565b806308c379a003611fda5750611f92615d95565b80611f9d5750611fdc565b806040517f08c379a0000000000000000000000000000000000000000000000000000000008152600401611fd1919061457e565b60405180910390fd5b505b6040517f08c379a000000000000000000000000000000000000000000000000000000000815260040161200e90615e97565b60405180910390fd5b63bc197c8160e01b7bffffffffffffffffffffffffffffffffffffffffffffffffffffffff1916817bffffffffffffffffffffffffffffffffffffffffffffffffffffffff19161461209e576040517f08c379a000000000000000000000000000000000000000000000000000000000815260040161209590615f29565b60405180910390fd5b505b505050505050565b6120b0610914565b6120ef576040517f08c379a00000000000000000000000000000000000000000000000000000000081526004016120e690615f95565b60405180910390fd5b565b6000612107672c24d522c2f2a5c960c01b6113c7565b61211b67a3bb9bd5e8c8bb2e60c01b6113c7565b61212f6786337bae2a37406560c01b6113c7565b600061214567ea7eb9588145167d60c01b6113c7565b6121596748f868e0444c46b960c01b6113c7565b60005b83518110156121b457612179679def5a877a03b74060c01b6113c7565b83818151811061218c5761218b6151cb565b5b60200260200101518261219f9190615605565b915080806121ac90615229565b91505061215c565b506121c967cab7ab8e130a4dbd60c01b6113c7565b6121dd6722365d0d502bfb4f60c01b6113c7565b80915050919050565b60006121fc67c0bd86553dc9dcf760c01b610fb5565b61221067f13bac2db8aadd9d60c01b610fb5565b61222467b04d8f64400656c460c01b610fb5565b6000848660646122349190615fb5565b61223e9190616026565b905061225467d187e030dcab719b60c01b610fb5565b61226867e899675b913e526b60c01b610fb5565b6000606485856122789190615fb5565b6122829190616026565b905061229867dc78ce2d2d268da760c01b610fb5565b6122ac67b96e33ed7c183fba60c01b610fb5565b6000606483836122bc9190615fb5565b6122c69190616026565b90506122dc6770bc9304bfb857ee60c01b610fb5565b6122f067b973c3dc08e485ba60c01b610fb5565b809350505050949350505050565b606061231467962e4a2c0fb2b9c060c01b610fb5565b61232867b3bb2928ea0a041560c01b610fb5565b61233c679896bbb6856bb8ed60c01b610fb5565b6000600267ffffffffffffffff811115612359576123586145a5565b5b6040519080825280602002602001820160405280156123875781602001602082028036833780820191505090505b50905061239e67b12fa4d57968989660c01b610fb5565b6123b26750dad8eadf8b14b560c01b610fb5565b600060646032856123c39190615fb5565b6123cd9190616026565b90506123e367bfbc053d5f05103e60c01b610fb5565b80826000815181106123f8576123f76151cb565b5b602002602001018181525050612418671abb5488a40b0f4e60c01b610fb5565b80846124249190616057565b935061243a6727a6e5d3e438f69c60c01b610fb5565b838260018151811061244f5761244e6151cb565b5b60200260200101818152505061246f671413fb46e77f556360c01b610fb5565b61248367b0e8f4295db6a90e60c01b610fb5565b8192505050919050565b600073ffffffffffffffffffffffffffffffffffffffff168473ffffffffffffffffffffffffffffffffffffffff16036124fc576040517f08c379a00000000000000000000000000000000000000000000000000000000081526004016124f3906160fd565b60405180910390fd5b8151835114612540576040517f08c379a0000000000000000000000000000000000000000000000000000000008152600401612537906154c1565b60405180910390fd5b600061254a610fb8565b905061255b81600087878787611ec1565b60005b84518110156126155783818151811061257a576125796151cb565b5b602002602001015160016000878481518110612599576125986151cb565b5b6020026020010151815260200190815260200160002060008873ffffffffffffffffffffffffffffffffffffffff1673ffffffffffffffffffffffffffffffffffffffff16815260200190815260200160002060008282546125fb9190615605565b92505081905550808061260d90615229565b91505061255e565b508473ffffffffffffffffffffffffffffffffffffffff16600073ffffffffffffffffffffffffffffffffffffffff168273ffffffffffffffffffffffffffffffffffffffff167f4a39dc06d4c0dbc64b70af90fd698a233a518aa5d07e595d983b8c0526c8f7fb878760405161268d929190615639565b60405180910390a46126a481600087878787611ec9565b6126b381600087878787611ed1565b5050505050565b6126ce676e9c6377f00f5bbb60c01b610fb5565b6126e267078833307a71b2bb60c01b610fb5565b6126f66707c62ebaa2fe291860c01b610fb5565b61270a67bd8e4998bf94c87b60c01b610fb5565b6000810361274d576040517f08c379a00000000000000000000000000000000000000000000000000000000081526004016127449061618f565b60405180910390fd5b61276167f9450a09747c6bc860c01b610fb5565b61277567c3bf5bce8ed8392e60c01b610fb5565b42816127819190615605565b90506127976702a5cc15e215937360c01b610fb5565b80600b6000848152602001908152602001600020819055505050565b6127c7676b23f72428f05a5a60c01b610fb5565b6127db67a59371748f2bd5fe60c01b610fb5565b6127ef67bc6890b52ec8a6b060c01b610fb5565b6128036773de934dc15708a560c01b610fb5565b60008403612846576040517f08c379a000000000000000000000000000000000000000000000000000000000815260040161283d90616221565b60405180910390fd5b61285a672847b80c7e3ea41260c01b610fb5565b61286e67c5a21a14d2cdc6a860c01b610fb5565b6128826724dd14c856dc5b6e60c01b610fb5565b61289667b232bb1808c6889160c01b610fb5565b60008260ff16036128dc576040517f08c379a00000000000000000000000000000000000000000000000000000000081526004016128d3906162b3565b60405180910390fd5b6128f067fdbbb9fc42fb326460c01b610fb5565b61290467adcc73e70c461e2660c01b610fb5565b6129186737697edf57872b4260c01b610fb5565b6000600960008781526020019081526020016000209050612943671484be4f5545900a60c01b610fb5565b85816000018190555061296067c2e136710984dc7960c01b610fb5565b84816001018190555061297d67c392474f025a3d3560c01b610fb5565b83816003018190555061299a678163818a3fb367a160c01b610fb5565b828160040160006101000a81548160ff021916908360ff1602179055506129cb67f0d37fd730e6881e60c01b610fb5565b818160040160016101000a81548160ff021916908360ff160217905550505050505050565b612a0467e5e3622a920e1a4260c01b610fb5565b612a1867b1a8938d01f7436e60c01b610fb5565b612a2c67f4f3abecf973e08860c01b610fb5565b6000600267ffffffffffffffff811115612a4957612a486145a5565b5b604051908082528060200260200182016040528015612a7c57816020015b6060815260200190600190039081612a675790505b509050612a9367be574b27fb55a57a60c01b610fb5565b6040518060400160405280600681526020017f4c4f434b4544000000000000000000000000000000000000000000000000000081525081600081518110612add57612adc6151cb565b5b6020026020010181905250612afc678401be69987213a860c01b610fb5565b6040518060400160405280600681526020017f545241444544000000000000000000000000000000000000000000000000000081525081600181518110612b4657612b456151cb565b5b6020026020010181905250612b6567c9878488e1fae71b60c01b610fb5565b612b7967c436369b5f81c65460c01b610fb5565b60005b81518160ff161015612d8657612b9c67247ffd0afc1e032760c01b610fb5565b612bb067fd6f85f10dad3d0460c01b610fb5565b6005828260ff1681518110612bc857612bc76151cb565b5b6020026020010151908060018154018082558091505060019003906000526020600020016000909190919091509081612c01919061647f565b50612c16676eb7ab485d6c191460c01b610fb5565b612c2a6754908a8c1019c94f60c01b610fb5565b60006001600580549050612c3e9190616057565b9050612c546791f75e7a46a3ef7a60c01b610fb5565b612c686720778797eb25370d60c01b610fb5565b600a6000868152602001908152602001600020819080600181540180825580915050600190039060005260206000200160009091909190915055612cb667de5ca9facffdbe9160c01b610fb5565b828260ff1681518110612ccc57612ccb6151cb565b5b6020026020010151600d60008381526020019081526020016000209081612cf3919061647f565b50612d086790a0f3ef8d64fb8f60c01b610fb5565b84600c600083815260200190815260200160002081905550612d3467d40dffc99e9e993360c01b610fb5565b838260ff1681518110612d4a57612d496151cb565b5b6020026020010151600e60008381526020019081526020016000209081612d71919061647f565b50508080612d7e90616551565b915050612b7c565b50505050565b612da067df77498792cf7dcd60c01b610fb5565b612db46751326b59044d941d60c01b610fb5565b612dc86764165cf48e0795aa60c01b610fb5565b6000600460009054906101000a900473ffffffffffffffffffffffffffffffffffffffff1673ffffffffffffffffffffffffffffffffffffffff1663c9187fe7876040518263ffffffff1660e01b8152600401612e2591906143eb565b600060405180830381865afa158015612e42573d6000803e3d6000fd5b505050506040513d6000823e3d601f19601f82011682018060405250810190612e6b91906166cb565b9050612e8167da14215600237b8060c01b610fb5565b612e9567e0cb465402ef0db660c01b610fb5565b6000612ea087613ab0565b9050612eb667536bdbe8838f556360c01b610fb5565b612eca67cd3c16253d96418960c01b610fb5565b6000600960008981526020019081526020016000209050612ef56791e64534b1cd3ed260c01b610fb5565b8482612f019190615605565b9150612f1767ca1bf8ac3c5f0e6f60c01b610fb5565b612f2b675e10a89e86ee66a260c01b610fb5565b60005b600460009054906101000a900473ffffffffffffffffffffffffffffffffffffffff1673ffffffffffffffffffffffffffffffffffffffff166384ffeca58a6040518263ffffffff1660e01b8152600401612f8991906143eb565b602060405180830381865afa158015612fa6573d6000803e3d6000fd5b505050506040513d601f19601f82011682018060405250810190612fca9190616729565b8110156133bf57612fe567869b1ebf9911403d60c01b610fb5565b612ff9679116c85051d9dd5560c01b610fb5565b6000600460009054906101000a900473ffffffffffffffffffffffffffffffffffffffff1673ffffffffffffffffffffffffffffffffffffffff166359a96ffe86848151811061304c5761304b6151cb565b5b60200260200101516040518263ffffffff1660e01b81526004016130709190616756565b602060405180830381865afa15801561308d573d6000803e3d6000fd5b505050506040513d601f19601f820116820180604052508101906130b1919061678d565b90506130c7671d36beafa45c272360c01b610fb5565b6130db67709c5ed10e37177f60c01b610fb5565b60006131a0600460009054906101000a900473ffffffffffffffffffffffffffffffffffffffff1673ffffffffffffffffffffffffffffffffffffffff16630e47cefa888681518110613131576131306151cb565b5b60200260200101518e6040518363ffffffff1660e01b81526004016131579291906167ba565b602060405180830381865afa158015613174573d6000803e3d6000fd5b505050506040513d601f19601f820116820180604052508101906131989190616729565b868b8d6121e6565b90506131b667b1b3c0f643e8aef160c01b610fb5565b6131ca671ba265ed56cff63060c01b610fb5565b60006131d5826122fe565b90506131eb6706b017567703b4bf60c01b610fb5565b6131ff676373306cf80355fc60c01b610fb5565b6132a183600a60008f815260200190815260200160002080548060200260200160405190810160405280929190818152602001828054801561326057602002820191906000526020600020905b81548152602001906001019080831161324c575b5050505050836040518060400160405280600481526020017f307830300000000000000000000000000000000000000000000000000000000081525061248d565b6132b567dba4bb17d0eb8a4160c01b610fb5565b8185600201546132c59190615605565b85600201819055506132e167efd497b8f5407f8060c01b610fb5565b6132f567c0eacc1cba0b450f60c01b610fb5565b6006839080600181540180825580915050600190039060005260206000200160009091909190916101000a81548173ffffffffffffffffffffffffffffffffffffffff021916908373ffffffffffffffffffffffffffffffffffffffff16021790555061336c67e3787bfd21fcac8560c01b610fb5565b61338067fa0d10fb46e3481360c01b610fb5565b600782908060018154018082558091505060019003906000526020600020016000909190919091505550505080806133b790615229565b915050612f2e565b506133d467fb9e2596c88c5ec260c01b610fb5565b6133e86781e89710a47ef99c60c01b610fb5565b60006133f8898688868b8d613d3e565b905061340e67b9550541abcf3c1a60c01b610fb5565b80826002015461341e9190615605565b826002018190555061343a675203e27cb0b9f17b60c01b610fb5565b61344e67ddddbb65675b1ca960c01b610fb5565b6006859080600181540180825580915050600190039060005260206000200160009091909190916101000a81548173ffffffffffffffffffffffffffffffffffffffff021916908373ffffffffffffffffffffffffffffffffffffffff1602179055506134c5671c23b30664196bb860c01b610fb5565b6134d9677716a208e4d4aff860c01b610fb5565b6007819080600181540180825580915050600190039060005260206000200160009091909190915055505050505050505050565b613521679c5be580aff8157060c01b610fb5565b61353567a40a084a2f77ceb860c01b610fb5565b613549672500ba4af42ce6ab60c01b610fb5565b60006009600086815260200190815260200160002090506135746702e97f6716fe1e5060c01b610fb5565b61358867925278c2e8dc4b6d60c01b610fb5565b6000606483866135989190615fb5565b6135a29190616026565b90506135b867ce47f549ca2ac62560c01b610fb5565b8082600201546135c89190615605565b82600201819055506135e4678418c57d606467d760c01b610fb5565b6135f86753ea471b208b1feb60c01b610fb5565b6000613603826122fe565b90506136196793b402b60ed69df660c01b610fb5565b61362d671995d4a32c1853d760c01b610fb5565b60005b81518110156136fe5761364d678fa697afb24900b460c01b610fb5565b61366167b48d6e401c6c4c5060c01b610fb5565b6136eb86600a60008b8152602001908152602001600020838154811061368a576136896151cb565b5b90600052602060002001548484815181106136a8576136a76151cb565b5b60200260200101516040518060400160405280600481526020017f3078303000000000000000000000000000000000000000000000000000000000815250613ef2565b80806136f690615229565b915050613630565b50613713678539d20c68087c7960c01b610fb5565b6137276779c5a977f48d2c9260c01b610fb5565b6006859080600181540180825580915050600190039060005260206000200160009091909190916101000a81548173ffffffffffffffffffffffffffffffffffffffff021916908373ffffffffffffffffffffffffffffffffffffffff16021790555061379e67ed6f11cec03a659d60c01b610fb5565b6137b267dcf7076f445f86de60c01b610fb5565b600782908060018154018082558091505060019003906000526020600020016000909190919091505550505050505050565b600060019050919050565b600073ffffffffffffffffffffffffffffffffffffffff168473ffffffffffffffffffffffffffffffffffffffff160361385e576040517f08c379a000000000000000000000000000000000000000000000000000000000815260040161385590615553565b60405180910390fd5b6000613868610fb8565b90506000613875856140a3565b90506000613882856140a3565b9050613892838989858589611ec1565b60006001600088815260200190815260200160002060008a73ffffffffffffffffffffffffffffffffffffffff1673ffffffffffffffffffffffffffffffffffffffff1681526020019081526020016000205490508581101561392a576040517f08c379a0000000000000000000000000000000000000000000000000000000008152600401613921906155e5565b60405180910390fd5b8581036001600089815260200190815260200160002060008b73ffffffffffffffffffffffffffffffffffffffff1673ffffffffffffffffffffffffffffffffffffffff16815260200190815260200160002081905550856001600089815260200190815260200160002060008a73ffffffffffffffffffffffffffffffffffffffff1673ffffffffffffffffffffffffffffffffffffffff16815260200190815260200160002060008282546139e19190615605565b925050819055508773ffffffffffffffffffffffffffffffffffffffff168973ffffffffffffffffffffffffffffffffffffffff168573ffffffffffffffffffffffffffffffffffffffff167fc3d58168c5ae7397731d063d5bbf3d657854427343f4c083240f7aacaa2d0f628a8a604051613a5e9291906167ea565b60405180910390a4613a74848a8a86868a611ec9565b613a82848a8a8a8a8a61411d565b505050505050505050565b6000808273ffffffffffffffffffffffffffffffffffffffff163b119050919050565b6000613ac667d9ff3d2085ab30c760c01b610fb5565b613ada6746071a432c70448660c01b610fb5565b613aee67aeb12c3867abcc4960c01b610fb5565b6000600460009054906101000a900473ffffffffffffffffffffffffffffffffffffffff1673ffffffffffffffffffffffffffffffffffffffff1663c9187fe7846040518263ffffffff1660e01b8152600401613b4b91906143eb565b600060405180830381865afa158015613b68573d6000803e3d6000fd5b505050506040513d6000823e3d601f19601f82011682018060405250810190613b9191906166cb565b9050613ba7677488655232596c3360c01b610fb5565b613bbb67974f61c1a94e89f360c01b610fb5565b6000613bd167af55825f5d88e83e60c01b610fb5565b613be5676a0caf1b0b1d58c560c01b610fb5565b60005b8251811015613d0b57613c0567931b8fab2e2e341660c01b610fb5565b613c19672ecb136fb131368f60c01b610fb5565b6000600460009054906101000a900473ffffffffffffffffffffffffffffffffffffffff1673ffffffffffffffffffffffffffffffffffffffff16630e47cefa858481518110613c6c57613c6b6151cb565b5b6020026020010151886040518363ffffffff1660e01b8152600401613c929291906167ba565b602060405180830381865afa158015613caf573d6000803e3d6000fd5b505050506040513d601f19601f82011682018060405250810190613cd39190616729565b9050613ce967167a72d3b0d2562860c01b610fb5565b8083613cf59190615605565b9250508080613d0390615229565b915050613be8565b50613d2067758283d16593171b60c01b610fb5565b613d34673ce451fc100cc99f60c01b610fb5565b8092505050919050565b6000613d546799456268be9ca2ab60c01b610fb5565b613d68671c3ec0d0aa4275e260c01b610fb5565b613d7c672397560cdade6ce960c01b610fb5565b6000613d8a868686866121e6565b9050613da067803778389d2790ab60c01b610fb5565b613db467932c30032ac58a3a60c01b610fb5565b6000613dbf826122fe565b9050613dd567b38a387a3cce170560c01b610fb5565b613de967c297d28d9f8cda8060c01b610fb5565b60005b8151811015613eba57613e09672204b13d5444ba5260c01b610fb5565b613e1d679b9717fb5ab3646660c01b610fb5565b613ea789600a60008d81526020019081526020016000208381548110613e4657613e456151cb565b5b9060005260206000200154848481518110613e6457613e636151cb565b5b60200260200101516040518060400160405280600481526020017f3078303000000000000000000000000000000000000000000000000000000000815250613ef2565b8080613eb290615229565b915050613dec565b50613ecf67efb20c519b10d04a60c01b610fb5565b613ee3670f37f0a4032d456f60c01b610fb5565b81925050509695505050505050565b600073ffffffffffffffffffffffffffffffffffffffff168473ffffffffffffffffffffffffffffffffffffffff1603613f61576040517f08c379a0000000000000000000000000000000000000000000000000000000008152600401613f58906160fd565b60405180910390fd5b6000613f6b610fb8565b90506000613f78856140a3565b90506000613f85856140a3565b9050613f9683600089858589611ec1565b846001600088815260200190815260200160002060008973ffffffffffffffffffffffffffffffffffffffff1673ffffffffffffffffffffffffffffffffffffffff1681526020019081526020016000206000828254613ff69190615605565b925050819055508673ffffffffffffffffffffffffffffffffffffffff16600073ffffffffffffffffffffffffffffffffffffffff168473ffffffffffffffffffffffffffffffffffffffff167fc3d58168c5ae7397731d063d5bbf3d657854427343f4c083240f7aacaa2d0f6289896040516140749291906167ea565b60405180910390a461408b83600089858589611ec9565b61409a8360008989898961411d565b50505050505050565b60606000600167ffffffffffffffff8111156140c2576140c16145a5565b5b6040519080825280602002602001820160405280156140f05781602001602082028036833780820191505090505b5090508281600081518110614108576141076151cb565b5b60200260200101818152505080915050919050565b61413c8473ffffffffffffffffffffffffffffffffffffffff16613a8d565b156142ec578373ffffffffffffffffffffffffffffffffffffffff1663f23a6e6187878686866040518663ffffffff1660e01b8152600401614182959493929190616813565b6020604051808303816000875af19250505080156141be57506040513d601f19601f820116820180604052508101906141bb9190615d39565b60015b614263576141ca615d73565b806308c379a00361422657506141de615d95565b806141e95750614228565b806040517f08c379a000000000000000000000000000000000000000000000000000000000815260040161421d919061457e565b60405180910390fd5b505b6040517f08c379a000000000000000000000000000000000000000000000000000000000815260040161425a90615e97565b60405180910390fd5b63f23a6e6160e01b7bffffffffffffffffffffffffffffffffffffffffffffffffffffffff1916817bffffffffffffffffffffffffffffffffffffffffffffffffffffffff1916146142ea576040517f08c379a00000000000000000000000000000000000000000000000000000000081526004016142e190615f29565b60405180910390fd5b505b505050505050565b6000604051905090565b600080fd5b600080fd5b600073ffffffffffffffffffffffffffffffffffffffff82169050919050565b600061433382614308565b9050919050565b61434381614328565b811461434e57600080fd5b50565b6000813590506143608161433a565b92915050565b6000819050919050565b61437981614366565b811461438457600080fd5b50565b60008135905061439681614370565b92915050565b600080604083850312156143b3576143b26142fe565b5b60006143c185828601614351565b92505060206143d285828601614387565b9150509250929050565b6143e581614366565b82525050565b600060208201905061440060008301846143dc565b92915050565b60007fffffffff0000000000000000000000000000000000000000000000000000000082169050919050565b61443b81614406565b811461444657600080fd5b50565b60008135905061445881614432565b92915050565b600060208284031215614474576144736142fe565b5b600061448284828501614449565b91505092915050565b60008115159050919050565b6144a08161448b565b82525050565b60006020820190506144bb6000830184614497565b92915050565b6000602082840312156144d7576144d66142fe565b5b60006144e584828501614387565b91505092915050565b600081519050919050565b600082825260208201905092915050565b60005b8381101561452857808201518184015260208101905061450d565b60008484015250505050565b6000601f19601f8301169050919050565b6000614550826144ee565b61455a81856144f9565b935061456a81856020860161450a565b61457381614534565b840191505092915050565b600060208201905081810360008301526145988184614545565b905092915050565b600080fd5b7f4e487b7100000000000000000000000000000000000000000000000000000000600052604160045260246000fd5b6145dd82614534565b810181811067ffffffffffffffff821117156145fc576145fb6145a5565b5b80604052505050565b600061460f6142f4565b905061461b82826145d4565b919050565b600067ffffffffffffffff82111561463b5761463a6145a5565b5b602082029050602081019050919050565b600080fd5b600061466461465f84614620565b614605565b905080838252602082019050602084028301858111156146875761468661464c565b5b835b818110156146b0578061469c8882614387565b845260208401935050602081019050614689565b5050509392505050565b600082601f8301126146cf576146ce6145a0565b5b81356146df848260208601614651565b91505092915050565b600080fd5b600067ffffffffffffffff821115614708576147076145a5565b5b61471182614534565b9050602081019050919050565b82818337600083830152505050565b600061474061473b846146ed565b614605565b90508281526020810184848401111561475c5761475b6146e8565b5b61476784828561471e565b509392505050565b600082601f830112614784576147836145a0565b5b813561479484826020860161472d565b91505092915050565b600080600080600060a086880312156147b9576147b86142fe565b5b60006147c788828901614351565b95505060206147d888828901614351565b945050604086013567ffffffffffffffff8111156147f9576147f8614303565b5b614805888289016146ba565b935050606086013567ffffffffffffffff81111561482657614825614303565b5b614832888289016146ba565b925050608086013567ffffffffffffffff81111561485357614852614303565b5b61485f8882890161476f565b9150509295509295909350565b600060ff82169050919050565b6148828161486c565b811461488d57600080fd5b50565b60008135905061489f81614879565b92915050565b600067ffffffffffffffff8211156148c0576148bf6145a5565b5b602082029050602081019050919050565b60006148e46148df846148a5565b614605565b905080838252602082019050602084028301858111156149075761490661464c565b5b835b81811015614930578061491c8882614351565b845260208401935050602081019050614909565b5050509392505050565b600082601f83011261494f5761494e6145a0565b5b813561495f8482602086016148d1565b91505092915050565b60008060008060808587031215614982576149816142fe565b5b600061499087828801614387565b94505060206149a187828801614890565b935050604085013567ffffffffffffffff8111156149c2576149c1614303565b5b6149ce878288016146ba565b925050606085013567ffffffffffffffff8111156149ef576149ee614303565b5b6149fb8782880161493a565b91505092959194509250565b60008060408385031215614a1e57614a1d6142fe565b5b600083013567ffffffffffffffff811115614a3c57614a3b614303565b5b614a488582860161493a565b925050602083013567ffffffffffffffff811115614a6957614a68614303565b5b614a75858286016146ba565b9150509250929050565b600081519050919050565b600082825260208201905092915050565b6000819050602082019050919050565b614ab481614366565b82525050565b6000614ac68383614aab565b60208301905092915050565b6000602082019050919050565b6000614aea82614a7f565b614af48185614a8a565b9350614aff83614a9b565b8060005b83811015614b30578151614b178882614aba565b9750614b2283614ad2565b925050600181019050614b03565b5085935050505092915050565b60006020820190508181036000830152614b578184614adf565b905092915050565b614b6881614328565b82525050565b6000602082019050614b836000830184614b5f565b92915050565b614b928161448b565b8114614b9d57600080fd5b50565b600081359050614baf81614b89565b92915050565b60008060408385031215614bcc57614bcb6142fe565b5b6000614bda85828601614351565b9250506020614beb85828601614ba0565b9150509250929050565b600067ffffffffffffffff821115614c1057614c0f6145a5565b5b602082029050602081019050919050565b600067ffffffffffffffff821115614c3c57614c3b6145a5565b5b614c4582614534565b9050602081019050919050565b6000614c65614c6084614c21565b614605565b905082815260208101848484011115614c8157614c806146e8565b5b614c8c84828561471e565b509392505050565b600082601f830112614ca957614ca86145a0565b5b8135614cb9848260208601614c52565b91505092915050565b6000614cd5614cd084614bf5565b614605565b90508083825260208201905060208402830185811115614cf857614cf761464c565b5b835b81811015614d3f57803567ffffffffffffffff811115614d1d57614d1c6145a0565b5b808601614d2a8982614c94565b85526020850194505050602081019050614cfa565b5050509392505050565b600082601f830112614d5e57614d5d6145a0565b5b8135614d6e848260208601614cc2565b91505092915050565b60008060008060008060008060006101208a8c031215614d9a57614d996142fe565b5b6000614da88c828d01614387565b9950506020614db98c828d01614387565b9850506040614dca8c828d01614387565b9750506060614ddb8c828d01614387565b9650506080614dec8c828d01614890565b95505060a0614dfd8c828d01614890565b94505060c0614e0e8c828d01614351565b93505060e0614e1f8c828d01614351565b9250506101008a013567ffffffffffffffff811115614e4157614e40614303565b5b614e4d8c828d01614d49565b9150509295985092959850929598565b60008060408385031215614e7457614e736142fe565b5b6000614e8285828601614351565b9250506020614e9385828601614351565b9150509250929050565b600080600080600060a08688031215614eb957614eb86142fe565b5b6000614ec788828901614351565b9550506020614ed888828901614351565b9450506040614ee988828901614387565b9350506060614efa88828901614387565b925050608086013567ffffffffffffffff811115614f1b57614f1a614303565b5b614f278882890161476f565b9150509295509295909350565b600060208284031215614f4a57614f496142fe565b5b6000614f5884828501614351565b91505092915050565b614f6a8161486c565b82525050565b6000608082019050614f8560008301876143dc565b614f926020830186614f61565b614f9f6040830185614f61565b614fac6060830184614f61565b95945050505050565b7f455243313135353a2061646472657373207a65726f206973206e6f742061207660008201527f616c6964206f776e657200000000000000000000000000000000000000000000602082015250565b6000615011602a836144f9565b915061501c82614fb5565b604082019050919050565b6000602082019050818103600083015261504081615004565b9050919050565b7f4e487b7100000000000000000000000000000000000000000000000000000000600052602260045260246000fd5b6000600282049050600182168061508e57607f821691505b6020821081036150a1576150a0615047565b5b50919050565b7f455243313135353a2063616c6c6572206973206e6f7420746f6b656e206f776e60008201527f6572206f7220617070726f766564000000000000000000000000000000000000602082015250565b6000615103602e836144f9565b915061510e826150a7565b604082019050919050565b60006020820190508181036000830152615132816150f6565b9050919050565b7f455243313135353a206163636f756e747320616e6420696473206c656e67746860008201527f206d69736d617463680000000000000000000000000000000000000000000000602082015250565b60006151956029836144f9565b91506151a082615139565b604082019050919050565b600060208201905081810360008301526151c481615188565b9050919050565b7f4e487b7100000000000000000000000000000000000000000000000000000000600052603260045260246000fd5b7f4e487b7100000000000000000000000000000000000000000000000000000000600052601160045260246000fd5b600061523482614366565b91507fffffffffffffffffffffffffffffffffffffffffffffffffffffffffffffffff8203615266576152656151fa565b5b600182019050919050565b600081905092915050565b60008190508160005260206000209050919050565b6000815461529e81615076565b6152a88186615271565b945060018216600081146152c357600181146152d85761530b565b60ff198316865281151582028601935061530b565b6152e18561527c565b60005b83811015615303578154818901526001820191506020810190506152e4565b838801955050505b50505092915050565b60006153208284615291565b915081905092915050565b7f52454a5556453a2043616e6e6f742073616c6520353025206f6620736861726460008201527f73206265666f7265206c6f636b696e6720706572696f64000000000000000000602082015250565b60006153876037836144f9565b91506153928261532b565b604082019050919050565b600060208201905081810360008301526153b68161537a565b9050919050565b7f4f776e61626c653a206e6577206f776e657220697320746865207a65726f206160008201527f6464726573730000000000000000000000000000000000000000000000000000602082015250565b60006154196026836144f9565b9150615424826153bd565b604082019050919050565b600060208201905081810360008301526154488161540c565b9050919050565b7f455243313135353a2069647320616e6420616d6f756e7473206c656e6774682060008201527f6d69736d61746368000000000000000000000000000000000000000000000000602082015250565b60006154ab6028836144f9565b91506154b68261544f565b604082019050919050565b600060208201905081810360008301526154da8161549e565b9050919050565b7f455243313135353a207472616e7366657220746f20746865207a65726f20616460008201527f6472657373000000000000000000000000000000000000000000000000000000602082015250565b600061553d6025836144f9565b9150615548826154e1565b604082019050919050565b6000602082019050818103600083015261556c81615530565b9050919050565b7f455243313135353a20696e73756666696369656e742062616c616e636520666f60008201527f72207472616e7366657200000000000000000000000000000000000000000000602082015250565b60006155cf602a836144f9565b91506155da82615573565b604082019050919050565b600060208201905081810360008301526155fe816155c2565b9050919050565b600061561082614366565b915061561b83614366565b9250828201905080821115615633576156326151fa565b5b92915050565b600060408201905081810360008301526156538185614adf565b905081810360208301526156678184614adf565b90509392505050565b7f4f776e61626c653a2063616c6c6572206973206e6f7420746865206f776e6572600082015250565b60006156a66020836144f9565b91506156b182615670565b602082019050919050565b600060208201905081810360008301526156d581615699565b9050919050565b7f5061757361626c653a2070617573656400000000000000000000000000000000600082015250565b60006157126010836144f9565b915061571d826156dc565b602082019050919050565b6000602082019050818103600083015261574181615705565b9050919050565b7f52454a5556453a204e6f7420657175616c206c656e6774680000000000000000600082015250565b600061577e6018836144f9565b915061578982615748565b602082019050919050565b600060208201905081810360008301526157ad81615771565b9050919050565b7f52454a5556453a204675747572652070657263656e746167652073686172652060008201527f63616e6e6f74206265207a65726f000000000000000000000000000000000000602082015250565b6000615810602e836144f9565b915061581b826157b4565b604082019050919050565b6000602082019050818103600083015261583f81615803565b9050919050565b600081519050919050565b600082825260208201905092915050565b6000819050602082019050919050565b61587b81614328565b82525050565b600061588d8383615872565b60208301905092915050565b6000602082019050919050565b60006158b182615846565b6158bb8185615851565b93506158c683615862565b8060005b838110156158f75781516158de8882615881565b97506158e983615899565b9250506001810190506158ca565b5085935050505092915050565b600081549050919050565b60008190508160005260206000209050919050565b60008160001c9050919050565b6000819050919050565b600061594e61594983615924565b615931565b9050919050565b6000615961825461593b565b9050919050565b6000600182019050919050565b600061598082615904565b61598a8185614a8a565b93506159958361590f565b8060005b838110156159cd576159aa82615955565b6159b48882614aba565b97506159bf83615968565b925050600181019050615999565b5085935050505092915050565b60006060820190506159ef60008301866143dc565b8181036020830152615a0181856158a6565b90508181036040830152615a158184615975565b9050949350505050565b7f455243313135353a2073657474696e6720617070726f76616c2073746174757360008201527f20666f722073656c660000000000000000000000000000000000000000000000602082015250565b6000615a7b6029836144f9565b9150615a8682615a1f565b604082019050919050565b60006020820190508181036000830152615aaa81615a6e565b9050919050565b600081549050919050565b60008190508160005260206000209050919050565b600073ffffffffffffffffffffffffffffffffffffffff82169050919050565b6000615b04615aff83615924565b615ad1565b9050919050565b6000615b178254615af1565b9050919050565b6000600182019050919050565b6000615b3682615ab1565b615b408185615851565b9350615b4b83615abc565b8060005b83811015615b8357615b6082615b0b565b615b6a8882615881565b9750615b7583615b1e565b925050600181019050615b4f565b5085935050505092915050565b6000606082019050615ba560008301866143dc565b8181036020830152615bb78185615b2b565b90508181036040830152615bcb8184615975565b9050949350505050565b7f455243313135353a2063616c6c6572206973206e6f74206f776e6572206e6f7260008201527f20617070726f7665640000000000000000000000000000000000000000000000602082015250565b6000615c316029836144f9565b9150615c3c82615bd5565b604082019050919050565b60006020820190508181036000830152615c6081615c24565b9050919050565b600081519050919050565b600082825260208201905092915050565b6000615c8e82615c67565b615c988185615c72565b9350615ca881856020860161450a565b615cb181614534565b840191505092915050565b600060a082019050615cd16000830188614b5f565b615cde6020830187614b5f565b8181036040830152615cf08186614adf565b90508181036060830152615d048185614adf565b90508181036080830152615d188184615c83565b90509695505050505050565b600081519050615d3381614432565b92915050565b600060208284031215615d4f57615d4e6142fe565b5b6000615d5d84828501615d24565b91505092915050565b60008160e01c9050919050565b600060033d1115615d925760046000803e615d8f600051615d66565b90505b90565b600060443d10615e2257615da76142f4565b60043d036004823e80513d602482011167ffffffffffffffff82111715615dcf575050615e22565b808201805167ffffffffffffffff811115615ded5750505050615e22565b80602083010160043d038501811115615e0a575050505050615e22565b615e19826020018501866145d4565b82955050505050505b90565b7f455243313135353a207472616e7366657220746f206e6f6e2d4552433131353560008201527f526563656976657220696d706c656d656e746572000000000000000000000000602082015250565b6000615e816034836144f9565b9150615e8c82615e25565b604082019050919050565b60006020820190508181036000830152615eb081615e74565b9050919050565b7f455243313135353a204552433131353552656365697665722072656a6563746560008201527f6420746f6b656e73000000000000000000000000000000000000000000000000602082015250565b6000615f136028836144f9565b9150615f1e82615eb7565b604082019050919050565b60006020820190508181036000830152615f4281615f06565b9050919050565b7f5061757361626c653a206e6f7420706175736564000000000000000000000000600082015250565b6000615f7f6014836144f9565b9150615f8a82615f49565b602082019050919050565b60006020820190508181036000830152615fae81615f72565b9050919050565b6000615fc082614366565b9150615fcb83614366565b9250828202615fd981614366565b91508282048414831517615ff057615fef6151fa565b5b5092915050565b7f4e487b7100000000000000000000000000000000000000000000000000000000600052601260045260246000fd5b600061603182614366565b915061603c83614366565b92508261604c5761604b615ff7565b5b828204905092915050565b600061606282614366565b915061606d83614366565b9250828203905081811115616085576160846151fa565b5b92915050565b7f455243313135353a206d696e7420746f20746865207a65726f2061646472657360008201527f7300000000000000000000000000000000000000000000000000000000000000602082015250565b60006160e76021836144f9565b91506160f28261608b565b604082019050919050565b60006020820190508181036000830152616116816160da565b9050919050565b7f52454a5556453a204c6f636b20706572696f642063616e6e6f74206265207a6560008201527f726f000000000000000000000000000000000000000000000000000000000000602082015250565b60006161796022836144f9565b91506161848261611d565b604082019050919050565b600060208201905081810360008301526161a88161616c565b9050919050565b7f52454a5556453a2054617267657420737570706c792063616e6e6f742062652060008201527f3000000000000000000000000000000000000000000000000000000000000000602082015250565b600061620b6021836144f9565b9150616216826161af565b604082019050919050565b6000602082019050818103600083015261623a816161fe565b9050919050565b7f52454a5556453a20496e697469616c20636f6e7472696275746f72732070657260008201527f63656e742063616e6e6f74206265203000000000000000000000000000000000602082015250565b600061629d6030836144f9565b91506162a882616241565b604082019050919050565b600060208201905081810360008301526162cc81616290565b9050919050565b60008190508160005260206000209050919050565b60006020601f8301049050919050565b600082821b905092915050565b6000600883026163357fffffffffffffffffffffffffffffffffffffffffffffffffffffffffffffffff826162f8565b61633f86836162f8565b95508019841693508086168417925050509392505050565b6000819050919050565b600061637c61637761637284614366565b616357565b614366565b9050919050565b6000819050919050565b61639683616361565b6163aa6163a282616383565b848454616305565b825550505050565b600090565b6163bf6163b2565b6163ca81848461638d565b505050565b5b818110156163ee576163e36000826163b7565b6001810190506163d0565b5050565b601f82111561643357616404816162d3565b61640d846162e8565b8101602085101561641c578190505b616430616428856162e8565b8301826163cf565b50505b505050565b600082821c905092915050565b600061645660001984600802616438565b1980831691505092915050565b600061646f8383616445565b9150826002028217905092915050565b616488826144ee565b67ffffffffffffffff8111156164a1576164a06145a5565b5b6164ab8254615076565b6164b68282856163f2565b600060209050601f8311600181146164e957600084156164d7578287015190505b6164e18582616463565b865550616549565b601f1984166164f7866162d3565b60005b8281101561651f578489015182556001820191506020850194506020810190506164fa565b8683101561653c5784890151616538601f891682616445565b8355505b6001600288020188555050505b505050505050565b600061655c8261486c565b915060ff820361656f5761656e6151fa565b5b600182019050919050565b600067ffffffffffffffff821115616595576165946145a5565b5b602082029050602081019050919050565b60006165b96165b4846146ed565b614605565b9050828152602081018484840111156165d5576165d46146e8565b5b6165e084828561450a565b509392505050565b600082601f8301126165fd576165fc6145a0565b5b815161660d8482602086016165a6565b91505092915050565b60006166296166248461657a565b614605565b9050808382526020820190506020840283018581111561664c5761664b61464c565b5b835b8181101561669357805167ffffffffffffffff811115616671576166706145a0565b5b80860161667e89826165e8565b8552602085019450505060208101905061664e565b5050509392505050565b600082601f8301126166b2576166b16145a0565b5b81516166c2848260208601616616565b91505092915050565b6000602082840312156166e1576166e06142fe565b5b600082015167ffffffffffffffff8111156166ff576166fe614303565b5b61670b8482850161669d565b91505092915050565b60008151905061672381614370565b92915050565b60006020828403121561673f5761673e6142fe565b5b600061674d84828501616714565b91505092915050565b600060208201905081810360008301526167708184615c83565b905092915050565b6000815190506167878161433a565b92915050565b6000602082840312156167a3576167a26142fe565b5b60006167b184828501616778565b91505092915050565b600060408201905081810360008301526167d48185615c83565b90506167e360208301846143dc565b9392505050565b60006040820190506167ff60008301856143dc565b61680c60208301846143dc565b9392505050565b600060a0820190506168286000830188614b5f565b6168356020830187614b5f565b61684260408301866143dc565b61684f60608301856143dc565b81810360808301526168618184615c83565b9050969550505050505056fea26469706673582212207cd2b3b3dc6fae9c282c1238c662054d56bc5ffe1ff5231808a507a4a5cc0f3464736f6c63430008110033",
  "linkReferences": {},
  "deployedLinkReferences": {}
}