{
  "_format": "hh-sol-artifact-1",
  "contractName": "TransferShards",
  "sourceName": "contracts/TransferShards.sol",
  "abi": [
    {
      "inputs": [
        {
          "internalType": "string",
          "name": "uri_",
          "type": "string"
        },
        {
          "internalType": "address",
          "name": "productNFT_",
          "type": "address"
        }
      ],
      "stateMutability": "nonpayable",
      "type": "constructor"
    },
    {
      "anonymous": false,
      "inputs": [
        {
          "indexed": true,
          "internalType": "address",
          "name": "account",
          "type": "address"
        },
        {
          "indexed": true,
          "internalType": "address",
          "name": "operator",
          "type": "address"
        },
        {
          "indexed": false,
          "internalType": "bool",
          "name": "approved",
          "type": "bool"
        }
      ],
      "name": "ApprovalForAll",
      "type": "event"
    },
    {
      "anonymous": false,
      "inputs": [
        {
          "indexed": false,
          "internalType": "uint256",
          "name": "productUID",
          "type": "uint256"
        },
        {
          "indexed": false,
          "internalType": "address[]",
          "name": "dataOwners",
          "type": "address[]"
        },
        {
          "indexed": false,
          "internalType": "uint256[]",
          "name": "shardAmount",
          "type": "uint256[]"
        }
      ],
      "name": "FutureShardDistributed",
      "type": "event"
    },
    {
      "anonymous": false,
      "inputs": [
        {
          "indexed": false,
          "internalType": "uint256",
          "name": "productUID",
          "type": "uint256"
        },
        {
          "indexed": false,
          "internalType": "address[]",
          "name": "dataOwners",
          "type": "address[]"
        },
        {
          "indexed": false,
          "internalType": "uint256[]",
          "name": "shardAmount",
          "type": "uint256[]"
        }
      ],
      "name": "InitialShardDistributed",
      "type": "event"
    },
    {
      "anonymous": false,
      "inputs": [
        {
          "indexed": true,
          "internalType": "address",
          "name": "previousOwner",
          "type": "address"
        },
        {
          "indexed": true,
          "internalType": "address",
          "name": "newOwner",
          "type": "address"
        }
      ],
      "name": "OwnershipTransferred",
      "type": "event"
    },
    {
      "anonymous": false,
      "inputs": [
        {
          "indexed": false,
          "internalType": "address",
          "name": "account",
          "type": "address"
        }
      ],
      "name": "Paused",
      "type": "event"
    },
    {
      "anonymous": false,
      "inputs": [
        {
          "indexed": false,
          "internalType": "uint256",
          "name": "productUID",
          "type": "uint256"
        },
        {
          "indexed": false,
          "internalType": "address",
          "name": "rejuve",
          "type": "address"
        },
        {
          "indexed": false,
          "internalType": "uint256",
          "name": "shardAmount",
          "type": "uint256"
        }
      ],
      "name": "RemainingShardAllocated",
      "type": "event"
    },
    {
      "anonymous": false,
      "inputs": [
        {
          "indexed": true,
          "internalType": "address",
          "name": "operator",
          "type": "address"
        },
        {
          "indexed": true,
          "internalType": "address",
          "name": "from",
          "type": "address"
        },
        {
          "indexed": true,
          "internalType": "address",
          "name": "to",
          "type": "address"
        },
        {
          "indexed": false,
          "internalType": "uint256[]",
          "name": "ids",
          "type": "uint256[]"
        },
        {
          "indexed": false,
          "internalType": "uint256[]",
          "name": "values",
          "type": "uint256[]"
        }
      ],
      "name": "TransferBatch",
      "type": "event"
    },
    {
      "anonymous": false,
      "inputs": [
        {
          "indexed": true,
          "internalType": "address",
          "name": "operator",
          "type": "address"
        },
        {
          "indexed": true,
          "internalType": "address",
          "name": "from",
          "type": "address"
        },
        {
          "indexed": true,
          "internalType": "address",
          "name": "to",
          "type": "address"
        },
        {
          "indexed": false,
          "internalType": "uint256",
          "name": "id",
          "type": "uint256"
        },
        {
          "indexed": false,
          "internalType": "uint256",
          "name": "value",
          "type": "uint256"
        }
      ],
      "name": "TransferSingle",
      "type": "event"
    },
    {
      "anonymous": false,
      "inputs": [
        {
          "indexed": false,
          "internalType": "string",
          "name": "value",
          "type": "string"
        },
        {
          "indexed": true,
          "internalType": "uint256",
          "name": "id",
          "type": "uint256"
        }
      ],
      "name": "URI",
      "type": "event"
    },
    {
      "anonymous": false,
      "inputs": [
        {
          "indexed": false,
          "internalType": "address",
          "name": "account",
          "type": "address"
        }
      ],
      "name": "Unpaused",
      "type": "event"
    },
    {
      "inputs": [
        {
          "internalType": "address",
          "name": "account",
          "type": "address"
        },
        {
          "internalType": "uint256",
          "name": "id",
          "type": "uint256"
        }
      ],
      "name": "balanceOf",
      "outputs": [
        {
          "internalType": "uint256",
          "name": "",
          "type": "uint256"
        }
      ],
      "stateMutability": "view",
      "type": "function"
    },
    {
      "inputs": [
        {
          "internalType": "address[]",
          "name": "accounts",
          "type": "address[]"
        },
        {
          "internalType": "uint256[]",
          "name": "ids",
          "type": "uint256[]"
        }
      ],
      "name": "balanceOfBatch",
      "outputs": [
        {
          "internalType": "uint256[]",
          "name": "",
          "type": "uint256[]"
        }
      ],
      "stateMutability": "view",
      "type": "function"
    },
    {
      "inputs": [],
      "name": "checkTimeStamp",
      "outputs": [
        {
          "internalType": "uint256",
          "name": "",
          "type": "uint256"
        }
      ],
      "stateMutability": "view",
      "type": "function"
    },
    {
      "inputs": [
        {
          "internalType": "uint256",
          "name": "_productUID",
          "type": "uint256"
        },
        {
          "internalType": "uint8",
          "name": "_futurePercent",
          "type": "uint8"
        },
        {
          "internalType": "uint256[]",
          "name": "_credits",
          "type": "uint256[]"
        },
        {
          "internalType": "address[]",
          "name": "_futureContributors",
          "type": "address[]"
        }
      ],
      "name": "distributeFutureShards",
      "outputs": [],
      "stateMutability": "nonpayable",
      "type": "function"
    },
    {
      "inputs": [
        {
          "internalType": "uint256",
          "name": "_productUID",
          "type": "uint256"
        },
        {
          "internalType": "uint256",
          "name": "_targetSupply",
          "type": "uint256"
        },
        {
          "internalType": "uint256",
          "name": "_labCredit",
          "type": "uint256"
        },
        {
          "internalType": "uint256",
          "name": "_lockPeriod",
          "type": "uint256"
        },
        {
          "internalType": "uint8",
          "name": "_initialPercent",
          "type": "uint8"
        },
        {
          "internalType": "uint8",
          "name": "_rejuvePercent",
          "type": "uint8"
        },
        {
          "internalType": "address",
          "name": "_lab",
          "type": "address"
        },
        {
          "internalType": "address",
          "name": "_rejuve",
          "type": "address"
        },
        {
          "internalType": "string[]",
          "name": "_uris",
          "type": "string[]"
        }
      ],
      "name": "distributeInitialShards",
      "outputs": [],
      "stateMutability": "nonpayable",
      "type": "function"
    },
    {
      "inputs": [
        {
          "internalType": "uint256",
          "name": "_productUID",
          "type": "uint256"
        }
      ],
      "name": "getShardsConfig",
      "outputs": [
        {
          "internalType": "uint256",
          "name": "",
          "type": "uint256"
        },
        {
          "internalType": "uint8",
          "name": "",
          "type": "uint8"
        },
        {
          "internalType": "uint8",
          "name": "",
          "type": "uint8"
        },
        {
          "internalType": "uint8",
          "name": "",
          "type": "uint8"
        }
      ],
      "stateMutability": "view",
      "type": "function"
    },
    {
      "inputs": [
        {
          "internalType": "address",
          "name": "account",
          "type": "address"
        },
        {
          "internalType": "address",
          "name": "operator",
          "type": "address"
        }
      ],
      "name": "isApprovedForAll",
      "outputs": [
        {
          "internalType": "bool",
          "name": "",
          "type": "bool"
        }
      ],
      "stateMutability": "view",
      "type": "function"
    },
    {
      "inputs": [],
      "name": "owner",
      "outputs": [
        {
          "internalType": "address",
          "name": "",
          "type": "address"
        }
      ],
      "stateMutability": "view",
      "type": "function"
    },
    {
      "inputs": [],
      "name": "pause",
      "outputs": [],
      "stateMutability": "nonpayable",
      "type": "function"
    },
    {
      "inputs": [],
      "name": "paused",
      "outputs": [
        {
          "internalType": "bool",
          "name": "",
          "type": "bool"
        }
      ],
      "stateMutability": "view",
      "type": "function"
    },
    {
      "inputs": [],
      "name": "renounceOwnership",
      "outputs": [],
      "stateMutability": "nonpayable",
      "type": "function"
    },
    {
      "inputs": [
        {
          "internalType": "address",
          "name": "from",
          "type": "address"
        },
        {
          "internalType": "address",
          "name": "to",
          "type": "address"
        },
        {
          "internalType": "uint256[]",
          "name": "ids",
          "type": "uint256[]"
        },
        {
          "internalType": "uint256[]",
          "name": "amounts",
          "type": "uint256[]"
        },
        {
          "internalType": "bytes",
          "name": "data",
          "type": "bytes"
        }
      ],
      "name": "safeBatchTransferFrom",
      "outputs": [],
      "stateMutability": "nonpayable",
      "type": "function"
    },
    {
      "inputs": [
        {
          "internalType": "address",
          "name": "from",
          "type": "address"
        },
        {
          "internalType": "address",
          "name": "to",
          "type": "address"
        },
        {
          "internalType": "uint256",
          "name": "id",
          "type": "uint256"
        },
        {
          "internalType": "uint256",
          "name": "amount",
          "type": "uint256"
        },
        {
          "internalType": "bytes",
          "name": "data",
          "type": "bytes"
        }
      ],
      "name": "safeTransferFrom",
      "outputs": [],
      "stateMutability": "nonpayable",
      "type": "function"
    },
    {
      "inputs": [
        {
          "internalType": "address",
          "name": "operator",
          "type": "address"
        },
        {
          "internalType": "bool",
          "name": "approved",
          "type": "bool"
        }
      ],
      "name": "setApprovalForAll",
      "outputs": [],
      "stateMutability": "nonpayable",
      "type": "function"
    },
    {
      "inputs": [
        {
          "internalType": "bytes4",
          "name": "interfaceId",
          "type": "bytes4"
        }
      ],
      "name": "supportsInterface",
      "outputs": [
        {
          "internalType": "bool",
          "name": "",
          "type": "bool"
        }
      ],
      "stateMutability": "view",
      "type": "function"
    },
    {
      "inputs": [
        {
          "internalType": "uint256",
          "name": "_productUID",
          "type": "uint256"
        }
      ],
      "name": "targetSupply",
      "outputs": [
        {
          "internalType": "uint256",
          "name": "",
          "type": "uint256"
        }
      ],
      "stateMutability": "view",
      "type": "function"
    },
    {
      "inputs": [
        {
          "internalType": "uint256",
          "name": "_productUID",
          "type": "uint256"
        }
      ],
      "name": "totalShardSupply",
      "outputs": [
        {
          "internalType": "uint256",
          "name": "",
          "type": "uint256"
        }
      ],
      "stateMutability": "view",
      "type": "function"
    },
    {
      "inputs": [
        {
          "internalType": "address",
          "name": "newOwner",
          "type": "address"
        }
      ],
      "name": "transferOwnership",
      "outputs": [],
      "stateMutability": "nonpayable",
      "type": "function"
    },
    {
      "inputs": [],
      "name": "unpause",
      "outputs": [],
      "stateMutability": "nonpayable",
      "type": "function"
    },
    {
      "inputs": [
        {
          "internalType": "uint256",
          "name": "_id",
          "type": "uint256"
        }
      ],
      "name": "uri",
      "outputs": [
        {
          "internalType": "string",
          "name": "",
          "type": "string"
        }
      ],
      "stateMutability": "view",
      "type": "function"
    }
  ],
  "bytecode": "0x60806040523480156200001157600080fd5b50604051620070bc380380620070bc833981810160405281019062000037919062000427565b81818181816200005c620000506200014560201b60201c565b6200014d60201b60201c565b60008060146101000a81548160ff02191690831515021790555062000087816200021160201b60201c565b50620000a467be7a4c32fa37f94a60c01b6200022660201b60201c565b620000c0679d6e82f1478f704660c01b6200022660201b60201c565b80600460006101000a81548173ffffffffffffffffffffffffffffffffffffffff021916908373ffffffffffffffffffffffffffffffffffffffff16021790555050506200011f671af0266312c6f25e60c01b6200022960201b60201c565b50506200013d67748ae91b35eb9b5760c01b6200022c60201b60201c565b5050620007bf565b600033905090565b60008060009054906101000a900473ffffffffffffffffffffffffffffffffffffffff169050816000806101000a81548173ffffffffffffffffffffffffffffffffffffffff021916908373ffffffffffffffffffffffffffffffffffffffff1602179055508173ffffffffffffffffffffffffffffffffffffffff168173ffffffffffffffffffffffffffffffffffffffff167f8be0079c531659141344cd1fd0a4f28419497f9722a3daafe3b4186f6b6457e060405160405180910390a35050565b8060039081620002229190620006d8565b5050565b50565b50565b50565b6000604051905090565b600080fd5b600080fd5b600080fd5b600080fd5b6000601f19601f8301169050919050565b7f4e487b7100000000000000000000000000000000000000000000000000000000600052604160045260246000fd5b62000298826200024d565b810181811067ffffffffffffffff82111715620002ba57620002b96200025e565b5b80604052505050565b6000620002cf6200022f565b9050620002dd82826200028d565b919050565b600067ffffffffffffffff8211156200030057620002ff6200025e565b5b6200030b826200024d565b9050602081019050919050565b60005b83811015620003385780820151818401526020810190506200031b565b60008484015250505050565b60006200035b6200035584620002e2565b620002c3565b9050828152602081018484840111156200037a576200037962000248565b5b6200038784828562000318565b509392505050565b600082601f830112620003a757620003a662000243565b5b8151620003b984826020860162000344565b91505092915050565b600073ffffffffffffffffffffffffffffffffffffffff82169050919050565b6000620003ef82620003c2565b9050919050565b6200040181620003e2565b81146200040d57600080fd5b50565b6000815190506200042181620003f6565b92915050565b6000806040838503121562000441576200044062000239565b5b600083015167ffffffffffffffff8111156200046257620004616200023e565b5b62000470858286016200038f565b9250506020620004838582860162000410565b9150509250929050565b600081519050919050565b7f4e487b7100000000000000000000000000000000000000000000000000000000600052602260045260246000fd5b60006002820490506001821680620004e057607f821691505b602082108103620004f657620004f562000498565b5b50919050565b60008190508160005260206000209050919050565b60006020601f8301049050919050565b600082821b905092915050565b600060088302620005607fffffffffffffffffffffffffffffffffffffffffffffffffffffffffffffffff8262000521565b6200056c868362000521565b95508019841693508086168417925050509392505050565b6000819050919050565b6000819050919050565b6000620005b9620005b3620005ad8462000584565b6200058e565b62000584565b9050919050565b6000819050919050565b620005d58362000598565b620005ed620005e482620005c0565b8484546200052e565b825550505050565b600090565b62000604620005f5565b62000611818484620005ca565b505050565b5b8181101562000639576200062d600082620005fa565b60018101905062000617565b5050565b601f82111562000688576200065281620004fc565b6200065d8462000511565b810160208510156200066d578190505b620006856200067c8562000511565b83018262000616565b50505b505050565b600082821c905092915050565b6000620006ad600019846008026200068d565b1980831691505092915050565b6000620006c883836200069a565b9150826002028217905092915050565b620006e3826200048d565b67ffffffffffffffff811115620006ff57620006fe6200025e565b5b6200070b8254620004c7565b620007188282856200063d565b600060209050601f8311600181146200075057600084156200073b578287015190505b620007478582620006ba565b865550620007b7565b601f1984166200076086620004fc565b60005b828110156200078a5784890151825560018201915060208501945060208101905062000763565b86831015620007aa5784890151620007a6601f8916826200069a565b8355505b6001600288020188555050505b505050505050565b6168ed80620007cf6000396000f3fe608060405234801561001057600080fd5b506004361061012b5760003560e01c80638456cb59116100ad578063d6e0dbda11610071578063d6e0dbda14610308578063e985e9c514610338578063f242432a14610368578063f2fde38b14610384578063fac795c0146103a05761012b565b80638456cb59146102785780638da5cb5b14610282578063936906f1146102a0578063a22cb465146102d0578063d429c758146102ec5761012b565b80634567db03116100f45780634567db03146101e65780634e1273f4146102025780635226e184146102325780635c975abb14610250578063715018a61461026e5761012b565b8062fdd58e1461013057806301ffc9a7146101605780630e89341c146101905780632eb2c2d6146101c05780633f4ba83a146101dc575b600080fd5b61014a600480360381019061014591906143e6565b6103d3565b6040516101579190614435565b60405180910390f35b61017a600480360381019061017591906144a8565b61049c565b60405161018791906144f0565b60405180910390f35b6101aa60048036038101906101a5919061450b565b61057e565b6040516101b791906145c8565b60405180910390f35b6101da60048036038101906101d591906147e7565b61065f565b005b6101e4610700565b005b61020060048036038101906101fb91906149b2565b610776565b005b61021c60048036038101906102179190614a51565b610824565b6040516102299190614b87565b60405180910390f35b61023a61093d565b6040516102479190614435565b60405180910390f35b610258610943565b60405161026591906144f0565b60405180910390f35b610276610959565b005b61028061096d565b005b61028a6109e3565b6040516102979190614bb8565b60405180910390f35b6102ba60048036038101906102b5919061450b565b610a0c565b6040516102c79190614435565b60405180910390f35b6102ea60048036038101906102e59190614bff565b610a68565b005b61030660048036038101906103019190614dc1565b610a7e565b005b610322600480360381019061031d919061450b565b610b36565b60405161032f9190614435565b60405180910390f35b610352600480360381019061034d9190614ea7565b610b92565b60405161035f91906144f0565b60405180910390f35b610382600480360381019061037d9190614ee7565b610c26565b005b61039e60048036038101906103999190614f7e565b610e3e565b005b6103ba60048036038101906103b5919061450b565b610ec1565b6040516103ca9493929190614fba565b60405180910390f35b60008073ffffffffffffffffffffffffffffffffffffffff168373ffffffffffffffffffffffffffffffffffffffff1603610443576040517f08c379a000000000000000000000000000000000000000000000000000000000815260040161043a90615071565b60405180910390fd5b6001600083815260200190815260200160002060008473ffffffffffffffffffffffffffffffffffffffff1673ffffffffffffffffffffffffffffffffffffffff16815260200190815260200160002054905092915050565b60007fd9b67a26000000000000000000000000000000000000000000000000000000007bffffffffffffffffffffffffffffffffffffffffffffffffffffffff1916827bffffffffffffffffffffffffffffffffffffffffffffffffffffffff1916148061056757507f0e89341c000000000000000000000000000000000000000000000000000000007bffffffffffffffffffffffffffffffffffffffffffffffffffffffff1916827bffffffffffffffffffffffffffffffffffffffffffffffffffffffff1916145b80610577575061057682610f95565b5b9050919050565b606061059467493357078ae76e6d60c01b610fff565b6105a8675845920bfb995b6060c01b610fff565b6105bc677c2173065874bc9e60c01b610fff565b600e600083815260200190815260200160002080546105da906150c0565b80601f0160208091040260200160405190810160405280929190818152602001828054610606906150c0565b80156106535780601f1061062857610100808354040283529160200191610653565b820191906000526020600020905b81548152906001019060200180831161063657829003601f168201915b50505050509050919050565b610667611002565b73ffffffffffffffffffffffffffffffffffffffff168573ffffffffffffffffffffffffffffffffffffffff1614806106ad57506106ac856106a7611002565b610b92565b5b6106ec576040517f08c379a00000000000000000000000000000000000000000000000000000000081526004016106e390615163565b60405180910390fd5b6106f9858585858561100a565b5050505050565b61071467b836ad49698aef8860c01b61132e565b61071c611331565b6107306724d8084d3479a54b60c01b61132e565b61074467a72b6ffa855f428860c01b61132e565b61075867fe5173ee458156de60c01b61132e565b61076c675768b011fb1759c560c01b61132e565b6107746113af565b565b61078a6767aad1b2798fc6f560c01b611411565b610792611331565b6107a66780682632ee1fe66360c01b611411565b6107ba670531c431bb17906760c01b611411565b6107c2611414565b6107d667d8b0bb1384175c8660c01b611411565b6107ea676e2b184017ae30ac60c01b611411565b6107fe6772b8a76ce152627260c01b611411565b610812673f233388610ca4fa60c01b611411565b61081e8484848461145e565b50505050565b6060815183511461086a576040517f08c379a0000000000000000000000000000000000000000000000000000000008152600401610861906151f5565b60405180910390fd5b6000835167ffffffffffffffff811115610887576108866145ef565b5b6040519080825280602002602001820160405280156108b55781602001602082028036833780820191505090505b50905060005b8451811015610932576109028582815181106108da576108d9615215565b5b60200260200101518583815181106108f5576108f4615215565b5b60200260200101516103d3565b82828151811061091557610914615215565b5b6020026020010181815250508061092b90615273565b90506108bb565b508091505092915050565b60115481565b60008060149054906101000a900460ff16905090565b610961611331565b61096b6000611915565b565b61098167af06102938a1479260c01b61132e565b610989611331565b61099d677ed55ec4dd47332860c01b61132e565b6109b16734b129738b02da4560c01b61132e565b6109c567718176346f7a944e60c01b61132e565b6109d967b9b42a3b7c606b7c60c01b61132e565b6109e16119d9565b565b60008060009054906101000a900473ffffffffffffffffffffffffffffffffffffffff16905090565b6000610a226722d3f89d22f549c860c01b610fff565b610a366739a566f98f39132960c01b610fff565b610a4a674fa10780e05f813360c01b610fff565b60096000838152602001908152602001600020600101549050919050565b610a7a610a73611002565b8383611a3c565b5050565b610a9267ec28a9b9bdb31f4860c01b610fff565b610a9a611331565b610aae674f27401c9bd29f6a60c01b610fff565b610ac267774dc2f418e1a50a60c01b610fff565b610aca611414565b610ade67c06b9bc3424259c160c01b610fff565b610af26774684bd3b144fb7460c01b610fff565b610b0667133b618e5317133060c01b610fff565b610b1a67383f2996af6f94c360c01b610fff565b610b2b898989898989898989611ba8565b505050505050505050565b6000610b4c6704fcf9ac29be32a260c01b610fff565b610b6067069282c7fed63f6860c01b610fff565b610b74671abb541d33240f1f60c01b610fff565b60096000838152602001908152602001600020600201549050919050565b6000600260008473ffffffffffffffffffffffffffffffffffffffff1673ffffffffffffffffffffffffffffffffffffffff16815260200190815260200160002060008373ffffffffffffffffffffffffffffffffffffffff1673ffffffffffffffffffffffffffffffffffffffff16815260200190815260200160002060009054906101000a900460ff16905092915050565b610c3a67ddc3551bff4408ab60c01b61132e565b610c4e67842f576a17d889c960c01b61132e565b42601181905550610c69678593fd5501e331fb60c01b61132e565b610c7d67e3d22c30b971127360c01b61132e565b6040518060400160405280600681526020017f4c4f434b4544000000000000000000000000000000000000000000000000000081525080519060200120600d6000858152602001908152602001600020604051610cda919061535e565b604051809103902003610ded57610cfb67f41fdd89bc75901a60c01b61132e565b610d0f671a3af671ecc2245960c01b61132e565b610d23673e76b99b5e641bb360c01b61132e565b610d3767f45789158f54ca3360c01b61132e565b600b6000600c6000868152602001908152602001600020548152602001908152602001600020544211610d9f576040517f08c379a0000000000000000000000000000000000000000000000000000000008152600401610d96906153e7565b60405180910390fd5b610db367c4f1b3416a263da060c01b61132e565b610dc767d829b0e243ec294860c01b61132e565b610ddb67e3818ca3631975e760c01b61132e565b610de88585858585611d76565b610e37565b610e016746185d1bb86d4dc760c01b61132e565b610e1567861aee905d7752c260c01b61132e565b610e296732a264c0b736866e60c01b61132e565b610e368585858585611d76565b5b5050505050565b610e46611331565b600073ffffffffffffffffffffffffffffffffffffffff168173ffffffffffffffffffffffffffffffffffffffff1603610eb5576040517f08c379a0000000000000000000000000000000000000000000000000000000008152600401610eac90615479565b60405180910390fd5b610ebe81611915565b50565b600080600080610edb6796510fef43565d0660c01b610fff565b610eef67167c80ee4c7570ba60c01b610fff565b610f036733ea72b6af6495af60c01b610fff565b60096000868152602001908152602001600020600301546009600087815260200190815260200160002060040160009054906101000a900460ff166009600088815260200190815260200160002060040160029054906101000a900460ff166009600089815260200190815260200160002060040160019054906101000a900460ff1693509350935093509193509193565b60007f01ffc9a7000000000000000000000000000000000000000000000000000000007bffffffffffffffffffffffffffffffffffffffffffffffffffffffff1916827bffffffffffffffffffffffffffffffffffffffffffffffffffffffff1916149050919050565b50565b600033905090565b815183511461104e576040517f08c379a00000000000000000000000000000000000000000000000000000000081526004016110459061550b565b60405180910390fd5b600073ffffffffffffffffffffffffffffffffffffffff168473ffffffffffffffffffffffffffffffffffffffff16036110bd576040517f08c379a00000000000000000000000000000000000000000000000000000000081526004016110b49061559d565b60405180910390fd5b60006110c7611002565b90506110d7818787878787611f0b565b60005b845181101561128b5760008582815181106110f8576110f7615215565b5b60200260200101519050600085838151811061111757611116615215565b5b6020026020010151905060006001600084815260200190815260200160002060008b73ffffffffffffffffffffffffffffffffffffffff1673ffffffffffffffffffffffffffffffffffffffff168152602001908152602001600020549050818110156111b9576040517f08c379a00000000000000000000000000000000000000000000000000000000081526004016111b09061562f565b60405180910390fd5b8181036001600085815260200190815260200160002060008c73ffffffffffffffffffffffffffffffffffffffff1673ffffffffffffffffffffffffffffffffffffffff16815260200190815260200160002081905550816001600085815260200190815260200160002060008b73ffffffffffffffffffffffffffffffffffffffff1673ffffffffffffffffffffffffffffffffffffffff1681526020019081526020016000206000828254611270919061564f565b925050819055505050508061128490615273565b90506110da565b508473ffffffffffffffffffffffffffffffffffffffff168673ffffffffffffffffffffffffffffffffffffffff168273ffffffffffffffffffffffffffffffffffffffff167f4a39dc06d4c0dbc64b70af90fd698a233a518aa5d07e595d983b8c0526c8f7fb8787604051611302929190615683565b60405180910390a4611318818787878787611f13565b611326818787878787611f1b565b505050505050565b50565b611339611002565b73ffffffffffffffffffffffffffffffffffffffff166113576109e3565b73ffffffffffffffffffffffffffffffffffffffff16146113ad576040517f08c379a00000000000000000000000000000000000000000000000000000000081526004016113a490615706565b60405180910390fd5b565b6113b76120f2565b60008060146101000a81548160ff0219169083151502179055507f5db9ee0a495bf2e6ff9c91a7834c1ba4fdd244a5e8aa4e537bd38aeae4b073aa6113fa611002565b6040516114079190614bb8565b60405180910390a1565b50565b61141c610943565b1561145c576040517f08c379a000000000000000000000000000000000000000000000000000000000815260040161145390615772565b60405180910390fd5b565b61147267e9d0bf7c11cae1c660c01b611411565b6114866711031ce3a99aa42960c01b611411565b61149a67280864ed16b7cfdb60c01b611411565b6114ae67d8de2a245ef03c1660c01b611411565b81518151146114f2576040517f08c379a00000000000000000000000000000000000000000000000000000000081526004016114e9906157de565b60405180910390fd5b61150667c8d7f5213c517d1360c01b611411565b61151a675eba1dd8503092e560c01b611411565b61152e6787f68b397761480c60c01b611411565b6115426706654fff5933890060c01b611411565b60008360ff1603611588576040517f08c379a000000000000000000000000000000000000000000000000000000000815260040161157f90615870565b60405180910390fd5b61159c67c62669daa3cdb37c60c01b611411565b6115b067f7fcd25599e3bc5060c01b611411565b6115c46723dda01cf1fb6a4860c01b611411565b60006009600086815260200190815260200160002090506115ef677601bf881dcb463a60c01b611411565b838160040160026101000a81548160ff021916908360ff16021790555061162067967efc50f2b183a960c01b611411565b61163467702cfb3e44416c4960c01b611411565b600061163f8461213b565b905061165567b7eacdd91cf82c6a60c01b611411565b61166967b1c1e8a1056a6cf960c01b611411565b60005b8351811015611879576116896706e00fc1e068e66060c01b611411565b61169d67c2c0c47ecac4fb6a60c01b611411565b60006116cc8683815181106116b5576116b4615215565b5b6020026020010151848960ff168760010154612230565b90506116e2674d77642179810afe60c01b611411565b6116f66703b25512f0ad5e1960c01b611411565b600061170182612348565b905061171767ef7fcef14ef6632160c01b611411565b61172b676d7c48ea2805d7a260c01b611411565b6117e786848151811061174157611740615215565b5b6020026020010151600a60008c81526020019081526020016000208054806020026020016040519081016040528092919081815260200182805480156117a657602002820191906000526020600020905b815481526020019060010190808311611792575b5050505050836040518060400160405280600481526020017f30783030000000000000000000000000000000000000000000000000000000008152506124d7565b6117fb671b8ce1f0fd2eb22460c01b611411565b81856002015461180b919061564f565b856002018190555061182767148bc2a8e7fc4c5f60c01b611411565b61183b6786ce439af18282c460c01b611411565b600f8290806001815401808255809150506001900390600052602060002001600090919091909150555050808061187190615273565b91505061166c565b5061188e67eca428717619180060c01b611411565b6118a26723d8591771e2add360c01b611411565b7f621e1a59d70685f53a28114e1229586ecd6908416f6bfaee0e147c3d34f398458684600f6040516118d693929190615a24565b60405180910390a16118f26763ddb3cdf63509cd60c01b611411565b6001601060006101000a81548160ff021916908315150217905550505050505050565b60008060009054906101000a900473ffffffffffffffffffffffffffffffffffffffff169050816000806101000a81548173ffffffffffffffffffffffffffffffffffffffff021916908373ffffffffffffffffffffffffffffffffffffffff1602179055508173ffffffffffffffffffffffffffffffffffffffff168173ffffffffffffffffffffffffffffffffffffffff167f8be0079c531659141344cd1fd0a4f28419497f9722a3daafe3b4186f6b6457e060405160405180910390a35050565b6119e1611414565b6001600060146101000a81548160ff0219169083151502179055507f62e78cea01bee320cd4e420270b5ea74000d11b0c9f74754ebdbfc544b05a258611a25611002565b604051611a329190614bb8565b60405180910390a1565b8173ffffffffffffffffffffffffffffffffffffffff168373ffffffffffffffffffffffffffffffffffffffff1603611aaa576040517f08c379a0000000000000000000000000000000000000000000000000000000008152600401611aa190615adb565b60405180910390fd5b80600260008573ffffffffffffffffffffffffffffffffffffffff1673ffffffffffffffffffffffffffffffffffffffff16815260200190815260200160002060008473ffffffffffffffffffffffffffffffffffffffff1673ffffffffffffffffffffffffffffffffffffffff16815260200190815260200160002060006101000a81548160ff0219169083151502179055508173ffffffffffffffffffffffffffffffffffffffff168373ffffffffffffffffffffffffffffffffffffffff167f17307eab39ab6107e8899845ad3d59bd9653f200f220920489ca2b5937696c3183604051611b9b91906144f0565b60405180910390a3505050565b611bbc6727a6e5d3e438f69c60c01b610fff565b611bd0671413fb46e77f556360c01b610fff565b611be467b0e8f4295db6a90e60c01b610fff565b611bee8987612704565b611c0267045313701da356e660c01b610fff565b611c16670517a1a70bb2776060c01b610fff565b611c368989600b60008d81526020019081526020016000205488886127fd565b611c4a67345b0fdf86d6929260c01b610fff565b611c5e672934a6251d8e852660c01b610fff565b611c688982612a3a565b611c7c675c04d6536ef8d16360c01b610fff565b611c90677d88d199e0e2b06460c01b610fff565b611ca089898760ff168a87612dd6565b611cb467c8dfcc39a53df7a660c01b610fff565b611cc86768107ca27c935b2960c01b610fff565b611cd78989848760ff16613557565b611ceb67daabc1d6724462b260c01b610fff565b611cff6743c1416d1eb3456860c01b610fff565b7fb79a1263d65160537b9075e0e4747a6007a82fb191be4435b4c508c431920b898960066007604051611d3493929190615bda565b60405180910390a1611d5067298474e82d9cf27a60c01b610fff565b6001600860006101000a81548160ff021916908315150217905550505050505050505050565b611d8a67b38eb7f6d6a031fe60c01b61132e565b611d92611414565b611da667fedd72ad4353be0560c01b61132e565b611dba67b5f06095d4f0d70260c01b61132e565b611dce67bd512f64712f657560c01b61132e565b611de267360cd2990ffec41160c01b61132e565b611df667ca41cd8a7fd8498a60c01b61132e565b611dfe611002565b73ffffffffffffffffffffffffffffffffffffffff168573ffffffffffffffffffffffffffffffffffffffff16148015611e485750611e4767208fecdd445e46bc60c01b61382e565b5b80611e7c5750611e5f85611e5a611002565b610b92565b8015611e7b5750611e7a6706f4ca28c5d2ae1e60c01b61382e565b5b5b611ebb576040517f08c379a0000000000000000000000000000000000000000000000000000000008152600401611eb290615c91565b60405180910390fd5b611ecf670e0d12f47e6404c560c01b61132e565b611ee367db38456c5c0a2e2a60c01b61132e565b611ef767990d2240fd0def7160c01b61132e565b611f048585858585613839565b5050505050565b505050505050565b505050505050565b611f3a8473ffffffffffffffffffffffffffffffffffffffff16613ad7565b156120ea578373ffffffffffffffffffffffffffffffffffffffff1663bc197c8187878686866040518663ffffffff1660e01b8152600401611f80959493929190615d06565b6020604051808303816000875af1925050508015611fbc57506040513d601f19601f82011682018060405250810190611fb99190615d83565b60015b61206157611fc8615dbd565b806308c379a0036120245750611fdc615ddf565b80611fe75750612026565b806040517f08c379a000000000000000000000000000000000000000000000000000000000815260040161201b91906145c8565b60405180910390fd5b505b6040517f08c379a000000000000000000000000000000000000000000000000000000000815260040161205890615ee1565b60405180910390fd5b63bc197c8160e01b7bffffffffffffffffffffffffffffffffffffffffffffffffffffffff1916817bffffffffffffffffffffffffffffffffffffffffffffffffffffffff1916146120e8576040517f08c379a00000000000000000000000000000000000000000000000000000000081526004016120df90615f73565b60405180910390fd5b505b505050505050565b6120fa610943565b612139576040517f08c379a000000000000000000000000000000000000000000000000000000000815260040161213090615fdf565b60405180910390fd5b565b6000612151672c24d522c2f2a5c960c01b611411565b61216567a3bb9bd5e8c8bb2e60c01b611411565b6121796786337bae2a37406560c01b611411565b600061218f67ea7eb9588145167d60c01b611411565b6121a36748f868e0444c46b960c01b611411565b60005b83518110156121fe576121c3679def5a877a03b74060c01b611411565b8381815181106121d6576121d5615215565b5b6020026020010151826121e9919061564f565b915080806121f690615273565b9150506121a6565b5061221367cab7ab8e130a4dbd60c01b611411565b6122276722365d0d502bfb4f60c01b611411565b80915050919050565b60006122466733c247549217994160c01b610fff565b61225a672a36b9ee82fe832660c01b610fff565b61226e67846bc1235520cee360c01b610fff565b60008486606461227e9190615fff565b6122889190616070565b905061229e67c0bd86553dc9dcf760c01b610fff565b6122b267f13bac2db8aadd9d60c01b610fff565b6000606485856122c29190615fff565b6122cc9190616070565b90506122e267b04d8f64400656c460c01b610fff565b6122f667d187e030dcab719b60c01b610fff565b6000606483836123069190615fff565b6123109190616070565b905061232667e899675b913e526b60c01b610fff565b61233a67dc78ce2d2d268da760c01b610fff565b809350505050949350505050565b606061235e67b96e33ed7c183fba60c01b610fff565b6123726770bc9304bfb857ee60c01b610fff565b61238667b973c3dc08e485ba60c01b610fff565b6000600267ffffffffffffffff8111156123a3576123a26145ef565b5b6040519080825280602002602001820160405280156123d15781602001602082028036833780820191505090505b5090506123e867962e4a2c0fb2b9c060c01b610fff565b6123fc67b3bb2928ea0a041560c01b610fff565b6000606460328561240d9190615fff565b6124179190616070565b905061242d679896bbb6856bb8ed60c01b610fff565b808260008151811061244257612441615215565b5b60200260200101818152505061246267b12fa4d57968989660c01b610fff565b808461246e91906160a1565b93506124846750dad8eadf8b14b560c01b610fff565b838260018151811061249957612498615215565b5b6020026020010181815250506124b967bfbc053d5f05103e60c01b610fff565b6124cd671abb5488a40b0f4e60c01b610fff565b8192505050919050565b600073ffffffffffffffffffffffffffffffffffffffff168473ffffffffffffffffffffffffffffffffffffffff1603612546576040517f08c379a000000000000000000000000000000000000000000000000000000000815260040161253d90616147565b60405180910390fd5b815183511461258a576040517f08c379a00000000000000000000000000000000000000000000000000000000081526004016125819061550b565b60405180910390fd5b6000612594611002565b90506125a581600087878787611f0b565b60005b845181101561265f578381815181106125c4576125c3615215565b5b6020026020010151600160008784815181106125e3576125e2615215565b5b6020026020010151815260200190815260200160002060008873ffffffffffffffffffffffffffffffffffffffff1673ffffffffffffffffffffffffffffffffffffffff1681526020019081526020016000206000828254612645919061564f565b92505081905550808061265790615273565b9150506125a8565b508473ffffffffffffffffffffffffffffffffffffffff16600073ffffffffffffffffffffffffffffffffffffffff168273ffffffffffffffffffffffffffffffffffffffff167f4a39dc06d4c0dbc64b70af90fd698a233a518aa5d07e595d983b8c0526c8f7fb87876040516126d7929190615683565b60405180910390a46126ee81600087878787611f13565b6126fd81600087878787611f1b565b5050505050565b61271867c76acd65626377f360c01b610fff565b61272c6786e8ec8b4b8df7ec60c01b610fff565b612740671cde3608884cfe4660c01b610fff565b612754676e9c6377f00f5bbb60c01b610fff565b60008103612797576040517f08c379a000000000000000000000000000000000000000000000000000000000815260040161278e906161d9565b60405180910390fd5b6127ab67078833307a71b2bb60c01b610fff565b6127bf6707c62ebaa2fe291860c01b610fff565b42816127cb919061564f565b90506127e167bd8e4998bf94c87b60c01b610fff565b80600b6000848152602001908152602001600020819055505050565b61281167f9450a09747c6bc860c01b610fff565b61282567c3bf5bce8ed8392e60c01b610fff565b6128396702a5cc15e215937360c01b610fff565b61284d676b23f72428f05a5a60c01b610fff565b60008403612890576040517f08c379a00000000000000000000000000000000000000000000000000000000081526004016128879061626b565b60405180910390fd5b6128a467a59371748f2bd5fe60c01b610fff565b6128b867bc6890b52ec8a6b060c01b610fff565b6128cc6773de934dc15708a560c01b610fff565b6128e0672847b80c7e3ea41260c01b610fff565b60008260ff1603612926576040517f08c379a000000000000000000000000000000000000000000000000000000000815260040161291d906162fd565b60405180910390fd5b61293a67c5a21a14d2cdc6a860c01b610fff565b61294e6724dd14c856dc5b6e60c01b610fff565b61296267b232bb1808c6889160c01b610fff565b600060096000878152602001908152602001600020905061298d67fdbbb9fc42fb326460c01b610fff565b8581600001819055506129aa67adcc73e70c461e2660c01b610fff565b8481600101819055506129c76737697edf57872b4260c01b610fff565b8381600301819055506129e4671484be4f5545900a60c01b610fff565b828160040160006101000a81548160ff021916908360ff160217905550612a1567c2e136710984dc7960c01b610fff565b818160040160016101000a81548160ff021916908360ff160217905550505050505050565b612a4e67c392474f025a3d3560c01b610fff565b612a62678163818a3fb367a160c01b610fff565b612a7667f0d37fd730e6881e60c01b610fff565b6000600267ffffffffffffffff811115612a9357612a926145ef565b5b604051908082528060200260200182016040528015612ac657816020015b6060815260200190600190039081612ab15790505b509050612add67e5e3622a920e1a4260c01b610fff565b6040518060400160405280600681526020017f4c4f434b4544000000000000000000000000000000000000000000000000000081525081600081518110612b2757612b26615215565b5b6020026020010181905250612b4667b1a8938d01f7436e60c01b610fff565b6040518060400160405280600681526020017f545241444544000000000000000000000000000000000000000000000000000081525081600181518110612b9057612b8f615215565b5b6020026020010181905250612baf67f4f3abecf973e08860c01b610fff565b612bc367be574b27fb55a57a60c01b610fff565b60005b81518160ff161015612dd057612be6678401be69987213a860c01b610fff565b612bfa67c9878488e1fae71b60c01b610fff565b6005828260ff1681518110612c1257612c11615215565b5b6020026020010151908060018154018082558091505060019003906000526020600020016000909190919091509081612c4b91906164c9565b50612c6067c436369b5f81c65460c01b610fff565b612c7467247ffd0afc1e032760c01b610fff565b60006001600580549050612c8891906160a1565b9050612c9e67fd6f85f10dad3d0460c01b610fff565b612cb2676eb7ab485d6c191460c01b610fff565b600a6000868152602001908152602001600020819080600181540180825580915050600190039060005260206000200160009091909190915055612d006754908a8c1019c94f60c01b610fff565b828260ff1681518110612d1657612d15615215565b5b6020026020010151600d60008381526020019081526020016000209081612d3d91906164c9565b50612d526791f75e7a46a3ef7a60c01b610fff565b84600c600083815260200190815260200160002081905550612d7e6720778797eb25370d60c01b610fff565b838260ff1681518110612d9457612d93615215565b5b6020026020010151600e60008381526020019081526020016000209081612dbb91906164c9565b50508080612dc89061659b565b915050612bc6565b50505050565b612dea67de5ca9facffdbe9160c01b610fff565b612dfe6790a0f3ef8d64fb8f60c01b610fff565b612e1267d40dffc99e9e993360c01b610fff565b6000600460009054906101000a900473ffffffffffffffffffffffffffffffffffffffff1673ffffffffffffffffffffffffffffffffffffffff1663c9187fe7876040518263ffffffff1660e01b8152600401612e6f9190614435565b600060405180830381865afa158015612e8c573d6000803e3d6000fd5b505050506040513d6000823e3d601f19601f82011682018060405250810190612eb59190616715565b9050612ecb67df77498792cf7dcd60c01b610fff565b612edf6751326b59044d941d60c01b610fff565b6000612eea87613afa565b9050612f006764165cf48e0795aa60c01b610fff565b612f1467da14215600237b8060c01b610fff565b6000600960008981526020019081526020016000209050612f3f67e0cb465402ef0db660c01b610fff565b8482612f4b919061564f565b9150612f6167536bdbe8838f556360c01b610fff565b612f7567cd3c16253d96418960c01b610fff565b60005b600460009054906101000a900473ffffffffffffffffffffffffffffffffffffffff1673ffffffffffffffffffffffffffffffffffffffff166384ffeca58a6040518263ffffffff1660e01b8152600401612fd39190614435565b602060405180830381865afa158015612ff0573d6000803e3d6000fd5b505050506040513d601f19601f820116820180604052508101906130149190616773565b8110156134095761302f6791e64534b1cd3ed260c01b610fff565b61304367ca1bf8ac3c5f0e6f60c01b610fff565b6000600460009054906101000a900473ffffffffffffffffffffffffffffffffffffffff1673ffffffffffffffffffffffffffffffffffffffff166359a96ffe86848151811061309657613095615215565b5b60200260200101516040518263ffffffff1660e01b81526004016130ba91906167a0565b602060405180830381865afa1580156130d7573d6000803e3d6000fd5b505050506040513d601f19601f820116820180604052508101906130fb91906167d7565b9050613111675e10a89e86ee66a260c01b610fff565b61312567869b1ebf9911403d60c01b610fff565b60006131ea600460009054906101000a900473ffffffffffffffffffffffffffffffffffffffff1673ffffffffffffffffffffffffffffffffffffffff16630e47cefa88868151811061317b5761317a615215565b5b60200260200101518e6040518363ffffffff1660e01b81526004016131a1929190616804565b602060405180830381865afa1580156131be573d6000803e3d6000fd5b505050506040513d601f19601f820116820180604052508101906131e29190616773565b868b8d612230565b9050613200679116c85051d9dd5560c01b610fff565b613214671d36beafa45c272360c01b610fff565b600061321f82612348565b905061323567709c5ed10e37177f60c01b610fff565b61324967b1b3c0f643e8aef160c01b610fff565b6132eb83600a60008f81526020019081526020016000208054806020026020016040519081016040528092919081815260200182805480156132aa57602002820191906000526020600020905b815481526020019060010190808311613296575b5050505050836040518060400160405280600481526020017f30783030000000000000000000000000000000000000000000000000000000008152506124d7565b6132ff671ba265ed56cff63060c01b610fff565b81856002015461330f919061564f565b856002018190555061332b6706b017567703b4bf60c01b610fff565b61333f676373306cf80355fc60c01b610fff565b6006839080600181540180825580915050600190039060005260206000200160009091909190916101000a81548173ffffffffffffffffffffffffffffffffffffffff021916908373ffffffffffffffffffffffffffffffffffffffff1602179055506133b667dba4bb17d0eb8a4160c01b610fff565b6133ca67efd497b8f5407f8060c01b610fff565b6007829080600181540180825580915050600190039060005260206000200160009091909190915055505050808061340190615273565b915050612f78565b5061341e67c0eacc1cba0b450f60c01b610fff565b61343267e3787bfd21fcac8560c01b610fff565b6000613442898688868b8d613d88565b905061345867fa0d10fb46e3481360c01b610fff565b808260020154613468919061564f565b826002018190555061348467fb9e2596c88c5ec260c01b610fff565b6134986781e89710a47ef99c60c01b610fff565b6006859080600181540180825580915050600190039060005260206000200160009091909190916101000a81548173ffffffffffffffffffffffffffffffffffffffff021916908373ffffffffffffffffffffffffffffffffffffffff16021790555061350f67b9550541abcf3c1a60c01b610fff565b613523675203e27cb0b9f17b60c01b610fff565b6007819080600181540180825580915050600190039060005260206000200160009091909190915055505050505050505050565b61356b67ddddbb65675b1ca960c01b610fff565b61357f671c23b30664196bb860c01b610fff565b613593677716a208e4d4aff860c01b610fff565b60006009600086815260200190815260200160002090506135be679c5be580aff8157060c01b610fff565b6135d267a40a084a2f77ceb860c01b610fff565b6000606483866135e29190615fff565b6135ec9190616070565b9050613602672500ba4af42ce6ab60c01b610fff565b808260020154613612919061564f565b826002018190555061362e6702e97f6716fe1e5060c01b610fff565b61364267925278c2e8dc4b6d60c01b610fff565b600061364d82612348565b905061366367ce47f549ca2ac62560c01b610fff565b613677678418c57d606467d760c01b610fff565b60005b8151811015613748576136976753ea471b208b1feb60c01b610fff565b6136ab6793b402b60ed69df660c01b610fff565b61373586600a60008b815260200190815260200160002083815481106136d4576136d3615215565b5b90600052602060002001548484815181106136f2576136f1615215565b5b60200260200101516040518060400160405280600481526020017f3078303000000000000000000000000000000000000000000000000000000000815250613f3c565b808061374090615273565b91505061367a565b5061375d671995d4a32c1853d760c01b610fff565b613771678fa697afb24900b460c01b610fff565b6006859080600181540180825580915050600190039060005260206000200160009091909190916101000a81548173ffffffffffffffffffffffffffffffffffffffff021916908373ffffffffffffffffffffffffffffffffffffffff1602179055506137e867b48d6e401c6c4c5060c01b610fff565b6137fc678539d20c68087c7960c01b610fff565b600782908060018154018082558091505060019003906000526020600020016000909190919091505550505050505050565b600060019050919050565b600073ffffffffffffffffffffffffffffffffffffffff168473ffffffffffffffffffffffffffffffffffffffff16036138a8576040517f08c379a000000000000000000000000000000000000000000000000000000000815260040161389f9061559d565b60405180910390fd5b60006138b2611002565b905060006138bf856140ed565b905060006138cc856140ed565b90506138dc838989858589611f0b565b60006001600088815260200190815260200160002060008a73ffffffffffffffffffffffffffffffffffffffff1673ffffffffffffffffffffffffffffffffffffffff16815260200190815260200160002054905085811015613974576040517f08c379a000000000000000000000000000000000000000000000000000000000815260040161396b9061562f565b60405180910390fd5b8581036001600089815260200190815260200160002060008b73ffffffffffffffffffffffffffffffffffffffff1673ffffffffffffffffffffffffffffffffffffffff16815260200190815260200160002081905550856001600089815260200190815260200160002060008a73ffffffffffffffffffffffffffffffffffffffff1673ffffffffffffffffffffffffffffffffffffffff1681526020019081526020016000206000828254613a2b919061564f565b925050819055508773ffffffffffffffffffffffffffffffffffffffff168973ffffffffffffffffffffffffffffffffffffffff168573ffffffffffffffffffffffffffffffffffffffff167fc3d58168c5ae7397731d063d5bbf3d657854427343f4c083240f7aacaa2d0f628a8a604051613aa8929190616834565b60405180910390a4613abe848a8a86868a611f13565b613acc848a8a8a8a8a614167565b505050505050505050565b6000808273ffffffffffffffffffffffffffffffffffffffff163b119050919050565b6000613b10679b9717fb5ab3646660c01b610fff565b613b2467efb20c519b10d04a60c01b610fff565b613b38670f37f0a4032d456f60c01b610fff565b6000600460009054906101000a900473ffffffffffffffffffffffffffffffffffffffff1673ffffffffffffffffffffffffffffffffffffffff1663c9187fe7846040518263ffffffff1660e01b8152600401613b959190614435565b600060405180830381865afa158015613bb2573d6000803e3d6000fd5b505050506040513d6000823e3d601f19601f82011682018060405250810190613bdb9190616715565b9050613bf167d9ff3d2085ab30c760c01b610fff565b613c056746071a432c70448660c01b610fff565b6000613c1b67aeb12c3867abcc4960c01b610fff565b613c2f677488655232596c3360c01b610fff565b60005b8251811015613d5557613c4f67974f61c1a94e89f360c01b610fff565b613c6367af55825f5d88e83e60c01b610fff565b6000600460009054906101000a900473ffffffffffffffffffffffffffffffffffffffff1673ffffffffffffffffffffffffffffffffffffffff16630e47cefa858481518110613cb657613cb5615215565b5b6020026020010151886040518363ffffffff1660e01b8152600401613cdc929190616804565b602060405180830381865afa158015613cf9573d6000803e3d6000fd5b505050506040513d601f19601f82011682018060405250810190613d1d9190616773565b9050613d33676a0caf1b0b1d58c560c01b610fff565b8083613d3f919061564f565b9250508080613d4d90615273565b915050613c32565b50613d6a67931b8fab2e2e341660c01b610fff565b613d7e672ecb136fb131368f60c01b610fff565b8092505050919050565b6000613d9e6779c5a977f48d2c9260c01b610fff565b613db267ed6f11cec03a659d60c01b610fff565b613dc667dcf7076f445f86de60c01b610fff565b6000613dd486868686612230565b9050613dea6799456268be9ca2ab60c01b610fff565b613dfe671c3ec0d0aa4275e260c01b610fff565b6000613e0982612348565b9050613e1f672397560cdade6ce960c01b610fff565b613e3367803778389d2790ab60c01b610fff565b60005b8151811015613f0457613e5367932c30032ac58a3a60c01b610fff565b613e6767b38a387a3cce170560c01b610fff565b613ef189600a60008d81526020019081526020016000208381548110613e9057613e8f615215565b5b9060005260206000200154848481518110613eae57613ead615215565b5b60200260200101516040518060400160405280600481526020017f3078303000000000000000000000000000000000000000000000000000000000815250613f3c565b8080613efc90615273565b915050613e36565b50613f1967c297d28d9f8cda8060c01b610fff565b613f2d672204b13d5444ba5260c01b610fff565b81925050509695505050505050565b600073ffffffffffffffffffffffffffffffffffffffff168473ffffffffffffffffffffffffffffffffffffffff1603613fab576040517f08c379a0000000000000000000000000000000000000000000000000000000008152600401613fa290616147565b60405180910390fd5b6000613fb5611002565b90506000613fc2856140ed565b90506000613fcf856140ed565b9050613fe083600089858589611f0b565b846001600088815260200190815260200160002060008973ffffffffffffffffffffffffffffffffffffffff1673ffffffffffffffffffffffffffffffffffffffff1681526020019081526020016000206000828254614040919061564f565b925050819055508673ffffffffffffffffffffffffffffffffffffffff16600073ffffffffffffffffffffffffffffffffffffffff168473ffffffffffffffffffffffffffffffffffffffff167fc3d58168c5ae7397731d063d5bbf3d657854427343f4c083240f7aacaa2d0f6289896040516140be929190616834565b60405180910390a46140d583600089858589611f13565b6140e483600089898989614167565b50505050505050565b60606000600167ffffffffffffffff81111561410c5761410b6145ef565b5b60405190808252806020026020018201604052801561413a5781602001602082028036833780820191505090505b509050828160008151811061415257614151615215565b5b60200260200101818152505080915050919050565b6141868473ffffffffffffffffffffffffffffffffffffffff16613ad7565b15614336578373ffffffffffffffffffffffffffffffffffffffff1663f23a6e6187878686866040518663ffffffff1660e01b81526004016141cc95949392919061685d565b6020604051808303816000875af192505050801561420857506040513d601f19601f820116820180604052508101906142059190615d83565b60015b6142ad57614214615dbd565b806308c379a0036142705750614228615ddf565b806142335750614272565b806040517f08c379a000000000000000000000000000000000000000000000000000000000815260040161426791906145c8565b60405180910390fd5b505b6040517f08c379a00000000000000000000000000000000000000000000000000000000081526004016142a490615ee1565b60405180910390fd5b63f23a6e6160e01b7bffffffffffffffffffffffffffffffffffffffffffffffffffffffff1916817bffffffffffffffffffffffffffffffffffffffffffffffffffffffff191614614334576040517f08c379a000000000000000000000000000000000000000000000000000000000815260040161432b90615f73565b60405180910390fd5b505b505050505050565b6000604051905090565b600080fd5b600080fd5b600073ffffffffffffffffffffffffffffffffffffffff82169050919050565b600061437d82614352565b9050919050565b61438d81614372565b811461439857600080fd5b50565b6000813590506143aa81614384565b92915050565b6000819050919050565b6143c3816143b0565b81146143ce57600080fd5b50565b6000813590506143e0816143ba565b92915050565b600080604083850312156143fd576143fc614348565b5b600061440b8582860161439b565b925050602061441c858286016143d1565b9150509250929050565b61442f816143b0565b82525050565b600060208201905061444a6000830184614426565b92915050565b60007fffffffff0000000000000000000000000000000000000000000000000000000082169050919050565b61448581614450565b811461449057600080fd5b50565b6000813590506144a28161447c565b92915050565b6000602082840312156144be576144bd614348565b5b60006144cc84828501614493565b91505092915050565b60008115159050919050565b6144ea816144d5565b82525050565b600060208201905061450560008301846144e1565b92915050565b60006020828403121561452157614520614348565b5b600061452f848285016143d1565b91505092915050565b600081519050919050565b600082825260208201905092915050565b60005b83811015614572578082015181840152602081019050614557565b60008484015250505050565b6000601f19601f8301169050919050565b600061459a82614538565b6145a48185614543565b93506145b4818560208601614554565b6145bd8161457e565b840191505092915050565b600060208201905081810360008301526145e2818461458f565b905092915050565b600080fd5b7f4e487b7100000000000000000000000000000000000000000000000000000000600052604160045260246000fd5b6146278261457e565b810181811067ffffffffffffffff82111715614646576146456145ef565b5b80604052505050565b600061465961433e565b9050614665828261461e565b919050565b600067ffffffffffffffff821115614685576146846145ef565b5b602082029050602081019050919050565b600080fd5b60006146ae6146a98461466a565b61464f565b905080838252602082019050602084028301858111156146d1576146d0614696565b5b835b818110156146fa57806146e688826143d1565b8452602084019350506020810190506146d3565b5050509392505050565b600082601f830112614719576147186145ea565b5b813561472984826020860161469b565b91505092915050565b600080fd5b600067ffffffffffffffff821115614752576147516145ef565b5b61475b8261457e565b9050602081019050919050565b82818337600083830152505050565b600061478a61478584614737565b61464f565b9050828152602081018484840111156147a6576147a5614732565b5b6147b1848285614768565b509392505050565b600082601f8301126147ce576147cd6145ea565b5b81356147de848260208601614777565b91505092915050565b600080600080600060a0868803121561480357614802614348565b5b60006148118882890161439b565b95505060206148228882890161439b565b945050604086013567ffffffffffffffff8111156148435761484261434d565b5b61484f88828901614704565b935050606086013567ffffffffffffffff8111156148705761486f61434d565b5b61487c88828901614704565b925050608086013567ffffffffffffffff81111561489d5761489c61434d565b5b6148a9888289016147b9565b9150509295509295909350565b600060ff82169050919050565b6148cc816148b6565b81146148d757600080fd5b50565b6000813590506148e9816148c3565b92915050565b600067ffffffffffffffff82111561490a576149096145ef565b5b602082029050602081019050919050565b600061492e614929846148ef565b61464f565b9050808382526020820190506020840283018581111561495157614950614696565b5b835b8181101561497a5780614966888261439b565b845260208401935050602081019050614953565b5050509392505050565b600082601f830112614999576149986145ea565b5b81356149a984826020860161491b565b91505092915050565b600080600080608085870312156149cc576149cb614348565b5b60006149da878288016143d1565b94505060206149eb878288016148da565b935050604085013567ffffffffffffffff811115614a0c57614a0b61434d565b5b614a1887828801614704565b925050606085013567ffffffffffffffff811115614a3957614a3861434d565b5b614a4587828801614984565b91505092959194509250565b60008060408385031215614a6857614a67614348565b5b600083013567ffffffffffffffff811115614a8657614a8561434d565b5b614a9285828601614984565b925050602083013567ffffffffffffffff811115614ab357614ab261434d565b5b614abf85828601614704565b9150509250929050565b600081519050919050565b600082825260208201905092915050565b6000819050602082019050919050565b614afe816143b0565b82525050565b6000614b108383614af5565b60208301905092915050565b6000602082019050919050565b6000614b3482614ac9565b614b3e8185614ad4565b9350614b4983614ae5565b8060005b83811015614b7a578151614b618882614b04565b9750614b6c83614b1c565b925050600181019050614b4d565b5085935050505092915050565b60006020820190508181036000830152614ba18184614b29565b905092915050565b614bb281614372565b82525050565b6000602082019050614bcd6000830184614ba9565b92915050565b614bdc816144d5565b8114614be757600080fd5b50565b600081359050614bf981614bd3565b92915050565b60008060408385031215614c1657614c15614348565b5b6000614c248582860161439b565b9250506020614c3585828601614bea565b9150509250929050565b600067ffffffffffffffff821115614c5a57614c596145ef565b5b602082029050602081019050919050565b600067ffffffffffffffff821115614c8657614c856145ef565b5b614c8f8261457e565b9050602081019050919050565b6000614caf614caa84614c6b565b61464f565b905082815260208101848484011115614ccb57614cca614732565b5b614cd6848285614768565b509392505050565b600082601f830112614cf357614cf26145ea565b5b8135614d03848260208601614c9c565b91505092915050565b6000614d1f614d1a84614c3f565b61464f565b90508083825260208201905060208402830185811115614d4257614d41614696565b5b835b81811015614d8957803567ffffffffffffffff811115614d6757614d666145ea565b5b808601614d748982614cde565b85526020850194505050602081019050614d44565b5050509392505050565b600082601f830112614da857614da76145ea565b5b8135614db8848260208601614d0c565b91505092915050565b60008060008060008060008060006101208a8c031215614de457614de3614348565b5b6000614df28c828d016143d1565b9950506020614e038c828d016143d1565b9850506040614e148c828d016143d1565b9750506060614e258c828d016143d1565b9650506080614e368c828d016148da565b95505060a0614e478c828d016148da565b94505060c0614e588c828d0161439b565b93505060e0614e698c828d0161439b565b9250506101008a013567ffffffffffffffff811115614e8b57614e8a61434d565b5b614e978c828d01614d93565b9150509295985092959850929598565b60008060408385031215614ebe57614ebd614348565b5b6000614ecc8582860161439b565b9250506020614edd8582860161439b565b9150509250929050565b600080600080600060a08688031215614f0357614f02614348565b5b6000614f118882890161439b565b9550506020614f228882890161439b565b9450506040614f33888289016143d1565b9350506060614f44888289016143d1565b925050608086013567ffffffffffffffff811115614f6557614f6461434d565b5b614f71888289016147b9565b9150509295509295909350565b600060208284031215614f9457614f93614348565b5b6000614fa28482850161439b565b91505092915050565b614fb4816148b6565b82525050565b6000608082019050614fcf6000830187614426565b614fdc6020830186614fab565b614fe96040830185614fab565b614ff66060830184614fab565b95945050505050565b7f455243313135353a2061646472657373207a65726f206973206e6f742061207660008201527f616c6964206f776e657200000000000000000000000000000000000000000000602082015250565b600061505b602a83614543565b915061506682614fff565b604082019050919050565b6000602082019050818103600083015261508a8161504e565b9050919050565b7f4e487b7100000000000000000000000000000000000000000000000000000000600052602260045260246000fd5b600060028204905060018216806150d857607f821691505b6020821081036150eb576150ea615091565b5b50919050565b7f455243313135353a2063616c6c6572206973206e6f7420746f6b656e206f776e60008201527f6572206f7220617070726f766564000000000000000000000000000000000000602082015250565b600061514d602e83614543565b9150615158826150f1565b604082019050919050565b6000602082019050818103600083015261517c81615140565b9050919050565b7f455243313135353a206163636f756e747320616e6420696473206c656e67746860008201527f206d69736d617463680000000000000000000000000000000000000000000000602082015250565b60006151df602983614543565b91506151ea82615183565b604082019050919050565b6000602082019050818103600083015261520e816151d2565b9050919050565b7f4e487b7100000000000000000000000000000000000000000000000000000000600052603260045260246000fd5b7f4e487b7100000000000000000000000000000000000000000000000000000000600052601160045260246000fd5b600061527e826143b0565b91507fffffffffffffffffffffffffffffffffffffffffffffffffffffffffffffffff82036152b0576152af615244565b5b600182019050919050565b600081905092915050565b60008190508160005260206000209050919050565b600081546152e8816150c0565b6152f281866152bb565b9450600182166000811461530d576001811461532257615355565b60ff1983168652811515820286019350615355565b61532b856152c6565b60005b8381101561534d5781548189015260018201915060208101905061532e565b838801955050505b50505092915050565b600061536a82846152db565b915081905092915050565b7f52454a5556453a2043616e6e6f742073616c6520353025206f6620736861726460008201527f73206265666f7265206c6f636b696e6720706572696f64000000000000000000602082015250565b60006153d1603783614543565b91506153dc82615375565b604082019050919050565b60006020820190508181036000830152615400816153c4565b9050919050565b7f4f776e61626c653a206e6577206f776e657220697320746865207a65726f206160008201527f6464726573730000000000000000000000000000000000000000000000000000602082015250565b6000615463602683614543565b915061546e82615407565b604082019050919050565b6000602082019050818103600083015261549281615456565b9050919050565b7f455243313135353a2069647320616e6420616d6f756e7473206c656e6774682060008201527f6d69736d61746368000000000000000000000000000000000000000000000000602082015250565b60006154f5602883614543565b915061550082615499565b604082019050919050565b60006020820190508181036000830152615524816154e8565b9050919050565b7f455243313135353a207472616e7366657220746f20746865207a65726f20616460008201527f6472657373000000000000000000000000000000000000000000000000000000602082015250565b6000615587602583614543565b91506155928261552b565b604082019050919050565b600060208201905081810360008301526155b68161557a565b9050919050565b7f455243313135353a20696e73756666696369656e742062616c616e636520666f60008201527f72207472616e7366657200000000000000000000000000000000000000000000602082015250565b6000615619602a83614543565b9150615624826155bd565b604082019050919050565b600060208201905081810360008301526156488161560c565b9050919050565b600061565a826143b0565b9150615665836143b0565b925082820190508082111561567d5761567c615244565b5b92915050565b6000604082019050818103600083015261569d8185614b29565b905081810360208301526156b18184614b29565b90509392505050565b7f4f776e61626c653a2063616c6c6572206973206e6f7420746865206f776e6572600082015250565b60006156f0602083614543565b91506156fb826156ba565b602082019050919050565b6000602082019050818103600083015261571f816156e3565b9050919050565b7f5061757361626c653a2070617573656400000000000000000000000000000000600082015250565b600061575c601083614543565b915061576782615726565b602082019050919050565b6000602082019050818103600083015261578b8161574f565b9050919050565b7f52454a5556453a204e6f7420657175616c206c656e6774680000000000000000600082015250565b60006157c8601883614543565b91506157d382615792565b602082019050919050565b600060208201905081810360008301526157f7816157bb565b9050919050565b7f52454a5556453a204675747572652070657263656e746167652073686172652060008201527f63616e6e6f74206265207a65726f000000000000000000000000000000000000602082015250565b600061585a602e83614543565b9150615865826157fe565b604082019050919050565b600060208201905081810360008301526158898161584d565b9050919050565b600081519050919050565b600082825260208201905092915050565b6000819050602082019050919050565b6158c581614372565b82525050565b60006158d783836158bc565b60208301905092915050565b6000602082019050919050565b60006158fb82615890565b615905818561589b565b9350615910836158ac565b8060005b8381101561594157815161592888826158cb565b9750615933836158e3565b925050600181019050615914565b5085935050505092915050565b600081549050919050565b60008190508160005260206000209050919050565b60008160001c9050919050565b6000819050919050565b60006159986159938361596e565b61597b565b9050919050565b60006159ab8254615985565b9050919050565b6000600182019050919050565b60006159ca8261594e565b6159d48185614ad4565b93506159df83615959565b8060005b83811015615a17576159f48261599f565b6159fe8882614b04565b9750615a09836159b2565b9250506001810190506159e3565b5085935050505092915050565b6000606082019050615a396000830186614426565b8181036020830152615a4b81856158f0565b90508181036040830152615a5f81846159bf565b9050949350505050565b7f455243313135353a2073657474696e6720617070726f76616c2073746174757360008201527f20666f722073656c660000000000000000000000000000000000000000000000602082015250565b6000615ac5602983614543565b9150615ad082615a69565b604082019050919050565b60006020820190508181036000830152615af481615ab8565b9050919050565b600081549050919050565b60008190508160005260206000209050919050565b600073ffffffffffffffffffffffffffffffffffffffff82169050919050565b6000615b4e615b498361596e565b615b1b565b9050919050565b6000615b618254615b3b565b9050919050565b6000600182019050919050565b6000615b8082615afb565b615b8a818561589b565b9350615b9583615b06565b8060005b83811015615bcd57615baa82615b55565b615bb488826158cb565b9750615bbf83615b68565b925050600181019050615b99565b5085935050505092915050565b6000606082019050615bef6000830186614426565b8181036020830152615c018185615b75565b90508181036040830152615c1581846159bf565b9050949350505050565b7f455243313135353a2063616c6c6572206973206e6f74206f776e6572206e6f7260008201527f20617070726f7665640000000000000000000000000000000000000000000000602082015250565b6000615c7b602983614543565b9150615c8682615c1f565b604082019050919050565b60006020820190508181036000830152615caa81615c6e565b9050919050565b600081519050919050565b600082825260208201905092915050565b6000615cd882615cb1565b615ce28185615cbc565b9350615cf2818560208601614554565b615cfb8161457e565b840191505092915050565b600060a082019050615d1b6000830188614ba9565b615d286020830187614ba9565b8181036040830152615d3a8186614b29565b90508181036060830152615d4e8185614b29565b90508181036080830152615d628184615ccd565b90509695505050505050565b600081519050615d7d8161447c565b92915050565b600060208284031215615d9957615d98614348565b5b6000615da784828501615d6e565b91505092915050565b60008160e01c9050919050565b600060033d1115615ddc5760046000803e615dd9600051615db0565b90505b90565b600060443d10615e6c57615df161433e565b60043d036004823e80513d602482011167ffffffffffffffff82111715615e19575050615e6c565b808201805167ffffffffffffffff811115615e375750505050615e6c565b80602083010160043d038501811115615e54575050505050615e6c565b615e638260200185018661461e565b82955050505050505b90565b7f455243313135353a207472616e7366657220746f206e6f6e2d4552433131353560008201527f526563656976657220696d706c656d656e746572000000000000000000000000602082015250565b6000615ecb603483614543565b9150615ed682615e6f565b604082019050919050565b60006020820190508181036000830152615efa81615ebe565b9050919050565b7f455243313135353a204552433131353552656365697665722072656a6563746560008201527f6420746f6b656e73000000000000000000000000000000000000000000000000602082015250565b6000615f5d602883614543565b9150615f6882615f01565b604082019050919050565b60006020820190508181036000830152615f8c81615f50565b9050919050565b7f5061757361626c653a206e6f7420706175736564000000000000000000000000600082015250565b6000615fc9601483614543565b9150615fd482615f93565b602082019050919050565b60006020820190508181036000830152615ff881615fbc565b9050919050565b600061600a826143b0565b9150616015836143b0565b9250828202616023816143b0565b9150828204841483151761603a57616039615244565b5b5092915050565b7f4e487b7100000000000000000000000000000000000000000000000000000000600052601260045260246000fd5b600061607b826143b0565b9150616086836143b0565b92508261609657616095616041565b5b828204905092915050565b60006160ac826143b0565b91506160b7836143b0565b92508282039050818111156160cf576160ce615244565b5b92915050565b7f455243313135353a206d696e7420746f20746865207a65726f2061646472657360008201527f7300000000000000000000000000000000000000000000000000000000000000602082015250565b6000616131602183614543565b915061613c826160d5565b604082019050919050565b6000602082019050818103600083015261616081616124565b9050919050565b7f52454a5556453a204c6f636b20706572696f642063616e6e6f74206265207a6560008201527f726f000000000000000000000000000000000000000000000000000000000000602082015250565b60006161c3602283614543565b91506161ce82616167565b604082019050919050565b600060208201905081810360008301526161f2816161b6565b9050919050565b7f52454a5556453a2054617267657420737570706c792063616e6e6f742062652060008201527f3000000000000000000000000000000000000000000000000000000000000000602082015250565b6000616255602183614543565b9150616260826161f9565b604082019050919050565b6000602082019050818103600083015261628481616248565b9050919050565b7f52454a5556453a20496e697469616c20636f6e7472696275746f72732070657260008201527f63656e742063616e6e6f74206265203000000000000000000000000000000000602082015250565b60006162e7603083614543565b91506162f28261628b565b604082019050919050565b60006020820190508181036000830152616316816162da565b9050919050565b60008190508160005260206000209050919050565b60006020601f8301049050919050565b600082821b905092915050565b60006008830261637f7fffffffffffffffffffffffffffffffffffffffffffffffffffffffffffffffff82616342565b6163898683616342565b95508019841693508086168417925050509392505050565b6000819050919050565b60006163c66163c16163bc846143b0565b6163a1565b6143b0565b9050919050565b6000819050919050565b6163e0836163ab565b6163f46163ec826163cd565b84845461634f565b825550505050565b600090565b6164096163fc565b6164148184846163d7565b505050565b5b818110156164385761642d600082616401565b60018101905061641a565b5050565b601f82111561647d5761644e8161631d565b61645784616332565b81016020851015616466578190505b61647a61647285616332565b830182616419565b50505b505050565b600082821c905092915050565b60006164a060001984600802616482565b1980831691505092915050565b60006164b9838361648f565b9150826002028217905092915050565b6164d282614538565b67ffffffffffffffff8111156164eb576164ea6145ef565b5b6164f582546150c0565b61650082828561643c565b600060209050601f8311600181146165335760008415616521578287015190505b61652b85826164ad565b865550616593565b601f1984166165418661631d565b60005b8281101561656957848901518255600182019150602085019450602081019050616544565b868310156165865784890151616582601f89168261648f565b8355505b6001600288020188555050505b505050505050565b60006165a6826148b6565b915060ff82036165b9576165b8615244565b5b600182019050919050565b600067ffffffffffffffff8211156165df576165de6145ef565b5b602082029050602081019050919050565b60006166036165fe84614737565b61464f565b90508281526020810184848401111561661f5761661e614732565b5b61662a848285614554565b509392505050565b600082601f830112616647576166466145ea565b5b81516166578482602086016165f0565b91505092915050565b600061667361666e846165c4565b61464f565b9050808382526020820190506020840283018581111561669657616695614696565b5b835b818110156166dd57805167ffffffffffffffff8111156166bb576166ba6145ea565b5b8086016166c88982616632565b85526020850194505050602081019050616698565b5050509392505050565b600082601f8301126166fc576166fb6145ea565b5b815161670c848260208601616660565b91505092915050565b60006020828403121561672b5761672a614348565b5b600082015167ffffffffffffffff8111156167495761674861434d565b5b616755848285016166e7565b91505092915050565b60008151905061676d816143ba565b92915050565b60006020828403121561678957616788614348565b5b60006167978482850161675e565b91505092915050565b600060208201905081810360008301526167ba8184615ccd565b905092915050565b6000815190506167d181614384565b92915050565b6000602082840312156167ed576167ec614348565b5b60006167fb848285016167c2565b91505092915050565b6000604082019050818103600083015261681e8185615ccd565b905061682d6020830184614426565b9392505050565b60006040820190506168496000830185614426565b6168566020830184614426565b9392505050565b600060a0820190506168726000830188614ba9565b61687f6020830187614ba9565b61688c6040830186614426565b6168996060830185614426565b81810360808301526168ab8184615ccd565b9050969550505050505056fea26469706673582212206f99eaf850af5214f5054724ed4d75075901889e7b0a8029bdd38aee537deb9864736f6c63430008110033",
  "linkReferences": {},
  "deployedLinkReferences": {}
}