{
  "_format": "hh-sol-artifact-1",
  "contractName": "TransferShards",
  "sourceName": "contracts/TransferShards.sol",
  "abi": [
    {
      "inputs": [
        {
          "internalType": "string",
          "name": "uri",
          "type": "string"
        },
        {
          "internalType": "address",
          "name": "productNFT",
          "type": "address"
        }
      ],
      "stateMutability": "nonpayable",
      "type": "constructor"
    },
    {
      "anonymous": false,
      "inputs": [
        {
          "indexed": true,
          "internalType": "address",
          "name": "account",
          "type": "address"
        },
        {
          "indexed": true,
          "internalType": "address",
          "name": "operator",
          "type": "address"
        },
        {
          "indexed": false,
          "internalType": "bool",
          "name": "approved",
          "type": "bool"
        }
      ],
      "name": "ApprovalForAll",
      "type": "event"
    },
    {
      "anonymous": false,
      "inputs": [
        {
          "indexed": false,
          "internalType": "uint256",
          "name": "productUID",
          "type": "uint256"
        },
        {
          "indexed": false,
          "internalType": "address[]",
          "name": "dataOwners",
          "type": "address[]"
        },
        {
          "indexed": false,
          "internalType": "uint256[]",
          "name": "shardAmount",
          "type": "uint256[]"
        }
      ],
      "name": "FutureShardDistributed",
      "type": "event"
    },
    {
      "anonymous": false,
      "inputs": [
        {
          "indexed": false,
          "internalType": "uint256",
          "name": "productUID",
          "type": "uint256"
        },
        {
          "indexed": false,
          "internalType": "address[]",
          "name": "dataOwners",
          "type": "address[]"
        },
        {
          "indexed": false,
          "internalType": "uint256[]",
          "name": "shardAmount",
          "type": "uint256[]"
        }
      ],
      "name": "InitialShardDistributed",
      "type": "event"
    },
    {
      "anonymous": false,
      "inputs": [
        {
          "indexed": true,
          "internalType": "address",
          "name": "previousOwner",
          "type": "address"
        },
        {
          "indexed": true,
          "internalType": "address",
          "name": "newOwner",
          "type": "address"
        }
      ],
      "name": "OwnershipTransferred",
      "type": "event"
    },
    {
      "anonymous": false,
      "inputs": [
        {
          "indexed": false,
          "internalType": "address",
          "name": "account",
          "type": "address"
        }
      ],
      "name": "Paused",
      "type": "event"
    },
    {
      "anonymous": false,
      "inputs": [
        {
          "indexed": false,
          "internalType": "uint256",
          "name": "productUID",
          "type": "uint256"
        },
        {
          "indexed": false,
          "internalType": "address",
          "name": "rejuve",
          "type": "address"
        },
        {
          "indexed": false,
          "internalType": "uint256",
          "name": "shardAmount",
          "type": "uint256"
        }
      ],
      "name": "RemainingShardAllocated",
      "type": "event"
    },
    {
      "anonymous": false,
      "inputs": [
        {
          "indexed": true,
          "internalType": "address",
          "name": "operator",
          "type": "address"
        },
        {
          "indexed": true,
          "internalType": "address",
          "name": "from",
          "type": "address"
        },
        {
          "indexed": true,
          "internalType": "address",
          "name": "to",
          "type": "address"
        },
        {
          "indexed": false,
          "internalType": "uint256[]",
          "name": "ids",
          "type": "uint256[]"
        },
        {
          "indexed": false,
          "internalType": "uint256[]",
          "name": "values",
          "type": "uint256[]"
        }
      ],
      "name": "TransferBatch",
      "type": "event"
    },
    {
      "anonymous": false,
      "inputs": [
        {
          "indexed": true,
          "internalType": "address",
          "name": "operator",
          "type": "address"
        },
        {
          "indexed": true,
          "internalType": "address",
          "name": "from",
          "type": "address"
        },
        {
          "indexed": true,
          "internalType": "address",
          "name": "to",
          "type": "address"
        },
        {
          "indexed": false,
          "internalType": "uint256",
          "name": "id",
          "type": "uint256"
        },
        {
          "indexed": false,
          "internalType": "uint256",
          "name": "value",
          "type": "uint256"
        }
      ],
      "name": "TransferSingle",
      "type": "event"
    },
    {
      "anonymous": false,
      "inputs": [
        {
          "indexed": false,
          "internalType": "string",
          "name": "value",
          "type": "string"
        },
        {
          "indexed": true,
          "internalType": "uint256",
          "name": "id",
          "type": "uint256"
        }
      ],
      "name": "URI",
      "type": "event"
    },
    {
      "anonymous": false,
      "inputs": [
        {
          "indexed": false,
          "internalType": "address",
          "name": "account",
          "type": "address"
        }
      ],
      "name": "Unpaused",
      "type": "event"
    },
    {
      "inputs": [
        {
          "internalType": "address",
          "name": "account",
          "type": "address"
        },
        {
          "internalType": "uint256",
          "name": "id",
          "type": "uint256"
        }
      ],
      "name": "balanceOf",
      "outputs": [
        {
          "internalType": "uint256",
          "name": "",
          "type": "uint256"
        }
      ],
      "stateMutability": "view",
      "type": "function"
    },
    {
      "inputs": [
        {
          "internalType": "address[]",
          "name": "accounts",
          "type": "address[]"
        },
        {
          "internalType": "uint256[]",
          "name": "ids",
          "type": "uint256[]"
        }
      ],
      "name": "balanceOfBatch",
      "outputs": [
        {
          "internalType": "uint256[]",
          "name": "",
          "type": "uint256[]"
        }
      ],
      "stateMutability": "view",
      "type": "function"
    },
    {
      "inputs": [
        {
          "internalType": "uint256",
          "name": "productUID",
          "type": "uint256"
        },
        {
          "internalType": "uint8",
          "name": "futurePercent",
          "type": "uint8"
        },
        {
          "internalType": "uint256[]",
          "name": "credits",
          "type": "uint256[]"
        },
        {
          "internalType": "address[]",
          "name": "futureContributors",
          "type": "address[]"
        }
      ],
      "name": "distributeFutureShards",
      "outputs": [],
      "stateMutability": "nonpayable",
      "type": "function"
    },
    {
      "inputs": [
        {
          "internalType": "uint256",
          "name": "productUID",
          "type": "uint256"
        },
        {
          "internalType": "uint256",
          "name": "targetSupply_",
          "type": "uint256"
        },
        {
          "internalType": "uint256",
          "name": "labCredit",
          "type": "uint256"
        },
        {
          "internalType": "uint256",
          "name": "lockPeriod",
          "type": "uint256"
        },
        {
          "internalType": "uint8",
          "name": "initialPercent",
          "type": "uint8"
        },
        {
          "internalType": "uint8",
          "name": "rejuvePercent",
          "type": "uint8"
        },
        {
          "internalType": "address",
          "name": "lab",
          "type": "address"
        },
        {
          "internalType": "address",
          "name": "rejuve",
          "type": "address"
        },
        {
          "internalType": "string[]",
          "name": "uris",
          "type": "string[]"
        }
      ],
      "name": "distributeInitialShards",
      "outputs": [],
      "stateMutability": "nonpayable",
      "type": "function"
    },
    {
      "inputs": [
        {
          "internalType": "uint256",
          "name": "productUID",
          "type": "uint256"
        }
      ],
      "name": "getProductIDs",
      "outputs": [
        {
          "internalType": "uint256[]",
          "name": "",
          "type": "uint256[]"
        }
      ],
      "stateMutability": "view",
      "type": "function"
    },
    {
      "inputs": [
        {
          "internalType": "uint256",
          "name": "productUID",
          "type": "uint256"
        }
      ],
      "name": "getShardsConfig",
      "outputs": [
        {
          "internalType": "uint256",
          "name": "",
          "type": "uint256"
        },
        {
          "internalType": "uint8",
          "name": "",
          "type": "uint8"
        },
        {
          "internalType": "uint8",
          "name": "",
          "type": "uint8"
        },
        {
          "internalType": "uint8",
          "name": "",
          "type": "uint8"
        }
      ],
      "stateMutability": "view",
      "type": "function"
    },
    {
      "inputs": [
        {
          "internalType": "address",
          "name": "account",
          "type": "address"
        },
        {
          "internalType": "address",
          "name": "operator",
          "type": "address"
        }
      ],
      "name": "isApprovedForAll",
      "outputs": [
        {
          "internalType": "bool",
          "name": "",
          "type": "bool"
        }
      ],
      "stateMutability": "view",
      "type": "function"
    },
    {
      "inputs": [],
      "name": "owner",
      "outputs": [
        {
          "internalType": "address",
          "name": "",
          "type": "address"
        }
      ],
      "stateMutability": "view",
      "type": "function"
    },
    {
      "inputs": [],
      "name": "pause",
      "outputs": [],
      "stateMutability": "nonpayable",
      "type": "function"
    },
    {
      "inputs": [],
      "name": "paused",
      "outputs": [
        {
          "internalType": "bool",
          "name": "",
          "type": "bool"
        }
      ],
      "stateMutability": "view",
      "type": "function"
    },
    {
      "inputs": [],
      "name": "renounceOwnership",
      "outputs": [],
      "stateMutability": "nonpayable",
      "type": "function"
    },
    {
      "inputs": [
        {
          "internalType": "address",
          "name": "from",
          "type": "address"
        },
        {
          "internalType": "address",
          "name": "to",
          "type": "address"
        },
        {
          "internalType": "uint256[]",
          "name": "ids",
          "type": "uint256[]"
        },
        {
          "internalType": "uint256[]",
          "name": "amounts",
          "type": "uint256[]"
        },
        {
          "internalType": "bytes",
          "name": "data",
          "type": "bytes"
        }
      ],
      "name": "safeBatchTransferFrom",
      "outputs": [],
      "stateMutability": "nonpayable",
      "type": "function"
    },
    {
      "inputs": [
        {
          "internalType": "address",
          "name": "from",
          "type": "address"
        },
        {
          "internalType": "address",
          "name": "to",
          "type": "address"
        },
        {
          "internalType": "uint256",
          "name": "id",
          "type": "uint256"
        },
        {
          "internalType": "uint256",
          "name": "amount",
          "type": "uint256"
        },
        {
          "internalType": "bytes",
          "name": "data",
          "type": "bytes"
        }
      ],
      "name": "safeTransferFrom",
      "outputs": [],
      "stateMutability": "nonpayable",
      "type": "function"
    },
    {
      "inputs": [
        {
          "internalType": "address",
          "name": "operator",
          "type": "address"
        },
        {
          "internalType": "bool",
          "name": "approved",
          "type": "bool"
        }
      ],
      "name": "setApprovalForAll",
      "outputs": [],
      "stateMutability": "nonpayable",
      "type": "function"
    },
    {
      "inputs": [
        {
          "internalType": "bytes4",
          "name": "interfaceId",
          "type": "bytes4"
        }
      ],
      "name": "supportsInterface",
      "outputs": [
        {
          "internalType": "bool",
          "name": "",
          "type": "bool"
        }
      ],
      "stateMutability": "view",
      "type": "function"
    },
    {
      "inputs": [
        {
          "internalType": "uint256",
          "name": "productUID",
          "type": "uint256"
        }
      ],
      "name": "targetSupply",
      "outputs": [
        {
          "internalType": "uint256",
          "name": "",
          "type": "uint256"
        }
      ],
      "stateMutability": "view",
      "type": "function"
    },
    {
      "inputs": [
        {
          "internalType": "uint256",
          "name": "productUID",
          "type": "uint256"
        }
      ],
      "name": "totalShardSupply",
      "outputs": [
        {
          "internalType": "uint256",
          "name": "",
          "type": "uint256"
        }
      ],
      "stateMutability": "view",
      "type": "function"
    },
    {
      "inputs": [
        {
          "internalType": "address",
          "name": "newOwner",
          "type": "address"
        }
      ],
      "name": "transferOwnership",
      "outputs": [],
      "stateMutability": "nonpayable",
      "type": "function"
    },
    {
      "inputs": [],
      "name": "unpause",
      "outputs": [],
      "stateMutability": "nonpayable",
      "type": "function"
    },
    {
      "inputs": [
        {
          "internalType": "uint256",
          "name": "id",
          "type": "uint256"
        }
      ],
      "name": "uri",
      "outputs": [
        {
          "internalType": "string",
          "name": "",
          "type": "string"
        }
      ],
      "stateMutability": "view",
      "type": "function"
    }
  ],
  "bytecode": "0x60806040523480156200001157600080fd5b50604051620077bd380380620077bd833981810160405281019062000037919062000427565b81818181816200005c620000506200014560201b60201c565b6200014d60201b60201c565b60008060146101000a81548160ff02191690831515021790555062000087816200021160201b60201c565b50620000a4679bf6fa4a2bfb7d8860c01b6200022660201b60201c565b620000c067d369b1ae4aaf4d5c60c01b6200022660201b60201c565b80600460006101000a81548173ffffffffffffffffffffffffffffffffffffffff021916908373ffffffffffffffffffffffffffffffffffffffff16021790555050506200011f677c5b2bceb7e2acfb60c01b6200022960201b60201c565b50506200013d676e061b537a642aa660c01b6200022c60201b60201c565b5050620007bf565b600033905090565b60008060009054906101000a900473ffffffffffffffffffffffffffffffffffffffff169050816000806101000a81548173ffffffffffffffffffffffffffffffffffffffff021916908373ffffffffffffffffffffffffffffffffffffffff1602179055508173ffffffffffffffffffffffffffffffffffffffff168173ffffffffffffffffffffffffffffffffffffffff167f8be0079c531659141344cd1fd0a4f28419497f9722a3daafe3b4186f6b6457e060405160405180910390a35050565b8060039081620002229190620006d8565b5050565b50565b50565b50565b6000604051905090565b600080fd5b600080fd5b600080fd5b600080fd5b6000601f19601f8301169050919050565b7f4e487b7100000000000000000000000000000000000000000000000000000000600052604160045260246000fd5b62000298826200024d565b810181811067ffffffffffffffff82111715620002ba57620002b96200025e565b5b80604052505050565b6000620002cf6200022f565b9050620002dd82826200028d565b919050565b600067ffffffffffffffff8211156200030057620002ff6200025e565b5b6200030b826200024d565b9050602081019050919050565b60005b83811015620003385780820151818401526020810190506200031b565b60008484015250505050565b60006200035b6200035584620002e2565b620002c3565b9050828152602081018484840111156200037a576200037962000248565b5b6200038784828562000318565b509392505050565b600082601f830112620003a757620003a662000243565b5b8151620003b984826020860162000344565b91505092915050565b600073ffffffffffffffffffffffffffffffffffffffff82169050919050565b6000620003ef82620003c2565b9050919050565b6200040181620003e2565b81146200040d57600080fd5b50565b6000815190506200042181620003f6565b92915050565b6000806040838503121562000441576200044062000239565b5b600083015167ffffffffffffffff8111156200046257620004616200023e565b5b62000470858286016200038f565b9250506020620004838582860162000410565b9150509250929050565b600081519050919050565b7f4e487b7100000000000000000000000000000000000000000000000000000000600052602260045260246000fd5b60006002820490506001821680620004e057607f821691505b602082108103620004f657620004f562000498565b5b50919050565b60008190508160005260206000209050919050565b60006020601f8301049050919050565b600082821b905092915050565b600060088302620005607fffffffffffffffffffffffffffffffffffffffffffffffffffffffffffffffff8262000521565b6200056c868362000521565b95508019841693508086168417925050509392505050565b6000819050919050565b6000819050919050565b6000620005b9620005b3620005ad8462000584565b6200058e565b62000584565b9050919050565b6000819050919050565b620005d58362000598565b620005ed620005e482620005c0565b8484546200052e565b825550505050565b600090565b62000604620005f5565b62000611818484620005ca565b505050565b5b8181101562000639576200062d600082620005fa565b60018101905062000617565b5050565b601f82111562000688576200065281620004fc565b6200065d8462000511565b810160208510156200066d578190505b620006856200067c8562000511565b83018262000616565b50505b505050565b600082821c905092915050565b6000620006ad600019846008026200068d565b1980831691505092915050565b6000620006c883836200069a565b9150826002028217905092915050565b620006e3826200048d565b67ffffffffffffffff811115620006ff57620006fe6200025e565b5b6200070b8254620004c7565b620007188282856200063d565b600060209050601f8311600181146200075057600084156200073b578287015190505b620007478582620006ba565b865550620007b7565b601f1984166200076086620004fc565b60005b828110156200078a5784890151825560018201915060208501945060208101905062000763565b86831015620007aa5784890151620007a6601f8916826200069a565b8355505b6001600288020188555050505b505050505050565b616fee80620007cf6000396000f3fe608060405234801561001057600080fd5b506004361061012b5760003560e01c80638456cb59116100ad578063d6e0dbda11610071578063d6e0dbda1461031a578063e985e9c51461034a578063f242432a1461037a578063f2fde38b14610396578063fac795c0146103b25761012b565b80638456cb591461028a5780638da5cb5b14610294578063936906f1146102b2578063a22cb465146102e2578063d429c758146102fe5761012b565b80634567db03116100f45780634567db03146101e65780634e1273f4146102025780634e57d942146102325780635c975abb14610262578063715018a6146102805761012b565b8062fdd58e1461013057806301ffc9a7146101605780630e89341c146101905780632eb2c2d6146101c05780633f4ba83a146101dc575b600080fd5b61014a6004803603810190610145919061480d565b6103e5565b604051610157919061485c565b60405180910390f35b61017a600480360381019061017591906148cf565b6104ae565b6040516101879190614917565b60405180910390f35b6101aa60048036038101906101a59190614932565b610590565b6040516101b791906149ef565b60405180910390f35b6101da60048036038101906101d59190614c0e565b610671565b005b6101e4610712565b005b61020060048036038101906101fb9190614dd9565b610788565b005b61021c60048036038101906102179190614e78565b610836565b6040516102299190614fae565b60405180910390f35b61024c60048036038101906102479190614932565b61094f565b6040516102599190614fae565b60405180910390f35b61026a6109f6565b6040516102779190614917565b60405180910390f35b610288610a0c565b005b610292610a20565b005b61029c610a96565b6040516102a99190614fdf565b60405180910390f35b6102cc60048036038101906102c79190614932565b610abf565b6040516102d9919061485c565b60405180910390f35b6102fc60048036038101906102f79190615026565b610b1b565b005b610318600480360381019061031391906151e8565b610b31565b005b610334600480360381019061032f9190614932565b610c21565b604051610341919061485c565b60405180910390f35b610364600480360381019061035f91906152ce565b610c7d565b6040516103719190614917565b60405180910390f35b610394600480360381019061038f919061530e565b610d11565b005b6103b060048036038101906103ab91906153a5565b610f0d565b005b6103cc60048036038101906103c79190614932565b610f90565b6040516103dc94939291906153e1565b60405180910390f35b60008073ffffffffffffffffffffffffffffffffffffffff168373ffffffffffffffffffffffffffffffffffffffff1603610455576040517f08c379a000000000000000000000000000000000000000000000000000000000815260040161044c90615498565b60405180910390fd5b6001600083815260200190815260200160002060008473ffffffffffffffffffffffffffffffffffffffff1673ffffffffffffffffffffffffffffffffffffffff16815260200190815260200160002054905092915050565b60007fd9b67a26000000000000000000000000000000000000000000000000000000007bffffffffffffffffffffffffffffffffffffffffffffffffffffffff1916827bffffffffffffffffffffffffffffffffffffffffffffffffffffffff1916148061057957507f0e89341c000000000000000000000000000000000000000000000000000000007bffffffffffffffffffffffffffffffffffffffffffffffffffffffff1916827bffffffffffffffffffffffffffffffffffffffffffffffffffffffff1916145b80610589575061058882611064565b5b9050919050565b60606105a667aebe2a23261a44c960c01b6110ce565b6105ba67ce7e659afee2fd0960c01b6110ce565b6105ce67fbc6b03b75f5137360c01b6110ce565b600e600083815260200190815260200160002080546105ec906154e7565b80601f0160208091040260200160405190810160405280929190818152602001828054610618906154e7565b80156106655780601f1061063a57610100808354040283529160200191610665565b820191906000526020600020905b81548152906001019060200180831161064857829003601f168201915b50505050509050919050565b6106796110d1565b73ffffffffffffffffffffffffffffffffffffffff168573ffffffffffffffffffffffffffffffffffffffff1614806106bf57506106be856106b96110d1565b610c7d565b5b6106fe576040517f08c379a00000000000000000000000000000000000000000000000000000000081526004016106f59061558a565b60405180910390fd5b61070b85858585856110d9565b5050505050565b61072667657414c24aee159b60c01b6113fd565b61072e611400565b61074267e1fb23f4508b0a7960c01b6113fd565b610756679a1f8e8463d552cf60c01b6113fd565b61076a6739cf575ee59d915360c01b6113fd565b61077e673741768c5277189d60c01b6113fd565b61078661147e565b565b61079c6733578609a1f8ef7360c01b6114e0565b6107a4611400565b6107b86798b63c1a2b18905160c01b6114e0565b6107cc678cf79652b5470b0f60c01b6114e0565b6107d46114e3565b6107e867c0982fa7b02a7d6960c01b6114e0565b6107fc67a6a0ecddc878f43f60c01b6114e0565b61081067ebb2c6301f3574f560c01b6114e0565b610824670eaeb8e1594b741a60c01b6114e0565b6108308484848461152d565b50505050565b6060815183511461087c576040517f08c379a00000000000000000000000000000000000000000000000000000000081526004016108739061561c565b60405180910390fd5b6000835167ffffffffffffffff81111561089957610898614a16565b5b6040519080825280602002602001820160405280156108c75781602001602082028036833780820191505090505b50905060005b8451811015610944576109148582815181106108ec576108eb61563c565b5b60200260200101518583815181106109075761090661563c565b5b60200260200101516103e5565b8282815181106109275761092661563c565b5b6020026020010181815250508061093d9061569a565b90506108cd565b508091505092915050565b60606109656722604be50b9f041660c01b6110ce565b61097967a6f1c1f3f7bd99ce60c01b6110ce565b61098d67cda8f5d3e2f487d460c01b6110ce565b600a60008381526020019081526020016000208054806020026020016040519081016040528092919081815260200182805480156109ea57602002820191906000526020600020905b8154815260200190600101908083116109d6575b50505050509050919050565b60008060149054906101000a900460ff16905090565b610a14611400565b610a1e60006119e4565b565b610a3467dfd1ea0834c313f460c01b6113fd565b610a3c611400565b610a5067cd3080889a0e288160c01b6113fd565b610a64675d7bc23e000ced9660c01b6113fd565b610a7867b9c32d53b08fa59260c01b6113fd565b610a8c67cd7ef6684239c05c60c01b6113fd565b610a94611aa8565b565b60008060009054906101000a900473ffffffffffffffffffffffffffffffffffffffff16905090565b6000610ad5671c4fadc21c9a16a260c01b6110ce565b610ae967cab08564ce9e7e9a60c01b6110ce565b610afd672886f1eb74b2daa260c01b6110ce565b60096000838152602001908152602001600020600101549050919050565b610b2d610b266110d1565b8383611b0b565b5050565b610b4567b342c3f70da31b7d60c01b6110ce565b610b4d611400565b610b61679f9dc97fb189442060c01b6110ce565b610b75676fd38ff7e78a1d3f60c01b6110ce565b610b7d6114e3565b610b91677fddb75df20bea7f60c01b6110ce565b610ba5678468081c1b1357ac60c01b6110ce565b610bb9676e3ef9774a73e81360c01b6110ce565b610bcd6792491d56385ecc7c60c01b6110ce565b610bdd8888888888888888611c77565b610bf167671c0c4d2fe650b160c01b6110ce565b610c0567659d0174fa4f0bff60c01b6110ce565b610c1689898989898989898961218c565b505050505050505050565b6000610c3767cdbe933b2af6fb5960c01b6110ce565b610c4b6755bc71e6e7ae880b60c01b6110ce565b610c5f6723a1143aabdc8dbf60c01b6110ce565b60096000838152602001908152602001600020600201549050919050565b6000600260008473ffffffffffffffffffffffffffffffffffffffff1673ffffffffffffffffffffffffffffffffffffffff16815260200190815260200160002060008373ffffffffffffffffffffffffffffffffffffffff1673ffffffffffffffffffffffffffffffffffffffff16815260200190815260200160002060009054906101000a900460ff16905092915050565b610d25679e37fb71653580bf60c01b6113fd565b610d386694ff07b9254ab160c01b6113fd565b610d4c67f88b04d2ba5382aa60c01b6113fd565b6040518060400160405280600681526020017f4c4f434b4544000000000000000000000000000000000000000000000000000081525080519060200120600d6000858152602001908152602001600020604051610da99190615785565b604051809103902003610ebc57610dca67534e4178c409024360c01b6113fd565b610dde67b91cfd3a3d7d454260c01b6113fd565b610df2670e57f831d7ce68ee60c01b6113fd565b610e06678c258ac9f7ba5b5660c01b6113fd565b600b6000600c6000868152602001908152602001600020548152602001908152602001600020544211610e6e576040517f08c379a0000000000000000000000000000000000000000000000000000000008152600401610e659061580e565b60405180910390fd5b610e8267b81c7816f8fb090f60c01b6113fd565b610e9667db69701ee873e22960c01b6113fd565b610eaa67a6fe153decb6eec960c01b6113fd565b610eb78585858585612359565b610f06565b610ed067a5827ffb8896776760c01b6113fd565b610ee467a48178795f1708b660c01b6113fd565b610ef867663fd50bfa6d255560c01b6113fd565b610f058585858585612359565b5b5050505050565b610f15611400565b600073ffffffffffffffffffffffffffffffffffffffff168173ffffffffffffffffffffffffffffffffffffffff1603610f84576040517f08c379a0000000000000000000000000000000000000000000000000000000008152600401610f7b906158a0565b60405180910390fd5b610f8d816119e4565b50565b600080600080610faa6707c35272e207b50160c01b6110ce565b610fbe674a0d05ec507fb2d260c01b6110ce565b610fd267984913895d1ff70f60c01b6110ce565b60096000868152602001908152602001600020600301546009600087815260200190815260200160002060040160009054906101000a900460ff166009600088815260200190815260200160002060040160029054906101000a900460ff166009600089815260200190815260200160002060040160019054906101000a900460ff1693509350935093509193509193565b60007f01ffc9a7000000000000000000000000000000000000000000000000000000007bffffffffffffffffffffffffffffffffffffffffffffffffffffffff1916827bffffffffffffffffffffffffffffffffffffffffffffffffffffffff1916149050919050565b50565b600033905090565b815183511461111d576040517f08c379a000000000000000000000000000000000000000000000000000000000815260040161111490615932565b60405180910390fd5b600073ffffffffffffffffffffffffffffffffffffffff168473ffffffffffffffffffffffffffffffffffffffff160361118c576040517f08c379a0000000000000000000000000000000000000000000000000000000008152600401611183906159c4565b60405180910390fd5b60006111966110d1565b90506111a68187878787876124ee565b60005b845181101561135a5760008582815181106111c7576111c661563c565b5b6020026020010151905060008583815181106111e6576111e561563c565b5b6020026020010151905060006001600084815260200190815260200160002060008b73ffffffffffffffffffffffffffffffffffffffff1673ffffffffffffffffffffffffffffffffffffffff16815260200190815260200160002054905081811015611288576040517f08c379a000000000000000000000000000000000000000000000000000000000815260040161127f90615a56565b60405180910390fd5b8181036001600085815260200190815260200160002060008c73ffffffffffffffffffffffffffffffffffffffff1673ffffffffffffffffffffffffffffffffffffffff16815260200190815260200160002081905550816001600085815260200190815260200160002060008b73ffffffffffffffffffffffffffffffffffffffff1673ffffffffffffffffffffffffffffffffffffffff168152602001908152602001600020600082825461133f9190615a76565b92505081905550505050806113539061569a565b90506111a9565b508473ffffffffffffffffffffffffffffffffffffffff168673ffffffffffffffffffffffffffffffffffffffff168273ffffffffffffffffffffffffffffffffffffffff167f4a39dc06d4c0dbc64b70af90fd698a233a518aa5d07e595d983b8c0526c8f7fb87876040516113d1929190615aaa565b60405180910390a46113e78187878787876124f6565b6113f58187878787876124fe565b505050505050565b50565b6114086110d1565b73ffffffffffffffffffffffffffffffffffffffff16611426610a96565b73ffffffffffffffffffffffffffffffffffffffff161461147c576040517f08c379a000000000000000000000000000000000000000000000000000000000815260040161147390615b2d565b60405180910390fd5b565b6114866126d5565b60008060146101000a81548160ff0219169083151502179055507f5db9ee0a495bf2e6ff9c91a7834c1ba4fdd244a5e8aa4e537bd38aeae4b073aa6114c96110d1565b6040516114d69190614fdf565b60405180910390a1565b50565b6114eb6109f6565b1561152b576040517f08c379a000000000000000000000000000000000000000000000000000000000815260040161152290615b99565b60405180910390fd5b565b61154167c8c135c23763939460c01b6114e0565b6115556787939176ec5c68ce60c01b6114e0565b61156967ca904eb40a8a5e8160c01b6114e0565b61157d67d272ab39f7ebe03260c01b6114e0565b81518151146115c1576040517f08c379a00000000000000000000000000000000000000000000000000000000081526004016115b890615c05565b60405180910390fd5b6115d56715bb95e89cc0740660c01b6114e0565b6115e967960ce4cc78d094f560c01b6114e0565b6115fd676ba29e2eb5c1e03260c01b6114e0565b61161167afc3d419495d802560c01b6114e0565b60008360ff1603611657576040517f08c379a000000000000000000000000000000000000000000000000000000000815260040161164e90615c97565b60405180910390fd5b61166b679a5ec14ad3f8ace860c01b6114e0565b61167f6746b810f4220f89e760c01b6114e0565b6116936720d6b1425ac26f6a60c01b6114e0565b60006009600086815260200190815260200160002090506116be67e8505f32451b4cc860c01b6114e0565b838160040160026101000a81548160ff021916908360ff1602179055506116ef671d64548f02b1f43460c01b6114e0565b611703677c171f77e704781860c01b6114e0565b600061170e8461271e565b905061172467f0b6553bda0cc9d160c01b6114e0565b61173867aab39f32f9f049ab60c01b6114e0565b60005b83518110156119485761175867887dde395f1d522e60c01b6114e0565b61176c674caa06e818c245c160c01b6114e0565b600061179b8683815181106117845761178361563c565b5b6020026020010151848960ff168760010154612813565b90506117b167ed549561336349ec60c01b6114e0565b6117c5671296c055a742b59860c01b6114e0565b60006117d08261292b565b90506117e667cbd325f4ff70088460c01b6114e0565b6117fa67b3e48c32bad79f0260c01b6114e0565b6118b68684815181106118105761180f61563c565b5b6020026020010151600a60008c815260200190815260200160002080548060200260200160405190810160405280929190818152602001828054801561187557602002820191906000526020600020905b815481526020019060010190808311611861575b5050505050836040518060400160405280600481526020017f3078303000000000000000000000000000000000000000000000000000000000815250612aba565b6118ca67aa564919c913c37660c01b6114e0565b8185600201546118da9190615a76565b85600201819055506118f6674cd240c926a7be1560c01b6114e0565b61190a67b9c58cd24731482960c01b6114e0565b6010829080600181540180825580915050600190039060005260206000200160009091909190915055505080806119409061569a565b91505061173b565b5061195d67a48ab05dd391769760c01b6114e0565b611971674dcdafbaefbfd95560c01b6114e0565b7f621e1a59d70685f53a28114e1229586ecd6908416f6bfaee0e147c3d34f39845868460106040516119a593929190615e4b565b60405180910390a16119c167b3527ece4b8403c260c01b6114e0565b6001600f60006101000a81548160ff021916908315150217905550505050505050565b60008060009054906101000a900473ffffffffffffffffffffffffffffffffffffffff169050816000806101000a81548173ffffffffffffffffffffffffffffffffffffffff021916908373ffffffffffffffffffffffffffffffffffffffff1602179055508173ffffffffffffffffffffffffffffffffffffffff168173ffffffffffffffffffffffffffffffffffffffff167f8be0079c531659141344cd1fd0a4f28419497f9722a3daafe3b4186f6b6457e060405160405180910390a35050565b611ab06114e3565b6001600060146101000a81548160ff0219169083151502179055507f62e78cea01bee320cd4e420270b5ea74000d11b0c9f74754ebdbfc544b05a258611af46110d1565b604051611b019190614fdf565b60405180910390a1565b8173ffffffffffffffffffffffffffffffffffffffff168373ffffffffffffffffffffffffffffffffffffffff1603611b79576040517f08c379a0000000000000000000000000000000000000000000000000000000008152600401611b7090615f02565b60405180910390fd5b80600260008573ffffffffffffffffffffffffffffffffffffffff1673ffffffffffffffffffffffffffffffffffffffff16815260200190815260200160002060008473ffffffffffffffffffffffffffffffffffffffff1673ffffffffffffffffffffffffffffffffffffffff16815260200190815260200160002060006101000a81548160ff0219169083151502179055508173ffffffffffffffffffffffffffffffffffffffff168373ffffffffffffffffffffffffffffffffffffffff167f17307eab39ab6107e8899845ad3d59bd9653f200f220920489ca2b5937696c3183604051611c6a9190614917565b60405180910390a3505050565b611c8b6792aa9b72430d24e360c01b6110ce565b611c9f67f9ccfcc82c13a16360c01b6110ce565b611cb367a3673a6118727ba760c01b6110ce565b611cc767ed6acc35e994de7260c01b6110ce565b60008811611d0a576040517f08c379a0000000000000000000000000000000000000000000000000000000008152600401611d0190615f94565b60405180910390fd5b611d1e67841cbd88491e871360c01b6110ce565b611d3267dce291d7e010780b60c01b6110ce565b611d46670bb7a6e407efc47660c01b6110ce565b611d5a6757aa5249488aa45960c01b6110ce565b60008711611d9d576040517f08c379a0000000000000000000000000000000000000000000000000000000008152600401611d9490616026565b60405180910390fd5b611db1674c743fd509e13ca260c01b6110ce565b611dc5671cd8bc8308ca09a860c01b6110ce565b611dd967e1d00c6ecef3e63660c01b6110ce565b611ded6717d03e45f5f4711a60c01b6110ce565b60008611611e30576040517f08c379a0000000000000000000000000000000000000000000000000000000008152600401611e27906160b8565b60405180910390fd5b611e44670ca5aa0b5928e3a760c01b6110ce565b611e5867af293111d99b85f060c01b6110ce565b611e6c67737010027b8cc44960c01b6110ce565b611e80674ce0dec13bc3579160c01b6110ce565b60008560ff1611611ec6576040517f08c379a0000000000000000000000000000000000000000000000000000000008152600401611ebd9061614a565b60405180910390fd5b611eda67a280eebeed42d79c60c01b6110ce565b611eee67b89870c028d633d260c01b6110ce565b611f0267efc7430a0cf44b0d60c01b6110ce565b611f16672618d4ee2346949b60c01b6110ce565b60008460ff1611611f5c576040517f08c379a0000000000000000000000000000000000000000000000000000000008152600401611f53906161dc565b60405180910390fd5b611f7067c7b765deef0d18fe60c01b6110ce565b611f84679811dc976b1c36f160c01b6110ce565b611f9867ab8aed532df2d76b60c01b6110ce565b611fac67bba17983cdabd13360c01b6110ce565b600073ffffffffffffffffffffffffffffffffffffffff168373ffffffffffffffffffffffffffffffffffffffff160361201b576040517f08c379a00000000000000000000000000000000000000000000000000000000081526004016120129061626e565b60405180910390fd5b61202f67e7524e6bb510413060c01b6110ce565b6120436717ecefd70aa16eab60c01b6110ce565b61205767bafb3e51f464f8c660c01b6110ce565b61206b67dc33db0eb21ed9a060c01b6110ce565b600073ffffffffffffffffffffffffffffffffffffffff168273ffffffffffffffffffffffffffffffffffffffff16036120da576040517f08c379a00000000000000000000000000000000000000000000000000000000081526004016120d190616300565b60405180910390fd5b6120ee67661787d79f638ca760c01b6110ce565b61210267f29e927760c91b4660c01b6110ce565b61211667ee28653b3a46f48c60c01b6110ce565b61212a67f83095505e1071c960c01b6110ce565b600081511161216e576040517f08c379a000000000000000000000000000000000000000000000000000000000815260040161216590616392565b60405180910390fd5b61218267836d83570f0cd3a660c01b6110ce565b5050505050505050565b6121a067be97bdc86a34d4c960c01b6110ce565b6121b366fa7258db33e83660c01b6110ce565b6121c767132444359128480360c01b6110ce565b6121d18987612ce7565b6121e567815d296fbc8b093960c01b6110ce565b6121f9670a27e4cbcfee6d1b60c01b6110ce565b6122198989600b60008d8152602001908152602001600020548888612d4d565b61222d67864422b3f98b08ae60c01b6110ce565b612241677052205b98ca125960c01b6110ce565b61224b8982612e61565b61225f6786208709abf5bb9960c01b6110ce565b612273674a524ba9e578aed560c01b6110ce565b61228389898760ff168a876131fd565b612297675f8a21eb0406262860c01b6110ce565b6122ab67a889e1f5f41711fd60c01b6110ce565b6122ba8989848760ff1661397e565b6122ce67e683444f23e6b69060c01b6110ce565b6122e267164ea45f6885c7da60c01b6110ce565b7fb79a1263d65160537b9075e0e4747a6007a82fb191be4435b4c508c431920b89896006600760405161231793929190616491565b60405180910390a161233367280eb10e9a4788dc60c01b6110ce565b6001600860006101000a81548160ff021916908315150217905550505050505050505050565b61236d673b82bb8ab814072760c01b6113fd565b6123756114e3565b61238967f12fad4fcf81bd4160c01b6113fd565b61239d677fd2a6b00d74281860c01b6113fd565b6123b16744d0fad23098824d60c01b6113fd565b6123c567a852b415c2ec548860c01b6113fd565b6123d9671d5ebe3eeae3d9e860c01b6113fd565b6123e16110d1565b73ffffffffffffffffffffffffffffffffffffffff168573ffffffffffffffffffffffffffffffffffffffff1614801561242b575061242a67987105ba850be64960c01b613c55565b5b8061245f57506124428561243d6110d1565b610c7d565b801561245e575061245d67667b35dd77f1de2c60c01b613c55565b5b5b61249e576040517f08c379a000000000000000000000000000000000000000000000000000000000815260040161249590616548565b60405180910390fd5b6124b26723ce3dae7e705bcf60c01b6113fd565b6124c667150f0531467ecef360c01b6113fd565b6124da6765ce33ea84b8aabc60c01b6113fd565b6124e78585858585613c60565b5050505050565b505050505050565b505050505050565b61251d8473ffffffffffffffffffffffffffffffffffffffff16613efe565b156126cd578373ffffffffffffffffffffffffffffffffffffffff1663bc197c8187878686866040518663ffffffff1660e01b81526004016125639594939291906165bd565b6020604051808303816000875af192505050801561259f57506040513d601f19601f8201168201806040525081019061259c919061663a565b60015b612644576125ab616674565b806308c379a00361260757506125bf616696565b806125ca5750612609565b806040517f08c379a00000000000000000000000000000000000000000000000000000000081526004016125fe91906149ef565b60405180910390fd5b505b6040517f08c379a000000000000000000000000000000000000000000000000000000000815260040161263b90616798565b60405180910390fd5b63bc197c8160e01b7bffffffffffffffffffffffffffffffffffffffffffffffffffffffff1916817bffffffffffffffffffffffffffffffffffffffffffffffffffffffff1916146126cb576040517f08c379a00000000000000000000000000000000000000000000000000000000081526004016126c29061682a565b60405180910390fd5b505b505050505050565b6126dd6109f6565b61271c576040517f08c379a000000000000000000000000000000000000000000000000000000000815260040161271390616896565b60405180910390fd5b565b600061273467bd947eaacfbca90f60c01b6114e0565b612748674a123d60b2673ade60c01b6114e0565b61275c6759adcff8f89894c360c01b6114e0565b600061277267314e3132f1de969460c01b6114e0565b61278667ea32be6d128effd960c01b6114e0565b60005b83518110156127e1576127a6673afc7035c537439660c01b6114e0565b8381815181106127b9576127b861563c565b5b6020026020010151826127cc9190615a76565b915080806127d99061569a565b915050612789565b506127f667b8ebafd1b513364060c01b6114e0565b61280a679a75ecffa73048d660c01b6114e0565b80915050919050565b600061282967c9a103043bcc7b8360c01b6110ce565b61283d671b6a37f959dc428460c01b6110ce565b612851679a0b07648b2b751060c01b6110ce565b60008486606461286191906168b6565b61286b9190616927565b90506128816791ebf62c0998828060c01b6110ce565b612895674027c85802a7ec6f60c01b6110ce565b6000606485856128a591906168b6565b6128af9190616927565b90506128c5673292f22b29e3e13960c01b6110ce565b6128d9672e395931805b912360c01b6110ce565b6000606483836128e991906168b6565b6128f39190616927565b905061290967584a79cf25f6ffa160c01b6110ce565b61291d6749fd754833b329c860c01b6110ce565b809350505050949350505050565b606061294167ef9e355a2508b68b60c01b6110ce565b6129556774921bc0b184a2ab60c01b6110ce565b6129696733dcf64edbe3045860c01b6110ce565b6000600267ffffffffffffffff81111561298657612985614a16565b5b6040519080825280602002602001820160405280156129b45781602001602082028036833780820191505090505b5090506129cb67b1fd9cdd613809dc60c01b6110ce565b6129df672fddcd765c8c3ad960c01b6110ce565b600060646032856129f091906168b6565b6129fa9190616927565b9050612a106798163f36f092930e60c01b6110ce565b8082600081518110612a2557612a2461563c565b5b602002602001018181525050612a45678fe8f4d30402328560c01b6110ce565b8084612a519190616958565b9350612a6767b21755b43570590b60c01b6110ce565b8382600181518110612a7c57612a7b61563c565b5b602002602001018181525050612a9c677f4706c2f467027060c01b6110ce565b612ab0677a03b4ce36669adc60c01b6110ce565b8192505050919050565b600073ffffffffffffffffffffffffffffffffffffffff168473ffffffffffffffffffffffffffffffffffffffff1603612b29576040517f08c379a0000000000000000000000000000000000000000000000000000000008152600401612b20906169fe565b60405180910390fd5b8151835114612b6d576040517f08c379a0000000000000000000000000000000000000000000000000000000008152600401612b6490615932565b60405180910390fd5b6000612b776110d1565b9050612b88816000878787876124ee565b60005b8451811015612c4257838181518110612ba757612ba661563c565b5b602002602001015160016000878481518110612bc657612bc561563c565b5b6020026020010151815260200190815260200160002060008873ffffffffffffffffffffffffffffffffffffffff1673ffffffffffffffffffffffffffffffffffffffff1681526020019081526020016000206000828254612c289190615a76565b925050819055508080612c3a9061569a565b915050612b8b565b508473ffffffffffffffffffffffffffffffffffffffff16600073ffffffffffffffffffffffffffffffffffffffff168273ffffffffffffffffffffffffffffffffffffffff167f4a39dc06d4c0dbc64b70af90fd698a233a518aa5d07e595d983b8c0526c8f7fb8787604051612cba929190615aaa565b60405180910390a4612cd1816000878787876124f6565b612ce0816000878787876124fe565b5050505050565b612cfb67b0f0eb068548dd0b60c01b6110ce565b612d0f674dcdc93d427b393b60c01b6110ce565b4281612d1b9190615a76565b9050612d3167dc0d4903f60c679c60c01b6110ce565b80600b6000848152602001908152602001600020819055505050565b612d6167394c1c981265dfc360c01b6110ce565b612d7567c92669fdf108cc6660c01b6110ce565b612d8967aa3daad0320177c160c01b6110ce565b6000600960008781526020019081526020016000209050612db4670f7ec44c50154f7e60c01b6110ce565b858160000181905550612dd167374d4e255ee5e29860c01b6110ce565b848160010181905550612dee675ac26f54ed569cd260c01b6110ce565b838160030181905550612e0b67c24312526bd0b5e960c01b6110ce565b828160040160006101000a81548160ff021916908360ff160217905550612e3c67edd6d4270faa2cde60c01b6110ce565b818160040160016101000a81548160ff021916908360ff160217905550505050505050565b612e75676e37652b8ffc91d360c01b6110ce565b612e8967e143cfc2d6d9cb4760c01b6110ce565b612e9d67a003bbf89cef951f60c01b6110ce565b6000600267ffffffffffffffff811115612eba57612eb9614a16565b5b604051908082528060200260200182016040528015612eed57816020015b6060815260200190600190039081612ed85790505b509050612f0467063692a633bfde5b60c01b6110ce565b6040518060400160405280600681526020017f4c4f434b4544000000000000000000000000000000000000000000000000000081525081600081518110612f4e57612f4d61563c565b5b6020026020010181905250612f6d67c1c67836722281c260c01b6110ce565b6040518060400160405280600681526020017f545241444544000000000000000000000000000000000000000000000000000081525081600181518110612fb757612fb661563c565b5b6020026020010181905250612fd667d9d2ecffbb1397cf60c01b6110ce565b612fea67ea653bc968bdc6d960c01b6110ce565b60005b81518160ff1610156131f75761300d674b4422bc7d0c22d960c01b6110ce565b61302167ed359cbd189201d560c01b6110ce565b6005828260ff16815181106130395761303861563c565b5b60200260200101519080600181540180825580915050600190039060005260206000200160009091909190915090816130729190616bca565b50613087675a24d7626b21999d60c01b6110ce565b61309b67313ea1a32143e5a760c01b6110ce565b600060016005805490506130af9190616958565b90506130c56715046cf8a2f961cc60c01b6110ce565b6130d967b4a4140a349190b560c01b6110ce565b600a600086815260200190815260200160002081908060018154018082558091505060019003906000526020600020016000909190919091505561312767fc966f584759813a60c01b6110ce565b828260ff168151811061313d5761313c61563c565b5b6020026020010151600d600083815260200190815260200160002090816131649190616bca565b5061317967a9f4de7961c386c360c01b6110ce565b84600c6000838152602001908152602001600020819055506131a56747ce4a0ce045f63260c01b6110ce565b838260ff16815181106131bb576131ba61563c565b5b6020026020010151600e600083815260200190815260200160002090816131e29190616bca565b505080806131ef90616c9c565b915050612fed565b50505050565b6132116706897d58a8ffa43160c01b6110ce565b6132256788b7ad33a34493af60c01b6110ce565b613239677d6c90c8c295f84260c01b6110ce565b6000600460009054906101000a900473ffffffffffffffffffffffffffffffffffffffff1673ffffffffffffffffffffffffffffffffffffffff1663c9187fe7876040518263ffffffff1660e01b8152600401613296919061485c565b600060405180830381865afa1580156132b3573d6000803e3d6000fd5b505050506040513d6000823e3d601f19601f820116820180604052508101906132dc9190616e16565b90506132f26782cc11fbdff9205960c01b6110ce565b61330667ae9084963bc3455a60c01b6110ce565b600061331187613f21565b905061332767b9a5b29730f2e2b260c01b6110ce565b61333b671fe0275ae3c5ecd960c01b6110ce565b6000600960008981526020019081526020016000209050613366678b282cad192c5fb360c01b6110ce565b84826133729190615a76565b9150613388678419153d5d05889460c01b6110ce565b61339c670191dd807a806c5f60c01b6110ce565b60005b600460009054906101000a900473ffffffffffffffffffffffffffffffffffffffff1673ffffffffffffffffffffffffffffffffffffffff166384ffeca58a6040518263ffffffff1660e01b81526004016133fa919061485c565b602060405180830381865afa158015613417573d6000803e3d6000fd5b505050506040513d601f19601f8201168201806040525081019061343b9190616e74565b8110156138305761345667ff432fe7bf83145f60c01b6110ce565b61346a671a13af6cfe9d6d6060c01b6110ce565b6000600460009054906101000a900473ffffffffffffffffffffffffffffffffffffffff1673ffffffffffffffffffffffffffffffffffffffff166359a96ffe8684815181106134bd576134bc61563c565b5b60200260200101516040518263ffffffff1660e01b81526004016134e19190616ea1565b602060405180830381865afa1580156134fe573d6000803e3d6000fd5b505050506040513d601f19601f820116820180604052508101906135229190616ed8565b90506135386762c98aafb53f225060c01b6110ce565b61354c67db6891394d62f65060c01b6110ce565b6000613611600460009054906101000a900473ffffffffffffffffffffffffffffffffffffffff1673ffffffffffffffffffffffffffffffffffffffff16630e47cefa8886815181106135a2576135a161563c565b5b60200260200101518e6040518363ffffffff1660e01b81526004016135c8929190616f05565b602060405180830381865afa1580156135e5573d6000803e3d6000fd5b505050506040513d601f19601f820116820180604052508101906136099190616e74565b868b8d612813565b905061362767a9747bd63961f6a760c01b6110ce565b61363b676b356cb0aadede3d60c01b6110ce565b60006136468261292b565b905061365c6758e7482b5844cc7d60c01b6110ce565b613670672fcc187a6eb9bd5d60c01b6110ce565b61371283600a60008f81526020019081526020016000208054806020026020016040519081016040528092919081815260200182805480156136d157602002820191906000526020600020905b8154815260200190600101908083116136bd575b5050505050836040518060400160405280600481526020017f3078303000000000000000000000000000000000000000000000000000000000815250612aba565b613726676d8cba0421998ff760c01b6110ce565b8185600201546137369190615a76565b856002018190555061375267fc9c9548ccd49e2960c01b6110ce565b6137666791fd09e3ba4dc57f60c01b6110ce565b6006839080600181540180825580915050600190039060005260206000200160009091909190916101000a81548173ffffffffffffffffffffffffffffffffffffffff021916908373ffffffffffffffffffffffffffffffffffffffff1602179055506137dd67c19ee0d0340bdf1960c01b6110ce565b6137f16755ef1202937c189860c01b6110ce565b600782908060018154018082558091505060019003906000526020600020016000909190919091505550505080806138289061569a565b91505061339f565b50613845679b8635bababd7cd560c01b6110ce565b613859673713c0cb0f3a7a0960c01b6110ce565b6000613869898688868b8d6141af565b905061387f6752b1ed2d46c8304c60c01b6110ce565b80826002015461388f9190615a76565b82600201819055506138ab676e8fb6e8d40efa7360c01b6110ce565b6138bf670cd78e9f5a999f1660c01b6110ce565b6006859080600181540180825580915050600190039060005260206000200160009091909190916101000a81548173ffffffffffffffffffffffffffffffffffffffff021916908373ffffffffffffffffffffffffffffffffffffffff1602179055506139366748fd522b50d7e93a60c01b6110ce565b61394a679405af8bf489d1df60c01b6110ce565b6007819080600181540180825580915050600190039060005260206000200160009091909190915055505050505050505050565b61399267d50a6a82e38f0ae860c01b6110ce565b6139a667a849e5d0fec51c8b60c01b6110ce565b6139ba679e6b8b233c65619060c01b6110ce565b60006009600086815260200190815260200160002090506139e567a762246bbb298fbf60c01b6110ce565b6139f967f6c09da02b024fa060c01b6110ce565b600060648386613a0991906168b6565b613a139190616927565b9050613a2967440a40fdb651c7cb60c01b6110ce565b808260020154613a399190615a76565b8260020181905550613a5567de7d8de574a6960060c01b6110ce565b613a69672a9700fbb945b2d560c01b6110ce565b6000613a748261292b565b9050613a8a675919556a7031f09360c01b6110ce565b613a9e671215593410eb914660c01b6110ce565b60005b8151811015613b6f57613abe67586ce8aab79611b860c01b6110ce565b613ad267f80d7bdb95ea127260c01b6110ce565b613b5c86600a60008b81526020019081526020016000208381548110613afb57613afa61563c565b5b9060005260206000200154848481518110613b1957613b1861563c565b5b60200260200101516040518060400160405280600481526020017f3078303000000000000000000000000000000000000000000000000000000000815250614363565b8080613b679061569a565b915050613aa1565b50613b8467ca06a99daba0358060c01b6110ce565b613b98670eb12f7111c6328560c01b6110ce565b6006859080600181540180825580915050600190039060005260206000200160009091909190916101000a81548173ffffffffffffffffffffffffffffffffffffffff021916908373ffffffffffffffffffffffffffffffffffffffff160217905550613c0f6752bc33f74706f7fa60c01b6110ce565b613c2367efabc781498895d060c01b6110ce565b600782908060018154018082558091505060019003906000526020600020016000909190919091505550505050505050565b600060019050919050565b600073ffffffffffffffffffffffffffffffffffffffff168473ffffffffffffffffffffffffffffffffffffffff1603613ccf576040517f08c379a0000000000000000000000000000000000000000000000000000000008152600401613cc6906159c4565b60405180910390fd5b6000613cd96110d1565b90506000613ce685614514565b90506000613cf385614514565b9050613d038389898585896124ee565b60006001600088815260200190815260200160002060008a73ffffffffffffffffffffffffffffffffffffffff1673ffffffffffffffffffffffffffffffffffffffff16815260200190815260200160002054905085811015613d9b576040517f08c379a0000000000000000000000000000000000000000000000000000000008152600401613d9290615a56565b60405180910390fd5b8581036001600089815260200190815260200160002060008b73ffffffffffffffffffffffffffffffffffffffff1673ffffffffffffffffffffffffffffffffffffffff16815260200190815260200160002081905550856001600089815260200190815260200160002060008a73ffffffffffffffffffffffffffffffffffffffff1673ffffffffffffffffffffffffffffffffffffffff1681526020019081526020016000206000828254613e529190615a76565b925050819055508773ffffffffffffffffffffffffffffffffffffffff168973ffffffffffffffffffffffffffffffffffffffff168573ffffffffffffffffffffffffffffffffffffffff167fc3d58168c5ae7397731d063d5bbf3d657854427343f4c083240f7aacaa2d0f628a8a604051613ecf929190616f35565b60405180910390a4613ee5848a8a86868a6124f6565b613ef3848a8a8a8a8a61458e565b505050505050505050565b6000808273ffffffffffffffffffffffffffffffffffffffff163b119050919050565b6000613f37676d417d1ac480303d60c01b6110ce565b613f4b671b9026c1c545e95060c01b6110ce565b613f5f672441fabeacd7a75f60c01b6110ce565b6000600460009054906101000a900473ffffffffffffffffffffffffffffffffffffffff1673ffffffffffffffffffffffffffffffffffffffff1663c9187fe7846040518263ffffffff1660e01b8152600401613fbc919061485c565b600060405180830381865afa158015613fd9573d6000803e3d6000fd5b505050506040513d6000823e3d601f19601f820116820180604052508101906140029190616e16565b905061401867df0f1789440d4ed960c01b6110ce565b61402c670647c96e2fed176260c01b6110ce565b600061404267064019b6bc19187260c01b6110ce565b61405667763a47099aab437a60c01b6110ce565b60005b825181101561417c57614076671d40d5267617e55360c01b6110ce565b61408a6735dff5d51c82861060c01b6110ce565b6000600460009054906101000a900473ffffffffffffffffffffffffffffffffffffffff1673ffffffffffffffffffffffffffffffffffffffff16630e47cefa8584815181106140dd576140dc61563c565b5b6020026020010151886040518363ffffffff1660e01b8152600401614103929190616f05565b602060405180830381865afa158015614120573d6000803e3d6000fd5b505050506040513d601f19601f820116820180604052508101906141449190616e74565b905061415a67e9e09391de2f90b160c01b6110ce565b80836141669190615a76565b92505080806141749061569a565b915050614059565b50614191673f7c6b562d42adb760c01b6110ce565b6141a567e072ba4402919e9360c01b6110ce565b8092505050919050565b60006141c567a2d99f38a39e824d60c01b6110ce565b6141d967c6eb8b249001c86560c01b6110ce565b6141ed672f8a1fc15cadb42760c01b6110ce565b60006141fb86868686612813565b90506142116728ae0dfe9fbdb0ed60c01b6110ce565b61422567d3316e9ec077426960c01b6110ce565b60006142308261292b565b905061424667119a7054fdb365d760c01b6110ce565b61425a67dbf17aae431488dd60c01b6110ce565b60005b815181101561432b5761427a676af46d40f234ad6560c01b6110ce565b61428e67b29b7f372f8e2e8160c01b6110ce565b61431889600a60008d815260200190815260200160002083815481106142b7576142b661563c565b5b90600052602060002001548484815181106142d5576142d461563c565b5b60200260200101516040518060400160405280600481526020017f3078303000000000000000000000000000000000000000000000000000000000815250614363565b80806143239061569a565b91505061425d565b506143406766fa695ffbe4e63960c01b6110ce565b6143546795e55a408623e2f760c01b6110ce565b81925050509695505050505050565b600073ffffffffffffffffffffffffffffffffffffffff168473ffffffffffffffffffffffffffffffffffffffff16036143d2576040517f08c379a00000000000000000000000000000000000000000000000000000000081526004016143c9906169fe565b60405180910390fd5b60006143dc6110d1565b905060006143e985614514565b905060006143f685614514565b9050614407836000898585896124ee565b846001600088815260200190815260200160002060008973ffffffffffffffffffffffffffffffffffffffff1673ffffffffffffffffffffffffffffffffffffffff16815260200190815260200160002060008282546144679190615a76565b925050819055508673ffffffffffffffffffffffffffffffffffffffff16600073ffffffffffffffffffffffffffffffffffffffff168473ffffffffffffffffffffffffffffffffffffffff167fc3d58168c5ae7397731d063d5bbf3d657854427343f4c083240f7aacaa2d0f6289896040516144e5929190616f35565b60405180910390a46144fc836000898585896124f6565b61450b8360008989898961458e565b50505050505050565b60606000600167ffffffffffffffff81111561453357614532614a16565b5b6040519080825280602002602001820160405280156145615781602001602082028036833780820191505090505b50905082816000815181106145795761457861563c565b5b60200260200101818152505080915050919050565b6145ad8473ffffffffffffffffffffffffffffffffffffffff16613efe565b1561475d578373ffffffffffffffffffffffffffffffffffffffff1663f23a6e6187878686866040518663ffffffff1660e01b81526004016145f3959493929190616f5e565b6020604051808303816000875af192505050801561462f57506040513d601f19601f8201168201806040525081019061462c919061663a565b60015b6146d45761463b616674565b806308c379a003614697575061464f616696565b8061465a5750614699565b806040517f08c379a000000000000000000000000000000000000000000000000000000000815260040161468e91906149ef565b60405180910390fd5b505b6040517f08c379a00000000000000000000000000000000000000000000000000000000081526004016146cb90616798565b60405180910390fd5b63f23a6e6160e01b7bffffffffffffffffffffffffffffffffffffffffffffffffffffffff1916817bffffffffffffffffffffffffffffffffffffffffffffffffffffffff19161461475b576040517f08c379a00000000000000000000000000000000000000000000000000000000081526004016147529061682a565b60405180910390fd5b505b505050505050565b6000604051905090565b600080fd5b600080fd5b600073ffffffffffffffffffffffffffffffffffffffff82169050919050565b60006147a482614779565b9050919050565b6147b481614799565b81146147bf57600080fd5b50565b6000813590506147d1816147ab565b92915050565b6000819050919050565b6147ea816147d7565b81146147f557600080fd5b50565b600081359050614807816147e1565b92915050565b600080604083850312156148245761482361476f565b5b6000614832858286016147c2565b9250506020614843858286016147f8565b9150509250929050565b614856816147d7565b82525050565b6000602082019050614871600083018461484d565b92915050565b60007fffffffff0000000000000000000000000000000000000000000000000000000082169050919050565b6148ac81614877565b81146148b757600080fd5b50565b6000813590506148c9816148a3565b92915050565b6000602082840312156148e5576148e461476f565b5b60006148f3848285016148ba565b91505092915050565b60008115159050919050565b614911816148fc565b82525050565b600060208201905061492c6000830184614908565b92915050565b6000602082840312156149485761494761476f565b5b6000614956848285016147f8565b91505092915050565b600081519050919050565b600082825260208201905092915050565b60005b8381101561499957808201518184015260208101905061497e565b60008484015250505050565b6000601f19601f8301169050919050565b60006149c18261495f565b6149cb818561496a565b93506149db81856020860161497b565b6149e4816149a5565b840191505092915050565b60006020820190508181036000830152614a0981846149b6565b905092915050565b600080fd5b7f4e487b7100000000000000000000000000000000000000000000000000000000600052604160045260246000fd5b614a4e826149a5565b810181811067ffffffffffffffff82111715614a6d57614a6c614a16565b5b80604052505050565b6000614a80614765565b9050614a8c8282614a45565b919050565b600067ffffffffffffffff821115614aac57614aab614a16565b5b602082029050602081019050919050565b600080fd5b6000614ad5614ad084614a91565b614a76565b90508083825260208201905060208402830185811115614af857614af7614abd565b5b835b81811015614b215780614b0d88826147f8565b845260208401935050602081019050614afa565b5050509392505050565b600082601f830112614b4057614b3f614a11565b5b8135614b50848260208601614ac2565b91505092915050565b600080fd5b600067ffffffffffffffff821115614b7957614b78614a16565b5b614b82826149a5565b9050602081019050919050565b82818337600083830152505050565b6000614bb1614bac84614b5e565b614a76565b905082815260208101848484011115614bcd57614bcc614b59565b5b614bd8848285614b8f565b509392505050565b600082601f830112614bf557614bf4614a11565b5b8135614c05848260208601614b9e565b91505092915050565b600080600080600060a08688031215614c2a57614c2961476f565b5b6000614c38888289016147c2565b9550506020614c49888289016147c2565b945050604086013567ffffffffffffffff811115614c6a57614c69614774565b5b614c7688828901614b2b565b935050606086013567ffffffffffffffff811115614c9757614c96614774565b5b614ca388828901614b2b565b925050608086013567ffffffffffffffff811115614cc457614cc3614774565b5b614cd088828901614be0565b9150509295509295909350565b600060ff82169050919050565b614cf381614cdd565b8114614cfe57600080fd5b50565b600081359050614d1081614cea565b92915050565b600067ffffffffffffffff821115614d3157614d30614a16565b5b602082029050602081019050919050565b6000614d55614d5084614d16565b614a76565b90508083825260208201905060208402830185811115614d7857614d77614abd565b5b835b81811015614da15780614d8d88826147c2565b845260208401935050602081019050614d7a565b5050509392505050565b600082601f830112614dc057614dbf614a11565b5b8135614dd0848260208601614d42565b91505092915050565b60008060008060808587031215614df357614df261476f565b5b6000614e01878288016147f8565b9450506020614e1287828801614d01565b935050604085013567ffffffffffffffff811115614e3357614e32614774565b5b614e3f87828801614b2b565b925050606085013567ffffffffffffffff811115614e6057614e5f614774565b5b614e6c87828801614dab565b91505092959194509250565b60008060408385031215614e8f57614e8e61476f565b5b600083013567ffffffffffffffff811115614ead57614eac614774565b5b614eb985828601614dab565b925050602083013567ffffffffffffffff811115614eda57614ed9614774565b5b614ee685828601614b2b565b9150509250929050565b600081519050919050565b600082825260208201905092915050565b6000819050602082019050919050565b614f25816147d7565b82525050565b6000614f378383614f1c565b60208301905092915050565b6000602082019050919050565b6000614f5b82614ef0565b614f658185614efb565b9350614f7083614f0c565b8060005b83811015614fa1578151614f888882614f2b565b9750614f9383614f43565b925050600181019050614f74565b5085935050505092915050565b60006020820190508181036000830152614fc88184614f50565b905092915050565b614fd981614799565b82525050565b6000602082019050614ff46000830184614fd0565b92915050565b615003816148fc565b811461500e57600080fd5b50565b60008135905061502081614ffa565b92915050565b6000806040838503121561503d5761503c61476f565b5b600061504b858286016147c2565b925050602061505c85828601615011565b9150509250929050565b600067ffffffffffffffff82111561508157615080614a16565b5b602082029050602081019050919050565b600067ffffffffffffffff8211156150ad576150ac614a16565b5b6150b6826149a5565b9050602081019050919050565b60006150d66150d184615092565b614a76565b9050828152602081018484840111156150f2576150f1614b59565b5b6150fd848285614b8f565b509392505050565b600082601f83011261511a57615119614a11565b5b813561512a8482602086016150c3565b91505092915050565b600061514661514184615066565b614a76565b9050808382526020820190506020840283018581111561516957615168614abd565b5b835b818110156151b057803567ffffffffffffffff81111561518e5761518d614a11565b5b80860161519b8982615105565b8552602085019450505060208101905061516b565b5050509392505050565b600082601f8301126151cf576151ce614a11565b5b81356151df848260208601615133565b91505092915050565b60008060008060008060008060006101208a8c03121561520b5761520a61476f565b5b60006152198c828d016147f8565b995050602061522a8c828d016147f8565b985050604061523b8c828d016147f8565b975050606061524c8c828d016147f8565b965050608061525d8c828d01614d01565b95505060a061526e8c828d01614d01565b94505060c061527f8c828d016147c2565b93505060e06152908c828d016147c2565b9250506101008a013567ffffffffffffffff8111156152b2576152b1614774565b5b6152be8c828d016151ba565b9150509295985092959850929598565b600080604083850312156152e5576152e461476f565b5b60006152f3858286016147c2565b9250506020615304858286016147c2565b9150509250929050565b600080600080600060a0868803121561532a5761532961476f565b5b6000615338888289016147c2565b9550506020615349888289016147c2565b945050604061535a888289016147f8565b935050606061536b888289016147f8565b925050608086013567ffffffffffffffff81111561538c5761538b614774565b5b61539888828901614be0565b9150509295509295909350565b6000602082840312156153bb576153ba61476f565b5b60006153c9848285016147c2565b91505092915050565b6153db81614cdd565b82525050565b60006080820190506153f6600083018761484d565b61540360208301866153d2565b61541060408301856153d2565b61541d60608301846153d2565b95945050505050565b7f455243313135353a2061646472657373207a65726f206973206e6f742061207660008201527f616c6964206f776e657200000000000000000000000000000000000000000000602082015250565b6000615482602a8361496a565b915061548d82615426565b604082019050919050565b600060208201905081810360008301526154b181615475565b9050919050565b7f4e487b7100000000000000000000000000000000000000000000000000000000600052602260045260246000fd5b600060028204905060018216806154ff57607f821691505b602082108103615512576155116154b8565b5b50919050565b7f455243313135353a2063616c6c6572206973206e6f7420746f6b656e206f776e60008201527f6572206f7220617070726f766564000000000000000000000000000000000000602082015250565b6000615574602e8361496a565b915061557f82615518565b604082019050919050565b600060208201905081810360008301526155a381615567565b9050919050565b7f455243313135353a206163636f756e747320616e6420696473206c656e67746860008201527f206d69736d617463680000000000000000000000000000000000000000000000602082015250565b600061560660298361496a565b9150615611826155aa565b604082019050919050565b60006020820190508181036000830152615635816155f9565b9050919050565b7f4e487b7100000000000000000000000000000000000000000000000000000000600052603260045260246000fd5b7f4e487b7100000000000000000000000000000000000000000000000000000000600052601160045260246000fd5b60006156a5826147d7565b91507fffffffffffffffffffffffffffffffffffffffffffffffffffffffffffffffff82036156d7576156d661566b565b5b600182019050919050565b600081905092915050565b60008190508160005260206000209050919050565b6000815461570f816154e7565b61571981866156e2565b9450600182166000811461573457600181146157495761577c565b60ff198316865281151582028601935061577c565b615752856156ed565b60005b8381101561577457815481890152600182019150602081019050615755565b838801955050505b50505092915050565b60006157918284615702565b915081905092915050565b7f52454a5556453a2043616e6e6f742073616c6520353025206f6620736861726460008201527f73206265666f7265206c6f636b696e6720706572696f64000000000000000000602082015250565b60006157f860378361496a565b91506158038261579c565b604082019050919050565b60006020820190508181036000830152615827816157eb565b9050919050565b7f4f776e61626c653a206e6577206f776e657220697320746865207a65726f206160008201527f6464726573730000000000000000000000000000000000000000000000000000602082015250565b600061588a60268361496a565b91506158958261582e565b604082019050919050565b600060208201905081810360008301526158b98161587d565b9050919050565b7f455243313135353a2069647320616e6420616d6f756e7473206c656e6774682060008201527f6d69736d61746368000000000000000000000000000000000000000000000000602082015250565b600061591c60288361496a565b9150615927826158c0565b604082019050919050565b6000602082019050818103600083015261594b8161590f565b9050919050565b7f455243313135353a207472616e7366657220746f20746865207a65726f20616460008201527f6472657373000000000000000000000000000000000000000000000000000000602082015250565b60006159ae60258361496a565b91506159b982615952565b604082019050919050565b600060208201905081810360008301526159dd816159a1565b9050919050565b7f455243313135353a20696e73756666696369656e742062616c616e636520666f60008201527f72207472616e7366657200000000000000000000000000000000000000000000602082015250565b6000615a40602a8361496a565b9150615a4b826159e4565b604082019050919050565b60006020820190508181036000830152615a6f81615a33565b9050919050565b6000615a81826147d7565b9150615a8c836147d7565b9250828201905080821115615aa457615aa361566b565b5b92915050565b60006040820190508181036000830152615ac48185614f50565b90508181036020830152615ad88184614f50565b90509392505050565b7f4f776e61626c653a2063616c6c6572206973206e6f7420746865206f776e6572600082015250565b6000615b1760208361496a565b9150615b2282615ae1565b602082019050919050565b60006020820190508181036000830152615b4681615b0a565b9050919050565b7f5061757361626c653a2070617573656400000000000000000000000000000000600082015250565b6000615b8360108361496a565b9150615b8e82615b4d565b602082019050919050565b60006020820190508181036000830152615bb281615b76565b9050919050565b7f52454a5556453a204e6f7420657175616c206c656e6774680000000000000000600082015250565b6000615bef60188361496a565b9150615bfa82615bb9565b602082019050919050565b60006020820190508181036000830152615c1e81615be2565b9050919050565b7f52454a5556453a204675747572652070657263656e746167652073686172652060008201527f63616e6e6f74206265207a65726f000000000000000000000000000000000000602082015250565b6000615c81602e8361496a565b9150615c8c82615c25565b604082019050919050565b60006020820190508181036000830152615cb081615c74565b9050919050565b600081519050919050565b600082825260208201905092915050565b6000819050602082019050919050565b615cec81614799565b82525050565b6000615cfe8383615ce3565b60208301905092915050565b6000602082019050919050565b6000615d2282615cb7565b615d2c8185615cc2565b9350615d3783615cd3565b8060005b83811015615d68578151615d4f8882615cf2565b9750615d5a83615d0a565b925050600181019050615d3b565b5085935050505092915050565b600081549050919050565b60008190508160005260206000209050919050565b60008160001c9050919050565b6000819050919050565b6000615dbf615dba83615d95565b615da2565b9050919050565b6000615dd28254615dac565b9050919050565b6000600182019050919050565b6000615df182615d75565b615dfb8185614efb565b9350615e0683615d80565b8060005b83811015615e3e57615e1b82615dc6565b615e258882614f2b565b9750615e3083615dd9565b925050600181019050615e0a565b5085935050505092915050565b6000606082019050615e60600083018661484d565b8181036020830152615e728185615d17565b90508181036040830152615e868184615de6565b9050949350505050565b7f455243313135353a2073657474696e6720617070726f76616c2073746174757360008201527f20666f722073656c660000000000000000000000000000000000000000000000602082015250565b6000615eec60298361496a565b9150615ef782615e90565b604082019050919050565b60006020820190508181036000830152615f1b81615edf565b9050919050565b7f52454a5556453a2054617267657420737570706c792063616e6e6f742062652060008201527f7a65726f00000000000000000000000000000000000000000000000000000000602082015250565b6000615f7e60248361496a565b9150615f8982615f22565b604082019050919050565b60006020820190508181036000830152615fad81615f71565b9050919050565b7f52454a5556453a204c6162206372656469742063616e6e6f74206265207a657260008201527f6f00000000000000000000000000000000000000000000000000000000000000602082015250565b600061601060218361496a565b915061601b82615fb4565b604082019050919050565b6000602082019050818103600083015261603f81616003565b9050919050565b7f52454a5556453a204c6f636b20706572696f642063616e6e6f74206265207a6560008201527f726f000000000000000000000000000000000000000000000000000000000000602082015250565b60006160a260228361496a565b91506160ad82616046565b604082019050919050565b600060208201905081810360008301526160d181616095565b9050919050565b7f52454a5556453a20496e697469616c2070657263656e742063616e6e6f74206260008201527f65207a65726f0000000000000000000000000000000000000000000000000000602082015250565b600061613460268361496a565b915061613f826160d8565b604082019050919050565b6000602082019050818103600083015261616381616127565b9050919050565b7f52454a5556453a2052656a7576652070657263656e742063616e6e6f7420626560008201527f207a65726f000000000000000000000000000000000000000000000000000000602082015250565b60006161c660258361496a565b91506161d18261616a565b604082019050919050565b600060208201905081810360008301526161f5816161b9565b9050919050565b7f52454a5556453a204c616220616464726573732063616e6e6f74206265207a6560008201527f726f000000000000000000000000000000000000000000000000000000000000602082015250565b600061625860228361496a565b9150616263826161fc565b604082019050919050565b600060208201905081810360008301526162878161624b565b9050919050565b7f52454a5556453a2052656a75766520616464726573732063616e6e6f7420626560008201527f207a65726f000000000000000000000000000000000000000000000000000000602082015250565b60006162ea60258361496a565b91506162f58261628e565b604082019050919050565b60006020820190508181036000830152616319816162dd565b9050919050565b7f52454a5556453a2055524973206c656e6774682063616e6e6f74206265207a6560008201527f726f000000000000000000000000000000000000000000000000000000000000602082015250565b600061637c60228361496a565b915061638782616320565b604082019050919050565b600060208201905081810360008301526163ab8161636f565b9050919050565b600081549050919050565b60008190508160005260206000209050919050565b600073ffffffffffffffffffffffffffffffffffffffff82169050919050565b600061640561640083615d95565b6163d2565b9050919050565b600061641882546163f2565b9050919050565b6000600182019050919050565b6000616437826163b2565b6164418185615cc2565b935061644c836163bd565b8060005b83811015616484576164618261640c565b61646b8882615cf2565b97506164768361641f565b925050600181019050616450565b5085935050505092915050565b60006060820190506164a6600083018661484d565b81810360208301526164b8818561642c565b905081810360408301526164cc8184615de6565b9050949350505050565b7f455243313135353a2063616c6c6572206973206e6f74206f776e6572206e6f7260008201527f20617070726f7665640000000000000000000000000000000000000000000000602082015250565b600061653260298361496a565b915061653d826164d6565b604082019050919050565b6000602082019050818103600083015261656181616525565b9050919050565b600081519050919050565b600082825260208201905092915050565b600061658f82616568565b6165998185616573565b93506165a981856020860161497b565b6165b2816149a5565b840191505092915050565b600060a0820190506165d26000830188614fd0565b6165df6020830187614fd0565b81810360408301526165f18186614f50565b905081810360608301526166058185614f50565b905081810360808301526166198184616584565b90509695505050505050565b600081519050616634816148a3565b92915050565b6000602082840312156166505761664f61476f565b5b600061665e84828501616625565b91505092915050565b60008160e01c9050919050565b600060033d11156166935760046000803e616690600051616667565b90505b90565b600060443d10616723576166a8614765565b60043d036004823e80513d602482011167ffffffffffffffff821117156166d0575050616723565b808201805167ffffffffffffffff8111156166ee5750505050616723565b80602083010160043d03850181111561670b575050505050616723565b61671a82602001850186614a45565b82955050505050505b90565b7f455243313135353a207472616e7366657220746f206e6f6e2d4552433131353560008201527f526563656976657220696d706c656d656e746572000000000000000000000000602082015250565b600061678260348361496a565b915061678d82616726565b604082019050919050565b600060208201905081810360008301526167b181616775565b9050919050565b7f455243313135353a204552433131353552656365697665722072656a6563746560008201527f6420746f6b656e73000000000000000000000000000000000000000000000000602082015250565b600061681460288361496a565b915061681f826167b8565b604082019050919050565b6000602082019050818103600083015261684381616807565b9050919050565b7f5061757361626c653a206e6f7420706175736564000000000000000000000000600082015250565b600061688060148361496a565b915061688b8261684a565b602082019050919050565b600060208201905081810360008301526168af81616873565b9050919050565b60006168c1826147d7565b91506168cc836147d7565b92508282026168da816147d7565b915082820484148315176168f1576168f061566b565b5b5092915050565b7f4e487b7100000000000000000000000000000000000000000000000000000000600052601260045260246000fd5b6000616932826147d7565b915061693d836147d7565b92508261694d5761694c6168f8565b5b828204905092915050565b6000616963826147d7565b915061696e836147d7565b92508282039050818111156169865761698561566b565b5b92915050565b7f455243313135353a206d696e7420746f20746865207a65726f2061646472657360008201527f7300000000000000000000000000000000000000000000000000000000000000602082015250565b60006169e860218361496a565b91506169f38261698c565b604082019050919050565b60006020820190508181036000830152616a17816169db565b9050919050565b60008190508160005260206000209050919050565b60006020601f8301049050919050565b600082821b905092915050565b600060088302616a807fffffffffffffffffffffffffffffffffffffffffffffffffffffffffffffffff82616a43565b616a8a8683616a43565b95508019841693508086168417925050509392505050565b6000819050919050565b6000616ac7616ac2616abd846147d7565b616aa2565b6147d7565b9050919050565b6000819050919050565b616ae183616aac565b616af5616aed82616ace565b848454616a50565b825550505050565b600090565b616b0a616afd565b616b15818484616ad8565b505050565b5b81811015616b3957616b2e600082616b02565b600181019050616b1b565b5050565b601f821115616b7e57616b4f81616a1e565b616b5884616a33565b81016020851015616b67578190505b616b7b616b7385616a33565b830182616b1a565b50505b505050565b600082821c905092915050565b6000616ba160001984600802616b83565b1980831691505092915050565b6000616bba8383616b90565b9150826002028217905092915050565b616bd38261495f565b67ffffffffffffffff811115616bec57616beb614a16565b5b616bf682546154e7565b616c01828285616b3d565b600060209050601f831160018114616c345760008415616c22578287015190505b616c2c8582616bae565b865550616c94565b601f198416616c4286616a1e565b60005b82811015616c6a57848901518255600182019150602085019450602081019050616c45565b86831015616c875784890151616c83601f891682616b90565b8355505b6001600288020188555050505b505050505050565b6000616ca782614cdd565b915060ff8203616cba57616cb961566b565b5b600182019050919050565b600067ffffffffffffffff821115616ce057616cdf614a16565b5b602082029050602081019050919050565b6000616d04616cff84614b5e565b614a76565b905082815260208101848484011115616d2057616d1f614b59565b5b616d2b84828561497b565b509392505050565b600082601f830112616d4857616d47614a11565b5b8151616d58848260208601616cf1565b91505092915050565b6000616d74616d6f84616cc5565b614a76565b90508083825260208201905060208402830185811115616d9757616d96614abd565b5b835b81811015616dde57805167ffffffffffffffff811115616dbc57616dbb614a11565b5b808601616dc98982616d33565b85526020850194505050602081019050616d99565b5050509392505050565b600082601f830112616dfd57616dfc614a11565b5b8151616e0d848260208601616d61565b91505092915050565b600060208284031215616e2c57616e2b61476f565b5b600082015167ffffffffffffffff811115616e4a57616e49614774565b5b616e5684828501616de8565b91505092915050565b600081519050616e6e816147e1565b92915050565b600060208284031215616e8a57616e8961476f565b5b6000616e9884828501616e5f565b91505092915050565b60006020820190508181036000830152616ebb8184616584565b905092915050565b600081519050616ed2816147ab565b92915050565b600060208284031215616eee57616eed61476f565b5b6000616efc84828501616ec3565b91505092915050565b60006040820190508181036000830152616f1f8185616584565b9050616f2e602083018461484d565b9392505050565b6000604082019050616f4a600083018561484d565b616f57602083018461484d565b9392505050565b600060a082019050616f736000830188614fd0565b616f806020830187614fd0565b616f8d604083018661484d565b616f9a606083018561484d565b8181036080830152616fac8184616584565b9050969550505050505056fea2646970667358221220c061245ebd2adf8108d4b1542734cf0fa255ef1ca740f70957e77e693d52d2cb64736f6c63430008130033",
  "linkReferences": {},
  "deployedLinkReferences": {}
}