{
  "_format": "hh-sol-artifact-1",
  "contractName": "TransferShards",
  "sourceName": "contracts/TransferShards.sol",
  "abi": [
    {
      "inputs": [
        {
          "internalType": "string",
          "name": "uri_",
          "type": "string"
        },
        {
          "internalType": "address",
          "name": "productNFT_",
          "type": "address"
        }
      ],
      "stateMutability": "nonpayable",
      "type": "constructor"
    },
    {
      "anonymous": false,
      "inputs": [
        {
          "indexed": true,
          "internalType": "address",
          "name": "account",
          "type": "address"
        },
        {
          "indexed": true,
          "internalType": "address",
          "name": "operator",
          "type": "address"
        },
        {
          "indexed": false,
          "internalType": "bool",
          "name": "approved",
          "type": "bool"
        }
      ],
      "name": "ApprovalForAll",
      "type": "event"
    },
    {
      "anonymous": false,
      "inputs": [
        {
          "indexed": false,
          "internalType": "uint256",
          "name": "productUID",
          "type": "uint256"
        },
        {
          "indexed": false,
          "internalType": "address[]",
          "name": "dataOwners",
          "type": "address[]"
        },
        {
          "indexed": false,
          "internalType": "uint256[]",
          "name": "shardAmount",
          "type": "uint256[]"
        }
      ],
      "name": "FutureShardDistributed",
      "type": "event"
    },
    {
      "anonymous": false,
      "inputs": [
        {
          "indexed": false,
          "internalType": "uint256",
          "name": "productUID",
          "type": "uint256"
        },
        {
          "indexed": false,
          "internalType": "address[]",
          "name": "dataOwners",
          "type": "address[]"
        },
        {
          "indexed": false,
          "internalType": "uint256[]",
          "name": "shardAmount",
          "type": "uint256[]"
        }
      ],
      "name": "InitialShardDistributed",
      "type": "event"
    },
    {
      "anonymous": false,
      "inputs": [
        {
          "indexed": true,
          "internalType": "address",
          "name": "previousOwner",
          "type": "address"
        },
        {
          "indexed": true,
          "internalType": "address",
          "name": "newOwner",
          "type": "address"
        }
      ],
      "name": "OwnershipTransferred",
      "type": "event"
    },
    {
      "anonymous": false,
      "inputs": [
        {
          "indexed": false,
          "internalType": "address",
          "name": "account",
          "type": "address"
        }
      ],
      "name": "Paused",
      "type": "event"
    },
    {
      "anonymous": false,
      "inputs": [
        {
          "indexed": false,
          "internalType": "uint256",
          "name": "productUID",
          "type": "uint256"
        },
        {
          "indexed": false,
          "internalType": "address",
          "name": "rejuve",
          "type": "address"
        },
        {
          "indexed": false,
          "internalType": "uint256",
          "name": "shardAmount",
          "type": "uint256"
        }
      ],
      "name": "RemainingShardAllocated",
      "type": "event"
    },
    {
      "anonymous": false,
      "inputs": [
        {
          "indexed": true,
          "internalType": "address",
          "name": "operator",
          "type": "address"
        },
        {
          "indexed": true,
          "internalType": "address",
          "name": "from",
          "type": "address"
        },
        {
          "indexed": true,
          "internalType": "address",
          "name": "to",
          "type": "address"
        },
        {
          "indexed": false,
          "internalType": "uint256[]",
          "name": "ids",
          "type": "uint256[]"
        },
        {
          "indexed": false,
          "internalType": "uint256[]",
          "name": "values",
          "type": "uint256[]"
        }
      ],
      "name": "TransferBatch",
      "type": "event"
    },
    {
      "anonymous": false,
      "inputs": [
        {
          "indexed": true,
          "internalType": "address",
          "name": "operator",
          "type": "address"
        },
        {
          "indexed": true,
          "internalType": "address",
          "name": "from",
          "type": "address"
        },
        {
          "indexed": true,
          "internalType": "address",
          "name": "to",
          "type": "address"
        },
        {
          "indexed": false,
          "internalType": "uint256",
          "name": "id",
          "type": "uint256"
        },
        {
          "indexed": false,
          "internalType": "uint256",
          "name": "value",
          "type": "uint256"
        }
      ],
      "name": "TransferSingle",
      "type": "event"
    },
    {
      "anonymous": false,
      "inputs": [
        {
          "indexed": false,
          "internalType": "string",
          "name": "value",
          "type": "string"
        },
        {
          "indexed": true,
          "internalType": "uint256",
          "name": "id",
          "type": "uint256"
        }
      ],
      "name": "URI",
      "type": "event"
    },
    {
      "anonymous": false,
      "inputs": [
        {
          "indexed": false,
          "internalType": "address",
          "name": "account",
          "type": "address"
        }
      ],
      "name": "Unpaused",
      "type": "event"
    },
    {
      "inputs": [
        {
          "internalType": "address",
          "name": "account",
          "type": "address"
        },
        {
          "internalType": "uint256",
          "name": "id",
          "type": "uint256"
        }
      ],
      "name": "balanceOf",
      "outputs": [
        {
          "internalType": "uint256",
          "name": "",
          "type": "uint256"
        }
      ],
      "stateMutability": "view",
      "type": "function"
    },
    {
      "inputs": [
        {
          "internalType": "address[]",
          "name": "accounts",
          "type": "address[]"
        },
        {
          "internalType": "uint256[]",
          "name": "ids",
          "type": "uint256[]"
        }
      ],
      "name": "balanceOfBatch",
      "outputs": [
        {
          "internalType": "uint256[]",
          "name": "",
          "type": "uint256[]"
        }
      ],
      "stateMutability": "view",
      "type": "function"
    },
    {
      "inputs": [],
      "name": "checkTimeStamp",
      "outputs": [
        {
          "internalType": "uint256",
          "name": "",
          "type": "uint256"
        }
      ],
      "stateMutability": "view",
      "type": "function"
    },
    {
      "inputs": [
        {
          "internalType": "uint256",
          "name": "_productUID",
          "type": "uint256"
        },
        {
          "internalType": "uint8",
          "name": "_futurePercent",
          "type": "uint8"
        },
        {
          "internalType": "uint256[]",
          "name": "_credits",
          "type": "uint256[]"
        },
        {
          "internalType": "address[]",
          "name": "_futureContributors",
          "type": "address[]"
        }
      ],
      "name": "distributeFutureShards",
      "outputs": [],
      "stateMutability": "nonpayable",
      "type": "function"
    },
    {
      "inputs": [
        {
          "internalType": "uint256",
          "name": "_productUID",
          "type": "uint256"
        },
        {
          "internalType": "uint256",
          "name": "_targetSupply",
          "type": "uint256"
        },
        {
          "internalType": "uint256",
          "name": "_labCredit",
          "type": "uint256"
        },
        {
          "internalType": "uint256",
          "name": "_lockPeriod",
          "type": "uint256"
        },
        {
          "internalType": "uint8",
          "name": "_initialPercent",
          "type": "uint8"
        },
        {
          "internalType": "uint8",
          "name": "_rejuvePercent",
          "type": "uint8"
        },
        {
          "internalType": "address",
          "name": "_lab",
          "type": "address"
        },
        {
          "internalType": "address",
          "name": "_rejuve",
          "type": "address"
        },
        {
          "internalType": "string[]",
          "name": "_uris",
          "type": "string[]"
        }
      ],
      "name": "distributeInitialShards",
      "outputs": [],
      "stateMutability": "nonpayable",
      "type": "function"
    },
    {
      "inputs": [
        {
          "internalType": "uint256",
          "name": "_productUID",
          "type": "uint256"
        }
      ],
      "name": "getShardsConfig",
      "outputs": [
        {
          "internalType": "uint256",
          "name": "",
          "type": "uint256"
        },
        {
          "internalType": "uint8",
          "name": "",
          "type": "uint8"
        },
        {
          "internalType": "uint8",
          "name": "",
          "type": "uint8"
        },
        {
          "internalType": "uint8",
          "name": "",
          "type": "uint8"
        }
      ],
      "stateMutability": "view",
      "type": "function"
    },
    {
      "inputs": [
        {
          "internalType": "address",
          "name": "account",
          "type": "address"
        },
        {
          "internalType": "address",
          "name": "operator",
          "type": "address"
        }
      ],
      "name": "isApprovedForAll",
      "outputs": [
        {
          "internalType": "bool",
          "name": "",
          "type": "bool"
        }
      ],
      "stateMutability": "view",
      "type": "function"
    },
    {
      "inputs": [],
      "name": "owner",
      "outputs": [
        {
          "internalType": "address",
          "name": "",
          "type": "address"
        }
      ],
      "stateMutability": "view",
      "type": "function"
    },
    {
      "inputs": [],
      "name": "pause",
      "outputs": [],
      "stateMutability": "nonpayable",
      "type": "function"
    },
    {
      "inputs": [],
      "name": "paused",
      "outputs": [
        {
          "internalType": "bool",
          "name": "",
          "type": "bool"
        }
      ],
      "stateMutability": "view",
      "type": "function"
    },
    {
      "inputs": [],
      "name": "renounceOwnership",
      "outputs": [],
      "stateMutability": "nonpayable",
      "type": "function"
    },
    {
      "inputs": [
        {
          "internalType": "address",
          "name": "from",
          "type": "address"
        },
        {
          "internalType": "address",
          "name": "to",
          "type": "address"
        },
        {
          "internalType": "uint256[]",
          "name": "ids",
          "type": "uint256[]"
        },
        {
          "internalType": "uint256[]",
          "name": "amounts",
          "type": "uint256[]"
        },
        {
          "internalType": "bytes",
          "name": "data",
          "type": "bytes"
        }
      ],
      "name": "safeBatchTransferFrom",
      "outputs": [],
      "stateMutability": "nonpayable",
      "type": "function"
    },
    {
      "inputs": [
        {
          "internalType": "address",
          "name": "from",
          "type": "address"
        },
        {
          "internalType": "address",
          "name": "to",
          "type": "address"
        },
        {
          "internalType": "uint256",
          "name": "id",
          "type": "uint256"
        },
        {
          "internalType": "uint256",
          "name": "amount",
          "type": "uint256"
        },
        {
          "internalType": "bytes",
          "name": "data",
          "type": "bytes"
        }
      ],
      "name": "safeTransferFrom",
      "outputs": [],
      "stateMutability": "nonpayable",
      "type": "function"
    },
    {
      "inputs": [
        {
          "internalType": "address",
          "name": "operator",
          "type": "address"
        },
        {
          "internalType": "bool",
          "name": "approved",
          "type": "bool"
        }
      ],
      "name": "setApprovalForAll",
      "outputs": [],
      "stateMutability": "nonpayable",
      "type": "function"
    },
    {
      "inputs": [
        {
          "internalType": "bytes4",
          "name": "interfaceId",
          "type": "bytes4"
        }
      ],
      "name": "supportsInterface",
      "outputs": [
        {
          "internalType": "bool",
          "name": "",
          "type": "bool"
        }
      ],
      "stateMutability": "view",
      "type": "function"
    },
    {
      "inputs": [
        {
          "internalType": "uint256",
          "name": "_productUID",
          "type": "uint256"
        }
      ],
      "name": "targetSupply",
      "outputs": [
        {
          "internalType": "uint256",
          "name": "",
          "type": "uint256"
        }
      ],
      "stateMutability": "view",
      "type": "function"
    },
    {
      "inputs": [
        {
          "internalType": "uint256",
          "name": "_productUID",
          "type": "uint256"
        }
      ],
      "name": "totalShardSupply",
      "outputs": [
        {
          "internalType": "uint256",
          "name": "",
          "type": "uint256"
        }
      ],
      "stateMutability": "view",
      "type": "function"
    },
    {
      "inputs": [
        {
          "internalType": "address",
          "name": "newOwner",
          "type": "address"
        }
      ],
      "name": "transferOwnership",
      "outputs": [],
      "stateMutability": "nonpayable",
      "type": "function"
    },
    {
      "inputs": [],
      "name": "unpause",
      "outputs": [],
      "stateMutability": "nonpayable",
      "type": "function"
    },
    {
      "inputs": [
        {
          "internalType": "uint256",
          "name": "_id",
          "type": "uint256"
        }
      ],
      "name": "uri",
      "outputs": [
        {
          "internalType": "string",
          "name": "",
          "type": "string"
        }
      ],
      "stateMutability": "view",
      "type": "function"
    }
  ],
  "bytecode": "0x60806040523480156200001157600080fd5b50604051620034a6380380620034a683398101604081905262000034916200011e565b8181818181620000443362000089565b6000805460ff60a01b191690556200005c81620000d9565b50600480546001600160a01b0319166001600160a01b039290921691909117905550620003619350505050565b600080546001600160a01b038381166001600160a01b0319831681178455604051919092169283917f8be0079c531659141344cd1fd0a4f28419497f9722a3daafe3b4186f6b6457e09190a35050565b6003620000e7828262000295565b5050565b634e487b7160e01b600052604160045260246000fd5b80516001600160a01b03811681146200011957600080fd5b919050565b600080604083850312156200013257600080fd5b82516001600160401b03808211156200014a57600080fd5b818501915085601f8301126200015f57600080fd5b815181811115620001745762000174620000eb565b604051601f8201601f19908116603f011681019083821181831017156200019f576200019f620000eb565b81604052828152602093508884848701011115620001bc57600080fd5b600091505b82821015620001e05784820184015181830185015290830190620001c1565b6000848483010152809650505050620001fb81860162000101565b925050509250929050565b600181811c908216806200021b57607f821691505b6020821081036200023c57634e487b7160e01b600052602260045260246000fd5b50919050565b601f8211156200029057600081815260208120601f850160051c810160208610156200026b5750805b601f850160051c820191505b818110156200028c5782815560010162000277565b5050505b505050565b81516001600160401b03811115620002b157620002b1620000eb565b620002c981620002c2845462000206565b8462000242565b602080601f831160018114620003015760008415620002e85750858301515b600019600386901b1c1916600185901b1785556200028c565b600085815260208120601f198616915b82811015620003325788860151825594840194600190910190840162000311565b5085821015620003515787850151600019600388901b60f8161c191681555b5050505050600190811b01905550565b61313580620003716000396000f3fe608060405234801561001057600080fd5b506004361061012b5760003560e01c80638456cb59116100ad578063d6e0dbda11610071578063d6e0dbda14610278578063e985e9c51461029b578063f242432a146102d7578063f2fde38b146102ea578063fac795c0146102fd57600080fd5b80638456cb591461020c5780638da5cb5b14610214578063936906f11461022f578063a22cb46514610252578063d429c7581461026557600080fd5b80634567db03116100f45780634567db03146101b65780634e1273f4146101c95780635226e184146101e95780635c975abb146101f2578063715018a61461020457600080fd5b8062fdd58e1461013057806301ffc9a7146101565780630e89341c146101795780632eb2c2d6146101995780633f4ba83a146101ae575b600080fd5b61014361013e36600461226e565b61036a565b6040519081526020015b60405180910390f35b6101696101643660046122b0565b610405565b604051901515815260200161014d565b61018c6101873660046122d4565b610455565b60405161014d919061233d565b6101ac6101a73660046124b3565b6104f7565b005b6101ac61058a565b6101ac6101c43660046125e5565b61059c565b6101dc6101d7366004612662565b6105be565b60405161014d9190612700565b61014360115481565b600054600160a01b900460ff16610169565b6101ac6106e7565b6101ac6106f9565b6000546040516001600160a01b03909116815260200161014d565b61014361023d3660046122d4565b60009081526009602052604090206001015490565b6101ac610260366004612713565b610709565b6101ac610273366004612751565b610718565b6101436102863660046122d4565b60009081526009602052604090206002015490565b6101696102a93660046128ac565b6001600160a01b03918216600090815260026020908152604080832093909416825291909152205460ff1690565b6101ac6102e53660046128da565b610744565b6101ac6102f8366004612942565b61085b565b61034161030b3660046122d4565b6000818152600960205260409020600381015460049091015460ff80821691620100008104821691610100909104169193509193565b6040805194855260ff93841660208601529183169184019190915216606082015260800161014d565b60006001600160a01b0383166103da5760405162461bcd60e51b815260206004820152602a60248201527f455243313135353a2061646472657373207a65726f206973206e6f742061207660448201526930b634b21037bbb732b960b11b60648201526084015b60405180910390fd5b5060008181526001602090815260408083206001600160a01b03861684529091529020545b92915050565b60006001600160e01b03198216636cdb3d1360e11b148061043657506001600160e01b031982166303a24d0760e21b145b806103ff57506301ffc9a760e01b6001600160e01b03198316146103ff565b6000818152600e602052604090208054606091906104729061295f565b80601f016020809104026020016040519081016040528092919081815260200182805461049e9061295f565b80156104eb5780601f106104c0576101008083540402835291602001916104eb565b820191906000526020600020905b8154815290600101906020018083116104ce57829003601f168201915b50505050509050919050565b6001600160a01b038516331480610513575061051385336102a9565b6105765760405162461bcd60e51b815260206004820152602e60248201527f455243313135353a2063616c6c6572206973206e6f7420746f6b656e206f776e60448201526d195c881bdc88185c1c1c9bdd995960921b60648201526084016103d1565b61058385858585856108d4565b5050505050565b610592610a73565b61059a610acd565b565b6105a4610a73565b6105ac610b22565b6105b884848484610b6f565b50505050565b606081518351146106235760405162461bcd60e51b815260206004820152602960248201527f455243313135353a206163636f756e747320616e6420696473206c656e677468604482015268040dad2e6dac2e8c6d60bb1b60648201526084016103d1565b600083516001600160401b0381111561063e5761063e612350565b604051908082528060200260200182016040528015610667578160200160208202803683370190505b50905060005b84518110156106df576106b285828151811061068b5761068b612999565b60200260200101518583815181106106a5576106a5612999565b602002602001015161036a565b8282815181106106c4576106c4612999565b60209081029190910101526106d8816129c5565b905061066d565b509392505050565b6106ef610a73565b61059a6000610df4565b610701610a73565b61059a610e44565b610714338383610e87565b5050565b610720610a73565b610728610b22565b610739898989898989898989610f67565b505050505050505050565b4260115560408051808201825260068152651313d0d2d15160d21b6020918201526000858152600d90915281902090517feb4a01a12a4bbfa1bc780c16c5b2b6720cdf4f3c29cabd8c0f76fec3a575096b9161079f916129de565b60405180910390200361084e576000838152600c60209081526040808320548352600b909152902054421161083c5760405162461bcd60e51b815260206004820152603760248201527f52454a5556453a2043616e6e6f742073616c6520353025206f6620736861726460448201527f73206265666f7265206c6f636b696e6720706572696f6400000000000000000060648201526084016103d1565b610849858585858561100d565b610583565b610583858585858561100d565b610863610a73565b6001600160a01b0381166108c85760405162461bcd60e51b815260206004820152602660248201527f4f776e61626c653a206e6577206f776e657220697320746865207a65726f206160448201526564647265737360d01b60648201526084016103d1565b6108d181610df4565b50565b81518351146108f55760405162461bcd60e51b81526004016103d190612a54565b6001600160a01b03841661091b5760405162461bcd60e51b81526004016103d190612a9c565b3360005b8451811015610a0557600085828151811061093c5761093c612999565b60200260200101519050600085838151811061095a5761095a612999565b60209081029190910181015160008481526001835260408082206001600160a01b038e1683529093529190912054909150818110156109ab5760405162461bcd60e51b81526004016103d190612ae1565b60008381526001602090815260408083206001600160a01b038e8116855292528083208585039055908b168252812080548492906109ea908490612b2b565b92505081905550505050806109fe906129c5565b905061091f565b50846001600160a01b0316866001600160a01b0316826001600160a01b03167f4a39dc06d4c0dbc64b70af90fd698a233a518aa5d07e595d983b8c0526c8f7fb8787604051610a55929190612b3e565b60405180910390a4610a6b81878787878761109c565b505050505050565b6000546001600160a01b0316331461059a5760405162461bcd60e51b815260206004820181905260248201527f4f776e61626c653a2063616c6c6572206973206e6f7420746865206f776e657260448201526064016103d1565b610ad5611200565b6000805460ff60a01b191690557f5db9ee0a495bf2e6ff9c91a7834c1ba4fdd244a5e8aa4e537bd38aeae4b073aa335b6040516001600160a01b03909116815260200160405180910390a1565b600054600160a01b900460ff161561059a5760405162461bcd60e51b815260206004820152601060248201526f14185d5cd8589b194e881c185d5cd95960821b60448201526064016103d1565b8151815114610bc05760405162461bcd60e51b815260206004820152601860248201527f52454a5556453a204e6f7420657175616c206c656e677468000000000000000060448201526064016103d1565b8260ff16600003610c2a5760405162461bcd60e51b815260206004820152602e60248201527f52454a5556453a204675747572652070657263656e746167652073686172652060448201526d63616e6e6f74206265207a65726f60901b60648201526084016103d1565b600084815260096020526040812060048101805462ff000019166201000060ff88160217905590610c5a84611250565b905060005b8351811015610da2576000610c96868381518110610c7f57610c7f612999565b6020026020010151848960ff16876001015461129f565b90506000610ca3826112f8565b9050610d47868481518110610cba57610cba612999565b6020026020010151600a60008c8152602001908152602001600020805480602002602001604051908101604052809291908181526020018280548015610d1f57602002820191906000526020600020905b815481526020019060010190808311610d0b575b505050505083604051806040016040528060048152602001630307830360e41b815250611389565b818560020154610d579190612b2b565b600286015550600f80546001810182556000919091527f8d1108e10bcb7c27dddfc02ed9d693a074039d026cf4ea4240b40f7d581ac802015580610d9a816129c5565b915050610c5f565b507f621e1a59d70685f53a28114e1229586ecd6908416f6bfaee0e147c3d34f398458684600f604051610dd793929190612ba1565b60405180910390a150506010805460ff1916600117905550505050565b600080546001600160a01b038381166001600160a01b0319831681178455604051919092169283917f8be0079c531659141344cd1fd0a4f28419497f9722a3daafe3b4186f6b6457e09190a35050565b610e4c610b22565b6000805460ff60a01b1916600160a01b1790557f62e78cea01bee320cd4e420270b5ea74000d11b0c9f74754ebdbfc544b05a258610b053390565b816001600160a01b0316836001600160a01b031603610efa5760405162461bcd60e51b815260206004820152602960248201527f455243313135353a2073657474696e6720617070726f76616c20737461747573604482015268103337b91039b2b63360b91b60648201526084016103d1565b6001600160a01b03838116600081815260026020908152604080832094871680845294825291829020805460ff191686151590811790915591519182527f17307eab39ab6107e8899845ad3d59bd9653f200f220920489ca2b5937696c31910160405180910390a3505050565b610f7189876114d5565b6000898152600b6020526040902054610f8f908a908a908888611550565b610f99898261165b565b610fa989898760ff168a8761182d565b610fb88989848760ff16611c5a565b7fb79a1263d65160537b9075e0e4747a6007a82fb191be4435b4c508c431920b898960066007604051610fed93929190612bff565b60405180910390a150506008805460ff1916600117905550505050505050565b611015610b22565b6001600160a01b038516331480611031575061103185336102a9565b61108f5760405162461bcd60e51b815260206004820152602960248201527f455243313135353a2063616c6c6572206973206e6f74206f776e6572206e6f7260448201526808185c1c1c9bdd995960ba1b60648201526084016103d1565b6105838585858585611db7565b6001600160a01b0384163b15610a6b5760405163bc197c8160e01b81526001600160a01b0385169063bc197c81906110e09089908990889088908890600401612c4e565b6020604051808303816000875af192505050801561111b575060408051601f3d908101601f1916820190925261111891810190612ca0565b60015b6111c757611127612cbd565b806308c379a003611160575061113b612cd9565b806111465750611162565b8060405162461bcd60e51b81526004016103d1919061233d565b505b60405162461bcd60e51b815260206004820152603460248201527f455243313135353a207472616e7366657220746f206e6f6e2d455243313135356044820152732932b1b2b4bb32b91034b6b83632b6b2b73a32b960611b60648201526084016103d1565b6001600160e01b0319811663bc197c8160e01b146111f75760405162461bcd60e51b81526004016103d190612d62565b50505050505050565b600054600160a01b900460ff1661059a5760405162461bcd60e51b815260206004820152601460248201527314185d5cd8589b194e881b9bdd081c185d5cd95960621b60448201526064016103d1565b60008060005b83518110156112985783818151811061127157611271612999565b6020026020010151826112849190612b2b565b915080611290816129c5565b915050611256565b5092915050565b600080846112ae876064612daa565b6112b89190612dc1565b9050600060646112c88686612daa565b6112d29190612dc1565b9050600060646112e28484612daa565b6112ec9190612dc1565b98975050505050505050565b604080516002808252606080830184529260009291906020830190803683370190505090506000606461132c856032612daa565b6113369190612dc1565b9050808260008151811061134c5761134c612999565b60209081029190910101526113618185612de3565b9350838260018151811061137757611377612999565b60209081029190910101525092915050565b6001600160a01b0384166113af5760405162461bcd60e51b81526004016103d190612df6565b81518351146113d05760405162461bcd60e51b81526004016103d190612a54565b3360005b845181101561146d578381815181106113ef576113ef612999565b60200260200101516001600087848151811061140d5761140d612999565b602002602001015181526020019081526020016000206000886001600160a01b03166001600160a01b0316815260200190815260200160002060008282546114559190612b2b565b90915550819050611465816129c5565b9150506113d4565b50846001600160a01b031660006001600160a01b0316826001600160a01b03167f4a39dc06d4c0dbc64b70af90fd698a233a518aa5d07e595d983b8c0526c8f7fb87876040516114be929190612b3e565b60405180910390a46105838160008787878761109c565b806000036115305760405162461bcd60e51b815260206004820152602260248201527f52454a5556453a204c6f636b20706572696f642063616e6e6f74206265207a65604482015261726f60f01b60648201526084016103d1565b61153a4282612b2b565b6000928352600b60205260409092209190915550565b836000036115aa5760405162461bcd60e51b815260206004820152602160248201527f52454a5556453a2054617267657420737570706c792063616e6e6f74206265206044820152600360fc1b60648201526084016103d1565b8160ff166000036116165760405162461bcd60e51b815260206004820152603060248201527f52454a5556453a20496e697469616c20636f6e7472696275746f72732070657260448201526f063656e742063616e6e6f7420626520360841b60648201526084016103d1565b6000858152600960205260409020948555600185019390935560038401919091556004909201805460ff93841661ffff19909116176101009390921692909202179055565b60408051600280825260608201909252600091816020015b6060815260200190600190039081611673579050509050604051806040016040528060068152602001651313d0d2d15160d21b815250816000815181106116bc576116bc612999565b60200260200101819052506040518060400160405280600681526020016515149051115160d21b815250816001815181106116f9576116f9612999565b602002602001018190525060005b81518160ff1610156105b8576005828260ff168151811061172a5761172a612999565b602090810291909101810151825460018101845560009384529190922001906117539082612e82565b5060055460009061176690600190612de3565b6000868152600a60209081526040822080546001810182559083529120018190558351909150839060ff84169081106117a1576117a1612999565b6020026020010151600d600083815260200190815260200160002090816117c89190612e82565b506000818152600c602052604090208590558351849060ff84169081106117f1576117f1612999565b6020026020010151600e600083815260200190815260200160002090816118189190612e82565b5050808061182590612f41565b915050611707565b6004805460405163c9187fe760e01b81529182018790526000916001600160a01b039091169063c9187fe790602401600060405180830381865afa158015611879573d6000803e3d6000fd5b505050506040513d6000823e601f3d908101601f191682016040526118a19190810190612f60565b905060006118ae87611eda565b60008881526009602052604090209091506118c98583612b2b565b915060005b600480546040516384ffeca560e01b81529182018b90526001600160a01b0316906384ffeca590602401602060405180830381865afa158015611915573d6000803e3d6000fd5b505050506040513d601f19601f820116820180604052508101906119399190613062565b811015611ba45760045484516000916001600160a01b0316906359a96ffe9087908590811061196a5761196a612999565b60200260200101516040518263ffffffff1660e01b815260040161198e919061233d565b602060405180830381865afa1580156119ab573d6000803e3d6000fd5b505050506040513d601f19601f820116820180604052508101906119cf919061307b565b6004548651919250600091611a6f916001600160a01b031690630e47cefa90899087908110611a0057611a00612999565b60200260200101518e6040518363ffffffff1660e01b8152600401611a26929190613098565b602060405180830381865afa158015611a43573d6000803e3d6000fd5b505050506040513d601f19601f82011682018060405250810190611a679190613062565b868b8d61129f565b90506000611a7c826112f8565b60008d8152600a60209081526040918290208054835181840281018401909452808452939450611afe93879392830182828015610d1f5760200282019190600052602060002090815481526020019060010190808311610d0b57505050505083604051806040016040528060048152602001630307830360e41b815250611389565b818560020154611b0e9190612b2b565b6002860155506006805460018082019092557ff652222313e28459528d920b65115c16c04f3efc82aaedc97be59f3f377c0d3f0180546001600160a01b0319166001600160a01b0394909416939093179092556007805492830181556000527fa66cc928b5edb82af9bd49922954155ab7b0942694bea4ce44661d9a8736c6889091015580611b9c816129c5565b9150506118ce565b506000611bb5898688868b8d612010565b9050808260020154611bc79190612b2b565b6002909201919091556006805460018181019092557ff652222313e28459528d920b65115c16c04f3efc82aaedc97be59f3f377c0d3f0180546001600160a01b039096166001600160a01b0319909616959095179094556007805494850181556000527fa66cc928b5edb82af9bd49922954155ab7b0942694bea4ce44661d9a8736c68890930192909255505050505050565b6000848152600960205260408120906064611c758487612daa565b611c7f9190612dc1565b9050808260020154611c919190612b2b565b60028301556000611ca1826112f8565b905060005b8151811015611d2e576000888152600a602052604090208054611d1c91889184908110611cd557611cd5612999565b9060005260206000200154848481518110611cf257611cf2612999565b6020026020010151604051806040016040528060048152602001630307830360e41b815250612080565b80611d26816129c5565b915050611ca6565b50506006805460018082019092557ff652222313e28459528d920b65115c16c04f3efc82aaedc97be59f3f377c0d3f0180546001600160a01b0319166001600160a01b0396909616959095179094556007805494850181556000527fa66cc928b5edb82af9bd49922954155ab7b0942694bea4ce44661d9a8736c6889093019290925550505050565b6001600160a01b038416611ddd5760405162461bcd60e51b81526004016103d190612a9c565b336000611de985612153565b90506000611df685612153565b905060008681526001602090815260408083206001600160a01b038c16845290915290205485811015611e3b5760405162461bcd60e51b81526004016103d190612ae1565b60008781526001602090815260408083206001600160a01b038d8116855292528083208985039055908a16825281208054889290611e7a908490612b2b565b909155505060408051888152602081018890526001600160a01b03808b16928c821692918816917fc3d58168c5ae7397731d063d5bbf3d657854427343f4c083240f7aacaa2d0f62910160405180910390a4610739848a8a8a8a8a61219e565b6004805460405163c9187fe760e01b815291820183905260009182916001600160a01b03169063c9187fe790602401600060405180830381865afa158015611f26573d6000803e3d6000fd5b505050506040513d6000823e601f3d908101601f19168201604052611f4e9190810190612f60565b90506000805b82518110156106df5760045483516000916001600160a01b031690630e47cefa90869085908110611f8757611f87612999565b6020026020010151886040518363ffffffff1660e01b8152600401611fad929190613098565b602060405180830381865afa158015611fca573d6000803e3d6000fd5b505050506040513d601f19601f82011682018060405250810190611fee9190613062565b9050611ffa8184612b2b565b9250508080612008906129c5565b915050611f54565b60008061201f8686868661129f565b9050600061202c826112f8565b905060005b81518110156120725760008a8152600a602052604090208054612060918b9184908110611cd557611cd5612999565b8061206a816129c5565b915050612031565b509098975050505050505050565b6001600160a01b0384166120a65760405162461bcd60e51b81526004016103d190612df6565b3360006120b285612153565b905060006120bf85612153565b905060008681526001602090815260408083206001600160a01b038b168452909152812080548792906120f3908490612b2b565b909155505060408051878152602081018790526001600160a01b03808a1692600092918716917fc3d58168c5ae7397731d063d5bbf3d657854427343f4c083240f7aacaa2d0f62910160405180910390a46111f78360008989898961219e565b6040805160018082528183019092526060916000919060208083019080368337019050509050828160008151811061218d5761218d612999565b602090810291909101015292915050565b6001600160a01b0384163b15610a6b5760405163f23a6e6160e01b81526001600160a01b0385169063f23a6e61906121e290899089908890889088906004016130ba565b6020604051808303816000875af192505050801561221d575060408051601f3d908101601f1916820190925261221a91810190612ca0565b60015b61222957611127612cbd565b6001600160e01b0319811663f23a6e6160e01b146111f75760405162461bcd60e51b81526004016103d190612d62565b6001600160a01b03811681146108d157600080fd5b6000806040838503121561228157600080fd5b823561228c81612259565b946020939093013593505050565b6001600160e01b0319811681146108d157600080fd5b6000602082840312156122c257600080fd5b81356122cd8161229a565b9392505050565b6000602082840312156122e657600080fd5b5035919050565b60005b838110156123085781810151838201526020016122f0565b50506000910152565b600081518084526123298160208601602086016122ed565b601f01601f19169290920160200192915050565b6020815260006122cd6020830184612311565b634e487b7160e01b600052604160045260246000fd5b601f8201601f191681016001600160401b038111828210171561238b5761238b612350565b6040525050565b60006001600160401b038211156123ab576123ab612350565b5060051b60200190565b600082601f8301126123c657600080fd5b813560206123d382612392565b6040516123e08282612366565b83815260059390931b850182019282810191508684111561240057600080fd5b8286015b8481101561241b5780358352918301918301612404565b509695505050505050565b60006001600160401b0382111561243f5761243f612350565b50601f01601f191660200190565b600061245883612426565b6040516124658282612366565b80925084815285858501111561247a57600080fd5b8484602083013760006020868301015250509392505050565b600082601f8301126124a457600080fd5b6122cd8383356020850161244d565b600080600080600060a086880312156124cb57600080fd5b85356124d681612259565b945060208601356124e681612259565b935060408601356001600160401b038082111561250257600080fd5b61250e89838a016123b5565b9450606088013591508082111561252457600080fd5b61253089838a016123b5565b9350608088013591508082111561254657600080fd5b5061255388828901612493565b9150509295509295909350565b803560ff8116811461257157600080fd5b919050565b600082601f83011261258757600080fd5b8135602061259482612392565b6040516125a18282612366565b83815260059390931b85018201928281019150868411156125c157600080fd5b8286015b8481101561241b5780356125d881612259565b83529183019183016125c5565b600080600080608085870312156125fb57600080fd5b8435935061260b60208601612560565b925060408501356001600160401b038082111561262757600080fd5b612633888389016123b5565b9350606087013591508082111561264957600080fd5b5061265687828801612576565b91505092959194509250565b6000806040838503121561267557600080fd5b82356001600160401b038082111561268c57600080fd5b61269886838701612576565b935060208501359150808211156126ae57600080fd5b506126bb858286016123b5565b9150509250929050565b600081518084526020808501945080840160005b838110156126f5578151875295820195908201906001016126d9565b509495945050505050565b6020815260006122cd60208301846126c5565b6000806040838503121561272657600080fd5b823561273181612259565b91506020830135801515811461274657600080fd5b809150509250929050565b60008060008060008060008060006101208a8c03121561277057600080fd5b8935985060208a0135975060408a0135965060608a0135955061279560808b01612560565b94506127a360a08b01612560565b93506127b260c08b0135612259565b60c08a013592506127c660e08b0135612259565b60e08a013591506001600160401b036101008b013511156127e657600080fd5b6101008a01358a018b601f8201126127fd57600080fd5b6128078135612392565b6040516128148282612366565b809150823581526020810191508d6020843560051b850101111561283757600080fd5b602083015b6020843560051b850101811015612898576001600160401b038135111561286257600080fd5b8e603f82358601011261287457600080fd5b61288a8f8235860160208101359060400161244d565b83526020928301920161283c565b508093505050509295985092959850929598565b600080604083850312156128bf57600080fd5b82356128ca81612259565b9150602083013561274681612259565b600080600080600060a086880312156128f257600080fd5b85356128fd81612259565b9450602086013561290d81612259565b9350604086013592506060860135915060808601356001600160401b0381111561293657600080fd5b61255388828901612493565b60006020828403121561295457600080fd5b81356122cd81612259565b600181811c9082168061297357607f821691505b60208210810361299357634e487b7160e01b600052602260045260246000fd5b50919050565b634e487b7160e01b600052603260045260246000fd5b634e487b7160e01b600052601160045260246000fd5b6000600182016129d7576129d76129af565b5060010190565b60008083546129ec8161295f565b60018281168015612a045760018114612a1957612a48565b60ff1984168752821515830287019450612a48565b8760005260208060002060005b85811015612a3f5781548a820152908401908201612a26565b50505082870194505b50929695505050505050565b60208082526028908201527f455243313135353a2069647320616e6420616d6f756e7473206c656e677468206040820152670dad2e6dac2e8c6d60c31b606082015260800190565b60208082526025908201527f455243313135353a207472616e7366657220746f20746865207a65726f206164604082015264647265737360d81b606082015260800190565b6020808252602a908201527f455243313135353a20696e73756666696369656e742062616c616e636520666f60408201526939103a3930b739b332b960b11b606082015260800190565b808201808211156103ff576103ff6129af565b604081526000612b5160408301856126c5565b8281036020840152612b6381856126c5565b95945050505050565b6000815480845260208085019450836000528060002060005b838110156126f557815487529582019560019182019101612b85565b6000606082018583526020606081850152818651808452608086019150828801935060005b81811015612beb5784516001600160a01b031683529383019391830191600101612bc6565b505084810360408601526112ec8187612b6c565b60006060820185835260206060818501528186548084526080860191508760005282600020935060005b81811015612beb5784546001600160a01b031683526001948501949284019201612c29565b6001600160a01b0386811682528516602082015260a060408201819052600090612c7a908301866126c5565b8281036060840152612c8c81866126c5565b905082810360808401526112ec8185612311565b600060208284031215612cb257600080fd5b81516122cd8161229a565b600060033d1115612cd65760046000803e5060005160e01c5b90565b600060443d1015612ce75790565b6040516003193d81016004833e81513d6001600160401b038160248401118184111715612d1657505050505090565b8285019150815181811115612d2e5750505050505090565b843d8701016020828501011115612d485750505050505090565b612d5760208286010187612366565b509095945050505050565b60208082526028908201527f455243313135353a204552433131353552656365697665722072656a656374656040820152676420746f6b656e7360c01b606082015260800190565b80820281158282048414176103ff576103ff6129af565b600082612dde57634e487b7160e01b600052601260045260246000fd5b500490565b818103818111156103ff576103ff6129af565b60208082526021908201527f455243313135353a206d696e7420746f20746865207a65726f206164647265736040820152607360f81b606082015260800190565b601f821115612e7d57600081815260208120601f850160051c81016020861015612e5e5750805b601f850160051c820191505b81811015610a6b57828155600101612e6a565b505050565b81516001600160401b03811115612e9b57612e9b612350565b612eaf81612ea9845461295f565b84612e37565b602080601f831160018114612ee45760008415612ecc5750858301515b600019600386901b1c1916600185901b178555610a6b565b600085815260208120601f198616915b82811015612f1357888601518255948401946001909101908401612ef4565b5085821015612f315787850151600019600388901b60f8161c191681555b5050505050600190811b01905550565b600060ff821660ff8103612f5757612f576129af565b60010192915050565b60006020808385031215612f7357600080fd5b82516001600160401b0380821115612f8a57600080fd5b818501915085601f830112612f9e57600080fd5b8151612fa981612392565b60408051612fb78382612366565b83815260059390931b8501860192868101925089841115612fd757600080fd5b8686015b8481101561305457805186811115612ff35760008081fd5b8701603f81018c136130055760008081fd5b8881015161301281612426565b855161301e8282612366565b8281528e8784860101111561303557600091508182fd5b613044838d83018987016122ed565b8752505050928701928701612fdb565b509998505050505050505050565b60006020828403121561307457600080fd5b5051919050565b60006020828403121561308d57600080fd5b81516122cd81612259565b6040815260006130ab6040830185612311565b90508260208301529392505050565b6001600160a01b03868116825285166020820152604081018490526060810183905260a0608082018190526000906130f490830184612311565b97965050505050505056fea26469706673582212207e79b58b5203534b81eacc39523761ed5cd502e9b07a04851ed3dfdff95f968364736f6c63430008110033",
  "linkReferences": {},
  "deployedLinkReferences": {}
}