{
  "_format": "hh-sol-artifact-1",
  "contractName": "TransferShards",
  "sourceName": "contracts/TransferShards.sol",
  "abi": [
    {
      "inputs": [
        {
          "internalType": "string",
          "name": "uri_",
          "type": "string"
        },
        {
          "internalType": "address",
          "name": "productNFT_",
          "type": "address"
        }
      ],
      "stateMutability": "nonpayable",
      "type": "constructor"
    },
    {
      "anonymous": false,
      "inputs": [
        {
          "indexed": true,
          "internalType": "address",
          "name": "account",
          "type": "address"
        },
        {
          "indexed": true,
          "internalType": "address",
          "name": "operator",
          "type": "address"
        },
        {
          "indexed": false,
          "internalType": "bool",
          "name": "approved",
          "type": "bool"
        }
      ],
      "name": "ApprovalForAll",
      "type": "event"
    },
    {
      "anonymous": false,
      "inputs": [
        {
          "indexed": false,
          "internalType": "uint256",
          "name": "productUID",
          "type": "uint256"
        },
        {
          "indexed": false,
          "internalType": "address[]",
          "name": "dataOwners",
          "type": "address[]"
        },
        {
          "indexed": false,
          "internalType": "uint256[]",
          "name": "shardAmount",
          "type": "uint256[]"
        }
      ],
      "name": "FutureShardDistributed",
      "type": "event"
    },
    {
      "anonymous": false,
      "inputs": [
        {
          "indexed": false,
          "internalType": "uint256",
          "name": "productUID",
          "type": "uint256"
        },
        {
          "indexed": false,
          "internalType": "address[]",
          "name": "dataOwners",
          "type": "address[]"
        },
        {
          "indexed": false,
          "internalType": "uint256[]",
          "name": "shardAmount",
          "type": "uint256[]"
        }
      ],
      "name": "InitialShardDistributed",
      "type": "event"
    },
    {
      "anonymous": false,
      "inputs": [
        {
          "indexed": true,
          "internalType": "address",
          "name": "previousOwner",
          "type": "address"
        },
        {
          "indexed": true,
          "internalType": "address",
          "name": "newOwner",
          "type": "address"
        }
      ],
      "name": "OwnershipTransferred",
      "type": "event"
    },
    {
      "anonymous": false,
      "inputs": [
        {
          "indexed": false,
          "internalType": "address",
          "name": "account",
          "type": "address"
        }
      ],
      "name": "Paused",
      "type": "event"
    },
    {
      "anonymous": false,
      "inputs": [
        {
          "indexed": false,
          "internalType": "uint256",
          "name": "productUID",
          "type": "uint256"
        },
        {
          "indexed": false,
          "internalType": "address",
          "name": "rejuve",
          "type": "address"
        },
        {
          "indexed": false,
          "internalType": "uint256",
          "name": "shardAmount",
          "type": "uint256"
        }
      ],
      "name": "RemainingShardAssigned",
      "type": "event"
    },
    {
      "anonymous": false,
      "inputs": [
        {
          "indexed": true,
          "internalType": "address",
          "name": "operator",
          "type": "address"
        },
        {
          "indexed": true,
          "internalType": "address",
          "name": "from",
          "type": "address"
        },
        {
          "indexed": true,
          "internalType": "address",
          "name": "to",
          "type": "address"
        },
        {
          "indexed": false,
          "internalType": "uint256[]",
          "name": "ids",
          "type": "uint256[]"
        },
        {
          "indexed": false,
          "internalType": "uint256[]",
          "name": "values",
          "type": "uint256[]"
        }
      ],
      "name": "TransferBatch",
      "type": "event"
    },
    {
      "anonymous": false,
      "inputs": [
        {
          "indexed": true,
          "internalType": "address",
          "name": "operator",
          "type": "address"
        },
        {
          "indexed": true,
          "internalType": "address",
          "name": "from",
          "type": "address"
        },
        {
          "indexed": true,
          "internalType": "address",
          "name": "to",
          "type": "address"
        },
        {
          "indexed": false,
          "internalType": "uint256",
          "name": "id",
          "type": "uint256"
        },
        {
          "indexed": false,
          "internalType": "uint256",
          "name": "value",
          "type": "uint256"
        }
      ],
      "name": "TransferSingle",
      "type": "event"
    },
    {
      "anonymous": false,
      "inputs": [
        {
          "indexed": false,
          "internalType": "string",
          "name": "value",
          "type": "string"
        },
        {
          "indexed": true,
          "internalType": "uint256",
          "name": "id",
          "type": "uint256"
        }
      ],
      "name": "URI",
      "type": "event"
    },
    {
      "anonymous": false,
      "inputs": [
        {
          "indexed": false,
          "internalType": "address",
          "name": "account",
          "type": "address"
        }
      ],
      "name": "Unpaused",
      "type": "event"
    },
    {
      "inputs": [
        {
          "internalType": "address",
          "name": "account",
          "type": "address"
        },
        {
          "internalType": "uint256",
          "name": "id",
          "type": "uint256"
        }
      ],
      "name": "balanceOf",
      "outputs": [
        {
          "internalType": "uint256",
          "name": "",
          "type": "uint256"
        }
      ],
      "stateMutability": "view",
      "type": "function"
    },
    {
      "inputs": [
        {
          "internalType": "address[]",
          "name": "accounts",
          "type": "address[]"
        },
        {
          "internalType": "uint256[]",
          "name": "ids",
          "type": "uint256[]"
        }
      ],
      "name": "balanceOfBatch",
      "outputs": [
        {
          "internalType": "uint256[]",
          "name": "",
          "type": "uint256[]"
        }
      ],
      "stateMutability": "view",
      "type": "function"
    },
    {
      "inputs": [
        {
          "internalType": "uint256",
          "name": "_productUID",
          "type": "uint256"
        },
        {
          "internalType": "uint8",
          "name": "_futurePercent",
          "type": "uint8"
        },
        {
          "internalType": "uint256[]",
          "name": "_credits",
          "type": "uint256[]"
        },
        {
          "internalType": "address[]",
          "name": "_futureContributors",
          "type": "address[]"
        }
      ],
      "name": "distributeFutureShards",
      "outputs": [],
      "stateMutability": "nonpayable",
      "type": "function"
    },
    {
      "inputs": [
        {
          "internalType": "uint256",
          "name": "_productUID",
          "type": "uint256"
        },
        {
          "internalType": "uint256",
          "name": "_targetSupply",
          "type": "uint256"
        },
        {
          "internalType": "uint256",
          "name": "_labCredit",
          "type": "uint256"
        },
        {
          "internalType": "uint256",
          "name": "_lockPeriod",
          "type": "uint256"
        },
        {
          "internalType": "uint8",
          "name": "_initialPercent",
          "type": "uint8"
        },
        {
          "internalType": "uint8",
          "name": "_rejuvePercent",
          "type": "uint8"
        },
        {
          "internalType": "address",
          "name": "_lab",
          "type": "address"
        },
        {
          "internalType": "address",
          "name": "_rejuve",
          "type": "address"
        },
        {
          "internalType": "string[]",
          "name": "_uris",
          "type": "string[]"
        }
      ],
      "name": "distributeInitialShards",
      "outputs": [],
      "stateMutability": "nonpayable",
      "type": "function"
    },
    {
      "inputs": [
        {
          "internalType": "uint256",
          "name": "_productUID",
          "type": "uint256"
        }
      ],
      "name": "getShardsConfig",
      "outputs": [
        {
          "internalType": "uint256",
          "name": "",
          "type": "uint256"
        },
        {
          "internalType": "uint8",
          "name": "",
          "type": "uint8"
        },
        {
          "internalType": "uint8",
          "name": "",
          "type": "uint8"
        },
        {
          "internalType": "uint8",
          "name": "",
          "type": "uint8"
        }
      ],
      "stateMutability": "view",
      "type": "function"
    },
    {
      "inputs": [
        {
          "internalType": "address",
          "name": "account",
          "type": "address"
        },
        {
          "internalType": "address",
          "name": "operator",
          "type": "address"
        }
      ],
      "name": "isApprovedForAll",
      "outputs": [
        {
          "internalType": "bool",
          "name": "",
          "type": "bool"
        }
      ],
      "stateMutability": "view",
      "type": "function"
    },
    {
      "inputs": [
        {
          "internalType": "uint256",
          "name": "_productUID",
          "type": "uint256"
        },
        {
          "internalType": "address",
          "name": "_holder",
          "type": "address"
        }
      ],
      "name": "mintRemainingShards",
      "outputs": [],
      "stateMutability": "nonpayable",
      "type": "function"
    },
    {
      "inputs": [],
      "name": "owner",
      "outputs": [
        {
          "internalType": "address",
          "name": "",
          "type": "address"
        }
      ],
      "stateMutability": "view",
      "type": "function"
    },
    {
      "inputs": [],
      "name": "pause",
      "outputs": [],
      "stateMutability": "nonpayable",
      "type": "function"
    },
    {
      "inputs": [],
      "name": "paused",
      "outputs": [
        {
          "internalType": "bool",
          "name": "",
          "type": "bool"
        }
      ],
      "stateMutability": "view",
      "type": "function"
    },
    {
      "inputs": [],
      "name": "renounceOwnership",
      "outputs": [],
      "stateMutability": "nonpayable",
      "type": "function"
    },
    {
      "inputs": [
        {
          "internalType": "address",
          "name": "from",
          "type": "address"
        },
        {
          "internalType": "address",
          "name": "to",
          "type": "address"
        },
        {
          "internalType": "uint256[]",
          "name": "ids",
          "type": "uint256[]"
        },
        {
          "internalType": "uint256[]",
          "name": "amounts",
          "type": "uint256[]"
        },
        {
          "internalType": "bytes",
          "name": "data",
          "type": "bytes"
        }
      ],
      "name": "safeBatchTransferFrom",
      "outputs": [],
      "stateMutability": "nonpayable",
      "type": "function"
    },
    {
      "inputs": [
        {
          "internalType": "address",
          "name": "from",
          "type": "address"
        },
        {
          "internalType": "address",
          "name": "to",
          "type": "address"
        },
        {
          "internalType": "uint256",
          "name": "id",
          "type": "uint256"
        },
        {
          "internalType": "uint256",
          "name": "amount",
          "type": "uint256"
        },
        {
          "internalType": "bytes",
          "name": "data",
          "type": "bytes"
        }
      ],
      "name": "safeTransferFrom",
      "outputs": [],
      "stateMutability": "nonpayable",
      "type": "function"
    },
    {
      "inputs": [
        {
          "internalType": "address",
          "name": "operator",
          "type": "address"
        },
        {
          "internalType": "bool",
          "name": "approved",
          "type": "bool"
        }
      ],
      "name": "setApprovalForAll",
      "outputs": [],
      "stateMutability": "nonpayable",
      "type": "function"
    },
    {
      "inputs": [
        {
          "internalType": "bytes4",
          "name": "interfaceId",
          "type": "bytes4"
        }
      ],
      "name": "supportsInterface",
      "outputs": [
        {
          "internalType": "bool",
          "name": "",
          "type": "bool"
        }
      ],
      "stateMutability": "view",
      "type": "function"
    },
    {
      "inputs": [
        {
          "internalType": "uint256",
          "name": "_productUID",
          "type": "uint256"
        }
      ],
      "name": "targetSupply",
      "outputs": [
        {
          "internalType": "uint256",
          "name": "",
          "type": "uint256"
        }
      ],
      "stateMutability": "view",
      "type": "function"
    },
    {
      "inputs": [
        {
          "internalType": "uint256",
          "name": "_productUID",
          "type": "uint256"
        }
      ],
      "name": "totalShardSupply",
      "outputs": [
        {
          "internalType": "uint256",
          "name": "",
          "type": "uint256"
        }
      ],
      "stateMutability": "view",
      "type": "function"
    },
    {
      "inputs": [
        {
          "internalType": "address",
          "name": "newOwner",
          "type": "address"
        }
      ],
      "name": "transferOwnership",
      "outputs": [],
      "stateMutability": "nonpayable",
      "type": "function"
    },
    {
      "inputs": [],
      "name": "unpause",
      "outputs": [],
      "stateMutability": "nonpayable",
      "type": "function"
    },
    {
      "inputs": [
        {
          "internalType": "uint256",
          "name": "_id",
          "type": "uint256"
        }
      ],
      "name": "uri",
      "outputs": [
        {
          "internalType": "string",
          "name": "",
          "type": "string"
        }
      ],
      "stateMutability": "view",
      "type": "function"
    }
  ],
  "bytecode": "0x60806040523480156200001157600080fd5b506040516200369f3803806200369f83398101604081905262000034916200011e565b8181818181620000443362000089565b6000805460ff60a01b191690556200005c81620000d9565b50600480546001600160a01b0319166001600160a01b039290921691909117905550620003619350505050565b600080546001600160a01b038381166001600160a01b0319831681178455604051919092169283917f8be0079c531659141344cd1fd0a4f28419497f9722a3daafe3b4186f6b6457e09190a35050565b6003620000e7828262000295565b5050565b634e487b7160e01b600052604160045260246000fd5b80516001600160a01b03811681146200011957600080fd5b919050565b600080604083850312156200013257600080fd5b82516001600160401b03808211156200014a57600080fd5b818501915085601f8301126200015f57600080fd5b815181811115620001745762000174620000eb565b604051601f8201601f19908116603f011681019083821181831017156200019f576200019f620000eb565b81604052828152602093508884848701011115620001bc57600080fd5b600091505b82821015620001e05784820184015181830185015290830190620001c1565b6000848483010152809650505050620001fb81860162000101565b925050509250929050565b600181811c908216806200021b57607f821691505b6020821081036200023c57634e487b7160e01b600052602260045260246000fd5b50919050565b601f8211156200029057600081815260208120601f850160051c810160208610156200026b5750805b601f850160051c820191505b818110156200028c5782815560010162000277565b5050505b505050565b81516001600160401b03811115620002b157620002b1620000eb565b620002c981620002c2845462000206565b8462000242565b602080601f831160018114620003015760008415620002e85750858301515b600019600386901b1c1916600185901b1785556200028c565b600085815260208120601f198616915b82811015620003325788860151825594840194600190910190840162000311565b5085821015620003515787850151600019600388901b60f8161c191681555b5050505050600190811b01905550565b61332e80620003716000396000f3fe608060405234801561001057600080fd5b506004361061012b5760003560e01c80638456cb59116100ad578063d6e0dbda11610071578063d6e0dbda14610282578063e985e9c5146102a5578063f242432a146102e1578063f2fde38b146102f4578063fac795c01461030757600080fd5b80638456cb59146102165780638da5cb5b1461021e578063936906f114610239578063a22cb4651461025c578063d429c7581461026f57600080fd5b80633f4ba83a116100f45780633f4ba83a146101c15780634567db03146101c95780634e1273f4146101dc5780635c975abb146101fc578063715018a61461020e57600080fd5b8062fdd58e1461013057806301ffc9a7146101565780630e89341c1461017957806325d845db146101995780632eb2c2d6146101ae575b600080fd5b61014361013e366004612442565b610374565b6040519081526020015b60405180910390f35b610169610164366004612484565b61040f565b604051901515815260200161014d565b61018c6101873660046124a8565b61045f565b60405161014d9190612511565b6101ac6101a7366004612524565b610501565b005b6101ac6101bc3660046126b7565b61051f565b6101ac6105b2565b6101ac6101d73660046127e9565b6105c4565b6101ef6101ea366004612866565b6105e6565b60405161014d9190612904565b600054600160a01b900460ff16610169565b6101ac61070f565b6101ac610721565b6000546040516001600160a01b03909116815260200161014d565b6101436102473660046124a8565b60009081526009602052604090206001015490565b6101ac61026a366004612917565b610731565b6101ac61027d36600461294a565b61073c565b6101436102903660046124a8565b60009081526009602052604090206002015490565b6101696102b3366004612aa5565b6001600160a01b03918216600090815260026020908152604080832093909416825291909152205460ff1690565b6101ac6102ef366004612ad3565b610768565b6101ac610302366004612b3b565b61087b565b61034b6103153660046124a8565b6000818152600960205260409020600381015460049091015460ff80821691620100008104821691610100909104169193509193565b6040805194855260ff93841660208601529183169184019190915216606082015260800161014d565b60006001600160a01b0383166103e45760405162461bcd60e51b815260206004820152602a60248201527f455243313135353a2061646472657373207a65726f206973206e6f742061207660448201526930b634b21037bbb732b960b11b60648201526084015b60405180910390fd5b5060008181526001602090815260408083206001600160a01b03861684529091529020545b92915050565b60006001600160e01b03198216636cdb3d1360e11b148061044057506001600160e01b031982166303a24d0760e21b145b8061040957506301ffc9a760e01b6001600160e01b0319831614610409565b6000818152600e6020526040902080546060919061047c90612b58565b80601f01602080910402602001604051908101604052809291908181526020018280546104a890612b58565b80156104f55780601f106104ca576101008083540402835291602001916104f5565b820191906000526020600020905b8154815290600101906020018083116104d857829003601f168201915b50505050509050919050565b6105096108f4565b61051161094e565b61051b828261099b565b5050565b6001600160a01b03851633148061053b575061053b85336102b3565b61059e5760405162461bcd60e51b815260206004820152602e60248201527f455243313135353a2063616c6c6572206973206e6f7420746f6b656e206f776e60448201526d195c881bdc88185c1c1c9bdd995960921b60648201526084016103db565b6105ab8585858585610b96565b5050505050565b6105ba6108f4565b6105c2610d35565b565b6105cc6108f4565b6105d461094e565b6105e084848484610d8a565b50505050565b6060815183511461064b5760405162461bcd60e51b815260206004820152602960248201527f455243313135353a206163636f756e747320616e6420696473206c656e677468604482015268040dad2e6dac2e8c6d60bb1b60648201526084016103db565b600083516001600160401b0381111561066657610666612554565b60405190808252806020026020018201604052801561068f578160200160208202803683370190505b50905060005b8451811015610707576106da8582815181106106b3576106b3612b92565b60200260200101518583815181106106cd576106cd612b92565b6020026020010151610374565b8282815181106106ec576106ec612b92565b602090810291909101015261070081612bbe565b9050610695565b509392505050565b6107176108f4565b6105c2600061100f565b6107296108f4565b6105c261105f565b61051b3383836110a2565b6107446108f4565b61074c61094e565b61075d898989898989898989611182565b505050505050505050565b60408051808201825260068152651313d0d2d15160d21b6020918201526000858152600d90915281902090517feb4a01a12a4bbfa1bc780c16c5b2b6720cdf4f3c29cabd8c0f76fec3a575096b916107bf91612bd7565b60405180910390200361086e576000838152600c60209081526040808320548352600b909152902054421161085c5760405162461bcd60e51b815260206004820152603760248201527f52454a5556453a2043616e6e6f742073616c6520353025206f6620736861726460448201527f73206265666f7265206c6f636b696e6720706572696f6400000000000000000060648201526084016103db565b6108698585858585611228565b6105ab565b6105ab8585858585611228565b6108836108f4565b6001600160a01b0381166108e85760405162461bcd60e51b815260206004820152602660248201527f4f776e61626c653a206e6577206f776e657220697320746865207a65726f206160448201526564647265737360d01b60648201526084016103db565b6108f18161100f565b50565b6000546001600160a01b031633146105c25760405162461bcd60e51b815260206004820181905260248201527f4f776e61626c653a2063616c6c6572206973206e6f7420746865206f776e657260448201526064016103db565b600054600160a01b900460ff16156105c25760405162461bcd60e51b815260206004820152601060248201526f14185d5cd8589b194e881c185d5cd95960821b60448201526064016103db565b60085460ff1680156109af575060105460ff165b610a215760405162461bcd60e51b815260206004820152603860248201527f52454a5556453a2043616e6e6f74206d696e74206265666f726520696e69746960448201527f616c20262066757475726520646973747269627574696f6e000000000000000060648201526084016103db565b600082815260096020526040812060028101546001820154919291610a469190612c4d565b905080600003610a985760405162461bcd60e51b815260206004820152601a60248201527f52454a5556453a204e6f20736861726420617661696c61626c6500000000000060448201526064016103db565b808260020154610aa89190612c60565b60028301556000610ab8826112b7565b905060005b8151811015610b45576000868152600a602052604090208054610b3391879184908110610aec57610aec612b92565b9060005260206000200154848481518110610b0957610b09612b92565b6020026020010151604051806040016040528060048152602001630307830360e41b815250611348565b80610b3d81612bbe565b915050610abd565b50604080518681526001600160a01b03861660208201529081018390527ffadbf7e144501599e9af4378b9f7ace20f5f3f72e8b225a8a713e092cf7bd2319060600160405180910390a15050505050565b8151835114610bb75760405162461bcd60e51b81526004016103db90612c73565b6001600160a01b038416610bdd5760405162461bcd60e51b81526004016103db90612cbb565b3360005b8451811015610cc7576000858281518110610bfe57610bfe612b92565b602002602001015190506000858381518110610c1c57610c1c612b92565b60209081029190910181015160008481526001835260408082206001600160a01b038e168352909352919091205490915081811015610c6d5760405162461bcd60e51b81526004016103db90612d00565b60008381526001602090815260408083206001600160a01b038e8116855292528083208585039055908b16825281208054849290610cac908490612c60565b9250508190555050505080610cc090612bbe565b9050610be1565b50846001600160a01b0316866001600160a01b0316826001600160a01b03167f4a39dc06d4c0dbc64b70af90fd698a233a518aa5d07e595d983b8c0526c8f7fb8787604051610d17929190612d4a565b60405180910390a4610d2d818787878787611424565b505050505050565b610d3d61157f565b6000805460ff60a01b191690557f5db9ee0a495bf2e6ff9c91a7834c1ba4fdd244a5e8aa4e537bd38aeae4b073aa335b6040516001600160a01b03909116815260200160405180910390a1565b8151815114610ddb5760405162461bcd60e51b815260206004820152601860248201527f52454a5556453a204e6f7420657175616c206c656e677468000000000000000060448201526064016103db565b8260ff16600003610e455760405162461bcd60e51b815260206004820152602e60248201527f52454a5556453a204675747572652070657263656e746167652073686172652060448201526d63616e6e6f74206265207a65726f60901b60648201526084016103db565b600084815260096020526040812060048101805462ff000019166201000060ff88160217905590610e75846115cf565b905060005b8351811015610fbd576000610eb1868381518110610e9a57610e9a612b92565b6020026020010151848960ff16876001015461161e565b90506000610ebe826112b7565b9050610f62868481518110610ed557610ed5612b92565b6020026020010151600a60008c8152602001908152602001600020805480602002602001604051908101604052809291908181526020018280548015610f3a57602002820191906000526020600020905b815481526020019060010190808311610f26575b505050505083604051806040016040528060048152602001630307830360e41b815250611677565b818560020154610f729190612c60565b600286015550600f80546001810182556000919091527f8d1108e10bcb7c27dddfc02ed9d693a074039d026cf4ea4240b40f7d581ac802015580610fb581612bbe565b915050610e7a565b507f621e1a59d70685f53a28114e1229586ecd6908416f6bfaee0e147c3d34f398458684600f604051610ff293929190612dad565b60405180910390a150506010805460ff1916600117905550505050565b600080546001600160a01b038381166001600160a01b0319831681178455604051919092169283917f8be0079c531659141344cd1fd0a4f28419497f9722a3daafe3b4186f6b6457e09190a35050565b61106761094e565b6000805460ff60a01b1916600160a01b1790557f62e78cea01bee320cd4e420270b5ea74000d11b0c9f74754ebdbfc544b05a258610d6d3390565b816001600160a01b0316836001600160a01b0316036111155760405162461bcd60e51b815260206004820152602960248201527f455243313135353a2073657474696e6720617070726f76616c20737461747573604482015268103337b91039b2b63360b91b60648201526084016103db565b6001600160a01b03838116600081815260026020908152604080832094871680845294825291829020805460ff191686151590811790915591519182527f17307eab39ab6107e8899845ad3d59bd9653f200f220920489ca2b5937696c31910160405180910390a3505050565b61118c89876117c3565b6000898152600b60205260409020546111aa908a908a90888861183e565b6111b48982611949565b6111c489898760ff168a87611b1b565b6111d38989848760ff16611f48565b7fb79a1263d65160537b9075e0e4747a6007a82fb191be4435b4c508c431920b89896006600760405161120893929190612e0b565b60405180910390a150506008805460ff1916600117905550505050505050565b61123061094e565b6001600160a01b03851633148061124c575061124c85336102b3565b6112aa5760405162461bcd60e51b815260206004820152602960248201527f455243313135353a2063616c6c6572206973206e6f74206f776e6572206e6f7260448201526808185c1c1c9bdd995960ba1b60648201526084016103db565b6105ab858585858561205e565b60408051600280825260608083018452926000929190602083019080368337019050509050600060646112eb856032612e5a565b6112f59190612e71565b9050808260008151811061130b5761130b612b92565b60209081029190910101526113208185612c4d565b9350838260018151811061133657611336612b92565b60209081029190910101525092915050565b6001600160a01b03841661136e5760405162461bcd60e51b81526004016103db90612e93565b33600061137a85612181565b9050600061138785612181565b905060008681526001602090815260408083206001600160a01b038b168452909152812080548792906113bb908490612c60565b909155505060408051878152602081018790526001600160a01b03808a1692600092918716917fc3d58168c5ae7397731d063d5bbf3d657854427343f4c083240f7aacaa2d0f62910160405180910390a461141b836000898989896121cc565b50505050505050565b6001600160a01b0384163b15610d2d5760405163bc197c8160e01b81526001600160a01b0385169063bc197c81906114689089908990889088908890600401612ed4565b6020604051808303816000875af19250505080156114a3575060408051601f3d908101601f191682019092526114a091810190612f26565b60015b61154f576114af612f43565b806308c379a0036114e857506114c3612f5f565b806114ce57506114ea565b8060405162461bcd60e51b81526004016103db9190612511565b505b60405162461bcd60e51b815260206004820152603460248201527f455243313135353a207472616e7366657220746f206e6f6e2d455243313135356044820152732932b1b2b4bb32b91034b6b83632b6b2b73a32b960611b60648201526084016103db565b6001600160e01b0319811663bc197c8160e01b1461141b5760405162461bcd60e51b81526004016103db90612fe8565b600054600160a01b900460ff166105c25760405162461bcd60e51b815260206004820152601460248201527314185d5cd8589b194e881b9bdd081c185d5cd95960621b60448201526064016103db565b60008060005b8351811015611617578381815181106115f0576115f0612b92565b6020026020010151826116039190612c60565b91508061160f81612bbe565b9150506115d5565b5092915050565b6000808461162d876064612e5a565b6116379190612e71565b9050600060646116478686612e5a565b6116519190612e71565b9050600060646116618484612e5a565b61166b9190612e71565b98975050505050505050565b6001600160a01b03841661169d5760405162461bcd60e51b81526004016103db90612e93565b81518351146116be5760405162461bcd60e51b81526004016103db90612c73565b3360005b845181101561175b578381815181106116dd576116dd612b92565b6020026020010151600160008784815181106116fb576116fb612b92565b602002602001015181526020019081526020016000206000886001600160a01b03166001600160a01b0316815260200190815260200160002060008282546117439190612c60565b9091555081905061175381612bbe565b9150506116c2565b50846001600160a01b031660006001600160a01b0316826001600160a01b03167f4a39dc06d4c0dbc64b70af90fd698a233a518aa5d07e595d983b8c0526c8f7fb87876040516117ac929190612d4a565b60405180910390a46105ab81600087878787611424565b8060000361181e5760405162461bcd60e51b815260206004820152602260248201527f52454a5556453a204c6f636b20706572696f642063616e6e6f74206265207a65604482015261726f60f01b60648201526084016103db565b6118284282612c60565b6000928352600b60205260409092209190915550565b836000036118985760405162461bcd60e51b815260206004820152602160248201527f52454a5556453a2054617267657420737570706c792063616e6e6f74206265206044820152600360fc1b60648201526084016103db565b8160ff166000036119045760405162461bcd60e51b815260206004820152603060248201527f52454a5556453a20496e697469616c20636f6e7472696275746f72732070657260448201526f063656e742063616e6e6f7420626520360841b60648201526084016103db565b6000858152600960205260409020948555600185019390935560038401919091556004909201805460ff93841661ffff19909116176101009390921692909202179055565b60408051600280825260608201909252600091816020015b6060815260200190600190039081611961579050509050604051806040016040528060068152602001651313d0d2d15160d21b815250816000815181106119aa576119aa612b92565b60200260200101819052506040518060400160405280600681526020016515149051115160d21b815250816001815181106119e7576119e7612b92565b602002602001018190525060005b81518160ff1610156105e0576005828260ff1681518110611a1857611a18612b92565b60209081029190910181015182546001810184556000938452919092200190611a41908261307b565b50600554600090611a5490600190612c4d565b6000868152600a60209081526040822080546001810182559083529120018190558351909150839060ff8416908110611a8f57611a8f612b92565b6020026020010151600d60008381526020019081526020016000209081611ab6919061307b565b506000818152600c602052604090208590558351849060ff8416908110611adf57611adf612b92565b6020026020010151600e60008381526020019081526020016000209081611b06919061307b565b50508080611b139061313a565b9150506119f5565b6004805460405163c9187fe760e01b81529182018790526000916001600160a01b039091169063c9187fe790602401600060405180830381865afa158015611b67573d6000803e3d6000fd5b505050506040513d6000823e601f3d908101601f19168201604052611b8f9190810190613159565b90506000611b9c87612287565b6000888152600960205260409020909150611bb78583612c60565b915060005b600480546040516384ffeca560e01b81529182018b90526001600160a01b0316906384ffeca590602401602060405180830381865afa158015611c03573d6000803e3d6000fd5b505050506040513d601f19601f82011682018060405250810190611c27919061325b565b811015611e925760045484516000916001600160a01b0316906359a96ffe90879085908110611c5857611c58612b92565b60200260200101516040518263ffffffff1660e01b8152600401611c7c9190612511565b602060405180830381865afa158015611c99573d6000803e3d6000fd5b505050506040513d601f19601f82011682018060405250810190611cbd9190613274565b6004548651919250600091611d5d916001600160a01b031690630e47cefa90899087908110611cee57611cee612b92565b60200260200101518e6040518363ffffffff1660e01b8152600401611d14929190613291565b602060405180830381865afa158015611d31573d6000803e3d6000fd5b505050506040513d601f19601f82011682018060405250810190611d55919061325b565b868b8d61161e565b90506000611d6a826112b7565b60008d8152600a60209081526040918290208054835181840281018401909452808452939450611dec93879392830182828015610f3a5760200282019190600052602060002090815481526020019060010190808311610f2657505050505083604051806040016040528060048152602001630307830360e41b815250611677565b818560020154611dfc9190612c60565b6002860155506006805460018082019092557ff652222313e28459528d920b65115c16c04f3efc82aaedc97be59f3f377c0d3f0180546001600160a01b0319166001600160a01b0394909416939093179092556007805492830181556000527fa66cc928b5edb82af9bd49922954155ab7b0942694bea4ce44661d9a8736c6889091015580611e8a81612bbe565b915050611bbc565b506000611ea3898688868b8d6123bd565b9050808260020154611eb59190612c60565b6002909201919091556006805460018181019092557ff652222313e28459528d920b65115c16c04f3efc82aaedc97be59f3f377c0d3f0180546001600160a01b039096166001600160a01b0319909616959095179094556007805494850181556000527fa66cc928b5edb82af9bd49922954155ab7b0942694bea4ce44661d9a8736c68890930192909255505050505050565b6000848152600960205260408120906064611f638487612e5a565b611f6d9190612e71565b9050808260020154611f7f9190612c60565b60028301556000611f8f826112b7565b905060005b8151811015611fd5576000888152600a602052604090208054611fc391889184908110610aec57610aec612b92565b80611fcd81612bbe565b915050611f94565b50506006805460018082019092557ff652222313e28459528d920b65115c16c04f3efc82aaedc97be59f3f377c0d3f0180546001600160a01b0319166001600160a01b0396909616959095179094556007805494850181556000527fa66cc928b5edb82af9bd49922954155ab7b0942694bea4ce44661d9a8736c6889093019290925550505050565b6001600160a01b0384166120845760405162461bcd60e51b81526004016103db90612cbb565b33600061209085612181565b9050600061209d85612181565b905060008681526001602090815260408083206001600160a01b038c168452909152902054858110156120e25760405162461bcd60e51b81526004016103db90612d00565b60008781526001602090815260408083206001600160a01b038d8116855292528083208985039055908a16825281208054889290612121908490612c60565b909155505060408051888152602081018890526001600160a01b03808b16928c821692918816917fc3d58168c5ae7397731d063d5bbf3d657854427343f4c083240f7aacaa2d0f62910160405180910390a461075d848a8a8a8a8a6121cc565b604080516001808252818301909252606091600091906020808301908036833701905050905082816000815181106121bb576121bb612b92565b602090810291909101015292915050565b6001600160a01b0384163b15610d2d5760405163f23a6e6160e01b81526001600160a01b0385169063f23a6e619061221090899089908890889088906004016132b3565b6020604051808303816000875af192505050801561224b575060408051601f3d908101601f1916820190925261224891810190612f26565b60015b612257576114af612f43565b6001600160e01b0319811663f23a6e6160e01b1461141b5760405162461bcd60e51b81526004016103db90612fe8565b6004805460405163c9187fe760e01b815291820183905260009182916001600160a01b03169063c9187fe790602401600060405180830381865afa1580156122d3573d6000803e3d6000fd5b505050506040513d6000823e601f3d908101601f191682016040526122fb9190810190613159565b90506000805b82518110156107075760045483516000916001600160a01b031690630e47cefa9086908590811061233457612334612b92565b6020026020010151886040518363ffffffff1660e01b815260040161235a929190613291565b602060405180830381865afa158015612377573d6000803e3d6000fd5b505050506040513d601f19601f8201168201806040525081019061239b919061325b565b90506123a78184612c60565b92505080806123b590612bbe565b915050612301565b6000806123cc8686868661161e565b905060006123d9826112b7565b905060005b815181101561241f5760008a8152600a60205260409020805461240d918b9184908110610aec57610aec612b92565b8061241781612bbe565b9150506123de565b509098975050505050505050565b6001600160a01b03811681146108f157600080fd5b6000806040838503121561245557600080fd5b82356124608161242d565b946020939093013593505050565b6001600160e01b0319811681146108f157600080fd5b60006020828403121561249657600080fd5b81356124a18161246e565b9392505050565b6000602082840312156124ba57600080fd5b5035919050565b60005b838110156124dc5781810151838201526020016124c4565b50506000910152565b600081518084526124fd8160208601602086016124c1565b601f01601f19169290920160200192915050565b6020815260006124a160208301846124e5565b6000806040838503121561253757600080fd5b8235915060208301356125498161242d565b809150509250929050565b634e487b7160e01b600052604160045260246000fd5b601f8201601f191681016001600160401b038111828210171561258f5761258f612554565b6040525050565b60006001600160401b038211156125af576125af612554565b5060051b60200190565b600082601f8301126125ca57600080fd5b813560206125d782612596565b6040516125e4828261256a565b83815260059390931b850182019282810191508684111561260457600080fd5b8286015b8481101561261f5780358352918301918301612608565b509695505050505050565b60006001600160401b0382111561264357612643612554565b50601f01601f191660200190565b600061265c8361262a565b604051612669828261256a565b80925084815285858501111561267e57600080fd5b8484602083013760006020868301015250509392505050565b600082601f8301126126a857600080fd5b6124a183833560208501612651565b600080600080600060a086880312156126cf57600080fd5b85356126da8161242d565b945060208601356126ea8161242d565b935060408601356001600160401b038082111561270657600080fd5b61271289838a016125b9565b9450606088013591508082111561272857600080fd5b61273489838a016125b9565b9350608088013591508082111561274a57600080fd5b5061275788828901612697565b9150509295509295909350565b803560ff8116811461277557600080fd5b919050565b600082601f83011261278b57600080fd5b8135602061279882612596565b6040516127a5828261256a565b83815260059390931b85018201928281019150868411156127c557600080fd5b8286015b8481101561261f5780356127dc8161242d565b83529183019183016127c9565b600080600080608085870312156127ff57600080fd5b8435935061280f60208601612764565b925060408501356001600160401b038082111561282b57600080fd5b612837888389016125b9565b9350606087013591508082111561284d57600080fd5b5061285a8782880161277a565b91505092959194509250565b6000806040838503121561287957600080fd5b82356001600160401b038082111561289057600080fd5b61289c8683870161277a565b935060208501359150808211156128b257600080fd5b506128bf858286016125b9565b9150509250929050565b600081518084526020808501945080840160005b838110156128f9578151875295820195908201906001016128dd565b509495945050505050565b6020815260006124a160208301846128c9565b6000806040838503121561292a57600080fd5b82356129358161242d565b91506020830135801515811461254957600080fd5b60008060008060008060008060006101208a8c03121561296957600080fd5b8935985060208a0135975060408a0135965060608a0135955061298e60808b01612764565b945061299c60a08b01612764565b93506129ab60c08b013561242d565b60c08a013592506129bf60e08b013561242d565b60e08a013591506001600160401b036101008b013511156129df57600080fd5b6101008a01358a018b601f8201126129f657600080fd5b612a008135612596565b604051612a0d828261256a565b809150823581526020810191508d6020843560051b8501011115612a3057600080fd5b602083015b6020843560051b850101811015612a91576001600160401b0381351115612a5b57600080fd5b8e603f823586010112612a6d57600080fd5b612a838f82358601602081013590604001612651565b835260209283019201612a35565b508093505050509295985092959850929598565b60008060408385031215612ab857600080fd5b8235612ac38161242d565b915060208301356125498161242d565b600080600080600060a08688031215612aeb57600080fd5b8535612af68161242d565b94506020860135612b068161242d565b9350604086013592506060860135915060808601356001600160401b03811115612b2f57600080fd5b61275788828901612697565b600060208284031215612b4d57600080fd5b81356124a18161242d565b600181811c90821680612b6c57607f821691505b602082108103612b8c57634e487b7160e01b600052602260045260246000fd5b50919050565b634e487b7160e01b600052603260045260246000fd5b634e487b7160e01b600052601160045260246000fd5b600060018201612bd057612bd0612ba8565b5060010190565b6000808354612be581612b58565b60018281168015612bfd5760018114612c1257612c41565b60ff1984168752821515830287019450612c41565b8760005260208060002060005b85811015612c385781548a820152908401908201612c1f565b50505082870194505b50929695505050505050565b8181038181111561040957610409612ba8565b8082018082111561040957610409612ba8565b60208082526028908201527f455243313135353a2069647320616e6420616d6f756e7473206c656e677468206040820152670dad2e6dac2e8c6d60c31b606082015260800190565b60208082526025908201527f455243313135353a207472616e7366657220746f20746865207a65726f206164604082015264647265737360d81b606082015260800190565b6020808252602a908201527f455243313135353a20696e73756666696369656e742062616c616e636520666f60408201526939103a3930b739b332b960b11b606082015260800190565b604081526000612d5d60408301856128c9565b8281036020840152612d6f81856128c9565b95945050505050565b6000815480845260208085019450836000528060002060005b838110156128f957815487529582019560019182019101612d91565b6000606082018583526020606081850152818651808452608086019150828801935060005b81811015612df75784516001600160a01b031683529383019391830191600101612dd2565b5050848103604086015261166b8187612d78565b60006060820185835260206060818501528186548084526080860191508760005282600020935060005b81811015612df75784546001600160a01b031683526001948501949284019201612e35565b808202811582820484141761040957610409612ba8565b600082612e8e57634e487b7160e01b600052601260045260246000fd5b500490565b60208082526021908201527f455243313135353a206d696e7420746f20746865207a65726f206164647265736040820152607360f81b606082015260800190565b6001600160a01b0386811682528516602082015260a060408201819052600090612f00908301866128c9565b8281036060840152612f1281866128c9565b9050828103608084015261166b81856124e5565b600060208284031215612f3857600080fd5b81516124a18161246e565b600060033d1115612f5c5760046000803e5060005160e01c5b90565b600060443d1015612f6d5790565b6040516003193d81016004833e81513d6001600160401b038160248401118184111715612f9c57505050505090565b8285019150815181811115612fb45750505050505090565b843d8701016020828501011115612fce5750505050505090565b612fdd6020828601018761256a565b509095945050505050565b60208082526028908201527f455243313135353a204552433131353552656365697665722072656a656374656040820152676420746f6b656e7360c01b606082015260800190565b601f82111561307657600081815260208120601f850160051c810160208610156130575750805b601f850160051c820191505b81811015610d2d57828155600101613063565b505050565b81516001600160401b0381111561309457613094612554565b6130a8816130a28454612b58565b84613030565b602080601f8311600181146130dd57600084156130c55750858301515b600019600386901b1c1916600185901b178555610d2d565b600085815260208120601f198616915b8281101561310c578886015182559484019460019091019084016130ed565b508582101561312a5787850151600019600388901b60f8161c191681555b5050505050600190811b01905550565b600060ff821660ff810361315057613150612ba8565b60010192915050565b6000602080838503121561316c57600080fd5b82516001600160401b038082111561318357600080fd5b818501915085601f83011261319757600080fd5b81516131a281612596565b604080516131b0838261256a565b83815260059390931b85018601928681019250898411156131d057600080fd5b8686015b8481101561324d578051868111156131ec5760008081fd5b8701603f81018c136131fe5760008081fd5b8881015161320b8161262a565b8551613217828261256a565b8281528e8784860101111561322e57600091508182fd5b61323d838d83018987016124c1565b87525050509287019287016131d4565b509998505050505050505050565b60006020828403121561326d57600080fd5b5051919050565b60006020828403121561328657600080fd5b81516124a18161242d565b6040815260006132a460408301856124e5565b90508260208301529392505050565b6001600160a01b03868116825285166020820152604081018490526060810183905260a0608082018190526000906132ed908301846124e5565b97965050505050505056fea2646970667358221220efc3f14e93f3d921a681f770c607ea6852d870ec5fe60e0955c9c817c9a68f9564736f6c63430008110033",
  "linkReferences": {},
  "deployedLinkReferences": {}
}