{
  "_format": "hh-sol-artifact-1",
  "contractName": "RejuveTokenTest",
  "sourceName": "contracts/RejuveTokenTest.sol",
  "abi": [
    {
      "inputs": [
        {
          "internalType": "string",
          "name": "name_",
          "type": "string"
        },
        {
          "internalType": "string",
          "name": "symbol_",
          "type": "string"
        }
      ],
      "stateMutability": "nonpayable",
      "type": "constructor"
    },
    {
      "anonymous": false,
      "inputs": [
        {
          "indexed": true,
          "internalType": "address",
          "name": "owner",
          "type": "address"
        },
        {
          "indexed": true,
          "internalType": "address",
          "name": "spender",
          "type": "address"
        },
        {
          "indexed": false,
          "internalType": "uint256",
          "name": "value",
          "type": "uint256"
        }
      ],
      "name": "Approval",
      "type": "event"
    },
    {
      "anonymous": false,
      "inputs": [
        {
          "indexed": true,
          "internalType": "address",
          "name": "previousOwner",
          "type": "address"
        },
        {
          "indexed": true,
          "internalType": "address",
          "name": "newOwner",
          "type": "address"
        }
      ],
      "name": "OwnershipTransferred",
      "type": "event"
    },
    {
      "anonymous": false,
      "inputs": [
        {
          "indexed": true,
          "internalType": "address",
          "name": "from",
          "type": "address"
        },
        {
          "indexed": true,
          "internalType": "address",
          "name": "to",
          "type": "address"
        },
        {
          "indexed": false,
          "internalType": "uint256",
          "name": "value",
          "type": "uint256"
        }
      ],
      "name": "Transfer",
      "type": "event"
    },
    {
      "inputs": [
        {
          "internalType": "address",
          "name": "owner",
          "type": "address"
        },
        {
          "internalType": "address",
          "name": "spender",
          "type": "address"
        }
      ],
      "name": "allowance",
      "outputs": [
        {
          "internalType": "uint256",
          "name": "",
          "type": "uint256"
        }
      ],
      "stateMutability": "view",
      "type": "function"
    },
    {
      "inputs": [
        {
          "internalType": "address",
          "name": "spender",
          "type": "address"
        },
        {
          "internalType": "uint256",
          "name": "amount",
          "type": "uint256"
        }
      ],
      "name": "approve",
      "outputs": [
        {
          "internalType": "bool",
          "name": "",
          "type": "bool"
        }
      ],
      "stateMutability": "nonpayable",
      "type": "function"
    },
    {
      "inputs": [
        {
          "internalType": "address",
          "name": "account",
          "type": "address"
        }
      ],
      "name": "balanceOf",
      "outputs": [
        {
          "internalType": "uint256",
          "name": "",
          "type": "uint256"
        }
      ],
      "stateMutability": "view",
      "type": "function"
    },
    {
      "inputs": [],
      "name": "decimals",
      "outputs": [
        {
          "internalType": "uint8",
          "name": "",
          "type": "uint8"
        }
      ],
      "stateMutability": "view",
      "type": "function"
    },
    {
      "inputs": [
        {
          "internalType": "address",
          "name": "spender",
          "type": "address"
        },
        {
          "internalType": "uint256",
          "name": "subtractedValue",
          "type": "uint256"
        }
      ],
      "name": "decreaseAllowance",
      "outputs": [
        {
          "internalType": "bool",
          "name": "",
          "type": "bool"
        }
      ],
      "stateMutability": "nonpayable",
      "type": "function"
    },
    {
      "inputs": [
        {
          "internalType": "address",
          "name": "spender",
          "type": "address"
        },
        {
          "internalType": "uint256",
          "name": "addedValue",
          "type": "uint256"
        }
      ],
      "name": "increaseAllowance",
      "outputs": [
        {
          "internalType": "bool",
          "name": "",
          "type": "bool"
        }
      ],
      "stateMutability": "nonpayable",
      "type": "function"
    },
    {
      "inputs": [
        {
          "internalType": "uint256",
          "name": "_amountToBeMinted",
          "type": "uint256"
        }
      ],
      "name": "mint",
      "outputs": [],
      "stateMutability": "nonpayable",
      "type": "function"
    },
    {
      "inputs": [],
      "name": "name",
      "outputs": [
        {
          "internalType": "string",
          "name": "",
          "type": "string"
        }
      ],
      "stateMutability": "view",
      "type": "function"
    },
    {
      "inputs": [],
      "name": "owner",
      "outputs": [
        {
          "internalType": "address",
          "name": "",
          "type": "address"
        }
      ],
      "stateMutability": "view",
      "type": "function"
    },
    {
      "inputs": [],
      "name": "renounceOwnership",
      "outputs": [],
      "stateMutability": "nonpayable",
      "type": "function"
    },
    {
      "inputs": [],
      "name": "symbol",
      "outputs": [
        {
          "internalType": "string",
          "name": "",
          "type": "string"
        }
      ],
      "stateMutability": "view",
      "type": "function"
    },
    {
      "inputs": [],
      "name": "totalSupply",
      "outputs": [
        {
          "internalType": "uint256",
          "name": "",
          "type": "uint256"
        }
      ],
      "stateMutability": "view",
      "type": "function"
    },
    {
      "inputs": [
        {
          "internalType": "address",
          "name": "to",
          "type": "address"
        },
        {
          "internalType": "uint256",
          "name": "amount",
          "type": "uint256"
        }
      ],
      "name": "transfer",
      "outputs": [
        {
          "internalType": "bool",
          "name": "",
          "type": "bool"
        }
      ],
      "stateMutability": "nonpayable",
      "type": "function"
    },
    {
      "inputs": [
        {
          "internalType": "address",
          "name": "from",
          "type": "address"
        },
        {
          "internalType": "address",
          "name": "to",
          "type": "address"
        },
        {
          "internalType": "uint256",
          "name": "amount",
          "type": "uint256"
        }
      ],
      "name": "transferFrom",
      "outputs": [
        {
          "internalType": "bool",
          "name": "",
          "type": "bool"
        }
      ],
      "stateMutability": "nonpayable",
      "type": "function"
    },
    {
      "inputs": [
        {
          "internalType": "address",
          "name": "newOwner",
          "type": "address"
        }
      ],
      "name": "transferOwnership",
      "outputs": [],
      "stateMutability": "nonpayable",
      "type": "function"
    }
  ],
  "bytecode": "0x608060405234801562000010575f80fd5b506040516200229b3803806200229b833981810160405281019062000036919062000473565b818181600390816200004991906200072d565b5080600490816200005b91906200072d565b5050506200007e62000072620000b560201b60201c565b620000bc60201b60201c565b620000ad336002600a6200009391906200098e565b6064620000a19190620009de565b6200017f60201b60201c565b505062000b0c565b5f33905090565b5f60055f9054906101000a900473ffffffffffffffffffffffffffffffffffffffff1690508160055f6101000a81548173ffffffffffffffffffffffffffffffffffffffff021916908373ffffffffffffffffffffffffffffffffffffffff1602179055508173ffffffffffffffffffffffffffffffffffffffff168173ffffffffffffffffffffffffffffffffffffffff167f8be0079c531659141344cd1fd0a4f28419497f9722a3daafe3b4186f6b6457e060405160405180910390a35050565b5f73ffffffffffffffffffffffffffffffffffffffff168273ffffffffffffffffffffffffffffffffffffffff1603620001f0576040517f08c379a0000000000000000000000000000000000000000000000000000000008152600401620001e79062000a86565b60405180910390fd5b620002035f8383620002e460201b60201c565b8060025f82825462000216919062000aa6565b92505081905550805f808473ffffffffffffffffffffffffffffffffffffffff1673ffffffffffffffffffffffffffffffffffffffff1681526020019081526020015f205f82825401925050819055508173ffffffffffffffffffffffffffffffffffffffff165f73ffffffffffffffffffffffffffffffffffffffff167fddf252ad1be2c89b69c2b068fc378daa952ba7f163c4a11628f55a4df523b3ef83604051620002c5919062000af1565b60405180910390a3620002e05f8383620002e960201b60201c565b5050565b505050565b505050565b5f604051905090565b5f80fd5b5f80fd5b5f80fd5b5f80fd5b5f601f19601f8301169050919050565b7f4e487b71000000000000000000000000000000000000000000000000000000005f52604160045260245ffd5b6200034f8262000307565b810181811067ffffffffffffffff8211171562000371576200037062000317565b5b80604052505050565b5f62000385620002ee565b905062000393828262000344565b919050565b5f67ffffffffffffffff821115620003b557620003b462000317565b5b620003c08262000307565b9050602081019050919050565b5f5b83811015620003ec578082015181840152602081019050620003cf565b5f8484015250505050565b5f6200040d620004078462000398565b6200037a565b9050828152602081018484840111156200042c576200042b62000303565b5b62000439848285620003cd565b509392505050565b5f82601f830112620004585762000457620002ff565b5b81516200046a848260208601620003f7565b91505092915050565b5f80604083850312156200048c576200048b620002f7565b5b5f83015167ffffffffffffffff811115620004ac57620004ab620002fb565b5b620004ba8582860162000441565b925050602083015167ffffffffffffffff811115620004de57620004dd620002fb565b5b620004ec8582860162000441565b9150509250929050565b5f81519050919050565b7f4e487b71000000000000000000000000000000000000000000000000000000005f52602260045260245ffd5b5f60028204905060018216806200054557607f821691505b6020821081036200055b576200055a62000500565b5b50919050565b5f819050815f5260205f209050919050565b5f6020601f8301049050919050565b5f82821b905092915050565b5f60088302620005bf7fffffffffffffffffffffffffffffffffffffffffffffffffffffffffffffffff8262000582565b620005cb868362000582565b95508019841693508086168417925050509392505050565b5f819050919050565b5f819050919050565b5f620006156200060f6200060984620005e3565b620005ec565b620005e3565b9050919050565b5f819050919050565b6200063083620005f5565b620006486200063f826200061c565b8484546200058e565b825550505050565b5f90565b6200065e62000650565b6200066b81848462000625565b505050565b5b818110156200069257620006865f8262000654565b60018101905062000671565b5050565b601f821115620006e157620006ab8162000561565b620006b68462000573565b81016020851015620006c6578190505b620006de620006d58562000573565b83018262000670565b50505b505050565b5f82821c905092915050565b5f620007035f1984600802620006e6565b1980831691505092915050565b5f6200071d8383620006f2565b9150826002028217905092915050565b6200073882620004f6565b67ffffffffffffffff81111562000754576200075362000317565b5b6200076082546200052d565b6200076d82828562000696565b5f60209050601f831160018114620007a3575f84156200078e578287015190505b6200079a858262000710565b86555062000809565b601f198416620007b38662000561565b5f5b82811015620007dc57848901518255600182019150602085019450602081019050620007b5565b86831015620007fc5784890151620007f8601f891682620006f2565b8355505b6001600288020188555050505b505050505050565b7f4e487b71000000000000000000000000000000000000000000000000000000005f52601160045260245ffd5b5f8160011c9050919050565b5f808291508390505b60018511156200089b5780860481111562000873576200087262000811565b5b6001851615620008835780820291505b808102905062000893856200083e565b945062000853565b94509492505050565b5f82620008b5576001905062000987565b81620008c4575f905062000987565b8160018114620008dd5760028114620008e8576200091e565b600191505062000987565b60ff841115620008fd57620008fc62000811565b5b8360020a91508482111562000917576200091662000811565b5b5062000987565b5060208310610133831016604e8410600b8410161715620009585782820a90508381111562000952576200095162000811565b5b62000987565b6200096784848460016200084a565b9250905081840481111562000981576200098062000811565b5b81810290505b9392505050565b5f6200099a82620005e3565b9150620009a783620005e3565b9250620009d67fffffffffffffffffffffffffffffffffffffffffffffffffffffffffffffffff8484620008a4565b905092915050565b5f620009ea82620005e3565b9150620009f783620005e3565b925082820262000a0781620005e3565b9150828204841483151762000a215762000a2062000811565b5b5092915050565b5f82825260208201905092915050565b7f45524332303a206d696e7420746f20746865207a65726f2061646472657373005f82015250565b5f62000a6e601f8362000a28565b915062000a7b8262000a38565b602082019050919050565b5f6020820190508181035f83015262000a9f8162000a60565b9050919050565b5f62000ab282620005e3565b915062000abf83620005e3565b925082820190508082111562000ada5762000ad962000811565b5b92915050565b62000aeb81620005e3565b82525050565b5f60208201905062000b065f83018462000ae0565b92915050565b6117818062000b1a5f395ff3fe608060405234801561000f575f80fd5b50600436106100f3575f3560e01c8063715018a611610095578063a457c2d711610064578063a457c2d714610273578063a9059cbb146102a3578063dd62ed3e146102d3578063f2fde38b14610303576100f3565b8063715018a6146102115780638da5cb5b1461021b57806395d89b4114610239578063a0712d6814610257576100f3565b806323b872dd116100d157806323b872dd14610163578063313ce5671461019357806339509351146101b157806370a08231146101e1576100f3565b806306fdde03146100f7578063095ea7b31461011557806318160ddd14610145575b5f80fd5b6100ff61031f565b60405161010c9190610eea565b60405180910390f35b61012f600480360381019061012a9190610f9b565b6103af565b60405161013c9190610ff3565b60405180910390f35b61014d6103d1565b60405161015a919061101b565b60405180910390f35b61017d60048036038101906101789190611034565b6103da565b60405161018a9190610ff3565b60405180910390f35b61019b610408565b6040516101a8919061109f565b60405180910390f35b6101cb60048036038101906101c69190610f9b565b610410565b6040516101d89190610ff3565b60405180910390f35b6101fb60048036038101906101f691906110b8565b610446565b604051610208919061101b565b60405180910390f35b61021961048b565b005b61022361049e565b60405161023091906110f2565b60405180910390f35b6102416104c6565b60405161024e9190610eea565b60405180910390f35b610271600480360381019061026c919061110b565b610556565b005b61028d60048036038101906102889190610f9b565b61056b565b60405161029a9190610ff3565b60405180910390f35b6102bd60048036038101906102b89190610f9b565b6105e0565b6040516102ca9190610ff3565b60405180910390f35b6102ed60048036038101906102e89190611136565b610602565b6040516102fa919061101b565b60405180910390f35b61031d600480360381019061031891906110b8565b610684565b005b60606003805461032e906111a1565b80601f016020809104026020016040519081016040528092919081815260200182805461035a906111a1565b80156103a55780601f1061037c576101008083540402835291602001916103a5565b820191905f5260205f20905b81548152906001019060200180831161038857829003601f168201915b5050505050905090565b5f806103b9610706565b90506103c681858561070d565b600191505092915050565b5f600254905090565b5f806103e4610706565b90506103f18582856108d0565b6103fc85858561095b565b60019150509392505050565b5f6012905090565b5f8061041a610706565b905061043b81858561042c8589610602565b61043691906111fe565b61070d565b600191505092915050565b5f805f8373ffffffffffffffffffffffffffffffffffffffff1673ffffffffffffffffffffffffffffffffffffffff1681526020019081526020015f20549050919050565b610493610bc7565b61049c5f610c45565b565b5f60055f9054906101000a900473ffffffffffffffffffffffffffffffffffffffff16905090565b6060600480546104d5906111a1565b80601f0160208091040260200160405190810160405280929190818152602001828054610501906111a1565b801561054c5780601f106105235761010080835404028352916020019161054c565b820191905f5260205f20905b81548152906001019060200180831161052f57829003601f168201915b5050505050905090565b61055e610bc7565b6105683382610d08565b50565b5f80610575610706565b90505f6105828286610602565b9050838110156105c7576040517f08c379a00000000000000000000000000000000000000000000000000000000081526004016105be906112a1565b60405180910390fd5b6105d4828686840361070d565b60019250505092915050565b5f806105ea610706565b90506105f781858561095b565b600191505092915050565b5f60015f8473ffffffffffffffffffffffffffffffffffffffff1673ffffffffffffffffffffffffffffffffffffffff1681526020019081526020015f205f8373ffffffffffffffffffffffffffffffffffffffff1673ffffffffffffffffffffffffffffffffffffffff1681526020019081526020015f2054905092915050565b61068c610bc7565b5f73ffffffffffffffffffffffffffffffffffffffff168173ffffffffffffffffffffffffffffffffffffffff16036106fa576040517f08c379a00000000000000000000000000000000000000000000000000000000081526004016106f19061132f565b60405180910390fd5b61070381610c45565b50565b5f33905090565b5f73ffffffffffffffffffffffffffffffffffffffff168373ffffffffffffffffffffffffffffffffffffffff160361077b576040517f08c379a0000000000000000000000000000000000000000000000000000000008152600401610772906113bd565b60405180910390fd5b5f73ffffffffffffffffffffffffffffffffffffffff168273ffffffffffffffffffffffffffffffffffffffff16036107e9576040517f08c379a00000000000000000000000000000000000000000000000000000000081526004016107e09061144b565b60405180910390fd5b8060015f8573ffffffffffffffffffffffffffffffffffffffff1673ffffffffffffffffffffffffffffffffffffffff1681526020019081526020015f205f8473ffffffffffffffffffffffffffffffffffffffff1673ffffffffffffffffffffffffffffffffffffffff1681526020019081526020015f20819055508173ffffffffffffffffffffffffffffffffffffffff168373ffffffffffffffffffffffffffffffffffffffff167f8c5be1e5ebec7d5bd14f71427d1e84f3dd0314c0f7b2291e5b200ac8c7c3b925836040516108c3919061101b565b60405180910390a3505050565b5f6108db8484610602565b90507fffffffffffffffffffffffffffffffffffffffffffffffffffffffffffffffff81146109555781811015610947576040517f08c379a000000000000000000000000000000000000000000000000000000000815260040161093e906114b3565b60405180910390fd5b610954848484840361070d565b5b50505050565b5f73ffffffffffffffffffffffffffffffffffffffff168373ffffffffffffffffffffffffffffffffffffffff16036109c9576040517f08c379a00000000000000000000000000000000000000000000000000000000081526004016109c090611541565b60405180910390fd5b5f73ffffffffffffffffffffffffffffffffffffffff168273ffffffffffffffffffffffffffffffffffffffff1603610a37576040517f08c379a0000000000000000000000000000000000000000000000000000000008152600401610a2e906115cf565b60405180910390fd5b610a42838383610e56565b5f805f8573ffffffffffffffffffffffffffffffffffffffff1673ffffffffffffffffffffffffffffffffffffffff1681526020019081526020015f2054905081811015610ac5576040517f08c379a0000000000000000000000000000000000000000000000000000000008152600401610abc9061165d565b60405180910390fd5b8181035f808673ffffffffffffffffffffffffffffffffffffffff1673ffffffffffffffffffffffffffffffffffffffff1681526020019081526020015f2081905550815f808573ffffffffffffffffffffffffffffffffffffffff1673ffffffffffffffffffffffffffffffffffffffff1681526020019081526020015f205f82825401925050819055508273ffffffffffffffffffffffffffffffffffffffff168473ffffffffffffffffffffffffffffffffffffffff167fddf252ad1be2c89b69c2b068fc378daa952ba7f163c4a11628f55a4df523b3ef84604051610bae919061101b565b60405180910390a3610bc1848484610e5b565b50505050565b610bcf610706565b73ffffffffffffffffffffffffffffffffffffffff16610bed61049e565b73ffffffffffffffffffffffffffffffffffffffff1614610c43576040517f08c379a0000000000000000000000000000000000000000000000000000000008152600401610c3a906116c5565b60405180910390fd5b565b5f60055f9054906101000a900473ffffffffffffffffffffffffffffffffffffffff1690508160055f6101000a81548173ffffffffffffffffffffffffffffffffffffffff021916908373ffffffffffffffffffffffffffffffffffffffff1602179055508173ffffffffffffffffffffffffffffffffffffffff168173ffffffffffffffffffffffffffffffffffffffff167f8be0079c531659141344cd1fd0a4f28419497f9722a3daafe3b4186f6b6457e060405160405180910390a35050565b5f73ffffffffffffffffffffffffffffffffffffffff168273ffffffffffffffffffffffffffffffffffffffff1603610d76576040517f08c379a0000000000000000000000000000000000000000000000000000000008152600401610d6d9061172d565b60405180910390fd5b610d815f8383610e56565b8060025f828254610d9291906111fe565b92505081905550805f808473ffffffffffffffffffffffffffffffffffffffff1673ffffffffffffffffffffffffffffffffffffffff1681526020019081526020015f205f82825401925050819055508173ffffffffffffffffffffffffffffffffffffffff165f73ffffffffffffffffffffffffffffffffffffffff167fddf252ad1be2c89b69c2b068fc378daa952ba7f163c4a11628f55a4df523b3ef83604051610e3f919061101b565b60405180910390a3610e525f8383610e5b565b5050565b505050565b505050565b5f81519050919050565b5f82825260208201905092915050565b5f5b83811015610e97578082015181840152602081019050610e7c565b5f8484015250505050565b5f601f19601f8301169050919050565b5f610ebc82610e60565b610ec68185610e6a565b9350610ed6818560208601610e7a565b610edf81610ea2565b840191505092915050565b5f6020820190508181035f830152610f028184610eb2565b905092915050565b5f80fd5b5f73ffffffffffffffffffffffffffffffffffffffff82169050919050565b5f610f3782610f0e565b9050919050565b610f4781610f2d565b8114610f51575f80fd5b50565b5f81359050610f6281610f3e565b92915050565b5f819050919050565b610f7a81610f68565b8114610f84575f80fd5b50565b5f81359050610f9581610f71565b92915050565b5f8060408385031215610fb157610fb0610f0a565b5b5f610fbe85828601610f54565b9250506020610fcf85828601610f87565b9150509250929050565b5f8115159050919050565b610fed81610fd9565b82525050565b5f6020820190506110065f830184610fe4565b92915050565b61101581610f68565b82525050565b5f60208201905061102e5f83018461100c565b92915050565b5f805f6060848603121561104b5761104a610f0a565b5b5f61105886828701610f54565b935050602061106986828701610f54565b925050604061107a86828701610f87565b9150509250925092565b5f60ff82169050919050565b61109981611084565b82525050565b5f6020820190506110b25f830184611090565b92915050565b5f602082840312156110cd576110cc610f0a565b5b5f6110da84828501610f54565b91505092915050565b6110ec81610f2d565b82525050565b5f6020820190506111055f8301846110e3565b92915050565b5f602082840312156111205761111f610f0a565b5b5f61112d84828501610f87565b91505092915050565b5f806040838503121561114c5761114b610f0a565b5b5f61115985828601610f54565b925050602061116a85828601610f54565b9150509250929050565b7f4e487b71000000000000000000000000000000000000000000000000000000005f52602260045260245ffd5b5f60028204905060018216806111b857607f821691505b6020821081036111cb576111ca611174565b5b50919050565b7f4e487b71000000000000000000000000000000000000000000000000000000005f52601160045260245ffd5b5f61120882610f68565b915061121383610f68565b925082820190508082111561122b5761122a6111d1565b5b92915050565b7f45524332303a2064656372656173656420616c6c6f77616e63652062656c6f775f8201527f207a65726f000000000000000000000000000000000000000000000000000000602082015250565b5f61128b602583610e6a565b915061129682611231565b604082019050919050565b5f6020820190508181035f8301526112b88161127f565b9050919050565b7f4f776e61626c653a206e6577206f776e657220697320746865207a65726f20615f8201527f6464726573730000000000000000000000000000000000000000000000000000602082015250565b5f611319602683610e6a565b9150611324826112bf565b604082019050919050565b5f6020820190508181035f8301526113468161130d565b9050919050565b7f45524332303a20617070726f76652066726f6d20746865207a65726f206164645f8201527f7265737300000000000000000000000000000000000000000000000000000000602082015250565b5f6113a7602483610e6a565b91506113b28261134d565b604082019050919050565b5f6020820190508181035f8301526113d48161139b565b9050919050565b7f45524332303a20617070726f766520746f20746865207a65726f2061646472655f8201527f7373000000000000000000000000000000000000000000000000000000000000602082015250565b5f611435602283610e6a565b9150611440826113db565b604082019050919050565b5f6020820190508181035f83015261146281611429565b9050919050565b7f45524332303a20696e73756666696369656e7420616c6c6f77616e63650000005f82015250565b5f61149d601d83610e6a565b91506114a882611469565b602082019050919050565b5f6020820190508181035f8301526114ca81611491565b9050919050565b7f45524332303a207472616e736665722066726f6d20746865207a65726f2061645f8201527f6472657373000000000000000000000000000000000000000000000000000000602082015250565b5f61152b602583610e6a565b9150611536826114d1565b604082019050919050565b5f6020820190508181035f8301526115588161151f565b9050919050565b7f45524332303a207472616e7366657220746f20746865207a65726f20616464725f8201527f6573730000000000000000000000000000000000000000000000000000000000602082015250565b5f6115b9602383610e6a565b91506115c48261155f565b604082019050919050565b5f6020820190508181035f8301526115e6816115ad565b9050919050565b7f45524332303a207472616e7366657220616d6f756e74206578636565647320625f8201527f616c616e63650000000000000000000000000000000000000000000000000000602082015250565b5f611647602683610e6a565b9150611652826115ed565b604082019050919050565b5f6020820190508181035f8301526116748161163b565b9050919050565b7f4f776e61626c653a2063616c6c6572206973206e6f7420746865206f776e65725f82015250565b5f6116af602083610e6a565b91506116ba8261167b565b602082019050919050565b5f6020820190508181035f8301526116dc816116a3565b9050919050565b7f45524332303a206d696e7420746f20746865207a65726f2061646472657373005f82015250565b5f611717601f83610e6a565b9150611722826116e3565b602082019050919050565b5f6020820190508181035f8301526117448161170b565b905091905056fea2646970667358221220a2c0e95d3ca80c911d23a8a066f3c0e56e8805fe079ed20354c7ae8319a9d45864736f6c63430008140033",
  "linkReferences": {},
  "deployedLinkReferences": {}
}