{
  "_format": "hh-sol-artifact-1",
  "contractName": "Voting",
  "sourceName": "contracts/Voting.sol",
  "abi": [
    {
      "inputs": [],
      "stateMutability": "nonpayable",
      "type": "constructor"
    },
    {
      "anonymous": false,
      "inputs": [
        {
          "indexed": true,
          "internalType": "address",
          "name": "previousOwner",
          "type": "address"
        },
        {
          "indexed": true,
          "internalType": "address",
          "name": "newOwner",
          "type": "address"
        }
      ],
      "name": "OwnershipTransferred",
      "type": "event"
    },
    {
      "anonymous": false,
      "inputs": [
        {
          "indexed": false,
          "internalType": "address",
          "name": "account",
          "type": "address"
        }
      ],
      "name": "Paused",
      "type": "event"
    },
    {
      "anonymous": false,
      "inputs": [
        {
          "indexed": false,
          "internalType": "uint256",
          "name": "proposalId",
          "type": "uint256"
        },
        {
          "indexed": false,
          "internalType": "uint256",
          "name": "timestamp",
          "type": "uint256"
        },
        {
          "indexed": false,
          "internalType": "uint256",
          "name": "totalParticipants",
          "type": "uint256"
        },
        {
          "indexed": false,
          "internalType": "string",
          "name": "proposalInfo",
          "type": "string"
        },
        {
          "indexed": false,
          "internalType": "string",
          "name": "votingResult",
          "type": "string"
        }
      ],
      "name": "ProposalAdded",
      "type": "event"
    },
    {
      "anonymous": false,
      "inputs": [
        {
          "indexed": false,
          "internalType": "address",
          "name": "account",
          "type": "address"
        }
      ],
      "name": "Unpaused",
      "type": "event"
    },
    {
      "inputs": [
        {
          "internalType": "uint256",
          "name": "totalParticipants",
          "type": "uint256"
        },
        {
          "internalType": "string",
          "name": "proposalInfo",
          "type": "string"
        },
        {
          "internalType": "string",
          "name": "votingResult",
          "type": "string"
        }
      ],
      "name": "addProposal",
      "outputs": [],
      "stateMutability": "nonpayable",
      "type": "function"
    },
    {
      "inputs": [
        {
          "internalType": "uint256",
          "name": "proposalId",
          "type": "uint256"
        }
      ],
      "name": "getProposal",
      "outputs": [
        {
          "components": [
            {
              "internalType": "uint256",
              "name": "timestamp",
              "type": "uint256"
            },
            {
              "internalType": "uint256",
              "name": "totalParticipants",
              "type": "uint256"
            },
            {
              "internalType": "string",
              "name": "proposalInfo",
              "type": "string"
            },
            {
              "internalType": "string",
              "name": "votingResult",
              "type": "string"
            }
          ],
          "internalType": "struct Voting.Proposal",
          "name": "",
          "type": "tuple"
        }
      ],
      "stateMutability": "view",
      "type": "function"
    },
    {
      "inputs": [],
      "name": "owner",
      "outputs": [
        {
          "internalType": "address",
          "name": "",
          "type": "address"
        }
      ],
      "stateMutability": "view",
      "type": "function"
    },
    {
      "inputs": [],
      "name": "pause",
      "outputs": [],
      "stateMutability": "nonpayable",
      "type": "function"
    },
    {
      "inputs": [],
      "name": "paused",
      "outputs": [
        {
          "internalType": "bool",
          "name": "",
          "type": "bool"
        }
      ],
      "stateMutability": "view",
      "type": "function"
    },
    {
      "inputs": [],
      "name": "renounceOwnership",
      "outputs": [],
      "stateMutability": "nonpayable",
      "type": "function"
    },
    {
      "inputs": [
        {
          "internalType": "address",
          "name": "newOwner",
          "type": "address"
        }
      ],
      "name": "transferOwnership",
      "outputs": [],
      "stateMutability": "nonpayable",
      "type": "function"
    },
    {
      "inputs": [],
      "name": "unpause",
      "outputs": [],
      "stateMutability": "nonpayable",
      "type": "function"
    }
  ],
  "bytecode": "0x608060405234801562000010575f80fd5b506200003162000025620000b660201b60201c565b620000bd60201b60201c565b5f8060146101000a81548160ff0219169083151502179055506200006667c037d38ab93d6dd260c01b6200017e60201b60201c565b62000082671c6ddace1601262d60c01b6200017e60201b60201c565b6200009e67d5426a39e70bb6e260c01b6200017e60201b60201c565b620000b060016200018160201b60201c565b62000195565b5f33905090565b5f805f9054906101000a900473ffffffffffffffffffffffffffffffffffffffff169050815f806101000a81548173ffffffffffffffffffffffffffffffffffffffff021916908373ffffffffffffffffffffffffffffffffffffffff1602179055508173ffffffffffffffffffffffffffffffffffffffff168173ffffffffffffffffffffffffffffffffffffffff167f8be0079c531659141344cd1fd0a4f28419497f9722a3daafe3b4186f6b6457e060405160405180910390a35050565b50565b6001815f015f828254019250508190555050565b61173880620001a35f395ff3fe608060405234801561000f575f80fd5b5060043610610086575f3560e01c80638456cb59116100595780638456cb59146100d85780638da5cb5b146100e2578063c7f758a814610100578063f2fde38b1461013057610086565b80633f4ba83a1461008a5780635c975abb14610094578063715018a6146100b257806376b32537146100bc575b5f80fd5b61009261014c565b005b61009c6101c2565b6040516100a99190610c0a565b60405180910390f35b6100ba6101d7565b005b6100d660048036038101906100d19190610da3565b6101ea565b005b6100e06104a8565b005b6100ea61051e565b6040516100f79190610e6a565b60405180910390f35b61011a60048036038101906101159190610e83565b610545565b6040516101279190610f9e565b60405180910390f35b61014a60048036038101906101459190610fe8565b6106df565b005b61016067307ba898c2a6253e60c01b610761565b610168610764565b61017c67d59f0407138d96da60c01b610761565b61019067ee6b294881be633160c01b610761565b6101a467a416b67501b15a0960c01b610761565b6101b8674f6d651b6acc490760c01b610761565b6101c06107e2565b565b5f8060149054906101000a900460ff16905090565b6101df610764565b6101e85f610843565b565b6101fe67c867519d1be9a69960c01b610761565b610206610764565b61021a6714137555e4a7634560c01b610761565b61022e6738352b78a68d51a560c01b610761565b610236610904565b61024a67366469ce33cb159760c01b610761565b61025e6733a5a2b64ad4ff2060c01b610761565b6102726711e5a3df13ceeef960c01b610761565b610286671584fe320fd2e47660c01b610761565b61029a67c41a5676f56fc7e060c01b610761565b5f83116102dc576040517f08c379a00000000000000000000000000000000000000000000000000000000081526004016102d390611093565b60405180910390fd5b6102f067a5e6dee153e5a69660c01b610761565b61030467227de35adb8ab4d060c01b610761565b61031867034b8b04c7b8fb3460c01b610761565b5f829050610330676b94ffe990b561df60c01b610761565b61034467503a021d539301f560c01b610761565b610358672b1aca5b27c6c8bf60c01b610761565b5f81510361039b576040517f08c379a000000000000000000000000000000000000000000000000000000000815260040161039290611121565b60405180910390fd5b6103af678d79bb795df85e1160c01b610761565b6103c3676d438ce849a7426660c01b610761565b6103d767b72bfaa8cbf9e84660c01b610761565b5f8290506103ef67640d4e7ca441fd3260c01b610761565b61040367a307df6f6d714c7360c01b610761565b610417678b8e8edfeb407a2760c01b610761565b5f81510361045a576040517f08c379a0000000000000000000000000000000000000000000000000000000008152600401610451906111af565b60405180910390fd5b61046e676c4269d66653eb8460c01b610761565b610482677a1d7071c6089c5260c01b610761565b61049667132d447f3038b1e560c01b610761565b6104a185858561094e565b5050505050565b6104bc67e58e8ddf6f41aa0860c01b610761565b6104c4610764565b6104d8674a68e6c0766cb30960c01b610761565b6104ec672c827e1107b2151060c01b610761565b6105006756ad9e9ce29f934860c01b610761565b610514677549a9354d0c6b3060c01b610761565b61051c610af8565b565b5f805f9054906101000a900473ffffffffffffffffffffffffffffffffffffffff16905090565b61054d610bca565b610561674bbab659a511077b60c01b610761565b61057567310ed8a0572ecb2860c01b610761565b61058967a2f8ab7a12fadf2560c01b610761565b60025f8381526020019081526020015f206040518060800160405290815f8201548152602001600182015481526020016002820180546105c8906111fa565b80601f01602080910402602001604051908101604052809291908181526020018280546105f4906111fa565b801561063f5780601f106106165761010080835404028352916020019161063f565b820191905f5260205f20905b81548152906001019060200180831161062257829003601f168201915b50505050508152602001600382018054610658906111fa565b80601f0160208091040260200160405190810160405280929190818152602001828054610684906111fa565b80156106cf5780601f106106a6576101008083540402835291602001916106cf565b820191905f5260205f20905b8154815290600101906020018083116106b257829003601f168201915b5050505050815250509050919050565b6106e7610764565b5f73ffffffffffffffffffffffffffffffffffffffff168173ffffffffffffffffffffffffffffffffffffffff1603610755576040517f08c379a000000000000000000000000000000000000000000000000000000000815260040161074c9061129a565b60405180910390fd5b61075e81610843565b50565b50565b61076c610b5a565b73ffffffffffffffffffffffffffffffffffffffff1661078a61051e565b73ffffffffffffffffffffffffffffffffffffffff16146107e0576040517f08c379a00000000000000000000000000000000000000000000000000000000081526004016107d790611302565b60405180910390fd5b565b6107ea610b61565b5f8060146101000a81548160ff0219169083151502179055507f5db9ee0a495bf2e6ff9c91a7834c1ba4fdd244a5e8aa4e537bd38aeae4b073aa61082c610b5a565b6040516108399190610e6a565b60405180910390a1565b5f805f9054906101000a900473ffffffffffffffffffffffffffffffffffffffff169050815f806101000a81548173ffffffffffffffffffffffffffffffffffffffff021916908373ffffffffffffffffffffffffffffffffffffffff1602179055508173ffffffffffffffffffffffffffffffffffffffff168173ffffffffffffffffffffffffffffffffffffffff167f8be0079c531659141344cd1fd0a4f28419497f9722a3daafe3b4186f6b6457e060405160405180910390a35050565b61090c6101c2565b1561094c576040517f08c379a00000000000000000000000000000000000000000000000000000000081526004016109439061136a565b60405180910390fd5b565b61096267c635dfbd8a0be08760c01b610761565b61097667bf8c0f85eafa8e9b60c01b610761565b61098a67f91ce5d6bacdb65660c01b610761565b5f6109956001610baa565b90506109ab67bfcffe5fa996ebf660c01b610761565b6109bf6794c9822b8fd0df5360c01b610761565b6109c96001610bb6565b6109dd6735acb05756b3fb5060c01b610761565b6109f167e819da59bd5cab0f60c01b610761565b5f60025f8381526020019081526020015f209050610a1967223065a8769e949060c01b610761565b42815f0181905550610a35674d240f2e4498b9f160c01b610761565b848160010181905550610a5267e09c118e360ac1b360c01b610761565b83816002019081610a639190611525565b50610a786760aa211bb314097f60c01b610761565b82816003019081610a899190611525565b50610a9e674e191db92d9be05260c01b610761565b610ab26721aec7e8fe3b825f60c01b610761565b7f56b84f6621b01e112e6d88d98127a537e12474327227b573ccf3104cc335b9d58242878787604051610ae995949392919061163b565b60405180910390a15050505050565b610b00610904565b60015f60146101000a81548160ff0219169083151502179055507f62e78cea01bee320cd4e420270b5ea74000d11b0c9f74754ebdbfc544b05a258610b43610b5a565b604051610b509190610e6a565b60405180910390a1565b5f33905090565b610b696101c2565b610ba8576040517f08c379a0000000000000000000000000000000000000000000000000000000008152600401610b9f906116e4565b60405180910390fd5b565b5f815f01549050919050565b6001815f015f828254019250508190555050565b60405180608001604052805f81526020015f815260200160608152602001606081525090565b5f8115159050919050565b610c0481610bf0565b82525050565b5f602082019050610c1d5f830184610bfb565b92915050565b5f604051905090565b5f80fd5b5f80fd5b5f819050919050565b610c4681610c34565b8114610c50575f80fd5b50565b5f81359050610c6181610c3d565b92915050565b5f80fd5b5f80fd5b5f601f19601f8301169050919050565b7f4e487b71000000000000000000000000000000000000000000000000000000005f52604160045260245ffd5b610cb582610c6f565b810181811067ffffffffffffffff82111715610cd457610cd3610c7f565b5b80604052505050565b5f610ce6610c23565b9050610cf28282610cac565b919050565b5f67ffffffffffffffff821115610d1157610d10610c7f565b5b610d1a82610c6f565b9050602081019050919050565b828183375f83830152505050565b5f610d47610d4284610cf7565b610cdd565b905082815260208101848484011115610d6357610d62610c6b565b5b610d6e848285610d27565b509392505050565b5f82601f830112610d8a57610d89610c67565b5b8135610d9a848260208601610d35565b91505092915050565b5f805f60608486031215610dba57610db9610c2c565b5b5f610dc786828701610c53565b935050602084013567ffffffffffffffff811115610de857610de7610c30565b5b610df486828701610d76565b925050604084013567ffffffffffffffff811115610e1557610e14610c30565b5b610e2186828701610d76565b9150509250925092565b5f73ffffffffffffffffffffffffffffffffffffffff82169050919050565b5f610e5482610e2b565b9050919050565b610e6481610e4a565b82525050565b5f602082019050610e7d5f830184610e5b565b92915050565b5f60208284031215610e9857610e97610c2c565b5b5f610ea584828501610c53565b91505092915050565b610eb781610c34565b82525050565b5f81519050919050565b5f82825260208201905092915050565b5f5b83811015610ef4578082015181840152602081019050610ed9565b5f8484015250505050565b5f610f0982610ebd565b610f138185610ec7565b9350610f23818560208601610ed7565b610f2c81610c6f565b840191505092915050565b5f608083015f830151610f4c5f860182610eae565b506020830151610f5f6020860182610eae565b5060408301518482036040860152610f778282610eff565b91505060608301518482036060860152610f918282610eff565b9150508091505092915050565b5f6020820190508181035f830152610fb68184610f37565b905092915050565b610fc781610e4a565b8114610fd1575f80fd5b50565b5f81359050610fe281610fbe565b92915050565b5f60208284031215610ffd57610ffc610c2c565b5b5f61100a84828501610fd4565b91505092915050565b5f82825260208201905092915050565b7f52454a5556453a20546f74616c207061727469636970616e74732063616e6e6f5f8201527f74206265207a65726f0000000000000000000000000000000000000000000000602082015250565b5f61107d602983611013565b915061108882611023565b604082019050919050565b5f6020820190508181035f8301526110aa81611071565b9050919050565b7f52454a5556453a2050726f706f73616c20696e666f2063616e6e6f74206265205f8201527f656d707479000000000000000000000000000000000000000000000000000000602082015250565b5f61110b602583611013565b9150611116826110b1565b604082019050919050565b5f6020820190508181035f830152611138816110ff565b9050919050565b7f52454a5556453a20566f74696e6720726573756c7420696e666f2063616e6e6f5f8201527f7420626520656d70747900000000000000000000000000000000000000000000602082015250565b5f611199602a83611013565b91506111a48261113f565b604082019050919050565b5f6020820190508181035f8301526111c68161118d565b9050919050565b7f4e487b71000000000000000000000000000000000000000000000000000000005f52602260045260245ffd5b5f600282049050600182168061121157607f821691505b602082108103611224576112236111cd565b5b50919050565b7f4f776e61626c653a206e6577206f776e657220697320746865207a65726f20615f8201527f6464726573730000000000000000000000000000000000000000000000000000602082015250565b5f611284602683611013565b915061128f8261122a565b604082019050919050565b5f6020820190508181035f8301526112b181611278565b9050919050565b7f4f776e61626c653a2063616c6c6572206973206e6f7420746865206f776e65725f82015250565b5f6112ec602083611013565b91506112f7826112b8565b602082019050919050565b5f6020820190508181035f830152611319816112e0565b9050919050565b7f5061757361626c653a20706175736564000000000000000000000000000000005f82015250565b5f611354601083611013565b915061135f82611320565b602082019050919050565b5f6020820190508181035f83015261138181611348565b9050919050565b5f819050815f5260205f209050919050565b5f6020601f8301049050919050565b5f82821b905092915050565b5f600883026113e47fffffffffffffffffffffffffffffffffffffffffffffffffffffffffffffffff826113a9565b6113ee86836113a9565b95508019841693508086168417925050509392505050565b5f819050919050565b5f61142961142461141f84610c34565b611406565b610c34565b9050919050565b5f819050919050565b6114428361140f565b61145661144e82611430565b8484546113b5565b825550505050565b5f90565b61146a61145e565b611475818484611439565b505050565b5b818110156114985761148d5f82611462565b60018101905061147b565b5050565b601f8211156114dd576114ae81611388565b6114b78461139a565b810160208510156114c6578190505b6114da6114d28561139a565b83018261147a565b50505b505050565b5f82821c905092915050565b5f6114fd5f19846008026114e2565b1980831691505092915050565b5f61151583836114ee565b9150826002028217905092915050565b61152e82610ebd565b67ffffffffffffffff81111561154757611546610c7f565b5b61155182546111fa565b61155c82828561149c565b5f60209050601f83116001811461158d575f841561157b578287015190505b611585858261150a565b8655506115ec565b601f19841661159b86611388565b5f5b828110156115c25784890151825560018201915060208501945060208101905061159d565b868310156115df57848901516115db601f8916826114ee565b8355505b6001600288020188555050505b505050505050565b6115fd81610c34565b82525050565b5f61160d82610ebd565b6116178185611013565b9350611627818560208601610ed7565b61163081610c6f565b840191505092915050565b5f60a08201905061164e5f8301886115f4565b61165b60208301876115f4565b61166860408301866115f4565b818103606083015261167a8185611603565b9050818103608083015261168e8184611603565b90509695505050505050565b7f5061757361626c653a206e6f74207061757365640000000000000000000000005f82015250565b5f6116ce601483611013565b91506116d98261169a565b602082019050919050565b5f6020820190508181035f8301526116fb816116c2565b905091905056fea264697066735822122000a6bc133c05642fc6c61e540c754c85109c9ba47715e315b26adc40c344526664736f6c63430008150033",
  "linkReferences": {},
  "deployedLinkReferences": {}
}