{
  "_format": "hh-sol-artifact-1",
  "contractName": "Voting",
  "sourceName": "contracts/Voting.sol",
  "abi": [
    {
      "inputs": [],
      "stateMutability": "nonpayable",
      "type": "constructor"
    },
    {
      "anonymous": false,
      "inputs": [
        {
          "indexed": true,
          "internalType": "address",
          "name": "previousOwner",
          "type": "address"
        },
        {
          "indexed": true,
          "internalType": "address",
          "name": "newOwner",
          "type": "address"
        }
      ],
      "name": "OwnershipTransferred",
      "type": "event"
    },
    {
      "anonymous": false,
      "inputs": [
        {
          "indexed": false,
          "internalType": "address",
          "name": "account",
          "type": "address"
        }
      ],
      "name": "Paused",
      "type": "event"
    },
    {
      "anonymous": false,
      "inputs": [
        {
          "indexed": false,
          "internalType": "uint256",
          "name": "proposalId",
          "type": "uint256"
        },
        {
          "indexed": false,
          "internalType": "uint256",
          "name": "timestamp",
          "type": "uint256"
        },
        {
          "indexed": false,
          "internalType": "uint256",
          "name": "totalParticipants",
          "type": "uint256"
        },
        {
          "indexed": false,
          "internalType": "string",
          "name": "proposalInfo",
          "type": "string"
        },
        {
          "indexed": false,
          "internalType": "string",
          "name": "votingResult",
          "type": "string"
        }
      ],
      "name": "ProposalAdded",
      "type": "event"
    },
    {
      "anonymous": false,
      "inputs": [
        {
          "indexed": false,
          "internalType": "address",
          "name": "account",
          "type": "address"
        }
      ],
      "name": "Unpaused",
      "type": "event"
    },
    {
      "inputs": [
        {
          "internalType": "uint256",
          "name": "totalParticipants",
          "type": "uint256"
        },
        {
          "internalType": "string",
          "name": "proposalInfo",
          "type": "string"
        },
        {
          "internalType": "string",
          "name": "votingResult",
          "type": "string"
        }
      ],
      "name": "addProposal",
      "outputs": [],
      "stateMutability": "nonpayable",
      "type": "function"
    },
    {
      "inputs": [
        {
          "internalType": "uint256",
          "name": "proposalId",
          "type": "uint256"
        }
      ],
      "name": "getProposal",
      "outputs": [
        {
          "components": [
            {
              "internalType": "uint256",
              "name": "timestamp",
              "type": "uint256"
            },
            {
              "internalType": "uint256",
              "name": "totalParticipants",
              "type": "uint256"
            },
            {
              "internalType": "string",
              "name": "proposalInfo",
              "type": "string"
            },
            {
              "internalType": "string",
              "name": "votingResult",
              "type": "string"
            }
          ],
          "internalType": "struct Voting.Proposal",
          "name": "",
          "type": "tuple"
        }
      ],
      "stateMutability": "view",
      "type": "function"
    },
    {
      "inputs": [],
      "name": "owner",
      "outputs": [
        {
          "internalType": "address",
          "name": "",
          "type": "address"
        }
      ],
      "stateMutability": "view",
      "type": "function"
    },
    {
      "inputs": [],
      "name": "pause",
      "outputs": [],
      "stateMutability": "nonpayable",
      "type": "function"
    },
    {
      "inputs": [],
      "name": "paused",
      "outputs": [
        {
          "internalType": "bool",
          "name": "",
          "type": "bool"
        }
      ],
      "stateMutability": "view",
      "type": "function"
    },
    {
      "inputs": [],
      "name": "renounceOwnership",
      "outputs": [],
      "stateMutability": "nonpayable",
      "type": "function"
    },
    {
      "inputs": [
        {
          "internalType": "address",
          "name": "newOwner",
          "type": "address"
        }
      ],
      "name": "transferOwnership",
      "outputs": [],
      "stateMutability": "nonpayable",
      "type": "function"
    },
    {
      "inputs": [],
      "name": "unpause",
      "outputs": [],
      "stateMutability": "nonpayable",
      "type": "function"
    }
  ],
  "bytecode": "0x60806040523480156200001157600080fd5b506200003262000026620000b860201b60201c565b620000c060201b60201c565b60008060146101000a81548160ff02191690831515021790555062000068675541f94c0aca19e760c01b6200018460201b60201c565b6200008467576fb2edb893437360c01b6200018460201b60201c565b620000a06798478a49bb4a3fc260c01b6200018460201b60201c565b620000b260016200018760201b60201c565b6200019d565b600033905090565b60008060009054906101000a900473ffffffffffffffffffffffffffffffffffffffff169050816000806101000a81548173ffffffffffffffffffffffffffffffffffffffff021916908373ffffffffffffffffffffffffffffffffffffffff1602179055508173ffffffffffffffffffffffffffffffffffffffff168173ffffffffffffffffffffffffffffffffffffffff167f8be0079c531659141344cd1fd0a4f28419497f9722a3daafe3b4186f6b6457e060405160405180910390a35050565b50565b6001816000016000828254019250508190555050565b6117bc80620001ad6000396000f3fe608060405234801561001057600080fd5b50600436106100885760003560e01c80638456cb591161005b5780638456cb59146100db5780638da5cb5b146100e5578063c7f758a814610103578063f2fde38b1461013357610088565b80633f4ba83a1461008d5780635c975abb14610097578063715018a6146100b557806376b32537146100bf575b600080fd5b61009561014f565b005b61009f6101c5565b6040516100ac9190610c30565b60405180910390f35b6100bd6101db565b005b6100d960048036038101906100d49190610ddb565b6101ef565b005b6100e36104b2565b005b6100ed610528565b6040516100fa9190610ea7565b60405180910390f35b61011d60048036038101906101189190610ec2565b610551565b60405161012a9190610fe7565b60405180910390f35b61014d60048036038101906101489190611035565b6106f2565b005b610163675b70c2e4de67d45660c01b610775565b61016b610778565b61017f6753c0afd361445cf260c01b610775565b61019367283e08f8e604236660c01b610775565b6101a7673566f6ab6d4136b160c01b610775565b6101bb6791fea246d0c9f45e60c01b610775565b6101c36107f6565b565b60008060149054906101000a900460ff16905090565b6101e3610778565b6101ed6000610858565b565b61020367e5192359bc8d6c6660c01b610775565b61020b610778565b61021f67432f5d60682fad4760c01b610775565b61023367108cf0d754b7976a60c01b610775565b61023b61091c565b61024f67e5cb360d8904624360c01b610775565b610263679b102e8e5085de5560c01b610775565b61027767ccc752b3eaaed97060c01b610775565b61028b67b14c4ae67052088960c01b610775565b61029f673df00b4116137bba60c01b610775565b600083116102e2576040517f08c379a00000000000000000000000000000000000000000000000000000000081526004016102d9906110e5565b60405180910390fd5b6102f667f6f6d11c2ef47d3e60c01b610775565b61030a67773931787963d67160c01b610775565b61031e6702a1ae8630cd622860c01b610775565b6000829050610337674f0b75357d14fc3460c01b610775565b61034b67cc28affba18ccf7760c01b610775565b61035f67af345ce76cfae12a60c01b610775565b60008151036103a3576040517f08c379a000000000000000000000000000000000000000000000000000000000815260040161039a90611177565b60405180910390fd5b6103b7674770ede1a1d1715460c01b610775565b6103cb675988390f2a434f8660c01b610775565b6103df678e0622545ae76d5260c01b610775565b60008290506103f8675f103048b2d87a0060c01b610775565b61040c6761ab460fc6a162d160c01b610775565b61042067249a30d2c4018a3760c01b610775565b6000815103610464576040517f08c379a000000000000000000000000000000000000000000000000000000000815260040161045b90611209565b60405180910390fd5b610478676ce5c09a7d505c0b60c01b610775565b61048c67badf4900fa6b728e60c01b610775565b6104a067ddcbd3536e6ea84a60c01b610775565b6104ab858585610966565b5050505050565b6104c667f6439144b7ca998860c01b610775565b6104ce610778565b6104e2676ec1dd89441e899760c01b610775565b6104f667cc2ae85f5daf5c5e60c01b610775565b61050a67989f591ffa923d4060c01b610775565b61051e67828e30964ddab8f560c01b610775565b610526610b15565b565b60008060009054906101000a900473ffffffffffffffffffffffffffffffffffffffff16905090565b610559610bed565b61056d67f27de8275100f3ae60c01b610775565b6105816750c318193e3d109260c01b610775565b61059567d57715a53df0beb960c01b610775565b6002600083815260200190815260200160002060405180608001604052908160008201548152602001600182015481526020016002820180546105d790611258565b80601f016020809104026020016040519081016040528092919081815260200182805461060390611258565b80156106505780601f1061062557610100808354040283529160200191610650565b820191906000526020600020905b81548152906001019060200180831161063357829003601f168201915b5050505050815260200160038201805461066990611258565b80601f016020809104026020016040519081016040528092919081815260200182805461069590611258565b80156106e25780601f106106b7576101008083540402835291602001916106e2565b820191906000526020600020905b8154815290600101906020018083116106c557829003601f168201915b5050505050815250509050919050565b6106fa610778565b600073ffffffffffffffffffffffffffffffffffffffff168173ffffffffffffffffffffffffffffffffffffffff1603610769576040517f08c379a0000000000000000000000000000000000000000000000000000000008152600401610760906112fb565b60405180910390fd5b61077281610858565b50565b50565b610780610b78565b73ffffffffffffffffffffffffffffffffffffffff1661079e610528565b73ffffffffffffffffffffffffffffffffffffffff16146107f4576040517f08c379a00000000000000000000000000000000000000000000000000000000081526004016107eb90611367565b60405180910390fd5b565b6107fe610b80565b60008060146101000a81548160ff0219169083151502179055507f5db9ee0a495bf2e6ff9c91a7834c1ba4fdd244a5e8aa4e537bd38aeae4b073aa610841610b78565b60405161084e9190610ea7565b60405180910390a1565b60008060009054906101000a900473ffffffffffffffffffffffffffffffffffffffff169050816000806101000a81548173ffffffffffffffffffffffffffffffffffffffff021916908373ffffffffffffffffffffffffffffffffffffffff1602179055508173ffffffffffffffffffffffffffffffffffffffff168173ffffffffffffffffffffffffffffffffffffffff167f8be0079c531659141344cd1fd0a4f28419497f9722a3daafe3b4186f6b6457e060405160405180910390a35050565b6109246101c5565b15610964576040517f08c379a000000000000000000000000000000000000000000000000000000000815260040161095b906113d3565b60405180910390fd5b565b61097a678e525c7d6599738d60c01b610775565b61098e675ed1a7c9ede2c2a260c01b610775565b6109a267c9856c70c9b6086e60c01b610775565b60006109ae6001610bc9565b90506109c467eea6c42479dc344d60c01b610775565b6109d867b58fe67b18ab701260c01b610775565b6109e26001610bd7565b6109f6677d42b6ce43291ab660c01b610775565b610a0a67f0930fff4ee73fbc60c01b610775565b6000600260008381526020019081526020016000209050610a3567878b2254ef85cb6160c01b610775565b428160000181905550610a52677d0f85d9b89973dc60c01b610775565b848160010181905550610a6f67d1287f72b224892c60c01b610775565b83816002019081610a80919061159f565b50610a95674eb044cef49ac88d60c01b610775565b82816003019081610aa6919061159f565b50610abb67a4081faa5337c64960c01b610775565b610acf672b30f209c56e2dfb60c01b610775565b7f56b84f6621b01e112e6d88d98127a537e12474327227b573ccf3104cc335b9d58242878787604051610b069594939291906116b9565b60405180910390a15050505050565b610b1d61091c565b6001600060146101000a81548160ff0219169083151502179055507f62e78cea01bee320cd4e420270b5ea74000d11b0c9f74754ebdbfc544b05a258610b61610b78565b604051610b6e9190610ea7565b60405180910390a1565b600033905090565b610b886101c5565b610bc7576040517f08c379a0000000000000000000000000000000000000000000000000000000008152600401610bbe90611766565b60405180910390fd5b565b600081600001549050919050565b6001816000016000828254019250508190555050565b6040518060800160405280600081526020016000815260200160608152602001606081525090565b60008115159050919050565b610c2a81610c15565b82525050565b6000602082019050610c456000830184610c21565b92915050565b6000604051905090565b600080fd5b600080fd5b6000819050919050565b610c7281610c5f565b8114610c7d57600080fd5b50565b600081359050610c8f81610c69565b92915050565b600080fd5b600080fd5b6000601f19601f8301169050919050565b7f4e487b7100000000000000000000000000000000000000000000000000000000600052604160045260246000fd5b610ce882610c9f565b810181811067ffffffffffffffff82111715610d0757610d06610cb0565b5b80604052505050565b6000610d1a610c4b565b9050610d268282610cdf565b919050565b600067ffffffffffffffff821115610d4657610d45610cb0565b5b610d4f82610c9f565b9050602081019050919050565b82818337600083830152505050565b6000610d7e610d7984610d2b565b610d10565b905082815260208101848484011115610d9a57610d99610c9a565b5b610da5848285610d5c565b509392505050565b600082601f830112610dc257610dc1610c95565b5b8135610dd2848260208601610d6b565b91505092915050565b600080600060608486031215610df457610df3610c55565b5b6000610e0286828701610c80565b935050602084013567ffffffffffffffff811115610e2357610e22610c5a565b5b610e2f86828701610dad565b925050604084013567ffffffffffffffff811115610e5057610e4f610c5a565b5b610e5c86828701610dad565b9150509250925092565b600073ffffffffffffffffffffffffffffffffffffffff82169050919050565b6000610e9182610e66565b9050919050565b610ea181610e86565b82525050565b6000602082019050610ebc6000830184610e98565b92915050565b600060208284031215610ed857610ed7610c55565b5b6000610ee684828501610c80565b91505092915050565b610ef881610c5f565b82525050565b600081519050919050565b600082825260208201905092915050565b60005b83811015610f38578082015181840152602081019050610f1d565b60008484015250505050565b6000610f4f82610efe565b610f598185610f09565b9350610f69818560208601610f1a565b610f7281610c9f565b840191505092915050565b6000608083016000830151610f956000860182610eef565b506020830151610fa86020860182610eef565b5060408301518482036040860152610fc08282610f44565b91505060608301518482036060860152610fda8282610f44565b9150508091505092915050565b600060208201905081810360008301526110018184610f7d565b905092915050565b61101281610e86565b811461101d57600080fd5b50565b60008135905061102f81611009565b92915050565b60006020828403121561104b5761104a610c55565b5b600061105984828501611020565b91505092915050565b600082825260208201905092915050565b7f52454a5556453a20546f74616c207061727469636970616e74732063616e6e6f60008201527f74206265207a65726f0000000000000000000000000000000000000000000000602082015250565b60006110cf602983611062565b91506110da82611073565b604082019050919050565b600060208201905081810360008301526110fe816110c2565b9050919050565b7f52454a5556453a2050726f706f73616c20696e666f2063616e6e6f742062652060008201527f656d707479000000000000000000000000000000000000000000000000000000602082015250565b6000611161602583611062565b915061116c82611105565b604082019050919050565b6000602082019050818103600083015261119081611154565b9050919050565b7f52454a5556453a20566f74696e6720726573756c7420696e666f2063616e6e6f60008201527f7420626520656d70747900000000000000000000000000000000000000000000602082015250565b60006111f3602a83611062565b91506111fe82611197565b604082019050919050565b60006020820190508181036000830152611222816111e6565b9050919050565b7f4e487b7100000000000000000000000000000000000000000000000000000000600052602260045260246000fd5b6000600282049050600182168061127057607f821691505b60208210810361128357611282611229565b5b50919050565b7f4f776e61626c653a206e6577206f776e657220697320746865207a65726f206160008201527f6464726573730000000000000000000000000000000000000000000000000000602082015250565b60006112e5602683611062565b91506112f082611289565b604082019050919050565b60006020820190508181036000830152611314816112d8565b9050919050565b7f4f776e61626c653a2063616c6c6572206973206e6f7420746865206f776e6572600082015250565b6000611351602083611062565b915061135c8261131b565b602082019050919050565b6000602082019050818103600083015261138081611344565b9050919050565b7f5061757361626c653a2070617573656400000000000000000000000000000000600082015250565b60006113bd601083611062565b91506113c882611387565b602082019050919050565b600060208201905081810360008301526113ec816113b0565b9050919050565b60008190508160005260206000209050919050565b60006020601f8301049050919050565b600082821b905092915050565b6000600883026114557fffffffffffffffffffffffffffffffffffffffffffffffffffffffffffffffff82611418565b61145f8683611418565b95508019841693508086168417925050509392505050565b6000819050919050565b600061149c61149761149284610c5f565b611477565b610c5f565b9050919050565b6000819050919050565b6114b683611481565b6114ca6114c2826114a3565b848454611425565b825550505050565b600090565b6114df6114d2565b6114ea8184846114ad565b505050565b5b8181101561150e576115036000826114d7565b6001810190506114f0565b5050565b601f82111561155357611524816113f3565b61152d84611408565b8101602085101561153c578190505b61155061154885611408565b8301826114ef565b50505b505050565b600082821c905092915050565b600061157660001984600802611558565b1980831691505092915050565b600061158f8383611565565b9150826002028217905092915050565b6115a882610efe565b67ffffffffffffffff8111156115c1576115c0610cb0565b5b6115cb8254611258565b6115d6828285611512565b600060209050601f83116001811461160957600084156115f7578287015190505b6116018582611583565b865550611669565b601f198416611617866113f3565b60005b8281101561163f5784890151825560018201915060208501945060208101905061161a565b8683101561165c5784890151611658601f891682611565565b8355505b6001600288020188555050505b505050505050565b61167a81610c5f565b82525050565b600061168b82610efe565b6116958185611062565b93506116a5818560208601610f1a565b6116ae81610c9f565b840191505092915050565b600060a0820190506116ce6000830188611671565b6116db6020830187611671565b6116e86040830186611671565b81810360608301526116fa8185611680565b9050818103608083015261170e8184611680565b90509695505050505050565b7f5061757361626c653a206e6f7420706175736564000000000000000000000000600082015250565b6000611750601483611062565b915061175b8261171a565b602082019050919050565b6000602082019050818103600083015261177f81611743565b905091905056fea2646970667358221220f329bb23a906a463e776580f8df218effaabe6ce0a44dfa7845c3537808be51564736f6c63430008130033",
  "linkReferences": {},
  "deployedLinkReferences": {}
}