{
  "_format": "hh-sol-artifact-1",
  "contractName": "FutureShards",
  "sourceName": "contracts/FutureShards.sol",
  "abi": [
    {
      "inputs": [
        {
          "internalType": "string",
          "name": "uri",
          "type": "string"
        },
        {
          "internalType": "address",
          "name": "productNFT",
          "type": "address"
        }
      ],
      "stateMutability": "nonpayable",
      "type": "constructor"
    },
    {
      "anonymous": false,
      "inputs": [
        {
          "indexed": true,
          "internalType": "address",
          "name": "account",
          "type": "address"
        },
        {
          "indexed": true,
          "internalType": "address",
          "name": "operator",
          "type": "address"
        },
        {
          "indexed": false,
          "internalType": "bool",
          "name": "approved",
          "type": "bool"
        }
      ],
      "name": "ApprovalForAll",
      "type": "event"
    },
    {
      "anonymous": false,
      "inputs": [
        {
          "indexed": false,
          "internalType": "uint256",
          "name": "productUID",
          "type": "uint256"
        },
        {
          "indexed": false,
          "internalType": "address[]",
          "name": "dataOwners",
          "type": "address[]"
        },
        {
          "indexed": false,
          "internalType": "uint256[]",
          "name": "shardAmount",
          "type": "uint256[]"
        }
      ],
      "name": "FutureShardDistributed",
      "type": "event"
    },
    {
      "anonymous": false,
      "inputs": [
        {
          "indexed": false,
          "internalType": "uint256",
          "name": "productUID",
          "type": "uint256"
        },
        {
          "indexed": false,
          "internalType": "address[]",
          "name": "initialContributors",
          "type": "address[]"
        },
        {
          "indexed": false,
          "internalType": "uint256[]",
          "name": "shardAmount",
          "type": "uint256[]"
        }
      ],
      "name": "InitialShardDistributed",
      "type": "event"
    },
    {
      "anonymous": false,
      "inputs": [
        {
          "indexed": true,
          "internalType": "address",
          "name": "previousOwner",
          "type": "address"
        },
        {
          "indexed": true,
          "internalType": "address",
          "name": "newOwner",
          "type": "address"
        }
      ],
      "name": "OwnershipTransferred",
      "type": "event"
    },
    {
      "anonymous": false,
      "inputs": [
        {
          "indexed": false,
          "internalType": "address",
          "name": "account",
          "type": "address"
        }
      ],
      "name": "Paused",
      "type": "event"
    },
    {
      "anonymous": false,
      "inputs": [
        {
          "indexed": true,
          "internalType": "address",
          "name": "operator",
          "type": "address"
        },
        {
          "indexed": true,
          "internalType": "address",
          "name": "from",
          "type": "address"
        },
        {
          "indexed": true,
          "internalType": "address",
          "name": "to",
          "type": "address"
        },
        {
          "indexed": false,
          "internalType": "uint256[]",
          "name": "ids",
          "type": "uint256[]"
        },
        {
          "indexed": false,
          "internalType": "uint256[]",
          "name": "values",
          "type": "uint256[]"
        }
      ],
      "name": "TransferBatch",
      "type": "event"
    },
    {
      "anonymous": false,
      "inputs": [
        {
          "indexed": true,
          "internalType": "address",
          "name": "operator",
          "type": "address"
        },
        {
          "indexed": true,
          "internalType": "address",
          "name": "from",
          "type": "address"
        },
        {
          "indexed": true,
          "internalType": "address",
          "name": "to",
          "type": "address"
        },
        {
          "indexed": false,
          "internalType": "uint256",
          "name": "id",
          "type": "uint256"
        },
        {
          "indexed": false,
          "internalType": "uint256",
          "name": "value",
          "type": "uint256"
        }
      ],
      "name": "TransferSingle",
      "type": "event"
    },
    {
      "anonymous": false,
      "inputs": [
        {
          "indexed": false,
          "internalType": "string",
          "name": "value",
          "type": "string"
        },
        {
          "indexed": true,
          "internalType": "uint256",
          "name": "id",
          "type": "uint256"
        }
      ],
      "name": "URI",
      "type": "event"
    },
    {
      "anonymous": false,
      "inputs": [
        {
          "indexed": false,
          "internalType": "address",
          "name": "account",
          "type": "address"
        }
      ],
      "name": "Unpaused",
      "type": "event"
    },
    {
      "inputs": [
        {
          "internalType": "address",
          "name": "account",
          "type": "address"
        },
        {
          "internalType": "uint256",
          "name": "id",
          "type": "uint256"
        }
      ],
      "name": "balanceOf",
      "outputs": [
        {
          "internalType": "uint256",
          "name": "",
          "type": "uint256"
        }
      ],
      "stateMutability": "view",
      "type": "function"
    },
    {
      "inputs": [
        {
          "internalType": "address[]",
          "name": "accounts",
          "type": "address[]"
        },
        {
          "internalType": "uint256[]",
          "name": "ids",
          "type": "uint256[]"
        }
      ],
      "name": "balanceOfBatch",
      "outputs": [
        {
          "internalType": "uint256[]",
          "name": "",
          "type": "uint256[]"
        }
      ],
      "stateMutability": "view",
      "type": "function"
    },
    {
      "inputs": [
        {
          "internalType": "uint256",
          "name": "productUID",
          "type": "uint256"
        },
        {
          "internalType": "uint8",
          "name": "futurePercent",
          "type": "uint8"
        },
        {
          "internalType": "uint256[]",
          "name": "credits",
          "type": "uint256[]"
        },
        {
          "internalType": "address[]",
          "name": "futureContributors",
          "type": "address[]"
        }
      ],
      "name": "distributeFutureShards",
      "outputs": [],
      "stateMutability": "nonpayable",
      "type": "function"
    },
    {
      "inputs": [
        {
          "internalType": "uint256",
          "name": "productUID",
          "type": "uint256"
        },
        {
          "internalType": "uint256",
          "name": "targetSupply_",
          "type": "uint256"
        },
        {
          "internalType": "uint256",
          "name": "labCredit",
          "type": "uint256"
        },
        {
          "internalType": "uint256",
          "name": "lockPeriod",
          "type": "uint256"
        },
        {
          "internalType": "uint8",
          "name": "initialPercent",
          "type": "uint8"
        },
        {
          "internalType": "uint8",
          "name": "rejuvePercent",
          "type": "uint8"
        },
        {
          "internalType": "address",
          "name": "lab",
          "type": "address"
        },
        {
          "internalType": "address",
          "name": "rejuve",
          "type": "address"
        },
        {
          "internalType": "string[]",
          "name": "uris",
          "type": "string[]"
        }
      ],
      "name": "distributeInitialShards",
      "outputs": [],
      "stateMutability": "nonpayable",
      "type": "function"
    },
    {
      "inputs": [
        {
          "internalType": "uint256",
          "name": "productUID",
          "type": "uint256"
        }
      ],
      "name": "getFutureContributorShards",
      "outputs": [
        {
          "internalType": "uint256[]",
          "name": "",
          "type": "uint256[]"
        }
      ],
      "stateMutability": "view",
      "type": "function"
    },
    {
      "inputs": [
        {
          "internalType": "uint256",
          "name": "productUID",
          "type": "uint256"
        }
      ],
      "name": "getFutureContributors",
      "outputs": [
        {
          "internalType": "address[]",
          "name": "",
          "type": "address[]"
        }
      ],
      "stateMutability": "view",
      "type": "function"
    },
    {
      "inputs": [
        {
          "internalType": "uint256",
          "name": "productUID",
          "type": "uint256"
        }
      ],
      "name": "getFutureDistributionStatus",
      "outputs": [
        {
          "internalType": "bool",
          "name": "",
          "type": "bool"
        }
      ],
      "stateMutability": "view",
      "type": "function"
    },
    {
      "inputs": [
        {
          "internalType": "uint256",
          "name": "productUID",
          "type": "uint256"
        }
      ],
      "name": "getInitialContributorShards",
      "outputs": [
        {
          "internalType": "uint256[]",
          "name": "",
          "type": "uint256[]"
        }
      ],
      "stateMutability": "view",
      "type": "function"
    },
    {
      "inputs": [
        {
          "internalType": "uint256",
          "name": "productUID",
          "type": "uint256"
        }
      ],
      "name": "getInitialContributors",
      "outputs": [
        {
          "internalType": "address[]",
          "name": "",
          "type": "address[]"
        }
      ],
      "stateMutability": "view",
      "type": "function"
    },
    {
      "inputs": [
        {
          "internalType": "uint256",
          "name": "productUID",
          "type": "uint256"
        }
      ],
      "name": "getInitialDistributionStatus",
      "outputs": [
        {
          "internalType": "bool",
          "name": "",
          "type": "bool"
        }
      ],
      "stateMutability": "view",
      "type": "function"
    },
    {
      "inputs": [
        {
          "internalType": "uint256",
          "name": "productUID",
          "type": "uint256"
        }
      ],
      "name": "getProductIDs",
      "outputs": [
        {
          "internalType": "uint256[]",
          "name": "",
          "type": "uint256[]"
        }
      ],
      "stateMutability": "view",
      "type": "function"
    },
    {
      "inputs": [
        {
          "internalType": "uint256",
          "name": "productUID",
          "type": "uint256"
        }
      ],
      "name": "getShardsConfig",
      "outputs": [
        {
          "internalType": "uint256",
          "name": "",
          "type": "uint256"
        },
        {
          "internalType": "uint8",
          "name": "",
          "type": "uint8"
        },
        {
          "internalType": "uint8",
          "name": "",
          "type": "uint8"
        },
        {
          "internalType": "uint8",
          "name": "",
          "type": "uint8"
        }
      ],
      "stateMutability": "view",
      "type": "function"
    },
    {
      "inputs": [
        {
          "internalType": "address",
          "name": "account",
          "type": "address"
        },
        {
          "internalType": "address",
          "name": "operator",
          "type": "address"
        }
      ],
      "name": "isApprovedForAll",
      "outputs": [
        {
          "internalType": "bool",
          "name": "",
          "type": "bool"
        }
      ],
      "stateMutability": "view",
      "type": "function"
    },
    {
      "inputs": [],
      "name": "owner",
      "outputs": [
        {
          "internalType": "address",
          "name": "",
          "type": "address"
        }
      ],
      "stateMutability": "view",
      "type": "function"
    },
    {
      "inputs": [],
      "name": "paused",
      "outputs": [
        {
          "internalType": "bool",
          "name": "",
          "type": "bool"
        }
      ],
      "stateMutability": "view",
      "type": "function"
    },
    {
      "inputs": [],
      "name": "renounceOwnership",
      "outputs": [],
      "stateMutability": "nonpayable",
      "type": "function"
    },
    {
      "inputs": [
        {
          "internalType": "address",
          "name": "from",
          "type": "address"
        },
        {
          "internalType": "address",
          "name": "to",
          "type": "address"
        },
        {
          "internalType": "uint256[]",
          "name": "ids",
          "type": "uint256[]"
        },
        {
          "internalType": "uint256[]",
          "name": "amounts",
          "type": "uint256[]"
        },
        {
          "internalType": "bytes",
          "name": "data",
          "type": "bytes"
        }
      ],
      "name": "safeBatchTransferFrom",
      "outputs": [],
      "stateMutability": "nonpayable",
      "type": "function"
    },
    {
      "inputs": [
        {
          "internalType": "address",
          "name": "from",
          "type": "address"
        },
        {
          "internalType": "address",
          "name": "to",
          "type": "address"
        },
        {
          "internalType": "uint256",
          "name": "id",
          "type": "uint256"
        },
        {
          "internalType": "uint256",
          "name": "amount",
          "type": "uint256"
        },
        {
          "internalType": "bytes",
          "name": "data",
          "type": "bytes"
        }
      ],
      "name": "safeTransferFrom",
      "outputs": [],
      "stateMutability": "nonpayable",
      "type": "function"
    },
    {
      "inputs": [
        {
          "internalType": "address",
          "name": "operator",
          "type": "address"
        },
        {
          "internalType": "bool",
          "name": "approved",
          "type": "bool"
        }
      ],
      "name": "setApprovalForAll",
      "outputs": [],
      "stateMutability": "nonpayable",
      "type": "function"
    },
    {
      "inputs": [
        {
          "internalType": "bytes4",
          "name": "interfaceId",
          "type": "bytes4"
        }
      ],
      "name": "supportsInterface",
      "outputs": [
        {
          "internalType": "bool",
          "name": "",
          "type": "bool"
        }
      ],
      "stateMutability": "view",
      "type": "function"
    },
    {
      "inputs": [
        {
          "internalType": "uint256",
          "name": "productUID",
          "type": "uint256"
        }
      ],
      "name": "targetSupply",
      "outputs": [
        {
          "internalType": "uint256",
          "name": "",
          "type": "uint256"
        }
      ],
      "stateMutability": "view",
      "type": "function"
    },
    {
      "inputs": [
        {
          "internalType": "uint256",
          "name": "productUID",
          "type": "uint256"
        }
      ],
      "name": "totalShardSupply",
      "outputs": [
        {
          "internalType": "uint256",
          "name": "",
          "type": "uint256"
        }
      ],
      "stateMutability": "view",
      "type": "function"
    },
    {
      "inputs": [
        {
          "internalType": "address",
          "name": "newOwner",
          "type": "address"
        }
      ],
      "name": "transferOwnership",
      "outputs": [],
      "stateMutability": "nonpayable",
      "type": "function"
    },
    {
      "inputs": [
        {
          "internalType": "uint256",
          "name": "id",
          "type": "uint256"
        }
      ],
      "name": "uri",
      "outputs": [
        {
          "internalType": "string",
          "name": "",
          "type": "string"
        }
      ],
      "stateMutability": "view",
      "type": "function"
    }
  ],
  "bytecode": "0x60806040523480156200001157600080fd5b5060405162007a8638038062007a86833981810160405281019062000037919062000404565b8181816200005a6200004e6200012560201b60201c565b6200012d60201b60201c565b60008060146101000a81548160ff0219169083151502179055506200008581620001f160201b60201c565b50620000a267dfa48286744d8f7660c01b6200020660201b60201c565b620000be67c46ad85b656cd16860c01b6200020660201b60201c565b80600460006101000a81548173ffffffffffffffffffffffffffffffffffffffff021916908373ffffffffffffffffffffffffffffffffffffffff16021790555050506200011d674747a263a5a4f22760c01b6200020960201b60201c565b50506200079c565b600033905090565b60008060009054906101000a900473ffffffffffffffffffffffffffffffffffffffff169050816000806101000a81548173ffffffffffffffffffffffffffffffffffffffff021916908373ffffffffffffffffffffffffffffffffffffffff1602179055508173ffffffffffffffffffffffffffffffffffffffff168173ffffffffffffffffffffffffffffffffffffffff167f8be0079c531659141344cd1fd0a4f28419497f9722a3daafe3b4186f6b6457e060405160405180910390a35050565b8060039081620002029190620006b5565b5050565b50565b50565b6000604051905090565b600080fd5b600080fd5b600080fd5b600080fd5b6000601f19601f8301169050919050565b7f4e487b7100000000000000000000000000000000000000000000000000000000600052604160045260246000fd5b62000275826200022a565b810181811067ffffffffffffffff821117156200029757620002966200023b565b5b80604052505050565b6000620002ac6200020c565b9050620002ba82826200026a565b919050565b600067ffffffffffffffff821115620002dd57620002dc6200023b565b5b620002e8826200022a565b9050602081019050919050565b60005b8381101562000315578082015181840152602081019050620002f8565b60008484015250505050565b6000620003386200033284620002bf565b620002a0565b90508281526020810184848401111562000357576200035662000225565b5b62000364848285620002f5565b509392505050565b600082601f83011262000384576200038362000220565b5b81516200039684826020860162000321565b91505092915050565b600073ffffffffffffffffffffffffffffffffffffffff82169050919050565b6000620003cc826200039f565b9050919050565b620003de81620003bf565b8114620003ea57600080fd5b50565b600081519050620003fe81620003d3565b92915050565b600080604083850312156200041e576200041d62000216565b5b600083015167ffffffffffffffff8111156200043f576200043e6200021b565b5b6200044d858286016200036c565b92505060206200046085828601620003ed565b9150509250929050565b600081519050919050565b7f4e487b7100000000000000000000000000000000000000000000000000000000600052602260045260246000fd5b60006002820490506001821680620004bd57607f821691505b602082108103620004d357620004d262000475565b5b50919050565b60008190508160005260206000209050919050565b60006020601f8301049050919050565b600082821b905092915050565b6000600883026200053d7fffffffffffffffffffffffffffffffffffffffffffffffffffffffffffffffff82620004fe565b620005498683620004fe565b95508019841693508086168417925050509392505050565b6000819050919050565b6000819050919050565b600062000596620005906200058a8462000561565b6200056b565b62000561565b9050919050565b6000819050919050565b620005b28362000575565b620005ca620005c1826200059d565b8484546200050b565b825550505050565b600090565b620005e1620005d2565b620005ee818484620005a7565b505050565b5b8181101562000616576200060a600082620005d7565b600181019050620005f4565b5050565b601f82111562000665576200062f81620004d9565b6200063a84620004ee565b810160208510156200064a578190505b620006626200065985620004ee565b830182620005f3565b50505b505050565b600082821c905092915050565b60006200068a600019846008026200066a565b1980831691505092915050565b6000620006a5838362000677565b9150826002028217905092915050565b620006c0826200046a565b67ffffffffffffffff811115620006dc57620006db6200023b565b5b620006e88254620004a4565b620006f58282856200061a565b600060209050601f8311600181146200072d576000841562000718578287015190505b62000724858262000697565b86555062000794565b601f1984166200073d86620004d9565b60005b82811015620007675784890151825560018201915060208501945060208101905062000740565b8683101562000787578489015162000783601f89168262000677565b8355505b6001600288020188555050505b505050505050565b6172da80620007ac6000396000f3fe608060405234801561001057600080fd5b50600436106101575760003560e01c8063936906f1116100c3578063db05979f1161007c578063db05979f14610422578063e985e9c514610452578063f242432a14610482578063f2fde38b1461049e578063f395f9da146104ba578063fac795c0146104ea57610157565b8063936906f11461032a578063a22cb4651461035a578063b881501e14610376578063d429c758146103a6578063d4e1872c146103c2578063d6e0dbda146103f257610157565b80634e1273f4116101155780634e1273f4146102545780634e57d942146102845780635c975abb146102b4578063715018a6146102d25780638be2cf9c146102dc5780638da5cb5b1461030c57610157565b8062fdd58e1461015c57806301ffc9a71461018c5780630e89341c146101bc5780631e68ca89146101ec5780632eb2c2d61461021c5780634567db0314610238575b600080fd5b61017660048036038101906101719190614b46565b61051d565b6040516101839190614b95565b60405180910390f35b6101a660048036038101906101a19190614c08565b6105e6565b6040516101b39190614c50565b60405180910390f35b6101d660048036038101906101d19190614c6b565b6106c8565b6040516101e39190614d28565b60405180910390f35b61020660048036038101906102019190614c6b565b6107a9565b6040516102139190614e08565b60405180910390f35b61023660048036038101906102319190615027565b610850565b005b610252600480360381019061024d91906151f2565b6108f1565b005b61026e60048036038101906102699190615291565b610d2a565b60405161027b9190614e08565b60405180910390f35b61029e60048036038101906102999190614c6b565b610e43565b6040516102ab9190614e08565b60405180910390f35b6102bc610eea565b6040516102c99190614c50565b60405180910390f35b6102da610f00565b005b6102f660048036038101906102f19190614c6b565b610f14565b60405161030391906153c7565b60405180910390f35b610314610ff1565b60405161032191906153f8565b60405180910390f35b610344600480360381019061033f9190614c6b565b61101a565b6040516103519190614b95565b60405180910390f35b610374600480360381019061036f919061543f565b611076565b005b610390600480360381019061038b9190614c6b565b61108c565b60405161039d9190614c50565b60405180910390f35b6103c060048036038101906103bb9190615601565b6110f2565b005b6103dc60048036038101906103d79190614c6b565b611293565b6040516103e99190614c50565b60405180910390f35b61040c60048036038101906104079190614c6b565b6112f9565b6040516104199190614b95565b60405180910390f35b61043c60048036038101906104379190614c6b565b611355565b60405161044991906153c7565b60405180910390f35b61046c600480360381019061046791906156e7565b611432565b6040516104799190614c50565b60405180910390f35b61049c60048036038101906104979190615727565b6114c6565b005b6104b860048036038101906104b391906157be565b611567565b005b6104d460048036038101906104cf9190614c6b565b6115ea565b6040516104e19190614e08565b60405180910390f35b61050460048036038101906104ff9190614c6b565b611691565b60405161051494939291906157fa565b60405180910390f35b60008073ffffffffffffffffffffffffffffffffffffffff168373ffffffffffffffffffffffffffffffffffffffff160361058d576040517f08c379a0000000000000000000000000000000000000000000000000000000008152600401610584906158b1565b60405180910390fd5b6001600083815260200190815260200160002060008473ffffffffffffffffffffffffffffffffffffffff1673ffffffffffffffffffffffffffffffffffffffff16815260200190815260200160002054905092915050565b60007fd9b67a26000000000000000000000000000000000000000000000000000000007bffffffffffffffffffffffffffffffffffffffffffffffffffffffff1916827bffffffffffffffffffffffffffffffffffffffffffffffffffffffff191614806106b157507f0e89341c000000000000000000000000000000000000000000000000000000007bffffffffffffffffffffffffffffffffffffffffffffffffffffffff1916827bffffffffffffffffffffffffffffffffffffffffffffffffffffffff1916145b806106c157506106c082611765565b5b9050919050565b60606106de6736b16238ef581a9060c01b6117cf565b6106f267da2d526aeaabbfb860c01b6117cf565b61070667682b6ae52cb5793860c01b6117cf565b600e6000838152602001908152602001600020805461072490615900565b80601f016020809104026020016040519081016040528092919081815260200182805461075090615900565b801561079d5780601f106107725761010080835404028352916020019161079d565b820191906000526020600020905b81548152906001019060200180831161078057829003601f168201915b50505050509050919050565b60606107bf67d66158b3e5e020e360c01b6117d2565b6107d367bd95b5778a2bd55060c01b6117d2565b6107e7677a1c716cd3b9cef160c01b6117d2565b6010600083815260200190815260200160002080548060200260200160405190810160405280929190818152602001828054801561084457602002820191906000526020600020905b815481526020019060010190808311610830575b50505050509050919050565b6108586117d5565b73ffffffffffffffffffffffffffffffffffffffff168573ffffffffffffffffffffffffffffffffffffffff16148061089e575061089d856108986117d5565b611432565b5b6108dd576040517f08c379a00000000000000000000000000000000000000000000000000000000081526004016108d4906159a3565b60405180910390fd5b6108ea85858585856117dd565b5050505050565b61090567cfb4c8c4470da68b60c01b6117d2565b61090d611b01565b61092167ef4ccdd4aa0cf6a160c01b6117d2565b61093567a3ca558112dab58160c01b6117d2565b61093d611b7f565b61095167f95e83369657db3a60c01b6117d2565b6109656786d9288bbd2dd15660c01b6117d2565b61097967d499caeb8356a4ef60c01b6117d2565b61098d671fadaba13f151e8160c01b6117d2565b6109a1675f758e6d1f9a8fb860c01b6117d2565b6011600085815260200190815260200160002060009054906101000a900460ff1615610a02576040517f08c379a00000000000000000000000000000000000000000000000000000000081526004016109f990615a35565b60405180910390fd5b610a166754df606ef7d0f33260c01b6117d2565b610a2a67ceb84efdaa4b55e060c01b6117d2565b610a3e67130f936bfef3a2a860c01b6117d2565b610a5267fcfd628b281fcd4860c01b6117d2565b60008360ff1611610a98576040517f08c379a0000000000000000000000000000000000000000000000000000000008152600401610a8f90615ac7565b60405180910390fd5b610aac67fb14737364a1b81360c01b6117d2565b610ac067664741974ee8e7ed60c01b6117d2565b610ad467d91dc263d92d9a0c60c01b6117d2565b6000600960008681526020019081526020016000206040518060e0016040529081600082015481526020016001820154815260200160028201548152602001600382015481526020016004820160009054906101000a900460ff1660ff1660ff1681526020016004820160019054906101000a900460ff1660ff1660ff1681526020016004820160029054906101000a900460ff1660ff1660ff16815250509050610b8967d7fe9aa052d8568660c01b6117d2565b610b9d679bf10551ab3a3bd660c01b6117d2565b60008160a001518260800151610bb39190615b16565b6064610bbf9190615b4b565b60ff169050610bd867f711d5fb9da6193860c01b6117d2565b610bec67605b0d7c4373b5d160c01b6117d2565b610c00674bf1a3ffb1f6c6ec60c01b6117d2565b808560ff161115610c46576040517f08c379a0000000000000000000000000000000000000000000000000000000008152600401610c3d90615bf2565b60405180910390fd5b610c5a67acf60d204203ffc960c01b6117d2565b610c6e6797d662984a030b7f60c01b6117d2565b610c8267c35b2b7c6545503160c01b6117d2565b610c966742bda0a31f5806cc60c01b6117d2565b8351835114610cda576040517f08c379a0000000000000000000000000000000000000000000000000000000008152600401610cd190615c5e565b60405180910390fd5b610cee6715bc0db15e406cb760c01b6117d2565b610d026737c7e5826ef4b87360c01b6117d2565b610d16676b870d2d6f7d60cf60c01b6117d2565b610d2286868686611bc9565b505050505050565b60608151835114610d70576040517f08c379a0000000000000000000000000000000000000000000000000000000008152600401610d6790615cf0565b60405180910390fd5b6000835167ffffffffffffffff811115610d8d57610d8c614e2f565b5b604051908082528060200260200182016040528015610dbb5781602001602082028036833780820191505090505b50905060005b8451811015610e3857610e08858281518110610de057610ddf615d10565b5b6020026020010151858381518110610dfb57610dfa615d10565b5b602002602001015161051d565b828281518110610e1b57610e1a615d10565b5b60200260200101818152505080610e3190615d3f565b9050610dc1565b508091505092915050565b6060610e59671a52cad882febbe560c01b6117cf565b610e6d6753843b645b3502c860c01b6117cf565b610e8167fa664f9525e30c8560c01b6117cf565b600a6000838152602001908152602001600020805480602002602001604051908101604052809291908181526020018280548015610ede57602002820191906000526020600020905b815481526020019060010190808311610eca575b50505050509050919050565b60008060149054906101000a900460ff16905090565b610f08611b01565b610f126000612093565b565b6060610f2a6736979b05c888cc4860c01b6117cf565b610f3e674dd863445411a08360c01b6117cf565b610f526762c8bbcf4670b71560c01b6117cf565b60066000838152602001908152602001600020805480602002602001604051908101604052809291908181526020018280548015610fe557602002820191906000526020600020905b8160009054906101000a900473ffffffffffffffffffffffffffffffffffffffff1673ffffffffffffffffffffffffffffffffffffffff1681526020019060010190808311610f9b575b50505050509050919050565b60008060009054906101000a900473ffffffffffffffffffffffffffffffffffffffff16905090565b60006110306707f64cd5d8a8a14b60c01b6117cf565b61104467c7e7b490dce49f4760c01b6117cf565b61105867bfd9e3862eb4776060c01b6117cf565b60096000838152602001908152602001600020600101549050919050565b6110886110816117d5565b8383612157565b5050565b60006110a267ea7c555c1627c5b460c01b6117cf565b6110b667075dd45acf7f45b460c01b6117cf565b6110ca6769ee3657da5a777760c01b6117cf565b6008600083815260200190815260200160002060009054906101000a900460ff169050919050565b611106675915ba407d5ebe2d60c01b6117cf565b61110e611b01565b611122672e7b7c5dea2f9d2360c01b6117cf565b6111366786c56dc1a8fcaab960c01b6117cf565b61113e611b7f565b61115267f7f118b95d401be060c01b6117cf565b611166670bfd8c9ebc971e9160c01b6117cf565b61117a67c2487208f02e5b7d60c01b6117cf565b61118e67b471c7639203569360c01b6117cf565b6111a267c88c99ee34baa7e260c01b6117cf565b600860008a815260200190815260200160002060009054906101000a900460ff1615611203576040517f08c379a00000000000000000000000000000000000000000000000000000000081526004016111fa90615df9565b60405180910390fd5b611217677c1040b489d8c4bc60c01b6117cf565b61122b6709fb7b6874720e7460c01b6117cf565b61123f6741d7c644d6c1137e60c01b6117cf565b61124f88888888888888886122c3565b611263677b423b725a31991a60c01b6117cf565b611277670b4e50dac4514d9d60c01b6117cf565b6112888989898989898989896127d8565b505050505050505050565b60006112a9670e6eb32b63a03df360c01b6117d2565b6112bd6786a35b6505343a0960c01b6117d2565b6112d1671f872b911a5011e160c01b6117d2565b6011600083815260200190815260200160002060009054906101000a900460ff169050919050565b600061130f671ae678a1deee0bee60c01b6117cf565b611323675852be98b37791b860c01b6117cf565b61133767ae1ae54ea648585460c01b6117cf565b60096000838152602001908152602001600020600201549050919050565b606061136b679bf2858bd7626ad260c01b6117d2565b61137f67a36350cc947ff39160c01b6117d2565b6113936721570f91a1ddb85860c01b6117d2565b600f600083815260200190815260200160002080548060200260200160405190810160405280929190818152602001828054801561142657602002820191906000526020600020905b8160009054906101000a900473ffffffffffffffffffffffffffffffffffffffff1673ffffffffffffffffffffffffffffffffffffffff16815260200190600101908083116113dc575b50505050509050919050565b6000600260008473ffffffffffffffffffffffffffffffffffffffff1673ffffffffffffffffffffffffffffffffffffffff16815260200190815260200160002060008373ffffffffffffffffffffffffffffffffffffffff1673ffffffffffffffffffffffffffffffffffffffff16815260200190815260200160002060009054906101000a900460ff16905092915050565b6114ce6117d5565b73ffffffffffffffffffffffffffffffffffffffff168573ffffffffffffffffffffffffffffffffffffffff16148061151457506115138561150e6117d5565b611432565b5b611553576040517f08c379a000000000000000000000000000000000000000000000000000000000815260040161154a906159a3565b60405180910390fd5b61156085858585856129d8565b5050505050565b61156f611b01565b600073ffffffffffffffffffffffffffffffffffffffff168173ffffffffffffffffffffffffffffffffffffffff16036115de576040517f08c379a00000000000000000000000000000000000000000000000000000000081526004016115d590615e8b565b60405180910390fd5b6115e781612093565b50565b60606116006736368329c295060360c01b6117cf565b6116146742706690e6df758760c01b6117cf565b61162867b7ac7c37d8beec1c60c01b6117cf565b6007600083815260200190815260200160002080548060200260200160405190810160405280929190818152602001828054801561168557602002820191906000526020600020905b815481526020019060010190808311611671575b50505050509050919050565b6000806000806116ab67ea1c3c4218d2232960c01b6117cf565b6116bf67dde84d19e3f7778860c01b6117cf565b6116d367987f91efaf68632660c01b6117cf565b60096000868152602001908152602001600020600301546009600087815260200190815260200160002060040160009054906101000a900460ff166009600088815260200190815260200160002060040160029054906101000a900460ff166009600089815260200190815260200160002060040160019054906101000a900460ff1693509350935093509193509193565b60007f01ffc9a7000000000000000000000000000000000000000000000000000000007bffffffffffffffffffffffffffffffffffffffffffffffffffffffff1916827bffffffffffffffffffffffffffffffffffffffffffffffffffffffff1916149050919050565b50565b50565b600033905090565b8151835114611821576040517f08c379a000000000000000000000000000000000000000000000000000000000815260040161181890615f1d565b60405180910390fd5b600073ffffffffffffffffffffffffffffffffffffffff168473ffffffffffffffffffffffffffffffffffffffff1603611890576040517f08c379a000000000000000000000000000000000000000000000000000000000815260040161188790615faf565b60405180910390fd5b600061189a6117d5565b90506118aa818787878787612c76565b60005b8451811015611a5e5760008582815181106118cb576118ca615d10565b5b6020026020010151905060008583815181106118ea576118e9615d10565b5b6020026020010151905060006001600084815260200190815260200160002060008b73ffffffffffffffffffffffffffffffffffffffff1673ffffffffffffffffffffffffffffffffffffffff1681526020019081526020016000205490508181101561198c576040517f08c379a000000000000000000000000000000000000000000000000000000000815260040161198390616041565b60405180910390fd5b8181036001600085815260200190815260200160002060008c73ffffffffffffffffffffffffffffffffffffffff1673ffffffffffffffffffffffffffffffffffffffff16815260200190815260200160002081905550816001600085815260200190815260200160002060008b73ffffffffffffffffffffffffffffffffffffffff1673ffffffffffffffffffffffffffffffffffffffff1681526020019081526020016000206000828254611a439190616061565b9250508190555050505080611a5790615d3f565b90506118ad565b508473ffffffffffffffffffffffffffffffffffffffff168673ffffffffffffffffffffffffffffffffffffffff168273ffffffffffffffffffffffffffffffffffffffff167f4a39dc06d4c0dbc64b70af90fd698a233a518aa5d07e595d983b8c0526c8f7fb8787604051611ad5929190616095565b60405180910390a4611aeb818787878787612c7e565b611af9818787878787612c86565b505050505050565b611b096117d5565b73ffffffffffffffffffffffffffffffffffffffff16611b27610ff1565b73ffffffffffffffffffffffffffffffffffffffff1614611b7d576040517f08c379a0000000000000000000000000000000000000000000000000000000008152600401611b7490616118565b60405180910390fd5b565b611b87610eea565b15611bc7576040517f08c379a0000000000000000000000000000000000000000000000000000000008152600401611bbe90616184565b60405180910390fd5b565b611bdd6711921b58f580e26e60c01b6117d2565b611bf167dac7cdab4a8d133e60c01b6117d2565b611c056762b01d14b3fe498b60c01b6117d2565b6000600960008681526020019081526020016000209050611c30677c5b2bceb7e2acfb60c01b6117d2565b838160040160026101000a81548160ff021916908360ff160217905550611c6167533bf9c37d0b988a60c01b6117d2565b611c7567652cd17eb7a0202a60c01b6117d2565b6000611c8084612e5d565b9050611c966790c152e4b92fc7aa60c01b6117d2565b611caa6781586f0a898de0f960c01b6117d2565b600083519050611cc467a6a0ecddc878f43f60c01b6117d2565b611cd867ebb2c6301f3574f560c01b6117d2565b60005b81811015611fc257611cf7670eaeb8e1594b741a60c01b6117d2565b611d0b67c8c135c23763939460c01b6117d2565b6000858281518110611d2057611d1f615d10565b5b60200260200101519050611d3e6787939176ec5c68ce60c01b6117d2565b611d5267ca904eb40a8a5e8160c01b6117d2565b6000611d81888481518110611d6a57611d69615d10565b5b6020026020010151868b60ff168960010154612f80565b9050611d9767d272ab39f7ebe03260c01b6117d2565b611dab6715bb95e89cc0740660c01b6117d2565b6000611db682613098565b9050611dcc67960ce4cc78d094f560c01b6117d2565b611de0676ba29e2eb5c1e03260c01b6117d2565b611e8283600a60008e8152602001908152602001600020805480602002602001604051908101604052809291908181526020018280548015611e4157602002820191906000526020600020905b815481526020019060010190808311611e2d575b5050505050836040518060400160405280600481526020017f3078303000000000000000000000000000000000000000000000000000000000815250613227565b611e9667afc3d419495d802560c01b6117d2565b818760020154611ea69190616061565b8760020181905550611ec2679a5ec14ad3f8ace860c01b6117d2565b611ed66746b810f4220f89e760c01b6117d2565b600f60008c8152602001908152602001600020839080600181540180825580915050600190039060005260206000200160009091909190916101000a81548173ffffffffffffffffffffffffffffffffffffffff021916908373ffffffffffffffffffffffffffffffffffffffff160217905550611f5e6720d6b1425ac26f6a60c01b6117d2565b611f7267e8505f32451b4cc860c01b6117d2565b601060008c81526020019081526020016000208290806001815401808255809150506001900390600052602060002001600090919091909150555050508080611fba90615d3f565b915050611cdb565b50611fd7671d64548f02b1f43460c01b6117d2565b611feb677c171f77e704781860c01b6117d2565b7f621e1a59d70685f53a28114e1229586ecd6908416f6bfaee0e147c3d34f3984587600f60008a8152602001908152602001600020601060008b815260200190815260200160002060405161204293929190616359565b60405180910390a161205e67f0b6553bda0cc9d160c01b6117d2565b60016011600089815260200190815260200160002060006101000a81548160ff02191690831515021790555050505050505050565b60008060009054906101000a900473ffffffffffffffffffffffffffffffffffffffff169050816000806101000a81548173ffffffffffffffffffffffffffffffffffffffff021916908373ffffffffffffffffffffffffffffffffffffffff1602179055508173ffffffffffffffffffffffffffffffffffffffff168173ffffffffffffffffffffffffffffffffffffffff167f8be0079c531659141344cd1fd0a4f28419497f9722a3daafe3b4186f6b6457e060405160405180910390a35050565b8173ffffffffffffffffffffffffffffffffffffffff168373ffffffffffffffffffffffffffffffffffffffff16036121c5576040517f08c379a00000000000000000000000000000000000000000000000000000000081526004016121bc90616410565b60405180910390fd5b80600260008573ffffffffffffffffffffffffffffffffffffffff1673ffffffffffffffffffffffffffffffffffffffff16815260200190815260200160002060008473ffffffffffffffffffffffffffffffffffffffff1673ffffffffffffffffffffffffffffffffffffffff16815260200190815260200160002060006101000a81548160ff0219169083151502179055508173ffffffffffffffffffffffffffffffffffffffff168373ffffffffffffffffffffffffffffffffffffffff167f17307eab39ab6107e8899845ad3d59bd9653f200f220920489ca2b5937696c31836040516122b69190614c50565b60405180910390a3505050565b6122d76713c89eb54e90a7fa60c01b6117cf565b6122eb670538d94f7b882e3e60c01b6117cf565b6122ff674c29204f2887057860c01b6117cf565b612313678468081c1b1357ac60c01b6117cf565b60008811612356576040517f08c379a000000000000000000000000000000000000000000000000000000000815260040161234d906164a2565b60405180910390fd5b61236a676e3ef9774a73e81360c01b6117cf565b61237e6792491d56385ecc7c60c01b6117cf565b61239267671c0c4d2fe650b160c01b6117cf565b6123a667659d0174fa4f0bff60c01b6117cf565b600087116123e9576040517f08c379a00000000000000000000000000000000000000000000000000000000081526004016123e090616534565b60405180910390fd5b6123fd67cdbe933b2af6fb5960c01b6117cf565b6124116755bc71e6e7ae880b60c01b6117cf565b6124256723a1143aabdc8dbf60c01b6117cf565b612439671c4fadc21c9a16a260c01b6117cf565b6000861161247c576040517f08c379a0000000000000000000000000000000000000000000000000000000008152600401612473906165c6565b60405180910390fd5b61249067cab08564ce9e7e9a60c01b6117cf565b6124a4672886f1eb74b2daa260c01b6117cf565b6124b86707c35272e207b50160c01b6117cf565b6124cc674a0d05ec507fb2d260c01b6117cf565b60008560ff1611612512576040517f08c379a000000000000000000000000000000000000000000000000000000000815260040161250990616658565b60405180910390fd5b61252667984913895d1ff70f60c01b6117cf565b61253a6722604be50b9f041660c01b6117cf565b61254e67a6f1c1f3f7bd99ce60c01b6117cf565b61256267cda8f5d3e2f487d460c01b6117cf565b60008460ff16116125a8576040517f08c379a000000000000000000000000000000000000000000000000000000000815260040161259f906166ea565b60405180910390fd5b6125bc67aebe2a23261a44c960c01b6117cf565b6125d067ce7e659afee2fd0960c01b6117cf565b6125e467fbc6b03b75f5137360c01b6117cf565b6125f867c9a103043bcc7b8360c01b6117cf565b600073ffffffffffffffffffffffffffffffffffffffff168373ffffffffffffffffffffffffffffffffffffffff1603612667576040517f08c379a000000000000000000000000000000000000000000000000000000000815260040161265e9061677c565b60405180910390fd5b61267b671b6a37f959dc428460c01b6117cf565b61268f679a0b07648b2b751060c01b6117cf565b6126a36791ebf62c0998828060c01b6117cf565b6126b7674027c85802a7ec6f60c01b6117cf565b600073ffffffffffffffffffffffffffffffffffffffff168273ffffffffffffffffffffffffffffffffffffffff1603612726576040517f08c379a000000000000000000000000000000000000000000000000000000000815260040161271d9061680e565b60405180910390fd5b61273a673292f22b29e3e13960c01b6117cf565b61274e672e395931805b912360c01b6117cf565b61276267584a79cf25f6ffa160c01b6117cf565b6127766749fd754833b329c860c01b6117cf565b60008151116127ba576040517f08c379a00000000000000000000000000000000000000000000000000000000081526004016127b1906168a0565b60405180910390fd5b6127ce67ef9e355a2508b68b60c01b6117cf565b5050505050505050565b6127ec6774921bc0b184a2ab60c01b6117cf565b6128006733dcf64edbe3045860c01b6117cf565b61281467b1fd9cdd613809dc60c01b6117cf565b61281e8987613454565b612832672fddcd765c8c3ad960c01b6117cf565b6128466798163f36f092930e60c01b6117cf565b6128668989600b60008d81526020019081526020016000205488886134ba565b61287a678fe8f4d30402328560c01b6117cf565b61288e67b21755b43570590b60c01b6117cf565b61289889826135ce565b6128ac677f4706c2f467027060c01b6117cf565b6128c0677a03b4ce36669adc60c01b6117cf565b6128cf898660ff168986613928565b6128e36792aa9b72430d24e360c01b6117cf565b6128f767f9ccfcc82c13a16360c01b6117cf565b61290689898660ff1685614121565b61291a67a3673a6118727ba760c01b6117cf565b61292e67ed6acc35e994de7260c01b6117cf565b7fb79a1263d65160537b9075e0e4747a6007a82fb191be4435b4c508c431920b8989600660008c8152602001908152602001600020600760008d815260200190815260200160002060405161298593929190616359565b60405180910390a16129a167841cbd88491e871360c01b6117cf565b6001600860008b815260200190815260200160002060006101000a81548160ff021916908315150217905550505050505050505050565b600073ffffffffffffffffffffffffffffffffffffffff168473ffffffffffffffffffffffffffffffffffffffff1603612a47576040517f08c379a0000000000000000000000000000000000000000000000000000000008152600401612a3e90615faf565b60405180910390fd5b6000612a516117d5565b90506000612a5e856143ea565b90506000612a6b856143ea565b9050612a7b838989858589612c76565b60006001600088815260200190815260200160002060008a73ffffffffffffffffffffffffffffffffffffffff1673ffffffffffffffffffffffffffffffffffffffff16815260200190815260200160002054905085811015612b13576040517f08c379a0000000000000000000000000000000000000000000000000000000008152600401612b0a90616041565b60405180910390fd5b8581036001600089815260200190815260200160002060008b73ffffffffffffffffffffffffffffffffffffffff1673ffffffffffffffffffffffffffffffffffffffff16815260200190815260200160002081905550856001600089815260200190815260200160002060008a73ffffffffffffffffffffffffffffffffffffffff1673ffffffffffffffffffffffffffffffffffffffff1681526020019081526020016000206000828254612bca9190616061565b925050819055508773ffffffffffffffffffffffffffffffffffffffff168973ffffffffffffffffffffffffffffffffffffffff168573ffffffffffffffffffffffffffffffffffffffff167fc3d58168c5ae7397731d063d5bbf3d657854427343f4c083240f7aacaa2d0f628a8a604051612c479291906168c0565b60405180910390a4612c5d848a8a86868a612c7e565b612c6b848a8a8a8a8a614464565b505050505050505050565b505050505050565b505050505050565b612ca58473ffffffffffffffffffffffffffffffffffffffff1661463b565b15612e55578373ffffffffffffffffffffffffffffffffffffffff1663bc197c8187878686866040518663ffffffff1660e01b8152600401612ceb95949392919061693e565b6020604051808303816000875af1925050508015612d2757506040513d601f19601f82011682018060405250810190612d2491906169bb565b60015b612dcc57612d336169f5565b806308c379a003612d8f5750612d47616a17565b80612d525750612d91565b806040517f08c379a0000000000000000000000000000000000000000000000000000000008152600401612d869190614d28565b60405180910390fd5b505b6040517f08c379a0000000000000000000000000000000000000000000000000000000008152600401612dc390616b19565b60405180910390fd5b63bc197c8160e01b7bffffffffffffffffffffffffffffffffffffffffffffffffffffffff1916817bffffffffffffffffffffffffffffffffffffffffffffffffffffffff191614612e53576040517f08c379a0000000000000000000000000000000000000000000000000000000008152600401612e4a90616bab565b60405180910390fd5b505b505050505050565b6000612e7367aab39f32f9f049ab60c01b6117d2565b612e8767887dde395f1d522e60c01b6117d2565b612e9b674caa06e818c245c160c01b6117d2565b600082519050612eb567ed549561336349ec60c01b6117d2565b612ec9671296c055a742b59860c01b6117d2565b6000612edf67cbd325f4ff70088460c01b6117d2565b612ef367b3e48c32bad79f0260c01b6117d2565b60005b82811015612f4d57612f1267aa564919c913c37660c01b6117d2565b848181518110612f2557612f24615d10565b5b602002602001015182612f389190616061565b91508080612f4590615d3f565b915050612ef6565b50612f62674cd240c926a7be1560c01b6117d2565b612f7667b9c58cd24731482960c01b6117d2565b8092505050919050565b6000612f9667f81d2d9027c7f4e060c01b6117cf565b612faa67282dd1c25857bea260c01b6117cf565b612fbe67d934ebf585d9a65f60c01b6117cf565b600084866064612fce9190616bcb565b612fd89190616c3c565b9050612fee678e5410372587b53560c01b6117cf565b6130026797e22fe287306ce860c01b6117cf565b6000606485856130129190616bcb565b61301c9190616c3c565b90506130326740718e5977e2a44b60c01b6117cf565b61304667deeb2c8c301154fb60c01b6117cf565b6000606483836130569190616bcb565b6130609190616c3c565b9050613076672c7af22f7e784dd760c01b6117cf565b61308a67860a72ea0645479c60c01b6117cf565b809350505050949350505050565b60606130ae67abc3f5eadc84f3d860c01b6117cf565b6130c2676f9e021a4bf51efb60c01b6117cf565b6130d667319d86bc25e5766360c01b6117cf565b6000600267ffffffffffffffff8111156130f3576130f2614e2f565b5b6040519080825280602002602001820160405280156131215781602001602082028036833780820191505090505b509050613138678329589373de574460c01b6117cf565b61314c67c04ccf8b496e238b60c01b6117cf565b6000606460328561315d9190616bcb565b6131679190616c3c565b905061317d67c1ef19729354386e60c01b6117cf565b808260008151811061319257613191615d10565b5b6020026020010181815250506131b267d03ce72e0e171e8460c01b6117cf565b80846131be9190616c6d565b93506131d4679bf6fa4a2bfb7d8860c01b6117cf565b83826001815181106131e9576131e8615d10565b5b60200260200101818152505061320967d369b1ae4aaf4d5c60c01b6117cf565b61321d6795d810699789d02660c01b6117cf565b8192505050919050565b600073ffffffffffffffffffffffffffffffffffffffff168473ffffffffffffffffffffffffffffffffffffffff1603613296576040517f08c379a000000000000000000000000000000000000000000000000000000000815260040161328d90616d13565b60405180910390fd5b81518351146132da576040517f08c379a00000000000000000000000000000000000000000000000000000000081526004016132d190615f1d565b60405180910390fd5b60006132e46117d5565b90506132f581600087878787612c76565b60005b84518110156133af5783818151811061331457613313615d10565b5b60200260200101516001600087848151811061333357613332615d10565b5b6020026020010151815260200190815260200160002060008873ffffffffffffffffffffffffffffffffffffffff1673ffffffffffffffffffffffffffffffffffffffff16815260200190815260200160002060008282546133959190616061565b9250508190555080806133a790615d3f565b9150506132f8565b508473ffffffffffffffffffffffffffffffffffffffff16600073ffffffffffffffffffffffffffffffffffffffff168273ffffffffffffffffffffffffffffffffffffffff167f4a39dc06d4c0dbc64b70af90fd698a233a518aa5d07e595d983b8c0526c8f7fb8787604051613427929190616095565b60405180910390a461343e81600087878787612c7e565b61344d81600087878787612c86565b5050505050565b61346867dce291d7e010780b60c01b6117cf565b61347c670bb7a6e407efc47660c01b6117cf565b42816134889190616061565b905061349e6757aa5249488aa45960c01b6117cf565b80600b6000848152602001908152602001600020819055505050565b6134ce674c743fd509e13ca260c01b6117cf565b6134e2671cd8bc8308ca09a860c01b6117cf565b6134f667e1d00c6ecef3e63660c01b6117cf565b60006009600087815260200190815260200160002090506135216717d03e45f5f4711a60c01b6117cf565b85816000018190555061353e670ca5aa0b5928e3a760c01b6117cf565b84816001018190555061355b67af293111d99b85f060c01b6117cf565b83816003018190555061357867737010027b8cc44960c01b6117cf565b828160040160006101000a81548160ff021916908360ff1602179055506135a9674ce0dec13bc3579160c01b6117cf565b818160040160016101000a81548160ff021916908360ff160217905550505050505050565b6135e267a280eebeed42d79c60c01b6117cf565b6135f667b89870c028d633d260c01b6117cf565b61360a67efc7430a0cf44b0d60c01b6117cf565b6000600267ffffffffffffffff81111561362757613626614e2f565b5b6040519080825280602002602001820160405280156136555781602001602082028036833780820191505090505b50905061366c672618d4ee2346949b60c01b6117cf565b7f4c4f434b45440000000000000000000000000000000000000000000000000000816000815181106136a1576136a0615d10565b5b6020026020010181815250506136c167c7b765deef0d18fe60c01b6117cf565b7f5452414445440000000000000000000000000000000000000000000000000000816001815181106136f6576136f5615d10565b5b602002602001018181525050613716679811dc976b1c36f160c01b6117cf565b61372a67ab8aed532df2d76b60c01b6117cf565b60005b81518160ff1610156139225761374d67bba17983cdabd13360c01b6117cf565b61376167e7524e6bb510413060c01b6117cf565b6005828260ff168151811061377957613778615d10565b5b602002602001015190806001815401808255809150506001900390600052602060002001600090919091909150556137bb6717ecefd70aa16eab60c01b6117cf565b6137cf67bafb3e51f464f8c660c01b6117cf565b600060016005805490506137e39190616c6d565b90506137f967dc33db0eb21ed9a060c01b6117cf565b61380d67661787d79f638ca760c01b6117cf565b600a600086815260200190815260200160002081908060018154018082558091505060019003906000526020600020016000909190919091505561385b67f29e927760c91b4660c01b6117cf565b828260ff168151811061387157613870615d10565b5b6020026020010151600d6000838152602001908152602001600020819055506138a467ee28653b3a46f48c60c01b6117cf565b84600c6000838152602001908152602001600020819055506138d067f83095505e1071c960c01b6117cf565b838260ff16815181106138e6576138e5615d10565b5b6020026020010151600e6000838152602001908152602001600020908161390d9190616edf565b5050808061391a90616fb1565b91505061372d565b50505050565b61393c67836d83570f0cd3a660c01b6117cf565b61395067be97bdc86a34d4c960c01b6117cf565b61396366fa7258db33e83660c01b6117cf565b6000600460009054906101000a900473ffffffffffffffffffffffffffffffffffffffff1673ffffffffffffffffffffffffffffffffffffffff1663c9187fe7866040518263ffffffff1660e01b81526004016139c09190614b95565b600060405180830381865afa1580156139dd573d6000803e3d6000fd5b505050506040513d6000823e3d601f19601f82011682018060405250810190613a06919061712b565b9050613a1c67132444359128480360c01b6117cf565b613a3067815d296fbc8b093960c01b6117cf565b6000613a3b8661465e565b9050613a51670a27e4cbcfee6d1b60c01b6117cf565b613a6567864422b3f98b08ae60c01b6117cf565b6000600960008881526020019081526020016000209050613a90677052205b98ca125960c01b6117cf565b8482613a9c9190616061565b9150613ab26786208709abf5bb9960c01b6117cf565b613ac6674a524ba9e578aed560c01b6117cf565b6000600460009054906101000a900473ffffffffffffffffffffffffffffffffffffffff1673ffffffffffffffffffffffffffffffffffffffff166384ffeca5896040518263ffffffff1660e01b8152600401613b239190614b95565b602060405180830381865afa158015613b40573d6000803e3d6000fd5b505050506040513d601f19601f82011682018060405250810190613b649190617189565b9050613b7a675f8a21eb0406262860c01b6117cf565b613b8e67a889e1f5f41711fd60c01b6117cf565b60005b81811015613fad57613bad67e683444f23e6b69060c01b6117cf565b613bc167164ea45f6885c7da60c01b6117cf565b6000600460009054906101000a900473ffffffffffffffffffffffffffffffffffffffff1673ffffffffffffffffffffffffffffffffffffffff166359a96ffe878481518110613c1457613c13615d10565b5b60200260200101516040518263ffffffff1660e01b8152600401613c3891906171b6565b602060405180830381865afa158015613c55573d6000803e3d6000fd5b505050506040513d601f19601f82011682018060405250810190613c7991906171ed565b9050613c8f67280eb10e9a4788dc60c01b6117cf565b613ca367b0f0eb068548dd0b60c01b6117cf565b6000613d6c600460009054906101000a900473ffffffffffffffffffffffffffffffffffffffff1673ffffffffffffffffffffffffffffffffffffffff16630e47cefa898681518110613cf957613cf8615d10565b5b60200260200101518e6040518363ffffffff1660e01b8152600401613d1f92919061721a565b602060405180830381865afa158015613d3c573d6000803e3d6000fd5b505050506040513d601f19601f82011682018060405250810190613d609190617189565b878c8860010154612f80565b9050613d82674dcdc93d427b393b60c01b6117cf565b613d9667dc0d4903f60c679c60c01b6117cf565b6000613da182613098565b9050613db767394c1c981265dfc360c01b6117cf565b613dcb67c92669fdf108cc6660c01b6117cf565b613e6d83600a60008f8152602001908152602001600020805480602002602001604051908101604052809291908181526020018280548015613e2c57602002820191906000526020600020905b815481526020019060010190808311613e18575b5050505050836040518060400160405280600481526020017f3078303000000000000000000000000000000000000000000000000000000000815250613227565b613e8167aa3daad0320177c160c01b6117cf565b818660020154613e919190616061565b8660020181905550613ead670f7ec44c50154f7e60c01b6117cf565b613ec167374d4e255ee5e29860c01b6117cf565b600660008d8152602001908152602001600020839080600181540180825580915050600190039060005260206000200160009091909190916101000a81548173ffffffffffffffffffffffffffffffffffffffff021916908373ffffffffffffffffffffffffffffffffffffffff160217905550613f49675ac26f54ed569cd260c01b6117cf565b613f5d67c24312526bd0b5e960c01b6117cf565b600760008d81526020019081526020016000208290806001815401808255809150506001900390600052602060002001600090919091909150555050508080613fa590615d3f565b915050613b91565b50613fc267edd6d4270faa2cde60c01b6117cf565b613fd6676e37652b8ffc91d360c01b6117cf565b6000613fea8988868b87600101548b61491a565b905061400067e143cfc2d6d9cb4760c01b6117cf565b8083600201546140109190616061565b836002018190555061402c67a003bbf89cef951f60c01b6117cf565b61404067063692a633bfde5b60c01b6117cf565b600660008a8152602001908152602001600020869080600181540180825580915050600190039060005260206000200160009091909190916101000a81548173ffffffffffffffffffffffffffffffffffffffff021916908373ffffffffffffffffffffffffffffffffffffffff1602179055506140c867c1c67836722281c260c01b6117cf565b6140dc67d9d2ecffbb1397cf60c01b6117cf565b600760008a8152602001908152602001600020819080600181540180825580915050600190039060005260206000200160009091909190915055505050505050505050565b61413567ea653bc968bdc6d960c01b6117cf565b614149674b4422bc7d0c22d960c01b6117cf565b61415d67ed359cbd189201d560c01b6117cf565b6000600960008681526020019081526020016000209050614188675a24d7626b21999d60c01b6117cf565b61419c67313ea1a32143e5a760c01b6117cf565b6000606484866141ac9190616bcb565b6141b69190616c3c565b90506141cc6715046cf8a2f961cc60c01b6117cf565b8082600201546141dc9190616061565b82600201819055506141f867b4a4140a349190b560c01b6117cf565b61420c67fc966f584759813a60c01b6117cf565b600061421782613098565b905061422d67a9f4de7961c386c360c01b6117cf565b6142416747ce4a0ce045f63260c01b6117cf565b60066000888152602001908152602001600020849080600181540180825580915050600190039060005260206000200160009091909190916101000a81548173ffffffffffffffffffffffffffffffffffffffff021916908373ffffffffffffffffffffffffffffffffffffffff1602179055506142c96706897d58a8ffa43160c01b6117cf565b6142dd6788b7ad33a34493af60c01b6117cf565b6007600088815260200190815260200160002082908060018154018082558091505060019003906000526020600020016000909190919091505561432b677d6c90c8c295f84260c01b6117cf565b61433f6782cc11fbdff9205960c01b6117cf565b6143e184600a60008a81526020019081526020016000208054806020026020016040519081016040528092919081815260200182805480156143a057602002820191906000526020600020905b81548152602001906001019080831161438c575b5050505050836040518060400160405280600481526020017f3078303000000000000000000000000000000000000000000000000000000000815250613227565b50505050505050565b60606000600167ffffffffffffffff81111561440957614408614e2f565b5b6040519080825280602002602001820160405280156144375781602001602082028036833780820191505090505b509050828160008151811061444f5761444e615d10565b5b60200260200101818152505080915050919050565b6144838473ffffffffffffffffffffffffffffffffffffffff1661463b565b15614633578373ffffffffffffffffffffffffffffffffffffffff1663f23a6e6187878686866040518663ffffffff1660e01b81526004016144c995949392919061724a565b6020604051808303816000875af192505050801561450557506040513d601f19601f8201168201806040525081019061450291906169bb565b60015b6145aa576145116169f5565b806308c379a00361456d5750614525616a17565b80614530575061456f565b806040517f08c379a00000000000000000000000000000000000000000000000000000000081526004016145649190614d28565b60405180910390fd5b505b6040517f08c379a00000000000000000000000000000000000000000000000000000000081526004016145a190616b19565b60405180910390fd5b63f23a6e6160e01b7bffffffffffffffffffffffffffffffffffffffffffffffffffffffff1916817bffffffffffffffffffffffffffffffffffffffffffffffffffffffff191614614631576040517f08c379a000000000000000000000000000000000000000000000000000000000815260040161462890616bab565b60405180910390fd5b505b505050505050565b6000808273ffffffffffffffffffffffffffffffffffffffff163b119050919050565b600061467467db6891394d62f65060c01b6117cf565b61468867a9747bd63961f6a760c01b6117cf565b61469c676b356cb0aadede3d60c01b6117cf565b6000600460009054906101000a900473ffffffffffffffffffffffffffffffffffffffff1673ffffffffffffffffffffffffffffffffffffffff1663c9187fe7846040518263ffffffff1660e01b81526004016146f99190614b95565b600060405180830381865afa158015614716573d6000803e3d6000fd5b505050506040513d6000823e3d601f19601f8201168201806040525081019061473f919061712b565b90506147556758e7482b5844cc7d60c01b6117cf565b614769672fcc187a6eb9bd5d60c01b6117cf565b600061477f676d8cba0421998ff760c01b6117cf565b61479367fc9c9548ccd49e2960c01b6117cf565b6000825190506147ad6791fd09e3ba4dc57f60c01b6117cf565b6147c167c19ee0d0340bdf1960c01b6117cf565b60005b818110156148e6576147e06755ef1202937c189860c01b6117cf565b6147f4679b8635bababd7cd560c01b6117cf565b6000600460009054906101000a900473ffffffffffffffffffffffffffffffffffffffff1673ffffffffffffffffffffffffffffffffffffffff16630e47cefa86848151811061484757614846615d10565b5b6020026020010151896040518363ffffffff1660e01b815260040161486d92919061721a565b602060405180830381865afa15801561488a573d6000803e3d6000fd5b505050506040513d601f19601f820116820180604052508101906148ae9190617189565b90506148c4673713c0cb0f3a7a0960c01b6117cf565b80846148d09190616061565b93505080806148de90615d3f565b9150506147c4565b506148fb6752b1ed2d46c8304c60c01b6117cf565b61490f676e8fb6e8d40efa7360c01b6117cf565b819350505050919050565b600061493067ae9084963bc3455a60c01b6117cf565b61494467b9a5b29730f2e2b260c01b6117cf565b614958671fe0275ae3c5ecd960c01b6117cf565b600061496687878787612f80565b905061497c678b282cad192c5fb360c01b6117cf565b614990678419153d5d05889460c01b6117cf565b600061499b82613098565b90506149b1670191dd807a806c5f60c01b6117cf565b6149c567ff432fe7bf83145f60c01b6117cf565b614a6784600a60008c8152602001908152602001600020805480602002602001604051908101604052809291908181526020018280548015614a2657602002820191906000526020600020905b815481526020019060010190808311614a12575b5050505050836040518060400160405280600481526020017f3078303000000000000000000000000000000000000000000000000000000000815250613227565b614a7b671a13af6cfe9d6d6060c01b6117cf565b614a8f6762c98aafb53f225060c01b6117cf565b81925050509695505050505050565b6000604051905090565b600080fd5b600080fd5b600073ffffffffffffffffffffffffffffffffffffffff82169050919050565b6000614add82614ab2565b9050919050565b614aed81614ad2565b8114614af857600080fd5b50565b600081359050614b0a81614ae4565b92915050565b6000819050919050565b614b2381614b10565b8114614b2e57600080fd5b50565b600081359050614b4081614b1a565b92915050565b60008060408385031215614b5d57614b5c614aa8565b5b6000614b6b85828601614afb565b9250506020614b7c85828601614b31565b9150509250929050565b614b8f81614b10565b82525050565b6000602082019050614baa6000830184614b86565b92915050565b60007fffffffff0000000000000000000000000000000000000000000000000000000082169050919050565b614be581614bb0565b8114614bf057600080fd5b50565b600081359050614c0281614bdc565b92915050565b600060208284031215614c1e57614c1d614aa8565b5b6000614c2c84828501614bf3565b91505092915050565b60008115159050919050565b614c4a81614c35565b82525050565b6000602082019050614c656000830184614c41565b92915050565b600060208284031215614c8157614c80614aa8565b5b6000614c8f84828501614b31565b91505092915050565b600081519050919050565b600082825260208201905092915050565b60005b83811015614cd2578082015181840152602081019050614cb7565b60008484015250505050565b6000601f19601f8301169050919050565b6000614cfa82614c98565b614d048185614ca3565b9350614d14818560208601614cb4565b614d1d81614cde565b840191505092915050565b60006020820190508181036000830152614d428184614cef565b905092915050565b600081519050919050565b600082825260208201905092915050565b6000819050602082019050919050565b614d7f81614b10565b82525050565b6000614d918383614d76565b60208301905092915050565b6000602082019050919050565b6000614db582614d4a565b614dbf8185614d55565b9350614dca83614d66565b8060005b83811015614dfb578151614de28882614d85565b9750614ded83614d9d565b925050600181019050614dce565b5085935050505092915050565b60006020820190508181036000830152614e228184614daa565b905092915050565b600080fd5b7f4e487b7100000000000000000000000000000000000000000000000000000000600052604160045260246000fd5b614e6782614cde565b810181811067ffffffffffffffff82111715614e8657614e85614e2f565b5b80604052505050565b6000614e99614a9e565b9050614ea58282614e5e565b919050565b600067ffffffffffffffff821115614ec557614ec4614e2f565b5b602082029050602081019050919050565b600080fd5b6000614eee614ee984614eaa565b614e8f565b90508083825260208201905060208402830185811115614f1157614f10614ed6565b5b835b81811015614f3a5780614f268882614b31565b845260208401935050602081019050614f13565b5050509392505050565b600082601f830112614f5957614f58614e2a565b5b8135614f69848260208601614edb565b91505092915050565b600080fd5b600067ffffffffffffffff821115614f9257614f91614e2f565b5b614f9b82614cde565b9050602081019050919050565b82818337600083830152505050565b6000614fca614fc584614f77565b614e8f565b905082815260208101848484011115614fe657614fe5614f72565b5b614ff1848285614fa8565b509392505050565b600082601f83011261500e5761500d614e2a565b5b813561501e848260208601614fb7565b91505092915050565b600080600080600060a0868803121561504357615042614aa8565b5b600061505188828901614afb565b955050602061506288828901614afb565b945050604086013567ffffffffffffffff81111561508357615082614aad565b5b61508f88828901614f44565b935050606086013567ffffffffffffffff8111156150b0576150af614aad565b5b6150bc88828901614f44565b925050608086013567ffffffffffffffff8111156150dd576150dc614aad565b5b6150e988828901614ff9565b9150509295509295909350565b600060ff82169050919050565b61510c816150f6565b811461511757600080fd5b50565b60008135905061512981615103565b92915050565b600067ffffffffffffffff82111561514a57615149614e2f565b5b602082029050602081019050919050565b600061516e6151698461512f565b614e8f565b9050808382526020820190506020840283018581111561519157615190614ed6565b5b835b818110156151ba57806151a68882614afb565b845260208401935050602081019050615193565b5050509392505050565b600082601f8301126151d9576151d8614e2a565b5b81356151e984826020860161515b565b91505092915050565b6000806000806080858703121561520c5761520b614aa8565b5b600061521a87828801614b31565b945050602061522b8782880161511a565b935050604085013567ffffffffffffffff81111561524c5761524b614aad565b5b61525887828801614f44565b925050606085013567ffffffffffffffff81111561527957615278614aad565b5b615285878288016151c4565b91505092959194509250565b600080604083850312156152a8576152a7614aa8565b5b600083013567ffffffffffffffff8111156152c6576152c5614aad565b5b6152d2858286016151c4565b925050602083013567ffffffffffffffff8111156152f3576152f2614aad565b5b6152ff85828601614f44565b9150509250929050565b600081519050919050565b600082825260208201905092915050565b6000819050602082019050919050565b61533e81614ad2565b82525050565b60006153508383615335565b60208301905092915050565b6000602082019050919050565b600061537482615309565b61537e8185615314565b935061538983615325565b8060005b838110156153ba5781516153a18882615344565b97506153ac8361535c565b92505060018101905061538d565b5085935050505092915050565b600060208201905081810360008301526153e18184615369565b905092915050565b6153f281614ad2565b82525050565b600060208201905061540d60008301846153e9565b92915050565b61541c81614c35565b811461542757600080fd5b50565b60008135905061543981615413565b92915050565b6000806040838503121561545657615455614aa8565b5b600061546485828601614afb565b92505060206154758582860161542a565b9150509250929050565b600067ffffffffffffffff82111561549a57615499614e2f565b5b602082029050602081019050919050565b600067ffffffffffffffff8211156154c6576154c5614e2f565b5b6154cf82614cde565b9050602081019050919050565b60006154ef6154ea846154ab565b614e8f565b90508281526020810184848401111561550b5761550a614f72565b5b615516848285614fa8565b509392505050565b600082601f83011261553357615532614e2a565b5b81356155438482602086016154dc565b91505092915050565b600061555f61555a8461547f565b614e8f565b9050808382526020820190506020840283018581111561558257615581614ed6565b5b835b818110156155c957803567ffffffffffffffff8111156155a7576155a6614e2a565b5b8086016155b4898261551e565b85526020850194505050602081019050615584565b5050509392505050565b600082601f8301126155e8576155e7614e2a565b5b81356155f884826020860161554c565b91505092915050565b60008060008060008060008060006101208a8c03121561562457615623614aa8565b5b60006156328c828d01614b31565b99505060206156438c828d01614b31565b98505060406156548c828d01614b31565b97505060606156658c828d01614b31565b96505060806156768c828d0161511a565b95505060a06156878c828d0161511a565b94505060c06156988c828d01614afb565b93505060e06156a98c828d01614afb565b9250506101008a013567ffffffffffffffff8111156156cb576156ca614aad565b5b6156d78c828d016155d3565b9150509295985092959850929598565b600080604083850312156156fe576156fd614aa8565b5b600061570c85828601614afb565b925050602061571d85828601614afb565b9150509250929050565b600080600080600060a0868803121561574357615742614aa8565b5b600061575188828901614afb565b955050602061576288828901614afb565b945050604061577388828901614b31565b935050606061578488828901614b31565b925050608086013567ffffffffffffffff8111156157a5576157a4614aad565b5b6157b188828901614ff9565b9150509295509295909350565b6000602082840312156157d4576157d3614aa8565b5b60006157e284828501614afb565b91505092915050565b6157f4816150f6565b82525050565b600060808201905061580f6000830187614b86565b61581c60208301866157eb565b61582960408301856157eb565b61583660608301846157eb565b95945050505050565b7f455243313135353a2061646472657373207a65726f206973206e6f742061207660008201527f616c6964206f776e657200000000000000000000000000000000000000000000602082015250565b600061589b602a83614ca3565b91506158a68261583f565b604082019050919050565b600060208201905081810360008301526158ca8161588e565b9050919050565b7f4e487b7100000000000000000000000000000000000000000000000000000000600052602260045260246000fd5b6000600282049050600182168061591857607f821691505b60208210810361592b5761592a6158d1565b5b50919050565b7f455243313135353a2063616c6c6572206973206e6f7420746f6b656e206f776e60008201527f6572206f7220617070726f766564000000000000000000000000000000000000602082015250565b600061598d602e83614ca3565b915061599882615931565b604082019050919050565b600060208201905081810360008301526159bc81615980565b9050919050565b7f52454a5556453a2046757475726520736861726473206469737472696275746560008201527f6420616c72656164790000000000000000000000000000000000000000000000602082015250565b6000615a1f602983614ca3565b9150615a2a826159c3565b604082019050919050565b60006020820190508181036000830152615a4e81615a12565b9050919050565b7f52454a5556453a204675747572652070657263656e742063616e6e6f7420626560008201527f207a65726f000000000000000000000000000000000000000000000000000000602082015250565b6000615ab1602583614ca3565b9150615abc82615a55565b604082019050919050565b60006020820190508181036000830152615ae081615aa4565b9050919050565b7f4e487b7100000000000000000000000000000000000000000000000000000000600052601160045260246000fd5b6000615b21826150f6565b9150615b2c836150f6565b9250828201905060ff811115615b4557615b44615ae7565b5b92915050565b6000615b56826150f6565b9150615b61836150f6565b9250828203905060ff811115615b7a57615b79615ae7565b5b92915050565b7f52454a5556453a204675747572652070657263656e742065786365656473206160008201527f7661696c61626c65206c696d6974000000000000000000000000000000000000602082015250565b6000615bdc602e83614ca3565b9150615be782615b80565b604082019050919050565b60006020820190508181036000830152615c0b81615bcf565b9050919050565b7f52454a5556453a204e6f7420657175616c206c656e6774680000000000000000600082015250565b6000615c48601883614ca3565b9150615c5382615c12565b602082019050919050565b60006020820190508181036000830152615c7781615c3b565b9050919050565b7f455243313135353a206163636f756e747320616e6420696473206c656e67746860008201527f206d69736d617463680000000000000000000000000000000000000000000000602082015250565b6000615cda602983614ca3565b9150615ce582615c7e565b604082019050919050565b60006020820190508181036000830152615d0981615ccd565b9050919050565b7f4e487b7100000000000000000000000000000000000000000000000000000000600052603260045260246000fd5b6000615d4a82614b10565b91507fffffffffffffffffffffffffffffffffffffffffffffffffffffffffffffffff8203615d7c57615d7b615ae7565b5b600182019050919050565b7f52454a5556453a20496e697469616c207368617264732064697374726962757460008201527f656420616c726561647900000000000000000000000000000000000000000000602082015250565b6000615de3602a83614ca3565b9150615dee82615d87565b604082019050919050565b60006020820190508181036000830152615e1281615dd6565b9050919050565b7f4f776e61626c653a206e6577206f776e657220697320746865207a65726f206160008201527f6464726573730000000000000000000000000000000000000000000000000000602082015250565b6000615e75602683614ca3565b9150615e8082615e19565b604082019050919050565b60006020820190508181036000830152615ea481615e68565b9050919050565b7f455243313135353a2069647320616e6420616d6f756e7473206c656e6774682060008201527f6d69736d61746368000000000000000000000000000000000000000000000000602082015250565b6000615f07602883614ca3565b9150615f1282615eab565b604082019050919050565b60006020820190508181036000830152615f3681615efa565b9050919050565b7f455243313135353a207472616e7366657220746f20746865207a65726f20616460008201527f6472657373000000000000000000000000000000000000000000000000000000602082015250565b6000615f99602583614ca3565b9150615fa482615f3d565b604082019050919050565b60006020820190508181036000830152615fc881615f8c565b9050919050565b7f455243313135353a20696e73756666696369656e742062616c616e636520666f60008201527f72207472616e7366657200000000000000000000000000000000000000000000602082015250565b600061602b602a83614ca3565b915061603682615fcf565b604082019050919050565b6000602082019050818103600083015261605a8161601e565b9050919050565b600061606c82614b10565b915061607783614b10565b925082820190508082111561608f5761608e615ae7565b5b92915050565b600060408201905081810360008301526160af8185614daa565b905081810360208301526160c38184614daa565b90509392505050565b7f4f776e61626c653a2063616c6c6572206973206e6f7420746865206f776e6572600082015250565b6000616102602083614ca3565b915061610d826160cc565b602082019050919050565b60006020820190508181036000830152616131816160f5565b9050919050565b7f5061757361626c653a2070617573656400000000000000000000000000000000600082015250565b600061616e601083614ca3565b915061617982616138565b602082019050919050565b6000602082019050818103600083015261619d81616161565b9050919050565b600081549050919050565b60008190508160005260206000209050919050565b60008160001c9050919050565b600073ffffffffffffffffffffffffffffffffffffffff82169050919050565b60006162046161ff836161c4565b6161d1565b9050919050565b600061621782546161f1565b9050919050565b6000600182019050919050565b6000616236826161a4565b6162408185615314565b935061624b836161af565b8060005b83811015616283576162608261620b565b61626a8882615344565b97506162758361621e565b92505060018101905061624f565b5085935050505092915050565b600081549050919050565b60008190508160005260206000209050919050565b6000819050919050565b60006162cd6162c8836161c4565b6162b0565b9050919050565b60006162e082546162ba565b9050919050565b6000600182019050919050565b60006162ff82616290565b6163098185614d55565b93506163148361629b565b8060005b8381101561634c57616329826162d4565b6163338882614d85565b975061633e836162e7565b925050600181019050616318565b5085935050505092915050565b600060608201905061636e6000830186614b86565b8181036020830152616380818561622b565b9050818103604083015261639481846162f4565b9050949350505050565b7f455243313135353a2073657474696e6720617070726f76616c2073746174757360008201527f20666f722073656c660000000000000000000000000000000000000000000000602082015250565b60006163fa602983614ca3565b91506164058261639e565b604082019050919050565b60006020820190508181036000830152616429816163ed565b9050919050565b7f52454a5556453a2054617267657420737570706c792063616e6e6f742062652060008201527f7a65726f00000000000000000000000000000000000000000000000000000000602082015250565b600061648c602483614ca3565b915061649782616430565b604082019050919050565b600060208201905081810360008301526164bb8161647f565b9050919050565b7f52454a5556453a204c6162206372656469742063616e6e6f74206265207a657260008201527f6f00000000000000000000000000000000000000000000000000000000000000602082015250565b600061651e602183614ca3565b9150616529826164c2565b604082019050919050565b6000602082019050818103600083015261654d81616511565b9050919050565b7f52454a5556453a204c6f636b20706572696f642063616e6e6f74206265207a6560008201527f726f000000000000000000000000000000000000000000000000000000000000602082015250565b60006165b0602283614ca3565b91506165bb82616554565b604082019050919050565b600060208201905081810360008301526165df816165a3565b9050919050565b7f52454a5556453a20496e697469616c2070657263656e742063616e6e6f74206260008201527f65207a65726f0000000000000000000000000000000000000000000000000000602082015250565b6000616642602683614ca3565b915061664d826165e6565b604082019050919050565b6000602082019050818103600083015261667181616635565b9050919050565b7f52454a5556453a2052656a7576652070657263656e742063616e6e6f7420626560008201527f207a65726f000000000000000000000000000000000000000000000000000000602082015250565b60006166d4602583614ca3565b91506166df82616678565b604082019050919050565b60006020820190508181036000830152616703816166c7565b9050919050565b7f52454a5556453a204c616220616464726573732063616e6e6f74206265207a6560008201527f726f000000000000000000000000000000000000000000000000000000000000602082015250565b6000616766602283614ca3565b91506167718261670a565b604082019050919050565b6000602082019050818103600083015261679581616759565b9050919050565b7f52454a5556453a2052656a75766520616464726573732063616e6e6f7420626560008201527f207a65726f000000000000000000000000000000000000000000000000000000602082015250565b60006167f8602583614ca3565b91506168038261679c565b604082019050919050565b60006020820190508181036000830152616827816167eb565b9050919050565b7f52454a5556453a2055524973206c656e6774682063616e6e6f74206265207a6560008201527f726f000000000000000000000000000000000000000000000000000000000000602082015250565b600061688a602283614ca3565b91506168958261682e565b604082019050919050565b600060208201905081810360008301526168b98161687d565b9050919050565b60006040820190506168d56000830185614b86565b6168e26020830184614b86565b9392505050565b600081519050919050565b600082825260208201905092915050565b6000616910826168e9565b61691a81856168f4565b935061692a818560208601614cb4565b61693381614cde565b840191505092915050565b600060a08201905061695360008301886153e9565b61696060208301876153e9565b81810360408301526169728186614daa565b905081810360608301526169868185614daa565b9050818103608083015261699a8184616905565b90509695505050505050565b6000815190506169b581614bdc565b92915050565b6000602082840312156169d1576169d0614aa8565b5b60006169df848285016169a6565b91505092915050565b60008160e01c9050919050565b600060033d1115616a145760046000803e616a116000516169e8565b90505b90565b600060443d10616aa457616a29614a9e565b60043d036004823e80513d602482011167ffffffffffffffff82111715616a51575050616aa4565b808201805167ffffffffffffffff811115616a6f5750505050616aa4565b80602083010160043d038501811115616a8c575050505050616aa4565b616a9b82602001850186614e5e565b82955050505050505b90565b7f455243313135353a207472616e7366657220746f206e6f6e2d4552433131353560008201527f526563656976657220696d706c656d656e746572000000000000000000000000602082015250565b6000616b03603483614ca3565b9150616b0e82616aa7565b604082019050919050565b60006020820190508181036000830152616b3281616af6565b9050919050565b7f455243313135353a204552433131353552656365697665722072656a6563746560008201527f6420746f6b656e73000000000000000000000000000000000000000000000000602082015250565b6000616b95602883614ca3565b9150616ba082616b39565b604082019050919050565b60006020820190508181036000830152616bc481616b88565b9050919050565b6000616bd682614b10565b9150616be183614b10565b9250828202616bef81614b10565b91508282048414831517616c0657616c05615ae7565b5b5092915050565b7f4e487b7100000000000000000000000000000000000000000000000000000000600052601260045260246000fd5b6000616c4782614b10565b9150616c5283614b10565b925082616c6257616c61616c0d565b5b828204905092915050565b6000616c7882614b10565b9150616c8383614b10565b9250828203905081811115616c9b57616c9a615ae7565b5b92915050565b7f455243313135353a206d696e7420746f20746865207a65726f2061646472657360008201527f7300000000000000000000000000000000000000000000000000000000000000602082015250565b6000616cfd602183614ca3565b9150616d0882616ca1565b604082019050919050565b60006020820190508181036000830152616d2c81616cf0565b9050919050565b60008190508160005260206000209050919050565b60006020601f8301049050919050565b600082821b905092915050565b600060088302616d957fffffffffffffffffffffffffffffffffffffffffffffffffffffffffffffffff82616d58565b616d9f8683616d58565b95508019841693508086168417925050509392505050565b6000819050919050565b6000616ddc616dd7616dd284614b10565b616db7565b614b10565b9050919050565b6000819050919050565b616df683616dc1565b616e0a616e0282616de3565b848454616d65565b825550505050565b600090565b616e1f616e12565b616e2a818484616ded565b505050565b5b81811015616e4e57616e43600082616e17565b600181019050616e30565b5050565b601f821115616e9357616e6481616d33565b616e6d84616d48565b81016020851015616e7c578190505b616e90616e8885616d48565b830182616e2f565b50505b505050565b600082821c905092915050565b6000616eb660001984600802616e98565b1980831691505092915050565b6000616ecf8383616ea5565b9150826002028217905092915050565b616ee882614c98565b67ffffffffffffffff811115616f0157616f00614e2f565b5b616f0b8254615900565b616f16828285616e52565b600060209050601f831160018114616f495760008415616f37578287015190505b616f418582616ec3565b865550616fa9565b601f198416616f5786616d33565b60005b82811015616f7f57848901518255600182019150602085019450602081019050616f5a565b86831015616f9c5784890151616f98601f891682616ea5565b8355505b6001600288020188555050505b505050505050565b6000616fbc826150f6565b915060ff8203616fcf57616fce615ae7565b5b600182019050919050565b600067ffffffffffffffff821115616ff557616ff4614e2f565b5b602082029050602081019050919050565b600061701961701484614f77565b614e8f565b90508281526020810184848401111561703557617034614f72565b5b617040848285614cb4565b509392505050565b600082601f83011261705d5761705c614e2a565b5b815161706d848260208601617006565b91505092915050565b600061708961708484616fda565b614e8f565b905080838252602082019050602084028301858111156170ac576170ab614ed6565b5b835b818110156170f357805167ffffffffffffffff8111156170d1576170d0614e2a565b5b8086016170de8982617048565b855260208501945050506020810190506170ae565b5050509392505050565b600082601f83011261711257617111614e2a565b5b8151617122848260208601617076565b91505092915050565b60006020828403121561714157617140614aa8565b5b600082015167ffffffffffffffff81111561715f5761715e614aad565b5b61716b848285016170fd565b91505092915050565b60008151905061718381614b1a565b92915050565b60006020828403121561719f5761719e614aa8565b5b60006171ad84828501617174565b91505092915050565b600060208201905081810360008301526171d08184616905565b905092915050565b6000815190506171e781614ae4565b92915050565b60006020828403121561720357617202614aa8565b5b6000617211848285016171d8565b91505092915050565b600060408201905081810360008301526172348185616905565b90506172436020830184614b86565b9392505050565b600060a08201905061725f60008301886153e9565b61726c60208301876153e9565b6172796040830186614b86565b6172866060830185614b86565b81810360808301526172988184616905565b9050969550505050505056fea264697066735822122021e6dbe8b339c2fef391a5f7cca7402644b97de60db0a1fa9183aa546055080d64736f6c63430008130033",
  "linkReferences": {},
  "deployedLinkReferences": {}
}