{
  "_format": "hh-sol-artifact-1",
  "contractName": "FutureShards",
  "sourceName": "contracts/FutureShards.sol",
  "abi": [
    {
      "inputs": [
        {
          "internalType": "string",
          "name": "uri",
          "type": "string"
        },
        {
          "internalType": "address",
          "name": "productNFT",
          "type": "address"
        }
      ],
      "stateMutability": "nonpayable",
      "type": "constructor"
    },
    {
      "anonymous": false,
      "inputs": [
        {
          "indexed": true,
          "internalType": "address",
          "name": "account",
          "type": "address"
        },
        {
          "indexed": true,
          "internalType": "address",
          "name": "operator",
          "type": "address"
        },
        {
          "indexed": false,
          "internalType": "bool",
          "name": "approved",
          "type": "bool"
        }
      ],
      "name": "ApprovalForAll",
      "type": "event"
    },
    {
      "anonymous": false,
      "inputs": [
        {
          "indexed": false,
          "internalType": "uint256",
          "name": "productUID",
          "type": "uint256"
        },
        {
          "indexed": false,
          "internalType": "address[]",
          "name": "dataOwners",
          "type": "address[]"
        },
        {
          "indexed": false,
          "internalType": "uint256[]",
          "name": "shardAmount",
          "type": "uint256[]"
        }
      ],
      "name": "FutureShardDistributed",
      "type": "event"
    },
    {
      "anonymous": false,
      "inputs": [
        {
          "indexed": false,
          "internalType": "uint256",
          "name": "productUID",
          "type": "uint256"
        },
        {
          "indexed": false,
          "internalType": "address[]",
          "name": "dataOwners",
          "type": "address[]"
        },
        {
          "indexed": false,
          "internalType": "uint256[]",
          "name": "shardAmount",
          "type": "uint256[]"
        }
      ],
      "name": "InitialShardDistributed",
      "type": "event"
    },
    {
      "anonymous": false,
      "inputs": [
        {
          "indexed": true,
          "internalType": "address",
          "name": "previousOwner",
          "type": "address"
        },
        {
          "indexed": true,
          "internalType": "address",
          "name": "newOwner",
          "type": "address"
        }
      ],
      "name": "OwnershipTransferred",
      "type": "event"
    },
    {
      "anonymous": false,
      "inputs": [
        {
          "indexed": false,
          "internalType": "address",
          "name": "account",
          "type": "address"
        }
      ],
      "name": "Paused",
      "type": "event"
    },
    {
      "anonymous": false,
      "inputs": [
        {
          "indexed": false,
          "internalType": "uint256",
          "name": "productUID",
          "type": "uint256"
        },
        {
          "indexed": false,
          "internalType": "address",
          "name": "rejuve",
          "type": "address"
        },
        {
          "indexed": false,
          "internalType": "uint256",
          "name": "shardAmount",
          "type": "uint256"
        }
      ],
      "name": "RemainingShardAllocated",
      "type": "event"
    },
    {
      "anonymous": false,
      "inputs": [
        {
          "indexed": true,
          "internalType": "address",
          "name": "operator",
          "type": "address"
        },
        {
          "indexed": true,
          "internalType": "address",
          "name": "from",
          "type": "address"
        },
        {
          "indexed": true,
          "internalType": "address",
          "name": "to",
          "type": "address"
        },
        {
          "indexed": false,
          "internalType": "uint256[]",
          "name": "ids",
          "type": "uint256[]"
        },
        {
          "indexed": false,
          "internalType": "uint256[]",
          "name": "values",
          "type": "uint256[]"
        }
      ],
      "name": "TransferBatch",
      "type": "event"
    },
    {
      "anonymous": false,
      "inputs": [
        {
          "indexed": true,
          "internalType": "address",
          "name": "operator",
          "type": "address"
        },
        {
          "indexed": true,
          "internalType": "address",
          "name": "from",
          "type": "address"
        },
        {
          "indexed": true,
          "internalType": "address",
          "name": "to",
          "type": "address"
        },
        {
          "indexed": false,
          "internalType": "uint256",
          "name": "id",
          "type": "uint256"
        },
        {
          "indexed": false,
          "internalType": "uint256",
          "name": "value",
          "type": "uint256"
        }
      ],
      "name": "TransferSingle",
      "type": "event"
    },
    {
      "anonymous": false,
      "inputs": [
        {
          "indexed": false,
          "internalType": "string",
          "name": "value",
          "type": "string"
        },
        {
          "indexed": true,
          "internalType": "uint256",
          "name": "id",
          "type": "uint256"
        }
      ],
      "name": "URI",
      "type": "event"
    },
    {
      "anonymous": false,
      "inputs": [
        {
          "indexed": false,
          "internalType": "address",
          "name": "account",
          "type": "address"
        }
      ],
      "name": "Unpaused",
      "type": "event"
    },
    {
      "inputs": [
        {
          "internalType": "address",
          "name": "account",
          "type": "address"
        },
        {
          "internalType": "uint256",
          "name": "id",
          "type": "uint256"
        }
      ],
      "name": "balanceOf",
      "outputs": [
        {
          "internalType": "uint256",
          "name": "",
          "type": "uint256"
        }
      ],
      "stateMutability": "view",
      "type": "function"
    },
    {
      "inputs": [
        {
          "internalType": "address[]",
          "name": "accounts",
          "type": "address[]"
        },
        {
          "internalType": "uint256[]",
          "name": "ids",
          "type": "uint256[]"
        }
      ],
      "name": "balanceOfBatch",
      "outputs": [
        {
          "internalType": "uint256[]",
          "name": "",
          "type": "uint256[]"
        }
      ],
      "stateMutability": "view",
      "type": "function"
    },
    {
      "inputs": [
        {
          "internalType": "uint256",
          "name": "productUID",
          "type": "uint256"
        },
        {
          "internalType": "uint8",
          "name": "futurePercent",
          "type": "uint8"
        },
        {
          "internalType": "uint256[]",
          "name": "credits",
          "type": "uint256[]"
        },
        {
          "internalType": "address[]",
          "name": "futureContributors",
          "type": "address[]"
        }
      ],
      "name": "distributeFutureShards",
      "outputs": [],
      "stateMutability": "nonpayable",
      "type": "function"
    },
    {
      "inputs": [
        {
          "internalType": "uint256",
          "name": "productUID",
          "type": "uint256"
        },
        {
          "internalType": "uint256",
          "name": "targetSupply_",
          "type": "uint256"
        },
        {
          "internalType": "uint256",
          "name": "labCredit",
          "type": "uint256"
        },
        {
          "internalType": "uint256",
          "name": "lockPeriod",
          "type": "uint256"
        },
        {
          "internalType": "uint8",
          "name": "initialPercent",
          "type": "uint8"
        },
        {
          "internalType": "uint8",
          "name": "rejuvePercent",
          "type": "uint8"
        },
        {
          "internalType": "address",
          "name": "lab",
          "type": "address"
        },
        {
          "internalType": "address",
          "name": "rejuve",
          "type": "address"
        },
        {
          "internalType": "string[]",
          "name": "uris",
          "type": "string[]"
        }
      ],
      "name": "distributeInitialShards",
      "outputs": [],
      "stateMutability": "nonpayable",
      "type": "function"
    },
    {
      "inputs": [
        {
          "internalType": "uint256",
          "name": "productUID",
          "type": "uint256"
        }
      ],
      "name": "getProductIDs",
      "outputs": [
        {
          "internalType": "uint256[]",
          "name": "",
          "type": "uint256[]"
        }
      ],
      "stateMutability": "view",
      "type": "function"
    },
    {
      "inputs": [
        {
          "internalType": "uint256",
          "name": "productUID",
          "type": "uint256"
        }
      ],
      "name": "getShardsConfig",
      "outputs": [
        {
          "internalType": "uint256",
          "name": "",
          "type": "uint256"
        },
        {
          "internalType": "uint8",
          "name": "",
          "type": "uint8"
        },
        {
          "internalType": "uint8",
          "name": "",
          "type": "uint8"
        },
        {
          "internalType": "uint8",
          "name": "",
          "type": "uint8"
        }
      ],
      "stateMutability": "view",
      "type": "function"
    },
    {
      "inputs": [
        {
          "internalType": "address",
          "name": "account",
          "type": "address"
        },
        {
          "internalType": "address",
          "name": "operator",
          "type": "address"
        }
      ],
      "name": "isApprovedForAll",
      "outputs": [
        {
          "internalType": "bool",
          "name": "",
          "type": "bool"
        }
      ],
      "stateMutability": "view",
      "type": "function"
    },
    {
      "inputs": [],
      "name": "owner",
      "outputs": [
        {
          "internalType": "address",
          "name": "",
          "type": "address"
        }
      ],
      "stateMutability": "view",
      "type": "function"
    },
    {
      "inputs": [],
      "name": "paused",
      "outputs": [
        {
          "internalType": "bool",
          "name": "",
          "type": "bool"
        }
      ],
      "stateMutability": "view",
      "type": "function"
    },
    {
      "inputs": [],
      "name": "renounceOwnership",
      "outputs": [],
      "stateMutability": "nonpayable",
      "type": "function"
    },
    {
      "inputs": [
        {
          "internalType": "address",
          "name": "from",
          "type": "address"
        },
        {
          "internalType": "address",
          "name": "to",
          "type": "address"
        },
        {
          "internalType": "uint256[]",
          "name": "ids",
          "type": "uint256[]"
        },
        {
          "internalType": "uint256[]",
          "name": "amounts",
          "type": "uint256[]"
        },
        {
          "internalType": "bytes",
          "name": "data",
          "type": "bytes"
        }
      ],
      "name": "safeBatchTransferFrom",
      "outputs": [],
      "stateMutability": "nonpayable",
      "type": "function"
    },
    {
      "inputs": [
        {
          "internalType": "address",
          "name": "from",
          "type": "address"
        },
        {
          "internalType": "address",
          "name": "to",
          "type": "address"
        },
        {
          "internalType": "uint256",
          "name": "id",
          "type": "uint256"
        },
        {
          "internalType": "uint256",
          "name": "amount",
          "type": "uint256"
        },
        {
          "internalType": "bytes",
          "name": "data",
          "type": "bytes"
        }
      ],
      "name": "safeTransferFrom",
      "outputs": [],
      "stateMutability": "nonpayable",
      "type": "function"
    },
    {
      "inputs": [
        {
          "internalType": "address",
          "name": "operator",
          "type": "address"
        },
        {
          "internalType": "bool",
          "name": "approved",
          "type": "bool"
        }
      ],
      "name": "setApprovalForAll",
      "outputs": [],
      "stateMutability": "nonpayable",
      "type": "function"
    },
    {
      "inputs": [
        {
          "internalType": "bytes4",
          "name": "interfaceId",
          "type": "bytes4"
        }
      ],
      "name": "supportsInterface",
      "outputs": [
        {
          "internalType": "bool",
          "name": "",
          "type": "bool"
        }
      ],
      "stateMutability": "view",
      "type": "function"
    },
    {
      "inputs": [
        {
          "internalType": "uint256",
          "name": "productUID",
          "type": "uint256"
        }
      ],
      "name": "targetSupply",
      "outputs": [
        {
          "internalType": "uint256",
          "name": "",
          "type": "uint256"
        }
      ],
      "stateMutability": "view",
      "type": "function"
    },
    {
      "inputs": [
        {
          "internalType": "uint256",
          "name": "productUID",
          "type": "uint256"
        }
      ],
      "name": "totalShardSupply",
      "outputs": [
        {
          "internalType": "uint256",
          "name": "",
          "type": "uint256"
        }
      ],
      "stateMutability": "view",
      "type": "function"
    },
    {
      "inputs": [
        {
          "internalType": "address",
          "name": "newOwner",
          "type": "address"
        }
      ],
      "name": "transferOwnership",
      "outputs": [],
      "stateMutability": "nonpayable",
      "type": "function"
    },
    {
      "inputs": [
        {
          "internalType": "uint256",
          "name": "id",
          "type": "uint256"
        }
      ],
      "name": "uri",
      "outputs": [
        {
          "internalType": "string",
          "name": "",
          "type": "string"
        }
      ],
      "stateMutability": "view",
      "type": "function"
    }
  ],
  "bytecode": "0x60806040523480156200001157600080fd5b506040516200702e3803806200702e833981810160405281019062000037919062000404565b8181816200005a6200004e6200012560201b60201c565b6200012d60201b60201c565b60008060146101000a81548160ff0219169083151502179055506200008581620001f160201b60201c565b50620000a2679bf6fa4a2bfb7d8860c01b6200020660201b60201c565b620000be67d369b1ae4aaf4d5c60c01b6200020660201b60201c565b80600460006101000a81548173ffffffffffffffffffffffffffffffffffffffff021916908373ffffffffffffffffffffffffffffffffffffffff16021790555050506200011d677c5b2bceb7e2acfb60c01b6200020960201b60201c565b50506200079c565b600033905090565b60008060009054906101000a900473ffffffffffffffffffffffffffffffffffffffff169050816000806101000a81548173ffffffffffffffffffffffffffffffffffffffff021916908373ffffffffffffffffffffffffffffffffffffffff1602179055508173ffffffffffffffffffffffffffffffffffffffff168173ffffffffffffffffffffffffffffffffffffffff167f8be0079c531659141344cd1fd0a4f28419497f9722a3daafe3b4186f6b6457e060405160405180910390a35050565b8060039081620002029190620006b5565b5050565b50565b50565b6000604051905090565b600080fd5b600080fd5b600080fd5b600080fd5b6000601f19601f8301169050919050565b7f4e487b7100000000000000000000000000000000000000000000000000000000600052604160045260246000fd5b62000275826200022a565b810181811067ffffffffffffffff821117156200029757620002966200023b565b5b80604052505050565b6000620002ac6200020c565b9050620002ba82826200026a565b919050565b600067ffffffffffffffff821115620002dd57620002dc6200023b565b5b620002e8826200022a565b9050602081019050919050565b60005b8381101562000315578082015181840152602081019050620002f8565b60008484015250505050565b6000620003386200033284620002bf565b620002a0565b90508281526020810184848401111562000357576200035662000225565b5b62000364848285620002f5565b509392505050565b600082601f83011262000384576200038362000220565b5b81516200039684826020860162000321565b91505092915050565b600073ffffffffffffffffffffffffffffffffffffffff82169050919050565b6000620003cc826200039f565b9050919050565b620003de81620003bf565b8114620003ea57600080fd5b50565b600081519050620003fe81620003d3565b92915050565b600080604083850312156200041e576200041d62000216565b5b600083015167ffffffffffffffff8111156200043f576200043e6200021b565b5b6200044d858286016200036c565b92505060206200046085828601620003ed565b9150509250929050565b600081519050919050565b7f4e487b7100000000000000000000000000000000000000000000000000000000600052602260045260246000fd5b60006002820490506001821680620004bd57607f821691505b602082108103620004d357620004d262000475565b5b50919050565b60008190508160005260206000209050919050565b60006020601f8301049050919050565b600082821b905092915050565b6000600883026200053d7fffffffffffffffffffffffffffffffffffffffffffffffffffffffffffffffff82620004fe565b620005498683620004fe565b95508019841693508086168417925050509392505050565b6000819050919050565b6000819050919050565b600062000596620005906200058a8462000561565b6200056b565b62000561565b9050919050565b6000819050919050565b620005b28362000575565b620005ca620005c1826200059d565b8484546200050b565b825550505050565b600090565b620005e1620005d2565b620005ee818484620005a7565b505050565b5b8181101562000616576200060a600082620005d7565b600181019050620005f4565b5050565b601f82111562000665576200062f81620004d9565b6200063a84620004ee565b810160208510156200064a578190505b620006626200065985620004ee565b830182620005f3565b50505b505050565b600082821c905092915050565b60006200068a600019846008026200066a565b1980831691505092915050565b6000620006a5838362000677565b9150826002028217905092915050565b620006c0826200046a565b67ffffffffffffffff811115620006dc57620006db6200023b565b5b620006e88254620004a4565b620006f58282856200061a565b600060209050601f8311600181146200072d576000841562000718578287015190505b62000724858262000697565b86555062000794565b601f1984166200073d86620004d9565b60005b82811015620007675784890151825560018201915060208501945060208101905062000740565b8683101562000787578489015162000783601f89168262000677565b8355505b6001600288020188555050505b505050505050565b61688280620007ac6000396000f3fe608060405234801561001057600080fd5b50600436106101155760003560e01c80638da5cb5b116100a2578063d6e0dbda11610071578063d6e0dbda146102f0578063e985e9c514610320578063f242432a14610350578063f2fde38b1461036c578063fac795c01461038857610115565b80638da5cb5b1461026a578063936906f114610288578063a22cb465146102b8578063d429c758146102d457610115565b80634567db03116100e95780634567db03146101c65780634e1273f4146101e25780634e57d942146102125780635c975abb14610242578063715018a61461026057610115565b8062fdd58e1461011a57806301ffc9a71461014a5780630e89341c1461017a5780632eb2c2d6146101aa575b600080fd5b610134600480360381019061012f91906142eb565b6103bb565b604051610141919061433a565b60405180910390f35b610164600480360381019061015f91906143ad565b610484565b60405161017191906143f5565b60405180910390f35b610194600480360381019061018f9190614410565b610566565b6040516101a191906144cd565b60405180910390f35b6101c460048036038101906101bf91906146ec565b610647565b005b6101e060048036038101906101db91906148b7565b6106e8565b005b6101fc60048036038101906101f79190614956565b610796565b6040516102099190614a8c565b60405180910390f35b61022c60048036038101906102279190614410565b6108af565b6040516102399190614a8c565b60405180910390f35b61024a610956565b60405161025791906143f5565b60405180910390f35b61026861096c565b005b610272610980565b60405161027f9190614abd565b60405180910390f35b6102a2600480360381019061029d9190614410565b6109a9565b6040516102af919061433a565b60405180910390f35b6102d260048036038101906102cd9190614b04565b610a05565b005b6102ee60048036038101906102e99190614cc6565b610a1b565b005b61030a60048036038101906103059190614410565b610b0b565b604051610317919061433a565b60405180910390f35b61033a60048036038101906103359190614dac565b610b67565b60405161034791906143f5565b60405180910390f35b61036a60048036038101906103659190614dec565b610bfb565b005b61038660048036038101906103819190614e83565b610c9c565b005b6103a2600480360381019061039d9190614410565b610d1f565b6040516103b29493929190614ebf565b60405180910390f35b60008073ffffffffffffffffffffffffffffffffffffffff168373ffffffffffffffffffffffffffffffffffffffff160361042b576040517f08c379a000000000000000000000000000000000000000000000000000000000815260040161042290614f76565b60405180910390fd5b6001600083815260200190815260200160002060008473ffffffffffffffffffffffffffffffffffffffff1673ffffffffffffffffffffffffffffffffffffffff16815260200190815260200160002054905092915050565b60007fd9b67a26000000000000000000000000000000000000000000000000000000007bffffffffffffffffffffffffffffffffffffffffffffffffffffffff1916827bffffffffffffffffffffffffffffffffffffffffffffffffffffffff1916148061054f57507f0e89341c000000000000000000000000000000000000000000000000000000007bffffffffffffffffffffffffffffffffffffffffffffffffffffffff1916827bffffffffffffffffffffffffffffffffffffffffffffffffffffffff1916145b8061055f575061055e82610df3565b5b9050919050565b606061057c67aebe2a23261a44c960c01b610e5d565b61059067ce7e659afee2fd0960c01b610e5d565b6105a467fbc6b03b75f5137360c01b610e5d565b600e600083815260200190815260200160002080546105c290614fc5565b80601f01602080910402602001604051908101604052809291908181526020018280546105ee90614fc5565b801561063b5780601f106106105761010080835404028352916020019161063b565b820191906000526020600020905b81548152906001019060200180831161061e57829003601f168201915b50505050509050919050565b61064f610e60565b73ffffffffffffffffffffffffffffffffffffffff168573ffffffffffffffffffffffffffffffffffffffff16148061069557506106948561068f610e60565b610b67565b5b6106d4576040517f08c379a00000000000000000000000000000000000000000000000000000000081526004016106cb90615068565b60405180910390fd5b6106e18585858585610e68565b5050505050565b6106fc6733578609a1f8ef7360c01b61118c565b61070461118f565b6107186798b63c1a2b18905160c01b61118c565b61072c678cf79652b5470b0f60c01b61118c565b61073461120d565b61074867c0982fa7b02a7d6960c01b61118c565b61075c67a6a0ecddc878f43f60c01b61118c565b61077067ebb2c6301f3574f560c01b61118c565b610784670eaeb8e1594b741a60c01b61118c565b61079084848484611257565b50505050565b606081518351146107dc576040517f08c379a00000000000000000000000000000000000000000000000000000000081526004016107d3906150fa565b60405180910390fd5b6000835167ffffffffffffffff8111156107f9576107f86144f4565b5b6040519080825280602002602001820160405280156108275781602001602082028036833780820191505090505b50905060005b84518110156108a45761087485828151811061084c5761084b61511a565b5b60200260200101518583815181106108675761086661511a565b5b60200260200101516103bb565b8282815181106108875761088661511a565b5b6020026020010181815250508061089d90615178565b905061082d565b508091505092915050565b60606108c56722604be50b9f041660c01b610e5d565b6108d967a6f1c1f3f7bd99ce60c01b610e5d565b6108ed67cda8f5d3e2f487d460c01b610e5d565b600a600083815260200190815260200160002080548060200260200160405190810160405280929190818152602001828054801561094a57602002820191906000526020600020905b815481526020019060010190808311610936575b50505050509050919050565b60008060149054906101000a900460ff16905090565b61097461118f565b61097e600061170e565b565b60008060009054906101000a900473ffffffffffffffffffffffffffffffffffffffff16905090565b60006109bf671c4fadc21c9a16a260c01b610e5d565b6109d367cab08564ce9e7e9a60c01b610e5d565b6109e7672886f1eb74b2daa260c01b610e5d565b60096000838152602001908152602001600020600101549050919050565b610a17610a10610e60565b83836117d2565b5050565b610a2f67b342c3f70da31b7d60c01b610e5d565b610a3761118f565b610a4b679f9dc97fb189442060c01b610e5d565b610a5f676fd38ff7e78a1d3f60c01b610e5d565b610a6761120d565b610a7b677fddb75df20bea7f60c01b610e5d565b610a8f678468081c1b1357ac60c01b610e5d565b610aa3676e3ef9774a73e81360c01b610e5d565b610ab76792491d56385ecc7c60c01b610e5d565b610ac7888888888888888861193e565b610adb67671c0c4d2fe650b160c01b610e5d565b610aef67659d0174fa4f0bff60c01b610e5d565b610b00898989898989898989611e53565b505050505050505050565b6000610b2167cdbe933b2af6fb5960c01b610e5d565b610b356755bc71e6e7ae880b60c01b610e5d565b610b496723a1143aabdc8dbf60c01b610e5d565b60096000838152602001908152602001600020600201549050919050565b6000600260008473ffffffffffffffffffffffffffffffffffffffff1673ffffffffffffffffffffffffffffffffffffffff16815260200190815260200160002060008373ffffffffffffffffffffffffffffffffffffffff1673ffffffffffffffffffffffffffffffffffffffff16815260200190815260200160002060009054906101000a900460ff16905092915050565b610c03610e60565b73ffffffffffffffffffffffffffffffffffffffff168573ffffffffffffffffffffffffffffffffffffffff161480610c495750610c4885610c43610e60565b610b67565b5b610c88576040517f08c379a0000000000000000000000000000000000000000000000000000000008152600401610c7f90615068565b60405180910390fd5b610c958585858585612020565b5050505050565b610ca461118f565b600073ffffffffffffffffffffffffffffffffffffffff168173ffffffffffffffffffffffffffffffffffffffff1603610d13576040517f08c379a0000000000000000000000000000000000000000000000000000000008152600401610d0a90615232565b60405180910390fd5b610d1c8161170e565b50565b600080600080610d396707c35272e207b50160c01b610e5d565b610d4d674a0d05ec507fb2d260c01b610e5d565b610d6167984913895d1ff70f60c01b610e5d565b60096000868152602001908152602001600020600301546009600087815260200190815260200160002060040160009054906101000a900460ff166009600088815260200190815260200160002060040160029054906101000a900460ff166009600089815260200190815260200160002060040160019054906101000a900460ff1693509350935093509193509193565b60007f01ffc9a7000000000000000000000000000000000000000000000000000000007bffffffffffffffffffffffffffffffffffffffffffffffffffffffff1916827bffffffffffffffffffffffffffffffffffffffffffffffffffffffff1916149050919050565b50565b600033905090565b8151835114610eac576040517f08c379a0000000000000000000000000000000000000000000000000000000008152600401610ea3906152c4565b60405180910390fd5b600073ffffffffffffffffffffffffffffffffffffffff168473ffffffffffffffffffffffffffffffffffffffff1603610f1b576040517f08c379a0000000000000000000000000000000000000000000000000000000008152600401610f1290615356565b60405180910390fd5b6000610f25610e60565b9050610f358187878787876122be565b60005b84518110156110e9576000858281518110610f5657610f5561511a565b5b602002602001015190506000858381518110610f7557610f7461511a565b5b6020026020010151905060006001600084815260200190815260200160002060008b73ffffffffffffffffffffffffffffffffffffffff1673ffffffffffffffffffffffffffffffffffffffff16815260200190815260200160002054905081811015611017576040517f08c379a000000000000000000000000000000000000000000000000000000000815260040161100e906153e8565b60405180910390fd5b8181036001600085815260200190815260200160002060008c73ffffffffffffffffffffffffffffffffffffffff1673ffffffffffffffffffffffffffffffffffffffff16815260200190815260200160002081905550816001600085815260200190815260200160002060008b73ffffffffffffffffffffffffffffffffffffffff1673ffffffffffffffffffffffffffffffffffffffff16815260200190815260200160002060008282546110ce9190615408565b92505081905550505050806110e290615178565b9050610f38565b508473ffffffffffffffffffffffffffffffffffffffff168673ffffffffffffffffffffffffffffffffffffffff168273ffffffffffffffffffffffffffffffffffffffff167f4a39dc06d4c0dbc64b70af90fd698a233a518aa5d07e595d983b8c0526c8f7fb878760405161116092919061543c565b60405180910390a46111768187878787876122c6565b6111848187878787876122ce565b505050505050565b50565b611197610e60565b73ffffffffffffffffffffffffffffffffffffffff166111b5610980565b73ffffffffffffffffffffffffffffffffffffffff161461120b576040517f08c379a0000000000000000000000000000000000000000000000000000000008152600401611202906154bf565b60405180910390fd5b565b611215610956565b15611255576040517f08c379a000000000000000000000000000000000000000000000000000000000815260040161124c9061552b565b60405180910390fd5b565b61126b67c8c135c23763939460c01b61118c565b61127f6787939176ec5c68ce60c01b61118c565b61129367ca904eb40a8a5e8160c01b61118c565b6112a767d272ab39f7ebe03260c01b61118c565b81518151146112eb576040517f08c379a00000000000000000000000000000000000000000000000000000000081526004016112e290615597565b60405180910390fd5b6112ff6715bb95e89cc0740660c01b61118c565b61131367960ce4cc78d094f560c01b61118c565b611327676ba29e2eb5c1e03260c01b61118c565b61133b67afc3d419495d802560c01b61118c565b60008360ff1603611381576040517f08c379a000000000000000000000000000000000000000000000000000000000815260040161137890615629565b60405180910390fd5b611395679a5ec14ad3f8ace860c01b61118c565b6113a96746b810f4220f89e760c01b61118c565b6113bd6720d6b1425ac26f6a60c01b61118c565b60006009600086815260200190815260200160002090506113e867e8505f32451b4cc860c01b61118c565b838160040160026101000a81548160ff021916908360ff160217905550611419671d64548f02b1f43460c01b61118c565b61142d677c171f77e704781860c01b61118c565b6000611438846124a5565b905061144e67f0b6553bda0cc9d160c01b61118c565b61146267aab39f32f9f049ab60c01b61118c565b60005b83518110156116725761148267887dde395f1d522e60c01b61118c565b611496674caa06e818c245c160c01b61118c565b60006114c58683815181106114ae576114ad61511a565b5b6020026020010151848960ff16876001015461259a565b90506114db67ed549561336349ec60c01b61118c565b6114ef671296c055a742b59860c01b61118c565b60006114fa826126b2565b905061151067cbd325f4ff70088460c01b61118c565b61152467b3e48c32bad79f0260c01b61118c565b6115e086848151811061153a5761153961511a565b5b6020026020010151600a60008c815260200190815260200160002080548060200260200160405190810160405280929190818152602001828054801561159f57602002820191906000526020600020905b81548152602001906001019080831161158b575b5050505050836040518060400160405280600481526020017f3078303000000000000000000000000000000000000000000000000000000000815250612841565b6115f467aa564919c913c37660c01b61118c565b8185600201546116049190615408565b8560020181905550611620674cd240c926a7be1560c01b61118c565b61163467b9c58cd24731482960c01b61118c565b60108290806001815401808255809150506001900390600052602060002001600090919091909150555050808061166a90615178565b915050611465565b5061168767a48ab05dd391769760c01b61118c565b61169b674dcdafbaefbfd95560c01b61118c565b7f621e1a59d70685f53a28114e1229586ecd6908416f6bfaee0e147c3d34f39845868460106040516116cf939291906157dd565b60405180910390a16116eb67b3527ece4b8403c260c01b61118c565b6001600f60006101000a81548160ff021916908315150217905550505050505050565b60008060009054906101000a900473ffffffffffffffffffffffffffffffffffffffff169050816000806101000a81548173ffffffffffffffffffffffffffffffffffffffff021916908373ffffffffffffffffffffffffffffffffffffffff1602179055508173ffffffffffffffffffffffffffffffffffffffff168173ffffffffffffffffffffffffffffffffffffffff167f8be0079c531659141344cd1fd0a4f28419497f9722a3daafe3b4186f6b6457e060405160405180910390a35050565b8173ffffffffffffffffffffffffffffffffffffffff168373ffffffffffffffffffffffffffffffffffffffff1603611840576040517f08c379a000000000000000000000000000000000000000000000000000000000815260040161183790615894565b60405180910390fd5b80600260008573ffffffffffffffffffffffffffffffffffffffff1673ffffffffffffffffffffffffffffffffffffffff16815260200190815260200160002060008473ffffffffffffffffffffffffffffffffffffffff1673ffffffffffffffffffffffffffffffffffffffff16815260200190815260200160002060006101000a81548160ff0219169083151502179055508173ffffffffffffffffffffffffffffffffffffffff168373ffffffffffffffffffffffffffffffffffffffff167f17307eab39ab6107e8899845ad3d59bd9653f200f220920489ca2b5937696c318360405161193191906143f5565b60405180910390a3505050565b6119526792aa9b72430d24e360c01b610e5d565b61196667f9ccfcc82c13a16360c01b610e5d565b61197a67a3673a6118727ba760c01b610e5d565b61198e67ed6acc35e994de7260c01b610e5d565b600088116119d1576040517f08c379a00000000000000000000000000000000000000000000000000000000081526004016119c890615926565b60405180910390fd5b6119e567841cbd88491e871360c01b610e5d565b6119f967dce291d7e010780b60c01b610e5d565b611a0d670bb7a6e407efc47660c01b610e5d565b611a216757aa5249488aa45960c01b610e5d565b60008711611a64576040517f08c379a0000000000000000000000000000000000000000000000000000000008152600401611a5b906159b8565b60405180910390fd5b611a78674c743fd509e13ca260c01b610e5d565b611a8c671cd8bc8308ca09a860c01b610e5d565b611aa067e1d00c6ecef3e63660c01b610e5d565b611ab46717d03e45f5f4711a60c01b610e5d565b60008611611af7576040517f08c379a0000000000000000000000000000000000000000000000000000000008152600401611aee90615a4a565b60405180910390fd5b611b0b670ca5aa0b5928e3a760c01b610e5d565b611b1f67af293111d99b85f060c01b610e5d565b611b3367737010027b8cc44960c01b610e5d565b611b47674ce0dec13bc3579160c01b610e5d565b60008560ff1611611b8d576040517f08c379a0000000000000000000000000000000000000000000000000000000008152600401611b8490615adc565b60405180910390fd5b611ba167a280eebeed42d79c60c01b610e5d565b611bb567b89870c028d633d260c01b610e5d565b611bc967efc7430a0cf44b0d60c01b610e5d565b611bdd672618d4ee2346949b60c01b610e5d565b60008460ff1611611c23576040517f08c379a0000000000000000000000000000000000000000000000000000000008152600401611c1a90615b6e565b60405180910390fd5b611c3767c7b765deef0d18fe60c01b610e5d565b611c4b679811dc976b1c36f160c01b610e5d565b611c5f67ab8aed532df2d76b60c01b610e5d565b611c7367bba17983cdabd13360c01b610e5d565b600073ffffffffffffffffffffffffffffffffffffffff168373ffffffffffffffffffffffffffffffffffffffff1603611ce2576040517f08c379a0000000000000000000000000000000000000000000000000000000008152600401611cd990615c00565b60405180910390fd5b611cf667e7524e6bb510413060c01b610e5d565b611d0a6717ecefd70aa16eab60c01b610e5d565b611d1e67bafb3e51f464f8c660c01b610e5d565b611d3267dc33db0eb21ed9a060c01b610e5d565b600073ffffffffffffffffffffffffffffffffffffffff168273ffffffffffffffffffffffffffffffffffffffff1603611da1576040517f08c379a0000000000000000000000000000000000000000000000000000000008152600401611d9890615c92565b60405180910390fd5b611db567661787d79f638ca760c01b610e5d565b611dc967f29e927760c91b4660c01b610e5d565b611ddd67ee28653b3a46f48c60c01b610e5d565b611df167f83095505e1071c960c01b610e5d565b6000815111611e35576040517f08c379a0000000000000000000000000000000000000000000000000000000008152600401611e2c90615d24565b60405180910390fd5b611e4967836d83570f0cd3a660c01b610e5d565b5050505050505050565b611e6767be97bdc86a34d4c960c01b610e5d565b611e7a66fa7258db33e83660c01b610e5d565b611e8e67132444359128480360c01b610e5d565b611e988987612a6e565b611eac67815d296fbc8b093960c01b610e5d565b611ec0670a27e4cbcfee6d1b60c01b610e5d565b611ee08989600b60008d8152602001908152602001600020548888612ad4565b611ef467864422b3f98b08ae60c01b610e5d565b611f08677052205b98ca125960c01b610e5d565b611f128982612be8565b611f266786208709abf5bb9960c01b610e5d565b611f3a674a524ba9e578aed560c01b610e5d565b611f4a89898760ff168a87612f84565b611f5e675f8a21eb0406262860c01b610e5d565b611f7267a889e1f5f41711fd60c01b610e5d565b611f818989848760ff16613705565b611f9567e683444f23e6b69060c01b610e5d565b611fa967164ea45f6885c7da60c01b610e5d565b7fb79a1263d65160537b9075e0e4747a6007a82fb191be4435b4c508c431920b898960066007604051611fde93929190615e23565b60405180910390a1611ffa67280eb10e9a4788dc60c01b610e5d565b6001600860006101000a81548160ff021916908315150217905550505050505050505050565b600073ffffffffffffffffffffffffffffffffffffffff168473ffffffffffffffffffffffffffffffffffffffff160361208f576040517f08c379a000000000000000000000000000000000000000000000000000000000815260040161208690615356565b60405180910390fd5b6000612099610e60565b905060006120a6856139dc565b905060006120b3856139dc565b90506120c38389898585896122be565b60006001600088815260200190815260200160002060008a73ffffffffffffffffffffffffffffffffffffffff1673ffffffffffffffffffffffffffffffffffffffff1681526020019081526020016000205490508581101561215b576040517f08c379a0000000000000000000000000000000000000000000000000000000008152600401612152906153e8565b60405180910390fd5b8581036001600089815260200190815260200160002060008b73ffffffffffffffffffffffffffffffffffffffff1673ffffffffffffffffffffffffffffffffffffffff16815260200190815260200160002081905550856001600089815260200190815260200160002060008a73ffffffffffffffffffffffffffffffffffffffff1673ffffffffffffffffffffffffffffffffffffffff16815260200190815260200160002060008282546122129190615408565b925050819055508773ffffffffffffffffffffffffffffffffffffffff168973ffffffffffffffffffffffffffffffffffffffff168573ffffffffffffffffffffffffffffffffffffffff167fc3d58168c5ae7397731d063d5bbf3d657854427343f4c083240f7aacaa2d0f628a8a60405161228f929190615e68565b60405180910390a46122a5848a8a86868a6122c6565b6122b3848a8a8a8a8a613a56565b505050505050505050565b505050505050565b505050505050565b6122ed8473ffffffffffffffffffffffffffffffffffffffff16613c2d565b1561249d578373ffffffffffffffffffffffffffffffffffffffff1663bc197c8187878686866040518663ffffffff1660e01b8152600401612333959493929190615ee6565b6020604051808303816000875af192505050801561236f57506040513d601f19601f8201168201806040525081019061236c9190615f63565b60015b6124145761237b615f9d565b806308c379a0036123d7575061238f615fbf565b8061239a57506123d9565b806040517f08c379a00000000000000000000000000000000000000000000000000000000081526004016123ce91906144cd565b60405180910390fd5b505b6040517f08c379a000000000000000000000000000000000000000000000000000000000815260040161240b906160c1565b60405180910390fd5b63bc197c8160e01b7bffffffffffffffffffffffffffffffffffffffffffffffffffffffff1916817bffffffffffffffffffffffffffffffffffffffffffffffffffffffff19161461249b576040517f08c379a000000000000000000000000000000000000000000000000000000000815260040161249290616153565b60405180910390fd5b505b505050505050565b60006124bb67bd947eaacfbca90f60c01b61118c565b6124cf674a123d60b2673ade60c01b61118c565b6124e36759adcff8f89894c360c01b61118c565b60006124f967314e3132f1de969460c01b61118c565b61250d67ea32be6d128effd960c01b61118c565b60005b83518110156125685761252d673afc7035c537439660c01b61118c565b8381815181106125405761253f61511a565b5b6020026020010151826125539190615408565b9150808061256090615178565b915050612510565b5061257d67b8ebafd1b513364060c01b61118c565b612591679a75ecffa73048d660c01b61118c565b80915050919050565b60006125b067c9a103043bcc7b8360c01b610e5d565b6125c4671b6a37f959dc428460c01b610e5d565b6125d8679a0b07648b2b751060c01b610e5d565b6000848660646125e89190616173565b6125f291906161e4565b90506126086791ebf62c0998828060c01b610e5d565b61261c674027c85802a7ec6f60c01b610e5d565b60006064858561262c9190616173565b61263691906161e4565b905061264c673292f22b29e3e13960c01b610e5d565b612660672e395931805b912360c01b610e5d565b6000606483836126709190616173565b61267a91906161e4565b905061269067584a79cf25f6ffa160c01b610e5d565b6126a46749fd754833b329c860c01b610e5d565b809350505050949350505050565b60606126c867ef9e355a2508b68b60c01b610e5d565b6126dc6774921bc0b184a2ab60c01b610e5d565b6126f06733dcf64edbe3045860c01b610e5d565b6000600267ffffffffffffffff81111561270d5761270c6144f4565b5b60405190808252806020026020018201604052801561273b5781602001602082028036833780820191505090505b50905061275267b1fd9cdd613809dc60c01b610e5d565b612766672fddcd765c8c3ad960c01b610e5d565b600060646032856127779190616173565b61278191906161e4565b90506127976798163f36f092930e60c01b610e5d565b80826000815181106127ac576127ab61511a565b5b6020026020010181815250506127cc678fe8f4d30402328560c01b610e5d565b80846127d89190616215565b93506127ee67b21755b43570590b60c01b610e5d565b83826001815181106128035761280261511a565b5b602002602001018181525050612823677f4706c2f467027060c01b610e5d565b612837677a03b4ce36669adc60c01b610e5d565b8192505050919050565b600073ffffffffffffffffffffffffffffffffffffffff168473ffffffffffffffffffffffffffffffffffffffff16036128b0576040517f08c379a00000000000000000000000000000000000000000000000000000000081526004016128a7906162bb565b60405180910390fd5b81518351146128f4576040517f08c379a00000000000000000000000000000000000000000000000000000000081526004016128eb906152c4565b60405180910390fd5b60006128fe610e60565b905061290f816000878787876122be565b60005b84518110156129c95783818151811061292e5761292d61511a565b5b60200260200101516001600087848151811061294d5761294c61511a565b5b6020026020010151815260200190815260200160002060008873ffffffffffffffffffffffffffffffffffffffff1673ffffffffffffffffffffffffffffffffffffffff16815260200190815260200160002060008282546129af9190615408565b9250508190555080806129c190615178565b915050612912565b508473ffffffffffffffffffffffffffffffffffffffff16600073ffffffffffffffffffffffffffffffffffffffff168273ffffffffffffffffffffffffffffffffffffffff167f4a39dc06d4c0dbc64b70af90fd698a233a518aa5d07e595d983b8c0526c8f7fb8787604051612a4192919061543c565b60405180910390a4612a58816000878787876122c6565b612a67816000878787876122ce565b5050505050565b612a8267b0f0eb068548dd0b60c01b610e5d565b612a96674dcdc93d427b393b60c01b610e5d565b4281612aa29190615408565b9050612ab867dc0d4903f60c679c60c01b610e5d565b80600b6000848152602001908152602001600020819055505050565b612ae867394c1c981265dfc360c01b610e5d565b612afc67c92669fdf108cc6660c01b610e5d565b612b1067aa3daad0320177c160c01b610e5d565b6000600960008781526020019081526020016000209050612b3b670f7ec44c50154f7e60c01b610e5d565b858160000181905550612b5867374d4e255ee5e29860c01b610e5d565b848160010181905550612b75675ac26f54ed569cd260c01b610e5d565b838160030181905550612b9267c24312526bd0b5e960c01b610e5d565b828160040160006101000a81548160ff021916908360ff160217905550612bc367edd6d4270faa2cde60c01b610e5d565b818160040160016101000a81548160ff021916908360ff160217905550505050505050565b612bfc676e37652b8ffc91d360c01b610e5d565b612c1067e143cfc2d6d9cb4760c01b610e5d565b612c2467a003bbf89cef951f60c01b610e5d565b6000600267ffffffffffffffff811115612c4157612c406144f4565b5b604051908082528060200260200182016040528015612c7457816020015b6060815260200190600190039081612c5f5790505b509050612c8b67063692a633bfde5b60c01b610e5d565b6040518060400160405280600681526020017f4c4f434b4544000000000000000000000000000000000000000000000000000081525081600081518110612cd557612cd461511a565b5b6020026020010181905250612cf467c1c67836722281c260c01b610e5d565b6040518060400160405280600681526020017f545241444544000000000000000000000000000000000000000000000000000081525081600181518110612d3e57612d3d61511a565b5b6020026020010181905250612d5d67d9d2ecffbb1397cf60c01b610e5d565b612d7167ea653bc968bdc6d960c01b610e5d565b60005b81518160ff161015612f7e57612d94674b4422bc7d0c22d960c01b610e5d565b612da867ed359cbd189201d560c01b610e5d565b6005828260ff1681518110612dc057612dbf61511a565b5b6020026020010151908060018154018082558091505060019003906000526020600020016000909190919091509081612df99190616487565b50612e0e675a24d7626b21999d60c01b610e5d565b612e2267313ea1a32143e5a760c01b610e5d565b60006001600580549050612e369190616215565b9050612e4c6715046cf8a2f961cc60c01b610e5d565b612e6067b4a4140a349190b560c01b610e5d565b600a6000868152602001908152602001600020819080600181540180825580915050600190039060005260206000200160009091909190915055612eae67fc966f584759813a60c01b610e5d565b828260ff1681518110612ec457612ec361511a565b5b6020026020010151600d60008381526020019081526020016000209081612eeb9190616487565b50612f0067a9f4de7961c386c360c01b610e5d565b84600c600083815260200190815260200160002081905550612f2c6747ce4a0ce045f63260c01b610e5d565b838260ff1681518110612f4257612f4161511a565b5b6020026020010151600e60008381526020019081526020016000209081612f699190616487565b50508080612f7690616559565b915050612d74565b50505050565b612f986706897d58a8ffa43160c01b610e5d565b612fac6788b7ad33a34493af60c01b610e5d565b612fc0677d6c90c8c295f84260c01b610e5d565b6000600460009054906101000a900473ffffffffffffffffffffffffffffffffffffffff1673ffffffffffffffffffffffffffffffffffffffff1663c9187fe7876040518263ffffffff1660e01b815260040161301d919061433a565b600060405180830381865afa15801561303a573d6000803e3d6000fd5b505050506040513d6000823e3d601f19601f8201168201806040525081019061306391906166d3565b90506130796782cc11fbdff9205960c01b610e5d565b61308d67ae9084963bc3455a60c01b610e5d565b600061309887613c50565b90506130ae67b9a5b29730f2e2b260c01b610e5d565b6130c2671fe0275ae3c5ecd960c01b610e5d565b60006009600089815260200190815260200160002090506130ed678b282cad192c5fb360c01b610e5d565b84826130f99190615408565b915061310f678419153d5d05889460c01b610e5d565b613123670191dd807a806c5f60c01b610e5d565b60005b600460009054906101000a900473ffffffffffffffffffffffffffffffffffffffff1673ffffffffffffffffffffffffffffffffffffffff166384ffeca58a6040518263ffffffff1660e01b8152600401613181919061433a565b602060405180830381865afa15801561319e573d6000803e3d6000fd5b505050506040513d601f19601f820116820180604052508101906131c29190616731565b8110156135b7576131dd67ff432fe7bf83145f60c01b610e5d565b6131f1671a13af6cfe9d6d6060c01b610e5d565b6000600460009054906101000a900473ffffffffffffffffffffffffffffffffffffffff1673ffffffffffffffffffffffffffffffffffffffff166359a96ffe8684815181106132445761324361511a565b5b60200260200101516040518263ffffffff1660e01b8152600401613268919061675e565b602060405180830381865afa158015613285573d6000803e3d6000fd5b505050506040513d601f19601f820116820180604052508101906132a99190616795565b90506132bf6762c98aafb53f225060c01b610e5d565b6132d367db6891394d62f65060c01b610e5d565b6000613398600460009054906101000a900473ffffffffffffffffffffffffffffffffffffffff1673ffffffffffffffffffffffffffffffffffffffff16630e47cefa8886815181106133295761332861511a565b5b60200260200101518e6040518363ffffffff1660e01b815260040161334f9291906167c2565b602060405180830381865afa15801561336c573d6000803e3d6000fd5b505050506040513d601f19601f820116820180604052508101906133909190616731565b868b8d61259a565b90506133ae67a9747bd63961f6a760c01b610e5d565b6133c2676b356cb0aadede3d60c01b610e5d565b60006133cd826126b2565b90506133e36758e7482b5844cc7d60c01b610e5d565b6133f7672fcc187a6eb9bd5d60c01b610e5d565b61349983600a60008f815260200190815260200160002080548060200260200160405190810160405280929190818152602001828054801561345857602002820191906000526020600020905b815481526020019060010190808311613444575b5050505050836040518060400160405280600481526020017f3078303000000000000000000000000000000000000000000000000000000000815250612841565b6134ad676d8cba0421998ff760c01b610e5d565b8185600201546134bd9190615408565b85600201819055506134d967fc9c9548ccd49e2960c01b610e5d565b6134ed6791fd09e3ba4dc57f60c01b610e5d565b6006839080600181540180825580915050600190039060005260206000200160009091909190916101000a81548173ffffffffffffffffffffffffffffffffffffffff021916908373ffffffffffffffffffffffffffffffffffffffff16021790555061356467c19ee0d0340bdf1960c01b610e5d565b6135786755ef1202937c189860c01b610e5d565b600782908060018154018082558091505060019003906000526020600020016000909190919091505550505080806135af90615178565b915050613126565b506135cc679b8635bababd7cd560c01b610e5d565b6135e0673713c0cb0f3a7a0960c01b610e5d565b60006135f0898688868b8d613ede565b90506136066752b1ed2d46c8304c60c01b610e5d565b8082600201546136169190615408565b8260020181905550613632676e8fb6e8d40efa7360c01b610e5d565b613646670cd78e9f5a999f1660c01b610e5d565b6006859080600181540180825580915050600190039060005260206000200160009091909190916101000a81548173ffffffffffffffffffffffffffffffffffffffff021916908373ffffffffffffffffffffffffffffffffffffffff1602179055506136bd6748fd522b50d7e93a60c01b610e5d565b6136d1679405af8bf489d1df60c01b610e5d565b6007819080600181540180825580915050600190039060005260206000200160009091909190915055505050505050505050565b61371967d50a6a82e38f0ae860c01b610e5d565b61372d67a849e5d0fec51c8b60c01b610e5d565b613741679e6b8b233c65619060c01b610e5d565b600060096000868152602001908152602001600020905061376c67a762246bbb298fbf60c01b610e5d565b61378067f6c09da02b024fa060c01b610e5d565b6000606483866137909190616173565b61379a91906161e4565b90506137b067440a40fdb651c7cb60c01b610e5d565b8082600201546137c09190615408565b82600201819055506137dc67de7d8de574a6960060c01b610e5d565b6137f0672a9700fbb945b2d560c01b610e5d565b60006137fb826126b2565b9050613811675919556a7031f09360c01b610e5d565b613825671215593410eb914660c01b610e5d565b60005b81518110156138f65761384567586ce8aab79611b860c01b610e5d565b61385967f80d7bdb95ea127260c01b610e5d565b6138e386600a60008b815260200190815260200160002083815481106138825761388161511a565b5b90600052602060002001548484815181106138a05761389f61511a565b5b60200260200101516040518060400160405280600481526020017f3078303000000000000000000000000000000000000000000000000000000000815250614092565b80806138ee90615178565b915050613828565b5061390b67ca06a99daba0358060c01b610e5d565b61391f670eb12f7111c6328560c01b610e5d565b6006859080600181540180825580915050600190039060005260206000200160009091909190916101000a81548173ffffffffffffffffffffffffffffffffffffffff021916908373ffffffffffffffffffffffffffffffffffffffff1602179055506139966752bc33f74706f7fa60c01b610e5d565b6139aa67efabc781498895d060c01b610e5d565b600782908060018154018082558091505060019003906000526020600020016000909190919091505550505050505050565b60606000600167ffffffffffffffff8111156139fb576139fa6144f4565b5b604051908082528060200260200182016040528015613a295781602001602082028036833780820191505090505b5090508281600081518110613a4157613a4061511a565b5b60200260200101818152505080915050919050565b613a758473ffffffffffffffffffffffffffffffffffffffff16613c2d565b15613c25578373ffffffffffffffffffffffffffffffffffffffff1663f23a6e6187878686866040518663ffffffff1660e01b8152600401613abb9594939291906167f2565b6020604051808303816000875af1925050508015613af757506040513d601f19601f82011682018060405250810190613af49190615f63565b60015b613b9c57613b03615f9d565b806308c379a003613b5f5750613b17615fbf565b80613b225750613b61565b806040517f08c379a0000000000000000000000000000000000000000000000000000000008152600401613b5691906144cd565b60405180910390fd5b505b6040517f08c379a0000000000000000000000000000000000000000000000000000000008152600401613b93906160c1565b60405180910390fd5b63f23a6e6160e01b7bffffffffffffffffffffffffffffffffffffffffffffffffffffffff1916817bffffffffffffffffffffffffffffffffffffffffffffffffffffffff191614613c23576040517f08c379a0000000000000000000000000000000000000000000000000000000008152600401613c1a90616153565b60405180910390fd5b505b505050505050565b6000808273ffffffffffffffffffffffffffffffffffffffff163b119050919050565b6000613c66676d417d1ac480303d60c01b610e5d565b613c7a671b9026c1c545e95060c01b610e5d565b613c8e672441fabeacd7a75f60c01b610e5d565b6000600460009054906101000a900473ffffffffffffffffffffffffffffffffffffffff1673ffffffffffffffffffffffffffffffffffffffff1663c9187fe7846040518263ffffffff1660e01b8152600401613ceb919061433a565b600060405180830381865afa158015613d08573d6000803e3d6000fd5b505050506040513d6000823e3d601f19601f82011682018060405250810190613d3191906166d3565b9050613d4767df0f1789440d4ed960c01b610e5d565b613d5b670647c96e2fed176260c01b610e5d565b6000613d7167064019b6bc19187260c01b610e5d565b613d8567763a47099aab437a60c01b610e5d565b60005b8251811015613eab57613da5671d40d5267617e55360c01b610e5d565b613db96735dff5d51c82861060c01b610e5d565b6000600460009054906101000a900473ffffffffffffffffffffffffffffffffffffffff1673ffffffffffffffffffffffffffffffffffffffff16630e47cefa858481518110613e0c57613e0b61511a565b5b6020026020010151886040518363ffffffff1660e01b8152600401613e329291906167c2565b602060405180830381865afa158015613e4f573d6000803e3d6000fd5b505050506040513d601f19601f82011682018060405250810190613e739190616731565b9050613e8967e9e09391de2f90b160c01b610e5d565b8083613e959190615408565b9250508080613ea390615178565b915050613d88565b50613ec0673f7c6b562d42adb760c01b610e5d565b613ed467e072ba4402919e9360c01b610e5d565b8092505050919050565b6000613ef467a2d99f38a39e824d60c01b610e5d565b613f0867c6eb8b249001c86560c01b610e5d565b613f1c672f8a1fc15cadb42760c01b610e5d565b6000613f2a8686868661259a565b9050613f406728ae0dfe9fbdb0ed60c01b610e5d565b613f5467d3316e9ec077426960c01b610e5d565b6000613f5f826126b2565b9050613f7567119a7054fdb365d760c01b610e5d565b613f8967dbf17aae431488dd60c01b610e5d565b60005b815181101561405a57613fa9676af46d40f234ad6560c01b610e5d565b613fbd67b29b7f372f8e2e8160c01b610e5d565b61404789600a60008d81526020019081526020016000208381548110613fe657613fe561511a565b5b90600052602060002001548484815181106140045761400361511a565b5b60200260200101516040518060400160405280600481526020017f3078303000000000000000000000000000000000000000000000000000000000815250614092565b808061405290615178565b915050613f8c565b5061406f6766fa695ffbe4e63960c01b610e5d565b6140836795e55a408623e2f760c01b610e5d565b81925050509695505050505050565b600073ffffffffffffffffffffffffffffffffffffffff168473ffffffffffffffffffffffffffffffffffffffff1603614101576040517f08c379a00000000000000000000000000000000000000000000000000000000081526004016140f8906162bb565b60405180910390fd5b600061410b610e60565b90506000614118856139dc565b90506000614125856139dc565b9050614136836000898585896122be565b846001600088815260200190815260200160002060008973ffffffffffffffffffffffffffffffffffffffff1673ffffffffffffffffffffffffffffffffffffffff16815260200190815260200160002060008282546141969190615408565b925050819055508673ffffffffffffffffffffffffffffffffffffffff16600073ffffffffffffffffffffffffffffffffffffffff168473ffffffffffffffffffffffffffffffffffffffff167fc3d58168c5ae7397731d063d5bbf3d657854427343f4c083240f7aacaa2d0f628989604051614214929190615e68565b60405180910390a461422b836000898585896122c6565b61423a83600089898989613a56565b50505050505050565b6000604051905090565b600080fd5b600080fd5b600073ffffffffffffffffffffffffffffffffffffffff82169050919050565b600061428282614257565b9050919050565b61429281614277565b811461429d57600080fd5b50565b6000813590506142af81614289565b92915050565b6000819050919050565b6142c8816142b5565b81146142d357600080fd5b50565b6000813590506142e5816142bf565b92915050565b600080604083850312156143025761430161424d565b5b6000614310858286016142a0565b9250506020614321858286016142d6565b9150509250929050565b614334816142b5565b82525050565b600060208201905061434f600083018461432b565b92915050565b60007fffffffff0000000000000000000000000000000000000000000000000000000082169050919050565b61438a81614355565b811461439557600080fd5b50565b6000813590506143a781614381565b92915050565b6000602082840312156143c3576143c261424d565b5b60006143d184828501614398565b91505092915050565b60008115159050919050565b6143ef816143da565b82525050565b600060208201905061440a60008301846143e6565b92915050565b6000602082840312156144265761442561424d565b5b6000614434848285016142d6565b91505092915050565b600081519050919050565b600082825260208201905092915050565b60005b8381101561447757808201518184015260208101905061445c565b60008484015250505050565b6000601f19601f8301169050919050565b600061449f8261443d565b6144a98185614448565b93506144b9818560208601614459565b6144c281614483565b840191505092915050565b600060208201905081810360008301526144e78184614494565b905092915050565b600080fd5b7f4e487b7100000000000000000000000000000000000000000000000000000000600052604160045260246000fd5b61452c82614483565b810181811067ffffffffffffffff8211171561454b5761454a6144f4565b5b80604052505050565b600061455e614243565b905061456a8282614523565b919050565b600067ffffffffffffffff82111561458a576145896144f4565b5b602082029050602081019050919050565b600080fd5b60006145b36145ae8461456f565b614554565b905080838252602082019050602084028301858111156145d6576145d561459b565b5b835b818110156145ff57806145eb88826142d6565b8452602084019350506020810190506145d8565b5050509392505050565b600082601f83011261461e5761461d6144ef565b5b813561462e8482602086016145a0565b91505092915050565b600080fd5b600067ffffffffffffffff821115614657576146566144f4565b5b61466082614483565b9050602081019050919050565b82818337600083830152505050565b600061468f61468a8461463c565b614554565b9050828152602081018484840111156146ab576146aa614637565b5b6146b684828561466d565b509392505050565b600082601f8301126146d3576146d26144ef565b5b81356146e384826020860161467c565b91505092915050565b600080600080600060a086880312156147085761470761424d565b5b6000614716888289016142a0565b9550506020614727888289016142a0565b945050604086013567ffffffffffffffff81111561474857614747614252565b5b61475488828901614609565b935050606086013567ffffffffffffffff81111561477557614774614252565b5b61478188828901614609565b925050608086013567ffffffffffffffff8111156147a2576147a1614252565b5b6147ae888289016146be565b9150509295509295909350565b600060ff82169050919050565b6147d1816147bb565b81146147dc57600080fd5b50565b6000813590506147ee816147c8565b92915050565b600067ffffffffffffffff82111561480f5761480e6144f4565b5b602082029050602081019050919050565b600061483361482e846147f4565b614554565b905080838252602082019050602084028301858111156148565761485561459b565b5b835b8181101561487f578061486b88826142a0565b845260208401935050602081019050614858565b5050509392505050565b600082601f83011261489e5761489d6144ef565b5b81356148ae848260208601614820565b91505092915050565b600080600080608085870312156148d1576148d061424d565b5b60006148df878288016142d6565b94505060206148f0878288016147df565b935050604085013567ffffffffffffffff81111561491157614910614252565b5b61491d87828801614609565b925050606085013567ffffffffffffffff81111561493e5761493d614252565b5b61494a87828801614889565b91505092959194509250565b6000806040838503121561496d5761496c61424d565b5b600083013567ffffffffffffffff81111561498b5761498a614252565b5b61499785828601614889565b925050602083013567ffffffffffffffff8111156149b8576149b7614252565b5b6149c485828601614609565b9150509250929050565b600081519050919050565b600082825260208201905092915050565b6000819050602082019050919050565b614a03816142b5565b82525050565b6000614a1583836149fa565b60208301905092915050565b6000602082019050919050565b6000614a39826149ce565b614a4381856149d9565b9350614a4e836149ea565b8060005b83811015614a7f578151614a668882614a09565b9750614a7183614a21565b925050600181019050614a52565b5085935050505092915050565b60006020820190508181036000830152614aa68184614a2e565b905092915050565b614ab781614277565b82525050565b6000602082019050614ad26000830184614aae565b92915050565b614ae1816143da565b8114614aec57600080fd5b50565b600081359050614afe81614ad8565b92915050565b60008060408385031215614b1b57614b1a61424d565b5b6000614b29858286016142a0565b9250506020614b3a85828601614aef565b9150509250929050565b600067ffffffffffffffff821115614b5f57614b5e6144f4565b5b602082029050602081019050919050565b600067ffffffffffffffff821115614b8b57614b8a6144f4565b5b614b9482614483565b9050602081019050919050565b6000614bb4614baf84614b70565b614554565b905082815260208101848484011115614bd057614bcf614637565b5b614bdb84828561466d565b509392505050565b600082601f830112614bf857614bf76144ef565b5b8135614c08848260208601614ba1565b91505092915050565b6000614c24614c1f84614b44565b614554565b90508083825260208201905060208402830185811115614c4757614c4661459b565b5b835b81811015614c8e57803567ffffffffffffffff811115614c6c57614c6b6144ef565b5b808601614c798982614be3565b85526020850194505050602081019050614c49565b5050509392505050565b600082601f830112614cad57614cac6144ef565b5b8135614cbd848260208601614c11565b91505092915050565b60008060008060008060008060006101208a8c031215614ce957614ce861424d565b5b6000614cf78c828d016142d6565b9950506020614d088c828d016142d6565b9850506040614d198c828d016142d6565b9750506060614d2a8c828d016142d6565b9650506080614d3b8c828d016147df565b95505060a0614d4c8c828d016147df565b94505060c0614d5d8c828d016142a0565b93505060e0614d6e8c828d016142a0565b9250506101008a013567ffffffffffffffff811115614d9057614d8f614252565b5b614d9c8c828d01614c98565b9150509295985092959850929598565b60008060408385031215614dc357614dc261424d565b5b6000614dd1858286016142a0565b9250506020614de2858286016142a0565b9150509250929050565b600080600080600060a08688031215614e0857614e0761424d565b5b6000614e16888289016142a0565b9550506020614e27888289016142a0565b9450506040614e38888289016142d6565b9350506060614e49888289016142d6565b925050608086013567ffffffffffffffff811115614e6a57614e69614252565b5b614e76888289016146be565b9150509295509295909350565b600060208284031215614e9957614e9861424d565b5b6000614ea7848285016142a0565b91505092915050565b614eb9816147bb565b82525050565b6000608082019050614ed4600083018761432b565b614ee16020830186614eb0565b614eee6040830185614eb0565b614efb6060830184614eb0565b95945050505050565b7f455243313135353a2061646472657373207a65726f206973206e6f742061207660008201527f616c6964206f776e657200000000000000000000000000000000000000000000602082015250565b6000614f60602a83614448565b9150614f6b82614f04565b604082019050919050565b60006020820190508181036000830152614f8f81614f53565b9050919050565b7f4e487b7100000000000000000000000000000000000000000000000000000000600052602260045260246000fd5b60006002820490506001821680614fdd57607f821691505b602082108103614ff057614fef614f96565b5b50919050565b7f455243313135353a2063616c6c6572206973206e6f7420746f6b656e206f776e60008201527f6572206f7220617070726f766564000000000000000000000000000000000000602082015250565b6000615052602e83614448565b915061505d82614ff6565b604082019050919050565b6000602082019050818103600083015261508181615045565b9050919050565b7f455243313135353a206163636f756e747320616e6420696473206c656e67746860008201527f206d69736d617463680000000000000000000000000000000000000000000000602082015250565b60006150e4602983614448565b91506150ef82615088565b604082019050919050565b60006020820190508181036000830152615113816150d7565b9050919050565b7f4e487b7100000000000000000000000000000000000000000000000000000000600052603260045260246000fd5b7f4e487b7100000000000000000000000000000000000000000000000000000000600052601160045260246000fd5b6000615183826142b5565b91507fffffffffffffffffffffffffffffffffffffffffffffffffffffffffffffffff82036151b5576151b4615149565b5b600182019050919050565b7f4f776e61626c653a206e6577206f776e657220697320746865207a65726f206160008201527f6464726573730000000000000000000000000000000000000000000000000000602082015250565b600061521c602683614448565b9150615227826151c0565b604082019050919050565b6000602082019050818103600083015261524b8161520f565b9050919050565b7f455243313135353a2069647320616e6420616d6f756e7473206c656e6774682060008201527f6d69736d61746368000000000000000000000000000000000000000000000000602082015250565b60006152ae602883614448565b91506152b982615252565b604082019050919050565b600060208201905081810360008301526152dd816152a1565b9050919050565b7f455243313135353a207472616e7366657220746f20746865207a65726f20616460008201527f6472657373000000000000000000000000000000000000000000000000000000602082015250565b6000615340602583614448565b915061534b826152e4565b604082019050919050565b6000602082019050818103600083015261536f81615333565b9050919050565b7f455243313135353a20696e73756666696369656e742062616c616e636520666f60008201527f72207472616e7366657200000000000000000000000000000000000000000000602082015250565b60006153d2602a83614448565b91506153dd82615376565b604082019050919050565b60006020820190508181036000830152615401816153c5565b9050919050565b6000615413826142b5565b915061541e836142b5565b925082820190508082111561543657615435615149565b5b92915050565b600060408201905081810360008301526154568185614a2e565b9050818103602083015261546a8184614a2e565b90509392505050565b7f4f776e61626c653a2063616c6c6572206973206e6f7420746865206f776e6572600082015250565b60006154a9602083614448565b91506154b482615473565b602082019050919050565b600060208201905081810360008301526154d88161549c565b9050919050565b7f5061757361626c653a2070617573656400000000000000000000000000000000600082015250565b6000615515601083614448565b9150615520826154df565b602082019050919050565b6000602082019050818103600083015261554481615508565b9050919050565b7f52454a5556453a204e6f7420657175616c206c656e6774680000000000000000600082015250565b6000615581601883614448565b915061558c8261554b565b602082019050919050565b600060208201905081810360008301526155b081615574565b9050919050565b7f52454a5556453a204675747572652070657263656e746167652073686172652060008201527f63616e6e6f74206265207a65726f000000000000000000000000000000000000602082015250565b6000615613602e83614448565b915061561e826155b7565b604082019050919050565b6000602082019050818103600083015261564281615606565b9050919050565b600081519050919050565b600082825260208201905092915050565b6000819050602082019050919050565b61567e81614277565b82525050565b60006156908383615675565b60208301905092915050565b6000602082019050919050565b60006156b482615649565b6156be8185615654565b93506156c983615665565b8060005b838110156156fa5781516156e18882615684565b97506156ec8361569c565b9250506001810190506156cd565b5085935050505092915050565b600081549050919050565b60008190508160005260206000209050919050565b60008160001c9050919050565b6000819050919050565b600061575161574c83615727565b615734565b9050919050565b6000615764825461573e565b9050919050565b6000600182019050919050565b600061578382615707565b61578d81856149d9565b935061579883615712565b8060005b838110156157d0576157ad82615758565b6157b78882614a09565b97506157c28361576b565b92505060018101905061579c565b5085935050505092915050565b60006060820190506157f2600083018661432b565b818103602083015261580481856156a9565b905081810360408301526158188184615778565b9050949350505050565b7f455243313135353a2073657474696e6720617070726f76616c2073746174757360008201527f20666f722073656c660000000000000000000000000000000000000000000000602082015250565b600061587e602983614448565b915061588982615822565b604082019050919050565b600060208201905081810360008301526158ad81615871565b9050919050565b7f52454a5556453a2054617267657420737570706c792063616e6e6f742062652060008201527f7a65726f00000000000000000000000000000000000000000000000000000000602082015250565b6000615910602483614448565b915061591b826158b4565b604082019050919050565b6000602082019050818103600083015261593f81615903565b9050919050565b7f52454a5556453a204c6162206372656469742063616e6e6f74206265207a657260008201527f6f00000000000000000000000000000000000000000000000000000000000000602082015250565b60006159a2602183614448565b91506159ad82615946565b604082019050919050565b600060208201905081810360008301526159d181615995565b9050919050565b7f52454a5556453a204c6f636b20706572696f642063616e6e6f74206265207a6560008201527f726f000000000000000000000000000000000000000000000000000000000000602082015250565b6000615a34602283614448565b9150615a3f826159d8565b604082019050919050565b60006020820190508181036000830152615a6381615a27565b9050919050565b7f52454a5556453a20496e697469616c2070657263656e742063616e6e6f74206260008201527f65207a65726f0000000000000000000000000000000000000000000000000000602082015250565b6000615ac6602683614448565b9150615ad182615a6a565b604082019050919050565b60006020820190508181036000830152615af581615ab9565b9050919050565b7f52454a5556453a2052656a7576652070657263656e742063616e6e6f7420626560008201527f207a65726f000000000000000000000000000000000000000000000000000000602082015250565b6000615b58602583614448565b9150615b6382615afc565b604082019050919050565b60006020820190508181036000830152615b8781615b4b565b9050919050565b7f52454a5556453a204c616220616464726573732063616e6e6f74206265207a6560008201527f726f000000000000000000000000000000000000000000000000000000000000602082015250565b6000615bea602283614448565b9150615bf582615b8e565b604082019050919050565b60006020820190508181036000830152615c1981615bdd565b9050919050565b7f52454a5556453a2052656a75766520616464726573732063616e6e6f7420626560008201527f207a65726f000000000000000000000000000000000000000000000000000000602082015250565b6000615c7c602583614448565b9150615c8782615c20565b604082019050919050565b60006020820190508181036000830152615cab81615c6f565b9050919050565b7f52454a5556453a2055524973206c656e6774682063616e6e6f74206265207a6560008201527f726f000000000000000000000000000000000000000000000000000000000000602082015250565b6000615d0e602283614448565b9150615d1982615cb2565b604082019050919050565b60006020820190508181036000830152615d3d81615d01565b9050919050565b600081549050919050565b60008190508160005260206000209050919050565b600073ffffffffffffffffffffffffffffffffffffffff82169050919050565b6000615d97615d9283615727565b615d64565b9050919050565b6000615daa8254615d84565b9050919050565b6000600182019050919050565b6000615dc982615d44565b615dd38185615654565b9350615dde83615d4f565b8060005b83811015615e1657615df382615d9e565b615dfd8882615684565b9750615e0883615db1565b925050600181019050615de2565b5085935050505092915050565b6000606082019050615e38600083018661432b565b8181036020830152615e4a8185615dbe565b90508181036040830152615e5e8184615778565b9050949350505050565b6000604082019050615e7d600083018561432b565b615e8a602083018461432b565b9392505050565b600081519050919050565b600082825260208201905092915050565b6000615eb882615e91565b615ec28185615e9c565b9350615ed2818560208601614459565b615edb81614483565b840191505092915050565b600060a082019050615efb6000830188614aae565b615f086020830187614aae565b8181036040830152615f1a8186614a2e565b90508181036060830152615f2e8185614a2e565b90508181036080830152615f428184615ead565b90509695505050505050565b600081519050615f5d81614381565b92915050565b600060208284031215615f7957615f7861424d565b5b6000615f8784828501615f4e565b91505092915050565b60008160e01c9050919050565b600060033d1115615fbc5760046000803e615fb9600051615f90565b90505b90565b600060443d1061604c57615fd1614243565b60043d036004823e80513d602482011167ffffffffffffffff82111715615ff957505061604c565b808201805167ffffffffffffffff811115616017575050505061604c565b80602083010160043d03850181111561603457505050505061604c565b61604382602001850186614523565b82955050505050505b90565b7f455243313135353a207472616e7366657220746f206e6f6e2d4552433131353560008201527f526563656976657220696d706c656d656e746572000000000000000000000000602082015250565b60006160ab603483614448565b91506160b68261604f565b604082019050919050565b600060208201905081810360008301526160da8161609e565b9050919050565b7f455243313135353a204552433131353552656365697665722072656a6563746560008201527f6420746f6b656e73000000000000000000000000000000000000000000000000602082015250565b600061613d602883614448565b9150616148826160e1565b604082019050919050565b6000602082019050818103600083015261616c81616130565b9050919050565b600061617e826142b5565b9150616189836142b5565b9250828202616197816142b5565b915082820484148315176161ae576161ad615149565b5b5092915050565b7f4e487b7100000000000000000000000000000000000000000000000000000000600052601260045260246000fd5b60006161ef826142b5565b91506161fa836142b5565b92508261620a576162096161b5565b5b828204905092915050565b6000616220826142b5565b915061622b836142b5565b925082820390508181111561624357616242615149565b5b92915050565b7f455243313135353a206d696e7420746f20746865207a65726f2061646472657360008201527f7300000000000000000000000000000000000000000000000000000000000000602082015250565b60006162a5602183614448565b91506162b082616249565b604082019050919050565b600060208201905081810360008301526162d481616298565b9050919050565b60008190508160005260206000209050919050565b60006020601f8301049050919050565b600082821b905092915050565b60006008830261633d7fffffffffffffffffffffffffffffffffffffffffffffffffffffffffffffffff82616300565b6163478683616300565b95508019841693508086168417925050509392505050565b6000819050919050565b600061638461637f61637a846142b5565b61635f565b6142b5565b9050919050565b6000819050919050565b61639e83616369565b6163b26163aa8261638b565b84845461630d565b825550505050565b600090565b6163c76163ba565b6163d2818484616395565b505050565b5b818110156163f6576163eb6000826163bf565b6001810190506163d8565b5050565b601f82111561643b5761640c816162db565b616415846162f0565b81016020851015616424578190505b616438616430856162f0565b8301826163d7565b50505b505050565b600082821c905092915050565b600061645e60001984600802616440565b1980831691505092915050565b6000616477838361644d565b9150826002028217905092915050565b6164908261443d565b67ffffffffffffffff8111156164a9576164a86144f4565b5b6164b38254614fc5565b6164be8282856163fa565b600060209050601f8311600181146164f157600084156164df578287015190505b6164e9858261646b565b865550616551565b601f1984166164ff866162db565b60005b8281101561652757848901518255600182019150602085019450602081019050616502565b868310156165445784890151616540601f89168261644d565b8355505b6001600288020188555050505b505050505050565b6000616564826147bb565b915060ff820361657757616576615149565b5b600182019050919050565b600067ffffffffffffffff82111561659d5761659c6144f4565b5b602082029050602081019050919050565b60006165c16165bc8461463c565b614554565b9050828152602081018484840111156165dd576165dc614637565b5b6165e8848285614459565b509392505050565b600082601f830112616605576166046144ef565b5b81516166158482602086016165ae565b91505092915050565b600061663161662c84616582565b614554565b905080838252602082019050602084028301858111156166545761665361459b565b5b835b8181101561669b57805167ffffffffffffffff811115616679576166786144ef565b5b80860161668689826165f0565b85526020850194505050602081019050616656565b5050509392505050565b600082601f8301126166ba576166b96144ef565b5b81516166ca84826020860161661e565b91505092915050565b6000602082840312156166e9576166e861424d565b5b600082015167ffffffffffffffff81111561670757616706614252565b5b616713848285016166a5565b91505092915050565b60008151905061672b816142bf565b92915050565b6000602082840312156167475761674661424d565b5b60006167558482850161671c565b91505092915050565b600060208201905081810360008301526167788184615ead565b905092915050565b60008151905061678f81614289565b92915050565b6000602082840312156167ab576167aa61424d565b5b60006167b984828501616780565b91505092915050565b600060408201905081810360008301526167dc8185615ead565b90506167eb602083018461432b565b9392505050565b600060a0820190506168076000830188614aae565b6168146020830187614aae565b616821604083018661432b565b61682e606083018561432b565b81810360808301526168408184615ead565b9050969550505050505056fea264697066735822122083c7a9a673257283ea3f4d6038d3d22470375e5b2bf1a53e67138dca3c36059064736f6c63430008130033",
  "linkReferences": {},
  "deployedLinkReferences": {}
}