{
  "_format": "hh-sol-artifact-1",
  "contractName": "FutureShards",
  "sourceName": "contracts/FutureShards.sol",
  "abi": [
    {
      "inputs": [
        {
          "internalType": "string",
          "name": "uri_",
          "type": "string"
        },
        {
          "internalType": "address",
          "name": "productNFT_",
          "type": "address"
        }
      ],
      "stateMutability": "nonpayable",
      "type": "constructor"
    },
    {
      "anonymous": false,
      "inputs": [
        {
          "indexed": true,
          "internalType": "address",
          "name": "account",
          "type": "address"
        },
        {
          "indexed": true,
          "internalType": "address",
          "name": "operator",
          "type": "address"
        },
        {
          "indexed": false,
          "internalType": "bool",
          "name": "approved",
          "type": "bool"
        }
      ],
      "name": "ApprovalForAll",
      "type": "event"
    },
    {
      "anonymous": false,
      "inputs": [
        {
          "indexed": false,
          "internalType": "uint256",
          "name": "productUID",
          "type": "uint256"
        },
        {
          "indexed": false,
          "internalType": "address[]",
          "name": "dataOwners",
          "type": "address[]"
        },
        {
          "indexed": false,
          "internalType": "uint256[]",
          "name": "shardAmount",
          "type": "uint256[]"
        }
      ],
      "name": "FutureShardDistributed",
      "type": "event"
    },
    {
      "anonymous": false,
      "inputs": [
        {
          "indexed": false,
          "internalType": "uint256",
          "name": "productUID",
          "type": "uint256"
        },
        {
          "indexed": false,
          "internalType": "address[]",
          "name": "dataOwners",
          "type": "address[]"
        },
        {
          "indexed": false,
          "internalType": "uint256[]",
          "name": "shardAmount",
          "type": "uint256[]"
        }
      ],
      "name": "InitialShardDistributed",
      "type": "event"
    },
    {
      "anonymous": false,
      "inputs": [
        {
          "indexed": true,
          "internalType": "address",
          "name": "previousOwner",
          "type": "address"
        },
        {
          "indexed": true,
          "internalType": "address",
          "name": "newOwner",
          "type": "address"
        }
      ],
      "name": "OwnershipTransferred",
      "type": "event"
    },
    {
      "anonymous": false,
      "inputs": [
        {
          "indexed": false,
          "internalType": "address",
          "name": "account",
          "type": "address"
        }
      ],
      "name": "Paused",
      "type": "event"
    },
    {
      "anonymous": false,
      "inputs": [
        {
          "indexed": false,
          "internalType": "uint256",
          "name": "productUID",
          "type": "uint256"
        },
        {
          "indexed": false,
          "internalType": "address",
          "name": "rejuve",
          "type": "address"
        },
        {
          "indexed": false,
          "internalType": "uint256",
          "name": "shardAmount",
          "type": "uint256"
        }
      ],
      "name": "RemainingShardAllocated",
      "type": "event"
    },
    {
      "anonymous": false,
      "inputs": [
        {
          "indexed": true,
          "internalType": "address",
          "name": "operator",
          "type": "address"
        },
        {
          "indexed": true,
          "internalType": "address",
          "name": "from",
          "type": "address"
        },
        {
          "indexed": true,
          "internalType": "address",
          "name": "to",
          "type": "address"
        },
        {
          "indexed": false,
          "internalType": "uint256[]",
          "name": "ids",
          "type": "uint256[]"
        },
        {
          "indexed": false,
          "internalType": "uint256[]",
          "name": "values",
          "type": "uint256[]"
        }
      ],
      "name": "TransferBatch",
      "type": "event"
    },
    {
      "anonymous": false,
      "inputs": [
        {
          "indexed": true,
          "internalType": "address",
          "name": "operator",
          "type": "address"
        },
        {
          "indexed": true,
          "internalType": "address",
          "name": "from",
          "type": "address"
        },
        {
          "indexed": true,
          "internalType": "address",
          "name": "to",
          "type": "address"
        },
        {
          "indexed": false,
          "internalType": "uint256",
          "name": "id",
          "type": "uint256"
        },
        {
          "indexed": false,
          "internalType": "uint256",
          "name": "value",
          "type": "uint256"
        }
      ],
      "name": "TransferSingle",
      "type": "event"
    },
    {
      "anonymous": false,
      "inputs": [
        {
          "indexed": false,
          "internalType": "string",
          "name": "value",
          "type": "string"
        },
        {
          "indexed": true,
          "internalType": "uint256",
          "name": "id",
          "type": "uint256"
        }
      ],
      "name": "URI",
      "type": "event"
    },
    {
      "anonymous": false,
      "inputs": [
        {
          "indexed": false,
          "internalType": "address",
          "name": "account",
          "type": "address"
        }
      ],
      "name": "Unpaused",
      "type": "event"
    },
    {
      "inputs": [
        {
          "internalType": "address",
          "name": "account",
          "type": "address"
        },
        {
          "internalType": "uint256",
          "name": "id",
          "type": "uint256"
        }
      ],
      "name": "balanceOf",
      "outputs": [
        {
          "internalType": "uint256",
          "name": "",
          "type": "uint256"
        }
      ],
      "stateMutability": "view",
      "type": "function"
    },
    {
      "inputs": [
        {
          "internalType": "address[]",
          "name": "accounts",
          "type": "address[]"
        },
        {
          "internalType": "uint256[]",
          "name": "ids",
          "type": "uint256[]"
        }
      ],
      "name": "balanceOfBatch",
      "outputs": [
        {
          "internalType": "uint256[]",
          "name": "",
          "type": "uint256[]"
        }
      ],
      "stateMutability": "view",
      "type": "function"
    },
    {
      "inputs": [
        {
          "internalType": "uint256",
          "name": "_productUID",
          "type": "uint256"
        },
        {
          "internalType": "uint8",
          "name": "_futurePercent",
          "type": "uint8"
        },
        {
          "internalType": "uint256[]",
          "name": "_credits",
          "type": "uint256[]"
        },
        {
          "internalType": "address[]",
          "name": "_futureContributors",
          "type": "address[]"
        }
      ],
      "name": "distributeFutureShards",
      "outputs": [],
      "stateMutability": "nonpayable",
      "type": "function"
    },
    {
      "inputs": [
        {
          "internalType": "uint256",
          "name": "_productUID",
          "type": "uint256"
        },
        {
          "internalType": "uint256",
          "name": "_targetSupply",
          "type": "uint256"
        },
        {
          "internalType": "uint256",
          "name": "_labCredit",
          "type": "uint256"
        },
        {
          "internalType": "uint256",
          "name": "_lockPeriod",
          "type": "uint256"
        },
        {
          "internalType": "uint8",
          "name": "_initialPercent",
          "type": "uint8"
        },
        {
          "internalType": "uint8",
          "name": "_rejuvePercent",
          "type": "uint8"
        },
        {
          "internalType": "address",
          "name": "_lab",
          "type": "address"
        },
        {
          "internalType": "address",
          "name": "_rejuve",
          "type": "address"
        },
        {
          "internalType": "string[]",
          "name": "_uris",
          "type": "string[]"
        }
      ],
      "name": "distributeInitialShards",
      "outputs": [],
      "stateMutability": "nonpayable",
      "type": "function"
    },
    {
      "inputs": [
        {
          "internalType": "uint256",
          "name": "_productUID",
          "type": "uint256"
        }
      ],
      "name": "getShardsConfig",
      "outputs": [
        {
          "internalType": "uint256",
          "name": "",
          "type": "uint256"
        },
        {
          "internalType": "uint8",
          "name": "",
          "type": "uint8"
        },
        {
          "internalType": "uint8",
          "name": "",
          "type": "uint8"
        },
        {
          "internalType": "uint8",
          "name": "",
          "type": "uint8"
        }
      ],
      "stateMutability": "view",
      "type": "function"
    },
    {
      "inputs": [
        {
          "internalType": "address",
          "name": "account",
          "type": "address"
        },
        {
          "internalType": "address",
          "name": "operator",
          "type": "address"
        }
      ],
      "name": "isApprovedForAll",
      "outputs": [
        {
          "internalType": "bool",
          "name": "",
          "type": "bool"
        }
      ],
      "stateMutability": "view",
      "type": "function"
    },
    {
      "inputs": [],
      "name": "owner",
      "outputs": [
        {
          "internalType": "address",
          "name": "",
          "type": "address"
        }
      ],
      "stateMutability": "view",
      "type": "function"
    },
    {
      "inputs": [],
      "name": "paused",
      "outputs": [
        {
          "internalType": "bool",
          "name": "",
          "type": "bool"
        }
      ],
      "stateMutability": "view",
      "type": "function"
    },
    {
      "inputs": [],
      "name": "renounceOwnership",
      "outputs": [],
      "stateMutability": "nonpayable",
      "type": "function"
    },
    {
      "inputs": [
        {
          "internalType": "address",
          "name": "from",
          "type": "address"
        },
        {
          "internalType": "address",
          "name": "to",
          "type": "address"
        },
        {
          "internalType": "uint256[]",
          "name": "ids",
          "type": "uint256[]"
        },
        {
          "internalType": "uint256[]",
          "name": "amounts",
          "type": "uint256[]"
        },
        {
          "internalType": "bytes",
          "name": "data",
          "type": "bytes"
        }
      ],
      "name": "safeBatchTransferFrom",
      "outputs": [],
      "stateMutability": "nonpayable",
      "type": "function"
    },
    {
      "inputs": [
        {
          "internalType": "address",
          "name": "from",
          "type": "address"
        },
        {
          "internalType": "address",
          "name": "to",
          "type": "address"
        },
        {
          "internalType": "uint256",
          "name": "id",
          "type": "uint256"
        },
        {
          "internalType": "uint256",
          "name": "amount",
          "type": "uint256"
        },
        {
          "internalType": "bytes",
          "name": "data",
          "type": "bytes"
        }
      ],
      "name": "safeTransferFrom",
      "outputs": [],
      "stateMutability": "nonpayable",
      "type": "function"
    },
    {
      "inputs": [
        {
          "internalType": "address",
          "name": "operator",
          "type": "address"
        },
        {
          "internalType": "bool",
          "name": "approved",
          "type": "bool"
        }
      ],
      "name": "setApprovalForAll",
      "outputs": [],
      "stateMutability": "nonpayable",
      "type": "function"
    },
    {
      "inputs": [
        {
          "internalType": "bytes4",
          "name": "interfaceId",
          "type": "bytes4"
        }
      ],
      "name": "supportsInterface",
      "outputs": [
        {
          "internalType": "bool",
          "name": "",
          "type": "bool"
        }
      ],
      "stateMutability": "view",
      "type": "function"
    },
    {
      "inputs": [
        {
          "internalType": "uint256",
          "name": "_productUID",
          "type": "uint256"
        }
      ],
      "name": "targetSupply",
      "outputs": [
        {
          "internalType": "uint256",
          "name": "",
          "type": "uint256"
        }
      ],
      "stateMutability": "view",
      "type": "function"
    },
    {
      "inputs": [
        {
          "internalType": "uint256",
          "name": "_productUID",
          "type": "uint256"
        }
      ],
      "name": "totalShardSupply",
      "outputs": [
        {
          "internalType": "uint256",
          "name": "",
          "type": "uint256"
        }
      ],
      "stateMutability": "view",
      "type": "function"
    },
    {
      "inputs": [
        {
          "internalType": "address",
          "name": "newOwner",
          "type": "address"
        }
      ],
      "name": "transferOwnership",
      "outputs": [],
      "stateMutability": "nonpayable",
      "type": "function"
    },
    {
      "inputs": [
        {
          "internalType": "uint256",
          "name": "_id",
          "type": "uint256"
        }
      ],
      "name": "uri",
      "outputs": [
        {
          "internalType": "string",
          "name": "",
          "type": "string"
        }
      ],
      "stateMutability": "view",
      "type": "function"
    }
  ],
  "bytecode": "0x60806040523480156200001157600080fd5b50604051620068e2380380620068e2833981810160405281019062000037919062000404565b8181816200005a6200004e6200012560201b60201c565b6200012d60201b60201c565b60008060146101000a81548160ff0219169083151502179055506200008581620001f160201b60201c565b50620000a267859246e0de807bd160c01b6200020660201b60201c565b620000be67e4abef476e19a19060c01b6200020660201b60201c565b80600460006101000a81548173ffffffffffffffffffffffffffffffffffffffff021916908373ffffffffffffffffffffffffffffffffffffffff16021790555050506200011d671af0266312c6f25e60c01b6200020960201b60201c565b50506200079c565b600033905090565b60008060009054906101000a900473ffffffffffffffffffffffffffffffffffffffff169050816000806101000a81548173ffffffffffffffffffffffffffffffffffffffff021916908373ffffffffffffffffffffffffffffffffffffffff1602179055508173ffffffffffffffffffffffffffffffffffffffff168173ffffffffffffffffffffffffffffffffffffffff167f8be0079c531659141344cd1fd0a4f28419497f9722a3daafe3b4186f6b6457e060405160405180910390a35050565b8060039081620002029190620006b5565b5050565b50565b50565b6000604051905090565b600080fd5b600080fd5b600080fd5b600080fd5b6000601f19601f8301169050919050565b7f4e487b7100000000000000000000000000000000000000000000000000000000600052604160045260246000fd5b62000275826200022a565b810181811067ffffffffffffffff821117156200029757620002966200023b565b5b80604052505050565b6000620002ac6200020c565b9050620002ba82826200026a565b919050565b600067ffffffffffffffff821115620002dd57620002dc6200023b565b5b620002e8826200022a565b9050602081019050919050565b60005b8381101562000315578082015181840152602081019050620002f8565b60008484015250505050565b6000620003386200033284620002bf565b620002a0565b90508281526020810184848401111562000357576200035662000225565b5b62000364848285620002f5565b509392505050565b600082601f83011262000384576200038362000220565b5b81516200039684826020860162000321565b91505092915050565b600073ffffffffffffffffffffffffffffffffffffffff82169050919050565b6000620003cc826200039f565b9050919050565b620003de81620003bf565b8114620003ea57600080fd5b50565b600081519050620003fe81620003d3565b92915050565b600080604083850312156200041e576200041d62000216565b5b600083015167ffffffffffffffff8111156200043f576200043e6200021b565b5b6200044d858286016200036c565b92505060206200046085828601620003ed565b9150509250929050565b600081519050919050565b7f4e487b7100000000000000000000000000000000000000000000000000000000600052602260045260246000fd5b60006002820490506001821680620004bd57607f821691505b602082108103620004d357620004d262000475565b5b50919050565b60008190508160005260206000209050919050565b60006020601f8301049050919050565b600082821b905092915050565b6000600883026200053d7fffffffffffffffffffffffffffffffffffffffffffffffffffffffffffffffff82620004fe565b620005498683620004fe565b95508019841693508086168417925050509392505050565b6000819050919050565b6000819050919050565b600062000596620005906200058a8462000561565b6200056b565b62000561565b9050919050565b6000819050919050565b620005b28362000575565b620005ca620005c1826200059d565b8484546200050b565b825550505050565b600090565b620005e1620005d2565b620005ee818484620005a7565b505050565b5b8181101562000616576200060a600082620005d7565b600181019050620005f4565b5050565b601f82111562000665576200062f81620004d9565b6200063a84620004ee565b810160208510156200064a578190505b620006626200065985620004ee565b830182620005f3565b50505b505050565b600082821c905092915050565b60006200068a600019846008026200066a565b1980831691505092915050565b6000620006a5838362000677565b9150826002028217905092915050565b620006c0826200046a565b67ffffffffffffffff811115620006dc57620006db6200023b565b5b620006e88254620004a4565b620006f58282856200061a565b600060209050601f8311600181146200072d576000841562000718578287015190505b62000724858262000697565b86555062000794565b601f1984166200073d86620004d9565b60005b82811015620007675784890151825560018201915060208501945060208101905062000740565b8683101562000787578489015162000783601f89168262000677565b8355505b6001600288020188555050505b505050505050565b61613680620007ac6000396000f3fe608060405234801561001057600080fd5b506004361061010a5760003560e01c80638da5cb5b116100a2578063d6e0dbda11610071578063d6e0dbda146102b5578063e985e9c5146102e5578063f242432a14610315578063f2fde38b14610331578063fac795c01461034d5761010a565b80638da5cb5b1461022f578063936906f11461024d578063a22cb4651461027d578063d429c758146102995761010a565b80634567db03116100de5780634567db03146101bb5780634e1273f4146101d75780635c975abb14610207578063715018a6146102255761010a565b8062fdd58e1461010f57806301ffc9a71461013f5780630e89341c1461016f5780632eb2c2d61461019f575b600080fd5b61012960048036038101906101249190613e79565b610380565b6040516101369190613ec8565b60405180910390f35b61015960048036038101906101549190613f3b565b610449565b6040516101669190613f83565b60405180910390f35b61018960048036038101906101849190613f9e565b61052b565b604051610196919061405b565b60405180910390f35b6101b960048036038101906101b4919061427a565b61060c565b005b6101d560048036038101906101d09190614445565b6106ad565b005b6101f160048036038101906101ec91906144e4565b61075b565b6040516101fe919061461a565b60405180910390f35b61020f610874565b60405161021c9190613f83565b60405180910390f35b61022d61088a565b005b61023761089e565b604051610244919061464b565b60405180910390f35b61026760048036038101906102629190613f9e565b6108c7565b6040516102749190613ec8565b60405180910390f35b61029760048036038101906102929190614692565b610923565b005b6102b360048036038101906102ae9190614854565b610939565b005b6102cf60048036038101906102ca9190613f9e565b6109f1565b6040516102dc9190613ec8565b60405180910390f35b6102ff60048036038101906102fa919061493a565b610a4d565b60405161030c9190613f83565b60405180910390f35b61032f600480360381019061032a919061497a565b610ae1565b005b61034b60048036038101906103469190614a11565b610b82565b005b61036760048036038101906103629190613f9e565b610c05565b6040516103779493929190614a4d565b60405180910390f35b60008073ffffffffffffffffffffffffffffffffffffffff168373ffffffffffffffffffffffffffffffffffffffff16036103f0576040517f08c379a00000000000000000000000000000000000000000000000000000000081526004016103e790614b04565b60405180910390fd5b6001600083815260200190815260200160002060008473ffffffffffffffffffffffffffffffffffffffff1673ffffffffffffffffffffffffffffffffffffffff16815260200190815260200160002054905092915050565b60007fd9b67a26000000000000000000000000000000000000000000000000000000007bffffffffffffffffffffffffffffffffffffffffffffffffffffffff1916827bffffffffffffffffffffffffffffffffffffffffffffffffffffffff1916148061051457507f0e89341c000000000000000000000000000000000000000000000000000000007bffffffffffffffffffffffffffffffffffffffffffffffffffffffff1916827bffffffffffffffffffffffffffffffffffffffffffffffffffffffff1916145b80610524575061052382610cd9565b5b9050919050565b60606105416733c247549217994160c01b610d43565b610555672a36b9ee82fe832660c01b610d43565b61056967846bc1235520cee360c01b610d43565b600e6000838152602001908152602001600020805461058790614b53565b80601f01602080910402602001604051908101604052809291908181526020018280546105b390614b53565b80156106005780601f106105d557610100808354040283529160200191610600565b820191906000526020600020905b8154815290600101906020018083116105e357829003601f168201915b50505050509050919050565b610614610d46565b73ffffffffffffffffffffffffffffffffffffffff168573ffffffffffffffffffffffffffffffffffffffff16148061065a575061065985610654610d46565b610a4d565b5b610699576040517f08c379a000000000000000000000000000000000000000000000000000000000815260040161069090614bf6565b60405180910390fd5b6106a68585858585610d4e565b5050505050565b6106c16767aad1b2798fc6f560c01b611072565b6106c9611075565b6106dd6780682632ee1fe66360c01b611072565b6106f1670531c431bb17906760c01b611072565b6106f96110f3565b61070d67d8b0bb1384175c8660c01b611072565b610721676e2b184017ae30ac60c01b611072565b6107356772b8a76ce152627260c01b611072565b610749673f233388610ca4fa60c01b611072565b6107558484848461113d565b50505050565b606081518351146107a1576040517f08c379a000000000000000000000000000000000000000000000000000000000815260040161079890614c88565b60405180910390fd5b6000835167ffffffffffffffff8111156107be576107bd614082565b5b6040519080825280602002602001820160405280156107ec5781602001602082028036833780820191505090505b50905060005b84518110156108695761083985828151811061081157610810614ca8565b5b602002602001015185838151811061082c5761082b614ca8565b5b6020026020010151610380565b82828151811061084c5761084b614ca8565b5b6020026020010181815250508061086290614d06565b90506107f2565b508091505092915050565b60008060149054906101000a900460ff16905090565b610892611075565b61089c60006115f4565b565b60008060009054906101000a900473ffffffffffffffffffffffffffffffffffffffff16905090565b60006108dd6796510fef43565d0660c01b610d43565b6108f167167c80ee4c7570ba60c01b610d43565b6109056733ea72b6af6495af60c01b610d43565b60096000838152602001908152602001600020600101549050919050565b61093561092e610d46565b83836116b8565b5050565b61094d678c5ca474efc46e4560c01b610d43565b610955611075565b610969673453d00545214d2a60c01b610d43565b61097d67c2de39fcf433350260c01b610d43565b6109856110f3565b6109996770975fbaa28b9b8460c01b610d43565b6109ad6704fcf9ac29be32a260c01b610d43565b6109c167069282c7fed63f6860c01b610d43565b6109d5671abb541d33240f1f60c01b610d43565b6109e6898989898989898989611824565b505050505050505050565b6000610a076722d3f89d22f549c860c01b610d43565b610a1b6739a566f98f39132960c01b610d43565b610a2f674fa10780e05f813360c01b610d43565b60096000838152602001908152602001600020600201549050919050565b6000600260008473ffffffffffffffffffffffffffffffffffffffff1673ffffffffffffffffffffffffffffffffffffffff16815260200190815260200160002060008373ffffffffffffffffffffffffffffffffffffffff1673ffffffffffffffffffffffffffffffffffffffff16815260200190815260200160002060009054906101000a900460ff16905092915050565b610ae9610d46565b73ffffffffffffffffffffffffffffffffffffffff168573ffffffffffffffffffffffffffffffffffffffff161480610b2f5750610b2e85610b29610d46565b610a4d565b5b610b6e576040517f08c379a0000000000000000000000000000000000000000000000000000000008152600401610b6590614bf6565b60405180910390fd5b610b7b85858585856119f2565b5050505050565b610b8a611075565b600073ffffffffffffffffffffffffffffffffffffffff168173ffffffffffffffffffffffffffffffffffffffff1603610bf9576040517f08c379a0000000000000000000000000000000000000000000000000000000008152600401610bf090614dc0565b60405180910390fd5b610c02816115f4565b50565b600080600080610c1f67493357078ae76e6d60c01b610d43565b610c33675845920bfb995b6060c01b610d43565b610c47677c2173065874bc9e60c01b610d43565b60096000868152602001908152602001600020600301546009600087815260200190815260200160002060040160009054906101000a900460ff166009600088815260200190815260200160002060040160029054906101000a900460ff166009600089815260200190815260200160002060040160019054906101000a900460ff1693509350935093509193509193565b60007f01ffc9a7000000000000000000000000000000000000000000000000000000007bffffffffffffffffffffffffffffffffffffffffffffffffffffffff1916827bffffffffffffffffffffffffffffffffffffffffffffffffffffffff1916149050919050565b50565b600033905090565b8151835114610d92576040517f08c379a0000000000000000000000000000000000000000000000000000000008152600401610d8990614e52565b60405180910390fd5b600073ffffffffffffffffffffffffffffffffffffffff168473ffffffffffffffffffffffffffffffffffffffff1603610e01576040517f08c379a0000000000000000000000000000000000000000000000000000000008152600401610df890614ee4565b60405180910390fd5b6000610e0b610d46565b9050610e1b818787878787611c90565b60005b8451811015610fcf576000858281518110610e3c57610e3b614ca8565b5b602002602001015190506000858381518110610e5b57610e5a614ca8565b5b6020026020010151905060006001600084815260200190815260200160002060008b73ffffffffffffffffffffffffffffffffffffffff1673ffffffffffffffffffffffffffffffffffffffff16815260200190815260200160002054905081811015610efd576040517f08c379a0000000000000000000000000000000000000000000000000000000008152600401610ef490614f76565b60405180910390fd5b8181036001600085815260200190815260200160002060008c73ffffffffffffffffffffffffffffffffffffffff1673ffffffffffffffffffffffffffffffffffffffff16815260200190815260200160002081905550816001600085815260200190815260200160002060008b73ffffffffffffffffffffffffffffffffffffffff1673ffffffffffffffffffffffffffffffffffffffff1681526020019081526020016000206000828254610fb49190614f96565b9250508190555050505080610fc890614d06565b9050610e1e565b508473ffffffffffffffffffffffffffffffffffffffff168673ffffffffffffffffffffffffffffffffffffffff168273ffffffffffffffffffffffffffffffffffffffff167f4a39dc06d4c0dbc64b70af90fd698a233a518aa5d07e595d983b8c0526c8f7fb8787604051611046929190614fca565b60405180910390a461105c818787878787611c98565b61106a818787878787611ca0565b505050505050565b50565b61107d610d46565b73ffffffffffffffffffffffffffffffffffffffff1661109b61089e565b73ffffffffffffffffffffffffffffffffffffffff16146110f1576040517f08c379a00000000000000000000000000000000000000000000000000000000081526004016110e89061504d565b60405180910390fd5b565b6110fb610874565b1561113b576040517f08c379a0000000000000000000000000000000000000000000000000000000008152600401611132906150b9565b60405180910390fd5b565b61115167e9d0bf7c11cae1c660c01b611072565b6111656711031ce3a99aa42960c01b611072565b61117967280864ed16b7cfdb60c01b611072565b61118d67d8de2a245ef03c1660c01b611072565b81518151146111d1576040517f08c379a00000000000000000000000000000000000000000000000000000000081526004016111c890615125565b60405180910390fd5b6111e567c8d7f5213c517d1360c01b611072565b6111f9675eba1dd8503092e560c01b611072565b61120d6787f68b397761480c60c01b611072565b6112216706654fff5933890060c01b611072565b60008360ff1603611267576040517f08c379a000000000000000000000000000000000000000000000000000000000815260040161125e906151b7565b60405180910390fd5b61127b67c62669daa3cdb37c60c01b611072565b61128f67f7fcd25599e3bc5060c01b611072565b6112a36723dda01cf1fb6a4860c01b611072565b60006009600086815260200190815260200160002090506112ce677601bf881dcb463a60c01b611072565b838160040160026101000a81548160ff021916908360ff1602179055506112ff67967efc50f2b183a960c01b611072565b61131367702cfb3e44416c4960c01b611072565b600061131e84611e77565b905061133467b7eacdd91cf82c6a60c01b611072565b61134867b1c1e8a1056a6cf960c01b611072565b60005b8351811015611558576113686706e00fc1e068e66060c01b611072565b61137c67c2c0c47ecac4fb6a60c01b611072565b60006113ab86838151811061139457611393614ca8565b5b6020026020010151848960ff168760010154611f6c565b90506113c1674d77642179810afe60c01b611072565b6113d56703b25512f0ad5e1960c01b611072565b60006113e082612084565b90506113f667ef7fcef14ef6632160c01b611072565b61140a676d7c48ea2805d7a260c01b611072565b6114c68684815181106114205761141f614ca8565b5b6020026020010151600a60008c815260200190815260200160002080548060200260200160405190810160405280929190818152602001828054801561148557602002820191906000526020600020905b815481526020019060010190808311611471575b5050505050836040518060400160405280600481526020017f3078303000000000000000000000000000000000000000000000000000000000815250612213565b6114da671b8ce1f0fd2eb22460c01b611072565b8185600201546114ea9190614f96565b856002018190555061150667148bc2a8e7fc4c5f60c01b611072565b61151a6786ce439af18282c460c01b611072565b600f8290806001815401808255809150506001900390600052602060002001600090919091909150555050808061155090614d06565b91505061134b565b5061156d67eca428717619180060c01b611072565b6115816723d8591771e2add360c01b611072565b7f621e1a59d70685f53a28114e1229586ecd6908416f6bfaee0e147c3d34f398458684600f6040516115b59392919061536b565b60405180910390a16115d16763ddb3cdf63509cd60c01b611072565b6001601060006101000a81548160ff021916908315150217905550505050505050565b60008060009054906101000a900473ffffffffffffffffffffffffffffffffffffffff169050816000806101000a81548173ffffffffffffffffffffffffffffffffffffffff021916908373ffffffffffffffffffffffffffffffffffffffff1602179055508173ffffffffffffffffffffffffffffffffffffffff168173ffffffffffffffffffffffffffffffffffffffff167f8be0079c531659141344cd1fd0a4f28419497f9722a3daafe3b4186f6b6457e060405160405180910390a35050565b8173ffffffffffffffffffffffffffffffffffffffff168373ffffffffffffffffffffffffffffffffffffffff1603611726576040517f08c379a000000000000000000000000000000000000000000000000000000000815260040161171d90615422565b60405180910390fd5b80600260008573ffffffffffffffffffffffffffffffffffffffff1673ffffffffffffffffffffffffffffffffffffffff16815260200190815260200160002060008473ffffffffffffffffffffffffffffffffffffffff1673ffffffffffffffffffffffffffffffffffffffff16815260200190815260200160002060006101000a81548160ff0219169083151502179055508173ffffffffffffffffffffffffffffffffffffffff168373ffffffffffffffffffffffffffffffffffffffff167f17307eab39ab6107e8899845ad3d59bd9653f200f220920489ca2b5937696c31836040516118179190613f83565b60405180910390a3505050565b61183867045313701da356e660c01b610d43565b61184c670517a1a70bb2776060c01b610d43565b61186067345b0fdf86d6929260c01b610d43565b61186a8987612440565b61187e672934a6251d8e852660c01b610d43565b611892675c04d6536ef8d16360c01b610d43565b6118b28989600b60008d8152602001908152602001600020548888612539565b6118c6677d88d199e0e2b06460c01b610d43565b6118da67c8dfcc39a53df7a660c01b610d43565b6118e48982612776565b6118f86768107ca27c935b2960c01b610d43565b61190c67daabc1d6724462b260c01b610d43565b61191c89898760ff168a87612b12565b6119306743c1416d1eb3456860c01b610d43565b61194467298474e82d9cf27a60c01b610d43565b6119538989848760ff16613293565b61196767c76acd65626377f360c01b610d43565b61197b6786e8ec8b4b8df7ec60c01b610d43565b7fb79a1263d65160537b9075e0e4747a6007a82fb191be4435b4c508c431920b8989600660076040516119b093929190615521565b60405180910390a16119cc671cde3608884cfe4660c01b610d43565b6001600860006101000a81548160ff021916908315150217905550505050505050505050565b600073ffffffffffffffffffffffffffffffffffffffff168473ffffffffffffffffffffffffffffffffffffffff1603611a61576040517f08c379a0000000000000000000000000000000000000000000000000000000008152600401611a5890614ee4565b60405180910390fd5b6000611a6b610d46565b90506000611a788561356a565b90506000611a858561356a565b9050611a95838989858589611c90565b60006001600088815260200190815260200160002060008a73ffffffffffffffffffffffffffffffffffffffff1673ffffffffffffffffffffffffffffffffffffffff16815260200190815260200160002054905085811015611b2d576040517f08c379a0000000000000000000000000000000000000000000000000000000008152600401611b2490614f76565b60405180910390fd5b8581036001600089815260200190815260200160002060008b73ffffffffffffffffffffffffffffffffffffffff1673ffffffffffffffffffffffffffffffffffffffff16815260200190815260200160002081905550856001600089815260200190815260200160002060008a73ffffffffffffffffffffffffffffffffffffffff1673ffffffffffffffffffffffffffffffffffffffff1681526020019081526020016000206000828254611be49190614f96565b925050819055508773ffffffffffffffffffffffffffffffffffffffff168973ffffffffffffffffffffffffffffffffffffffff168573ffffffffffffffffffffffffffffffffffffffff167fc3d58168c5ae7397731d063d5bbf3d657854427343f4c083240f7aacaa2d0f628a8a604051611c61929190615566565b60405180910390a4611c77848a8a86868a611c98565b611c85848a8a8a8a8a6135e4565b505050505050505050565b505050505050565b505050505050565b611cbf8473ffffffffffffffffffffffffffffffffffffffff166137bb565b15611e6f578373ffffffffffffffffffffffffffffffffffffffff1663bc197c8187878686866040518663ffffffff1660e01b8152600401611d059594939291906155e4565b6020604051808303816000875af1925050508015611d4157506040513d601f19601f82011682018060405250810190611d3e9190615661565b60015b611de657611d4d61569b565b806308c379a003611da95750611d616156bd565b80611d6c5750611dab565b806040517f08c379a0000000000000000000000000000000000000000000000000000000008152600401611da0919061405b565b60405180910390fd5b505b6040517f08c379a0000000000000000000000000000000000000000000000000000000008152600401611ddd906157bf565b60405180910390fd5b63bc197c8160e01b7bffffffffffffffffffffffffffffffffffffffffffffffffffffffff1916817bffffffffffffffffffffffffffffffffffffffffffffffffffffffff191614611e6d576040517f08c379a0000000000000000000000000000000000000000000000000000000008152600401611e6490615851565b60405180910390fd5b505b505050505050565b6000611e8d672c24d522c2f2a5c960c01b611072565b611ea167a3bb9bd5e8c8bb2e60c01b611072565b611eb56786337bae2a37406560c01b611072565b6000611ecb67ea7eb9588145167d60c01b611072565b611edf6748f868e0444c46b960c01b611072565b60005b8351811015611f3a57611eff679def5a877a03b74060c01b611072565b838181518110611f1257611f11614ca8565b5b602002602001015182611f259190614f96565b91508080611f3290614d06565b915050611ee2565b50611f4f67cab7ab8e130a4dbd60c01b611072565b611f636722365d0d502bfb4f60c01b611072565b80915050919050565b6000611f8267c0bd86553dc9dcf760c01b610d43565b611f9667f13bac2db8aadd9d60c01b610d43565b611faa67b04d8f64400656c460c01b610d43565b600084866064611fba9190615871565b611fc491906158e2565b9050611fda67d187e030dcab719b60c01b610d43565b611fee67e899675b913e526b60c01b610d43565b600060648585611ffe9190615871565b61200891906158e2565b905061201e67dc78ce2d2d268da760c01b610d43565b61203267b96e33ed7c183fba60c01b610d43565b6000606483836120429190615871565b61204c91906158e2565b90506120626770bc9304bfb857ee60c01b610d43565b61207667b973c3dc08e485ba60c01b610d43565b809350505050949350505050565b606061209a67962e4a2c0fb2b9c060c01b610d43565b6120ae67b3bb2928ea0a041560c01b610d43565b6120c2679896bbb6856bb8ed60c01b610d43565b6000600267ffffffffffffffff8111156120df576120de614082565b5b60405190808252806020026020018201604052801561210d5781602001602082028036833780820191505090505b50905061212467b12fa4d57968989660c01b610d43565b6121386750dad8eadf8b14b560c01b610d43565b600060646032856121499190615871565b61215391906158e2565b905061216967bfbc053d5f05103e60c01b610d43565b808260008151811061217e5761217d614ca8565b5b60200260200101818152505061219e671abb5488a40b0f4e60c01b610d43565b80846121aa9190615913565b93506121c06727a6e5d3e438f69c60c01b610d43565b83826001815181106121d5576121d4614ca8565b5b6020026020010181815250506121f5671413fb46e77f556360c01b610d43565b61220967b0e8f4295db6a90e60c01b610d43565b8192505050919050565b600073ffffffffffffffffffffffffffffffffffffffff168473ffffffffffffffffffffffffffffffffffffffff1603612282576040517f08c379a0000000000000000000000000000000000000000000000000000000008152600401612279906159b9565b60405180910390fd5b81518351146122c6576040517f08c379a00000000000000000000000000000000000000000000000000000000081526004016122bd90614e52565b60405180910390fd5b60006122d0610d46565b90506122e181600087878787611c90565b60005b845181101561239b57838181518110612300576122ff614ca8565b5b60200260200101516001600087848151811061231f5761231e614ca8565b5b6020026020010151815260200190815260200160002060008873ffffffffffffffffffffffffffffffffffffffff1673ffffffffffffffffffffffffffffffffffffffff16815260200190815260200160002060008282546123819190614f96565b92505081905550808061239390614d06565b9150506122e4565b508473ffffffffffffffffffffffffffffffffffffffff16600073ffffffffffffffffffffffffffffffffffffffff168273ffffffffffffffffffffffffffffffffffffffff167f4a39dc06d4c0dbc64b70af90fd698a233a518aa5d07e595d983b8c0526c8f7fb8787604051612413929190614fca565b60405180910390a461242a81600087878787611c98565b61243981600087878787611ca0565b5050505050565b612454676e9c6377f00f5bbb60c01b610d43565b61246867078833307a71b2bb60c01b610d43565b61247c6707c62ebaa2fe291860c01b610d43565b61249067bd8e4998bf94c87b60c01b610d43565b600081036124d3576040517f08c379a00000000000000000000000000000000000000000000000000000000081526004016124ca90615a4b565b60405180910390fd5b6124e767f9450a09747c6bc860c01b610d43565b6124fb67c3bf5bce8ed8392e60c01b610d43565b42816125079190614f96565b905061251d6702a5cc15e215937360c01b610d43565b80600b6000848152602001908152602001600020819055505050565b61254d676b23f72428f05a5a60c01b610d43565b61256167a59371748f2bd5fe60c01b610d43565b61257567bc6890b52ec8a6b060c01b610d43565b6125896773de934dc15708a560c01b610d43565b600084036125cc576040517f08c379a00000000000000000000000000000000000000000000000000000000081526004016125c390615add565b60405180910390fd5b6125e0672847b80c7e3ea41260c01b610d43565b6125f467c5a21a14d2cdc6a860c01b610d43565b6126086724dd14c856dc5b6e60c01b610d43565b61261c67b232bb1808c6889160c01b610d43565b60008260ff1603612662576040517f08c379a000000000000000000000000000000000000000000000000000000000815260040161265990615b6f565b60405180910390fd5b61267667fdbbb9fc42fb326460c01b610d43565b61268a67adcc73e70c461e2660c01b610d43565b61269e6737697edf57872b4260c01b610d43565b60006009600087815260200190815260200160002090506126c9671484be4f5545900a60c01b610d43565b8581600001819055506126e667c2e136710984dc7960c01b610d43565b84816001018190555061270367c392474f025a3d3560c01b610d43565b838160030181905550612720678163818a3fb367a160c01b610d43565b828160040160006101000a81548160ff021916908360ff16021790555061275167f0d37fd730e6881e60c01b610d43565b818160040160016101000a81548160ff021916908360ff160217905550505050505050565b61278a67e5e3622a920e1a4260c01b610d43565b61279e67b1a8938d01f7436e60c01b610d43565b6127b267f4f3abecf973e08860c01b610d43565b6000600267ffffffffffffffff8111156127cf576127ce614082565b5b60405190808252806020026020018201604052801561280257816020015b60608152602001906001900390816127ed5790505b50905061281967be574b27fb55a57a60c01b610d43565b6040518060400160405280600681526020017f4c4f434b454400000000000000000000000000000000000000000000000000008152508160008151811061286357612862614ca8565b5b6020026020010181905250612882678401be69987213a860c01b610d43565b6040518060400160405280600681526020017f5452414445440000000000000000000000000000000000000000000000000000815250816001815181106128cc576128cb614ca8565b5b60200260200101819052506128eb67c9878488e1fae71b60c01b610d43565b6128ff67c436369b5f81c65460c01b610d43565b60005b81518160ff161015612b0c5761292267247ffd0afc1e032760c01b610d43565b61293667fd6f85f10dad3d0460c01b610d43565b6005828260ff168151811061294e5761294d614ca8565b5b60200260200101519080600181540180825580915050600190039060005260206000200160009091909190915090816129879190615d3b565b5061299c676eb7ab485d6c191460c01b610d43565b6129b06754908a8c1019c94f60c01b610d43565b600060016005805490506129c49190615913565b90506129da6791f75e7a46a3ef7a60c01b610d43565b6129ee6720778797eb25370d60c01b610d43565b600a6000868152602001908152602001600020819080600181540180825580915050600190039060005260206000200160009091909190915055612a3c67de5ca9facffdbe9160c01b610d43565b828260ff1681518110612a5257612a51614ca8565b5b6020026020010151600d60008381526020019081526020016000209081612a799190615d3b565b50612a8e6790a0f3ef8d64fb8f60c01b610d43565b84600c600083815260200190815260200160002081905550612aba67d40dffc99e9e993360c01b610d43565b838260ff1681518110612ad057612acf614ca8565b5b6020026020010151600e60008381526020019081526020016000209081612af79190615d3b565b50508080612b0490615e0d565b915050612902565b50505050565b612b2667df77498792cf7dcd60c01b610d43565b612b3a6751326b59044d941d60c01b610d43565b612b4e6764165cf48e0795aa60c01b610d43565b6000600460009054906101000a900473ffffffffffffffffffffffffffffffffffffffff1673ffffffffffffffffffffffffffffffffffffffff1663c9187fe7876040518263ffffffff1660e01b8152600401612bab9190613ec8565b600060405180830381865afa158015612bc8573d6000803e3d6000fd5b505050506040513d6000823e3d601f19601f82011682018060405250810190612bf19190615f87565b9050612c0767da14215600237b8060c01b610d43565b612c1b67e0cb465402ef0db660c01b610d43565b6000612c26876137de565b9050612c3c67536bdbe8838f556360c01b610d43565b612c5067cd3c16253d96418960c01b610d43565b6000600960008981526020019081526020016000209050612c7b6791e64534b1cd3ed260c01b610d43565b8482612c879190614f96565b9150612c9d67ca1bf8ac3c5f0e6f60c01b610d43565b612cb1675e10a89e86ee66a260c01b610d43565b60005b600460009054906101000a900473ffffffffffffffffffffffffffffffffffffffff1673ffffffffffffffffffffffffffffffffffffffff166384ffeca58a6040518263ffffffff1660e01b8152600401612d0f9190613ec8565b602060405180830381865afa158015612d2c573d6000803e3d6000fd5b505050506040513d601f19601f82011682018060405250810190612d509190615fe5565b81101561314557612d6b67869b1ebf9911403d60c01b610d43565b612d7f679116c85051d9dd5560c01b610d43565b6000600460009054906101000a900473ffffffffffffffffffffffffffffffffffffffff1673ffffffffffffffffffffffffffffffffffffffff166359a96ffe868481518110612dd257612dd1614ca8565b5b60200260200101516040518263ffffffff1660e01b8152600401612df69190616012565b602060405180830381865afa158015612e13573d6000803e3d6000fd5b505050506040513d601f19601f82011682018060405250810190612e379190616049565b9050612e4d671d36beafa45c272360c01b610d43565b612e6167709c5ed10e37177f60c01b610d43565b6000612f26600460009054906101000a900473ffffffffffffffffffffffffffffffffffffffff1673ffffffffffffffffffffffffffffffffffffffff16630e47cefa888681518110612eb757612eb6614ca8565b5b60200260200101518e6040518363ffffffff1660e01b8152600401612edd929190616076565b602060405180830381865afa158015612efa573d6000803e3d6000fd5b505050506040513d601f19601f82011682018060405250810190612f1e9190615fe5565b868b8d611f6c565b9050612f3c67b1b3c0f643e8aef160c01b610d43565b612f50671ba265ed56cff63060c01b610d43565b6000612f5b82612084565b9050612f716706b017567703b4bf60c01b610d43565b612f85676373306cf80355fc60c01b610d43565b61302783600a60008f8152602001908152602001600020805480602002602001604051908101604052809291908181526020018280548015612fe657602002820191906000526020600020905b815481526020019060010190808311612fd2575b5050505050836040518060400160405280600481526020017f3078303000000000000000000000000000000000000000000000000000000000815250612213565b61303b67dba4bb17d0eb8a4160c01b610d43565b81856002015461304b9190614f96565b856002018190555061306767efd497b8f5407f8060c01b610d43565b61307b67c0eacc1cba0b450f60c01b610d43565b6006839080600181540180825580915050600190039060005260206000200160009091909190916101000a81548173ffffffffffffffffffffffffffffffffffffffff021916908373ffffffffffffffffffffffffffffffffffffffff1602179055506130f267e3787bfd21fcac8560c01b610d43565b61310667fa0d10fb46e3481360c01b610d43565b6007829080600181540180825580915050600190039060005260206000200160009091909190915055505050808061313d90614d06565b915050612cb4565b5061315a67fb9e2596c88c5ec260c01b610d43565b61316e6781e89710a47ef99c60c01b610d43565b600061317e898688868b8d613a6c565b905061319467b9550541abcf3c1a60c01b610d43565b8082600201546131a49190614f96565b82600201819055506131c0675203e27cb0b9f17b60c01b610d43565b6131d467ddddbb65675b1ca960c01b610d43565b6006859080600181540180825580915050600190039060005260206000200160009091909190916101000a81548173ffffffffffffffffffffffffffffffffffffffff021916908373ffffffffffffffffffffffffffffffffffffffff16021790555061324b671c23b30664196bb860c01b610d43565b61325f677716a208e4d4aff860c01b610d43565b6007819080600181540180825580915050600190039060005260206000200160009091909190915055505050505050505050565b6132a7679c5be580aff8157060c01b610d43565b6132bb67a40a084a2f77ceb860c01b610d43565b6132cf672500ba4af42ce6ab60c01b610d43565b60006009600086815260200190815260200160002090506132fa6702e97f6716fe1e5060c01b610d43565b61330e67925278c2e8dc4b6d60c01b610d43565b60006064838661331e9190615871565b61332891906158e2565b905061333e67ce47f549ca2ac62560c01b610d43565b80826002015461334e9190614f96565b826002018190555061336a678418c57d606467d760c01b610d43565b61337e6753ea471b208b1feb60c01b610d43565b600061338982612084565b905061339f6793b402b60ed69df660c01b610d43565b6133b3671995d4a32c1853d760c01b610d43565b60005b8151811015613484576133d3678fa697afb24900b460c01b610d43565b6133e767b48d6e401c6c4c5060c01b610d43565b61347186600a60008b815260200190815260200160002083815481106134105761340f614ca8565b5b906000526020600020015484848151811061342e5761342d614ca8565b5b60200260200101516040518060400160405280600481526020017f3078303000000000000000000000000000000000000000000000000000000000815250613c20565b808061347c90614d06565b9150506133b6565b50613499678539d20c68087c7960c01b610d43565b6134ad6779c5a977f48d2c9260c01b610d43565b6006859080600181540180825580915050600190039060005260206000200160009091909190916101000a81548173ffffffffffffffffffffffffffffffffffffffff021916908373ffffffffffffffffffffffffffffffffffffffff16021790555061352467ed6f11cec03a659d60c01b610d43565b61353867dcf7076f445f86de60c01b610d43565b600782908060018154018082558091505060019003906000526020600020016000909190919091505550505050505050565b60606000600167ffffffffffffffff81111561358957613588614082565b5b6040519080825280602002602001820160405280156135b75781602001602082028036833780820191505090505b50905082816000815181106135cf576135ce614ca8565b5b60200260200101818152505080915050919050565b6136038473ffffffffffffffffffffffffffffffffffffffff166137bb565b156137b3578373ffffffffffffffffffffffffffffffffffffffff1663f23a6e6187878686866040518663ffffffff1660e01b81526004016136499594939291906160a6565b6020604051808303816000875af192505050801561368557506040513d601f19601f820116820180604052508101906136829190615661565b60015b61372a5761369161569b565b806308c379a0036136ed57506136a56156bd565b806136b057506136ef565b806040517f08c379a00000000000000000000000000000000000000000000000000000000081526004016136e4919061405b565b60405180910390fd5b505b6040517f08c379a0000000000000000000000000000000000000000000000000000000008152600401613721906157bf565b60405180910390fd5b63f23a6e6160e01b7bffffffffffffffffffffffffffffffffffffffffffffffffffffffff1916817bffffffffffffffffffffffffffffffffffffffffffffffffffffffff1916146137b1576040517f08c379a00000000000000000000000000000000000000000000000000000000081526004016137a890615851565b60405180910390fd5b505b505050505050565b6000808273ffffffffffffffffffffffffffffffffffffffff163b119050919050565b60006137f467d9ff3d2085ab30c760c01b610d43565b6138086746071a432c70448660c01b610d43565b61381c67aeb12c3867abcc4960c01b610d43565b6000600460009054906101000a900473ffffffffffffffffffffffffffffffffffffffff1673ffffffffffffffffffffffffffffffffffffffff1663c9187fe7846040518263ffffffff1660e01b81526004016138799190613ec8565b600060405180830381865afa158015613896573d6000803e3d6000fd5b505050506040513d6000823e3d601f19601f820116820180604052508101906138bf9190615f87565b90506138d5677488655232596c3360c01b610d43565b6138e967974f61c1a94e89f360c01b610d43565b60006138ff67af55825f5d88e83e60c01b610d43565b613913676a0caf1b0b1d58c560c01b610d43565b60005b8251811015613a395761393367931b8fab2e2e341660c01b610d43565b613947672ecb136fb131368f60c01b610d43565b6000600460009054906101000a900473ffffffffffffffffffffffffffffffffffffffff1673ffffffffffffffffffffffffffffffffffffffff16630e47cefa85848151811061399a57613999614ca8565b5b6020026020010151886040518363ffffffff1660e01b81526004016139c0929190616076565b602060405180830381865afa1580156139dd573d6000803e3d6000fd5b505050506040513d601f19601f82011682018060405250810190613a019190615fe5565b9050613a1767167a72d3b0d2562860c01b610d43565b8083613a239190614f96565b9250508080613a3190614d06565b915050613916565b50613a4e67758283d16593171b60c01b610d43565b613a62673ce451fc100cc99f60c01b610d43565b8092505050919050565b6000613a826799456268be9ca2ab60c01b610d43565b613a96671c3ec0d0aa4275e260c01b610d43565b613aaa672397560cdade6ce960c01b610d43565b6000613ab886868686611f6c565b9050613ace67803778389d2790ab60c01b610d43565b613ae267932c30032ac58a3a60c01b610d43565b6000613aed82612084565b9050613b0367b38a387a3cce170560c01b610d43565b613b1767c297d28d9f8cda8060c01b610d43565b60005b8151811015613be857613b37672204b13d5444ba5260c01b610d43565b613b4b679b9717fb5ab3646660c01b610d43565b613bd589600a60008d81526020019081526020016000208381548110613b7457613b73614ca8565b5b9060005260206000200154848481518110613b9257613b91614ca8565b5b60200260200101516040518060400160405280600481526020017f3078303000000000000000000000000000000000000000000000000000000000815250613c20565b8080613be090614d06565b915050613b1a565b50613bfd67efb20c519b10d04a60c01b610d43565b613c11670f37f0a4032d456f60c01b610d43565b81925050509695505050505050565b600073ffffffffffffffffffffffffffffffffffffffff168473ffffffffffffffffffffffffffffffffffffffff1603613c8f576040517f08c379a0000000000000000000000000000000000000000000000000000000008152600401613c86906159b9565b60405180910390fd5b6000613c99610d46565b90506000613ca68561356a565b90506000613cb38561356a565b9050613cc483600089858589611c90565b846001600088815260200190815260200160002060008973ffffffffffffffffffffffffffffffffffffffff1673ffffffffffffffffffffffffffffffffffffffff1681526020019081526020016000206000828254613d249190614f96565b925050819055508673ffffffffffffffffffffffffffffffffffffffff16600073ffffffffffffffffffffffffffffffffffffffff168473ffffffffffffffffffffffffffffffffffffffff167fc3d58168c5ae7397731d063d5bbf3d657854427343f4c083240f7aacaa2d0f628989604051613da2929190615566565b60405180910390a4613db983600089858589611c98565b613dc8836000898989896135e4565b50505050505050565b6000604051905090565b600080fd5b600080fd5b600073ffffffffffffffffffffffffffffffffffffffff82169050919050565b6000613e1082613de5565b9050919050565b613e2081613e05565b8114613e2b57600080fd5b50565b600081359050613e3d81613e17565b92915050565b6000819050919050565b613e5681613e43565b8114613e6157600080fd5b50565b600081359050613e7381613e4d565b92915050565b60008060408385031215613e9057613e8f613ddb565b5b6000613e9e85828601613e2e565b9250506020613eaf85828601613e64565b9150509250929050565b613ec281613e43565b82525050565b6000602082019050613edd6000830184613eb9565b92915050565b60007fffffffff0000000000000000000000000000000000000000000000000000000082169050919050565b613f1881613ee3565b8114613f2357600080fd5b50565b600081359050613f3581613f0f565b92915050565b600060208284031215613f5157613f50613ddb565b5b6000613f5f84828501613f26565b91505092915050565b60008115159050919050565b613f7d81613f68565b82525050565b6000602082019050613f986000830184613f74565b92915050565b600060208284031215613fb457613fb3613ddb565b5b6000613fc284828501613e64565b91505092915050565b600081519050919050565b600082825260208201905092915050565b60005b83811015614005578082015181840152602081019050613fea565b60008484015250505050565b6000601f19601f8301169050919050565b600061402d82613fcb565b6140378185613fd6565b9350614047818560208601613fe7565b61405081614011565b840191505092915050565b600060208201905081810360008301526140758184614022565b905092915050565b600080fd5b7f4e487b7100000000000000000000000000000000000000000000000000000000600052604160045260246000fd5b6140ba82614011565b810181811067ffffffffffffffff821117156140d9576140d8614082565b5b80604052505050565b60006140ec613dd1565b90506140f882826140b1565b919050565b600067ffffffffffffffff82111561411857614117614082565b5b602082029050602081019050919050565b600080fd5b600061414161413c846140fd565b6140e2565b9050808382526020820190506020840283018581111561416457614163614129565b5b835b8181101561418d57806141798882613e64565b845260208401935050602081019050614166565b5050509392505050565b600082601f8301126141ac576141ab61407d565b5b81356141bc84826020860161412e565b91505092915050565b600080fd5b600067ffffffffffffffff8211156141e5576141e4614082565b5b6141ee82614011565b9050602081019050919050565b82818337600083830152505050565b600061421d614218846141ca565b6140e2565b905082815260208101848484011115614239576142386141c5565b5b6142448482856141fb565b509392505050565b600082601f8301126142615761426061407d565b5b813561427184826020860161420a565b91505092915050565b600080600080600060a0868803121561429657614295613ddb565b5b60006142a488828901613e2e565b95505060206142b588828901613e2e565b945050604086013567ffffffffffffffff8111156142d6576142d5613de0565b5b6142e288828901614197565b935050606086013567ffffffffffffffff81111561430357614302613de0565b5b61430f88828901614197565b925050608086013567ffffffffffffffff8111156143305761432f613de0565b5b61433c8882890161424c565b9150509295509295909350565b600060ff82169050919050565b61435f81614349565b811461436a57600080fd5b50565b60008135905061437c81614356565b92915050565b600067ffffffffffffffff82111561439d5761439c614082565b5b602082029050602081019050919050565b60006143c16143bc84614382565b6140e2565b905080838252602082019050602084028301858111156143e4576143e3614129565b5b835b8181101561440d57806143f98882613e2e565b8452602084019350506020810190506143e6565b5050509392505050565b600082601f83011261442c5761442b61407d565b5b813561443c8482602086016143ae565b91505092915050565b6000806000806080858703121561445f5761445e613ddb565b5b600061446d87828801613e64565b945050602061447e8782880161436d565b935050604085013567ffffffffffffffff81111561449f5761449e613de0565b5b6144ab87828801614197565b925050606085013567ffffffffffffffff8111156144cc576144cb613de0565b5b6144d887828801614417565b91505092959194509250565b600080604083850312156144fb576144fa613ddb565b5b600083013567ffffffffffffffff81111561451957614518613de0565b5b61452585828601614417565b925050602083013567ffffffffffffffff81111561454657614545613de0565b5b61455285828601614197565b9150509250929050565b600081519050919050565b600082825260208201905092915050565b6000819050602082019050919050565b61459181613e43565b82525050565b60006145a38383614588565b60208301905092915050565b6000602082019050919050565b60006145c78261455c565b6145d18185614567565b93506145dc83614578565b8060005b8381101561460d5781516145f48882614597565b97506145ff836145af565b9250506001810190506145e0565b5085935050505092915050565b6000602082019050818103600083015261463481846145bc565b905092915050565b61464581613e05565b82525050565b6000602082019050614660600083018461463c565b92915050565b61466f81613f68565b811461467a57600080fd5b50565b60008135905061468c81614666565b92915050565b600080604083850312156146a9576146a8613ddb565b5b60006146b785828601613e2e565b92505060206146c88582860161467d565b9150509250929050565b600067ffffffffffffffff8211156146ed576146ec614082565b5b602082029050602081019050919050565b600067ffffffffffffffff82111561471957614718614082565b5b61472282614011565b9050602081019050919050565b600061474261473d846146fe565b6140e2565b90508281526020810184848401111561475e5761475d6141c5565b5b6147698482856141fb565b509392505050565b600082601f8301126147865761478561407d565b5b813561479684826020860161472f565b91505092915050565b60006147b26147ad846146d2565b6140e2565b905080838252602082019050602084028301858111156147d5576147d4614129565b5b835b8181101561481c57803567ffffffffffffffff8111156147fa576147f961407d565b5b8086016148078982614771565b855260208501945050506020810190506147d7565b5050509392505050565b600082601f83011261483b5761483a61407d565b5b813561484b84826020860161479f565b91505092915050565b60008060008060008060008060006101208a8c03121561487757614876613ddb565b5b60006148858c828d01613e64565b99505060206148968c828d01613e64565b98505060406148a78c828d01613e64565b97505060606148b88c828d01613e64565b96505060806148c98c828d0161436d565b95505060a06148da8c828d0161436d565b94505060c06148eb8c828d01613e2e565b93505060e06148fc8c828d01613e2e565b9250506101008a013567ffffffffffffffff81111561491e5761491d613de0565b5b61492a8c828d01614826565b9150509295985092959850929598565b6000806040838503121561495157614950613ddb565b5b600061495f85828601613e2e565b925050602061497085828601613e2e565b9150509250929050565b600080600080600060a0868803121561499657614995613ddb565b5b60006149a488828901613e2e565b95505060206149b588828901613e2e565b94505060406149c688828901613e64565b93505060606149d788828901613e64565b925050608086013567ffffffffffffffff8111156149f8576149f7613de0565b5b614a048882890161424c565b9150509295509295909350565b600060208284031215614a2757614a26613ddb565b5b6000614a3584828501613e2e565b91505092915050565b614a4781614349565b82525050565b6000608082019050614a626000830187613eb9565b614a6f6020830186614a3e565b614a7c6040830185614a3e565b614a896060830184614a3e565b95945050505050565b7f455243313135353a2061646472657373207a65726f206973206e6f742061207660008201527f616c6964206f776e657200000000000000000000000000000000000000000000602082015250565b6000614aee602a83613fd6565b9150614af982614a92565b604082019050919050565b60006020820190508181036000830152614b1d81614ae1565b9050919050565b7f4e487b7100000000000000000000000000000000000000000000000000000000600052602260045260246000fd5b60006002820490506001821680614b6b57607f821691505b602082108103614b7e57614b7d614b24565b5b50919050565b7f455243313135353a2063616c6c6572206973206e6f7420746f6b656e206f776e60008201527f6572206f7220617070726f766564000000000000000000000000000000000000602082015250565b6000614be0602e83613fd6565b9150614beb82614b84565b604082019050919050565b60006020820190508181036000830152614c0f81614bd3565b9050919050565b7f455243313135353a206163636f756e747320616e6420696473206c656e67746860008201527f206d69736d617463680000000000000000000000000000000000000000000000602082015250565b6000614c72602983613fd6565b9150614c7d82614c16565b604082019050919050565b60006020820190508181036000830152614ca181614c65565b9050919050565b7f4e487b7100000000000000000000000000000000000000000000000000000000600052603260045260246000fd5b7f4e487b7100000000000000000000000000000000000000000000000000000000600052601160045260246000fd5b6000614d1182613e43565b91507fffffffffffffffffffffffffffffffffffffffffffffffffffffffffffffffff8203614d4357614d42614cd7565b5b600182019050919050565b7f4f776e61626c653a206e6577206f776e657220697320746865207a65726f206160008201527f6464726573730000000000000000000000000000000000000000000000000000602082015250565b6000614daa602683613fd6565b9150614db582614d4e565b604082019050919050565b60006020820190508181036000830152614dd981614d9d565b9050919050565b7f455243313135353a2069647320616e6420616d6f756e7473206c656e6774682060008201527f6d69736d61746368000000000000000000000000000000000000000000000000602082015250565b6000614e3c602883613fd6565b9150614e4782614de0565b604082019050919050565b60006020820190508181036000830152614e6b81614e2f565b9050919050565b7f455243313135353a207472616e7366657220746f20746865207a65726f20616460008201527f6472657373000000000000000000000000000000000000000000000000000000602082015250565b6000614ece602583613fd6565b9150614ed982614e72565b604082019050919050565b60006020820190508181036000830152614efd81614ec1565b9050919050565b7f455243313135353a20696e73756666696369656e742062616c616e636520666f60008201527f72207472616e7366657200000000000000000000000000000000000000000000602082015250565b6000614f60602a83613fd6565b9150614f6b82614f04565b604082019050919050565b60006020820190508181036000830152614f8f81614f53565b9050919050565b6000614fa182613e43565b9150614fac83613e43565b9250828201905080821115614fc457614fc3614cd7565b5b92915050565b60006040820190508181036000830152614fe481856145bc565b90508181036020830152614ff881846145bc565b90509392505050565b7f4f776e61626c653a2063616c6c6572206973206e6f7420746865206f776e6572600082015250565b6000615037602083613fd6565b915061504282615001565b602082019050919050565b600060208201905081810360008301526150668161502a565b9050919050565b7f5061757361626c653a2070617573656400000000000000000000000000000000600082015250565b60006150a3601083613fd6565b91506150ae8261506d565b602082019050919050565b600060208201905081810360008301526150d281615096565b9050919050565b7f52454a5556453a204e6f7420657175616c206c656e6774680000000000000000600082015250565b600061510f601883613fd6565b915061511a826150d9565b602082019050919050565b6000602082019050818103600083015261513e81615102565b9050919050565b7f52454a5556453a204675747572652070657263656e746167652073686172652060008201527f63616e6e6f74206265207a65726f000000000000000000000000000000000000602082015250565b60006151a1602e83613fd6565b91506151ac82615145565b604082019050919050565b600060208201905081810360008301526151d081615194565b9050919050565b600081519050919050565b600082825260208201905092915050565b6000819050602082019050919050565b61520c81613e05565b82525050565b600061521e8383615203565b60208301905092915050565b6000602082019050919050565b6000615242826151d7565b61524c81856151e2565b9350615257836151f3565b8060005b8381101561528857815161526f8882615212565b975061527a8361522a565b92505060018101905061525b565b5085935050505092915050565b600081549050919050565b60008190508160005260206000209050919050565b60008160001c9050919050565b6000819050919050565b60006152df6152da836152b5565b6152c2565b9050919050565b60006152f282546152cc565b9050919050565b6000600182019050919050565b600061531182615295565b61531b8185614567565b9350615326836152a0565b8060005b8381101561535e5761533b826152e6565b6153458882614597565b9750615350836152f9565b92505060018101905061532a565b5085935050505092915050565b60006060820190506153806000830186613eb9565b81810360208301526153928185615237565b905081810360408301526153a68184615306565b9050949350505050565b7f455243313135353a2073657474696e6720617070726f76616c2073746174757360008201527f20666f722073656c660000000000000000000000000000000000000000000000602082015250565b600061540c602983613fd6565b9150615417826153b0565b604082019050919050565b6000602082019050818103600083015261543b816153ff565b9050919050565b600081549050919050565b60008190508160005260206000209050919050565b600073ffffffffffffffffffffffffffffffffffffffff82169050919050565b6000615495615490836152b5565b615462565b9050919050565b60006154a88254615482565b9050919050565b6000600182019050919050565b60006154c782615442565b6154d181856151e2565b93506154dc8361544d565b8060005b83811015615514576154f18261549c565b6154fb8882615212565b9750615506836154af565b9250506001810190506154e0565b5085935050505092915050565b60006060820190506155366000830186613eb9565b818103602083015261554881856154bc565b9050818103604083015261555c8184615306565b9050949350505050565b600060408201905061557b6000830185613eb9565b6155886020830184613eb9565b9392505050565b600081519050919050565b600082825260208201905092915050565b60006155b68261558f565b6155c0818561559a565b93506155d0818560208601613fe7565b6155d981614011565b840191505092915050565b600060a0820190506155f9600083018861463c565b615606602083018761463c565b818103604083015261561881866145bc565b9050818103606083015261562c81856145bc565b9050818103608083015261564081846155ab565b90509695505050505050565b60008151905061565b81613f0f565b92915050565b60006020828403121561567757615676613ddb565b5b60006156858482850161564c565b91505092915050565b60008160e01c9050919050565b600060033d11156156ba5760046000803e6156b760005161568e565b90505b90565b600060443d1061574a576156cf613dd1565b60043d036004823e80513d602482011167ffffffffffffffff821117156156f757505061574a565b808201805167ffffffffffffffff811115615715575050505061574a565b80602083010160043d03850181111561573257505050505061574a565b615741826020018501866140b1565b82955050505050505b90565b7f455243313135353a207472616e7366657220746f206e6f6e2d4552433131353560008201527f526563656976657220696d706c656d656e746572000000000000000000000000602082015250565b60006157a9603483613fd6565b91506157b48261574d565b604082019050919050565b600060208201905081810360008301526157d88161579c565b9050919050565b7f455243313135353a204552433131353552656365697665722072656a6563746560008201527f6420746f6b656e73000000000000000000000000000000000000000000000000602082015250565b600061583b602883613fd6565b9150615846826157df565b604082019050919050565b6000602082019050818103600083015261586a8161582e565b9050919050565b600061587c82613e43565b915061588783613e43565b925082820261589581613e43565b915082820484148315176158ac576158ab614cd7565b5b5092915050565b7f4e487b7100000000000000000000000000000000000000000000000000000000600052601260045260246000fd5b60006158ed82613e43565b91506158f883613e43565b925082615908576159076158b3565b5b828204905092915050565b600061591e82613e43565b915061592983613e43565b925082820390508181111561594157615940614cd7565b5b92915050565b7f455243313135353a206d696e7420746f20746865207a65726f2061646472657360008201527f7300000000000000000000000000000000000000000000000000000000000000602082015250565b60006159a3602183613fd6565b91506159ae82615947565b604082019050919050565b600060208201905081810360008301526159d281615996565b9050919050565b7f52454a5556453a204c6f636b20706572696f642063616e6e6f74206265207a6560008201527f726f000000000000000000000000000000000000000000000000000000000000602082015250565b6000615a35602283613fd6565b9150615a40826159d9565b604082019050919050565b60006020820190508181036000830152615a6481615a28565b9050919050565b7f52454a5556453a2054617267657420737570706c792063616e6e6f742062652060008201527f3000000000000000000000000000000000000000000000000000000000000000602082015250565b6000615ac7602183613fd6565b9150615ad282615a6b565b604082019050919050565b60006020820190508181036000830152615af681615aba565b9050919050565b7f52454a5556453a20496e697469616c20636f6e7472696275746f72732070657260008201527f63656e742063616e6e6f74206265203000000000000000000000000000000000602082015250565b6000615b59603083613fd6565b9150615b6482615afd565b604082019050919050565b60006020820190508181036000830152615b8881615b4c565b9050919050565b60008190508160005260206000209050919050565b60006020601f8301049050919050565b600082821b905092915050565b600060088302615bf17fffffffffffffffffffffffffffffffffffffffffffffffffffffffffffffffff82615bb4565b615bfb8683615bb4565b95508019841693508086168417925050509392505050565b6000819050919050565b6000615c38615c33615c2e84613e43565b615c13565b613e43565b9050919050565b6000819050919050565b615c5283615c1d565b615c66615c5e82615c3f565b848454615bc1565b825550505050565b600090565b615c7b615c6e565b615c86818484615c49565b505050565b5b81811015615caa57615c9f600082615c73565b600181019050615c8c565b5050565b601f821115615cef57615cc081615b8f565b615cc984615ba4565b81016020851015615cd8578190505b615cec615ce485615ba4565b830182615c8b565b50505b505050565b600082821c905092915050565b6000615d1260001984600802615cf4565b1980831691505092915050565b6000615d2b8383615d01565b9150826002028217905092915050565b615d4482613fcb565b67ffffffffffffffff811115615d5d57615d5c614082565b5b615d678254614b53565b615d72828285615cae565b600060209050601f831160018114615da55760008415615d93578287015190505b615d9d8582615d1f565b865550615e05565b601f198416615db386615b8f565b60005b82811015615ddb57848901518255600182019150602085019450602081019050615db6565b86831015615df85784890151615df4601f891682615d01565b8355505b6001600288020188555050505b505050505050565b6000615e1882614349565b915060ff8203615e2b57615e2a614cd7565b5b600182019050919050565b600067ffffffffffffffff821115615e5157615e50614082565b5b602082029050602081019050919050565b6000615e75615e70846141ca565b6140e2565b905082815260208101848484011115615e9157615e906141c5565b5b615e9c848285613fe7565b509392505050565b600082601f830112615eb957615eb861407d565b5b8151615ec9848260208601615e62565b91505092915050565b6000615ee5615ee084615e36565b6140e2565b90508083825260208201905060208402830185811115615f0857615f07614129565b5b835b81811015615f4f57805167ffffffffffffffff811115615f2d57615f2c61407d565b5b808601615f3a8982615ea4565b85526020850194505050602081019050615f0a565b5050509392505050565b600082601f830112615f6e57615f6d61407d565b5b8151615f7e848260208601615ed2565b91505092915050565b600060208284031215615f9d57615f9c613ddb565b5b600082015167ffffffffffffffff811115615fbb57615fba613de0565b5b615fc784828501615f59565b91505092915050565b600081519050615fdf81613e4d565b92915050565b600060208284031215615ffb57615ffa613ddb565b5b600061600984828501615fd0565b91505092915050565b6000602082019050818103600083015261602c81846155ab565b905092915050565b60008151905061604381613e17565b92915050565b60006020828403121561605f5761605e613ddb565b5b600061606d84828501616034565b91505092915050565b6000604082019050818103600083015261609081856155ab565b905061609f6020830184613eb9565b9392505050565b600060a0820190506160bb600083018861463c565b6160c8602083018761463c565b6160d56040830186613eb9565b6160e26060830185613eb9565b81810360808301526160f481846155ab565b9050969550505050505056fea2646970667358221220a19214a8ae41ad8be2a064c4ccc5697fddf9334b209e94638ef902cf91a3367764736f6c63430008110033",
  "linkReferences": {},
  "deployedLinkReferences": {}
}