{
  "_format": "hh-sol-artifact-1",
  "contractName": "FutureShards",
  "sourceName": "contracts/FutureShards.sol",
  "abi": [
    {
      "inputs": [
        {
          "internalType": "string",
          "name": "uri_",
          "type": "string"
        },
        {
          "internalType": "address",
          "name": "productNFT_",
          "type": "address"
        }
      ],
      "stateMutability": "nonpayable",
      "type": "constructor"
    },
    {
      "anonymous": false,
      "inputs": [
        {
          "indexed": true,
          "internalType": "address",
          "name": "account",
          "type": "address"
        },
        {
          "indexed": true,
          "internalType": "address",
          "name": "operator",
          "type": "address"
        },
        {
          "indexed": false,
          "internalType": "bool",
          "name": "approved",
          "type": "bool"
        }
      ],
      "name": "ApprovalForAll",
      "type": "event"
    },
    {
      "anonymous": false,
      "inputs": [
        {
          "indexed": false,
          "internalType": "uint256",
          "name": "productUID",
          "type": "uint256"
        },
        {
          "indexed": false,
          "internalType": "address[]",
          "name": "dataOwners",
          "type": "address[]"
        },
        {
          "indexed": false,
          "internalType": "uint256[]",
          "name": "shardAmount",
          "type": "uint256[]"
        }
      ],
      "name": "FutureShardDistributed",
      "type": "event"
    },
    {
      "anonymous": false,
      "inputs": [
        {
          "indexed": false,
          "internalType": "uint256",
          "name": "productUID",
          "type": "uint256"
        },
        {
          "indexed": false,
          "internalType": "address[]",
          "name": "dataOwners",
          "type": "address[]"
        },
        {
          "indexed": false,
          "internalType": "uint256[]",
          "name": "shardAmount",
          "type": "uint256[]"
        }
      ],
      "name": "InitialShardDistributed",
      "type": "event"
    },
    {
      "anonymous": false,
      "inputs": [
        {
          "indexed": true,
          "internalType": "address",
          "name": "previousOwner",
          "type": "address"
        },
        {
          "indexed": true,
          "internalType": "address",
          "name": "newOwner",
          "type": "address"
        }
      ],
      "name": "OwnershipTransferred",
      "type": "event"
    },
    {
      "anonymous": false,
      "inputs": [
        {
          "indexed": false,
          "internalType": "address",
          "name": "account",
          "type": "address"
        }
      ],
      "name": "Paused",
      "type": "event"
    },
    {
      "anonymous": false,
      "inputs": [
        {
          "indexed": false,
          "internalType": "uint256",
          "name": "productUID",
          "type": "uint256"
        },
        {
          "indexed": false,
          "internalType": "address",
          "name": "rejuve",
          "type": "address"
        },
        {
          "indexed": false,
          "internalType": "uint256",
          "name": "shardAmount",
          "type": "uint256"
        }
      ],
      "name": "RemainingShardAllocated",
      "type": "event"
    },
    {
      "anonymous": false,
      "inputs": [
        {
          "indexed": true,
          "internalType": "address",
          "name": "operator",
          "type": "address"
        },
        {
          "indexed": true,
          "internalType": "address",
          "name": "from",
          "type": "address"
        },
        {
          "indexed": true,
          "internalType": "address",
          "name": "to",
          "type": "address"
        },
        {
          "indexed": false,
          "internalType": "uint256[]",
          "name": "ids",
          "type": "uint256[]"
        },
        {
          "indexed": false,
          "internalType": "uint256[]",
          "name": "values",
          "type": "uint256[]"
        }
      ],
      "name": "TransferBatch",
      "type": "event"
    },
    {
      "anonymous": false,
      "inputs": [
        {
          "indexed": true,
          "internalType": "address",
          "name": "operator",
          "type": "address"
        },
        {
          "indexed": true,
          "internalType": "address",
          "name": "from",
          "type": "address"
        },
        {
          "indexed": true,
          "internalType": "address",
          "name": "to",
          "type": "address"
        },
        {
          "indexed": false,
          "internalType": "uint256",
          "name": "id",
          "type": "uint256"
        },
        {
          "indexed": false,
          "internalType": "uint256",
          "name": "value",
          "type": "uint256"
        }
      ],
      "name": "TransferSingle",
      "type": "event"
    },
    {
      "anonymous": false,
      "inputs": [
        {
          "indexed": false,
          "internalType": "string",
          "name": "value",
          "type": "string"
        },
        {
          "indexed": true,
          "internalType": "uint256",
          "name": "id",
          "type": "uint256"
        }
      ],
      "name": "URI",
      "type": "event"
    },
    {
      "anonymous": false,
      "inputs": [
        {
          "indexed": false,
          "internalType": "address",
          "name": "account",
          "type": "address"
        }
      ],
      "name": "Unpaused",
      "type": "event"
    },
    {
      "inputs": [
        {
          "internalType": "address",
          "name": "account",
          "type": "address"
        },
        {
          "internalType": "uint256",
          "name": "id",
          "type": "uint256"
        }
      ],
      "name": "balanceOf",
      "outputs": [
        {
          "internalType": "uint256",
          "name": "",
          "type": "uint256"
        }
      ],
      "stateMutability": "view",
      "type": "function"
    },
    {
      "inputs": [
        {
          "internalType": "address[]",
          "name": "accounts",
          "type": "address[]"
        },
        {
          "internalType": "uint256[]",
          "name": "ids",
          "type": "uint256[]"
        }
      ],
      "name": "balanceOfBatch",
      "outputs": [
        {
          "internalType": "uint256[]",
          "name": "",
          "type": "uint256[]"
        }
      ],
      "stateMutability": "view",
      "type": "function"
    },
    {
      "inputs": [
        {
          "internalType": "uint256",
          "name": "_productUID",
          "type": "uint256"
        },
        {
          "internalType": "uint8",
          "name": "_futurePercent",
          "type": "uint8"
        },
        {
          "internalType": "uint256[]",
          "name": "_credits",
          "type": "uint256[]"
        },
        {
          "internalType": "address[]",
          "name": "_futureContributors",
          "type": "address[]"
        }
      ],
      "name": "distributeFutureShards",
      "outputs": [],
      "stateMutability": "nonpayable",
      "type": "function"
    },
    {
      "inputs": [
        {
          "internalType": "uint256",
          "name": "_productUID",
          "type": "uint256"
        },
        {
          "internalType": "uint256",
          "name": "_targetSupply",
          "type": "uint256"
        },
        {
          "internalType": "uint256",
          "name": "_labCredit",
          "type": "uint256"
        },
        {
          "internalType": "uint256",
          "name": "_lockPeriod",
          "type": "uint256"
        },
        {
          "internalType": "uint8",
          "name": "_initialPercent",
          "type": "uint8"
        },
        {
          "internalType": "uint8",
          "name": "_rejuvePercent",
          "type": "uint8"
        },
        {
          "internalType": "address",
          "name": "_lab",
          "type": "address"
        },
        {
          "internalType": "address",
          "name": "_rejuve",
          "type": "address"
        },
        {
          "internalType": "string[]",
          "name": "_uris",
          "type": "string[]"
        }
      ],
      "name": "distributeInitialShards",
      "outputs": [],
      "stateMutability": "nonpayable",
      "type": "function"
    },
    {
      "inputs": [
        {
          "internalType": "uint256",
          "name": "_productUID",
          "type": "uint256"
        }
      ],
      "name": "getShardsConfig",
      "outputs": [
        {
          "internalType": "uint256",
          "name": "",
          "type": "uint256"
        },
        {
          "internalType": "uint8",
          "name": "",
          "type": "uint8"
        },
        {
          "internalType": "uint8",
          "name": "",
          "type": "uint8"
        },
        {
          "internalType": "uint8",
          "name": "",
          "type": "uint8"
        }
      ],
      "stateMutability": "view",
      "type": "function"
    },
    {
      "inputs": [
        {
          "internalType": "address",
          "name": "account",
          "type": "address"
        },
        {
          "internalType": "address",
          "name": "operator",
          "type": "address"
        }
      ],
      "name": "isApprovedForAll",
      "outputs": [
        {
          "internalType": "bool",
          "name": "",
          "type": "bool"
        }
      ],
      "stateMutability": "view",
      "type": "function"
    },
    {
      "inputs": [],
      "name": "owner",
      "outputs": [
        {
          "internalType": "address",
          "name": "",
          "type": "address"
        }
      ],
      "stateMutability": "view",
      "type": "function"
    },
    {
      "inputs": [],
      "name": "paused",
      "outputs": [
        {
          "internalType": "bool",
          "name": "",
          "type": "bool"
        }
      ],
      "stateMutability": "view",
      "type": "function"
    },
    {
      "inputs": [],
      "name": "renounceOwnership",
      "outputs": [],
      "stateMutability": "nonpayable",
      "type": "function"
    },
    {
      "inputs": [
        {
          "internalType": "address",
          "name": "from",
          "type": "address"
        },
        {
          "internalType": "address",
          "name": "to",
          "type": "address"
        },
        {
          "internalType": "uint256[]",
          "name": "ids",
          "type": "uint256[]"
        },
        {
          "internalType": "uint256[]",
          "name": "amounts",
          "type": "uint256[]"
        },
        {
          "internalType": "bytes",
          "name": "data",
          "type": "bytes"
        }
      ],
      "name": "safeBatchTransferFrom",
      "outputs": [],
      "stateMutability": "nonpayable",
      "type": "function"
    },
    {
      "inputs": [
        {
          "internalType": "address",
          "name": "from",
          "type": "address"
        },
        {
          "internalType": "address",
          "name": "to",
          "type": "address"
        },
        {
          "internalType": "uint256",
          "name": "id",
          "type": "uint256"
        },
        {
          "internalType": "uint256",
          "name": "amount",
          "type": "uint256"
        },
        {
          "internalType": "bytes",
          "name": "data",
          "type": "bytes"
        }
      ],
      "name": "safeTransferFrom",
      "outputs": [],
      "stateMutability": "nonpayable",
      "type": "function"
    },
    {
      "inputs": [
        {
          "internalType": "address",
          "name": "operator",
          "type": "address"
        },
        {
          "internalType": "bool",
          "name": "approved",
          "type": "bool"
        }
      ],
      "name": "setApprovalForAll",
      "outputs": [],
      "stateMutability": "nonpayable",
      "type": "function"
    },
    {
      "inputs": [
        {
          "internalType": "bytes4",
          "name": "interfaceId",
          "type": "bytes4"
        }
      ],
      "name": "supportsInterface",
      "outputs": [
        {
          "internalType": "bool",
          "name": "",
          "type": "bool"
        }
      ],
      "stateMutability": "view",
      "type": "function"
    },
    {
      "inputs": [
        {
          "internalType": "uint256",
          "name": "_productUID",
          "type": "uint256"
        }
      ],
      "name": "targetSupply",
      "outputs": [
        {
          "internalType": "uint256",
          "name": "",
          "type": "uint256"
        }
      ],
      "stateMutability": "view",
      "type": "function"
    },
    {
      "inputs": [
        {
          "internalType": "uint256",
          "name": "_productUID",
          "type": "uint256"
        }
      ],
      "name": "totalShardSupply",
      "outputs": [
        {
          "internalType": "uint256",
          "name": "",
          "type": "uint256"
        }
      ],
      "stateMutability": "view",
      "type": "function"
    },
    {
      "inputs": [
        {
          "internalType": "address",
          "name": "newOwner",
          "type": "address"
        }
      ],
      "name": "transferOwnership",
      "outputs": [],
      "stateMutability": "nonpayable",
      "type": "function"
    },
    {
      "inputs": [
        {
          "internalType": "uint256",
          "name": "_id",
          "type": "uint256"
        }
      ],
      "name": "uri",
      "outputs": [
        {
          "internalType": "string",
          "name": "",
          "type": "string"
        }
      ],
      "stateMutability": "view",
      "type": "function"
    }
  ],
  "bytecode": "0x60806040523480156200001157600080fd5b50604051620031903803806200319083398101604081905262000034916200011a565b818181620000423362000085565b6000805460ff60a01b191690556200005a81620000d5565b50600480546001600160a01b0319166001600160a01b0392909216919091179055506200035d915050565b600080546001600160a01b038381166001600160a01b0319831681178455604051919092169283917f8be0079c531659141344cd1fd0a4f28419497f9722a3daafe3b4186f6b6457e09190a35050565b6003620000e3828262000291565b5050565b634e487b7160e01b600052604160045260246000fd5b80516001600160a01b03811681146200011557600080fd5b919050565b600080604083850312156200012e57600080fd5b82516001600160401b03808211156200014657600080fd5b818501915085601f8301126200015b57600080fd5b815181811115620001705762000170620000e7565b604051601f8201601f19908116603f011681019083821181831017156200019b576200019b620000e7565b81604052828152602093508884848701011115620001b857600080fd5b600091505b82821015620001dc5784820184015181830185015290830190620001bd565b6000848483010152809650505050620001f7818601620000fd565b925050509250929050565b600181811c908216806200021757607f821691505b6020821081036200023857634e487b7160e01b600052602260045260246000fd5b50919050565b601f8211156200028c57600081815260208120601f850160051c81016020861015620002675750805b601f850160051c820191505b81811015620002885782815560010162000273565b5050505b505050565b81516001600160401b03811115620002ad57620002ad620000e7565b620002c581620002be845462000202565b846200023e565b602080601f831160018114620002fd5760008415620002e45750858301515b600019600386901b1c1916600185901b17855562000288565b600085815260208120601f198616915b828110156200032e578886015182559484019460019091019084016200030d565b50858210156200034d5787850151600019600388901b60f8161c191681555b5050505050600190811b01905550565b612e23806200036d6000396000f3fe608060405234801561001057600080fd5b506004361061010a5760003560e01c80638da5cb5b116100a2578063d6e0dbda11610071578063d6e0dbda1461023e578063e985e9c514610261578063f242432a1461029d578063f2fde38b146102b0578063fac795c0146102c357600080fd5b80638da5cb5b146101da578063936906f1146101f5578063a22cb46514610218578063d429c7581461022b57600080fd5b80634567db03116100de5780634567db031461018d5780634e1273f4146101a05780635c975abb146101c0578063715018a6146101d257600080fd5b8062fdd58e1461010f57806301ffc9a7146101355780630e89341c146101585780632eb2c2d614610178575b600080fd5b61012261011d366004611f84565b610330565b6040519081526020015b60405180910390f35b610148610143366004611fc6565b6103cb565b604051901515815260200161012c565b61016b610166366004611fea565b61041b565b60405161012c9190612053565b61018b6101863660046121c9565b6104bd565b005b61018b61019b3660046122fb565b610509565b6101b36101ae366004612378565b61052b565b60405161012c9190612416565b600054600160a01b900460ff16610148565b61018b610654565b6000546040516001600160a01b03909116815260200161012c565b610122610203366004611fea565b60009081526009602052604090206001015490565b61018b610226366004612429565b610668565b61018b610239366004612467565b610677565b61012261024c366004611fea565b60009081526009602052604090206002015490565b61014861026f3660046125c2565b6001600160a01b03918216600090815260026020908152604080832093909416825291909152205460ff1690565b61018b6102ab3660046125f0565b6106a3565b61018b6102be366004612658565b6106e8565b6103076102d1366004611fea565b6000818152600960205260409020600381015460049091015460ff80821691620100008104821691610100909104169193509193565b6040805194855260ff93841660208601529183169184019190915216606082015260800161012c565b60006001600160a01b0383166103a05760405162461bcd60e51b815260206004820152602a60248201527f455243313135353a2061646472657373207a65726f206973206e6f742061207660448201526930b634b21037bbb732b960b11b60648201526084015b60405180910390fd5b5060008181526001602090815260408083206001600160a01b03861684529091529020545b92915050565b60006001600160e01b03198216636cdb3d1360e11b14806103fc57506001600160e01b031982166303a24d0760e21b145b806103c557506301ffc9a760e01b6001600160e01b03198316146103c5565b6000818152600e6020526040902080546060919061043890612675565b80601f016020809104026020016040519081016040528092919081815260200182805461046490612675565b80156104b15780601f10610486576101008083540402835291602001916104b1565b820191906000526020600020905b81548152906001019060200180831161049457829003601f168201915b50505050509050919050565b6001600160a01b0385163314806104d957506104d9853361026f565b6104f55760405162461bcd60e51b8152600401610397906126af565b6105028585858585610761565b5050505050565b610511610900565b61051961095a565b610525848484846109a7565b50505050565b606081518351146105905760405162461bcd60e51b815260206004820152602960248201527f455243313135353a206163636f756e747320616e6420696473206c656e677468604482015268040dad2e6dac2e8c6d60bb1b6064820152608401610397565b600083516001600160401b038111156105ab576105ab612066565b6040519080825280602002602001820160405280156105d4578160200160208202803683370190505b50905060005b845181101561064c5761061f8582815181106105f8576105f86126fd565b6020026020010151858381518110610612576106126126fd565b6020026020010151610330565b828281518110610631576106316126fd565b602090810291909101015261064581612729565b90506105da565b509392505050565b61065c610900565b6106666000610c2c565b565b610673338383610c7c565b5050565b61067f610900565b61068761095a565b610698898989898989898989610d5c565b505050505050505050565b6001600160a01b0385163314806106bf57506106bf853361026f565b6106db5760405162461bcd60e51b8152600401610397906126af565b6105028585858585610e02565b6106f0610900565b6001600160a01b0381166107555760405162461bcd60e51b815260206004820152602660248201527f4f776e61626c653a206e6577206f776e657220697320746865207a65726f206160448201526564647265737360d01b6064820152608401610397565b61075e81610c2c565b50565b81518351146107825760405162461bcd60e51b815260040161039790612742565b6001600160a01b0384166107a85760405162461bcd60e51b81526004016103979061278a565b3360005b84518110156108925760008582815181106107c9576107c96126fd565b6020026020010151905060008583815181106107e7576107e76126fd565b60209081029190910181015160008481526001835260408082206001600160a01b038e1683529093529190912054909150818110156108385760405162461bcd60e51b8152600401610397906127cf565b60008381526001602090815260408083206001600160a01b038e8116855292528083208585039055908b16825281208054849290610877908490612819565b925050819055505050508061088b90612729565b90506107ac565b50846001600160a01b0316866001600160a01b0316826001600160a01b03167f4a39dc06d4c0dbc64b70af90fd698a233a518aa5d07e595d983b8c0526c8f7fb87876040516108e292919061282c565b60405180910390a46108f8818787878787610f25565b505050505050565b6000546001600160a01b031633146106665760405162461bcd60e51b815260206004820181905260248201527f4f776e61626c653a2063616c6c6572206973206e6f7420746865206f776e65726044820152606401610397565b600054600160a01b900460ff16156106665760405162461bcd60e51b815260206004820152601060248201526f14185d5cd8589b194e881c185d5cd95960821b6044820152606401610397565b81518151146109f85760405162461bcd60e51b815260206004820152601860248201527f52454a5556453a204e6f7420657175616c206c656e67746800000000000000006044820152606401610397565b8260ff16600003610a625760405162461bcd60e51b815260206004820152602e60248201527f52454a5556453a204675747572652070657263656e746167652073686172652060448201526d63616e6e6f74206265207a65726f60901b6064820152608401610397565b600084815260096020526040812060048101805462ff000019166201000060ff88160217905590610a9284611089565b905060005b8351811015610bda576000610ace868381518110610ab757610ab76126fd565b6020026020010151848960ff1687600101546110d8565b90506000610adb82611131565b9050610b7f868481518110610af257610af26126fd565b6020026020010151600a60008c8152602001908152602001600020805480602002602001604051908101604052809291908181526020018280548015610b5757602002820191906000526020600020905b815481526020019060010190808311610b43575b505050505083604051806040016040528060048152602001630307830360e41b8152506111c2565b818560020154610b8f9190612819565b600286015550600f80546001810182556000919091527f8d1108e10bcb7c27dddfc02ed9d693a074039d026cf4ea4240b40f7d581ac802015580610bd281612729565b915050610a97565b507f621e1a59d70685f53a28114e1229586ecd6908416f6bfaee0e147c3d34f398458684600f604051610c0f9392919061288f565b60405180910390a150506010805460ff1916600117905550505050565b600080546001600160a01b038381166001600160a01b0319831681178455604051919092169283917f8be0079c531659141344cd1fd0a4f28419497f9722a3daafe3b4186f6b6457e09190a35050565b816001600160a01b0316836001600160a01b031603610cef5760405162461bcd60e51b815260206004820152602960248201527f455243313135353a2073657474696e6720617070726f76616c20737461747573604482015268103337b91039b2b63360b91b6064820152608401610397565b6001600160a01b03838116600081815260026020908152604080832094871680845294825291829020805460ff191686151590811790915591519182527f17307eab39ab6107e8899845ad3d59bd9653f200f220920489ca2b5937696c31910160405180910390a3505050565b610d66898761130e565b6000898152600b6020526040902054610d84908a908a908888611389565b610d8e8982611494565b610d9e89898760ff168a87611666565b610dad8989848760ff16611a93565b7fb79a1263d65160537b9075e0e4747a6007a82fb191be4435b4c508c431920b898960066007604051610de2939291906128ed565b60405180910390a150506008805460ff1916600117905550505050505050565b6001600160a01b038416610e285760405162461bcd60e51b81526004016103979061278a565b336000610e3485611bf0565b90506000610e4185611bf0565b905060008681526001602090815260408083206001600160a01b038c16845290915290205485811015610e865760405162461bcd60e51b8152600401610397906127cf565b60008781526001602090815260408083206001600160a01b038d8116855292528083208985039055908a16825281208054889290610ec5908490612819565b909155505060408051888152602081018890526001600160a01b03808b16928c821692918816917fc3d58168c5ae7397731d063d5bbf3d657854427343f4c083240f7aacaa2d0f62910160405180910390a4610698848a8a8a8a8a611c3b565b6001600160a01b0384163b156108f85760405163bc197c8160e01b81526001600160a01b0385169063bc197c8190610f69908990899088908890889060040161293c565b6020604051808303816000875af1925050508015610fa4575060408051601f3d908101601f19168201909252610fa19181019061298e565b60015b61105057610fb06129ab565b806308c379a003610fe95750610fc46129c7565b80610fcf5750610feb565b8060405162461bcd60e51b81526004016103979190612053565b505b60405162461bcd60e51b815260206004820152603460248201527f455243313135353a207472616e7366657220746f206e6f6e2d455243313135356044820152732932b1b2b4bb32b91034b6b83632b6b2b73a32b960611b6064820152608401610397565b6001600160e01b0319811663bc197c8160e01b146110805760405162461bcd60e51b815260040161039790612a50565b50505050505050565b60008060005b83518110156110d1578381815181106110aa576110aa6126fd565b6020026020010151826110bd9190612819565b9150806110c981612729565b91505061108f565b5092915050565b600080846110e7876064612a98565b6110f19190612aaf565b9050600060646111018686612a98565b61110b9190612aaf565b90506000606461111b8484612a98565b6111259190612aaf565b98975050505050505050565b6040805160028082526060808301845292600092919060208301908036833701905050905060006064611165856032612a98565b61116f9190612aaf565b90508082600081518110611185576111856126fd565b602090810291909101015261119a8185612ad1565b935083826001815181106111b0576111b06126fd565b60209081029190910101525092915050565b6001600160a01b0384166111e85760405162461bcd60e51b815260040161039790612ae4565b81518351146112095760405162461bcd60e51b815260040161039790612742565b3360005b84518110156112a657838181518110611228576112286126fd565b602002602001015160016000878481518110611246576112466126fd565b602002602001015181526020019081526020016000206000886001600160a01b03166001600160a01b03168152602001908152602001600020600082825461128e9190612819565b9091555081905061129e81612729565b91505061120d565b50846001600160a01b031660006001600160a01b0316826001600160a01b03167f4a39dc06d4c0dbc64b70af90fd698a233a518aa5d07e595d983b8c0526c8f7fb87876040516112f792919061282c565b60405180910390a461050281600087878787610f25565b806000036113695760405162461bcd60e51b815260206004820152602260248201527f52454a5556453a204c6f636b20706572696f642063616e6e6f74206265207a65604482015261726f60f01b6064820152608401610397565b6113734282612819565b6000928352600b60205260409092209190915550565b836000036113e35760405162461bcd60e51b815260206004820152602160248201527f52454a5556453a2054617267657420737570706c792063616e6e6f74206265206044820152600360fc1b6064820152608401610397565b8160ff1660000361144f5760405162461bcd60e51b815260206004820152603060248201527f52454a5556453a20496e697469616c20636f6e7472696275746f72732070657260448201526f063656e742063616e6e6f7420626520360841b6064820152608401610397565b6000858152600960205260409020948555600185019390935560038401919091556004909201805460ff93841661ffff19909116176101009390921692909202179055565b60408051600280825260608201909252600091816020015b60608152602001906001900390816114ac579050509050604051806040016040528060068152602001651313d0d2d15160d21b815250816000815181106114f5576114f56126fd565b60200260200101819052506040518060400160405280600681526020016515149051115160d21b81525081600181518110611532576115326126fd565b602002602001018190525060005b81518160ff161015610525576005828260ff1681518110611563576115636126fd565b6020908102919091018101518254600181018455600093845291909220019061158c9082612b70565b5060055460009061159f90600190612ad1565b6000868152600a60209081526040822080546001810182559083529120018190558351909150839060ff84169081106115da576115da6126fd565b6020026020010151600d600083815260200190815260200160002090816116019190612b70565b506000818152600c602052604090208590558351849060ff841690811061162a5761162a6126fd565b6020026020010151600e600083815260200190815260200160002090816116519190612b70565b5050808061165e90612c2f565b915050611540565b6004805460405163c9187fe760e01b81529182018790526000916001600160a01b039091169063c9187fe790602401600060405180830381865afa1580156116b2573d6000803e3d6000fd5b505050506040513d6000823e601f3d908101601f191682016040526116da9190810190612c4e565b905060006116e787611cf6565b60008881526009602052604090209091506117028583612819565b915060005b600480546040516384ffeca560e01b81529182018b90526001600160a01b0316906384ffeca590602401602060405180830381865afa15801561174e573d6000803e3d6000fd5b505050506040513d601f19601f820116820180604052508101906117729190612d50565b8110156119dd5760045484516000916001600160a01b0316906359a96ffe908790859081106117a3576117a36126fd565b60200260200101516040518263ffffffff1660e01b81526004016117c79190612053565b602060405180830381865afa1580156117e4573d6000803e3d6000fd5b505050506040513d601f19601f820116820180604052508101906118089190612d69565b60045486519192506000916118a8916001600160a01b031690630e47cefa90899087908110611839576118396126fd565b60200260200101518e6040518363ffffffff1660e01b815260040161185f929190612d86565b602060405180830381865afa15801561187c573d6000803e3d6000fd5b505050506040513d601f19601f820116820180604052508101906118a09190612d50565b868b8d6110d8565b905060006118b582611131565b60008d8152600a6020908152604091829020805483518184028101840190945280845293945061193793879392830182828015610b575760200282019190600052602060002090815481526020019060010190808311610b4357505050505083604051806040016040528060048152602001630307830360e41b8152506111c2565b8185600201546119479190612819565b6002860155506006805460018082019092557ff652222313e28459528d920b65115c16c04f3efc82aaedc97be59f3f377c0d3f0180546001600160a01b0319166001600160a01b0394909416939093179092556007805492830181556000527fa66cc928b5edb82af9bd49922954155ab7b0942694bea4ce44661d9a8736c68890910155806119d581612729565b915050611707565b5060006119ee898688868b8d611e2c565b9050808260020154611a009190612819565b6002909201919091556006805460018181019092557ff652222313e28459528d920b65115c16c04f3efc82aaedc97be59f3f377c0d3f0180546001600160a01b039096166001600160a01b0319909616959095179094556007805494850181556000527fa66cc928b5edb82af9bd49922954155ab7b0942694bea4ce44661d9a8736c68890930192909255505050505050565b6000848152600960205260408120906064611aae8487612a98565b611ab89190612aaf565b9050808260020154611aca9190612819565b60028301556000611ada82611131565b905060005b8151811015611b67576000888152600a602052604090208054611b5591889184908110611b0e57611b0e6126fd565b9060005260206000200154848481518110611b2b57611b2b6126fd565b6020026020010151604051806040016040528060048152602001630307830360e41b815250611e9c565b80611b5f81612729565b915050611adf565b50506006805460018082019092557ff652222313e28459528d920b65115c16c04f3efc82aaedc97be59f3f377c0d3f0180546001600160a01b0319166001600160a01b0396909616959095179094556007805494850181556000527fa66cc928b5edb82af9bd49922954155ab7b0942694bea4ce44661d9a8736c6889093019290925550505050565b60408051600180825281830190925260609160009190602080830190803683370190505090508281600081518110611c2a57611c2a6126fd565b602090810291909101015292915050565b6001600160a01b0384163b156108f85760405163f23a6e6160e01b81526001600160a01b0385169063f23a6e6190611c7f9089908990889088908890600401612da8565b6020604051808303816000875af1925050508015611cba575060408051601f3d908101601f19168201909252611cb79181019061298e565b60015b611cc657610fb06129ab565b6001600160e01b0319811663f23a6e6160e01b146110805760405162461bcd60e51b815260040161039790612a50565b6004805460405163c9187fe760e01b815291820183905260009182916001600160a01b03169063c9187fe790602401600060405180830381865afa158015611d42573d6000803e3d6000fd5b505050506040513d6000823e601f3d908101601f19168201604052611d6a9190810190612c4e565b90506000805b825181101561064c5760045483516000916001600160a01b031690630e47cefa90869085908110611da357611da36126fd565b6020026020010151886040518363ffffffff1660e01b8152600401611dc9929190612d86565b602060405180830381865afa158015611de6573d6000803e3d6000fd5b505050506040513d601f19601f82011682018060405250810190611e0a9190612d50565b9050611e168184612819565b9250508080611e2490612729565b915050611d70565b600080611e3b868686866110d8565b90506000611e4882611131565b905060005b8151811015611e8e5760008a8152600a602052604090208054611e7c918b9184908110611b0e57611b0e6126fd565b80611e8681612729565b915050611e4d565b509098975050505050505050565b6001600160a01b038416611ec25760405162461bcd60e51b815260040161039790612ae4565b336000611ece85611bf0565b90506000611edb85611bf0565b905060008681526001602090815260408083206001600160a01b038b16845290915281208054879290611f0f908490612819565b909155505060408051878152602081018790526001600160a01b03808a1692600092918716917fc3d58168c5ae7397731d063d5bbf3d657854427343f4c083240f7aacaa2d0f62910160405180910390a461108083600089898989611c3b565b6001600160a01b038116811461075e57600080fd5b60008060408385031215611f9757600080fd5b8235611fa281611f6f565b946020939093013593505050565b6001600160e01b03198116811461075e57600080fd5b600060208284031215611fd857600080fd5b8135611fe381611fb0565b9392505050565b600060208284031215611ffc57600080fd5b5035919050565b60005b8381101561201e578181015183820152602001612006565b50506000910152565b6000815180845261203f816020860160208601612003565b601f01601f19169290920160200192915050565b602081526000611fe36020830184612027565b634e487b7160e01b600052604160045260246000fd5b601f8201601f191681016001600160401b03811182821017156120a1576120a1612066565b6040525050565b60006001600160401b038211156120c1576120c1612066565b5060051b60200190565b600082601f8301126120dc57600080fd5b813560206120e9826120a8565b6040516120f6828261207c565b83815260059390931b850182019282810191508684111561211657600080fd5b8286015b84811015612131578035835291830191830161211a565b509695505050505050565b60006001600160401b0382111561215557612155612066565b50601f01601f191660200190565b600061216e8361213c565b60405161217b828261207c565b80925084815285858501111561219057600080fd5b8484602083013760006020868301015250509392505050565b600082601f8301126121ba57600080fd5b611fe383833560208501612163565b600080600080600060a086880312156121e157600080fd5b85356121ec81611f6f565b945060208601356121fc81611f6f565b935060408601356001600160401b038082111561221857600080fd5b61222489838a016120cb565b9450606088013591508082111561223a57600080fd5b61224689838a016120cb565b9350608088013591508082111561225c57600080fd5b50612269888289016121a9565b9150509295509295909350565b803560ff8116811461228757600080fd5b919050565b600082601f83011261229d57600080fd5b813560206122aa826120a8565b6040516122b7828261207c565b83815260059390931b85018201928281019150868411156122d757600080fd5b8286015b848110156121315780356122ee81611f6f565b83529183019183016122db565b6000806000806080858703121561231157600080fd5b8435935061232160208601612276565b925060408501356001600160401b038082111561233d57600080fd5b612349888389016120cb565b9350606087013591508082111561235f57600080fd5b5061236c8782880161228c565b91505092959194509250565b6000806040838503121561238b57600080fd5b82356001600160401b03808211156123a257600080fd5b6123ae8683870161228c565b935060208501359150808211156123c457600080fd5b506123d1858286016120cb565b9150509250929050565b600081518084526020808501945080840160005b8381101561240b578151875295820195908201906001016123ef565b509495945050505050565b602081526000611fe360208301846123db565b6000806040838503121561243c57600080fd5b823561244781611f6f565b91506020830135801515811461245c57600080fd5b809150509250929050565b60008060008060008060008060006101208a8c03121561248657600080fd5b8935985060208a0135975060408a0135965060608a013595506124ab60808b01612276565b94506124b960a08b01612276565b93506124c860c08b0135611f6f565b60c08a013592506124dc60e08b0135611f6f565b60e08a013591506001600160401b036101008b013511156124fc57600080fd5b6101008a01358a018b601f82011261251357600080fd5b61251d81356120a8565b60405161252a828261207c565b809150823581526020810191508d6020843560051b850101111561254d57600080fd5b602083015b6020843560051b8501018110156125ae576001600160401b038135111561257857600080fd5b8e603f82358601011261258a57600080fd5b6125a08f82358601602081013590604001612163565b835260209283019201612552565b508093505050509295985092959850929598565b600080604083850312156125d557600080fd5b82356125e081611f6f565b9150602083013561245c81611f6f565b600080600080600060a0868803121561260857600080fd5b853561261381611f6f565b9450602086013561262381611f6f565b9350604086013592506060860135915060808601356001600160401b0381111561264c57600080fd5b612269888289016121a9565b60006020828403121561266a57600080fd5b8135611fe381611f6f565b600181811c9082168061268957607f821691505b6020821081036126a957634e487b7160e01b600052602260045260246000fd5b50919050565b6020808252602e908201527f455243313135353a2063616c6c6572206973206e6f7420746f6b656e206f776e60408201526d195c881bdc88185c1c1c9bdd995960921b606082015260800190565b634e487b7160e01b600052603260045260246000fd5b634e487b7160e01b600052601160045260246000fd5b60006001820161273b5761273b612713565b5060010190565b60208082526028908201527f455243313135353a2069647320616e6420616d6f756e7473206c656e677468206040820152670dad2e6dac2e8c6d60c31b606082015260800190565b60208082526025908201527f455243313135353a207472616e7366657220746f20746865207a65726f206164604082015264647265737360d81b606082015260800190565b6020808252602a908201527f455243313135353a20696e73756666696369656e742062616c616e636520666f60408201526939103a3930b739b332b960b11b606082015260800190565b808201808211156103c5576103c5612713565b60408152600061283f60408301856123db565b828103602084015261285181856123db565b95945050505050565b6000815480845260208085019450836000528060002060005b8381101561240b57815487529582019560019182019101612873565b6000606082018583526020606081850152818651808452608086019150828801935060005b818110156128d95784516001600160a01b0316835293830193918301916001016128b4565b50508481036040860152611125818761285a565b60006060820185835260206060818501528186548084526080860191508760005282600020935060005b818110156128d95784546001600160a01b031683526001948501949284019201612917565b6001600160a01b0386811682528516602082015260a060408201819052600090612968908301866123db565b828103606084015261297a81866123db565b905082810360808401526111258185612027565b6000602082840312156129a057600080fd5b8151611fe381611fb0565b600060033d11156129c45760046000803e5060005160e01c5b90565b600060443d10156129d55790565b6040516003193d81016004833e81513d6001600160401b038160248401118184111715612a0457505050505090565b8285019150815181811115612a1c5750505050505090565b843d8701016020828501011115612a365750505050505090565b612a456020828601018761207c565b509095945050505050565b60208082526028908201527f455243313135353a204552433131353552656365697665722072656a656374656040820152676420746f6b656e7360c01b606082015260800190565b80820281158282048414176103c5576103c5612713565b600082612acc57634e487b7160e01b600052601260045260246000fd5b500490565b818103818111156103c5576103c5612713565b60208082526021908201527f455243313135353a206d696e7420746f20746865207a65726f206164647265736040820152607360f81b606082015260800190565b601f821115612b6b57600081815260208120601f850160051c81016020861015612b4c5750805b601f850160051c820191505b818110156108f857828155600101612b58565b505050565b81516001600160401b03811115612b8957612b89612066565b612b9d81612b978454612675565b84612b25565b602080601f831160018114612bd25760008415612bba5750858301515b600019600386901b1c1916600185901b1785556108f8565b600085815260208120601f198616915b82811015612c0157888601518255948401946001909101908401612be2565b5085821015612c1f5787850151600019600388901b60f8161c191681555b5050505050600190811b01905550565b600060ff821660ff8103612c4557612c45612713565b60010192915050565b60006020808385031215612c6157600080fd5b82516001600160401b0380821115612c7857600080fd5b818501915085601f830112612c8c57600080fd5b8151612c97816120a8565b60408051612ca5838261207c565b83815260059390931b8501860192868101925089841115612cc557600080fd5b8686015b84811015612d4257805186811115612ce15760008081fd5b8701603f81018c13612cf35760008081fd5b88810151612d008161213c565b8551612d0c828261207c565b8281528e87848601011115612d2357600091508182fd5b612d32838d8301898701612003565b8752505050928701928701612cc9565b509998505050505050505050565b600060208284031215612d6257600080fd5b5051919050565b600060208284031215612d7b57600080fd5b8151611fe381611f6f565b604081526000612d996040830185612027565b90508260208301529392505050565b6001600160a01b03868116825285166020820152604081018490526060810183905260a060808201819052600090612de290830184612027565b97965050505050505056fea2646970667358221220f7fe29c14852ecc07db2b300f85ab961e7742d28bcf892460f78557ac07f97d364736f6c63430008110033",
  "linkReferences": {},
  "deployedLinkReferences": {}
}