{
  "_format": "hh-sol-artifact-1",
  "contractName": "FutureShards",
  "sourceName": "contracts/FutureShards.sol",
  "abi": [
    {
      "inputs": [
        {
          "internalType": "string",
          "name": "uri_",
          "type": "string"
        },
        {
          "internalType": "address",
          "name": "productNFT_",
          "type": "address"
        }
      ],
      "stateMutability": "nonpayable",
      "type": "constructor"
    },
    {
      "anonymous": false,
      "inputs": [
        {
          "indexed": true,
          "internalType": "address",
          "name": "account",
          "type": "address"
        },
        {
          "indexed": true,
          "internalType": "address",
          "name": "operator",
          "type": "address"
        },
        {
          "indexed": false,
          "internalType": "bool",
          "name": "approved",
          "type": "bool"
        }
      ],
      "name": "ApprovalForAll",
      "type": "event"
    },
    {
      "anonymous": false,
      "inputs": [
        {
          "indexed": false,
          "internalType": "uint256",
          "name": "productUID",
          "type": "uint256"
        },
        {
          "indexed": false,
          "internalType": "address[]",
          "name": "dataOwners",
          "type": "address[]"
        },
        {
          "indexed": false,
          "internalType": "uint256[]",
          "name": "shardAmount",
          "type": "uint256[]"
        }
      ],
      "name": "FutureShardDistributed",
      "type": "event"
    },
    {
      "anonymous": false,
      "inputs": [
        {
          "indexed": false,
          "internalType": "uint256",
          "name": "productUID",
          "type": "uint256"
        },
        {
          "indexed": false,
          "internalType": "address[]",
          "name": "dataOwners",
          "type": "address[]"
        },
        {
          "indexed": false,
          "internalType": "uint256[]",
          "name": "shardAmount",
          "type": "uint256[]"
        }
      ],
      "name": "InitialShardDistributed",
      "type": "event"
    },
    {
      "anonymous": false,
      "inputs": [
        {
          "indexed": true,
          "internalType": "address",
          "name": "previousOwner",
          "type": "address"
        },
        {
          "indexed": true,
          "internalType": "address",
          "name": "newOwner",
          "type": "address"
        }
      ],
      "name": "OwnershipTransferred",
      "type": "event"
    },
    {
      "anonymous": false,
      "inputs": [
        {
          "indexed": false,
          "internalType": "address",
          "name": "account",
          "type": "address"
        }
      ],
      "name": "Paused",
      "type": "event"
    },
    {
      "anonymous": false,
      "inputs": [
        {
          "indexed": false,
          "internalType": "uint256",
          "name": "productUID",
          "type": "uint256"
        },
        {
          "indexed": false,
          "internalType": "address",
          "name": "rejuve",
          "type": "address"
        },
        {
          "indexed": false,
          "internalType": "uint256",
          "name": "shardAmount",
          "type": "uint256"
        }
      ],
      "name": "RemainingShardAllocated",
      "type": "event"
    },
    {
      "anonymous": false,
      "inputs": [
        {
          "indexed": true,
          "internalType": "address",
          "name": "operator",
          "type": "address"
        },
        {
          "indexed": true,
          "internalType": "address",
          "name": "from",
          "type": "address"
        },
        {
          "indexed": true,
          "internalType": "address",
          "name": "to",
          "type": "address"
        },
        {
          "indexed": false,
          "internalType": "uint256[]",
          "name": "ids",
          "type": "uint256[]"
        },
        {
          "indexed": false,
          "internalType": "uint256[]",
          "name": "values",
          "type": "uint256[]"
        }
      ],
      "name": "TransferBatch",
      "type": "event"
    },
    {
      "anonymous": false,
      "inputs": [
        {
          "indexed": true,
          "internalType": "address",
          "name": "operator",
          "type": "address"
        },
        {
          "indexed": true,
          "internalType": "address",
          "name": "from",
          "type": "address"
        },
        {
          "indexed": true,
          "internalType": "address",
          "name": "to",
          "type": "address"
        },
        {
          "indexed": false,
          "internalType": "uint256",
          "name": "id",
          "type": "uint256"
        },
        {
          "indexed": false,
          "internalType": "uint256",
          "name": "value",
          "type": "uint256"
        }
      ],
      "name": "TransferSingle",
      "type": "event"
    },
    {
      "anonymous": false,
      "inputs": [
        {
          "indexed": false,
          "internalType": "string",
          "name": "value",
          "type": "string"
        },
        {
          "indexed": true,
          "internalType": "uint256",
          "name": "id",
          "type": "uint256"
        }
      ],
      "name": "URI",
      "type": "event"
    },
    {
      "anonymous": false,
      "inputs": [
        {
          "indexed": false,
          "internalType": "address",
          "name": "account",
          "type": "address"
        }
      ],
      "name": "Unpaused",
      "type": "event"
    },
    {
      "inputs": [
        {
          "internalType": "address",
          "name": "account",
          "type": "address"
        },
        {
          "internalType": "uint256",
          "name": "id",
          "type": "uint256"
        }
      ],
      "name": "balanceOf",
      "outputs": [
        {
          "internalType": "uint256",
          "name": "",
          "type": "uint256"
        }
      ],
      "stateMutability": "view",
      "type": "function"
    },
    {
      "inputs": [
        {
          "internalType": "address[]",
          "name": "accounts",
          "type": "address[]"
        },
        {
          "internalType": "uint256[]",
          "name": "ids",
          "type": "uint256[]"
        }
      ],
      "name": "balanceOfBatch",
      "outputs": [
        {
          "internalType": "uint256[]",
          "name": "",
          "type": "uint256[]"
        }
      ],
      "stateMutability": "view",
      "type": "function"
    },
    {
      "inputs": [
        {
          "internalType": "uint256",
          "name": "_productUID",
          "type": "uint256"
        },
        {
          "internalType": "uint8",
          "name": "_futurePercent",
          "type": "uint8"
        },
        {
          "internalType": "uint256[]",
          "name": "_credits",
          "type": "uint256[]"
        },
        {
          "internalType": "address[]",
          "name": "_futureContributors",
          "type": "address[]"
        }
      ],
      "name": "distributeFutureShards",
      "outputs": [],
      "stateMutability": "nonpayable",
      "type": "function"
    },
    {
      "inputs": [
        {
          "internalType": "uint256",
          "name": "_productUID",
          "type": "uint256"
        },
        {
          "internalType": "uint256",
          "name": "_targetSupply",
          "type": "uint256"
        },
        {
          "internalType": "uint256",
          "name": "_labCredit",
          "type": "uint256"
        },
        {
          "internalType": "uint256",
          "name": "_lockPeriod",
          "type": "uint256"
        },
        {
          "internalType": "uint8",
          "name": "_initialPercent",
          "type": "uint8"
        },
        {
          "internalType": "uint8",
          "name": "_rejuvePercent",
          "type": "uint8"
        },
        {
          "internalType": "address",
          "name": "_lab",
          "type": "address"
        },
        {
          "internalType": "address",
          "name": "_rejuve",
          "type": "address"
        },
        {
          "internalType": "string[]",
          "name": "_uris",
          "type": "string[]"
        }
      ],
      "name": "distributeInitialShards",
      "outputs": [],
      "stateMutability": "nonpayable",
      "type": "function"
    },
    {
      "inputs": [
        {
          "internalType": "uint256",
          "name": "productUID",
          "type": "uint256"
        }
      ],
      "name": "getProductIDs",
      "outputs": [
        {
          "internalType": "uint256[]",
          "name": "",
          "type": "uint256[]"
        }
      ],
      "stateMutability": "view",
      "type": "function"
    },
    {
      "inputs": [
        {
          "internalType": "uint256",
          "name": "_productUID",
          "type": "uint256"
        }
      ],
      "name": "getShardsConfig",
      "outputs": [
        {
          "internalType": "uint256",
          "name": "",
          "type": "uint256"
        },
        {
          "internalType": "uint8",
          "name": "",
          "type": "uint8"
        },
        {
          "internalType": "uint8",
          "name": "",
          "type": "uint8"
        },
        {
          "internalType": "uint8",
          "name": "",
          "type": "uint8"
        }
      ],
      "stateMutability": "view",
      "type": "function"
    },
    {
      "inputs": [
        {
          "internalType": "address",
          "name": "account",
          "type": "address"
        },
        {
          "internalType": "address",
          "name": "operator",
          "type": "address"
        }
      ],
      "name": "isApprovedForAll",
      "outputs": [
        {
          "internalType": "bool",
          "name": "",
          "type": "bool"
        }
      ],
      "stateMutability": "view",
      "type": "function"
    },
    {
      "inputs": [],
      "name": "owner",
      "outputs": [
        {
          "internalType": "address",
          "name": "",
          "type": "address"
        }
      ],
      "stateMutability": "view",
      "type": "function"
    },
    {
      "inputs": [],
      "name": "paused",
      "outputs": [
        {
          "internalType": "bool",
          "name": "",
          "type": "bool"
        }
      ],
      "stateMutability": "view",
      "type": "function"
    },
    {
      "inputs": [],
      "name": "renounceOwnership",
      "outputs": [],
      "stateMutability": "nonpayable",
      "type": "function"
    },
    {
      "inputs": [
        {
          "internalType": "address",
          "name": "from",
          "type": "address"
        },
        {
          "internalType": "address",
          "name": "to",
          "type": "address"
        },
        {
          "internalType": "uint256[]",
          "name": "ids",
          "type": "uint256[]"
        },
        {
          "internalType": "uint256[]",
          "name": "amounts",
          "type": "uint256[]"
        },
        {
          "internalType": "bytes",
          "name": "data",
          "type": "bytes"
        }
      ],
      "name": "safeBatchTransferFrom",
      "outputs": [],
      "stateMutability": "nonpayable",
      "type": "function"
    },
    {
      "inputs": [
        {
          "internalType": "address",
          "name": "from",
          "type": "address"
        },
        {
          "internalType": "address",
          "name": "to",
          "type": "address"
        },
        {
          "internalType": "uint256",
          "name": "id",
          "type": "uint256"
        },
        {
          "internalType": "uint256",
          "name": "amount",
          "type": "uint256"
        },
        {
          "internalType": "bytes",
          "name": "data",
          "type": "bytes"
        }
      ],
      "name": "safeTransferFrom",
      "outputs": [],
      "stateMutability": "nonpayable",
      "type": "function"
    },
    {
      "inputs": [
        {
          "internalType": "address",
          "name": "operator",
          "type": "address"
        },
        {
          "internalType": "bool",
          "name": "approved",
          "type": "bool"
        }
      ],
      "name": "setApprovalForAll",
      "outputs": [],
      "stateMutability": "nonpayable",
      "type": "function"
    },
    {
      "inputs": [
        {
          "internalType": "bytes4",
          "name": "interfaceId",
          "type": "bytes4"
        }
      ],
      "name": "supportsInterface",
      "outputs": [
        {
          "internalType": "bool",
          "name": "",
          "type": "bool"
        }
      ],
      "stateMutability": "view",
      "type": "function"
    },
    {
      "inputs": [
        {
          "internalType": "uint256",
          "name": "_productUID",
          "type": "uint256"
        }
      ],
      "name": "targetSupply",
      "outputs": [
        {
          "internalType": "uint256",
          "name": "",
          "type": "uint256"
        }
      ],
      "stateMutability": "view",
      "type": "function"
    },
    {
      "inputs": [
        {
          "internalType": "uint256",
          "name": "_productUID",
          "type": "uint256"
        }
      ],
      "name": "totalShardSupply",
      "outputs": [
        {
          "internalType": "uint256",
          "name": "",
          "type": "uint256"
        }
      ],
      "stateMutability": "view",
      "type": "function"
    },
    {
      "inputs": [
        {
          "internalType": "address",
          "name": "newOwner",
          "type": "address"
        }
      ],
      "name": "transferOwnership",
      "outputs": [],
      "stateMutability": "nonpayable",
      "type": "function"
    },
    {
      "inputs": [
        {
          "internalType": "uint256",
          "name": "_id",
          "type": "uint256"
        }
      ],
      "name": "uri",
      "outputs": [
        {
          "internalType": "string",
          "name": "",
          "type": "string"
        }
      ],
      "stateMutability": "view",
      "type": "function"
    }
  ],
  "bytecode": "0x60806040523480156200001157600080fd5b506040516200320f3803806200320f83398101604081905262000034916200011a565b818181620000423362000085565b6000805460ff60a01b191690556200005a81620000d5565b50600480546001600160a01b0319166001600160a01b0392909216919091179055506200035d915050565b600080546001600160a01b038381166001600160a01b0319831681178455604051919092169283917f8be0079c531659141344cd1fd0a4f28419497f9722a3daafe3b4186f6b6457e09190a35050565b6003620000e3828262000291565b5050565b634e487b7160e01b600052604160045260246000fd5b80516001600160a01b03811681146200011557600080fd5b919050565b600080604083850312156200012e57600080fd5b82516001600160401b03808211156200014657600080fd5b818501915085601f8301126200015b57600080fd5b815181811115620001705762000170620000e7565b604051601f8201601f19908116603f011681019083821181831017156200019b576200019b620000e7565b81604052828152602093508884848701011115620001b857600080fd5b600091505b82821015620001dc5784820184015181830185015290830190620001bd565b6000848483010152809650505050620001f7818601620000fd565b925050509250929050565b600181811c908216806200021757607f821691505b6020821081036200023857634e487b7160e01b600052602260045260246000fd5b50919050565b601f8211156200028c57600081815260208120601f850160051c81016020861015620002675750805b601f850160051c820191505b81811015620002885782815560010162000273565b5050505b505050565b81516001600160401b03811115620002ad57620002ad620000e7565b620002c581620002be845462000202565b846200023e565b602080601f831160018114620002fd5760008415620002e45750858301515b600019600386901b1c1916600185901b17855562000288565b600085815260208120601f198616915b828110156200032e578886015182559484019460019091019084016200030d565b50858210156200034d5787850151600019600388901b60f8161c191681555b5050505050600190811b01905550565b612ea2806200036d6000396000f3fe608060405234801561001057600080fd5b50600436106101155760003560e01c80638da5cb5b116100a2578063d6e0dbda11610071578063d6e0dbda1461025c578063e985e9c51461027f578063f242432a146102bb578063f2fde38b146102ce578063fac795c0146102e157600080fd5b80638da5cb5b146101f8578063936906f114610213578063a22cb46514610236578063d429c7581461024957600080fd5b80634567db03116100e95780634567db03146101985780634e1273f4146101ab5780634e57d942146101cb5780635c975abb146101de578063715018a6146101f057600080fd5b8062fdd58e1461011a57806301ffc9a7146101405780630e89341c146101635780632eb2c2d614610183575b600080fd5b61012d610128366004612003565b61034e565b6040519081526020015b60405180910390f35b61015361014e366004612045565b6103e9565b6040519015158152602001610137565b610176610171366004612069565b610439565b60405161013791906120d2565b610196610191366004612248565b6104db565b005b6101966101a636600461237a565b610527565b6101be6101b93660046123f7565b610549565b6040516101379190612495565b6101be6101d9366004612069565b610672565b600054600160a01b900460ff16610153565b6101966106d3565b6000546040516001600160a01b039091168152602001610137565b61012d610221366004612069565b60009081526009602052604090206001015490565b6101966102443660046124a8565b6106e7565b6101966102573660046124e6565b6106f6565b61012d61026a366004612069565b60009081526009602052604090206002015490565b61015361028d366004612641565b6001600160a01b03918216600090815260026020908152604080832093909416825291909152205460ff1690565b6101966102c936600461266f565b610722565b6101966102dc3660046126d7565b610767565b6103256102ef366004612069565b6000818152600960205260409020600381015460049091015460ff80821691620100008104821691610100909104169193509193565b6040805194855260ff938416602086015291831691840191909152166060820152608001610137565b60006001600160a01b0383166103be5760405162461bcd60e51b815260206004820152602a60248201527f455243313135353a2061646472657373207a65726f206973206e6f742061207660448201526930b634b21037bbb732b960b11b60648201526084015b60405180910390fd5b5060008181526001602090815260408083206001600160a01b03861684529091529020545b92915050565b60006001600160e01b03198216636cdb3d1360e11b148061041a57506001600160e01b031982166303a24d0760e21b145b806103e357506301ffc9a760e01b6001600160e01b03198316146103e3565b6000818152600e60205260409020805460609190610456906126f4565b80601f0160208091040260200160405190810160405280929190818152602001828054610482906126f4565b80156104cf5780601f106104a4576101008083540402835291602001916104cf565b820191906000526020600020905b8154815290600101906020018083116104b257829003601f168201915b50505050509050919050565b6001600160a01b0385163314806104f757506104f7853361028d565b6105135760405162461bcd60e51b81526004016103b59061272e565b61052085858585856107e0565b5050505050565b61052f61097f565b6105376109d9565b61054384848484610a26565b50505050565b606081518351146105ae5760405162461bcd60e51b815260206004820152602960248201527f455243313135353a206163636f756e747320616e6420696473206c656e677468604482015268040dad2e6dac2e8c6d60bb1b60648201526084016103b5565b600083516001600160401b038111156105c9576105c96120e5565b6040519080825280602002602001820160405280156105f2578160200160208202803683370190505b50905060005b845181101561066a5761063d8582815181106106165761061661277c565b60200260200101518583815181106106305761063061277c565b602002602001015161034e565b82828151811061064f5761064f61277c565b6020908102919091010152610663816127a8565b90506105f8565b509392505050565b6000818152600a60209081526040918290208054835181840281018401909452808452606093928301828280156104cf57602002820191906000526020600020905b8154815260200190600101908083116106b45750505050509050919050565b6106db61097f565b6106e56000610cab565b565b6106f2338383610cfb565b5050565b6106fe61097f565b6107066109d9565b610717898989898989898989610ddb565b505050505050505050565b6001600160a01b03851633148061073e575061073e853361028d565b61075a5760405162461bcd60e51b81526004016103b59061272e565b6105208585858585610e81565b61076f61097f565b6001600160a01b0381166107d45760405162461bcd60e51b815260206004820152602660248201527f4f776e61626c653a206e6577206f776e657220697320746865207a65726f206160448201526564647265737360d01b60648201526084016103b5565b6107dd81610cab565b50565b81518351146108015760405162461bcd60e51b81526004016103b5906127c1565b6001600160a01b0384166108275760405162461bcd60e51b81526004016103b590612809565b3360005b84518110156109115760008582815181106108485761084861277c565b6020026020010151905060008583815181106108665761086661277c565b60209081029190910181015160008481526001835260408082206001600160a01b038e1683529093529190912054909150818110156108b75760405162461bcd60e51b81526004016103b59061284e565b60008381526001602090815260408083206001600160a01b038e8116855292528083208585039055908b168252812080548492906108f6908490612898565b925050819055505050508061090a906127a8565b905061082b565b50846001600160a01b0316866001600160a01b0316826001600160a01b03167f4a39dc06d4c0dbc64b70af90fd698a233a518aa5d07e595d983b8c0526c8f7fb87876040516109619291906128ab565b60405180910390a4610977818787878787610fa4565b505050505050565b6000546001600160a01b031633146106e55760405162461bcd60e51b815260206004820181905260248201527f4f776e61626c653a2063616c6c6572206973206e6f7420746865206f776e657260448201526064016103b5565b600054600160a01b900460ff16156106e55760405162461bcd60e51b815260206004820152601060248201526f14185d5cd8589b194e881c185d5cd95960821b60448201526064016103b5565b8151815114610a775760405162461bcd60e51b815260206004820152601860248201527f52454a5556453a204e6f7420657175616c206c656e677468000000000000000060448201526064016103b5565b8260ff16600003610ae15760405162461bcd60e51b815260206004820152602e60248201527f52454a5556453a204675747572652070657263656e746167652073686172652060448201526d63616e6e6f74206265207a65726f60901b60648201526084016103b5565b600084815260096020526040812060048101805462ff000019166201000060ff88160217905590610b1184611108565b905060005b8351811015610c59576000610b4d868381518110610b3657610b3661277c565b6020026020010151848960ff168760010154611157565b90506000610b5a826111b0565b9050610bfe868481518110610b7157610b7161277c565b6020026020010151600a60008c8152602001908152602001600020805480602002602001604051908101604052809291908181526020018280548015610bd657602002820191906000526020600020905b815481526020019060010190808311610bc2575b505050505083604051806040016040528060048152602001630307830360e41b815250611241565b818560020154610c0e9190612898565b600286015550600f80546001810182556000919091527f8d1108e10bcb7c27dddfc02ed9d693a074039d026cf4ea4240b40f7d581ac802015580610c51816127a8565b915050610b16565b507f621e1a59d70685f53a28114e1229586ecd6908416f6bfaee0e147c3d34f398458684600f604051610c8e9392919061290e565b60405180910390a150506010805460ff1916600117905550505050565b600080546001600160a01b038381166001600160a01b0319831681178455604051919092169283917f8be0079c531659141344cd1fd0a4f28419497f9722a3daafe3b4186f6b6457e09190a35050565b816001600160a01b0316836001600160a01b031603610d6e5760405162461bcd60e51b815260206004820152602960248201527f455243313135353a2073657474696e6720617070726f76616c20737461747573604482015268103337b91039b2b63360b91b60648201526084016103b5565b6001600160a01b03838116600081815260026020908152604080832094871680845294825291829020805460ff191686151590811790915591519182527f17307eab39ab6107e8899845ad3d59bd9653f200f220920489ca2b5937696c31910160405180910390a3505050565b610de5898761138d565b6000898152600b6020526040902054610e03908a908a908888611408565b610e0d8982611513565b610e1d89898760ff168a876116e5565b610e2c8989848760ff16611b12565b7fb79a1263d65160537b9075e0e4747a6007a82fb191be4435b4c508c431920b898960066007604051610e619392919061296c565b60405180910390a150506008805460ff1916600117905550505050505050565b6001600160a01b038416610ea75760405162461bcd60e51b81526004016103b590612809565b336000610eb385611c6f565b90506000610ec085611c6f565b905060008681526001602090815260408083206001600160a01b038c16845290915290205485811015610f055760405162461bcd60e51b81526004016103b59061284e565b60008781526001602090815260408083206001600160a01b038d8116855292528083208985039055908a16825281208054889290610f44908490612898565b909155505060408051888152602081018890526001600160a01b03808b16928c821692918816917fc3d58168c5ae7397731d063d5bbf3d657854427343f4c083240f7aacaa2d0f62910160405180910390a4610717848a8a8a8a8a611cba565b6001600160a01b0384163b156109775760405163bc197c8160e01b81526001600160a01b0385169063bc197c8190610fe890899089908890889088906004016129bb565b6020604051808303816000875af1925050508015611023575060408051601f3d908101601f1916820190925261102091810190612a0d565b60015b6110cf5761102f612a2a565b806308c379a0036110685750611043612a46565b8061104e575061106a565b8060405162461bcd60e51b81526004016103b591906120d2565b505b60405162461bcd60e51b815260206004820152603460248201527f455243313135353a207472616e7366657220746f206e6f6e2d455243313135356044820152732932b1b2b4bb32b91034b6b83632b6b2b73a32b960611b60648201526084016103b5565b6001600160e01b0319811663bc197c8160e01b146110ff5760405162461bcd60e51b81526004016103b590612acf565b50505050505050565b60008060005b8351811015611150578381815181106111295761112961277c565b60200260200101518261113c9190612898565b915080611148816127a8565b91505061110e565b5092915050565b60008084611166876064612b17565b6111709190612b2e565b9050600060646111808686612b17565b61118a9190612b2e565b90506000606461119a8484612b17565b6111a49190612b2e565b98975050505050505050565b60408051600280825260608083018452926000929190602083019080368337019050509050600060646111e4856032612b17565b6111ee9190612b2e565b905080826000815181106112045761120461277c565b60209081029190910101526112198185612b50565b9350838260018151811061122f5761122f61277c565b60209081029190910101525092915050565b6001600160a01b0384166112675760405162461bcd60e51b81526004016103b590612b63565b81518351146112885760405162461bcd60e51b81526004016103b5906127c1565b3360005b8451811015611325578381815181106112a7576112a761277c565b6020026020010151600160008784815181106112c5576112c561277c565b602002602001015181526020019081526020016000206000886001600160a01b03166001600160a01b03168152602001908152602001600020600082825461130d9190612898565b9091555081905061131d816127a8565b91505061128c565b50846001600160a01b031660006001600160a01b0316826001600160a01b03167f4a39dc06d4c0dbc64b70af90fd698a233a518aa5d07e595d983b8c0526c8f7fb87876040516113769291906128ab565b60405180910390a461052081600087878787610fa4565b806000036113e85760405162461bcd60e51b815260206004820152602260248201527f52454a5556453a204c6f636b20706572696f642063616e6e6f74206265207a65604482015261726f60f01b60648201526084016103b5565b6113f24282612898565b6000928352600b60205260409092209190915550565b836000036114625760405162461bcd60e51b815260206004820152602160248201527f52454a5556453a2054617267657420737570706c792063616e6e6f74206265206044820152600360fc1b60648201526084016103b5565b8160ff166000036114ce5760405162461bcd60e51b815260206004820152603060248201527f52454a5556453a20496e697469616c20636f6e7472696275746f72732070657260448201526f063656e742063616e6e6f7420626520360841b60648201526084016103b5565b6000858152600960205260409020948555600185019390935560038401919091556004909201805460ff93841661ffff19909116176101009390921692909202179055565b60408051600280825260608201909252600091816020015b606081526020019060019003908161152b579050509050604051806040016040528060068152602001651313d0d2d15160d21b815250816000815181106115745761157461277c565b60200260200101819052506040518060400160405280600681526020016515149051115160d21b815250816001815181106115b1576115b161277c565b602002602001018190525060005b81518160ff161015610543576005828260ff16815181106115e2576115e261277c565b6020908102919091018101518254600181018455600093845291909220019061160b9082612bef565b5060055460009061161e90600190612b50565b6000868152600a60209081526040822080546001810182559083529120018190558351909150839060ff84169081106116595761165961277c565b6020026020010151600d600083815260200190815260200160002090816116809190612bef565b506000818152600c602052604090208590558351849060ff84169081106116a9576116a961277c565b6020026020010151600e600083815260200190815260200160002090816116d09190612bef565b505080806116dd90612cae565b9150506115bf565b6004805460405163c9187fe760e01b81529182018790526000916001600160a01b039091169063c9187fe790602401600060405180830381865afa158015611731573d6000803e3d6000fd5b505050506040513d6000823e601f3d908101601f191682016040526117599190810190612ccd565b9050600061176687611d75565b60008881526009602052604090209091506117818583612898565b915060005b600480546040516384ffeca560e01b81529182018b90526001600160a01b0316906384ffeca590602401602060405180830381865afa1580156117cd573d6000803e3d6000fd5b505050506040513d601f19601f820116820180604052508101906117f19190612dcf565b811015611a5c5760045484516000916001600160a01b0316906359a96ffe908790859081106118225761182261277c565b60200260200101516040518263ffffffff1660e01b815260040161184691906120d2565b602060405180830381865afa158015611863573d6000803e3d6000fd5b505050506040513d601f19601f820116820180604052508101906118879190612de8565b6004548651919250600091611927916001600160a01b031690630e47cefa908990879081106118b8576118b861277c565b60200260200101518e6040518363ffffffff1660e01b81526004016118de929190612e05565b602060405180830381865afa1580156118fb573d6000803e3d6000fd5b505050506040513d601f19601f8201168201806040525081019061191f9190612dcf565b868b8d611157565b90506000611934826111b0565b60008d8152600a602090815260409182902080548351818402810184019094528084529394506119b693879392830182828015610bd65760200282019190600052602060002090815481526020019060010190808311610bc257505050505083604051806040016040528060048152602001630307830360e41b815250611241565b8185600201546119c69190612898565b6002860155506006805460018082019092557ff652222313e28459528d920b65115c16c04f3efc82aaedc97be59f3f377c0d3f0180546001600160a01b0319166001600160a01b0394909416939093179092556007805492830181556000527fa66cc928b5edb82af9bd49922954155ab7b0942694bea4ce44661d9a8736c6889091015580611a54816127a8565b915050611786565b506000611a6d898688868b8d611eab565b9050808260020154611a7f9190612898565b6002909201919091556006805460018181019092557ff652222313e28459528d920b65115c16c04f3efc82aaedc97be59f3f377c0d3f0180546001600160a01b039096166001600160a01b0319909616959095179094556007805494850181556000527fa66cc928b5edb82af9bd49922954155ab7b0942694bea4ce44661d9a8736c68890930192909255505050505050565b6000848152600960205260408120906064611b2d8487612b17565b611b379190612b2e565b9050808260020154611b499190612898565b60028301556000611b59826111b0565b905060005b8151811015611be6576000888152600a602052604090208054611bd491889184908110611b8d57611b8d61277c565b9060005260206000200154848481518110611baa57611baa61277c565b6020026020010151604051806040016040528060048152602001630307830360e41b815250611f1b565b80611bde816127a8565b915050611b5e565b50506006805460018082019092557ff652222313e28459528d920b65115c16c04f3efc82aaedc97be59f3f377c0d3f0180546001600160a01b0319166001600160a01b0396909616959095179094556007805494850181556000527fa66cc928b5edb82af9bd49922954155ab7b0942694bea4ce44661d9a8736c6889093019290925550505050565b60408051600180825281830190925260609160009190602080830190803683370190505090508281600081518110611ca957611ca961277c565b602090810291909101015292915050565b6001600160a01b0384163b156109775760405163f23a6e6160e01b81526001600160a01b0385169063f23a6e6190611cfe9089908990889088908890600401612e27565b6020604051808303816000875af1925050508015611d39575060408051601f3d908101601f19168201909252611d3691810190612a0d565b60015b611d455761102f612a2a565b6001600160e01b0319811663f23a6e6160e01b146110ff5760405162461bcd60e51b81526004016103b590612acf565b6004805460405163c9187fe760e01b815291820183905260009182916001600160a01b03169063c9187fe790602401600060405180830381865afa158015611dc1573d6000803e3d6000fd5b505050506040513d6000823e601f3d908101601f19168201604052611de99190810190612ccd565b90506000805b825181101561066a5760045483516000916001600160a01b031690630e47cefa90869085908110611e2257611e2261277c565b6020026020010151886040518363ffffffff1660e01b8152600401611e48929190612e05565b602060405180830381865afa158015611e65573d6000803e3d6000fd5b505050506040513d601f19601f82011682018060405250810190611e899190612dcf565b9050611e958184612898565b9250508080611ea3906127a8565b915050611def565b600080611eba86868686611157565b90506000611ec7826111b0565b905060005b8151811015611f0d5760008a8152600a602052604090208054611efb918b9184908110611b8d57611b8d61277c565b80611f05816127a8565b915050611ecc565b509098975050505050505050565b6001600160a01b038416611f415760405162461bcd60e51b81526004016103b590612b63565b336000611f4d85611c6f565b90506000611f5a85611c6f565b905060008681526001602090815260408083206001600160a01b038b16845290915281208054879290611f8e908490612898565b909155505060408051878152602081018790526001600160a01b03808a1692600092918716917fc3d58168c5ae7397731d063d5bbf3d657854427343f4c083240f7aacaa2d0f62910160405180910390a46110ff83600089898989611cba565b6001600160a01b03811681146107dd57600080fd5b6000806040838503121561201657600080fd5b823561202181611fee565b946020939093013593505050565b6001600160e01b0319811681146107dd57600080fd5b60006020828403121561205757600080fd5b81356120628161202f565b9392505050565b60006020828403121561207b57600080fd5b5035919050565b60005b8381101561209d578181015183820152602001612085565b50506000910152565b600081518084526120be816020860160208601612082565b601f01601f19169290920160200192915050565b60208152600061206260208301846120a6565b634e487b7160e01b600052604160045260246000fd5b601f8201601f191681016001600160401b0381118282101715612120576121206120e5565b6040525050565b60006001600160401b03821115612140576121406120e5565b5060051b60200190565b600082601f83011261215b57600080fd5b8135602061216882612127565b60405161217582826120fb565b83815260059390931b850182019282810191508684111561219557600080fd5b8286015b848110156121b05780358352918301918301612199565b509695505050505050565b60006001600160401b038211156121d4576121d46120e5565b50601f01601f191660200190565b60006121ed836121bb565b6040516121fa82826120fb565b80925084815285858501111561220f57600080fd5b8484602083013760006020868301015250509392505050565b600082601f83011261223957600080fd5b612062838335602085016121e2565b600080600080600060a0868803121561226057600080fd5b853561226b81611fee565b9450602086013561227b81611fee565b935060408601356001600160401b038082111561229757600080fd5b6122a389838a0161214a565b945060608801359150808211156122b957600080fd5b6122c589838a0161214a565b935060808801359150808211156122db57600080fd5b506122e888828901612228565b9150509295509295909350565b803560ff8116811461230657600080fd5b919050565b600082601f83011261231c57600080fd5b8135602061232982612127565b60405161233682826120fb565b83815260059390931b850182019282810191508684111561235657600080fd5b8286015b848110156121b057803561236d81611fee565b835291830191830161235a565b6000806000806080858703121561239057600080fd5b843593506123a0602086016122f5565b925060408501356001600160401b03808211156123bc57600080fd5b6123c88883890161214a565b935060608701359150808211156123de57600080fd5b506123eb8782880161230b565b91505092959194509250565b6000806040838503121561240a57600080fd5b82356001600160401b038082111561242157600080fd5b61242d8683870161230b565b9350602085013591508082111561244357600080fd5b506124508582860161214a565b9150509250929050565b600081518084526020808501945080840160005b8381101561248a5781518752958201959082019060010161246e565b509495945050505050565b602081526000612062602083018461245a565b600080604083850312156124bb57600080fd5b82356124c681611fee565b9150602083013580151581146124db57600080fd5b809150509250929050565b60008060008060008060008060006101208a8c03121561250557600080fd5b8935985060208a0135975060408a0135965060608a0135955061252a60808b016122f5565b945061253860a08b016122f5565b935061254760c08b0135611fee565b60c08a0135925061255b60e08b0135611fee565b60e08a013591506001600160401b036101008b0135111561257b57600080fd5b6101008a01358a018b601f82011261259257600080fd5b61259c8135612127565b6040516125a982826120fb565b809150823581526020810191508d6020843560051b85010111156125cc57600080fd5b602083015b6020843560051b85010181101561262d576001600160401b03813511156125f757600080fd5b8e603f82358601011261260957600080fd5b61261f8f823586016020810135906040016121e2565b8352602092830192016125d1565b508093505050509295985092959850929598565b6000806040838503121561265457600080fd5b823561265f81611fee565b915060208301356124db81611fee565b600080600080600060a0868803121561268757600080fd5b853561269281611fee565b945060208601356126a281611fee565b9350604086013592506060860135915060808601356001600160401b038111156126cb57600080fd5b6122e888828901612228565b6000602082840312156126e957600080fd5b813561206281611fee565b600181811c9082168061270857607f821691505b60208210810361272857634e487b7160e01b600052602260045260246000fd5b50919050565b6020808252602e908201527f455243313135353a2063616c6c6572206973206e6f7420746f6b656e206f776e60408201526d195c881bdc88185c1c1c9bdd995960921b606082015260800190565b634e487b7160e01b600052603260045260246000fd5b634e487b7160e01b600052601160045260246000fd5b6000600182016127ba576127ba612792565b5060010190565b60208082526028908201527f455243313135353a2069647320616e6420616d6f756e7473206c656e677468206040820152670dad2e6dac2e8c6d60c31b606082015260800190565b60208082526025908201527f455243313135353a207472616e7366657220746f20746865207a65726f206164604082015264647265737360d81b606082015260800190565b6020808252602a908201527f455243313135353a20696e73756666696369656e742062616c616e636520666f60408201526939103a3930b739b332b960b11b606082015260800190565b808201808211156103e3576103e3612792565b6040815260006128be604083018561245a565b82810360208401526128d0818561245a565b95945050505050565b6000815480845260208085019450836000528060002060005b8381101561248a578154875295820195600191820191016128f2565b6000606082018583526020606081850152818651808452608086019150828801935060005b818110156129585784516001600160a01b031683529383019391830191600101612933565b505084810360408601526111a481876128d9565b60006060820185835260206060818501528186548084526080860191508760005282600020935060005b818110156129585784546001600160a01b031683526001948501949284019201612996565b6001600160a01b0386811682528516602082015260a0604082018190526000906129e79083018661245a565b82810360608401526129f9818661245a565b905082810360808401526111a481856120a6565b600060208284031215612a1f57600080fd5b81516120628161202f565b600060033d1115612a435760046000803e5060005160e01c5b90565b600060443d1015612a545790565b6040516003193d81016004833e81513d6001600160401b038160248401118184111715612a8357505050505090565b8285019150815181811115612a9b5750505050505090565b843d8701016020828501011115612ab55750505050505090565b612ac4602082860101876120fb565b509095945050505050565b60208082526028908201527f455243313135353a204552433131353552656365697665722072656a656374656040820152676420746f6b656e7360c01b606082015260800190565b80820281158282048414176103e3576103e3612792565b600082612b4b57634e487b7160e01b600052601260045260246000fd5b500490565b818103818111156103e3576103e3612792565b60208082526021908201527f455243313135353a206d696e7420746f20746865207a65726f206164647265736040820152607360f81b606082015260800190565b601f821115612bea57600081815260208120601f850160051c81016020861015612bcb5750805b601f850160051c820191505b8181101561097757828155600101612bd7565b505050565b81516001600160401b03811115612c0857612c086120e5565b612c1c81612c1684546126f4565b84612ba4565b602080601f831160018114612c515760008415612c395750858301515b600019600386901b1c1916600185901b178555610977565b600085815260208120601f198616915b82811015612c8057888601518255948401946001909101908401612c61565b5085821015612c9e5787850151600019600388901b60f8161c191681555b5050505050600190811b01905550565b600060ff821660ff8103612cc457612cc4612792565b60010192915050565b60006020808385031215612ce057600080fd5b82516001600160401b0380821115612cf757600080fd5b818501915085601f830112612d0b57600080fd5b8151612d1681612127565b60408051612d2483826120fb565b83815260059390931b8501860192868101925089841115612d4457600080fd5b8686015b84811015612dc157805186811115612d605760008081fd5b8701603f81018c13612d725760008081fd5b88810151612d7f816121bb565b8551612d8b82826120fb565b8281528e87848601011115612da257600091508182fd5b612db1838d8301898701612082565b8752505050928701928701612d48565b509998505050505050505050565b600060208284031215612de157600080fd5b5051919050565b600060208284031215612dfa57600080fd5b815161206281611fee565b604081526000612e1860408301856120a6565b90508260208301529392505050565b6001600160a01b03868116825285166020820152604081018490526060810183905260a060808201819052600090612e61908301846120a6565b97965050505050505056fea2646970667358221220f172cb3455aee261e3d0934c45370db0f3fd4dbeb204bfc3440ece1b72d6340964736f6c63430008120033",
  "linkReferences": {},
  "deployedLinkReferences": {}
}