{
  "_format": "hh-sol-artifact-1",
  "contractName": "FutureShards",
  "sourceName": "contracts/FutureShards.sol",
  "abi": [
    {
      "inputs": [
        {
          "internalType": "string",
          "name": "uri",
          "type": "string"
        },
        {
          "internalType": "address",
          "name": "productNFT",
          "type": "address"
        }
      ],
      "stateMutability": "nonpayable",
      "type": "constructor"
    },
    {
      "anonymous": false,
      "inputs": [
        {
          "indexed": true,
          "internalType": "address",
          "name": "account",
          "type": "address"
        },
        {
          "indexed": true,
          "internalType": "address",
          "name": "operator",
          "type": "address"
        },
        {
          "indexed": false,
          "internalType": "bool",
          "name": "approved",
          "type": "bool"
        }
      ],
      "name": "ApprovalForAll",
      "type": "event"
    },
    {
      "anonymous": false,
      "inputs": [
        {
          "indexed": false,
          "internalType": "uint256",
          "name": "productUID",
          "type": "uint256"
        },
        {
          "indexed": false,
          "internalType": "address[]",
          "name": "dataOwners",
          "type": "address[]"
        },
        {
          "indexed": false,
          "internalType": "uint256[]",
          "name": "shardAmount",
          "type": "uint256[]"
        }
      ],
      "name": "FutureShardDistributed",
      "type": "event"
    },
    {
      "anonymous": false,
      "inputs": [
        {
          "indexed": false,
          "internalType": "uint256",
          "name": "productUID",
          "type": "uint256"
        },
        {
          "indexed": false,
          "internalType": "address[]",
          "name": "initialContributors",
          "type": "address[]"
        },
        {
          "indexed": false,
          "internalType": "uint256[]",
          "name": "shardAmount",
          "type": "uint256[]"
        }
      ],
      "name": "InitialShardDistributed",
      "type": "event"
    },
    {
      "anonymous": false,
      "inputs": [
        {
          "indexed": true,
          "internalType": "address",
          "name": "previousOwner",
          "type": "address"
        },
        {
          "indexed": true,
          "internalType": "address",
          "name": "newOwner",
          "type": "address"
        }
      ],
      "name": "OwnershipTransferred",
      "type": "event"
    },
    {
      "anonymous": false,
      "inputs": [
        {
          "indexed": false,
          "internalType": "address",
          "name": "account",
          "type": "address"
        }
      ],
      "name": "Paused",
      "type": "event"
    },
    {
      "anonymous": false,
      "inputs": [
        {
          "indexed": true,
          "internalType": "address",
          "name": "operator",
          "type": "address"
        },
        {
          "indexed": true,
          "internalType": "address",
          "name": "from",
          "type": "address"
        },
        {
          "indexed": true,
          "internalType": "address",
          "name": "to",
          "type": "address"
        },
        {
          "indexed": false,
          "internalType": "uint256[]",
          "name": "ids",
          "type": "uint256[]"
        },
        {
          "indexed": false,
          "internalType": "uint256[]",
          "name": "values",
          "type": "uint256[]"
        }
      ],
      "name": "TransferBatch",
      "type": "event"
    },
    {
      "anonymous": false,
      "inputs": [
        {
          "indexed": true,
          "internalType": "address",
          "name": "operator",
          "type": "address"
        },
        {
          "indexed": true,
          "internalType": "address",
          "name": "from",
          "type": "address"
        },
        {
          "indexed": true,
          "internalType": "address",
          "name": "to",
          "type": "address"
        },
        {
          "indexed": false,
          "internalType": "uint256",
          "name": "id",
          "type": "uint256"
        },
        {
          "indexed": false,
          "internalType": "uint256",
          "name": "value",
          "type": "uint256"
        }
      ],
      "name": "TransferSingle",
      "type": "event"
    },
    {
      "anonymous": false,
      "inputs": [
        {
          "indexed": false,
          "internalType": "string",
          "name": "value",
          "type": "string"
        },
        {
          "indexed": true,
          "internalType": "uint256",
          "name": "id",
          "type": "uint256"
        }
      ],
      "name": "URI",
      "type": "event"
    },
    {
      "anonymous": false,
      "inputs": [
        {
          "indexed": false,
          "internalType": "address",
          "name": "account",
          "type": "address"
        }
      ],
      "name": "Unpaused",
      "type": "event"
    },
    {
      "inputs": [
        {
          "internalType": "address",
          "name": "account",
          "type": "address"
        },
        {
          "internalType": "uint256",
          "name": "id",
          "type": "uint256"
        }
      ],
      "name": "balanceOf",
      "outputs": [
        {
          "internalType": "uint256",
          "name": "",
          "type": "uint256"
        }
      ],
      "stateMutability": "view",
      "type": "function"
    },
    {
      "inputs": [
        {
          "internalType": "address[]",
          "name": "accounts",
          "type": "address[]"
        },
        {
          "internalType": "uint256[]",
          "name": "ids",
          "type": "uint256[]"
        }
      ],
      "name": "balanceOfBatch",
      "outputs": [
        {
          "internalType": "uint256[]",
          "name": "",
          "type": "uint256[]"
        }
      ],
      "stateMutability": "view",
      "type": "function"
    },
    {
      "inputs": [
        {
          "internalType": "uint256",
          "name": "productUID",
          "type": "uint256"
        },
        {
          "internalType": "uint8",
          "name": "futurePercent",
          "type": "uint8"
        },
        {
          "internalType": "uint256[]",
          "name": "credits",
          "type": "uint256[]"
        },
        {
          "internalType": "address[]",
          "name": "futureContributors",
          "type": "address[]"
        }
      ],
      "name": "distributeFutureShards",
      "outputs": [],
      "stateMutability": "nonpayable",
      "type": "function"
    },
    {
      "inputs": [
        {
          "internalType": "uint256",
          "name": "productUID",
          "type": "uint256"
        },
        {
          "internalType": "uint256",
          "name": "targetSupply_",
          "type": "uint256"
        },
        {
          "internalType": "uint256",
          "name": "labCredit",
          "type": "uint256"
        },
        {
          "internalType": "uint256",
          "name": "lockPeriod",
          "type": "uint256"
        },
        {
          "internalType": "uint8",
          "name": "initialPercent",
          "type": "uint8"
        },
        {
          "internalType": "uint8",
          "name": "rejuvePercent",
          "type": "uint8"
        },
        {
          "internalType": "address",
          "name": "lab",
          "type": "address"
        },
        {
          "internalType": "address",
          "name": "rejuve",
          "type": "address"
        },
        {
          "internalType": "string[]",
          "name": "uris",
          "type": "string[]"
        }
      ],
      "name": "distributeInitialShards",
      "outputs": [],
      "stateMutability": "nonpayable",
      "type": "function"
    },
    {
      "inputs": [
        {
          "internalType": "uint256",
          "name": "productUID",
          "type": "uint256"
        }
      ],
      "name": "getFutureContributorShards",
      "outputs": [
        {
          "internalType": "uint256[]",
          "name": "",
          "type": "uint256[]"
        }
      ],
      "stateMutability": "view",
      "type": "function"
    },
    {
      "inputs": [
        {
          "internalType": "uint256",
          "name": "productUID",
          "type": "uint256"
        }
      ],
      "name": "getFutureContributors",
      "outputs": [
        {
          "internalType": "address[]",
          "name": "",
          "type": "address[]"
        }
      ],
      "stateMutability": "view",
      "type": "function"
    },
    {
      "inputs": [
        {
          "internalType": "uint256",
          "name": "productUID",
          "type": "uint256"
        }
      ],
      "name": "getFutureDistributionStatus",
      "outputs": [
        {
          "internalType": "bool",
          "name": "",
          "type": "bool"
        }
      ],
      "stateMutability": "view",
      "type": "function"
    },
    {
      "inputs": [
        {
          "internalType": "uint256",
          "name": "productUID",
          "type": "uint256"
        }
      ],
      "name": "getInitialContributorShards",
      "outputs": [
        {
          "internalType": "uint256[]",
          "name": "",
          "type": "uint256[]"
        }
      ],
      "stateMutability": "view",
      "type": "function"
    },
    {
      "inputs": [
        {
          "internalType": "uint256",
          "name": "productUID",
          "type": "uint256"
        }
      ],
      "name": "getInitialContributors",
      "outputs": [
        {
          "internalType": "address[]",
          "name": "",
          "type": "address[]"
        }
      ],
      "stateMutability": "view",
      "type": "function"
    },
    {
      "inputs": [
        {
          "internalType": "uint256",
          "name": "productUID",
          "type": "uint256"
        }
      ],
      "name": "getInitialDistributionStatus",
      "outputs": [
        {
          "internalType": "bool",
          "name": "",
          "type": "bool"
        }
      ],
      "stateMutability": "view",
      "type": "function"
    },
    {
      "inputs": [
        {
          "internalType": "uint256",
          "name": "productUID",
          "type": "uint256"
        }
      ],
      "name": "getProductIDs",
      "outputs": [
        {
          "internalType": "uint256[]",
          "name": "",
          "type": "uint256[]"
        }
      ],
      "stateMutability": "view",
      "type": "function"
    },
    {
      "inputs": [
        {
          "internalType": "uint256",
          "name": "productUID",
          "type": "uint256"
        }
      ],
      "name": "getShardsConfig",
      "outputs": [
        {
          "internalType": "uint256",
          "name": "",
          "type": "uint256"
        },
        {
          "internalType": "uint8",
          "name": "",
          "type": "uint8"
        },
        {
          "internalType": "uint8",
          "name": "",
          "type": "uint8"
        },
        {
          "internalType": "uint8",
          "name": "",
          "type": "uint8"
        }
      ],
      "stateMutability": "view",
      "type": "function"
    },
    {
      "inputs": [
        {
          "internalType": "address",
          "name": "account",
          "type": "address"
        },
        {
          "internalType": "address",
          "name": "operator",
          "type": "address"
        }
      ],
      "name": "isApprovedForAll",
      "outputs": [
        {
          "internalType": "bool",
          "name": "",
          "type": "bool"
        }
      ],
      "stateMutability": "view",
      "type": "function"
    },
    {
      "inputs": [],
      "name": "owner",
      "outputs": [
        {
          "internalType": "address",
          "name": "",
          "type": "address"
        }
      ],
      "stateMutability": "view",
      "type": "function"
    },
    {
      "inputs": [],
      "name": "paused",
      "outputs": [
        {
          "internalType": "bool",
          "name": "",
          "type": "bool"
        }
      ],
      "stateMutability": "view",
      "type": "function"
    },
    {
      "inputs": [],
      "name": "renounceOwnership",
      "outputs": [],
      "stateMutability": "nonpayable",
      "type": "function"
    },
    {
      "inputs": [
        {
          "internalType": "address",
          "name": "from",
          "type": "address"
        },
        {
          "internalType": "address",
          "name": "to",
          "type": "address"
        },
        {
          "internalType": "uint256[]",
          "name": "ids",
          "type": "uint256[]"
        },
        {
          "internalType": "uint256[]",
          "name": "amounts",
          "type": "uint256[]"
        },
        {
          "internalType": "bytes",
          "name": "data",
          "type": "bytes"
        }
      ],
      "name": "safeBatchTransferFrom",
      "outputs": [],
      "stateMutability": "nonpayable",
      "type": "function"
    },
    {
      "inputs": [
        {
          "internalType": "address",
          "name": "from",
          "type": "address"
        },
        {
          "internalType": "address",
          "name": "to",
          "type": "address"
        },
        {
          "internalType": "uint256",
          "name": "id",
          "type": "uint256"
        },
        {
          "internalType": "uint256",
          "name": "amount",
          "type": "uint256"
        },
        {
          "internalType": "bytes",
          "name": "data",
          "type": "bytes"
        }
      ],
      "name": "safeTransferFrom",
      "outputs": [],
      "stateMutability": "nonpayable",
      "type": "function"
    },
    {
      "inputs": [
        {
          "internalType": "address",
          "name": "operator",
          "type": "address"
        },
        {
          "internalType": "bool",
          "name": "approved",
          "type": "bool"
        }
      ],
      "name": "setApprovalForAll",
      "outputs": [],
      "stateMutability": "nonpayable",
      "type": "function"
    },
    {
      "inputs": [
        {
          "internalType": "bytes4",
          "name": "interfaceId",
          "type": "bytes4"
        }
      ],
      "name": "supportsInterface",
      "outputs": [
        {
          "internalType": "bool",
          "name": "",
          "type": "bool"
        }
      ],
      "stateMutability": "view",
      "type": "function"
    },
    {
      "inputs": [
        {
          "internalType": "uint256",
          "name": "productUID",
          "type": "uint256"
        }
      ],
      "name": "targetSupply",
      "outputs": [
        {
          "internalType": "uint256",
          "name": "",
          "type": "uint256"
        }
      ],
      "stateMutability": "view",
      "type": "function"
    },
    {
      "inputs": [
        {
          "internalType": "uint256",
          "name": "productUID",
          "type": "uint256"
        }
      ],
      "name": "totalShardSupply",
      "outputs": [
        {
          "internalType": "uint256",
          "name": "",
          "type": "uint256"
        }
      ],
      "stateMutability": "view",
      "type": "function"
    },
    {
      "inputs": [
        {
          "internalType": "address",
          "name": "newOwner",
          "type": "address"
        }
      ],
      "name": "transferOwnership",
      "outputs": [],
      "stateMutability": "nonpayable",
      "type": "function"
    },
    {
      "inputs": [
        {
          "internalType": "uint256",
          "name": "id",
          "type": "uint256"
        }
      ],
      "name": "uri",
      "outputs": [
        {
          "internalType": "string",
          "name": "",
          "type": "string"
        }
      ],
      "stateMutability": "view",
      "type": "function"
    }
  ],
  "bytecode": "0x608060405234801562000010575f80fd5b50604051620077df380380620077df8339818101604052810190620000369190620003eb565b818181620000596200004d6200012260201b60201c565b6200012960201b60201c565b5f8060146101000a81548160ff0219169083151502179055506200008381620001ea60201b60201c565b50620000a067eb89caea1e073f7760c01b620001ff60201b60201c565b620000bc675800433c036122ce60c01b620001ff60201b60201c565b8060045f6101000a81548173ffffffffffffffffffffffffffffffffffffffff021916908373ffffffffffffffffffffffffffffffffffffffff16021790555050506200011a674747a263a5a4f22760c01b6200020260201b60201c565b50506200076a565b5f33905090565b5f805f9054906101000a900473ffffffffffffffffffffffffffffffffffffffff169050815f806101000a81548173ffffffffffffffffffffffffffffffffffffffff021916908373ffffffffffffffffffffffffffffffffffffffff1602179055508173ffffffffffffffffffffffffffffffffffffffff168173ffffffffffffffffffffffffffffffffffffffff167f8be0079c531659141344cd1fd0a4f28419497f9722a3daafe3b4186f6b6457e060405160405180910390a35050565b8060039081620001fb919062000686565b5050565b50565b50565b5f604051905090565b5f80fd5b5f80fd5b5f80fd5b5f80fd5b5f601f19601f8301169050919050565b7f4e487b71000000000000000000000000000000000000000000000000000000005f52604160045260245ffd5b62000266826200021e565b810181811067ffffffffffffffff821117156200028857620002876200022e565b5b80604052505050565b5f6200029c62000205565b9050620002aa82826200025b565b919050565b5f67ffffffffffffffff821115620002cc57620002cb6200022e565b5b620002d7826200021e565b9050602081019050919050565b5f5b8381101562000303578082015181840152602081019050620002e6565b5f8484015250505050565b5f620003246200031e84620002af565b62000291565b9050828152602081018484840111156200034357620003426200021a565b5b62000350848285620002e4565b509392505050565b5f82601f8301126200036f576200036e62000216565b5b8151620003818482602086016200030e565b91505092915050565b5f73ffffffffffffffffffffffffffffffffffffffff82169050919050565b5f620003b5826200038a565b9050919050565b620003c781620003a9565b8114620003d2575f80fd5b50565b5f81519050620003e581620003bc565b92915050565b5f80604083850312156200040457620004036200020e565b5b5f83015167ffffffffffffffff81111562000424576200042362000212565b5b620004328582860162000358565b92505060206200044585828601620003d5565b9150509250929050565b5f81519050919050565b7f4e487b71000000000000000000000000000000000000000000000000000000005f52602260045260245ffd5b5f60028204905060018216806200049e57607f821691505b602082108103620004b457620004b362000459565b5b50919050565b5f819050815f5260205f209050919050565b5f6020601f8301049050919050565b5f82821b905092915050565b5f60088302620005187fffffffffffffffffffffffffffffffffffffffffffffffffffffffffffffffff82620004db565b620005248683620004db565b95508019841693508086168417925050509392505050565b5f819050919050565b5f819050919050565b5f6200056e6200056862000562846200053c565b62000545565b6200053c565b9050919050565b5f819050919050565b62000589836200054e565b620005a1620005988262000575565b848454620004e7565b825550505050565b5f90565b620005b7620005a9565b620005c48184846200057e565b505050565b5b81811015620005eb57620005df5f82620005ad565b600181019050620005ca565b5050565b601f8211156200063a576200060481620004ba565b6200060f84620004cc565b810160208510156200061f578190505b620006376200062e85620004cc565b830182620005c9565b50505b505050565b5f82821c905092915050565b5f6200065c5f19846008026200063f565b1980831691505092915050565b5f6200067683836200064b565b9150826002028217905092915050565b62000691826200044f565b67ffffffffffffffff811115620006ad57620006ac6200022e565b5b620006b9825462000486565b620006c6828285620005ef565b5f60209050601f831160018114620006fc575f8415620006e7578287015190505b620006f3858262000669565b86555062000762565b601f1984166200070c86620004ba565b5f5b8281101562000735578489015182556001820191506020850194506020810190506200070e565b8683101562000755578489015162000751601f8916826200064b565b8355505b6001600288020188555050505b505050505050565b61706780620007785f395ff3fe608060405234801561000f575f80fd5b5060043610610155575f3560e01c8063936906f1116100c1578063db05979f1161007a578063db05979f1461041f578063e985e9c51461044f578063f242432a1461047f578063f2fde38b1461049b578063f395f9da146104b7578063fac795c0146104e757610155565b8063936906f114610327578063a22cb46514610357578063b881501e14610373578063d429c758146103a3578063d4e1872c146103bf578063d6e0dbda146103ef57610155565b80634e1273f4116101135780634e1273f4146102515780634e57d942146102815780635c975abb146102b1578063715018a6146102cf5780638be2cf9c146102d95780638da5cb5b1461030957610155565b8062fdd58e1461015957806301ffc9a7146101895780630e89341c146101b95780631e68ca89146101e95780632eb2c2d6146102195780634567db0314610235575b5f80fd5b610173600480360381019061016e91906149fa565b61051a565b6040516101809190614a47565b60405180910390f35b6101a3600480360381019061019e9190614ab5565b6105de565b6040516101b09190614afa565b60405180910390f35b6101d360048036038101906101ce9190614b13565b6106bf565b6040516101e09190614bc8565b60405180910390f35b61020360048036038101906101fe9190614b13565b61079c565b6040516102109190614c9f565b60405180910390f35b610233600480360381019061022e9190614eaf565b61083f565b005b61024f600480360381019061024a9190615070565b6108e0565b005b61026b6004803603810190610266919061510c565b610d0f565b6040516102789190614c9f565b60405180910390f35b61029b60048036038101906102969190614b13565b610e26565b6040516102a89190614c9f565b60405180910390f35b6102b9610ec9565b6040516102c69190614afa565b60405180910390f35b6102d7610ede565b005b6102f360048036038101906102ee9190614b13565b610ef1565b6040516103009190615239565b60405180910390f35b610311610fc9565b60405161031e9190615268565b60405180910390f35b610341600480360381019061033c9190614b13565b610ff0565b60405161034e9190614a47565b60405180910390f35b610371600480360381019061036c91906152ab565b611049565b005b61038d60048036038101906103889190614b13565b61105f565b60405161039a9190614afa565b60405180910390f35b6103bd60048036038101906103b89190615465565b6110c1565b005b6103d960048036038101906103d49190614b13565b61125f565b6040516103e69190614afa565b60405180910390f35b61040960048036038101906104049190614b13565b6112c1565b6040516104169190614a47565b60405180910390f35b61043960048036038101906104349190614b13565b61131a565b6040516104469190615239565b60405180910390f35b61046960048036038101906104649190615545565b6113f2565b6040516104769190614afa565b60405180910390f35b61049960048036038101906104949190615583565b611480565b005b6104b560048036038101906104b09190615616565b611521565b005b6104d160048036038101906104cc9190614b13565b6115a3565b6040516104de9190614c9f565b60405180910390f35b61050160048036038101906104fc9190614b13565b611646565b6040516105119493929190615650565b60405180910390f35b5f8073ffffffffffffffffffffffffffffffffffffffff168373ffffffffffffffffffffffffffffffffffffffff1603610589576040517f08c379a000000000000000000000000000000000000000000000000000000000815260040161058090615703565b60405180910390fd5b60015f8381526020019081526020015f205f8473ffffffffffffffffffffffffffffffffffffffff1673ffffffffffffffffffffffffffffffffffffffff1681526020019081526020015f2054905092915050565b5f7fd9b67a26000000000000000000000000000000000000000000000000000000007bffffffffffffffffffffffffffffffffffffffffffffffffffffffff1916827bffffffffffffffffffffffffffffffffffffffffffffffffffffffff191614806106a857507f0e89341c000000000000000000000000000000000000000000000000000000007bffffffffffffffffffffffffffffffffffffffffffffffffffffffff1916827bffffffffffffffffffffffffffffffffffffffffffffffffffffffff1916145b806106b857506106b78261170f565b5b9050919050565b60606106d567738b667a9087ca0460c01b611778565b6106e9675beebd1a1f80464160c01b611778565b6106fd67af28e2d11a4f3a4360c01b611778565b600e5f8381526020019081526020015f2080546107199061574e565b80601f01602080910402602001604051908101604052809291908181526020018280546107459061574e565b80156107905780601f1061076757610100808354040283529160200191610790565b820191905f5260205f20905b81548152906001019060200180831161077357829003601f168201915b50505050509050919050565b60606107b267d66158b3e5e020e360c01b61177b565b6107c667bd95b5778a2bd55060c01b61177b565b6107da677a1c716cd3b9cef160c01b61177b565b60105f8381526020019081526020015f2080548060200260200160405190810160405280929190818152602001828054801561083357602002820191905f5260205f20905b81548152602001906001019080831161081f575b50505050509050919050565b61084761177e565b73ffffffffffffffffffffffffffffffffffffffff168573ffffffffffffffffffffffffffffffffffffffff16148061088d575061088c8561088761177e565b6113f2565b5b6108cc576040517f08c379a00000000000000000000000000000000000000000000000000000000081526004016108c3906157ee565b60405180910390fd5b6108d98585858585611785565b5050505050565b6108f467cfb4c8c4470da68b60c01b61177b565b6108fc611a96565b61091067ef4ccdd4aa0cf6a160c01b61177b565b61092467a3ca558112dab58160c01b61177b565b61092c611b14565b61094067f95e83369657db3a60c01b61177b565b6109546786d9288bbd2dd15660c01b61177b565b61096867d499caeb8356a4ef60c01b61177b565b61097c671fadaba13f151e8160c01b61177b565b610990675f758e6d1f9a8fb860c01b61177b565b60115f8581526020019081526020015f205f9054906101000a900460ff16156109ee576040517f08c379a00000000000000000000000000000000000000000000000000000000081526004016109e59061587c565b60405180910390fd5b610a026754df606ef7d0f33260c01b61177b565b610a1667ceb84efdaa4b55e060c01b61177b565b610a2a67130f936bfef3a2a860c01b61177b565b610a3e67fcfd628b281fcd4860c01b61177b565b5f8360ff1611610a83576040517f08c379a0000000000000000000000000000000000000000000000000000000008152600401610a7a9061590a565b60405180910390fd5b610a9767fb14737364a1b81360c01b61177b565b610aab67664741974ee8e7ed60c01b61177b565b610abf67d91dc263d92d9a0c60c01b61177b565b5f60095f8681526020019081526020015f206040518060e00160405290815f8201548152602001600182015481526020016002820154815260200160038201548152602001600482015f9054906101000a900460ff1660ff1660ff1681526020016004820160019054906101000a900460ff1660ff1660ff1681526020016004820160029054906101000a900460ff1660ff1660ff16815250509050610b6f67d7fe9aa052d8568660c01b61177b565b610b83679bf10551ab3a3bd660c01b61177b565b5f8160a001518260800151610b989190615955565b6064610ba49190615989565b60ff169050610bbd67f711d5fb9da6193860c01b61177b565b610bd167605b0d7c4373b5d160c01b61177b565b610be5674bf1a3ffb1f6c6ec60c01b61177b565b808560ff161115610c2b576040517f08c379a0000000000000000000000000000000000000000000000000000000008152600401610c2290615a2d565b60405180910390fd5b610c3f67acf60d204203ffc960c01b61177b565b610c536797d662984a030b7f60c01b61177b565b610c6767c35b2b7c6545503160c01b61177b565b610c7b6742bda0a31f5806cc60c01b61177b565b8351835114610cbf576040517f08c379a0000000000000000000000000000000000000000000000000000000008152600401610cb690615a95565b60405180910390fd5b610cd36715bc0db15e406cb760c01b61177b565b610ce76737c7e5826ef4b87360c01b61177b565b610cfb676b870d2d6f7d60cf60c01b61177b565b610d0786868686611b5e565b505050505050565b60608151835114610d55576040517f08c379a0000000000000000000000000000000000000000000000000000000008152600401610d4c90615b23565b60405180910390fd5b5f835167ffffffffffffffff811115610d7157610d70614cc3565b5b604051908082528060200260200182016040528015610d9f5781602001602082028036833780820191505090505b5090505f5b8451811015610e1b57610deb858281518110610dc357610dc2615b41565b5b6020026020010151858381518110610dde57610ddd615b41565b5b602002602001015161051a565b828281518110610dfe57610dfd615b41565b5b60200260200101818152505080610e1490615b6e565b9050610da4565b508091505092915050565b6060610e3c674b0e8f8d1923bcd160c01b611778565b610e5067528a1e6d9888fb6e60c01b611778565b610e646774ebdd0b20daad5d60c01b611778565b600a5f8381526020019081526020015f20805480602002602001604051908101604052809291908181526020018280548015610ebd57602002820191905f5260205f20905b815481526020019060010190808311610ea9575b50505050509050919050565b5f8060149054906101000a900460ff16905090565b610ee6611a96565b610eef5f61200a565b565b6060610f07673b85a1c55639091f60c01b611778565b610f1b6756eed40b835823e260c01b611778565b610f2f674a1324130ca01b4c60c01b611778565b60065f8381526020019081526020015f20805480602002602001604051908101604052809291908181526020018280548015610fbd57602002820191905f5260205f20905b815f9054906101000a900473ffffffffffffffffffffffffffffffffffffffff1673ffffffffffffffffffffffffffffffffffffffff1681526020019060010190808311610f74575b50505050509050919050565b5f805f9054906101000a900473ffffffffffffffffffffffffffffffffffffffff16905090565b5f61100567de9343e45496ab3060c01b611778565b61101967078c69ae1450c9b360c01b611778565b61102d6770e22ba32cb8dd6b60c01b611778565b60095f8381526020019081526020015f20600101549050919050565b61105b61105461177e565b83836120cb565b5050565b5f61107467a78e1f1f19dee11960c01b611778565b611088677ac1e6bbe892461460c01b611778565b61109c673024a5821a88480460c01b611778565b60085f8381526020019081526020015f205f9054906101000a900460ff169050919050565b6110d567c2d6b9086afd72b660c01b611778565b6110dd611a96565b6110f16794e9ad33f9b5788860c01b611778565b611105673621bd3213070ab860c01b611778565b61110d611b14565b611121672a580362444d1b1060c01b611778565b61113567845ee4ed0bceff1260c01b611778565b61114967bf08a733c9de392e60c01b611778565b61115d6739c91705194dd7be60c01b611778565b61117167b45091aaf4cc729f60c01b611778565b60085f8a81526020019081526020015f205f9054906101000a900460ff16156111cf576040517f08c379a00000000000000000000000000000000000000000000000000000000081526004016111c690615c25565b60405180910390fd5b6111e367bfb169287991394a60c01b611778565b6111f7674398398ff210e4ab60c01b611778565b61120b67d49b526a5836391160c01b611778565b61121b8888888888888888612232565b61122f6701cdb1669d96b2ce60c01b611778565b611243676e1ab80ba87a3e4b60c01b611778565b61125489898989898989898961273f565b505050505050505050565b5f611274670e6eb32b63a03df360c01b61177b565b6112886786a35b6505343a0960c01b61177b565b61129c671f872b911a5011e160c01b61177b565b60115f8381526020019081526020015f205f9054906101000a900460ff169050919050565b5f6112d6677b3e1f20d527eae860c01b611778565b6112ea6751c95e707f0647e560c01b611778565b6112fe67a881b89cb8f9f2d660c01b611778565b60095f8381526020019081526020015f20600201549050919050565b6060611330679bf2858bd7626ad260c01b61177b565b61134467a36350cc947ff39160c01b61177b565b6113586721570f91a1ddb85860c01b61177b565b600f5f8381526020019081526020015f208054806020026020016040519081016040528092919081815260200182805480156113e657602002820191905f5260205f20905b815f9054906101000a900473ffffffffffffffffffffffffffffffffffffffff1673ffffffffffffffffffffffffffffffffffffffff168152602001906001019080831161139d575b50505050509050919050565b5f60025f8473ffffffffffffffffffffffffffffffffffffffff1673ffffffffffffffffffffffffffffffffffffffff1681526020019081526020015f205f8373ffffffffffffffffffffffffffffffffffffffff1673ffffffffffffffffffffffffffffffffffffffff1681526020019081526020015f205f9054906101000a900460ff16905092915050565b61148861177e565b73ffffffffffffffffffffffffffffffffffffffff168573ffffffffffffffffffffffffffffffffffffffff1614806114ce57506114cd856114c861177e565b6113f2565b5b61150d576040517f08c379a0000000000000000000000000000000000000000000000000000000008152600401611504906157ee565b60405180910390fd5b61151a8585858585612936565b5050505050565b611529611a96565b5f73ffffffffffffffffffffffffffffffffffffffff168173ffffffffffffffffffffffffffffffffffffffff1603611597576040517f08c379a000000000000000000000000000000000000000000000000000000000815260040161158e90615cb3565b60405180910390fd5b6115a08161200a565b50565b60606115b967a6215eae378a619b60c01b611778565b6115cd6747646e33ea8f9d2e60c01b611778565b6115e1672cda19f9ca1bb7b960c01b611778565b60075f8381526020019081526020015f2080548060200260200160405190810160405280929190818152602001828054801561163a57602002820191905f5260205f20905b815481526020019060010190808311611626575b50505050509050919050565b5f805f8061165e67acd14d840b7054b060c01b611778565b61167267ef93d8ee050c795360c01b611778565b61168667254a2554004ea96960c01b611778565b60095f8681526020019081526020015f206003015460095f8781526020019081526020015f206004015f9054906101000a900460ff1660095f8881526020019081526020015f2060040160029054906101000a900460ff1660095f8981526020019081526020015f2060040160019054906101000a900460ff1693509350935093509193509193565b5f7f01ffc9a7000000000000000000000000000000000000000000000000000000007bffffffffffffffffffffffffffffffffffffffffffffffffffffffff1916827bffffffffffffffffffffffffffffffffffffffffffffffffffffffff1916149050919050565b50565b50565b5f33905090565b81518351146117c9576040517f08c379a00000000000000000000000000000000000000000000000000000000081526004016117c090615d41565b60405180910390fd5b5f73ffffffffffffffffffffffffffffffffffffffff168473ffffffffffffffffffffffffffffffffffffffff1603611837576040517f08c379a000000000000000000000000000000000000000000000000000000000815260040161182e90615dcf565b60405180910390fd5b5f61184061177e565b9050611850818787878787612bc2565b5f5b84518110156119f3575f85828151811061186f5761186e615b41565b5b602002602001015190505f85838151811061188d5761188c615b41565b5b602002602001015190505f60015f8481526020019081526020015f205f8b73ffffffffffffffffffffffffffffffffffffffff1673ffffffffffffffffffffffffffffffffffffffff1681526020019081526020015f205490508181101561192a576040517f08c379a000000000000000000000000000000000000000000000000000000000815260040161192190615e5d565b60405180910390fd5b81810360015f8581526020019081526020015f205f8c73ffffffffffffffffffffffffffffffffffffffff1673ffffffffffffffffffffffffffffffffffffffff1681526020019081526020015f20819055508160015f8581526020019081526020015f205f8b73ffffffffffffffffffffffffffffffffffffffff1673ffffffffffffffffffffffffffffffffffffffff1681526020019081526020015f205f8282546119d89190615e7b565b92505081905550505050806119ec90615b6e565b9050611852565b508473ffffffffffffffffffffffffffffffffffffffff168673ffffffffffffffffffffffffffffffffffffffff168273ffffffffffffffffffffffffffffffffffffffff167f4a39dc06d4c0dbc64b70af90fd698a233a518aa5d07e595d983b8c0526c8f7fb8787604051611a6a929190615eae565b60405180910390a4611a80818787878787612bca565b611a8e818787878787612bd2565b505050505050565b611a9e61177e565b73ffffffffffffffffffffffffffffffffffffffff16611abc610fc9565b73ffffffffffffffffffffffffffffffffffffffff1614611b12576040517f08c379a0000000000000000000000000000000000000000000000000000000008152600401611b0990615f2d565b60405180910390fd5b565b611b1c610ec9565b15611b5c576040517f08c379a0000000000000000000000000000000000000000000000000000000008152600401611b5390615f95565b60405180910390fd5b565b611b726711921b58f580e26e60c01b61177b565b611b8667dac7cdab4a8d133e60c01b61177b565b611b9a6762b01d14b3fe498b60c01b61177b565b5f60095f8681526020019081526020015f209050611bc2677c5b2bceb7e2acfb60c01b61177b565b838160040160026101000a81548160ff021916908360ff160217905550611bf367533bf9c37d0b988a60c01b61177b565b611c0767652cd17eb7a0202a60c01b61177b565b5f611c1184612da8565b9050611c276790c152e4b92fc7aa60c01b61177b565b611c3b6781586f0a898de0f960c01b61177b565b5f83519050611c5467a6a0ecddc878f43f60c01b61177b565b611c6867ebb2c6301f3574f560c01b61177b565b5f5b81811015611f4057611c86670eaeb8e1594b741a60c01b61177b565b611c9a67c8c135c23763939460c01b61177b565b5f858281518110611cae57611cad615b41565b5b60200260200101519050611ccc6787939176ec5c68ce60c01b61177b565b611ce067ca904eb40a8a5e8160c01b61177b565b5f611d0e888481518110611cf757611cf6615b41565b5b6020026020010151868b60ff168960010154612ec7565b9050611d2467d272ab39f7ebe03260c01b61177b565b611d386715bb95e89cc0740660c01b61177b565b5f611d4282612fdb565b9050611d5867960ce4cc78d094f560c01b61177b565b611d6c676ba29e2eb5c1e03260c01b61177b565b611e0a83600a5f8e81526020019081526020015f20805480602002602001604051908101604052809291908181526020018280548015611dc957602002820191905f5260205f20905b815481526020019060010190808311611db5575b5050505050836040518060400160405280600481526020017f3078303000000000000000000000000000000000000000000000000000000000815250613167565b611e1e67afc3d419495d802560c01b61177b565b818760020154611e2e9190615e7b565b8760020181905550611e4a679a5ec14ad3f8ace860c01b61177b565b611e5e6746b810f4220f89e760c01b61177b565b600f5f8c81526020019081526020015f2083908060018154018082558091505060019003905f5260205f20015f9091909190916101000a81548173ffffffffffffffffffffffffffffffffffffffff021916908373ffffffffffffffffffffffffffffffffffffffff160217905550611ee16720d6b1425ac26f6a60c01b61177b565b611ef567e8505f32451b4cc860c01b61177b565b60105f8c81526020019081526020015f2082908060018154018082558091505060019003905f5260205f20015f90919091909150555050508080611f3890615b6e565b915050611c6a565b50611f55671d64548f02b1f43460c01b61177b565b611f69677c171f77e704781860c01b61177b565b7f621e1a59d70685f53a28114e1229586ecd6908416f6bfaee0e147c3d34f3984587600f5f8a81526020019081526020015f2060105f8b81526020019081526020015f20604051611fbc93929190616152565b60405180910390a1611fd867f0b6553bda0cc9d160c01b61177b565b600160115f8981526020019081526020015f205f6101000a81548160ff02191690831515021790555050505050505050565b5f805f9054906101000a900473ffffffffffffffffffffffffffffffffffffffff169050815f806101000a81548173ffffffffffffffffffffffffffffffffffffffff021916908373ffffffffffffffffffffffffffffffffffffffff1602179055508173ffffffffffffffffffffffffffffffffffffffff168173ffffffffffffffffffffffffffffffffffffffff167f8be0079c531659141344cd1fd0a4f28419497f9722a3daafe3b4186f6b6457e060405160405180910390a35050565b8173ffffffffffffffffffffffffffffffffffffffff168373ffffffffffffffffffffffffffffffffffffffff1603612139576040517f08c379a000000000000000000000000000000000000000000000000000000000815260040161213090616205565b60405180910390fd5b8060025f8573ffffffffffffffffffffffffffffffffffffffff1673ffffffffffffffffffffffffffffffffffffffff1681526020019081526020015f205f8473ffffffffffffffffffffffffffffffffffffffff1673ffffffffffffffffffffffffffffffffffffffff1681526020019081526020015f205f6101000a81548160ff0219169083151502179055508173ffffffffffffffffffffffffffffffffffffffff168373ffffffffffffffffffffffffffffffffffffffff167f17307eab39ab6107e8899845ad3d59bd9653f200f220920489ca2b5937696c31836040516122259190614afa565b60405180910390a3505050565b612246677c1040b489d8c4bc60c01b611778565b61225a6709fb7b6874720e7460c01b611778565b61226e6741d7c644d6c1137e60c01b611778565b612282677b423b725a31991a60c01b611778565b5f88116122c4576040517f08c379a00000000000000000000000000000000000000000000000000000000081526004016122bb90616293565b60405180910390fd5b6122d8670b4e50dac4514d9d60c01b611778565b6122ec671ae678a1deee0bee60c01b611778565b612300675852be98b37791b860c01b611778565b61231467ae1ae54ea648585460c01b611778565b5f8711612356576040517f08c379a000000000000000000000000000000000000000000000000000000000815260040161234d90616321565b60405180910390fd5b61236a6707f64cd5d8a8a14b60c01b611778565b61237e67c7e7b490dce49f4760c01b611778565b61239267bfd9e3862eb4776060c01b611778565b6123a667ea1c3c4218d2232960c01b611778565b5f86116123e8576040517f08c379a00000000000000000000000000000000000000000000000000000000081526004016123df906163af565b60405180910390fd5b6123fc67dde84d19e3f7778860c01b611778565b61241067987f91efaf68632660c01b611778565b612424671a52cad882febbe560c01b611778565b6124386753843b645b3502c860c01b611778565b5f8560ff161161247d576040517f08c379a00000000000000000000000000000000000000000000000000000000081526004016124749061643d565b60405180910390fd5b61249167fa664f9525e30c8560c01b611778565b6124a567ea7c555c1627c5b460c01b611778565b6124b967075dd45acf7f45b460c01b611778565b6124cd6769ee3657da5a777760c01b611778565b5f8460ff1611612512576040517f08c379a0000000000000000000000000000000000000000000000000000000008152600401612509906164cb565b60405180910390fd5b6125266736979b05c888cc4860c01b611778565b61253a674dd863445411a08360c01b611778565b61254e6762c8bbcf4670b71560c01b611778565b6125626736368329c295060360c01b611778565b5f73ffffffffffffffffffffffffffffffffffffffff168373ffffffffffffffffffffffffffffffffffffffff16036125d0576040517f08c379a00000000000000000000000000000000000000000000000000000000081526004016125c790616559565b60405180910390fd5b6125e46742706690e6df758760c01b611778565b6125f867b7ac7c37d8beec1c60c01b611778565b61260c6736b16238ef581a9060c01b611778565b61262067da2d526aeaabbfb860c01b611778565b5f73ffffffffffffffffffffffffffffffffffffffff168273ffffffffffffffffffffffffffffffffffffffff160361268e576040517f08c379a0000000000000000000000000000000000000000000000000000000008152600401612685906165e7565b60405180910390fd5b6126a267682b6ae52cb5793860c01b611778565b6126b667f81d2d9027c7f4e060c01b611778565b6126ca67282dd1c25857bea260c01b611778565b6126de67d934ebf585d9a65f60c01b611778565b5f815111612721576040517f08c379a000000000000000000000000000000000000000000000000000000000815260040161271890616675565b60405180910390fd5b612735678e5410372587b53560c01b611778565b5050505050505050565b6127536797e22fe287306ce860c01b611778565b6127676740718e5977e2a44b60c01b611778565b61277b67deeb2c8c301154fb60c01b611778565b6127858987613388565b612799672c7af22f7e784dd760c01b611778565b6127ad67860a72ea0645479c60c01b611778565b6127cb8989600b5f8d81526020019081526020015f205488886133ec565b6127df67abc3f5eadc84f3d860c01b611778565b6127f3676f9e021a4bf51efb60c01b611778565b6127fd89826134fb565b61281167319d86bc25e5766360c01b611778565b612825678329589373de574460c01b611778565b612834898660ff168986613843565b61284867c04ccf8b496e238b60c01b611778565b61285c67c1ef19729354386e60c01b611778565b61286b89898660ff168561400c565b61287f67d03ce72e0e171e8460c01b611778565b612893679bf6fa4a2bfb7d8860c01b611778565b7fb79a1263d65160537b9075e0e4747a6007a82fb191be4435b4c508c431920b898960065f8c81526020019081526020015f2060075f8d81526020019081526020015f206040516128e693929190616152565b60405180910390a161290267d369b1ae4aaf4d5c60c01b611778565b600160085f8b81526020019081526020015f205f6101000a81548160ff021916908315150217905550505050505050505050565b5f73ffffffffffffffffffffffffffffffffffffffff168473ffffffffffffffffffffffffffffffffffffffff16036129a4576040517f08c379a000000000000000000000000000000000000000000000000000000000815260040161299b90615dcf565b60405180910390fd5b5f6129ad61177e565b90505f6129b9856142c2565b90505f6129c5856142c2565b90506129d5838989858589612bc2565b5f60015f8881526020019081526020015f205f8a73ffffffffffffffffffffffffffffffffffffffff1673ffffffffffffffffffffffffffffffffffffffff1681526020019081526020015f2054905085811015612a68576040517f08c379a0000000000000000000000000000000000000000000000000000000008152600401612a5f90615e5d565b60405180910390fd5b85810360015f8981526020019081526020015f205f8b73ffffffffffffffffffffffffffffffffffffffff1673ffffffffffffffffffffffffffffffffffffffff1681526020019081526020015f20819055508560015f8981526020019081526020015f205f8a73ffffffffffffffffffffffffffffffffffffffff1673ffffffffffffffffffffffffffffffffffffffff1681526020019081526020015f205f828254612b169190615e7b565b925050819055508773ffffffffffffffffffffffffffffffffffffffff168973ffffffffffffffffffffffffffffffffffffffff168573ffffffffffffffffffffffffffffffffffffffff167fc3d58168c5ae7397731d063d5bbf3d657854427343f4c083240f7aacaa2d0f628a8a604051612b93929190616693565b60405180910390a4612ba9848a8a86868a612bca565b612bb7848a8a8a8a8a61433a565b505050505050505050565b505050505050565b505050505050565b612bf18473ffffffffffffffffffffffffffffffffffffffff16614510565b15612da0578373ffffffffffffffffffffffffffffffffffffffff1663bc197c8187878686866040518663ffffffff1660e01b8152600401612c3795949392919061670c565b6020604051808303815f875af1925050508015612c7257506040513d601f19601f82011682018060405250810190612c6f9190616786565b60015b612d1757612c7e6167bd565b806308c379a003612cda5750612c926167dc565b80612c9d5750612cdc565b806040517f08c379a0000000000000000000000000000000000000000000000000000000008152600401612cd19190614bc8565b60405180910390fd5b505b6040517f08c379a0000000000000000000000000000000000000000000000000000000008152600401612d0e906168db565b60405180910390fd5b63bc197c8160e01b7bffffffffffffffffffffffffffffffffffffffffffffffffffffffff1916817bffffffffffffffffffffffffffffffffffffffffffffffffffffffff191614612d9e576040517f08c379a0000000000000000000000000000000000000000000000000000000008152600401612d9590616969565b60405180910390fd5b505b505050505050565b5f612dbd67aab39f32f9f049ab60c01b61177b565b612dd167887dde395f1d522e60c01b61177b565b612de5674caa06e818c245c160c01b61177b565b5f82519050612dfe67ed549561336349ec60c01b61177b565b612e12671296c055a742b59860c01b61177b565b5f612e2767cbd325f4ff70088460c01b61177b565b612e3b67b3e48c32bad79f0260c01b61177b565b5f5b82811015612e9457612e5967aa564919c913c37660c01b61177b565b848181518110612e6c57612e6b615b41565b5b602002602001015182612e7f9190615e7b565b91508080612e8c90615b6e565b915050612e3d565b50612ea9674cd240c926a7be1560c01b61177b565b612ebd67b9c58cd24731482960c01b61177b565b8092505050919050565b5f612edc67276e6cb7a530e94b60c01b611778565b612ef067663de160f090798260c01b611778565b612f0467433410f45949930a60c01b611778565b5f84866064612f139190616987565b612f1d91906169f5565b9050612f3367330c7c59b7cb51e560c01b611778565b612f47673d651bdab7a6a8f760c01b611778565b5f60648585612f569190616987565b612f6091906169f5565b9050612f7667b2b60710ca0e015d60c01b611778565b612f8a67d6c15e650901c43b60c01b611778565b5f60648383612f999190616987565b612fa391906169f5565b9050612fb967091901f25bd1c47f60c01b611778565b612fcd67584588b65adebafc60c01b611778565b809350505050949350505050565b6060612ff167dfa48286744d8f7660c01b611778565b61300567c46ad85b656cd16860c01b611778565b613019677216d8d68dda844960c01b611778565b5f600267ffffffffffffffff81111561303557613034614cc3565b5b6040519080825280602002602001820160405280156130635781602001602082028036833780820191505090505b50905061307a674f9272e1bc8bdb7e60c01b611778565b61308e67397009edf5258c6960c01b611778565b5f606460328561309e9190616987565b6130a891906169f5565b90506130be677ae974f859447d3860c01b611778565b80825f815181106130d2576130d1615b41565b5b6020026020010181815250506130f2670bfd8c9ebc971e9160c01b611778565b80846130fe9190616a25565b935061311467c2487208f02e5b7d60c01b611778565b838260018151811061312957613128615b41565b5b60200260200101818152505061314967b471c7639203569360c01b611778565b61315d67c88c99ee34baa7e260c01b611778565b8192505050919050565b5f73ffffffffffffffffffffffffffffffffffffffff168473ffffffffffffffffffffffffffffffffffffffff16036131d5576040517f08c379a00000000000000000000000000000000000000000000000000000000081526004016131cc90616ac8565b60405180910390fd5b8151835114613219576040517f08c379a000000000000000000000000000000000000000000000000000000000815260040161321090615d41565b60405180910390fd5b5f61322261177e565b9050613232815f87878787612bc2565b5f5b84518110156132e6578381815181106132505761324f615b41565b5b602002602001015160015f87848151811061326e5761326d615b41565b5b602002602001015181526020019081526020015f205f8873ffffffffffffffffffffffffffffffffffffffff1673ffffffffffffffffffffffffffffffffffffffff1681526020019081526020015f205f8282546132cc9190615e7b565b9250508190555080806132de90615b6e565b915050613234565b508473ffffffffffffffffffffffffffffffffffffffff165f73ffffffffffffffffffffffffffffffffffffffff168273ffffffffffffffffffffffffffffffffffffffff167f4a39dc06d4c0dbc64b70af90fd698a233a518aa5d07e595d983b8c0526c8f7fb878760405161335d929190615eae565b60405180910390a4613373815f87878787612bca565b613381815f87878787612bd2565b5050505050565b61339c6795d810699789d02660c01b611778565b6133b06713c89eb54e90a7fa60c01b611778565b42816133bc9190615e7b565b90506133d2670538d94f7b882e3e60c01b611778565b80600b5f8481526020019081526020015f20819055505050565b613400674c29204f2887057860c01b611778565b613414678468081c1b1357ac60c01b611778565b613428676e3ef9774a73e81360c01b611778565b5f60095f8781526020019081526020015f2090506134506792491d56385ecc7c60c01b611778565b85815f018190555061346c67671c0c4d2fe650b160c01b611778565b84816001018190555061348967659d0174fa4f0bff60c01b611778565b8381600301819055506134a667cdbe933b2af6fb5960c01b611778565b82816004015f6101000a81548160ff021916908360ff1602179055506134d66755bc71e6e7ae880b60c01b611778565b818160040160016101000a81548160ff021916908360ff160217905550505050505050565b61350f6723a1143aabdc8dbf60c01b611778565b613523671c4fadc21c9a16a260c01b611778565b61353767cab08564ce9e7e9a60c01b611778565b5f600267ffffffffffffffff81111561355357613552614cc3565b5b6040519080825280602002602001820160405280156135815781602001602082028036833780820191505090505b509050613598672886f1eb74b2daa260c01b611778565b7f4c4f434b45440000000000000000000000000000000000000000000000000000815f815181106135cc576135cb615b41565b5b6020026020010181815250506135ec6707c35272e207b50160c01b611778565b7f54524144454400000000000000000000000000000000000000000000000000008160018151811061362157613620615b41565b5b602002602001018181525050613641674a0d05ec507fb2d260c01b611778565b61365567984913895d1ff70f60c01b611778565b5f5b81518160ff16101561383d576136776722604be50b9f041660c01b611778565b61368b67a6f1c1f3f7bd99ce60c01b611778565b6005828260ff16815181106136a3576136a2615b41565b5b6020026020010151908060018154018082558091505060019003905f5260205f20015f90919091909150556136e267cda8f5d3e2f487d460c01b611778565b6136f667aebe2a23261a44c960c01b611778565b5f60016005805490506137099190616a25565b905061371f67ce7e659afee2fd0960c01b611778565b61373367fbc6b03b75f5137360c01b611778565b600a5f8681526020019081526020015f2081908060018154018082558091505060019003905f5260205f20015f909190919091505561377c67c9a103043bcc7b8360c01b611778565b828260ff168151811061379257613791615b41565b5b6020026020010151600d5f8381526020019081526020015f20819055506137c3671b6a37f959dc428460c01b611778565b84600c5f8381526020019081526020015f20819055506137ed679a0b07648b2b751060c01b611778565b838260ff168151811061380357613802615b41565b5b6020026020010151600e5f8381526020019081526020015f2090816138289190616c83565b5050808061383590616d52565b915050613657565b50505050565b6138576791ebf62c0998828060c01b611778565b61386b674027c85802a7ec6f60c01b611778565b61387f673292f22b29e3e13960c01b611778565b5f60045f9054906101000a900473ffffffffffffffffffffffffffffffffffffffff1673ffffffffffffffffffffffffffffffffffffffff1663c9187fe7866040518263ffffffff1660e01b81526004016138da9190614a47565b5f60405180830381865afa1580156138f4573d5f803e3d5ffd5b505050506040513d5f823e3d601f19601f8201168201806040525081019061391c9190616ec6565b9050613932672e395931805b912360c01b611778565b61394667584a79cf25f6ffa160c01b611778565b5f61395086614532565b90506139666749fd754833b329c860c01b611778565b61397a67ef9e355a2508b68b60c01b611778565b5f60095f8881526020019081526020015f2090506139a26774921bc0b184a2ab60c01b611778565b84826139ae9190615e7b565b91506139c46733dcf64edbe3045860c01b611778565b6139d867b1fd9cdd613809dc60c01b611778565b5f60045f9054906101000a900473ffffffffffffffffffffffffffffffffffffffff1673ffffffffffffffffffffffffffffffffffffffff166384ffeca5896040518263ffffffff1660e01b8152600401613a339190614a47565b602060405180830381865afa158015613a4e573d5f803e3d5ffd5b505050506040513d601f19601f82011682018060405250810190613a729190616f21565b9050613a88672fddcd765c8c3ad960c01b611778565b613a9c6798163f36f092930e60c01b611778565b5f5b81811015613ea357613aba678fe8f4d30402328560c01b611778565b613ace67b21755b43570590b60c01b611778565b5f60045f9054906101000a900473ffffffffffffffffffffffffffffffffffffffff1673ffffffffffffffffffffffffffffffffffffffff166359a96ffe878481518110613b1f57613b1e615b41565b5b60200260200101516040518263ffffffff1660e01b8152600401613b439190616f4c565b602060405180830381865afa158015613b5e573d5f803e3d5ffd5b505050506040513d601f19601f82011682018060405250810190613b829190616f80565b9050613b98677f4706c2f467027060c01b611778565b613bac677a03b4ce36669adc60c01b611778565b5f613c7160045f9054906101000a900473ffffffffffffffffffffffffffffffffffffffff1673ffffffffffffffffffffffffffffffffffffffff16630e47cefa898681518110613c0057613bff615b41565b5b60200260200101518e6040518363ffffffff1660e01b8152600401613c26929190616fab565b602060405180830381865afa158015613c41573d5f803e3d5ffd5b505050506040513d601f19601f82011682018060405250810190613c659190616f21565b878c8860010154612ec7565b9050613c876792aa9b72430d24e360c01b611778565b613c9b67f9ccfcc82c13a16360c01b611778565b5f613ca582612fdb565b9050613cbb67a3673a6118727ba760c01b611778565b613ccf67ed6acc35e994de7260c01b611778565b613d6d83600a5f8f81526020019081526020015f20805480602002602001604051908101604052809291908181526020018280548015613d2c57602002820191905f5260205f20905b815481526020019060010190808311613d18575b5050505050836040518060400160405280600481526020017f3078303000000000000000000000000000000000000000000000000000000000815250613167565b613d8167841cbd88491e871360c01b611778565b818660020154613d919190615e7b565b8660020181905550613dad67dce291d7e010780b60c01b611778565b613dc1670bb7a6e407efc47660c01b611778565b60065f8d81526020019081526020015f2083908060018154018082558091505060019003905f5260205f20015f9091909190916101000a81548173ffffffffffffffffffffffffffffffffffffffff021916908373ffffffffffffffffffffffffffffffffffffffff160217905550613e446757aa5249488aa45960c01b611778565b613e58674c743fd509e13ca260c01b611778565b60075f8d81526020019081526020015f2082908060018154018082558091505060019003905f5260205f20015f90919091909150555050508080613e9b90615b6e565b915050613a9e565b50613eb8671cd8bc8308ca09a860c01b611778565b613ecc67e1d00c6ecef3e63660c01b611778565b5f613edf8988868b87600101548b6147e0565b9050613ef56717d03e45f5f4711a60c01b611778565b808360020154613f059190615e7b565b8360020181905550613f21670ca5aa0b5928e3a760c01b611778565b613f3567af293111d99b85f060c01b611778565b60065f8a81526020019081526020015f2086908060018154018082558091505060019003905f5260205f20015f9091909190916101000a81548173ffffffffffffffffffffffffffffffffffffffff021916908373ffffffffffffffffffffffffffffffffffffffff160217905550613fb867737010027b8cc44960c01b611778565b613fcc674ce0dec13bc3579160c01b611778565b60075f8a81526020019081526020015f2081908060018154018082558091505060019003905f5260205f20015f9091909190915055505050505050505050565b61402067a280eebeed42d79c60c01b611778565b61403467b89870c028d633d260c01b611778565b61404867efc7430a0cf44b0d60c01b611778565b5f60095f8681526020019081526020015f209050614070672618d4ee2346949b60c01b611778565b61408467c7b765deef0d18fe60c01b611778565b5f606484866140939190616987565b61409d91906169f5565b90506140b3679811dc976b1c36f160c01b611778565b8082600201546140c39190615e7b565b82600201819055506140df67ab8aed532df2d76b60c01b611778565b6140f367bba17983cdabd13360c01b611778565b5f6140fd82612fdb565b905061411367e7524e6bb510413060c01b611778565b6141276717ecefd70aa16eab60c01b611778565b60065f8881526020019081526020015f2084908060018154018082558091505060019003905f5260205f20015f9091909190916101000a81548173ffffffffffffffffffffffffffffffffffffffff021916908373ffffffffffffffffffffffffffffffffffffffff1602179055506141aa67bafb3e51f464f8c660c01b611778565b6141be67dc33db0eb21ed9a060c01b611778565b60075f8881526020019081526020015f2082908060018154018082558091505060019003905f5260205f20015f909190919091505561420767661787d79f638ca760c01b611778565b61421b67f29e927760c91b4660c01b611778565b6142b984600a5f8a81526020019081526020015f2080548060200260200160405190810160405280929190818152602001828054801561427857602002820191905f5260205f20905b815481526020019060010190808311614264575b5050505050836040518060400160405280600481526020017f3078303000000000000000000000000000000000000000000000000000000000815250613167565b50505050505050565b60605f600167ffffffffffffffff8111156142e0576142df614cc3565b5b60405190808252806020026020018201604052801561430e5781602001602082028036833780820191505090505b50905082815f8151811061432557614324615b41565b5b60200260200101818152505080915050919050565b6143598473ffffffffffffffffffffffffffffffffffffffff16614510565b15614508578373ffffffffffffffffffffffffffffffffffffffff1663f23a6e6187878686866040518663ffffffff1660e01b815260040161439f959493929190616fd9565b6020604051808303815f875af19250505080156143da57506040513d601f19601f820116820180604052508101906143d79190616786565b60015b61447f576143e66167bd565b806308c379a00361444257506143fa6167dc565b806144055750614444565b806040517f08c379a00000000000000000000000000000000000000000000000000000000081526004016144399190614bc8565b60405180910390fd5b505b6040517f08c379a0000000000000000000000000000000000000000000000000000000008152600401614476906168db565b60405180910390fd5b63f23a6e6160e01b7bffffffffffffffffffffffffffffffffffffffffffffffffffffffff1916817bffffffffffffffffffffffffffffffffffffffffffffffffffffffff191614614506576040517f08c379a00000000000000000000000000000000000000000000000000000000081526004016144fd90616969565b60405180910390fd5b505b505050505050565b5f808273ffffffffffffffffffffffffffffffffffffffff163b119050919050565b5f614547677052205b98ca125960c01b611778565b61455b6786208709abf5bb9960c01b611778565b61456f674a524ba9e578aed560c01b611778565b5f60045f9054906101000a900473ffffffffffffffffffffffffffffffffffffffff1673ffffffffffffffffffffffffffffffffffffffff1663c9187fe7846040518263ffffffff1660e01b81526004016145ca9190614a47565b5f60405180830381865afa1580156145e4573d5f803e3d5ffd5b505050506040513d5f823e3d601f19601f8201168201806040525081019061460c9190616ec6565b9050614622675f8a21eb0406262860c01b611778565b61463667a889e1f5f41711fd60c01b611778565b5f61464b67e683444f23e6b69060c01b611778565b61465f67164ea45f6885c7da60c01b611778565b5f8251905061467867280eb10e9a4788dc60c01b611778565b61468c67b0f0eb068548dd0b60c01b611778565b5f5b818110156147ac576146aa674dcdc93d427b393b60c01b611778565b6146be67dc0d4903f60c679c60c01b611778565b5f60045f9054906101000a900473ffffffffffffffffffffffffffffffffffffffff1673ffffffffffffffffffffffffffffffffffffffff16630e47cefa86848151811061470f5761470e615b41565b5b6020026020010151896040518363ffffffff1660e01b8152600401614735929190616fab565b602060405180830381865afa158015614750573d5f803e3d5ffd5b505050506040513d601f19601f820116820180604052508101906147749190616f21565b905061478a67394c1c981265dfc360c01b611778565b80846147969190615e7b565b93505080806147a490615b6e565b91505061468e565b506147c167c92669fdf108cc6660c01b611778565b6147d567aa3daad0320177c160c01b611778565b819350505050919050565b5f6147f567ee28653b3a46f48c60c01b611778565b61480967f83095505e1071c960c01b611778565b61481d67836d83570f0cd3a660c01b611778565b5f61482a87878787612ec7565b905061484067be97bdc86a34d4c960c01b611778565b61485366fa7258db33e83660c01b611778565b5f61485d82612fdb565b905061487367132444359128480360c01b611778565b61488767815d296fbc8b093960c01b611778565b61492584600a5f8c81526020019081526020015f208054806020026020016040519081016040528092919081815260200182805480156148e457602002820191905f5260205f20905b8154815260200190600101908083116148d0575b5050505050836040518060400160405280600481526020017f3078303000000000000000000000000000000000000000000000000000000000815250613167565b614939670a27e4cbcfee6d1b60c01b611778565b61494d67864422b3f98b08ae60c01b611778565b81925050509695505050505050565b5f604051905090565b5f80fd5b5f80fd5b5f73ffffffffffffffffffffffffffffffffffffffff82169050919050565b5f6149968261496d565b9050919050565b6149a68161498c565b81146149b0575f80fd5b50565b5f813590506149c18161499d565b92915050565b5f819050919050565b6149d9816149c7565b81146149e3575f80fd5b50565b5f813590506149f4816149d0565b92915050565b5f8060408385031215614a1057614a0f614965565b5b5f614a1d858286016149b3565b9250506020614a2e858286016149e6565b9150509250929050565b614a41816149c7565b82525050565b5f602082019050614a5a5f830184614a38565b92915050565b5f7fffffffff0000000000000000000000000000000000000000000000000000000082169050919050565b614a9481614a60565b8114614a9e575f80fd5b50565b5f81359050614aaf81614a8b565b92915050565b5f60208284031215614aca57614ac9614965565b5b5f614ad784828501614aa1565b91505092915050565b5f8115159050919050565b614af481614ae0565b82525050565b5f602082019050614b0d5f830184614aeb565b92915050565b5f60208284031215614b2857614b27614965565b5b5f614b35848285016149e6565b91505092915050565b5f81519050919050565b5f82825260208201905092915050565b5f5b83811015614b75578082015181840152602081019050614b5a565b5f8484015250505050565b5f601f19601f8301169050919050565b5f614b9a82614b3e565b614ba48185614b48565b9350614bb4818560208601614b58565b614bbd81614b80565b840191505092915050565b5f6020820190508181035f830152614be08184614b90565b905092915050565b5f81519050919050565b5f82825260208201905092915050565b5f819050602082019050919050565b614c1a816149c7565b82525050565b5f614c2b8383614c11565b60208301905092915050565b5f602082019050919050565b5f614c4d82614be8565b614c578185614bf2565b9350614c6283614c02565b805f5b83811015614c92578151614c798882614c20565b9750614c8483614c37565b925050600181019050614c65565b5085935050505092915050565b5f6020820190508181035f830152614cb78184614c43565b905092915050565b5f80fd5b7f4e487b71000000000000000000000000000000000000000000000000000000005f52604160045260245ffd5b614cf982614b80565b810181811067ffffffffffffffff82111715614d1857614d17614cc3565b5b80604052505050565b5f614d2a61495c565b9050614d368282614cf0565b919050565b5f67ffffffffffffffff821115614d5557614d54614cc3565b5b602082029050602081019050919050565b5f80fd5b5f614d7c614d7784614d3b565b614d21565b90508083825260208201905060208402830185811115614d9f57614d9e614d66565b5b835b81811015614dc85780614db488826149e6565b845260208401935050602081019050614da1565b5050509392505050565b5f82601f830112614de657614de5614cbf565b5b8135614df6848260208601614d6a565b91505092915050565b5f80fd5b5f67ffffffffffffffff821115614e1d57614e1c614cc3565b5b614e2682614b80565b9050602081019050919050565b828183375f83830152505050565b5f614e53614e4e84614e03565b614d21565b905082815260208101848484011115614e6f57614e6e614dff565b5b614e7a848285614e33565b509392505050565b5f82601f830112614e9657614e95614cbf565b5b8135614ea6848260208601614e41565b91505092915050565b5f805f805f60a08688031215614ec857614ec7614965565b5b5f614ed5888289016149b3565b9550506020614ee6888289016149b3565b945050604086013567ffffffffffffffff811115614f0757614f06614969565b5b614f1388828901614dd2565b935050606086013567ffffffffffffffff811115614f3457614f33614969565b5b614f4088828901614dd2565b925050608086013567ffffffffffffffff811115614f6157614f60614969565b5b614f6d88828901614e82565b9150509295509295909350565b5f60ff82169050919050565b614f8f81614f7a565b8114614f99575f80fd5b50565b5f81359050614faa81614f86565b92915050565b5f67ffffffffffffffff821115614fca57614fc9614cc3565b5b602082029050602081019050919050565b5f614fed614fe884614fb0565b614d21565b905080838252602082019050602084028301858111156150105761500f614d66565b5b835b81811015615039578061502588826149b3565b845260208401935050602081019050615012565b5050509392505050565b5f82601f83011261505757615056614cbf565b5b8135615067848260208601614fdb565b91505092915050565b5f805f806080858703121561508857615087614965565b5b5f615095878288016149e6565b94505060206150a687828801614f9c565b935050604085013567ffffffffffffffff8111156150c7576150c6614969565b5b6150d387828801614dd2565b925050606085013567ffffffffffffffff8111156150f4576150f3614969565b5b61510087828801615043565b91505092959194509250565b5f806040838503121561512257615121614965565b5b5f83013567ffffffffffffffff81111561513f5761513e614969565b5b61514b85828601615043565b925050602083013567ffffffffffffffff81111561516c5761516b614969565b5b61517885828601614dd2565b9150509250929050565b5f81519050919050565b5f82825260208201905092915050565b5f819050602082019050919050565b6151b48161498c565b82525050565b5f6151c583836151ab565b60208301905092915050565b5f602082019050919050565b5f6151e782615182565b6151f1818561518c565b93506151fc8361519c565b805f5b8381101561522c57815161521388826151ba565b975061521e836151d1565b9250506001810190506151ff565b5085935050505092915050565b5f6020820190508181035f83015261525181846151dd565b905092915050565b6152628161498c565b82525050565b5f60208201905061527b5f830184615259565b92915050565b61528a81614ae0565b8114615294575f80fd5b50565b5f813590506152a581615281565b92915050565b5f80604083850312156152c1576152c0614965565b5b5f6152ce858286016149b3565b92505060206152df85828601615297565b9150509250929050565b5f67ffffffffffffffff82111561530357615302614cc3565b5b602082029050602081019050919050565b5f67ffffffffffffffff82111561532e5761532d614cc3565b5b61533782614b80565b9050602081019050919050565b5f61535661535184615314565b614d21565b90508281526020810184848401111561537257615371614dff565b5b61537d848285614e33565b509392505050565b5f82601f83011261539957615398614cbf565b5b81356153a9848260208601615344565b91505092915050565b5f6153c46153bf846152e9565b614d21565b905080838252602082019050602084028301858111156153e7576153e6614d66565b5b835b8181101561542e57803567ffffffffffffffff81111561540c5761540b614cbf565b5b8086016154198982615385565b855260208501945050506020810190506153e9565b5050509392505050565b5f82601f83011261544c5761544b614cbf565b5b813561545c8482602086016153b2565b91505092915050565b5f805f805f805f805f6101208a8c03121561548357615482614965565b5b5f6154908c828d016149e6565b99505060206154a18c828d016149e6565b98505060406154b28c828d016149e6565b97505060606154c38c828d016149e6565b96505060806154d48c828d01614f9c565b95505060a06154e58c828d01614f9c565b94505060c06154f68c828d016149b3565b93505060e06155078c828d016149b3565b9250506101008a013567ffffffffffffffff81111561552957615528614969565b5b6155358c828d01615438565b9150509295985092959850929598565b5f806040838503121561555b5761555a614965565b5b5f615568858286016149b3565b9250506020615579858286016149b3565b9150509250929050565b5f805f805f60a0868803121561559c5761559b614965565b5b5f6155a9888289016149b3565b95505060206155ba888289016149b3565b94505060406155cb888289016149e6565b93505060606155dc888289016149e6565b925050608086013567ffffffffffffffff8111156155fd576155fc614969565b5b61560988828901614e82565b9150509295509295909350565b5f6020828403121561562b5761562a614965565b5b5f615638848285016149b3565b91505092915050565b61564a81614f7a565b82525050565b5f6080820190506156635f830187614a38565b6156706020830186615641565b61567d6040830185615641565b61568a6060830184615641565b95945050505050565b7f455243313135353a2061646472657373207a65726f206973206e6f74206120765f8201527f616c6964206f776e657200000000000000000000000000000000000000000000602082015250565b5f6156ed602a83614b48565b91506156f882615693565b604082019050919050565b5f6020820190508181035f83015261571a816156e1565b9050919050565b7f4e487b71000000000000000000000000000000000000000000000000000000005f52602260045260245ffd5b5f600282049050600182168061576557607f821691505b60208210810361577857615777615721565b5b50919050565b7f455243313135353a2063616c6c6572206973206e6f7420746f6b656e206f776e5f8201527f6572206f7220617070726f766564000000000000000000000000000000000000602082015250565b5f6157d8602e83614b48565b91506157e38261577e565b604082019050919050565b5f6020820190508181035f830152615805816157cc565b9050919050565b7f52454a5556453a204675747572652073686172647320646973747269627574655f8201527f6420616c72656164790000000000000000000000000000000000000000000000602082015250565b5f615866602983614b48565b91506158718261580c565b604082019050919050565b5f6020820190508181035f8301526158938161585a565b9050919050565b7f52454a5556453a204675747572652070657263656e742063616e6e6f742062655f8201527f207a65726f000000000000000000000000000000000000000000000000000000602082015250565b5f6158f4602583614b48565b91506158ff8261589a565b604082019050919050565b5f6020820190508181035f830152615921816158e8565b9050919050565b7f4e487b71000000000000000000000000000000000000000000000000000000005f52601160045260245ffd5b5f61595f82614f7a565b915061596a83614f7a565b9250828201905060ff81111561598357615982615928565b5b92915050565b5f61599382614f7a565b915061599e83614f7a565b9250828203905060ff8111156159b7576159b6615928565b5b92915050565b7f52454a5556453a204675747572652070657263656e74206578636565647320615f8201527f7661696c61626c65206c696d6974000000000000000000000000000000000000602082015250565b5f615a17602e83614b48565b9150615a22826159bd565b604082019050919050565b5f6020820190508181035f830152615a4481615a0b565b9050919050565b7f52454a5556453a204e6f7420657175616c206c656e67746800000000000000005f82015250565b5f615a7f601883614b48565b9150615a8a82615a4b565b602082019050919050565b5f6020820190508181035f830152615aac81615a73565b9050919050565b7f455243313135353a206163636f756e747320616e6420696473206c656e6774685f8201527f206d69736d617463680000000000000000000000000000000000000000000000602082015250565b5f615b0d602983614b48565b9150615b1882615ab3565b604082019050919050565b5f6020820190508181035f830152615b3a81615b01565b9050919050565b7f4e487b71000000000000000000000000000000000000000000000000000000005f52603260045260245ffd5b5f615b78826149c7565b91507fffffffffffffffffffffffffffffffffffffffffffffffffffffffffffffffff8203615baa57615ba9615928565b5b600182019050919050565b7f52454a5556453a20496e697469616c20736861726473206469737472696275745f8201527f656420616c726561647900000000000000000000000000000000000000000000602082015250565b5f615c0f602a83614b48565b9150615c1a82615bb5565b604082019050919050565b5f6020820190508181035f830152615c3c81615c03565b9050919050565b7f4f776e61626c653a206e6577206f776e657220697320746865207a65726f20615f8201527f6464726573730000000000000000000000000000000000000000000000000000602082015250565b5f615c9d602683614b48565b9150615ca882615c43565b604082019050919050565b5f6020820190508181035f830152615cca81615c91565b9050919050565b7f455243313135353a2069647320616e6420616d6f756e7473206c656e677468205f8201527f6d69736d61746368000000000000000000000000000000000000000000000000602082015250565b5f615d2b602883614b48565b9150615d3682615cd1565b604082019050919050565b5f6020820190508181035f830152615d5881615d1f565b9050919050565b7f455243313135353a207472616e7366657220746f20746865207a65726f2061645f8201527f6472657373000000000000000000000000000000000000000000000000000000602082015250565b5f615db9602583614b48565b9150615dc482615d5f565b604082019050919050565b5f6020820190508181035f830152615de681615dad565b9050919050565b7f455243313135353a20696e73756666696369656e742062616c616e636520666f5f8201527f72207472616e7366657200000000000000000000000000000000000000000000602082015250565b5f615e47602a83614b48565b9150615e5282615ded565b604082019050919050565b5f6020820190508181035f830152615e7481615e3b565b9050919050565b5f615e85826149c7565b9150615e90836149c7565b9250828201905080821115615ea857615ea7615928565b5b92915050565b5f6040820190508181035f830152615ec68185614c43565b90508181036020830152615eda8184614c43565b90509392505050565b7f4f776e61626c653a2063616c6c6572206973206e6f7420746865206f776e65725f82015250565b5f615f17602083614b48565b9150615f2282615ee3565b602082019050919050565b5f6020820190508181035f830152615f4481615f0b565b9050919050565b7f5061757361626c653a20706175736564000000000000000000000000000000005f82015250565b5f615f7f601083614b48565b9150615f8a82615f4b565b602082019050919050565b5f6020820190508181035f830152615fac81615f73565b9050919050565b5f81549050919050565b5f819050815f5260205f209050919050565b5f815f1c9050919050565b5f73ffffffffffffffffffffffffffffffffffffffff82169050919050565b5f61600b61600683615fcf565b615fda565b9050919050565b5f61601d8254615ff9565b9050919050565b5f600182019050919050565b5f61603a82615fb3565b616044818561518c565b935061604f83615fbd565b805f5b838110156160865761606382616012565b61606d88826151ba565b975061607883616024565b925050600181019050616052565b5085935050505092915050565b5f81549050919050565b5f819050815f5260205f209050919050565b5f819050919050565b5f6160ca6160c583615fcf565b6160af565b9050919050565b5f6160dc82546160b8565b9050919050565b5f600182019050919050565b5f6160f982616093565b6161038185614bf2565b935061610e8361609d565b805f5b8381101561614557616122826160d1565b61612c8882614c20565b9750616137836160e3565b925050600181019050616111565b5085935050505092915050565b5f6060820190506161655f830186614a38565b81810360208301526161778185616030565b9050818103604083015261618b81846160ef565b9050949350505050565b7f455243313135353a2073657474696e6720617070726f76616c207374617475735f8201527f20666f722073656c660000000000000000000000000000000000000000000000602082015250565b5f6161ef602983614b48565b91506161fa82616195565b604082019050919050565b5f6020820190508181035f83015261621c816161e3565b9050919050565b7f52454a5556453a2054617267657420737570706c792063616e6e6f74206265205f8201527f7a65726f00000000000000000000000000000000000000000000000000000000602082015250565b5f61627d602483614b48565b915061628882616223565b604082019050919050565b5f6020820190508181035f8301526162aa81616271565b9050919050565b7f52454a5556453a204c6162206372656469742063616e6e6f74206265207a65725f8201527f6f00000000000000000000000000000000000000000000000000000000000000602082015250565b5f61630b602183614b48565b9150616316826162b1565b604082019050919050565b5f6020820190508181035f830152616338816162ff565b9050919050565b7f52454a5556453a204c6f636b20706572696f642063616e6e6f74206265207a655f8201527f726f000000000000000000000000000000000000000000000000000000000000602082015250565b5f616399602283614b48565b91506163a48261633f565b604082019050919050565b5f6020820190508181035f8301526163c68161638d565b9050919050565b7f52454a5556453a20496e697469616c2070657263656e742063616e6e6f7420625f8201527f65207a65726f0000000000000000000000000000000000000000000000000000602082015250565b5f616427602683614b48565b9150616432826163cd565b604082019050919050565b5f6020820190508181035f8301526164548161641b565b9050919050565b7f52454a5556453a2052656a7576652070657263656e742063616e6e6f742062655f8201527f207a65726f000000000000000000000000000000000000000000000000000000602082015250565b5f6164b5602583614b48565b91506164c08261645b565b604082019050919050565b5f6020820190508181035f8301526164e2816164a9565b9050919050565b7f52454a5556453a204c616220616464726573732063616e6e6f74206265207a655f8201527f726f000000000000000000000000000000000000000000000000000000000000602082015250565b5f616543602283614b48565b915061654e826164e9565b604082019050919050565b5f6020820190508181035f83015261657081616537565b9050919050565b7f52454a5556453a2052656a75766520616464726573732063616e6e6f742062655f8201527f207a65726f000000000000000000000000000000000000000000000000000000602082015250565b5f6165d1602583614b48565b91506165dc82616577565b604082019050919050565b5f6020820190508181035f8301526165fe816165c5565b9050919050565b7f52454a5556453a2055524973206c656e6774682063616e6e6f74206265207a655f8201527f726f000000000000000000000000000000000000000000000000000000000000602082015250565b5f61665f602283614b48565b915061666a82616605565b604082019050919050565b5f6020820190508181035f83015261668c81616653565b9050919050565b5f6040820190506166a65f830185614a38565b6166b36020830184614a38565b9392505050565b5f81519050919050565b5f82825260208201905092915050565b5f6166de826166ba565b6166e881856166c4565b93506166f8818560208601614b58565b61670181614b80565b840191505092915050565b5f60a08201905061671f5f830188615259565b61672c6020830187615259565b818103604083015261673e8186614c43565b905081810360608301526167528185614c43565b9050818103608083015261676681846166d4565b90509695505050505050565b5f8151905061678081614a8b565b92915050565b5f6020828403121561679b5761679a614965565b5b5f6167a884828501616772565b91505092915050565b5f8160e01c9050919050565b5f60033d11156167d95760045f803e6167d65f516167b1565b90505b90565b5f60443d10616868576167ed61495c565b60043d036004823e80513d602482011167ffffffffffffffff82111715616815575050616868565b808201805167ffffffffffffffff8111156168335750505050616868565b80602083010160043d038501811115616850575050505050616868565b61685f82602001850186614cf0565b82955050505050505b90565b7f455243313135353a207472616e7366657220746f206e6f6e2d455243313135355f8201527f526563656976657220696d706c656d656e746572000000000000000000000000602082015250565b5f6168c5603483614b48565b91506168d08261686b565b604082019050919050565b5f6020820190508181035f8301526168f2816168b9565b9050919050565b7f455243313135353a204552433131353552656365697665722072656a656374655f8201527f6420746f6b656e73000000000000000000000000000000000000000000000000602082015250565b5f616953602883614b48565b915061695e826168f9565b604082019050919050565b5f6020820190508181035f83015261698081616947565b9050919050565b5f616991826149c7565b915061699c836149c7565b92508282026169aa816149c7565b915082820484148315176169c1576169c0615928565b5b5092915050565b7f4e487b71000000000000000000000000000000000000000000000000000000005f52601260045260245ffd5b5f6169ff826149c7565b9150616a0a836149c7565b925082616a1a57616a196169c8565b5b828204905092915050565b5f616a2f826149c7565b9150616a3a836149c7565b9250828203905081811115616a5257616a51615928565b5b92915050565b7f455243313135353a206d696e7420746f20746865207a65726f206164647265735f8201527f7300000000000000000000000000000000000000000000000000000000000000602082015250565b5f616ab2602183614b48565b9150616abd82616a58565b604082019050919050565b5f6020820190508181035f830152616adf81616aa6565b9050919050565b5f819050815f5260205f209050919050565b5f6020601f8301049050919050565b5f82821b905092915050565b5f60088302616b427fffffffffffffffffffffffffffffffffffffffffffffffffffffffffffffffff82616b07565b616b4c8683616b07565b95508019841693508086168417925050509392505050565b5f819050919050565b5f616b87616b82616b7d846149c7565b616b64565b6149c7565b9050919050565b5f819050919050565b616ba083616b6d565b616bb4616bac82616b8e565b848454616b13565b825550505050565b5f90565b616bc8616bbc565b616bd3818484616b97565b505050565b5b81811015616bf657616beb5f82616bc0565b600181019050616bd9565b5050565b601f821115616c3b57616c0c81616ae6565b616c1584616af8565b81016020851015616c24578190505b616c38616c3085616af8565b830182616bd8565b50505b505050565b5f82821c905092915050565b5f616c5b5f1984600802616c40565b1980831691505092915050565b5f616c738383616c4c565b9150826002028217905092915050565b616c8c82614b3e565b67ffffffffffffffff811115616ca557616ca4614cc3565b5b616caf825461574e565b616cba828285616bfa565b5f60209050601f831160018114616ceb575f8415616cd9578287015190505b616ce38582616c68565b865550616d4a565b601f198416616cf986616ae6565b5f5b82811015616d2057848901518255600182019150602085019450602081019050616cfb565b86831015616d3d5784890151616d39601f891682616c4c565b8355505b6001600288020188555050505b505050505050565b5f616d5c82614f7a565b915060ff8203616d6f57616d6e615928565b5b600182019050919050565b5f67ffffffffffffffff821115616d9457616d93614cc3565b5b602082029050602081019050919050565b5f616db7616db284614e03565b614d21565b905082815260208101848484011115616dd357616dd2614dff565b5b616dde848285614b58565b509392505050565b5f82601f830112616dfa57616df9614cbf565b5b8151616e0a848260208601616da5565b91505092915050565b5f616e25616e2084616d7a565b614d21565b90508083825260208201905060208402830185811115616e4857616e47614d66565b5b835b81811015616e8f57805167ffffffffffffffff811115616e6d57616e6c614cbf565b5b808601616e7a8982616de6565b85526020850194505050602081019050616e4a565b5050509392505050565b5f82601f830112616ead57616eac614cbf565b5b8151616ebd848260208601616e13565b91505092915050565b5f60208284031215616edb57616eda614965565b5b5f82015167ffffffffffffffff811115616ef857616ef7614969565b5b616f0484828501616e99565b91505092915050565b5f81519050616f1b816149d0565b92915050565b5f60208284031215616f3657616f35614965565b5b5f616f4384828501616f0d565b91505092915050565b5f6020820190508181035f830152616f6481846166d4565b905092915050565b5f81519050616f7a8161499d565b92915050565b5f60208284031215616f9557616f94614965565b5b5f616fa284828501616f6c565b91505092915050565b5f6040820190508181035f830152616fc381856166d4565b9050616fd26020830184614a38565b9392505050565b5f60a082019050616fec5f830188615259565b616ff96020830187615259565b6170066040830186614a38565b6170136060830185614a38565b818103608083015261702581846166d4565b9050969550505050505056fea26469706673582212201d1c200c8b218726ecd143d713d18fe97858fa98129197d01af3e3e3dd62262a64736f6c63430008140033",
  "linkReferences": {},
  "deployedLinkReferences": {}
}