{
  "_format": "hh-sol-artifact-1",
  "contractName": "FutureShards",
  "sourceName": "contracts/FutureShards.sol",
  "abi": [
    {
      "inputs": [
        {
          "internalType": "string",
          "name": "uri_",
          "type": "string"
        },
        {
          "internalType": "address",
          "name": "productNFT_",
          "type": "address"
        }
      ],
      "stateMutability": "nonpayable",
      "type": "constructor"
    },
    {
      "anonymous": false,
      "inputs": [
        {
          "indexed": true,
          "internalType": "address",
          "name": "account",
          "type": "address"
        },
        {
          "indexed": true,
          "internalType": "address",
          "name": "operator",
          "type": "address"
        },
        {
          "indexed": false,
          "internalType": "bool",
          "name": "approved",
          "type": "bool"
        }
      ],
      "name": "ApprovalForAll",
      "type": "event"
    },
    {
      "anonymous": false,
      "inputs": [
        {
          "indexed": false,
          "internalType": "uint256",
          "name": "productUID",
          "type": "uint256"
        },
        {
          "indexed": false,
          "internalType": "address[]",
          "name": "dataOwners",
          "type": "address[]"
        },
        {
          "indexed": false,
          "internalType": "uint256[]",
          "name": "shardAmount",
          "type": "uint256[]"
        }
      ],
      "name": "FutureShardDistributed",
      "type": "event"
    },
    {
      "anonymous": false,
      "inputs": [
        {
          "indexed": false,
          "internalType": "uint256",
          "name": "productUID",
          "type": "uint256"
        },
        {
          "indexed": false,
          "internalType": "address[]",
          "name": "dataOwners",
          "type": "address[]"
        },
        {
          "indexed": false,
          "internalType": "uint256[]",
          "name": "shardAmount",
          "type": "uint256[]"
        }
      ],
      "name": "InitialShardDistributed",
      "type": "event"
    },
    {
      "anonymous": false,
      "inputs": [
        {
          "indexed": true,
          "internalType": "address",
          "name": "previousOwner",
          "type": "address"
        },
        {
          "indexed": true,
          "internalType": "address",
          "name": "newOwner",
          "type": "address"
        }
      ],
      "name": "OwnershipTransferred",
      "type": "event"
    },
    {
      "anonymous": false,
      "inputs": [
        {
          "indexed": false,
          "internalType": "address",
          "name": "account",
          "type": "address"
        }
      ],
      "name": "Paused",
      "type": "event"
    },
    {
      "anonymous": false,
      "inputs": [
        {
          "indexed": false,
          "internalType": "uint256",
          "name": "productUID",
          "type": "uint256"
        },
        {
          "indexed": false,
          "internalType": "address",
          "name": "rejuve",
          "type": "address"
        },
        {
          "indexed": false,
          "internalType": "uint256",
          "name": "shardAmount",
          "type": "uint256"
        }
      ],
      "name": "RemainingShardAssigned",
      "type": "event"
    },
    {
      "anonymous": false,
      "inputs": [
        {
          "indexed": true,
          "internalType": "address",
          "name": "operator",
          "type": "address"
        },
        {
          "indexed": true,
          "internalType": "address",
          "name": "from",
          "type": "address"
        },
        {
          "indexed": true,
          "internalType": "address",
          "name": "to",
          "type": "address"
        },
        {
          "indexed": false,
          "internalType": "uint256[]",
          "name": "ids",
          "type": "uint256[]"
        },
        {
          "indexed": false,
          "internalType": "uint256[]",
          "name": "values",
          "type": "uint256[]"
        }
      ],
      "name": "TransferBatch",
      "type": "event"
    },
    {
      "anonymous": false,
      "inputs": [
        {
          "indexed": true,
          "internalType": "address",
          "name": "operator",
          "type": "address"
        },
        {
          "indexed": true,
          "internalType": "address",
          "name": "from",
          "type": "address"
        },
        {
          "indexed": true,
          "internalType": "address",
          "name": "to",
          "type": "address"
        },
        {
          "indexed": false,
          "internalType": "uint256",
          "name": "id",
          "type": "uint256"
        },
        {
          "indexed": false,
          "internalType": "uint256",
          "name": "value",
          "type": "uint256"
        }
      ],
      "name": "TransferSingle",
      "type": "event"
    },
    {
      "anonymous": false,
      "inputs": [
        {
          "indexed": false,
          "internalType": "string",
          "name": "value",
          "type": "string"
        },
        {
          "indexed": true,
          "internalType": "uint256",
          "name": "id",
          "type": "uint256"
        }
      ],
      "name": "URI",
      "type": "event"
    },
    {
      "anonymous": false,
      "inputs": [
        {
          "indexed": false,
          "internalType": "address",
          "name": "account",
          "type": "address"
        }
      ],
      "name": "Unpaused",
      "type": "event"
    },
    {
      "inputs": [
        {
          "internalType": "address",
          "name": "account",
          "type": "address"
        },
        {
          "internalType": "uint256",
          "name": "id",
          "type": "uint256"
        }
      ],
      "name": "balanceOf",
      "outputs": [
        {
          "internalType": "uint256",
          "name": "",
          "type": "uint256"
        }
      ],
      "stateMutability": "view",
      "type": "function"
    },
    {
      "inputs": [
        {
          "internalType": "address[]",
          "name": "accounts",
          "type": "address[]"
        },
        {
          "internalType": "uint256[]",
          "name": "ids",
          "type": "uint256[]"
        }
      ],
      "name": "balanceOfBatch",
      "outputs": [
        {
          "internalType": "uint256[]",
          "name": "",
          "type": "uint256[]"
        }
      ],
      "stateMutability": "view",
      "type": "function"
    },
    {
      "inputs": [
        {
          "internalType": "uint256",
          "name": "_productUID",
          "type": "uint256"
        },
        {
          "internalType": "uint8",
          "name": "_futurePercent",
          "type": "uint8"
        },
        {
          "internalType": "uint256[]",
          "name": "_credits",
          "type": "uint256[]"
        },
        {
          "internalType": "address[]",
          "name": "_futureContributors",
          "type": "address[]"
        }
      ],
      "name": "distributeFutureShards",
      "outputs": [],
      "stateMutability": "nonpayable",
      "type": "function"
    },
    {
      "inputs": [
        {
          "internalType": "uint256",
          "name": "_productUID",
          "type": "uint256"
        },
        {
          "internalType": "uint256",
          "name": "_targetSupply",
          "type": "uint256"
        },
        {
          "internalType": "uint256",
          "name": "_labCredit",
          "type": "uint256"
        },
        {
          "internalType": "uint256",
          "name": "_lockPeriod",
          "type": "uint256"
        },
        {
          "internalType": "uint8",
          "name": "_initialPercent",
          "type": "uint8"
        },
        {
          "internalType": "uint8",
          "name": "_rejuvePercent",
          "type": "uint8"
        },
        {
          "internalType": "address",
          "name": "_lab",
          "type": "address"
        },
        {
          "internalType": "address",
          "name": "_rejuve",
          "type": "address"
        },
        {
          "internalType": "string[]",
          "name": "_uris",
          "type": "string[]"
        }
      ],
      "name": "distributeInitialShards",
      "outputs": [],
      "stateMutability": "nonpayable",
      "type": "function"
    },
    {
      "inputs": [
        {
          "internalType": "uint256",
          "name": "_productUID",
          "type": "uint256"
        }
      ],
      "name": "getShardsConfig",
      "outputs": [
        {
          "internalType": "uint256",
          "name": "",
          "type": "uint256"
        },
        {
          "internalType": "uint8",
          "name": "",
          "type": "uint8"
        },
        {
          "internalType": "uint8",
          "name": "",
          "type": "uint8"
        },
        {
          "internalType": "uint8",
          "name": "",
          "type": "uint8"
        }
      ],
      "stateMutability": "view",
      "type": "function"
    },
    {
      "inputs": [
        {
          "internalType": "address",
          "name": "account",
          "type": "address"
        },
        {
          "internalType": "address",
          "name": "operator",
          "type": "address"
        }
      ],
      "name": "isApprovedForAll",
      "outputs": [
        {
          "internalType": "bool",
          "name": "",
          "type": "bool"
        }
      ],
      "stateMutability": "view",
      "type": "function"
    },
    {
      "inputs": [
        {
          "internalType": "uint256",
          "name": "_productUID",
          "type": "uint256"
        },
        {
          "internalType": "address",
          "name": "_holder",
          "type": "address"
        }
      ],
      "name": "mintRemainingShards",
      "outputs": [],
      "stateMutability": "nonpayable",
      "type": "function"
    },
    {
      "inputs": [],
      "name": "owner",
      "outputs": [
        {
          "internalType": "address",
          "name": "",
          "type": "address"
        }
      ],
      "stateMutability": "view",
      "type": "function"
    },
    {
      "inputs": [],
      "name": "paused",
      "outputs": [
        {
          "internalType": "bool",
          "name": "",
          "type": "bool"
        }
      ],
      "stateMutability": "view",
      "type": "function"
    },
    {
      "inputs": [],
      "name": "renounceOwnership",
      "outputs": [],
      "stateMutability": "nonpayable",
      "type": "function"
    },
    {
      "inputs": [
        {
          "internalType": "address",
          "name": "from",
          "type": "address"
        },
        {
          "internalType": "address",
          "name": "to",
          "type": "address"
        },
        {
          "internalType": "uint256[]",
          "name": "ids",
          "type": "uint256[]"
        },
        {
          "internalType": "uint256[]",
          "name": "amounts",
          "type": "uint256[]"
        },
        {
          "internalType": "bytes",
          "name": "data",
          "type": "bytes"
        }
      ],
      "name": "safeBatchTransferFrom",
      "outputs": [],
      "stateMutability": "nonpayable",
      "type": "function"
    },
    {
      "inputs": [
        {
          "internalType": "address",
          "name": "from",
          "type": "address"
        },
        {
          "internalType": "address",
          "name": "to",
          "type": "address"
        },
        {
          "internalType": "uint256",
          "name": "id",
          "type": "uint256"
        },
        {
          "internalType": "uint256",
          "name": "amount",
          "type": "uint256"
        },
        {
          "internalType": "bytes",
          "name": "data",
          "type": "bytes"
        }
      ],
      "name": "safeTransferFrom",
      "outputs": [],
      "stateMutability": "nonpayable",
      "type": "function"
    },
    {
      "inputs": [
        {
          "internalType": "address",
          "name": "operator",
          "type": "address"
        },
        {
          "internalType": "bool",
          "name": "approved",
          "type": "bool"
        }
      ],
      "name": "setApprovalForAll",
      "outputs": [],
      "stateMutability": "nonpayable",
      "type": "function"
    },
    {
      "inputs": [
        {
          "internalType": "bytes4",
          "name": "interfaceId",
          "type": "bytes4"
        }
      ],
      "name": "supportsInterface",
      "outputs": [
        {
          "internalType": "bool",
          "name": "",
          "type": "bool"
        }
      ],
      "stateMutability": "view",
      "type": "function"
    },
    {
      "inputs": [
        {
          "internalType": "uint256",
          "name": "_productUID",
          "type": "uint256"
        }
      ],
      "name": "targetSupply",
      "outputs": [
        {
          "internalType": "uint256",
          "name": "",
          "type": "uint256"
        }
      ],
      "stateMutability": "view",
      "type": "function"
    },
    {
      "inputs": [
        {
          "internalType": "uint256",
          "name": "_productUID",
          "type": "uint256"
        }
      ],
      "name": "totalShardSupply",
      "outputs": [
        {
          "internalType": "uint256",
          "name": "",
          "type": "uint256"
        }
      ],
      "stateMutability": "view",
      "type": "function"
    },
    {
      "inputs": [
        {
          "internalType": "address",
          "name": "newOwner",
          "type": "address"
        }
      ],
      "name": "transferOwnership",
      "outputs": [],
      "stateMutability": "nonpayable",
      "type": "function"
    },
    {
      "inputs": [
        {
          "internalType": "uint256",
          "name": "_id",
          "type": "uint256"
        }
      ],
      "name": "uri",
      "outputs": [
        {
          "internalType": "string",
          "name": "",
          "type": "string"
        }
      ],
      "stateMutability": "view",
      "type": "function"
    }
  ],
  "bytecode": "0x60806040523480156200001157600080fd5b50604051620033a1380380620033a183398101604081905262000034916200011a565b818181620000423362000085565b6000805460ff60a01b191690556200005a81620000d5565b50600480546001600160a01b0319166001600160a01b0392909216919091179055506200035d915050565b600080546001600160a01b038381166001600160a01b0319831681178455604051919092169283917f8be0079c531659141344cd1fd0a4f28419497f9722a3daafe3b4186f6b6457e09190a35050565b6003620000e3828262000291565b5050565b634e487b7160e01b600052604160045260246000fd5b80516001600160a01b03811681146200011557600080fd5b919050565b600080604083850312156200012e57600080fd5b82516001600160401b03808211156200014657600080fd5b818501915085601f8301126200015b57600080fd5b815181811115620001705762000170620000e7565b604051601f8201601f19908116603f011681019083821181831017156200019b576200019b620000e7565b81604052828152602093508884848701011115620001b857600080fd5b600091505b82821015620001dc5784820184015181830185015290830190620001bd565b6000848483010152809650505050620001f7818601620000fd565b925050509250929050565b600181811c908216806200021757607f821691505b6020821081036200023857634e487b7160e01b600052602260045260246000fd5b50919050565b601f8211156200028c57600081815260208120601f850160051c81016020861015620002675750805b601f850160051c820191505b81811015620002885782815560010162000273565b5050505b505050565b81516001600160401b03811115620002ad57620002ad620000e7565b620002c581620002be845462000202565b846200023e565b602080601f831160018114620002fd5760008415620002e45750858301515b600019600386901b1c1916600185901b17855562000288565b600085815260208120601f198616915b828110156200032e578886015182559484019460019091019084016200030d565b50858210156200034d5787850151600019600388901b60f8161c191681555b5050505050600190811b01905550565b613034806200036d6000396000f3fe608060405234801561001057600080fd5b50600436106101155760003560e01c80638da5cb5b116100a2578063d6e0dbda11610071578063d6e0dbda1461025c578063e985e9c51461027f578063f242432a146102bb578063f2fde38b146102ce578063fac795c0146102e157600080fd5b80638da5cb5b146101f8578063936906f114610213578063a22cb46514610236578063d429c7581461024957600080fd5b80632eb2c2d6116100e95780632eb2c2d6146101985780634567db03146101ab5780634e1273f4146101be5780635c975abb146101de578063715018a6146101f057600080fd5b8062fdd58e1461011a57806301ffc9a7146101405780630e89341c1461016357806325d845db14610183575b600080fd5b61012d610128366004612170565b61034e565b6040519081526020015b60405180910390f35b61015361014e3660046121b2565b6103e9565b6040519015158152602001610137565b6101766101713660046121d6565b610439565b604051610137919061223f565b610196610191366004612252565b6104db565b005b6101966101a63660046123e5565b6104f9565b6101966101b9366004612517565b610545565b6101d16101cc366004612594565b610567565b6040516101379190612632565b600054600160a01b900460ff16610153565b610196610690565b6000546040516001600160a01b039091168152602001610137565b61012d6102213660046121d6565b60009081526009602052604090206001015490565b610196610244366004612645565b6106a4565b610196610257366004612678565b6106af565b61012d61026a3660046121d6565b60009081526009602052604090206002015490565b61015361028d3660046127d3565b6001600160a01b03918216600090815260026020908152604080832093909416825291909152205460ff1690565b6101966102c9366004612801565b6106db565b6101966102dc366004612869565b610720565b6103256102ef3660046121d6565b6000818152600960205260409020600381015460049091015460ff80821691620100008104821691610100909104169193509193565b6040805194855260ff938416602086015291831691840191909152166060820152608001610137565b60006001600160a01b0383166103be5760405162461bcd60e51b815260206004820152602a60248201527f455243313135353a2061646472657373207a65726f206973206e6f742061207660448201526930b634b21037bbb732b960b11b60648201526084015b60405180910390fd5b5060008181526001602090815260408083206001600160a01b03861684529091529020545b92915050565b60006001600160e01b03198216636cdb3d1360e11b148061041a57506001600160e01b031982166303a24d0760e21b145b806103e357506301ffc9a760e01b6001600160e01b03198316146103e3565b6000818152600e6020526040902080546060919061045690612886565b80601f016020809104026020016040519081016040528092919081815260200182805461048290612886565b80156104cf5780601f106104a4576101008083540402835291602001916104cf565b820191906000526020600020905b8154815290600101906020018083116104b257829003601f168201915b50505050509050919050565b6104e3610799565b6104eb6107f3565b6104f58282610840565b5050565b6001600160a01b0385163314806105155750610515853361028d565b6105315760405162461bcd60e51b81526004016103b5906128c0565b61053e8585858585610a3b565b5050505050565b61054d610799565b6105556107f3565b61056184848484610bda565b50505050565b606081518351146105cc5760405162461bcd60e51b815260206004820152602960248201527f455243313135353a206163636f756e747320616e6420696473206c656e677468604482015268040dad2e6dac2e8c6d60bb1b60648201526084016103b5565b600083516001600160401b038111156105e7576105e7612282565b604051908082528060200260200182016040528015610610578160200160208202803683370190505b50905060005b84518110156106885761065b8582815181106106345761063461290e565b602002602001015185838151811061064e5761064e61290e565b602002602001015161034e565b82828151811061066d5761066d61290e565b60209081029190910101526106818161293a565b9050610616565b509392505050565b610698610799565b6106a26000610e5f565b565b6104f5338383610eaf565b6106b7610799565b6106bf6107f3565b6106d0898989898989898989610f8f565b505050505050505050565b6001600160a01b0385163314806106f757506106f7853361028d565b6107135760405162461bcd60e51b81526004016103b5906128c0565b61053e8585858585611035565b610728610799565b6001600160a01b03811661078d5760405162461bcd60e51b815260206004820152602660248201527f4f776e61626c653a206e6577206f776e657220697320746865207a65726f206160448201526564647265737360d01b60648201526084016103b5565b61079681610e5f565b50565b6000546001600160a01b031633146106a25760405162461bcd60e51b815260206004820181905260248201527f4f776e61626c653a2063616c6c6572206973206e6f7420746865206f776e657260448201526064016103b5565b600054600160a01b900460ff16156106a25760405162461bcd60e51b815260206004820152601060248201526f14185d5cd8589b194e881c185d5cd95960821b60448201526064016103b5565b60085460ff168015610854575060105460ff165b6108c65760405162461bcd60e51b815260206004820152603860248201527f52454a5556453a2043616e6e6f74206d696e74206265666f726520696e69746960448201527f616c20262066757475726520646973747269627574696f6e000000000000000060648201526084016103b5565b6000828152600960205260408120600281015460018201549192916108eb9190612953565b90508060000361093d5760405162461bcd60e51b815260206004820152601a60248201527f52454a5556453a204e6f20736861726420617661696c61626c6500000000000060448201526064016103b5565b80826002015461094d9190612966565b6002830155600061095d82611158565b905060005b81518110156109ea576000868152600a6020526040902080546109d8918791849081106109915761099161290e565b90600052602060002001548484815181106109ae576109ae61290e565b6020026020010151604051806040016040528060048152602001630307830360e41b8152506111e9565b806109e28161293a565b915050610962565b50604080518681526001600160a01b03861660208201529081018390527ffadbf7e144501599e9af4378b9f7ace20f5f3f72e8b225a8a713e092cf7bd2319060600160405180910390a15050505050565b8151835114610a5c5760405162461bcd60e51b81526004016103b590612979565b6001600160a01b038416610a825760405162461bcd60e51b81526004016103b5906129c1565b3360005b8451811015610b6c576000858281518110610aa357610aa361290e565b602002602001015190506000858381518110610ac157610ac161290e565b60209081029190910181015160008481526001835260408082206001600160a01b038e168352909352919091205490915081811015610b125760405162461bcd60e51b81526004016103b590612a06565b60008381526001602090815260408083206001600160a01b038e8116855292528083208585039055908b16825281208054849290610b51908490612966565b9250508190555050505080610b659061293a565b9050610a86565b50846001600160a01b0316866001600160a01b0316826001600160a01b03167f4a39dc06d4c0dbc64b70af90fd698a233a518aa5d07e595d983b8c0526c8f7fb8787604051610bbc929190612a50565b60405180910390a4610bd28187878787876112c5565b505050505050565b8151815114610c2b5760405162461bcd60e51b815260206004820152601860248201527f52454a5556453a204e6f7420657175616c206c656e677468000000000000000060448201526064016103b5565b8260ff16600003610c955760405162461bcd60e51b815260206004820152602e60248201527f52454a5556453a204675747572652070657263656e746167652073686172652060448201526d63616e6e6f74206265207a65726f60901b60648201526084016103b5565b600084815260096020526040812060048101805462ff000019166201000060ff88160217905590610cc584611420565b905060005b8351811015610e0d576000610d01868381518110610cea57610cea61290e565b6020026020010151848960ff16876001015461146f565b90506000610d0e82611158565b9050610db2868481518110610d2557610d2561290e565b6020026020010151600a60008c8152602001908152602001600020805480602002602001604051908101604052809291908181526020018280548015610d8a57602002820191906000526020600020905b815481526020019060010190808311610d76575b505050505083604051806040016040528060048152602001630307830360e41b8152506114c8565b818560020154610dc29190612966565b600286015550600f80546001810182556000919091527f8d1108e10bcb7c27dddfc02ed9d693a074039d026cf4ea4240b40f7d581ac802015580610e058161293a565b915050610cca565b507f621e1a59d70685f53a28114e1229586ecd6908416f6bfaee0e147c3d34f398458684600f604051610e4293929190612ab3565b60405180910390a150506010805460ff1916600117905550505050565b600080546001600160a01b038381166001600160a01b0319831681178455604051919092169283917f8be0079c531659141344cd1fd0a4f28419497f9722a3daafe3b4186f6b6457e09190a35050565b816001600160a01b0316836001600160a01b031603610f225760405162461bcd60e51b815260206004820152602960248201527f455243313135353a2073657474696e6720617070726f76616c20737461747573604482015268103337b91039b2b63360b91b60648201526084016103b5565b6001600160a01b03838116600081815260026020908152604080832094871680845294825291829020805460ff191686151590811790915591519182527f17307eab39ab6107e8899845ad3d59bd9653f200f220920489ca2b5937696c31910160405180910390a3505050565b610f998987611614565b6000898152600b6020526040902054610fb7908a908a90888861168f565b610fc1898261179a565b610fd189898760ff168a8761196c565b610fe08989848760ff16611d99565b7fb79a1263d65160537b9075e0e4747a6007a82fb191be4435b4c508c431920b89896006600760405161101593929190612b11565b60405180910390a150506008805460ff1916600117905550505050505050565b6001600160a01b03841661105b5760405162461bcd60e51b81526004016103b5906129c1565b33600061106785611eaf565b9050600061107485611eaf565b905060008681526001602090815260408083206001600160a01b038c168452909152902054858110156110b95760405162461bcd60e51b81526004016103b590612a06565b60008781526001602090815260408083206001600160a01b038d8116855292528083208985039055908a168252812080548892906110f8908490612966565b909155505060408051888152602081018890526001600160a01b03808b16928c821692918816917fc3d58168c5ae7397731d063d5bbf3d657854427343f4c083240f7aacaa2d0f62910160405180910390a46106d0848a8a8a8a8a611efa565b604080516002808252606080830184529260009291906020830190803683370190505090506000606461118c856032612b60565b6111969190612b77565b905080826000815181106111ac576111ac61290e565b60209081029190910101526111c18185612953565b935083826001815181106111d7576111d761290e565b60209081029190910101525092915050565b6001600160a01b03841661120f5760405162461bcd60e51b81526004016103b590612b99565b33600061121b85611eaf565b9050600061122885611eaf565b905060008681526001602090815260408083206001600160a01b038b1684529091528120805487929061125c908490612966565b909155505060408051878152602081018790526001600160a01b03808a1692600092918716917fc3d58168c5ae7397731d063d5bbf3d657854427343f4c083240f7aacaa2d0f62910160405180910390a46112bc83600089898989611efa565b50505050505050565b6001600160a01b0384163b15610bd25760405163bc197c8160e01b81526001600160a01b0385169063bc197c81906113099089908990889088908890600401612bda565b6020604051808303816000875af1925050508015611344575060408051601f3d908101601f1916820190925261134191810190612c2c565b60015b6113f057611350612c49565b806308c379a0036113895750611364612c65565b8061136f575061138b565b8060405162461bcd60e51b81526004016103b5919061223f565b505b60405162461bcd60e51b815260206004820152603460248201527f455243313135353a207472616e7366657220746f206e6f6e2d455243313135356044820152732932b1b2b4bb32b91034b6b83632b6b2b73a32b960611b60648201526084016103b5565b6001600160e01b0319811663bc197c8160e01b146112bc5760405162461bcd60e51b81526004016103b590612cee565b60008060005b8351811015611468578381815181106114415761144161290e565b6020026020010151826114549190612966565b9150806114608161293a565b915050611426565b5092915050565b6000808461147e876064612b60565b6114889190612b77565b9050600060646114988686612b60565b6114a29190612b77565b9050600060646114b28484612b60565b6114bc9190612b77565b98975050505050505050565b6001600160a01b0384166114ee5760405162461bcd60e51b81526004016103b590612b99565b815183511461150f5760405162461bcd60e51b81526004016103b590612979565b3360005b84518110156115ac5783818151811061152e5761152e61290e565b60200260200101516001600087848151811061154c5761154c61290e565b602002602001015181526020019081526020016000206000886001600160a01b03166001600160a01b0316815260200190815260200160002060008282546115949190612966565b909155508190506115a48161293a565b915050611513565b50846001600160a01b031660006001600160a01b0316826001600160a01b03167f4a39dc06d4c0dbc64b70af90fd698a233a518aa5d07e595d983b8c0526c8f7fb87876040516115fd929190612a50565b60405180910390a461053e816000878787876112c5565b8060000361166f5760405162461bcd60e51b815260206004820152602260248201527f52454a5556453a204c6f636b20706572696f642063616e6e6f74206265207a65604482015261726f60f01b60648201526084016103b5565b6116794282612966565b6000928352600b60205260409092209190915550565b836000036116e95760405162461bcd60e51b815260206004820152602160248201527f52454a5556453a2054617267657420737570706c792063616e6e6f74206265206044820152600360fc1b60648201526084016103b5565b8160ff166000036117555760405162461bcd60e51b815260206004820152603060248201527f52454a5556453a20496e697469616c20636f6e7472696275746f72732070657260448201526f063656e742063616e6e6f7420626520360841b60648201526084016103b5565b6000858152600960205260409020948555600185019390935560038401919091556004909201805460ff93841661ffff19909116176101009390921692909202179055565b60408051600280825260608201909252600091816020015b60608152602001906001900390816117b2579050509050604051806040016040528060068152602001651313d0d2d15160d21b815250816000815181106117fb576117fb61290e565b60200260200101819052506040518060400160405280600681526020016515149051115160d21b815250816001815181106118385761183861290e565b602002602001018190525060005b81518160ff161015610561576005828260ff16815181106118695761186961290e565b602090810291909101810151825460018101845560009384529190922001906118929082612d81565b506005546000906118a590600190612953565b6000868152600a60209081526040822080546001810182559083529120018190558351909150839060ff84169081106118e0576118e061290e565b6020026020010151600d600083815260200190815260200160002090816119079190612d81565b506000818152600c602052604090208590558351849060ff84169081106119305761193061290e565b6020026020010151600e600083815260200190815260200160002090816119579190612d81565b5050808061196490612e40565b915050611846565b6004805460405163c9187fe760e01b81529182018790526000916001600160a01b039091169063c9187fe790602401600060405180830381865afa1580156119b8573d6000803e3d6000fd5b505050506040513d6000823e601f3d908101601f191682016040526119e09190810190612e5f565b905060006119ed87611fb5565b6000888152600960205260409020909150611a088583612966565b915060005b600480546040516384ffeca560e01b81529182018b90526001600160a01b0316906384ffeca590602401602060405180830381865afa158015611a54573d6000803e3d6000fd5b505050506040513d601f19601f82011682018060405250810190611a789190612f61565b811015611ce35760045484516000916001600160a01b0316906359a96ffe90879085908110611aa957611aa961290e565b60200260200101516040518263ffffffff1660e01b8152600401611acd919061223f565b602060405180830381865afa158015611aea573d6000803e3d6000fd5b505050506040513d601f19601f82011682018060405250810190611b0e9190612f7a565b6004548651919250600091611bae916001600160a01b031690630e47cefa90899087908110611b3f57611b3f61290e565b60200260200101518e6040518363ffffffff1660e01b8152600401611b65929190612f97565b602060405180830381865afa158015611b82573d6000803e3d6000fd5b505050506040513d601f19601f82011682018060405250810190611ba69190612f61565b868b8d61146f565b90506000611bbb82611158565b60008d8152600a60209081526040918290208054835181840281018401909452808452939450611c3d93879392830182828015610d8a5760200282019190600052602060002090815481526020019060010190808311610d7657505050505083604051806040016040528060048152602001630307830360e41b8152506114c8565b818560020154611c4d9190612966565b6002860155506006805460018082019092557ff652222313e28459528d920b65115c16c04f3efc82aaedc97be59f3f377c0d3f0180546001600160a01b0319166001600160a01b0394909416939093179092556007805492830181556000527fa66cc928b5edb82af9bd49922954155ab7b0942694bea4ce44661d9a8736c6889091015580611cdb8161293a565b915050611a0d565b506000611cf4898688868b8d6120eb565b9050808260020154611d069190612966565b6002909201919091556006805460018181019092557ff652222313e28459528d920b65115c16c04f3efc82aaedc97be59f3f377c0d3f0180546001600160a01b039096166001600160a01b0319909616959095179094556007805494850181556000527fa66cc928b5edb82af9bd49922954155ab7b0942694bea4ce44661d9a8736c68890930192909255505050505050565b6000848152600960205260408120906064611db48487612b60565b611dbe9190612b77565b9050808260020154611dd09190612966565b60028301556000611de082611158565b905060005b8151811015611e26576000888152600a602052604090208054611e14918891849081106109915761099161290e565b80611e1e8161293a565b915050611de5565b50506006805460018082019092557ff652222313e28459528d920b65115c16c04f3efc82aaedc97be59f3f377c0d3f0180546001600160a01b0319166001600160a01b0396909616959095179094556007805494850181556000527fa66cc928b5edb82af9bd49922954155ab7b0942694bea4ce44661d9a8736c6889093019290925550505050565b60408051600180825281830190925260609160009190602080830190803683370190505090508281600081518110611ee957611ee961290e565b602090810291909101015292915050565b6001600160a01b0384163b15610bd25760405163f23a6e6160e01b81526001600160a01b0385169063f23a6e6190611f3e9089908990889088908890600401612fb9565b6020604051808303816000875af1925050508015611f79575060408051601f3d908101601f19168201909252611f7691810190612c2c565b60015b611f8557611350612c49565b6001600160e01b0319811663f23a6e6160e01b146112bc5760405162461bcd60e51b81526004016103b590612cee565b6004805460405163c9187fe760e01b815291820183905260009182916001600160a01b03169063c9187fe790602401600060405180830381865afa158015612001573d6000803e3d6000fd5b505050506040513d6000823e601f3d908101601f191682016040526120299190810190612e5f565b90506000805b82518110156106885760045483516000916001600160a01b031690630e47cefa908690859081106120625761206261290e565b6020026020010151886040518363ffffffff1660e01b8152600401612088929190612f97565b602060405180830381865afa1580156120a5573d6000803e3d6000fd5b505050506040513d601f19601f820116820180604052508101906120c99190612f61565b90506120d58184612966565b92505080806120e39061293a565b91505061202f565b6000806120fa8686868661146f565b9050600061210782611158565b905060005b815181101561214d5760008a8152600a60205260409020805461213b918b91849081106109915761099161290e565b806121458161293a565b91505061210c565b509098975050505050505050565b6001600160a01b038116811461079657600080fd5b6000806040838503121561218357600080fd5b823561218e8161215b565b946020939093013593505050565b6001600160e01b03198116811461079657600080fd5b6000602082840312156121c457600080fd5b81356121cf8161219c565b9392505050565b6000602082840312156121e857600080fd5b5035919050565b60005b8381101561220a5781810151838201526020016121f2565b50506000910152565b6000815180845261222b8160208601602086016121ef565b601f01601f19169290920160200192915050565b6020815260006121cf6020830184612213565b6000806040838503121561226557600080fd5b8235915060208301356122778161215b565b809150509250929050565b634e487b7160e01b600052604160045260246000fd5b601f8201601f191681016001600160401b03811182821017156122bd576122bd612282565b6040525050565b60006001600160401b038211156122dd576122dd612282565b5060051b60200190565b600082601f8301126122f857600080fd5b81356020612305826122c4565b6040516123128282612298565b83815260059390931b850182019282810191508684111561233257600080fd5b8286015b8481101561234d5780358352918301918301612336565b509695505050505050565b60006001600160401b0382111561237157612371612282565b50601f01601f191660200190565b600061238a83612358565b6040516123978282612298565b8092508481528585850111156123ac57600080fd5b8484602083013760006020868301015250509392505050565b600082601f8301126123d657600080fd5b6121cf8383356020850161237f565b600080600080600060a086880312156123fd57600080fd5b85356124088161215b565b945060208601356124188161215b565b935060408601356001600160401b038082111561243457600080fd5b61244089838a016122e7565b9450606088013591508082111561245657600080fd5b61246289838a016122e7565b9350608088013591508082111561247857600080fd5b50612485888289016123c5565b9150509295509295909350565b803560ff811681146124a357600080fd5b919050565b600082601f8301126124b957600080fd5b813560206124c6826122c4565b6040516124d38282612298565b83815260059390931b85018201928281019150868411156124f357600080fd5b8286015b8481101561234d57803561250a8161215b565b83529183019183016124f7565b6000806000806080858703121561252d57600080fd5b8435935061253d60208601612492565b925060408501356001600160401b038082111561255957600080fd5b612565888389016122e7565b9350606087013591508082111561257b57600080fd5b50612588878288016124a8565b91505092959194509250565b600080604083850312156125a757600080fd5b82356001600160401b03808211156125be57600080fd5b6125ca868387016124a8565b935060208501359150808211156125e057600080fd5b506125ed858286016122e7565b9150509250929050565b600081518084526020808501945080840160005b838110156126275781518752958201959082019060010161260b565b509495945050505050565b6020815260006121cf60208301846125f7565b6000806040838503121561265857600080fd5b82356126638161215b565b91506020830135801515811461227757600080fd5b60008060008060008060008060006101208a8c03121561269757600080fd5b8935985060208a0135975060408a0135965060608a013595506126bc60808b01612492565b94506126ca60a08b01612492565b93506126d960c08b013561215b565b60c08a013592506126ed60e08b013561215b565b60e08a013591506001600160401b036101008b0135111561270d57600080fd5b6101008a01358a018b601f82011261272457600080fd5b61272e81356122c4565b60405161273b8282612298565b809150823581526020810191508d6020843560051b850101111561275e57600080fd5b602083015b6020843560051b8501018110156127bf576001600160401b038135111561278957600080fd5b8e603f82358601011261279b57600080fd5b6127b18f8235860160208101359060400161237f565b835260209283019201612763565b508093505050509295985092959850929598565b600080604083850312156127e657600080fd5b82356127f18161215b565b915060208301356122778161215b565b600080600080600060a0868803121561281957600080fd5b85356128248161215b565b945060208601356128348161215b565b9350604086013592506060860135915060808601356001600160401b0381111561285d57600080fd5b612485888289016123c5565b60006020828403121561287b57600080fd5b81356121cf8161215b565b600181811c9082168061289a57607f821691505b6020821081036128ba57634e487b7160e01b600052602260045260246000fd5b50919050565b6020808252602e908201527f455243313135353a2063616c6c6572206973206e6f7420746f6b656e206f776e60408201526d195c881bdc88185c1c1c9bdd995960921b606082015260800190565b634e487b7160e01b600052603260045260246000fd5b634e487b7160e01b600052601160045260246000fd5b60006001820161294c5761294c612924565b5060010190565b818103818111156103e3576103e3612924565b808201808211156103e3576103e3612924565b60208082526028908201527f455243313135353a2069647320616e6420616d6f756e7473206c656e677468206040820152670dad2e6dac2e8c6d60c31b606082015260800190565b60208082526025908201527f455243313135353a207472616e7366657220746f20746865207a65726f206164604082015264647265737360d81b606082015260800190565b6020808252602a908201527f455243313135353a20696e73756666696369656e742062616c616e636520666f60408201526939103a3930b739b332b960b11b606082015260800190565b604081526000612a6360408301856125f7565b8281036020840152612a7581856125f7565b95945050505050565b6000815480845260208085019450836000528060002060005b8381101561262757815487529582019560019182019101612a97565b6000606082018583526020606081850152818651808452608086019150828801935060005b81811015612afd5784516001600160a01b031683529383019391830191600101612ad8565b505084810360408601526114bc8187612a7e565b60006060820185835260206060818501528186548084526080860191508760005282600020935060005b81811015612afd5784546001600160a01b031683526001948501949284019201612b3b565b80820281158282048414176103e3576103e3612924565b600082612b9457634e487b7160e01b600052601260045260246000fd5b500490565b60208082526021908201527f455243313135353a206d696e7420746f20746865207a65726f206164647265736040820152607360f81b606082015260800190565b6001600160a01b0386811682528516602082015260a060408201819052600090612c06908301866125f7565b8281036060840152612c1881866125f7565b905082810360808401526114bc8185612213565b600060208284031215612c3e57600080fd5b81516121cf8161219c565b600060033d1115612c625760046000803e5060005160e01c5b90565b600060443d1015612c735790565b6040516003193d81016004833e81513d6001600160401b038160248401118184111715612ca257505050505090565b8285019150815181811115612cba5750505050505090565b843d8701016020828501011115612cd45750505050505090565b612ce360208286010187612298565b509095945050505050565b60208082526028908201527f455243313135353a204552433131353552656365697665722072656a656374656040820152676420746f6b656e7360c01b606082015260800190565b601f821115612d7c57600081815260208120601f850160051c81016020861015612d5d5750805b601f850160051c820191505b81811015610bd257828155600101612d69565b505050565b81516001600160401b03811115612d9a57612d9a612282565b612dae81612da88454612886565b84612d36565b602080601f831160018114612de35760008415612dcb5750858301515b600019600386901b1c1916600185901b178555610bd2565b600085815260208120601f198616915b82811015612e1257888601518255948401946001909101908401612df3565b5085821015612e305787850151600019600388901b60f8161c191681555b5050505050600190811b01905550565b600060ff821660ff8103612e5657612e56612924565b60010192915050565b60006020808385031215612e7257600080fd5b82516001600160401b0380821115612e8957600080fd5b818501915085601f830112612e9d57600080fd5b8151612ea8816122c4565b60408051612eb68382612298565b83815260059390931b8501860192868101925089841115612ed657600080fd5b8686015b84811015612f5357805186811115612ef25760008081fd5b8701603f81018c13612f045760008081fd5b88810151612f1181612358565b8551612f1d8282612298565b8281528e87848601011115612f3457600091508182fd5b612f43838d83018987016121ef565b8752505050928701928701612eda565b509998505050505050505050565b600060208284031215612f7357600080fd5b5051919050565b600060208284031215612f8c57600080fd5b81516121cf8161215b565b604081526000612faa6040830185612213565b90508260208301529392505050565b6001600160a01b03868116825285166020820152604081018490526060810183905260a060808201819052600090612ff390830184612213565b97965050505050505056fea264697066735822122000fc330693bdce4811197dabe1d9e431295691cba876b9a6551c26eea2c4e13e64736f6c63430008110033",
  "linkReferences": {},
  "deployedLinkReferences": {}
}