{
  "_format": "hh-sol-artifact-1",
  "contractName": "ProductNFT",
  "sourceName": "contracts/ProductNFT.sol",
  "abi": [
    {
      "inputs": [
        {
          "internalType": "string",
          "name": "name_",
          "type": "string"
        },
        {
          "internalType": "string",
          "name": "symbol_",
          "type": "string"
        },
        {
          "internalType": "contract IIdentityToken",
          "name": "identityToken_",
          "type": "address"
        },
        {
          "internalType": "contract IDataManagement",
          "name": "dataMgt_",
          "type": "address"
        }
      ],
      "stateMutability": "nonpayable",
      "type": "constructor"
    },
    {
      "anonymous": false,
      "inputs": [
        {
          "indexed": true,
          "internalType": "address",
          "name": "owner",
          "type": "address"
        },
        {
          "indexed": true,
          "internalType": "address",
          "name": "approved",
          "type": "address"
        },
        {
          "indexed": true,
          "internalType": "uint256",
          "name": "tokenId",
          "type": "uint256"
        }
      ],
      "name": "Approval",
      "type": "event"
    },
    {
      "anonymous": false,
      "inputs": [
        {
          "indexed": true,
          "internalType": "address",
          "name": "owner",
          "type": "address"
        },
        {
          "indexed": true,
          "internalType": "address",
          "name": "operator",
          "type": "address"
        },
        {
          "indexed": false,
          "internalType": "bool",
          "name": "approved",
          "type": "bool"
        }
      ],
      "name": "ApprovalForAll",
      "type": "event"
    },
    {
      "anonymous": false,
      "inputs": [
        {
          "indexed": false,
          "internalType": "uint256",
          "name": "productUID",
          "type": "uint256"
        },
        {
          "indexed": false,
          "internalType": "bytes[]",
          "name": "dataHash",
          "type": "bytes[]"
        },
        {
          "indexed": false,
          "internalType": "uint256[]",
          "name": "creditScore",
          "type": "uint256[]"
        }
      ],
      "name": "NewDataLinked",
      "type": "event"
    },
    {
      "anonymous": false,
      "inputs": [
        {
          "indexed": true,
          "internalType": "address",
          "name": "previousOwner",
          "type": "address"
        },
        {
          "indexed": true,
          "internalType": "address",
          "name": "newOwner",
          "type": "address"
        }
      ],
      "name": "OwnershipTransferred",
      "type": "event"
    },
    {
      "anonymous": false,
      "inputs": [
        {
          "indexed": false,
          "internalType": "address",
          "name": "account",
          "type": "address"
        }
      ],
      "name": "Paused",
      "type": "event"
    },
    {
      "anonymous": false,
      "inputs": [
        {
          "indexed": false,
          "internalType": "uint256",
          "name": "creatorID",
          "type": "uint256"
        },
        {
          "indexed": false,
          "internalType": "uint256",
          "name": "productUID",
          "type": "uint256"
        },
        {
          "indexed": false,
          "internalType": "string",
          "name": "productURI",
          "type": "string"
        },
        {
          "indexed": false,
          "internalType": "bytes[]",
          "name": "datahashes",
          "type": "bytes[]"
        },
        {
          "indexed": false,
          "internalType": "uint256[]",
          "name": "creditScore",
          "type": "uint256[]"
        }
      ],
      "name": "ProductCreated",
      "type": "event"
    },
    {
      "anonymous": false,
      "inputs": [
        {
          "indexed": true,
          "internalType": "address",
          "name": "from",
          "type": "address"
        },
        {
          "indexed": true,
          "internalType": "address",
          "name": "to",
          "type": "address"
        },
        {
          "indexed": true,
          "internalType": "uint256",
          "name": "tokenId",
          "type": "uint256"
        }
      ],
      "name": "Transfer",
      "type": "event"
    },
    {
      "anonymous": false,
      "inputs": [
        {
          "indexed": false,
          "internalType": "address",
          "name": "account",
          "type": "address"
        }
      ],
      "name": "Unpaused",
      "type": "event"
    },
    {
      "inputs": [
        {
          "internalType": "address",
          "name": "to",
          "type": "address"
        },
        {
          "internalType": "uint256",
          "name": "tokenId",
          "type": "uint256"
        }
      ],
      "name": "approve",
      "outputs": [],
      "stateMutability": "nonpayable",
      "type": "function"
    },
    {
      "inputs": [
        {
          "internalType": "address",
          "name": "owner",
          "type": "address"
        }
      ],
      "name": "balanceOf",
      "outputs": [
        {
          "internalType": "uint256",
          "name": "",
          "type": "uint256"
        }
      ],
      "stateMutability": "view",
      "type": "function"
    },
    {
      "inputs": [
        {
          "internalType": "uint256",
          "name": "_productCreatorId",
          "type": "uint256"
        },
        {
          "internalType": "uint256",
          "name": "_productUID",
          "type": "uint256"
        },
        {
          "internalType": "string",
          "name": "_productURI",
          "type": "string"
        },
        {
          "internalType": "bytes[]",
          "name": "_dataHashes",
          "type": "bytes[]"
        },
        {
          "internalType": "uint256[]",
          "name": "_creditScores",
          "type": "uint256[]"
        }
      ],
      "name": "createProduct",
      "outputs": [],
      "stateMutability": "nonpayable",
      "type": "function"
    },
    {
      "inputs": [
        {
          "internalType": "uint256",
          "name": "tokenId",
          "type": "uint256"
        }
      ],
      "name": "getApproved",
      "outputs": [
        {
          "internalType": "address",
          "name": "",
          "type": "address"
        }
      ],
      "stateMutability": "view",
      "type": "function"
    },
    {
      "inputs": [
        {
          "internalType": "bytes",
          "name": "_dHash",
          "type": "bytes"
        },
        {
          "internalType": "uint256",
          "name": "_productUID",
          "type": "uint256"
        }
      ],
      "name": "getDataCredit",
      "outputs": [
        {
          "internalType": "uint256",
          "name": "",
          "type": "uint256"
        }
      ],
      "stateMutability": "view",
      "type": "function"
    },
    {
      "inputs": [
        {
          "internalType": "bytes",
          "name": "_dHash",
          "type": "bytes"
        }
      ],
      "name": "getDataOwnerAddress",
      "outputs": [
        {
          "internalType": "address",
          "name": "",
          "type": "address"
        }
      ],
      "stateMutability": "view",
      "type": "function"
    },
    {
      "inputs": [
        {
          "internalType": "uint256",
          "name": "_productUID",
          "type": "uint256"
        }
      ],
      "name": "getInitialDataLength",
      "outputs": [
        {
          "internalType": "uint256",
          "name": "",
          "type": "uint256"
        }
      ],
      "stateMutability": "view",
      "type": "function"
    },
    {
      "inputs": [
        {
          "internalType": "uint256",
          "name": "_productUID",
          "type": "uint256"
        }
      ],
      "name": "getProductToData",
      "outputs": [
        {
          "internalType": "bytes[]",
          "name": "",
          "type": "bytes[]"
        }
      ],
      "stateMutability": "view",
      "type": "function"
    },
    {
      "inputs": [
        {
          "internalType": "address",
          "name": "owner",
          "type": "address"
        },
        {
          "internalType": "address",
          "name": "operator",
          "type": "address"
        }
      ],
      "name": "isApprovedForAll",
      "outputs": [
        {
          "internalType": "bool",
          "name": "",
          "type": "bool"
        }
      ],
      "stateMutability": "view",
      "type": "function"
    },
    {
      "inputs": [
        {
          "internalType": "uint256",
          "name": "_productUID",
          "type": "uint256"
        },
        {
          "internalType": "bytes[]",
          "name": "_newDataHashes",
          "type": "bytes[]"
        },
        {
          "internalType": "uint256[]",
          "name": "_creditScores",
          "type": "uint256[]"
        }
      ],
      "name": "linkNewData",
      "outputs": [],
      "stateMutability": "nonpayable",
      "type": "function"
    },
    {
      "inputs": [],
      "name": "name",
      "outputs": [
        {
          "internalType": "string",
          "name": "",
          "type": "string"
        }
      ],
      "stateMutability": "view",
      "type": "function"
    },
    {
      "inputs": [],
      "name": "owner",
      "outputs": [
        {
          "internalType": "address",
          "name": "",
          "type": "address"
        }
      ],
      "stateMutability": "view",
      "type": "function"
    },
    {
      "inputs": [
        {
          "internalType": "uint256",
          "name": "tokenId",
          "type": "uint256"
        }
      ],
      "name": "ownerOf",
      "outputs": [
        {
          "internalType": "address",
          "name": "",
          "type": "address"
        }
      ],
      "stateMutability": "view",
      "type": "function"
    },
    {
      "inputs": [],
      "name": "pause",
      "outputs": [],
      "stateMutability": "nonpayable",
      "type": "function"
    },
    {
      "inputs": [],
      "name": "paused",
      "outputs": [
        {
          "internalType": "bool",
          "name": "",
          "type": "bool"
        }
      ],
      "stateMutability": "view",
      "type": "function"
    },
    {
      "inputs": [],
      "name": "renounceOwnership",
      "outputs": [],
      "stateMutability": "nonpayable",
      "type": "function"
    },
    {
      "inputs": [
        {
          "internalType": "address",
          "name": "from",
          "type": "address"
        },
        {
          "internalType": "address",
          "name": "to",
          "type": "address"
        },
        {
          "internalType": "uint256",
          "name": "tokenId",
          "type": "uint256"
        }
      ],
      "name": "safeTransferFrom",
      "outputs": [],
      "stateMutability": "nonpayable",
      "type": "function"
    },
    {
      "inputs": [
        {
          "internalType": "address",
          "name": "from",
          "type": "address"
        },
        {
          "internalType": "address",
          "name": "to",
          "type": "address"
        },
        {
          "internalType": "uint256",
          "name": "tokenId",
          "type": "uint256"
        },
        {
          "internalType": "bytes",
          "name": "data",
          "type": "bytes"
        }
      ],
      "name": "safeTransferFrom",
      "outputs": [],
      "stateMutability": "nonpayable",
      "type": "function"
    },
    {
      "inputs": [
        {
          "internalType": "address",
          "name": "operator",
          "type": "address"
        },
        {
          "internalType": "bool",
          "name": "approved",
          "type": "bool"
        }
      ],
      "name": "setApprovalForAll",
      "outputs": [],
      "stateMutability": "nonpayable",
      "type": "function"
    },
    {
      "inputs": [
        {
          "internalType": "bytes4",
          "name": "interfaceId",
          "type": "bytes4"
        }
      ],
      "name": "supportsInterface",
      "outputs": [
        {
          "internalType": "bool",
          "name": "",
          "type": "bool"
        }
      ],
      "stateMutability": "view",
      "type": "function"
    },
    {
      "inputs": [],
      "name": "symbol",
      "outputs": [
        {
          "internalType": "string",
          "name": "",
          "type": "string"
        }
      ],
      "stateMutability": "view",
      "type": "function"
    },
    {
      "inputs": [
        {
          "internalType": "uint256",
          "name": "tokenId",
          "type": "uint256"
        }
      ],
      "name": "tokenURI",
      "outputs": [
        {
          "internalType": "string",
          "name": "",
          "type": "string"
        }
      ],
      "stateMutability": "view",
      "type": "function"
    },
    {
      "inputs": [
        {
          "internalType": "address",
          "name": "from",
          "type": "address"
        },
        {
          "internalType": "address",
          "name": "to",
          "type": "address"
        },
        {
          "internalType": "uint256",
          "name": "tokenId",
          "type": "uint256"
        }
      ],
      "name": "transferFrom",
      "outputs": [],
      "stateMutability": "nonpayable",
      "type": "function"
    },
    {
      "inputs": [
        {
          "internalType": "address",
          "name": "newOwner",
          "type": "address"
        }
      ],
      "name": "transferOwnership",
      "outputs": [],
      "stateMutability": "nonpayable",
      "type": "function"
    },
    {
      "inputs": [],
      "name": "unpause",
      "outputs": [],
      "stateMutability": "nonpayable",
      "type": "function"
    }
  ],
  "bytecode": "0x60806040523480156200001157600080fd5b5060405162002acf38038062002acf8339810160408190526200003491620001e6565b8383600062000044838262000309565b50600162000053828262000309565b505050620000706200006a620000b260201b60201c565b620000b6565b6007805460ff60a01b19169055600c80546001600160a01b039384166001600160a01b031991821617909155600d805492909316911617905550620003d59050565b3390565b600780546001600160a01b038381166001600160a01b0319831681179093556040519116919082907f8be0079c531659141344cd1fd0a4f28419497f9722a3daafe3b4186f6b6457e090600090a35050565b634e487b7160e01b600052604160045260246000fd5b600082601f8301126200013057600080fd5b81516001600160401b03808211156200014d576200014d62000108565b604051601f8301601f19908116603f0116810190828211818310171562000178576200017862000108565b816040528381526020925086838588010111156200019557600080fd5b600091505b83821015620001b957858201830151818301840152908201906200019a565b600093810190920192909252949350505050565b6001600160a01b0381168114620001e357600080fd5b50565b60008060008060808587031215620001fd57600080fd5b84516001600160401b03808211156200021557600080fd5b62000223888389016200011e565b955060208701519150808211156200023a57600080fd5b5062000249878288016200011e565b93505060408501516200025c81620001cd565b60608601519092506200026f81620001cd565b939692955090935050565b600181811c908216806200028f57607f821691505b602082108103620002b057634e487b7160e01b600052602260045260246000fd5b50919050565b601f8211156200030457600081815260208120601f850160051c81016020861015620002df5750805b601f850160051c820191505b818110156200030057828155600101620002eb565b5050505b505050565b81516001600160401b0381111562000325576200032562000108565b6200033d816200033684546200027a565b84620002b6565b602080601f8311600181146200037557600084156200035c5750858301515b600019600386901b1c1916600185901b17855562000300565b600085815260208120601f198616915b82811015620003a65788860151825594840194600190910190840162000385565b5085821015620003c55787850151600019600388901b60f8161c191681555b5050505050600190811b01905550565b6126ea80620003e56000396000f3fe608060405234801561001057600080fd5b50600436106101735760003560e01c80636352211e116100de57806395d89b4111610097578063c87b56dd11610071578063c87b56dd14610324578063c9187fe714610337578063e985e9c514610357578063f2fde38b1461039357600080fd5b806395d89b41146102f6578063a22cb465146102fe578063b88d4fde1461031157600080fd5b80636352211e1461028f57806370a08231146102a2578063715018a6146102b55780638456cb59146102bd57806384ffeca5146102c55780638da5cb5b146102e557600080fd5b806323b872dd1161013057806323b872dd14610229578063301bab031461023c5780633f4ba83a1461024f57806342842e0e1461025757806359a96ffe1461026a5780635c975abb1461027d57600080fd5b806301ffc9a71461017857806306fdde03146101a0578063081812fc146101b5578063095ea7b3146101e05780630e47cefa146101f55780630f139de914610216575b600080fd5b61018b610186366004611c66565b6103a6565b60405190151581526020015b60405180910390f35b6101a86103f8565b6040516101979190611cd3565b6101c86101c3366004611ce6565b61048a565b6040516001600160a01b039091168152602001610197565b6101f36101ee366004611d14565b6104b1565b005b610208610203366004611dff565b6105cb565b604051908152602001610197565b6101f3610224366004611f53565b610605565b6101f3610237366004611fc0565b610763565b6101f361024a366004612001565b610794565b6101f36109da565b6101f3610265366004611fc0565b6109ec565b6101c86102783660046120b4565b610a07565b600754600160a01b900460ff1661018b565b6101c861029d366004611ce6565b610ae6565b6102086102b03660046120e9565b610b46565b6101f3610bcc565b6101f3610bde565b6102086102d3366004611ce6565b60009081526009602052604090205490565b6007546001600160a01b03166101c8565b6101a8610bee565b6101f361030c366004612106565b610bfd565b6101f361031f366004612144565b610c0c565b6101a8610332366004611ce6565b610c44565b61034a610345366004611ce6565b610d54565b6040516101979190612205565b61018b610365366004612218565b6001600160a01b03918216600090815260056020908152604080832093909416825291909152205460ff1690565b6101f36103a13660046120e9565b610e40565b60006001600160e01b031982166380ac58cd60e01b14806103d757506001600160e01b03198216635b5e139f60e01b145b806103f257506301ffc9a760e01b6001600160e01b03198316145b92915050565b60606000805461040790612246565b80601f016020809104026020016040519081016040528092919081815260200182805461043390612246565b80156104805780601f1061045557610100808354040283529160200191610480565b820191906000526020600020905b81548152906001019060200180831161046357829003601f168201915b5050505050905090565b600061049582610eb9565b506000908152600460205260409020546001600160a01b031690565b60006104bc82610ae6565b9050806001600160a01b0316836001600160a01b03160361052e5760405162461bcd60e51b815260206004820152602160248201527f4552433732313a20617070726f76616c20746f2063757272656e74206f776e656044820152603960f91b60648201526084015b60405180910390fd5b336001600160a01b038216148061054a575061054a8133610365565b6105bc5760405162461bcd60e51b815260206004820152603d60248201527f4552433732313a20617070726f76652063616c6c6572206973206e6f7420746f60448201527f6b656e206f776e6572206f7220617070726f76656420666f7220616c6c0000006064820152608401610525565b6105c68383610f18565b505050565b6000600a836040516105dd9190612280565b9081526020016040518091039020600083815260200190815260200160002054905092915050565b61060d610f86565b60008381526008602052604090205483906001600160a01b0316336001600160a01b03161461067e5760405162461bcd60e51b815260206004820152601c60248201527f52454a5556453a204f6e6c792050726f647563742043726561746f72000000006044820152606401610525565b81518351146106ca5760405162461bcd60e51b81526020600482015260186024820152770a48a94aaac8a74409cdee840cae2eac2d840d8cadccee8d60431b6044820152606401610525565b6106d5848484610fd3565b156107225760405162461bcd60e51b815260206004820152601a60248201527f52454a5556453a2044617461204e6f74205065726d69747465640000000000006044820152606401610525565b7f0d5bcc3cb98adc5778f35c805a29156280afd1cfe4d8c019920fc995578784bd848484604051610755939291906122d7565b60405180910390a150505050565b61076d338261114d565b6107895760405162461bcd60e51b81526004016105259061230c565b6105c68383836111cb565b61079c610f86565b600c546001600160a01b0316634b557d8a336040516001600160e01b031960e084901b1681526001600160a01b039091166004820152602401602060405180830381865afa1580156107f2573d6000803e3d6000fd5b505050506040513d601f19601f820116820180604052508101906108169190612359565b60ff166001146108615760405162461bcd60e51b81526020600482015260166024820152751491529555914e88139bdd08149959da5cdd195c995960521b6044820152606401610525565b600c546040516331a9108f60e11b8152600481018790526001600160a01b0390911690636352211e90602401602060405180830381865afa1580156108aa573d6000803e3d6000fd5b505050506040513d601f19601f820116820180604052508101906108ce919061237c565b6001600160a01b0316336001600160a01b03161461093c5760405162461bcd60e51b815260206004820152602560248201527f52454a5556453a2043616c6c6572206973206e6f74206f776e6572206f66206c604482015264185888125160da1b6064820152608401610525565b80518251146109885760405162461bcd60e51b81526020600482015260186024820152770a48a94aaac8a74409cdee840cae2eac2d840d8cadccee8d60431b6044820152606401610525565b6109948484848461133c565b7fd1d11ef5e1b8d376e575876c31128f027cd644b8af4053b48cd239f545ea7fa185858585856040516109cb959493929190612399565b60405180910390a15050505050565b6109e26113da565b6109ea611434565b565b6105c683838360405180602001604052806000815250610c0c565b600c54600d546040516314610b9d60e31b81526000926001600160a01b0390811692636352211e9291169063a3085ce890610a46908790600401611cd3565b602060405180830381865afa158015610a63573d6000803e3d6000fd5b505050506040513d601f19601f82011682018060405250810190610a8791906123ea565b6040518263ffffffff1660e01b8152600401610aa591815260200190565b602060405180830381865afa158015610ac2573d6000803e3d6000fd5b505050506040513d601f19601f820116820180604052508101906103f2919061237c565b6000818152600260205260408120546001600160a01b0316806103f25760405162461bcd60e51b8152602060048201526018602482015277115490cdcc8c4e881a5b9d985b1a59081d1bdad95b88125160421b6044820152606401610525565b60006001600160a01b038216610bb05760405162461bcd60e51b815260206004820152602960248201527f4552433732313a2061646472657373207a65726f206973206e6f7420612076616044820152683634b21037bbb732b960b91b6064820152608401610525565b506001600160a01b031660009081526003602052604090205490565b610bd46113da565b6109ea6000611489565b610be66113da565b6109ea6114db565b60606001805461040790612246565b610c0833838361151e565b5050565b610c16338361114d565b610c325760405162461bcd60e51b81526004016105259061230c565b610c3e848484846115ec565b50505050565b6060610c4f82610eb9565b60008281526006602052604081208054610c6890612246565b80601f0160208091040260200160405190810160405280929190818152602001828054610c9490612246565b8015610ce15780601f10610cb657610100808354040283529160200191610ce1565b820191906000526020600020905b815481529060010190602001808311610cc457829003601f168201915b505050505090506000610cff60408051602081019091526000815290565b90508051600003610d11575092915050565b815115610d43578082604051602001610d2b929190612403565b60405160208183030381529060405292505050919050565b610d4c8461161f565b949350505050565b6060600b6000838152602001908152602001600020805480602002602001604051908101604052809291908181526020016000905b82821015610e35578382906000526020600020018054610da890612246565b80601f0160208091040260200160405190810160405280929190818152602001828054610dd490612246565b8015610e215780601f10610df657610100808354040283529160200191610e21565b820191906000526020600020905b815481529060010190602001808311610e0457829003601f168201915b505050505081526020019060010190610d89565b505050509050919050565b610e486113da565b6001600160a01b038116610ead5760405162461bcd60e51b815260206004820152602660248201527f4f776e61626c653a206e6577206f776e657220697320746865207a65726f206160448201526564647265737360d01b6064820152608401610525565b610eb681611489565b50565b6000818152600260205260409020546001600160a01b0316610eb65760405162461bcd60e51b8152602060048201526018602482015277115490cdcc8c4e881a5b9d985b1a59081d1bdad95b88125160421b6044820152606401610525565b600081815260046020526040902080546001600160a01b0319166001600160a01b0384169081179091558190610f4d82610ae6565b6001600160a01b03167f8c5be1e5ebec7d5bd14f71427d1e84f3dd0314c0f7b2291e5b200ac8c7c3b92560405160405180910390a45050565b600754600160a01b900460ff16156109ea5760405162461bcd60e51b815260206004820152601060248201526f14185d5cd8589b194e881c185d5cd95960821b6044820152606401610525565b60008060005b845181101561114457600d5485516001600160a01b0390911690635f233dab9087908490811061100b5761100b612432565b6020026020010151886040518363ffffffff1660e01b8152600401611031929190612448565b602060405180830381865afa15801561104e573d6000803e3d6000fd5b505050506040513d601f19601f820116820180604052508101906110729190612359565b60ff166001036111295783818151811061108e5761108e612432565b6020026020010151600a8683815181106110aa576110aa612432565b60200260200101516040516110bf9190612280565b908152604080516020928190038301902060008a815290835281812093909355600b909152902085518690839081106110fa576110fa612432565b6020908102919091018101518254600181018455600093845291909220019061112390826124b8565b50611132565b60019150611144565b8061113c8161258e565b915050610fd9565b50949350505050565b60008061115983610ae6565b9050806001600160a01b0316846001600160a01b031614806111a057506001600160a01b0380821660009081526005602090815260408083209388168352929052205460ff165b80610d4c5750836001600160a01b03166111b98461048a565b6001600160a01b031614949350505050565b826001600160a01b03166111de82610ae6565b6001600160a01b0316146112045760405162461bcd60e51b8152600401610525906125a7565b6001600160a01b0382166112665760405162461bcd60e51b8152602060048201526024808201527f4552433732313a207472616e7366657220746f20746865207a65726f206164646044820152637265737360e01b6064820152608401610525565b6112738383836001611693565b826001600160a01b031661128682610ae6565b6001600160a01b0316146112ac5760405162461bcd60e51b8152600401610525906125a7565b600081815260046020908152604080832080546001600160a01b03199081169091556001600160a01b0387811680865260038552838620805460001901905590871680865283862080546001019055868652600290945282852080549092168417909155905184937fddf252ad1be2c89b69c2b068fc378daa952ba7f163c4a11628f55a4df523b3ef91a4505050565b611347848383610fd3565b156113945760405162461bcd60e51b815260206004820152601a60248201527f52454a5556453a2044617461204e6f74205065726d69747465640000000000006044820152606401610525565b61139e338561171b565b6113a88484611735565b50600092835260086020908152604080852080546001600160a01b031916331790559151600990915292209190915550565b6007546001600160a01b031633146109ea5760405162461bcd60e51b815260206004820181905260248201527f4f776e61626c653a2063616c6c6572206973206e6f7420746865206f776e65726044820152606401610525565b61143c6117c8565b6007805460ff60a01b191690557f5db9ee0a495bf2e6ff9c91a7834c1ba4fdd244a5e8aa4e537bd38aeae4b073aa335b6040516001600160a01b03909116815260200160405180910390a1565b600780546001600160a01b038381166001600160a01b0319831681179093556040519116919082907f8be0079c531659141344cd1fd0a4f28419497f9722a3daafe3b4186f6b6457e090600090a35050565b6114e3610f86565b6007805460ff60a01b1916600160a01b1790557f62e78cea01bee320cd4e420270b5ea74000d11b0c9f74754ebdbfc544b05a25861146c3390565b816001600160a01b0316836001600160a01b03160361157f5760405162461bcd60e51b815260206004820152601960248201527f4552433732313a20617070726f766520746f2063616c6c6572000000000000006044820152606401610525565b6001600160a01b03838116600081815260056020908152604080832094871680845294825291829020805460ff191686151590811790915591519182527f17307eab39ab6107e8899845ad3d59bd9653f200f220920489ca2b5937696c31910160405180910390a3505050565b6115f78484846111cb565b61160384848484611818565b610c3e5760405162461bcd60e51b8152600401610525906125ec565b606061162a82610eb9565b600061164160408051602081019091526000815290565b90506000815111611661576040518060200160405280600081525061168c565b8061166b84611919565b60405160200161167c929190612403565b6040516020818303038152906040525b9392505050565b6001811115610c3e576001600160a01b038416156116d9576001600160a01b038416600090815260036020526040812080548392906116d390849061263e565b90915550505b6001600160a01b03831615610c3e576001600160a01b03831660009081526003602052604081208054839290611710908490612651565b909155505050505050565b610c088282604051806020016040528060008152506119ac565b6000828152600260205260409020546001600160a01b03166117b05760405162461bcd60e51b815260206004820152602e60248201527f45524337323155524953746f726167653a2055524920736574206f66206e6f6e60448201526d32bc34b9ba32b73a103a37b5b2b760911b6064820152608401610525565b60008281526006602052604090206105c682826124b8565b600754600160a01b900460ff166109ea5760405162461bcd60e51b815260206004820152601460248201527314185d5cd8589b194e881b9bdd081c185d5cd95960621b6044820152606401610525565b60006001600160a01b0384163b1561190e57604051630a85bd0160e11b81526001600160a01b0385169063150b7a029061185c903390899088908890600401612664565b6020604051808303816000875af1925050508015611897575060408051601f3d908101601f1916820190925261189491810190612697565b60015b6118f4573d8080156118c5576040519150601f19603f3d011682016040523d82523d6000602084013e6118ca565b606091505b5080516000036118ec5760405162461bcd60e51b8152600401610525906125ec565b805181602001fd5b6001600160e01b031916630a85bd0160e11b149050610d4c565b506001949350505050565b60606000611926836119df565b600101905060008167ffffffffffffffff81111561194657611946611d40565b6040519080825280601f01601f191660200182016040528015611970576020820181803683370190505b5090508181016020015b600019016f181899199a1a9b1b9c1cb0b131b232b360811b600a86061a8153600a850494508461197a57509392505050565b6119b68383611ab7565b6119c36000848484611818565b6105c65760405162461bcd60e51b8152600401610525906125ec565b60008072184f03e93ff9f4daa797ed6e38ed64bf6a1f0160401b8310611a1e5772184f03e93ff9f4daa797ed6e38ed64bf6a1f0160401b830492506040015b6d04ee2d6d415b85acef81000000008310611a4a576d04ee2d6d415b85acef8100000000830492506020015b662386f26fc100008310611a6857662386f26fc10000830492506010015b6305f5e1008310611a80576305f5e100830492506008015b6127108310611a9457612710830492506004015b60648310611aa6576064830492506002015b600a83106103f25760010192915050565b6001600160a01b038216611b0d5760405162461bcd60e51b815260206004820181905260248201527f4552433732313a206d696e7420746f20746865207a65726f20616464726573736044820152606401610525565b6000818152600260205260409020546001600160a01b031615611b725760405162461bcd60e51b815260206004820152601c60248201527f4552433732313a20746f6b656e20616c7265616479206d696e746564000000006044820152606401610525565b611b80600083836001611693565b6000818152600260205260409020546001600160a01b031615611be55760405162461bcd60e51b815260206004820152601c60248201527f4552433732313a20746f6b656e20616c7265616479206d696e746564000000006044820152606401610525565b6001600160a01b038216600081815260036020908152604080832080546001019055848352600290915280822080546001600160a01b0319168417905551839291907fddf252ad1be2c89b69c2b068fc378daa952ba7f163c4a11628f55a4df523b3ef908290a45050565b6001600160e01b031981168114610eb657600080fd5b600060208284031215611c7857600080fd5b813561168c81611c50565b60005b83811015611c9e578181015183820152602001611c86565b50506000910152565b60008151808452611cbf816020860160208601611c83565b601f01601f19169290920160200192915050565b60208152600061168c6020830184611ca7565b600060208284031215611cf857600080fd5b5035919050565b6001600160a01b0381168114610eb657600080fd5b60008060408385031215611d2757600080fd5b8235611d3281611cff565b946020939093013593505050565b634e487b7160e01b600052604160045260246000fd5b604051601f8201601f1916810167ffffffffffffffff81118282101715611d7f57611d7f611d40565b604052919050565b600067ffffffffffffffff831115611da157611da1611d40565b611db4601f8401601f1916602001611d56565b9050828152838383011115611dc857600080fd5b828260208301376000602084830101529392505050565b600082601f830112611df057600080fd5b61168c83833560208501611d87565b60008060408385031215611e1257600080fd5b823567ffffffffffffffff811115611e2957600080fd5b611e3585828601611ddf565b95602094909401359450505050565b600067ffffffffffffffff821115611e5e57611e5e611d40565b5060051b60200190565b600082601f830112611e7957600080fd5b81356020611e8e611e8983611e44565b611d56565b82815260059290921b84018101918181019086841115611ead57600080fd5b8286015b84811015611eed57803567ffffffffffffffff811115611ed15760008081fd5b611edf8986838b0101611ddf565b845250918301918301611eb1565b509695505050505050565b600082601f830112611f0957600080fd5b81356020611f19611e8983611e44565b82815260059290921b84018101918181019086841115611f3857600080fd5b8286015b84811015611eed5780358352918301918301611f3c565b600080600060608486031215611f6857600080fd5b83359250602084013567ffffffffffffffff80821115611f8757600080fd5b611f9387838801611e68565b93506040860135915080821115611fa957600080fd5b50611fb686828701611ef8565b9150509250925092565b600080600060608486031215611fd557600080fd5b8335611fe081611cff565b92506020840135611ff081611cff565b929592945050506040919091013590565b600080600080600060a0868803121561201957600080fd5b8535945060208601359350604086013567ffffffffffffffff8082111561203f57600080fd5b818801915088601f83011261205357600080fd5b61206289833560208501611d87565b9450606088013591508082111561207857600080fd5b61208489838a01611e68565b9350608088013591508082111561209a57600080fd5b506120a788828901611ef8565b9150509295509295909350565b6000602082840312156120c657600080fd5b813567ffffffffffffffff8111156120dd57600080fd5b610d4c84828501611ddf565b6000602082840312156120fb57600080fd5b813561168c81611cff565b6000806040838503121561211957600080fd5b823561212481611cff565b91506020830135801515811461213957600080fd5b809150509250929050565b6000806000806080858703121561215a57600080fd5b843561216581611cff565b9350602085013561217581611cff565b925060408501359150606085013567ffffffffffffffff81111561219857600080fd5b6121a487828801611ddf565b91505092959194509250565b600081518084526020808501808196508360051b8101915082860160005b858110156121f85782840389526121e6848351611ca7565b988501989350908401906001016121ce565b5091979650505050505050565b60208152600061168c60208301846121b0565b6000806040838503121561222b57600080fd5b823561223681611cff565b9150602083013561213981611cff565b600181811c9082168061225a57607f821691505b60208210810361227a57634e487b7160e01b600052602260045260246000fd5b50919050565b60008251612292818460208701611c83565b9190910192915050565b600081518084526020808501945080840160005b838110156122cc578151875295820195908201906001016122b0565b509495945050505050565b8381526060602082015260006122f060608301856121b0565b8281036040840152612302818561229c565b9695505050505050565b6020808252602d908201527f4552433732313a2063616c6c6572206973206e6f7420746f6b656e206f776e6560408201526c1c881bdc88185c1c1c9bdd9959609a1b606082015260800190565b60006020828403121561236b57600080fd5b815160ff8116811461168c57600080fd5b60006020828403121561238e57600080fd5b815161168c81611cff565b85815284602082015260a0604082015260006123b860a0830186611ca7565b82810360608401526123ca81866121b0565b905082810360808401526123de818561229c565b98975050505050505050565b6000602082840312156123fc57600080fd5b5051919050565b60008351612415818460208801611c83565b835190830190612429818360208801611c83565b01949350505050565b634e487b7160e01b600052603260045260246000fd5b60408152600061245b6040830185611ca7565b90508260208301529392505050565b601f8211156105c657600081815260208120601f850160051c810160208610156124915750805b601f850160051c820191505b818110156124b05782815560010161249d565b505050505050565b815167ffffffffffffffff8111156124d2576124d2611d40565b6124e6816124e08454612246565b8461246a565b602080601f83116001811461251b57600084156125035750858301515b600019600386901b1c1916600185901b1785556124b0565b600085815260208120601f198616915b8281101561254a5788860151825594840194600190910190840161252b565b50858210156125685787850151600019600388901b60f8161c191681555b5050505050600190811b01905550565b634e487b7160e01b600052601160045260246000fd5b6000600182016125a0576125a0612578565b5060010190565b60208082526025908201527f4552433732313a207472616e736665722066726f6d20696e636f72726563742060408201526437bbb732b960d91b606082015260800190565b60208082526032908201527f4552433732313a207472616e7366657220746f206e6f6e20455243373231526560408201527131b2b4bb32b91034b6b83632b6b2b73a32b960711b606082015260800190565b818103818111156103f2576103f2612578565b808201808211156103f2576103f2612578565b6001600160a01b038581168252841660208201526040810183905260806060820181905260009061230290830184611ca7565b6000602082840312156126a957600080fd5b815161168c81611c5056fea264697066735822122010005fc5c0e7974fc5f6e96cea0d868c2a9a47a1d855ee622ddc904351ca185864736f6c63430008120033",
  "linkReferences": {},
  "deployedLinkReferences": {}
}