{
  "_format": "hh-sol-artifact-1",
  "contractName": "ProductNFT",
  "sourceName": "contracts/ProductNFT.sol",
  "abi": [
    {
      "inputs": [
        {
          "internalType": "string",
          "name": "_name",
          "type": "string"
        },
        {
          "internalType": "string",
          "name": "_symbol",
          "type": "string"
        }
      ],
      "stateMutability": "nonpayable",
      "type": "constructor"
    },
    {
      "anonymous": false,
      "inputs": [
        {
          "indexed": true,
          "internalType": "address",
          "name": "owner",
          "type": "address"
        },
        {
          "indexed": true,
          "internalType": "address",
          "name": "approved",
          "type": "address"
        },
        {
          "indexed": true,
          "internalType": "uint256",
          "name": "tokenId",
          "type": "uint256"
        }
      ],
      "name": "Approval",
      "type": "event"
    },
    {
      "anonymous": false,
      "inputs": [
        {
          "indexed": true,
          "internalType": "address",
          "name": "owner",
          "type": "address"
        },
        {
          "indexed": true,
          "internalType": "address",
          "name": "operator",
          "type": "address"
        },
        {
          "indexed": false,
          "internalType": "bool",
          "name": "approved",
          "type": "bool"
        }
      ],
      "name": "ApprovalForAll",
      "type": "event"
    },
    {
      "anonymous": false,
      "inputs": [
        {
          "indexed": false,
          "internalType": "bytes32",
          "name": "",
          "type": "bytes32"
        }
      ],
      "name": "PermissionGranted",
      "type": "event"
    },
    {
      "anonymous": false,
      "inputs": [
        {
          "indexed": false,
          "internalType": "uint256",
          "name": "",
          "type": "uint256"
        },
        {
          "indexed": false,
          "internalType": "bytes32",
          "name": "",
          "type": "bytes32"
        },
        {
          "indexed": false,
          "internalType": "uint256",
          "name": "",
          "type": "uint256"
        }
      ],
      "name": "PermissionRequested",
      "type": "event"
    },
    {
      "anonymous": false,
      "inputs": [
        {
          "indexed": true,
          "internalType": "address",
          "name": "from",
          "type": "address"
        },
        {
          "indexed": true,
          "internalType": "address",
          "name": "to",
          "type": "address"
        },
        {
          "indexed": true,
          "internalType": "uint256",
          "name": "tokenId",
          "type": "uint256"
        }
      ],
      "name": "Transfer",
      "type": "event"
    },
    {
      "inputs": [
        {
          "internalType": "address",
          "name": "to",
          "type": "address"
        },
        {
          "internalType": "uint256",
          "name": "tokenId",
          "type": "uint256"
        }
      ],
      "name": "approve",
      "outputs": [],
      "stateMutability": "nonpayable",
      "type": "function"
    },
    {
      "inputs": [
        {
          "internalType": "address",
          "name": "owner",
          "type": "address"
        }
      ],
      "name": "balanceOf",
      "outputs": [
        {
          "internalType": "uint256",
          "name": "",
          "type": "uint256"
        }
      ],
      "stateMutability": "view",
      "type": "function"
    },
    {
      "inputs": [
        {
          "internalType": "uint256",
          "name": "_tokenId",
          "type": "uint256"
        }
      ],
      "name": "burnIdentity",
      "outputs": [],
      "stateMutability": "nonpayable",
      "type": "function"
    },
    {
      "inputs": [],
      "name": "createIdentityToken",
      "outputs": [],
      "stateMutability": "nonpayable",
      "type": "function"
    },
    {
      "inputs": [
        {
          "internalType": "uint256",
          "name": "_labId",
          "type": "uint256"
        },
        {
          "internalType": "uint256",
          "name": "_productUID",
          "type": "uint256"
        },
        {
          "internalType": "bytes32[]",
          "name": "_dataHashes",
          "type": "bytes32[]"
        },
        {
          "internalType": "uint256[]",
          "name": "creditScores",
          "type": "uint256[]"
        }
      ],
      "name": "createProduct",
      "outputs": [],
      "stateMutability": "nonpayable",
      "type": "function"
    },
    {
      "inputs": [
        {
          "internalType": "bytes32",
          "name": "",
          "type": "bytes32"
        },
        {
          "internalType": "uint256",
          "name": "",
          "type": "uint256"
        }
      ],
      "name": "dataToProductToCredit",
      "outputs": [
        {
          "internalType": "uint256",
          "name": "",
          "type": "uint256"
        }
      ],
      "stateMutability": "view",
      "type": "function"
    },
    {
      "inputs": [
        {
          "internalType": "uint256",
          "name": "tokenId",
          "type": "uint256"
        }
      ],
      "name": "getApproved",
      "outputs": [
        {
          "internalType": "address",
          "name": "",
          "type": "address"
        }
      ],
      "stateMutability": "view",
      "type": "function"
    },
    {
      "inputs": [
        {
          "internalType": "uint256",
          "name": "_tokenId",
          "type": "uint256"
        },
        {
          "internalType": "uint256",
          "name": "_index",
          "type": "uint256"
        }
      ],
      "name": "getDataByTokenId",
      "outputs": [
        {
          "internalType": "bytes32",
          "name": "",
          "type": "bytes32"
        }
      ],
      "stateMutability": "view",
      "type": "function"
    },
    {
      "inputs": [
        {
          "internalType": "address",
          "name": "_owner",
          "type": "address"
        }
      ],
      "name": "getOwnerId",
      "outputs": [
        {
          "internalType": "uint256",
          "name": "",
          "type": "uint256"
        }
      ],
      "stateMutability": "view",
      "type": "function"
    },
    {
      "inputs": [
        {
          "internalType": "uint256",
          "name": "_labId",
          "type": "uint256"
        },
        {
          "internalType": "bytes32",
          "name": "_dHash",
          "type": "bytes32"
        },
        {
          "internalType": "uint256",
          "name": "_nextProductUid",
          "type": "uint256"
        }
      ],
      "name": "grantPermission",
      "outputs": [],
      "stateMutability": "nonpayable",
      "type": "function"
    },
    {
      "inputs": [
        {
          "internalType": "address",
          "name": "owner",
          "type": "address"
        },
        {
          "internalType": "address",
          "name": "operator",
          "type": "address"
        }
      ],
      "name": "isApprovedForAll",
      "outputs": [
        {
          "internalType": "bool",
          "name": "",
          "type": "bool"
        }
      ],
      "stateMutability": "view",
      "type": "function"
    },
    {
      "inputs": [],
      "name": "name",
      "outputs": [
        {
          "internalType": "string",
          "name": "",
          "type": "string"
        }
      ],
      "stateMutability": "view",
      "type": "function"
    },
    {
      "inputs": [
        {
          "internalType": "uint256",
          "name": "tokenId",
          "type": "uint256"
        }
      ],
      "name": "ownerOf",
      "outputs": [
        {
          "internalType": "address",
          "name": "",
          "type": "address"
        }
      ],
      "stateMutability": "view",
      "type": "function"
    },
    {
      "inputs": [
        {
          "internalType": "address",
          "name": "",
          "type": "address"
        }
      ],
      "name": "ownerToToken",
      "outputs": [
        {
          "internalType": "uint256",
          "name": "",
          "type": "uint256"
        }
      ],
      "stateMutability": "view",
      "type": "function"
    },
    {
      "inputs": [
        {
          "internalType": "uint256",
          "name": "",
          "type": "uint256"
        },
        {
          "internalType": "uint256",
          "name": "",
          "type": "uint256"
        }
      ],
      "name": "productToData",
      "outputs": [
        {
          "internalType": "bytes32",
          "name": "",
          "type": "bytes32"
        }
      ],
      "stateMutability": "view",
      "type": "function"
    },
    {
      "inputs": [
        {
          "internalType": "address",
          "name": "",
          "type": "address"
        }
      ],
      "name": "registrations",
      "outputs": [
        {
          "internalType": "enum IdentityToken.UserStatus",
          "name": "",
          "type": "uint8"
        }
      ],
      "stateMutability": "view",
      "type": "function"
    },
    {
      "inputs": [
        {
          "internalType": "uint256",
          "name": "_labId",
          "type": "uint256"
        },
        {
          "internalType": "bytes32",
          "name": "_dHash",
          "type": "bytes32"
        },
        {
          "internalType": "uint256",
          "name": "_nextProductUid",
          "type": "uint256"
        }
      ],
      "name": "requestPermission",
      "outputs": [],
      "stateMutability": "payable",
      "type": "function"
    },
    {
      "inputs": [
        {
          "internalType": "address",
          "name": "from",
          "type": "address"
        },
        {
          "internalType": "address",
          "name": "to",
          "type": "address"
        },
        {
          "internalType": "uint256",
          "name": "tokenId",
          "type": "uint256"
        }
      ],
      "name": "safeTransferFrom",
      "outputs": [],
      "stateMutability": "nonpayable",
      "type": "function"
    },
    {
      "inputs": [
        {
          "internalType": "address",
          "name": "from",
          "type": "address"
        },
        {
          "internalType": "address",
          "name": "to",
          "type": "address"
        },
        {
          "internalType": "uint256",
          "name": "tokenId",
          "type": "uint256"
        },
        {
          "internalType": "bytes",
          "name": "_data",
          "type": "bytes"
        }
      ],
      "name": "safeTransferFrom",
      "outputs": [],
      "stateMutability": "nonpayable",
      "type": "function"
    },
    {
      "inputs": [
        {
          "internalType": "address",
          "name": "operator",
          "type": "address"
        },
        {
          "internalType": "bool",
          "name": "approved",
          "type": "bool"
        }
      ],
      "name": "setApprovalForAll",
      "outputs": [],
      "stateMutability": "nonpayable",
      "type": "function"
    },
    {
      "inputs": [
        {
          "internalType": "string",
          "name": "_dHash",
          "type": "string"
        }
      ],
      "name": "submitData",
      "outputs": [],
      "stateMutability": "nonpayable",
      "type": "function"
    },
    {
      "inputs": [
        {
          "internalType": "bytes4",
          "name": "interfaceId",
          "type": "bytes4"
        }
      ],
      "name": "supportsInterface",
      "outputs": [
        {
          "internalType": "bool",
          "name": "",
          "type": "bool"
        }
      ],
      "stateMutability": "view",
      "type": "function"
    },
    {
      "inputs": [],
      "name": "symbol",
      "outputs": [
        {
          "internalType": "string",
          "name": "",
          "type": "string"
        }
      ],
      "stateMutability": "view",
      "type": "function"
    },
    {
      "inputs": [
        {
          "internalType": "uint256",
          "name": "tokenId",
          "type": "uint256"
        }
      ],
      "name": "tokenURI",
      "outputs": [
        {
          "internalType": "string",
          "name": "",
          "type": "string"
        }
      ],
      "stateMutability": "view",
      "type": "function"
    },
    {
      "inputs": [
        {
          "internalType": "address",
          "name": "from",
          "type": "address"
        },
        {
          "internalType": "address",
          "name": "to",
          "type": "address"
        },
        {
          "internalType": "uint256",
          "name": "tokenId",
          "type": "uint256"
        }
      ],
      "name": "transferFrom",
      "outputs": [],
      "stateMutability": "nonpayable",
      "type": "function"
    }
  ],
  "bytecode": "0x60806040523480156200001157600080fd5b50604051620023dc380380620023dc83398101604081905262000034916200020a565b81818181818181600090805190602001906200005292919062000097565b5080516200006890600190602084019062000097565b5050506200008260066200008e60201b62000f6a1760201c565b505050505050620002b1565b80546001019055565b828054620000a59062000274565b90600052602060002090601f016020900481019282620000c9576000855562000114565b82601f10620000e457805160ff191683800117855562000114565b8280016001018555821562000114579182015b8281111562000114578251825591602001919060010190620000f7565b506200012292915062000126565b5090565b5b8082111562000122576000815560010162000127565b634e487b7160e01b600052604160045260246000fd5b600082601f8301126200016557600080fd5b81516001600160401b03808211156200018257620001826200013d565b604051601f8301601f19908116603f01168101908282118183101715620001ad57620001ad6200013d565b81604052838152602092508683858801011115620001ca57600080fd5b600091505b83821015620001ee5785820183015181830184015290820190620001cf565b83821115620002005760008385830101525b9695505050505050565b600080604083850312156200021e57600080fd5b82516001600160401b03808211156200023657600080fd5b620002448683870162000153565b935060208501519150808211156200025b57600080fd5b506200026a8582860162000153565b9150509250929050565b600181811c908216806200028957607f821691505b60208210811415620002ab57634e487b7160e01b600052602260045260246000fd5b50919050565b61211b80620002c16000396000f3fe6080604052600436106101665760003560e01c806391f8b695116100d1578063b88d4fde1161008a578063c87b56dd11610064578063c87b56dd14610469578063d75efb0b14610489578063e985e9c5146104a9578063ef4a7203146104f257600080fd5b8063b88d4fde14610409578063bcc5060a14610429578063c5d56ec71461044957600080fd5b806391f8b6951461032c578063942e6bcf1461033f57806395d89b411461037c578063a22cb46514610391578063a2aac7ab146103b1578063aac8d1db146103d157600080fd5b80632dd97672116101235780632dd976721461027757806342842e0e146102975780636352211e146102b75780636439b3ca146102d757806370a08231146102f757806375f577fb1461031757600080fd5b806301ffc9a71461016b57806306fdde03146101a0578063081812fc146101c2578063095ea7b3146101fa5780630ce5aeef1461021c57806323b872dd14610257575b600080fd5b34801561017757600080fd5b5061018b61018636600461194b565b610528565b60405190151581526020015b60405180910390f35b3480156101ac57600080fd5b506101b561057a565b60405161019791906119c0565b3480156101ce57600080fd5b506101e26101dd3660046119d3565b61060c565b6040516001600160a01b039091168152602001610197565b34801561020657600080fd5b5061021a610215366004611a08565b6106a6565b005b34801561022857600080fd5b50610249610237366004611a32565b60076020526000908152604090205481565b604051908152602001610197565b34801561026357600080fd5b5061021a610272366004611a4d565b6107bc565b34801561028357600080fd5b50610249610292366004611a89565b6107ed565b3480156102a357600080fd5b5061021a6102b2366004611a4d565b61081e565b3480156102c357600080fd5b506101e26102d23660046119d3565b610839565b3480156102e357600080fd5b506102496102f2366004611a89565b6108b0565b34801561030357600080fd5b50610249610312366004611a32565b610907565b34801561032357600080fd5b5061021a61098e565b61021a61033a366004611aab565b610a0a565b34801561034b57600080fd5b5061036f61035a366004611a32565b60086020526000908152604090205460ff1681565b6040516101979190611aed565b34801561038857600080fd5b506101b5610acc565b34801561039d57600080fd5b5061021a6103ac366004611b15565b610adb565b3480156103bd57600080fd5b5061021a6103cc366004611bf0565b610aea565b3480156103dd57600080fd5b506102496103ec366004611a89565b600f60209081526000928352604080842090915290825290205481565b34801561041557600080fd5b5061021a610424366004611c39565b610b61565b34801561043557600080fd5b5061021a610444366004611aab565b610b99565b34801561045557600080fd5b5061021a6104643660046119d3565b610c5d565b34801561047557600080fd5b506101b56104843660046119d3565b610cec565b34801561049557600080fd5b5061021a6104a4366004611d44565b610dd4565b3480156104b557600080fd5b5061018b6104c4366004611e06565b6001600160a01b03918216600090815260056020908152604080832093909416825291909152205460ff1690565b3480156104fe57600080fd5b5061024961050d366004611a32565b6001600160a01b031660009081526007602052604090205490565b60006001600160e01b031982166380ac58cd60e01b148061055957506001600160e01b03198216635b5e139f60e01b145b8061057457506301ffc9a760e01b6001600160e01b03198316145b92915050565b60606000805461058990611e39565b80601f01602080910402602001604051908101604052809291908181526020018280546105b590611e39565b80156106025780601f106105d757610100808354040283529160200191610602565b820191906000526020600020905b8154815290600101906020018083116105e557829003601f168201915b5050505050905090565b6000818152600260205260408120546001600160a01b031661068a5760405162461bcd60e51b815260206004820152602c60248201527f4552433732313a20617070726f76656420717565727920666f72206e6f6e657860448201526b34b9ba32b73a103a37b5b2b760a11b60648201526084015b60405180910390fd5b506000908152600460205260409020546001600160a01b031690565b60006106b182610839565b9050806001600160a01b0316836001600160a01b0316141561071f5760405162461bcd60e51b815260206004820152602160248201527f4552433732313a20617070726f76616c20746f2063757272656e74206f776e656044820152603960f91b6064820152608401610681565b336001600160a01b038216148061073b575061073b81336104c4565b6107ad5760405162461bcd60e51b815260206004820152603860248201527f4552433732313a20617070726f76652063616c6c6572206973206e6f74206f7760448201527f6e6572206e6f7220617070726f76656420666f7220616c6c00000000000000006064820152608401610681565b6107b78383610f73565b505050565b6107c63382610fe1565b6107e25760405162461bcd60e51b815260040161068190611e74565b6107b78383836110d8565b6010602052816000526040600020818154811061080957600080fd5b90600052602060002001600091509150505481565b6107b783838360405180602001604052806000815250610b61565b6000818152600260205260408120546001600160a01b0316806105745760405162461bcd60e51b815260206004820152602960248201527f4552433732313a206f776e657220717565727920666f72206e6f6e657869737460448201526832b73a103a37b5b2b760b91b6064820152608401610681565b6000828152600c602052604081208054829190849081106108d3576108d3611ec5565b90600052602060002001549050600e81815481106108f3576108f3611ec5565b906000526020600020015491505092915050565b60006001600160a01b0382166109725760405162461bcd60e51b815260206004820152602a60248201527f4552433732313a2062616c616e636520717565727920666f7220746865207a65604482015269726f206164647265737360b01b6064820152608401610681565b506001600160a01b031660009081526003602052604090205490565b3360009081526008602052604081205460ff1660018111156109b2576109b2611ad7565b146109ff5760405162461bcd60e51b815260206004820152601d60248201527f52454a5556453a204f6e65206964656e746974792070657220757365720000006044820152606401610681565b610a07611274565b50565b60013360009081526008602052604090205460ff166001811115610a3057610a30611ad7565b14610a4d5760405162461bcd60e51b815260040161068190611edb565b610a5683610839565b6001600160a01b0316336001600160a01b031614610a865760405162461bcd60e51b815260040161068190611f0b565b60408051848152602081018490529081018290527f510e852b17b79f6282c2d20611b138322b036171eedc658841fcc0d2403d53bb9060600160405180910390a1505050565b60606001805461058990611e39565b610ae63383836112c6565b5050565b60013360009081526008602052604090205460ff166001811115610b1057610b10611ad7565b14610b2d5760405162461bcd60e51b815260040161068190611edb565b600081604051602001610b409190611f50565b604051602081830303815290604052805190602001209050610ae681611395565b610b6b3383610fe1565b610b875760405162461bcd60e51b815260040161068190611e74565b610b938484848461141b565b50505050565b60013360009081526008602052604090205460ff166001811115610bbf57610bbf611ad7565b14610bdc5760405162461bcd60e51b815260040161068190611edb565b6000828152600a60209081526040808320543384526007909252909120548391908114610c4b5760405162461bcd60e51b815260206004820152601760248201527f52454a5556453a204f6e6c792044617461204f776e65720000000000000000006044820152606401610681565b610c5685858561144e565b5050505050565b3360009081526007602052604090205481908114610cbd5760405162461bcd60e51b815260206004820152601b60248201527f52454a5556453a204f6e6c79204964656e74697479204f776e657200000000006044820152606401610681565b610cc682611500565b5050336000908152600860209081526040808320805460ff191690556007909152812055565b6000818152600260205260409020546060906001600160a01b0316610d6b5760405162461bcd60e51b815260206004820152602f60248201527f4552433732314d657461646174613a2055524920717565727920666f72206e6f60448201526e3732bc34b9ba32b73a103a37b5b2b760891b6064820152608401610681565b6000610d8260408051602081019091526000815290565b90506000815111610da25760405180602001604052806000815250610dcd565b80610dac8461159b565b604051602001610dbd929190611f6c565b6040516020818303038152906040525b9392505050565b60013360009081526008602052604090205460ff166001811115610dfa57610dfa611ad7565b14610e175760405162461bcd60e51b815260040161068190611edb565b610e2084610839565b6001600160a01b0316336001600160a01b031614610e505760405162461bcd60e51b815260040161068190611f0b565b60005b600e54811015610f5f576001600d6000858481518110610e7557610e75611ec5565b6020908102919091018101518252818101929092526040908101600090812088825290925290205460ff166002811115610eb157610eb1611ad7565b1415610f4d57818181518110610ec957610ec9611ec5565b6020026020010151600f6000600e8481548110610ee857610ee8611ec5565b60009182526020808320909101548352828101939093526040918201812088825283528181209390935560109091529020600e805483908110610f2d57610f2d611ec5565b600091825260208083209091015483546001810185559383529120909101555b80610f5781611fb1565b915050610e53565b50610b933384611699565b80546001019055565b600081815260046020526040902080546001600160a01b0319166001600160a01b0384169081179091558190610fa882610839565b6001600160a01b03167f8c5be1e5ebec7d5bd14f71427d1e84f3dd0314c0f7b2291e5b200ac8c7c3b92560405160405180910390a45050565b6000818152600260205260408120546001600160a01b031661105a5760405162461bcd60e51b815260206004820152602c60248201527f4552433732313a206f70657261746f7220717565727920666f72206e6f6e657860448201526b34b9ba32b73a103a37b5b2b760a11b6064820152608401610681565b600061106583610839565b9050806001600160a01b0316846001600160a01b031614806110a05750836001600160a01b03166110958461060c565b6001600160a01b0316145b806110d057506001600160a01b0380821660009081526005602090815260408083209388168352929052205460ff165b949350505050565b826001600160a01b03166110eb82610839565b6001600160a01b03161461114f5760405162461bcd60e51b815260206004820152602560248201527f4552433732313a207472616e736665722066726f6d20696e636f72726563742060448201526437bbb732b960d91b6064820152608401610681565b6001600160a01b0382166111b15760405162461bcd60e51b8152602060048201526024808201527f4552433732313a207472616e7366657220746f20746865207a65726f206164646044820152637265737360e01b6064820152608401610681565b6111bc600082610f73565b6001600160a01b03831660009081526003602052604081208054600192906111e5908490611fcc565b90915550506001600160a01b0382166000908152600360205260408120805460019290611213908490611fe3565b909155505060008181526002602052604080822080546001600160a01b0319166001600160a01b0386811691821790925591518493918716917fddf252ad1be2c89b69c2b068fc378daa952ba7f163c4a11628f55a4df523b3ef91a4505050565b60008061128060065490565b9050611290600680546001019055565b61129a3382611699565b33600090815260076020908152604080832084905560089091529020805460ff19166001179055919050565b816001600160a01b0316836001600160a01b031614156113285760405162461bcd60e51b815260206004820152601960248201527f4552433732313a20617070726f766520746f2063616c6c6572000000000000006044820152606401610681565b6001600160a01b03838116600081815260056020908152604080832094871680845294825291829020805460ff191686151590811790915591519182527f17307eab39ab6107e8899845ad3d59bd9653f200f220920489ca2b5937696c31910160405180910390a3505050565b600e80546001818101835560008381527fbb7b4a454dc3493923482f07822329ed19e8244eff582cc204f8554c3620c3fd909201849055915490916113d991611fcc565b33600090815260076020908152604080832054808452600c835281842080546001810182559085528385200194909455948252600a9052929092209190915550565b6114268484846110d8565b611432848484846116b3565b610b935760405162461bcd60e51b815260040161068190611ffb565b6040805160208082018690528183018590526060808301859052835180840390910181526080830180855281519183019190912033600090815260078452858120548152600b845285812080546001808201835591835285832001839055888252600d8552868220888352909452859020805460ff191690931790925581905291517fa3d61b9cdf744675cae28d310353843537e9170210b3511e84bfe222b01b40ee9181900360a00190a150505050565b600061150b82610839565b9050611518600083610f73565b6001600160a01b0381166000908152600360205260408120805460019290611541908490611fcc565b909155505060008281526002602052604080822080546001600160a01b0319169055518391906001600160a01b038416907fddf252ad1be2c89b69c2b068fc378daa952ba7f163c4a11628f55a4df523b3ef908390a45050565b6060816115bf5750506040805180820190915260018152600360fc1b602082015290565b8160005b81156115e957806115d381611fb1565b91506115e29050600a83612063565b91506115c3565b60008167ffffffffffffffff81111561160457611604611b51565b6040519080825280601f01601f19166020018201604052801561162e576020820181803683370190505b5090505b84156110d057611643600183611fcc565b9150611650600a86612077565b61165b906030611fe3565b60f81b81838151811061167057611670611ec5565b60200101906001600160f81b031916908160001a905350611692600a86612063565b9450611632565b610ae68282604051806020016040528060008152506117c0565b60006001600160a01b0384163b156117b557604051630a85bd0160e11b81526001600160a01b0385169063150b7a02906116f790339089908890889060040161208b565b602060405180830381600087803b15801561171157600080fd5b505af1925050508015611741575060408051601f3d908101601f1916820190925261173e918101906120c8565b60015b61179b573d80801561176f576040519150601f19603f3d011682016040523d82523d6000602084013e611774565b606091505b5080516117935760405162461bcd60e51b815260040161068190611ffb565b805181602001fd5b6001600160e01b031916630a85bd0160e11b1490506110d0565b506001949350505050565b6117ca83836117f3565b6117d760008484846116b3565b6107b75760405162461bcd60e51b815260040161068190611ffb565b6001600160a01b0382166118495760405162461bcd60e51b815260206004820181905260248201527f4552433732313a206d696e7420746f20746865207a65726f20616464726573736044820152606401610681565b6000818152600260205260409020546001600160a01b0316156118ae5760405162461bcd60e51b815260206004820152601c60248201527f4552433732313a20746f6b656e20616c7265616479206d696e746564000000006044820152606401610681565b6001600160a01b03821660009081526003602052604081208054600192906118d7908490611fe3565b909155505060008181526002602052604080822080546001600160a01b0319166001600160a01b03861690811790915590518392907fddf252ad1be2c89b69c2b068fc378daa952ba7f163c4a11628f55a4df523b3ef908290a45050565b6001600160e01b031981168114610a0757600080fd5b60006020828403121561195d57600080fd5b8135610dcd81611935565b60005b8381101561198357818101518382015260200161196b565b83811115610b935750506000910152565b600081518084526119ac816020860160208601611968565b601f01601f19169290920160200192915050565b602081526000610dcd6020830184611994565b6000602082840312156119e557600080fd5b5035919050565b80356001600160a01b0381168114611a0357600080fd5b919050565b60008060408385031215611a1b57600080fd5b611a24836119ec565b946020939093013593505050565b600060208284031215611a4457600080fd5b610dcd826119ec565b600080600060608486031215611a6257600080fd5b611a6b846119ec565b9250611a79602085016119ec565b9150604084013590509250925092565b60008060408385031215611a9c57600080fd5b50508035926020909101359150565b600080600060608486031215611ac057600080fd5b505081359360208301359350604090920135919050565b634e487b7160e01b600052602160045260246000fd5b6020810160028310611b0f57634e487b7160e01b600052602160045260246000fd5b91905290565b60008060408385031215611b2857600080fd5b611b31836119ec565b915060208301358015158114611b4657600080fd5b809150509250929050565b634e487b7160e01b600052604160045260246000fd5b604051601f8201601f1916810167ffffffffffffffff81118282101715611b9057611b90611b51565b604052919050565b600067ffffffffffffffff831115611bb257611bb2611b51565b611bc5601f8401601f1916602001611b67565b9050828152838383011115611bd957600080fd5b828260208301376000602084830101529392505050565b600060208284031215611c0257600080fd5b813567ffffffffffffffff811115611c1957600080fd5b8201601f81018413611c2a57600080fd5b6110d084823560208401611b98565b60008060008060808587031215611c4f57600080fd5b611c58856119ec565b9350611c66602086016119ec565b925060408501359150606085013567ffffffffffffffff811115611c8957600080fd5b8501601f81018713611c9a57600080fd5b611ca987823560208401611b98565b91505092959194509250565b600067ffffffffffffffff821115611ccf57611ccf611b51565b5060051b60200190565b600082601f830112611cea57600080fd5b81356020611cff611cfa83611cb5565b611b67565b82815260059290921b84018101918181019086841115611d1e57600080fd5b8286015b84811015611d395780358352918301918301611d22565b509695505050505050565b60008060008060808587031215611d5a57600080fd5b843593506020808601359350604086013567ffffffffffffffff80821115611d8157600080fd5b818801915088601f830112611d9557600080fd5b8135611da3611cfa82611cb5565b81815260059190911b8301840190848101908b831115611dc257600080fd5b938501935b82851015611de057843582529385019390850190611dc7565b965050506060880135925080831115611df857600080fd5b5050611ca987828801611cd9565b60008060408385031215611e1957600080fd5b611e22836119ec565b9150611e30602084016119ec565b90509250929050565b600181811c90821680611e4d57607f821691505b60208210811415611e6e57634e487b7160e01b600052602260045260246000fd5b50919050565b60208082526031908201527f4552433732313a207472616e736665722063616c6c6572206973206e6f74206f6040820152701ddb995c881b9bdc88185c1c1c9bdd9959607a1b606082015260800190565b634e487b7160e01b600052603260045260246000fd5b6020808252601690820152751491529555914e88139bdd08149959da5cdd195c995960521b604082015260600190565b60208082526025908201527f52454a5556453a2043616c6c6572206973206e6f74206f776e6572206f66204c604082015264185888125160da1b606082015260800190565b60008251611f62818460208701611968565b9190910192915050565b60008351611f7e818460208801611968565b835190830190611f92818360208801611968565b01949350505050565b634e487b7160e01b600052601160045260246000fd5b6000600019821415611fc557611fc5611f9b565b5060010190565b600082821015611fde57611fde611f9b565b500390565b60008219821115611ff657611ff6611f9b565b500190565b60208082526032908201527f4552433732313a207472616e7366657220746f206e6f6e20455243373231526560408201527131b2b4bb32b91034b6b83632b6b2b73a32b960711b606082015260800190565b634e487b7160e01b600052601260045260246000fd5b6000826120725761207261204d565b500490565b6000826120865761208661204d565b500690565b6001600160a01b03858116825284166020820152604081018390526080606082018190526000906120be90830184611994565b9695505050505050565b6000602082840312156120da57600080fd5b8151610dcd8161193556fea2646970667358221220fb125a7b090b79941426cb26fdf39654acdd82dc4961a889a1c1332843dda49b64736f6c63430008090033",
  "linkReferences": {},
  "deployedLinkReferences": {}
}