{
  "_format": "hh-sol-artifact-1",
  "contractName": "ProductNFT",
  "sourceName": "contracts/ProductNFT.sol",
  "abi": [
    {
      "inputs": [
        {
          "internalType": "string",
          "name": "name",
          "type": "string"
        },
        {
          "internalType": "string",
          "name": "symbol",
          "type": "string"
        },
        {
          "internalType": "address",
          "name": "signer",
          "type": "address"
        },
        {
          "internalType": "contract IIdentityToken",
          "name": "identityToken_",
          "type": "address"
        },
        {
          "internalType": "contract IDataManagement",
          "name": "dataMgt_",
          "type": "address"
        }
      ],
      "stateMutability": "nonpayable",
      "type": "constructor"
    },
    {
      "anonymous": false,
      "inputs": [
        {
          "indexed": true,
          "internalType": "address",
          "name": "owner",
          "type": "address"
        },
        {
          "indexed": true,
          "internalType": "address",
          "name": "approved",
          "type": "address"
        },
        {
          "indexed": true,
          "internalType": "uint256",
          "name": "tokenId",
          "type": "uint256"
        }
      ],
      "name": "Approval",
      "type": "event"
    },
    {
      "anonymous": false,
      "inputs": [
        {
          "indexed": true,
          "internalType": "address",
          "name": "owner",
          "type": "address"
        },
        {
          "indexed": true,
          "internalType": "address",
          "name": "operator",
          "type": "address"
        },
        {
          "indexed": false,
          "internalType": "bool",
          "name": "approved",
          "type": "bool"
        }
      ],
      "name": "ApprovalForAll",
      "type": "event"
    },
    {
      "anonymous": false,
      "inputs": [
        {
          "indexed": false,
          "internalType": "uint256",
          "name": "_fromTokenId",
          "type": "uint256"
        },
        {
          "indexed": false,
          "internalType": "uint256",
          "name": "_toTokenId",
          "type": "uint256"
        }
      ],
      "name": "BatchMetadataUpdate",
      "type": "event"
    },
    {
      "anonymous": false,
      "inputs": [
        {
          "indexed": false,
          "internalType": "uint256",
          "name": "_tokenId",
          "type": "uint256"
        }
      ],
      "name": "MetadataUpdate",
      "type": "event"
    },
    {
      "anonymous": false,
      "inputs": [
        {
          "indexed": false,
          "internalType": "uint256",
          "name": "productUID",
          "type": "uint256"
        },
        {
          "indexed": false,
          "internalType": "bytes[]",
          "name": "dataHash",
          "type": "bytes[]"
        },
        {
          "indexed": false,
          "internalType": "uint256[]",
          "name": "creditScore",
          "type": "uint256[]"
        }
      ],
      "name": "NewDataLinked",
      "type": "event"
    },
    {
      "anonymous": false,
      "inputs": [
        {
          "indexed": false,
          "internalType": "address",
          "name": "account",
          "type": "address"
        }
      ],
      "name": "Paused",
      "type": "event"
    },
    {
      "anonymous": false,
      "inputs": [
        {
          "indexed": false,
          "internalType": "uint256",
          "name": "productUID",
          "type": "uint256"
        },
        {
          "indexed": false,
          "internalType": "address",
          "name": "productCreator",
          "type": "address"
        },
        {
          "indexed": false,
          "internalType": "string",
          "name": "productURI",
          "type": "string"
        },
        {
          "indexed": false,
          "internalType": "bytes[]",
          "name": "datahashes",
          "type": "bytes[]"
        },
        {
          "indexed": false,
          "internalType": "uint256[]",
          "name": "creditScore",
          "type": "uint256[]"
        }
      ],
      "name": "ProductCreated",
      "type": "event"
    },
    {
      "anonymous": false,
      "inputs": [
        {
          "indexed": true,
          "internalType": "bytes32",
          "name": "role",
          "type": "bytes32"
        },
        {
          "indexed": true,
          "internalType": "bytes32",
          "name": "previousAdminRole",
          "type": "bytes32"
        },
        {
          "indexed": true,
          "internalType": "bytes32",
          "name": "newAdminRole",
          "type": "bytes32"
        }
      ],
      "name": "RoleAdminChanged",
      "type": "event"
    },
    {
      "anonymous": false,
      "inputs": [
        {
          "indexed": true,
          "internalType": "bytes32",
          "name": "role",
          "type": "bytes32"
        },
        {
          "indexed": true,
          "internalType": "address",
          "name": "account",
          "type": "address"
        },
        {
          "indexed": true,
          "internalType": "address",
          "name": "sender",
          "type": "address"
        }
      ],
      "name": "RoleGranted",
      "type": "event"
    },
    {
      "anonymous": false,
      "inputs": [
        {
          "indexed": true,
          "internalType": "bytes32",
          "name": "role",
          "type": "bytes32"
        },
        {
          "indexed": true,
          "internalType": "address",
          "name": "account",
          "type": "address"
        },
        {
          "indexed": true,
          "internalType": "address",
          "name": "sender",
          "type": "address"
        }
      ],
      "name": "RoleRevoked",
      "type": "event"
    },
    {
      "anonymous": false,
      "inputs": [
        {
          "indexed": true,
          "internalType": "address",
          "name": "from",
          "type": "address"
        },
        {
          "indexed": true,
          "internalType": "address",
          "name": "to",
          "type": "address"
        },
        {
          "indexed": true,
          "internalType": "uint256",
          "name": "tokenId",
          "type": "uint256"
        }
      ],
      "name": "Transfer",
      "type": "event"
    },
    {
      "anonymous": false,
      "inputs": [
        {
          "indexed": false,
          "internalType": "address",
          "name": "account",
          "type": "address"
        }
      ],
      "name": "Unpaused",
      "type": "event"
    },
    {
      "inputs": [],
      "name": "DEFAULT_ADMIN_ROLE",
      "outputs": [
        {
          "internalType": "bytes32",
          "name": "",
          "type": "bytes32"
        }
      ],
      "stateMutability": "view",
      "type": "function"
    },
    {
      "inputs": [],
      "name": "PAUSER_ROLE",
      "outputs": [
        {
          "internalType": "bytes32",
          "name": "",
          "type": "bytes32"
        }
      ],
      "stateMutability": "view",
      "type": "function"
    },
    {
      "inputs": [],
      "name": "SIGNER_ROLE",
      "outputs": [
        {
          "internalType": "bytes32",
          "name": "",
          "type": "bytes32"
        }
      ],
      "stateMutability": "view",
      "type": "function"
    },
    {
      "inputs": [
        {
          "internalType": "address",
          "name": "to",
          "type": "address"
        },
        {
          "internalType": "uint256",
          "name": "tokenId",
          "type": "uint256"
        }
      ],
      "name": "approve",
      "outputs": [],
      "stateMutability": "nonpayable",
      "type": "function"
    },
    {
      "inputs": [
        {
          "internalType": "address",
          "name": "owner",
          "type": "address"
        }
      ],
      "name": "balanceOf",
      "outputs": [
        {
          "internalType": "uint256",
          "name": "",
          "type": "uint256"
        }
      ],
      "stateMutability": "view",
      "type": "function"
    },
    {
      "inputs": [
        {
          "internalType": "uint256",
          "name": "productUID",
          "type": "uint256"
        },
        {
          "internalType": "uint256",
          "name": "nonce",
          "type": "uint256"
        },
        {
          "internalType": "string",
          "name": "productURI",
          "type": "string"
        },
        {
          "internalType": "address",
          "name": "signer",
          "type": "address"
        },
        {
          "internalType": "bytes",
          "name": "signature",
          "type": "bytes"
        },
        {
          "internalType": "bytes[]",
          "name": "dataHashes",
          "type": "bytes[]"
        },
        {
          "internalType": "uint256[]",
          "name": "creditScores",
          "type": "uint256[]"
        }
      ],
      "name": "createProduct",
      "outputs": [],
      "stateMutability": "nonpayable",
      "type": "function"
    },
    {
      "inputs": [
        {
          "internalType": "uint256",
          "name": "tokenId",
          "type": "uint256"
        }
      ],
      "name": "getApproved",
      "outputs": [
        {
          "internalType": "address",
          "name": "",
          "type": "address"
        }
      ],
      "stateMutability": "view",
      "type": "function"
    },
    {
      "inputs": [
        {
          "internalType": "bytes",
          "name": "dHash",
          "type": "bytes"
        },
        {
          "internalType": "uint256",
          "name": "productUID",
          "type": "uint256"
        }
      ],
      "name": "getDataCredit",
      "outputs": [
        {
          "internalType": "uint256",
          "name": "",
          "type": "uint256"
        }
      ],
      "stateMutability": "view",
      "type": "function"
    },
    {
      "inputs": [
        {
          "internalType": "bytes",
          "name": "dHash",
          "type": "bytes"
        }
      ],
      "name": "getDataOwnerAddress",
      "outputs": [
        {
          "internalType": "address",
          "name": "",
          "type": "address"
        }
      ],
      "stateMutability": "view",
      "type": "function"
    },
    {
      "inputs": [
        {
          "internalType": "uint256",
          "name": "productUID",
          "type": "uint256"
        }
      ],
      "name": "getInitialDataLength",
      "outputs": [
        {
          "internalType": "uint256",
          "name": "",
          "type": "uint256"
        }
      ],
      "stateMutability": "view",
      "type": "function"
    },
    {
      "inputs": [
        {
          "internalType": "uint256",
          "name": "productUID",
          "type": "uint256"
        }
      ],
      "name": "getProductToData",
      "outputs": [
        {
          "internalType": "bytes[]",
          "name": "",
          "type": "bytes[]"
        }
      ],
      "stateMutability": "view",
      "type": "function"
    },
    {
      "inputs": [
        {
          "internalType": "bytes32",
          "name": "role",
          "type": "bytes32"
        }
      ],
      "name": "getRoleAdmin",
      "outputs": [
        {
          "internalType": "bytes32",
          "name": "",
          "type": "bytes32"
        }
      ],
      "stateMutability": "view",
      "type": "function"
    },
    {
      "inputs": [
        {
          "internalType": "bytes32",
          "name": "role",
          "type": "bytes32"
        },
        {
          "internalType": "address",
          "name": "account",
          "type": "address"
        }
      ],
      "name": "grantRole",
      "outputs": [],
      "stateMutability": "nonpayable",
      "type": "function"
    },
    {
      "inputs": [
        {
          "internalType": "bytes32",
          "name": "role",
          "type": "bytes32"
        },
        {
          "internalType": "address",
          "name": "account",
          "type": "address"
        }
      ],
      "name": "hasRole",
      "outputs": [
        {
          "internalType": "bool",
          "name": "",
          "type": "bool"
        }
      ],
      "stateMutability": "view",
      "type": "function"
    },
    {
      "inputs": [
        {
          "internalType": "address",
          "name": "owner",
          "type": "address"
        },
        {
          "internalType": "address",
          "name": "operator",
          "type": "address"
        }
      ],
      "name": "isApprovedForAll",
      "outputs": [
        {
          "internalType": "bool",
          "name": "",
          "type": "bool"
        }
      ],
      "stateMutability": "view",
      "type": "function"
    },
    {
      "inputs": [
        {
          "internalType": "uint256",
          "name": "productUID",
          "type": "uint256"
        },
        {
          "internalType": "uint256",
          "name": "nonce",
          "type": "uint256"
        },
        {
          "internalType": "string",
          "name": "productURI",
          "type": "string"
        },
        {
          "internalType": "address",
          "name": "signer",
          "type": "address"
        },
        {
          "internalType": "bytes",
          "name": "signature",
          "type": "bytes"
        },
        {
          "internalType": "bytes[]",
          "name": "newDataHashes",
          "type": "bytes[]"
        },
        {
          "internalType": "uint256[]",
          "name": "creditScores",
          "type": "uint256[]"
        }
      ],
      "name": "linkNewData",
      "outputs": [],
      "stateMutability": "nonpayable",
      "type": "function"
    },
    {
      "inputs": [],
      "name": "name",
      "outputs": [
        {
          "internalType": "string",
          "name": "",
          "type": "string"
        }
      ],
      "stateMutability": "view",
      "type": "function"
    },
    {
      "inputs": [
        {
          "internalType": "uint256",
          "name": "tokenId",
          "type": "uint256"
        }
      ],
      "name": "ownerOf",
      "outputs": [
        {
          "internalType": "address",
          "name": "",
          "type": "address"
        }
      ],
      "stateMutability": "view",
      "type": "function"
    },
    {
      "inputs": [],
      "name": "pause",
      "outputs": [],
      "stateMutability": "nonpayable",
      "type": "function"
    },
    {
      "inputs": [],
      "name": "paused",
      "outputs": [
        {
          "internalType": "bool",
          "name": "",
          "type": "bool"
        }
      ],
      "stateMutability": "view",
      "type": "function"
    },
    {
      "inputs": [
        {
          "internalType": "bytes32",
          "name": "role",
          "type": "bytes32"
        },
        {
          "internalType": "address",
          "name": "account",
          "type": "address"
        }
      ],
      "name": "renounceRole",
      "outputs": [],
      "stateMutability": "nonpayable",
      "type": "function"
    },
    {
      "inputs": [
        {
          "internalType": "bytes32",
          "name": "role",
          "type": "bytes32"
        },
        {
          "internalType": "address",
          "name": "account",
          "type": "address"
        }
      ],
      "name": "revokeRole",
      "outputs": [],
      "stateMutability": "nonpayable",
      "type": "function"
    },
    {
      "inputs": [
        {
          "internalType": "address",
          "name": "from",
          "type": "address"
        },
        {
          "internalType": "address",
          "name": "to",
          "type": "address"
        },
        {
          "internalType": "uint256",
          "name": "tokenId",
          "type": "uint256"
        }
      ],
      "name": "safeTransferFrom",
      "outputs": [],
      "stateMutability": "nonpayable",
      "type": "function"
    },
    {
      "inputs": [
        {
          "internalType": "address",
          "name": "from",
          "type": "address"
        },
        {
          "internalType": "address",
          "name": "to",
          "type": "address"
        },
        {
          "internalType": "uint256",
          "name": "tokenId",
          "type": "uint256"
        },
        {
          "internalType": "bytes",
          "name": "data",
          "type": "bytes"
        }
      ],
      "name": "safeTransferFrom",
      "outputs": [],
      "stateMutability": "nonpayable",
      "type": "function"
    },
    {
      "inputs": [
        {
          "internalType": "address",
          "name": "operator",
          "type": "address"
        },
        {
          "internalType": "bool",
          "name": "approved",
          "type": "bool"
        }
      ],
      "name": "setApprovalForAll",
      "outputs": [],
      "stateMutability": "nonpayable",
      "type": "function"
    },
    {
      "inputs": [
        {
          "internalType": "bytes4",
          "name": "interfaceId",
          "type": "bytes4"
        }
      ],
      "name": "supportsInterface",
      "outputs": [
        {
          "internalType": "bool",
          "name": "",
          "type": "bool"
        }
      ],
      "stateMutability": "view",
      "type": "function"
    },
    {
      "inputs": [],
      "name": "symbol",
      "outputs": [
        {
          "internalType": "string",
          "name": "",
          "type": "string"
        }
      ],
      "stateMutability": "view",
      "type": "function"
    },
    {
      "inputs": [
        {
          "internalType": "uint256",
          "name": "tokenId",
          "type": "uint256"
        }
      ],
      "name": "tokenURI",
      "outputs": [
        {
          "internalType": "string",
          "name": "",
          "type": "string"
        }
      ],
      "stateMutability": "view",
      "type": "function"
    },
    {
      "inputs": [
        {
          "internalType": "address",
          "name": "from",
          "type": "address"
        },
        {
          "internalType": "address",
          "name": "to",
          "type": "address"
        },
        {
          "internalType": "uint256",
          "name": "tokenId",
          "type": "uint256"
        }
      ],
      "name": "transferFrom",
      "outputs": [],
      "stateMutability": "nonpayable",
      "type": "function"
    },
    {
      "inputs": [],
      "name": "unpause",
      "outputs": [],
      "stateMutability": "nonpayable",
      "type": "function"
    }
  ],
  "bytecode": "0x608060405234801562000010575f80fd5b5060405162006de238038062006de2833981810160405281019062000036919062000658565b8484815f908162000048919062000951565b5080600190816200005a919062000951565b5050505f60085f6101000a81548160ff021916908315150217905550620000926791b7f54e99aba99e60c01b6200029460201b60201c565b620000ae6773b831411b7c57dc60c01b6200029460201b60201c565b81600860016101000a81548173ffffffffffffffffffffffffffffffffffffffff021916908373ffffffffffffffffffffffffffffffffffffffff1602179055506200010b67069a073b11c75d5860c01b6200029460201b60201c565b8060095f6101000a81548173ffffffffffffffffffffffffffffffffffffffff021916908373ffffffffffffffffffffffffffffffffffffffff1602179055506200016767c8742d2de1fb49a160c01b6200029460201b60201c565b6200018367bc85a1c3b5dce19160c01b6200029460201b60201c565b620001a65f801b6200019a6200029760201b60201c565b6200029e60201b60201c565b620001c267e851b298499b0c0b60c01b6200029460201b60201c565b620001de6742a79aa04ebbab4a60c01b6200029460201b60201c565b6200021f7f65d7a28e3265b37a6474929f336521b332c1681b933f6cb9f3376673440d862a620002136200029760201b60201c565b6200029e60201b60201c565b6200023b67556b333e8cebcf1860c01b6200029460201b60201c565b6200025767884991b74907405360c01b6200029460201b60201c565b620002897fe2f4eaae4a9751e85a3e4a7b9587827a877f29914755229b07a7b2da98285f70846200029e60201b60201c565b505050505062000a35565b50565b5f33905090565b620002b082826200038a60201b60201c565b6200038657600160075f8481526020019081526020015f205f015f8373ffffffffffffffffffffffffffffffffffffffff1673ffffffffffffffffffffffffffffffffffffffff1681526020019081526020015f205f6101000a81548160ff0219169083151502179055506200032b6200029760201b60201c565b73ffffffffffffffffffffffffffffffffffffffff168173ffffffffffffffffffffffffffffffffffffffff16837f2f8788117e7eff1d82e926ec794901d17c78024a50270940304540a733656f0d60405160405180910390a45b5050565b5f60075f8481526020019081526020015f205f015f8373ffffffffffffffffffffffffffffffffffffffff1673ffffffffffffffffffffffffffffffffffffffff1681526020019081526020015f205f9054906101000a900460ff16905092915050565b5f604051905090565b5f80fd5b5f80fd5b5f80fd5b5f80fd5b5f601f19601f8301169050919050565b7f4e487b71000000000000000000000000000000000000000000000000000000005f52604160045260245ffd5b6200044f8262000407565b810181811067ffffffffffffffff8211171562000471576200047062000417565b5b80604052505050565b5f62000485620003ee565b905062000493828262000444565b919050565b5f67ffffffffffffffff821115620004b557620004b462000417565b5b620004c08262000407565b9050602081019050919050565b5f5b83811015620004ec578082015181840152602081019050620004cf565b5f8484015250505050565b5f6200050d620005078462000498565b6200047a565b9050828152602081018484840111156200052c576200052b62000403565b5b62000539848285620004cd565b509392505050565b5f82601f830112620005585762000557620003ff565b5b81516200056a848260208601620004f7565b91505092915050565b5f73ffffffffffffffffffffffffffffffffffffffff82169050919050565b5f6200059e8262000573565b9050919050565b620005b08162000592565b8114620005bb575f80fd5b50565b5f81519050620005ce81620005a5565b92915050565b5f620005e08262000592565b9050919050565b620005f281620005d4565b8114620005fd575f80fd5b50565b5f815190506200061081620005e7565b92915050565b5f620006228262000592565b9050919050565b620006348162000616565b81146200063f575f80fd5b50565b5f81519050620006528162000629565b92915050565b5f805f805f60a08688031215620006745762000673620003f7565b5b5f86015167ffffffffffffffff811115620006945762000693620003fb565b5b620006a28882890162000541565b955050602086015167ffffffffffffffff811115620006c657620006c5620003fb565b5b620006d48882890162000541565b9450506040620006e788828901620005be565b9350506060620006fa8882890162000600565b92505060806200070d8882890162000642565b9150509295509295909350565b5f81519050919050565b7f4e487b71000000000000000000000000000000000000000000000000000000005f52602260045260245ffd5b5f60028204905060018216806200076957607f821691505b6020821081036200077f576200077e62000724565b5b50919050565b5f819050815f5260205f209050919050565b5f6020601f8301049050919050565b5f82821b905092915050565b5f60088302620007e37fffffffffffffffffffffffffffffffffffffffffffffffffffffffffffffffff82620007a6565b620007ef8683620007a6565b95508019841693508086168417925050509392505050565b5f819050919050565b5f819050919050565b5f62000839620008336200082d8462000807565b62000810565b62000807565b9050919050565b5f819050919050565b620008548362000819565b6200086c620008638262000840565b848454620007b2565b825550505050565b5f90565b6200088262000874565b6200088f81848462000849565b505050565b5b81811015620008b657620008aa5f8262000878565b60018101905062000895565b5050565b601f8211156200090557620008cf8162000785565b620008da8462000797565b81016020851015620008ea578190505b62000902620008f98562000797565b83018262000894565b50505b505050565b5f82821c905092915050565b5f620009275f19846008026200090a565b1980831691505092915050565b5f62000941838362000916565b9150826002028217905092915050565b6200095c826200071a565b67ffffffffffffffff81111562000978576200097762000417565b5b62000984825462000751565b62000991828285620008ba565b5f60209050601f831160018114620009c7575f8415620009b2578287015190505b620009be858262000934565b86555062000a2d565b601f198416620009d78662000785565b5f5b8281101562000a0057848901518255600182019150602085019450602081019050620009d9565b8683101562000a20578489015162000a1c601f89168262000916565b8355505b6001600288020188555050505b505050505050565b61639f8062000a435f395ff3fe608060405234801561000f575f80fd5b50600436106101d8575f3560e01c80636352211e11610102578063a217fddf116100a0578063c9187fe71161006f578063c9187fe714610562578063d547741f14610592578063e63ab1e9146105ae578063e985e9c5146105cc576101d8565b8063a217fddf146104dc578063a22cb465146104fa578063b88d4fde14610516578063c87b56dd14610532576101d8565b806384ffeca5116100dc57806384ffeca51461044057806391d148541461047057806395d89b41146104a0578063a1ebf35d146104be576101d8565b80636352211e146103d657806370a08231146104065780638456cb5914610436576101d8565b806323b872dd1161017a5780633f4ba83a116101495780633f4ba83a1461036257806342842e0e1461036c57806359a96ffe146103885780635c975abb146103b8576101d8565b806323b872dd146102de578063248a9ca3146102fa5780632f2ff15d1461032a57806336568abe14610346576101d8565b8063095ea7b3116101b6578063095ea7b31461025a5780630e47cefa1461027657806318c85b4d146102a65780632306cc1a146102c2576101d8565b806301ffc9a7146101dc57806306fdde031461020c578063081812fc1461022a575b5f80fd5b6101f660048036038101906101f19190613e6f565b6105fc565b6040516102039190613eb4565b60405180910390f35b6102146106e9565b6040516102219190613f57565b60405180910390f35b610244600480360381019061023f9190613faa565b610778565b6040516102519190614014565b60405180910390f35b610274600480360381019061026f9190614057565b6107ba565b005b610290600480360381019061028b91906141c1565b6108d0565b60405161029d919061422a565b60405180910390f35b6102c060048036038101906102bb9190614483565b610943565b005b6102dc60048036038101906102d79190614483565b610e3e565b005b6102f860048036038101906102f39190614590565b6112fe565b005b610314600480360381019061030f9190614613565b61135e565b604051610321919061464d565b60405180910390f35b610344600480360381019061033f9190614666565b61137b565b005b610360600480360381019061035b9190614666565b61139c565b005b61036a61141f565b005b61038660048036038101906103819190614590565b611525565b005b6103a2600480360381019061039d91906146a4565b611544565b6040516103af9190614014565b60405180910390f35b6103c06116ba565b6040516103cd9190613eb4565b60405180910390f35b6103f060048036038101906103eb9190613faa565b6116cf565b6040516103fd9190614014565b60405180910390f35b610420600480360381019061041b91906146eb565b611753565b60405161042d919061422a565b60405180910390f35b61043e611807565b005b61045a60048036038101906104559190613faa565b61190d565b604051610467919061422a565b60405180910390f35b61048a60048036038101906104859190614666565b611963565b6040516104979190613eb4565b60405180910390f35b6104a86119c7565b6040516104b59190613f57565b60405180910390f35b6104c6611a57565b6040516104d3919061464d565b60405180910390f35b6104e4611a7b565b6040516104f1919061464d565b60405180910390f35b610514600480360381019061050f9190614740565b611a81565b005b610530600480360381019061052b919061477e565b611a97565b005b61054c60048036038101906105479190613faa565b611af9565b6040516105599190613f57565b60405180910390f35b61057c60048036038101906105779190613faa565b611c03565b604051610589919061490b565b60405180910390f35b6105ac60048036038101906105a79190614666565b611d24565b005b6105b6611d45565b6040516105c3919061464d565b60405180910390f35b6105e660048036038101906105e1919061492b565b611d69565b6040516105f39190613eb4565b60405180910390f35b5f61061167f568949a1d46c31160c01b611df7565b610625679c6ca2050eac41a960c01b611df7565b610639673b7a4dba6d35da5e60c01b611df7565b7f7965db0b000000000000000000000000000000000000000000000000000000007bffffffffffffffffffffffffffffffffffffffffffffffffffffffff1916827bffffffffffffffffffffffffffffffffffffffffffffffffffffffff19161480156106b657506106b567801ba502f2c6bf1160c01b611dfa565b5b806106e257506106c582611e04565b80156106e157506106e0678eb186398041258660c01b611dfa565b5b5b9050919050565b60605f80546106f790614996565b80601f016020809104026020016040519081016040528092919081815260200182805461072390614996565b801561076e5780601f106107455761010080835404028352916020019161076e565b820191905f5260205f20905b81548152906001019060200180831161075157829003601f168201915b5050505050905090565b5f61078282611e7d565b60045f8381526020019081526020015f205f9054906101000a900473ffffffffffffffffffffffffffffffffffffffff169050919050565b5f6107c4826116cf565b90508073ffffffffffffffffffffffffffffffffffffffff168373ffffffffffffffffffffffffffffffffffffffff1603610834576040517f08c379a000000000000000000000000000000000000000000000000000000000815260040161082b90614a36565b60405180910390fd5b8073ffffffffffffffffffffffffffffffffffffffff16610853611ec8565b73ffffffffffffffffffffffffffffffffffffffff16148061088257506108818161087c611ec8565b611d69565b5b6108c1576040517f08c379a00000000000000000000000000000000000000000000000000000000081526004016108b890614ac4565b60405180910390fd5b6108cb8383611ecf565b505050565b5f6108e567d3ab3706538c607e60c01b611df7565b6108f967424ae4de1f02d77660c01b611df7565b61090d670c0678dcb80aed3560c01b611df7565b600b8360405161091d9190614b1c565b90815260200160405180910390205f8381526020019081526020015f2054905092915050565b61095767f0c3a64976a34aaf60c01b611df7565b61095f611f85565b61097367599656c989367c7c60c01b611df7565b610987677e5d1f71750d5ccd60c01b611df7565b61099b67890a607d2a7d56a160c01b611df7565b6109af67c4f8168df162e01b60c01b611df7565b6109c367a287f18ff6014a4060c01b611df7565b6001600860019054906101000a900473ffffffffffffffffffffffffffffffffffffffff1673ffffffffffffffffffffffffffffffffffffffff16634b557d8a610a0b611ec8565b6040518263ffffffff1660e01b8152600401610a279190614014565b602060405180830381865afa158015610a42573d5f803e3d5ffd5b505050506040513d601f19601f82011682018060405250810190610a669190614b68565b60ff1614610aa9576040517f08c379a0000000000000000000000000000000000000000000000000000000008152600401610aa090614bdd565b60405180910390fd5b610abd673626ab2af9872a6360c01b611df7565b610ad167d46c039310b96dcc60c01b611df7565b610ae567bb3ad54ce4a9831b60c01b611df7565b610af967fe67eca6a7282e1060c01b611df7565b8051825114610b3d576040517f08c379a0000000000000000000000000000000000000000000000000000000008152600401610b3490614c45565b60405180910390fd5b610b516729501ab718374a3160c01b611df7565b610b656769162c11b393323c60c01b611df7565b610b7967d76da1896a629ce960c01b611df7565b610b8d6748463660a13759de60c01b611df7565b5f73ffffffffffffffffffffffffffffffffffffffff168473ffffffffffffffffffffffffffffffffffffffff1603610bfb576040517f08c379a0000000000000000000000000000000000000000000000000000000008152600401610bf290614cad565b60405180910390fd5b610c0f67aa0102e351ae035a60c01b611df7565b610c23672c138e46e6b6322060c01b611df7565b610c376755a8aaee0f70614760c01b611df7565b610c4b673d9291da4e4b23fd60c01b611df7565b610c757fe2f4eaae4a9751e85a3e4a7b9587827a877f29914755229b07a7b2da98285f7085611963565b610cb4576040517f08c379a0000000000000000000000000000000000000000000000000000000008152600401610cab90614d15565b60405180910390fd5b610cc867fc4fe69e5d15a51f60c01b611df7565b610cdc67699db8821ab42c4460c01b611df7565b610cf0674a27e8a24a2dc55d60c01b611df7565b610d046709bb68161f21c93160c01b611df7565b610d1387878787878688611fcf565b610d52576040517f08c379a0000000000000000000000000000000000000000000000000000000008152600401610d4990614da3565b60405180910390fd5b610d66679f9afd5afed3b78e60c01b611df7565b610d7a67e8485bfff219fa0960c01b611df7565b610d8e679eafebffab367e8d60c01b611df7565b610da267c1c6b1c72d6faa4b60c01b611df7565b610dad87838361227d565b15610ded576040517f08c379a0000000000000000000000000000000000000000000000000000000008152600401610de490614e0b565b60405180910390fd5b610e0167b6789c498904a6a360c01b611df7565b610e1567c194e8623c23115060c01b611df7565b610e29674f8ed618a0b9444f60c01b611df7565b610e3587868484612577565b50505050505050565b610e5267843e702393ef02c760c01b611df7565b610e5a611f85565b610e6e67814150dc2aac92fa60c01b611df7565b610e82670798a5e28541fd4f60c01b611df7565b610e96671609c9a2da4d60a760c01b611df7565b610eaa672cc52113e106e2a860c01b611df7565b610ebe67bff564f770bdb1c960c01b611df7565b610ec7876116cf565b73ffffffffffffffffffffffffffffffffffffffff16610ee5611ec8565b73ffffffffffffffffffffffffffffffffffffffff1614610f3b576040517f08c379a0000000000000000000000000000000000000000000000000000000008152600401610f3290614e73565b60405180910390fd5b610f4f67a4e3dba8589099a260c01b611df7565b610f6367573c11436e8ea3cc60c01b611df7565b610f77678ef428b2cd48393460c01b611df7565b610f8b678daec05e0abe04ce60c01b611df7565b8051825114610fcf576040517f08c379a0000000000000000000000000000000000000000000000000000000008152600401610fc690614c45565b60405180910390fd5b610fe367699bc41147dfe41b60c01b611df7565b610ff767c1f3ef84cf9204b760c01b611df7565b61100a6680ec7ed33897a460c01b611df7565b61101e67ee4eec55b14ae45560c01b611df7565b5f73ffffffffffffffffffffffffffffffffffffffff168473ffffffffffffffffffffffffffffffffffffffff160361108c576040517f08c379a000000000000000000000000000000000000000000000000000000000815260040161108390614cad565b60405180910390fd5b6110a067ff89bdd9a4ced85b60c01b611df7565b6110b467cfe62afc27931cff60c01b611df7565b6110c8675c18ea965092f37660c01b611df7565b6110dc6764ec12f895a8175b60c01b611df7565b6111067fe2f4eaae4a9751e85a3e4a7b9587827a877f29914755229b07a7b2da98285f7085611963565b611145576040517f08c379a000000000000000000000000000000000000000000000000000000000815260040161113c90614d15565b60405180910390fd5b611159679fdb0f565a6972ac60c01b611df7565b61116d67a9e49c1f916010ee60c01b611df7565b611181678f1f8a00b3fabf0b60c01b611df7565b61119567f8b49263641b4b6260c01b611df7565b6111a487878787878688611fcf565b6111e3576040517f08c379a00000000000000000000000000000000000000000000000000000000081526004016111da90614da3565b60405180910390fd5b6111f767c49c50e1fea8b76f60c01b611df7565b61120b6707c33744b56be08860c01b611df7565b61121f67d6019cfc53b1778d60c01b611df7565b6112336791057aeef0acc85f60c01b611df7565b61123e87838361227d565b1561127e576040517f08c379a000000000000000000000000000000000000000000000000000000000815260040161127590614e0b565b60405180910390fd5b611292678fe25817b3f777a160c01b611df7565b6112a66740206735d0302e3b60c01b611df7565b6112ba67d3eedd9f007f70ca60c01b611df7565b7f0d5bcc3cb98adc5778f35c805a29156280afd1cfe4d8c019920fc995578784bd8783836040516112ed93929190614f48565b60405180910390a150505050505050565b61130f611309611ec8565b82612694565b61134e576040517f08c379a000000000000000000000000000000000000000000000000000000000815260040161134590614ffb565b60405180910390fd5b611359838383612728565b505050565b5f60075f8381526020019081526020015f20600101549050919050565b6113848261135e565b61138d81612a14565b6113978383612a28565b505050565b6113a4611ec8565b73ffffffffffffffffffffffffffffffffffffffff168173ffffffffffffffffffffffffffffffffffffffff1614611411576040517f08c379a000000000000000000000000000000000000000000000000000000000815260040161140890615089565b60405180910390fd5b61141b8282612b03565b5050565b611433678866dd8963a86c4860c01b611df7565b61144767e78f3a0d07ee112e60c01b611df7565b61145b6745ff8a15ba1d751e60c01b611df7565b61146f6793472cf651a4408f60c01b611df7565b6114a07f65d7a28e3265b37a6474929f336521b332c1681b933f6cb9f3376673440d862a61149b611ec8565b611963565b6114df576040517f08c379a00000000000000000000000000000000000000000000000000000000081526004016114d690615117565b60405180910390fd5b6114f36793efe9cb958852fe60c01b611df7565b61150767e57cee1f1425ff0460c01b611df7565b61151b67260e63fe2293259c60c01b611df7565b611523612bde565b565b61153f83838360405180602001604052805f815250611a97565b505050565b5f6115596792b5dfb95e50e97f60c01b611df7565b61156d67994448251e1b971f60c01b611df7565b6115816774208ba5f7e299d660c01b611df7565b600860019054906101000a900473ffffffffffffffffffffffffffffffffffffffff1673ffffffffffffffffffffffffffffffffffffffff16636352211e60095f9054906101000a900473ffffffffffffffffffffffffffffffffffffffff1673ffffffffffffffffffffffffffffffffffffffff1663a3085ce8856040518263ffffffff1660e01b8152600401611619919061517d565b602060405180830381865afa158015611634573d5f803e3d5ffd5b505050506040513d601f19601f8201168201806040525081019061165891906151b1565b6040518263ffffffff1660e01b8152600401611674919061422a565b602060405180830381865afa15801561168f573d5f803e3d5ffd5b505050506040513d601f19601f820116820180604052508101906116b391906151f0565b9050919050565b5f60085f9054906101000a900460ff16905090565b5f806116da83612c3f565b90505f73ffffffffffffffffffffffffffffffffffffffff168173ffffffffffffffffffffffffffffffffffffffff160361174a576040517f08c379a000000000000000000000000000000000000000000000000000000000815260040161174190615265565b60405180910390fd5b80915050919050565b5f8073ffffffffffffffffffffffffffffffffffffffff168273ffffffffffffffffffffffffffffffffffffffff16036117c2576040517f08c379a00000000000000000000000000000000000000000000000000000000081526004016117b9906152f3565b60405180910390fd5b60035f8373ffffffffffffffffffffffffffffffffffffffff1673ffffffffffffffffffffffffffffffffffffffff1681526020019081526020015f20549050919050565b61181b6783ff8594f677885c60c01b611df7565b61182f67a80c28c436df67d760c01b611df7565b611843675acad2aa72b8804560c01b611df7565b61185767fdeb2b0e86afedea60c01b611df7565b6118887f65d7a28e3265b37a6474929f336521b332c1681b933f6cb9f3376673440d862a611883611ec8565b611963565b6118c7576040517f08c379a00000000000000000000000000000000000000000000000000000000081526004016118be90615381565b60405180910390fd5b6118db677fa05c5f869e868960c01b611df7565b6118ef6707e510b296979b9260c01b611df7565b6119036771bde085cfc845ff60c01b611df7565b61190b612c78565b565b5f61192267bc330b5cd39a3d0160c01b611df7565b61193667c4eb403533ed482460c01b611df7565b61194a6707fadc420102b60660c01b611df7565b600a5f8381526020019081526020015f20549050919050565b5f60075f8481526020019081526020015f205f015f8373ffffffffffffffffffffffffffffffffffffffff1673ffffffffffffffffffffffffffffffffffffffff1681526020019081526020015f205f9054906101000a900460ff16905092915050565b6060600180546119d690614996565b80601f0160208091040260200160405190810160405280929190818152602001828054611a0290614996565b8015611a4d5780601f10611a2457610100808354040283529160200191611a4d565b820191905f5260205f20905b815481529060010190602001808311611a3057829003601f168201915b5050505050905090565b7fe2f4eaae4a9751e85a3e4a7b9587827a877f29914755229b07a7b2da98285f7081565b5f801b81565b611a93611a8c611ec8565b8383612cda565b5050565b611aa8611aa2611ec8565b83612694565b611ae7576040517f08c379a0000000000000000000000000000000000000000000000000000000008152600401611ade90614ffb565b60405180910390fd5b611af384848484612e41565b50505050565b6060611b0482611e7d565b5f60065f8481526020019081526020015f208054611b2190614996565b80601f0160208091040260200160405190810160405280929190818152602001828054611b4d90614996565b8015611b985780601f10611b6f57610100808354040283529160200191611b98565b820191905f5260205f20905b815481529060010190602001808311611b7b57829003601f168201915b505050505090505f611ba8612e9d565b90505f815103611bbc578192505050611bfe565b5f82511115611bf0578082604051602001611bd89291906153d9565b60405160208183030381529060405292505050611bfe565b611bf984612eb3565b925050505b919050565b6060611c1967b1fa626bf1342a7960c01b611df7565b611c2d678666c689182af16b60c01b611df7565b611c4167e343e67c6e1b7f0260c01b611df7565b600c5f8381526020019081526020015f20805480602002602001604051908101604052809291908181526020015f905b82821015611d19578382905f5260205f20018054611c8e90614996565b80601f0160208091040260200160405190810160405280929190818152602001828054611cba90614996565b8015611d055780601f10611cdc57610100808354040283529160200191611d05565b820191905f5260205f20905b815481529060010190602001808311611ce857829003601f168201915b505050505081526020019060010190611c71565b505050509050919050565b611d2d8261135e565b611d3681612a14565b611d408383612b03565b505050565b7f65d7a28e3265b37a6474929f336521b332c1681b933f6cb9f3376673440d862a81565b5f60055f8473ffffffffffffffffffffffffffffffffffffffff1673ffffffffffffffffffffffffffffffffffffffff1681526020019081526020015f205f8373ffffffffffffffffffffffffffffffffffffffff1673ffffffffffffffffffffffffffffffffffffffff1681526020019081526020015f205f9054906101000a900460ff16905092915050565b50565b5f60019050919050565b5f7f7965db0b000000000000000000000000000000000000000000000000000000007bffffffffffffffffffffffffffffffffffffffffffffffffffffffff1916827bffffffffffffffffffffffffffffffffffffffffffffffffffffffff19161480611e765750611e7582612f18565b5b9050919050565b611e8681612f78565b611ec5576040517f08c379a0000000000000000000000000000000000000000000000000000000008152600401611ebc90615265565b60405180910390fd5b50565b5f33905090565b8160045f8381526020019081526020015f205f6101000a81548173ffffffffffffffffffffffffffffffffffffffff021916908373ffffffffffffffffffffffffffffffffffffffff160217905550808273ffffffffffffffffffffffffffffffffffffffff16611f3f836116cf565b73ffffffffffffffffffffffffffffffffffffffff167f8c5be1e5ebec7d5bd14f71427d1e84f3dd0314c0f7b2291e5b200ac8c7c3b92560405160405180910390a45050565b611f8d6116ba565b15611fcd576040517f08c379a0000000000000000000000000000000000000000000000000000000008152600401611fc490615446565b60405180910390fd5b565b5f611fe467584a6b9c6638d75a60c01b611df7565b611ff867ad4e42f5c317072e60c01b611df7565b61200c671c0213257307c38f60c01b611df7565b612020673116b1e19032001260c01b611df7565b600d5f8881526020019081526020015f205f9054906101000a900460ff161561207e576040517f08c379a0000000000000000000000000000000000000000000000000000000008152600401612075906154ae565b60405180910390fd5b612092674cfa544257de1c4460c01b611df7565b6120a667c85f9a47a2b6633a60c01b611df7565b6001600d5f8981526020019081526020015f205f6101000a81548160ff0219169083151502179055506120e3679102f71b46f4962460c01b611df7565b6120f76742b3dd35f4c3484760c01b611df7565b5f82604051602001612109919061490b565b60405160208183030381529060405280519060200120905061213567543c3ac826e840a160c01b611df7565b61214967e8af0464ba2bc76060c01b611df7565b5f898989898589612158611ec8565b306040516020016121709897969594939291906155dd565b60405160208183030381529060405280519060200120905061219c672fddcf8ca048680f60c01b611df7565b6121b0672ddb0eff3f805f1060c01b611df7565b5f6121cc876121be84612fb8565b612feb90919063ffffffff16565b90506121e26791153eb5d333b30760c01b611df7565b6121f667d79d0184d935f35860c01b611df7565b8073ffffffffffffffffffffffffffffffffffffffff168873ffffffffffffffffffffffffffffffffffffffff160361225a5761223d67d4d317556ef56b9560c01b611df7565b61225167bc021970b7c1f1b060c01b611df7565b6001935061226f565b61226e6731a3f5f78667e03d60c01b611df7565b5b505050979650505050505050565b5f61229267675ebddc7e462b3f60c01b611df7565b6122a6672dfc2b8ca230d3ea60c01b611df7565b6122ba67c78deaa7cbe459fd60c01b611df7565b5f835190506122d367f858f5c26b24379060c01b611df7565b6122e767934729b5044e1c6060c01b611df7565b5f5b8181101561254657612305679268663b219743b360c01b611df7565b61231967122f9567404bf99a60c01b611df7565b600160095f9054906101000a900473ffffffffffffffffffffffffffffffffffffffff1673ffffffffffffffffffffffffffffffffffffffff16635f233dab87848151811061236b5761236a615666565b5b6020026020010151896040518363ffffffff1660e01b8152600401612391929190615693565b602060405180830381865afa1580156123ac573d5f803e3d5ffd5b505050506040513d601f19601f820116820180604052508101906123d09190614b68565b60ff16036124ee576123ec671d0d9e63c37c820d60c01b611df7565b612400676aef9f935418b8d060c01b611df7565b83818151811061241357612412615666565b5b6020026020010151600b8683815181106124305761242f615666565b5b60200260200101516040516124459190614b1c565b90815260200160405180910390205f8881526020019081526020015f208190555061247a67eb54c5443595bd9f60c01b611df7565b61248e6792f6578219dd83d260c01b611df7565b600c5f8781526020019081526020015f208582815181106124b2576124b1615666565b5b6020026020010151908060018154018082558091505060019003905f5260205f20015f9091909190915090816124e8919061585e565b50612533565b612502671087eb780e3db05d60c01b611df7565b6125166757270fb9b033fe5c60c01b611df7565b6001925061252e67d079465862547fdc60c01b611df7565b612546565b808061253e9061595a565b9150506122e9565b5061255b67eff92ae17995c81860c01b611df7565b61256f6767cbbf75f98f438360c01b611df7565b509392505050565b61258b676f80d2100b202fe460c01b611df7565b61259f674aab46082b48ec5760c01b611df7565b8151600a5f8681526020019081526020015f20819055506125ca67e9f04767dd26419d60c01b611df7565b6125dd66839339059c86fe60c01b611df7565b7f63e2c6c753e1a52720e4b2722de8cbd9f2cdec7877e7b337c2fbce63533511d684612607611ec8565b85858560405161261b9594939291906159a1565b60405180910390a161263767c78df6c1b65f336660c01b611df7565b61264b6739cd6965a11e391260c01b611df7565b61265c612656611ec8565b85613010565b612670671d6d7aa39393392e60c01b611df7565b61268467de77459b272deaa260c01b611df7565b61268e848461302d565b50505050565b5f8061269f836116cf565b90508073ffffffffffffffffffffffffffffffffffffffff168473ffffffffffffffffffffffffffffffffffffffff1614806126e157506126e08185611d69565b5b8061271f57508373ffffffffffffffffffffffffffffffffffffffff1661270784610778565b73ffffffffffffffffffffffffffffffffffffffff16145b91505092915050565b8273ffffffffffffffffffffffffffffffffffffffff16612748826116cf565b73ffffffffffffffffffffffffffffffffffffffff161461279e576040517f08c379a000000000000000000000000000000000000000000000000000000000815260040161279590615a77565b60405180910390fd5b5f73ffffffffffffffffffffffffffffffffffffffff168273ffffffffffffffffffffffffffffffffffffffff160361280c576040517f08c379a000000000000000000000000000000000000000000000000000000000815260040161280390615b05565b60405180910390fd5b61281983838360016130cf565b8273ffffffffffffffffffffffffffffffffffffffff16612839826116cf565b73ffffffffffffffffffffffffffffffffffffffff161461288f576040517f08c379a000000000000000000000000000000000000000000000000000000000815260040161288690615a77565b60405180910390fd5b60045f8281526020019081526020015f205f6101000a81549073ffffffffffffffffffffffffffffffffffffffff0219169055600160035f8573ffffffffffffffffffffffffffffffffffffffff1673ffffffffffffffffffffffffffffffffffffffff1681526020019081526020015f205f8282540392505081905550600160035f8473ffffffffffffffffffffffffffffffffffffffff1673ffffffffffffffffffffffffffffffffffffffff1681526020019081526020015f205f82825401925050819055508160025f8381526020019081526020015f205f6101000a81548173ffffffffffffffffffffffffffffffffffffffff021916908373ffffffffffffffffffffffffffffffffffffffff160217905550808273ffffffffffffffffffffffffffffffffffffffff168473ffffffffffffffffffffffffffffffffffffffff167fddf252ad1be2c89b69c2b068fc378daa952ba7f163c4a11628f55a4df523b3ef60405160405180910390a4612a0f83838360016130d5565b505050565b612a2581612a20611ec8565b6130db565b50565b612a328282611963565b612aff57600160075f8481526020019081526020015f205f015f8373ffffffffffffffffffffffffffffffffffffffff1673ffffffffffffffffffffffffffffffffffffffff1681526020019081526020015f205f6101000a81548160ff021916908315150217905550612aa4611ec8565b73ffffffffffffffffffffffffffffffffffffffff168173ffffffffffffffffffffffffffffffffffffffff16837f2f8788117e7eff1d82e926ec794901d17c78024a50270940304540a733656f0d60405160405180910390a45b5050565b612b0d8282611963565b15612bda575f60075f8481526020019081526020015f205f015f8373ffffffffffffffffffffffffffffffffffffffff1673ffffffffffffffffffffffffffffffffffffffff1681526020019081526020015f205f6101000a81548160ff021916908315150217905550612b7f611ec8565b73ffffffffffffffffffffffffffffffffffffffff168173ffffffffffffffffffffffffffffffffffffffff16837ff6391f5c32d9c69d2a47ea670b442974b53935d1edc7fd64eb21e047a839171b60405160405180910390a45b5050565b612be661315f565b5f60085f6101000a81548160ff0219169083151502179055507f5db9ee0a495bf2e6ff9c91a7834c1ba4fdd244a5e8aa4e537bd38aeae4b073aa612c28611ec8565b604051612c359190614014565b60405180910390a1565b5f60025f8381526020019081526020015f205f9054906101000a900473ffffffffffffffffffffffffffffffffffffffff169050919050565b612c80611f85565b600160085f6101000a81548160ff0219169083151502179055507f62e78cea01bee320cd4e420270b5ea74000d11b0c9f74754ebdbfc544b05a258612cc3611ec8565b604051612cd09190614014565b60405180910390a1565b8173ffffffffffffffffffffffffffffffffffffffff168373ffffffffffffffffffffffffffffffffffffffff1603612d48576040517f08c379a0000000000000000000000000000000000000000000000000000000008152600401612d3f90615b6d565b60405180910390fd5b8060055f8573ffffffffffffffffffffffffffffffffffffffff1673ffffffffffffffffffffffffffffffffffffffff1681526020019081526020015f205f8473ffffffffffffffffffffffffffffffffffffffff1673ffffffffffffffffffffffffffffffffffffffff1681526020019081526020015f205f6101000a81548160ff0219169083151502179055508173ffffffffffffffffffffffffffffffffffffffff168373ffffffffffffffffffffffffffffffffffffffff167f17307eab39ab6107e8899845ad3d59bd9653f200f220920489ca2b5937696c3183604051612e349190613eb4565b60405180910390a3505050565b612e4c848484612728565b612e58848484846131a8565b612e97576040517f08c379a0000000000000000000000000000000000000000000000000000000008152600401612e8e90615bfb565b60405180910390fd5b50505050565b606060405180602001604052805f815250905090565b6060612ebe82611e7d565b5f612ec7612e9d565b90505f815111612ee55760405180602001604052805f815250612f10565b80612eef8461332a565b604051602001612f009291906153d9565b6040516020818303038152906040525b915050919050565b5f634906490660e01b7bffffffffffffffffffffffffffffffffffffffffffffffffffffffff1916827bffffffffffffffffffffffffffffffffffffffffffffffffffffffff19161480612f715750612f70826133f4565b5b9050919050565b5f8073ffffffffffffffffffffffffffffffffffffffff16612f9983612c3f565b73ffffffffffffffffffffffffffffffffffffffff1614159050919050565b5f7f19457468657265756d205369676e6564204d6573736167653a0a3332000000005f5281601c52603c5f209050919050565b5f805f612ff885856134d5565b9150915061300581613521565b819250505092915050565b613029828260405180602001604052805f815250613686565b5050565b61303682612f78565b613075576040517f08c379a000000000000000000000000000000000000000000000000000000000815260040161306c90615c89565b60405180910390fd5b8060065f8481526020019081526020015f2090816130939190615cff565b507ff8e1a15aba9398e019f0b49df1a4fde98ee17ae345cb5f6b5e2c27f5033e8ce7826040516130c3919061422a565b60405180910390a15050565b50505050565b50505050565b6130e58282611963565b61315b576130f2816136e0565b6130ff835f1c602061370d565b604051602001613110929190615e62565b6040516020818303038152906040526040517f08c379a00000000000000000000000000000000000000000000000000000000081526004016131529190613f57565b60405180910390fd5b5050565b6131676116ba565b6131a6576040517f08c379a000000000000000000000000000000000000000000000000000000000815260040161319d90615ee5565b60405180910390fd5b565b5f6131c88473ffffffffffffffffffffffffffffffffffffffff16613942565b1561331d578373ffffffffffffffffffffffffffffffffffffffff1663150b7a026131f1611ec8565b8786866040518563ffffffff1660e01b81526004016132139493929190615f03565b6020604051808303815f875af192505050801561324e57506040513d601f19601f8201168201806040525081019061324b9190615f61565b60015b6132cd573d805f811461327c576040519150601f19603f3d011682016040523d82523d5f602084013e613281565b606091505b505f8151036132c5576040517f08c379a00000000000000000000000000000000000000000000000000000000081526004016132bc90615bfb565b60405180910390fd5b805181602001fd5b63150b7a0260e01b7bffffffffffffffffffffffffffffffffffffffffffffffffffffffff1916817bffffffffffffffffffffffffffffffffffffffffffffffffffffffff191614915050613322565b600190505b949350505050565b60605f600161333884613964565b0190505f8167ffffffffffffffff8111156133565761335561409d565b5b6040519080825280601f01601f1916602001820160405280156133885781602001600182028036833780820191505090505b5090505f82602001820190505b6001156133e9578080600190039150507f3031323334353637383961626364656600000000000000000000000000000000600a86061a8153600a85816133de576133dd615f8c565b5b0494505f8503613395575b819350505050919050565b5f7f80ac58cd000000000000000000000000000000000000000000000000000000007bffffffffffffffffffffffffffffffffffffffffffffffffffffffff1916827bffffffffffffffffffffffffffffffffffffffffffffffffffffffff191614806134be57507f5b5e139f000000000000000000000000000000000000000000000000000000007bffffffffffffffffffffffffffffffffffffffffffffffffffffffff1916827bffffffffffffffffffffffffffffffffffffffffffffffffffffffff1916145b806134ce57506134cd82613ab5565b5b9050919050565b5f806041835103613512575f805f602086015192506040860151915060608601515f1a905061350687828585613b1e565b9450945050505061351a565b5f6002915091505b9250929050565b5f600481111561353457613533615fb9565b5b81600481111561354757613546615fb9565b5b0315613683576001600481111561356157613560615fb9565b5b81600481111561357457613573615fb9565b5b036135b4576040517f08c379a00000000000000000000000000000000000000000000000000000000081526004016135ab90616030565b60405180910390fd5b600260048111156135c8576135c7615fb9565b5b8160048111156135db576135da615fb9565b5b0361361b576040517f08c379a000000000000000000000000000000000000000000000000000000000815260040161361290616098565b60405180910390fd5b6003600481111561362f5761362e615fb9565b5b81600481111561364257613641615fb9565b5b03613682576040517f08c379a000000000000000000000000000000000000000000000000000000000815260040161367990616126565b60405180910390fd5b5b50565b6136908383613bf6565b61369c5f8484846131a8565b6136db576040517f08c379a00000000000000000000000000000000000000000000000000000000081526004016136d290615bfb565b60405180910390fd5b505050565b60606137068273ffffffffffffffffffffffffffffffffffffffff16601460ff1661370d565b9050919050565b60605f600283600261371f9190616144565b6137299190616185565b67ffffffffffffffff8111156137425761374161409d565b5b6040519080825280601f01601f1916602001820160405280156137745781602001600182028036833780820191505090505b5090507f3000000000000000000000000000000000000000000000000000000000000000815f815181106137ab576137aa615666565b5b60200101907effffffffffffffffffffffffffffffffffffffffffffffffffffffffffffff191690815f1a9053507f78000000000000000000000000000000000000000000000000000000000000008160018151811061380e5761380d615666565b5b60200101907effffffffffffffffffffffffffffffffffffffffffffffffffffffffffffff191690815f1a9053505f600184600261384c9190616144565b6138569190616185565b90505b60018111156138f5577f3031323334353637383961626364656600000000000000000000000000000000600f86166010811061389857613897615666565b5b1a60f81b8282815181106138af576138ae615666565b5b60200101907effffffffffffffffffffffffffffffffffffffffffffffffffffffffffffff191690815f1a905350600485901c9450806138ee906161b8565b9050613859565b505f8414613938576040517f08c379a000000000000000000000000000000000000000000000000000000000815260040161392f90616229565b60405180910390fd5b8091505092915050565b5f808273ffffffffffffffffffffffffffffffffffffffff163b119050919050565b5f805f90507a184f03e93ff9f4daa797ed6e38ed64bf6a1f01000000000000000083106139c0577a184f03e93ff9f4daa797ed6e38ed64bf6a1f01000000000000000083816139b6576139b5615f8c565b5b0492506040810190505b6d04ee2d6d415b85acef810000000083106139fd576d04ee2d6d415b85acef810000000083816139f3576139f2615f8c565b5b0492506020810190505b662386f26fc100008310613a2c57662386f26fc100008381613a2257613a21615f8c565b5b0492506010810190505b6305f5e1008310613a55576305f5e1008381613a4b57613a4a615f8c565b5b0492506008810190505b6127108310613a7a576127108381613a7057613a6f615f8c565b5b0492506004810190505b60648310613a9d5760648381613a9357613a92615f8c565b5b0492506002810190505b600a8310613aac576001810190505b80915050919050565b5f7f01ffc9a7000000000000000000000000000000000000000000000000000000007bffffffffffffffffffffffffffffffffffffffffffffffffffffffff1916827bffffffffffffffffffffffffffffffffffffffffffffffffffffffff1916149050919050565b5f807f7fffffffffffffffffffffffffffffff5d576e7357a4501ddfe92f46681b20a0835f1c1115613b56575f600391509150613bed565b5f6001878787876040515f8152602001604052604051613b799493929190616256565b6020604051602081039080840390855afa158015613b99573d5f803e3d5ffd5b5050506020604051035190505f73ffffffffffffffffffffffffffffffffffffffff168173ffffffffffffffffffffffffffffffffffffffff1603613be5575f60019250925050613bed565b805f92509250505b94509492505050565b5f73ffffffffffffffffffffffffffffffffffffffff168273ffffffffffffffffffffffffffffffffffffffff1603613c64576040517f08c379a0000000000000000000000000000000000000000000000000000000008152600401613c5b906162e3565b60405180910390fd5b613c6d81612f78565b15613cad576040517f08c379a0000000000000000000000000000000000000000000000000000000008152600401613ca49061634b565b60405180910390fd5b613cba5f838360016130cf565b613cc381612f78565b15613d03576040517f08c379a0000000000000000000000000000000000000000000000000000000008152600401613cfa9061634b565b60405180910390fd5b600160035f8473ffffffffffffffffffffffffffffffffffffffff1673ffffffffffffffffffffffffffffffffffffffff1681526020019081526020015f205f82825401925050819055508160025f8381526020019081526020015f205f6101000a81548173ffffffffffffffffffffffffffffffffffffffff021916908373ffffffffffffffffffffffffffffffffffffffff160217905550808273ffffffffffffffffffffffffffffffffffffffff165f73ffffffffffffffffffffffffffffffffffffffff167fddf252ad1be2c89b69c2b068fc378daa952ba7f163c4a11628f55a4df523b3ef60405160405180910390a4613e055f838360016130d5565b5050565b5f604051905090565b5f80fd5b5f80fd5b5f7fffffffff0000000000000000000000000000000000000000000000000000000082169050919050565b613e4e81613e1a565b8114613e58575f80fd5b50565b5f81359050613e6981613e45565b92915050565b5f60208284031215613e8457613e83613e12565b5b5f613e9184828501613e5b565b91505092915050565b5f8115159050919050565b613eae81613e9a565b82525050565b5f602082019050613ec75f830184613ea5565b92915050565b5f81519050919050565b5f82825260208201905092915050565b5f5b83811015613f04578082015181840152602081019050613ee9565b5f8484015250505050565b5f601f19601f8301169050919050565b5f613f2982613ecd565b613f338185613ed7565b9350613f43818560208601613ee7565b613f4c81613f0f565b840191505092915050565b5f6020820190508181035f830152613f6f8184613f1f565b905092915050565b5f819050919050565b613f8981613f77565b8114613f93575f80fd5b50565b5f81359050613fa481613f80565b92915050565b5f60208284031215613fbf57613fbe613e12565b5b5f613fcc84828501613f96565b91505092915050565b5f73ffffffffffffffffffffffffffffffffffffffff82169050919050565b5f613ffe82613fd5565b9050919050565b61400e81613ff4565b82525050565b5f6020820190506140275f830184614005565b92915050565b61403681613ff4565b8114614040575f80fd5b50565b5f813590506140518161402d565b92915050565b5f806040838503121561406d5761406c613e12565b5b5f61407a85828601614043565b925050602061408b85828601613f96565b9150509250929050565b5f80fd5b5f80fd5b7f4e487b71000000000000000000000000000000000000000000000000000000005f52604160045260245ffd5b6140d382613f0f565b810181811067ffffffffffffffff821117156140f2576140f161409d565b5b80604052505050565b5f614104613e09565b905061411082826140ca565b919050565b5f67ffffffffffffffff82111561412f5761412e61409d565b5b61413882613f0f565b9050602081019050919050565b828183375f83830152505050565b5f61416561416084614115565b6140fb565b90508281526020810184848401111561418157614180614099565b5b61418c848285614145565b509392505050565b5f82601f8301126141a8576141a7614095565b5b81356141b8848260208601614153565b91505092915050565b5f80604083850312156141d7576141d6613e12565b5b5f83013567ffffffffffffffff8111156141f4576141f3613e16565b5b61420085828601614194565b925050602061421185828601613f96565b9150509250929050565b61422481613f77565b82525050565b5f60208201905061423d5f83018461421b565b92915050565b5f67ffffffffffffffff82111561425d5761425c61409d565b5b61426682613f0f565b9050602081019050919050565b5f61428561428084614243565b6140fb565b9050828152602081018484840111156142a1576142a0614099565b5b6142ac848285614145565b509392505050565b5f82601f8301126142c8576142c7614095565b5b81356142d8848260208601614273565b91505092915050565b5f67ffffffffffffffff8211156142fb576142fa61409d565b5b602082029050602081019050919050565b5f80fd5b5f61432261431d846142e1565b6140fb565b905080838252602082019050602084028301858111156143455761434461430c565b5b835b8181101561438c57803567ffffffffffffffff81111561436a57614369614095565b5b8086016143778982614194565b85526020850194505050602081019050614347565b5050509392505050565b5f82601f8301126143aa576143a9614095565b5b81356143ba848260208601614310565b91505092915050565b5f67ffffffffffffffff8211156143dd576143dc61409d565b5b602082029050602081019050919050565b5f6144006143fb846143c3565b6140fb565b905080838252602082019050602084028301858111156144235761442261430c565b5b835b8181101561444c57806144388882613f96565b845260208401935050602081019050614425565b5050509392505050565b5f82601f83011261446a57614469614095565b5b813561447a8482602086016143ee565b91505092915050565b5f805f805f805f60e0888a03121561449e5761449d613e12565b5b5f6144ab8a828b01613f96565b97505060206144bc8a828b01613f96565b965050604088013567ffffffffffffffff8111156144dd576144dc613e16565b5b6144e98a828b016142b4565b95505060606144fa8a828b01614043565b945050608088013567ffffffffffffffff81111561451b5761451a613e16565b5b6145278a828b01614194565b93505060a088013567ffffffffffffffff81111561454857614547613e16565b5b6145548a828b01614396565b92505060c088013567ffffffffffffffff81111561457557614574613e16565b5b6145818a828b01614456565b91505092959891949750929550565b5f805f606084860312156145a7576145a6613e12565b5b5f6145b486828701614043565b93505060206145c586828701614043565b92505060406145d686828701613f96565b9150509250925092565b5f819050919050565b6145f2816145e0565b81146145fc575f80fd5b50565b5f8135905061460d816145e9565b92915050565b5f6020828403121561462857614627613e12565b5b5f614635848285016145ff565b91505092915050565b614647816145e0565b82525050565b5f6020820190506146605f83018461463e565b92915050565b5f806040838503121561467c5761467b613e12565b5b5f614689858286016145ff565b925050602061469a85828601614043565b9150509250929050565b5f602082840312156146b9576146b8613e12565b5b5f82013567ffffffffffffffff8111156146d6576146d5613e16565b5b6146e284828501614194565b91505092915050565b5f60208284031215614700576146ff613e12565b5b5f61470d84828501614043565b91505092915050565b61471f81613e9a565b8114614729575f80fd5b50565b5f8135905061473a81614716565b92915050565b5f806040838503121561475657614755613e12565b5b5f61476385828601614043565b92505060206147748582860161472c565b9150509250929050565b5f805f806080858703121561479657614795613e12565b5b5f6147a387828801614043565b94505060206147b487828801614043565b93505060406147c587828801613f96565b925050606085013567ffffffffffffffff8111156147e6576147e5613e16565b5b6147f287828801614194565b91505092959194509250565b5f81519050919050565b5f82825260208201905092915050565b5f819050602082019050919050565b5f81519050919050565b5f82825260208201905092915050565b5f61484b82614827565b6148558185614831565b9350614865818560208601613ee7565b61486e81613f0f565b840191505092915050565b5f6148848383614841565b905092915050565b5f602082019050919050565b5f6148a2826147fe565b6148ac8185614808565b9350836020820285016148be85614818565b805f5b858110156148f957848403895281516148da8582614879565b94506148e58361488c565b925060208a019950506001810190506148c1565b50829750879550505050505092915050565b5f6020820190508181035f8301526149238184614898565b905092915050565b5f806040838503121561494157614940613e12565b5b5f61494e85828601614043565b925050602061495f85828601614043565b9150509250929050565b7f4e487b71000000000000000000000000000000000000000000000000000000005f52602260045260245ffd5b5f60028204905060018216806149ad57607f821691505b6020821081036149c0576149bf614969565b5b50919050565b7f4552433732313a20617070726f76616c20746f2063757272656e74206f776e655f8201527f7200000000000000000000000000000000000000000000000000000000000000602082015250565b5f614a20602183613ed7565b9150614a2b826149c6565b604082019050919050565b5f6020820190508181035f830152614a4d81614a14565b9050919050565b7f4552433732313a20617070726f76652063616c6c6572206973206e6f7420746f5f8201527f6b656e206f776e6572206f7220617070726f76656420666f7220616c6c000000602082015250565b5f614aae603d83613ed7565b9150614ab982614a54565b604082019050919050565b5f6020820190508181035f830152614adb81614aa2565b9050919050565b5f81905092915050565b5f614af682614827565b614b008185614ae2565b9350614b10818560208601613ee7565b80840191505092915050565b5f614b278284614aec565b915081905092915050565b5f60ff82169050919050565b614b4781614b32565b8114614b51575f80fd5b50565b5f81519050614b6281614b3e565b92915050565b5f60208284031215614b7d57614b7c613e12565b5b5f614b8a84828501614b54565b91505092915050565b7f52454a5556453a204e6f742052656769737465726564000000000000000000005f82015250565b5f614bc7601683613ed7565b9150614bd282614b93565b602082019050919050565b5f6020820190508181035f830152614bf481614bbb565b9050919050565b7f52454a5556453a204e6f7420657175616c206c656e67746800000000000000005f82015250565b5f614c2f601883613ed7565b9150614c3a82614bfb565b602082019050919050565b5f6020820190508181035f830152614c5c81614c23565b9050919050565b7f52454a5556453a205369676e65722063616e206e6f74206265207a65726f00005f82015250565b5f614c97601e83613ed7565b9150614ca282614c63565b602082019050919050565b5f6020820190508181035f830152614cc481614c8b565b9050919050565b7f52454a5556453a20496e76616c6964207369676e6572000000000000000000005f82015250565b5f614cff601683613ed7565b9150614d0a82614ccb565b602082019050919050565b5f6020820190508181035f830152614d2c81614cf3565b9050919050565b7f52454a5556453a20496e76616c6964207369676e6174757265206f66207369675f8201527f6e65720000000000000000000000000000000000000000000000000000000000602082015250565b5f614d8d602383613ed7565b9150614d9882614d33565b604082019050919050565b5f6020820190508181035f830152614dba81614d81565b9050919050565b7f52454a5556453a2044617461204e6f74205065726d69747465640000000000005f82015250565b5f614df5601a83613ed7565b9150614e0082614dc1565b602082019050919050565b5f6020820190508181035f830152614e2281614de9565b9050919050565b7f52454a5556453a204f6e6c792050726f647563742043726561746f72000000005f82015250565b5f614e5d601c83613ed7565b9150614e6882614e29565b602082019050919050565b5f6020820190508181035f830152614e8a81614e51565b9050919050565b5f81519050919050565b5f82825260208201905092915050565b5f819050602082019050919050565b614ec381613f77565b82525050565b5f614ed48383614eba565b60208301905092915050565b5f602082019050919050565b5f614ef682614e91565b614f008185614e9b565b9350614f0b83614eab565b805f5b83811015614f3b578151614f228882614ec9565b9750614f2d83614ee0565b925050600181019050614f0e565b5085935050505092915050565b5f606082019050614f5b5f83018661421b565b8181036020830152614f6d8185614898565b90508181036040830152614f818184614eec565b9050949350505050565b7f4552433732313a2063616c6c6572206973206e6f7420746f6b656e206f776e655f8201527f72206f7220617070726f76656400000000000000000000000000000000000000602082015250565b5f614fe5602d83613ed7565b9150614ff082614f8b565b604082019050919050565b5f6020820190508181035f83015261501281614fd9565b9050919050565b7f416363657373436f6e74726f6c3a2063616e206f6e6c792072656e6f756e63655f8201527f20726f6c657320666f722073656c660000000000000000000000000000000000602082015250565b5f615073602f83613ed7565b915061507e82615019565b604082019050919050565b5f6020820190508181035f8301526150a081615067565b9050919050565b7f52454a5556453a204d7573742068617665206120726f6c6520746f20756e70615f8201527f7573650000000000000000000000000000000000000000000000000000000000602082015250565b5f615101602383613ed7565b915061510c826150a7565b604082019050919050565b5f6020820190508181035f83015261512e816150f5565b9050919050565b5f82825260208201905092915050565b5f61514f82614827565b6151598185615135565b9350615169818560208601613ee7565b61517281613f0f565b840191505092915050565b5f6020820190508181035f8301526151958184615145565b905092915050565b5f815190506151ab81613f80565b92915050565b5f602082840312156151c6576151c5613e12565b5b5f6151d38482850161519d565b91505092915050565b5f815190506151ea8161402d565b92915050565b5f6020828403121561520557615204613e12565b5b5f615212848285016151dc565b91505092915050565b7f4552433732313a20696e76616c696420746f6b656e20494400000000000000005f82015250565b5f61524f601883613ed7565b915061525a8261521b565b602082019050919050565b5f6020820190508181035f83015261527c81615243565b9050919050565b7f4552433732313a2061646472657373207a65726f206973206e6f7420612076615f8201527f6c6964206f776e65720000000000000000000000000000000000000000000000602082015250565b5f6152dd602983613ed7565b91506152e882615283565b604082019050919050565b5f6020820190508181035f83015261530a816152d1565b9050919050565b7f52454a5556453a204d75737420686176652070617573657220726f6c6520746f5f8201527f2070617573650000000000000000000000000000000000000000000000000000602082015250565b5f61536b602683613ed7565b915061537682615311565b604082019050919050565b5f6020820190508181035f8301526153988161535f565b9050919050565b5f81905092915050565b5f6153b382613ecd565b6153bd818561539f565b93506153cd818560208601613ee7565b80840191505092915050565b5f6153e482856153a9565b91506153f082846153a9565b91508190509392505050565b7f5061757361626c653a20706175736564000000000000000000000000000000005f82015250565b5f615430601083613ed7565b915061543b826153fc565b602082019050919050565b5f6020820190508181035f83015261545d81615424565b9050919050565b7f52454a5556453a205369676e6174757265207573656420616c726561647900005f82015250565b5f615498601e83613ed7565b91506154a382615464565b602082019050919050565b5f6020820190508181035f8301526154c58161548c565b9050919050565b5f819050919050565b6154e66154e182613f77565b6154cc565b82525050565b5f8160601b9050919050565b5f615502826154ec565b9050919050565b5f615513826154f8565b9050919050565b61552b61552682613ff4565b615509565b82525050565b5f819050919050565b61554b615546826145e0565b615531565b82525050565b5f81905092915050565b61556481613f77565b82525050565b5f615575838361555b565b60208301905092915050565b5f61558b82614e91565b6155958185615551565b93506155a083614eab565b805f5b838110156155d05781516155b7888261556a565b97506155c283614ee0565b9250506001810190506155a3565b5085935050505092915050565b5f6155e8828b6154d5565b6020820191506155f8828a6154d5565b60208201915061560882896153a9565b9150615614828861551a565b601482019150615624828761553a565b6020820191506156348286615581565b9150615640828561551a565b601482019150615650828461551a565b6014820191508190509998505050505050505050565b7f4e487b71000000000000000000000000000000000000000000000000000000005f52603260045260245ffd5b5f6040820190508181035f8301526156ab8185615145565b90506156ba602083018461421b565b9392505050565b5f819050815f5260205f209050919050565b5f6020601f8301049050919050565b5f82821b905092915050565b5f6008830261571d7fffffffffffffffffffffffffffffffffffffffffffffffffffffffffffffffff826156e2565b61572786836156e2565b95508019841693508086168417925050509392505050565b5f819050919050565b5f61576261575d61575884613f77565b61573f565b613f77565b9050919050565b5f819050919050565b61577b83615748565b61578f61578782615769565b8484546156ee565b825550505050565b5f90565b6157a3615797565b6157ae818484615772565b505050565b5b818110156157d1576157c65f8261579b565b6001810190506157b4565b5050565b601f821115615816576157e7816156c1565b6157f0846156d3565b810160208510156157ff578190505b61581361580b856156d3565b8301826157b3565b50505b505050565b5f82821c905092915050565b5f6158365f198460080261581b565b1980831691505092915050565b5f61584e8383615827565b9150826002028217905092915050565b61586782614827565b67ffffffffffffffff8111156158805761587f61409d565b5b61588a8254614996565b6158958282856157d5565b5f60209050601f8311600181146158c6575f84156158b4578287015190505b6158be8582615843565b865550615925565b601f1984166158d4866156c1565b5f5b828110156158fb578489015182556001820191506020850194506020810190506158d6565b868310156159185784890151615914601f891682615827565b8355505b6001600288020188555050505b505050505050565b7f4e487b71000000000000000000000000000000000000000000000000000000005f52601160045260245ffd5b5f61596482613f77565b91507fffffffffffffffffffffffffffffffffffffffffffffffffffffffffffffffff82036159965761599561592d565b5b600182019050919050565b5f60a0820190506159b45f83018861421b565b6159c16020830187614005565b81810360408301526159d38186613f1f565b905081810360608301526159e78185614898565b905081810360808301526159fb8184614eec565b90509695505050505050565b7f4552433732313a207472616e736665722066726f6d20696e636f7272656374205f8201527f6f776e6572000000000000000000000000000000000000000000000000000000602082015250565b5f615a61602583613ed7565b9150615a6c82615a07565b604082019050919050565b5f6020820190508181035f830152615a8e81615a55565b9050919050565b7f4552433732313a207472616e7366657220746f20746865207a65726f206164645f8201527f7265737300000000000000000000000000000000000000000000000000000000602082015250565b5f615aef602483613ed7565b9150615afa82615a95565b604082019050919050565b5f6020820190508181035f830152615b1c81615ae3565b9050919050565b7f4552433732313a20617070726f766520746f2063616c6c6572000000000000005f82015250565b5f615b57601983613ed7565b9150615b6282615b23565b602082019050919050565b5f6020820190508181035f830152615b8481615b4b565b9050919050565b7f4552433732313a207472616e7366657220746f206e6f6e2045524337323152655f8201527f63656976657220696d706c656d656e7465720000000000000000000000000000602082015250565b5f615be5603283613ed7565b9150615bf082615b8b565b604082019050919050565b5f6020820190508181035f830152615c1281615bd9565b9050919050565b7f45524337323155524953746f726167653a2055524920736574206f66206e6f6e5f8201527f6578697374656e7420746f6b656e000000000000000000000000000000000000602082015250565b5f615c73602e83613ed7565b9150615c7e82615c19565b604082019050919050565b5f6020820190508181035f830152615ca081615c67565b9050919050565b5f819050815f5260205f209050919050565b601f821115615cfa57615ccb81615ca7565b615cd4846156d3565b81016020851015615ce3578190505b615cf7615cef856156d3565b8301826157b3565b50505b505050565b615d0882613ecd565b67ffffffffffffffff811115615d2157615d2061409d565b5b615d2b8254614996565b615d36828285615cb9565b5f60209050601f831160018114615d67575f8415615d55578287015190505b615d5f8582615843565b865550615dc6565b601f198416615d7586615ca7565b5f5b82811015615d9c57848901518255600182019150602085019450602081019050615d77565b86831015615db95784890151615db5601f891682615827565b8355505b6001600288020188555050505b505050505050565b7f416363657373436f6e74726f6c3a206163636f756e74200000000000000000005f82015250565b5f615e0260178361539f565b9150615e0d82615dce565b601782019050919050565b7f206973206d697373696e6720726f6c65200000000000000000000000000000005f82015250565b5f615e4c60118361539f565b9150615e5782615e18565b601182019050919050565b5f615e6c82615df6565b9150615e7882856153a9565b9150615e8382615e40565b9150615e8f82846153a9565b91508190509392505050565b7f5061757361626c653a206e6f74207061757365640000000000000000000000005f82015250565b5f615ecf601483613ed7565b9150615eda82615e9b565b602082019050919050565b5f6020820190508181035f830152615efc81615ec3565b9050919050565b5f608082019050615f165f830187614005565b615f236020830186614005565b615f30604083018561421b565b8181036060830152615f428184615145565b905095945050505050565b5f81519050615f5b81613e45565b92915050565b5f60208284031215615f7657615f75613e12565b5b5f615f8384828501615f4d565b91505092915050565b7f4e487b71000000000000000000000000000000000000000000000000000000005f52601260045260245ffd5b7f4e487b71000000000000000000000000000000000000000000000000000000005f52602160045260245ffd5b7f45434453413a20696e76616c6964207369676e617475726500000000000000005f82015250565b5f61601a601883613ed7565b915061602582615fe6565b602082019050919050565b5f6020820190508181035f8301526160478161600e565b9050919050565b7f45434453413a20696e76616c6964207369676e6174757265206c656e677468005f82015250565b5f616082601f83613ed7565b915061608d8261604e565b602082019050919050565b5f6020820190508181035f8301526160af81616076565b9050919050565b7f45434453413a20696e76616c6964207369676e6174757265202773272076616c5f8201527f7565000000000000000000000000000000000000000000000000000000000000602082015250565b5f616110602283613ed7565b915061611b826160b6565b604082019050919050565b5f6020820190508181035f83015261613d81616104565b9050919050565b5f61614e82613f77565b915061615983613f77565b925082820261616781613f77565b9150828204841483151761617e5761617d61592d565b5b5092915050565b5f61618f82613f77565b915061619a83613f77565b92508282019050808211156161b2576161b161592d565b5b92915050565b5f6161c282613f77565b91505f82036161d4576161d361592d565b5b600182039050919050565b7f537472696e67733a20686578206c656e67746820696e73756666696369656e745f82015250565b5f616213602083613ed7565b915061621e826161df565b602082019050919050565b5f6020820190508181035f83015261624081616207565b9050919050565b61625081614b32565b82525050565b5f6080820190506162695f83018761463e565b6162766020830186616247565b616283604083018561463e565b616290606083018461463e565b95945050505050565b7f4552433732313a206d696e7420746f20746865207a65726f20616464726573735f82015250565b5f6162cd602083613ed7565b91506162d882616299565b602082019050919050565b5f6020820190508181035f8301526162fa816162c1565b9050919050565b7f4552433732313a20746f6b656e20616c7265616479206d696e746564000000005f82015250565b5f616335601c83613ed7565b915061634082616301565b602082019050919050565b5f6020820190508181035f83015261636281616329565b905091905056fea2646970667358221220b84a11fdde69ba8aaf323d31ec289860b77cdc74f45211a4e1018c948e088c5464736f6c63430008140033",
  "linkReferences": {},
  "deployedLinkReferences": {}
}