{
  "_format": "hh-sol-artifact-1",
  "contractName": "ProductNFT",
  "sourceName": "contracts/ProductNFT.sol",
  "abi": [
    {
      "inputs": [
        {
          "internalType": "string",
          "name": "name",
          "type": "string"
        },
        {
          "internalType": "string",
          "name": "symbol",
          "type": "string"
        },
        {
          "internalType": "address",
          "name": "signer",
          "type": "address"
        },
        {
          "internalType": "contract IIdentityToken",
          "name": "identityToken_",
          "type": "address"
        },
        {
          "internalType": "contract IDataManagement",
          "name": "dataMgt_",
          "type": "address"
        }
      ],
      "stateMutability": "nonpayable",
      "type": "constructor"
    },
    {
      "anonymous": false,
      "inputs": [
        {
          "indexed": true,
          "internalType": "address",
          "name": "owner",
          "type": "address"
        },
        {
          "indexed": true,
          "internalType": "address",
          "name": "approved",
          "type": "address"
        },
        {
          "indexed": true,
          "internalType": "uint256",
          "name": "tokenId",
          "type": "uint256"
        }
      ],
      "name": "Approval",
      "type": "event"
    },
    {
      "anonymous": false,
      "inputs": [
        {
          "indexed": true,
          "internalType": "address",
          "name": "owner",
          "type": "address"
        },
        {
          "indexed": true,
          "internalType": "address",
          "name": "operator",
          "type": "address"
        },
        {
          "indexed": false,
          "internalType": "bool",
          "name": "approved",
          "type": "bool"
        }
      ],
      "name": "ApprovalForAll",
      "type": "event"
    },
    {
      "anonymous": false,
      "inputs": [
        {
          "indexed": false,
          "internalType": "uint256",
          "name": "_fromTokenId",
          "type": "uint256"
        },
        {
          "indexed": false,
          "internalType": "uint256",
          "name": "_toTokenId",
          "type": "uint256"
        }
      ],
      "name": "BatchMetadataUpdate",
      "type": "event"
    },
    {
      "anonymous": false,
      "inputs": [
        {
          "indexed": false,
          "internalType": "uint256",
          "name": "_tokenId",
          "type": "uint256"
        }
      ],
      "name": "MetadataUpdate",
      "type": "event"
    },
    {
      "anonymous": false,
      "inputs": [
        {
          "indexed": false,
          "internalType": "uint256",
          "name": "productUID",
          "type": "uint256"
        },
        {
          "indexed": false,
          "internalType": "bytes[]",
          "name": "dataHash",
          "type": "bytes[]"
        },
        {
          "indexed": false,
          "internalType": "uint256[]",
          "name": "creditScore",
          "type": "uint256[]"
        }
      ],
      "name": "NewDataLinked",
      "type": "event"
    },
    {
      "anonymous": false,
      "inputs": [
        {
          "indexed": false,
          "internalType": "address",
          "name": "account",
          "type": "address"
        }
      ],
      "name": "Paused",
      "type": "event"
    },
    {
      "anonymous": false,
      "inputs": [
        {
          "indexed": false,
          "internalType": "uint256",
          "name": "productUID",
          "type": "uint256"
        },
        {
          "indexed": false,
          "internalType": "address",
          "name": "productCreator",
          "type": "address"
        },
        {
          "indexed": false,
          "internalType": "string",
          "name": "productURI",
          "type": "string"
        },
        {
          "indexed": false,
          "internalType": "bytes[]",
          "name": "datahashes",
          "type": "bytes[]"
        },
        {
          "indexed": false,
          "internalType": "uint256[]",
          "name": "creditScore",
          "type": "uint256[]"
        }
      ],
      "name": "ProductCreated",
      "type": "event"
    },
    {
      "anonymous": false,
      "inputs": [
        {
          "indexed": true,
          "internalType": "bytes32",
          "name": "role",
          "type": "bytes32"
        },
        {
          "indexed": true,
          "internalType": "bytes32",
          "name": "previousAdminRole",
          "type": "bytes32"
        },
        {
          "indexed": true,
          "internalType": "bytes32",
          "name": "newAdminRole",
          "type": "bytes32"
        }
      ],
      "name": "RoleAdminChanged",
      "type": "event"
    },
    {
      "anonymous": false,
      "inputs": [
        {
          "indexed": true,
          "internalType": "bytes32",
          "name": "role",
          "type": "bytes32"
        },
        {
          "indexed": true,
          "internalType": "address",
          "name": "account",
          "type": "address"
        },
        {
          "indexed": true,
          "internalType": "address",
          "name": "sender",
          "type": "address"
        }
      ],
      "name": "RoleGranted",
      "type": "event"
    },
    {
      "anonymous": false,
      "inputs": [
        {
          "indexed": true,
          "internalType": "bytes32",
          "name": "role",
          "type": "bytes32"
        },
        {
          "indexed": true,
          "internalType": "address",
          "name": "account",
          "type": "address"
        },
        {
          "indexed": true,
          "internalType": "address",
          "name": "sender",
          "type": "address"
        }
      ],
      "name": "RoleRevoked",
      "type": "event"
    },
    {
      "anonymous": false,
      "inputs": [
        {
          "indexed": true,
          "internalType": "address",
          "name": "from",
          "type": "address"
        },
        {
          "indexed": true,
          "internalType": "address",
          "name": "to",
          "type": "address"
        },
        {
          "indexed": true,
          "internalType": "uint256",
          "name": "tokenId",
          "type": "uint256"
        }
      ],
      "name": "Transfer",
      "type": "event"
    },
    {
      "anonymous": false,
      "inputs": [
        {
          "indexed": false,
          "internalType": "address",
          "name": "account",
          "type": "address"
        }
      ],
      "name": "Unpaused",
      "type": "event"
    },
    {
      "inputs": [],
      "name": "DEFAULT_ADMIN_ROLE",
      "outputs": [
        {
          "internalType": "bytes32",
          "name": "",
          "type": "bytes32"
        }
      ],
      "stateMutability": "view",
      "type": "function"
    },
    {
      "inputs": [],
      "name": "PAUSER_ROLE",
      "outputs": [
        {
          "internalType": "bytes32",
          "name": "",
          "type": "bytes32"
        }
      ],
      "stateMutability": "view",
      "type": "function"
    },
    {
      "inputs": [],
      "name": "SIGNER_ROLE",
      "outputs": [
        {
          "internalType": "bytes32",
          "name": "",
          "type": "bytes32"
        }
      ],
      "stateMutability": "view",
      "type": "function"
    },
    {
      "inputs": [
        {
          "internalType": "address",
          "name": "to",
          "type": "address"
        },
        {
          "internalType": "uint256",
          "name": "tokenId",
          "type": "uint256"
        }
      ],
      "name": "approve",
      "outputs": [],
      "stateMutability": "nonpayable",
      "type": "function"
    },
    {
      "inputs": [
        {
          "internalType": "address",
          "name": "owner",
          "type": "address"
        }
      ],
      "name": "balanceOf",
      "outputs": [
        {
          "internalType": "uint256",
          "name": "",
          "type": "uint256"
        }
      ],
      "stateMutability": "view",
      "type": "function"
    },
    {
      "inputs": [
        {
          "internalType": "uint256",
          "name": "productUID",
          "type": "uint256"
        },
        {
          "internalType": "uint256",
          "name": "nonce",
          "type": "uint256"
        },
        {
          "internalType": "string",
          "name": "productURI",
          "type": "string"
        },
        {
          "internalType": "address",
          "name": "signer",
          "type": "address"
        },
        {
          "internalType": "bytes",
          "name": "signature",
          "type": "bytes"
        },
        {
          "internalType": "bytes[]",
          "name": "dataHashes",
          "type": "bytes[]"
        },
        {
          "internalType": "uint256[]",
          "name": "creditScores",
          "type": "uint256[]"
        }
      ],
      "name": "createProduct",
      "outputs": [],
      "stateMutability": "nonpayable",
      "type": "function"
    },
    {
      "inputs": [
        {
          "internalType": "uint256",
          "name": "tokenId",
          "type": "uint256"
        }
      ],
      "name": "getApproved",
      "outputs": [
        {
          "internalType": "address",
          "name": "",
          "type": "address"
        }
      ],
      "stateMutability": "view",
      "type": "function"
    },
    {
      "inputs": [
        {
          "internalType": "bytes",
          "name": "dHash",
          "type": "bytes"
        },
        {
          "internalType": "uint256",
          "name": "productUID",
          "type": "uint256"
        }
      ],
      "name": "getDataCredit",
      "outputs": [
        {
          "internalType": "uint256",
          "name": "",
          "type": "uint256"
        }
      ],
      "stateMutability": "view",
      "type": "function"
    },
    {
      "inputs": [
        {
          "internalType": "bytes",
          "name": "dHash",
          "type": "bytes"
        }
      ],
      "name": "getDataOwnerAddress",
      "outputs": [
        {
          "internalType": "address",
          "name": "",
          "type": "address"
        }
      ],
      "stateMutability": "view",
      "type": "function"
    },
    {
      "inputs": [
        {
          "internalType": "uint256",
          "name": "productUID",
          "type": "uint256"
        }
      ],
      "name": "getInitialDataLength",
      "outputs": [
        {
          "internalType": "uint256",
          "name": "",
          "type": "uint256"
        }
      ],
      "stateMutability": "view",
      "type": "function"
    },
    {
      "inputs": [
        {
          "internalType": "uint256",
          "name": "productUID",
          "type": "uint256"
        }
      ],
      "name": "getProductToData",
      "outputs": [
        {
          "internalType": "bytes[]",
          "name": "",
          "type": "bytes[]"
        }
      ],
      "stateMutability": "view",
      "type": "function"
    },
    {
      "inputs": [
        {
          "internalType": "bytes32",
          "name": "role",
          "type": "bytes32"
        }
      ],
      "name": "getRoleAdmin",
      "outputs": [
        {
          "internalType": "bytes32",
          "name": "",
          "type": "bytes32"
        }
      ],
      "stateMutability": "view",
      "type": "function"
    },
    {
      "inputs": [
        {
          "internalType": "bytes32",
          "name": "role",
          "type": "bytes32"
        },
        {
          "internalType": "address",
          "name": "account",
          "type": "address"
        }
      ],
      "name": "grantRole",
      "outputs": [],
      "stateMutability": "nonpayable",
      "type": "function"
    },
    {
      "inputs": [
        {
          "internalType": "bytes32",
          "name": "role",
          "type": "bytes32"
        },
        {
          "internalType": "address",
          "name": "account",
          "type": "address"
        }
      ],
      "name": "hasRole",
      "outputs": [
        {
          "internalType": "bool",
          "name": "",
          "type": "bool"
        }
      ],
      "stateMutability": "view",
      "type": "function"
    },
    {
      "inputs": [
        {
          "internalType": "address",
          "name": "owner",
          "type": "address"
        },
        {
          "internalType": "address",
          "name": "operator",
          "type": "address"
        }
      ],
      "name": "isApprovedForAll",
      "outputs": [
        {
          "internalType": "bool",
          "name": "",
          "type": "bool"
        }
      ],
      "stateMutability": "view",
      "type": "function"
    },
    {
      "inputs": [
        {
          "internalType": "uint256",
          "name": "productUID",
          "type": "uint256"
        },
        {
          "internalType": "bytes[]",
          "name": "newDataHashes",
          "type": "bytes[]"
        },
        {
          "internalType": "uint256[]",
          "name": "creditScores",
          "type": "uint256[]"
        }
      ],
      "name": "linkNewData",
      "outputs": [],
      "stateMutability": "nonpayable",
      "type": "function"
    },
    {
      "inputs": [],
      "name": "name",
      "outputs": [
        {
          "internalType": "string",
          "name": "",
          "type": "string"
        }
      ],
      "stateMutability": "view",
      "type": "function"
    },
    {
      "inputs": [
        {
          "internalType": "uint256",
          "name": "tokenId",
          "type": "uint256"
        }
      ],
      "name": "ownerOf",
      "outputs": [
        {
          "internalType": "address",
          "name": "",
          "type": "address"
        }
      ],
      "stateMutability": "view",
      "type": "function"
    },
    {
      "inputs": [],
      "name": "pause",
      "outputs": [],
      "stateMutability": "nonpayable",
      "type": "function"
    },
    {
      "inputs": [],
      "name": "paused",
      "outputs": [
        {
          "internalType": "bool",
          "name": "",
          "type": "bool"
        }
      ],
      "stateMutability": "view",
      "type": "function"
    },
    {
      "inputs": [
        {
          "internalType": "bytes32",
          "name": "role",
          "type": "bytes32"
        },
        {
          "internalType": "address",
          "name": "account",
          "type": "address"
        }
      ],
      "name": "renounceRole",
      "outputs": [],
      "stateMutability": "nonpayable",
      "type": "function"
    },
    {
      "inputs": [
        {
          "internalType": "bytes32",
          "name": "role",
          "type": "bytes32"
        },
        {
          "internalType": "address",
          "name": "account",
          "type": "address"
        }
      ],
      "name": "revokeRole",
      "outputs": [],
      "stateMutability": "nonpayable",
      "type": "function"
    },
    {
      "inputs": [
        {
          "internalType": "address",
          "name": "from",
          "type": "address"
        },
        {
          "internalType": "address",
          "name": "to",
          "type": "address"
        },
        {
          "internalType": "uint256",
          "name": "tokenId",
          "type": "uint256"
        }
      ],
      "name": "safeTransferFrom",
      "outputs": [],
      "stateMutability": "nonpayable",
      "type": "function"
    },
    {
      "inputs": [
        {
          "internalType": "address",
          "name": "from",
          "type": "address"
        },
        {
          "internalType": "address",
          "name": "to",
          "type": "address"
        },
        {
          "internalType": "uint256",
          "name": "tokenId",
          "type": "uint256"
        },
        {
          "internalType": "bytes",
          "name": "data",
          "type": "bytes"
        }
      ],
      "name": "safeTransferFrom",
      "outputs": [],
      "stateMutability": "nonpayable",
      "type": "function"
    },
    {
      "inputs": [
        {
          "internalType": "address",
          "name": "operator",
          "type": "address"
        },
        {
          "internalType": "bool",
          "name": "approved",
          "type": "bool"
        }
      ],
      "name": "setApprovalForAll",
      "outputs": [],
      "stateMutability": "nonpayable",
      "type": "function"
    },
    {
      "inputs": [
        {
          "internalType": "bytes4",
          "name": "interfaceId",
          "type": "bytes4"
        }
      ],
      "name": "supportsInterface",
      "outputs": [
        {
          "internalType": "bool",
          "name": "",
          "type": "bool"
        }
      ],
      "stateMutability": "view",
      "type": "function"
    },
    {
      "inputs": [],
      "name": "symbol",
      "outputs": [
        {
          "internalType": "string",
          "name": "",
          "type": "string"
        }
      ],
      "stateMutability": "view",
      "type": "function"
    },
    {
      "inputs": [
        {
          "internalType": "uint256",
          "name": "tokenId",
          "type": "uint256"
        }
      ],
      "name": "tokenURI",
      "outputs": [
        {
          "internalType": "string",
          "name": "",
          "type": "string"
        }
      ],
      "stateMutability": "view",
      "type": "function"
    },
    {
      "inputs": [
        {
          "internalType": "address",
          "name": "from",
          "type": "address"
        },
        {
          "internalType": "address",
          "name": "to",
          "type": "address"
        },
        {
          "internalType": "uint256",
          "name": "tokenId",
          "type": "uint256"
        }
      ],
      "name": "transferFrom",
      "outputs": [],
      "stateMutability": "nonpayable",
      "type": "function"
    },
    {
      "inputs": [],
      "name": "unpause",
      "outputs": [],
      "stateMutability": "nonpayable",
      "type": "function"
    }
  ],
  "bytecode": "0x608060405234801562000010575f80fd5b50604051620034d2380380620034d2833981016040819052620000339162000281565b84845f620000428382620003b3565b506001620000518282620003b3565b5050600880546001600160a81b0319166101006001600160a01b038681169190910291909117909155600980546001600160a01b03191691841691909117905550620000a55f6200009f3390565b62000108565b620000d17f65d7a28e3265b37a6474929f336521b332c1681b933f6cb9f3376673440d862a3362000108565b620000fd7fe2f4eaae4a9751e85a3e4a7b9587827a877f29914755229b07a7b2da98285f708462000108565b50505050506200047b565b5f8281526007602090815260408083206001600160a01b038516845290915290205460ff16620001a7575f8281526007602090815260408083206001600160a01b03851684529091529020805460ff19166001179055620001663390565b6001600160a01b0316816001600160a01b0316837f2f8788117e7eff1d82e926ec794901d17c78024a50270940304540a733656f0d60405160405180910390a45b5050565b634e487b7160e01b5f52604160045260245ffd5b5f82601f830112620001cf575f80fd5b81516001600160401b0380821115620001ec57620001ec620001ab565b604051601f8301601f19908116603f01168101908282118183101715620002175762000217620001ab565b8160405283815260209250868385880101111562000233575f80fd5b5f91505b8382101562000256578582018301518183018401529082019062000237565b5f93810190920192909252949350505050565b6001600160a01b03811681146200027e575f80fd5b50565b5f805f805f60a0868803121562000296575f80fd5b85516001600160401b0380821115620002ad575f80fd5b620002bb89838a01620001bf565b96506020880151915080821115620002d1575f80fd5b50620002e088828901620001bf565b9450506040860151620002f38162000269565b6060870151909350620003068162000269565b6080870151909250620003198162000269565b809150509295509295909350565b600181811c908216806200033c57607f821691505b6020821081036200035b57634e487b7160e01b5f52602260045260245ffd5b50919050565b601f821115620003ae575f81815260208120601f850160051c81016020861015620003895750805b601f850160051c820191505b81811015620003aa5782815560010162000395565b5050505b505050565b81516001600160401b03811115620003cf57620003cf620001ab565b620003e781620003e0845462000327565b8462000361565b602080601f8311600181146200041d575f8415620004055750858301515b5f19600386901b1c1916600185901b178555620003aa565b5f85815260208120601f198616915b828110156200044d578886015182559484019460019091019084016200042c565b50858210156200046b57878501515f19600388901b60f8161c191681555b5050505050600190811b01905550565b61304980620004895f395ff3fe608060405234801561000f575f80fd5b50600436106101d1575f3560e01c80636352211e116100fe578063a217fddf1161009e578063c9187fe71161006e578063c9187fe7146103fc578063d547741f1461041c578063e63ab1e91461042f578063e985e9c514610456575f80fd5b8063a217fddf146103bc578063a22cb465146103c3578063b88d4fde146103d6578063c87b56dd146103e9575f80fd5b806384ffeca5116100d957806384ffeca51461035b57806391d148541461037a57806395d89b411461038d578063a1ebf35d14610395575f80fd5b80636352211e1461032d57806370a08231146103405780638456cb5914610353575f80fd5b806323b872dd116101745780633f4ba83a116101445780633f4ba83a146102f457806342842e0e146102fc57806359a96ffe1461030f5780635c975abb14610322575f80fd5b806323b872dd14610299578063248a9ca3146102ac5780632f2ff15d146102ce57806336568abe146102e1575f80fd5b8063095ea7b3116101af578063095ea7b31461023d5780630e47cefa146102525780630f139de91461027357806318c85b4d14610286575f80fd5b806301ffc9a7146101d557806306fdde03146101fd578063081812fc14610212575b5f80fd5b6101e86101e3366004612489565b610491565b60405190151581526020015b60405180910390f35b6102056104bb565b6040516101f491906124f1565b610225610220366004612503565b61054a565b6040516001600160a01b0390911681526020016101f4565b61025061024b36600461253e565b61056f565b005b610265610260366004612619565b610688565b6040519081526020016101f4565b610250610281366004612762565b6106bf565b6102506102943660046127ca565b610814565b6102506102a7366004612892565b610ac9565b6102656102ba366004612503565b5f9081526007602052604090206001015490565b6102506102dc3660046128d0565b610afa565b6102506102ef3660046128d0565b610b1e565b610250610b9c565b61025061030a366004612892565b610c28565b61022561031d3660046128fe565b610c42565b60085460ff166101e8565b61022561033b366004612503565b610d21565b61026561034e366004612930565b610d80565b610250610e04565b610265610369366004612503565b5f908152600a602052604090205490565b6101e86103883660046128d0565b610e91565b610205610ebb565b6102657fe2f4eaae4a9751e85a3e4a7b9587827a877f29914755229b07a7b2da98285f7081565b6102655f81565b6102506103d136600461294b565b610eca565b6102506103e436600461297b565b610ed5565b6102056103f7366004612503565b610f0d565b61040f61040a366004612503565b611017565b6040516101f49190612a33565b61025061042a3660046128d0565b6110fc565b6102657f65d7a28e3265b37a6474929f336521b332c1681b933f6cb9f3376673440d862a81565b6101e8610464366004612a45565b6001600160a01b039182165f90815260056020908152604080832093909416825291909152205460ff1690565b5f6001600160e01b03198216637965db0b60e01b14806104b557506104b582611120565b92915050565b60605f80546104c990612a71565b80601f01602080910402602001604051908101604052809291908181526020018280546104f590612a71565b80156105405780601f1061051757610100808354040283529160200191610540565b820191905f5260205f20905b81548152906001019060200180831161052357829003601f168201915b5050505050905090565b5f61055482611144565b505f908152600460205260409020546001600160a01b031690565b5f61057982610d21565b9050806001600160a01b0316836001600160a01b0316036105eb5760405162461bcd60e51b815260206004820152602160248201527f4552433732313a20617070726f76616c20746f2063757272656e74206f776e656044820152603960f91b60648201526084015b60405180910390fd5b336001600160a01b038216148061060757506106078133610464565b6106795760405162461bcd60e51b815260206004820152603d60248201527f4552433732313a20617070726f76652063616c6c6572206973206e6f7420746f60448201527f6b656e206f776e6572206f7220617070726f76656420666f7220616c6c00000060648201526084016105e2565b61068383836111a5565b505050565b5f600b836040516106999190612aa9565b90815260200160405180910390205f8381526020019081526020015f2054905092915050565b6106c7611212565b6106d083610d21565b6001600160a01b0316336001600160a01b0316146107305760405162461bcd60e51b815260206004820152601c60248201527f52454a5556453a204f6e6c792050726f647563742043726561746f720000000060448201526064016105e2565b805182511461077c5760405162461bcd60e51b81526020600482015260186024820152770a48a94aaac8a74409cdee840cae2eac2d840d8cadccee8d60431b60448201526064016105e2565b610787838383611258565b156107d45760405162461bcd60e51b815260206004820152601a60248201527f52454a5556453a2044617461204e6f74205065726d697474656400000000000060448201526064016105e2565b7f0d5bcc3cb98adc5778f35c805a29156280afd1cfe4d8c019920fc995578784bd83838360405161080793929190612afd565b60405180910390a1505050565b61081c611212565b60085461010090046001600160a01b0316634b557d8a336040516001600160e01b031960e084901b1681526001600160a01b039091166004820152602401602060405180830381865afa158015610875573d5f803e3d5ffd5b505050506040513d601f19601f820116820180604052508101906108999190612b31565b60ff166001146108e45760405162461bcd60e51b81526020600482015260166024820152751491529555914e88139bdd08149959da5cdd195c995960521b60448201526064016105e2565b80518251146109305760405162461bcd60e51b81526020600482015260186024820152770a48a94aaac8a74409cdee840cae2eac2d840d8cadccee8d60431b60448201526064016105e2565b6001600160a01b0384166109865760405162461bcd60e51b815260206004820152601e60248201527f52454a5556453a205369676e65722063616e206e6f74206265207a65726f000060448201526064016105e2565b6109b07fe2f4eaae4a9751e85a3e4a7b9587827a877f29914755229b07a7b2da98285f7085610e91565b6109f55760405162461bcd60e51b81526020600482015260166024820152752922a52aab229d1024b73b30b634b21039b4b3b732b960511b60448201526064016105e2565b610a04878787878786886113cd565b610a5c5760405162461bcd60e51b815260206004820152602360248201527f52454a5556453a20496e76616c6964207369676e6174757265206f66207369676044820152623732b960e91b60648201526084016105e2565b610a67878383611258565b15610ab45760405162461bcd60e51b815260206004820152601a60248201527f52454a5556453a2044617461204e6f74205065726d697474656400000000000060448201526064016105e2565b610ac087868484611518565b50505050505050565b610ad3338261157b565b610aef5760405162461bcd60e51b81526004016105e290612b51565b6106838383836115f7565b5f82815260076020526040902060010154610b1481611759565b6106838383611763565b6001600160a01b0381163314610b8e5760405162461bcd60e51b815260206004820152602f60248201527f416363657373436f6e74726f6c3a2063616e206f6e6c792072656e6f756e636560448201526e103937b632b9903337b91039b2b63360891b60648201526084016105e2565b610b9882826117e8565b5050565b610bc67f65d7a28e3265b37a6474929f336521b332c1681b933f6cb9f3376673440d862a33610e91565b610c1e5760405162461bcd60e51b815260206004820152602360248201527f52454a5556453a204d7573742068617665206120726f6c6520746f20756e706160448201526275736560e81b60648201526084016105e2565b610c2661184e565b565b61068383838360405180602001604052805f815250610ed5565b6008546009546040516314610b9d60e31b81525f926001600160a01b03610100909104811692636352211e9291169063a3085ce890610c859087906004016124f1565b602060405180830381865afa158015610ca0573d5f803e3d5ffd5b505050506040513d601f19601f82011682018060405250810190610cc49190612b9e565b6040518263ffffffff1660e01b8152600401610ce291815260200190565b602060405180830381865afa158015610cfd573d5f803e3d5ffd5b505050506040513d601f19601f820116820180604052508101906104b59190612bb5565b5f818152600260205260408120546001600160a01b0316806104b55760405162461bcd60e51b8152602060048201526018602482015277115490cdcc8c4e881a5b9d985b1a59081d1bdad95b88125160421b60448201526064016105e2565b5f6001600160a01b038216610de95760405162461bcd60e51b815260206004820152602960248201527f4552433732313a2061646472657373207a65726f206973206e6f7420612076616044820152683634b21037bbb732b960b91b60648201526084016105e2565b506001600160a01b03165f9081526003602052604090205490565b610e2e7f65d7a28e3265b37a6474929f336521b332c1681b933f6cb9f3376673440d862a33610e91565b610e895760405162461bcd60e51b815260206004820152602660248201527f52454a5556453a204d75737420686176652070617573657220726f6c6520746f60448201526520706175736560d01b60648201526084016105e2565b610c266118a0565b5f9182526007602090815260408084206001600160a01b0393909316845291905290205460ff1690565b6060600180546104c990612a71565b610b983383836118dd565b610edf338361157b565b610efb5760405162461bcd60e51b81526004016105e290612b51565b610f07848484846119aa565b50505050565b6060610f1882611144565b5f8281526006602052604081208054610f3090612a71565b80601f0160208091040260200160405190810160405280929190818152602001828054610f5c90612a71565b8015610fa75780601f10610f7e57610100808354040283529160200191610fa7565b820191905f5260205f20905b815481529060010190602001808311610f8a57829003601f168201915b505050505090505f610fc360408051602081019091525f815290565b905080515f03610fd4575092915050565b815115611006578082604051602001610fee929190612bd0565b60405160208183030381529060405292505050919050565b61100f846119dd565b949350505050565b6060600c5f8381526020019081526020015f20805480602002602001604051908101604052809291908181526020015f905b828210156110f1578382905f5260205f2001805461106690612a71565b80601f016020809104026020016040519081016040528092919081815260200182805461109290612a71565b80156110dd5780601f106110b4576101008083540402835291602001916110dd565b820191905f5260205f20905b8154815290600101906020018083116110c057829003601f168201915b505050505081526020019060010190611049565b505050509050919050565b5f8281526007602052604090206001015461111681611759565b61068383836117e8565b5f6001600160e01b03198216637965db0b60e01b14806104b557506104b582611a4d565b5f818152600260205260409020546001600160a01b03166111a25760405162461bcd60e51b8152602060048201526018602482015277115490cdcc8c4e881a5b9d985b1a59081d1bdad95b88125160421b60448201526064016105e2565b50565b5f81815260046020526040902080546001600160a01b0319166001600160a01b03841690811790915581906111d982610d21565b6001600160a01b03167f8c5be1e5ebec7d5bd14f71427d1e84f3dd0314c0f7b2291e5b200ac8c7c3b92560405160405180910390a45050565b60085460ff1615610c265760405162461bcd60e51b815260206004820152601060248201526f14185d5cd8589b194e881c185d5cd95960821b60448201526064016105e2565b81515f90815b818110156113c45760095485516001600160a01b0390911690635f233dab9087908490811061128f5761128f612bfe565b6020026020010151886040518363ffffffff1660e01b81526004016112b5929190612c12565b602060405180830381865afa1580156112d0573d5f803e3d5ffd5b505050506040513d601f19601f820116820180604052508101906112f49190612b31565b60ff166001036113a95783818151811061131057611310612bfe565b6020026020010151600b86838151811061132c5761132c612bfe565b60200260200101516040516113419190612aa9565b90815260408051602092819003830190205f8a815290835281812093909355600c9091529020855186908390811061137b5761137b612bfe565b60209081029190910181015182546001810184555f9384529190922001906113a39082612c80565b506113b2565b600192506113c4565b806113bc81612d50565b91505061125e565b50509392505050565b5f868152600d602052604081205460ff161561142b5760405162461bcd60e51b815260206004820152601e60248201527f52454a5556453a205369676e6174757265207573656420616c7265616479000060448201526064016105e2565b5f878152600d60209081526040808320805460ff191660011790555161145391859101612a33565b6040516020818303038152906040528051906020012090505f8989898985896114793390565b30604051602001611491989796959493929190612d68565b6040516020818303038152906040528051906020012090505f6114ea876114e4847f19457468657265756d205369676e6564204d6573736167653a0a3332000000005f908152601c91909152603c902090565b90611a71565b9050806001600160a01b0316886001600160a01b03160361150a57600193505b505050979650505050505050565b81515f858152600a60205260409020557f63e2c6c753e1a52720e4b2722de8cbd9f2cdec7877e7b337c2fbce63533511d6843385858560405161155f959493929190612e0d565b60405180910390a16115713385611a93565b610f078484611aac565b5f8061158683610d21565b9050806001600160a01b0316846001600160a01b031614806115cc57506001600160a01b038082165f9081526005602090815260408083209388168352929052205460ff165b8061100f5750836001600160a01b03166115e58461054a565b6001600160a01b031614949350505050565b826001600160a01b031661160a82610d21565b6001600160a01b0316146116305760405162461bcd60e51b81526004016105e290612e68565b6001600160a01b0382166116925760405162461bcd60e51b8152602060048201526024808201527f4552433732313a207472616e7366657220746f20746865207a65726f206164646044820152637265737360e01b60648201526084016105e2565b826001600160a01b03166116a582610d21565b6001600160a01b0316146116cb5760405162461bcd60e51b81526004016105e290612e68565b5f81815260046020908152604080832080546001600160a01b03199081169091556001600160a01b038781168086526003855283862080545f1901905590871680865283862080546001019055868652600290945282852080549092168417909155905184937fddf252ad1be2c89b69c2b068fc378daa952ba7f163c4a11628f55a4df523b3ef91a4505050565b6111a28133611b75565b61176d8282610e91565b610b98575f8281526007602090815260408083206001600160a01b03851684529091529020805460ff191660011790556117a43390565b6001600160a01b0316816001600160a01b0316837f2f8788117e7eff1d82e926ec794901d17c78024a50270940304540a733656f0d60405160405180910390a45050565b6117f28282610e91565b15610b98575f8281526007602090815260408083206001600160a01b0385168085529252808320805460ff1916905551339285917ff6391f5c32d9c69d2a47ea670b442974b53935d1edc7fd64eb21e047a839171b9190a45050565b611856611bce565b6008805460ff191690557f5db9ee0a495bf2e6ff9c91a7834c1ba4fdd244a5e8aa4e537bd38aeae4b073aa335b6040516001600160a01b03909116815260200160405180910390a1565b6118a8611212565b6008805460ff191660011790557f62e78cea01bee320cd4e420270b5ea74000d11b0c9f74754ebdbfc544b05a2586118833390565b816001600160a01b0316836001600160a01b03160361193e5760405162461bcd60e51b815260206004820152601960248201527f4552433732313a20617070726f766520746f2063616c6c65720000000000000060448201526064016105e2565b6001600160a01b038381165f81815260056020908152604080832094871680845294825291829020805460ff191686151590811790915591519182527f17307eab39ab6107e8899845ad3d59bd9653f200f220920489ca2b5937696c31910160405180910390a3505050565b6119b58484846115f7565b6119c184848484611c17565b610f075760405162461bcd60e51b81526004016105e290612ead565b60606119e882611144565b5f6119fd60408051602081019091525f815290565b90505f815111611a1b5760405180602001604052805f815250611a46565b80611a2584611d14565b604051602001611a36929190612bd0565b6040516020818303038152906040525b9392505050565b5f6001600160e01b03198216632483248360e11b14806104b557506104b582611da4565b5f805f611a7e8585611df3565b91509150611a8b81611e35565b509392505050565b610b98828260405180602001604052805f815250611f7e565b5f828152600260205260409020546001600160a01b0316611b265760405162461bcd60e51b815260206004820152602e60248201527f45524337323155524953746f726167653a2055524920736574206f66206e6f6e60448201526d32bc34b9ba32b73a103a37b5b2b760911b60648201526084016105e2565b5f828152600660205260409020611b3d8282612c80565b506040518281527ff8e1a15aba9398e019f0b49df1a4fde98ee17ae345cb5f6b5e2c27f5033e8ce79060200160405180910390a15050565b611b7f8282610e91565b610b9857611b8c81611fb0565b611b97836020611fc2565b604051602001611ba8929190612eff565b60408051601f198184030181529082905262461bcd60e51b82526105e2916004016124f1565b60085460ff16610c265760405162461bcd60e51b815260206004820152601460248201527314185d5cd8589b194e881b9bdd081c185d5cd95960621b60448201526064016105e2565b5f6001600160a01b0384163b15611d0957604051630a85bd0160e11b81526001600160a01b0385169063150b7a0290611c5a903390899088908890600401612f73565b6020604051808303815f875af1925050508015611c94575060408051601f3d908101601f19168201909252611c9191810190612fa5565b60015b611cef573d808015611cc1576040519150601f19603f3d011682016040523d82523d5f602084013e611cc6565b606091505b5080515f03611ce75760405162461bcd60e51b81526004016105e290612ead565b805181602001fd5b6001600160e01b031916630a85bd0160e11b14905061100f565b506001949350505050565b60605f611d2083612158565b60010190505f8167ffffffffffffffff811115611d3f57611d3f612568565b6040519080825280601f01601f191660200182016040528015611d69576020820181803683370190505b5090508181016020015b5f19016f181899199a1a9b1b9c1cb0b131b232b360811b600a86061a8153600a8504945084611d7357509392505050565b5f6001600160e01b031982166380ac58cd60e01b1480611dd457506001600160e01b03198216635b5e139f60e01b145b806104b557506301ffc9a760e01b6001600160e01b03198316146104b5565b5f808251604103611e27576020830151604084015160608501515f1a611e1b8782858561222f565b94509450505050611e2e565b505f905060025b9250929050565b5f816004811115611e4857611e48612fc0565b03611e505750565b6001816004811115611e6457611e64612fc0565b03611eb15760405162461bcd60e51b815260206004820152601860248201527f45434453413a20696e76616c6964207369676e6174757265000000000000000060448201526064016105e2565b6002816004811115611ec557611ec5612fc0565b03611f125760405162461bcd60e51b815260206004820152601f60248201527f45434453413a20696e76616c6964207369676e6174757265206c656e6774680060448201526064016105e2565b6003816004811115611f2657611f26612fc0565b036111a25760405162461bcd60e51b815260206004820152602260248201527f45434453413a20696e76616c6964207369676e6174757265202773272076616c604482015261756560f01b60648201526084016105e2565b611f8883836122ec565b611f945f848484611c17565b6106835760405162461bcd60e51b81526004016105e290612ead565b60606104b56001600160a01b03831660145b60605f611fd0836002612fd4565b611fdb906002612feb565b67ffffffffffffffff811115611ff357611ff3612568565b6040519080825280601f01601f19166020018201604052801561201d576020820181803683370190505b509050600360fc1b815f8151811061203757612037612bfe565b60200101906001600160f81b03191690815f1a905350600f60fb1b8160018151811061206557612065612bfe565b60200101906001600160f81b03191690815f1a9053505f612087846002612fd4565b612092906001612feb565b90505b6001811115612109576f181899199a1a9b1b9c1cb0b131b232b360811b85600f16601081106120c6576120c6612bfe565b1a60f81b8282815181106120dc576120dc612bfe565b60200101906001600160f81b03191690815f1a90535060049490941c9361210281612ffe565b9050612095565b508315611a465760405162461bcd60e51b815260206004820181905260248201527f537472696e67733a20686578206c656e67746820696e73756666696369656e7460448201526064016105e2565b5f8072184f03e93ff9f4daa797ed6e38ed64bf6a1f0160401b83106121965772184f03e93ff9f4daa797ed6e38ed64bf6a1f0160401b830492506040015b6d04ee2d6d415b85acef810000000083106121c2576d04ee2d6d415b85acef8100000000830492506020015b662386f26fc1000083106121e057662386f26fc10000830492506010015b6305f5e10083106121f8576305f5e100830492506008015b612710831061220c57612710830492506004015b6064831061221e576064830492506002015b600a83106104b55760010192915050565b5f807f7fffffffffffffffffffffffffffffff5d576e7357a4501ddfe92f46681b20a083111561226457505f905060036122e3565b604080515f8082526020820180845289905260ff881692820192909252606081018690526080810185905260019060a0016020604051602081039080840390855afa1580156122b5573d5f803e3d5ffd5b5050604051601f1901519150506001600160a01b0381166122dd575f600192509250506122e3565b91505f90505b94509492505050565b6001600160a01b0382166123425760405162461bcd60e51b815260206004820181905260248201527f4552433732313a206d696e7420746f20746865207a65726f206164647265737360448201526064016105e2565b5f818152600260205260409020546001600160a01b0316156123a65760405162461bcd60e51b815260206004820152601c60248201527f4552433732313a20746f6b656e20616c7265616479206d696e7465640000000060448201526064016105e2565b5f818152600260205260409020546001600160a01b03161561240a5760405162461bcd60e51b815260206004820152601c60248201527f4552433732313a20746f6b656e20616c7265616479206d696e7465640000000060448201526064016105e2565b6001600160a01b0382165f81815260036020908152604080832080546001019055848352600290915280822080546001600160a01b0319168417905551839291907fddf252ad1be2c89b69c2b068fc378daa952ba7f163c4a11628f55a4df523b3ef908290a45050565b6001600160e01b0319811681146111a2575f80fd5b5f60208284031215612499575f80fd5b8135611a4681612474565b5f5b838110156124be5781810151838201526020016124a6565b50505f910152565b5f81518084526124dd8160208601602086016124a4565b601f01601f19169290920160200192915050565b602081525f611a4660208301846124c6565b5f60208284031215612513575f80fd5b5035919050565b6001600160a01b03811681146111a2575f80fd5b80356125398161251a565b919050565b5f806040838503121561254f575f80fd5b823561255a8161251a565b946020939093013593505050565b634e487b7160e01b5f52604160045260245ffd5b604051601f8201601f1916810167ffffffffffffffff811182821017156125a5576125a5612568565b604052919050565b5f82601f8301126125bc575f80fd5b813567ffffffffffffffff8111156125d6576125d6612568565b6125e9601f8201601f191660200161257c565b8181528460208386010111156125fd575f80fd5b816020850160208301375f918101602001919091529392505050565b5f806040838503121561262a575f80fd5b823567ffffffffffffffff811115612640575f80fd5b61264c858286016125ad565b95602094909401359450505050565b5f67ffffffffffffffff82111561267457612674612568565b5060051b60200190565b5f82601f83011261268d575f80fd5b813560206126a261269d8361265b565b61257c565b82815260059290921b840181019181810190868411156126c0575f80fd5b8286015b848110156126ff57803567ffffffffffffffff8111156126e3575f8081fd5b6126f18986838b01016125ad565b8452509183019183016126c4565b509695505050505050565b5f82601f830112612719575f80fd5b8135602061272961269d8361265b565b82815260059290921b84018101918181019086841115612747575f80fd5b8286015b848110156126ff578035835291830191830161274b565b5f805f60608486031215612774575f80fd5b83359250602084013567ffffffffffffffff80821115612792575f80fd5b61279e8783880161267e565b935060408601359150808211156127b3575f80fd5b506127c08682870161270a565b9150509250925092565b5f805f805f805f60e0888a0312156127e0575f80fd5b8735965060208801359550604088013567ffffffffffffffff80821115612805575f80fd5b6128118b838c016125ad565b965061281f60608b0161252e565b955060808a0135915080821115612834575f80fd5b6128408b838c016125ad565b945060a08a0135915080821115612855575f80fd5b6128618b838c0161267e565b935060c08a0135915080821115612876575f80fd5b506128838a828b0161270a565b91505092959891949750929550565b5f805f606084860312156128a4575f80fd5b83356128af8161251a565b925060208401356128bf8161251a565b929592945050506040919091013590565b5f80604083850312156128e1575f80fd5b8235915060208301356128f38161251a565b809150509250929050565b5f6020828403121561290e575f80fd5b813567ffffffffffffffff811115612924575f80fd5b61100f848285016125ad565b5f60208284031215612940575f80fd5b8135611a468161251a565b5f806040838503121561295c575f80fd5b82356129678161251a565b9150602083013580151581146128f3575f80fd5b5f805f806080858703121561298e575f80fd5b84356129998161251a565b935060208501356129a98161251a565b925060408501359150606085013567ffffffffffffffff8111156129cb575f80fd5b6129d7878288016125ad565b91505092959194509250565b5f815180845260208085019450848260051b86018286015f5b85811015612a26578383038952612a148383516124c6565b988501989250908401906001016129fc565b5090979650505050505050565b602081525f611a4660208301846129e3565b5f8060408385031215612a56575f80fd5b8235612a618161251a565b915060208301356128f38161251a565b600181811c90821680612a8557607f821691505b602082108103612aa357634e487b7160e01b5f52602260045260245ffd5b50919050565b5f8251612aba8184602087016124a4565b9190910192915050565b5f8151808452602080850194508084015f5b83811015612af257815187529582019590820190600101612ad6565b509495945050505050565b838152606060208201525f612b1560608301856129e3565b8281036040840152612b278185612ac4565b9695505050505050565b5f60208284031215612b41575f80fd5b815160ff81168114611a46575f80fd5b6020808252602d908201527f4552433732313a2063616c6c6572206973206e6f7420746f6b656e206f776e6560408201526c1c881bdc88185c1c1c9bdd9959609a1b606082015260800190565b5f60208284031215612bae575f80fd5b5051919050565b5f60208284031215612bc5575f80fd5b8151611a468161251a565b5f8351612be18184602088016124a4565b835190830190612bf58183602088016124a4565b01949350505050565b634e487b7160e01b5f52603260045260245ffd5b604081525f612c2460408301856124c6565b90508260208301529392505050565b601f821115610683575f81815260208120601f850160051c81016020861015612c595750805b601f850160051c820191505b81811015612c7857828155600101612c65565b505050505050565b815167ffffffffffffffff811115612c9a57612c9a612568565b612cae81612ca88454612a71565b84612c33565b602080601f831160018114612ce1575f8415612cca5750858301515b5f19600386901b1c1916600185901b178555612c78565b5f85815260208120601f198616915b82811015612d0f57888601518255948401946001909101908401612cf0565b5085821015612d2c57878501515f19600388901b60f8161c191681555b5050505050600190811b01905550565b634e487b7160e01b5f52601160045260245ffd5b5f60018201612d6157612d61612d3c565b5060010190565b8881525f602089818401528851612d858160408601848d016124a4565b80840190506bffffffffffffffffffffffff19808a60601b16604083015288605483015260748201915087518389015f5b82811015612dd257815185529385019390850190600101612db6565b505050606087901b168152612dfb601482018660601b6bffffffffffffffffffffffff19169052565b6028019b9a5050505050505050505050565b8581526001600160a01b038516602082015260a0604082018190525f90612e36908301866124c6565b8281036060840152612e4881866129e3565b90508281036080840152612e5c8185612ac4565b98975050505050505050565b60208082526025908201527f4552433732313a207472616e736665722066726f6d20696e636f72726563742060408201526437bbb732b960d91b606082015260800190565b60208082526032908201527f4552433732313a207472616e7366657220746f206e6f6e20455243373231526560408201527131b2b4bb32b91034b6b83632b6b2b73a32b960711b606082015260800190565b7f416363657373436f6e74726f6c3a206163636f756e742000000000000000000081525f8351612f368160178501602088016124a4565b7001034b99036b4b9b9b4b733903937b6329607d1b6017918401918201528351612f678160288401602088016124a4565b01602801949350505050565b6001600160a01b03858116825284166020820152604081018390526080606082018190525f90612b27908301846124c6565b5f60208284031215612fb5575f80fd5b8151611a4681612474565b634e487b7160e01b5f52602160045260245ffd5b80820281158282048414176104b5576104b5612d3c565b808201808211156104b5576104b5612d3c565b5f8161300c5761300c612d3c565b505f19019056fea2646970667358221220bd564bfac3e375d75492c4e707e7b7e11c4531ee2fea95ab8698d84df958794664736f6c63430008140033",
  "linkReferences": {},
  "deployedLinkReferences": {}
}