{
  "_format": "hh-sol-artifact-1",
  "contractName": "ProductNFT",
  "sourceName": "contracts/ProductNFT.sol",
  "abi": [
    {
      "inputs": [
        {
          "internalType": "string",
          "name": "name_",
          "type": "string"
        },
        {
          "internalType": "string",
          "name": "symbol_",
          "type": "string"
        },
        {
          "internalType": "contract IIdentityToken",
          "name": "identityToken_",
          "type": "address"
        },
        {
          "internalType": "contract IDataManagement",
          "name": "dataMgt_",
          "type": "address"
        }
      ],
      "stateMutability": "nonpayable",
      "type": "constructor"
    },
    {
      "anonymous": false,
      "inputs": [
        {
          "indexed": true,
          "internalType": "address",
          "name": "owner",
          "type": "address"
        },
        {
          "indexed": true,
          "internalType": "address",
          "name": "approved",
          "type": "address"
        },
        {
          "indexed": true,
          "internalType": "uint256",
          "name": "tokenId",
          "type": "uint256"
        }
      ],
      "name": "Approval",
      "type": "event"
    },
    {
      "anonymous": false,
      "inputs": [
        {
          "indexed": true,
          "internalType": "address",
          "name": "owner",
          "type": "address"
        },
        {
          "indexed": true,
          "internalType": "address",
          "name": "operator",
          "type": "address"
        },
        {
          "indexed": false,
          "internalType": "bool",
          "name": "approved",
          "type": "bool"
        }
      ],
      "name": "ApprovalForAll",
      "type": "event"
    },
    {
      "anonymous": false,
      "inputs": [
        {
          "indexed": false,
          "internalType": "uint256",
          "name": "productUID",
          "type": "uint256"
        },
        {
          "indexed": false,
          "internalType": "bytes[]",
          "name": "dataHash",
          "type": "bytes[]"
        },
        {
          "indexed": false,
          "internalType": "uint256[]",
          "name": "creditScore",
          "type": "uint256[]"
        }
      ],
      "name": "NewDataLinked",
      "type": "event"
    },
    {
      "anonymous": false,
      "inputs": [
        {
          "indexed": true,
          "internalType": "address",
          "name": "previousOwner",
          "type": "address"
        },
        {
          "indexed": true,
          "internalType": "address",
          "name": "newOwner",
          "type": "address"
        }
      ],
      "name": "OwnershipTransferred",
      "type": "event"
    },
    {
      "anonymous": false,
      "inputs": [
        {
          "indexed": false,
          "internalType": "address",
          "name": "account",
          "type": "address"
        }
      ],
      "name": "Paused",
      "type": "event"
    },
    {
      "anonymous": false,
      "inputs": [
        {
          "indexed": false,
          "internalType": "uint256",
          "name": "creatorID",
          "type": "uint256"
        },
        {
          "indexed": false,
          "internalType": "uint256",
          "name": "productUID",
          "type": "uint256"
        },
        {
          "indexed": false,
          "internalType": "string",
          "name": "productURI",
          "type": "string"
        },
        {
          "indexed": false,
          "internalType": "bytes[]",
          "name": "datahashes",
          "type": "bytes[]"
        },
        {
          "indexed": false,
          "internalType": "uint256[]",
          "name": "creditScore",
          "type": "uint256[]"
        }
      ],
      "name": "ProductCreated",
      "type": "event"
    },
    {
      "anonymous": false,
      "inputs": [
        {
          "indexed": true,
          "internalType": "address",
          "name": "from",
          "type": "address"
        },
        {
          "indexed": true,
          "internalType": "address",
          "name": "to",
          "type": "address"
        },
        {
          "indexed": true,
          "internalType": "uint256",
          "name": "tokenId",
          "type": "uint256"
        }
      ],
      "name": "Transfer",
      "type": "event"
    },
    {
      "anonymous": false,
      "inputs": [
        {
          "indexed": false,
          "internalType": "address",
          "name": "account",
          "type": "address"
        }
      ],
      "name": "Unpaused",
      "type": "event"
    },
    {
      "inputs": [
        {
          "internalType": "address",
          "name": "to",
          "type": "address"
        },
        {
          "internalType": "uint256",
          "name": "tokenId",
          "type": "uint256"
        }
      ],
      "name": "approve",
      "outputs": [],
      "stateMutability": "nonpayable",
      "type": "function"
    },
    {
      "inputs": [
        {
          "internalType": "address",
          "name": "owner",
          "type": "address"
        }
      ],
      "name": "balanceOf",
      "outputs": [
        {
          "internalType": "uint256",
          "name": "",
          "type": "uint256"
        }
      ],
      "stateMutability": "view",
      "type": "function"
    },
    {
      "inputs": [
        {
          "internalType": "uint256",
          "name": "_productCreatorId",
          "type": "uint256"
        },
        {
          "internalType": "uint256",
          "name": "_productUID",
          "type": "uint256"
        },
        {
          "internalType": "string",
          "name": "_productURI",
          "type": "string"
        },
        {
          "internalType": "bytes[]",
          "name": "_dataHashes",
          "type": "bytes[]"
        },
        {
          "internalType": "uint256[]",
          "name": "_creditScores",
          "type": "uint256[]"
        }
      ],
      "name": "createProduct",
      "outputs": [],
      "stateMutability": "nonpayable",
      "type": "function"
    },
    {
      "inputs": [
        {
          "internalType": "uint256",
          "name": "tokenId",
          "type": "uint256"
        }
      ],
      "name": "getApproved",
      "outputs": [
        {
          "internalType": "address",
          "name": "",
          "type": "address"
        }
      ],
      "stateMutability": "view",
      "type": "function"
    },
    {
      "inputs": [
        {
          "internalType": "bytes",
          "name": "_dHash",
          "type": "bytes"
        },
        {
          "internalType": "uint256",
          "name": "_productUID",
          "type": "uint256"
        }
      ],
      "name": "getDataCredit",
      "outputs": [
        {
          "internalType": "uint256",
          "name": "",
          "type": "uint256"
        }
      ],
      "stateMutability": "view",
      "type": "function"
    },
    {
      "inputs": [
        {
          "internalType": "bytes",
          "name": "_dHash",
          "type": "bytes"
        }
      ],
      "name": "getDataOwnerAddress",
      "outputs": [
        {
          "internalType": "address",
          "name": "",
          "type": "address"
        }
      ],
      "stateMutability": "view",
      "type": "function"
    },
    {
      "inputs": [
        {
          "internalType": "uint256",
          "name": "_productUID",
          "type": "uint256"
        }
      ],
      "name": "getInitialDataLength",
      "outputs": [
        {
          "internalType": "uint256",
          "name": "",
          "type": "uint256"
        }
      ],
      "stateMutability": "view",
      "type": "function"
    },
    {
      "inputs": [
        {
          "internalType": "uint256",
          "name": "_productUID",
          "type": "uint256"
        }
      ],
      "name": "getProductToData",
      "outputs": [
        {
          "internalType": "bytes[]",
          "name": "",
          "type": "bytes[]"
        }
      ],
      "stateMutability": "view",
      "type": "function"
    },
    {
      "inputs": [
        {
          "internalType": "address",
          "name": "owner",
          "type": "address"
        },
        {
          "internalType": "address",
          "name": "operator",
          "type": "address"
        }
      ],
      "name": "isApprovedForAll",
      "outputs": [
        {
          "internalType": "bool",
          "name": "",
          "type": "bool"
        }
      ],
      "stateMutability": "view",
      "type": "function"
    },
    {
      "inputs": [
        {
          "internalType": "uint256",
          "name": "_productUID",
          "type": "uint256"
        },
        {
          "internalType": "bytes[]",
          "name": "_newDataHashes",
          "type": "bytes[]"
        },
        {
          "internalType": "uint256[]",
          "name": "_creditScores",
          "type": "uint256[]"
        }
      ],
      "name": "linkNewData",
      "outputs": [],
      "stateMutability": "nonpayable",
      "type": "function"
    },
    {
      "inputs": [],
      "name": "name",
      "outputs": [
        {
          "internalType": "string",
          "name": "",
          "type": "string"
        }
      ],
      "stateMutability": "view",
      "type": "function"
    },
    {
      "inputs": [],
      "name": "owner",
      "outputs": [
        {
          "internalType": "address",
          "name": "",
          "type": "address"
        }
      ],
      "stateMutability": "view",
      "type": "function"
    },
    {
      "inputs": [
        {
          "internalType": "uint256",
          "name": "tokenId",
          "type": "uint256"
        }
      ],
      "name": "ownerOf",
      "outputs": [
        {
          "internalType": "address",
          "name": "",
          "type": "address"
        }
      ],
      "stateMutability": "view",
      "type": "function"
    },
    {
      "inputs": [],
      "name": "pause",
      "outputs": [],
      "stateMutability": "nonpayable",
      "type": "function"
    },
    {
      "inputs": [],
      "name": "paused",
      "outputs": [
        {
          "internalType": "bool",
          "name": "",
          "type": "bool"
        }
      ],
      "stateMutability": "view",
      "type": "function"
    },
    {
      "inputs": [],
      "name": "renounceOwnership",
      "outputs": [],
      "stateMutability": "nonpayable",
      "type": "function"
    },
    {
      "inputs": [
        {
          "internalType": "address",
          "name": "from",
          "type": "address"
        },
        {
          "internalType": "address",
          "name": "to",
          "type": "address"
        },
        {
          "internalType": "uint256",
          "name": "tokenId",
          "type": "uint256"
        }
      ],
      "name": "safeTransferFrom",
      "outputs": [],
      "stateMutability": "nonpayable",
      "type": "function"
    },
    {
      "inputs": [
        {
          "internalType": "address",
          "name": "from",
          "type": "address"
        },
        {
          "internalType": "address",
          "name": "to",
          "type": "address"
        },
        {
          "internalType": "uint256",
          "name": "tokenId",
          "type": "uint256"
        },
        {
          "internalType": "bytes",
          "name": "_data",
          "type": "bytes"
        }
      ],
      "name": "safeTransferFrom",
      "outputs": [],
      "stateMutability": "nonpayable",
      "type": "function"
    },
    {
      "inputs": [
        {
          "internalType": "address",
          "name": "operator",
          "type": "address"
        },
        {
          "internalType": "bool",
          "name": "approved",
          "type": "bool"
        }
      ],
      "name": "setApprovalForAll",
      "outputs": [],
      "stateMutability": "nonpayable",
      "type": "function"
    },
    {
      "inputs": [
        {
          "internalType": "bytes4",
          "name": "interfaceId",
          "type": "bytes4"
        }
      ],
      "name": "supportsInterface",
      "outputs": [
        {
          "internalType": "bool",
          "name": "",
          "type": "bool"
        }
      ],
      "stateMutability": "view",
      "type": "function"
    },
    {
      "inputs": [],
      "name": "symbol",
      "outputs": [
        {
          "internalType": "string",
          "name": "",
          "type": "string"
        }
      ],
      "stateMutability": "view",
      "type": "function"
    },
    {
      "inputs": [
        {
          "internalType": "uint256",
          "name": "tokenId",
          "type": "uint256"
        }
      ],
      "name": "tokenURI",
      "outputs": [
        {
          "internalType": "string",
          "name": "",
          "type": "string"
        }
      ],
      "stateMutability": "view",
      "type": "function"
    },
    {
      "inputs": [
        {
          "internalType": "address",
          "name": "from",
          "type": "address"
        },
        {
          "internalType": "address",
          "name": "to",
          "type": "address"
        },
        {
          "internalType": "uint256",
          "name": "tokenId",
          "type": "uint256"
        }
      ],
      "name": "transferFrom",
      "outputs": [],
      "stateMutability": "nonpayable",
      "type": "function"
    },
    {
      "inputs": [
        {
          "internalType": "address",
          "name": "newOwner",
          "type": "address"
        }
      ],
      "name": "transferOwnership",
      "outputs": [],
      "stateMutability": "nonpayable",
      "type": "function"
    },
    {
      "inputs": [],
      "name": "unpause",
      "outputs": [],
      "stateMutability": "nonpayable",
      "type": "function"
    }
  ],
  "bytecode": "0x60806040523480156200001157600080fd5b50604051620062703803806200627083398181016040528101906200003791906200054c565b838381600090816200004a919062000847565b5080600190816200005c919062000847565b5050506200007f620000736200022a60201b60201c565b6200023260201b60201c565b6000600760146101000a81548160ff021916908315150217905550620000ce7fe1d7de7abb560cbc43b43e5bace625a4e0865b628dde3f8c82775aff2af13a0060001b620002f860201b60201c565b620001027f7ddf989ebcbc7b2268d09aca5b6f0542f70a0e723a0042dddaf875b9d07ef47c60001b620002f860201b60201c565b620001367f2d66955fa5e0e9fc59da3f9d8ccfcb1dcab1cf8572d28fafbf40e074a5b5571c60001b620002f860201b60201c565b81600c60006101000a81548173ffffffffffffffffffffffffffffffffffffffff021916908373ffffffffffffffffffffffffffffffffffffffff160217905550620001ab7f18acb2551dd04f529b45a65912af8431c9ea7664ec782662bf9ae0b0e84a17b660001b620002f860201b60201c565b620001df7f13e7d5491629ea0a61925c9bd6423bcd5c4de5c4cd230d5480c56f94ee81e29460001b620002f860201b60201c565b80600d60006101000a81548173ffffffffffffffffffffffffffffffffffffffff021916908373ffffffffffffffffffffffffffffffffffffffff160217905550505050506200092e565b600033905090565b6000600760009054906101000a900473ffffffffffffffffffffffffffffffffffffffff16905081600760006101000a81548173ffffffffffffffffffffffffffffffffffffffff021916908373ffffffffffffffffffffffffffffffffffffffff1602179055508173ffffffffffffffffffffffffffffffffffffffff168173ffffffffffffffffffffffffffffffffffffffff167f8be0079c531659141344cd1fd0a4f28419497f9722a3daafe3b4186f6b6457e060405160405180910390a35050565b50565b6000604051905090565b600080fd5b600080fd5b600080fd5b600080fd5b6000601f19601f8301169050919050565b7f4e487b7100000000000000000000000000000000000000000000000000000000600052604160045260246000fd5b620003648262000319565b810181811067ffffffffffffffff821117156200038657620003856200032a565b5b80604052505050565b60006200039b620002fb565b9050620003a9828262000359565b919050565b600067ffffffffffffffff821115620003cc57620003cb6200032a565b5b620003d78262000319565b9050602081019050919050565b60005b8381101562000404578082015181840152602081019050620003e7565b60008484015250505050565b6000620004276200042184620003ae565b6200038f565b90508281526020810184848401111562000446576200044562000314565b5b62000453848285620003e4565b509392505050565b600082601f8301126200047357620004726200030f565b5b81516200048584826020860162000410565b91505092915050565b600073ffffffffffffffffffffffffffffffffffffffff82169050919050565b6000620004bb826200048e565b9050919050565b6000620004cf82620004ae565b9050919050565b620004e181620004c2565b8114620004ed57600080fd5b50565b6000815190506200050181620004d6565b92915050565b60006200051482620004ae565b9050919050565b620005268162000507565b81146200053257600080fd5b50565b60008151905062000546816200051b565b92915050565b6000806000806080858703121562000569576200056862000305565b5b600085015167ffffffffffffffff8111156200058a57620005896200030a565b5b62000598878288016200045b565b945050602085015167ffffffffffffffff811115620005bc57620005bb6200030a565b5b620005ca878288016200045b565b9350506040620005dd87828801620004f0565b9250506060620005f08782880162000535565b91505092959194509250565b600081519050919050565b7f4e487b7100000000000000000000000000000000000000000000000000000000600052602260045260246000fd5b600060028204905060018216806200064f57607f821691505b60208210810362000665576200066462000607565b5b50919050565b60008190508160005260206000209050919050565b60006020601f8301049050919050565b600082821b905092915050565b600060088302620006cf7fffffffffffffffffffffffffffffffffffffffffffffffffffffffffffffffff8262000690565b620006db868362000690565b95508019841693508086168417925050509392505050565b6000819050919050565b6000819050919050565b600062000728620007226200071c84620006f3565b620006fd565b620006f3565b9050919050565b6000819050919050565b620007448362000707565b6200075c62000753826200072f565b8484546200069d565b825550505050565b600090565b6200077362000764565b6200078081848462000739565b505050565b5b81811015620007a8576200079c60008262000769565b60018101905062000786565b5050565b601f821115620007f757620007c1816200066b565b620007cc8462000680565b81016020851015620007dc578190505b620007f4620007eb8562000680565b83018262000785565b50505b505050565b600082821c905092915050565b60006200081c60001984600802620007fc565b1980831691505092915050565b600062000837838362000809565b9150826002028217905092915050565b6200085282620005fc565b67ffffffffffffffff8111156200086e576200086d6200032a565b5b6200087a825462000636565b62000887828285620007ac565b600060209050601f831160018114620008bf5760008415620008aa578287015190505b620008b6858262000829565b86555062000926565b601f198416620008cf866200066b565b60005b82811015620008f957848901518255600182019150602085019450602081019050620008d2565b8683101562000919578489015162000915601f89168262000809565b8355505b6001600288020188555050505b505050505050565b615932806200093e6000396000f3fe608060405234801561001057600080fd5b50600436106101735760003560e01c80636352211e116100de57806395d89b4111610097578063c87b56dd11610071578063c87b56dd14610422578063c9187fe714610452578063e985e9c514610482578063f2fde38b146104b257610173565b806395d89b41146103cc578063a22cb465146103ea578063b88d4fde1461040657610173565b80636352211e1461030a57806370a082311461033a578063715018a61461036a5780638456cb591461037457806384ffeca51461037e5780638da5cb5b146103ae57610173565b806323b872dd1161013057806323b872dd1461025e578063301bab031461027a5780633f4ba83a1461029657806342842e0e146102a057806359a96ffe146102bc5780635c975abb146102ec57610173565b806301ffc9a71461017857806306fdde03146101a8578063081812fc146101c6578063095ea7b3146101f65780630e47cefa146102125780630f139de914610242575b600080fd5b610192600480360381019061018d919061378a565b6104ce565b60405161019f91906137d2565b60405180910390f35b6101b06105b0565b6040516101bd919061387d565b60405180910390f35b6101e060048036038101906101db91906138d5565b610642565b6040516101ed9190613943565b60405180910390f35b610210600480360381019061020b919061398a565b6106c7565b005b61022c60048036038101906102279190613aff565b6107de565b6040516102399190613b6a565b60405180910390f35b61025c60048036038101906102579190613d2e565b61089c565b005b61027860048036038101906102739190613db9565b610d49565b005b610294600480360381019061028f9190613ead565b610da9565b005b61029e6113c3565b005b6102ba60048036038101906102b59190613db9565b6114cd565b005b6102d660048036038101906102d19190613f7c565b6114ed565b6040516102e39190613943565b60405180910390f35b6102f46116b1565b60405161030191906137d2565b60405180910390f35b610324600480360381019061031f91906138d5565b6116c8565b6040516103319190613943565b60405180910390f35b610354600480360381019061034f9190613fc5565b611779565b6040516103619190613b6a565b60405180910390f35b610372611830565b005b61037c6118b8565b005b610398600480360381019061039391906138d5565b6119c2565b6040516103a59190613b6a565b60405180910390f35b6103b6611a63565b6040516103c39190613943565b60405180910390f35b6103d4611a8d565b6040516103e1919061387d565b60405180910390f35b61040460048036038101906103ff919061401e565b611b1f565b005b610420600480360381019061041b919061405e565b611b35565b005b61043c600480360381019061043791906138d5565b611b97565b604051610449919061387d565b60405180910390f35b61046c600480360381019061046791906138d5565b611ce8565b60405161047991906141f8565b60405180910390f35b61049c6004803603810190610497919061421a565b611e58565b6040516104a991906137d2565b60405180910390f35b6104cc60048036038101906104c79190613fc5565b611eec565b005b60007f80ac58cd000000000000000000000000000000000000000000000000000000007bffffffffffffffffffffffffffffffffffffffffffffffffffffffff1916827bffffffffffffffffffffffffffffffffffffffffffffffffffffffff1916148061059957507f5b5e139f000000000000000000000000000000000000000000000000000000007bffffffffffffffffffffffffffffffffffffffffffffffffffffffff1916827bffffffffffffffffffffffffffffffffffffffffffffffffffffffff1916145b806105a957506105a882611fe3565b5b9050919050565b6060600080546105bf90614289565b80601f01602080910402602001604051908101604052809291908181526020018280546105eb90614289565b80156106385780601f1061060d57610100808354040283529160200191610638565b820191906000526020600020905b81548152906001019060200180831161061b57829003601f168201915b5050505050905090565b600061064d8261204d565b61068c576040517f08c379a00000000000000000000000000000000000000000000000000000000081526004016106839061432c565b60405180910390fd5b6004600083815260200190815260200160002060009054906101000a900473ffffffffffffffffffffffffffffffffffffffff169050919050565b60006106d2826116c8565b90508073ffffffffffffffffffffffffffffffffffffffff168373ffffffffffffffffffffffffffffffffffffffff1603610742576040517f08c379a0000000000000000000000000000000000000000000000000000000008152600401610739906143be565b60405180910390fd5b8073ffffffffffffffffffffffffffffffffffffffff166107616120b9565b73ffffffffffffffffffffffffffffffffffffffff161480610790575061078f8161078a6120b9565b611e58565b5b6107cf576040517f08c379a00000000000000000000000000000000000000000000000000000000081526004016107c690614450565b60405180910390fd5b6107d983836120c1565b505050565b600061080c7fce75bac5e496f560c63765c9d6978405250e4d079f147b4760bee3e3db2c116d60001b61217a565b6108387f96c275ab4802731ec980acdbadeb8a42bd5447a1c2c955ef194b9d253aecdddc60001b61217a565b6108647fe0417880c86cff504ac1bfe3d6d43c4e01913203bec131cc53352c7675ca12c360001b61217a565b600a8360405161087491906144ac565b9081526020016040518091039020600083815260200190815260200160002054905092915050565b6108a46116b1565b156108e4576040517f08c379a00000000000000000000000000000000000000000000000000000000081526004016108db9061450f565b60405180910390fd5b826109117fd28f59e7e567c41d9cd4244a9b2575a8513671ba952a5d51d73e3579dc52586360001b61217a565b61093d7faa514c0ef218e52abcffaa096c37a67a2aa98bba76c0c3cf6c5e9a439a73045d60001b61217a565b6109697ffc655bea22f42fb51b6f7f63c8fffa90f4f4837cffca744c46971abc7d7cd6f260001b61217a565b6109957f5ec5a875f9a3eddd89ccb3540904dfafa2c0beed71e9739853e16dd4ccc49c1460001b61217a565b6008600082815260200190815260200160002060009054906101000a900473ffffffffffffffffffffffffffffffffffffffff1673ffffffffffffffffffffffffffffffffffffffff166109e76120b9565b73ffffffffffffffffffffffffffffffffffffffff1614610a3d576040517f08c379a0000000000000000000000000000000000000000000000000000000008152600401610a349061457b565b60405180910390fd5b610a697fcc8aca181e726a7308274aea8d0a8d9ffa73afa8c81cddbd5fa9b88592b9099d60001b61217a565b610a957f25708703db56f6d68bd331a9569fe57912577b42e7f573e6db42bfd96265bc6360001b61217a565b610ac17fa717dfb22b180da93be9abe8bfe5509fff840602e54ccb54c86fee827fd2c05060001b61217a565b610aed7f53427803701b15f195d81b2089035511ea7cd61b1aa61919c74fc7191ddba08060001b61217a565b610b197f65c8fd67523a5a7807a2b75f20ff05e9a65d67921c462a573e44721811e78aed60001b61217a565b610b457f7dc395436b345aade18927cf51de7aeff0497dca12dd995fc68e7e2b7905e97d60001b61217a565b8151835114610b89576040517f08c379a0000000000000000000000000000000000000000000000000000000008152600401610b80906145e7565b60405180910390fd5b610bb57f63158089fb08da0ef02301f12b11efed8b71b15bb6c8f8f1619dc23a0a7b980e60001b61217a565b610be17f8538330a5140dda3c7a1677c27f42cac62e18366648177c7527ee9dd57a1cb7660001b61217a565b610c0d7f74e0f808b775091d1f461d99fcb971f078242ed9b37c1621ba266153f7ea5c5860001b61217a565b610c397ff17cc35af571873763edfc9d4081165980318f737c6cfcc3fe57b70f54afa57260001b61217a565b610c4484848461217d565b15610c84576040517f08c379a0000000000000000000000000000000000000000000000000000000008152600401610c7b90614653565b60405180910390fd5b610cb07fe5d5d0589891d30360380eb8af2de1afa033f131c18afe8f3eb26f2f0bf2276760001b61217a565b610cdc7f83b86bfbdb506b13f823611116731bac575812fa6911ce8846376970a310bc0b60001b61217a565b610d087f011ebb22fa561ef8d47104eb58abee2e038cc930705e74a5f8712cf6f821815060001b61217a565b7f0d5bcc3cb98adc5778f35c805a29156280afd1cfe4d8c019920fc995578784bd848484604051610d3b93929190614731565b60405180910390a150505050565b610d5a610d546120b9565b8261265c565b610d99576040517f08c379a0000000000000000000000000000000000000000000000000000000008152600401610d90906147e8565b60405180910390fd5b610da483838361273a565b505050565b610db16116b1565b15610df1576040517f08c379a0000000000000000000000000000000000000000000000000000000008152600401610de89061450f565b60405180910390fd5b610e1d7f51177b0572138729c01ea547aabec233caf0564c68850906555a9b29b2928f4060001b61217a565b610e497f8fbd8f6db9b3a2e5292ff2e3e3943b4281067c848ebecda2887508727430c0b660001b61217a565b610e757fc25ea1dfe610955211aad527f78172f4957034a8a91769eb653ae637e042ba5b60001b61217a565b610ea17fbcd30f1c6a972b381b5c5881e6493bc540ad56c3d98fe95f46518cf930e9c39160001b61217a565b6001600c60009054906101000a900473ffffffffffffffffffffffffffffffffffffffff1673ffffffffffffffffffffffffffffffffffffffff16634b557d8a610ee96120b9565b6040518263ffffffff1660e01b8152600401610f059190613943565b602060405180830381865afa158015610f22573d6000803e3d6000fd5b505050506040513d601f19601f82011682018060405250810190610f469190614841565b60ff1614610f89576040517f08c379a0000000000000000000000000000000000000000000000000000000008152600401610f80906148ba565b60405180910390fd5b610fb57f7934eaf491f2ab737ecf15cbdb119ed1b55b1d94c1b8a14c80e1b3df8135a8cb60001b61217a565b610fe17f83c406d73578e6cbbf3f35531b33eb406258a4e54a32522011d8f358fd53c72f60001b61217a565b61100d7fb5cdf609f36c6ce187935e2f66a4848e4d0537bd056978ffa7e50d21ac47e33b60001b61217a565b6110397ffb377b196aa1845f7b74a4e8a8efcc97676791b0877646db58fc0cccf3b78db560001b61217a565b6110657ffa25e626d706e9a0c206c994e1c35d9f3a047bd70bd990821fc560380740b52c60001b61217a565b6110917f02a802d94ea9574359a13e3f28562fa59c618b7beb3e230be9badd4b00c2216160001b61217a565b600c60009054906101000a900473ffffffffffffffffffffffffffffffffffffffff1673ffffffffffffffffffffffffffffffffffffffff16636352211e866040518263ffffffff1660e01b81526004016110ec9190613b6a565b602060405180830381865afa158015611109573d6000803e3d6000fd5b505050506040513d601f19601f8201168201806040525081019061112d91906148ef565b73ffffffffffffffffffffffffffffffffffffffff1661114b6120b9565b73ffffffffffffffffffffffffffffffffffffffff16146111a1576040517f08c379a00000000000000000000000000000000000000000000000000000000081526004016111989061498e565b60405180910390fd5b6111cd7f6bd8c7676f6f2a1bc9b4cf4cee0cf463126111b68b832a254901099e1f41b27160001b61217a565b6111f97fee9d69e8bd9c5b9e70225013c8fd4a7bb006f03b4618fa07a9e6bf49efc92c2960001b61217a565b6112257fa76de577899ff303f4d10c27fa04b586185f5c9da7f0eb06ef59345f7a206e5860001b61217a565b6112517ff2b1db7147cbddc59253f7e99934c4927aad24ab54cf0b08bb17fa452fdd3ce960001b61217a565b8051825114611295576040517f08c379a000000000000000000000000000000000000000000000000000000000815260040161128c906145e7565b60405180910390fd5b6112c17fc6a30f396329243fbbdf17d1e1e7245629263cc74518ba31b27c277c9404484a60001b61217a565b6112ed7f26e4e33bb7e79494d0698b85d6e31203bf9121786a45319d46583dbd5ab2dd4b60001b61217a565b6113197f2c10c6293ad5106b50ddc3315a86e2f76f1790cbb802b861ca21589175346d9760001b61217a565b611325848484846129a0565b6113517f5af4c400fe245898ff16f0abf139586e13b1528107a4324ed5cecb4f334f4e1960001b61217a565b61137d7ffe134f2893b02ac1d11318d56c069291d69b29afd7d1244418d53a30eba03aa660001b61217a565b7fd1d11ef5e1b8d376e575876c31128f027cd644b8af4053b48cd239f545ea7fa185858585856040516113b49594939291906149ae565b60405180910390a15050505050565b6113cb6120b9565b73ffffffffffffffffffffffffffffffffffffffff166113e9611a63565b73ffffffffffffffffffffffffffffffffffffffff161461143f576040517f08c379a000000000000000000000000000000000000000000000000000000000815260040161143690614a62565b60405180910390fd5b61146b7fb3249f4daa7c7846a3c1fa00f7a82d006c9036004da689384c7e4f432a3fb03760001b61217a565b6114977f573f4e133e1f60dfe64f2fecc97fcd9072d1dea493fcbeccdf2c97c2f676df9560001b61217a565b6114c37fa0b626e6e81197e0c549468b3756d4344c3bae9649f2630b2ced44e905c6ac8360001b61217a565b6114cb612cba565b565b6114e883838360405180602001604052806000815250611b35565b505050565b600061151b7ff0eaa3fdc44db3e47c58f493df488c6120805c6c5ca9671deb530afef14089ba60001b61217a565b6115477f90649855c0fbeed2c9d0b52c2383d9908428bc63179680534a6ca307e428962d60001b61217a565b6115737f4555fe6e0db29815841433d317dd7fd8763b97b3e7daaf60258ab7916902a90560001b61217a565b600c60009054906101000a900473ffffffffffffffffffffffffffffffffffffffff1673ffffffffffffffffffffffffffffffffffffffff16636352211e600d60009054906101000a900473ffffffffffffffffffffffffffffffffffffffff1673ffffffffffffffffffffffffffffffffffffffff1663a3085ce8856040518263ffffffff1660e01b815260040161160c9190614acc565b602060405180830381865afa158015611629573d6000803e3d6000fd5b505050506040513d601f19601f8201168201806040525081019061164d9190614b03565b6040518263ffffffff1660e01b81526004016116699190613b6a565b602060405180830381865afa158015611686573d6000803e3d6000fd5b505050506040513d601f19601f820116820180604052508101906116aa91906148ef565b9050919050565b6000600760149054906101000a900460ff16905090565b6000806002600084815260200190815260200160002060009054906101000a900473ffffffffffffffffffffffffffffffffffffffff169050600073ffffffffffffffffffffffffffffffffffffffff168173ffffffffffffffffffffffffffffffffffffffff1603611770576040517f08c379a000000000000000000000000000000000000000000000000000000000815260040161176790614ba2565b60405180910390fd5b80915050919050565b60008073ffffffffffffffffffffffffffffffffffffffff168273ffffffffffffffffffffffffffffffffffffffff16036117e9576040517f08c379a00000000000000000000000000000000000000000000000000000000081526004016117e090614c34565b60405180910390fd5b600360008373ffffffffffffffffffffffffffffffffffffffff1673ffffffffffffffffffffffffffffffffffffffff168152602001908152602001600020549050919050565b6118386120b9565b73ffffffffffffffffffffffffffffffffffffffff16611856611a63565b73ffffffffffffffffffffffffffffffffffffffff16146118ac576040517f08c379a00000000000000000000000000000000000000000000000000000000081526004016118a390614a62565b60405180910390fd5b6118b66000612d5c565b565b6118c06120b9565b73ffffffffffffffffffffffffffffffffffffffff166118de611a63565b73ffffffffffffffffffffffffffffffffffffffff1614611934576040517f08c379a000000000000000000000000000000000000000000000000000000000815260040161192b90614a62565b60405180910390fd5b6119607f615f21de7a2a38360f921b96328b9a5cf4f8a72c9a12b3f8c5004bc4d94cd32b60001b61217a565b61198c7fd9ac820ac33fa3914853c6eda3a7292075842b2c727af6e959fea43b5613759460001b61217a565b6119b87fb559305a685f2987dc45c001bd7422d0f0edb4c9e6e237f9f11a2d04dd35cd7260001b61217a565b6119c0612e22565b565b60006119f07f6dc4ae56d1ec10dfa73ccfb08ccbd5973b5b6497eb6f10c01a01dc3f2343d48960001b61217a565b611a1c7fd77e7546c233e64c1dfb9f976f3a8c0c0a9b68960a11c6345e3b2ad00c3551da60001b61217a565b611a487ff036320ede081dd9d1a0edb21445ae0a573919e72c35324942ef01c9741dafb460001b61217a565b60096000838152602001908152602001600020549050919050565b6000600760009054906101000a900473ffffffffffffffffffffffffffffffffffffffff16905090565b606060018054611a9c90614289565b80601f0160208091040260200160405190810160405280929190818152602001828054611ac890614289565b8015611b155780601f10611aea57610100808354040283529160200191611b15565b820191906000526020600020905b815481529060010190602001808311611af857829003601f168201915b5050505050905090565b611b31611b2a6120b9565b8383612ec5565b5050565b611b46611b406120b9565b8361265c565b611b85576040517f08c379a0000000000000000000000000000000000000000000000000000000008152600401611b7c906147e8565b60405180910390fd5b611b9184848484613031565b50505050565b6060611ba28261204d565b611be1576040517f08c379a0000000000000000000000000000000000000000000000000000000008152600401611bd890614cc6565b60405180910390fd5b6000600660008481526020019081526020016000208054611c0190614289565b80601f0160208091040260200160405190810160405280929190818152602001828054611c2d90614289565b8015611c7a5780601f10611c4f57610100808354040283529160200191611c7a565b820191906000526020600020905b815481529060010190602001808311611c5d57829003601f168201915b505050505090506000611c8b61308d565b90506000815103611ca0578192505050611ce3565b600082511115611cd5578082604051602001611cbd929190614d22565b60405160208183030381529060405292505050611ce3565b611cde846130a4565b925050505b919050565b6060611d167f0e870f78fa43f70288145375585db00d09c8ebdae8e5384c3d941e0f82329cf560001b61217a565b611d427fcba685e47858b5c31bee1150fa6f0d6b86e60d174818ec68e25d24e4c056e78e60001b61217a565b611d6e7ffadf27ace471916c498f547fd41a7243303dc60418fdd45a17f502d98b14f23960001b61217a565b600b6000838152602001908152602001600020805480602002602001604051908101604052809291908181526020016000905b82821015611e4d578382906000526020600020018054611dc090614289565b80601f0160208091040260200160405190810160405280929190818152602001828054611dec90614289565b8015611e395780601f10611e0e57610100808354040283529160200191611e39565b820191906000526020600020905b815481529060010190602001808311611e1c57829003601f168201915b505050505081526020019060010190611da1565b505050509050919050565b6000600560008473ffffffffffffffffffffffffffffffffffffffff1673ffffffffffffffffffffffffffffffffffffffff16815260200190815260200160002060008373ffffffffffffffffffffffffffffffffffffffff1673ffffffffffffffffffffffffffffffffffffffff16815260200190815260200160002060009054906101000a900460ff16905092915050565b611ef46120b9565b73ffffffffffffffffffffffffffffffffffffffff16611f12611a63565b73ffffffffffffffffffffffffffffffffffffffff1614611f68576040517f08c379a0000000000000000000000000000000000000000000000000000000008152600401611f5f90614a62565b60405180910390fd5b600073ffffffffffffffffffffffffffffffffffffffff168173ffffffffffffffffffffffffffffffffffffffff1603611fd7576040517f08c379a0000000000000000000000000000000000000000000000000000000008152600401611fce90614db8565b60405180910390fd5b611fe081612d5c565b50565b60007f01ffc9a7000000000000000000000000000000000000000000000000000000007bffffffffffffffffffffffffffffffffffffffffffffffffffffffff1916827bffffffffffffffffffffffffffffffffffffffffffffffffffffffff1916149050919050565b60008073ffffffffffffffffffffffffffffffffffffffff166002600084815260200190815260200160002060009054906101000a900473ffffffffffffffffffffffffffffffffffffffff1673ffffffffffffffffffffffffffffffffffffffff1614159050919050565b600033905090565b816004600083815260200190815260200160002060006101000a81548173ffffffffffffffffffffffffffffffffffffffff021916908373ffffffffffffffffffffffffffffffffffffffff160217905550808273ffffffffffffffffffffffffffffffffffffffff16612134836116c8565b73ffffffffffffffffffffffffffffffffffffffff167f8c5be1e5ebec7d5bd14f71427d1e84f3dd0314c0f7b2291e5b200ac8c7c3b92560405160405180910390a45050565b50565b60006121ab7f420414ac5c2cb9443b71fd1bc4b124a2bf9d844133ae2c3bae10bdda3a74c5f960001b61217a565b6121d77f25ef65c0382ec2199fbd5d59ecc506748cbacc2c59f0deda5a4de9c4c6187a2460001b61217a565b6122037f2db9ecb34bde7b2e3fc168e549c1b8fe03bacee4822f19fb834cb22264ed5f4360001b61217a565b60006122317f8ff5a6d237baf654ff2f3c2f3ecb80a5fd176fd20b0e12883ff6311221bb92d560001b61217a565b61225d7fdd8f80ba7ab67756d9cf22828d053d03ee19f175a7ddb436f1f295f2146fdff160001b61217a565b60005b84518110156125f8576122957f18933491124ce4d1b43b5cffa1e0ec94b1935e3f352e3551abc3b4ce3df9b37260001b61217a565b6122c17f6642cf91f8d078e455f472703d794598736d8f40a34146e2b59e43e0144bdf6460001b61217a565b6001600d60009054906101000a900473ffffffffffffffffffffffffffffffffffffffff1673ffffffffffffffffffffffffffffffffffffffff16635f233dab87848151811061231457612313614dd8565b5b6020026020010151896040518363ffffffff1660e01b815260040161233a929190614e07565b602060405180830381865afa158015612357573d6000803e3d6000fd5b505050506040513d601f19601f8201168201806040525081019061237b9190614841565b60ff160361252c576123af7f7db3c1afeddfe21031c453290ad1bfdcbea3850a8c277d7340ff3db63af2d18160001b61217a565b6123db7f7d6b48ed032d246e23535a9cb7e71d2a3a7191238fad0b8143e1fe98cb7463ef60001b61217a565b6124077f3f519cfcdffbac929f7d92b90991ce38f14187ec8ead836c035e4b720898936c60001b61217a565b83818151811061241a57612419614dd8565b5b6020026020010151600a86838151811061243757612436614dd8565b5b602002602001015160405161244c91906144ac565b908152602001604051809103902060008881526020019081526020016000208190555061249b7fc4e893e813566eb371a37568dc3a2d9f0e91188e4df46f8870d47057e20bcf5a60001b61217a565b6124c77f6e71e318a47c1308cf0a9690e0a342703b52a800f0311dc60b7a4c30b024b29160001b61217a565b600b60008781526020019081526020016000208582815181106124ed576124ec614dd8565b5b60200260200101519080600181540180825580915050600190039060005260206000200160009091909190915090816125269190614fe3565b506125e5565b6125587f25ec0d41dcd7d32bc71b06f4348d79ae2fc7f3d00a0fba20c0d7f61d5c6d943560001b61217a565b6125847f67c5907f72d51f2e7e55edff265427bbe4c286127693c267c8141940279a8fb360001b61217a565b6125b07f1aea1475cd7236069af3d2c63f3849a31d901477c63babe6a667d78e0782069f60001b61217a565b600191506125e07f4ac479f49e36792128e622b17bb418d337d5abe650a88b29bf565e14b67878ee60001b61217a565b6125f8565b80806125f0906150e4565b915050612260565b506126257f14238ad648fa6a00220510a5de83d4490b36bfc5beecbc484aacbfb4056c036460001b61217a565b6126517fec0091a5b2badf4ec92c0751f84296a0fbac8abd59b0fc4ca545188ec73c552460001b61217a565b809150509392505050565b60006126678261204d565b6126a6576040517f08c379a000000000000000000000000000000000000000000000000000000000815260040161269d9061519e565b60405180910390fd5b60006126b1836116c8565b90508073ffffffffffffffffffffffffffffffffffffffff168473ffffffffffffffffffffffffffffffffffffffff16148061272057508373ffffffffffffffffffffffffffffffffffffffff1661270884610642565b73ffffffffffffffffffffffffffffffffffffffff16145b8061273157506127308185611e58565b5b91505092915050565b8273ffffffffffffffffffffffffffffffffffffffff1661275a826116c8565b73ffffffffffffffffffffffffffffffffffffffff16146127b0576040517f08c379a00000000000000000000000000000000000000000000000000000000081526004016127a790615230565b60405180910390fd5b600073ffffffffffffffffffffffffffffffffffffffff168273ffffffffffffffffffffffffffffffffffffffff160361281f576040517f08c379a0000000000000000000000000000000000000000000000000000000008152600401612816906152c2565b60405180910390fd5b61282a83838361314b565b6128356000826120c1565b6001600360008573ffffffffffffffffffffffffffffffffffffffff1673ffffffffffffffffffffffffffffffffffffffff168152602001908152602001600020600082825461288591906152e2565b925050819055506001600360008473ffffffffffffffffffffffffffffffffffffffff1673ffffffffffffffffffffffffffffffffffffffff16815260200190815260200160002060008282546128dc9190615316565b92505081905550816002600083815260200190815260200160002060006101000a81548173ffffffffffffffffffffffffffffffffffffffff021916908373ffffffffffffffffffffffffffffffffffffffff160217905550808273ffffffffffffffffffffffffffffffffffffffff168473ffffffffffffffffffffffffffffffffffffffff167fddf252ad1be2c89b69c2b068fc378daa952ba7f163c4a11628f55a4df523b3ef60405160405180910390a461299b838383613150565b505050565b6129cc7f342add856abfc3aad0fa4afe205ac9c925d684678d27216418adc1d48363324f60001b61217a565b6129f87f9840543c2544c365b9f567ccb81dc9ff7cde02dd3dcf4d357858460eb46d725260001b61217a565b612a247f735efad613038fc1b42bfb5478404f9be249aca3753391d64f123f787aa39cf360001b61217a565b612a507f987c8fa99e83c4fe9527d90ae488808dc6d24a01ed24f20a7dd4c5a5520769e860001b61217a565b612a5b84838361217d565b15612a9b576040517f08c379a0000000000000000000000000000000000000000000000000000000008152600401612a9290614653565b60405180910390fd5b612ac77fa8b0a2ca82ce9d03586c4be9ab1bc02ba809fd208ee66191564d13545a2ea5f060001b61217a565b612af37f90d8d25068cd9fd0f32df5f17129db388cfbaec760e96a2076828c4d78a9e5a360001b61217a565b612b1f7fb7d16b74a676f1a3d0101d83d253d3173a32849830dc0d5e95d20f4e63704fcf60001b61217a565b612b30612b2a6120b9565b85613155565b612b5c7fd1527c96678f7c81c5a212ad19cee9a1c0f91bb9e6af0089e59d39882960dac160001b61217a565b612b887f353a961ecb3991b95d39b2f12d2d47a4b95b5750d25e4a02913db017c5cdd3dd60001b61217a565b612b928484613173565b612bbe7f7d7be97d0baa9512b2d3df28185895c2b4a1b80088444f1678cbc077f319bb1d60001b61217a565b612bea7fc98b1e1e5f0b20b661eaa6b429fda679836986779f00ed57a5848b2f4dd02d7f60001b61217a565b612bf26120b9565b6008600086815260200190815260200160002060006101000a81548173ffffffffffffffffffffffffffffffffffffffff021916908373ffffffffffffffffffffffffffffffffffffffff160217905550612c6f7f47c29e86cc509396ada7b234dd4fa9c2af4c7887c7913d001cd0f39db947d8da60001b61217a565b612c9b7ff5b727aa19aa71ae883c3a1394333b3668f3e5325b4cd6904e1dbec4a7a404bf60001b61217a565b8151600960008681526020019081526020016000208190555050505050565b612cc26116b1565b612d01576040517f08c379a0000000000000000000000000000000000000000000000000000000008152600401612cf890615396565b60405180910390fd5b6000600760146101000a81548160ff0219169083151502179055507f5db9ee0a495bf2e6ff9c91a7834c1ba4fdd244a5e8aa4e537bd38aeae4b073aa612d456120b9565b604051612d529190613943565b60405180910390a1565b6000600760009054906101000a900473ffffffffffffffffffffffffffffffffffffffff16905081600760006101000a81548173ffffffffffffffffffffffffffffffffffffffff021916908373ffffffffffffffffffffffffffffffffffffffff1602179055508173ffffffffffffffffffffffffffffffffffffffff168173ffffffffffffffffffffffffffffffffffffffff167f8be0079c531659141344cd1fd0a4f28419497f9722a3daafe3b4186f6b6457e060405160405180910390a35050565b612e2a6116b1565b15612e6a576040517f08c379a0000000000000000000000000000000000000000000000000000000008152600401612e619061450f565b60405180910390fd5b6001600760146101000a81548160ff0219169083151502179055507f62e78cea01bee320cd4e420270b5ea74000d11b0c9f74754ebdbfc544b05a258612eae6120b9565b604051612ebb9190613943565b60405180910390a1565b8173ffffffffffffffffffffffffffffffffffffffff168373ffffffffffffffffffffffffffffffffffffffff1603612f33576040517f08c379a0000000000000000000000000000000000000000000000000000000008152600401612f2a90615402565b60405180910390fd5b80600560008573ffffffffffffffffffffffffffffffffffffffff1673ffffffffffffffffffffffffffffffffffffffff16815260200190815260200160002060008473ffffffffffffffffffffffffffffffffffffffff1673ffffffffffffffffffffffffffffffffffffffff16815260200190815260200160002060006101000a81548160ff0219169083151502179055508173ffffffffffffffffffffffffffffffffffffffff168373ffffffffffffffffffffffffffffffffffffffff167f17307eab39ab6107e8899845ad3d59bd9653f200f220920489ca2b5937696c318360405161302491906137d2565b60405180910390a3505050565b61303c84848461273a565b613048848484846131e0565b613087576040517f08c379a000000000000000000000000000000000000000000000000000000000815260040161307e90615494565b60405180910390fd5b50505050565b606060405180602001604052806000815250905090565b60606130af8261204d565b6130ee576040517f08c379a00000000000000000000000000000000000000000000000000000000081526004016130e590615526565b60405180910390fd5b60006130f861308d565b905060008151116131185760405180602001604052806000815250613143565b8061312284613367565b604051602001613133929190614d22565b6040516020818303038152906040525b915050919050565b505050565b505050565b61316f8282604051806020016040528060008152506134c7565b5050565b61317c8261204d565b6131bb576040517f08c379a00000000000000000000000000000000000000000000000000000000081526004016131b2906155b8565b60405180910390fd5b806006600084815260200190815260200160002090816131db9190615633565b505050565b60006132018473ffffffffffffffffffffffffffffffffffffffff16613522565b1561335a578373ffffffffffffffffffffffffffffffffffffffff1663150b7a0261322a6120b9565b8786866040518563ffffffff1660e01b815260040161324c9493929190615705565b6020604051808303816000875af192505050801561328857506040513d601f19601f820116820180604052508101906132859190615766565b60015b61330a573d80600081146132b8576040519150601f19603f3d011682016040523d82523d6000602084013e6132bd565b606091505b506000815103613302576040517f08c379a00000000000000000000000000000000000000000000000000000000081526004016132f990615494565b60405180910390fd5b805181602001fd5b63150b7a0260e01b7bffffffffffffffffffffffffffffffffffffffffffffffffffffffff1916817bffffffffffffffffffffffffffffffffffffffffffffffffffffffff19161491505061335f565b600190505b949350505050565b6060600082036133ae576040518060400160405280600181526020017f300000000000000000000000000000000000000000000000000000000000000081525090506134c2565b600082905060005b600082146133e05780806133c9906150e4565b915050600a826133d991906157c2565b91506133b6565b60008167ffffffffffffffff8111156133fc576133fb6139d4565b5b6040519080825280601f01601f19166020018201604052801561342e5781602001600182028036833780820191505090505b5090505b600085146134bb5760018261344791906152e2565b9150600a8561345691906157f3565b60306134629190615316565b60f81b81838151811061347857613477614dd8565b5b60200101907effffffffffffffffffffffffffffffffffffffffffffffffffffffffffffff1916908160001a905350600a856134b491906157c2565b9450613432565b8093505050505b919050565b6134d18383613545565b6134de60008484846131e0565b61351d576040517f08c379a000000000000000000000000000000000000000000000000000000000815260040161351490615494565b60405180910390fd5b505050565b6000808273ffffffffffffffffffffffffffffffffffffffff163b119050919050565b600073ffffffffffffffffffffffffffffffffffffffff168273ffffffffffffffffffffffffffffffffffffffff16036135b4576040517f08c379a00000000000000000000000000000000000000000000000000000000081526004016135ab90615870565b60405180910390fd5b6135bd8161204d565b156135fd576040517f08c379a00000000000000000000000000000000000000000000000000000000081526004016135f4906158dc565b60405180910390fd5b6136096000838361314b565b6001600360008473ffffffffffffffffffffffffffffffffffffffff1673ffffffffffffffffffffffffffffffffffffffff16815260200190815260200160002060008282546136599190615316565b92505081905550816002600083815260200190815260200160002060006101000a81548173ffffffffffffffffffffffffffffffffffffffff021916908373ffffffffffffffffffffffffffffffffffffffff160217905550808273ffffffffffffffffffffffffffffffffffffffff16600073ffffffffffffffffffffffffffffffffffffffff167fddf252ad1be2c89b69c2b068fc378daa952ba7f163c4a11628f55a4df523b3ef60405160405180910390a461371a60008383613150565b5050565b6000604051905090565b600080fd5b600080fd5b60007fffffffff0000000000000000000000000000000000000000000000000000000082169050919050565b61376781613732565b811461377257600080fd5b50565b6000813590506137848161375e565b92915050565b6000602082840312156137a05761379f613728565b5b60006137ae84828501613775565b91505092915050565b60008115159050919050565b6137cc816137b7565b82525050565b60006020820190506137e760008301846137c3565b92915050565b600081519050919050565b600082825260208201905092915050565b60005b8381101561382757808201518184015260208101905061380c565b60008484015250505050565b6000601f19601f8301169050919050565b600061384f826137ed565b61385981856137f8565b9350613869818560208601613809565b61387281613833565b840191505092915050565b600060208201905081810360008301526138978184613844565b905092915050565b6000819050919050565b6138b28161389f565b81146138bd57600080fd5b50565b6000813590506138cf816138a9565b92915050565b6000602082840312156138eb576138ea613728565b5b60006138f9848285016138c0565b91505092915050565b600073ffffffffffffffffffffffffffffffffffffffff82169050919050565b600061392d82613902565b9050919050565b61393d81613922565b82525050565b60006020820190506139586000830184613934565b92915050565b61396781613922565b811461397257600080fd5b50565b6000813590506139848161395e565b92915050565b600080604083850312156139a1576139a0613728565b5b60006139af85828601613975565b92505060206139c0858286016138c0565b9150509250929050565b600080fd5b600080fd5b7f4e487b7100000000000000000000000000000000000000000000000000000000600052604160045260246000fd5b613a0c82613833565b810181811067ffffffffffffffff82111715613a2b57613a2a6139d4565b5b80604052505050565b6000613a3e61371e565b9050613a4a8282613a03565b919050565b600067ffffffffffffffff821115613a6a57613a696139d4565b5b613a7382613833565b9050602081019050919050565b82818337600083830152505050565b6000613aa2613a9d84613a4f565b613a34565b905082815260208101848484011115613abe57613abd6139cf565b5b613ac9848285613a80565b509392505050565b600082601f830112613ae657613ae56139ca565b5b8135613af6848260208601613a8f565b91505092915050565b60008060408385031215613b1657613b15613728565b5b600083013567ffffffffffffffff811115613b3457613b3361372d565b5b613b4085828601613ad1565b9250506020613b51858286016138c0565b9150509250929050565b613b648161389f565b82525050565b6000602082019050613b7f6000830184613b5b565b92915050565b600067ffffffffffffffff821115613ba057613b9f6139d4565b5b602082029050602081019050919050565b600080fd5b6000613bc9613bc484613b85565b613a34565b90508083825260208201905060208402830185811115613bec57613beb613bb1565b5b835b81811015613c3357803567ffffffffffffffff811115613c1157613c106139ca565b5b808601613c1e8982613ad1565b85526020850194505050602081019050613bee565b5050509392505050565b600082601f830112613c5257613c516139ca565b5b8135613c62848260208601613bb6565b91505092915050565b600067ffffffffffffffff821115613c8657613c856139d4565b5b602082029050602081019050919050565b6000613caa613ca584613c6b565b613a34565b90508083825260208201905060208402830185811115613ccd57613ccc613bb1565b5b835b81811015613cf65780613ce288826138c0565b845260208401935050602081019050613ccf565b5050509392505050565b600082601f830112613d1557613d146139ca565b5b8135613d25848260208601613c97565b91505092915050565b600080600060608486031215613d4757613d46613728565b5b6000613d55868287016138c0565b935050602084013567ffffffffffffffff811115613d7657613d7561372d565b5b613d8286828701613c3d565b925050604084013567ffffffffffffffff811115613da357613da261372d565b5b613daf86828701613d00565b9150509250925092565b600080600060608486031215613dd257613dd1613728565b5b6000613de086828701613975565b9350506020613df186828701613975565b9250506040613e02868287016138c0565b9150509250925092565b600067ffffffffffffffff821115613e2757613e266139d4565b5b613e3082613833565b9050602081019050919050565b6000613e50613e4b84613e0c565b613a34565b905082815260208101848484011115613e6c57613e6b6139cf565b5b613e77848285613a80565b509392505050565b600082601f830112613e9457613e936139ca565b5b8135613ea4848260208601613e3d565b91505092915050565b600080600080600060a08688031215613ec957613ec8613728565b5b6000613ed7888289016138c0565b9550506020613ee8888289016138c0565b945050604086013567ffffffffffffffff811115613f0957613f0861372d565b5b613f1588828901613e7f565b935050606086013567ffffffffffffffff811115613f3657613f3561372d565b5b613f4288828901613c3d565b925050608086013567ffffffffffffffff811115613f6357613f6261372d565b5b613f6f88828901613d00565b9150509295509295909350565b600060208284031215613f9257613f91613728565b5b600082013567ffffffffffffffff811115613fb057613faf61372d565b5b613fbc84828501613ad1565b91505092915050565b600060208284031215613fdb57613fda613728565b5b6000613fe984828501613975565b91505092915050565b613ffb816137b7565b811461400657600080fd5b50565b60008135905061401881613ff2565b92915050565b6000806040838503121561403557614034613728565b5b600061404385828601613975565b925050602061405485828601614009565b9150509250929050565b6000806000806080858703121561407857614077613728565b5b600061408687828801613975565b945050602061409787828801613975565b93505060406140a8878288016138c0565b925050606085013567ffffffffffffffff8111156140c9576140c861372d565b5b6140d587828801613ad1565b91505092959194509250565b600081519050919050565b600082825260208201905092915050565b6000819050602082019050919050565b600081519050919050565b600082825260208201905092915050565b60006141348261410d565b61413e8185614118565b935061414e818560208601613809565b61415781613833565b840191505092915050565b600061416e8383614129565b905092915050565b6000602082019050919050565b600061418e826140e1565b61419881856140ec565b9350836020820285016141aa856140fd565b8060005b858110156141e657848403895281516141c78582614162565b94506141d283614176565b925060208a019950506001810190506141ae565b50829750879550505050505092915050565b600060208201905081810360008301526142128184614183565b905092915050565b6000806040838503121561423157614230613728565b5b600061423f85828601613975565b925050602061425085828601613975565b9150509250929050565b7f4e487b7100000000000000000000000000000000000000000000000000000000600052602260045260246000fd5b600060028204905060018216806142a157607f821691505b6020821081036142b4576142b361425a565b5b50919050565b7f4552433732313a20617070726f76656420717565727920666f72206e6f6e657860008201527f697374656e7420746f6b656e0000000000000000000000000000000000000000602082015250565b6000614316602c836137f8565b9150614321826142ba565b604082019050919050565b6000602082019050818103600083015261434581614309565b9050919050565b7f4552433732313a20617070726f76616c20746f2063757272656e74206f776e6560008201527f7200000000000000000000000000000000000000000000000000000000000000602082015250565b60006143a86021836137f8565b91506143b38261434c565b604082019050919050565b600060208201905081810360008301526143d78161439b565b9050919050565b7f4552433732313a20617070726f76652063616c6c6572206973206e6f74206f7760008201527f6e6572206e6f7220617070726f76656420666f7220616c6c0000000000000000602082015250565b600061443a6038836137f8565b9150614445826143de565b604082019050919050565b600060208201905081810360008301526144698161442d565b9050919050565b600081905092915050565b60006144868261410d565b6144908185614470565b93506144a0818560208601613809565b80840191505092915050565b60006144b8828461447b565b915081905092915050565b7f5061757361626c653a2070617573656400000000000000000000000000000000600082015250565b60006144f96010836137f8565b9150614504826144c3565b602082019050919050565b60006020820190508181036000830152614528816144ec565b9050919050565b7f52454a5556453a204f6e6c792050726f647563742043726561746f7200000000600082015250565b6000614565601c836137f8565b91506145708261452f565b602082019050919050565b6000602082019050818103600083015261459481614558565b9050919050565b7f52454a5556453a204e6f7420657175616c206c656e6774680000000000000000600082015250565b60006145d16018836137f8565b91506145dc8261459b565b602082019050919050565b60006020820190508181036000830152614600816145c4565b9050919050565b7f52454a5556453a2044617461204e6f74205065726d6974746564000000000000600082015250565b600061463d601a836137f8565b915061464882614607565b602082019050919050565b6000602082019050818103600083015261466c81614630565b9050919050565b600081519050919050565b600082825260208201905092915050565b6000819050602082019050919050565b6146a88161389f565b82525050565b60006146ba838361469f565b60208301905092915050565b6000602082019050919050565b60006146de82614673565b6146e8818561467e565b93506146f38361468f565b8060005b8381101561472457815161470b88826146ae565b9750614716836146c6565b9250506001810190506146f7565b5085935050505092915050565b60006060820190506147466000830186613b5b565b81810360208301526147588185614183565b9050818103604083015261476c81846146d3565b9050949350505050565b7f4552433732313a207472616e736665722063616c6c6572206973206e6f74206f60008201527f776e6572206e6f7220617070726f766564000000000000000000000000000000602082015250565b60006147d26031836137f8565b91506147dd82614776565b604082019050919050565b60006020820190508181036000830152614801816147c5565b9050919050565b600060ff82169050919050565b61481e81614808565b811461482957600080fd5b50565b60008151905061483b81614815565b92915050565b60006020828403121561485757614856613728565b5b60006148658482850161482c565b91505092915050565b7f52454a5556453a204e6f74205265676973746572656400000000000000000000600082015250565b60006148a46016836137f8565b91506148af8261486e565b602082019050919050565b600060208201905081810360008301526148d381614897565b9050919050565b6000815190506148e98161395e565b92915050565b60006020828403121561490557614904613728565b5b6000614913848285016148da565b91505092915050565b7f52454a5556453a2043616c6c6572206973206e6f74206f776e6572206f66206c60008201527f6162204944000000000000000000000000000000000000000000000000000000602082015250565b60006149786025836137f8565b91506149838261491c565b604082019050919050565b600060208201905081810360008301526149a78161496b565b9050919050565b600060a0820190506149c36000830188613b5b565b6149d06020830187613b5b565b81810360408301526149e28186613844565b905081810360608301526149f68185614183565b90508181036080830152614a0a81846146d3565b90509695505050505050565b7f4f776e61626c653a2063616c6c6572206973206e6f7420746865206f776e6572600082015250565b6000614a4c6020836137f8565b9150614a5782614a16565b602082019050919050565b60006020820190508181036000830152614a7b81614a3f565b9050919050565b600082825260208201905092915050565b6000614a9e8261410d565b614aa88185614a82565b9350614ab8818560208601613809565b614ac181613833565b840191505092915050565b60006020820190508181036000830152614ae68184614a93565b905092915050565b600081519050614afd816138a9565b92915050565b600060208284031215614b1957614b18613728565b5b6000614b2784828501614aee565b91505092915050565b7f4552433732313a206f776e657220717565727920666f72206e6f6e657869737460008201527f656e7420746f6b656e0000000000000000000000000000000000000000000000602082015250565b6000614b8c6029836137f8565b9150614b9782614b30565b604082019050919050565b60006020820190508181036000830152614bbb81614b7f565b9050919050565b7f4552433732313a2062616c616e636520717565727920666f7220746865207a6560008201527f726f206164647265737300000000000000000000000000000000000000000000602082015250565b6000614c1e602a836137f8565b9150614c2982614bc2565b604082019050919050565b60006020820190508181036000830152614c4d81614c11565b9050919050565b7f45524337323155524953746f726167653a2055524920717565727920666f722060008201527f6e6f6e6578697374656e7420746f6b656e000000000000000000000000000000602082015250565b6000614cb06031836137f8565b9150614cbb82614c54565b604082019050919050565b60006020820190508181036000830152614cdf81614ca3565b9050919050565b600081905092915050565b6000614cfc826137ed565b614d068185614ce6565b9350614d16818560208601613809565b80840191505092915050565b6000614d2e8285614cf1565b9150614d3a8284614cf1565b91508190509392505050565b7f4f776e61626c653a206e6577206f776e657220697320746865207a65726f206160008201527f6464726573730000000000000000000000000000000000000000000000000000602082015250565b6000614da26026836137f8565b9150614dad82614d46565b604082019050919050565b60006020820190508181036000830152614dd181614d95565b9050919050565b7f4e487b7100000000000000000000000000000000000000000000000000000000600052603260045260246000fd5b60006040820190508181036000830152614e218185614a93565b9050614e306020830184613b5b565b9392505050565b60008190508160005260206000209050919050565b60006020601f8301049050919050565b600082821b905092915050565b600060088302614e997fffffffffffffffffffffffffffffffffffffffffffffffffffffffffffffffff82614e5c565b614ea38683614e5c565b95508019841693508086168417925050509392505050565b6000819050919050565b6000614ee0614edb614ed68461389f565b614ebb565b61389f565b9050919050565b6000819050919050565b614efa83614ec5565b614f0e614f0682614ee7565b848454614e69565b825550505050565b600090565b614f23614f16565b614f2e818484614ef1565b505050565b5b81811015614f5257614f47600082614f1b565b600181019050614f34565b5050565b601f821115614f9757614f6881614e37565b614f7184614e4c565b81016020851015614f80578190505b614f94614f8c85614e4c565b830182614f33565b50505b505050565b600082821c905092915050565b6000614fba60001984600802614f9c565b1980831691505092915050565b6000614fd38383614fa9565b9150826002028217905092915050565b614fec8261410d565b67ffffffffffffffff811115615005576150046139d4565b5b61500f8254614289565b61501a828285614f56565b600060209050601f83116001811461504d576000841561503b578287015190505b6150458582614fc7565b8655506150ad565b601f19841661505b86614e37565b60005b828110156150835784890151825560018201915060208501945060208101905061505e565b868310156150a0578489015161509c601f891682614fa9565b8355505b6001600288020188555050505b505050505050565b7f4e487b7100000000000000000000000000000000000000000000000000000000600052601160045260246000fd5b60006150ef8261389f565b91507fffffffffffffffffffffffffffffffffffffffffffffffffffffffffffffffff8203615121576151206150b5565b5b600182019050919050565b7f4552433732313a206f70657261746f7220717565727920666f72206e6f6e657860008201527f697374656e7420746f6b656e0000000000000000000000000000000000000000602082015250565b6000615188602c836137f8565b91506151938261512c565b604082019050919050565b600060208201905081810360008301526151b78161517b565b9050919050565b7f4552433732313a207472616e736665722066726f6d20696e636f72726563742060008201527f6f776e6572000000000000000000000000000000000000000000000000000000602082015250565b600061521a6025836137f8565b9150615225826151be565b604082019050919050565b600060208201905081810360008301526152498161520d565b9050919050565b7f4552433732313a207472616e7366657220746f20746865207a65726f2061646460008201527f7265737300000000000000000000000000000000000000000000000000000000602082015250565b60006152ac6024836137f8565b91506152b782615250565b604082019050919050565b600060208201905081810360008301526152db8161529f565b9050919050565b60006152ed8261389f565b91506152f88361389f565b92508282039050818111156153105761530f6150b5565b5b92915050565b60006153218261389f565b915061532c8361389f565b9250828201905080821115615344576153436150b5565b5b92915050565b7f5061757361626c653a206e6f7420706175736564000000000000000000000000600082015250565b60006153806014836137f8565b915061538b8261534a565b602082019050919050565b600060208201905081810360008301526153af81615373565b9050919050565b7f4552433732313a20617070726f766520746f2063616c6c657200000000000000600082015250565b60006153ec6019836137f8565b91506153f7826153b6565b602082019050919050565b6000602082019050818103600083015261541b816153df565b9050919050565b7f4552433732313a207472616e7366657220746f206e6f6e20455243373231526560008201527f63656976657220696d706c656d656e7465720000000000000000000000000000602082015250565b600061547e6032836137f8565b915061548982615422565b604082019050919050565b600060208201905081810360008301526154ad81615471565b9050919050565b7f4552433732314d657461646174613a2055524920717565727920666f72206e6f60008201527f6e6578697374656e7420746f6b656e0000000000000000000000000000000000602082015250565b6000615510602f836137f8565b915061551b826154b4565b604082019050919050565b6000602082019050818103600083015261553f81615503565b9050919050565b7f45524337323155524953746f726167653a2055524920736574206f66206e6f6e60008201527f6578697374656e7420746f6b656e000000000000000000000000000000000000602082015250565b60006155a2602e836137f8565b91506155ad82615546565b604082019050919050565b600060208201905081810360008301526155d181615595565b9050919050565b60008190508160005260206000209050919050565b601f82111561562e576155ff816155d8565b61560884614e4c565b81016020851015615617578190505b61562b61562385614e4c565b830182614f33565b50505b505050565b61563c826137ed565b67ffffffffffffffff811115615655576156546139d4565b5b61565f8254614289565b61566a8282856155ed565b600060209050601f83116001811461569d576000841561568b578287015190505b6156958582614fc7565b8655506156fd565b601f1984166156ab866155d8565b60005b828110156156d3578489015182556001820191506020850194506020810190506156ae565b868310156156f057848901516156ec601f891682614fa9565b8355505b6001600288020188555050505b505050505050565b600060808201905061571a6000830187613934565b6157276020830186613934565b6157346040830185613b5b565b81810360608301526157468184614a93565b905095945050505050565b6000815190506157608161375e565b92915050565b60006020828403121561577c5761577b613728565b5b600061578a84828501615751565b91505092915050565b7f4e487b7100000000000000000000000000000000000000000000000000000000600052601260045260246000fd5b60006157cd8261389f565b91506157d88361389f565b9250826157e8576157e7615793565b5b828204905092915050565b60006157fe8261389f565b91506158098361389f565b92508261581957615818615793565b5b828206905092915050565b7f4552433732313a206d696e7420746f20746865207a65726f2061646472657373600082015250565b600061585a6020836137f8565b915061586582615824565b602082019050919050565b600060208201905081810360008301526158898161584d565b9050919050565b7f4552433732313a20746f6b656e20616c7265616479206d696e74656400000000600082015250565b60006158c6601c836137f8565b91506158d182615890565b602082019050919050565b600060208201905081810360008301526158f5816158b9565b905091905056fea2646970667358221220e2631efda31582ba615edf153808d1f6a2661f2c885caf63110dfda64724f13564736f6c63430008110033",
  "linkReferences": {},
  "deployedLinkReferences": {}
}