{
  "_format": "hh-sol-artifact-1",
  "contractName": "ProductNFT",
  "sourceName": "contracts/ProductNFT.sol",
  "abi": [
    {
      "inputs": [
        {
          "internalType": "string",
          "name": "name_",
          "type": "string"
        },
        {
          "internalType": "string",
          "name": "symbol_",
          "type": "string"
        },
        {
          "internalType": "contract IIdentityToken",
          "name": "identityToken_",
          "type": "address"
        },
        {
          "internalType": "contract IDataManagement",
          "name": "dataMgt_",
          "type": "address"
        }
      ],
      "stateMutability": "nonpayable",
      "type": "constructor"
    },
    {
      "anonymous": false,
      "inputs": [
        {
          "indexed": true,
          "internalType": "address",
          "name": "owner",
          "type": "address"
        },
        {
          "indexed": true,
          "internalType": "address",
          "name": "approved",
          "type": "address"
        },
        {
          "indexed": true,
          "internalType": "uint256",
          "name": "tokenId",
          "type": "uint256"
        }
      ],
      "name": "Approval",
      "type": "event"
    },
    {
      "anonymous": false,
      "inputs": [
        {
          "indexed": true,
          "internalType": "address",
          "name": "owner",
          "type": "address"
        },
        {
          "indexed": true,
          "internalType": "address",
          "name": "operator",
          "type": "address"
        },
        {
          "indexed": false,
          "internalType": "bool",
          "name": "approved",
          "type": "bool"
        }
      ],
      "name": "ApprovalForAll",
      "type": "event"
    },
    {
      "anonymous": false,
      "inputs": [
        {
          "indexed": false,
          "internalType": "uint256",
          "name": "productUID",
          "type": "uint256"
        },
        {
          "indexed": false,
          "internalType": "bytes[]",
          "name": "dataHash",
          "type": "bytes[]"
        },
        {
          "indexed": false,
          "internalType": "uint256[]",
          "name": "creditScore",
          "type": "uint256[]"
        }
      ],
      "name": "NewDataLinked",
      "type": "event"
    },
    {
      "anonymous": false,
      "inputs": [
        {
          "indexed": true,
          "internalType": "address",
          "name": "previousOwner",
          "type": "address"
        },
        {
          "indexed": true,
          "internalType": "address",
          "name": "newOwner",
          "type": "address"
        }
      ],
      "name": "OwnershipTransferred",
      "type": "event"
    },
    {
      "anonymous": false,
      "inputs": [
        {
          "indexed": false,
          "internalType": "address",
          "name": "account",
          "type": "address"
        }
      ],
      "name": "Paused",
      "type": "event"
    },
    {
      "anonymous": false,
      "inputs": [
        {
          "indexed": false,
          "internalType": "uint256",
          "name": "creatorID",
          "type": "uint256"
        },
        {
          "indexed": false,
          "internalType": "uint256",
          "name": "productUID",
          "type": "uint256"
        },
        {
          "indexed": false,
          "internalType": "string",
          "name": "productURI",
          "type": "string"
        },
        {
          "indexed": false,
          "internalType": "bytes[]",
          "name": "datahashes",
          "type": "bytes[]"
        },
        {
          "indexed": false,
          "internalType": "uint256[]",
          "name": "creditScore",
          "type": "uint256[]"
        }
      ],
      "name": "ProductCreated",
      "type": "event"
    },
    {
      "anonymous": false,
      "inputs": [
        {
          "indexed": true,
          "internalType": "address",
          "name": "from",
          "type": "address"
        },
        {
          "indexed": true,
          "internalType": "address",
          "name": "to",
          "type": "address"
        },
        {
          "indexed": true,
          "internalType": "uint256",
          "name": "tokenId",
          "type": "uint256"
        }
      ],
      "name": "Transfer",
      "type": "event"
    },
    {
      "anonymous": false,
      "inputs": [
        {
          "indexed": false,
          "internalType": "address",
          "name": "account",
          "type": "address"
        }
      ],
      "name": "Unpaused",
      "type": "event"
    },
    {
      "inputs": [
        {
          "internalType": "address",
          "name": "to",
          "type": "address"
        },
        {
          "internalType": "uint256",
          "name": "tokenId",
          "type": "uint256"
        }
      ],
      "name": "approve",
      "outputs": [],
      "stateMutability": "nonpayable",
      "type": "function"
    },
    {
      "inputs": [
        {
          "internalType": "address",
          "name": "owner",
          "type": "address"
        }
      ],
      "name": "balanceOf",
      "outputs": [
        {
          "internalType": "uint256",
          "name": "",
          "type": "uint256"
        }
      ],
      "stateMutability": "view",
      "type": "function"
    },
    {
      "inputs": [
        {
          "internalType": "uint256",
          "name": "_productCreatorId",
          "type": "uint256"
        },
        {
          "internalType": "uint256",
          "name": "_productUID",
          "type": "uint256"
        },
        {
          "internalType": "string",
          "name": "_productURI",
          "type": "string"
        },
        {
          "internalType": "bytes[]",
          "name": "_dataHashes",
          "type": "bytes[]"
        },
        {
          "internalType": "uint256[]",
          "name": "_creditScores",
          "type": "uint256[]"
        }
      ],
      "name": "createProduct",
      "outputs": [],
      "stateMutability": "nonpayable",
      "type": "function"
    },
    {
      "inputs": [
        {
          "internalType": "uint256",
          "name": "tokenId",
          "type": "uint256"
        }
      ],
      "name": "getApproved",
      "outputs": [
        {
          "internalType": "address",
          "name": "",
          "type": "address"
        }
      ],
      "stateMutability": "view",
      "type": "function"
    },
    {
      "inputs": [
        {
          "internalType": "bytes",
          "name": "_dHash",
          "type": "bytes"
        },
        {
          "internalType": "uint256",
          "name": "_productUID",
          "type": "uint256"
        }
      ],
      "name": "getDataCredit",
      "outputs": [
        {
          "internalType": "uint256",
          "name": "",
          "type": "uint256"
        }
      ],
      "stateMutability": "view",
      "type": "function"
    },
    {
      "inputs": [
        {
          "internalType": "bytes",
          "name": "_dHash",
          "type": "bytes"
        }
      ],
      "name": "getDataOwnerAddress",
      "outputs": [
        {
          "internalType": "address",
          "name": "",
          "type": "address"
        }
      ],
      "stateMutability": "view",
      "type": "function"
    },
    {
      "inputs": [
        {
          "internalType": "uint256",
          "name": "_productUID",
          "type": "uint256"
        }
      ],
      "name": "getInitialDataLength",
      "outputs": [
        {
          "internalType": "uint256",
          "name": "",
          "type": "uint256"
        }
      ],
      "stateMutability": "view",
      "type": "function"
    },
    {
      "inputs": [
        {
          "internalType": "uint256",
          "name": "_productUID",
          "type": "uint256"
        }
      ],
      "name": "getProductCreator",
      "outputs": [
        {
          "internalType": "address",
          "name": "",
          "type": "address"
        }
      ],
      "stateMutability": "view",
      "type": "function"
    },
    {
      "inputs": [
        {
          "internalType": "uint256",
          "name": "_productUID",
          "type": "uint256"
        }
      ],
      "name": "getProductToData",
      "outputs": [
        {
          "internalType": "bytes[]",
          "name": "",
          "type": "bytes[]"
        }
      ],
      "stateMutability": "view",
      "type": "function"
    },
    {
      "inputs": [
        {
          "internalType": "address",
          "name": "owner",
          "type": "address"
        },
        {
          "internalType": "address",
          "name": "operator",
          "type": "address"
        }
      ],
      "name": "isApprovedForAll",
      "outputs": [
        {
          "internalType": "bool",
          "name": "",
          "type": "bool"
        }
      ],
      "stateMutability": "view",
      "type": "function"
    },
    {
      "inputs": [
        {
          "internalType": "uint256",
          "name": "_productUID",
          "type": "uint256"
        },
        {
          "internalType": "bytes[]",
          "name": "_newDataHashes",
          "type": "bytes[]"
        },
        {
          "internalType": "uint256[]",
          "name": "_creditScores",
          "type": "uint256[]"
        }
      ],
      "name": "linkNewData",
      "outputs": [],
      "stateMutability": "nonpayable",
      "type": "function"
    },
    {
      "inputs": [],
      "name": "name",
      "outputs": [
        {
          "internalType": "string",
          "name": "",
          "type": "string"
        }
      ],
      "stateMutability": "view",
      "type": "function"
    },
    {
      "inputs": [],
      "name": "owner",
      "outputs": [
        {
          "internalType": "address",
          "name": "",
          "type": "address"
        }
      ],
      "stateMutability": "view",
      "type": "function"
    },
    {
      "inputs": [
        {
          "internalType": "uint256",
          "name": "tokenId",
          "type": "uint256"
        }
      ],
      "name": "ownerOf",
      "outputs": [
        {
          "internalType": "address",
          "name": "",
          "type": "address"
        }
      ],
      "stateMutability": "view",
      "type": "function"
    },
    {
      "inputs": [],
      "name": "pause",
      "outputs": [],
      "stateMutability": "nonpayable",
      "type": "function"
    },
    {
      "inputs": [],
      "name": "paused",
      "outputs": [
        {
          "internalType": "bool",
          "name": "",
          "type": "bool"
        }
      ],
      "stateMutability": "view",
      "type": "function"
    },
    {
      "inputs": [],
      "name": "renounceOwnership",
      "outputs": [],
      "stateMutability": "nonpayable",
      "type": "function"
    },
    {
      "inputs": [
        {
          "internalType": "address",
          "name": "from",
          "type": "address"
        },
        {
          "internalType": "address",
          "name": "to",
          "type": "address"
        },
        {
          "internalType": "uint256",
          "name": "tokenId",
          "type": "uint256"
        }
      ],
      "name": "safeTransferFrom",
      "outputs": [],
      "stateMutability": "nonpayable",
      "type": "function"
    },
    {
      "inputs": [
        {
          "internalType": "address",
          "name": "from",
          "type": "address"
        },
        {
          "internalType": "address",
          "name": "to",
          "type": "address"
        },
        {
          "internalType": "uint256",
          "name": "tokenId",
          "type": "uint256"
        },
        {
          "internalType": "bytes",
          "name": "_data",
          "type": "bytes"
        }
      ],
      "name": "safeTransferFrom",
      "outputs": [],
      "stateMutability": "nonpayable",
      "type": "function"
    },
    {
      "inputs": [
        {
          "internalType": "address",
          "name": "operator",
          "type": "address"
        },
        {
          "internalType": "bool",
          "name": "approved",
          "type": "bool"
        }
      ],
      "name": "setApprovalForAll",
      "outputs": [],
      "stateMutability": "nonpayable",
      "type": "function"
    },
    {
      "inputs": [
        {
          "internalType": "bytes4",
          "name": "interfaceId",
          "type": "bytes4"
        }
      ],
      "name": "supportsInterface",
      "outputs": [
        {
          "internalType": "bool",
          "name": "",
          "type": "bool"
        }
      ],
      "stateMutability": "view",
      "type": "function"
    },
    {
      "inputs": [],
      "name": "symbol",
      "outputs": [
        {
          "internalType": "string",
          "name": "",
          "type": "string"
        }
      ],
      "stateMutability": "view",
      "type": "function"
    },
    {
      "inputs": [
        {
          "internalType": "uint256",
          "name": "tokenId",
          "type": "uint256"
        }
      ],
      "name": "tokenURI",
      "outputs": [
        {
          "internalType": "string",
          "name": "",
          "type": "string"
        }
      ],
      "stateMutability": "view",
      "type": "function"
    },
    {
      "inputs": [
        {
          "internalType": "address",
          "name": "from",
          "type": "address"
        },
        {
          "internalType": "address",
          "name": "to",
          "type": "address"
        },
        {
          "internalType": "uint256",
          "name": "tokenId",
          "type": "uint256"
        }
      ],
      "name": "transferFrom",
      "outputs": [],
      "stateMutability": "nonpayable",
      "type": "function"
    },
    {
      "inputs": [
        {
          "internalType": "address",
          "name": "newOwner",
          "type": "address"
        }
      ],
      "name": "transferOwnership",
      "outputs": [],
      "stateMutability": "nonpayable",
      "type": "function"
    },
    {
      "inputs": [],
      "name": "unpause",
      "outputs": [],
      "stateMutability": "nonpayable",
      "type": "function"
    }
  ],
  "bytecode": "0x60806040523480156200001157600080fd5b5060405162002b6b38038062002b6b8339810160408190526200003491620002a4565b8351849084906200004d90600090602085019062000118565b5080516200006390600190602084019062000118565b505050620000806200007a620000c260201b60201c565b620000c6565b6007805460ff60a01b19169055600c80546001600160a01b039384166001600160a01b031991821617909155600d805492909316911617905550620003759050565b3390565b600780546001600160a01b038381166001600160a01b0319831681179093556040519116919082907f8be0079c531659141344cd1fd0a4f28419497f9722a3daafe3b4186f6b6457e090600090a35050565b828054620001269062000338565b90600052602060002090601f0160209004810192826200014a576000855562000195565b82601f106200016557805160ff191683800117855562000195565b8280016001018555821562000195579182015b828111156200019557825182559160200191906001019062000178565b50620001a3929150620001a7565b5090565b5b80821115620001a35760008155600101620001a8565b634e487b7160e01b600052604160045260246000fd5b600082601f830112620001e657600080fd5b81516001600160401b0380821115620002035762000203620001be565b604051601f8301601f19908116603f011681019082821181831017156200022e576200022e620001be565b816040528381526020925086838588010111156200024b57600080fd5b600091505b838210156200026f578582018301518183018401529082019062000250565b83821115620002815760008385830101525b9695505050505050565b6001600160a01b0381168114620002a157600080fd5b50565b60008060008060808587031215620002bb57600080fd5b84516001600160401b0380821115620002d357600080fd5b620002e188838901620001d4565b95506020870151915080821115620002f857600080fd5b506200030787828801620001d4565b93505060408501516200031a816200028b565b60608601519092506200032d816200028b565b939692955090935050565b600181811c908216806200034d57607f821691505b602082108114156200036f57634e487b7160e01b600052602260045260246000fd5b50919050565b6127e680620003856000396000f3fe608060405234801561001057600080fd5b506004361061018e5760003560e01c806370a08231116100de578063a22cb46511610097578063c9187fe711610071578063c9187fe714610352578063d4230c6414610372578063e985e9c51461039b578063f2fde38b146103d757600080fd5b8063a22cb46514610319578063b88d4fde1461032c578063c87b56dd1461033f57600080fd5b806370a08231146102bd578063715018a6146102d05780638456cb59146102d857806384ffeca5146102e05780638da5cb5b1461030057806395d89b411461031157600080fd5b806323b872dd1161014b57806342842e0e1161012557806342842e0e1461027257806359a96ffe146102855780635c975abb146102985780636352211e146102aa57600080fd5b806323b872dd14610244578063301bab03146102575780633f4ba83a1461026a57600080fd5b806301ffc9a71461019357806306fdde03146101bb578063081812fc146101d0578063095ea7b3146101fb5780630e47cefa146102105780630f139de914610231575b600080fd5b6101a66101a1366004611e00565b6103ea565b60405190151581526020015b60405180910390f35b6101c361043c565b6040516101b29190611e75565b6101e36101de366004611e88565b6104ce565b6040516001600160a01b0390911681526020016101b2565b61020e610209366004611eb6565b61055b565b005b61022361021e366004611fa1565b610671565b6040519081526020016101b2565b61020e61023f3660046120f5565b6106ab565b61020e610252366004612162565b610822565b61020e6102653660046121a3565b610853565b61020e610acb565b61020e610280366004612162565b610aff565b6101e3610293366004612256565b610b1a565b600754600160a01b900460ff166101a6565b6101e36102b8366004611e88565b610c17565b6102236102cb36600461228b565b610c8e565b61020e610d15565b61020e610d49565b6102236102ee366004611e88565b60009081526009602052604090205490565b6007546001600160a01b03166101e3565b6101c3610d7b565b61020e6103273660046122a8565b610d8a565b61020e61033a3660046122e6565b610d99565b6101c361034d366004611e88565b610dd1565b610365610360366004611e88565b610f48565b6040516101b291906123a7565b6101e3610380366004611e88565b6000908152600860205260409020546001600160a01b031690565b6101a66103a93660046123ba565b6001600160a01b03918216600090815260056020908152604080832093909416825291909152205460ff1690565b61020e6103e536600461228b565b611034565b60006001600160e01b031982166380ac58cd60e01b148061041b57506001600160e01b03198216635b5e139f60e01b145b8061043657506301ffc9a760e01b6001600160e01b03198316145b92915050565b60606000805461044b906123e8565b80601f0160208091040260200160405190810160405280929190818152602001828054610477906123e8565b80156104c45780601f10610499576101008083540402835291602001916104c4565b820191906000526020600020905b8154815290600101906020018083116104a757829003601f168201915b5050505050905090565b60006104d9826110cf565b61053f5760405162461bcd60e51b815260206004820152602c60248201527f4552433732313a20617070726f76656420717565727920666f72206e6f6e657860448201526b34b9ba32b73a103a37b5b2b760a11b60648201526084015b60405180910390fd5b506000908152600460205260409020546001600160a01b031690565b600061056682610c17565b9050806001600160a01b0316836001600160a01b031614156105d45760405162461bcd60e51b815260206004820152602160248201527f4552433732313a20617070726f76616c20746f2063757272656e74206f776e656044820152603960f91b6064820152608401610536565b336001600160a01b03821614806105f057506105f081336103a9565b6106625760405162461bcd60e51b815260206004820152603860248201527f4552433732313a20617070726f76652063616c6c6572206973206e6f74206f7760448201527f6e6572206e6f7220617070726f76656420666f7220616c6c00000000000000006064820152608401610536565b61066c83836110ec565b505050565b6000600a836040516106839190612423565b9081526020016040518091039020600083815260200190815260200160002054905092915050565b600754600160a01b900460ff16156106d55760405162461bcd60e51b81526004016105369061243f565b60008381526008602052604090205483906001600160a01b0316331461073d5760405162461bcd60e51b815260206004820152601c60248201527f52454a5556453a204f6e6c792050726f647563742043726561746f72000000006044820152606401610536565b81518351146107895760405162461bcd60e51b81526020600482015260186024820152770a48a94aaac8a74409cdee840cae2eac2d840d8cadccee8d60431b6044820152606401610536565b61079484848461115a565b156107e15760405162461bcd60e51b815260206004820152601a60248201527f52454a5556453a2044617461204e6f74205065726d69747465640000000000006044820152606401610536565b7f0d5bcc3cb98adc5778f35c805a29156280afd1cfe4d8c019920fc995578784bd848484604051610814939291906124a4565b60405180910390a150505050565b61082c33826112ed565b6108485760405162461bcd60e51b8152600401610536906124d9565b61066c8383836113d3565b600754600160a01b900460ff161561087d5760405162461bcd60e51b81526004016105369061243f565b600c546040516325aabec560e11b81523360048201526001600160a01b0390911690634b557d8a9060240160206040518083038186803b1580156108c057600080fd5b505afa1580156108d4573d6000803e3d6000fd5b505050506040513d601f19601f820116820180604052508101906108f8919061252a565b60ff166001146109435760405162461bcd60e51b81526020600482015260166024820152751491529555914e88139bdd08149959da5cdd195c995960521b6044820152606401610536565b600c546040516331a9108f60e11b8152600481018790526001600160a01b0390911690636352211e9060240160206040518083038186803b15801561098757600080fd5b505afa15801561099b573d6000803e3d6000fd5b505050506040513d601f19601f820116820180604052508101906109bf919061254d565b6001600160a01b0316336001600160a01b031614610a2d5760405162461bcd60e51b815260206004820152602560248201527f52454a5556453a2043616c6c6572206973206e6f74206f776e6572206f66206c604482015264185888125160da1b6064820152608401610536565b8051825114610a795760405162461bcd60e51b81526020600482015260186024820152770a48a94aaac8a74409cdee840cae2eac2d840d8cadccee8d60431b6044820152606401610536565b610a858484848461156f565b7fd1d11ef5e1b8d376e575876c31128f027cd644b8af4053b48cd239f545ea7fa18585858585604051610abc95949392919061256a565b60405180910390a15050505050565b6007546001600160a01b03163314610af55760405162461bcd60e51b8152600401610536906125bb565b610afd61160d565b565b61066c83838360405180602001604052806000815250610d99565b600c54600d546040516314610b9d60e31b81526000926001600160a01b0390811692636352211e9291169063a3085ce890610b59908790600401611e75565b60206040518083038186803b158015610b7157600080fd5b505afa158015610b85573d6000803e3d6000fd5b505050506040513d601f19601f82011682018060405250810190610ba991906125f0565b6040518263ffffffff1660e01b8152600401610bc791815260200190565b60206040518083038186803b158015610bdf57600080fd5b505afa158015610bf3573d6000803e3d6000fd5b505050506040513d601f19601f82011682018060405250810190610436919061254d565b6000818152600260205260408120546001600160a01b0316806104365760405162461bcd60e51b815260206004820152602960248201527f4552433732313a206f776e657220717565727920666f72206e6f6e657869737460448201526832b73a103a37b5b2b760b91b6064820152608401610536565b60006001600160a01b038216610cf95760405162461bcd60e51b815260206004820152602a60248201527f4552433732313a2062616c616e636520717565727920666f7220746865207a65604482015269726f206164647265737360b01b6064820152608401610536565b506001600160a01b031660009081526003602052604090205490565b6007546001600160a01b03163314610d3f5760405162461bcd60e51b8152600401610536906125bb565b610afd60006116aa565b6007546001600160a01b03163314610d735760405162461bcd60e51b8152600401610536906125bb565b610afd6116fc565b60606001805461044b906123e8565b610d95338383611761565b5050565b610da333836112ed565b610dbf5760405162461bcd60e51b8152600401610536906124d9565b610dcb84848484611830565b50505050565b6060610ddc826110cf565b610e425760405162461bcd60e51b815260206004820152603160248201527f45524337323155524953746f726167653a2055524920717565727920666f72206044820152703737b732bc34b9ba32b73a103a37b5b2b760791b6064820152608401610536565b60008281526006602052604081208054610e5b906123e8565b80601f0160208091040260200160405190810160405280929190818152602001828054610e87906123e8565b8015610ed45780601f10610ea957610100808354040283529160200191610ed4565b820191906000526020600020905b815481529060010190602001808311610eb757829003601f168201915b505050505090506000610ef260408051602081019091526000815290565b9050805160001415610f05575092915050565b815115610f37578082604051602001610f1f929190612609565b60405160208183030381529060405292505050919050565b610f4084611863565b949350505050565b6060600b6000838152602001908152602001600020805480602002602001604051908101604052809291908181526020016000905b82821015611029578382906000526020600020018054610f9c906123e8565b80601f0160208091040260200160405190810160405280929190818152602001828054610fc8906123e8565b80156110155780601f10610fea57610100808354040283529160200191611015565b820191906000526020600020905b815481529060010190602001808311610ff857829003601f168201915b505050505081526020019060010190610f7d565b505050509050919050565b6007546001600160a01b0316331461105e5760405162461bcd60e51b8152600401610536906125bb565b6001600160a01b0381166110c35760405162461bcd60e51b815260206004820152602660248201527f4f776e61626c653a206e6577206f776e657220697320746865207a65726f206160448201526564647265737360d01b6064820152608401610536565b6110cc816116aa565b50565b6000908152600260205260409020546001600160a01b0316151590565b600081815260046020526040902080546001600160a01b0319166001600160a01b038416908117909155819061112182610c17565b6001600160a01b03167f8c5be1e5ebec7d5bd14f71427d1e84f3dd0314c0f7b2291e5b200ac8c7c3b92560405160405180910390a45050565b60008060005b84518110156112e457600d5485516001600160a01b0390911690635f233dab9087908490811061119257611192612638565b6020026020010151886040518363ffffffff1660e01b81526004016111b892919061264e565b60206040518083038186803b1580156111d057600080fd5b505afa1580156111e4573d6000803e3d6000fd5b505050506040513d601f19601f82011682018060405250810190611208919061252a565b60ff16600114156112c95783818151811061122557611225612638565b6020026020010151600a86838151811061124157611241612638565b60200260200101516040516112569190612423565b908152604080516020928190038301902060008a815290835281812093909355600b9091529020855186908390811061129157611291612638565b602090810291909101810151825460018101845560009384529282902081516112c39491909101929190910190611d51565b506112d2565b600191506112e4565b806112dc81612686565b915050611160565b50949350505050565b60006112f8826110cf565b6113595760405162461bcd60e51b815260206004820152602c60248201527f4552433732313a206f70657261746f7220717565727920666f72206e6f6e657860448201526b34b9ba32b73a103a37b5b2b760a11b6064820152608401610536565b600061136483610c17565b9050806001600160a01b0316846001600160a01b0316148061139f5750836001600160a01b0316611394846104ce565b6001600160a01b0316145b80610f4057506001600160a01b0380821660009081526005602090815260408083209388168352929052205460ff16610f40565b826001600160a01b03166113e682610c17565b6001600160a01b03161461144a5760405162461bcd60e51b815260206004820152602560248201527f4552433732313a207472616e736665722066726f6d20696e636f72726563742060448201526437bbb732b960d91b6064820152608401610536565b6001600160a01b0382166114ac5760405162461bcd60e51b8152602060048201526024808201527f4552433732313a207472616e7366657220746f20746865207a65726f206164646044820152637265737360e01b6064820152608401610536565b6114b76000826110ec565b6001600160a01b03831660009081526003602052604081208054600192906114e09084906126a1565b90915550506001600160a01b038216600090815260036020526040812080546001929061150e9084906126b8565b909155505060008181526002602052604080822080546001600160a01b0319166001600160a01b0386811691821790925591518493918716917fddf252ad1be2c89b69c2b068fc378daa952ba7f163c4a11628f55a4df523b3ef91a4505050565b61157a84838361115a565b156115c75760405162461bcd60e51b815260206004820152601a60248201527f52454a5556453a2044617461204e6f74205065726d69747465640000000000006044820152606401610536565b6115d1338561193b565b6115db8484611955565b50600092835260086020908152604080852080546001600160a01b031916331790559151600990915292209190915550565b600754600160a01b900460ff1661165d5760405162461bcd60e51b815260206004820152601460248201527314185d5cd8589b194e881b9bdd081c185d5cd95960621b6044820152606401610536565b6007805460ff60a01b191690557f5db9ee0a495bf2e6ff9c91a7834c1ba4fdd244a5e8aa4e537bd38aeae4b073aa335b6040516001600160a01b03909116815260200160405180910390a1565b600780546001600160a01b038381166001600160a01b0319831681179093556040519116919082907f8be0079c531659141344cd1fd0a4f28419497f9722a3daafe3b4186f6b6457e090600090a35050565b600754600160a01b900460ff16156117265760405162461bcd60e51b81526004016105369061243f565b6007805460ff60a01b1916600160a01b1790557f62e78cea01bee320cd4e420270b5ea74000d11b0c9f74754ebdbfc544b05a25861168d3390565b816001600160a01b0316836001600160a01b031614156117c35760405162461bcd60e51b815260206004820152601960248201527f4552433732313a20617070726f766520746f2063616c6c6572000000000000006044820152606401610536565b6001600160a01b03838116600081815260056020908152604080832094871680845294825291829020805460ff191686151590811790915591519182527f17307eab39ab6107e8899845ad3d59bd9653f200f220920489ca2b5937696c31910160405180910390a3505050565b61183b8484846113d3565b611847848484846119e0565b610dcb5760405162461bcd60e51b8152600401610536906126d0565b606061186e826110cf565b6118d25760405162461bcd60e51b815260206004820152602f60248201527f4552433732314d657461646174613a2055524920717565727920666f72206e6f60448201526e3732bc34b9ba32b73a103a37b5b2b760891b6064820152608401610536565b60006118e960408051602081019091526000815290565b905060008151116119095760405180602001604052806000815250611934565b8061191384611aed565b604051602001611924929190612609565b6040516020818303038152906040525b9392505050565b610d95828260405180602001604052806000815250611beb565b61195e826110cf565b6119c15760405162461bcd60e51b815260206004820152602e60248201527f45524337323155524953746f726167653a2055524920736574206f66206e6f6e60448201526d32bc34b9ba32b73a103a37b5b2b760911b6064820152608401610536565b6000828152600660209081526040909120825161066c92840190611d51565b60006001600160a01b0384163b15611ae257604051630a85bd0160e11b81526001600160a01b0385169063150b7a0290611a24903390899088908890600401612722565b602060405180830381600087803b158015611a3e57600080fd5b505af1925050508015611a6e575060408051601f3d908101601f19168201909252611a6b91810190612755565b60015b611ac8573d808015611a9c576040519150601f19603f3d011682016040523d82523d6000602084013e611aa1565b606091505b508051611ac05760405162461bcd60e51b8152600401610536906126d0565b805181602001fd5b6001600160e01b031916630a85bd0160e11b149050610f40565b506001949350505050565b606081611b115750506040805180820190915260018152600360fc1b602082015290565b8160005b8115611b3b5780611b2581612686565b9150611b349050600a83612788565b9150611b15565b60008167ffffffffffffffff811115611b5657611b56611ee2565b6040519080825280601f01601f191660200182016040528015611b80576020820181803683370190505b5090505b8415610f4057611b956001836126a1565b9150611ba2600a8661279c565b611bad9060306126b8565b60f81b818381518110611bc257611bc2612638565b60200101906001600160f81b031916908160001a905350611be4600a86612788565b9450611b84565b611bf58383611c1e565b611c0260008484846119e0565b61066c5760405162461bcd60e51b8152600401610536906126d0565b6001600160a01b038216611c745760405162461bcd60e51b815260206004820181905260248201527f4552433732313a206d696e7420746f20746865207a65726f20616464726573736044820152606401610536565b611c7d816110cf565b15611cca5760405162461bcd60e51b815260206004820152601c60248201527f4552433732313a20746f6b656e20616c7265616479206d696e746564000000006044820152606401610536565b6001600160a01b0382166000908152600360205260408120805460019290611cf39084906126b8565b909155505060008181526002602052604080822080546001600160a01b0319166001600160a01b03861690811790915590518392907fddf252ad1be2c89b69c2b068fc378daa952ba7f163c4a11628f55a4df523b3ef908290a45050565b828054611d5d906123e8565b90600052602060002090601f016020900481019282611d7f5760008555611dc5565b82601f10611d9857805160ff1916838001178555611dc5565b82800160010185558215611dc5579182015b82811115611dc5578251825591602001919060010190611daa565b50611dd1929150611dd5565b5090565b5b80821115611dd15760008155600101611dd6565b6001600160e01b0319811681146110cc57600080fd5b600060208284031215611e1257600080fd5b813561193481611dea565b60005b83811015611e38578181015183820152602001611e20565b83811115610dcb5750506000910152565b60008151808452611e61816020860160208601611e1d565b601f01601f19169290920160200192915050565b6020815260006119346020830184611e49565b600060208284031215611e9a57600080fd5b5035919050565b6001600160a01b03811681146110cc57600080fd5b60008060408385031215611ec957600080fd5b8235611ed481611ea1565b946020939093013593505050565b634e487b7160e01b600052604160045260246000fd5b604051601f8201601f1916810167ffffffffffffffff81118282101715611f2157611f21611ee2565b604052919050565b600067ffffffffffffffff831115611f4357611f43611ee2565b611f56601f8401601f1916602001611ef8565b9050828152838383011115611f6a57600080fd5b828260208301376000602084830101529392505050565b600082601f830112611f9257600080fd5b61193483833560208501611f29565b60008060408385031215611fb457600080fd5b823567ffffffffffffffff811115611fcb57600080fd5b611fd785828601611f81565b95602094909401359450505050565b600067ffffffffffffffff82111561200057612000611ee2565b5060051b60200190565b600082601f83011261201b57600080fd5b8135602061203061202b83611fe6565b611ef8565b82815260059290921b8401810191818101908684111561204f57600080fd5b8286015b8481101561208f57803567ffffffffffffffff8111156120735760008081fd5b6120818986838b0101611f81565b845250918301918301612053565b509695505050505050565b600082601f8301126120ab57600080fd5b813560206120bb61202b83611fe6565b82815260059290921b840181019181810190868411156120da57600080fd5b8286015b8481101561208f57803583529183019183016120de565b60008060006060848603121561210a57600080fd5b83359250602084013567ffffffffffffffff8082111561212957600080fd5b6121358783880161200a565b9350604086013591508082111561214b57600080fd5b506121588682870161209a565b9150509250925092565b60008060006060848603121561217757600080fd5b833561218281611ea1565b9250602084013561219281611ea1565b929592945050506040919091013590565b600080600080600060a086880312156121bb57600080fd5b8535945060208601359350604086013567ffffffffffffffff808211156121e157600080fd5b818801915088601f8301126121f557600080fd5b61220489833560208501611f29565b9450606088013591508082111561221a57600080fd5b61222689838a0161200a565b9350608088013591508082111561223c57600080fd5b506122498882890161209a565b9150509295509295909350565b60006020828403121561226857600080fd5b813567ffffffffffffffff81111561227f57600080fd5b610f4084828501611f81565b60006020828403121561229d57600080fd5b813561193481611ea1565b600080604083850312156122bb57600080fd5b82356122c681611ea1565b9150602083013580151581146122db57600080fd5b809150509250929050565b600080600080608085870312156122fc57600080fd5b843561230781611ea1565b9350602085013561231781611ea1565b925060408501359150606085013567ffffffffffffffff81111561233a57600080fd5b61234687828801611f81565b91505092959194509250565b600081518084526020808501808196508360051b8101915082860160005b8581101561239a578284038952612388848351611e49565b98850198935090840190600101612370565b5091979650505050505050565b6020815260006119346020830184612352565b600080604083850312156123cd57600080fd5b82356123d881611ea1565b915060208301356122db81611ea1565b600181811c908216806123fc57607f821691505b6020821081141561241d57634e487b7160e01b600052602260045260246000fd5b50919050565b60008251612435818460208701611e1d565b9190910192915050565b60208082526010908201526f14185d5cd8589b194e881c185d5cd95960821b604082015260600190565b600081518084526020808501945080840160005b838110156124995781518752958201959082019060010161247d565b509495945050505050565b8381526060602082015260006124bd6060830185612352565b82810360408401526124cf8185612469565b9695505050505050565b60208082526031908201527f4552433732313a207472616e736665722063616c6c6572206973206e6f74206f6040820152701ddb995c881b9bdc88185c1c1c9bdd9959607a1b606082015260800190565b60006020828403121561253c57600080fd5b815160ff8116811461193457600080fd5b60006020828403121561255f57600080fd5b815161193481611ea1565b85815284602082015260a06040820152600061258960a0830186611e49565b828103606084015261259b8186612352565b905082810360808401526125af8185612469565b98975050505050505050565b6020808252818101527f4f776e61626c653a2063616c6c6572206973206e6f7420746865206f776e6572604082015260600190565b60006020828403121561260257600080fd5b5051919050565b6000835161261b818460208801611e1d565b83519083019061262f818360208801611e1d565b01949350505050565b634e487b7160e01b600052603260045260246000fd5b6040815260006126616040830185611e49565b90508260208301529392505050565b634e487b7160e01b600052601160045260246000fd5b600060001982141561269a5761269a612670565b5060010190565b6000828210156126b3576126b3612670565b500390565b600082198211156126cb576126cb612670565b500190565b60208082526032908201527f4552433732313a207472616e7366657220746f206e6f6e20455243373231526560408201527131b2b4bb32b91034b6b83632b6b2b73a32b960711b606082015260800190565b6001600160a01b03858116825284166020820152604081018390526080606082018190526000906124cf90830184611e49565b60006020828403121561276757600080fd5b815161193481611dea565b634e487b7160e01b600052601260045260246000fd5b60008261279757612797612772565b500490565b6000826127ab576127ab612772565b50069056fea2646970667358221220c51cb8582ba6097c1ecf2456ac354da765a492c84e47c7a3ba495005dbfed74b64736f6c63430008090033",
  "linkReferences": {},
  "deployedLinkReferences": {}
}