{
  "_format": "hh-sol-artifact-1",
  "contractName": "ProductNFT",
  "sourceName": "contracts/ProductNFT.sol",
  "abi": [
    {
      "inputs": [
        {
          "internalType": "string",
          "name": "name",
          "type": "string"
        },
        {
          "internalType": "string",
          "name": "symbol",
          "type": "string"
        },
        {
          "internalType": "address",
          "name": "signer",
          "type": "address"
        },
        {
          "internalType": "contract IIdentityToken",
          "name": "identityToken_",
          "type": "address"
        },
        {
          "internalType": "contract IDataManagement",
          "name": "dataMgt_",
          "type": "address"
        }
      ],
      "stateMutability": "nonpayable",
      "type": "constructor"
    },
    {
      "anonymous": false,
      "inputs": [
        {
          "indexed": true,
          "internalType": "address",
          "name": "owner",
          "type": "address"
        },
        {
          "indexed": true,
          "internalType": "address",
          "name": "approved",
          "type": "address"
        },
        {
          "indexed": true,
          "internalType": "uint256",
          "name": "tokenId",
          "type": "uint256"
        }
      ],
      "name": "Approval",
      "type": "event"
    },
    {
      "anonymous": false,
      "inputs": [
        {
          "indexed": true,
          "internalType": "address",
          "name": "owner",
          "type": "address"
        },
        {
          "indexed": true,
          "internalType": "address",
          "name": "operator",
          "type": "address"
        },
        {
          "indexed": false,
          "internalType": "bool",
          "name": "approved",
          "type": "bool"
        }
      ],
      "name": "ApprovalForAll",
      "type": "event"
    },
    {
      "anonymous": false,
      "inputs": [
        {
          "indexed": false,
          "internalType": "uint256",
          "name": "_fromTokenId",
          "type": "uint256"
        },
        {
          "indexed": false,
          "internalType": "uint256",
          "name": "_toTokenId",
          "type": "uint256"
        }
      ],
      "name": "BatchMetadataUpdate",
      "type": "event"
    },
    {
      "anonymous": false,
      "inputs": [
        {
          "indexed": false,
          "internalType": "uint256",
          "name": "_tokenId",
          "type": "uint256"
        }
      ],
      "name": "MetadataUpdate",
      "type": "event"
    },
    {
      "anonymous": false,
      "inputs": [
        {
          "indexed": false,
          "internalType": "uint256",
          "name": "productUID",
          "type": "uint256"
        },
        {
          "indexed": false,
          "internalType": "bytes[]",
          "name": "dataHash",
          "type": "bytes[]"
        },
        {
          "indexed": false,
          "internalType": "uint256[]",
          "name": "creditScore",
          "type": "uint256[]"
        }
      ],
      "name": "NewDataLinked",
      "type": "event"
    },
    {
      "anonymous": false,
      "inputs": [
        {
          "indexed": false,
          "internalType": "address",
          "name": "account",
          "type": "address"
        }
      ],
      "name": "Paused",
      "type": "event"
    },
    {
      "anonymous": false,
      "inputs": [
        {
          "indexed": false,
          "internalType": "uint256",
          "name": "productUID",
          "type": "uint256"
        },
        {
          "indexed": false,
          "internalType": "address",
          "name": "productCreator",
          "type": "address"
        },
        {
          "indexed": false,
          "internalType": "string",
          "name": "productURI",
          "type": "string"
        },
        {
          "indexed": false,
          "internalType": "bytes[]",
          "name": "datahashes",
          "type": "bytes[]"
        },
        {
          "indexed": false,
          "internalType": "uint256[]",
          "name": "creditScore",
          "type": "uint256[]"
        }
      ],
      "name": "ProductCreated",
      "type": "event"
    },
    {
      "anonymous": false,
      "inputs": [
        {
          "indexed": true,
          "internalType": "bytes32",
          "name": "role",
          "type": "bytes32"
        },
        {
          "indexed": true,
          "internalType": "bytes32",
          "name": "previousAdminRole",
          "type": "bytes32"
        },
        {
          "indexed": true,
          "internalType": "bytes32",
          "name": "newAdminRole",
          "type": "bytes32"
        }
      ],
      "name": "RoleAdminChanged",
      "type": "event"
    },
    {
      "anonymous": false,
      "inputs": [
        {
          "indexed": true,
          "internalType": "bytes32",
          "name": "role",
          "type": "bytes32"
        },
        {
          "indexed": true,
          "internalType": "address",
          "name": "account",
          "type": "address"
        },
        {
          "indexed": true,
          "internalType": "address",
          "name": "sender",
          "type": "address"
        }
      ],
      "name": "RoleGranted",
      "type": "event"
    },
    {
      "anonymous": false,
      "inputs": [
        {
          "indexed": true,
          "internalType": "bytes32",
          "name": "role",
          "type": "bytes32"
        },
        {
          "indexed": true,
          "internalType": "address",
          "name": "account",
          "type": "address"
        },
        {
          "indexed": true,
          "internalType": "address",
          "name": "sender",
          "type": "address"
        }
      ],
      "name": "RoleRevoked",
      "type": "event"
    },
    {
      "anonymous": false,
      "inputs": [
        {
          "indexed": true,
          "internalType": "address",
          "name": "from",
          "type": "address"
        },
        {
          "indexed": true,
          "internalType": "address",
          "name": "to",
          "type": "address"
        },
        {
          "indexed": true,
          "internalType": "uint256",
          "name": "tokenId",
          "type": "uint256"
        }
      ],
      "name": "Transfer",
      "type": "event"
    },
    {
      "anonymous": false,
      "inputs": [
        {
          "indexed": false,
          "internalType": "address",
          "name": "account",
          "type": "address"
        }
      ],
      "name": "Unpaused",
      "type": "event"
    },
    {
      "inputs": [],
      "name": "DEFAULT_ADMIN_ROLE",
      "outputs": [
        {
          "internalType": "bytes32",
          "name": "",
          "type": "bytes32"
        }
      ],
      "stateMutability": "view",
      "type": "function"
    },
    {
      "inputs": [],
      "name": "PAUSER_ROLE",
      "outputs": [
        {
          "internalType": "bytes32",
          "name": "",
          "type": "bytes32"
        }
      ],
      "stateMutability": "view",
      "type": "function"
    },
    {
      "inputs": [],
      "name": "SIGNER_ROLE",
      "outputs": [
        {
          "internalType": "bytes32",
          "name": "",
          "type": "bytes32"
        }
      ],
      "stateMutability": "view",
      "type": "function"
    },
    {
      "inputs": [
        {
          "internalType": "address",
          "name": "to",
          "type": "address"
        },
        {
          "internalType": "uint256",
          "name": "tokenId",
          "type": "uint256"
        }
      ],
      "name": "approve",
      "outputs": [],
      "stateMutability": "nonpayable",
      "type": "function"
    },
    {
      "inputs": [
        {
          "internalType": "address",
          "name": "owner",
          "type": "address"
        }
      ],
      "name": "balanceOf",
      "outputs": [
        {
          "internalType": "uint256",
          "name": "",
          "type": "uint256"
        }
      ],
      "stateMutability": "view",
      "type": "function"
    },
    {
      "inputs": [
        {
          "internalType": "uint256",
          "name": "productUID",
          "type": "uint256"
        },
        {
          "internalType": "uint256",
          "name": "nonce",
          "type": "uint256"
        },
        {
          "internalType": "string",
          "name": "productURI",
          "type": "string"
        },
        {
          "internalType": "address",
          "name": "signer",
          "type": "address"
        },
        {
          "internalType": "bytes",
          "name": "signature",
          "type": "bytes"
        },
        {
          "internalType": "bytes[]",
          "name": "dataHashes",
          "type": "bytes[]"
        },
        {
          "internalType": "uint256[]",
          "name": "creditScores",
          "type": "uint256[]"
        }
      ],
      "name": "createProduct",
      "outputs": [],
      "stateMutability": "nonpayable",
      "type": "function"
    },
    {
      "inputs": [
        {
          "internalType": "uint256",
          "name": "tokenId",
          "type": "uint256"
        }
      ],
      "name": "getApproved",
      "outputs": [
        {
          "internalType": "address",
          "name": "",
          "type": "address"
        }
      ],
      "stateMutability": "view",
      "type": "function"
    },
    {
      "inputs": [
        {
          "internalType": "bytes",
          "name": "dHash",
          "type": "bytes"
        },
        {
          "internalType": "uint256",
          "name": "productUID",
          "type": "uint256"
        }
      ],
      "name": "getDataCredit",
      "outputs": [
        {
          "internalType": "uint256",
          "name": "",
          "type": "uint256"
        }
      ],
      "stateMutability": "view",
      "type": "function"
    },
    {
      "inputs": [
        {
          "internalType": "bytes",
          "name": "dHash",
          "type": "bytes"
        }
      ],
      "name": "getDataOwnerAddress",
      "outputs": [
        {
          "internalType": "address",
          "name": "",
          "type": "address"
        }
      ],
      "stateMutability": "view",
      "type": "function"
    },
    {
      "inputs": [
        {
          "internalType": "uint256",
          "name": "productUID",
          "type": "uint256"
        }
      ],
      "name": "getInitialDataLength",
      "outputs": [
        {
          "internalType": "uint256",
          "name": "",
          "type": "uint256"
        }
      ],
      "stateMutability": "view",
      "type": "function"
    },
    {
      "inputs": [
        {
          "internalType": "uint256",
          "name": "productUID",
          "type": "uint256"
        }
      ],
      "name": "getProductToData",
      "outputs": [
        {
          "internalType": "bytes[]",
          "name": "",
          "type": "bytes[]"
        }
      ],
      "stateMutability": "view",
      "type": "function"
    },
    {
      "inputs": [
        {
          "internalType": "bytes32",
          "name": "role",
          "type": "bytes32"
        }
      ],
      "name": "getRoleAdmin",
      "outputs": [
        {
          "internalType": "bytes32",
          "name": "",
          "type": "bytes32"
        }
      ],
      "stateMutability": "view",
      "type": "function"
    },
    {
      "inputs": [
        {
          "internalType": "bytes32",
          "name": "role",
          "type": "bytes32"
        },
        {
          "internalType": "address",
          "name": "account",
          "type": "address"
        }
      ],
      "name": "grantRole",
      "outputs": [],
      "stateMutability": "nonpayable",
      "type": "function"
    },
    {
      "inputs": [
        {
          "internalType": "bytes32",
          "name": "role",
          "type": "bytes32"
        },
        {
          "internalType": "address",
          "name": "account",
          "type": "address"
        }
      ],
      "name": "hasRole",
      "outputs": [
        {
          "internalType": "bool",
          "name": "",
          "type": "bool"
        }
      ],
      "stateMutability": "view",
      "type": "function"
    },
    {
      "inputs": [
        {
          "internalType": "address",
          "name": "owner",
          "type": "address"
        },
        {
          "internalType": "address",
          "name": "operator",
          "type": "address"
        }
      ],
      "name": "isApprovedForAll",
      "outputs": [
        {
          "internalType": "bool",
          "name": "",
          "type": "bool"
        }
      ],
      "stateMutability": "view",
      "type": "function"
    },
    {
      "inputs": [
        {
          "internalType": "uint256",
          "name": "productUID",
          "type": "uint256"
        },
        {
          "internalType": "uint256",
          "name": "nonce",
          "type": "uint256"
        },
        {
          "internalType": "string",
          "name": "productURI",
          "type": "string"
        },
        {
          "internalType": "address",
          "name": "signer",
          "type": "address"
        },
        {
          "internalType": "bytes",
          "name": "signature",
          "type": "bytes"
        },
        {
          "internalType": "bytes[]",
          "name": "newDataHashes",
          "type": "bytes[]"
        },
        {
          "internalType": "uint256[]",
          "name": "creditScores",
          "type": "uint256[]"
        }
      ],
      "name": "linkNewData",
      "outputs": [],
      "stateMutability": "nonpayable",
      "type": "function"
    },
    {
      "inputs": [],
      "name": "name",
      "outputs": [
        {
          "internalType": "string",
          "name": "",
          "type": "string"
        }
      ],
      "stateMutability": "view",
      "type": "function"
    },
    {
      "inputs": [
        {
          "internalType": "uint256",
          "name": "tokenId",
          "type": "uint256"
        }
      ],
      "name": "ownerOf",
      "outputs": [
        {
          "internalType": "address",
          "name": "",
          "type": "address"
        }
      ],
      "stateMutability": "view",
      "type": "function"
    },
    {
      "inputs": [],
      "name": "pause",
      "outputs": [],
      "stateMutability": "nonpayable",
      "type": "function"
    },
    {
      "inputs": [],
      "name": "paused",
      "outputs": [
        {
          "internalType": "bool",
          "name": "",
          "type": "bool"
        }
      ],
      "stateMutability": "view",
      "type": "function"
    },
    {
      "inputs": [
        {
          "internalType": "bytes32",
          "name": "role",
          "type": "bytes32"
        },
        {
          "internalType": "address",
          "name": "account",
          "type": "address"
        }
      ],
      "name": "renounceRole",
      "outputs": [],
      "stateMutability": "nonpayable",
      "type": "function"
    },
    {
      "inputs": [
        {
          "internalType": "bytes32",
          "name": "role",
          "type": "bytes32"
        },
        {
          "internalType": "address",
          "name": "account",
          "type": "address"
        }
      ],
      "name": "revokeRole",
      "outputs": [],
      "stateMutability": "nonpayable",
      "type": "function"
    },
    {
      "inputs": [
        {
          "internalType": "address",
          "name": "from",
          "type": "address"
        },
        {
          "internalType": "address",
          "name": "to",
          "type": "address"
        },
        {
          "internalType": "uint256",
          "name": "tokenId",
          "type": "uint256"
        }
      ],
      "name": "safeTransferFrom",
      "outputs": [],
      "stateMutability": "nonpayable",
      "type": "function"
    },
    {
      "inputs": [
        {
          "internalType": "address",
          "name": "from",
          "type": "address"
        },
        {
          "internalType": "address",
          "name": "to",
          "type": "address"
        },
        {
          "internalType": "uint256",
          "name": "tokenId",
          "type": "uint256"
        },
        {
          "internalType": "bytes",
          "name": "data",
          "type": "bytes"
        }
      ],
      "name": "safeTransferFrom",
      "outputs": [],
      "stateMutability": "nonpayable",
      "type": "function"
    },
    {
      "inputs": [
        {
          "internalType": "address",
          "name": "operator",
          "type": "address"
        },
        {
          "internalType": "bool",
          "name": "approved",
          "type": "bool"
        }
      ],
      "name": "setApprovalForAll",
      "outputs": [],
      "stateMutability": "nonpayable",
      "type": "function"
    },
    {
      "inputs": [
        {
          "internalType": "bytes4",
          "name": "interfaceId",
          "type": "bytes4"
        }
      ],
      "name": "supportsInterface",
      "outputs": [
        {
          "internalType": "bool",
          "name": "",
          "type": "bool"
        }
      ],
      "stateMutability": "view",
      "type": "function"
    },
    {
      "inputs": [],
      "name": "symbol",
      "outputs": [
        {
          "internalType": "string",
          "name": "",
          "type": "string"
        }
      ],
      "stateMutability": "view",
      "type": "function"
    },
    {
      "inputs": [
        {
          "internalType": "uint256",
          "name": "tokenId",
          "type": "uint256"
        }
      ],
      "name": "tokenURI",
      "outputs": [
        {
          "internalType": "string",
          "name": "",
          "type": "string"
        }
      ],
      "stateMutability": "view",
      "type": "function"
    },
    {
      "inputs": [
        {
          "internalType": "address",
          "name": "from",
          "type": "address"
        },
        {
          "internalType": "address",
          "name": "to",
          "type": "address"
        },
        {
          "internalType": "uint256",
          "name": "tokenId",
          "type": "uint256"
        }
      ],
      "name": "transferFrom",
      "outputs": [],
      "stateMutability": "nonpayable",
      "type": "function"
    },
    {
      "inputs": [],
      "name": "unpause",
      "outputs": [],
      "stateMutability": "nonpayable",
      "type": "function"
    }
  ],
  "bytecode": "0x608060405234801562000010575f80fd5b5060405162006d3838038062006d38833981810160405281019062000036919062000658565b8484815f908162000048919062000951565b5080600190816200005a919062000951565b5050505f60085f6101000a81548160ff0219169083151502179055506200009267069a073b11c75d5860c01b6200029460201b60201c565b620000ae67c8742d2de1fb49a160c01b6200029460201b60201c565b81600860016101000a81548173ffffffffffffffffffffffffffffffffffffffff021916908373ffffffffffffffffffffffffffffffffffffffff1602179055506200010b67bc85a1c3b5dce19160c01b6200029460201b60201c565b8060095f6101000a81548173ffffffffffffffffffffffffffffffffffffffff021916908373ffffffffffffffffffffffffffffffffffffffff1602179055506200016767e851b298499b0c0b60c01b6200029460201b60201c565b620001836742a79aa04ebbab4a60c01b6200029460201b60201c565b620001a65f801b6200019a6200029760201b60201c565b6200029e60201b60201c565b620001c267556b333e8cebcf1860c01b6200029460201b60201c565b620001de67884991b74907405360c01b6200029460201b60201c565b6200021f7f65d7a28e3265b37a6474929f336521b332c1681b933f6cb9f3376673440d862a620002136200029760201b60201c565b6200029e60201b60201c565b6200023b671653b96dcbb5411360c01b6200029460201b60201c565b62000257671a8279ff43dc71e360c01b6200029460201b60201c565b620002897fe2f4eaae4a9751e85a3e4a7b9587827a877f29914755229b07a7b2da98285f70846200029e60201b60201c565b505050505062000a35565b50565b5f33905090565b620002b082826200038a60201b60201c565b6200038657600160075f8481526020019081526020015f205f015f8373ffffffffffffffffffffffffffffffffffffffff1673ffffffffffffffffffffffffffffffffffffffff1681526020019081526020015f205f6101000a81548160ff0219169083151502179055506200032b6200029760201b60201c565b73ffffffffffffffffffffffffffffffffffffffff168173ffffffffffffffffffffffffffffffffffffffff16837f2f8788117e7eff1d82e926ec794901d17c78024a50270940304540a733656f0d60405160405180910390a45b5050565b5f60075f8481526020019081526020015f205f015f8373ffffffffffffffffffffffffffffffffffffffff1673ffffffffffffffffffffffffffffffffffffffff1681526020019081526020015f205f9054906101000a900460ff16905092915050565b5f604051905090565b5f80fd5b5f80fd5b5f80fd5b5f80fd5b5f601f19601f8301169050919050565b7f4e487b71000000000000000000000000000000000000000000000000000000005f52604160045260245ffd5b6200044f8262000407565b810181811067ffffffffffffffff8211171562000471576200047062000417565b5b80604052505050565b5f62000485620003ee565b905062000493828262000444565b919050565b5f67ffffffffffffffff821115620004b557620004b462000417565b5b620004c08262000407565b9050602081019050919050565b5f5b83811015620004ec578082015181840152602081019050620004cf565b5f8484015250505050565b5f6200050d620005078462000498565b6200047a565b9050828152602081018484840111156200052c576200052b62000403565b5b62000539848285620004cd565b509392505050565b5f82601f830112620005585762000557620003ff565b5b81516200056a848260208601620004f7565b91505092915050565b5f73ffffffffffffffffffffffffffffffffffffffff82169050919050565b5f6200059e8262000573565b9050919050565b620005b08162000592565b8114620005bb575f80fd5b50565b5f81519050620005ce81620005a5565b92915050565b5f620005e08262000592565b9050919050565b620005f281620005d4565b8114620005fd575f80fd5b50565b5f815190506200061081620005e7565b92915050565b5f620006228262000592565b9050919050565b620006348162000616565b81146200063f575f80fd5b50565b5f81519050620006528162000629565b92915050565b5f805f805f60a08688031215620006745762000673620003f7565b5b5f86015167ffffffffffffffff811115620006945762000693620003fb565b5b620006a28882890162000541565b955050602086015167ffffffffffffffff811115620006c657620006c5620003fb565b5b620006d48882890162000541565b9450506040620006e788828901620005be565b9350506060620006fa8882890162000600565b92505060806200070d8882890162000642565b9150509295509295909350565b5f81519050919050565b7f4e487b71000000000000000000000000000000000000000000000000000000005f52602260045260245ffd5b5f60028204905060018216806200076957607f821691505b6020821081036200077f576200077e62000724565b5b50919050565b5f819050815f5260205f209050919050565b5f6020601f8301049050919050565b5f82821b905092915050565b5f60088302620007e37fffffffffffffffffffffffffffffffffffffffffffffffffffffffffffffffff82620007a6565b620007ef8683620007a6565b95508019841693508086168417925050509392505050565b5f819050919050565b5f819050919050565b5f62000839620008336200082d8462000807565b62000810565b62000807565b9050919050565b5f819050919050565b620008548362000819565b6200086c620008638262000840565b848454620007b2565b825550505050565b5f90565b6200088262000874565b6200088f81848462000849565b505050565b5b81811015620008b657620008aa5f8262000878565b60018101905062000895565b5050565b601f8211156200090557620008cf8162000785565b620008da8462000797565b81016020851015620008ea578190505b62000902620008f98562000797565b83018262000894565b50505b505050565b5f82821c905092915050565b5f620009275f19846008026200090a565b1980831691505092915050565b5f62000941838362000916565b9150826002028217905092915050565b6200095c826200071a565b67ffffffffffffffff81111562000978576200097762000417565b5b62000984825462000751565b62000991828285620008ba565b5f60209050601f831160018114620009c7575f8415620009b2578287015190505b620009be858262000934565b86555062000a2d565b601f198416620009d78662000785565b5f5b8281101562000a0057848901518255600182019150602085019450602081019050620009d9565b8683101562000a20578489015162000a1c601f89168262000916565b8355505b6001600288020188555050505b505050505050565b6162f58062000a435f395ff3fe608060405234801561000f575f80fd5b50600436106101d8575f3560e01c80636352211e11610102578063a217fddf116100a0578063c9187fe71161006f578063c9187fe714610562578063d547741f14610592578063e63ab1e9146105ae578063e985e9c5146105cc576101d8565b8063a217fddf146104dc578063a22cb465146104fa578063b88d4fde14610516578063c87b56dd14610532576101d8565b806384ffeca5116100dc57806384ffeca51461044057806391d148541461047057806395d89b41146104a0578063a1ebf35d146104be576101d8565b80636352211e146103d657806370a08231146104065780638456cb5914610436576101d8565b806323b872dd1161017a5780633f4ba83a116101495780633f4ba83a1461036257806342842e0e1461036c57806359a96ffe146103885780635c975abb146103b8576101d8565b806323b872dd146102de578063248a9ca3146102fa5780632f2ff15d1461032a57806336568abe14610346576101d8565b8063095ea7b3116101b6578063095ea7b31461025a5780630e47cefa1461027657806318c85b4d146102a65780632306cc1a146102c2576101d8565b806301ffc9a7146101dc57806306fdde031461020c578063081812fc1461022a575b5f80fd5b6101f660048036038101906101f19190613dc5565b6105fc565b6040516102039190613e0a565b60405180910390f35b610214610649565b6040516102219190613ead565b60405180910390f35b610244600480360381019061023f9190613f00565b6106d8565b6040516102519190613f6a565b60405180910390f35b610274600480360381019061026f9190613fad565b61071a565b005b610290600480360381019061028b9190614117565b610830565b60405161029d9190614180565b60405180910390f35b6102c060048036038101906102bb91906143d9565b6108a3565b005b6102dc60048036038101906102d791906143d9565b610d9e565b005b6102f860048036038101906102f391906144e6565b61125e565b005b610314600480360381019061030f9190614569565b6112be565b60405161032191906145a3565b60405180910390f35b610344600480360381019061033f91906145bc565b6112db565b005b610360600480360381019061035b91906145bc565b6112fc565b005b61036a61137f565b005b610386600480360381019061038191906144e6565b611485565b005b6103a2600480360381019061039d91906145fa565b6114a4565b6040516103af9190613f6a565b60405180910390f35b6103c061161a565b6040516103cd9190613e0a565b60405180910390f35b6103f060048036038101906103eb9190613f00565b61162f565b6040516103fd9190613f6a565b60405180910390f35b610420600480360381019061041b9190614641565b6116b3565b60405161042d9190614180565b60405180910390f35b61043e611767565b005b61045a60048036038101906104559190613f00565b61186d565b6040516104679190614180565b60405180910390f35b61048a600480360381019061048591906145bc565b6118c3565b6040516104979190613e0a565b60405180910390f35b6104a8611927565b6040516104b59190613ead565b60405180910390f35b6104c66119b7565b6040516104d391906145a3565b60405180910390f35b6104e46119db565b6040516104f191906145a3565b60405180910390f35b610514600480360381019061050f9190614696565b6119e1565b005b610530600480360381019061052b91906146d4565b6119f7565b005b61054c60048036038101906105479190613f00565b611a59565b6040516105599190613ead565b60405180910390f35b61057c60048036038101906105779190613f00565b611b63565b6040516105899190614861565b60405180910390f35b6105ac60048036038101906105a791906145bc565b611c84565b005b6105b6611ca5565b6040516105c391906145a3565b60405180910390f35b6105e660048036038101906105e19190614881565b611cc9565b6040516105f39190613e0a565b60405180910390f35b5f610611673b7a4dba6d35da5e60c01b611d57565b61062567801ba502f2c6bf1160c01b611d57565b610639678eb186398041258660c01b611d57565b61064282611d5a565b9050919050565b60605f8054610657906148ec565b80601f0160208091040260200160405190810160405280929190818152602001828054610683906148ec565b80156106ce5780601f106106a5576101008083540402835291602001916106ce565b820191905f5260205f20905b8154815290600101906020018083116106b157829003601f168201915b5050505050905090565b5f6106e282611dd3565b60045f8381526020019081526020015f205f9054906101000a900473ffffffffffffffffffffffffffffffffffffffff169050919050565b5f6107248261162f565b90508073ffffffffffffffffffffffffffffffffffffffff168373ffffffffffffffffffffffffffffffffffffffff1603610794576040517f08c379a000000000000000000000000000000000000000000000000000000000815260040161078b9061498c565b60405180910390fd5b8073ffffffffffffffffffffffffffffffffffffffff166107b3611e1e565b73ffffffffffffffffffffffffffffffffffffffff1614806107e257506107e1816107dc611e1e565b611cc9565b5b610821576040517f08c379a000000000000000000000000000000000000000000000000000000000815260040161081890614a1a565b60405180910390fd5b61082b8383611e25565b505050565b5f610845670c0678dcb80aed3560c01b611d57565b6108596792b5dfb95e50e97f60c01b611d57565b61086d67994448251e1b971f60c01b611d57565b600b8360405161087d9190614a72565b90815260200160405180910390205f8381526020019081526020015f2054905092915050565b6108b76759e148664d43146960c01b611d57565b6108bf611edb565b6108d367e49bf2e9671090c060c01b611d57565b6108e767c4f8168df162e01b60c01b611d57565b6108fb67a287f18ff6014a4060c01b611d57565b61090f673626ab2af9872a6360c01b611d57565b61092367d46c039310b96dcc60c01b611d57565b6001600860019054906101000a900473ffffffffffffffffffffffffffffffffffffffff1673ffffffffffffffffffffffffffffffffffffffff16634b557d8a61096b611e1e565b6040518263ffffffff1660e01b81526004016109879190613f6a565b602060405180830381865afa1580156109a2573d5f803e3d5ffd5b505050506040513d601f19601f820116820180604052508101906109c69190614abe565b60ff1614610a09576040517f08c379a0000000000000000000000000000000000000000000000000000000008152600401610a0090614b33565b60405180910390fd5b610a1d67bb3ad54ce4a9831b60c01b611d57565b610a3167fe67eca6a7282e1060c01b611d57565b610a456729501ab718374a3160c01b611d57565b610a596769162c11b393323c60c01b611d57565b8051825114610a9d576040517f08c379a0000000000000000000000000000000000000000000000000000000008152600401610a9490614b9b565b60405180910390fd5b610ab167d76da1896a629ce960c01b611d57565b610ac56748463660a13759de60c01b611d57565b610ad967aa0102e351ae035a60c01b611d57565b610aed672c138e46e6b6322060c01b611d57565b5f73ffffffffffffffffffffffffffffffffffffffff168473ffffffffffffffffffffffffffffffffffffffff1603610b5b576040517f08c379a0000000000000000000000000000000000000000000000000000000008152600401610b5290614c03565b60405180910390fd5b610b6f6755a8aaee0f70614760c01b611d57565b610b83673d9291da4e4b23fd60c01b611d57565b610b9767fc4fe69e5d15a51f60c01b611d57565b610bab67699db8821ab42c4460c01b611d57565b610bd57fe2f4eaae4a9751e85a3e4a7b9587827a877f29914755229b07a7b2da98285f70856118c3565b610c14576040517f08c379a0000000000000000000000000000000000000000000000000000000008152600401610c0b90614c6b565b60405180910390fd5b610c28674a27e8a24a2dc55d60c01b611d57565b610c3c6709bb68161f21c93160c01b611d57565b610c50679f9afd5afed3b78e60c01b611d57565b610c6467e8485bfff219fa0960c01b611d57565b610c7387878787878688611f25565b610cb2576040517f08c379a0000000000000000000000000000000000000000000000000000000008152600401610ca990614cf9565b60405180910390fd5b610cc6679eafebffab367e8d60c01b611d57565b610cda67c1c6b1c72d6faa4b60c01b611d57565b610cee67b6789c498904a6a360c01b611d57565b610d0267c194e8623c23115060c01b611d57565b610d0d8783836121d3565b15610d4d576040517f08c379a0000000000000000000000000000000000000000000000000000000008152600401610d4490614d61565b60405180910390fd5b610d61674f8ed618a0b9444f60c01b611d57565b610d75671b8044254281100b60c01b611d57565b610d8967f3c367b7bca9b73d60c01b611d57565b610d95878684846124cd565b50505050505050565b610db2679ad0b0ffc20e2b1460c01b611d57565b610dba611edb565b610dce675a59affa8ad13ef860c01b611d57565b610de2672cc52113e106e2a860c01b611d57565b610df667bff564f770bdb1c960c01b611d57565b610e0a67a4e3dba8589099a260c01b611d57565b610e1e67573c11436e8ea3cc60c01b611d57565b610e278761162f565b73ffffffffffffffffffffffffffffffffffffffff16610e45611e1e565b73ffffffffffffffffffffffffffffffffffffffff1614610e9b576040517f08c379a0000000000000000000000000000000000000000000000000000000008152600401610e9290614dc9565b60405180910390fd5b610eaf678ef428b2cd48393460c01b611d57565b610ec3678daec05e0abe04ce60c01b611d57565b610ed767699bc41147dfe41b60c01b611d57565b610eeb67c1f3ef84cf9204b760c01b611d57565b8051825114610f2f576040517f08c379a0000000000000000000000000000000000000000000000000000000008152600401610f2690614b9b565b60405180910390fd5b610f426680ec7ed33897a460c01b611d57565b610f5667ee4eec55b14ae45560c01b611d57565b610f6a67ff89bdd9a4ced85b60c01b611d57565b610f7e67cfe62afc27931cff60c01b611d57565b5f73ffffffffffffffffffffffffffffffffffffffff168473ffffffffffffffffffffffffffffffffffffffff1603610fec576040517f08c379a0000000000000000000000000000000000000000000000000000000008152600401610fe390614c03565b60405180910390fd5b611000675c18ea965092f37660c01b611d57565b6110146764ec12f895a8175b60c01b611d57565b611028679fdb0f565a6972ac60c01b611d57565b61103c67a9e49c1f916010ee60c01b611d57565b6110667fe2f4eaae4a9751e85a3e4a7b9587827a877f29914755229b07a7b2da98285f70856118c3565b6110a5576040517f08c379a000000000000000000000000000000000000000000000000000000000815260040161109c90614c6b565b60405180910390fd5b6110b9678f1f8a00b3fabf0b60c01b611d57565b6110cd67f8b49263641b4b6260c01b611d57565b6110e167c49c50e1fea8b76f60c01b611d57565b6110f56707c33744b56be08860c01b611d57565b61110487878787878688611f25565b611143576040517f08c379a000000000000000000000000000000000000000000000000000000000815260040161113a90614cf9565b60405180910390fd5b61115767d6019cfc53b1778d60c01b611d57565b61116b6791057aeef0acc85f60c01b611d57565b61117f678fe25817b3f777a160c01b611d57565b6111936740206735d0302e3b60c01b611d57565b61119e8783836121d3565b156111de576040517f08c379a00000000000000000000000000000000000000000000000000000000081526004016111d590614d61565b60405180910390fd5b6111f267d3eedd9f007f70ca60c01b611d57565b6112066783ff8594f677885c60c01b611d57565b61121a67a80c28c436df67d760c01b611d57565b7f0d5bcc3cb98adc5778f35c805a29156280afd1cfe4d8c019920fc995578784bd87838360405161124d93929190614e9e565b60405180910390a150505050505050565b61126f611269611e1e565b826125ea565b6112ae576040517f08c379a00000000000000000000000000000000000000000000000000000000081526004016112a590614f51565b60405180910390fd5b6112b983838361267e565b505050565b5f60075f8381526020019081526020015f20600101549050919050565b6112e4826112be565b6112ed8161296a565b6112f7838361297e565b505050565b611304611e1e565b73ffffffffffffffffffffffffffffffffffffffff168173ffffffffffffffffffffffffffffffffffffffff1614611371576040517f08c379a000000000000000000000000000000000000000000000000000000000815260040161136890614fdf565b60405180910390fd5b61137b8282612a59565b5050565b6113936745ff8a15ba1d751e60c01b611d57565b6113a76793472cf651a4408f60c01b611d57565b6113bb6793efe9cb958852fe60c01b611d57565b6113cf67e57cee1f1425ff0460c01b611d57565b6114007f65d7a28e3265b37a6474929f336521b332c1681b933f6cb9f3376673440d862a6113fb611e1e565b6118c3565b61143f576040517f08c379a00000000000000000000000000000000000000000000000000000000081526004016114369061506d565b60405180910390fd5b61145367260e63fe2293259c60c01b611d57565b61146767b1fa626bf1342a7960c01b611d57565b61147b678666c689182af16b60c01b611d57565b611483612b34565b565b61149f83838360405180602001604052805f8152506119f7565b505050565b5f6114b96774208ba5f7e299d660c01b611d57565b6114cd67bc330b5cd39a3d0160c01b611d57565b6114e167c4eb403533ed482460c01b611d57565b600860019054906101000a900473ffffffffffffffffffffffffffffffffffffffff1673ffffffffffffffffffffffffffffffffffffffff16636352211e60095f9054906101000a900473ffffffffffffffffffffffffffffffffffffffff1673ffffffffffffffffffffffffffffffffffffffff1663a3085ce8856040518263ffffffff1660e01b815260040161157991906150d3565b602060405180830381865afa158015611594573d5f803e3d5ffd5b505050506040513d601f19601f820116820180604052508101906115b89190615107565b6040518263ffffffff1660e01b81526004016115d49190614180565b602060405180830381865afa1580156115ef573d5f803e3d5ffd5b505050506040513d601f19601f820116820180604052508101906116139190615146565b9050919050565b5f60085f9054906101000a900460ff16905090565b5f8061163a83612b95565b90505f73ffffffffffffffffffffffffffffffffffffffff168173ffffffffffffffffffffffffffffffffffffffff16036116aa576040517f08c379a00000000000000000000000000000000000000000000000000000000081526004016116a1906151bb565b60405180910390fd5b80915050919050565b5f8073ffffffffffffffffffffffffffffffffffffffff168273ffffffffffffffffffffffffffffffffffffffff1603611722576040517f08c379a000000000000000000000000000000000000000000000000000000000815260040161171990615249565b60405180910390fd5b60035f8373ffffffffffffffffffffffffffffffffffffffff1673ffffffffffffffffffffffffffffffffffffffff1681526020019081526020015f20549050919050565b61177b675acad2aa72b8804560c01b611d57565b61178f67fdeb2b0e86afedea60c01b611d57565b6117a3677fa05c5f869e868960c01b611d57565b6117b76707e510b296979b9260c01b611d57565b6117e87f65d7a28e3265b37a6474929f336521b332c1681b933f6cb9f3376673440d862a6117e3611e1e565b6118c3565b611827576040517f08c379a000000000000000000000000000000000000000000000000000000000815260040161181e906152d7565b60405180910390fd5b61183b6771bde085cfc845ff60c01b611d57565b61184f678866dd8963a86c4860c01b611d57565b61186367e78f3a0d07ee112e60c01b611d57565b61186b612bce565b565b5f6118826707fadc420102b60660c01b611d57565b61189667f568949a1d46c31160c01b611d57565b6118aa679c6ca2050eac41a960c01b611d57565b600a5f8381526020019081526020015f20549050919050565b5f60075f8481526020019081526020015f205f015f8373ffffffffffffffffffffffffffffffffffffffff1673ffffffffffffffffffffffffffffffffffffffff1681526020019081526020015f205f9054906101000a900460ff16905092915050565b606060018054611936906148ec565b80601f0160208091040260200160405190810160405280929190818152602001828054611962906148ec565b80156119ad5780601f10611984576101008083540402835291602001916119ad565b820191905f5260205f20905b81548152906001019060200180831161199057829003601f168201915b5050505050905090565b7fe2f4eaae4a9751e85a3e4a7b9587827a877f29914755229b07a7b2da98285f7081565b5f801b81565b6119f36119ec611e1e565b8383612c30565b5050565b611a08611a02611e1e565b836125ea565b611a47576040517f08c379a0000000000000000000000000000000000000000000000000000000008152600401611a3e90614f51565b60405180910390fd5b611a5384848484612d97565b50505050565b6060611a6482611dd3565b5f60065f8481526020019081526020015f208054611a81906148ec565b80601f0160208091040260200160405190810160405280929190818152602001828054611aad906148ec565b8015611af85780601f10611acf57610100808354040283529160200191611af8565b820191905f5260205f20905b815481529060010190602001808311611adb57829003601f168201915b505050505090505f611b08612df3565b90505f815103611b1c578192505050611b5e565b5f82511115611b50578082604051602001611b3892919061532f565b60405160208183030381529060405292505050611b5e565b611b5984612e09565b925050505b919050565b6060611b7967e343e67c6e1b7f0260c01b611d57565b611b8d67d3ab3706538c607e60c01b611d57565b611ba167424ae4de1f02d77660c01b611d57565b600c5f8381526020019081526020015f20805480602002602001604051908101604052809291908181526020015f905b82821015611c79578382905f5260205f20018054611bee906148ec565b80601f0160208091040260200160405190810160405280929190818152602001828054611c1a906148ec565b8015611c655780601f10611c3c57610100808354040283529160200191611c65565b820191905f5260205f20905b815481529060010190602001808311611c4857829003601f168201915b505050505081526020019060010190611bd1565b505050509050919050565b611c8d826112be565b611c968161296a565b611ca08383612a59565b505050565b7f65d7a28e3265b37a6474929f336521b332c1681b933f6cb9f3376673440d862a81565b5f60055f8473ffffffffffffffffffffffffffffffffffffffff1673ffffffffffffffffffffffffffffffffffffffff1681526020019081526020015f205f8373ffffffffffffffffffffffffffffffffffffffff1673ffffffffffffffffffffffffffffffffffffffff1681526020019081526020015f205f9054906101000a900460ff16905092915050565b50565b5f7f7965db0b000000000000000000000000000000000000000000000000000000007bffffffffffffffffffffffffffffffffffffffffffffffffffffffff1916827bffffffffffffffffffffffffffffffffffffffffffffffffffffffff19161480611dcc5750611dcb82612e6e565b5b9050919050565b611ddc81612ece565b611e1b576040517f08c379a0000000000000000000000000000000000000000000000000000000008152600401611e12906151bb565b60405180910390fd5b50565b5f33905090565b8160045f8381526020019081526020015f205f6101000a81548173ffffffffffffffffffffffffffffffffffffffff021916908373ffffffffffffffffffffffffffffffffffffffff160217905550808273ffffffffffffffffffffffffffffffffffffffff16611e958361162f565b73ffffffffffffffffffffffffffffffffffffffff167f8c5be1e5ebec7d5bd14f71427d1e84f3dd0314c0f7b2291e5b200ac8c7c3b92560405160405180910390a45050565b611ee361161a565b15611f23576040517f08c379a0000000000000000000000000000000000000000000000000000000008152600401611f1a9061539c565b60405180910390fd5b565b5f611f3a67584a6b9c6638d75a60c01b611d57565b611f4e67ad4e42f5c317072e60c01b611d57565b611f62671c0213257307c38f60c01b611d57565b611f76673116b1e19032001260c01b611d57565b600d5f8881526020019081526020015f205f9054906101000a900460ff1615611fd4576040517f08c379a0000000000000000000000000000000000000000000000000000000008152600401611fcb90615404565b60405180910390fd5b611fe8674cfa544257de1c4460c01b611d57565b611ffc67c85f9a47a2b6633a60c01b611d57565b6001600d5f8981526020019081526020015f205f6101000a81548160ff021916908315150217905550612039679102f71b46f4962460c01b611d57565b61204d6742b3dd35f4c3484760c01b611d57565b5f8260405160200161205f9190614861565b60405160208183030381529060405280519060200120905061208b67543c3ac826e840a160c01b611d57565b61209f67e8af0464ba2bc76060c01b611d57565b5f8989898985896120ae611e1e565b306040516020016120c6989796959493929190615533565b6040516020818303038152906040528051906020012090506120f2672fddcf8ca048680f60c01b611d57565b612106672ddb0eff3f805f1060c01b611d57565b5f6121228761211484612f0e565b612f4190919063ffffffff16565b90506121386791153eb5d333b30760c01b611d57565b61214c67d79d0184d935f35860c01b611d57565b8073ffffffffffffffffffffffffffffffffffffffff168873ffffffffffffffffffffffffffffffffffffffff16036121b05761219367d4d317556ef56b9560c01b611d57565b6121a767bc021970b7c1f1b060c01b611d57565b600193506121c5565b6121c46731a3f5f78667e03d60c01b611d57565b5b505050979650505050505050565b5f6121e867675ebddc7e462b3f60c01b611d57565b6121fc672dfc2b8ca230d3ea60c01b611d57565b61221067c78deaa7cbe459fd60c01b611d57565b5f8351905061222967f858f5c26b24379060c01b611d57565b61223d67934729b5044e1c6060c01b611d57565b5f5b8181101561249c5761225b679268663b219743b360c01b611d57565b61226f67122f9567404bf99a60c01b611d57565b600160095f9054906101000a900473ffffffffffffffffffffffffffffffffffffffff1673ffffffffffffffffffffffffffffffffffffffff16635f233dab8784815181106122c1576122c06155bc565b5b6020026020010151896040518363ffffffff1660e01b81526004016122e79291906155e9565b602060405180830381865afa158015612302573d5f803e3d5ffd5b505050506040513d601f19601f820116820180604052508101906123269190614abe565b60ff160361244457612342671d0d9e63c37c820d60c01b611d57565b612356676aef9f935418b8d060c01b611d57565b838181518110612369576123686155bc565b5b6020026020010151600b868381518110612386576123856155bc565b5b602002602001015160405161239b9190614a72565b90815260200160405180910390205f8881526020019081526020015f20819055506123d067eb54c5443595bd9f60c01b611d57565b6123e46792f6578219dd83d260c01b611d57565b600c5f8781526020019081526020015f20858281518110612408576124076155bc565b5b6020026020010151908060018154018082558091505060019003905f5260205f20015f90919091909150908161243e91906157b4565b50612489565b612458671087eb780e3db05d60c01b611d57565b61246c6757270fb9b033fe5c60c01b611d57565b6001925061248467d079465862547fdc60c01b611d57565b61249c565b8080612494906158b0565b91505061223f565b506124b167eff92ae17995c81860c01b611d57565b6124c56767cbbf75f98f438360c01b611d57565b509392505050565b6124e1676f80d2100b202fe460c01b611d57565b6124f5674aab46082b48ec5760c01b611d57565b8151600a5f8681526020019081526020015f208190555061252067e9f04767dd26419d60c01b611d57565b61253366839339059c86fe60c01b611d57565b7f63e2c6c753e1a52720e4b2722de8cbd9f2cdec7877e7b337c2fbce63533511d68461255d611e1e565b8585856040516125719594939291906158f7565b60405180910390a161258d67c78df6c1b65f336660c01b611d57565b6125a16739cd6965a11e391260c01b611d57565b6125b26125ac611e1e565b85612f66565b6125c6671d6d7aa39393392e60c01b611d57565b6125da67de77459b272deaa260c01b611d57565b6125e48484612f83565b50505050565b5f806125f58361162f565b90508073ffffffffffffffffffffffffffffffffffffffff168473ffffffffffffffffffffffffffffffffffffffff16148061263757506126368185611cc9565b5b8061267557508373ffffffffffffffffffffffffffffffffffffffff1661265d846106d8565b73ffffffffffffffffffffffffffffffffffffffff16145b91505092915050565b8273ffffffffffffffffffffffffffffffffffffffff1661269e8261162f565b73ffffffffffffffffffffffffffffffffffffffff16146126f4576040517f08c379a00000000000000000000000000000000000000000000000000000000081526004016126eb906159cd565b60405180910390fd5b5f73ffffffffffffffffffffffffffffffffffffffff168273ffffffffffffffffffffffffffffffffffffffff1603612762576040517f08c379a000000000000000000000000000000000000000000000000000000000815260040161275990615a5b565b60405180910390fd5b61276f8383836001613025565b8273ffffffffffffffffffffffffffffffffffffffff1661278f8261162f565b73ffffffffffffffffffffffffffffffffffffffff16146127e5576040517f08c379a00000000000000000000000000000000000000000000000000000000081526004016127dc906159cd565b60405180910390fd5b60045f8281526020019081526020015f205f6101000a81549073ffffffffffffffffffffffffffffffffffffffff0219169055600160035f8573ffffffffffffffffffffffffffffffffffffffff1673ffffffffffffffffffffffffffffffffffffffff1681526020019081526020015f205f8282540392505081905550600160035f8473ffffffffffffffffffffffffffffffffffffffff1673ffffffffffffffffffffffffffffffffffffffff1681526020019081526020015f205f82825401925050819055508160025f8381526020019081526020015f205f6101000a81548173ffffffffffffffffffffffffffffffffffffffff021916908373ffffffffffffffffffffffffffffffffffffffff160217905550808273ffffffffffffffffffffffffffffffffffffffff168473ffffffffffffffffffffffffffffffffffffffff167fddf252ad1be2c89b69c2b068fc378daa952ba7f163c4a11628f55a4df523b3ef60405160405180910390a4612965838383600161302b565b505050565b61297b81612976611e1e565b613031565b50565b61298882826118c3565b612a5557600160075f8481526020019081526020015f205f015f8373ffffffffffffffffffffffffffffffffffffffff1673ffffffffffffffffffffffffffffffffffffffff1681526020019081526020015f205f6101000a81548160ff0219169083151502179055506129fa611e1e565b73ffffffffffffffffffffffffffffffffffffffff168173ffffffffffffffffffffffffffffffffffffffff16837f2f8788117e7eff1d82e926ec794901d17c78024a50270940304540a733656f0d60405160405180910390a45b5050565b612a6382826118c3565b15612b30575f60075f8481526020019081526020015f205f015f8373ffffffffffffffffffffffffffffffffffffffff1673ffffffffffffffffffffffffffffffffffffffff1681526020019081526020015f205f6101000a81548160ff021916908315150217905550612ad5611e1e565b73ffffffffffffffffffffffffffffffffffffffff168173ffffffffffffffffffffffffffffffffffffffff16837ff6391f5c32d9c69d2a47ea670b442974b53935d1edc7fd64eb21e047a839171b60405160405180910390a45b5050565b612b3c6130b5565b5f60085f6101000a81548160ff0219169083151502179055507f5db9ee0a495bf2e6ff9c91a7834c1ba4fdd244a5e8aa4e537bd38aeae4b073aa612b7e611e1e565b604051612b8b9190613f6a565b60405180910390a1565b5f60025f8381526020019081526020015f205f9054906101000a900473ffffffffffffffffffffffffffffffffffffffff169050919050565b612bd6611edb565b600160085f6101000a81548160ff0219169083151502179055507f62e78cea01bee320cd4e420270b5ea74000d11b0c9f74754ebdbfc544b05a258612c19611e1e565b604051612c269190613f6a565b60405180910390a1565b8173ffffffffffffffffffffffffffffffffffffffff168373ffffffffffffffffffffffffffffffffffffffff1603612c9e576040517f08c379a0000000000000000000000000000000000000000000000000000000008152600401612c9590615ac3565b60405180910390fd5b8060055f8573ffffffffffffffffffffffffffffffffffffffff1673ffffffffffffffffffffffffffffffffffffffff1681526020019081526020015f205f8473ffffffffffffffffffffffffffffffffffffffff1673ffffffffffffffffffffffffffffffffffffffff1681526020019081526020015f205f6101000a81548160ff0219169083151502179055508173ffffffffffffffffffffffffffffffffffffffff168373ffffffffffffffffffffffffffffffffffffffff167f17307eab39ab6107e8899845ad3d59bd9653f200f220920489ca2b5937696c3183604051612d8a9190613e0a565b60405180910390a3505050565b612da284848461267e565b612dae848484846130fe565b612ded576040517f08c379a0000000000000000000000000000000000000000000000000000000008152600401612de490615b51565b60405180910390fd5b50505050565b606060405180602001604052805f815250905090565b6060612e1482611dd3565b5f612e1d612df3565b90505f815111612e3b5760405180602001604052805f815250612e66565b80612e4584613280565b604051602001612e5692919061532f565b6040516020818303038152906040525b915050919050565b5f634906490660e01b7bffffffffffffffffffffffffffffffffffffffffffffffffffffffff1916827bffffffffffffffffffffffffffffffffffffffffffffffffffffffff19161480612ec75750612ec68261334a565b5b9050919050565b5f8073ffffffffffffffffffffffffffffffffffffffff16612eef83612b95565b73ffffffffffffffffffffffffffffffffffffffff1614159050919050565b5f7f19457468657265756d205369676e6564204d6573736167653a0a3332000000005f5281601c52603c5f209050919050565b5f805f612f4e858561342b565b91509150612f5b81613477565b819250505092915050565b612f7f828260405180602001604052805f8152506135dc565b5050565b612f8c82612ece565b612fcb576040517f08c379a0000000000000000000000000000000000000000000000000000000008152600401612fc290615bdf565b60405180910390fd5b8060065f8481526020019081526020015f209081612fe99190615c55565b507ff8e1a15aba9398e019f0b49df1a4fde98ee17ae345cb5f6b5e2c27f5033e8ce7826040516130199190614180565b60405180910390a15050565b50505050565b50505050565b61303b82826118c3565b6130b15761304881613636565b613055835f1c6020613663565b604051602001613066929190615db8565b6040516020818303038152906040526040517f08c379a00000000000000000000000000000000000000000000000000000000081526004016130a89190613ead565b60405180910390fd5b5050565b6130bd61161a565b6130fc576040517f08c379a00000000000000000000000000000000000000000000000000000000081526004016130f390615e3b565b60405180910390fd5b565b5f61311e8473ffffffffffffffffffffffffffffffffffffffff16613898565b15613273578373ffffffffffffffffffffffffffffffffffffffff1663150b7a02613147611e1e565b8786866040518563ffffffff1660e01b81526004016131699493929190615e59565b6020604051808303815f875af19250505080156131a457506040513d601f19601f820116820180604052508101906131a19190615eb7565b60015b613223573d805f81146131d2576040519150601f19603f3d011682016040523d82523d5f602084013e6131d7565b606091505b505f81510361321b576040517f08c379a000000000000000000000000000000000000000000000000000000000815260040161321290615b51565b60405180910390fd5b805181602001fd5b63150b7a0260e01b7bffffffffffffffffffffffffffffffffffffffffffffffffffffffff1916817bffffffffffffffffffffffffffffffffffffffffffffffffffffffff191614915050613278565b600190505b949350505050565b60605f600161328e846138ba565b0190505f8167ffffffffffffffff8111156132ac576132ab613ff3565b5b6040519080825280601f01601f1916602001820160405280156132de5781602001600182028036833780820191505090505b5090505f82602001820190505b60011561333f578080600190039150507f3031323334353637383961626364656600000000000000000000000000000000600a86061a8153600a858161333457613333615ee2565b5b0494505f85036132eb575b819350505050919050565b5f7f80ac58cd000000000000000000000000000000000000000000000000000000007bffffffffffffffffffffffffffffffffffffffffffffffffffffffff1916827bffffffffffffffffffffffffffffffffffffffffffffffffffffffff1916148061341457507f5b5e139f000000000000000000000000000000000000000000000000000000007bffffffffffffffffffffffffffffffffffffffffffffffffffffffff1916827bffffffffffffffffffffffffffffffffffffffffffffffffffffffff1916145b80613424575061342382613a0b565b5b9050919050565b5f806041835103613468575f805f602086015192506040860151915060608601515f1a905061345c87828585613a74565b94509450505050613470565b5f6002915091505b9250929050565b5f600481111561348a57613489615f0f565b5b81600481111561349d5761349c615f0f565b5b03156135d957600160048111156134b7576134b6615f0f565b5b8160048111156134ca576134c9615f0f565b5b0361350a576040517f08c379a000000000000000000000000000000000000000000000000000000000815260040161350190615f86565b60405180910390fd5b6002600481111561351e5761351d615f0f565b5b81600481111561353157613530615f0f565b5b03613571576040517f08c379a000000000000000000000000000000000000000000000000000000000815260040161356890615fee565b60405180910390fd5b6003600481111561358557613584615f0f565b5b81600481111561359857613597615f0f565b5b036135d8576040517f08c379a00000000000000000000000000000000000000000000000000000000081526004016135cf9061607c565b60405180910390fd5b5b50565b6135e68383613b4c565b6135f25f8484846130fe565b613631576040517f08c379a000000000000000000000000000000000000000000000000000000000815260040161362890615b51565b60405180910390fd5b505050565b606061365c8273ffffffffffffffffffffffffffffffffffffffff16601460ff16613663565b9050919050565b60605f6002836002613675919061609a565b61367f91906160db565b67ffffffffffffffff81111561369857613697613ff3565b5b6040519080825280601f01601f1916602001820160405280156136ca5781602001600182028036833780820191505090505b5090507f3000000000000000000000000000000000000000000000000000000000000000815f81518110613701576137006155bc565b5b60200101907effffffffffffffffffffffffffffffffffffffffffffffffffffffffffffff191690815f1a9053507f780000000000000000000000000000000000000000000000000000000000000081600181518110613764576137636155bc565b5b60200101907effffffffffffffffffffffffffffffffffffffffffffffffffffffffffffff191690815f1a9053505f60018460026137a2919061609a565b6137ac91906160db565b90505b600181111561384b577f3031323334353637383961626364656600000000000000000000000000000000600f8616601081106137ee576137ed6155bc565b5b1a60f81b828281518110613805576138046155bc565b5b60200101907effffffffffffffffffffffffffffffffffffffffffffffffffffffffffffff191690815f1a905350600485901c9450806138449061610e565b90506137af565b505f841461388e576040517f08c379a00000000000000000000000000000000000000000000000000000000081526004016138859061617f565b60405180910390fd5b8091505092915050565b5f808273ffffffffffffffffffffffffffffffffffffffff163b119050919050565b5f805f90507a184f03e93ff9f4daa797ed6e38ed64bf6a1f0100000000000000008310613916577a184f03e93ff9f4daa797ed6e38ed64bf6a1f010000000000000000838161390c5761390b615ee2565b5b0492506040810190505b6d04ee2d6d415b85acef81000000008310613953576d04ee2d6d415b85acef8100000000838161394957613948615ee2565b5b0492506020810190505b662386f26fc10000831061398257662386f26fc10000838161397857613977615ee2565b5b0492506010810190505b6305f5e10083106139ab576305f5e10083816139a1576139a0615ee2565b5b0492506008810190505b61271083106139d05761271083816139c6576139c5615ee2565b5b0492506004810190505b606483106139f357606483816139e9576139e8615ee2565b5b0492506002810190505b600a8310613a02576001810190505b80915050919050565b5f7f01ffc9a7000000000000000000000000000000000000000000000000000000007bffffffffffffffffffffffffffffffffffffffffffffffffffffffff1916827bffffffffffffffffffffffffffffffffffffffffffffffffffffffff1916149050919050565b5f807f7fffffffffffffffffffffffffffffff5d576e7357a4501ddfe92f46681b20a0835f1c1115613aac575f600391509150613b43565b5f6001878787876040515f8152602001604052604051613acf94939291906161ac565b6020604051602081039080840390855afa158015613aef573d5f803e3d5ffd5b5050506020604051035190505f73ffffffffffffffffffffffffffffffffffffffff168173ffffffffffffffffffffffffffffffffffffffff1603613b3b575f60019250925050613b43565b805f92509250505b94509492505050565b5f73ffffffffffffffffffffffffffffffffffffffff168273ffffffffffffffffffffffffffffffffffffffff1603613bba576040517f08c379a0000000000000000000000000000000000000000000000000000000008152600401613bb190616239565b60405180910390fd5b613bc381612ece565b15613c03576040517f08c379a0000000000000000000000000000000000000000000000000000000008152600401613bfa906162a1565b60405180910390fd5b613c105f83836001613025565b613c1981612ece565b15613c59576040517f08c379a0000000000000000000000000000000000000000000000000000000008152600401613c50906162a1565b60405180910390fd5b600160035f8473ffffffffffffffffffffffffffffffffffffffff1673ffffffffffffffffffffffffffffffffffffffff1681526020019081526020015f205f82825401925050819055508160025f8381526020019081526020015f205f6101000a81548173ffffffffffffffffffffffffffffffffffffffff021916908373ffffffffffffffffffffffffffffffffffffffff160217905550808273ffffffffffffffffffffffffffffffffffffffff165f73ffffffffffffffffffffffffffffffffffffffff167fddf252ad1be2c89b69c2b068fc378daa952ba7f163c4a11628f55a4df523b3ef60405160405180910390a4613d5b5f8383600161302b565b5050565b5f604051905090565b5f80fd5b5f80fd5b5f7fffffffff0000000000000000000000000000000000000000000000000000000082169050919050565b613da481613d70565b8114613dae575f80fd5b50565b5f81359050613dbf81613d9b565b92915050565b5f60208284031215613dda57613dd9613d68565b5b5f613de784828501613db1565b91505092915050565b5f8115159050919050565b613e0481613df0565b82525050565b5f602082019050613e1d5f830184613dfb565b92915050565b5f81519050919050565b5f82825260208201905092915050565b5f5b83811015613e5a578082015181840152602081019050613e3f565b5f8484015250505050565b5f601f19601f8301169050919050565b5f613e7f82613e23565b613e898185613e2d565b9350613e99818560208601613e3d565b613ea281613e65565b840191505092915050565b5f6020820190508181035f830152613ec58184613e75565b905092915050565b5f819050919050565b613edf81613ecd565b8114613ee9575f80fd5b50565b5f81359050613efa81613ed6565b92915050565b5f60208284031215613f1557613f14613d68565b5b5f613f2284828501613eec565b91505092915050565b5f73ffffffffffffffffffffffffffffffffffffffff82169050919050565b5f613f5482613f2b565b9050919050565b613f6481613f4a565b82525050565b5f602082019050613f7d5f830184613f5b565b92915050565b613f8c81613f4a565b8114613f96575f80fd5b50565b5f81359050613fa781613f83565b92915050565b5f8060408385031215613fc357613fc2613d68565b5b5f613fd085828601613f99565b9250506020613fe185828601613eec565b9150509250929050565b5f80fd5b5f80fd5b7f4e487b71000000000000000000000000000000000000000000000000000000005f52604160045260245ffd5b61402982613e65565b810181811067ffffffffffffffff8211171561404857614047613ff3565b5b80604052505050565b5f61405a613d5f565b90506140668282614020565b919050565b5f67ffffffffffffffff82111561408557614084613ff3565b5b61408e82613e65565b9050602081019050919050565b828183375f83830152505050565b5f6140bb6140b68461406b565b614051565b9050828152602081018484840111156140d7576140d6613fef565b5b6140e284828561409b565b509392505050565b5f82601f8301126140fe576140fd613feb565b5b813561410e8482602086016140a9565b91505092915050565b5f806040838503121561412d5761412c613d68565b5b5f83013567ffffffffffffffff81111561414a57614149613d6c565b5b614156858286016140ea565b925050602061416785828601613eec565b9150509250929050565b61417a81613ecd565b82525050565b5f6020820190506141935f830184614171565b92915050565b5f67ffffffffffffffff8211156141b3576141b2613ff3565b5b6141bc82613e65565b9050602081019050919050565b5f6141db6141d684614199565b614051565b9050828152602081018484840111156141f7576141f6613fef565b5b61420284828561409b565b509392505050565b5f82601f83011261421e5761421d613feb565b5b813561422e8482602086016141c9565b91505092915050565b5f67ffffffffffffffff82111561425157614250613ff3565b5b602082029050602081019050919050565b5f80fd5b5f61427861427384614237565b614051565b9050808382526020820190506020840283018581111561429b5761429a614262565b5b835b818110156142e257803567ffffffffffffffff8111156142c0576142bf613feb565b5b8086016142cd89826140ea565b8552602085019450505060208101905061429d565b5050509392505050565b5f82601f830112614300576142ff613feb565b5b8135614310848260208601614266565b91505092915050565b5f67ffffffffffffffff82111561433357614332613ff3565b5b602082029050602081019050919050565b5f61435661435184614319565b614051565b9050808382526020820190506020840283018581111561437957614378614262565b5b835b818110156143a2578061438e8882613eec565b84526020840193505060208101905061437b565b5050509392505050565b5f82601f8301126143c0576143bf613feb565b5b81356143d0848260208601614344565b91505092915050565b5f805f805f805f60e0888a0312156143f4576143f3613d68565b5b5f6144018a828b01613eec565b97505060206144128a828b01613eec565b965050604088013567ffffffffffffffff81111561443357614432613d6c565b5b61443f8a828b0161420a565b95505060606144508a828b01613f99565b945050608088013567ffffffffffffffff81111561447157614470613d6c565b5b61447d8a828b016140ea565b93505060a088013567ffffffffffffffff81111561449e5761449d613d6c565b5b6144aa8a828b016142ec565b92505060c088013567ffffffffffffffff8111156144cb576144ca613d6c565b5b6144d78a828b016143ac565b91505092959891949750929550565b5f805f606084860312156144fd576144fc613d68565b5b5f61450a86828701613f99565b935050602061451b86828701613f99565b925050604061452c86828701613eec565b9150509250925092565b5f819050919050565b61454881614536565b8114614552575f80fd5b50565b5f813590506145638161453f565b92915050565b5f6020828403121561457e5761457d613d68565b5b5f61458b84828501614555565b91505092915050565b61459d81614536565b82525050565b5f6020820190506145b65f830184614594565b92915050565b5f80604083850312156145d2576145d1613d68565b5b5f6145df85828601614555565b92505060206145f085828601613f99565b9150509250929050565b5f6020828403121561460f5761460e613d68565b5b5f82013567ffffffffffffffff81111561462c5761462b613d6c565b5b614638848285016140ea565b91505092915050565b5f6020828403121561465657614655613d68565b5b5f61466384828501613f99565b91505092915050565b61467581613df0565b811461467f575f80fd5b50565b5f813590506146908161466c565b92915050565b5f80604083850312156146ac576146ab613d68565b5b5f6146b985828601613f99565b92505060206146ca85828601614682565b9150509250929050565b5f805f80608085870312156146ec576146eb613d68565b5b5f6146f987828801613f99565b945050602061470a87828801613f99565b935050604061471b87828801613eec565b925050606085013567ffffffffffffffff81111561473c5761473b613d6c565b5b614748878288016140ea565b91505092959194509250565b5f81519050919050565b5f82825260208201905092915050565b5f819050602082019050919050565b5f81519050919050565b5f82825260208201905092915050565b5f6147a18261477d565b6147ab8185614787565b93506147bb818560208601613e3d565b6147c481613e65565b840191505092915050565b5f6147da8383614797565b905092915050565b5f602082019050919050565b5f6147f882614754565b614802818561475e565b9350836020820285016148148561476e565b805f5b8581101561484f578484038952815161483085826147cf565b945061483b836147e2565b925060208a01995050600181019050614817565b50829750879550505050505092915050565b5f6020820190508181035f83015261487981846147ee565b905092915050565b5f806040838503121561489757614896613d68565b5b5f6148a485828601613f99565b92505060206148b585828601613f99565b9150509250929050565b7f4e487b71000000000000000000000000000000000000000000000000000000005f52602260045260245ffd5b5f600282049050600182168061490357607f821691505b602082108103614916576149156148bf565b5b50919050565b7f4552433732313a20617070726f76616c20746f2063757272656e74206f776e655f8201527f7200000000000000000000000000000000000000000000000000000000000000602082015250565b5f614976602183613e2d565b91506149818261491c565b604082019050919050565b5f6020820190508181035f8301526149a38161496a565b9050919050565b7f4552433732313a20617070726f76652063616c6c6572206973206e6f7420746f5f8201527f6b656e206f776e6572206f7220617070726f76656420666f7220616c6c000000602082015250565b5f614a04603d83613e2d565b9150614a0f826149aa565b604082019050919050565b5f6020820190508181035f830152614a31816149f8565b9050919050565b5f81905092915050565b5f614a4c8261477d565b614a568185614a38565b9350614a66818560208601613e3d565b80840191505092915050565b5f614a7d8284614a42565b915081905092915050565b5f60ff82169050919050565b614a9d81614a88565b8114614aa7575f80fd5b50565b5f81519050614ab881614a94565b92915050565b5f60208284031215614ad357614ad2613d68565b5b5f614ae084828501614aaa565b91505092915050565b7f52454a5556453a204e6f742052656769737465726564000000000000000000005f82015250565b5f614b1d601683613e2d565b9150614b2882614ae9565b602082019050919050565b5f6020820190508181035f830152614b4a81614b11565b9050919050565b7f52454a5556453a204e6f7420657175616c206c656e67746800000000000000005f82015250565b5f614b85601883613e2d565b9150614b9082614b51565b602082019050919050565b5f6020820190508181035f830152614bb281614b79565b9050919050565b7f52454a5556453a205369676e65722063616e206e6f74206265207a65726f00005f82015250565b5f614bed601e83613e2d565b9150614bf882614bb9565b602082019050919050565b5f6020820190508181035f830152614c1a81614be1565b9050919050565b7f52454a5556453a20496e76616c6964207369676e6572000000000000000000005f82015250565b5f614c55601683613e2d565b9150614c6082614c21565b602082019050919050565b5f6020820190508181035f830152614c8281614c49565b9050919050565b7f52454a5556453a20496e76616c6964207369676e6174757265206f66207369675f8201527f6e65720000000000000000000000000000000000000000000000000000000000602082015250565b5f614ce3602383613e2d565b9150614cee82614c89565b604082019050919050565b5f6020820190508181035f830152614d1081614cd7565b9050919050565b7f52454a5556453a2044617461204e6f74205065726d69747465640000000000005f82015250565b5f614d4b601a83613e2d565b9150614d5682614d17565b602082019050919050565b5f6020820190508181035f830152614d7881614d3f565b9050919050565b7f52454a5556453a204f6e6c792050726f647563742043726561746f72000000005f82015250565b5f614db3601c83613e2d565b9150614dbe82614d7f565b602082019050919050565b5f6020820190508181035f830152614de081614da7565b9050919050565b5f81519050919050565b5f82825260208201905092915050565b5f819050602082019050919050565b614e1981613ecd565b82525050565b5f614e2a8383614e10565b60208301905092915050565b5f602082019050919050565b5f614e4c82614de7565b614e568185614df1565b9350614e6183614e01565b805f5b83811015614e91578151614e788882614e1f565b9750614e8383614e36565b925050600181019050614e64565b5085935050505092915050565b5f606082019050614eb15f830186614171565b8181036020830152614ec381856147ee565b90508181036040830152614ed78184614e42565b9050949350505050565b7f4552433732313a2063616c6c6572206973206e6f7420746f6b656e206f776e655f8201527f72206f7220617070726f76656400000000000000000000000000000000000000602082015250565b5f614f3b602d83613e2d565b9150614f4682614ee1565b604082019050919050565b5f6020820190508181035f830152614f6881614f2f565b9050919050565b7f416363657373436f6e74726f6c3a2063616e206f6e6c792072656e6f756e63655f8201527f20726f6c657320666f722073656c660000000000000000000000000000000000602082015250565b5f614fc9602f83613e2d565b9150614fd482614f6f565b604082019050919050565b5f6020820190508181035f830152614ff681614fbd565b9050919050565b7f52454a5556453a204d7573742068617665206120726f6c6520746f20756e70615f8201527f7573650000000000000000000000000000000000000000000000000000000000602082015250565b5f615057602383613e2d565b915061506282614ffd565b604082019050919050565b5f6020820190508181035f8301526150848161504b565b9050919050565b5f82825260208201905092915050565b5f6150a58261477d565b6150af818561508b565b93506150bf818560208601613e3d565b6150c881613e65565b840191505092915050565b5f6020820190508181035f8301526150eb818461509b565b905092915050565b5f8151905061510181613ed6565b92915050565b5f6020828403121561511c5761511b613d68565b5b5f615129848285016150f3565b91505092915050565b5f8151905061514081613f83565b92915050565b5f6020828403121561515b5761515a613d68565b5b5f61516884828501615132565b91505092915050565b7f4552433732313a20696e76616c696420746f6b656e20494400000000000000005f82015250565b5f6151a5601883613e2d565b91506151b082615171565b602082019050919050565b5f6020820190508181035f8301526151d281615199565b9050919050565b7f4552433732313a2061646472657373207a65726f206973206e6f7420612076615f8201527f6c6964206f776e65720000000000000000000000000000000000000000000000602082015250565b5f615233602983613e2d565b915061523e826151d9565b604082019050919050565b5f6020820190508181035f83015261526081615227565b9050919050565b7f52454a5556453a204d75737420686176652070617573657220726f6c6520746f5f8201527f2070617573650000000000000000000000000000000000000000000000000000602082015250565b5f6152c1602683613e2d565b91506152cc82615267565b604082019050919050565b5f6020820190508181035f8301526152ee816152b5565b9050919050565b5f81905092915050565b5f61530982613e23565b61531381856152f5565b9350615323818560208601613e3d565b80840191505092915050565b5f61533a82856152ff565b915061534682846152ff565b91508190509392505050565b7f5061757361626c653a20706175736564000000000000000000000000000000005f82015250565b5f615386601083613e2d565b915061539182615352565b602082019050919050565b5f6020820190508181035f8301526153b38161537a565b9050919050565b7f52454a5556453a205369676e6174757265207573656420616c726561647900005f82015250565b5f6153ee601e83613e2d565b91506153f9826153ba565b602082019050919050565b5f6020820190508181035f83015261541b816153e2565b9050919050565b5f819050919050565b61543c61543782613ecd565b615422565b82525050565b5f8160601b9050919050565b5f61545882615442565b9050919050565b5f6154698261544e565b9050919050565b61548161547c82613f4a565b61545f565b82525050565b5f819050919050565b6154a161549c82614536565b615487565b82525050565b5f81905092915050565b6154ba81613ecd565b82525050565b5f6154cb83836154b1565b60208301905092915050565b5f6154e182614de7565b6154eb81856154a7565b93506154f683614e01565b805f5b8381101561552657815161550d88826154c0565b975061551883614e36565b9250506001810190506154f9565b5085935050505092915050565b5f61553e828b61542b565b60208201915061554e828a61542b565b60208201915061555e82896152ff565b915061556a8288615470565b60148201915061557a8287615490565b60208201915061558a82866154d7565b91506155968285615470565b6014820191506155a68284615470565b6014820191508190509998505050505050505050565b7f4e487b71000000000000000000000000000000000000000000000000000000005f52603260045260245ffd5b5f6040820190508181035f830152615601818561509b565b90506156106020830184614171565b9392505050565b5f819050815f5260205f209050919050565b5f6020601f8301049050919050565b5f82821b905092915050565b5f600883026156737fffffffffffffffffffffffffffffffffffffffffffffffffffffffffffffffff82615638565b61567d8683615638565b95508019841693508086168417925050509392505050565b5f819050919050565b5f6156b86156b36156ae84613ecd565b615695565b613ecd565b9050919050565b5f819050919050565b6156d18361569e565b6156e56156dd826156bf565b848454615644565b825550505050565b5f90565b6156f96156ed565b6157048184846156c8565b505050565b5b818110156157275761571c5f826156f1565b60018101905061570a565b5050565b601f82111561576c5761573d81615617565b61574684615629565b81016020851015615755578190505b61576961576185615629565b830182615709565b50505b505050565b5f82821c905092915050565b5f61578c5f1984600802615771565b1980831691505092915050565b5f6157a4838361577d565b9150826002028217905092915050565b6157bd8261477d565b67ffffffffffffffff8111156157d6576157d5613ff3565b5b6157e082546148ec565b6157eb82828561572b565b5f60209050601f83116001811461581c575f841561580a578287015190505b6158148582615799565b86555061587b565b601f19841661582a86615617565b5f5b828110156158515784890151825560018201915060208501945060208101905061582c565b8683101561586e578489015161586a601f89168261577d565b8355505b6001600288020188555050505b505050505050565b7f4e487b71000000000000000000000000000000000000000000000000000000005f52601160045260245ffd5b5f6158ba82613ecd565b91507fffffffffffffffffffffffffffffffffffffffffffffffffffffffffffffffff82036158ec576158eb615883565b5b600182019050919050565b5f60a08201905061590a5f830188614171565b6159176020830187613f5b565b81810360408301526159298186613e75565b9050818103606083015261593d81856147ee565b905081810360808301526159518184614e42565b90509695505050505050565b7f4552433732313a207472616e736665722066726f6d20696e636f7272656374205f8201527f6f776e6572000000000000000000000000000000000000000000000000000000602082015250565b5f6159b7602583613e2d565b91506159c28261595d565b604082019050919050565b5f6020820190508181035f8301526159e4816159ab565b9050919050565b7f4552433732313a207472616e7366657220746f20746865207a65726f206164645f8201527f7265737300000000000000000000000000000000000000000000000000000000602082015250565b5f615a45602483613e2d565b9150615a50826159eb565b604082019050919050565b5f6020820190508181035f830152615a7281615a39565b9050919050565b7f4552433732313a20617070726f766520746f2063616c6c6572000000000000005f82015250565b5f615aad601983613e2d565b9150615ab882615a79565b602082019050919050565b5f6020820190508181035f830152615ada81615aa1565b9050919050565b7f4552433732313a207472616e7366657220746f206e6f6e2045524337323152655f8201527f63656976657220696d706c656d656e7465720000000000000000000000000000602082015250565b5f615b3b603283613e2d565b9150615b4682615ae1565b604082019050919050565b5f6020820190508181035f830152615b6881615b2f565b9050919050565b7f45524337323155524953746f726167653a2055524920736574206f66206e6f6e5f8201527f6578697374656e7420746f6b656e000000000000000000000000000000000000602082015250565b5f615bc9602e83613e2d565b9150615bd482615b6f565b604082019050919050565b5f6020820190508181035f830152615bf681615bbd565b9050919050565b5f819050815f5260205f209050919050565b601f821115615c5057615c2181615bfd565b615c2a84615629565b81016020851015615c39578190505b615c4d615c4585615629565b830182615709565b50505b505050565b615c5e82613e23565b67ffffffffffffffff811115615c7757615c76613ff3565b5b615c8182546148ec565b615c8c828285615c0f565b5f60209050601f831160018114615cbd575f8415615cab578287015190505b615cb58582615799565b865550615d1c565b601f198416615ccb86615bfd565b5f5b82811015615cf257848901518255600182019150602085019450602081019050615ccd565b86831015615d0f5784890151615d0b601f89168261577d565b8355505b6001600288020188555050505b505050505050565b7f416363657373436f6e74726f6c3a206163636f756e74200000000000000000005f82015250565b5f615d586017836152f5565b9150615d6382615d24565b601782019050919050565b7f206973206d697373696e6720726f6c65200000000000000000000000000000005f82015250565b5f615da26011836152f5565b9150615dad82615d6e565b601182019050919050565b5f615dc282615d4c565b9150615dce82856152ff565b9150615dd982615d96565b9150615de582846152ff565b91508190509392505050565b7f5061757361626c653a206e6f74207061757365640000000000000000000000005f82015250565b5f615e25601483613e2d565b9150615e3082615df1565b602082019050919050565b5f6020820190508181035f830152615e5281615e19565b9050919050565b5f608082019050615e6c5f830187613f5b565b615e796020830186613f5b565b615e866040830185614171565b8181036060830152615e98818461509b565b905095945050505050565b5f81519050615eb181613d9b565b92915050565b5f60208284031215615ecc57615ecb613d68565b5b5f615ed984828501615ea3565b91505092915050565b7f4e487b71000000000000000000000000000000000000000000000000000000005f52601260045260245ffd5b7f4e487b71000000000000000000000000000000000000000000000000000000005f52602160045260245ffd5b7f45434453413a20696e76616c6964207369676e617475726500000000000000005f82015250565b5f615f70601883613e2d565b9150615f7b82615f3c565b602082019050919050565b5f6020820190508181035f830152615f9d81615f64565b9050919050565b7f45434453413a20696e76616c6964207369676e6174757265206c656e677468005f82015250565b5f615fd8601f83613e2d565b9150615fe382615fa4565b602082019050919050565b5f6020820190508181035f83015261600581615fcc565b9050919050565b7f45434453413a20696e76616c6964207369676e6174757265202773272076616c5f8201527f7565000000000000000000000000000000000000000000000000000000000000602082015250565b5f616066602283613e2d565b91506160718261600c565b604082019050919050565b5f6020820190508181035f8301526160938161605a565b9050919050565b5f6160a482613ecd565b91506160af83613ecd565b92508282026160bd81613ecd565b915082820484148315176160d4576160d3615883565b5b5092915050565b5f6160e582613ecd565b91506160f083613ecd565b925082820190508082111561610857616107615883565b5b92915050565b5f61611882613ecd565b91505f820361612a57616129615883565b5b600182039050919050565b7f537472696e67733a20686578206c656e67746820696e73756666696369656e745f82015250565b5f616169602083613e2d565b915061617482616135565b602082019050919050565b5f6020820190508181035f8301526161968161615d565b9050919050565b6161a681614a88565b82525050565b5f6080820190506161bf5f830187614594565b6161cc602083018661619d565b6161d96040830185614594565b6161e66060830184614594565b95945050505050565b7f4552433732313a206d696e7420746f20746865207a65726f20616464726573735f82015250565b5f616223602083613e2d565b915061622e826161ef565b602082019050919050565b5f6020820190508181035f83015261625081616217565b9050919050565b7f4552433732313a20746f6b656e20616c7265616479206d696e746564000000005f82015250565b5f61628b601c83613e2d565b915061629682616257565b602082019050919050565b5f6020820190508181035f8301526162b88161627f565b905091905056fea264697066735822122046786468b3990dab39e990430b4aed7f130c93c55e72fa40341723bd755f70fe64736f6c63430008150033",
  "linkReferences": {},
  "deployedLinkReferences": {}
}