{
  "_format": "hh-sol-artifact-1",
  "contractName": "IdentityToken",
  "sourceName": "contracts/IdentityToken.sol",
  "abi": [
    {
      "inputs": [
        {
          "internalType": "string",
          "name": "name",
          "type": "string"
        },
        {
          "internalType": "string",
          "name": "symbol",
          "type": "string"
        }
      ],
      "stateMutability": "nonpayable",
      "type": "constructor"
    },
    {
      "anonymous": false,
      "inputs": [
        {
          "indexed": true,
          "internalType": "address",
          "name": "owner",
          "type": "address"
        },
        {
          "indexed": true,
          "internalType": "address",
          "name": "approved",
          "type": "address"
        },
        {
          "indexed": true,
          "internalType": "uint256",
          "name": "tokenId",
          "type": "uint256"
        }
      ],
      "name": "Approval",
      "type": "event"
    },
    {
      "anonymous": false,
      "inputs": [
        {
          "indexed": true,
          "internalType": "address",
          "name": "owner",
          "type": "address"
        },
        {
          "indexed": true,
          "internalType": "address",
          "name": "operator",
          "type": "address"
        },
        {
          "indexed": false,
          "internalType": "bool",
          "name": "approved",
          "type": "bool"
        }
      ],
      "name": "ApprovalForAll",
      "type": "event"
    },
    {
      "anonymous": false,
      "inputs": [
        {
          "indexed": false,
          "internalType": "uint256",
          "name": "_fromTokenId",
          "type": "uint256"
        },
        {
          "indexed": false,
          "internalType": "uint256",
          "name": "_toTokenId",
          "type": "uint256"
        }
      ],
      "name": "BatchMetadataUpdate",
      "type": "event"
    },
    {
      "anonymous": false,
      "inputs": [
        {
          "indexed": false,
          "internalType": "address",
          "name": "caller",
          "type": "address"
        },
        {
          "indexed": false,
          "internalType": "uint256",
          "name": "tokenId",
          "type": "uint256"
        },
        {
          "indexed": false,
          "internalType": "string",
          "name": "tokenURI",
          "type": "string"
        }
      ],
      "name": "IdentityCreated",
      "type": "event"
    },
    {
      "anonymous": false,
      "inputs": [
        {
          "indexed": false,
          "internalType": "address",
          "name": "owner",
          "type": "address"
        },
        {
          "indexed": false,
          "internalType": "uint256",
          "name": "ownerId",
          "type": "uint256"
        }
      ],
      "name": "IdentityDestroyed",
      "type": "event"
    },
    {
      "anonymous": false,
      "inputs": [
        {
          "indexed": false,
          "internalType": "uint256",
          "name": "_tokenId",
          "type": "uint256"
        }
      ],
      "name": "MetadataUpdate",
      "type": "event"
    },
    {
      "anonymous": false,
      "inputs": [
        {
          "indexed": true,
          "internalType": "address",
          "name": "previousOwner",
          "type": "address"
        },
        {
          "indexed": true,
          "internalType": "address",
          "name": "newOwner",
          "type": "address"
        }
      ],
      "name": "OwnershipTransferred",
      "type": "event"
    },
    {
      "anonymous": false,
      "inputs": [
        {
          "indexed": false,
          "internalType": "address",
          "name": "account",
          "type": "address"
        }
      ],
      "name": "Paused",
      "type": "event"
    },
    {
      "anonymous": false,
      "inputs": [
        {
          "indexed": true,
          "internalType": "address",
          "name": "from",
          "type": "address"
        },
        {
          "indexed": true,
          "internalType": "address",
          "name": "to",
          "type": "address"
        },
        {
          "indexed": true,
          "internalType": "uint256",
          "name": "tokenId",
          "type": "uint256"
        }
      ],
      "name": "Transfer",
      "type": "event"
    },
    {
      "anonymous": false,
      "inputs": [
        {
          "indexed": false,
          "internalType": "address",
          "name": "account",
          "type": "address"
        }
      ],
      "name": "Unpaused",
      "type": "event"
    },
    {
      "inputs": [
        {
          "internalType": "address",
          "name": "to",
          "type": "address"
        },
        {
          "internalType": "uint256",
          "name": "tokenId",
          "type": "uint256"
        }
      ],
      "name": "approve",
      "outputs": [],
      "stateMutability": "nonpayable",
      "type": "function"
    },
    {
      "inputs": [
        {
          "internalType": "address",
          "name": "owner",
          "type": "address"
        }
      ],
      "name": "balanceOf",
      "outputs": [
        {
          "internalType": "uint256",
          "name": "",
          "type": "uint256"
        }
      ],
      "stateMutability": "view",
      "type": "function"
    },
    {
      "inputs": [
        {
          "internalType": "uint256",
          "name": "tokenId",
          "type": "uint256"
        }
      ],
      "name": "burnIdentity",
      "outputs": [],
      "stateMutability": "nonpayable",
      "type": "function"
    },
    {
      "inputs": [
        {
          "internalType": "bytes",
          "name": "signature",
          "type": "bytes"
        },
        {
          "internalType": "bytes32",
          "name": "kyc",
          "type": "bytes32"
        },
        {
          "internalType": "address",
          "name": "signer",
          "type": "address"
        },
        {
          "internalType": "string",
          "name": "tokenURI",
          "type": "string"
        },
        {
          "internalType": "uint256",
          "name": "nonce",
          "type": "uint256"
        }
      ],
      "name": "createIdentity",
      "outputs": [],
      "stateMutability": "nonpayable",
      "type": "function"
    },
    {
      "inputs": [
        {
          "internalType": "uint256",
          "name": "tokenId",
          "type": "uint256"
        }
      ],
      "name": "getApproved",
      "outputs": [
        {
          "internalType": "address",
          "name": "",
          "type": "address"
        }
      ],
      "stateMutability": "view",
      "type": "function"
    },
    {
      "inputs": [
        {
          "internalType": "address",
          "name": "owner",
          "type": "address"
        }
      ],
      "name": "getOwnerIdentity",
      "outputs": [
        {
          "internalType": "uint256",
          "name": "",
          "type": "uint256"
        }
      ],
      "stateMutability": "view",
      "type": "function"
    },
    {
      "inputs": [
        {
          "internalType": "address",
          "name": "userAccount",
          "type": "address"
        }
      ],
      "name": "ifRegistered",
      "outputs": [
        {
          "internalType": "uint8",
          "name": "",
          "type": "uint8"
        }
      ],
      "stateMutability": "view",
      "type": "function"
    },
    {
      "inputs": [
        {
          "internalType": "address",
          "name": "owner",
          "type": "address"
        },
        {
          "internalType": "address",
          "name": "operator",
          "type": "address"
        }
      ],
      "name": "isApprovedForAll",
      "outputs": [
        {
          "internalType": "bool",
          "name": "",
          "type": "bool"
        }
      ],
      "stateMutability": "view",
      "type": "function"
    },
    {
      "inputs": [],
      "name": "name",
      "outputs": [
        {
          "internalType": "string",
          "name": "",
          "type": "string"
        }
      ],
      "stateMutability": "view",
      "type": "function"
    },
    {
      "inputs": [],
      "name": "owner",
      "outputs": [
        {
          "internalType": "address",
          "name": "",
          "type": "address"
        }
      ],
      "stateMutability": "view",
      "type": "function"
    },
    {
      "inputs": [
        {
          "internalType": "uint256",
          "name": "tokenId",
          "type": "uint256"
        }
      ],
      "name": "ownerOf",
      "outputs": [
        {
          "internalType": "address",
          "name": "",
          "type": "address"
        }
      ],
      "stateMutability": "view",
      "type": "function"
    },
    {
      "inputs": [],
      "name": "pause",
      "outputs": [],
      "stateMutability": "nonpayable",
      "type": "function"
    },
    {
      "inputs": [],
      "name": "paused",
      "outputs": [
        {
          "internalType": "bool",
          "name": "",
          "type": "bool"
        }
      ],
      "stateMutability": "view",
      "type": "function"
    },
    {
      "inputs": [],
      "name": "renounceOwnership",
      "outputs": [],
      "stateMutability": "nonpayable",
      "type": "function"
    },
    {
      "inputs": [
        {
          "internalType": "address",
          "name": "from",
          "type": "address"
        },
        {
          "internalType": "address",
          "name": "to",
          "type": "address"
        },
        {
          "internalType": "uint256",
          "name": "tokenId",
          "type": "uint256"
        }
      ],
      "name": "safeTransferFrom",
      "outputs": [],
      "stateMutability": "nonpayable",
      "type": "function"
    },
    {
      "inputs": [
        {
          "internalType": "address",
          "name": "from",
          "type": "address"
        },
        {
          "internalType": "address",
          "name": "to",
          "type": "address"
        },
        {
          "internalType": "uint256",
          "name": "tokenId",
          "type": "uint256"
        },
        {
          "internalType": "bytes",
          "name": "data",
          "type": "bytes"
        }
      ],
      "name": "safeTransferFrom",
      "outputs": [],
      "stateMutability": "nonpayable",
      "type": "function"
    },
    {
      "inputs": [
        {
          "internalType": "address",
          "name": "operator",
          "type": "address"
        },
        {
          "internalType": "bool",
          "name": "approved",
          "type": "bool"
        }
      ],
      "name": "setApprovalForAll",
      "outputs": [],
      "stateMutability": "nonpayable",
      "type": "function"
    },
    {
      "inputs": [
        {
          "internalType": "bytes4",
          "name": "interfaceId",
          "type": "bytes4"
        }
      ],
      "name": "supportsInterface",
      "outputs": [
        {
          "internalType": "bool",
          "name": "",
          "type": "bool"
        }
      ],
      "stateMutability": "view",
      "type": "function"
    },
    {
      "inputs": [],
      "name": "symbol",
      "outputs": [
        {
          "internalType": "string",
          "name": "",
          "type": "string"
        }
      ],
      "stateMutability": "view",
      "type": "function"
    },
    {
      "inputs": [
        {
          "internalType": "uint256",
          "name": "tokenId",
          "type": "uint256"
        }
      ],
      "name": "tokenURI",
      "outputs": [
        {
          "internalType": "string",
          "name": "",
          "type": "string"
        }
      ],
      "stateMutability": "view",
      "type": "function"
    },
    {
      "inputs": [
        {
          "internalType": "address",
          "name": "from",
          "type": "address"
        },
        {
          "internalType": "address",
          "name": "to",
          "type": "address"
        },
        {
          "internalType": "uint256",
          "name": "tokenId",
          "type": "uint256"
        }
      ],
      "name": "transferFrom",
      "outputs": [],
      "stateMutability": "nonpayable",
      "type": "function"
    },
    {
      "inputs": [
        {
          "internalType": "address",
          "name": "newOwner",
          "type": "address"
        }
      ],
      "name": "transferOwnership",
      "outputs": [],
      "stateMutability": "nonpayable",
      "type": "function"
    },
    {
      "inputs": [],
      "name": "unpause",
      "outputs": [],
      "stateMutability": "nonpayable",
      "type": "function"
    }
  ],
  "bytecode": "0x608060405234801562000010575f80fd5b5060405162004d5d38038062004d5d83398181016040528101906200003691906200036b565b8181815f908162000048919062000625565b5080600190816200005a919062000625565b5050506200007d620000716200010560201b60201c565b6200010c60201b60201c565b5f600760146101000a81548160ff021916908315150217905550620000b367336625acdd0f83b860c01b620001cf60201b60201c565b620000cf6789e5c1e4d0c4c41060c01b620001cf60201b60201c565b620000eb67e5abb93ce6741e6660c01b620001cf60201b60201c565b620000fd6008620001d260201b60201c565b505062000709565b5f33905090565b5f60075f9054906101000a900473ffffffffffffffffffffffffffffffffffffffff1690508160075f6101000a81548173ffffffffffffffffffffffffffffffffffffffff021916908373ffffffffffffffffffffffffffffffffffffffff1602179055508173ffffffffffffffffffffffffffffffffffffffff168173ffffffffffffffffffffffffffffffffffffffff167f8be0079c531659141344cd1fd0a4f28419497f9722a3daafe3b4186f6b6457e060405160405180910390a35050565b50565b6001815f015f828254019250508190555050565b5f604051905090565b5f80fd5b5f80fd5b5f80fd5b5f80fd5b5f601f19601f8301169050919050565b7f4e487b71000000000000000000000000000000000000000000000000000000005f52604160045260245ffd5b6200024782620001ff565b810181811067ffffffffffffffff821117156200026957620002686200020f565b5b80604052505050565b5f6200027d620001e6565b90506200028b82826200023c565b919050565b5f67ffffffffffffffff821115620002ad57620002ac6200020f565b5b620002b882620001ff565b9050602081019050919050565b5f5b83811015620002e4578082015181840152602081019050620002c7565b5f8484015250505050565b5f62000305620002ff8462000290565b62000272565b905082815260208101848484011115620003245762000323620001fb565b5b62000331848285620002c5565b509392505050565b5f82601f83011262000350576200034f620001f7565b5b815162000362848260208601620002ef565b91505092915050565b5f8060408385031215620003845762000383620001ef565b5b5f83015167ffffffffffffffff811115620003a457620003a3620001f3565b5b620003b28582860162000339565b925050602083015167ffffffffffffffff811115620003d657620003d5620001f3565b5b620003e48582860162000339565b9150509250929050565b5f81519050919050565b7f4e487b71000000000000000000000000000000000000000000000000000000005f52602260045260245ffd5b5f60028204905060018216806200043d57607f821691505b602082108103620004535762000452620003f8565b5b50919050565b5f819050815f5260205f209050919050565b5f6020601f8301049050919050565b5f82821b905092915050565b5f60088302620004b77fffffffffffffffffffffffffffffffffffffffffffffffffffffffffffffffff826200047a565b620004c386836200047a565b95508019841693508086168417925050509392505050565b5f819050919050565b5f819050919050565b5f6200050d620005076200050184620004db565b620004e4565b620004db565b9050919050565b5f819050919050565b6200052883620004ed565b62000540620005378262000514565b84845462000486565b825550505050565b5f90565b6200055662000548565b620005638184846200051d565b505050565b5b818110156200058a576200057e5f826200054c565b60018101905062000569565b5050565b601f821115620005d957620005a38162000459565b620005ae846200046b565b81016020851015620005be578190505b620005d6620005cd856200046b565b83018262000568565b50505b505050565b5f82821c905092915050565b5f620005fb5f1984600802620005de565b1980831691505092915050565b5f620006158383620005ea565b9150826002028217905092915050565b6200063082620003ee565b67ffffffffffffffff8111156200064c576200064b6200020f565b5b62000658825462000425565b620006658282856200058e565b5f60209050601f8311600181146200069b575f841562000686578287015190505b62000692858262000608565b86555062000701565b601f198416620006ab8662000459565b5f5b82811015620006d457848901518255600182019150602085019450602081019050620006ad565b86831015620006f45784890151620006f0601f891682620005ea565b8355505b6001600288020188555050505b505050505050565b61464680620007175f395ff3fe608060405234801561000f575f80fd5b506004361061014b575f3560e01c8063715018a6116100c1578063b88d4fde1161007a578063b88d4fde14610361578063c5d56ec71461037d578063c87b56dd14610399578063e985e9c5146103c9578063ea32fff7146103f9578063f2fde38b146104295761014b565b8063715018a6146102d95780637c374491146102e35780638456cb59146102ff5780638da5cb5b1461030957806395d89b4114610327578063a22cb465146103455761014b565b80633f4ba83a116101135780633f4ba83a1461020557806342842e0e1461020f5780634b557d8a1461022b5780635c975abb1461025b5780636352211e1461027957806370a08231146102a95761014b565b806301ffc9a71461014f57806306fdde031461017f578063081812fc1461019d578063095ea7b3146101cd57806323b872dd146101e9575b5f80fd5b61016960048036038101906101649190612e7e565b610445565b6040516101769190612ec3565b60405180910390f35b6101876104a5565b6040516101949190612f66565b60405180910390f35b6101b760048036038101906101b29190612fb9565b610534565b6040516101c49190613023565b60405180910390f35b6101e760048036038101906101e29190613066565b610576565b005b61020360048036038101906101fe91906130a4565b61068c565b005b61020d6106ec565b005b610229600480360381019061022491906130a4565b610761565b005b610245600480360381019061024091906130f4565b610780565b604051610252919061313a565b60405180910390f35b610263610820565b6040516102709190612ec3565b60405180910390f35b610293600480360381019061028e9190612fb9565b610836565b6040516102a09190613023565b60405180910390f35b6102c360048036038101906102be91906130f4565b6108ba565b6040516102d09190613162565b60405180910390f35b6102e161096e565b005b6102fd60048036038101906102f89190613378565b610981565b005b610307610b9a565b005b610311610c10565b60405161031e9190613023565b60405180910390f35b61032f610c38565b60405161033c9190612f66565b60405180910390f35b61035f600480360381019061035a9190613451565b610cc8565b005b61037b6004803603810190610376919061348f565b610cde565b005b61039760048036038101906103929190612fb9565b610d40565b005b6103b360048036038101906103ae9190612fb9565b610e5e565b6040516103c09190612f66565b60405180910390f35b6103e360048036038101906103de919061350f565b610f68565b6040516103f09190612ec3565b60405180910390f35b610413600480360381019061040e91906130f4565b610ff6565b6040516104209190613162565b60405180910390f35b610443600480360381019061043e91906130f4565b611078565b005b5f634906490660e01b7bffffffffffffffffffffffffffffffffffffffffffffffffffffffff1916827bffffffffffffffffffffffffffffffffffffffffffffffffffffffff1916148061049e575061049d826110fa565b5b9050919050565b60605f80546104b39061357a565b80601f01602080910402602001604051908101604052809291908181526020018280546104df9061357a565b801561052a5780601f106105015761010080835404028352916020019161052a565b820191905f5260205f20905b81548152906001019060200180831161050d57829003601f168201915b5050505050905090565b5f61053e826111db565b60045f8381526020019081526020015f205f9054906101000a900473ffffffffffffffffffffffffffffffffffffffff169050919050565b5f61058082610836565b90508073ffffffffffffffffffffffffffffffffffffffff168373ffffffffffffffffffffffffffffffffffffffff16036105f0576040517f08c379a00000000000000000000000000000000000000000000000000000000081526004016105e79061361a565b60405180910390fd5b8073ffffffffffffffffffffffffffffffffffffffff1661060f611226565b73ffffffffffffffffffffffffffffffffffffffff16148061063e575061063d81610638611226565b610f68565b5b61067d576040517f08c379a0000000000000000000000000000000000000000000000000000000008152600401610674906136a8565b60405180910390fd5b610687838361122d565b505050565b61069d610697611226565b826112e3565b6106dc576040517f08c379a00000000000000000000000000000000000000000000000000000000081526004016106d390613736565b60405180910390fd5b6106e7838383611377565b505050565b61070067ee9d58ea8afbb86560c01b611663565b610708611666565b61071b6685ef6877b4c15260c01b611663565b61072f676855997139e1793f60c01b611663565b610743672ed71bb724cf2bac60c01b611663565b6107576771aa354474e030f460c01b611663565b61075f6116e4565b565b61077b83838360405180602001604052805f815250610cde565b505050565b5f610795677cb66e9a99346f0560c01b611663565b6107a9673c4a26981985760f60c01b611663565b6107bd67998cf4408dd6d9bc60c01b611663565b600a5f8373ffffffffffffffffffffffffffffffffffffffff1673ffffffffffffffffffffffffffffffffffffffff1681526020019081526020015f205f9054906101000a900460ff16600181111561081957610818613754565b5b9050919050565b5f600760149054906101000a900460ff16905090565b5f8061084183611746565b90505f73ffffffffffffffffffffffffffffffffffffffff168173ffffffffffffffffffffffffffffffffffffffff16036108b1576040517f08c379a00000000000000000000000000000000000000000000000000000000081526004016108a8906137cb565b60405180910390fd5b80915050919050565b5f8073ffffffffffffffffffffffffffffffffffffffff168273ffffffffffffffffffffffffffffffffffffffff1603610929576040517f08c379a000000000000000000000000000000000000000000000000000000000815260040161092090613859565b60405180910390fd5b60035f8373ffffffffffffffffffffffffffffffffffffffff1673ffffffffffffffffffffffffffffffffffffffff1681526020019081526020015f20549050919050565b610976611666565b61097f5f61177f565b565b61099567a989514c68eebee660c01b611663565b61099d611842565b6109b167b6760e48b3a387f260c01b611663565b6109c5677e3c124defa9953e60c01b611663565b6109d9674396fd41863ddf4b60c01b611663565b6109ed676838332fd60e95e360c01b611663565b610a0167d43cae4abe8fb21760c01b611663565b610a0e858585858561188c565b610a4d576040517f08c379a0000000000000000000000000000000000000000000000000000000008152600401610a44906138c1565b60405180910390fd5b610a616755e66f434872710f60c01b611663565b610a7567fef37f25654b6eff60c01b611663565b610a896784494f4cdf8b24a560c01b611663565b610a9d67921a31647c84a6b260c01b611663565b5f6001811115610ab057610aaf613754565b5b600a5f8573ffffffffffffffffffffffffffffffffffffffff1673ffffffffffffffffffffffffffffffffffffffff1681526020019081526020015f205f9054906101000a900460ff166001811115610b0c57610b0b613754565b5b14610b4c576040517f08c379a0000000000000000000000000000000000000000000000000000000008152600401610b4390613929565b60405180910390fd5b610b606701c6944f2a6956e460c01b611663565b610b7467a9a87e4b5255104860c01b611663565b610b8867b90ecd2cad10890660c01b611663565b610b928383611ad7565b505050505050565b610bae679dbbb3bd75870faa60c01b611663565b610bb6611666565b610bca675085f0d171ebccea60c01b611663565b610bde674d5e3c5f248ba9e360c01b611663565b610bf26771b5c6d5ee79ceb760c01b611663565b610c0667e4e91dc3b3a1f15c60c01b611663565b610c0e611d1b565b565b5f60075f9054906101000a900473ffffffffffffffffffffffffffffffffffffffff16905090565b606060018054610c479061357a565b80601f0160208091040260200160405190810160405280929190818152602001828054610c739061357a565b8015610cbe5780601f10610c9557610100808354040283529160200191610cbe565b820191905f5260205f20905b815481529060010190602001808311610ca157829003601f168201915b5050505050905090565b610cda610cd3611226565b8383611d7e565b5050565b610cef610ce9611226565b836112e3565b610d2e576040517f08c379a0000000000000000000000000000000000000000000000000000000008152600401610d2590613736565b60405180910390fd5b610d3a84848484611ee5565b50505050565b610d54677bfa8903f55aa08d60c01b611663565b610d686794ebd8433622a93860c01b611663565b610d7c674d2ae405a6999bd560c01b611663565b610d906731667160a43cd0e460c01b611663565b60095f610d9b611226565b73ffffffffffffffffffffffffffffffffffffffff1673ffffffffffffffffffffffffffffffffffffffff1681526020019081526020015f20548114610e16576040517f08c379a0000000000000000000000000000000000000000000000000000000008152600401610e0d90613991565b60405180910390fd5b610e2a67f7726cbfc2f5c63d60c01b611663565b610e3e67383f44cc134a351960c01b611663565b610e5267cd5fe663ddead62660c01b611663565b610e5b81611f41565b50565b6060610e69826111db565b5f60065f8481526020019081526020015f208054610e869061357a565b80601f0160208091040260200160405190810160405280929190818152602001828054610eb29061357a565b8015610efd5780601f10610ed457610100808354040283529160200191610efd565b820191905f5260205f20905b815481529060010190602001808311610ee057829003601f168201915b505050505090505f610f0d6120cd565b90505f815103610f21578192505050610f63565b5f82511115610f55578082604051602001610f3d9291906139e9565b60405160208183030381529060405292505050610f63565b610f5e846120e3565b925050505b919050565b5f60055f8473ffffffffffffffffffffffffffffffffffffffff1673ffffffffffffffffffffffffffffffffffffffff1681526020019081526020015f205f8373ffffffffffffffffffffffffffffffffffffffff1673ffffffffffffffffffffffffffffffffffffffff1681526020019081526020015f205f9054906101000a900460ff16905092915050565b5f61100b6779c548893f180e0460c01b611663565b61101f67d3c3e16de8a044af60c01b611663565b61103367ffb109f3643069bb60c01b611663565b60095f8373ffffffffffffffffffffffffffffffffffffffff1673ffffffffffffffffffffffffffffffffffffffff1681526020019081526020015f20549050919050565b611080611666565b5f73ffffffffffffffffffffffffffffffffffffffff168173ffffffffffffffffffffffffffffffffffffffff16036110ee576040517f08c379a00000000000000000000000000000000000000000000000000000000081526004016110e590613a7c565b60405180910390fd5b6110f78161177f565b50565b5f7f80ac58cd000000000000000000000000000000000000000000000000000000007bffffffffffffffffffffffffffffffffffffffffffffffffffffffff1916827bffffffffffffffffffffffffffffffffffffffffffffffffffffffff191614806111c457507f5b5e139f000000000000000000000000000000000000000000000000000000007bffffffffffffffffffffffffffffffffffffffffffffffffffffffff1916827bffffffffffffffffffffffffffffffffffffffffffffffffffffffff1916145b806111d457506111d382612148565b5b9050919050565b6111e4816121b1565b611223576040517f08c379a000000000000000000000000000000000000000000000000000000000815260040161121a906137cb565b60405180910390fd5b50565b5f33905090565b8160045f8381526020019081526020015f205f6101000a81548173ffffffffffffffffffffffffffffffffffffffff021916908373ffffffffffffffffffffffffffffffffffffffff160217905550808273ffffffffffffffffffffffffffffffffffffffff1661129d83610836565b73ffffffffffffffffffffffffffffffffffffffff167f8c5be1e5ebec7d5bd14f71427d1e84f3dd0314c0f7b2291e5b200ac8c7c3b92560405160405180910390a45050565b5f806112ee83610836565b90508073ffffffffffffffffffffffffffffffffffffffff168473ffffffffffffffffffffffffffffffffffffffff161480611330575061132f8185610f68565b5b8061136e57508373ffffffffffffffffffffffffffffffffffffffff1661135684610534565b73ffffffffffffffffffffffffffffffffffffffff16145b91505092915050565b8273ffffffffffffffffffffffffffffffffffffffff1661139782610836565b73ffffffffffffffffffffffffffffffffffffffff16146113ed576040517f08c379a00000000000000000000000000000000000000000000000000000000081526004016113e490613b0a565b60405180910390fd5b5f73ffffffffffffffffffffffffffffffffffffffff168273ffffffffffffffffffffffffffffffffffffffff160361145b576040517f08c379a000000000000000000000000000000000000000000000000000000000815260040161145290613b98565b60405180910390fd5b61146883838360016121f1565b8273ffffffffffffffffffffffffffffffffffffffff1661148882610836565b73ffffffffffffffffffffffffffffffffffffffff16146114de576040517f08c379a00000000000000000000000000000000000000000000000000000000081526004016114d590613b0a565b60405180910390fd5b60045f8281526020019081526020015f205f6101000a81549073ffffffffffffffffffffffffffffffffffffffff0219169055600160035f8573ffffffffffffffffffffffffffffffffffffffff1673ffffffffffffffffffffffffffffffffffffffff1681526020019081526020015f205f8282540392505081905550600160035f8473ffffffffffffffffffffffffffffffffffffffff1673ffffffffffffffffffffffffffffffffffffffff1681526020019081526020015f205f82825401925050819055508160025f8381526020019081526020015f205f6101000a81548173ffffffffffffffffffffffffffffffffffffffff021916908373ffffffffffffffffffffffffffffffffffffffff160217905550808273ffffffffffffffffffffffffffffffffffffffff168473ffffffffffffffffffffffffffffffffffffffff167fddf252ad1be2c89b69c2b068fc378daa952ba7f163c4a11628f55a4df523b3ef60405160405180910390a461165e83838360016121f7565b505050565b50565b61166e611226565b73ffffffffffffffffffffffffffffffffffffffff1661168c610c10565b73ffffffffffffffffffffffffffffffffffffffff16146116e2576040517f08c379a00000000000000000000000000000000000000000000000000000000081526004016116d990613c00565b60405180910390fd5b565b6116ec6121fd565b5f600760146101000a81548160ff0219169083151502179055507f5db9ee0a495bf2e6ff9c91a7834c1ba4fdd244a5e8aa4e537bd38aeae4b073aa61172f611226565b60405161173c9190613023565b60405180910390a1565b5f60025f8381526020019081526020015f205f9054906101000a900473ffffffffffffffffffffffffffffffffffffffff169050919050565b5f60075f9054906101000a900473ffffffffffffffffffffffffffffffffffffffff1690508160075f6101000a81548173ffffffffffffffffffffffffffffffffffffffff021916908373ffffffffffffffffffffffffffffffffffffffff1602179055508173ffffffffffffffffffffffffffffffffffffffff168173ffffffffffffffffffffffffffffffffffffffff167f8be0079c531659141344cd1fd0a4f28419497f9722a3daafe3b4186f6b6457e060405160405180910390a35050565b61184a610820565b1561188a576040517f08c379a000000000000000000000000000000000000000000000000000000000815260040161188190613c68565b60405180910390fd5b565b5f6118a1675067b7d5d5128cde60c01b611663565b6118b466154d1b13dce7ce60c01b611663565b6118c86713edb21e3d68f09560c01b611663565b6118dc67a4a6160edaac07ea60c01b611663565b600b5f8381526020019081526020015f205f9054906101000a900460ff161561193a576040517f08c379a000000000000000000000000000000000000000000000000000000000815260040161193190613cd0565b60405180910390fd5b61194e67ade51ff613a345b960c01b611663565b6119626777ac6daae946845a60c01b611663565b6001600b5f8481526020019081526020015f205f6101000a81548160ff02191690831515021790555061199f67a23684d9d3f767fe60c01b611663565b6119b36737f0444070c50b9960c01b611663565b5f85858585306040516020016119cd959493929190613d73565b6040516020818303038152906040528051906020012090506119f967957f2955365d481260c01b611663565b611a0d6701aab5db745f451e60c01b611663565b5f611a2988611a1b84612246565b61227990919063ffffffff16565b9050611a3f67fe5aabec8947047560c01b611663565b611a53672a596c4d3d80a91a60c01b611663565b8073ffffffffffffffffffffffffffffffffffffffff168673ffffffffffffffffffffffffffffffffffffffff1603611ab757611a9a6747c7f3b80409533b60c01b611663565b611aae673f15d48c684d744260c01b611663565b60019250611acc565b611acb67f59d0df50c205cf360c01b611663565b5b505095945050505050565b5f611aec678e981603aff309c060c01b611663565b611b00678e0ad9d5b4d8871260c01b611663565b611b1467ca6aa523aeb8c98e60c01b611663565b5f611b1f600861229e565b9050611b3567e6e2632671fac1ae60c01b611663565b611b4967d7300fe013eeb97360c01b611663565b611b5360086122aa565b611b6767e55029367077289160c01b611663565b8060095f8673ffffffffffffffffffffffffffffffffffffffff1673ffffffffffffffffffffffffffffffffffffffff1681526020019081526020015f2081905550611bbd673239dd39d847a69560c01b611663565b6001600a5f8673ffffffffffffffffffffffffffffffffffffffff1673ffffffffffffffffffffffffffffffffffffffff1681526020019081526020015f205f6101000a81548160ff02191690836001811115611c1d57611c1c613754565b5b0217905550611c3667d8d4f1a72d1d2d7360c01b611663565b611c4a679af466b5ebfe152560c01b611663565b7f296bc27d402fcafd917ad0c965398f24239b22940ed5da6f784f4bd4751a228a848285604051611c7d93929190613dcd565b60405180910390a1611c996788a40ca9a78a2c8d60c01b611663565b611cad6756ac78946d7ed07560c01b611663565b611cb784826122be565b611ccb67a1de7c2f47d99d0460c01b611663565b611cdf677f0e388844ea74b660c01b611663565b611ce981846122db565b611cfd673aad818d657f32a960c01b611663565b611d1167ea36da900d43902660c01b611663565b8091505092915050565b611d23611842565b6001600760146101000a81548160ff0219169083151502179055507f62e78cea01bee320cd4e420270b5ea74000d11b0c9f74754ebdbfc544b05a258611d67611226565b604051611d749190613023565b60405180910390a1565b8173ffffffffffffffffffffffffffffffffffffffff168373ffffffffffffffffffffffffffffffffffffffff1603611dec576040517f08c379a0000000000000000000000000000000000000000000000000000000008152600401611de390613e53565b60405180910390fd5b8060055f8573ffffffffffffffffffffffffffffffffffffffff1673ffffffffffffffffffffffffffffffffffffffff1681526020019081526020015f205f8473ffffffffffffffffffffffffffffffffffffffff1673ffffffffffffffffffffffffffffffffffffffff1681526020019081526020015f205f6101000a81548160ff0219169083151502179055508173ffffffffffffffffffffffffffffffffffffffff168373ffffffffffffffffffffffffffffffffffffffff167f17307eab39ab6107e8899845ad3d59bd9653f200f220920489ca2b5937696c3183604051611ed89190612ec3565b60405180910390a3505050565b611ef0848484611377565b611efc8484848461237d565b611f3b576040517f08c379a0000000000000000000000000000000000000000000000000000000008152600401611f3290613ee1565b60405180910390fd5b50505050565b611f5567e4cdca315fa3b2b960c01b611663565b611f69675cb4fd2e1b38df1f60c01b611663565b5f600a5f611f75611226565b73ffffffffffffffffffffffffffffffffffffffff1673ffffffffffffffffffffffffffffffffffffffff1681526020019081526020015f205f6101000a81548160ff02191690836001811115611fcf57611fce613754565b5b0217905550611fe867c9b794faed393fc960c01b611663565b5f60095f611ff4611226565b73ffffffffffffffffffffffffffffffffffffffff1673ffffffffffffffffffffffffffffffffffffffff1681526020019081526020015f208190555061204567c77cc8cdd860218a60c01b611663565b61205967b1d75469572b32b460c01b611663565b7fd70812186a78a59a55ff369a493553d06d83a81ce549d9927f25e7f285ffa421612082611226565b82604051612091929190613eff565b60405180910390a16120ad67e1b74b926e0d13bb60c01b611663565b6120c1676d4096c6b83c665c60c01b611663565b6120ca816124ff565b50565b606060405180602001604052805f815250905090565b60606120ee826111db565b5f6120f76120cd565b90505f8151116121155760405180602001604052805f815250612140565b8061211f8461254c565b6040516020016121309291906139e9565b6040516020818303038152906040525b915050919050565b5f7f01ffc9a7000000000000000000000000000000000000000000000000000000007bffffffffffffffffffffffffffffffffffffffffffffffffffffffff1916827bffffffffffffffffffffffffffffffffffffffffffffffffffffffff1916149050919050565b5f8073ffffffffffffffffffffffffffffffffffffffff166121d283611746565b73ffffffffffffffffffffffffffffffffffffffff1614159050919050565b50505050565b50505050565b612205610820565b612244576040517f08c379a000000000000000000000000000000000000000000000000000000000815260040161223b90613f70565b60405180910390fd5b565b5f7f19457468657265756d205369676e6564204d6573736167653a0a3332000000005f5281601c52603c5f209050919050565b5f805f6122868585612616565b9150915061229381612662565b819250505092915050565b5f815f01549050919050565b6001815f015f828254019250508190555050565b6122d7828260405180602001604052805f8152506127c7565b5050565b6122e4826121b1565b612323576040517f08c379a000000000000000000000000000000000000000000000000000000000815260040161231a90613ffe565b60405180910390fd5b8060065f8481526020019081526020015f20908161234191906141b9565b507ff8e1a15aba9398e019f0b49df1a4fde98ee17ae345cb5f6b5e2c27f5033e8ce7826040516123719190613162565b60405180910390a15050565b5f61239d8473ffffffffffffffffffffffffffffffffffffffff16612821565b156124f2578373ffffffffffffffffffffffffffffffffffffffff1663150b7a026123c6611226565b8786866040518563ffffffff1660e01b81526004016123e894939291906142da565b6020604051808303815f875af192505050801561242357506040513d601f19601f820116820180604052508101906124209190614338565b60015b6124a2573d805f8114612451576040519150601f19603f3d011682016040523d82523d5f602084013e612456565b606091505b505f81510361249a576040517f08c379a000000000000000000000000000000000000000000000000000000000815260040161249190613ee1565b60405180910390fd5b805181602001fd5b63150b7a0260e01b7bffffffffffffffffffffffffffffffffffffffffffffffffffffffff1916817bffffffffffffffffffffffffffffffffffffffffffffffffffffffff1916149150506124f7565b600190505b949350505050565b61250881612843565b5f60065f8381526020019081526020015f2080546125259061357a565b9050146125495760065f8281526020019081526020015f205f6125489190612dc0565b5b50565b60605f600161255a84612984565b0190505f8167ffffffffffffffff81111561257857612577613183565b5b6040519080825280601f01601f1916602001820160405280156125aa5781602001600182028036833780820191505090505b5090505f82602001820190505b60011561260b578080600190039150507f3031323334353637383961626364656600000000000000000000000000000000600a86061a8153600a8581612600576125ff614363565b5b0494505f85036125b7575b819350505050919050565b5f806041835103612653575f805f602086015192506040860151915060608601515f1a905061264787828585612ad5565b9450945050505061265b565b5f6002915091505b9250929050565b5f600481111561267557612674613754565b5b81600481111561268857612687613754565b5b03156127c457600160048111156126a2576126a1613754565b5b8160048111156126b5576126b4613754565b5b036126f5576040517f08c379a00000000000000000000000000000000000000000000000000000000081526004016126ec906143da565b60405180910390fd5b6002600481111561270957612708613754565b5b81600481111561271c5761271b613754565b5b0361275c576040517f08c379a000000000000000000000000000000000000000000000000000000000815260040161275390614442565b60405180910390fd5b600360048111156127705761276f613754565b5b81600481111561278357612782613754565b5b036127c3576040517f08c379a00000000000000000000000000000000000000000000000000000000081526004016127ba906144d0565b60405180910390fd5b5b50565b6127d18383612bad565b6127dd5f84848461237d565b61281c576040517f08c379a000000000000000000000000000000000000000000000000000000000815260040161281390613ee1565b60405180910390fd5b505050565b5f808273ffffffffffffffffffffffffffffffffffffffff163b119050919050565b5f61284d82610836565b905061285c815f8460016121f1565b61286582610836565b905060045f8381526020019081526020015f205f6101000a81549073ffffffffffffffffffffffffffffffffffffffff0219169055600160035f8373ffffffffffffffffffffffffffffffffffffffff1673ffffffffffffffffffffffffffffffffffffffff1681526020019081526020015f205f828254039250508190555060025f8381526020019081526020015f205f6101000a81549073ffffffffffffffffffffffffffffffffffffffff0219169055815f73ffffffffffffffffffffffffffffffffffffffff168273ffffffffffffffffffffffffffffffffffffffff167fddf252ad1be2c89b69c2b068fc378daa952ba7f163c4a11628f55a4df523b3ef60405160405180910390a4612980815f8460016121f7565b5050565b5f805f90507a184f03e93ff9f4daa797ed6e38ed64bf6a1f01000000000000000083106129e0577a184f03e93ff9f4daa797ed6e38ed64bf6a1f01000000000000000083816129d6576129d5614363565b5b0492506040810190505b6d04ee2d6d415b85acef81000000008310612a1d576d04ee2d6d415b85acef81000000008381612a1357612a12614363565b5b0492506020810190505b662386f26fc100008310612a4c57662386f26fc100008381612a4257612a41614363565b5b0492506010810190505b6305f5e1008310612a75576305f5e1008381612a6b57612a6a614363565b5b0492506008810190505b6127108310612a9a576127108381612a9057612a8f614363565b5b0492506004810190505b60648310612abd5760648381612ab357612ab2614363565b5b0492506002810190505b600a8310612acc576001810190505b80915050919050565b5f807f7fffffffffffffffffffffffffffffff5d576e7357a4501ddfe92f46681b20a0835f1c1115612b0d575f600391509150612ba4565b5f6001878787876040515f8152602001604052604051612b3094939291906144fd565b6020604051602081039080840390855afa158015612b50573d5f803e3d5ffd5b5050506020604051035190505f73ffffffffffffffffffffffffffffffffffffffff168173ffffffffffffffffffffffffffffffffffffffff1603612b9c575f60019250925050612ba4565b805f92509250505b94509492505050565b5f73ffffffffffffffffffffffffffffffffffffffff168273ffffffffffffffffffffffffffffffffffffffff1603612c1b576040517f08c379a0000000000000000000000000000000000000000000000000000000008152600401612c129061458a565b60405180910390fd5b612c24816121b1565b15612c64576040517f08c379a0000000000000000000000000000000000000000000000000000000008152600401612c5b906145f2565b60405180910390fd5b612c715f838360016121f1565b612c7a816121b1565b15612cba576040517f08c379a0000000000000000000000000000000000000000000000000000000008152600401612cb1906145f2565b60405180910390fd5b600160035f8473ffffffffffffffffffffffffffffffffffffffff1673ffffffffffffffffffffffffffffffffffffffff1681526020019081526020015f205f82825401925050819055508160025f8381526020019081526020015f205f6101000a81548173ffffffffffffffffffffffffffffffffffffffff021916908373ffffffffffffffffffffffffffffffffffffffff160217905550808273ffffffffffffffffffffffffffffffffffffffff165f73ffffffffffffffffffffffffffffffffffffffff167fddf252ad1be2c89b69c2b068fc378daa952ba7f163c4a11628f55a4df523b3ef60405160405180910390a4612dbc5f838360016121f7565b5050565b508054612dcc9061357a565b5f825580601f10612ddd5750612dfa565b601f0160209004905f5260205f2090810190612df99190612dfd565b5b50565b5b80821115612e14575f815f905550600101612dfe565b5090565b5f604051905090565b5f80fd5b5f80fd5b5f7fffffffff0000000000000000000000000000000000000000000000000000000082169050919050565b612e5d81612e29565b8114612e67575f80fd5b50565b5f81359050612e7881612e54565b92915050565b5f60208284031215612e9357612e92612e21565b5b5f612ea084828501612e6a565b91505092915050565b5f8115159050919050565b612ebd81612ea9565b82525050565b5f602082019050612ed65f830184612eb4565b92915050565b5f81519050919050565b5f82825260208201905092915050565b5f5b83811015612f13578082015181840152602081019050612ef8565b5f8484015250505050565b5f601f19601f8301169050919050565b5f612f3882612edc565b612f428185612ee6565b9350612f52818560208601612ef6565b612f5b81612f1e565b840191505092915050565b5f6020820190508181035f830152612f7e8184612f2e565b905092915050565b5f819050919050565b612f9881612f86565b8114612fa2575f80fd5b50565b5f81359050612fb381612f8f565b92915050565b5f60208284031215612fce57612fcd612e21565b5b5f612fdb84828501612fa5565b91505092915050565b5f73ffffffffffffffffffffffffffffffffffffffff82169050919050565b5f61300d82612fe4565b9050919050565b61301d81613003565b82525050565b5f6020820190506130365f830184613014565b92915050565b61304581613003565b811461304f575f80fd5b50565b5f813590506130608161303c565b92915050565b5f806040838503121561307c5761307b612e21565b5b5f61308985828601613052565b925050602061309a85828601612fa5565b9150509250929050565b5f805f606084860312156130bb576130ba612e21565b5b5f6130c886828701613052565b93505060206130d986828701613052565b92505060406130ea86828701612fa5565b9150509250925092565b5f6020828403121561310957613108612e21565b5b5f61311684828501613052565b91505092915050565b5f60ff82169050919050565b6131348161311f565b82525050565b5f60208201905061314d5f83018461312b565b92915050565b61315c81612f86565b82525050565b5f6020820190506131755f830184613153565b92915050565b5f80fd5b5f80fd5b7f4e487b71000000000000000000000000000000000000000000000000000000005f52604160045260245ffd5b6131b982612f1e565b810181811067ffffffffffffffff821117156131d8576131d7613183565b5b80604052505050565b5f6131ea612e18565b90506131f682826131b0565b919050565b5f67ffffffffffffffff82111561321557613214613183565b5b61321e82612f1e565b9050602081019050919050565b828183375f83830152505050565b5f61324b613246846131fb565b6131e1565b9050828152602081018484840111156132675761326661317f565b5b61327284828561322b565b509392505050565b5f82601f83011261328e5761328d61317b565b5b813561329e848260208601613239565b91505092915050565b5f819050919050565b6132b9816132a7565b81146132c3575f80fd5b50565b5f813590506132d4816132b0565b92915050565b5f67ffffffffffffffff8211156132f4576132f3613183565b5b6132fd82612f1e565b9050602081019050919050565b5f61331c613317846132da565b6131e1565b9050828152602081018484840111156133385761333761317f565b5b61334384828561322b565b509392505050565b5f82601f83011261335f5761335e61317b565b5b813561336f84826020860161330a565b91505092915050565b5f805f805f60a0868803121561339157613390612e21565b5b5f86013567ffffffffffffffff8111156133ae576133ad612e25565b5b6133ba8882890161327a565b95505060206133cb888289016132c6565b94505060406133dc88828901613052565b935050606086013567ffffffffffffffff8111156133fd576133fc612e25565b5b6134098882890161334b565b925050608061341a88828901612fa5565b9150509295509295909350565b61343081612ea9565b811461343a575f80fd5b50565b5f8135905061344b81613427565b92915050565b5f806040838503121561346757613466612e21565b5b5f61347485828601613052565b92505060206134858582860161343d565b9150509250929050565b5f805f80608085870312156134a7576134a6612e21565b5b5f6134b487828801613052565b94505060206134c587828801613052565b93505060406134d687828801612fa5565b925050606085013567ffffffffffffffff8111156134f7576134f6612e25565b5b6135038782880161327a565b91505092959194509250565b5f806040838503121561352557613524612e21565b5b5f61353285828601613052565b925050602061354385828601613052565b9150509250929050565b7f4e487b71000000000000000000000000000000000000000000000000000000005f52602260045260245ffd5b5f600282049050600182168061359157607f821691505b6020821081036135a4576135a361354d565b5b50919050565b7f4552433732313a20617070726f76616c20746f2063757272656e74206f776e655f8201527f7200000000000000000000000000000000000000000000000000000000000000602082015250565b5f613604602183612ee6565b915061360f826135aa565b604082019050919050565b5f6020820190508181035f830152613631816135f8565b9050919050565b7f4552433732313a20617070726f76652063616c6c6572206973206e6f7420746f5f8201527f6b656e206f776e6572206f7220617070726f76656420666f7220616c6c000000602082015250565b5f613692603d83612ee6565b915061369d82613638565b604082019050919050565b5f6020820190508181035f8301526136bf81613686565b9050919050565b7f4552433732313a2063616c6c6572206973206e6f7420746f6b656e206f776e655f8201527f72206f7220617070726f76656400000000000000000000000000000000000000602082015250565b5f613720602d83612ee6565b915061372b826136c6565b604082019050919050565b5f6020820190508181035f83015261374d81613714565b9050919050565b7f4e487b71000000000000000000000000000000000000000000000000000000005f52602160045260245ffd5b7f4552433732313a20696e76616c696420746f6b656e20494400000000000000005f82015250565b5f6137b5601883612ee6565b91506137c082613781565b602082019050919050565b5f6020820190508181035f8301526137e2816137a9565b9050919050565b7f4552433732313a2061646472657373207a65726f206973206e6f7420612076615f8201527f6c6964206f776e65720000000000000000000000000000000000000000000000602082015250565b5f613843602983612ee6565b915061384e826137e9565b604082019050919050565b5f6020820190508181035f83015261387081613837565b9050919050565b7f52454a5556453a20496e76616c6964205369676e6174757265000000000000005f82015250565b5f6138ab601983612ee6565b91506138b682613877565b602082019050919050565b5f6020820190508181035f8301526138d88161389f565b9050919050565b7f52454a5556453a204f6e65204964656e746974792050657220557365720000005f82015250565b5f613913601d83612ee6565b915061391e826138df565b602082019050919050565b5f6020820190508181035f83015261394081613907565b9050919050565b7f52454a5556453a204f6e6c79204964656e74697479204f776e657200000000005f82015250565b5f61397b601b83612ee6565b915061398682613947565b602082019050919050565b5f6020820190508181035f8301526139a88161396f565b9050919050565b5f81905092915050565b5f6139c382612edc565b6139cd81856139af565b93506139dd818560208601612ef6565b80840191505092915050565b5f6139f482856139b9565b9150613a0082846139b9565b91508190509392505050565b7f4f776e61626c653a206e6577206f776e657220697320746865207a65726f20615f8201527f6464726573730000000000000000000000000000000000000000000000000000602082015250565b5f613a66602683612ee6565b9150613a7182613a0c565b604082019050919050565b5f6020820190508181035f830152613a9381613a5a565b9050919050565b7f4552433732313a207472616e736665722066726f6d20696e636f7272656374205f8201527f6f776e6572000000000000000000000000000000000000000000000000000000602082015250565b5f613af4602583612ee6565b9150613aff82613a9a565b604082019050919050565b5f6020820190508181035f830152613b2181613ae8565b9050919050565b7f4552433732313a207472616e7366657220746f20746865207a65726f206164645f8201527f7265737300000000000000000000000000000000000000000000000000000000602082015250565b5f613b82602483612ee6565b9150613b8d82613b28565b604082019050919050565b5f6020820190508181035f830152613baf81613b76565b9050919050565b7f4f776e61626c653a2063616c6c6572206973206e6f7420746865206f776e65725f82015250565b5f613bea602083612ee6565b9150613bf582613bb6565b602082019050919050565b5f6020820190508181035f830152613c1781613bde565b9050919050565b7f5061757361626c653a20706175736564000000000000000000000000000000005f82015250565b5f613c52601083612ee6565b9150613c5d82613c1e565b602082019050919050565b5f6020820190508181035f830152613c7f81613c46565b9050919050565b7f52454a5556453a205369676e6174757265207573656420616c726561647900005f82015250565b5f613cba601e83612ee6565b9150613cc582613c86565b602082019050919050565b5f6020820190508181035f830152613ce781613cae565b9050919050565b5f819050919050565b613d08613d03826132a7565b613cee565b82525050565b5f8160601b9050919050565b5f613d2482613d0e565b9050919050565b5f613d3582613d1a565b9050919050565b613d4d613d4882613003565b613d2b565b82525050565b5f819050919050565b613d6d613d6882612f86565b613d53565b82525050565b5f613d7e8288613cf7565b602082019150613d8e8287613d3c565b601482019150613d9e82866139b9565b9150613daa8285613d5c565b602082019150613dba8284613d3c565b6014820191508190509695505050505050565b5f606082019050613de05f830186613014565b613ded6020830185613153565b8181036040830152613dff8184612f2e565b9050949350505050565b7f4552433732313a20617070726f766520746f2063616c6c6572000000000000005f82015250565b5f613e3d601983612ee6565b9150613e4882613e09565b602082019050919050565b5f6020820190508181035f830152613e6a81613e31565b9050919050565b7f4552433732313a207472616e7366657220746f206e6f6e2045524337323152655f8201527f63656976657220696d706c656d656e7465720000000000000000000000000000602082015250565b5f613ecb603283612ee6565b9150613ed682613e71565b604082019050919050565b5f6020820190508181035f830152613ef881613ebf565b9050919050565b5f604082019050613f125f830185613014565b613f1f6020830184613153565b9392505050565b7f5061757361626c653a206e6f74207061757365640000000000000000000000005f82015250565b5f613f5a601483612ee6565b9150613f6582613f26565b602082019050919050565b5f6020820190508181035f830152613f8781613f4e565b9050919050565b7f45524337323155524953746f726167653a2055524920736574206f66206e6f6e5f8201527f6578697374656e7420746f6b656e000000000000000000000000000000000000602082015250565b5f613fe8602e83612ee6565b9150613ff382613f8e565b604082019050919050565b5f6020820190508181035f83015261401581613fdc565b9050919050565b5f819050815f5260205f209050919050565b5f6020601f8301049050919050565b5f82821b905092915050565b5f600883026140787fffffffffffffffffffffffffffffffffffffffffffffffffffffffffffffffff8261403d565b614082868361403d565b95508019841693508086168417925050509392505050565b5f819050919050565b5f6140bd6140b86140b384612f86565b61409a565b612f86565b9050919050565b5f819050919050565b6140d6836140a3565b6140ea6140e2826140c4565b848454614049565b825550505050565b5f90565b6140fe6140f2565b6141098184846140cd565b505050565b5b8181101561412c576141215f826140f6565b60018101905061410f565b5050565b601f821115614171576141428161401c565b61414b8461402e565b8101602085101561415a578190505b61416e6141668561402e565b83018261410e565b50505b505050565b5f82821c905092915050565b5f6141915f1984600802614176565b1980831691505092915050565b5f6141a98383614182565b9150826002028217905092915050565b6141c282612edc565b67ffffffffffffffff8111156141db576141da613183565b5b6141e5825461357a565b6141f0828285614130565b5f60209050601f831160018114614221575f841561420f578287015190505b614219858261419e565b865550614280565b601f19841661422f8661401c565b5f5b8281101561425657848901518255600182019150602085019450602081019050614231565b86831015614273578489015161426f601f891682614182565b8355505b6001600288020188555050505b505050505050565b5f81519050919050565b5f82825260208201905092915050565b5f6142ac82614288565b6142b68185614292565b93506142c6818560208601612ef6565b6142cf81612f1e565b840191505092915050565b5f6080820190506142ed5f830187613014565b6142fa6020830186613014565b6143076040830185613153565b818103606083015261431981846142a2565b905095945050505050565b5f8151905061433281612e54565b92915050565b5f6020828403121561434d5761434c612e21565b5b5f61435a84828501614324565b91505092915050565b7f4e487b71000000000000000000000000000000000000000000000000000000005f52601260045260245ffd5b7f45434453413a20696e76616c6964207369676e617475726500000000000000005f82015250565b5f6143c4601883612ee6565b91506143cf82614390565b602082019050919050565b5f6020820190508181035f8301526143f1816143b8565b9050919050565b7f45434453413a20696e76616c6964207369676e6174757265206c656e677468005f82015250565b5f61442c601f83612ee6565b9150614437826143f8565b602082019050919050565b5f6020820190508181035f83015261445981614420565b9050919050565b7f45434453413a20696e76616c6964207369676e6174757265202773272076616c5f8201527f7565000000000000000000000000000000000000000000000000000000000000602082015250565b5f6144ba602283612ee6565b91506144c582614460565b604082019050919050565b5f6020820190508181035f8301526144e7816144ae565b9050919050565b6144f7816132a7565b82525050565b5f6080820190506145105f8301876144ee565b61451d602083018661312b565b61452a60408301856144ee565b61453760608301846144ee565b95945050505050565b7f4552433732313a206d696e7420746f20746865207a65726f20616464726573735f82015250565b5f614574602083612ee6565b915061457f82614540565b602082019050919050565b5f6020820190508181035f8301526145a181614568565b9050919050565b7f4552433732313a20746f6b656e20616c7265616479206d696e746564000000005f82015250565b5f6145dc601c83612ee6565b91506145e7826145a8565b602082019050919050565b5f6020820190508181035f830152614609816145d0565b905091905056fea26469706673582212200f110d4473002e280e06bf566a4557f65b410202236502499d4abbb0817c93cf64736f6c63430008150033",
  "linkReferences": {},
  "deployedLinkReferences": {}
}