{
  "_format": "hh-sol-artifact-1",
  "contractName": "IdentityToken",
  "sourceName": "contracts/IdentityToken.sol",
  "abi": [
    {
      "inputs": [
        {
          "internalType": "string",
          "name": "name",
          "type": "string"
        },
        {
          "internalType": "string",
          "name": "symbol",
          "type": "string"
        }
      ],
      "stateMutability": "nonpayable",
      "type": "constructor"
    },
    {
      "anonymous": false,
      "inputs": [
        {
          "indexed": true,
          "internalType": "address",
          "name": "owner",
          "type": "address"
        },
        {
          "indexed": true,
          "internalType": "address",
          "name": "approved",
          "type": "address"
        },
        {
          "indexed": true,
          "internalType": "uint256",
          "name": "tokenId",
          "type": "uint256"
        }
      ],
      "name": "Approval",
      "type": "event"
    },
    {
      "anonymous": false,
      "inputs": [
        {
          "indexed": true,
          "internalType": "address",
          "name": "owner",
          "type": "address"
        },
        {
          "indexed": true,
          "internalType": "address",
          "name": "operator",
          "type": "address"
        },
        {
          "indexed": false,
          "internalType": "bool",
          "name": "approved",
          "type": "bool"
        }
      ],
      "name": "ApprovalForAll",
      "type": "event"
    },
    {
      "anonymous": false,
      "inputs": [
        {
          "indexed": false,
          "internalType": "address",
          "name": "caller",
          "type": "address"
        },
        {
          "indexed": false,
          "internalType": "uint256",
          "name": "tokenId",
          "type": "uint256"
        },
        {
          "indexed": false,
          "internalType": "string",
          "name": "tokenURI",
          "type": "string"
        }
      ],
      "name": "IdentityCreated",
      "type": "event"
    },
    {
      "anonymous": false,
      "inputs": [
        {
          "indexed": false,
          "internalType": "address",
          "name": "owner",
          "type": "address"
        },
        {
          "indexed": false,
          "internalType": "uint256",
          "name": "ownerId",
          "type": "uint256"
        }
      ],
      "name": "IdentityDestroyed",
      "type": "event"
    },
    {
      "anonymous": false,
      "inputs": [
        {
          "indexed": true,
          "internalType": "address",
          "name": "previousOwner",
          "type": "address"
        },
        {
          "indexed": true,
          "internalType": "address",
          "name": "newOwner",
          "type": "address"
        }
      ],
      "name": "OwnershipTransferred",
      "type": "event"
    },
    {
      "anonymous": false,
      "inputs": [
        {
          "indexed": false,
          "internalType": "address",
          "name": "account",
          "type": "address"
        }
      ],
      "name": "Paused",
      "type": "event"
    },
    {
      "anonymous": false,
      "inputs": [
        {
          "indexed": true,
          "internalType": "address",
          "name": "from",
          "type": "address"
        },
        {
          "indexed": true,
          "internalType": "address",
          "name": "to",
          "type": "address"
        },
        {
          "indexed": true,
          "internalType": "uint256",
          "name": "tokenId",
          "type": "uint256"
        }
      ],
      "name": "Transfer",
      "type": "event"
    },
    {
      "anonymous": false,
      "inputs": [
        {
          "indexed": false,
          "internalType": "address",
          "name": "account",
          "type": "address"
        }
      ],
      "name": "Unpaused",
      "type": "event"
    },
    {
      "inputs": [
        {
          "internalType": "address",
          "name": "to",
          "type": "address"
        },
        {
          "internalType": "uint256",
          "name": "tokenId",
          "type": "uint256"
        }
      ],
      "name": "approve",
      "outputs": [],
      "stateMutability": "nonpayable",
      "type": "function"
    },
    {
      "inputs": [
        {
          "internalType": "address",
          "name": "owner",
          "type": "address"
        }
      ],
      "name": "balanceOf",
      "outputs": [
        {
          "internalType": "uint256",
          "name": "",
          "type": "uint256"
        }
      ],
      "stateMutability": "view",
      "type": "function"
    },
    {
      "inputs": [
        {
          "internalType": "uint256",
          "name": "tokenId",
          "type": "uint256"
        }
      ],
      "name": "burnIdentity",
      "outputs": [],
      "stateMutability": "nonpayable",
      "type": "function"
    },
    {
      "inputs": [
        {
          "internalType": "bytes",
          "name": "signature",
          "type": "bytes"
        },
        {
          "internalType": "bytes32",
          "name": "kyc",
          "type": "bytes32"
        },
        {
          "internalType": "address",
          "name": "signer",
          "type": "address"
        },
        {
          "internalType": "string",
          "name": "tokenURI",
          "type": "string"
        },
        {
          "internalType": "uint256",
          "name": "nonce",
          "type": "uint256"
        }
      ],
      "name": "createIdentity",
      "outputs": [],
      "stateMutability": "nonpayable",
      "type": "function"
    },
    {
      "inputs": [
        {
          "internalType": "uint256",
          "name": "tokenId",
          "type": "uint256"
        }
      ],
      "name": "getApproved",
      "outputs": [
        {
          "internalType": "address",
          "name": "",
          "type": "address"
        }
      ],
      "stateMutability": "view",
      "type": "function"
    },
    {
      "inputs": [
        {
          "internalType": "address",
          "name": "owner",
          "type": "address"
        }
      ],
      "name": "getOwnerIdentity",
      "outputs": [
        {
          "internalType": "uint256",
          "name": "",
          "type": "uint256"
        }
      ],
      "stateMutability": "view",
      "type": "function"
    },
    {
      "inputs": [
        {
          "internalType": "address",
          "name": "userAccount",
          "type": "address"
        }
      ],
      "name": "ifRegistered",
      "outputs": [
        {
          "internalType": "uint8",
          "name": "",
          "type": "uint8"
        }
      ],
      "stateMutability": "view",
      "type": "function"
    },
    {
      "inputs": [
        {
          "internalType": "address",
          "name": "owner",
          "type": "address"
        },
        {
          "internalType": "address",
          "name": "operator",
          "type": "address"
        }
      ],
      "name": "isApprovedForAll",
      "outputs": [
        {
          "internalType": "bool",
          "name": "",
          "type": "bool"
        }
      ],
      "stateMutability": "view",
      "type": "function"
    },
    {
      "inputs": [],
      "name": "name",
      "outputs": [
        {
          "internalType": "string",
          "name": "",
          "type": "string"
        }
      ],
      "stateMutability": "view",
      "type": "function"
    },
    {
      "inputs": [],
      "name": "owner",
      "outputs": [
        {
          "internalType": "address",
          "name": "",
          "type": "address"
        }
      ],
      "stateMutability": "view",
      "type": "function"
    },
    {
      "inputs": [
        {
          "internalType": "uint256",
          "name": "tokenId",
          "type": "uint256"
        }
      ],
      "name": "ownerOf",
      "outputs": [
        {
          "internalType": "address",
          "name": "",
          "type": "address"
        }
      ],
      "stateMutability": "view",
      "type": "function"
    },
    {
      "inputs": [],
      "name": "pause",
      "outputs": [],
      "stateMutability": "nonpayable",
      "type": "function"
    },
    {
      "inputs": [],
      "name": "paused",
      "outputs": [
        {
          "internalType": "bool",
          "name": "",
          "type": "bool"
        }
      ],
      "stateMutability": "view",
      "type": "function"
    },
    {
      "inputs": [],
      "name": "renounceOwnership",
      "outputs": [],
      "stateMutability": "nonpayable",
      "type": "function"
    },
    {
      "inputs": [
        {
          "internalType": "address",
          "name": "from",
          "type": "address"
        },
        {
          "internalType": "address",
          "name": "to",
          "type": "address"
        },
        {
          "internalType": "uint256",
          "name": "tokenId",
          "type": "uint256"
        }
      ],
      "name": "safeTransferFrom",
      "outputs": [],
      "stateMutability": "nonpayable",
      "type": "function"
    },
    {
      "inputs": [
        {
          "internalType": "address",
          "name": "from",
          "type": "address"
        },
        {
          "internalType": "address",
          "name": "to",
          "type": "address"
        },
        {
          "internalType": "uint256",
          "name": "tokenId",
          "type": "uint256"
        },
        {
          "internalType": "bytes",
          "name": "data",
          "type": "bytes"
        }
      ],
      "name": "safeTransferFrom",
      "outputs": [],
      "stateMutability": "nonpayable",
      "type": "function"
    },
    {
      "inputs": [
        {
          "internalType": "address",
          "name": "operator",
          "type": "address"
        },
        {
          "internalType": "bool",
          "name": "approved",
          "type": "bool"
        }
      ],
      "name": "setApprovalForAll",
      "outputs": [],
      "stateMutability": "nonpayable",
      "type": "function"
    },
    {
      "inputs": [
        {
          "internalType": "bytes4",
          "name": "interfaceId",
          "type": "bytes4"
        }
      ],
      "name": "supportsInterface",
      "outputs": [
        {
          "internalType": "bool",
          "name": "",
          "type": "bool"
        }
      ],
      "stateMutability": "view",
      "type": "function"
    },
    {
      "inputs": [],
      "name": "symbol",
      "outputs": [
        {
          "internalType": "string",
          "name": "",
          "type": "string"
        }
      ],
      "stateMutability": "view",
      "type": "function"
    },
    {
      "inputs": [
        {
          "internalType": "uint256",
          "name": "tokenId",
          "type": "uint256"
        }
      ],
      "name": "tokenURI",
      "outputs": [
        {
          "internalType": "string",
          "name": "",
          "type": "string"
        }
      ],
      "stateMutability": "view",
      "type": "function"
    },
    {
      "inputs": [
        {
          "internalType": "address",
          "name": "from",
          "type": "address"
        },
        {
          "internalType": "address",
          "name": "to",
          "type": "address"
        },
        {
          "internalType": "uint256",
          "name": "tokenId",
          "type": "uint256"
        }
      ],
      "name": "transferFrom",
      "outputs": [],
      "stateMutability": "nonpayable",
      "type": "function"
    },
    {
      "inputs": [
        {
          "internalType": "address",
          "name": "newOwner",
          "type": "address"
        }
      ],
      "name": "transferOwnership",
      "outputs": [],
      "stateMutability": "nonpayable",
      "type": "function"
    },
    {
      "inputs": [],
      "name": "unpause",
      "outputs": [],
      "stateMutability": "nonpayable",
      "type": "function"
    }
  ],
  "bytecode": "0x60806040523480156200001157600080fd5b50604051620050a8380380620050a8833981810160405281019062000037919062000382565b818181600090816200004a919062000652565b5080600190816200005c919062000652565b5050506200007f620000736200010860201b60201c565b6200011060201b60201c565b6000600760146101000a81548160ff021916908315150217905550620000b667336625acdd0f83b860c01b620001d660201b60201c565b620000d26789e5c1e4d0c4c41060c01b620001d660201b60201c565b620000ee67e5abb93ce6741e6660c01b620001d660201b60201c565b620001006008620001d960201b60201c565b505062000739565b600033905090565b6000600760009054906101000a900473ffffffffffffffffffffffffffffffffffffffff16905081600760006101000a81548173ffffffffffffffffffffffffffffffffffffffff021916908373ffffffffffffffffffffffffffffffffffffffff1602179055508173ffffffffffffffffffffffffffffffffffffffff168173ffffffffffffffffffffffffffffffffffffffff167f8be0079c531659141344cd1fd0a4f28419497f9722a3daafe3b4186f6b6457e060405160405180910390a35050565b50565b6001816000016000828254019250508190555050565b6000604051905090565b600080fd5b600080fd5b600080fd5b600080fd5b6000601f19601f8301169050919050565b7f4e487b7100000000000000000000000000000000000000000000000000000000600052604160045260246000fd5b62000258826200020d565b810181811067ffffffffffffffff821117156200027a57620002796200021e565b5b80604052505050565b60006200028f620001ef565b90506200029d82826200024d565b919050565b600067ffffffffffffffff821115620002c057620002bf6200021e565b5b620002cb826200020d565b9050602081019050919050565b60005b83811015620002f8578082015181840152602081019050620002db565b60008484015250505050565b60006200031b6200031584620002a2565b62000283565b9050828152602081018484840111156200033a576200033962000208565b5b62000347848285620002d8565b509392505050565b600082601f83011262000367576200036662000203565b5b81516200037984826020860162000304565b91505092915050565b600080604083850312156200039c576200039b620001f9565b5b600083015167ffffffffffffffff811115620003bd57620003bc620001fe565b5b620003cb858286016200034f565b925050602083015167ffffffffffffffff811115620003ef57620003ee620001fe565b5b620003fd858286016200034f565b9150509250929050565b600081519050919050565b7f4e487b7100000000000000000000000000000000000000000000000000000000600052602260045260246000fd5b600060028204905060018216806200045a57607f821691505b60208210810362000470576200046f62000412565b5b50919050565b60008190508160005260206000209050919050565b60006020601f8301049050919050565b600082821b905092915050565b600060088302620004da7fffffffffffffffffffffffffffffffffffffffffffffffffffffffffffffffff826200049b565b620004e686836200049b565b95508019841693508086168417925050509392505050565b6000819050919050565b6000819050919050565b6000620005336200052d6200052784620004fe565b62000508565b620004fe565b9050919050565b6000819050919050565b6200054f8362000512565b620005676200055e826200053a565b848454620004a8565b825550505050565b600090565b6200057e6200056f565b6200058b81848462000544565b505050565b5b81811015620005b357620005a760008262000574565b60018101905062000591565b5050565b601f8211156200060257620005cc8162000476565b620005d7846200048b565b81016020851015620005e7578190505b620005ff620005f6856200048b565b83018262000590565b50505b505050565b600082821c905092915050565b6000620006276000198460080262000607565b1980831691505092915050565b600062000642838362000614565b9150826002028217905092915050565b6200065d8262000407565b67ffffffffffffffff8111156200067957620006786200021e565b5b62000685825462000441565b62000692828285620005b7565b600060209050601f831160018114620006ca5760008415620006b5578287015190505b620006c1858262000634565b86555062000731565b601f198416620006da8662000476565b60005b828110156200070457848901518255600182019150602085019450602081019050620006dd565b8683101562000724578489015162000720601f89168262000614565b8355505b6001600288020188555050505b505050505050565b61495f80620007496000396000f3fe608060405234801561001057600080fd5b506004361061014d5760003560e01c8063715018a6116100c3578063b88d4fde1161007c578063b88d4fde14610364578063c5d56ec714610380578063c87b56dd1461039c578063e985e9c5146103cc578063ea32fff7146103fc578063f2fde38b1461042c5761014d565b8063715018a6146102dc5780637c374491146102e65780638456cb59146103025780638da5cb5b1461030c57806395d89b411461032a578063a22cb465146103485761014d565b80633f4ba83a116101155780633f4ba83a1461020857806342842e0e146102125780634b557d8a1461022e5780635c975abb1461025e5780636352211e1461027c57806370a08231146102ac5761014d565b806301ffc9a71461015257806306fdde0314610182578063081812fc146101a0578063095ea7b3146101d057806323b872dd146101ec575b600080fd5b61016c60048036038101906101679190612fc2565b610448565b604051610179919061300a565b60405180910390f35b61018a61052a565b60405161019791906130b5565b60405180910390f35b6101ba60048036038101906101b5919061310d565b6105bc565b6040516101c7919061317b565b60405180910390f35b6101ea60048036038101906101e591906131c2565b610602565b005b61020660048036038101906102019190613202565b610719565b005b610210610779565b005b61022c60048036038101906102279190613202565b6107ee565b005b61024860048036038101906102439190613255565b61080e565b604051610255919061329e565b60405180910390f35b6102666108b2565b604051610273919061300a565b60405180910390f35b6102966004803603810190610291919061310d565b6108c9565b6040516102a3919061317b565b60405180910390f35b6102c660048036038101906102c19190613255565b61094f565b6040516102d391906132c8565b60405180910390f35b6102e4610a06565b005b61030060048036038101906102fb91906134ef565b610a1a565b005b61030a610c37565b005b610314610cad565b604051610321919061317b565b60405180910390f35b610332610cd7565b60405161033f91906130b5565b60405180910390f35b610362600480360381019061035d91906135ce565b610d69565b005b61037e6004803603810190610379919061360e565b610d7f565b005b61039a6004803603810190610395919061310d565b610de1565b005b6103b660048036038101906103b1919061310d565b610f01565b6040516103c391906130b5565b60405180910390f35b6103e660048036038101906103e19190613691565b611013565b6040516103f3919061300a565b60405180910390f35b61041660048036038101906104119190613255565b6110a7565b60405161042391906132c8565b60405180910390f35b61044660048036038101906104419190613255565b61112c565b005b60007f80ac58cd000000000000000000000000000000000000000000000000000000007bffffffffffffffffffffffffffffffffffffffffffffffffffffffff1916827bffffffffffffffffffffffffffffffffffffffffffffffffffffffff1916148061051357507f5b5e139f000000000000000000000000000000000000000000000000000000007bffffffffffffffffffffffffffffffffffffffffffffffffffffffff1916827bffffffffffffffffffffffffffffffffffffffffffffffffffffffff1916145b806105235750610522826111af565b5b9050919050565b60606000805461053990613700565b80601f016020809104026020016040519081016040528092919081815260200182805461056590613700565b80156105b25780601f10610587576101008083540402835291602001916105b2565b820191906000526020600020905b81548152906001019060200180831161059557829003601f168201915b5050505050905090565b60006105c782611219565b6004600083815260200190815260200160002060009054906101000a900473ffffffffffffffffffffffffffffffffffffffff169050919050565b600061060d826108c9565b90508073ffffffffffffffffffffffffffffffffffffffff168373ffffffffffffffffffffffffffffffffffffffff160361067d576040517f08c379a0000000000000000000000000000000000000000000000000000000008152600401610674906137a3565b60405180910390fd5b8073ffffffffffffffffffffffffffffffffffffffff1661069c611264565b73ffffffffffffffffffffffffffffffffffffffff1614806106cb57506106ca816106c5611264565b611013565b5b61070a576040517f08c379a000000000000000000000000000000000000000000000000000000000815260040161070190613835565b60405180910390fd5b610714838361126c565b505050565b61072a610724611264565b82611325565b610769576040517f08c379a0000000000000000000000000000000000000000000000000000000008152600401610760906138c7565b60405180910390fd5b6107748383836113ba565b505050565b61078d67ee9d58ea8afbb86560c01b6116b3565b6107956116b6565b6107a86685ef6877b4c15260c01b6116b3565b6107bc676855997139e1793f60c01b6116b3565b6107d0672ed71bb724cf2bac60c01b6116b3565b6107e46771aa354474e030f460c01b6116b3565b6107ec611734565b565b61080983838360405180602001604052806000815250610d7f565b505050565b6000610824677cb66e9a99346f0560c01b6116b3565b610838673c4a26981985760f60c01b6116b3565b61084c67998cf4408dd6d9bc60c01b6116b3565b600a60008373ffffffffffffffffffffffffffffffffffffffff1673ffffffffffffffffffffffffffffffffffffffff16815260200190815260200160002060009054906101000a900460ff1660018111156108ab576108aa6138e7565b5b9050919050565b6000600760149054906101000a900460ff16905090565b6000806108d583611797565b9050600073ffffffffffffffffffffffffffffffffffffffff168173ffffffffffffffffffffffffffffffffffffffff1603610946576040517f08c379a000000000000000000000000000000000000000000000000000000000815260040161093d90613962565b60405180910390fd5b80915050919050565b60008073ffffffffffffffffffffffffffffffffffffffff168273ffffffffffffffffffffffffffffffffffffffff16036109bf576040517f08c379a00000000000000000000000000000000000000000000000000000000081526004016109b6906139f4565b60405180910390fd5b600360008373ffffffffffffffffffffffffffffffffffffffff1673ffffffffffffffffffffffffffffffffffffffff168152602001908152602001600020549050919050565b610a0e6116b6565b610a1860006117d4565b565b610a2e67a989514c68eebee660c01b6116b3565b610a3661189a565b610a4a67b6760e48b3a387f260c01b6116b3565b610a5e677e3c124defa9953e60c01b6116b3565b610a72674396fd41863ddf4b60c01b6116b3565b610a86676838332fd60e95e360c01b6116b3565b610a9a67d43cae4abe8fb21760c01b6116b3565b610aa785858585856118e4565b610ae6576040517f08c379a0000000000000000000000000000000000000000000000000000000008152600401610add90613a60565b60405180910390fd5b610afa6755e66f434872710f60c01b6116b3565b610b0e67fef37f25654b6eff60c01b6116b3565b610b226784494f4cdf8b24a560c01b6116b3565b610b3667921a31647c84a6b260c01b6116b3565b60006001811115610b4a57610b496138e7565b5b600a60008573ffffffffffffffffffffffffffffffffffffffff1673ffffffffffffffffffffffffffffffffffffffff16815260200190815260200160002060009054906101000a900460ff166001811115610ba957610ba86138e7565b5b14610be9576040517f08c379a0000000000000000000000000000000000000000000000000000000008152600401610be090613acc565b60405180910390fd5b610bfd6701c6944f2a6956e460c01b6116b3565b610c1167a9a87e4b5255104860c01b6116b3565b610c2567b90ecd2cad10890660c01b6116b3565b610c2f8383611b38565b505050505050565b610c4b679dbbb3bd75870faa60c01b6116b3565b610c536116b6565b610c67675085f0d171ebccea60c01b6116b3565b610c7b674d5e3c5f248ba9e360c01b6116b3565b610c8f6771b5c6d5ee79ceb760c01b6116b3565b610ca367e4e91dc3b3a1f15c60c01b6116b3565b610cab611d83565b565b6000600760009054906101000a900473ffffffffffffffffffffffffffffffffffffffff16905090565b606060018054610ce690613700565b80601f0160208091040260200160405190810160405280929190818152602001828054610d1290613700565b8015610d5f5780601f10610d3457610100808354040283529160200191610d5f565b820191906000526020600020905b815481529060010190602001808311610d4257829003601f168201915b5050505050905090565b610d7b610d74611264565b8383611de6565b5050565b610d90610d8a611264565b83611325565b610dcf576040517f08c379a0000000000000000000000000000000000000000000000000000000008152600401610dc6906138c7565b60405180910390fd5b610ddb84848484611f52565b50505050565b610df5677bfa8903f55aa08d60c01b6116b3565b610e096794ebd8433622a93860c01b6116b3565b610e1d674d2ae405a6999bd560c01b6116b3565b610e316731667160a43cd0e460c01b6116b3565b60096000610e3d611264565b73ffffffffffffffffffffffffffffffffffffffff1673ffffffffffffffffffffffffffffffffffffffff168152602001908152602001600020548114610eb9576040517f08c379a0000000000000000000000000000000000000000000000000000000008152600401610eb090613b38565b60405180910390fd5b610ecd67f7726cbfc2f5c63d60c01b6116b3565b610ee167383f44cc134a351960c01b6116b3565b610ef567cd5fe663ddead62660c01b6116b3565b610efe81611fae565b50565b6060610f0c82611219565b6000600660008481526020019081526020016000208054610f2c90613700565b80601f0160208091040260200160405190810160405280929190818152602001828054610f5890613700565b8015610fa55780601f10610f7a57610100808354040283529160200191610fa5565b820191906000526020600020905b815481529060010190602001808311610f8857829003601f168201915b505050505090506000610fb6612141565b90506000815103610fcb57819250505061100e565b600082511115611000578082604051602001610fe8929190613b94565b6040516020818303038152906040529250505061100e565b61100984612158565b925050505b919050565b6000600560008473ffffffffffffffffffffffffffffffffffffffff1673ffffffffffffffffffffffffffffffffffffffff16815260200190815260200160002060008373ffffffffffffffffffffffffffffffffffffffff1673ffffffffffffffffffffffffffffffffffffffff16815260200190815260200160002060009054906101000a900460ff16905092915050565b60006110bd6779c548893f180e0460c01b6116b3565b6110d167d3c3e16de8a044af60c01b6116b3565b6110e567ffb109f3643069bb60c01b6116b3565b600960008373ffffffffffffffffffffffffffffffffffffffff1673ffffffffffffffffffffffffffffffffffffffff168152602001908152602001600020549050919050565b6111346116b6565b600073ffffffffffffffffffffffffffffffffffffffff168173ffffffffffffffffffffffffffffffffffffffff16036111a3576040517f08c379a000000000000000000000000000000000000000000000000000000000815260040161119a90613c2a565b60405180910390fd5b6111ac816117d4565b50565b60007f01ffc9a7000000000000000000000000000000000000000000000000000000007bffffffffffffffffffffffffffffffffffffffffffffffffffffffff1916827bffffffffffffffffffffffffffffffffffffffffffffffffffffffff1916149050919050565b611222816121c0565b611261576040517f08c379a000000000000000000000000000000000000000000000000000000000815260040161125890613962565b60405180910390fd5b50565b600033905090565b816004600083815260200190815260200160002060006101000a81548173ffffffffffffffffffffffffffffffffffffffff021916908373ffffffffffffffffffffffffffffffffffffffff160217905550808273ffffffffffffffffffffffffffffffffffffffff166112df836108c9565b73ffffffffffffffffffffffffffffffffffffffff167f8c5be1e5ebec7d5bd14f71427d1e84f3dd0314c0f7b2291e5b200ac8c7c3b92560405160405180910390a45050565b600080611331836108c9565b90508073ffffffffffffffffffffffffffffffffffffffff168473ffffffffffffffffffffffffffffffffffffffff16148061137357506113728185611013565b5b806113b157508373ffffffffffffffffffffffffffffffffffffffff16611399846105bc565b73ffffffffffffffffffffffffffffffffffffffff16145b91505092915050565b8273ffffffffffffffffffffffffffffffffffffffff166113da826108c9565b73ffffffffffffffffffffffffffffffffffffffff1614611430576040517f08c379a000000000000000000000000000000000000000000000000000000000815260040161142790613cbc565b60405180910390fd5b600073ffffffffffffffffffffffffffffffffffffffff168273ffffffffffffffffffffffffffffffffffffffff160361149f576040517f08c379a000000000000000000000000000000000000000000000000000000000815260040161149690613d4e565b60405180910390fd5b6114ac8383836001612201565b8273ffffffffffffffffffffffffffffffffffffffff166114cc826108c9565b73ffffffffffffffffffffffffffffffffffffffff1614611522576040517f08c379a000000000000000000000000000000000000000000000000000000000815260040161151990613cbc565b60405180910390fd5b6004600082815260200190815260200160002060006101000a81549073ffffffffffffffffffffffffffffffffffffffff02191690556001600360008573ffffffffffffffffffffffffffffffffffffffff1673ffffffffffffffffffffffffffffffffffffffff168152602001908152602001600020600082825403925050819055506001600360008473ffffffffffffffffffffffffffffffffffffffff1673ffffffffffffffffffffffffffffffffffffffff16815260200190815260200160002060008282540192505081905550816002600083815260200190815260200160002060006101000a81548173ffffffffffffffffffffffffffffffffffffffff021916908373ffffffffffffffffffffffffffffffffffffffff160217905550808273ffffffffffffffffffffffffffffffffffffffff168473ffffffffffffffffffffffffffffffffffffffff167fddf252ad1be2c89b69c2b068fc378daa952ba7f163c4a11628f55a4df523b3ef60405160405180910390a46116ae8383836001612327565b505050565b50565b6116be611264565b73ffffffffffffffffffffffffffffffffffffffff166116dc610cad565b73ffffffffffffffffffffffffffffffffffffffff1614611732576040517f08c379a000000000000000000000000000000000000000000000000000000000815260040161172990613dba565b60405180910390fd5b565b61173c61232d565b6000600760146101000a81548160ff0219169083151502179055507f5db9ee0a495bf2e6ff9c91a7834c1ba4fdd244a5e8aa4e537bd38aeae4b073aa611780611264565b60405161178d919061317b565b60405180910390a1565b60006002600083815260200190815260200160002060009054906101000a900473ffffffffffffffffffffffffffffffffffffffff169050919050565b6000600760009054906101000a900473ffffffffffffffffffffffffffffffffffffffff16905081600760006101000a81548173ffffffffffffffffffffffffffffffffffffffff021916908373ffffffffffffffffffffffffffffffffffffffff1602179055508173ffffffffffffffffffffffffffffffffffffffff168173ffffffffffffffffffffffffffffffffffffffff167f8be0079c531659141344cd1fd0a4f28419497f9722a3daafe3b4186f6b6457e060405160405180910390a35050565b6118a26108b2565b156118e2576040517f08c379a00000000000000000000000000000000000000000000000000000000081526004016118d990613e26565b60405180910390fd5b565b60006118fa675067b7d5d5128cde60c01b6116b3565b61190d66154d1b13dce7ce60c01b6116b3565b6119216713edb21e3d68f09560c01b6116b3565b61193567a4a6160edaac07ea60c01b6116b3565b600b600083815260200190815260200160002060009054906101000a900460ff1615611996576040517f08c379a000000000000000000000000000000000000000000000000000000000815260040161198d90613e92565b60405180910390fd5b6119aa67ade51ff613a345b960c01b6116b3565b6119be6777ac6daae946845a60c01b6116b3565b6001600b600084815260200190815260200160002060006101000a81548160ff0219169083151502179055506119fe67a23684d9d3f767fe60c01b6116b3565b611a126737f0444070c50b9960c01b6116b3565b60008585858530604051602001611a2d959493929190613f3c565b604051602081830303815290604052805190602001209050611a5967957f2955365d481260c01b6116b3565b611a6d6701aab5db745f451e60c01b6116b3565b6000611a8a88611a7c84612376565b6123a690919063ffffffff16565b9050611aa067fe5aabec8947047560c01b6116b3565b611ab4672a596c4d3d80a91a60c01b6116b3565b8073ffffffffffffffffffffffffffffffffffffffff168673ffffffffffffffffffffffffffffffffffffffff1603611b1857611afb6747c7f3b80409533b60c01b6116b3565b611b0f673f15d48c684d744260c01b6116b3565b60019250611b2d565b611b2c67f59d0df50c205cf360c01b6116b3565b5b505095945050505050565b6000611b4e678e981603aff309c060c01b6116b3565b611b62678e0ad9d5b4d8871260c01b6116b3565b611b7667ca6aa523aeb8c98e60c01b6116b3565b6000611b8260086123cd565b9050611b9867e6e2632671fac1ae60c01b6116b3565b611bac67d7300fe013eeb97360c01b6116b3565b611bb660086123db565b611bca67e55029367077289160c01b6116b3565b80600960008673ffffffffffffffffffffffffffffffffffffffff1673ffffffffffffffffffffffffffffffffffffffff16815260200190815260200160002081905550611c22673239dd39d847a69560c01b6116b3565b6001600a60008673ffffffffffffffffffffffffffffffffffffffff1673ffffffffffffffffffffffffffffffffffffffff16815260200190815260200160002060006101000a81548160ff02191690836001811115611c8557611c846138e7565b5b0217905550611c9e67d8d4f1a72d1d2d7360c01b6116b3565b611cb2679af466b5ebfe152560c01b6116b3565b7f296bc27d402fcafd917ad0c965398f24239b22940ed5da6f784f4bd4751a228a848285604051611ce593929190613f97565b60405180910390a1611d016788a40ca9a78a2c8d60c01b6116b3565b611d156756ac78946d7ed07560c01b6116b3565b611d1f84826123f1565b611d3367a1de7c2f47d99d0460c01b6116b3565b611d47677f0e388844ea74b660c01b6116b3565b611d51818461240f565b611d65673aad818d657f32a960c01b6116b3565b611d7967ea36da900d43902660c01b6116b3565b8091505092915050565b611d8b61189a565b6001600760146101000a81548160ff0219169083151502179055507f62e78cea01bee320cd4e420270b5ea74000d11b0c9f74754ebdbfc544b05a258611dcf611264565b604051611ddc919061317b565b60405180910390a1565b8173ffffffffffffffffffffffffffffffffffffffff168373ffffffffffffffffffffffffffffffffffffffff1603611e54576040517f08c379a0000000000000000000000000000000000000000000000000000000008152600401611e4b90614021565b60405180910390fd5b80600560008573ffffffffffffffffffffffffffffffffffffffff1673ffffffffffffffffffffffffffffffffffffffff16815260200190815260200160002060008473ffffffffffffffffffffffffffffffffffffffff1673ffffffffffffffffffffffffffffffffffffffff16815260200190815260200160002060006101000a81548160ff0219169083151502179055508173ffffffffffffffffffffffffffffffffffffffff168373ffffffffffffffffffffffffffffffffffffffff167f17307eab39ab6107e8899845ad3d59bd9653f200f220920489ca2b5937696c3183604051611f45919061300a565b60405180910390a3505050565b611f5d8484846113ba565b611f698484848461247c565b611fa8576040517f08c379a0000000000000000000000000000000000000000000000000000000008152600401611f9f906140b3565b60405180910390fd5b50505050565b611fc267e4cdca315fa3b2b960c01b6116b3565b611fd6675cb4fd2e1b38df1f60c01b6116b3565b6000600a6000611fe4611264565b73ffffffffffffffffffffffffffffffffffffffff1673ffffffffffffffffffffffffffffffffffffffff16815260200190815260200160002060006101000a81548160ff021916908360018111156120405761203f6138e7565b5b021790555061205967c9b794faed393fc960c01b6116b3565b600060096000612067611264565b73ffffffffffffffffffffffffffffffffffffffff1673ffffffffffffffffffffffffffffffffffffffff168152602001908152602001600020819055506120b967c77cc8cdd860218a60c01b6116b3565b6120cd67b1d75469572b32b460c01b6116b3565b7fd70812186a78a59a55ff369a493553d06d83a81ce549d9927f25e7f285ffa4216120f6611264565b826040516121059291906140d3565b60405180910390a161212167e1b74b926e0d13bb60c01b6116b3565b612135676d4096c6b83c665c60c01b6116b3565b61213e81612603565b50565b606060405180602001604052806000815250905090565b606061216382611219565b600061216d612141565b9050600081511161218d57604051806020016040528060008152506121b8565b8061219784612656565b6040516020016121a8929190613b94565b6040516020818303038152906040525b915050919050565b60008073ffffffffffffffffffffffffffffffffffffffff166121e283611797565b73ffffffffffffffffffffffffffffffffffffffff1614159050919050565b600181111561232157600073ffffffffffffffffffffffffffffffffffffffff168473ffffffffffffffffffffffffffffffffffffffff16146122955780600360008673ffffffffffffffffffffffffffffffffffffffff1673ffffffffffffffffffffffffffffffffffffffff168152602001908152602001600020600082825461228d919061412b565b925050819055505b600073ffffffffffffffffffffffffffffffffffffffff168373ffffffffffffffffffffffffffffffffffffffff16146123205780600360008573ffffffffffffffffffffffffffffffffffffffff1673ffffffffffffffffffffffffffffffffffffffff1681526020019081526020016000206000828254612318919061415f565b925050819055505b5b50505050565b50505050565b6123356108b2565b612374576040517f08c379a000000000000000000000000000000000000000000000000000000000815260040161236b906141df565b60405180910390fd5b565b600081604051602001612389919061424b565b604051602081830303815290604052805190602001209050919050565b60008060006123b58585612724565b915091506123c281612775565b819250505092915050565b600081600001549050919050565b6001816000016000828254019250508190555050565b61240b8282604051806020016040528060008152506128db565b5050565b612418826121c0565b612457576040517f08c379a000000000000000000000000000000000000000000000000000000000815260040161244e906142e3565b60405180910390fd5b8060066000848152602001908152602001600020908161247791906144af565b505050565b600061249d8473ffffffffffffffffffffffffffffffffffffffff16612936565b156125f6578373ffffffffffffffffffffffffffffffffffffffff1663150b7a026124c6611264565b8786866040518563ffffffff1660e01b81526004016124e894939291906145d6565b6020604051808303816000875af192505050801561252457506040513d601f19601f820116820180604052508101906125219190614637565b60015b6125a6573d8060008114612554576040519150601f19603f3d011682016040523d82523d6000602084013e612559565b606091505b50600081510361259e576040517f08c379a0000000000000000000000000000000000000000000000000000000008152600401612595906140b3565b60405180910390fd5b805181602001fd5b63150b7a0260e01b7bffffffffffffffffffffffffffffffffffffffffffffffffffffffff1916817bffffffffffffffffffffffffffffffffffffffffffffffffffffffff1916149150506125fb565b600190505b949350505050565b61260c81612959565b600060066000838152602001908152602001600020805461262c90613700565b905014612653576006600082815260200190815260200160002060006126529190612ef9565b5b50565b60606000600161266584612aa7565b01905060008167ffffffffffffffff811115612684576126836132ed565b5b6040519080825280601f01601f1916602001820160405280156126b65781602001600182028036833780820191505090505b509050600082602001820190505b600115612719578080600190039150507f3031323334353637383961626364656600000000000000000000000000000000600a86061a8153600a858161270d5761270c614664565b5b049450600085036126c4575b819350505050919050565b60008060418351036127655760008060006020860151925060408601519150606086015160001a905061275987828585612bfa565b9450945050505061276e565b60006002915091505b9250929050565b60006004811115612789576127886138e7565b5b81600481111561279c5761279b6138e7565b5b03156128d857600160048111156127b6576127b56138e7565b5b8160048111156127c9576127c86138e7565b5b03612809576040517f08c379a0000000000000000000000000000000000000000000000000000000008152600401612800906146df565b60405180910390fd5b6002600481111561281d5761281c6138e7565b5b8160048111156128305761282f6138e7565b5b03612870576040517f08c379a00000000000000000000000000000000000000000000000000000000081526004016128679061474b565b60405180910390fd5b60036004811115612884576128836138e7565b5b816004811115612897576128966138e7565b5b036128d7576040517f08c379a00000000000000000000000000000000000000000000000000000000081526004016128ce906147dd565b60405180910390fd5b5b50565b6128e58383612cdc565b6128f2600084848461247c565b612931576040517f08c379a0000000000000000000000000000000000000000000000000000000008152600401612928906140b3565b60405180910390fd5b505050565b6000808273ffffffffffffffffffffffffffffffffffffffff163b119050919050565b6000612964826108c9565b9050612974816000846001612201565b61297d826108c9565b90506004600083815260200190815260200160002060006101000a81549073ffffffffffffffffffffffffffffffffffffffff02191690556001600360008373ffffffffffffffffffffffffffffffffffffffff1673ffffffffffffffffffffffffffffffffffffffff168152602001908152602001600020600082825403925050819055506002600083815260200190815260200160002060006101000a81549073ffffffffffffffffffffffffffffffffffffffff021916905581600073ffffffffffffffffffffffffffffffffffffffff168273ffffffffffffffffffffffffffffffffffffffff167fddf252ad1be2c89b69c2b068fc378daa952ba7f163c4a11628f55a4df523b3ef60405160405180910390a4612aa3816000846001612327565b5050565b600080600090507a184f03e93ff9f4daa797ed6e38ed64bf6a1f0100000000000000008310612b05577a184f03e93ff9f4daa797ed6e38ed64bf6a1f0100000000000000008381612afb57612afa614664565b5b0492506040810190505b6d04ee2d6d415b85acef81000000008310612b42576d04ee2d6d415b85acef81000000008381612b3857612b37614664565b5b0492506020810190505b662386f26fc100008310612b7157662386f26fc100008381612b6757612b66614664565b5b0492506010810190505b6305f5e1008310612b9a576305f5e1008381612b9057612b8f614664565b5b0492506008810190505b6127108310612bbf576127108381612bb557612bb4614664565b5b0492506004810190505b60648310612be25760648381612bd857612bd7614664565b5b0492506002810190505b600a8310612bf1576001810190505b80915050919050565b6000807f7fffffffffffffffffffffffffffffff5d576e7357a4501ddfe92f46681b20a08360001c1115612c35576000600391509150612cd3565b600060018787878760405160008152602001604052604051612c5a949392919061480c565b6020604051602081039080840390855afa158015612c7c573d6000803e3d6000fd5b505050602060405103519050600073ffffffffffffffffffffffffffffffffffffffff168173ffffffffffffffffffffffffffffffffffffffff1603612cca57600060019250925050612cd3565b80600092509250505b94509492505050565b600073ffffffffffffffffffffffffffffffffffffffff168273ffffffffffffffffffffffffffffffffffffffff1603612d4b576040517f08c379a0000000000000000000000000000000000000000000000000000000008152600401612d429061489d565b60405180910390fd5b612d54816121c0565b15612d94576040517f08c379a0000000000000000000000000000000000000000000000000000000008152600401612d8b90614909565b60405180910390fd5b612da2600083836001612201565b612dab816121c0565b15612deb576040517f08c379a0000000000000000000000000000000000000000000000000000000008152600401612de290614909565b60405180910390fd5b6001600360008473ffffffffffffffffffffffffffffffffffffffff1673ffffffffffffffffffffffffffffffffffffffff16815260200190815260200160002060008282540192505081905550816002600083815260200190815260200160002060006101000a81548173ffffffffffffffffffffffffffffffffffffffff021916908373ffffffffffffffffffffffffffffffffffffffff160217905550808273ffffffffffffffffffffffffffffffffffffffff16600073ffffffffffffffffffffffffffffffffffffffff167fddf252ad1be2c89b69c2b068fc378daa952ba7f163c4a11628f55a4df523b3ef60405160405180910390a4612ef5600083836001612327565b5050565b508054612f0590613700565b6000825580601f10612f175750612f36565b601f016020900490600052602060002090810190612f359190612f39565b5b50565b5b80821115612f52576000816000905550600101612f3a565b5090565b6000604051905090565b600080fd5b600080fd5b60007fffffffff0000000000000000000000000000000000000000000000000000000082169050919050565b612f9f81612f6a565b8114612faa57600080fd5b50565b600081359050612fbc81612f96565b92915050565b600060208284031215612fd857612fd7612f60565b5b6000612fe684828501612fad565b91505092915050565b60008115159050919050565b61300481612fef565b82525050565b600060208201905061301f6000830184612ffb565b92915050565b600081519050919050565b600082825260208201905092915050565b60005b8381101561305f578082015181840152602081019050613044565b60008484015250505050565b6000601f19601f8301169050919050565b600061308782613025565b6130918185613030565b93506130a1818560208601613041565b6130aa8161306b565b840191505092915050565b600060208201905081810360008301526130cf818461307c565b905092915050565b6000819050919050565b6130ea816130d7565b81146130f557600080fd5b50565b600081359050613107816130e1565b92915050565b60006020828403121561312357613122612f60565b5b6000613131848285016130f8565b91505092915050565b600073ffffffffffffffffffffffffffffffffffffffff82169050919050565b60006131658261313a565b9050919050565b6131758161315a565b82525050565b6000602082019050613190600083018461316c565b92915050565b61319f8161315a565b81146131aa57600080fd5b50565b6000813590506131bc81613196565b92915050565b600080604083850312156131d9576131d8612f60565b5b60006131e7858286016131ad565b92505060206131f8858286016130f8565b9150509250929050565b60008060006060848603121561321b5761321a612f60565b5b6000613229868287016131ad565b935050602061323a868287016131ad565b925050604061324b868287016130f8565b9150509250925092565b60006020828403121561326b5761326a612f60565b5b6000613279848285016131ad565b91505092915050565b600060ff82169050919050565b61329881613282565b82525050565b60006020820190506132b3600083018461328f565b92915050565b6132c2816130d7565b82525050565b60006020820190506132dd60008301846132b9565b92915050565b600080fd5b600080fd5b7f4e487b7100000000000000000000000000000000000000000000000000000000600052604160045260246000fd5b6133258261306b565b810181811067ffffffffffffffff82111715613344576133436132ed565b5b80604052505050565b6000613357612f56565b9050613363828261331c565b919050565b600067ffffffffffffffff821115613383576133826132ed565b5b61338c8261306b565b9050602081019050919050565b82818337600083830152505050565b60006133bb6133b684613368565b61334d565b9050828152602081018484840111156133d7576133d66132e8565b5b6133e2848285613399565b509392505050565b600082601f8301126133ff576133fe6132e3565b5b813561340f8482602086016133a8565b91505092915050565b6000819050919050565b61342b81613418565b811461343657600080fd5b50565b60008135905061344881613422565b92915050565b600067ffffffffffffffff821115613469576134686132ed565b5b6134728261306b565b9050602081019050919050565b600061349261348d8461344e565b61334d565b9050828152602081018484840111156134ae576134ad6132e8565b5b6134b9848285613399565b509392505050565b600082601f8301126134d6576134d56132e3565b5b81356134e684826020860161347f565b91505092915050565b600080600080600060a0868803121561350b5761350a612f60565b5b600086013567ffffffffffffffff81111561352957613528612f65565b5b613535888289016133ea565b955050602061354688828901613439565b9450506040613557888289016131ad565b935050606086013567ffffffffffffffff81111561357857613577612f65565b5b613584888289016134c1565b9250506080613595888289016130f8565b9150509295509295909350565b6135ab81612fef565b81146135b657600080fd5b50565b6000813590506135c8816135a2565b92915050565b600080604083850312156135e5576135e4612f60565b5b60006135f3858286016131ad565b9250506020613604858286016135b9565b9150509250929050565b6000806000806080858703121561362857613627612f60565b5b6000613636878288016131ad565b9450506020613647878288016131ad565b9350506040613658878288016130f8565b925050606085013567ffffffffffffffff81111561367957613678612f65565b5b613685878288016133ea565b91505092959194509250565b600080604083850312156136a8576136a7612f60565b5b60006136b6858286016131ad565b92505060206136c7858286016131ad565b9150509250929050565b7f4e487b7100000000000000000000000000000000000000000000000000000000600052602260045260246000fd5b6000600282049050600182168061371857607f821691505b60208210810361372b5761372a6136d1565b5b50919050565b7f4552433732313a20617070726f76616c20746f2063757272656e74206f776e6560008201527f7200000000000000000000000000000000000000000000000000000000000000602082015250565b600061378d602183613030565b915061379882613731565b604082019050919050565b600060208201905081810360008301526137bc81613780565b9050919050565b7f4552433732313a20617070726f76652063616c6c6572206973206e6f7420746f60008201527f6b656e206f776e6572206f7220617070726f76656420666f7220616c6c000000602082015250565b600061381f603d83613030565b915061382a826137c3565b604082019050919050565b6000602082019050818103600083015261384e81613812565b9050919050565b7f4552433732313a2063616c6c6572206973206e6f7420746f6b656e206f776e6560008201527f72206f7220617070726f76656400000000000000000000000000000000000000602082015250565b60006138b1602d83613030565b91506138bc82613855565b604082019050919050565b600060208201905081810360008301526138e0816138a4565b9050919050565b7f4e487b7100000000000000000000000000000000000000000000000000000000600052602160045260246000fd5b7f4552433732313a20696e76616c696420746f6b656e2049440000000000000000600082015250565b600061394c601883613030565b915061395782613916565b602082019050919050565b6000602082019050818103600083015261397b8161393f565b9050919050565b7f4552433732313a2061646472657373207a65726f206973206e6f74206120766160008201527f6c6964206f776e65720000000000000000000000000000000000000000000000602082015250565b60006139de602983613030565b91506139e982613982565b604082019050919050565b60006020820190508181036000830152613a0d816139d1565b9050919050565b7f52454a5556453a20496e76616c6964205369676e617475726500000000000000600082015250565b6000613a4a601983613030565b9150613a5582613a14565b602082019050919050565b60006020820190508181036000830152613a7981613a3d565b9050919050565b7f52454a5556453a204f6e65204964656e74697479205065722055736572000000600082015250565b6000613ab6601d83613030565b9150613ac182613a80565b602082019050919050565b60006020820190508181036000830152613ae581613aa9565b9050919050565b7f52454a5556453a204f6e6c79204964656e74697479204f776e65720000000000600082015250565b6000613b22601b83613030565b9150613b2d82613aec565b602082019050919050565b60006020820190508181036000830152613b5181613b15565b9050919050565b600081905092915050565b6000613b6e82613025565b613b788185613b58565b9350613b88818560208601613041565b80840191505092915050565b6000613ba08285613b63565b9150613bac8284613b63565b91508190509392505050565b7f4f776e61626c653a206e6577206f776e657220697320746865207a65726f206160008201527f6464726573730000000000000000000000000000000000000000000000000000602082015250565b6000613c14602683613030565b9150613c1f82613bb8565b604082019050919050565b60006020820190508181036000830152613c4381613c07565b9050919050565b7f4552433732313a207472616e736665722066726f6d20696e636f72726563742060008201527f6f776e6572000000000000000000000000000000000000000000000000000000602082015250565b6000613ca6602583613030565b9150613cb182613c4a565b604082019050919050565b60006020820190508181036000830152613cd581613c99565b9050919050565b7f4552433732313a207472616e7366657220746f20746865207a65726f2061646460008201527f7265737300000000000000000000000000000000000000000000000000000000602082015250565b6000613d38602483613030565b9150613d4382613cdc565b604082019050919050565b60006020820190508181036000830152613d6781613d2b565b9050919050565b7f4f776e61626c653a2063616c6c6572206973206e6f7420746865206f776e6572600082015250565b6000613da4602083613030565b9150613daf82613d6e565b602082019050919050565b60006020820190508181036000830152613dd381613d97565b9050919050565b7f5061757361626c653a2070617573656400000000000000000000000000000000600082015250565b6000613e10601083613030565b9150613e1b82613dda565b602082019050919050565b60006020820190508181036000830152613e3f81613e03565b9050919050565b7f52454a5556453a205369676e6174757265207573656420616c72656164790000600082015250565b6000613e7c601e83613030565b9150613e8782613e46565b602082019050919050565b60006020820190508181036000830152613eab81613e6f565b9050919050565b6000819050919050565b613ecd613ec882613418565b613eb2565b82525050565b60008160601b9050919050565b6000613eeb82613ed3565b9050919050565b6000613efd82613ee0565b9050919050565b613f15613f108261315a565b613ef2565b82525050565b6000819050919050565b613f36613f31826130d7565b613f1b565b82525050565b6000613f488288613ebc565b602082019150613f588287613f04565b601482019150613f688286613b63565b9150613f748285613f25565b602082019150613f848284613f04565b6014820191508190509695505050505050565b6000606082019050613fac600083018661316c565b613fb960208301856132b9565b8181036040830152613fcb818461307c565b9050949350505050565b7f4552433732313a20617070726f766520746f2063616c6c657200000000000000600082015250565b600061400b601983613030565b915061401682613fd5565b602082019050919050565b6000602082019050818103600083015261403a81613ffe565b9050919050565b7f4552433732313a207472616e7366657220746f206e6f6e20455243373231526560008201527f63656976657220696d706c656d656e7465720000000000000000000000000000602082015250565b600061409d603283613030565b91506140a882614041565b604082019050919050565b600060208201905081810360008301526140cc81614090565b9050919050565b60006040820190506140e8600083018561316c565b6140f560208301846132b9565b9392505050565b7f4e487b7100000000000000000000000000000000000000000000000000000000600052601160045260246000fd5b6000614136826130d7565b9150614141836130d7565b9250828203905081811115614159576141586140fc565b5b92915050565b600061416a826130d7565b9150614175836130d7565b925082820190508082111561418d5761418c6140fc565b5b92915050565b7f5061757361626c653a206e6f7420706175736564000000000000000000000000600082015250565b60006141c9601483613030565b91506141d482614193565b602082019050919050565b600060208201905081810360008301526141f8816141bc565b9050919050565b7f19457468657265756d205369676e6564204d6573736167653a0a333200000000600082015250565b6000614235601c83613b58565b9150614240826141ff565b601c82019050919050565b600061425682614228565b91506142628284613ebc565b60208201915081905092915050565b7f45524337323155524953746f726167653a2055524920736574206f66206e6f6e60008201527f6578697374656e7420746f6b656e000000000000000000000000000000000000602082015250565b60006142cd602e83613030565b91506142d882614271565b604082019050919050565b600060208201905081810360008301526142fc816142c0565b9050919050565b60008190508160005260206000209050919050565b60006020601f8301049050919050565b600082821b905092915050565b6000600883026143657fffffffffffffffffffffffffffffffffffffffffffffffffffffffffffffffff82614328565b61436f8683614328565b95508019841693508086168417925050509392505050565b6000819050919050565b60006143ac6143a76143a2846130d7565b614387565b6130d7565b9050919050565b6000819050919050565b6143c683614391565b6143da6143d2826143b3565b848454614335565b825550505050565b600090565b6143ef6143e2565b6143fa8184846143bd565b505050565b5b8181101561441e576144136000826143e7565b600181019050614400565b5050565b601f8211156144635761443481614303565b61443d84614318565b8101602085101561444c578190505b61446061445885614318565b8301826143ff565b50505b505050565b600082821c905092915050565b600061448660001984600802614468565b1980831691505092915050565b600061449f8383614475565b9150826002028217905092915050565b6144b882613025565b67ffffffffffffffff8111156144d1576144d06132ed565b5b6144db8254613700565b6144e6828285614422565b600060209050601f8311600181146145195760008415614507578287015190505b6145118582614493565b865550614579565b601f19841661452786614303565b60005b8281101561454f5784890151825560018201915060208501945060208101905061452a565b8683101561456c5784890151614568601f891682614475565b8355505b6001600288020188555050505b505050505050565b600081519050919050565b600082825260208201905092915050565b60006145a882614581565b6145b2818561458c565b93506145c2818560208601613041565b6145cb8161306b565b840191505092915050565b60006080820190506145eb600083018761316c565b6145f8602083018661316c565b61460560408301856132b9565b8181036060830152614617818461459d565b905095945050505050565b60008151905061463181612f96565b92915050565b60006020828403121561464d5761464c612f60565b5b600061465b84828501614622565b91505092915050565b7f4e487b7100000000000000000000000000000000000000000000000000000000600052601260045260246000fd5b7f45434453413a20696e76616c6964207369676e61747572650000000000000000600082015250565b60006146c9601883613030565b91506146d482614693565b602082019050919050565b600060208201905081810360008301526146f8816146bc565b9050919050565b7f45434453413a20696e76616c6964207369676e6174757265206c656e67746800600082015250565b6000614735601f83613030565b9150614740826146ff565b602082019050919050565b6000602082019050818103600083015261476481614728565b9050919050565b7f45434453413a20696e76616c6964207369676e6174757265202773272076616c60008201527f7565000000000000000000000000000000000000000000000000000000000000602082015250565b60006147c7602283613030565b91506147d28261476b565b604082019050919050565b600060208201905081810360008301526147f6816147ba565b9050919050565b61480681613418565b82525050565b600060808201905061482160008301876147fd565b61482e602083018661328f565b61483b60408301856147fd565b61484860608301846147fd565b95945050505050565b7f4552433732313a206d696e7420746f20746865207a65726f2061646472657373600082015250565b6000614887602083613030565b915061489282614851565b602082019050919050565b600060208201905081810360008301526148b68161487a565b9050919050565b7f4552433732313a20746f6b656e20616c7265616479206d696e74656400000000600082015250565b60006148f3601c83613030565b91506148fe826148bd565b602082019050919050565b60006020820190508181036000830152614922816148e6565b905091905056fea26469706673582212200f3dc7da33b38619fd9f4ccc9f0f9dfa11c3673542fa4c6cd3be029de799ae0364736f6c63430008130033",
  "linkReferences": {},
  "deployedLinkReferences": {}
}