{
  "_format": "hh-sol-artifact-1",
  "contractName": "IdentityToken",
  "sourceName": "contracts/IdentityToken.sol",
  "abi": [
    {
      "inputs": [
        {
          "internalType": "string",
          "name": "name_",
          "type": "string"
        },
        {
          "internalType": "string",
          "name": "symbol_",
          "type": "string"
        }
      ],
      "stateMutability": "nonpayable",
      "type": "constructor"
    },
    {
      "anonymous": false,
      "inputs": [
        {
          "indexed": true,
          "internalType": "address",
          "name": "owner",
          "type": "address"
        },
        {
          "indexed": true,
          "internalType": "address",
          "name": "approved",
          "type": "address"
        },
        {
          "indexed": true,
          "internalType": "uint256",
          "name": "tokenId",
          "type": "uint256"
        }
      ],
      "name": "Approval",
      "type": "event"
    },
    {
      "anonymous": false,
      "inputs": [
        {
          "indexed": true,
          "internalType": "address",
          "name": "owner",
          "type": "address"
        },
        {
          "indexed": true,
          "internalType": "address",
          "name": "operator",
          "type": "address"
        },
        {
          "indexed": false,
          "internalType": "bool",
          "name": "approved",
          "type": "bool"
        }
      ],
      "name": "ApprovalForAll",
      "type": "event"
    },
    {
      "anonymous": false,
      "inputs": [
        {
          "indexed": false,
          "internalType": "address",
          "name": "caller",
          "type": "address"
        },
        {
          "indexed": false,
          "internalType": "uint256",
          "name": "tokenId",
          "type": "uint256"
        }
      ],
      "name": "IdentityCreated",
      "type": "event"
    },
    {
      "anonymous": false,
      "inputs": [
        {
          "indexed": false,
          "internalType": "address",
          "name": "owner",
          "type": "address"
        },
        {
          "indexed": false,
          "internalType": "uint256",
          "name": "ownerId",
          "type": "uint256"
        }
      ],
      "name": "IdentityDestroyed",
      "type": "event"
    },
    {
      "anonymous": false,
      "inputs": [
        {
          "indexed": true,
          "internalType": "address",
          "name": "previousOwner",
          "type": "address"
        },
        {
          "indexed": true,
          "internalType": "address",
          "name": "newOwner",
          "type": "address"
        }
      ],
      "name": "OwnershipTransferred",
      "type": "event"
    },
    {
      "anonymous": false,
      "inputs": [
        {
          "indexed": false,
          "internalType": "address",
          "name": "account",
          "type": "address"
        }
      ],
      "name": "Paused",
      "type": "event"
    },
    {
      "anonymous": false,
      "inputs": [
        {
          "indexed": true,
          "internalType": "address",
          "name": "from",
          "type": "address"
        },
        {
          "indexed": true,
          "internalType": "address",
          "name": "to",
          "type": "address"
        },
        {
          "indexed": true,
          "internalType": "uint256",
          "name": "tokenId",
          "type": "uint256"
        }
      ],
      "name": "Transfer",
      "type": "event"
    },
    {
      "anonymous": false,
      "inputs": [
        {
          "indexed": false,
          "internalType": "address",
          "name": "account",
          "type": "address"
        }
      ],
      "name": "Unpaused",
      "type": "event"
    },
    {
      "inputs": [
        {
          "internalType": "address",
          "name": "to",
          "type": "address"
        },
        {
          "internalType": "uint256",
          "name": "tokenId",
          "type": "uint256"
        }
      ],
      "name": "approve",
      "outputs": [],
      "stateMutability": "nonpayable",
      "type": "function"
    },
    {
      "inputs": [
        {
          "internalType": "address",
          "name": "owner",
          "type": "address"
        }
      ],
      "name": "balanceOf",
      "outputs": [
        {
          "internalType": "uint256",
          "name": "",
          "type": "uint256"
        }
      ],
      "stateMutability": "view",
      "type": "function"
    },
    {
      "inputs": [
        {
          "internalType": "uint256",
          "name": "_tokenId",
          "type": "uint256"
        }
      ],
      "name": "burnIdentity",
      "outputs": [],
      "stateMutability": "nonpayable",
      "type": "function"
    },
    {
      "inputs": [
        {
          "internalType": "bytes",
          "name": "_signature",
          "type": "bytes"
        },
        {
          "internalType": "address",
          "name": "_signer",
          "type": "address"
        },
        {
          "internalType": "string",
          "name": "_tokenURI",
          "type": "string"
        },
        {
          "internalType": "uint256",
          "name": "_nonce",
          "type": "uint256"
        }
      ],
      "name": "createIdentity",
      "outputs": [],
      "stateMutability": "nonpayable",
      "type": "function"
    },
    {
      "inputs": [
        {
          "internalType": "uint256",
          "name": "tokenId",
          "type": "uint256"
        }
      ],
      "name": "getApproved",
      "outputs": [
        {
          "internalType": "address",
          "name": "",
          "type": "address"
        }
      ],
      "stateMutability": "view",
      "type": "function"
    },
    {
      "inputs": [
        {
          "internalType": "address",
          "name": "_owner",
          "type": "address"
        }
      ],
      "name": "getOwnerIdentity",
      "outputs": [
        {
          "internalType": "uint256",
          "name": "",
          "type": "uint256"
        }
      ],
      "stateMutability": "view",
      "type": "function"
    },
    {
      "inputs": [
        {
          "internalType": "address",
          "name": "_userAccount",
          "type": "address"
        }
      ],
      "name": "ifRegistered",
      "outputs": [
        {
          "internalType": "uint8",
          "name": "",
          "type": "uint8"
        }
      ],
      "stateMutability": "view",
      "type": "function"
    },
    {
      "inputs": [
        {
          "internalType": "address",
          "name": "owner",
          "type": "address"
        },
        {
          "internalType": "address",
          "name": "operator",
          "type": "address"
        }
      ],
      "name": "isApprovedForAll",
      "outputs": [
        {
          "internalType": "bool",
          "name": "",
          "type": "bool"
        }
      ],
      "stateMutability": "view",
      "type": "function"
    },
    {
      "inputs": [],
      "name": "name",
      "outputs": [
        {
          "internalType": "string",
          "name": "",
          "type": "string"
        }
      ],
      "stateMutability": "view",
      "type": "function"
    },
    {
      "inputs": [],
      "name": "owner",
      "outputs": [
        {
          "internalType": "address",
          "name": "",
          "type": "address"
        }
      ],
      "stateMutability": "view",
      "type": "function"
    },
    {
      "inputs": [
        {
          "internalType": "uint256",
          "name": "tokenId",
          "type": "uint256"
        }
      ],
      "name": "ownerOf",
      "outputs": [
        {
          "internalType": "address",
          "name": "",
          "type": "address"
        }
      ],
      "stateMutability": "view",
      "type": "function"
    },
    {
      "inputs": [],
      "name": "pause",
      "outputs": [],
      "stateMutability": "nonpayable",
      "type": "function"
    },
    {
      "inputs": [],
      "name": "paused",
      "outputs": [
        {
          "internalType": "bool",
          "name": "",
          "type": "bool"
        }
      ],
      "stateMutability": "view",
      "type": "function"
    },
    {
      "inputs": [],
      "name": "renounceOwnership",
      "outputs": [],
      "stateMutability": "nonpayable",
      "type": "function"
    },
    {
      "inputs": [
        {
          "internalType": "address",
          "name": "from",
          "type": "address"
        },
        {
          "internalType": "address",
          "name": "to",
          "type": "address"
        },
        {
          "internalType": "uint256",
          "name": "tokenId",
          "type": "uint256"
        }
      ],
      "name": "safeTransferFrom",
      "outputs": [],
      "stateMutability": "nonpayable",
      "type": "function"
    },
    {
      "inputs": [
        {
          "internalType": "address",
          "name": "from",
          "type": "address"
        },
        {
          "internalType": "address",
          "name": "to",
          "type": "address"
        },
        {
          "internalType": "uint256",
          "name": "tokenId",
          "type": "uint256"
        },
        {
          "internalType": "bytes",
          "name": "_data",
          "type": "bytes"
        }
      ],
      "name": "safeTransferFrom",
      "outputs": [],
      "stateMutability": "nonpayable",
      "type": "function"
    },
    {
      "inputs": [
        {
          "internalType": "address",
          "name": "operator",
          "type": "address"
        },
        {
          "internalType": "bool",
          "name": "approved",
          "type": "bool"
        }
      ],
      "name": "setApprovalForAll",
      "outputs": [],
      "stateMutability": "nonpayable",
      "type": "function"
    },
    {
      "inputs": [
        {
          "internalType": "bytes4",
          "name": "interfaceId",
          "type": "bytes4"
        }
      ],
      "name": "supportsInterface",
      "outputs": [
        {
          "internalType": "bool",
          "name": "",
          "type": "bool"
        }
      ],
      "stateMutability": "view",
      "type": "function"
    },
    {
      "inputs": [],
      "name": "symbol",
      "outputs": [
        {
          "internalType": "string",
          "name": "",
          "type": "string"
        }
      ],
      "stateMutability": "view",
      "type": "function"
    },
    {
      "inputs": [
        {
          "internalType": "uint256",
          "name": "tokenId",
          "type": "uint256"
        }
      ],
      "name": "tokenURI",
      "outputs": [
        {
          "internalType": "string",
          "name": "",
          "type": "string"
        }
      ],
      "stateMutability": "view",
      "type": "function"
    },
    {
      "inputs": [
        {
          "internalType": "address",
          "name": "from",
          "type": "address"
        },
        {
          "internalType": "address",
          "name": "to",
          "type": "address"
        },
        {
          "internalType": "uint256",
          "name": "tokenId",
          "type": "uint256"
        }
      ],
      "name": "transferFrom",
      "outputs": [],
      "stateMutability": "nonpayable",
      "type": "function"
    },
    {
      "inputs": [
        {
          "internalType": "address",
          "name": "newOwner",
          "type": "address"
        }
      ],
      "name": "transferOwnership",
      "outputs": [],
      "stateMutability": "nonpayable",
      "type": "function"
    },
    {
      "inputs": [],
      "name": "unpause",
      "outputs": [],
      "stateMutability": "nonpayable",
      "type": "function"
    }
  ],
  "bytecode": "0x60806040523480156200001157600080fd5b50604051620027633803806200276383398101604081905262000034916200027f565b8151829082906200004d9060009060208501906200010c565b508051620000639060019060208401906200010c565b505050620000806200007a620000ad60201b60201c565b620000b1565b6007805460ff60a01b19169055620000a5600862000103602090811b62000c6717901c565b505062000326565b3390565b600780546001600160a01b038381166001600160a01b0319831681179093556040519116919082907f8be0079c531659141344cd1fd0a4f28419497f9722a3daafe3b4186f6b6457e090600090a35050565b80546001019055565b8280546200011a90620002e9565b90600052602060002090601f0160209004810192826200013e576000855562000189565b82601f106200015957805160ff191683800117855562000189565b8280016001018555821562000189579182015b82811115620001895782518255916020019190600101906200016c565b50620001979291506200019b565b5090565b5b808211156200019757600081556001016200019c565b634e487b7160e01b600052604160045260246000fd5b600082601f830112620001da57600080fd5b81516001600160401b0380821115620001f757620001f7620001b2565b604051601f8301601f19908116603f01168101908282118183101715620002225762000222620001b2565b816040528381526020925086838588010111156200023f57600080fd5b600091505b8382101562000263578582018301518183018401529082019062000244565b83821115620002755760008385830101525b9695505050505050565b600080604083850312156200029357600080fd5b82516001600160401b0380821115620002ab57600080fd5b620002b986838701620001c8565b93506020850151915080821115620002d057600080fd5b50620002df85828601620001c8565b9150509250929050565b600181811c90821680620002fe57607f821691505b602082108114156200032057634e487b7160e01b600052602260045260246000fd5b50919050565b61242d80620003366000396000f3fe608060405234801561001057600080fd5b506004361061014d5760003560e01c806370a08231116100c3578063b88d4fde1161007c578063b88d4fde146102b7578063c5d56ec7146102ca578063c87b56dd146102dd578063e985e9c5146102f0578063ea32fff71461032c578063f2fde38b1461035557600080fd5b806370a082311461025a578063715018a61461027b5780638456cb59146102835780638da5cb5b1461028b57806395d89b411461029c578063a22cb465146102a457600080fd5b80633af279b5116101155780633af279b5146101e25780633f4ba83a146101f557806342842e0e146101fd5780634b557d8a146102105780635c975abb146102355780636352211e1461024757600080fd5b806301ffc9a71461015257806306fdde031461017a578063081812fc1461018f578063095ea7b3146101ba57806323b872dd146101cf575b600080fd5b610165610160366004611df4565b610368565b60405190151581526020015b60405180910390f35b6101826103ba565b6040516101719190611e69565b6101a261019d366004611e7c565b61044c565b6040516001600160a01b039091168152602001610171565b6101cd6101c8366004611eb1565b6104d9565b005b6101cd6101dd366004611edb565b6105ef565b6101cd6101f0366004611fc3565b610620565b6101cd610758565b6101cd61020b366004611edb565b61078c565b61022361021e366004612053565b6107a7565b60405160ff9091168152602001610171565b600754600160a01b900460ff16610165565b6101a2610255366004611e7c565b6107d4565b61026d610268366004612053565b61084b565b604051908152602001610171565b6101cd6108d2565b6101cd610906565b6007546001600160a01b03166101a2565b610182610938565b6101cd6102b236600461206e565b610947565b6101cd6102c53660046120aa565b610956565b6101cd6102d8366004611e7c565b61098e565b6101826102eb366004611e7c565b610a55565b6101656102fe366004612112565b6001600160a01b03918216600090815260056020908152604080832093909416825291909152205460ff1690565b61026d61033a366004612053565b6001600160a01b031660009081526009602052604090205490565b6101cd610363366004612053565b610bcc565b60006001600160e01b031982166380ac58cd60e01b148061039957506001600160e01b03198216635b5e139f60e01b145b806103b457506301ffc9a760e01b6001600160e01b03198316145b92915050565b6060600080546103c990612145565b80601f01602080910402602001604051908101604052809291908181526020018280546103f590612145565b80156104425780601f1061041757610100808354040283529160200191610442565b820191906000526020600020905b81548152906001019060200180831161042557829003601f168201915b5050505050905090565b600061045782610c70565b6104bd5760405162461bcd60e51b815260206004820152602c60248201527f4552433732313a20617070726f76656420717565727920666f72206e6f6e657860448201526b34b9ba32b73a103a37b5b2b760a11b60648201526084015b60405180910390fd5b506000908152600460205260409020546001600160a01b031690565b60006104e4826107d4565b9050806001600160a01b0316836001600160a01b031614156105525760405162461bcd60e51b815260206004820152602160248201527f4552433732313a20617070726f76616c20746f2063757272656e74206f776e656044820152603960f91b60648201526084016104b4565b336001600160a01b038216148061056e575061056e81336102fe565b6105e05760405162461bcd60e51b815260206004820152603860248201527f4552433732313a20617070726f76652063616c6c6572206973206e6f74206f7760448201527f6e6572206e6f7220617070726f76656420666f7220616c6c000000000000000060648201526084016104b4565b6105ea8383610c8d565b505050565b6105f93382610cfb565b6106155760405162461bcd60e51b81526004016104b490612180565b6105ea838383610de1565b600754600160a01b900460ff161561066d5760405162461bcd60e51b815260206004820152601060248201526f14185d5cd8589b194e881c185d5cd95960821b60448201526064016104b4565b8383838361067d84848484610f7d565b6106c95760405162461bcd60e51b815260206004820152601960248201527f52454a5556453a20496e76616c6964205369676e61747572650000000000000060448201526064016104b4565b6001600160a01b0387166000908152600a602052604081205460ff1660018111156106f6576106f66121d1565b146107435760405162461bcd60e51b815260206004820152601d60248201527f52454a5556453a204f6e65204964656e7469747920506572205573657200000060448201526064016104b4565b61074d87876110ba565b505050505050505050565b6007546001600160a01b031633146107825760405162461bcd60e51b81526004016104b4906121e7565b61078a611157565b565b6105ea83838360405180602001604052806000815250610956565b6001600160a01b0381166000908152600a602052604081205460ff1660018111156103b4576103b46121d1565b6000818152600260205260408120546001600160a01b0316806103b45760405162461bcd60e51b815260206004820152602960248201527f4552433732313a206f776e657220717565727920666f72206e6f6e657869737460448201526832b73a103a37b5b2b760b91b60648201526084016104b4565b60006001600160a01b0382166108b65760405162461bcd60e51b815260206004820152602a60248201527f4552433732313a2062616c616e636520717565727920666f7220746865207a65604482015269726f206164647265737360b01b60648201526084016104b4565b506001600160a01b031660009081526003602052604090205490565b6007546001600160a01b031633146108fc5760405162461bcd60e51b81526004016104b4906121e7565b61078a60006111f4565b6007546001600160a01b031633146109305760405162461bcd60e51b81526004016104b4906121e7565b61078a611246565b6060600180546103c990612145565b6109523383836112ce565b5050565b6109603383610cfb565b61097c5760405162461bcd60e51b81526004016104b490612180565b6109888484848461139d565b50505050565b33600090815260096020526040902054819081146109ee5760405162461bcd60e51b815260206004820152601b60248201527f52454a5556453a204f6e6c79204964656e74697479204f776e6572000000000060448201526064016104b4565b6109f7826113d0565b336000818152600a60209081526040808320805460ff191690556009825280832092909255815192835282018490527fd70812186a78a59a55ff369a493553d06d83a81ce549d9927f25e7f285ffa421910160405180910390a15050565b6060610a6082610c70565b610ac65760405162461bcd60e51b815260206004820152603160248201527f45524337323155524953746f726167653a2055524920717565727920666f72206044820152703737b732bc34b9ba32b73a103a37b5b2b760791b60648201526084016104b4565b60008281526006602052604081208054610adf90612145565b80601f0160208091040260200160405190810160405280929190818152602001828054610b0b90612145565b8015610b585780601f10610b2d57610100808354040283529160200191610b58565b820191906000526020600020905b815481529060010190602001808311610b3b57829003601f168201915b505050505090506000610b7660408051602081019091526000815290565b9050805160001415610b89575092915050565b815115610bbb578082604051602001610ba392919061221c565b60405160208183030381529060405292505050919050565b610bc484611410565b949350505050565b6007546001600160a01b03163314610bf65760405162461bcd60e51b81526004016104b4906121e7565b6001600160a01b038116610c5b5760405162461bcd60e51b815260206004820152602660248201527f4f776e61626c653a206e6577206f776e657220697320746865207a65726f206160448201526564647265737360d01b60648201526084016104b4565b610c64816111f4565b50565b80546001019055565b6000908152600260205260409020546001600160a01b0316151590565b600081815260046020526040902080546001600160a01b0319166001600160a01b0384169081179091558190610cc2826107d4565b6001600160a01b03167f8c5be1e5ebec7d5bd14f71427d1e84f3dd0314c0f7b2291e5b200ac8c7c3b92560405160405180910390a45050565b6000610d0682610c70565b610d675760405162461bcd60e51b815260206004820152602c60248201527f4552433732313a206f70657261746f7220717565727920666f72206e6f6e657860448201526b34b9ba32b73a103a37b5b2b760a11b60648201526084016104b4565b6000610d72836107d4565b9050806001600160a01b0316846001600160a01b03161480610dad5750836001600160a01b0316610da28461044c565b6001600160a01b0316145b80610bc457506001600160a01b0380821660009081526005602090815260408083209388168352929052205460ff16610bc4565b826001600160a01b0316610df4826107d4565b6001600160a01b031614610e585760405162461bcd60e51b815260206004820152602560248201527f4552433732313a207472616e736665722066726f6d20696e636f72726563742060448201526437bbb732b960d91b60648201526084016104b4565b6001600160a01b038216610eba5760405162461bcd60e51b8152602060048201526024808201527f4552433732313a207472616e7366657220746f20746865207a65726f206164646044820152637265737360e01b60648201526084016104b4565b610ec5600082610c8d565b6001600160a01b0383166000908152600360205260408120805460019290610eee908490612261565b90915550506001600160a01b0382166000908152600360205260408120805460019290610f1c908490612278565b909155505060008181526002602052604080822080546001600160a01b0319166001600160a01b0386811691821790925591518493918716917fddf252ad1be2c89b69c2b068fc378daa952ba7f163c4a11628f55a4df523b3ef91a4505050565b6000818152600b602052604081205460ff1615610fdc5760405162461bcd60e51b815260206004820152601e60248201527f52454a5556453a205369676e6174757265207573656420616c7265616479000060448201526064016104b4565b6000828152600b60209081526040808320805460ff191660011790555161100b91879187918791309101612290565b604051602081830303815290604052805190602001209050600061108687611080846040517f19457468657265756d205369676e6564204d6573736167653a0a3332000000006020820152603c8101829052600090605c01604051602081830303815290604052805190602001209050919050565b906114e8565b9050806001600160a01b0316866001600160a01b031614156110ad57600192505050610bc4565b5060009695505050505050565b6000806110c660085490565b90506110d6600880546001019055565b6110e0848261150c565b6110ea8184611526565b6001600160a01b0384166000818152600960209081526040808320859055600a825291829020805460ff19166001179055815192835282018390527fe8d47b56e8cdfa95f871b19d4f50a857217c44a95502b0811a350fec1500dd67910160405180910390a19392505050565b600754600160a01b900460ff166111a75760405162461bcd60e51b815260206004820152601460248201527314185d5cd8589b194e881b9bdd081c185d5cd95960621b60448201526064016104b4565b6007805460ff60a01b191690557f5db9ee0a495bf2e6ff9c91a7834c1ba4fdd244a5e8aa4e537bd38aeae4b073aa335b6040516001600160a01b03909116815260200160405180910390a1565b600780546001600160a01b038381166001600160a01b0319831681179093556040519116919082907f8be0079c531659141344cd1fd0a4f28419497f9722a3daafe3b4186f6b6457e090600090a35050565b600754600160a01b900460ff16156112935760405162461bcd60e51b815260206004820152601060248201526f14185d5cd8589b194e881c185d5cd95960821b60448201526064016104b4565b6007805460ff60a01b1916600160a01b1790557f62e78cea01bee320cd4e420270b5ea74000d11b0c9f74754ebdbfc544b05a2586111d73390565b816001600160a01b0316836001600160a01b031614156113305760405162461bcd60e51b815260206004820152601960248201527f4552433732313a20617070726f766520746f2063616c6c65720000000000000060448201526064016104b4565b6001600160a01b03838116600081815260056020908152604080832094871680845294825291829020805460ff191686151590811790915591519182527f17307eab39ab6107e8899845ad3d59bd9653f200f220920489ca2b5937696c31910160405180910390a3505050565b6113a8848484610de1565b6113b4848484846115b1565b6109885760405162461bcd60e51b81526004016104b4906122dc565b6113d9816116bb565b600081815260066020526040902080546113f290612145565b159050610c64576000818152600660205260408120610c6491611d0b565b606061141b82610c70565b61147f5760405162461bcd60e51b815260206004820152602f60248201527f4552433732314d657461646174613a2055524920717565727920666f72206e6f60448201526e3732bc34b9ba32b73a103a37b5b2b760891b60648201526084016104b4565b600061149660408051602081019091526000815290565b905060008151116114b657604051806020016040528060008152506114e1565b806114c084611756565b6040516020016114d192919061221c565b6040516020818303038152906040525b9392505050565b60008060006114f78585611854565b91509150611504816118c4565b509392505050565b610952828260405180602001604052806000815250611a7f565b61152f82610c70565b6115925760405162461bcd60e51b815260206004820152602e60248201527f45524337323155524953746f726167653a2055524920736574206f66206e6f6e60448201526d32bc34b9ba32b73a103a37b5b2b760911b60648201526084016104b4565b600082815260066020908152604090912082516105ea92840190611d45565b60006001600160a01b0384163b156116b357604051630a85bd0160e11b81526001600160a01b0385169063150b7a02906115f590339089908890889060040161232e565b602060405180830381600087803b15801561160f57600080fd5b505af192505050801561163f575060408051601f3d908101601f1916820190925261163c9181019061236b565b60015b611699573d80801561166d576040519150601f19603f3d011682016040523d82523d6000602084013e611672565b606091505b5080516116915760405162461bcd60e51b81526004016104b4906122dc565b805181602001fd5b6001600160e01b031916630a85bd0160e11b149050610bc4565b506001610bc4565b60006116c6826107d4565b90506116d3600083610c8d565b6001600160a01b03811660009081526003602052604081208054600192906116fc908490612261565b909155505060008281526002602052604080822080546001600160a01b0319169055518391906001600160a01b038416907fddf252ad1be2c89b69c2b068fc378daa952ba7f163c4a11628f55a4df523b3ef908390a45050565b60608161177a5750506040805180820190915260018152600360fc1b602082015290565b8160005b81156117a4578061178e81612388565b915061179d9050600a836123b9565b915061177e565b60008167ffffffffffffffff8111156117bf576117bf611f17565b6040519080825280601f01601f1916602001820160405280156117e9576020820181803683370190505b5090505b8415610bc4576117fe600183612261565b915061180b600a866123cd565b611816906030612278565b60f81b81838151811061182b5761182b6123e1565b60200101906001600160f81b031916908160001a90535061184d600a866123b9565b94506117ed565b60008082516041141561188b5760208301516040840151606085015160001a61187f87828585611ab2565b945094505050506118bd565b8251604014156118b557602083015160408401516118aa868383611b9f565b9350935050506118bd565b506000905060025b9250929050565b60008160048111156118d8576118d86121d1565b14156118e15750565b60018160048111156118f5576118f56121d1565b14156119435760405162461bcd60e51b815260206004820152601860248201527f45434453413a20696e76616c6964207369676e6174757265000000000000000060448201526064016104b4565b6002816004811115611957576119576121d1565b14156119a55760405162461bcd60e51b815260206004820152601f60248201527f45434453413a20696e76616c6964207369676e6174757265206c656e6774680060448201526064016104b4565b60038160048111156119b9576119b96121d1565b1415611a125760405162461bcd60e51b815260206004820152602260248201527f45434453413a20696e76616c6964207369676e6174757265202773272076616c604482015261756560f01b60648201526084016104b4565b6004816004811115611a2657611a266121d1565b1415610c645760405162461bcd60e51b815260206004820152602260248201527f45434453413a20696e76616c6964207369676e6174757265202776272076616c604482015261756560f01b60648201526084016104b4565b611a898383611bd8565b611a9660008484846115b1565b6105ea5760405162461bcd60e51b81526004016104b4906122dc565b6000807f7fffffffffffffffffffffffffffffff5d576e7357a4501ddfe92f46681b20a0831115611ae95750600090506003611b96565b8460ff16601b14158015611b0157508460ff16601c14155b15611b125750600090506004611b96565b6040805160008082526020820180845289905260ff881692820192909252606081018690526080810185905260019060a0016020604051602081039080840390855afa158015611b66573d6000803e3d6000fd5b5050604051601f1901519150506001600160a01b038116611b8f57600060019250925050611b96565b9150600090505b94509492505050565b6000806001600160ff1b03831681611bbc60ff86901c601b612278565b9050611bca87828885611ab2565b935093505050935093915050565b6001600160a01b038216611c2e5760405162461bcd60e51b815260206004820181905260248201527f4552433732313a206d696e7420746f20746865207a65726f206164647265737360448201526064016104b4565b611c3781610c70565b15611c845760405162461bcd60e51b815260206004820152601c60248201527f4552433732313a20746f6b656e20616c7265616479206d696e7465640000000060448201526064016104b4565b6001600160a01b0382166000908152600360205260408120805460019290611cad908490612278565b909155505060008181526002602052604080822080546001600160a01b0319166001600160a01b03861690811790915590518392907fddf252ad1be2c89b69c2b068fc378daa952ba7f163c4a11628f55a4df523b3ef908290a45050565b508054611d1790612145565b6000825580601f10611d27575050565b601f016020900490600052602060002090810190610c649190611dc9565b828054611d5190612145565b90600052602060002090601f016020900481019282611d735760008555611db9565b82601f10611d8c57805160ff1916838001178555611db9565b82800160010185558215611db9579182015b82811115611db9578251825591602001919060010190611d9e565b50611dc5929150611dc9565b5090565b5b80821115611dc55760008155600101611dca565b6001600160e01b031981168114610c6457600080fd5b600060208284031215611e0657600080fd5b81356114e181611dde565b60005b83811015611e2c578181015183820152602001611e14565b838111156109885750506000910152565b60008151808452611e55816020860160208601611e11565b601f01601f19169290920160200192915050565b6020815260006114e16020830184611e3d565b600060208284031215611e8e57600080fd5b5035919050565b80356001600160a01b0381168114611eac57600080fd5b919050565b60008060408385031215611ec457600080fd5b611ecd83611e95565b946020939093013593505050565b600080600060608486031215611ef057600080fd5b611ef984611e95565b9250611f0760208501611e95565b9150604084013590509250925092565b634e487b7160e01b600052604160045260246000fd5b600067ffffffffffffffff80841115611f4857611f48611f17565b604051601f8501601f19908116603f01168101908282118183101715611f7057611f70611f17565b81604052809350858152868686011115611f8957600080fd5b858560208301376000602087830101525050509392505050565b600082601f830112611fb457600080fd5b6114e183833560208501611f2d565b60008060008060808587031215611fd957600080fd5b843567ffffffffffffffff80821115611ff157600080fd5b611ffd88838901611fa3565b955061200b60208801611e95565b9450604087013591508082111561202157600080fd5b508501601f8101871361203357600080fd5b61204287823560208401611f2d565b949793965093946060013593505050565b60006020828403121561206557600080fd5b6114e182611e95565b6000806040838503121561208157600080fd5b61208a83611e95565b91506020830135801515811461209f57600080fd5b809150509250929050565b600080600080608085870312156120c057600080fd5b6120c985611e95565b93506120d760208601611e95565b925060408501359150606085013567ffffffffffffffff8111156120fa57600080fd5b61210687828801611fa3565b91505092959194509250565b6000806040838503121561212557600080fd5b61212e83611e95565b915061213c60208401611e95565b90509250929050565b600181811c9082168061215957607f821691505b6020821081141561217a57634e487b7160e01b600052602260045260246000fd5b50919050565b60208082526031908201527f4552433732313a207472616e736665722063616c6c6572206973206e6f74206f6040820152701ddb995c881b9bdc88185c1c1c9bdd9959607a1b606082015260800190565b634e487b7160e01b600052602160045260246000fd5b6020808252818101527f4f776e61626c653a2063616c6c6572206973206e6f7420746865206f776e6572604082015260600190565b6000835161222e818460208801611e11565b835190830190612242818360208801611e11565b01949350505050565b634e487b7160e01b600052601160045260246000fd5b6000828210156122735761227361224b565b500390565b6000821982111561228b5761228b61224b565b500190565b60006bffffffffffffffffffffffff19808760601b16835285516122bb816014860160208a01611e11565b90920160148101949094525060609190911b16603482015260480192915050565b60208082526032908201527f4552433732313a207472616e7366657220746f206e6f6e20455243373231526560408201527131b2b4bb32b91034b6b83632b6b2b73a32b960711b606082015260800190565b6001600160a01b038581168252841660208201526040810183905260806060820181905260009061236190830184611e3d565b9695505050505050565b60006020828403121561237d57600080fd5b81516114e181611dde565b600060001982141561239c5761239c61224b565b5060010190565b634e487b7160e01b600052601260045260246000fd5b6000826123c8576123c86123a3565b500490565b6000826123dc576123dc6123a3565b500690565b634e487b7160e01b600052603260045260246000fdfea2646970667358221220100426a470b64c3343de60efe2968e492b73fcd4eb111fad1278e60ad1d34d1064736f6c63430008090033",
  "linkReferences": {},
  "deployedLinkReferences": {}
}