{
  "_format": "hh-sol-artifact-1",
  "contractName": "IdentityToken",
  "sourceName": "contracts/IdentityToken.sol",
  "abi": [
    {
      "inputs": [
        {
          "internalType": "string",
          "name": "name_",
          "type": "string"
        },
        {
          "internalType": "string",
          "name": "symbol_",
          "type": "string"
        }
      ],
      "stateMutability": "nonpayable",
      "type": "constructor"
    },
    {
      "anonymous": false,
      "inputs": [
        {
          "indexed": true,
          "internalType": "address",
          "name": "owner",
          "type": "address"
        },
        {
          "indexed": true,
          "internalType": "address",
          "name": "approved",
          "type": "address"
        },
        {
          "indexed": true,
          "internalType": "uint256",
          "name": "tokenId",
          "type": "uint256"
        }
      ],
      "name": "Approval",
      "type": "event"
    },
    {
      "anonymous": false,
      "inputs": [
        {
          "indexed": true,
          "internalType": "address",
          "name": "owner",
          "type": "address"
        },
        {
          "indexed": true,
          "internalType": "address",
          "name": "operator",
          "type": "address"
        },
        {
          "indexed": false,
          "internalType": "bool",
          "name": "approved",
          "type": "bool"
        }
      ],
      "name": "ApprovalForAll",
      "type": "event"
    },
    {
      "anonymous": false,
      "inputs": [
        {
          "indexed": false,
          "internalType": "address",
          "name": "caller",
          "type": "address"
        },
        {
          "indexed": false,
          "internalType": "uint256",
          "name": "tokenId",
          "type": "uint256"
        }
      ],
      "name": "IdentityCreated",
      "type": "event"
    },
    {
      "anonymous": false,
      "inputs": [
        {
          "indexed": false,
          "internalType": "address",
          "name": "owner",
          "type": "address"
        },
        {
          "indexed": false,
          "internalType": "uint256",
          "name": "ownerId",
          "type": "uint256"
        }
      ],
      "name": "IdentityDestroyed",
      "type": "event"
    },
    {
      "anonymous": false,
      "inputs": [
        {
          "indexed": true,
          "internalType": "address",
          "name": "previousOwner",
          "type": "address"
        },
        {
          "indexed": true,
          "internalType": "address",
          "name": "newOwner",
          "type": "address"
        }
      ],
      "name": "OwnershipTransferred",
      "type": "event"
    },
    {
      "anonymous": false,
      "inputs": [
        {
          "indexed": false,
          "internalType": "address",
          "name": "account",
          "type": "address"
        }
      ],
      "name": "Paused",
      "type": "event"
    },
    {
      "anonymous": false,
      "inputs": [
        {
          "indexed": true,
          "internalType": "address",
          "name": "from",
          "type": "address"
        },
        {
          "indexed": true,
          "internalType": "address",
          "name": "to",
          "type": "address"
        },
        {
          "indexed": true,
          "internalType": "uint256",
          "name": "tokenId",
          "type": "uint256"
        }
      ],
      "name": "Transfer",
      "type": "event"
    },
    {
      "anonymous": false,
      "inputs": [
        {
          "indexed": false,
          "internalType": "address",
          "name": "account",
          "type": "address"
        }
      ],
      "name": "Unpaused",
      "type": "event"
    },
    {
      "inputs": [
        {
          "internalType": "address",
          "name": "to",
          "type": "address"
        },
        {
          "internalType": "uint256",
          "name": "tokenId",
          "type": "uint256"
        }
      ],
      "name": "approve",
      "outputs": [],
      "stateMutability": "nonpayable",
      "type": "function"
    },
    {
      "inputs": [
        {
          "internalType": "address",
          "name": "owner",
          "type": "address"
        }
      ],
      "name": "balanceOf",
      "outputs": [
        {
          "internalType": "uint256",
          "name": "",
          "type": "uint256"
        }
      ],
      "stateMutability": "view",
      "type": "function"
    },
    {
      "inputs": [
        {
          "internalType": "uint256",
          "name": "_tokenId",
          "type": "uint256"
        }
      ],
      "name": "burnIdentity",
      "outputs": [],
      "stateMutability": "nonpayable",
      "type": "function"
    },
    {
      "inputs": [
        {
          "internalType": "bytes",
          "name": "_signature",
          "type": "bytes"
        },
        {
          "internalType": "address",
          "name": "_signer",
          "type": "address"
        },
        {
          "internalType": "string",
          "name": "_tokenURI",
          "type": "string"
        },
        {
          "internalType": "uint256",
          "name": "_nonce",
          "type": "uint256"
        }
      ],
      "name": "createIdentity",
      "outputs": [],
      "stateMutability": "nonpayable",
      "type": "function"
    },
    {
      "inputs": [
        {
          "internalType": "uint256",
          "name": "tokenId",
          "type": "uint256"
        }
      ],
      "name": "getApproved",
      "outputs": [
        {
          "internalType": "address",
          "name": "",
          "type": "address"
        }
      ],
      "stateMutability": "view",
      "type": "function"
    },
    {
      "inputs": [
        {
          "internalType": "address",
          "name": "_owner",
          "type": "address"
        }
      ],
      "name": "getOwnerIdentity",
      "outputs": [
        {
          "internalType": "uint256",
          "name": "",
          "type": "uint256"
        }
      ],
      "stateMutability": "view",
      "type": "function"
    },
    {
      "inputs": [
        {
          "internalType": "address",
          "name": "_userAccount",
          "type": "address"
        }
      ],
      "name": "ifRegistered",
      "outputs": [
        {
          "internalType": "uint8",
          "name": "",
          "type": "uint8"
        }
      ],
      "stateMutability": "view",
      "type": "function"
    },
    {
      "inputs": [
        {
          "internalType": "address",
          "name": "owner",
          "type": "address"
        },
        {
          "internalType": "address",
          "name": "operator",
          "type": "address"
        }
      ],
      "name": "isApprovedForAll",
      "outputs": [
        {
          "internalType": "bool",
          "name": "",
          "type": "bool"
        }
      ],
      "stateMutability": "view",
      "type": "function"
    },
    {
      "inputs": [],
      "name": "name",
      "outputs": [
        {
          "internalType": "string",
          "name": "",
          "type": "string"
        }
      ],
      "stateMutability": "view",
      "type": "function"
    },
    {
      "inputs": [],
      "name": "owner",
      "outputs": [
        {
          "internalType": "address",
          "name": "",
          "type": "address"
        }
      ],
      "stateMutability": "view",
      "type": "function"
    },
    {
      "inputs": [
        {
          "internalType": "uint256",
          "name": "tokenId",
          "type": "uint256"
        }
      ],
      "name": "ownerOf",
      "outputs": [
        {
          "internalType": "address",
          "name": "",
          "type": "address"
        }
      ],
      "stateMutability": "view",
      "type": "function"
    },
    {
      "inputs": [],
      "name": "pause",
      "outputs": [],
      "stateMutability": "nonpayable",
      "type": "function"
    },
    {
      "inputs": [],
      "name": "paused",
      "outputs": [
        {
          "internalType": "bool",
          "name": "",
          "type": "bool"
        }
      ],
      "stateMutability": "view",
      "type": "function"
    },
    {
      "inputs": [],
      "name": "renounceOwnership",
      "outputs": [],
      "stateMutability": "nonpayable",
      "type": "function"
    },
    {
      "inputs": [
        {
          "internalType": "address",
          "name": "from",
          "type": "address"
        },
        {
          "internalType": "address",
          "name": "to",
          "type": "address"
        },
        {
          "internalType": "uint256",
          "name": "tokenId",
          "type": "uint256"
        }
      ],
      "name": "safeTransferFrom",
      "outputs": [],
      "stateMutability": "nonpayable",
      "type": "function"
    },
    {
      "inputs": [
        {
          "internalType": "address",
          "name": "from",
          "type": "address"
        },
        {
          "internalType": "address",
          "name": "to",
          "type": "address"
        },
        {
          "internalType": "uint256",
          "name": "tokenId",
          "type": "uint256"
        },
        {
          "internalType": "bytes",
          "name": "data",
          "type": "bytes"
        }
      ],
      "name": "safeTransferFrom",
      "outputs": [],
      "stateMutability": "nonpayable",
      "type": "function"
    },
    {
      "inputs": [
        {
          "internalType": "address",
          "name": "operator",
          "type": "address"
        },
        {
          "internalType": "bool",
          "name": "approved",
          "type": "bool"
        }
      ],
      "name": "setApprovalForAll",
      "outputs": [],
      "stateMutability": "nonpayable",
      "type": "function"
    },
    {
      "inputs": [
        {
          "internalType": "bytes4",
          "name": "interfaceId",
          "type": "bytes4"
        }
      ],
      "name": "supportsInterface",
      "outputs": [
        {
          "internalType": "bool",
          "name": "",
          "type": "bool"
        }
      ],
      "stateMutability": "view",
      "type": "function"
    },
    {
      "inputs": [],
      "name": "symbol",
      "outputs": [
        {
          "internalType": "string",
          "name": "",
          "type": "string"
        }
      ],
      "stateMutability": "view",
      "type": "function"
    },
    {
      "inputs": [
        {
          "internalType": "uint256",
          "name": "tokenId",
          "type": "uint256"
        }
      ],
      "name": "tokenURI",
      "outputs": [
        {
          "internalType": "string",
          "name": "",
          "type": "string"
        }
      ],
      "stateMutability": "view",
      "type": "function"
    },
    {
      "inputs": [
        {
          "internalType": "address",
          "name": "from",
          "type": "address"
        },
        {
          "internalType": "address",
          "name": "to",
          "type": "address"
        },
        {
          "internalType": "uint256",
          "name": "tokenId",
          "type": "uint256"
        }
      ],
      "name": "transferFrom",
      "outputs": [],
      "stateMutability": "nonpayable",
      "type": "function"
    },
    {
      "inputs": [
        {
          "internalType": "address",
          "name": "newOwner",
          "type": "address"
        }
      ],
      "name": "transferOwnership",
      "outputs": [],
      "stateMutability": "nonpayable",
      "type": "function"
    },
    {
      "inputs": [],
      "name": "unpause",
      "outputs": [],
      "stateMutability": "nonpayable",
      "type": "function"
    }
  ],
  "bytecode": "0x60806040523480156200001157600080fd5b5060405162002623380380620026238339810160408190526200003491620001c1565b81816000620000448382620002ba565b506001620000538282620002ba565b505050620000706200006a6200009d60201b60201c565b620000a1565b6007805460ff60a01b19169055620000956008620000f3602090811b62000abf17901c565b505062000386565b3390565b600780546001600160a01b038381166001600160a01b0319831681179093556040519116919082907f8be0079c531659141344cd1fd0a4f28419497f9722a3daafe3b4186f6b6457e090600090a35050565b80546001019055565b634e487b7160e01b600052604160045260246000fd5b600082601f8301126200012457600080fd5b81516001600160401b0380821115620001415762000141620000fc565b604051601f8301601f19908116603f011681019082821181831017156200016c576200016c620000fc565b816040528381526020925086838588010111156200018957600080fd5b600091505b83821015620001ad57858201830151818301840152908201906200018e565b600093810190920192909252949350505050565b60008060408385031215620001d557600080fd5b82516001600160401b0380821115620001ed57600080fd5b620001fb8683870162000112565b935060208501519150808211156200021257600080fd5b50620002218582860162000112565b9150509250929050565b600181811c908216806200024057607f821691505b6020821081036200026157634e487b7160e01b600052602260045260246000fd5b50919050565b601f821115620002b557600081815260208120601f850160051c81016020861015620002905750805b601f850160051c820191505b81811015620002b1578281556001016200029c565b5050505b505050565b81516001600160401b03811115620002d657620002d6620000fc565b620002ee81620002e784546200022b565b8462000267565b602080601f8311600181146200032657600084156200030d5750858301515b600019600386901b1c1916600185901b178555620002b1565b600085815260208120601f198616915b82811015620003575788860151825594840194600190910190840162000336565b5085821015620003765787850151600019600388901b60f8161c191681555b5050505050600190811b01905550565b61228d80620003966000396000f3fe608060405234801561001057600080fd5b506004361061014d5760003560e01c806370a08231116100c3578063b88d4fde1161007c578063b88d4fde146102b7578063c5d56ec7146102ca578063c87b56dd146102dd578063e985e9c5146102f0578063ea32fff714610303578063f2fde38b1461032c57600080fd5b806370a082311461025a578063715018a61461027b5780638456cb59146102835780638da5cb5b1461028b57806395d89b411461029c578063a22cb465146102a457600080fd5b80633af279b5116101155780633af279b5146101e25780633f4ba83a146101f557806342842e0e146101fd5780634b557d8a146102105780635c975abb146102355780636352211e1461024757600080fd5b806301ffc9a71461015257806306fdde031461017a578063081812fc1461018f578063095ea7b3146101ba57806323b872dd146101cf575b600080fd5b610165610160366004611bbb565b61033f565b60405190151581526020015b60405180910390f35b610182610391565b6040516101719190611c28565b6101a261019d366004611c3b565b610423565b6040516001600160a01b039091168152602001610171565b6101cd6101c8366004611c70565b61044a565b005b6101cd6101dd366004611c9a565b610564565b6101cd6101f0366004611d82565b610595565b6101cd610688565b6101cd61020b366004611c9a565b61069a565b61022361021e366004611e12565b6106b5565b60405160ff9091168152602001610171565b600754600160a01b900460ff16610165565b6101a2610255366004611c3b565b6106e2565b61026d610268366004611e12565b610742565b604051908152602001610171565b6101cd6107c8565b6101cd6107da565b6007546001600160a01b03166101a2565b6101826107ea565b6101cd6102b2366004611e2d565b6107f9565b6101cd6102c5366004611e69565b610808565b6101cd6102d8366004611c3b565b610840565b6101826102eb366004611c3b565b610908565b6101656102fe366004611ed1565b610a18565b61026d610311366004611e12565b6001600160a01b031660009081526009602052604090205490565b6101cd61033a366004611e12565b610a46565b60006001600160e01b031982166380ac58cd60e01b148061037057506001600160e01b03198216635b5e139f60e01b145b8061038b57506301ffc9a760e01b6001600160e01b03198316145b92915050565b6060600080546103a090611f04565b80601f01602080910402602001604051908101604052809291908181526020018280546103cc90611f04565b80156104195780601f106103ee57610100808354040283529160200191610419565b820191906000526020600020905b8154815290600101906020018083116103fc57829003601f168201915b5050505050905090565b600061042e82610ac8565b506000908152600460205260409020546001600160a01b031690565b6000610455826106e2565b9050806001600160a01b0316836001600160a01b0316036104c75760405162461bcd60e51b815260206004820152602160248201527f4552433732313a20617070726f76616c20746f2063757272656e74206f776e656044820152603960f91b60648201526084015b60405180910390fd5b336001600160a01b03821614806104e357506104e38133610a18565b6105555760405162461bcd60e51b815260206004820152603d60248201527f4552433732313a20617070726f76652063616c6c6572206973206e6f7420746f60448201527f6b656e206f776e6572206f7220617070726f76656420666f7220616c6c00000060648201526084016104be565b61055f8383610b27565b505050565b61056e3382610b95565b61058a5760405162461bcd60e51b81526004016104be90611f3e565b61055f838383610bf3565b61059d610d64565b838383836105ad84848484610db1565b6105f95760405162461bcd60e51b815260206004820152601960248201527f52454a5556453a20496e76616c6964205369676e61747572650000000000000060448201526064016104be565b6001600160a01b0387166000908152600a602052604081205460ff16600181111561062657610626611f8b565b146106735760405162461bcd60e51b815260206004820152601d60248201527f52454a5556453a204f6e65204964656e7469747920506572205573657200000060448201526064016104be565b61067d8787610eed565b505050505050505050565b610690610f8a565b610698610fe4565b565b61055f83838360405180602001604052806000815250610808565b6001600160a01b0381166000908152600a602052604081205460ff16600181111561038b5761038b611f8b565b6000818152600260205260408120546001600160a01b03168061038b5760405162461bcd60e51b8152602060048201526018602482015277115490cdcc8c4e881a5b9d985b1a59081d1bdad95b88125160421b60448201526064016104be565b60006001600160a01b0382166107ac5760405162461bcd60e51b815260206004820152602960248201527f4552433732313a2061646472657373207a65726f206973206e6f7420612076616044820152683634b21037bbb732b960b91b60648201526084016104be565b506001600160a01b031660009081526003602052604090205490565b6107d0610f8a565b6106986000611039565b6107e2610f8a565b61069861108b565b6060600180546103a090611f04565b6108043383836110ce565b5050565b6108123383610b95565b61082e5760405162461bcd60e51b81526004016104be90611f3e565b61083a8484848461119c565b50505050565b33600090815260096020526040902054819081146108a05760405162461bcd60e51b815260206004820152601b60248201527f52454a5556453a204f6e6c79204964656e74697479204f776e6572000000000060448201526064016104be565b6108a9826111cf565b336000818152600a60209081526040808320805460ff1916905560098252808320929092558151928352820184905280517fd70812186a78a59a55ff369a493553d06d83a81ce549d9927f25e7f285ffa4219281900390910190a15050565b606061091382610ac8565b6000828152600660205260408120805461092c90611f04565b80601f016020809104026020016040519081016040528092919081815260200182805461095890611f04565b80156109a55780601f1061097a576101008083540402835291602001916109a5565b820191906000526020600020905b81548152906001019060200180831161098857829003601f168201915b5050505050905060006109c360408051602081019091526000815290565b905080516000036109d5575092915050565b815115610a075780826040516020016109ef929190611fa1565b60405160208183030381529060405292505050919050565b610a108461120f565b949350505050565b6001600160a01b03918216600090815260056020908152604080832093909416825291909152205460ff1690565b610a4e610f8a565b6001600160a01b038116610ab35760405162461bcd60e51b815260206004820152602660248201527f4f776e61626c653a206e6577206f776e657220697320746865207a65726f206160448201526564647265737360d01b60648201526084016104be565b610abc81611039565b50565b80546001019055565b6000818152600260205260409020546001600160a01b0316610abc5760405162461bcd60e51b8152602060048201526018602482015277115490cdcc8c4e881a5b9d985b1a59081d1bdad95b88125160421b60448201526064016104be565b600081815260046020526040902080546001600160a01b0319166001600160a01b0384169081179091558190610b5c826106e2565b6001600160a01b03167f8c5be1e5ebec7d5bd14f71427d1e84f3dd0314c0f7b2291e5b200ac8c7c3b92560405160405180910390a45050565b600080610ba1836106e2565b9050806001600160a01b0316846001600160a01b03161480610bc85750610bc88185610a18565b80610a105750836001600160a01b0316610be184610423565b6001600160a01b031614949350505050565b826001600160a01b0316610c06826106e2565b6001600160a01b031614610c2c5760405162461bcd60e51b81526004016104be90611fd0565b6001600160a01b038216610c8e5760405162461bcd60e51b8152602060048201526024808201527f4552433732313a207472616e7366657220746f20746865207a65726f206164646044820152637265737360e01b60648201526084016104be565b610c9b8383836001611283565b826001600160a01b0316610cae826106e2565b6001600160a01b031614610cd45760405162461bcd60e51b81526004016104be90611fd0565b600081815260046020908152604080832080546001600160a01b03199081169091556001600160a01b0387811680865260038552838620805460001901905590871680865283862080546001019055868652600290945282852080549092168417909155905184937fddf252ad1be2c89b69c2b068fc378daa952ba7f163c4a11628f55a4df523b3ef91a4505050565b600754600160a01b900460ff16156106985760405162461bcd60e51b815260206004820152601060248201526f14185d5cd8589b194e881c185d5cd95960821b60448201526064016104be565b6000818152600b602052604081205460ff1615610e105760405162461bcd60e51b815260206004820152601e60248201527f52454a5556453a205369676e6174757265207573656420616c7265616479000060448201526064016104be565b6000828152600b60209081526040808320805460ff1916600117905551610e3f91879187918791309101612015565b6040516020818303038152906040528051906020012090506000610eba87610eb4846040517f19457468657265756d205369676e6564204d6573736167653a0a3332000000006020820152603c8101829052600090605c01604051602081830303815290604052805190602001209050919050565b9061130b565b9050806001600160a01b0316866001600160a01b031603610ee057600192505050610a10565b5060009695505050505050565b600080610ef960085490565b9050610f09600880546001019055565b610f13848261132f565b610f1d8184611349565b6001600160a01b0384166000818152600960209081526040808320859055600a825291829020805460ff19166001179055815192835282018390527fe8d47b56e8cdfa95f871b19d4f50a857217c44a95502b0811a350fec1500dd67910160405180910390a19392505050565b6007546001600160a01b031633146106985760405162461bcd60e51b815260206004820181905260248201527f4f776e61626c653a2063616c6c6572206973206e6f7420746865206f776e657260448201526064016104be565b610fec6113dc565b6007805460ff60a01b191690557f5db9ee0a495bf2e6ff9c91a7834c1ba4fdd244a5e8aa4e537bd38aeae4b073aa335b6040516001600160a01b03909116815260200160405180910390a1565b600780546001600160a01b038381166001600160a01b0319831681179093556040519116919082907f8be0079c531659141344cd1fd0a4f28419497f9722a3daafe3b4186f6b6457e090600090a35050565b611093610d64565b6007805460ff60a01b1916600160a01b1790557f62e78cea01bee320cd4e420270b5ea74000d11b0c9f74754ebdbfc544b05a25861101c3390565b816001600160a01b0316836001600160a01b03160361112f5760405162461bcd60e51b815260206004820152601960248201527f4552433732313a20617070726f766520746f2063616c6c65720000000000000060448201526064016104be565b6001600160a01b03838116600081815260056020908152604080832094871680845294825291829020805460ff191686151590811790915591519182527f17307eab39ab6107e8899845ad3d59bd9653f200f220920489ca2b5937696c31910160405180910390a3505050565b6111a7848484610bf3565b6111b38484848461142c565b61083a5760405162461bcd60e51b81526004016104be90612061565b6111d88161152a565b600081815260066020526040902080546111f190611f04565b159050610abc576000818152600660205260408120610abc91611b57565b606061121a82610ac8565b600061123160408051602081019091526000815290565b90506000815111611251576040518060200160405280600081525061127c565b8061125b846115cd565b60405160200161126c929190611fa1565b6040516020818303038152906040525b9392505050565b600181111561083a576001600160a01b038416156112c9576001600160a01b038416600090815260036020526040812080548392906112c39084906120c9565b90915550505b6001600160a01b0383161561083a576001600160a01b038316600090815260036020526040812080548392906113009084906120dc565b909155505050505050565b600080600061131a8585611660565b91509150611327816116a5565b509392505050565b6108048282604051806020016040528060008152506117ef565b6000828152600260205260409020546001600160a01b03166113c45760405162461bcd60e51b815260206004820152602e60248201527f45524337323155524953746f726167653a2055524920736574206f66206e6f6e60448201526d32bc34b9ba32b73a103a37b5b2b760911b60648201526084016104be565b600082815260066020526040902061055f828261213d565b600754600160a01b900460ff166106985760405162461bcd60e51b815260206004820152601460248201527314185d5cd8589b194e881b9bdd081c185d5cd95960621b60448201526064016104be565b60006001600160a01b0384163b1561152257604051630a85bd0160e11b81526001600160a01b0385169063150b7a02906114709033908990889088906004016121fd565b6020604051808303816000875af19250505080156114ab575060408051601f3d908101601f191682019092526114a89181019061223a565b60015b611508573d8080156114d9576040519150601f19603f3d011682016040523d82523d6000602084013e6114de565b606091505b5080516000036115005760405162461bcd60e51b81526004016104be90612061565b805181602001fd5b6001600160e01b031916630a85bd0160e11b149050610a10565b506001610a10565b6000611535826106e2565b9050611545816000846001611283565b61154e826106e2565b600083815260046020908152604080832080546001600160a01b03199081169091556001600160a01b0385168085526003845282852080546000190190558785526002909352818420805490911690555192935084927fddf252ad1be2c89b69c2b068fc378daa952ba7f163c4a11628f55a4df523b3ef908390a45050565b606060006115da83611822565b600101905060008167ffffffffffffffff8111156115fa576115fa611cd6565b6040519080825280601f01601f191660200182016040528015611624576020820181803683370190505b5090508181016020015b600019016f181899199a1a9b1b9c1cb0b131b232b360811b600a86061a8153600a850494508461162e57509392505050565b60008082516041036116965760208301516040840151606085015160001a61168a878285856118fa565b9450945050505061169e565b506000905060025b9250929050565b60008160048111156116b9576116b9611f8b565b036116c15750565b60018160048111156116d5576116d5611f8b565b036117225760405162461bcd60e51b815260206004820152601860248201527f45434453413a20696e76616c6964207369676e6174757265000000000000000060448201526064016104be565b600281600481111561173657611736611f8b565b036117835760405162461bcd60e51b815260206004820152601f60248201527f45434453413a20696e76616c6964207369676e6174757265206c656e6774680060448201526064016104be565b600381600481111561179757611797611f8b565b03610abc5760405162461bcd60e51b815260206004820152602260248201527f45434453413a20696e76616c6964207369676e6174757265202773272076616c604482015261756560f01b60648201526084016104be565b6117f983836119be565b611806600084848461142c565b61055f5760405162461bcd60e51b81526004016104be90612061565b60008072184f03e93ff9f4daa797ed6e38ed64bf6a1f0160401b83106118615772184f03e93ff9f4daa797ed6e38ed64bf6a1f0160401b830492506040015b6d04ee2d6d415b85acef8100000000831061188d576d04ee2d6d415b85acef8100000000830492506020015b662386f26fc1000083106118ab57662386f26fc10000830492506010015b6305f5e10083106118c3576305f5e100830492506008015b61271083106118d757612710830492506004015b606483106118e9576064830492506002015b600a831061038b5760010192915050565b6000807f7fffffffffffffffffffffffffffffff5d576e7357a4501ddfe92f46681b20a083111561193157506000905060036119b5565b6040805160008082526020820180845289905260ff881692820192909252606081018690526080810185905260019060a0016020604051602081039080840390855afa158015611985573d6000803e3d6000fd5b5050604051601f1901519150506001600160a01b0381166119ae576000600192509250506119b5565b9150600090505b94509492505050565b6001600160a01b038216611a145760405162461bcd60e51b815260206004820181905260248201527f4552433732313a206d696e7420746f20746865207a65726f206164647265737360448201526064016104be565b6000818152600260205260409020546001600160a01b031615611a795760405162461bcd60e51b815260206004820152601c60248201527f4552433732313a20746f6b656e20616c7265616479206d696e7465640000000060448201526064016104be565b611a87600083836001611283565b6000818152600260205260409020546001600160a01b031615611aec5760405162461bcd60e51b815260206004820152601c60248201527f4552433732313a20746f6b656e20616c7265616479206d696e7465640000000060448201526064016104be565b6001600160a01b038216600081815260036020908152604080832080546001019055848352600290915280822080546001600160a01b0319168417905551839291907fddf252ad1be2c89b69c2b068fc378daa952ba7f163c4a11628f55a4df523b3ef908290a45050565b508054611b6390611f04565b6000825580601f10611b73575050565b601f016020900490600052602060002090810190610abc91905b80821115611ba15760008155600101611b8d565b5090565b6001600160e01b031981168114610abc57600080fd5b600060208284031215611bcd57600080fd5b813561127c81611ba5565b60005b83811015611bf3578181015183820152602001611bdb565b50506000910152565b60008151808452611c14816020860160208601611bd8565b601f01601f19169290920160200192915050565b60208152600061127c6020830184611bfc565b600060208284031215611c4d57600080fd5b5035919050565b80356001600160a01b0381168114611c6b57600080fd5b919050565b60008060408385031215611c8357600080fd5b611c8c83611c54565b946020939093013593505050565b600080600060608486031215611caf57600080fd5b611cb884611c54565b9250611cc660208501611c54565b9150604084013590509250925092565b634e487b7160e01b600052604160045260246000fd5b600067ffffffffffffffff80841115611d0757611d07611cd6565b604051601f8501601f19908116603f01168101908282118183101715611d2f57611d2f611cd6565b81604052809350858152868686011115611d4857600080fd5b858560208301376000602087830101525050509392505050565b600082601f830112611d7357600080fd5b61127c83833560208501611cec565b60008060008060808587031215611d9857600080fd5b843567ffffffffffffffff80821115611db057600080fd5b611dbc88838901611d62565b9550611dca60208801611c54565b94506040870135915080821115611de057600080fd5b508501601f81018713611df257600080fd5b611e0187823560208401611cec565b949793965093946060013593505050565b600060208284031215611e2457600080fd5b61127c82611c54565b60008060408385031215611e4057600080fd5b611e4983611c54565b915060208301358015158114611e5e57600080fd5b809150509250929050565b60008060008060808587031215611e7f57600080fd5b611e8885611c54565b9350611e9660208601611c54565b925060408501359150606085013567ffffffffffffffff811115611eb957600080fd5b611ec587828801611d62565b91505092959194509250565b60008060408385031215611ee457600080fd5b611eed83611c54565b9150611efb60208401611c54565b90509250929050565b600181811c90821680611f1857607f821691505b602082108103611f3857634e487b7160e01b600052602260045260246000fd5b50919050565b6020808252602d908201527f4552433732313a2063616c6c6572206973206e6f7420746f6b656e206f776e6560408201526c1c881bdc88185c1c1c9bdd9959609a1b606082015260800190565b634e487b7160e01b600052602160045260246000fd5b60008351611fb3818460208801611bd8565b835190830190611fc7818360208801611bd8565b01949350505050565b60208082526025908201527f4552433732313a207472616e736665722066726f6d20696e636f72726563742060408201526437bbb732b960d91b606082015260800190565b60006bffffffffffffffffffffffff19808760601b1683528551612040816014860160208a01611bd8565b90920160148101949094525060609190911b16603482015260480192915050565b60208082526032908201527f4552433732313a207472616e7366657220746f206e6f6e20455243373231526560408201527131b2b4bb32b91034b6b83632b6b2b73a32b960711b606082015260800190565b634e487b7160e01b600052601160045260246000fd5b8181038181111561038b5761038b6120b3565b8082018082111561038b5761038b6120b3565b601f82111561055f57600081815260208120601f850160051c810160208610156121165750805b601f850160051c820191505b8181101561213557828155600101612122565b505050505050565b815167ffffffffffffffff81111561215757612157611cd6565b61216b816121658454611f04565b846120ef565b602080601f8311600181146121a057600084156121885750858301515b600019600386901b1c1916600185901b178555612135565b600085815260208120601f198616915b828110156121cf578886015182559484019460019091019084016121b0565b50858210156121ed5787850151600019600388901b60f8161c191681555b5050505050600190811b01905550565b6001600160a01b038581168252841660208201526040810183905260806060820181905260009061223090830184611bfc565b9695505050505050565b60006020828403121561224c57600080fd5b815161127c81611ba556fea264697066735822122042a1a134a131b5048e571100cb5c53546de7a70e6bafcf4cbabc20e8f011acb764736f6c63430008110033",
  "linkReferences": {},
  "deployedLinkReferences": {}
}