{
  "_format": "hh-sol-artifact-1",
  "contractName": "ShardDistribution",
  "sourceName": "contracts/ShardDistribution.sol",
  "abi": [
    {
      "inputs": [
        {
          "internalType": "string",
          "name": "name_",
          "type": "string"
        },
        {
          "internalType": "string",
          "name": "symbol_",
          "type": "string"
        },
        {
          "internalType": "uint8",
          "name": "shareDecimal_",
          "type": "uint8"
        },
        {
          "internalType": "uint256",
          "name": "targetShardSupply_",
          "type": "uint256"
        },
        {
          "internalType": "uint256",
          "name": "productNftID_",
          "type": "uint256"
        },
        {
          "internalType": "contract IProductNFT",
          "name": "productNFT_",
          "type": "address"
        },
        {
          "internalType": "address",
          "name": "rejuveAdmin_",
          "type": "address"
        }
      ],
      "stateMutability": "nonpayable",
      "type": "constructor"
    },
    {
      "anonymous": false,
      "inputs": [
        {
          "indexed": true,
          "internalType": "address",
          "name": "owner",
          "type": "address"
        },
        {
          "indexed": true,
          "internalType": "address",
          "name": "spender",
          "type": "address"
        },
        {
          "indexed": false,
          "internalType": "uint256",
          "name": "value",
          "type": "uint256"
        }
      ],
      "name": "Approval",
      "type": "event"
    },
    {
      "anonymous": false,
      "inputs": [
        {
          "indexed": false,
          "internalType": "address",
          "name": "account",
          "type": "address"
        }
      ],
      "name": "Paused",
      "type": "event"
    },
    {
      "anonymous": false,
      "inputs": [
        {
          "indexed": true,
          "internalType": "bytes32",
          "name": "role",
          "type": "bytes32"
        },
        {
          "indexed": true,
          "internalType": "bytes32",
          "name": "previousAdminRole",
          "type": "bytes32"
        },
        {
          "indexed": true,
          "internalType": "bytes32",
          "name": "newAdminRole",
          "type": "bytes32"
        }
      ],
      "name": "RoleAdminChanged",
      "type": "event"
    },
    {
      "anonymous": false,
      "inputs": [
        {
          "indexed": true,
          "internalType": "bytes32",
          "name": "role",
          "type": "bytes32"
        },
        {
          "indexed": true,
          "internalType": "address",
          "name": "account",
          "type": "address"
        },
        {
          "indexed": true,
          "internalType": "address",
          "name": "sender",
          "type": "address"
        }
      ],
      "name": "RoleGranted",
      "type": "event"
    },
    {
      "anonymous": false,
      "inputs": [
        {
          "indexed": true,
          "internalType": "bytes32",
          "name": "role",
          "type": "bytes32"
        },
        {
          "indexed": true,
          "internalType": "address",
          "name": "account",
          "type": "address"
        },
        {
          "indexed": true,
          "internalType": "address",
          "name": "sender",
          "type": "address"
        }
      ],
      "name": "RoleRevoked",
      "type": "event"
    },
    {
      "anonymous": false,
      "inputs": [
        {
          "indexed": false,
          "internalType": "uint256",
          "name": "productUID",
          "type": "uint256"
        },
        {
          "indexed": false,
          "internalType": "address[]",
          "name": "dataOwners",
          "type": "address[]"
        },
        {
          "indexed": false,
          "internalType": "uint256[]",
          "name": "shardAmount",
          "type": "uint256[]"
        }
      ],
      "name": "ShardDistributed",
      "type": "event"
    },
    {
      "anonymous": false,
      "inputs": [
        {
          "indexed": false,
          "internalType": "uint256",
          "name": "productUID",
          "type": "uint256"
        },
        {
          "indexed": false,
          "internalType": "address",
          "name": "lab",
          "type": "address"
        },
        {
          "indexed": false,
          "internalType": "uint256",
          "name": "amount",
          "type": "uint256"
        }
      ],
      "name": "ShardDistributedToLab",
      "type": "event"
    },
    {
      "anonymous": false,
      "inputs": [
        {
          "indexed": false,
          "internalType": "uint256",
          "name": "productUID",
          "type": "uint256"
        },
        {
          "indexed": false,
          "internalType": "address",
          "name": "rejuve",
          "type": "address"
        },
        {
          "indexed": false,
          "internalType": "uint256",
          "name": "amount",
          "type": "uint256"
        }
      ],
      "name": "ShardDistributedToRejuve",
      "type": "event"
    },
    {
      "anonymous": false,
      "inputs": [
        {
          "indexed": true,
          "internalType": "address",
          "name": "from",
          "type": "address"
        },
        {
          "indexed": true,
          "internalType": "address",
          "name": "to",
          "type": "address"
        },
        {
          "indexed": false,
          "internalType": "uint256",
          "name": "value",
          "type": "uint256"
        }
      ],
      "name": "Transfer",
      "type": "event"
    },
    {
      "anonymous": false,
      "inputs": [
        {
          "indexed": false,
          "internalType": "address",
          "name": "account",
          "type": "address"
        }
      ],
      "name": "Unpaused",
      "type": "event"
    },
    {
      "inputs": [],
      "name": "DEFAULT_ADMIN_ROLE",
      "outputs": [
        {
          "internalType": "bytes32",
          "name": "",
          "type": "bytes32"
        }
      ],
      "stateMutability": "view",
      "type": "function"
    },
    {
      "inputs": [],
      "name": "MINTER_ROLE",
      "outputs": [
        {
          "internalType": "bytes32",
          "name": "",
          "type": "bytes32"
        }
      ],
      "stateMutability": "view",
      "type": "function"
    },
    {
      "inputs": [],
      "name": "PAUSER_ROLE",
      "outputs": [
        {
          "internalType": "bytes32",
          "name": "",
          "type": "bytes32"
        }
      ],
      "stateMutability": "view",
      "type": "function"
    },
    {
      "inputs": [
        {
          "internalType": "address",
          "name": "owner",
          "type": "address"
        },
        {
          "internalType": "address",
          "name": "spender",
          "type": "address"
        }
      ],
      "name": "allowance",
      "outputs": [
        {
          "internalType": "uint256",
          "name": "",
          "type": "uint256"
        }
      ],
      "stateMutability": "view",
      "type": "function"
    },
    {
      "inputs": [
        {
          "internalType": "address",
          "name": "spender",
          "type": "address"
        },
        {
          "internalType": "uint256",
          "name": "amount",
          "type": "uint256"
        }
      ],
      "name": "approve",
      "outputs": [
        {
          "internalType": "bool",
          "name": "",
          "type": "bool"
        }
      ],
      "stateMutability": "nonpayable",
      "type": "function"
    },
    {
      "inputs": [
        {
          "internalType": "address",
          "name": "account",
          "type": "address"
        }
      ],
      "name": "balanceOf",
      "outputs": [
        {
          "internalType": "uint256",
          "name": "",
          "type": "uint256"
        }
      ],
      "stateMutability": "view",
      "type": "function"
    },
    {
      "inputs": [
        {
          "internalType": "uint256",
          "name": "_productUID",
          "type": "uint256"
        },
        {
          "internalType": "uint256",
          "name": "_initialContributorShare",
          "type": "uint256"
        },
        {
          "internalType": "uint256",
          "name": "_labShare",
          "type": "uint256"
        },
        {
          "internalType": "uint256",
          "name": "_rejuveShare",
          "type": "uint256"
        },
        {
          "internalType": "address",
          "name": "_labShardHolder",
          "type": "address"
        },
        {
          "internalType": "address",
          "name": "_rejuveShardHolder",
          "type": "address"
        }
      ],
      "name": "createInitialShards",
      "outputs": [],
      "stateMutability": "nonpayable",
      "type": "function"
    },
    {
      "inputs": [],
      "name": "decimals",
      "outputs": [
        {
          "internalType": "uint8",
          "name": "",
          "type": "uint8"
        }
      ],
      "stateMutability": "view",
      "type": "function"
    },
    {
      "inputs": [
        {
          "internalType": "address",
          "name": "spender",
          "type": "address"
        },
        {
          "internalType": "uint256",
          "name": "subtractedValue",
          "type": "uint256"
        }
      ],
      "name": "decreaseAllowance",
      "outputs": [
        {
          "internalType": "bool",
          "name": "",
          "type": "bool"
        }
      ],
      "stateMutability": "nonpayable",
      "type": "function"
    },
    {
      "inputs": [
        {
          "internalType": "bytes32",
          "name": "role",
          "type": "bytes32"
        }
      ],
      "name": "getRoleAdmin",
      "outputs": [
        {
          "internalType": "bytes32",
          "name": "",
          "type": "bytes32"
        }
      ],
      "stateMutability": "view",
      "type": "function"
    },
    {
      "inputs": [],
      "name": "getTargetSupply",
      "outputs": [
        {
          "internalType": "uint256",
          "name": "",
          "type": "uint256"
        }
      ],
      "stateMutability": "view",
      "type": "function"
    },
    {
      "inputs": [
        {
          "internalType": "bytes32",
          "name": "role",
          "type": "bytes32"
        },
        {
          "internalType": "address",
          "name": "account",
          "type": "address"
        }
      ],
      "name": "grantRole",
      "outputs": [],
      "stateMutability": "nonpayable",
      "type": "function"
    },
    {
      "inputs": [
        {
          "internalType": "bytes32",
          "name": "role",
          "type": "bytes32"
        },
        {
          "internalType": "address",
          "name": "account",
          "type": "address"
        }
      ],
      "name": "hasRole",
      "outputs": [
        {
          "internalType": "bool",
          "name": "",
          "type": "bool"
        }
      ],
      "stateMutability": "view",
      "type": "function"
    },
    {
      "inputs": [
        {
          "internalType": "address",
          "name": "spender",
          "type": "address"
        },
        {
          "internalType": "uint256",
          "name": "addedValue",
          "type": "uint256"
        }
      ],
      "name": "increaseAllowance",
      "outputs": [
        {
          "internalType": "bool",
          "name": "",
          "type": "bool"
        }
      ],
      "stateMutability": "nonpayable",
      "type": "function"
    },
    {
      "inputs": [],
      "name": "name",
      "outputs": [
        {
          "internalType": "string",
          "name": "",
          "type": "string"
        }
      ],
      "stateMutability": "view",
      "type": "function"
    },
    {
      "inputs": [
        {
          "internalType": "address",
          "name": "",
          "type": "address"
        },
        {
          "internalType": "address",
          "name": "",
          "type": "address"
        },
        {
          "internalType": "uint256",
          "name": "",
          "type": "uint256"
        },
        {
          "internalType": "bytes",
          "name": "",
          "type": "bytes"
        }
      ],
      "name": "onERC721Received",
      "outputs": [
        {
          "internalType": "bytes4",
          "name": "",
          "type": "bytes4"
        }
      ],
      "stateMutability": "pure",
      "type": "function"
    },
    {
      "inputs": [],
      "name": "parentToken",
      "outputs": [
        {
          "internalType": "address",
          "name": "",
          "type": "address"
        }
      ],
      "stateMutability": "view",
      "type": "function"
    },
    {
      "inputs": [],
      "name": "parentTokenId",
      "outputs": [
        {
          "internalType": "uint256",
          "name": "",
          "type": "uint256"
        }
      ],
      "stateMutability": "view",
      "type": "function"
    },
    {
      "inputs": [],
      "name": "pause",
      "outputs": [],
      "stateMutability": "nonpayable",
      "type": "function"
    },
    {
      "inputs": [],
      "name": "paused",
      "outputs": [
        {
          "internalType": "bool",
          "name": "",
          "type": "bool"
        }
      ],
      "stateMutability": "view",
      "type": "function"
    },
    {
      "inputs": [
        {
          "internalType": "bytes32",
          "name": "role",
          "type": "bytes32"
        },
        {
          "internalType": "address",
          "name": "account",
          "type": "address"
        }
      ],
      "name": "renounceRole",
      "outputs": [],
      "stateMutability": "nonpayable",
      "type": "function"
    },
    {
      "inputs": [
        {
          "internalType": "bytes32",
          "name": "role",
          "type": "bytes32"
        },
        {
          "internalType": "address",
          "name": "account",
          "type": "address"
        }
      ],
      "name": "revokeRole",
      "outputs": [],
      "stateMutability": "nonpayable",
      "type": "function"
    },
    {
      "inputs": [
        {
          "internalType": "bytes4",
          "name": "interfaceId",
          "type": "bytes4"
        }
      ],
      "name": "supportsInterface",
      "outputs": [
        {
          "internalType": "bool",
          "name": "",
          "type": "bool"
        }
      ],
      "stateMutability": "view",
      "type": "function"
    },
    {
      "inputs": [],
      "name": "symbol",
      "outputs": [
        {
          "internalType": "string",
          "name": "",
          "type": "string"
        }
      ],
      "stateMutability": "view",
      "type": "function"
    },
    {
      "inputs": [],
      "name": "totalSupply",
      "outputs": [
        {
          "internalType": "uint256",
          "name": "",
          "type": "uint256"
        }
      ],
      "stateMutability": "view",
      "type": "function"
    },
    {
      "inputs": [
        {
          "internalType": "address",
          "name": "to",
          "type": "address"
        },
        {
          "internalType": "uint256",
          "name": "amount",
          "type": "uint256"
        }
      ],
      "name": "transfer",
      "outputs": [
        {
          "internalType": "bool",
          "name": "",
          "type": "bool"
        }
      ],
      "stateMutability": "nonpayable",
      "type": "function"
    },
    {
      "inputs": [
        {
          "internalType": "address",
          "name": "from",
          "type": "address"
        },
        {
          "internalType": "address",
          "name": "to",
          "type": "address"
        },
        {
          "internalType": "uint256",
          "name": "amount",
          "type": "uint256"
        }
      ],
      "name": "transferFrom",
      "outputs": [
        {
          "internalType": "bool",
          "name": "",
          "type": "bool"
        }
      ],
      "stateMutability": "nonpayable",
      "type": "function"
    },
    {
      "inputs": [],
      "name": "unpause",
      "outputs": [],
      "stateMutability": "nonpayable",
      "type": "function"
    }
  ],
  "bytecode": "0x60806040523480156200001157600080fd5b5060405162002608380380620026088339810160408190526200003491620003b0565b6001805460ff191690558686828486620000506000846200014f565b6200007c7f9f2df0fed2c77648de5860a4cc508cd0818c85b8b8a1ab4ceeef8d981c8956a6336200014f565b620000a87f65d7a28e3265b37a6474929f336521b332c1681b933f6cb9f3376673440d862a846200014f565b600280546001600160a01b0319166001600160a01b0394851617905560018054610100600160a81b03191661010093909416929092029290921790556003558151620000fc90600790602085019062000212565b5080516200011290600890602084019062000212565b5050600a805460ff191660ff881690811782556200013292509062000583565b6200013e908562000598565b60095550620005f795505050505050565b6200015b82826200015f565b5050565b6200016b8282620001e7565b6200015b576000828152602081815260408083206001600160a01b03851684529091529020805460ff19166001179055620001a33390565b6001600160a01b0316816001600160a01b0316837f2f8788117e7eff1d82e926ec794901d17c78024a50270940304540a733656f0d60405160405180910390a45050565b6000828152602081815260408083206001600160a01b038516845290915290205460ff165b92915050565b8280546200022090620005ba565b90600052602060002090601f0160209004810192826200024457600085556200028f565b82601f106200025f57805160ff19168380011785556200028f565b828001600101855582156200028f579182015b828111156200028f57825182559160200191906001019062000272565b506200029d929150620002a1565b5090565b5b808211156200029d5760008155600101620002a2565b634e487b7160e01b600052604160045260246000fd5b600082601f830112620002e057600080fd5b81516001600160401b0380821115620002fd57620002fd620002b8565b604051601f8301601f19908116603f01168101908282118183101715620003285762000328620002b8565b816040528381526020925086838588010111156200034557600080fd5b600091505b838210156200036957858201830151818301840152908201906200034a565b838211156200037b5760008385830101525b9695505050505050565b6001600160a01b03811681146200039b57600080fd5b50565b8051620003ab8162000385565b919050565b600080600080600080600060e0888a031215620003cc57600080fd5b87516001600160401b0380821115620003e457600080fd5b620003f28b838c01620002ce565b985060208a01519150808211156200040957600080fd5b50620004188a828b01620002ce565b965050604088015160ff811681146200043057600080fd5b80955050606088015193506080880151925060a0880151620004528162000385565b91506200046260c089016200039e565b905092959891949750929550565b634e487b7160e01b600052601160045260246000fd5b600181815b80851115620004c7578160001904821115620004ab57620004ab62000470565b80851615620004b957918102915b93841c93908002906200048b565b509250929050565b600082620004e0575060016200020c565b81620004ef575060006200020c565b8160018114620005085760028114620005135762000533565b60019150506200020c565b60ff84111562000527576200052762000470565b50506001821b6200020c565b5060208310610133831016604e8410600b841016171562000558575081810a6200020c565b62000564838362000486565b80600019048211156200057b576200057b62000470565b029392505050565b6000620005918383620004cf565b9392505050565b6000816000190483118215151615620005b557620005b562000470565b500290565b600181811c90821680620005cf57607f821691505b60208210811415620005f157634e487b7160e01b600052602260045260246000fd5b50919050565b61200180620006076000396000f3fe608060405234801561001057600080fd5b50600436106101c45760003560e01c806380a54001116100f9578063a9059cbb11610097578063d7f083f311610071578063d7f083f3146103eb578063dd62ed3e146103f3578063dea6aec71461042c578063e63ab1e91461043457600080fd5b8063a9059cbb1461039e578063d5391393146103b1578063d547741f146103d857600080fd5b806391efa8e5116100d357806391efa8e51461036857806395d89b411461037b578063a217fddf14610383578063a457c2d71461038b57600080fd5b806380a54001146103245780638456cb591461034d57806391d148541461035557600080fd5b80632f2ff15d11610166578063395093511161014057806339509351146102d55780633f4ba83a146102e85780635c975abb146102f057806370a08231146102fb57600080fd5b80632f2ff15d14610298578063313ce567146102ad57806336568abe146102c257600080fd5b8063150b7a02116101a2578063150b7a021461021957806318160ddd1461025057806323b872dd14610262578063248a9ca31461027557600080fd5b806301ffc9a7146101c957806306fdde03146101f1578063095ea7b314610206575b600080fd5b6101dc6101d736600461194e565b61045b565b60405190151581526020015b60405180910390f35b6101f9610492565b6040516101e891906119d0565b6101dc6102143660046119fb565b610524565b610237610227366004611a96565b630a85bd0160e11b949350505050565b6040516001600160e01b031990911681526020016101e8565b6006545b6040519081526020016101e8565b6101dc610270366004611b45565b61053c565b610254610283366004611b86565b60009081526020819052604090206001015490565b6102ab6102a6366004611b9f565b610560565b005b600a5460405160ff90911681526020016101e8565b6102ab6102d0366004611b9f565b61058b565b6101dc6102e33660046119fb565b61060e565b6102ab61064d565b60015460ff166101dc565b610254610309366004611bcf565b6001600160a01b031660009081526004602052604090205490565b60015461010090046001600160a01b03166040516001600160a01b0390911681526020016101e8565b6102ab6106d7565b6101dc610363366004611b9f565b610764565b6102ab610376366004611bec565b61078d565b6101f96108e4565b610254600081565b6101dc6103993660046119fb565b6108f3565b6101dc6103ac3660046119fb565b610985565b6102547f9f2df0fed2c77648de5860a4cc508cd0818c85b8b8a1ab4ceeef8d981c8956a681565b6102ab6103e6366004611b9f565b610993565b600354610254565b610254610401366004611c4a565b6001600160a01b03918216600090815260056020908152604080832093909416825291909152205490565b600954610254565b6102547f65d7a28e3265b37a6474929f336521b332c1681b933f6cb9f3376673440d862a81565b60006001600160e01b03198216637965db0b60e01b148061048c57506301ffc9a760e01b6001600160e01b03198316145b92915050565b6060600780546104a190611c78565b80601f01602080910402602001604051908101604052809291908181526020018280546104cd90611c78565b801561051a5780601f106104ef5761010080835404028352916020019161051a565b820191906000526020600020905b8154815290600101906020018083116104fd57829003601f168201915b5050505050905090565b6000336105328185856109b9565b5060019392505050565b60003361054a858285610add565b610555858585610b6f565b506001949350505050565b60008281526020819052604090206001015461057c8133610d3d565b6105868383610da1565b505050565b6001600160a01b03811633146106005760405162461bcd60e51b815260206004820152602f60248201527f416363657373436f6e74726f6c3a2063616e206f6e6c792072656e6f756e636560448201526e103937b632b9903337b91039b2b63360891b60648201526084015b60405180910390fd5b61060a8282610e25565b5050565b3360008181526005602090815260408083206001600160a01b03871684529091528120549091906105329082908690610648908790611cc9565b6109b9565b6106777f65d7a28e3265b37a6474929f336521b332c1681b933f6cb9f3376673440d862a33610764565b6106cd5760405162461bcd60e51b815260206004820152602160248201527f52454a5556453a204d757374206861766520726f6c6520746f20756e706175736044820152606560f81b60648201526084016105f7565b6106d5610e8a565b565b6107017f65d7a28e3265b37a6474929f336521b332c1681b933f6cb9f3376673440d862a33610764565b61075c5760405162461bcd60e51b815260206004820152602660248201527f52454a5556453a204d75737420686176652070617573657220726f6c6520746f60448201526520706175736560d01b60648201526084016105f7565b6106d5610f1d565b6000918252602082815260408084206001600160a01b0393909316845291905290205460ff1690565b60015460ff16156107d35760405162461bcd60e51b815260206004820152601060248201526f14185d5cd8589b194e881c185d5cd95960821b60448201526064016105f7565b600d5460ff1680156108275760405162461bcd60e51b815260206004820152601860248201527f52454a5556453a20416c7265616479205265776172646564000000000000000060448201526064016105f7565b6108517f9f2df0fed2c77648de5860a4cc508cd0818c85b8b8a1ab4ceeef8d981c8956a633610764565b6108b25760405162461bcd60e51b815260206004820152602c60248201527f52454a5556453a204d7573742068617665206d696e74657220726f6c6520746f60448201526b206d696e742073686172647360a01b60648201526084016105f7565b6108bb87610f96565b6108c587876110d5565b6108d08786856113c9565b6108db878584611426565b50505050505050565b6060600880546104a190611c78565b3360008181526005602090815260408083206001600160a01b0387168452909152812054909190838110156109785760405162461bcd60e51b815260206004820152602560248201527f45524332303a2064656372656173656420616c6c6f77616e63652062656c6f77604482015264207a65726f60d81b60648201526084016105f7565b61055582868684036109b9565b600033610532818585610b6f565b6000828152602081905260409020600101546109af8133610d3d565b6105868383610e25565b6001600160a01b038316610a1b5760405162461bcd60e51b8152602060048201526024808201527f45524332303a20617070726f76652066726f6d20746865207a65726f206164646044820152637265737360e01b60648201526084016105f7565b6001600160a01b038216610a7c5760405162461bcd60e51b815260206004820152602260248201527f45524332303a20617070726f766520746f20746865207a65726f206164647265604482015261737360f01b60648201526084016105f7565b6001600160a01b0383811660008181526005602090815260408083209487168084529482529182902085905590518481527f8c5be1e5ebec7d5bd14f71427d1e84f3dd0314c0f7b2291e5b200ac8c7c3b925910160405180910390a3505050565b6001600160a01b038381166000908152600560209081526040808320938616835292905220546000198114610b695781811015610b5c5760405162461bcd60e51b815260206004820152601d60248201527f45524332303a20696e73756666696369656e7420616c6c6f77616e636500000060448201526064016105f7565b610b6984848484036109b9565b50505050565b6001600160a01b038316610bd35760405162461bcd60e51b815260206004820152602560248201527f45524332303a207472616e736665722066726f6d20746865207a65726f206164604482015264647265737360d81b60648201526084016105f7565b6001600160a01b038216610c355760405162461bcd60e51b815260206004820152602360248201527f45524332303a207472616e7366657220746f20746865207a65726f206164647260448201526265737360e81b60648201526084016105f7565b6001600160a01b03831660009081526004602052604090205481811015610cad5760405162461bcd60e51b815260206004820152602660248201527f45524332303a207472616e7366657220616d6f756e7420657863656564732062604482015265616c616e636560d01b60648201526084016105f7565b6001600160a01b03808516600090815260046020526040808220858503905591851681529081208054849290610ce4908490611cc9565b92505081905550826001600160a01b0316846001600160a01b03167fddf252ad1be2c89b69c2b068fc378daa952ba7f163c4a11628f55a4df523b3ef84604051610d3091815260200190565b60405180910390a3610b69565b610d478282610764565b61060a57610d5f816001600160a01b03166014611483565b610d6a836020611483565b604051602001610d7b929190611ce1565b60408051601f198184030181529082905262461bcd60e51b82526105f7916004016119d0565b610dab8282610764565b61060a576000828152602081815260408083206001600160a01b03851684529091529020805460ff19166001179055610de13390565b6001600160a01b0316816001600160a01b0316837f2f8788117e7eff1d82e926ec794901d17c78024a50270940304540a733656f0d60405160405180910390a45050565b610e2f8282610764565b1561060a576000828152602081815260408083206001600160a01b0385168085529252808320805460ff1916905551339285917ff6391f5c32d9c69d2a47ea670b442974b53935d1edc7fd64eb21e047a839171b9190a45050565b60015460ff16610ed35760405162461bcd60e51b815260206004820152601460248201527314185d5cd8589b194e881b9bdd081c185d5cd95960621b60448201526064016105f7565b6001805460ff191690557f5db9ee0a495bf2e6ff9c91a7834c1ba4fdd244a5e8aa4e537bd38aeae4b073aa335b6040516001600160a01b03909116815260200160405180910390a1565b60015460ff1615610f635760405162461bcd60e51b815260206004820152601060248201526f14185d5cd8589b194e881c185d5cd95960821b60448201526064016105f7565b6001805460ff1916811790557f62e78cea01bee320cd4e420270b5ea74000d11b0c9f74754ebdbfc544b05a25833610f00565b60015460405163020604bf60e21b815260048101839052309161010090046001600160a01b03169063081812fc9060240160206040518083038186803b158015610fdf57600080fd5b505afa158015610ff3573d6000803e3d6000fd5b505050506040513d601f19601f820116820180604052508101906110179190611d56565b6001600160a01b0316146110645760405162461bcd60e51b81526020600482015260146024820152731491529555914e88139bdd08185c1c1c9bdd995960621b60448201526064016105f7565b600154604051632142170760e11b8152336004820152306024820152604481018390526101009091046001600160a01b0316906342842e0e90606401600060405180830381600087803b1580156110ba57600080fd5b505af11580156110ce573d6000803e3d6000fd5b5050505050565b60006110e083611626565b905060006110ed846116b0565b905060005b6001546040516384ffeca560e01b8152600481018790526101009091046001600160a01b0316906384ffeca59060240160206040518083038186803b15801561113a57600080fd5b505afa15801561114e573d6000803e3d6000fd5b505050506040513d601f19601f820116820180604052508101906111729190611d73565b81101561137757600060018054906101000a90046001600160a01b03166001600160a01b03166359a96ffe8584815181106111af576111af611d8c565b60200260200101516040518263ffffffff1660e01b81526004016111d391906119d0565b60206040518083038186803b1580156111eb57600080fd5b505afa1580156111ff573d6000803e3d6000fd5b505050506040513d601f19601f820116820180604052508101906112239190611d56565b905060006112db60018054906101000a90046001600160a01b03166001600160a01b0316630e47cefa87868151811061125e5761125e611d8c565b60200260200101518a6040518363ffffffff1660e01b8152600401611284929190611da2565b60206040518083038186803b15801561129c57600080fd5b505afa1580156112b0573d6000803e3d6000fd5b505050506040513d601f19601f820116820180604052508101906112d49190611d73565b85886117a1565b90506112e782826117ec565b600b805460018082019092557f0175b7a638427703f0dbe7bb9bbf987a2551717b34e79f33b5b1008d1fa01db90180546001600160a01b0319166001600160a01b039490941693909317909255600c805492830181556000527fdf6966c971051c3d54ec59162606531493a51404a002842f56009d7e5cf4a8c7909101558061136f81611dc4565b9150506110f2565b50600d805460ff191660011790556040517f9c4f7932f4bf853ffa52a0f4a3147c9aae977e2252611d00187ff5bb741e1e54906113bb908690600b90600c90611ddf565b60405180910390a150505050565b60006113d483611852565b90506113e082826117ec565b604080518581526001600160a01b03841660208201529081018290527f063dca65d0ff46975ac82ef75fe476c85a89efa3972e0cd03614722f3dc40565906060016113bb565b600061143183611852565b905061143d82826117ec565b604080518581526001600160a01b03841660208201529081018290527fb6a08d66523455633a6b93c0b9ef22953d369ddfe084ba104c4f8ed5b35fffc4906060016113bb565b60606000611492836002611e74565b61149d906002611cc9565b67ffffffffffffffff8111156114b5576114b5611a27565b6040519080825280601f01601f1916602001820160405280156114df576020820181803683370190505b509050600360fc1b816000815181106114fa576114fa611d8c565b60200101906001600160f81b031916908160001a905350600f60fb1b8160018151811061152957611529611d8c565b60200101906001600160f81b031916908160001a905350600061154d846002611e74565b611558906001611cc9565b90505b60018111156115d0576f181899199a1a9b1b9c1cb0b131b232b360811b85600f166010811061158c5761158c611d8c565b1a60f81b8282815181106115a2576115a2611d8c565b60200101906001600160f81b031916908160001a90535060049490941c936115c981611e93565b905061155b565b50831561161f5760405162461bcd60e51b815260206004820181905260248201527f537472696e67733a20686578206c656e67746820696e73756666696369656e7460448201526064016105f7565b9392505050565b60015460405163c9187fe760e01b8152600481018390526060916000916101009091046001600160a01b03169063c9187fe79060240160006040518083038186803b15801561167457600080fd5b505afa158015611688573d6000803e3d6000fd5b505050506040513d6000823e601f3d908101601f1916820160405261161f9190810190611eaa565b6000806116bc83611626565b90506000805b825181101561179957600060018054906101000a90046001600160a01b03166001600160a01b0316630e47cefa85848151811061170157611701611d8c565b6020026020010151886040518363ffffffff1660e01b8152600401611727929190611da2565b60206040518083038186803b15801561173f57600080fd5b505afa158015611753573d6000803e3d6000fd5b505050506040513d601f19601f820116820180604052508101906117779190611d73565b90506117838184611cc9565b925050808061179190611dc4565b9150506116c2565b509392505050565b600080836117b0866064611e74565b6117ba9190611fa9565b905060006117c784611852565b9050600060646117d78484611e74565b6117e19190611fa9565b979650505050505050565b600954816117f960065490565b6118039190611cc9565b11156118485760405162461bcd60e51b81526020600482015260146024820152731491529555914e8810d85c08195e18d95959195960621b60448201526064016105f7565b61060a828261186f565b6000806064836009546118659190611e74565b61161f9190611fa9565b6001600160a01b0382166118c55760405162461bcd60e51b815260206004820152601f60248201527f45524332303a206d696e7420746f20746865207a65726f20616464726573730060448201526064016105f7565b80600660008282546118d79190611cc9565b90915550506001600160a01b03821660009081526004602052604081208054839290611904908490611cc9565b90915550506040518181526001600160a01b038316906000907fddf252ad1be2c89b69c2b068fc378daa952ba7f163c4a11628f55a4df523b3ef9060200160405180910390a35050565b60006020828403121561196057600080fd5b81356001600160e01b03198116811461161f57600080fd5b60005b8381101561199357818101518382015260200161197b565b83811115610b695750506000910152565b600081518084526119bc816020860160208601611978565b601f01601f19169290920160200192915050565b60208152600061161f60208301846119a4565b6001600160a01b03811681146119f857600080fd5b50565b60008060408385031215611a0e57600080fd5b8235611a19816119e3565b946020939093013593505050565b634e487b7160e01b600052604160045260246000fd5b604051601f8201601f1916810167ffffffffffffffff81118282101715611a6657611a66611a27565b604052919050565b600067ffffffffffffffff821115611a8857611a88611a27565b50601f01601f191660200190565b60008060008060808587031215611aac57600080fd5b8435611ab7816119e3565b93506020850135611ac7816119e3565b925060408501359150606085013567ffffffffffffffff811115611aea57600080fd5b8501601f81018713611afb57600080fd5b8035611b0e611b0982611a6e565b611a3d565b818152886020838501011115611b2357600080fd5b8160208401602083013760006020838301015280935050505092959194509250565b600080600060608486031215611b5a57600080fd5b8335611b65816119e3565b92506020840135611b75816119e3565b929592945050506040919091013590565b600060208284031215611b9857600080fd5b5035919050565b60008060408385031215611bb257600080fd5b823591506020830135611bc4816119e3565b809150509250929050565b600060208284031215611be157600080fd5b813561161f816119e3565b60008060008060008060c08789031215611c0557600080fd5b863595506020870135945060408701359350606087013592506080870135611c2c816119e3565b915060a0870135611c3c816119e3565b809150509295509295509295565b60008060408385031215611c5d57600080fd5b8235611c68816119e3565b91506020830135611bc4816119e3565b600181811c90821680611c8c57607f821691505b60208210811415611cad57634e487b7160e01b600052602260045260246000fd5b50919050565b634e487b7160e01b600052601160045260246000fd5b60008219821115611cdc57611cdc611cb3565b500190565b7f416363657373436f6e74726f6c3a206163636f756e7420000000000000000000815260008351611d19816017850160208801611978565b7001034b99036b4b9b9b4b733903937b6329607d1b6017918401918201528351611d4a816028840160208801611978565b01602801949350505050565b600060208284031215611d6857600080fd5b815161161f816119e3565b600060208284031215611d8557600080fd5b5051919050565b634e487b7160e01b600052603260045260246000fd5b604081526000611db560408301856119a4565b90508260208301529392505050565b6000600019821415611dd857611dd8611cb3565b5060010190565b600060608201858352602060608185015281865480845260808601915060009350878452828420845b82811015611e2d5781546001600160a01b031684529284019260019182019101611e08565b50505084810360408601528554808252868452828420918301905b80851015611e6757825482526001948501949092019190830190611e48565b5098975050505050505050565b6000816000190483118215151615611e8e57611e8e611cb3565b500290565b600081611ea257611ea2611cb3565b506000190190565b60006020808385031215611ebd57600080fd5b825167ffffffffffffffff80821115611ed557600080fd5b818501915085601f830112611ee957600080fd5b815181811115611efb57611efb611a27565b8060051b611f0a858201611a3d565b9182528381018501918581019089841115611f2457600080fd5b86860192505b83831015611f9c57825185811115611f425760008081fd5b8601603f81018b13611f545760008081fd5b878101516040611f66611b0983611a6e565b8281528d82848601011115611f7b5760008081fd5b611f8a838c8301848701611978565b85525050509186019190860190611f2a565b9998505050505050505050565b600082611fc657634e487b7160e01b600052601260045260246000fd5b50049056fea26469706673582212204777fd2ac19f7e9cad25f7fab9d3ad9edac1d91a3a16a64d2bc3810100892d4764736f6c63430008090033",
  "linkReferences": {},
  "deployedLinkReferences": {}
}